{
	"contracts/Reputation.sol": {
		"Reputation": {
			"abi": [
				{
					"anonymous": false,
					"inputs": [
						{
							"indexed": true,
							"internalType": "address",
							"name": "previousOwner",
							"type": "address"
						},
						{
							"indexed": true,
							"internalType": "address",
							"name": "newOwner",
							"type": "address"
						}
					],
					"name": "OwnershipTransferred",
					"type": "event"
				},
				{
					"inputs": [
						{
							"internalType": "address",
							"name": "_token",
							"type": "address"
						},
						{
							"internalType": "uint256",
							"name": "_coefficient",
							"type": "uint256"
						}
					],
					"name": "addTokenAddress",
					"outputs": [],
					"stateMutability": "nonpayable",
					"type": "function"
				},
				{
					"inputs": [
						{
							"internalType": "address",
							"name": "_user",
							"type": "address"
						}
					],
					"name": "checkReputation",
					"outputs": [
						{
							"internalType": "uint256",
							"name": "",
							"type": "uint256"
						}
					],
					"stateMutability": "view",
					"type": "function"
				},
				{
					"inputs": [
						{
							"internalType": "address",
							"name": "",
							"type": "address"
						}
					],
					"name": "coefficients",
					"outputs": [
						{
							"internalType": "uint256",
							"name": "",
							"type": "uint256"
						}
					],
					"stateMutability": "view",
					"type": "function"
				},
				{
					"inputs": [
						{
							"internalType": "address",
							"name": "_token",
							"type": "address"
						}
					],
					"name": "deleteSubToken",
					"outputs": [],
					"stateMutability": "nonpayable",
					"type": "function"
				},
				{
					"inputs": [
						{
							"internalType": "address",
							"name": "_token",
							"type": "address"
						}
					],
					"name": "deleteToken",
					"outputs": [],
					"stateMutability": "nonpayable",
					"type": "function"
				},
				{
					"inputs": [],
					"name": "fireSoul",
					"outputs": [
						{
							"internalType": "address",
							"name": "",
							"type": "address"
						}
					],
					"stateMutability": "view",
					"type": "function"
				},
				{
					"inputs": [],
					"name": "getSubTokensLength",
					"outputs": [
						{
							"internalType": "uint256",
							"name": "",
							"type": "uint256"
						}
					],
					"stateMutability": "view",
					"type": "function"
				},
				{
					"inputs": [],
					"name": "getTokensLength",
					"outputs": [
						{
							"internalType": "uint256",
							"name": "",
							"type": "uint256"
						}
					],
					"stateMutability": "view",
					"type": "function"
				},
				{
					"inputs": [],
					"name": "owner",
					"outputs": [
						{
							"internalType": "address",
							"name": "",
							"type": "address"
						}
					],
					"stateMutability": "view",
					"type": "function"
				},
				{
					"inputs": [],
					"name": "renounceOwnership",
					"outputs": [],
					"stateMutability": "nonpayable",
					"type": "function"
				},
				{
					"inputs": [
						{
							"internalType": "address",
							"name": "_token",
							"type": "address"
						},
						{
							"internalType": "uint256",
							"name": "_coefficient",
							"type": "uint256"
						}
					],
					"name": "setCoefficient",
					"outputs": [],
					"stateMutability": "nonpayable",
					"type": "function"
				},
				{
					"inputs": [
						{
							"internalType": "address",
							"name": "_fireSoul",
							"type": "address"
						}
					],
					"name": "setFireSoulAddress",
					"outputs": [],
					"stateMutability": "nonpayable",
					"type": "function"
				},
				{
					"inputs": [
						{
							"internalType": "address",
							"name": "_token",
							"type": "address"
						},
						{
							"internalType": "uint256",
							"name": "_coefficient",
							"type": "uint256"
						}
					],
					"name": "subTokenAddress",
					"outputs": [],
					"stateMutability": "nonpayable",
					"type": "function"
				},
				{
					"inputs": [
						{
							"internalType": "uint256",
							"name": "",
							"type": "uint256"
						}
					],
					"name": "subTokens",
					"outputs": [
						{
							"internalType": "address",
							"name": "",
							"type": "address"
						}
					],
					"stateMutability": "view",
					"type": "function"
				},
				{
					"inputs": [
						{
							"internalType": "uint256",
							"name": "",
							"type": "uint256"
						}
					],
					"name": "tokens",
					"outputs": [
						{
							"internalType": "address",
							"name": "",
							"type": "address"
						}
					],
					"stateMutability": "view",
					"type": "function"
				},
				{
					"inputs": [
						{
							"internalType": "address",
							"name": "newOwner",
							"type": "address"
						}
					],
					"name": "transferOwnership",
					"outputs": [],
					"stateMutability": "nonpayable",
					"type": "function"
				}
			],
			"devdoc": {
				"kind": "dev",
				"methods": {
					"owner()": {
						"details": "Returns the address of the current owner."
					},
					"renounceOwnership()": {
						"details": "Leaves the contract without owner. It will not be possible to call `onlyOwner` functions anymore. Can only be called by the current owner. NOTE: Renouncing ownership will leave the contract without an owner, thereby removing any functionality that is only available to the owner."
					},
					"transferOwnership(address)": {
						"details": "Transfers ownership of the contract to a new account (`newOwner`). Can only be called by the current owner."
					}
				},
				"version": 1
			},
			"evm": {
				"assembly": "    /* \"contracts/Reputation.sol\":204:2903  contract Reputation is Ownable {... */\n  mstore(0x40, 0x80)\n  callvalue\n  dup1\n  iszero\n  tag_1\n  jumpi\n  0x00\n  dup1\n  revert\ntag_1:\n  pop\n    /* \"@openzeppelin/contracts/access/Ownable.sol\":936:968  _transferOwnership(_msgSender()) */\n  tag_4\n    /* \"@openzeppelin/contracts/utils/Context.sol\":719:729  msg.sender */\n  caller\n    /* \"@openzeppelin/contracts/access/Ownable.sol\":936:954  _transferOwnership */\n  tag_7\n    /* \"@openzeppelin/contracts/access/Ownable.sol\":936:968  _transferOwnership(_msgSender()) */\n  jump\t// in\ntag_4:\n    /* \"contracts/Reputation.sol\":204:2903  contract Reputation is Ownable {... */\n  jump(tag_8)\n    /* \"@openzeppelin/contracts/access/Ownable.sol\":2433:2620  function _transferOwnership(address newOwner) internal virtual {... */\ntag_7:\n    /* \"@openzeppelin/contracts/access/Ownable.sol\":2506:2522  address oldOwner */\n  0x00\n    /* \"@openzeppelin/contracts/access/Ownable.sol\":2525:2531  _owner */\n  dup1\n  sload\n  sub(shl(0xa0, 0x01), 0x01)\n    /* \"@openzeppelin/contracts/access/Ownable.sol\":2541:2558  _owner = newOwner */\n  dup4\n  dup2\n  and\n  not(sub(shl(0xa0, 0x01), 0x01))\n  dup4\n  and\n  dup2\n  or\n  dup5\n  sstore\n    /* \"@openzeppelin/contracts/access/Ownable.sol\":2573:2613  OwnershipTransferred(oldOwner, newOwner) */\n  mload(0x40)\n    /* \"@openzeppelin/contracts/access/Ownable.sol\":2525:2531  _owner */\n  swap2\n  swap1\n  swap3\n  and\n  swap3\n  dup4\n  swap2\n    /* \"@openzeppelin/contracts/access/Ownable.sol\":2573:2613  OwnershipTransferred(oldOwner, newOwner) */\n  0x8be0079c531659141344cd1fd0a4f28419497f9722a3daafe3b4186f6b6457e0\n  swap2\n    /* \"@openzeppelin/contracts/access/Ownable.sol\":2506:2522  address oldOwner */\n  swap1\n    /* \"@openzeppelin/contracts/access/Ownable.sol\":2573:2613  OwnershipTransferred(oldOwner, newOwner) */\n  log3\n    /* \"@openzeppelin/contracts/access/Ownable.sol\":2496:2620  {... */\n  pop\n    /* \"@openzeppelin/contracts/access/Ownable.sol\":2433:2620  function _transferOwnership(address newOwner) internal virtual {... */\n  pop\n  jump\t// out\n    /* \"contracts/Reputation.sol\":204:2903  contract Reputation is Ownable {... */\ntag_8:\n  dataSize(sub_0)\n  dup1\n  dataOffset(sub_0)\n  0x00\n  codecopy\n  0x00\n  return\nstop\n\nsub_0: assembly {\n        /* \"contracts/Reputation.sol\":204:2903  contract Reputation is Ownable {... */\n      mstore(0x40, 0x80)\n      callvalue\n      dup1\n      iszero\n      tag_1\n      jumpi\n      0x00\n      dup1\n      revert\n    tag_1:\n      pop\n      jumpi(tag_2, lt(calldatasize, 0x04))\n      shr(0xe0, calldataload(0x00))\n      dup1\n      0x9090c0f2\n      gt\n      tag_19\n      jumpi\n      dup1\n      0xf069f712\n      gt\n      tag_20\n      jumpi\n      dup1\n      0xf069f712\n      eq\n      tag_15\n      jumpi\n      dup1\n      0xf2fde38b\n      eq\n      tag_16\n      jumpi\n      dup1\n      0xf52ce425\n      eq\n      tag_17\n      jumpi\n      dup1\n      0xf9af8b38\n      eq\n      tag_18\n      jumpi\n      0x00\n      dup1\n      revert\n    tag_20:\n      dup1\n      0x9090c0f2\n      eq\n      tag_11\n      jumpi\n      dup1\n      0xa668e3ce\n      eq\n      tag_12\n      jumpi\n      dup1\n      0xa6da308e\n      eq\n      tag_13\n      jumpi\n      dup1\n      0xb0c26ecf\n      eq\n      tag_14\n      jumpi\n      0x00\n      dup1\n      revert\n    tag_19:\n      dup1\n      0x6a2be1a1\n      gt\n      tag_21\n      jumpi\n      dup1\n      0x6a2be1a1\n      eq\n      tag_7\n      jumpi\n      dup1\n      0x715018a6\n      eq\n      tag_8\n      jumpi\n      dup1\n      0x8cafebef\n      eq\n      tag_9\n      jumpi\n      dup1\n      0x8da5cb5b\n      eq\n      tag_10\n      jumpi\n      0x00\n      dup1\n      revert\n    tag_21:\n      dup1\n      0x014ab313\n      eq\n      tag_3\n      jumpi\n      dup1\n      0x1353ef1e\n      eq\n      tag_4\n      jumpi\n      dup1\n      0x1a5ef71c\n      eq\n      tag_5\n      jumpi\n      dup1\n      0x4f64b2be\n      eq\n      tag_6\n      jumpi\n    tag_2:\n      0x00\n      dup1\n      revert\n        /* \"contracts/Reputation.sol\":2150:2694  function checkReputation(address _user) external view returns (uint256) {... */\n    tag_3:\n      tag_22\n      tag_23\n      calldatasize\n      0x04\n      tag_24\n      jump\t// in\n    tag_23:\n      tag_25\n      jump\t// in\n    tag_22:\n      mload(0x40)\n        /* \"#utility.yul\":548:573   */\n      swap1\n      dup2\n      mstore\n        /* \"#utility.yul\":536:538   */\n      0x20\n        /* \"#utility.yul\":521:539   */\n      add\n        /* \"contracts/Reputation.sol\":2150:2694  function checkReputation(address _user) external view returns (uint256) {... */\n    tag_26:\n      mload(0x40)\n      dup1\n      swap2\n      sub\n      swap1\n      return\n        /* \"contracts/Reputation.sol\":1131:1347  function setCoefficient(address _token, uint256 _coefficient) external onlyOwner {... */\n    tag_4:\n      tag_28\n      tag_29\n      calldatasize\n      0x04\n      tag_30\n      jump\t// in\n    tag_29:\n      tag_31\n      jump\t// in\n    tag_28:\n      stop\n        /* \"contracts/Reputation.sol\":355:378  address public fireSoul */\n    tag_5:\n      sload(0x04)\n      tag_32\n      swap1\n      sub(shl(0xa0, 0x01), 0x01)\n      and\n      dup2\n      jump\n    tag_32:\n      mload(0x40)\n      sub(shl(0xa0, 0x01), 0x01)\n        /* \"#utility.yul\":1068:1100   */\n      swap1\n      swap2\n      and\n        /* \"#utility.yul\":1050:1101   */\n      dup2\n      mstore\n        /* \"#utility.yul\":1038:1040   */\n      0x20\n        /* \"#utility.yul\":1023:1041   */\n      add\n        /* \"contracts/Reputation.sol\":355:378  address public fireSoul */\n      tag_26\n        /* \"#utility.yul\":904:1107   */\n      jump\n        /* \"contracts/Reputation.sol\":294:317  address[] public tokens */\n    tag_6:\n      tag_32\n      tag_37\n      calldatasize\n      0x04\n      tag_38\n      jump\t// in\n    tag_37:\n      tag_39\n      jump\t// in\n        /* \"contracts/Reputation.sol\":241:288  mapping(address => uint256) public coefficients */\n    tag_7:\n      tag_22\n      tag_42\n      calldatasize\n      0x04\n      tag_24\n      jump\t// in\n    tag_42:\n      mstore(0x20, 0x01)\n      0x00\n      swap1\n      dup2\n      mstore\n      0x40\n      swap1\n      keccak256\n      sload\n      dup2\n      jump\n        /* \"@openzeppelin/contracts/access/Ownable.sol\":1831:1932  function renounceOwnership() public virtual onlyOwner {... */\n    tag_8:\n      tag_28\n      tag_46\n      jump\t// in\n        /* \"contracts/Reputation.sol\":2801:2901  function getSubTokensLength() external view returns(uint256){... */\n    tag_9:\n        /* \"contracts/Reputation.sol\":2878:2887  subTokens */\n      0x03\n        /* \"contracts/Reputation.sol\":2878:2894  subTokens.length */\n      sload\n        /* \"contracts/Reputation.sol\":2801:2901  function getSubTokensLength() external view returns(uint256){... */\n      jump(tag_22)\n        /* \"@openzeppelin/contracts/access/Ownable.sol\":1201:1286  function owner() public view virtual returns (address) {... */\n    tag_10:\n        /* \"@openzeppelin/contracts/access/Ownable.sol\":1247:1254  address */\n      0x00\n        /* \"@openzeppelin/contracts/access/Ownable.sol\":1273:1279  _owner */\n      sload\n      sub(shl(0xa0, 0x01), 0x01)\n      and\n        /* \"@openzeppelin/contracts/access/Ownable.sol\":1201:1286  function owner() public view virtual returns (address) {... */\n      jump(tag_32)\n        /* \"contracts/Reputation.sol\":385:488  function setFireSoulAddress(address _fireSoul) external onlyOwner {... */\n    tag_11:\n      tag_28\n      tag_54\n      calldatasize\n      0x04\n      tag_24\n      jump\t// in\n    tag_54:\n      tag_55\n      jump\t// in\n        /* \"contracts/Reputation.sol\":1741:2145  function deleteSubToken(address _token) external onlyOwner {... */\n    tag_12:\n      tag_28\n      tag_57\n      calldatasize\n      0x04\n      tag_24\n      jump\t// in\n    tag_57:\n      tag_58\n      jump\t// in\n        /* \"contracts/Reputation.sol\":804:1126  function subTokenAddress(address _token, uint256 _coefficient) external onlyOwner{... */\n    tag_13:\n      tag_28\n      tag_60\n      calldatasize\n      0x04\n      tag_30\n      jump\t// in\n    tag_60:\n      tag_61\n      jump\t// in\n        /* \"contracts/Reputation.sol\":2700:2796  function getTokensLength() external view returns (uint256) {... */\n    tag_14:\n        /* \"contracts/Reputation.sol\":2776:2782  tokens */\n      0x02\n        /* \"contracts/Reputation.sol\":2776:2789  tokens.length */\n      sload\n        /* \"contracts/Reputation.sol\":2700:2796  function getTokensLength() external view returns (uint256) {... */\n      jump(tag_22)\n        /* \"contracts/Reputation.sol\":1352:1736  function deleteToken(address _token) external onlyOwner{... */\n    tag_15:\n      tag_28\n      tag_66\n      calldatasize\n      0x04\n      tag_24\n      jump\t// in\n    tag_66:\n      tag_67\n      jump\t// in\n        /* \"@openzeppelin/contracts/access/Ownable.sol\":2081:2279  function transferOwnership(address newOwner) public virtual onlyOwner {... */\n    tag_16:\n      tag_28\n      tag_69\n      calldatasize\n      0x04\n      tag_24\n      jump\t// in\n    tag_69:\n      tag_70\n      jump\t// in\n        /* \"contracts/Reputation.sol\":323:349  address[] public subTokens */\n    tag_17:\n      tag_32\n      tag_72\n      calldatasize\n      0x04\n      tag_38\n      jump\t// in\n    tag_72:\n      tag_73\n      jump\t// in\n        /* \"contracts/Reputation.sol\":494:799  function addTokenAddress(address _token, uint256 _coefficient) external onlyOwner {... */\n    tag_18:\n      tag_28\n      tag_76\n      calldatasize\n      0x04\n      tag_30\n      jump\t// in\n    tag_76:\n      tag_77\n      jump\t// in\n        /* \"contracts/Reputation.sol\":2150:2694  function checkReputation(address _user) external view returns (uint256) {... */\n    tag_25:\n        /* \"contracts/Reputation.sol\":2213:2220  uint256 */\n      0x00\n      dup1\n      dup1\n        /* \"contracts/Reputation.sol\":2270:2455  for (uint256 i = 0; i < tokens.length; i++) {... */\n    tag_79:\n        /* \"contracts/Reputation.sol\":2294:2300  tokens */\n      0x02\n        /* \"contracts/Reputation.sol\":2294:2307  tokens.length */\n      sload\n        /* \"contracts/Reputation.sol\":2290:2307  i < tokens.length */\n      dup2\n      lt\n        /* \"contracts/Reputation.sol\":2270:2455  for (uint256 i = 0; i < tokens.length; i++) {... */\n      iszero\n      tag_80\n      jumpi\n        /* \"contracts/Reputation.sol\":2421:2433  coefficients */\n      0x01\n        /* \"contracts/Reputation.sol\":2421:2444  coefficients[tokens[i]] */\n      0x00\n        /* \"contracts/Reputation.sol\":2434:2440  tokens */\n      0x02\n        /* \"contracts/Reputation.sol\":2441:2442  i */\n      dup4\n        /* \"contracts/Reputation.sol\":2434:2443  tokens[i] */\n      dup2\n      sload\n      dup2\n      lt\n      tag_83\n      jumpi\n      tag_83\n      tag_84\n      jump\t// in\n    tag_83:\n      0x00\n      swap2\n      dup3\n      mstore\n      0x20\n      dup1\n      dup4\n      keccak256\n      swap1\n      swap2\n      add\n      sload\n      sub(shl(0xa0, 0x01), 0x01)\n      and\n        /* \"contracts/Reputation.sol\":2421:2444  coefficients[tokens[i]] */\n      dup4\n      mstore\n      dup3\n      add\n      swap3\n      swap1\n      swap3\n      mstore\n      0x40\n      add\n      swap1\n      keccak256\n      sload\n        /* \"contracts/Reputation.sol\":2355:2361  tokens */\n      0x02\n        /* \"contracts/Reputation.sol\":2355:2364  tokens[i] */\n      dup1\n      sload\n        /* \"contracts/Reputation.sol\":2362:2363  i */\n      dup4\n      swap1\n        /* \"contracts/Reputation.sol\":2355:2364  tokens[i] */\n      dup2\n      lt\n      tag_87\n      jumpi\n      tag_87\n      tag_84\n      jump\t// in\n    tag_87:\n      0x00\n      swap2\n      dup3\n      mstore\n      0x20\n      swap1\n      swap2\n      keccak256\n      add\n      sload\n        /* \"contracts/Reputation.sol\":2386:2394  fireSoul */\n      0x04\n      dup1\n      sload\n        /* \"contracts/Reputation.sol\":2376:2417  IFireSoul(fireSoul).getSoulAccount(_user) */\n      mload(0x40)\n      shl(0xe0, 0xbe5f0cc9)\n      dup2\n      mstore\n      sub(shl(0xa0, 0x01), 0x01)\n        /* \"#utility.yul\":1068:1100   */\n      dup10\n      dup2\n      and\n        /* \"contracts/Reputation.sol\":2376:2417  IFireSoul(fireSoul).getSoulAccount(_user) */\n      swap4\n      dup3\n      add\n        /* \"#utility.yul\":1050:1101   */\n      swap4\n      swap1\n      swap4\n      mstore\n        /* \"contracts/Reputation.sol\":2355:2364  tokens[i] */\n      swap3\n      dup3\n      and\n      swap3\n        /* \"contracts/Reputation.sol\":2348:2375  IERC20(tokens[i]).balanceOf */\n      0x70a08231\n      swap3\n        /* \"contracts/Reputation.sol\":2386:2394  fireSoul */\n      swap1\n      swap2\n      and\n      swap1\n        /* \"contracts/Reputation.sol\":2376:2410  IFireSoul(fireSoul).getSoulAccount */\n      0xbe5f0cc9\n      swap1\n        /* \"#utility.yul\":1023:1041   */\n      0x24\n      add\n        /* \"contracts/Reputation.sol\":2376:2417  IFireSoul(fireSoul).getSoulAccount(_user) */\n      0x20\n      mload(0x40)\n      dup1\n      dup4\n      sub\n      dup2\n      dup7\n      gas\n      staticcall\n      iszero\n      dup1\n      iszero\n      tag_91\n      jumpi\n      returndatasize\n      0x00\n      dup1\n      returndatacopy\n      revert(0x00, returndatasize)\n    tag_91:\n      pop\n      pop\n      pop\n      pop\n      mload(0x40)\n      returndatasize\n      not(0x1f)\n      0x1f\n      dup3\n      add\n      and\n      dup3\n      add\n      dup1\n      0x40\n      mstore\n      pop\n      dup2\n      add\n      swap1\n      tag_92\n      swap2\n      swap1\n      tag_93\n      jump\t// in\n    tag_92:\n        /* \"contracts/Reputation.sol\":2348:2418  IERC20(tokens[i]).balanceOf(IFireSoul(fireSoul).getSoulAccount(_user)) */\n      mload(0x40)\n      not(sub(shl(0xe0, 0x01), 0x01))\n      0xe0\n      dup5\n      swap1\n      shl\n      and\n      dup2\n      mstore\n      sub(shl(0xa0, 0x01), 0x01)\n        /* \"#utility.yul\":1068:1100   */\n      swap1\n      swap2\n      and\n        /* \"contracts/Reputation.sol\":2348:2418  IERC20(tokens[i]).balanceOf(IFireSoul(fireSoul).getSoulAccount(_user)) */\n      0x04\n      dup3\n      add\n        /* \"#utility.yul\":1050:1101   */\n      mstore\n        /* \"#utility.yul\":1023:1041   */\n      0x24\n      add\n        /* \"contracts/Reputation.sol\":2348:2418  IERC20(tokens[i]).balanceOf(IFireSoul(fireSoul).getSoulAccount(_user)) */\n      0x20\n      mload(0x40)\n      dup1\n      dup4\n      sub\n      dup2\n      dup7\n      gas\n      staticcall\n      iszero\n      dup1\n      iszero\n      tag_96\n      jumpi\n      returndatasize\n      0x00\n      dup1\n      returndatacopy\n      revert(0x00, returndatasize)\n    tag_96:\n      pop\n      pop\n      pop\n      pop\n      mload(0x40)\n      returndatasize\n      not(0x1f)\n      0x1f\n      dup3\n      add\n      and\n      dup3\n      add\n      dup1\n      0x40\n      mstore\n      pop\n      dup2\n      add\n      swap1\n      tag_97\n      swap2\n      swap1\n      tag_98\n      jump\t// in\n    tag_97:\n        /* \"contracts/Reputation.sol\":2348:2444  IERC20(tokens[i]).balanceOf(IFireSoul(fireSoul).getSoulAccount(_user)) * coefficients[tokens[i]] */\n      tag_99\n      swap2\n      swap1\n      tag_100\n      jump\t// in\n    tag_99:\n        /* \"contracts/Reputation.sol\":2328:2444  reputationPoints += IERC20(tokens[i]).balanceOf(IFireSoul(fireSoul).getSoulAccount(_user)) * coefficients[tokens[i]] */\n      tag_101\n      swap1\n      dup4\n      tag_102\n      jump\t// in\n    tag_101:\n      swap2\n      pop\n        /* \"contracts/Reputation.sol\":2309:2312  i++ */\n      dup1\n      tag_103\n      dup2\n      tag_104\n      jump\t// in\n    tag_103:\n      swap2\n      pop\n      pop\n        /* \"contracts/Reputation.sol\":2270:2455  for (uint256 i = 0; i < tokens.length; i++) {... */\n      jump(tag_79)\n    tag_80:\n      pop\n        /* \"contracts/Reputation.sol\":2468:2477  uint256 j */\n      0x00\n        /* \"contracts/Reputation.sol\":2464:2655  for(uint256 j = 0; j < subTokens.length;j++){... */\n    tag_105:\n        /* \"contracts/Reputation.sol\":2487:2496  subTokens */\n      0x03\n        /* \"contracts/Reputation.sol\":2487:2503  subTokens.length */\n      sload\n        /* \"contracts/Reputation.sol\":2483:2503  j < subTokens.length */\n      dup2\n      lt\n        /* \"contracts/Reputation.sol\":2464:2655  for(uint256 j = 0; j < subTokens.length;j++){... */\n      iszero\n      tag_106\n      jumpi\n        /* \"contracts/Reputation.sol\":2618:2630  coefficients */\n      0x01\n        /* \"contracts/Reputation.sol\":2618:2644  coefficients[subTokens[j]] */\n      0x00\n        /* \"contracts/Reputation.sol\":2631:2640  subTokens */\n      0x03\n        /* \"contracts/Reputation.sol\":2641:2642  j */\n      dup4\n        /* \"contracts/Reputation.sol\":2631:2643  subTokens[j] */\n      dup2\n      sload\n      dup2\n      lt\n      tag_109\n      jumpi\n      tag_109\n      tag_84\n      jump\t// in\n    tag_109:\n      0x00\n      swap2\n      dup3\n      mstore\n      0x20\n      dup1\n      dup4\n      keccak256\n      swap1\n      swap2\n      add\n      sload\n      sub(shl(0xa0, 0x01), 0x01)\n      and\n        /* \"contracts/Reputation.sol\":2618:2644  coefficients[subTokens[j]] */\n      dup4\n      mstore\n      dup3\n      add\n      swap3\n      swap1\n      swap3\n      mstore\n      0x40\n      add\n      swap1\n      keccak256\n      sload\n        /* \"contracts/Reputation.sol\":2549:2558  subTokens */\n      0x03\n        /* \"contracts/Reputation.sol\":2549:2561  subTokens[j] */\n      dup1\n      sload\n        /* \"contracts/Reputation.sol\":2559:2560  j */\n      dup4\n      swap1\n        /* \"contracts/Reputation.sol\":2549:2561  subTokens[j] */\n      dup2\n      lt\n      tag_112\n      jumpi\n      tag_112\n      tag_84\n      jump\t// in\n    tag_112:\n      0x00\n      swap2\n      dup3\n      mstore\n      0x20\n      swap1\n      swap2\n      keccak256\n      add\n      sload\n        /* \"contracts/Reputation.sol\":2583:2591  fireSoul */\n      0x04\n      dup1\n      sload\n        /* \"contracts/Reputation.sol\":2573:2614  IFireSoul(fireSoul).getSoulAccount(_user) */\n      mload(0x40)\n      shl(0xe0, 0xbe5f0cc9)\n      dup2\n      mstore\n      sub(shl(0xa0, 0x01), 0x01)\n        /* \"#utility.yul\":1068:1100   */\n      dup10\n      dup2\n      and\n        /* \"contracts/Reputation.sol\":2573:2614  IFireSoul(fireSoul).getSoulAccount(_user) */\n      swap4\n      dup3\n      add\n        /* \"#utility.yul\":1050:1101   */\n      swap4\n      swap1\n      swap4\n      mstore\n        /* \"contracts/Reputation.sol\":2549:2561  subTokens[j] */\n      swap3\n      dup3\n      and\n      swap3\n        /* \"contracts/Reputation.sol\":2542:2572  IERC20(subTokens[j]).balanceOf */\n      0x70a08231\n      swap3\n        /* \"contracts/Reputation.sol\":2583:2591  fireSoul */\n      swap1\n      swap2\n      and\n      swap1\n        /* \"contracts/Reputation.sol\":2573:2607  IFireSoul(fireSoul).getSoulAccount */\n      0xbe5f0cc9\n      swap1\n        /* \"#utility.yul\":1023:1041   */\n      0x24\n      add\n        /* \"contracts/Reputation.sol\":2573:2614  IFireSoul(fireSoul).getSoulAccount(_user) */\n      0x20\n      mload(0x40)\n      dup1\n      dup4\n      sub\n      dup2\n      dup7\n      gas\n      staticcall\n      iszero\n      dup1\n      iszero\n      tag_116\n      jumpi\n      returndatasize\n      0x00\n      dup1\n      returndatacopy\n      revert(0x00, returndatasize)\n    tag_116:\n      pop\n      pop\n      pop\n      pop\n      mload(0x40)\n      returndatasize\n      not(0x1f)\n      0x1f\n      dup3\n      add\n      and\n      dup3\n      add\n      dup1\n      0x40\n      mstore\n      pop\n      dup2\n      add\n      swap1\n      tag_117\n      swap2\n      swap1\n      tag_93\n      jump\t// in\n    tag_117:\n        /* \"contracts/Reputation.sol\":2542:2615  IERC20(subTokens[j]).balanceOf(IFireSoul(fireSoul).getSoulAccount(_user)) */\n      mload(0x40)\n      not(sub(shl(0xe0, 0x01), 0x01))\n      0xe0\n      dup5\n      swap1\n      shl\n      and\n      dup2\n      mstore\n      sub(shl(0xa0, 0x01), 0x01)\n        /* \"#utility.yul\":1068:1100   */\n      swap1\n      swap2\n      and\n        /* \"contracts/Reputation.sol\":2542:2615  IERC20(subTokens[j]).balanceOf(IFireSoul(fireSoul).getSoulAccount(_user)) */\n      0x04\n      dup3\n      add\n        /* \"#utility.yul\":1050:1101   */\n      mstore\n        /* \"#utility.yul\":1023:1041   */\n      0x24\n      add\n        /* \"contracts/Reputation.sol\":2542:2615  IERC20(subTokens[j]).balanceOf(IFireSoul(fireSoul).getSoulAccount(_user)) */\n      0x20\n      mload(0x40)\n      dup1\n      dup4\n      sub\n      dup2\n      dup7\n      gas\n      staticcall\n      iszero\n      dup1\n      iszero\n      tag_120\n      jumpi\n      returndatasize\n      0x00\n      dup1\n      returndatacopy\n      revert(0x00, returndatasize)\n    tag_120:\n      pop\n      pop\n      pop\n      pop\n      mload(0x40)\n      returndatasize\n      not(0x1f)\n      0x1f\n      dup3\n      add\n      and\n      dup3\n      add\n      dup1\n      0x40\n      mstore\n      pop\n      dup2\n      add\n      swap1\n      tag_121\n      swap2\n      swap1\n      tag_98\n      jump\t// in\n    tag_121:\n        /* \"contracts/Reputation.sol\":2542:2644  IERC20(subTokens[j]).balanceOf(IFireSoul(fireSoul).getSoulAccount(_user)) * coefficients[subTokens[j]] */\n      tag_122\n      swap2\n      swap1\n      tag_100\n      jump\t// in\n    tag_122:\n        /* \"contracts/Reputation.sol\":2522:2644  reputationPoints -= IERC20(subTokens[j]).balanceOf(IFireSoul(fireSoul).getSoulAccount(_user)) * coefficients[subTokens[j]] */\n      tag_123\n      swap1\n      dup4\n      tag_124\n      jump\t// in\n    tag_123:\n      swap2\n      pop\n        /* \"contracts/Reputation.sol\":2504:2507  j++ */\n      dup1\n      tag_125\n      dup2\n      tag_104\n      jump\t// in\n    tag_125:\n      swap2\n      pop\n      pop\n        /* \"contracts/Reputation.sol\":2464:2655  for(uint256 j = 0; j < subTokens.length;j++){... */\n      jump(tag_105)\n    tag_106:\n      pop\n        /* \"contracts/Reputation.sol\":2671:2687  reputationPoints */\n      swap3\n        /* \"contracts/Reputation.sol\":2150:2694  function checkReputation(address _user) external view returns (uint256) {... */\n      swap2\n      pop\n      pop\n      jump\t// out\n        /* \"contracts/Reputation.sol\":1131:1347  function setCoefficient(address _token, uint256 _coefficient) external onlyOwner {... */\n    tag_31:\n        /* \"@openzeppelin/contracts/access/Ownable.sol\":1094:1107  _checkOwner() */\n      tag_127\n        /* \"@openzeppelin/contracts/access/Ownable.sol\":1094:1105  _checkOwner */\n      tag_128\n        /* \"@openzeppelin/contracts/access/Ownable.sol\":1094:1107  _checkOwner() */\n      jump\t// in\n    tag_127:\n      sub(shl(0xa0, 0x01), 0x01)\n        /* \"contracts/Reputation.sol\":1230:1250  coefficients[_token] */\n      dup3\n      and\n        /* \"contracts/Reputation.sol\":1253:1254  0 */\n      0x00\n        /* \"contracts/Reputation.sol\":1230:1250  coefficients[_token] */\n      swap1\n      dup2\n      mstore\n        /* \"contracts/Reputation.sol\":1230:1242  coefficients */\n      0x01\n        /* \"contracts/Reputation.sol\":1230:1250  coefficients[_token] */\n      0x20\n      mstore\n      0x40\n      swap1\n      keccak256\n      sload\n        /* \"contracts/Reputation.sol\":1222:1295  require(coefficients[_token] > 0, \"FireReputation: token does not exist\") */\n      tag_130\n      jumpi\n      mload(0x40)\n      shl(0xe5, 0x461bcd)\n      dup2\n      mstore\n      0x04\n      add\n      tag_131\n      swap1\n      tag_132\n      jump\t// in\n    tag_131:\n      mload(0x40)\n      dup1\n      swap2\n      sub\n      swap1\n      revert\n    tag_130:\n      sub(shl(0xa0, 0x01), 0x01)\n        /* \"contracts/Reputation.sol\":1305:1325  coefficients[_token] */\n      swap1\n      swap2\n      and\n      0x00\n      swap1\n      dup2\n      mstore\n        /* \"contracts/Reputation.sol\":1305:1317  coefficients */\n      0x01\n        /* \"contracts/Reputation.sol\":1305:1325  coefficients[_token] */\n      0x20\n      mstore\n      0x40\n      swap1\n      keccak256\n        /* \"contracts/Reputation.sol\":1305:1340  coefficients[_token] = _coefficient */\n      sstore\n        /* \"contracts/Reputation.sol\":1131:1347  function setCoefficient(address _token, uint256 _coefficient) external onlyOwner {... */\n      jump\t// out\n        /* \"contracts/Reputation.sol\":294:317  address[] public tokens */\n    tag_39:\n      0x02\n      dup2\n      dup2\n      sload\n      dup2\n      lt\n      tag_133\n      jumpi\n      0x00\n      dup1\n      revert\n    tag_133:\n      0x00\n      swap2\n      dup3\n      mstore\n      0x20\n      swap1\n      swap2\n      keccak256\n      add\n      sload\n      sub(shl(0xa0, 0x01), 0x01)\n      and\n      swap1\n      pop\n      dup2\n      jump\t// out\n        /* \"@openzeppelin/contracts/access/Ownable.sol\":1831:1932  function renounceOwnership() public virtual onlyOwner {... */\n    tag_46:\n        /* \"@openzeppelin/contracts/access/Ownable.sol\":1094:1107  _checkOwner() */\n      tag_136\n        /* \"@openzeppelin/contracts/access/Ownable.sol\":1094:1105  _checkOwner */\n      tag_128\n        /* \"@openzeppelin/contracts/access/Ownable.sol\":1094:1107  _checkOwner() */\n      jump\t// in\n    tag_136:\n        /* \"@openzeppelin/contracts/access/Ownable.sol\":1895:1925  _transferOwnership(address(0)) */\n      tag_138\n        /* \"@openzeppelin/contracts/access/Ownable.sol\":1922:1923  0 */\n      0x00\n        /* \"@openzeppelin/contracts/access/Ownable.sol\":1895:1913  _transferOwnership */\n      tag_139\n        /* \"@openzeppelin/contracts/access/Ownable.sol\":1895:1925  _transferOwnership(address(0)) */\n      jump\t// in\n    tag_138:\n        /* \"@openzeppelin/contracts/access/Ownable.sol\":1831:1932  function renounceOwnership() public virtual onlyOwner {... */\n      jump\t// out\n        /* \"contracts/Reputation.sol\":385:488  function setFireSoulAddress(address _fireSoul) external onlyOwner {... */\n    tag_55:\n        /* \"@openzeppelin/contracts/access/Ownable.sol\":1094:1107  _checkOwner() */\n      tag_143\n        /* \"@openzeppelin/contracts/access/Ownable.sol\":1094:1105  _checkOwner */\n      tag_128\n        /* \"@openzeppelin/contracts/access/Ownable.sol\":1094:1107  _checkOwner() */\n      jump\t// in\n    tag_143:\n        /* \"contracts/Reputation.sol\":461:469  fireSoul */\n      0x04\n        /* \"contracts/Reputation.sol\":461:481  fireSoul = _fireSoul */\n      dup1\n      sload\n      not(sub(shl(0xa0, 0x01), 0x01))\n      and\n      sub(shl(0xa0, 0x01), 0x01)\n      swap3\n      swap1\n      swap3\n      and\n      swap2\n      swap1\n      swap2\n      or\n      swap1\n      sstore\n        /* \"contracts/Reputation.sol\":385:488  function setFireSoulAddress(address _fireSoul) external onlyOwner {... */\n      jump\t// out\n        /* \"contracts/Reputation.sol\":1741:2145  function deleteSubToken(address _token) external onlyOwner {... */\n    tag_58:\n        /* \"@openzeppelin/contracts/access/Ownable.sol\":1094:1107  _checkOwner() */\n      tag_146\n        /* \"@openzeppelin/contracts/access/Ownable.sol\":1094:1105  _checkOwner */\n      tag_128\n        /* \"@openzeppelin/contracts/access/Ownable.sol\":1094:1107  _checkOwner() */\n      jump\t// in\n    tag_146:\n      sub(shl(0xa0, 0x01), 0x01)\n        /* \"contracts/Reputation.sol\":1818:1838  coefficients[_token] */\n      dup2\n      and\n        /* \"contracts/Reputation.sol\":1841:1842  0 */\n      0x00\n        /* \"contracts/Reputation.sol\":1818:1838  coefficients[_token] */\n      swap1\n      dup2\n      mstore\n        /* \"contracts/Reputation.sol\":1818:1830  coefficients */\n      0x01\n        /* \"contracts/Reputation.sol\":1818:1838  coefficients[_token] */\n      0x20\n      mstore\n      0x40\n      swap1\n      keccak256\n      sload\n        /* \"contracts/Reputation.sol\":1810:1883  require(coefficients[_token] > 0, \"FireReputation: token does not exist\") */\n      tag_148\n      jumpi\n      mload(0x40)\n      shl(0xe5, 0x461bcd)\n      dup2\n      mstore\n      0x04\n      add\n      tag_131\n      swap1\n      tag_132\n      jump\t// in\n    tag_148:\n      sub(shl(0xa0, 0x01), 0x01)\n        /* \"contracts/Reputation.sol\":1900:1920  coefficients[_token] */\n      dup2\n      and\n      0x00\n      swap1\n      dup2\n      mstore\n        /* \"contracts/Reputation.sol\":1900:1912  coefficients */\n      0x01\n        /* \"contracts/Reputation.sol\":1900:1920  coefficients[_token] */\n      0x20\n      mstore\n      0x40\n      dup2\n      keccak256\n        /* \"contracts/Reputation.sol\":1893:1920  delete coefficients[_token] */\n      dup2\n      swap1\n      sstore\n        /* \"contracts/Reputation.sol\":1930:2139  for(uint256 i = 0 ; i< subTokens.length ; i++ ){... */\n    tag_150:\n        /* \"contracts/Reputation.sol\":1953:1962  subTokens */\n      0x03\n        /* \"contracts/Reputation.sol\":1953:1969  subTokens.length */\n      sload\n        /* \"contracts/Reputation.sol\":1950:1969  i< subTokens.length */\n      dup2\n      lt\n        /* \"contracts/Reputation.sol\":1930:2139  for(uint256 i = 0 ; i< subTokens.length ; i++ ){... */\n      iszero\n      tag_151\n      jumpi\n        /* \"contracts/Reputation.sol\":2010:2016  _token */\n      dup2\n      sub(shl(0xa0, 0x01), 0x01)\n        /* \"contracts/Reputation.sol\":1994:2016  subTokens[i] == _token */\n      and\n        /* \"contracts/Reputation.sol\":1994:2003  subTokens */\n      0x03\n        /* \"contracts/Reputation.sol\":2004:2005  i */\n      dup3\n        /* \"contracts/Reputation.sol\":1994:2006  subTokens[i] */\n      dup2\n      sload\n      dup2\n      lt\n      tag_154\n      jumpi\n      tag_154\n      tag_84\n      jump\t// in\n    tag_154:\n      0x00\n      swap2\n      dup3\n      mstore\n      0x20\n      swap1\n      swap2\n      keccak256\n      add\n      sload\n      sub(shl(0xa0, 0x01), 0x01)\n      and\n        /* \"contracts/Reputation.sol\":1994:2016  subTokens[i] == _token */\n      sub\n        /* \"contracts/Reputation.sol\":1991:2129  if(subTokens[i] == _token){... */\n      tag_156\n      jumpi\n        /* \"contracts/Reputation.sol\":2050:2059  subTokens */\n      0x03\n        /* \"contracts/Reputation.sol\":2060:2076  subTokens.length */\n      dup1\n      sload\n        /* \"contracts/Reputation.sol\":2060:2080  subTokens.length - 1 */\n      tag_157\n      swap1\n        /* \"contracts/Reputation.sol\":2079:2080  1 */\n      0x01\n      swap1\n        /* \"contracts/Reputation.sol\":2060:2080  subTokens.length - 1 */\n      tag_124\n      jump\t// in\n    tag_157:\n        /* \"contracts/Reputation.sol\":2050:2081  subTokens[subTokens.length - 1] */\n      dup2\n      sload\n      dup2\n      lt\n      tag_159\n      jumpi\n      tag_159\n      tag_84\n      jump\t// in\n    tag_159:\n      0x00\n      swap2\n      dup3\n      mstore\n      0x20\n      swap1\n      swap2\n      keccak256\n      add\n      sload\n        /* \"contracts/Reputation.sol\":2035:2044  subTokens */\n      0x03\n        /* \"contracts/Reputation.sol\":2035:2047  subTokens[i] */\n      dup1\n      sload\n      sub(shl(0xa0, 0x01), 0x01)\n        /* \"contracts/Reputation.sol\":2050:2081  subTokens[subTokens.length - 1] */\n      swap1\n      swap3\n      and\n      swap2\n        /* \"contracts/Reputation.sol\":2045:2046  i */\n      dup4\n      swap1\n        /* \"contracts/Reputation.sol\":2035:2047  subTokens[i] */\n      dup2\n      lt\n      tag_162\n      jumpi\n      tag_162\n      tag_84\n      jump\t// in\n    tag_162:\n      swap1\n      0x00\n      mstore\n      keccak256(0x00, 0x20)\n      add\n      0x00\n        /* \"contracts/Reputation.sol\":2035:2081  subTokens[i] = subTokens[subTokens.length - 1] */\n      0x0100\n      exp\n      dup2\n      sload\n      dup2\n      sub(shl(0xa0, 0x01), 0x01)\n      mul\n      not\n      and\n      swap1\n      dup4\n      sub(shl(0xa0, 0x01), 0x01)\n      and\n      mul\n      or\n      swap1\n      sstore\n      pop\n        /* \"contracts/Reputation.sol\":2099:2108  subTokens */\n      0x03\n        /* \"contracts/Reputation.sol\":2099:2114  subTokens.pop() */\n      dup1\n      sload\n      dup1\n      tag_165\n      jumpi\n      tag_165\n      tag_166\n      jump\t// in\n    tag_165:\n      0x00\n      dup3\n      dup2\n      mstore\n      0x20\n      swap1\n      keccak256\n      dup2\n      add\n      not(0x00)\n      swap1\n      dup2\n      add\n      dup1\n      sload\n      not(sub(shl(0xa0, 0x01), 0x01))\n      and\n      swap1\n      sstore\n      add\n      swap1\n      sstore\n        /* \"contracts/Reputation.sol\":1991:2129  if(subTokens[i] == _token){... */\n    tag_156:\n        /* \"contracts/Reputation.sol\":1972:1975  i++ */\n      dup1\n      tag_168\n      dup2\n      tag_104\n      jump\t// in\n    tag_168:\n      swap2\n      pop\n      pop\n        /* \"contracts/Reputation.sol\":1930:2139  for(uint256 i = 0 ; i< subTokens.length ; i++ ){... */\n      jump(tag_150)\n    tag_151:\n      pop\n        /* \"contracts/Reputation.sol\":1741:2145  function deleteSubToken(address _token) external onlyOwner {... */\n      pop\n      jump\t// out\n        /* \"contracts/Reputation.sol\":804:1126  function subTokenAddress(address _token, uint256 _coefficient) external onlyOwner{... */\n    tag_61:\n        /* \"@openzeppelin/contracts/access/Ownable.sol\":1094:1107  _checkOwner() */\n      tag_170\n        /* \"@openzeppelin/contracts/access/Ownable.sol\":1094:1105  _checkOwner */\n      tag_128\n        /* \"@openzeppelin/contracts/access/Ownable.sol\":1094:1107  _checkOwner() */\n      jump\t// in\n    tag_170:\n        /* \"contracts/Reputation.sol\":899:908  uint256 i */\n      0x00\n        /* \"contracts/Reputation.sol\":895:1034  for(uint256 i = 0 ; i < subTokens.length; i ++ ) {... */\n    tag_172:\n        /* \"contracts/Reputation.sol\":919:928  subTokens */\n      0x03\n        /* \"contracts/Reputation.sol\":919:935  subTokens.length */\n      sload\n        /* \"contracts/Reputation.sol\":915:935  i < subTokens.length */\n      dup2\n      lt\n        /* \"contracts/Reputation.sol\":895:1034  for(uint256 i = 0 ; i < subTokens.length; i ++ ) {... */\n      iszero\n      tag_173\n      jumpi\n        /* \"contracts/Reputation.sol\":982:988  _token */\n      dup3\n      sub(shl(0xa0, 0x01), 0x01)\n        /* \"contracts/Reputation.sol\":966:988  subTokens[i] != _token */\n      and\n        /* \"contracts/Reputation.sol\":966:975  subTokens */\n      0x03\n        /* \"contracts/Reputation.sol\":976:977  i */\n      dup3\n        /* \"contracts/Reputation.sol\":966:978  subTokens[i] */\n      dup2\n      sload\n      dup2\n      lt\n      tag_176\n      jumpi\n      tag_176\n      tag_84\n      jump\t// in\n    tag_176:\n      0x00\n      swap2\n      dup3\n      mstore\n      0x20\n      swap1\n      swap2\n      keccak256\n      add\n      sload\n      sub(shl(0xa0, 0x01), 0x01)\n      and\n        /* \"contracts/Reputation.sol\":966:988  subTokens[i] != _token */\n      sub\n        /* \"contracts/Reputation.sol\":958:1023  require(subTokens[i] != _token, \"FireReputation: token is exist\") */\n      tag_178\n      jumpi\n      mload(0x40)\n      shl(0xe5, 0x461bcd)\n      dup2\n      mstore\n        /* \"#utility.yul\":3321:3323   */\n      0x20\n        /* \"contracts/Reputation.sol\":958:1023  require(subTokens[i] != _token, \"FireReputation: token is exist\") */\n      0x04\n      dup3\n      add\n        /* \"#utility.yul\":3303:3324   */\n      mstore\n        /* \"#utility.yul\":3360:3362   */\n      0x1e\n        /* \"#utility.yul\":3340:3358   */\n      0x24\n      dup3\n      add\n        /* \"#utility.yul\":3333:3363   */\n      mstore\n        /* \"#utility.yul\":3399:3431   */\n      0x4669726552657075746174696f6e3a20746f6b656e2069732065786973740000\n        /* \"#utility.yul\":3379:3397   */\n      0x44\n      dup3\n      add\n        /* \"#utility.yul\":3372:3432   */\n      mstore\n        /* \"#utility.yul\":3449:3467   */\n      0x64\n      add\n        /* \"contracts/Reputation.sol\":958:1023  require(subTokens[i] != _token, \"FireReputation: token is exist\") */\n      tag_131\n        /* \"#utility.yul\":3119:3473   */\n      jump\n        /* \"contracts/Reputation.sol\":958:1023  require(subTokens[i] != _token, \"FireReputation: token is exist\") */\n    tag_178:\n        /* \"contracts/Reputation.sol\":937:941  i ++ */\n      dup1\n      tag_181\n      dup2\n      tag_104\n      jump\t// in\n    tag_181:\n      swap2\n      pop\n      pop\n        /* \"contracts/Reputation.sol\":895:1034  for(uint256 i = 0 ; i < subTokens.length; i ++ ) {... */\n      jump(tag_172)\n    tag_173:\n      pop\n        /* \"contracts/Reputation.sol\":1043:1052  subTokens */\n      0x03\n        /* \"contracts/Reputation.sol\":1043:1065  subTokens.push(_token) */\n      dup1\n      sload\n      0x01\n      dup2\n      dup2\n      add\n      swap1\n      swap3\n      sstore\n      0xc2575a0e9e593c00f959f8c92f12db2869c3395a3b0502d05e2516446f71f85b\n      add\n      dup1\n      sload\n      sub(shl(0xa0, 0x01), 0x01)\n      swap1\n      swap5\n      and\n      not(sub(shl(0xa0, 0x01), 0x01))\n      swap1\n      swap5\n      and\n      dup5\n      or\n      swap1\n      sstore\n      0x00\n        /* \"contracts/Reputation.sol\":1075:1095  coefficients[_token] */\n      swap3\n      dup4\n      mstore\n        /* \"contracts/Reputation.sol\":1043:1065  subTokens.push(_token) */\n      0x20\n        /* \"contracts/Reputation.sol\":1075:1095  coefficients[_token] */\n      mstore\n      0x40\n      swap1\n      swap2\n      keccak256\n        /* \"contracts/Reputation.sol\":1075:1110  coefficients[_token] = _coefficient */\n      sstore\n        /* \"contracts/Reputation.sol\":804:1126  function subTokenAddress(address _token, uint256 _coefficient) external onlyOwner{... */\n      jump\t// out\n        /* \"contracts/Reputation.sol\":1352:1736  function deleteToken(address _token) external onlyOwner{... */\n    tag_67:\n        /* \"@openzeppelin/contracts/access/Ownable.sol\":1094:1107  _checkOwner() */\n      tag_185\n        /* \"@openzeppelin/contracts/access/Ownable.sol\":1094:1105  _checkOwner */\n      tag_128\n        /* \"@openzeppelin/contracts/access/Ownable.sol\":1094:1107  _checkOwner() */\n      jump\t// in\n    tag_185:\n      sub(shl(0xa0, 0x01), 0x01)\n        /* \"contracts/Reputation.sol\":1425:1445  coefficients[_token] */\n      dup2\n      and\n        /* \"contracts/Reputation.sol\":1448:1449  0 */\n      0x00\n        /* \"contracts/Reputation.sol\":1425:1445  coefficients[_token] */\n      swap1\n      dup2\n      mstore\n        /* \"contracts/Reputation.sol\":1425:1437  coefficients */\n      0x01\n        /* \"contracts/Reputation.sol\":1425:1445  coefficients[_token] */\n      0x20\n      mstore\n      0x40\n      swap1\n      keccak256\n      sload\n        /* \"contracts/Reputation.sol\":1417:1490  require(coefficients[_token] > 0, \"FireReputation: token does not exist\") */\n      tag_187\n      jumpi\n      mload(0x40)\n      shl(0xe5, 0x461bcd)\n      dup2\n      mstore\n      0x04\n      add\n      tag_131\n      swap1\n      tag_132\n      jump\t// in\n    tag_187:\n      sub(shl(0xa0, 0x01), 0x01)\n        /* \"contracts/Reputation.sol\":1507:1527  coefficients[_token] */\n      dup2\n      and\n      0x00\n      swap1\n      dup2\n      mstore\n        /* \"contracts/Reputation.sol\":1507:1519  coefficients */\n      0x01\n        /* \"contracts/Reputation.sol\":1507:1527  coefficients[_token] */\n      0x20\n      mstore\n      0x40\n      dup2\n      keccak256\n        /* \"contracts/Reputation.sol\":1500:1527  delete coefficients[_token] */\n      dup2\n      swap1\n      sstore\n        /* \"contracts/Reputation.sol\":1537:1730  for(uint256 i = 0 ; i < tokens.length ; i++) {... */\n    tag_189:\n        /* \"contracts/Reputation.sol\":1561:1567  tokens */\n      0x02\n        /* \"contracts/Reputation.sol\":1561:1574  tokens.length */\n      sload\n        /* \"contracts/Reputation.sol\":1557:1574  i < tokens.length */\n      dup2\n      lt\n        /* \"contracts/Reputation.sol\":1537:1730  for(uint256 i = 0 ; i < tokens.length ; i++) {... */\n      iszero\n      tag_151\n      jumpi\n        /* \"contracts/Reputation.sol\":1612:1618  _token */\n      dup2\n      sub(shl(0xa0, 0x01), 0x01)\n        /* \"contracts/Reputation.sol\":1599:1618  tokens[i] == _token */\n      and\n        /* \"contracts/Reputation.sol\":1599:1605  tokens */\n      0x02\n        /* \"contracts/Reputation.sol\":1606:1607  i */\n      dup3\n        /* \"contracts/Reputation.sol\":1599:1608  tokens[i] */\n      dup2\n      sload\n      dup2\n      lt\n      tag_193\n      jumpi\n      tag_193\n      tag_84\n      jump\t// in\n    tag_193:\n      0x00\n      swap2\n      dup3\n      mstore\n      0x20\n      swap1\n      swap2\n      keccak256\n      add\n      sload\n      sub(shl(0xa0, 0x01), 0x01)\n      and\n        /* \"contracts/Reputation.sol\":1599:1618  tokens[i] == _token */\n      sub\n        /* \"contracts/Reputation.sol\":1596:1720  if(tokens[i] == _token) {... */\n      tag_195\n      jumpi\n        /* \"contracts/Reputation.sol\":1650:1656  tokens */\n      0x02\n        /* \"contracts/Reputation.sol\":1657:1670  tokens.length */\n      dup1\n      sload\n        /* \"contracts/Reputation.sol\":1657:1674  tokens.length - 1 */\n      tag_196\n      swap1\n        /* \"contracts/Reputation.sol\":1673:1674  1 */\n      0x01\n      swap1\n        /* \"contracts/Reputation.sol\":1657:1674  tokens.length - 1 */\n      tag_124\n      jump\t// in\n    tag_196:\n        /* \"contracts/Reputation.sol\":1650:1675  tokens[tokens.length - 1] */\n      dup2\n      sload\n      dup2\n      lt\n      tag_198\n      jumpi\n      tag_198\n      tag_84\n      jump\t// in\n    tag_198:\n      0x00\n      swap2\n      dup3\n      mstore\n      0x20\n      swap1\n      swap2\n      keccak256\n      add\n      sload\n        /* \"contracts/Reputation.sol\":1638:1644  tokens */\n      0x02\n        /* \"contracts/Reputation.sol\":1638:1647  tokens[i] */\n      dup1\n      sload\n      sub(shl(0xa0, 0x01), 0x01)\n        /* \"contracts/Reputation.sol\":1650:1675  tokens[tokens.length - 1] */\n      swap1\n      swap3\n      and\n      swap2\n        /* \"contracts/Reputation.sol\":1645:1646  i */\n      dup4\n      swap1\n        /* \"contracts/Reputation.sol\":1638:1647  tokens[i] */\n      dup2\n      lt\n      tag_201\n      jumpi\n      tag_201\n      tag_84\n      jump\t// in\n    tag_201:\n      swap1\n      0x00\n      mstore\n      keccak256(0x00, 0x20)\n      add\n      0x00\n        /* \"contracts/Reputation.sol\":1638:1675  tokens[i] = tokens[tokens.length - 1] */\n      0x0100\n      exp\n      dup2\n      sload\n      dup2\n      sub(shl(0xa0, 0x01), 0x01)\n      mul\n      not\n      and\n      swap1\n      dup4\n      sub(shl(0xa0, 0x01), 0x01)\n      and\n      mul\n      or\n      swap1\n      sstore\n      pop\n        /* \"contracts/Reputation.sol\":1693:1699  tokens */\n      0x02\n        /* \"contracts/Reputation.sol\":1693:1705  tokens.pop() */\n      dup1\n      sload\n      dup1\n      tag_204\n      jumpi\n      tag_204\n      tag_166\n      jump\t// in\n    tag_204:\n      0x00\n      dup3\n      dup2\n      mstore\n      0x20\n      swap1\n      keccak256\n      dup2\n      add\n      not(0x00)\n      swap1\n      dup2\n      add\n      dup1\n      sload\n      not(sub(shl(0xa0, 0x01), 0x01))\n      and\n      swap1\n      sstore\n      add\n      swap1\n      sstore\n        /* \"contracts/Reputation.sol\":1596:1720  if(tokens[i] == _token) {... */\n    tag_195:\n        /* \"contracts/Reputation.sol\":1577:1580  i++ */\n      dup1\n      tag_206\n      dup2\n      tag_104\n      jump\t// in\n    tag_206:\n      swap2\n      pop\n      pop\n        /* \"contracts/Reputation.sol\":1537:1730  for(uint256 i = 0 ; i < tokens.length ; i++) {... */\n      jump(tag_189)\n        /* \"@openzeppelin/contracts/access/Ownable.sol\":2081:2279  function transferOwnership(address newOwner) public virtual onlyOwner {... */\n    tag_70:\n        /* \"@openzeppelin/contracts/access/Ownable.sol\":1094:1107  _checkOwner() */\n      tag_208\n        /* \"@openzeppelin/contracts/access/Ownable.sol\":1094:1105  _checkOwner */\n      tag_128\n        /* \"@openzeppelin/contracts/access/Ownable.sol\":1094:1107  _checkOwner() */\n      jump\t// in\n    tag_208:\n      sub(shl(0xa0, 0x01), 0x01)\n        /* \"@openzeppelin/contracts/access/Ownable.sol\":2169:2191  newOwner != address(0) */\n      dup2\n      and\n        /* \"@openzeppelin/contracts/access/Ownable.sol\":2161:2234  require(newOwner != address(0), \"Ownable: new owner is the zero address\") */\n      tag_210\n      jumpi\n      mload(0x40)\n      shl(0xe5, 0x461bcd)\n      dup2\n      mstore\n        /* \"#utility.yul\":3680:3682   */\n      0x20\n        /* \"@openzeppelin/contracts/access/Ownable.sol\":2161:2234  require(newOwner != address(0), \"Ownable: new owner is the zero address\") */\n      0x04\n      dup3\n      add\n        /* \"#utility.yul\":3662:3683   */\n      mstore\n        /* \"#utility.yul\":3719:3721   */\n      0x26\n        /* \"#utility.yul\":3699:3717   */\n      0x24\n      dup3\n      add\n        /* \"#utility.yul\":3692:3722   */\n      mstore\n        /* \"#utility.yul\":3758:3792   */\n      0x4f776e61626c653a206e6577206f776e657220697320746865207a65726f2061\n        /* \"#utility.yul\":3738:3756   */\n      0x44\n      dup3\n      add\n        /* \"#utility.yul\":3731:3793   */\n      mstore\n      shl(0xd0, 0x646472657373)\n        /* \"#utility.yul\":3809:3827   */\n      0x64\n      dup3\n      add\n        /* \"#utility.yul\":3802:3838   */\n      mstore\n        /* \"#utility.yul\":3855:3874   */\n      0x84\n      add\n        /* \"@openzeppelin/contracts/access/Ownable.sol\":2161:2234  require(newOwner != address(0), \"Ownable: new owner is the zero address\") */\n      tag_131\n        /* \"#utility.yul\":3478:3880   */\n      jump\n        /* \"@openzeppelin/contracts/access/Ownable.sol\":2161:2234  require(newOwner != address(0), \"Ownable: new owner is the zero address\") */\n    tag_210:\n        /* \"@openzeppelin/contracts/access/Ownable.sol\":2244:2272  _transferOwnership(newOwner) */\n      tag_213\n        /* \"@openzeppelin/contracts/access/Ownable.sol\":2263:2271  newOwner */\n      dup2\n        /* \"@openzeppelin/contracts/access/Ownable.sol\":2244:2262  _transferOwnership */\n      tag_139\n        /* \"@openzeppelin/contracts/access/Ownable.sol\":2244:2272  _transferOwnership(newOwner) */\n      jump\t// in\n    tag_213:\n        /* \"@openzeppelin/contracts/access/Ownable.sol\":2081:2279  function transferOwnership(address newOwner) public virtual onlyOwner {... */\n      pop\n      jump\t// out\n        /* \"contracts/Reputation.sol\":323:349  address[] public subTokens */\n    tag_73:\n      0x03\n      dup2\n      dup2\n      sload\n      dup2\n      lt\n      tag_133\n      jumpi\n      0x00\n      dup1\n      revert\n        /* \"contracts/Reputation.sol\":494:799  function addTokenAddress(address _token, uint256 _coefficient) external onlyOwner {... */\n    tag_77:\n        /* \"@openzeppelin/contracts/access/Ownable.sol\":1094:1107  _checkOwner() */\n      tag_217\n        /* \"@openzeppelin/contracts/access/Ownable.sol\":1094:1105  _checkOwner */\n      tag_128\n        /* \"@openzeppelin/contracts/access/Ownable.sol\":1094:1107  _checkOwner() */\n      jump\t// in\n    tag_217:\n        /* \"contracts/Reputation.sol\":590:599  uint256 i */\n      0x00\n        /* \"contracts/Reputation.sol\":586:719  for(uint256 i = 0 ; i < tokens.length; i ++ ) {... */\n    tag_219:\n        /* \"contracts/Reputation.sol\":610:616  tokens */\n      0x02\n        /* \"contracts/Reputation.sol\":610:623  tokens.length */\n      sload\n        /* \"contracts/Reputation.sol\":606:623  i < tokens.length */\n      dup2\n      lt\n        /* \"contracts/Reputation.sol\":586:719  for(uint256 i = 0 ; i < tokens.length; i ++ ) {... */\n      iszero\n      tag_220\n      jumpi\n        /* \"contracts/Reputation.sol\":667:673  _token */\n      dup3\n      sub(shl(0xa0, 0x01), 0x01)\n        /* \"contracts/Reputation.sol\":654:673  tokens[i] != _token */\n      and\n        /* \"contracts/Reputation.sol\":654:660  tokens */\n      0x02\n        /* \"contracts/Reputation.sol\":661:662  i */\n      dup3\n        /* \"contracts/Reputation.sol\":654:663  tokens[i] */\n      dup2\n      sload\n      dup2\n      lt\n      tag_223\n      jumpi\n      tag_223\n      tag_84\n      jump\t// in\n    tag_223:\n      0x00\n      swap2\n      dup3\n      mstore\n      0x20\n      swap1\n      swap2\n      keccak256\n      add\n      sload\n      sub(shl(0xa0, 0x01), 0x01)\n      and\n        /* \"contracts/Reputation.sol\":654:673  tokens[i] != _token */\n      sub\n        /* \"contracts/Reputation.sol\":646:708  require(tokens[i] != _token, \"FireReputation: token is exist\") */\n      tag_225\n      jumpi\n      mload(0x40)\n      shl(0xe5, 0x461bcd)\n      dup2\n      mstore\n        /* \"#utility.yul\":3321:3323   */\n      0x20\n        /* \"contracts/Reputation.sol\":646:708  require(tokens[i] != _token, \"FireReputation: token is exist\") */\n      0x04\n      dup3\n      add\n        /* \"#utility.yul\":3303:3324   */\n      mstore\n        /* \"#utility.yul\":3360:3362   */\n      0x1e\n        /* \"#utility.yul\":3340:3358   */\n      0x24\n      dup3\n      add\n        /* \"#utility.yul\":3333:3363   */\n      mstore\n        /* \"#utility.yul\":3399:3431   */\n      0x4669726552657075746174696f6e3a20746f6b656e2069732065786973740000\n        /* \"#utility.yul\":3379:3397   */\n      0x44\n      dup3\n      add\n        /* \"#utility.yul\":3372:3432   */\n      mstore\n        /* \"#utility.yul\":3449:3467   */\n      0x64\n      add\n        /* \"contracts/Reputation.sol\":646:708  require(tokens[i] != _token, \"FireReputation: token is exist\") */\n      tag_131\n        /* \"#utility.yul\":3119:3473   */\n      jump\n        /* \"contracts/Reputation.sol\":646:708  require(tokens[i] != _token, \"FireReputation: token is exist\") */\n    tag_225:\n        /* \"contracts/Reputation.sol\":625:629  i ++ */\n      dup1\n      tag_227\n      dup2\n      tag_104\n      jump\t// in\n    tag_227:\n      swap2\n      pop\n      pop\n        /* \"contracts/Reputation.sol\":586:719  for(uint256 i = 0 ; i < tokens.length; i ++ ) {... */\n      jump(tag_219)\n    tag_220:\n      pop\n        /* \"contracts/Reputation.sol\":728:734  tokens */\n      0x02\n        /* \"contracts/Reputation.sol\":728:747  tokens.push(_token) */\n      dup1\n      sload\n      0x01\n      dup2\n      dup2\n      add\n      swap1\n      swap3\n      sstore\n      0x405787fa12a823e0f2b7631cc41b3ba8828b3321ca811111fa75cd3aa3bb5ace\n      add\n      dup1\n      sload\n      sub(shl(0xa0, 0x01), 0x01)\n      swap1\n      swap5\n      and\n      not(sub(shl(0xa0, 0x01), 0x01))\n      swap1\n      swap5\n      and\n      dup5\n      or\n      swap1\n      sstore\n      0x00\n        /* \"contracts/Reputation.sol\":757:777  coefficients[_token] */\n      swap3\n      dup4\n      mstore\n        /* \"contracts/Reputation.sol\":728:747  tokens.push(_token) */\n      0x20\n        /* \"contracts/Reputation.sol\":757:777  coefficients[_token] */\n      mstore\n      0x40\n      swap1\n      swap2\n      keccak256\n        /* \"contracts/Reputation.sol\":757:792  coefficients[_token] = _coefficient */\n      sstore\n        /* \"contracts/Reputation.sol\":494:799  function addTokenAddress(address _token, uint256 _coefficient) external onlyOwner {... */\n      jump\t// out\n        /* \"@openzeppelin/contracts/access/Ownable.sol\":1359:1489  function _checkOwner() internal view virtual {... */\n    tag_128:\n        /* \"@openzeppelin/contracts/access/Ownable.sol\":1247:1254  address */\n      0x00\n        /* \"@openzeppelin/contracts/access/Ownable.sol\":1273:1279  _owner */\n      sload\n      sub(shl(0xa0, 0x01), 0x01)\n      and\n        /* \"@openzeppelin/contracts/utils/Context.sol\":719:729  msg.sender */\n      caller\n        /* \"@openzeppelin/contracts/access/Ownable.sol\":1422:1445  owner() == _msgSender() */\n      eq\n        /* \"@openzeppelin/contracts/access/Ownable.sol\":1414:1482  require(owner() == _msgSender(), \"Ownable: caller is not the owner\") */\n      tag_138\n      jumpi\n      mload(0x40)\n      shl(0xe5, 0x461bcd)\n      dup2\n      mstore\n        /* \"#utility.yul\":4087:4089   */\n      0x20\n        /* \"@openzeppelin/contracts/access/Ownable.sol\":1414:1482  require(owner() == _msgSender(), \"Ownable: caller is not the owner\") */\n      0x04\n      dup3\n      add\n        /* \"#utility.yul\":4069:4090   */\n      dup2\n      swap1\n      mstore\n        /* \"#utility.yul\":4106:4124   */\n      0x24\n      dup3\n      add\n        /* \"#utility.yul\":4099:4129   */\n      mstore\n        /* \"#utility.yul\":4165:4199   */\n      0x4f776e61626c653a2063616c6c6572206973206e6f7420746865206f776e6572\n        /* \"#utility.yul\":4145:4163   */\n      0x44\n      dup3\n      add\n        /* \"#utility.yul\":4138:4200   */\n      mstore\n        /* \"#utility.yul\":4217:4235   */\n      0x64\n      add\n        /* \"@openzeppelin/contracts/access/Ownable.sol\":1414:1482  require(owner() == _msgSender(), \"Ownable: caller is not the owner\") */\n      tag_131\n        /* \"#utility.yul\":3885:4241   */\n      jump\n        /* \"@openzeppelin/contracts/access/Ownable.sol\":2433:2620  function _transferOwnership(address newOwner) internal virtual {... */\n    tag_139:\n        /* \"@openzeppelin/contracts/access/Ownable.sol\":2506:2522  address oldOwner */\n      0x00\n        /* \"@openzeppelin/contracts/access/Ownable.sol\":2525:2531  _owner */\n      dup1\n      sload\n      sub(shl(0xa0, 0x01), 0x01)\n        /* \"@openzeppelin/contracts/access/Ownable.sol\":2541:2558  _owner = newOwner */\n      dup4\n      dup2\n      and\n      not(sub(shl(0xa0, 0x01), 0x01))\n      dup4\n      and\n      dup2\n      or\n      dup5\n      sstore\n        /* \"@openzeppelin/contracts/access/Ownable.sol\":2573:2613  OwnershipTransferred(oldOwner, newOwner) */\n      mload(0x40)\n        /* \"@openzeppelin/contracts/access/Ownable.sol\":2525:2531  _owner */\n      swap2\n      swap1\n      swap3\n      and\n      swap3\n      dup4\n      swap2\n        /* \"@openzeppelin/contracts/access/Ownable.sol\":2573:2613  OwnershipTransferred(oldOwner, newOwner) */\n      0x8be0079c531659141344cd1fd0a4f28419497f9722a3daafe3b4186f6b6457e0\n      swap2\n        /* \"@openzeppelin/contracts/access/Ownable.sol\":2506:2522  address oldOwner */\n      swap1\n        /* \"@openzeppelin/contracts/access/Ownable.sol\":2573:2613  OwnershipTransferred(oldOwner, newOwner) */\n      log3\n        /* \"@openzeppelin/contracts/access/Ownable.sol\":2496:2620  {... */\n      pop\n        /* \"@openzeppelin/contracts/access/Ownable.sol\":2433:2620  function _transferOwnership(address newOwner) internal virtual {... */\n      pop\n      jump\t// out\n        /* \"#utility.yul\":14:145   */\n    tag_238:\n      sub(shl(0xa0, 0x01), 0x01)\n        /* \"#utility.yul\":89:120   */\n      dup2\n      and\n        /* \"#utility.yul\":79:121   */\n      dup2\n      eq\n        /* \"#utility.yul\":69:139   */\n      tag_213\n      jumpi\n        /* \"#utility.yul\":135:136   */\n      0x00\n        /* \"#utility.yul\":132:133   */\n      dup1\n        /* \"#utility.yul\":125:137   */\n      revert\n        /* \"#utility.yul\":150:397   */\n    tag_24:\n        /* \"#utility.yul\":209:215   */\n      0x00\n        /* \"#utility.yul\":262:264   */\n      0x20\n        /* \"#utility.yul\":250:259   */\n      dup3\n        /* \"#utility.yul\":241:248   */\n      dup5\n        /* \"#utility.yul\":237:260   */\n      sub\n        /* \"#utility.yul\":233:265   */\n      slt\n        /* \"#utility.yul\":230:282   */\n      iszero\n      tag_244\n      jumpi\n        /* \"#utility.yul\":278:279   */\n      0x00\n        /* \"#utility.yul\":275:276   */\n      dup1\n        /* \"#utility.yul\":268:280   */\n      revert\n        /* \"#utility.yul\":230:282   */\n    tag_244:\n        /* \"#utility.yul\":317:326   */\n      dup2\n        /* \"#utility.yul\":304:327   */\n      calldataload\n        /* \"#utility.yul\":336:367   */\n      tag_245\n        /* \"#utility.yul\":361:366   */\n      dup2\n        /* \"#utility.yul\":336:367   */\n      tag_238\n      jump\t// in\n    tag_245:\n        /* \"#utility.yul\":386:391   */\n      swap4\n        /* \"#utility.yul\":150:397   */\n      swap3\n      pop\n      pop\n      pop\n      jump\t// out\n        /* \"#utility.yul\":584:899   */\n    tag_30:\n        /* \"#utility.yul\":652:658   */\n      0x00\n        /* \"#utility.yul\":660:666   */\n      dup1\n        /* \"#utility.yul\":713:715   */\n      0x40\n        /* \"#utility.yul\":701:710   */\n      dup4\n        /* \"#utility.yul\":692:699   */\n      dup6\n        /* \"#utility.yul\":688:711   */\n      sub\n        /* \"#utility.yul\":684:716   */\n      slt\n        /* \"#utility.yul\":681:733   */\n      iszero\n      tag_248\n      jumpi\n        /* \"#utility.yul\":729:730   */\n      0x00\n        /* \"#utility.yul\":726:727   */\n      dup1\n        /* \"#utility.yul\":719:731   */\n      revert\n        /* \"#utility.yul\":681:733   */\n    tag_248:\n        /* \"#utility.yul\":768:777   */\n      dup3\n        /* \"#utility.yul\":755:778   */\n      calldataload\n        /* \"#utility.yul\":787:818   */\n      tag_249\n        /* \"#utility.yul\":812:817   */\n      dup2\n        /* \"#utility.yul\":787:818   */\n      tag_238\n      jump\t// in\n    tag_249:\n        /* \"#utility.yul\":837:842   */\n      swap5\n        /* \"#utility.yul\":889:891   */\n      0x20\n        /* \"#utility.yul\":874:892   */\n      swap4\n      swap1\n      swap4\n      add\n        /* \"#utility.yul\":861:893   */\n      calldataload\n      swap4\n      pop\n      pop\n      pop\n        /* \"#utility.yul\":584:899   */\n      jump\t// out\n        /* \"#utility.yul\":1112:1292   */\n    tag_38:\n        /* \"#utility.yul\":1171:1177   */\n      0x00\n        /* \"#utility.yul\":1224:1226   */\n      0x20\n        /* \"#utility.yul\":1212:1221   */\n      dup3\n        /* \"#utility.yul\":1203:1210   */\n      dup5\n        /* \"#utility.yul\":1199:1222   */\n      sub\n        /* \"#utility.yul\":1195:1227   */\n      slt\n        /* \"#utility.yul\":1192:1244   */\n      iszero\n      tag_252\n      jumpi\n        /* \"#utility.yul\":1240:1241   */\n      0x00\n        /* \"#utility.yul\":1237:1238   */\n      dup1\n        /* \"#utility.yul\":1230:1242   */\n      revert\n        /* \"#utility.yul\":1192:1244   */\n    tag_252:\n      pop\n        /* \"#utility.yul\":1263:1286   */\n      calldataload\n      swap2\n        /* \"#utility.yul\":1112:1292   */\n      swap1\n      pop\n      jump\t// out\n        /* \"#utility.yul\":1297:1424   */\n    tag_84:\n        /* \"#utility.yul\":1358:1368   */\n      0x4e487b71\n        /* \"#utility.yul\":1353:1356   */\n      0xe0\n        /* \"#utility.yul\":1349:1369   */\n      shl\n        /* \"#utility.yul\":1346:1347   */\n      0x00\n        /* \"#utility.yul\":1339:1370   */\n      mstore\n        /* \"#utility.yul\":1389:1393   */\n      0x32\n        /* \"#utility.yul\":1386:1387   */\n      0x04\n        /* \"#utility.yul\":1379:1394   */\n      mstore\n        /* \"#utility.yul\":1413:1417   */\n      0x24\n        /* \"#utility.yul\":1410:1411   */\n      0x00\n        /* \"#utility.yul\":1403:1418   */\n      revert\n        /* \"#utility.yul\":1429:1680   */\n    tag_93:\n        /* \"#utility.yul\":1499:1505   */\n      0x00\n        /* \"#utility.yul\":1552:1554   */\n      0x20\n        /* \"#utility.yul\":1540:1549   */\n      dup3\n        /* \"#utility.yul\":1531:1538   */\n      dup5\n        /* \"#utility.yul\":1527:1550   */\n      sub\n        /* \"#utility.yul\":1523:1555   */\n      slt\n        /* \"#utility.yul\":1520:1572   */\n      iszero\n      tag_255\n      jumpi\n        /* \"#utility.yul\":1568:1569   */\n      0x00\n        /* \"#utility.yul\":1565:1566   */\n      dup1\n        /* \"#utility.yul\":1558:1570   */\n      revert\n        /* \"#utility.yul\":1520:1572   */\n    tag_255:\n        /* \"#utility.yul\":1600:1609   */\n      dup2\n        /* \"#utility.yul\":1594:1610   */\n      mload\n        /* \"#utility.yul\":1619:1650   */\n      tag_245\n        /* \"#utility.yul\":1644:1649   */\n      dup2\n        /* \"#utility.yul\":1619:1650   */\n      tag_238\n      jump\t// in\n        /* \"#utility.yul\":1685:1869   */\n    tag_98:\n        /* \"#utility.yul\":1755:1761   */\n      0x00\n        /* \"#utility.yul\":1808:1810   */\n      0x20\n        /* \"#utility.yul\":1796:1805   */\n      dup3\n        /* \"#utility.yul\":1787:1794   */\n      dup5\n        /* \"#utility.yul\":1783:1806   */\n      sub\n        /* \"#utility.yul\":1779:1811   */\n      slt\n        /* \"#utility.yul\":1776:1828   */\n      iszero\n      tag_258\n      jumpi\n        /* \"#utility.yul\":1824:1825   */\n      0x00\n        /* \"#utility.yul\":1821:1822   */\n      dup1\n        /* \"#utility.yul\":1814:1826   */\n      revert\n        /* \"#utility.yul\":1776:1828   */\n    tag_258:\n      pop\n        /* \"#utility.yul\":1847:1863   */\n      mload\n      swap2\n        /* \"#utility.yul\":1685:1869   */\n      swap1\n      pop\n      jump\t// out\n        /* \"#utility.yul\":1874:2001   */\n    tag_239:\n        /* \"#utility.yul\":1935:1945   */\n      0x4e487b71\n        /* \"#utility.yul\":1930:1933   */\n      0xe0\n        /* \"#utility.yul\":1926:1946   */\n      shl\n        /* \"#utility.yul\":1923:1924   */\n      0x00\n        /* \"#utility.yul\":1916:1947   */\n      mstore\n        /* \"#utility.yul\":1966:1970   */\n      0x11\n        /* \"#utility.yul\":1963:1964   */\n      0x04\n        /* \"#utility.yul\":1956:1971   */\n      mstore\n        /* \"#utility.yul\":1990:1994   */\n      0x24\n        /* \"#utility.yul\":1987:1988   */\n      0x00\n        /* \"#utility.yul\":1980:1995   */\n      revert\n        /* \"#utility.yul\":2006:2174   */\n    tag_100:\n        /* \"#utility.yul\":2079:2088   */\n      dup1\n      dup3\n      mul\n        /* \"#utility.yul\":2110:2119   */\n      dup2\n      iszero\n        /* \"#utility.yul\":2127:2142   */\n      dup3\n      dup3\n      div\n        /* \"#utility.yul\":2121:2143   */\n      dup5\n      eq\n        /* \"#utility.yul\":2107:2144   */\n      or\n        /* \"#utility.yul\":2097:2168   */\n      tag_262\n      jumpi\n        /* \"#utility.yul\":2148:2166   */\n      tag_262\n      tag_239\n      jump\t// in\n    tag_262:\n        /* \"#utility.yul\":2006:2174   */\n      swap3\n      swap2\n      pop\n      pop\n      jump\t// out\n        /* \"#utility.yul\":2179:2304   */\n    tag_102:\n        /* \"#utility.yul\":2244:2253   */\n      dup1\n      dup3\n      add\n        /* \"#utility.yul\":2265:2275   */\n      dup1\n      dup3\n      gt\n        /* \"#utility.yul\":2262:2298   */\n      iszero\n      tag_262\n      jumpi\n        /* \"#utility.yul\":2278:2296   */\n      tag_262\n      tag_239\n      jump\t// in\n        /* \"#utility.yul\":2309:2444   */\n    tag_104:\n        /* \"#utility.yul\":2348:2351   */\n      0x00\n        /* \"#utility.yul\":2369:2386   */\n      0x01\n      dup3\n      add\n        /* \"#utility.yul\":2366:2409   */\n      tag_268\n      jumpi\n        /* \"#utility.yul\":2389:2407   */\n      tag_268\n      tag_239\n      jump\t// in\n    tag_268:\n      pop\n        /* \"#utility.yul\":2436:2437   */\n      0x01\n        /* \"#utility.yul\":2425:2438   */\n      add\n      swap1\n        /* \"#utility.yul\":2309:2444   */\n      jump\t// out\n        /* \"#utility.yul\":2449:2577   */\n    tag_124:\n        /* \"#utility.yul\":2516:2525   */\n      dup2\n      dup2\n      sub\n        /* \"#utility.yul\":2537:2548   */\n      dup2\n      dup2\n      gt\n        /* \"#utility.yul\":2534:2571   */\n      iszero\n      tag_262\n      jumpi\n        /* \"#utility.yul\":2551:2569   */\n      tag_262\n      tag_239\n      jump\t// in\n        /* \"#utility.yul\":2582:2982   */\n    tag_132:\n        /* \"#utility.yul\":2784:2786   */\n      0x20\n        /* \"#utility.yul\":2766:2787   */\n      dup1\n      dup3\n      mstore\n        /* \"#utility.yul\":2823:2825   */\n      0x24\n        /* \"#utility.yul\":2803:2821   */\n      swap1\n      dup3\n      add\n        /* \"#utility.yul\":2796:2826   */\n      mstore\n        /* \"#utility.yul\":2862:2896   */\n      0x4669726552657075746174696f6e3a20746f6b656e20646f6573206e6f742065\n        /* \"#utility.yul\":2857:2859   */\n      0x40\n        /* \"#utility.yul\":2842:2860   */\n      dup3\n      add\n        /* \"#utility.yul\":2835:2897   */\n      mstore\n      shl(0xe2, 0x1e1a5cdd)\n        /* \"#utility.yul\":2928:2930   */\n      0x60\n        /* \"#utility.yul\":2913:2931   */\n      dup3\n      add\n        /* \"#utility.yul\":2906:2940   */\n      mstore\n        /* \"#utility.yul\":2972:2975   */\n      0x80\n        /* \"#utility.yul\":2957:2976   */\n      add\n      swap1\n        /* \"#utility.yul\":2582:2982   */\n      jump\t// out\n        /* \"#utility.yul\":2987:3114   */\n    tag_166:\n        /* \"#utility.yul\":3048:3058   */\n      0x4e487b71\n        /* \"#utility.yul\":3043:3046   */\n      0xe0\n        /* \"#utility.yul\":3039:3059   */\n      shl\n        /* \"#utility.yul\":3036:3037   */\n      0x00\n        /* \"#utility.yul\":3029:3060   */\n      mstore\n        /* \"#utility.yul\":3079:3083   */\n      0x31\n        /* \"#utility.yul\":3076:3077   */\n      0x04\n        /* \"#utility.yul\":3069:3084   */\n      mstore\n        /* \"#utility.yul\":3103:3107   */\n      0x24\n        /* \"#utility.yul\":3100:3101   */\n      0x00\n        /* \"#utility.yul\":3093:3108   */\n      revert\n\n    auxdata: 0xa2646970667358221220a171b1036871ad2199f213cf5082d24fc6c51deaa65d184b56dd9a9910a3972464736f6c63430008120033\n}\n",
				"bytecode": {
					"linkReferences": {},
					"object": "608060405234801561001057600080fd5b5061001a3361001f565b61006f565b600080546001600160a01b038381166001600160a01b0319831681178455604051919092169283917f8be0079c531659141344cd1fd0a4f28419497f9722a3daafe3b4186f6b6457e09190a35050565b610dc38061007e6000396000f3fe608060405234801561001057600080fd5b50600436106101005760003560e01c80639090c0f211610097578063f069f71211610066578063f069f71214610200578063f2fde38b14610213578063f52ce42514610226578063f9af8b381461023957600080fd5b80639090c0f2146101bf578063a668e3ce146101d2578063a6da308e146101e5578063b0c26ecf146101f857600080fd5b80636a2be1a1116100d35780636a2be1a11461017e578063715018a61461019e5780638cafebef146101a65780638da5cb5b146101ae57600080fd5b8063014ab313146101055780631353ef1e1461012b5780631a5ef71c146101405780634f64b2be1461016b575b600080fd5b610118610113366004610c0c565b61024c565b6040519081526020015b60405180910390f35b61013e610139366004610c30565b61053e565b005b600454610153906001600160a01b031681565b6040516001600160a01b039091168152602001610122565b610153610179366004610c5c565b6105a0565b61011861018c366004610c0c565b60016020526000908152604090205481565b61013e6105ca565b600354610118565b6000546001600160a01b0316610153565b61013e6101cd366004610c0c565b6105de565b61013e6101e0366004610c0c565b610608565b61013e6101f3366004610c30565b610766565b600254610118565b61013e61020e366004610c0c565b610868565b61013e610221366004610c0c565b6109c2565b610153610234366004610c5c565b610a3b565b61013e610247366004610c30565b610a4b565b600080805b6002548110156103c257600160006002838154811061027257610272610c75565b60009182526020808320909101546001600160a01b0316835282019290925260400190205460028054839081106102ab576102ab610c75565b6000918252602090912001546004805460405163be5f0cc960e01b81526001600160a01b0389811693820193909352928216926370a08231929091169063be5f0cc990602401602060405180830381865afa15801561030e573d6000803e3d6000fd5b505050506040513d601f19601f820116820180604052508101906103329190610c8b565b6040516001600160e01b031960e084901b1681526001600160a01b039091166004820152602401602060405180830381865afa158015610376573d6000803e3d6000fd5b505050506040513d601f19601f8201168201806040525081019061039a9190610ca8565b6103a49190610cd7565b6103ae9083610cf4565b9150806103ba81610d07565b915050610251565b5060005b6003548110156105375760016000600383815481106103e7576103e7610c75565b60009182526020808320909101546001600160a01b03168352820192909252604001902054600380548390811061042057610420610c75565b6000918252602090912001546004805460405163be5f0cc960e01b81526001600160a01b0389811693820193909352928216926370a08231929091169063be5f0cc990602401602060405180830381865afa158015610483573d6000803e3d6000fd5b505050506040513d601f19601f820116820180604052508101906104a79190610c8b565b6040516001600160e01b031960e084901b1681526001600160a01b039091166004820152602401602060405180830381865afa1580156104eb573d6000803e3d6000fd5b505050506040513d601f19601f8201168201806040525081019061050f9190610ca8565b6105199190610cd7565b6105239083610d20565b91508061052f81610d07565b9150506103c6565b5092915050565b610546610b4d565b6001600160a01b0382166000908152600160205260409020546105845760405162461bcd60e51b815260040161057b90610d33565b60405180910390fd5b6001600160a01b03909116600090815260016020526040902055565b600281815481106105b057600080fd5b6000918252602090912001546001600160a01b0316905081565b6105d2610b4d565b6105dc6000610ba7565b565b6105e6610b4d565b600480546001600160a01b0319166001600160a01b0392909216919091179055565b610610610b4d565b6001600160a01b0381166000908152600160205260409020546106455760405162461bcd60e51b815260040161057b90610d33565b6001600160a01b03811660009081526001602052604081208190555b60035481101561076257816001600160a01b03166003828154811061068857610688610c75565b6000918252602090912001546001600160a01b03160361075057600380546106b290600190610d20565b815481106106c2576106c2610c75565b600091825260209091200154600380546001600160a01b0390921691839081106106ee576106ee610c75565b9060005260206000200160006101000a8154816001600160a01b0302191690836001600160a01b03160217905550600380548061072d5761072d610d77565b600082815260209020810160001990810180546001600160a01b03191690550190555b8061075a81610d07565b915050610661565b5050565b61076e610b4d565b60005b60035481101561080c57826001600160a01b03166003828154811061079857610798610c75565b6000918252602090912001546001600160a01b0316036107fa5760405162461bcd60e51b815260206004820152601e60248201527f4669726552657075746174696f6e3a20746f6b656e2069732065786973740000604482015260640161057b565b8061080481610d07565b915050610771565b506003805460018181019092557fc2575a0e9e593c00f959f8c92f12db2869c3395a3b0502d05e2516446f71f85b0180546001600160a01b039094166001600160a01b0319909416841790556000928352602052604090912055565b610870610b4d565b6001600160a01b0381166000908152600160205260409020546108a55760405162461bcd60e51b815260040161057b90610d33565b6001600160a01b03811660009081526001602052604081208190555b60025481101561076257816001600160a01b0316600282815481106108e8576108e8610c75565b6000918252602090912001546001600160a01b0316036109b0576002805461091290600190610d20565b8154811061092257610922610c75565b600091825260209091200154600280546001600160a01b03909216918390811061094e5761094e610c75565b9060005260206000200160006101000a8154816001600160a01b0302191690836001600160a01b03160217905550600280548061098d5761098d610d77565b600082815260209020810160001990810180546001600160a01b03191690550190555b806109ba81610d07565b9150506108c1565b6109ca610b4d565b6001600160a01b038116610a2f5760405162461bcd60e51b815260206004820152602660248201527f4f776e61626c653a206e6577206f776e657220697320746865207a65726f206160448201526564647265737360d01b606482015260840161057b565b610a3881610ba7565b50565b600381815481106105b057600080fd5b610a53610b4d565b60005b600254811015610af157826001600160a01b031660028281548110610a7d57610a7d610c75565b6000918252602090912001546001600160a01b031603610adf5760405162461bcd60e51b815260206004820152601e60248201527f4669726552657075746174696f6e3a20746f6b656e2069732065786973740000604482015260640161057b565b80610ae981610d07565b915050610a56565b506002805460018181019092557f405787fa12a823e0f2b7631cc41b3ba8828b3321ca811111fa75cd3aa3bb5ace0180546001600160a01b039094166001600160a01b0319909416841790556000928352602052604090912055565b6000546001600160a01b031633146105dc5760405162461bcd60e51b815260206004820181905260248201527f4f776e61626c653a2063616c6c6572206973206e6f7420746865206f776e6572604482015260640161057b565b600080546001600160a01b038381166001600160a01b0319831681178455604051919092169283917f8be0079c531659141344cd1fd0a4f28419497f9722a3daafe3b4186f6b6457e09190a35050565b6001600160a01b0381168114610a3857600080fd5b600060208284031215610c1e57600080fd5b8135610c2981610bf7565b9392505050565b60008060408385031215610c4357600080fd5b8235610c4e81610bf7565b946020939093013593505050565b600060208284031215610c6e57600080fd5b5035919050565b634e487b7160e01b600052603260045260246000fd5b600060208284031215610c9d57600080fd5b8151610c2981610bf7565b600060208284031215610cba57600080fd5b5051919050565b634e487b7160e01b600052601160045260246000fd5b8082028115828204841417610cee57610cee610cc1565b92915050565b80820180821115610cee57610cee610cc1565b600060018201610d1957610d19610cc1565b5060010190565b81810381811115610cee57610cee610cc1565b60208082526024908201527f4669726552657075746174696f6e3a20746f6b656e20646f6573206e6f7420656040820152631e1a5cdd60e21b606082015260800190565b634e487b7160e01b600052603160045260246000fdfea2646970667358221220a171b1036871ad2199f213cf5082d24fc6c51deaa65d184b56dd9a9910a3972464736f6c63430008120033",
					"opcodes": "PUSH1 0x80 PUSH1 0x40 MSTORE CALLVALUE DUP1 ISZERO PUSH2 0x10 JUMPI PUSH1 0x0 DUP1 REVERT JUMPDEST POP PUSH2 0x1A CALLER PUSH2 0x1F JUMP JUMPDEST PUSH2 0x6F JUMP JUMPDEST PUSH1 0x0 DUP1 SLOAD PUSH1 0x1 PUSH1 0x1 PUSH1 0xA0 SHL SUB DUP4 DUP2 AND PUSH1 0x1 PUSH1 0x1 PUSH1 0xA0 SHL SUB NOT DUP4 AND DUP2 OR DUP5 SSTORE PUSH1 0x40 MLOAD SWAP2 SWAP1 SWAP3 AND SWAP3 DUP4 SWAP2 PUSH32 0x8BE0079C531659141344CD1FD0A4F28419497F9722A3DAAFE3B4186F6B6457E0 SWAP2 SWAP1 LOG3 POP POP JUMP JUMPDEST PUSH2 0xDC3 DUP1 PUSH2 0x7E PUSH1 0x0 CODECOPY PUSH1 0x0 RETURN INVALID PUSH1 0x80 PUSH1 0x40 MSTORE CALLVALUE DUP1 ISZERO PUSH2 0x10 JUMPI PUSH1 0x0 DUP1 REVERT JUMPDEST POP PUSH1 0x4 CALLDATASIZE LT PUSH2 0x100 JUMPI PUSH1 0x0 CALLDATALOAD PUSH1 0xE0 SHR DUP1 PUSH4 0x9090C0F2 GT PUSH2 0x97 JUMPI DUP1 PUSH4 0xF069F712 GT PUSH2 0x66 JUMPI DUP1 PUSH4 0xF069F712 EQ PUSH2 0x200 JUMPI DUP1 PUSH4 0xF2FDE38B EQ PUSH2 0x213 JUMPI DUP1 PUSH4 0xF52CE425 EQ PUSH2 0x226 JUMPI DUP1 PUSH4 0xF9AF8B38 EQ PUSH2 0x239 JUMPI PUSH1 0x0 DUP1 REVERT JUMPDEST DUP1 PUSH4 0x9090C0F2 EQ PUSH2 0x1BF JUMPI DUP1 PUSH4 0xA668E3CE EQ PUSH2 0x1D2 JUMPI DUP1 PUSH4 0xA6DA308E EQ PUSH2 0x1E5 JUMPI DUP1 PUSH4 0xB0C26ECF EQ PUSH2 0x1F8 JUMPI PUSH1 0x0 DUP1 REVERT JUMPDEST DUP1 PUSH4 0x6A2BE1A1 GT PUSH2 0xD3 JUMPI DUP1 PUSH4 0x6A2BE1A1 EQ PUSH2 0x17E JUMPI DUP1 PUSH4 0x715018A6 EQ PUSH2 0x19E JUMPI DUP1 PUSH4 0x8CAFEBEF EQ PUSH2 0x1A6 JUMPI DUP1 PUSH4 0x8DA5CB5B EQ PUSH2 0x1AE JUMPI PUSH1 0x0 DUP1 REVERT JUMPDEST DUP1 PUSH4 0x14AB313 EQ PUSH2 0x105 JUMPI DUP1 PUSH4 0x1353EF1E EQ PUSH2 0x12B JUMPI DUP1 PUSH4 0x1A5EF71C EQ PUSH2 0x140 JUMPI DUP1 PUSH4 0x4F64B2BE EQ PUSH2 0x16B JUMPI JUMPDEST PUSH1 0x0 DUP1 REVERT JUMPDEST PUSH2 0x118 PUSH2 0x113 CALLDATASIZE PUSH1 0x4 PUSH2 0xC0C JUMP JUMPDEST PUSH2 0x24C JUMP JUMPDEST PUSH1 0x40 MLOAD SWAP1 DUP2 MSTORE PUSH1 0x20 ADD JUMPDEST PUSH1 0x40 MLOAD DUP1 SWAP2 SUB SWAP1 RETURN JUMPDEST PUSH2 0x13E PUSH2 0x139 CALLDATASIZE PUSH1 0x4 PUSH2 0xC30 JUMP JUMPDEST PUSH2 0x53E JUMP JUMPDEST STOP JUMPDEST PUSH1 0x4 SLOAD PUSH2 0x153 SWAP1 PUSH1 0x1 PUSH1 0x1 PUSH1 0xA0 SHL SUB AND DUP2 JUMP JUMPDEST PUSH1 0x40 MLOAD PUSH1 0x1 PUSH1 0x1 PUSH1 0xA0 SHL SUB SWAP1 SWAP2 AND DUP2 MSTORE PUSH1 0x20 ADD PUSH2 0x122 JUMP JUMPDEST PUSH2 0x153 PUSH2 0x179 CALLDATASIZE PUSH1 0x4 PUSH2 0xC5C JUMP JUMPDEST PUSH2 0x5A0 JUMP JUMPDEST PUSH2 0x118 PUSH2 0x18C CALLDATASIZE PUSH1 0x4 PUSH2 0xC0C JUMP JUMPDEST PUSH1 0x1 PUSH1 0x20 MSTORE PUSH1 0x0 SWAP1 DUP2 MSTORE PUSH1 0x40 SWAP1 KECCAK256 SLOAD DUP2 JUMP JUMPDEST PUSH2 0x13E PUSH2 0x5CA JUMP JUMPDEST PUSH1 0x3 SLOAD PUSH2 0x118 JUMP JUMPDEST PUSH1 0x0 SLOAD PUSH1 0x1 PUSH1 0x1 PUSH1 0xA0 SHL SUB AND PUSH2 0x153 JUMP JUMPDEST PUSH2 0x13E PUSH2 0x1CD CALLDATASIZE PUSH1 0x4 PUSH2 0xC0C JUMP JUMPDEST PUSH2 0x5DE JUMP JUMPDEST PUSH2 0x13E PUSH2 0x1E0 CALLDATASIZE PUSH1 0x4 PUSH2 0xC0C JUMP JUMPDEST PUSH2 0x608 JUMP JUMPDEST PUSH2 0x13E PUSH2 0x1F3 CALLDATASIZE PUSH1 0x4 PUSH2 0xC30 JUMP JUMPDEST PUSH2 0x766 JUMP JUMPDEST PUSH1 0x2 SLOAD PUSH2 0x118 JUMP JUMPDEST PUSH2 0x13E PUSH2 0x20E CALLDATASIZE PUSH1 0x4 PUSH2 0xC0C JUMP JUMPDEST PUSH2 0x868 JUMP JUMPDEST PUSH2 0x13E PUSH2 0x221 CALLDATASIZE PUSH1 0x4 PUSH2 0xC0C JUMP JUMPDEST PUSH2 0x9C2 JUMP JUMPDEST PUSH2 0x153 PUSH2 0x234 CALLDATASIZE PUSH1 0x4 PUSH2 0xC5C JUMP JUMPDEST PUSH2 0xA3B JUMP JUMPDEST PUSH2 0x13E PUSH2 0x247 CALLDATASIZE PUSH1 0x4 PUSH2 0xC30 JUMP JUMPDEST PUSH2 0xA4B JUMP JUMPDEST PUSH1 0x0 DUP1 DUP1 JUMPDEST PUSH1 0x2 SLOAD DUP2 LT ISZERO PUSH2 0x3C2 JUMPI PUSH1 0x1 PUSH1 0x0 PUSH1 0x2 DUP4 DUP2 SLOAD DUP2 LT PUSH2 0x272 JUMPI PUSH2 0x272 PUSH2 0xC75 JUMP JUMPDEST PUSH1 0x0 SWAP2 DUP3 MSTORE PUSH1 0x20 DUP1 DUP4 KECCAK256 SWAP1 SWAP2 ADD SLOAD PUSH1 0x1 PUSH1 0x1 PUSH1 0xA0 SHL SUB AND DUP4 MSTORE DUP3 ADD SWAP3 SWAP1 SWAP3 MSTORE PUSH1 0x40 ADD SWAP1 KECCAK256 SLOAD PUSH1 0x2 DUP1 SLOAD DUP4 SWAP1 DUP2 LT PUSH2 0x2AB JUMPI PUSH2 0x2AB PUSH2 0xC75 JUMP JUMPDEST PUSH1 0x0 SWAP2 DUP3 MSTORE PUSH1 0x20 SWAP1 SWAP2 KECCAK256 ADD SLOAD PUSH1 0x4 DUP1 SLOAD PUSH1 0x40 MLOAD PUSH4 0xBE5F0CC9 PUSH1 0xE0 SHL DUP2 MSTORE PUSH1 0x1 PUSH1 0x1 PUSH1 0xA0 SHL SUB DUP10 DUP2 AND SWAP4 DUP3 ADD SWAP4 SWAP1 SWAP4 MSTORE SWAP3 DUP3 AND SWAP3 PUSH4 0x70A08231 SWAP3 SWAP1 SWAP2 AND SWAP1 PUSH4 0xBE5F0CC9 SWAP1 PUSH1 0x24 ADD PUSH1 0x20 PUSH1 0x40 MLOAD DUP1 DUP4 SUB DUP2 DUP7 GAS STATICCALL ISZERO DUP1 ISZERO PUSH2 0x30E JUMPI RETURNDATASIZE PUSH1 0x0 DUP1 RETURNDATACOPY RETURNDATASIZE PUSH1 0x0 REVERT JUMPDEST POP POP POP POP PUSH1 0x40 MLOAD RETURNDATASIZE PUSH1 0x1F NOT PUSH1 0x1F DUP3 ADD AND DUP3 ADD DUP1 PUSH1 0x40 MSTORE POP DUP2 ADD SWAP1 PUSH2 0x332 SWAP2 SWAP1 PUSH2 0xC8B JUMP JUMPDEST PUSH1 0x40 MLOAD PUSH1 0x1 PUSH1 0x1 PUSH1 0xE0 SHL SUB NOT PUSH1 0xE0 DUP5 SWAP1 SHL AND DUP2 MSTORE PUSH1 0x1 PUSH1 0x1 PUSH1 0xA0 SHL SUB SWAP1 SWAP2 AND PUSH1 0x4 DUP3 ADD MSTORE PUSH1 0x24 ADD PUSH1 0x20 PUSH1 0x40 MLOAD DUP1 DUP4 SUB DUP2 DUP7 GAS STATICCALL ISZERO DUP1 ISZERO PUSH2 0x376 JUMPI RETURNDATASIZE PUSH1 0x0 DUP1 RETURNDATACOPY RETURNDATASIZE PUSH1 0x0 REVERT JUMPDEST POP POP POP POP PUSH1 0x40 MLOAD RETURNDATASIZE PUSH1 0x1F NOT PUSH1 0x1F DUP3 ADD AND DUP3 ADD DUP1 PUSH1 0x40 MSTORE POP DUP2 ADD SWAP1 PUSH2 0x39A SWAP2 SWAP1 PUSH2 0xCA8 JUMP JUMPDEST PUSH2 0x3A4 SWAP2 SWAP1 PUSH2 0xCD7 JUMP JUMPDEST PUSH2 0x3AE SWAP1 DUP4 PUSH2 0xCF4 JUMP JUMPDEST SWAP2 POP DUP1 PUSH2 0x3BA DUP2 PUSH2 0xD07 JUMP JUMPDEST SWAP2 POP POP PUSH2 0x251 JUMP JUMPDEST POP PUSH1 0x0 JUMPDEST PUSH1 0x3 SLOAD DUP2 LT ISZERO PUSH2 0x537 JUMPI PUSH1 0x1 PUSH1 0x0 PUSH1 0x3 DUP4 DUP2 SLOAD DUP2 LT PUSH2 0x3E7 JUMPI PUSH2 0x3E7 PUSH2 0xC75 JUMP JUMPDEST PUSH1 0x0 SWAP2 DUP3 MSTORE PUSH1 0x20 DUP1 DUP4 KECCAK256 SWAP1 SWAP2 ADD SLOAD PUSH1 0x1 PUSH1 0x1 PUSH1 0xA0 SHL SUB AND DUP4 MSTORE DUP3 ADD SWAP3 SWAP1 SWAP3 MSTORE PUSH1 0x40 ADD SWAP1 KECCAK256 SLOAD PUSH1 0x3 DUP1 SLOAD DUP4 SWAP1 DUP2 LT PUSH2 0x420 JUMPI PUSH2 0x420 PUSH2 0xC75 JUMP JUMPDEST PUSH1 0x0 SWAP2 DUP3 MSTORE PUSH1 0x20 SWAP1 SWAP2 KECCAK256 ADD SLOAD PUSH1 0x4 DUP1 SLOAD PUSH1 0x40 MLOAD PUSH4 0xBE5F0CC9 PUSH1 0xE0 SHL DUP2 MSTORE PUSH1 0x1 PUSH1 0x1 PUSH1 0xA0 SHL SUB DUP10 DUP2 AND SWAP4 DUP3 ADD SWAP4 SWAP1 SWAP4 MSTORE SWAP3 DUP3 AND SWAP3 PUSH4 0x70A08231 SWAP3 SWAP1 SWAP2 AND SWAP1 PUSH4 0xBE5F0CC9 SWAP1 PUSH1 0x24 ADD PUSH1 0x20 PUSH1 0x40 MLOAD DUP1 DUP4 SUB DUP2 DUP7 GAS STATICCALL ISZERO DUP1 ISZERO PUSH2 0x483 JUMPI RETURNDATASIZE PUSH1 0x0 DUP1 RETURNDATACOPY RETURNDATASIZE PUSH1 0x0 REVERT JUMPDEST POP POP POP POP PUSH1 0x40 MLOAD RETURNDATASIZE PUSH1 0x1F NOT PUSH1 0x1F DUP3 ADD AND DUP3 ADD DUP1 PUSH1 0x40 MSTORE POP DUP2 ADD SWAP1 PUSH2 0x4A7 SWAP2 SWAP1 PUSH2 0xC8B JUMP JUMPDEST PUSH1 0x40 MLOAD PUSH1 0x1 PUSH1 0x1 PUSH1 0xE0 SHL SUB NOT PUSH1 0xE0 DUP5 SWAP1 SHL AND DUP2 MSTORE PUSH1 0x1 PUSH1 0x1 PUSH1 0xA0 SHL SUB SWAP1 SWAP2 AND PUSH1 0x4 DUP3 ADD MSTORE PUSH1 0x24 ADD PUSH1 0x20 PUSH1 0x40 MLOAD DUP1 DUP4 SUB DUP2 DUP7 GAS STATICCALL ISZERO DUP1 ISZERO PUSH2 0x4EB JUMPI RETURNDATASIZE PUSH1 0x0 DUP1 RETURNDATACOPY RETURNDATASIZE PUSH1 0x0 REVERT JUMPDEST POP POP POP POP PUSH1 0x40 MLOAD RETURNDATASIZE PUSH1 0x1F NOT PUSH1 0x1F DUP3 ADD AND DUP3 ADD DUP1 PUSH1 0x40 MSTORE POP DUP2 ADD SWAP1 PUSH2 0x50F SWAP2 SWAP1 PUSH2 0xCA8 JUMP JUMPDEST PUSH2 0x519 SWAP2 SWAP1 PUSH2 0xCD7 JUMP JUMPDEST PUSH2 0x523 SWAP1 DUP4 PUSH2 0xD20 JUMP JUMPDEST SWAP2 POP DUP1 PUSH2 0x52F DUP2 PUSH2 0xD07 JUMP JUMPDEST SWAP2 POP POP PUSH2 0x3C6 JUMP JUMPDEST POP SWAP3 SWAP2 POP POP JUMP JUMPDEST PUSH2 0x546 PUSH2 0xB4D JUMP JUMPDEST PUSH1 0x1 PUSH1 0x1 PUSH1 0xA0 SHL SUB DUP3 AND PUSH1 0x0 SWAP1 DUP2 MSTORE PUSH1 0x1 PUSH1 0x20 MSTORE PUSH1 0x40 SWAP1 KECCAK256 SLOAD PUSH2 0x584 JUMPI PUSH1 0x40 MLOAD PUSH3 0x461BCD PUSH1 0xE5 SHL DUP2 MSTORE PUSH1 0x4 ADD PUSH2 0x57B SWAP1 PUSH2 0xD33 JUMP JUMPDEST PUSH1 0x40 MLOAD DUP1 SWAP2 SUB SWAP1 REVERT JUMPDEST PUSH1 0x1 PUSH1 0x1 PUSH1 0xA0 SHL SUB SWAP1 SWAP2 AND PUSH1 0x0 SWAP1 DUP2 MSTORE PUSH1 0x1 PUSH1 0x20 MSTORE PUSH1 0x40 SWAP1 KECCAK256 SSTORE JUMP JUMPDEST PUSH1 0x2 DUP2 DUP2 SLOAD DUP2 LT PUSH2 0x5B0 JUMPI PUSH1 0x0 DUP1 REVERT JUMPDEST PUSH1 0x0 SWAP2 DUP3 MSTORE PUSH1 0x20 SWAP1 SWAP2 KECCAK256 ADD SLOAD PUSH1 0x1 PUSH1 0x1 PUSH1 0xA0 SHL SUB AND SWAP1 POP DUP2 JUMP JUMPDEST PUSH2 0x5D2 PUSH2 0xB4D JUMP JUMPDEST PUSH2 0x5DC PUSH1 0x0 PUSH2 0xBA7 JUMP JUMPDEST JUMP JUMPDEST PUSH2 0x5E6 PUSH2 0xB4D JUMP JUMPDEST PUSH1 0x4 DUP1 SLOAD PUSH1 0x1 PUSH1 0x1 PUSH1 0xA0 SHL SUB NOT AND PUSH1 0x1 PUSH1 0x1 PUSH1 0xA0 SHL SUB SWAP3 SWAP1 SWAP3 AND SWAP2 SWAP1 SWAP2 OR SWAP1 SSTORE JUMP JUMPDEST PUSH2 0x610 PUSH2 0xB4D JUMP JUMPDEST PUSH1 0x1 PUSH1 0x1 PUSH1 0xA0 SHL SUB DUP2 AND PUSH1 0x0 SWAP1 DUP2 MSTORE PUSH1 0x1 PUSH1 0x20 MSTORE PUSH1 0x40 SWAP1 KECCAK256 SLOAD PUSH2 0x645 JUMPI PUSH1 0x40 MLOAD PUSH3 0x461BCD PUSH1 0xE5 SHL DUP2 MSTORE PUSH1 0x4 ADD PUSH2 0x57B SWAP1 PUSH2 0xD33 JUMP JUMPDEST PUSH1 0x1 PUSH1 0x1 PUSH1 0xA0 SHL SUB DUP2 AND PUSH1 0x0 SWAP1 DUP2 MSTORE PUSH1 0x1 PUSH1 0x20 MSTORE PUSH1 0x40 DUP2 KECCAK256 DUP2 SWAP1 SSTORE JUMPDEST PUSH1 0x3 SLOAD DUP2 LT ISZERO PUSH2 0x762 JUMPI DUP2 PUSH1 0x1 PUSH1 0x1 PUSH1 0xA0 SHL SUB AND PUSH1 0x3 DUP3 DUP2 SLOAD DUP2 LT PUSH2 0x688 JUMPI PUSH2 0x688 PUSH2 0xC75 JUMP JUMPDEST PUSH1 0x0 SWAP2 DUP3 MSTORE PUSH1 0x20 SWAP1 SWAP2 KECCAK256 ADD SLOAD PUSH1 0x1 PUSH1 0x1 PUSH1 0xA0 SHL SUB AND SUB PUSH2 0x750 JUMPI PUSH1 0x3 DUP1 SLOAD PUSH2 0x6B2 SWAP1 PUSH1 0x1 SWAP1 PUSH2 0xD20 JUMP JUMPDEST DUP2 SLOAD DUP2 LT PUSH2 0x6C2 JUMPI PUSH2 0x6C2 PUSH2 0xC75 JUMP JUMPDEST PUSH1 0x0 SWAP2 DUP3 MSTORE PUSH1 0x20 SWAP1 SWAP2 KECCAK256 ADD SLOAD PUSH1 0x3 DUP1 SLOAD PUSH1 0x1 PUSH1 0x1 PUSH1 0xA0 SHL SUB SWAP1 SWAP3 AND SWAP2 DUP4 SWAP1 DUP2 LT PUSH2 0x6EE JUMPI PUSH2 0x6EE PUSH2 0xC75 JUMP JUMPDEST SWAP1 PUSH1 0x0 MSTORE PUSH1 0x20 PUSH1 0x0 KECCAK256 ADD PUSH1 0x0 PUSH2 0x100 EXP DUP2 SLOAD DUP2 PUSH1 0x1 PUSH1 0x1 PUSH1 0xA0 SHL SUB MUL NOT AND SWAP1 DUP4 PUSH1 0x1 PUSH1 0x1 PUSH1 0xA0 SHL SUB AND MUL OR SWAP1 SSTORE POP PUSH1 0x3 DUP1 SLOAD DUP1 PUSH2 0x72D JUMPI PUSH2 0x72D PUSH2 0xD77 JUMP JUMPDEST PUSH1 0x0 DUP3 DUP2 MSTORE PUSH1 0x20 SWAP1 KECCAK256 DUP2 ADD PUSH1 0x0 NOT SWAP1 DUP2 ADD DUP1 SLOAD PUSH1 0x1 PUSH1 0x1 PUSH1 0xA0 SHL SUB NOT AND SWAP1 SSTORE ADD SWAP1 SSTORE JUMPDEST DUP1 PUSH2 0x75A DUP2 PUSH2 0xD07 JUMP JUMPDEST SWAP2 POP POP PUSH2 0x661 JUMP JUMPDEST POP POP JUMP JUMPDEST PUSH2 0x76E PUSH2 0xB4D JUMP JUMPDEST PUSH1 0x0 JUMPDEST PUSH1 0x3 SLOAD DUP2 LT ISZERO PUSH2 0x80C JUMPI DUP3 PUSH1 0x1 PUSH1 0x1 PUSH1 0xA0 SHL SUB AND PUSH1 0x3 DUP3 DUP2 SLOAD DUP2 LT PUSH2 0x798 JUMPI PUSH2 0x798 PUSH2 0xC75 JUMP JUMPDEST PUSH1 0x0 SWAP2 DUP3 MSTORE PUSH1 0x20 SWAP1 SWAP2 KECCAK256 ADD SLOAD PUSH1 0x1 PUSH1 0x1 PUSH1 0xA0 SHL SUB AND SUB PUSH2 0x7FA JUMPI PUSH1 0x40 MLOAD PUSH3 0x461BCD PUSH1 0xE5 SHL DUP2 MSTORE PUSH1 0x20 PUSH1 0x4 DUP3 ADD MSTORE PUSH1 0x1E PUSH1 0x24 DUP3 ADD MSTORE PUSH32 0x4669726552657075746174696F6E3A20746F6B656E2069732065786973740000 PUSH1 0x44 DUP3 ADD MSTORE PUSH1 0x64 ADD PUSH2 0x57B JUMP JUMPDEST DUP1 PUSH2 0x804 DUP2 PUSH2 0xD07 JUMP JUMPDEST SWAP2 POP POP PUSH2 0x771 JUMP JUMPDEST POP PUSH1 0x3 DUP1 SLOAD PUSH1 0x1 DUP2 DUP2 ADD SWAP1 SWAP3 SSTORE PUSH32 0xC2575A0E9E593C00F959F8C92F12DB2869C3395A3B0502D05E2516446F71F85B ADD DUP1 SLOAD PUSH1 0x1 PUSH1 0x1 PUSH1 0xA0 SHL SUB SWAP1 SWAP5 AND PUSH1 0x1 PUSH1 0x1 PUSH1 0xA0 SHL SUB NOT SWAP1 SWAP5 AND DUP5 OR SWAP1 SSTORE PUSH1 0x0 SWAP3 DUP4 MSTORE PUSH1 0x20 MSTORE PUSH1 0x40 SWAP1 SWAP2 KECCAK256 SSTORE JUMP JUMPDEST PUSH2 0x870 PUSH2 0xB4D JUMP JUMPDEST PUSH1 0x1 PUSH1 0x1 PUSH1 0xA0 SHL SUB DUP2 AND PUSH1 0x0 SWAP1 DUP2 MSTORE PUSH1 0x1 PUSH1 0x20 MSTORE PUSH1 0x40 SWAP1 KECCAK256 SLOAD PUSH2 0x8A5 JUMPI PUSH1 0x40 MLOAD PUSH3 0x461BCD PUSH1 0xE5 SHL DUP2 MSTORE PUSH1 0x4 ADD PUSH2 0x57B SWAP1 PUSH2 0xD33 JUMP JUMPDEST PUSH1 0x1 PUSH1 0x1 PUSH1 0xA0 SHL SUB DUP2 AND PUSH1 0x0 SWAP1 DUP2 MSTORE PUSH1 0x1 PUSH1 0x20 MSTORE PUSH1 0x40 DUP2 KECCAK256 DUP2 SWAP1 SSTORE JUMPDEST PUSH1 0x2 SLOAD DUP2 LT ISZERO PUSH2 0x762 JUMPI DUP2 PUSH1 0x1 PUSH1 0x1 PUSH1 0xA0 SHL SUB AND PUSH1 0x2 DUP3 DUP2 SLOAD DUP2 LT PUSH2 0x8E8 JUMPI PUSH2 0x8E8 PUSH2 0xC75 JUMP JUMPDEST PUSH1 0x0 SWAP2 DUP3 MSTORE PUSH1 0x20 SWAP1 SWAP2 KECCAK256 ADD SLOAD PUSH1 0x1 PUSH1 0x1 PUSH1 0xA0 SHL SUB AND SUB PUSH2 0x9B0 JUMPI PUSH1 0x2 DUP1 SLOAD PUSH2 0x912 SWAP1 PUSH1 0x1 SWAP1 PUSH2 0xD20 JUMP JUMPDEST DUP2 SLOAD DUP2 LT PUSH2 0x922 JUMPI PUSH2 0x922 PUSH2 0xC75 JUMP JUMPDEST PUSH1 0x0 SWAP2 DUP3 MSTORE PUSH1 0x20 SWAP1 SWAP2 KECCAK256 ADD SLOAD PUSH1 0x2 DUP1 SLOAD PUSH1 0x1 PUSH1 0x1 PUSH1 0xA0 SHL SUB SWAP1 SWAP3 AND SWAP2 DUP4 SWAP1 DUP2 LT PUSH2 0x94E JUMPI PUSH2 0x94E PUSH2 0xC75 JUMP JUMPDEST SWAP1 PUSH1 0x0 MSTORE PUSH1 0x20 PUSH1 0x0 KECCAK256 ADD PUSH1 0x0 PUSH2 0x100 EXP DUP2 SLOAD DUP2 PUSH1 0x1 PUSH1 0x1 PUSH1 0xA0 SHL SUB MUL NOT AND SWAP1 DUP4 PUSH1 0x1 PUSH1 0x1 PUSH1 0xA0 SHL SUB AND MUL OR SWAP1 SSTORE POP PUSH1 0x2 DUP1 SLOAD DUP1 PUSH2 0x98D JUMPI PUSH2 0x98D PUSH2 0xD77 JUMP JUMPDEST PUSH1 0x0 DUP3 DUP2 MSTORE PUSH1 0x20 SWAP1 KECCAK256 DUP2 ADD PUSH1 0x0 NOT SWAP1 DUP2 ADD DUP1 SLOAD PUSH1 0x1 PUSH1 0x1 PUSH1 0xA0 SHL SUB NOT AND SWAP1 SSTORE ADD SWAP1 SSTORE JUMPDEST DUP1 PUSH2 0x9BA DUP2 PUSH2 0xD07 JUMP JUMPDEST SWAP2 POP POP PUSH2 0x8C1 JUMP JUMPDEST PUSH2 0x9CA PUSH2 0xB4D JUMP JUMPDEST PUSH1 0x1 PUSH1 0x1 PUSH1 0xA0 SHL SUB DUP2 AND PUSH2 0xA2F JUMPI PUSH1 0x40 MLOAD PUSH3 0x461BCD PUSH1 0xE5 SHL DUP2 MSTORE PUSH1 0x20 PUSH1 0x4 DUP3 ADD MSTORE PUSH1 0x26 PUSH1 0x24 DUP3 ADD MSTORE PUSH32 0x4F776E61626C653A206E6577206F776E657220697320746865207A65726F2061 PUSH1 0x44 DUP3 ADD MSTORE PUSH6 0x646472657373 PUSH1 0xD0 SHL PUSH1 0x64 DUP3 ADD MSTORE PUSH1 0x84 ADD PUSH2 0x57B JUMP JUMPDEST PUSH2 0xA38 DUP2 PUSH2 0xBA7 JUMP JUMPDEST POP JUMP JUMPDEST PUSH1 0x3 DUP2 DUP2 SLOAD DUP2 LT PUSH2 0x5B0 JUMPI PUSH1 0x0 DUP1 REVERT JUMPDEST PUSH2 0xA53 PUSH2 0xB4D JUMP JUMPDEST PUSH1 0x0 JUMPDEST PUSH1 0x2 SLOAD DUP2 LT ISZERO PUSH2 0xAF1 JUMPI DUP3 PUSH1 0x1 PUSH1 0x1 PUSH1 0xA0 SHL SUB AND PUSH1 0x2 DUP3 DUP2 SLOAD DUP2 LT PUSH2 0xA7D JUMPI PUSH2 0xA7D PUSH2 0xC75 JUMP JUMPDEST PUSH1 0x0 SWAP2 DUP3 MSTORE PUSH1 0x20 SWAP1 SWAP2 KECCAK256 ADD SLOAD PUSH1 0x1 PUSH1 0x1 PUSH1 0xA0 SHL SUB AND SUB PUSH2 0xADF JUMPI PUSH1 0x40 MLOAD PUSH3 0x461BCD PUSH1 0xE5 SHL DUP2 MSTORE PUSH1 0x20 PUSH1 0x4 DUP3 ADD MSTORE PUSH1 0x1E PUSH1 0x24 DUP3 ADD MSTORE PUSH32 0x4669726552657075746174696F6E3A20746F6B656E2069732065786973740000 PUSH1 0x44 DUP3 ADD MSTORE PUSH1 0x64 ADD PUSH2 0x57B JUMP JUMPDEST DUP1 PUSH2 0xAE9 DUP2 PUSH2 0xD07 JUMP JUMPDEST SWAP2 POP POP PUSH2 0xA56 JUMP JUMPDEST POP PUSH1 0x2 DUP1 SLOAD PUSH1 0x1 DUP2 DUP2 ADD SWAP1 SWAP3 SSTORE PUSH32 0x405787FA12A823E0F2B7631CC41B3BA8828B3321CA811111FA75CD3AA3BB5ACE ADD DUP1 SLOAD PUSH1 0x1 PUSH1 0x1 PUSH1 0xA0 SHL SUB SWAP1 SWAP5 AND PUSH1 0x1 PUSH1 0x1 PUSH1 0xA0 SHL SUB NOT SWAP1 SWAP5 AND DUP5 OR SWAP1 SSTORE PUSH1 0x0 SWAP3 DUP4 MSTORE PUSH1 0x20 MSTORE PUSH1 0x40 SWAP1 SWAP2 KECCAK256 SSTORE JUMP JUMPDEST PUSH1 0x0 SLOAD PUSH1 0x1 PUSH1 0x1 PUSH1 0xA0 SHL SUB AND CALLER EQ PUSH2 0x5DC JUMPI PUSH1 0x40 MLOAD PUSH3 0x461BCD PUSH1 0xE5 SHL DUP2 MSTORE PUSH1 0x20 PUSH1 0x4 DUP3 ADD DUP2 SWAP1 MSTORE PUSH1 0x24 DUP3 ADD MSTORE PUSH32 0x4F776E61626C653A2063616C6C6572206973206E6F7420746865206F776E6572 PUSH1 0x44 DUP3 ADD MSTORE PUSH1 0x64 ADD PUSH2 0x57B JUMP JUMPDEST PUSH1 0x0 DUP1 SLOAD PUSH1 0x1 PUSH1 0x1 PUSH1 0xA0 SHL SUB DUP4 DUP2 AND PUSH1 0x1 PUSH1 0x1 PUSH1 0xA0 SHL SUB NOT DUP4 AND DUP2 OR DUP5 SSTORE PUSH1 0x40 MLOAD SWAP2 SWAP1 SWAP3 AND SWAP3 DUP4 SWAP2 PUSH32 0x8BE0079C531659141344CD1FD0A4F28419497F9722A3DAAFE3B4186F6B6457E0 SWAP2 SWAP1 LOG3 POP POP JUMP JUMPDEST PUSH1 0x1 PUSH1 0x1 PUSH1 0xA0 SHL SUB DUP2 AND DUP2 EQ PUSH2 0xA38 JUMPI PUSH1 0x0 DUP1 REVERT JUMPDEST PUSH1 0x0 PUSH1 0x20 DUP3 DUP5 SUB SLT ISZERO PUSH2 0xC1E JUMPI PUSH1 0x0 DUP1 REVERT JUMPDEST DUP2 CALLDATALOAD PUSH2 0xC29 DUP2 PUSH2 0xBF7 JUMP JUMPDEST SWAP4 SWAP3 POP POP POP JUMP JUMPDEST PUSH1 0x0 DUP1 PUSH1 0x40 DUP4 DUP6 SUB SLT ISZERO PUSH2 0xC43 JUMPI PUSH1 0x0 DUP1 REVERT JUMPDEST DUP3 CALLDATALOAD PUSH2 0xC4E DUP2 PUSH2 0xBF7 JUMP JUMPDEST SWAP5 PUSH1 0x20 SWAP4 SWAP1 SWAP4 ADD CALLDATALOAD SWAP4 POP POP POP JUMP JUMPDEST PUSH1 0x0 PUSH1 0x20 DUP3 DUP5 SUB SLT ISZERO PUSH2 0xC6E JUMPI PUSH1 0x0 DUP1 REVERT JUMPDEST POP CALLDATALOAD SWAP2 SWAP1 POP JUMP JUMPDEST PUSH4 0x4E487B71 PUSH1 0xE0 SHL PUSH1 0x0 MSTORE PUSH1 0x32 PUSH1 0x4 MSTORE PUSH1 0x24 PUSH1 0x0 REVERT JUMPDEST PUSH1 0x0 PUSH1 0x20 DUP3 DUP5 SUB SLT ISZERO PUSH2 0xC9D JUMPI PUSH1 0x0 DUP1 REVERT JUMPDEST DUP2 MLOAD PUSH2 0xC29 DUP2 PUSH2 0xBF7 JUMP JUMPDEST PUSH1 0x0 PUSH1 0x20 DUP3 DUP5 SUB SLT ISZERO PUSH2 0xCBA JUMPI PUSH1 0x0 DUP1 REVERT JUMPDEST POP MLOAD SWAP2 SWAP1 POP JUMP JUMPDEST PUSH4 0x4E487B71 PUSH1 0xE0 SHL PUSH1 0x0 MSTORE PUSH1 0x11 PUSH1 0x4 MSTORE PUSH1 0x24 PUSH1 0x0 REVERT JUMPDEST DUP1 DUP3 MUL DUP2 ISZERO DUP3 DUP3 DIV DUP5 EQ OR PUSH2 0xCEE JUMPI PUSH2 0xCEE PUSH2 0xCC1 JUMP JUMPDEST SWAP3 SWAP2 POP POP JUMP JUMPDEST DUP1 DUP3 ADD DUP1 DUP3 GT ISZERO PUSH2 0xCEE JUMPI PUSH2 0xCEE PUSH2 0xCC1 JUMP JUMPDEST PUSH1 0x0 PUSH1 0x1 DUP3 ADD PUSH2 0xD19 JUMPI PUSH2 0xD19 PUSH2 0xCC1 JUMP JUMPDEST POP PUSH1 0x1 ADD SWAP1 JUMP JUMPDEST DUP2 DUP2 SUB DUP2 DUP2 GT ISZERO PUSH2 0xCEE JUMPI PUSH2 0xCEE PUSH2 0xCC1 JUMP JUMPDEST PUSH1 0x20 DUP1 DUP3 MSTORE PUSH1 0x24 SWAP1 DUP3 ADD MSTORE PUSH32 0x4669726552657075746174696F6E3A20746F6B656E20646F6573206E6F742065 PUSH1 0x40 DUP3 ADD MSTORE PUSH4 0x1E1A5CDD PUSH1 0xE2 SHL PUSH1 0x60 DUP3 ADD MSTORE PUSH1 0x80 ADD SWAP1 JUMP JUMPDEST PUSH4 0x4E487B71 PUSH1 0xE0 SHL PUSH1 0x0 MSTORE PUSH1 0x31 PUSH1 0x4 MSTORE PUSH1 0x24 PUSH1 0x0 REVERT INVALID LOG2 PUSH5 0x6970667358 0x22 SLT KECCAK256 LOG1 PUSH18 0xB1036871AD2199F213CF5082D24FC6C51DEA 0xA6 0x5D XOR 0x4B JUMP 0xDD SWAP11 SWAP10 LT LOG3 SWAP8 0x24 PUSH5 0x736F6C6343 STOP ADDMOD SLT STOP CALLER "
				},
				"gasEstimates": {
					"creation": {
						"codeDepositCost": "704600",
						"executionCost": "26582",
						"totalCost": "731182"
					},
					"external": {
						"addTokenAddress(address,uint256)": "infinite",
						"checkReputation(address)": "infinite",
						"coefficients(address)": "2525",
						"deleteSubToken(address)": "infinite",
						"deleteToken(address)": "infinite",
						"fireSoul()": "2405",
						"getSubTokensLength()": "2348",
						"getTokensLength()": "2370",
						"owner()": "2420",
						"renounceOwnership()": "infinite",
						"setCoefficient(address,uint256)": "26924",
						"setFireSoulAddress(address)": "26752",
						"subTokenAddress(address,uint256)": "infinite",
						"subTokens(uint256)": "4680",
						"tokens(uint256)": "4704",
						"transferOwnership(address)": "infinite"
					}
				},
				"methodIdentifiers": {
					"addTokenAddress(address,uint256)": "f9af8b38",
					"checkReputation(address)": "014ab313",
					"coefficients(address)": "6a2be1a1",
					"deleteSubToken(address)": "a668e3ce",
					"deleteToken(address)": "f069f712",
					"fireSoul()": "1a5ef71c",
					"getSubTokensLength()": "8cafebef",
					"getTokensLength()": "b0c26ecf",
					"owner()": "8da5cb5b",
					"renounceOwnership()": "715018a6",
					"setCoefficient(address,uint256)": "1353ef1e",
					"setFireSoulAddress(address)": "9090c0f2",
					"subTokenAddress(address,uint256)": "a6da308e",
					"subTokens(uint256)": "f52ce425",
					"tokens(uint256)": "4f64b2be",
					"transferOwnership(address)": "f2fde38b"
				}
			},
			"storageLayout": {
				"storage": [
					{
						"astId": 7,
						"contract": "contracts/Reputation.sol:Reputation",
						"label": "_owner",
						"offset": 0,
						"slot": "0",
						"type": "t_address"
					},
					{
						"astId": 223,
						"contract": "contracts/Reputation.sol:Reputation",
						"label": "coefficients",
						"offset": 0,
						"slot": "1",
						"type": "t_mapping(t_address,t_uint256)"
					},
					{
						"astId": 226,
						"contract": "contracts/Reputation.sol:Reputation",
						"label": "tokens",
						"offset": 0,
						"slot": "2",
						"type": "t_array(t_address)dyn_storage"
					},
					{
						"astId": 229,
						"contract": "contracts/Reputation.sol:Reputation",
						"label": "subTokens",
						"offset": 0,
						"slot": "3",
						"type": "t_array(t_address)dyn_storage"
					},
					{
						"astId": 231,
						"contract": "contracts/Reputation.sol:Reputation",
						"label": "fireSoul",
						"offset": 0,
						"slot": "4",
						"type": "t_address"
					}
				],
				"types": {
					"t_address": {
						"encoding": "inplace",
						"label": "address",
						"numberOfBytes": "20"
					},
					"t_array(t_address)dyn_storage": {
						"base": "t_address",
						"encoding": "dynamic_array",
						"label": "address[]",
						"numberOfBytes": "32"
					},
					"t_mapping(t_address,t_uint256)": {
						"encoding": "mapping",
						"key": "t_address",
						"label": "mapping(address => uint256)",
						"numberOfBytes": "32",
						"value": "t_uint256"
					},
					"t_uint256": {
						"encoding": "inplace",
						"label": "uint256",
						"numberOfBytes": "32"
					}
				}
			},
			"userdoc": {
				"kind": "user",
				"methods": {},
				"version": 1
			}
		}
	}
}