{
	"contracts/FlameExchangeFdt.sol": {
		"FlameExchangeFdt": {
			"abi": [
				{
					"inputs": [
						{
							"internalType": "address",
							"name": "_fdt",
							"type": "address"
						},
						{
							"internalType": "address",
							"name": "_flame",
							"type": "address"
						}
					],
					"stateMutability": "nonpayable",
					"type": "constructor"
				},
				{
					"anonymous": false,
					"inputs": [
						{
							"indexed": true,
							"internalType": "address",
							"name": "previousOwner",
							"type": "address"
						},
						{
							"indexed": true,
							"internalType": "address",
							"name": "newOwner",
							"type": "address"
						}
					],
					"name": "OwnershipTransferred",
					"type": "event"
				},
				{
					"inputs": [
						{
							"internalType": "uint256",
							"name": "_amount",
							"type": "uint256"
						}
					],
					"name": "backToken",
					"outputs": [],
					"stateMutability": "nonpayable",
					"type": "function"
				},
				{
					"inputs": [
						{
							"internalType": "uint256",
							"name": "_amount",
							"type": "uint256"
						}
					],
					"name": "exchange",
					"outputs": [],
					"stateMutability": "nonpayable",
					"type": "function"
				},
				{
					"inputs": [],
					"name": "exchangeRatio",
					"outputs": [
						{
							"internalType": "uint256",
							"name": "",
							"type": "uint256"
						}
					],
					"stateMutability": "view",
					"type": "function"
				},
				{
					"inputs": [],
					"name": "fdt",
					"outputs": [
						{
							"internalType": "address",
							"name": "",
							"type": "address"
						}
					],
					"stateMutability": "view",
					"type": "function"
				},
				{
					"inputs": [],
					"name": "flame",
					"outputs": [
						{
							"internalType": "address",
							"name": "",
							"type": "address"
						}
					],
					"stateMutability": "view",
					"type": "function"
				},
				{
					"inputs": [],
					"name": "minAmount",
					"outputs": [
						{
							"internalType": "uint256",
							"name": "",
							"type": "uint256"
						}
					],
					"stateMutability": "view",
					"type": "function"
				},
				{
					"inputs": [],
					"name": "owner",
					"outputs": [
						{
							"internalType": "address",
							"name": "",
							"type": "address"
						}
					],
					"stateMutability": "view",
					"type": "function"
				},
				{
					"inputs": [],
					"name": "renounceOwnership",
					"outputs": [],
					"stateMutability": "nonpayable",
					"type": "function"
				},
				{
					"inputs": [
						{
							"internalType": "uint256",
							"name": "_amount",
							"type": "uint256"
						}
					],
					"name": "setMinAmount",
					"outputs": [],
					"stateMutability": "nonpayable",
					"type": "function"
				},
				{
					"inputs": [
						{
							"internalType": "uint256",
							"name": "_exchangeRatio",
							"type": "uint256"
						}
					],
					"name": "setexchangeRatio",
					"outputs": [],
					"stateMutability": "nonpayable",
					"type": "function"
				},
				{
					"inputs": [],
					"name": "setstatus",
					"outputs": [],
					"stateMutability": "nonpayable",
					"type": "function"
				},
				{
					"inputs": [],
					"name": "status",
					"outputs": [
						{
							"internalType": "bool",
							"name": "",
							"type": "bool"
						}
					],
					"stateMutability": "view",
					"type": "function"
				},
				{
					"inputs": [
						{
							"internalType": "address",
							"name": "newOwner",
							"type": "address"
						}
					],
					"name": "transferOwnership",
					"outputs": [],
					"stateMutability": "nonpayable",
					"type": "function"
				}
			],
			"devdoc": {
				"kind": "dev",
				"methods": {
					"owner()": {
						"details": "Returns the address of the current owner."
					},
					"renounceOwnership()": {
						"details": "Leaves the contract without owner. It will not be possible to call `onlyOwner` functions anymore. Can only be called by the current owner. NOTE: Renouncing ownership will leave the contract without an owner, thereby removing any functionality that is only available to the owner."
					},
					"transferOwnership(address)": {
						"details": "Transfers ownership of the contract to a new account (`newOwner`). Can only be called by the current owner."
					}
				},
				"version": 1
			},
			"evm": {
				"assembly": "    /* \"contracts/FlameExchangeFdt.sol\":171:1277  contract FlameExchangeFdt is Ownable{... */\n  mstore(0x40, 0x80)\n    /* \"contracts/FlameExchangeFdt.sol\":353:473  constructor(address _fdt,address _flame){... */\n  callvalue\n  dup1\n  iszero\n  tag_1\n  jumpi\n  0x00\n  dup1\n  revert\ntag_1:\n  pop\n  mload(0x40)\n  sub(codesize, bytecodeSize)\n  dup1\n  bytecodeSize\n  dup4\n  codecopy\n  dup2\n  add\n  0x40\n  dup2\n  swap1\n  mstore\n  tag_2\n  swap2\n  tag_3\n  jump\t// in\ntag_2:\n    /* \"@openzeppelin/contracts/access/Ownable.sol\":936:968  _transferOwnership(_msgSender()) */\n  tag_7\n    /* \"@openzeppelin/contracts/utils/Context.sol\":719:729  msg.sender */\n  caller\n    /* \"@openzeppelin/contracts/access/Ownable.sol\":936:954  _transferOwnership */\n  tag_10\n    /* \"@openzeppelin/contracts/access/Ownable.sol\":936:968  _transferOwnership(_msgSender()) */\n  jump\t// in\ntag_7:\n    /* \"contracts/FlameExchangeFdt.sol\":403:406  fdt */\n  0x03\n    /* \"contracts/FlameExchangeFdt.sol\":403:413  fdt = _fdt */\n  dup1\n  sload\n  sub(shl(0xa0, 0x01), 0x01)\n  swap4\n  dup5\n  and\n  not(sub(shl(0xa0, 0x01), 0x01))\n  swap2\n  dup3\n  and\n  or\n  swap1\n  swap2\n  sstore\n    /* \"contracts/FlameExchangeFdt.sol\":423:428  flame */\n  0x02\n    /* \"contracts/FlameExchangeFdt.sol\":423:437  flame = _flame */\n  dup1\n  sload\n  swap3\n  swap1\n  swap4\n  and\n  swap2\n  and\n  or\n  swap1\n  sstore\n    /* \"contracts/FlameExchangeFdt.sol\":462:466  1000 */\n  0x03e8\n    /* \"contracts/FlameExchangeFdt.sol\":447:460  exchangeRatio */\n  0x04\n    /* \"contracts/FlameExchangeFdt.sol\":447:466  exchangeRatio= 1000 */\n  sstore\n    /* \"contracts/FlameExchangeFdt.sol\":171:1277  contract FlameExchangeFdt is Ownable{... */\n  jump(tag_16)\n    /* \"@openzeppelin/contracts/access/Ownable.sol\":2433:2620  function _transferOwnership(address newOwner) internal virtual {... */\ntag_10:\n    /* \"@openzeppelin/contracts/access/Ownable.sol\":2506:2522  address oldOwner */\n  0x00\n    /* \"@openzeppelin/contracts/access/Ownable.sol\":2525:2531  _owner */\n  dup1\n  sload\n  sub(shl(0xa0, 0x01), 0x01)\n    /* \"@openzeppelin/contracts/access/Ownable.sol\":2541:2558  _owner = newOwner */\n  dup4\n  dup2\n  and\n  not(sub(shl(0xa0, 0x01), 0x01))\n  dup4\n  and\n  dup2\n  or\n  dup5\n  sstore\n    /* \"@openzeppelin/contracts/access/Ownable.sol\":2573:2613  OwnershipTransferred(oldOwner, newOwner) */\n  mload(0x40)\n    /* \"@openzeppelin/contracts/access/Ownable.sol\":2525:2531  _owner */\n  swap2\n  swap1\n  swap3\n  and\n  swap3\n  dup4\n  swap2\n    /* \"@openzeppelin/contracts/access/Ownable.sol\":2573:2613  OwnershipTransferred(oldOwner, newOwner) */\n  0x8be0079c531659141344cd1fd0a4f28419497f9722a3daafe3b4186f6b6457e0\n  swap2\n    /* \"@openzeppelin/contracts/access/Ownable.sol\":2506:2522  address oldOwner */\n  swap1\n    /* \"@openzeppelin/contracts/access/Ownable.sol\":2573:2613  OwnershipTransferred(oldOwner, newOwner) */\n  log3\n    /* \"@openzeppelin/contracts/access/Ownable.sol\":2496:2620  {... */\n  pop\n    /* \"@openzeppelin/contracts/access/Ownable.sol\":2433:2620  function _transferOwnership(address newOwner) internal virtual {... */\n  pop\n  jump\t// out\n    /* \"#utility.yul\":14:191   */\ntag_15:\n    /* \"#utility.yul\":93:106   */\n  dup1\n  mload\n  sub(shl(0xa0, 0x01), 0x01)\n    /* \"#utility.yul\":135:166   */\n  dup2\n  and\n    /* \"#utility.yul\":125:167   */\n  dup2\n  eq\n    /* \"#utility.yul\":115:185   */\n  tag_18\n  jumpi\n    /* \"#utility.yul\":181:182   */\n  0x00\n    /* \"#utility.yul\":178:179   */\n  dup1\n    /* \"#utility.yul\":171:183   */\n  revert\n    /* \"#utility.yul\":115:185   */\ntag_18:\n    /* \"#utility.yul\":14:191   */\n  swap2\n  swap1\n  pop\n  jump\t// out\n    /* \"#utility.yul\":196:489   */\ntag_3:\n    /* \"#utility.yul\":275:281   */\n  0x00\n    /* \"#utility.yul\":283:289   */\n  dup1\n    /* \"#utility.yul\":336:338   */\n  0x40\n    /* \"#utility.yul\":324:333   */\n  dup4\n    /* \"#utility.yul\":315:322   */\n  dup6\n    /* \"#utility.yul\":311:334   */\n  sub\n    /* \"#utility.yul\":307:339   */\n  slt\n    /* \"#utility.yul\":304:356   */\n  iszero\n  tag_20\n  jumpi\n    /* \"#utility.yul\":352:353   */\n  0x00\n    /* \"#utility.yul\":349:350   */\n  dup1\n    /* \"#utility.yul\":342:354   */\n  revert\n    /* \"#utility.yul\":304:356   */\ntag_20:\n    /* \"#utility.yul\":375:415   */\n  tag_21\n    /* \"#utility.yul\":405:414   */\n  dup4\n    /* \"#utility.yul\":375:415   */\n  tag_15\n  jump\t// in\ntag_21:\n    /* \"#utility.yul\":365:415   */\n  swap2\n  pop\n    /* \"#utility.yul\":434:483   */\n  tag_22\n    /* \"#utility.yul\":479:481   */\n  0x20\n    /* \"#utility.yul\":468:477   */\n  dup5\n    /* \"#utility.yul\":464:482   */\n  add\n    /* \"#utility.yul\":434:483   */\n  tag_15\n  jump\t// in\ntag_22:\n    /* \"#utility.yul\":424:483   */\n  swap1\n  pop\n    /* \"#utility.yul\":196:489   */\n  swap3\n  pop\n  swap3\n  swap1\n  pop\n  jump\t// out\ntag_16:\n    /* \"contracts/FlameExchangeFdt.sol\":171:1277  contract FlameExchangeFdt is Ownable{... */\n  dataSize(sub_0)\n  dup1\n  dataOffset(sub_0)\n  0x00\n  codecopy\n  0x00\n  return\nstop\n\nsub_0: assembly {\n        /* \"contracts/FlameExchangeFdt.sol\":171:1277  contract FlameExchangeFdt is Ownable{... */\n      mstore(0x40, 0x80)\n      callvalue\n      dup1\n      iszero\n      tag_1\n      jumpi\n      0x00\n      dup1\n      revert\n    tag_1:\n      pop\n      jumpi(tag_2, lt(calldatasize, 0x04))\n      shr(0xe0, calldataload(0x00))\n      dup1\n      0x5356172e\n      gt\n      tag_16\n      jumpi\n      dup1\n      0x8da5cb5b\n      gt\n      tag_17\n      jumpi\n      dup1\n      0x8da5cb5b\n      eq\n      tag_12\n      jumpi\n      dup1\n      0x92ccd3a6\n      eq\n      tag_13\n      jumpi\n      dup1\n      0x9b2cb5d8\n      eq\n      tag_14\n      jumpi\n      dup1\n      0xf2fde38b\n      eq\n      tag_15\n      jumpi\n      0x00\n      dup1\n      revert\n    tag_17:\n      dup1\n      0x5356172e\n      eq\n      tag_9\n      jumpi\n      dup1\n      0x715018a6\n      eq\n      tag_10\n      jumpi\n      dup1\n      0x897b0637\n      eq\n      tag_11\n      jumpi\n      0x00\n      dup1\n      revert\n    tag_16:\n      dup1\n      0x14c98009\n      eq\n      tag_3\n      jumpi\n      dup1\n      0x200d2ed2\n      eq\n      tag_4\n      jumpi\n      dup1\n      0x22d392cb\n      eq\n      tag_5\n      jumpi\n      dup1\n      0x4006ccc5\n      eq\n      tag_6\n      jumpi\n      dup1\n      0x41458c86\n      eq\n      tag_7\n      jumpi\n      dup1\n      0x53556559\n      eq\n      tag_8\n      jumpi\n    tag_2:\n      0x00\n      dup1\n      revert\n        /* \"contracts/FlameExchangeFdt.sol\":478:548  function setstatus() public onlyOwner{... */\n    tag_3:\n      tag_18\n      tag_19\n      jump\t// in\n    tag_18:\n      stop\n        /* \"contracts/FlameExchangeFdt.sol\":214:232  bool public status */\n    tag_4:\n      sload(0x00)\n      tag_20\n      swap1\n      shl(0xa0, 0x01)\n      swap1\n      div\n      0xff\n      and\n      dup2\n      jump\n    tag_20:\n      mload(0x40)\n        /* \"#utility.yul\":179:193   */\n      swap1\n      iszero\n        /* \"#utility.yul\":172:194   */\n      iszero\n        /* \"#utility.yul\":154:195   */\n      dup2\n      mstore\n        /* \"#utility.yul\":142:144   */\n      0x20\n        /* \"#utility.yul\":127:145   */\n      add\n        /* \"contracts/FlameExchangeFdt.sol\":214:232  bool public status */\n    tag_22:\n      mload(0x40)\n      dup1\n      swap2\n      sub\n      swap1\n      return\n        /* \"contracts/FlameExchangeFdt.sol\":294:312  address public fdt */\n    tag_5:\n      sload(0x03)\n      tag_24\n      swap1\n      sub(shl(0xa0, 0x01), 0x01)\n      and\n      dup2\n      jump\n    tag_24:\n      mload(0x40)\n      sub(shl(0xa0, 0x01), 0x01)\n        /* \"#utility.yul\":370:402   */\n      swap1\n      swap2\n      and\n        /* \"#utility.yul\":352:403   */\n      dup2\n      mstore\n        /* \"#utility.yul\":340:342   */\n      0x20\n        /* \"#utility.yul\":325:343   */\n      add\n        /* \"contracts/FlameExchangeFdt.sol\":294:312  address public fdt */\n      tag_22\n        /* \"#utility.yul\":206:409   */\n      jump\n        /* \"contracts/FlameExchangeFdt.sol\":318:346  uint256 public exchangeRatio */\n    tag_6:\n      tag_28\n      sload(0x04)\n      dup2\n      jump\n    tag_28:\n      mload(0x40)\n        /* \"#utility.yul\":560:585   */\n      swap1\n      dup2\n      mstore\n        /* \"#utility.yul\":548:550   */\n      0x20\n        /* \"#utility.yul\":533:551   */\n      add\n        /* \"contracts/FlameExchangeFdt.sol\":318:346  uint256 public exchangeRatio */\n      tag_22\n        /* \"#utility.yul\":414:591   */\n      jump\n        /* \"contracts/FlameExchangeFdt.sol\":768:956  function backToken(uint256 _amount) public onlyOwner{... */\n    tag_7:\n      tag_18\n      tag_33\n      calldatasize\n      0x04\n      tag_34\n      jump\t// in\n    tag_33:\n      tag_35\n      jump\t// in\n        /* \"contracts/FlameExchangeFdt.sol\":961:1275  function exchange(uint256 _amount) public {... */\n    tag_8:\n      tag_18\n      tag_37\n      calldatasize\n      0x04\n      tag_34\n      jump\t// in\n    tag_37:\n      tag_38\n      jump\t// in\n        /* \"contracts/FlameExchangeFdt.sol\":268:288  address public flame */\n    tag_9:\n      sload(0x02)\n      tag_24\n      swap1\n      sub(shl(0xa0, 0x01), 0x01)\n      and\n      dup2\n      jump\n        /* \"@openzeppelin/contracts/access/Ownable.sol\":1831:1932  function renounceOwnership() public virtual onlyOwner {... */\n    tag_10:\n      tag_18\n      tag_43\n      jump\t// in\n        /* \"contracts/FlameExchangeFdt.sol\":672:763  function setMinAmount(uint256 _amount) public onlyOwner{... */\n    tag_11:\n      tag_18\n      tag_45\n      calldatasize\n      0x04\n      tag_34\n      jump\t// in\n    tag_45:\n      tag_46\n      jump\t// in\n        /* \"@openzeppelin/contracts/access/Ownable.sol\":1201:1286  function owner() public view virtual returns (address) {... */\n    tag_12:\n        /* \"@openzeppelin/contracts/access/Ownable.sol\":1247:1254  address */\n      0x00\n        /* \"@openzeppelin/contracts/access/Ownable.sol\":1273:1279  _owner */\n      sload\n      sub(shl(0xa0, 0x01), 0x01)\n      and\n        /* \"@openzeppelin/contracts/access/Ownable.sol\":1201:1286  function owner() public view virtual returns (address) {... */\n      jump(tag_24)\n        /* \"contracts/FlameExchangeFdt.sol\":553:667  function setexchangeRatio(uint256 _exchangeRatio) public onlyOwner {... */\n    tag_13:\n      tag_18\n      tag_51\n      calldatasize\n      0x04\n      tag_34\n      jump\t// in\n    tag_51:\n      tag_52\n      jump\t// in\n        /* \"contracts/FlameExchangeFdt.sol\":238:262  uint256 public minAmount */\n    tag_14:\n      tag_28\n      sload(0x01)\n      dup2\n      jump\n        /* \"@openzeppelin/contracts/access/Ownable.sol\":2081:2279  function transferOwnership(address newOwner) public virtual onlyOwner {... */\n    tag_15:\n      tag_18\n      tag_57\n      calldatasize\n      0x04\n      tag_58\n      jump\t// in\n    tag_57:\n      tag_59\n      jump\t// in\n        /* \"contracts/FlameExchangeFdt.sol\":478:548  function setstatus() public onlyOwner{... */\n    tag_19:\n        /* \"@openzeppelin/contracts/access/Ownable.sol\":1094:1107  _checkOwner() */\n      tag_61\n        /* \"@openzeppelin/contracts/access/Ownable.sol\":1094:1105  _checkOwner */\n      tag_62\n        /* \"@openzeppelin/contracts/access/Ownable.sol\":1094:1107  _checkOwner() */\n      jump\t// in\n    tag_61:\n        /* \"contracts/FlameExchangeFdt.sol\":535:541  status */\n      0x00\n      dup1\n      sload\n      not(shl(0xa0, 0xff))\n        /* \"contracts/FlameExchangeFdt.sol\":525:541  status = !status */\n      dup2\n      and\n      shl(0xa0, 0x01)\n        /* \"contracts/FlameExchangeFdt.sol\":535:541  status */\n      swap2\n      dup3\n      swap1\n      div\n      0xff\n      and\n        /* \"contracts/FlameExchangeFdt.sol\":534:541  !status */\n      iszero\n        /* \"contracts/FlameExchangeFdt.sol\":525:541  status = !status */\n      swap1\n      swap2\n      mul\n      or\n      swap1\n      sstore\n        /* \"contracts/FlameExchangeFdt.sol\":478:548  function setstatus() public onlyOwner{... */\n      jump\t// out\n        /* \"contracts/FlameExchangeFdt.sol\":768:956  function backToken(uint256 _amount) public onlyOwner{... */\n    tag_35:\n        /* \"@openzeppelin/contracts/access/Ownable.sol\":1094:1107  _checkOwner() */\n      tag_65\n        /* \"@openzeppelin/contracts/access/Ownable.sol\":1094:1105  _checkOwner */\n      tag_62\n        /* \"@openzeppelin/contracts/access/Ownable.sol\":1094:1107  _checkOwner() */\n      jump\t// in\n    tag_65:\n        /* \"contracts/FlameExchangeFdt.sol\":845:848  fdt */\n      sload(0x03)\n        /* \"contracts/FlameExchangeFdt.sol\":838:874  IERC20(fdt).balanceOf(address(this)) */\n      mload(0x40)\n      shl(0xe0, 0x70a08231)\n      dup2\n      mstore\n        /* \"contracts/FlameExchangeFdt.sol\":868:872  this */\n      address\n        /* \"contracts/FlameExchangeFdt.sol\":838:874  IERC20(fdt).balanceOf(address(this)) */\n      0x04\n      dup3\n      add\n        /* \"#utility.yul\":352:403   */\n      mstore\n        /* \"contracts/FlameExchangeFdt.sol\":878:885  _amount */\n      dup3\n      swap2\n      sub(shl(0xa0, 0x01), 0x01)\n        /* \"contracts/FlameExchangeFdt.sol\":845:848  fdt */\n      and\n      swap1\n        /* \"contracts/FlameExchangeFdt.sol\":838:859  IERC20(fdt).balanceOf */\n      0x70a08231\n      swap1\n        /* \"#utility.yul\":325:343   */\n      0x24\n      add\n        /* \"contracts/FlameExchangeFdt.sol\":838:874  IERC20(fdt).balanceOf(address(this)) */\n      0x20\n      mload(0x40)\n      dup1\n      dup4\n      sub\n      dup2\n      dup7\n      gas\n      staticcall\n      iszero\n      dup1\n      iszero\n      tag_69\n      jumpi\n      returndatasize\n      0x00\n      dup1\n      returndatacopy\n      revert(0x00, returndatasize)\n    tag_69:\n      pop\n      pop\n      pop\n      pop\n      mload(0x40)\n      returndatasize\n      not(0x1f)\n      0x1f\n      dup3\n      add\n      and\n      dup3\n      add\n      dup1\n      0x40\n      mstore\n      pop\n      dup2\n      add\n      swap1\n      tag_70\n      swap2\n      swap1\n      tag_71\n      jump\t// in\n    tag_70:\n        /* \"contracts/FlameExchangeFdt.sol\":838:885  IERC20(fdt).balanceOf(address(this)) >= _amount */\n      lt\n      iszero\n        /* \"contracts/FlameExchangeFdt.sol\":830:886  require(IERC20(fdt).balanceOf(address(this)) >= _amount) */\n      tag_72\n      jumpi\n      0x00\n      dup1\n      revert\n    tag_72:\n        /* \"contracts/FlameExchangeFdt.sol\":924:927  fdt */\n      sload(0x03)\n        /* \"contracts/FlameExchangeFdt.sol\":896:949  TransferHelper.safeTransfer(fdt, msg.sender, _amount) */\n      tag_73\n      swap1\n      sub(shl(0xa0, 0x01), 0x01)\n        /* \"contracts/FlameExchangeFdt.sol\":924:927  fdt */\n      and\n        /* \"contracts/FlameExchangeFdt.sol\":929:939  msg.sender */\n      caller\n        /* \"contracts/FlameExchangeFdt.sol\":941:948  _amount */\n      dup4\n        /* \"contracts/FlameExchangeFdt.sol\":896:923  TransferHelper.safeTransfer */\n      tag_74\n        /* \"contracts/FlameExchangeFdt.sol\":896:949  TransferHelper.safeTransfer(fdt, msg.sender, _amount) */\n      jump\t// in\n    tag_73:\n        /* \"contracts/FlameExchangeFdt.sol\":768:956  function backToken(uint256 _amount) public onlyOwner{... */\n      pop\n      jump\t// out\n        /* \"contracts/FlameExchangeFdt.sol\":961:1275  function exchange(uint256 _amount) public {... */\n    tag_38:\n        /* \"contracts/FlameExchangeFdt.sol\":1032:1041  minAmount */\n      sload(0x01)\n        /* \"contracts/FlameExchangeFdt.sol\":1021:1028  _amount */\n      dup2\n        /* \"contracts/FlameExchangeFdt.sol\":1021:1041  _amount >= minAmount */\n      lt\n      iszero\n        /* \"contracts/FlameExchangeFdt.sol\":1013:1107  require(_amount >= minAmount,\"The quantity you buy must be greater than the minimum quantity\") */\n      tag_76\n      jumpi\n      mload(0x40)\n      shl(0xe5, 0x461bcd)\n      dup2\n      mstore\n        /* \"#utility.yul\":1463:1465   */\n      0x20\n        /* \"contracts/FlameExchangeFdt.sol\":1013:1107  require(_amount >= minAmount,\"The quantity you buy must be greater than the minimum quantity\") */\n      0x04\n      dup3\n      add\n        /* \"#utility.yul\":1445:1466   */\n      mstore\n        /* \"#utility.yul\":1502:1504   */\n      0x3e\n        /* \"#utility.yul\":1482:1500   */\n      0x24\n      dup3\n      add\n        /* \"#utility.yul\":1475:1505   */\n      mstore\n        /* \"#utility.yul\":1541:1575   */\n      0x546865207175616e7469747920796f7520627579206d75737420626520677265\n        /* \"#utility.yul\":1521:1539   */\n      0x44\n      dup3\n      add\n        /* \"#utility.yul\":1514:1576   */\n      mstore\n        /* \"#utility.yul\":1612:1644   */\n      0x61746572207468616e20746865206d696e696d756d207175616e746974790000\n        /* \"#utility.yul\":1592:1610   */\n      0x64\n      dup3\n      add\n        /* \"#utility.yul\":1585:1645   */\n      mstore\n        /* \"#utility.yul\":1662:1681   */\n      0x84\n      add\n        /* \"contracts/FlameExchangeFdt.sol\":1013:1107  require(_amount >= minAmount,\"The quantity you buy must be greater than the minimum quantity\") */\n    tag_77:\n      mload(0x40)\n      dup1\n      swap2\n      sub\n      swap1\n      revert\n    tag_76:\n        /* \"contracts/FlameExchangeFdt.sol\":1149:1154  flame */\n      sload(0x02)\n        /* \"contracts/FlameExchangeFdt.sol\":1117:1191  TransferHelper.safeTransferFrom(flame, msg.sender, address(this), _amount) */\n      tag_79\n      swap1\n      sub(shl(0xa0, 0x01), 0x01)\n        /* \"contracts/FlameExchangeFdt.sol\":1149:1154  flame */\n      and\n        /* \"contracts/FlameExchangeFdt.sol\":1156:1166  msg.sender */\n      caller\n        /* \"contracts/FlameExchangeFdt.sol\":1176:1180  this */\n      address\n        /* \"contracts/FlameExchangeFdt.sol\":1183:1190  _amount */\n      dup5\n        /* \"contracts/FlameExchangeFdt.sol\":1117:1148  TransferHelper.safeTransferFrom */\n      tag_80\n        /* \"contracts/FlameExchangeFdt.sol\":1117:1191  TransferHelper.safeTransferFrom(flame, msg.sender, address(this), _amount) */\n      jump\t// in\n    tag_79:\n        /* \"contracts/FlameExchangeFdt.sol\":1229:1232  fdt */\n      sload(0x03)\n        /* \"contracts/FlameExchangeFdt.sol\":1254:1267  exchangeRatio */\n      sload(0x04)\n        /* \"contracts/FlameExchangeFdt.sol\":1201:1268  TransferHelper.safeTransfer(fdt, msg.sender, _amount/exchangeRatio) */\n      tag_73\n      swap2\n      sub(shl(0xa0, 0x01), 0x01)\n        /* \"contracts/FlameExchangeFdt.sol\":1229:1232  fdt */\n      and\n      swap1\n        /* \"contracts/FlameExchangeFdt.sol\":1234:1244  msg.sender */\n      caller\n      swap1\n        /* \"contracts/FlameExchangeFdt.sol\":1246:1267  _amount/exchangeRatio */\n      tag_82\n      swap1\n        /* \"contracts/FlameExchangeFdt.sol\":1246:1253  _amount */\n      dup6\n        /* \"contracts/FlameExchangeFdt.sol\":1246:1267  _amount/exchangeRatio */\n      tag_83\n      jump\t// in\n    tag_82:\n        /* \"contracts/FlameExchangeFdt.sol\":1201:1228  TransferHelper.safeTransfer */\n      tag_74\n        /* \"contracts/FlameExchangeFdt.sol\":1201:1268  TransferHelper.safeTransfer(fdt, msg.sender, _amount/exchangeRatio) */\n      jump\t// in\n        /* \"@openzeppelin/contracts/access/Ownable.sol\":1831:1932  function renounceOwnership() public virtual onlyOwner {... */\n    tag_43:\n        /* \"@openzeppelin/contracts/access/Ownable.sol\":1094:1107  _checkOwner() */\n      tag_85\n        /* \"@openzeppelin/contracts/access/Ownable.sol\":1094:1105  _checkOwner */\n      tag_62\n        /* \"@openzeppelin/contracts/access/Ownable.sol\":1094:1107  _checkOwner() */\n      jump\t// in\n    tag_85:\n        /* \"@openzeppelin/contracts/access/Ownable.sol\":1895:1925  _transferOwnership(address(0)) */\n      tag_87\n        /* \"@openzeppelin/contracts/access/Ownable.sol\":1922:1923  0 */\n      0x00\n        /* \"@openzeppelin/contracts/access/Ownable.sol\":1895:1913  _transferOwnership */\n      tag_88\n        /* \"@openzeppelin/contracts/access/Ownable.sol\":1895:1925  _transferOwnership(address(0)) */\n      jump\t// in\n    tag_87:\n        /* \"@openzeppelin/contracts/access/Ownable.sol\":1831:1932  function renounceOwnership() public virtual onlyOwner {... */\n      jump\t// out\n        /* \"contracts/FlameExchangeFdt.sol\":672:763  function setMinAmount(uint256 _amount) public onlyOwner{... */\n    tag_46:\n        /* \"@openzeppelin/contracts/access/Ownable.sol\":1094:1107  _checkOwner() */\n      tag_90\n        /* \"@openzeppelin/contracts/access/Ownable.sol\":1094:1105  _checkOwner */\n      tag_62\n        /* \"@openzeppelin/contracts/access/Ownable.sol\":1094:1107  _checkOwner() */\n      jump\t// in\n    tag_90:\n        /* \"contracts/FlameExchangeFdt.sol\":737:746  minAmount */\n      0x01\n        /* \"contracts/FlameExchangeFdt.sol\":737:756  minAmount = _amount */\n      sstore\n        /* \"contracts/FlameExchangeFdt.sol\":672:763  function setMinAmount(uint256 _amount) public onlyOwner{... */\n      jump\t// out\n        /* \"contracts/FlameExchangeFdt.sol\":553:667  function setexchangeRatio(uint256 _exchangeRatio) public onlyOwner {... */\n    tag_52:\n        /* \"@openzeppelin/contracts/access/Ownable.sol\":1094:1107  _checkOwner() */\n      tag_94\n        /* \"@openzeppelin/contracts/access/Ownable.sol\":1094:1105  _checkOwner */\n      tag_62\n        /* \"@openzeppelin/contracts/access/Ownable.sol\":1094:1107  _checkOwner() */\n      jump\t// in\n    tag_94:\n        /* \"contracts/FlameExchangeFdt.sol\":630:643  exchangeRatio */\n      0x04\n        /* \"contracts/FlameExchangeFdt.sol\":630:660  exchangeRatio = _exchangeRatio */\n      sstore\n        /* \"contracts/FlameExchangeFdt.sol\":553:667  function setexchangeRatio(uint256 _exchangeRatio) public onlyOwner {... */\n      jump\t// out\n        /* \"@openzeppelin/contracts/access/Ownable.sol\":2081:2279  function transferOwnership(address newOwner) public virtual onlyOwner {... */\n    tag_59:\n        /* \"@openzeppelin/contracts/access/Ownable.sol\":1094:1107  _checkOwner() */\n      tag_97\n        /* \"@openzeppelin/contracts/access/Ownable.sol\":1094:1105  _checkOwner */\n      tag_62\n        /* \"@openzeppelin/contracts/access/Ownable.sol\":1094:1107  _checkOwner() */\n      jump\t// in\n    tag_97:\n      sub(shl(0xa0, 0x01), 0x01)\n        /* \"@openzeppelin/contracts/access/Ownable.sol\":2169:2191  newOwner != address(0) */\n      dup2\n      and\n        /* \"@openzeppelin/contracts/access/Ownable.sol\":2161:2234  require(newOwner != address(0), \"Ownable: new owner is the zero address\") */\n      tag_99\n      jumpi\n      mload(0x40)\n      shl(0xe5, 0x461bcd)\n      dup2\n      mstore\n        /* \"#utility.yul\":2116:2118   */\n      0x20\n        /* \"@openzeppelin/contracts/access/Ownable.sol\":2161:2234  require(newOwner != address(0), \"Ownable: new owner is the zero address\") */\n      0x04\n      dup3\n      add\n        /* \"#utility.yul\":2098:2119   */\n      mstore\n        /* \"#utility.yul\":2155:2157   */\n      0x26\n        /* \"#utility.yul\":2135:2153   */\n      0x24\n      dup3\n      add\n        /* \"#utility.yul\":2128:2158   */\n      mstore\n        /* \"#utility.yul\":2194:2228   */\n      0x4f776e61626c653a206e6577206f776e657220697320746865207a65726f2061\n        /* \"#utility.yul\":2174:2192   */\n      0x44\n      dup3\n      add\n        /* \"#utility.yul\":2167:2229   */\n      mstore\n      shl(0xd0, 0x646472657373)\n        /* \"#utility.yul\":2245:2263   */\n      0x64\n      dup3\n      add\n        /* \"#utility.yul\":2238:2274   */\n      mstore\n        /* \"#utility.yul\":2291:2310   */\n      0x84\n      add\n        /* \"@openzeppelin/contracts/access/Ownable.sol\":2161:2234  require(newOwner != address(0), \"Ownable: new owner is the zero address\") */\n      tag_77\n        /* \"#utility.yul\":1914:2316   */\n      jump\n        /* \"@openzeppelin/contracts/access/Ownable.sol\":2161:2234  require(newOwner != address(0), \"Ownable: new owner is the zero address\") */\n    tag_99:\n        /* \"@openzeppelin/contracts/access/Ownable.sol\":2244:2272  _transferOwnership(newOwner) */\n      tag_73\n        /* \"@openzeppelin/contracts/access/Ownable.sol\":2263:2271  newOwner */\n      dup2\n        /* \"@openzeppelin/contracts/access/Ownable.sol\":2244:2262  _transferOwnership */\n      tag_88\n        /* \"@openzeppelin/contracts/access/Ownable.sol\":2244:2272  _transferOwnership(newOwner) */\n      jump\t// in\n        /* \"@openzeppelin/contracts/access/Ownable.sol\":1359:1489  function _checkOwner() internal view virtual {... */\n    tag_62:\n        /* \"@openzeppelin/contracts/access/Ownable.sol\":1247:1254  address */\n      0x00\n        /* \"@openzeppelin/contracts/access/Ownable.sol\":1273:1279  _owner */\n      sload\n      sub(shl(0xa0, 0x01), 0x01)\n      and\n        /* \"@openzeppelin/contracts/utils/Context.sol\":719:729  msg.sender */\n      caller\n        /* \"@openzeppelin/contracts/access/Ownable.sol\":1422:1445  owner() == _msgSender() */\n      eq\n        /* \"@openzeppelin/contracts/access/Ownable.sol\":1414:1482  require(owner() == _msgSender(), \"Ownable: caller is not the owner\") */\n      tag_87\n      jumpi\n      mload(0x40)\n      shl(0xe5, 0x461bcd)\n      dup2\n      mstore\n        /* \"#utility.yul\":2523:2525   */\n      0x20\n        /* \"@openzeppelin/contracts/access/Ownable.sol\":1414:1482  require(owner() == _msgSender(), \"Ownable: caller is not the owner\") */\n      0x04\n      dup3\n      add\n        /* \"#utility.yul\":2505:2526   */\n      dup2\n      swap1\n      mstore\n        /* \"#utility.yul\":2542:2560   */\n      0x24\n      dup3\n      add\n        /* \"#utility.yul\":2535:2565   */\n      mstore\n        /* \"#utility.yul\":2601:2635   */\n      0x4f776e61626c653a2063616c6c6572206973206e6f7420746865206f776e6572\n        /* \"#utility.yul\":2581:2599   */\n      0x44\n      dup3\n      add\n        /* \"#utility.yul\":2574:2636   */\n      mstore\n        /* \"#utility.yul\":2653:2671   */\n      0x64\n      add\n        /* \"@openzeppelin/contracts/access/Ownable.sol\":1414:1482  require(owner() == _msgSender(), \"Ownable: caller is not the owner\") */\n      tag_77\n        /* \"#utility.yul\":2321:2677   */\n      jump\n        /* \"contracts/lib/TransferHelper.sol\":572:929  function safeTransfer(address token, address to, uint value) internal {... */\n    tag_74:\n        /* \"contracts/lib/TransferHelper.sol\":765:810  abi.encodeWithSelector(0xa9059cbb, to, value) */\n      0x40\n      dup1\n      mload\n      sub(shl(0xa0, 0x01), 0x01)\n        /* \"#utility.yul\":2874:2906   */\n      dup5\n      dup2\n      and\n        /* \"contracts/lib/TransferHelper.sol\":765:810  abi.encodeWithSelector(0xa9059cbb, to, value) */\n      0x24\n      dup4\n      add\n        /* \"#utility.yul\":2856:2907   */\n      mstore\n        /* \"#utility.yul\":2923:2941   */\n      0x44\n      dup1\n      dup4\n      add\n        /* \"#utility.yul\":2916:2950   */\n      dup6\n      swap1\n      mstore\n        /* \"contracts/lib/TransferHelper.sol\":765:810  abi.encodeWithSelector(0xa9059cbb, to, value) */\n      dup4\n      mload\n      dup1\n      dup5\n      sub\n      swap1\n      swap2\n      add\n      dup2\n      mstore\n        /* \"#utility.yul\":2829:2847   */\n      0x64\n      swap1\n      swap3\n      add\n        /* \"contracts/lib/TransferHelper.sol\":765:810  abi.encodeWithSelector(0xa9059cbb, to, value) */\n      dup4\n      mstore\n      0x20\n      dup3\n      add\n      dup1\n      mload\n      sub(shl(0xe0, 0x01), 0x01)\n      and\n      shl(0xe0, 0xa9059cbb)\n      or\n      swap1\n      mstore\n        /* \"contracts/lib/TransferHelper.sol\":754:811  token.call(abi.encodeWithSelector(0xa9059cbb, to, value)) */\n      swap2\n      mload\n      0x00\n      swap3\n      dup4\n      swap3\n        /* \"contracts/lib/TransferHelper.sol\":754:764  token.call */\n      swap1\n      dup8\n      and\n      swap2\n        /* \"contracts/lib/TransferHelper.sol\":754:811  token.call(abi.encodeWithSelector(0xa9059cbb, to, value)) */\n      tag_113\n      swap2\n        /* \"contracts/lib/TransferHelper.sol\":765:810  abi.encodeWithSelector(0xa9059cbb, to, value) */\n      swap1\n        /* \"contracts/lib/TransferHelper.sol\":754:811  token.call(abi.encodeWithSelector(0xa9059cbb, to, value)) */\n      tag_114\n      jump\t// in\n    tag_113:\n      0x00\n      mload(0x40)\n      dup1\n      dup4\n      sub\n      dup2\n      0x00\n      dup7\n      gas\n      call\n      swap2\n      pop\n      pop\n      returndatasize\n      dup1\n      0x00\n      dup2\n      eq\n      tag_117\n      jumpi\n      mload(0x40)\n      swap2\n      pop\n      and(add(returndatasize, 0x3f), not(0x1f))\n      dup3\n      add\n      0x40\n      mstore\n      returndatasize\n      dup3\n      mstore\n      returndatasize\n      0x00\n      0x20\n      dup5\n      add\n      returndatacopy\n      jump(tag_116)\n    tag_117:\n      0x60\n      swap2\n      pop\n    tag_116:\n      pop\n        /* \"contracts/lib/TransferHelper.sol\":718:811  (bool success, bytes memory data) = token.call(abi.encodeWithSelector(0xa9059cbb, to, value)) */\n      swap2\n      pop\n      swap2\n      pop\n        /* \"contracts/lib/TransferHelper.sol\":829:836  success */\n      dup2\n        /* \"contracts/lib/TransferHelper.sol\":829:886  success && (data.length == 0 || abi.decode(data, (bool))) */\n      dup1\n      iszero\n      tag_120\n      jumpi\n      pop\n        /* \"contracts/lib/TransferHelper.sol\":841:852  data.length */\n      dup1\n      mload\n        /* \"contracts/lib/TransferHelper.sol\":841:857  data.length == 0 */\n      iszero\n      dup1\n        /* \"contracts/lib/TransferHelper.sol\":841:885  data.length == 0 || abi.decode(data, (bool)) */\n      tag_120\n      jumpi\n      pop\n        /* \"contracts/lib/TransferHelper.sol\":872:876  data */\n      dup1\n        /* \"contracts/lib/TransferHelper.sol\":861:885  abi.decode(data, (bool)) */\n      dup1\n      0x20\n      add\n      swap1\n      mload\n      dup2\n      add\n      swap1\n      tag_120\n      swap2\n      swap1\n      tag_121\n      jump\t// in\n    tag_120:\n        /* \"contracts/lib/TransferHelper.sol\":821:922  require(success && (data.length == 0 || abi.decode(data, (bool))), 'TransferHelper: TRANSFER_FAILED') */\n      tag_122\n      jumpi\n      mload(0x40)\n      shl(0xe5, 0x461bcd)\n      dup2\n      mstore\n        /* \"#utility.yul\":3862:3864   */\n      0x20\n        /* \"contracts/lib/TransferHelper.sol\":821:922  require(success && (data.length == 0 || abi.decode(data, (bool))), 'TransferHelper: TRANSFER_FAILED') */\n      0x04\n      dup3\n      add\n        /* \"#utility.yul\":3844:3865   */\n      mstore\n        /* \"#utility.yul\":3901:3903   */\n      0x1f\n        /* \"#utility.yul\":3881:3899   */\n      0x24\n      dup3\n      add\n        /* \"#utility.yul\":3874:3904   */\n      mstore\n        /* \"#utility.yul\":3940:3973   */\n      0x5472616e7366657248656c7065723a205452414e534645525f4641494c454400\n        /* \"#utility.yul\":3920:3938   */\n      0x44\n      dup3\n      add\n        /* \"#utility.yul\":3913:3974   */\n      mstore\n        /* \"#utility.yul\":3991:4009   */\n      0x64\n      add\n        /* \"contracts/lib/TransferHelper.sol\":821:922  require(success && (data.length == 0 || abi.decode(data, (bool))), 'TransferHelper: TRANSFER_FAILED') */\n      tag_77\n        /* \"#utility.yul\":3660:4015   */\n      jump\n        /* \"contracts/lib/TransferHelper.sol\":821:922  require(success && (data.length == 0 || abi.decode(data, (bool))), 'TransferHelper: TRANSFER_FAILED') */\n    tag_122:\n        /* \"contracts/lib/TransferHelper.sol\":642:929  {... */\n      pop\n      pop\n        /* \"contracts/lib/TransferHelper.sol\":572:929  function safeTransfer(address token, address to, uint value) internal {... */\n      pop\n      pop\n      pop\n      jump\t// out\n        /* \"contracts/lib/TransferHelper.sol\":935:1333  function safeTransferFrom(address token, address from, address to, uint value) internal {... */\n    tag_80:\n        /* \"contracts/lib/TransferHelper.sol\":1158:1209  abi.encodeWithSelector(0x23b872dd, from, to, value) */\n      0x40\n      dup1\n      mload\n      sub(shl(0xa0, 0x01), 0x01)\n        /* \"#utility.yul\":4278:4293   */\n      dup6\n      dup2\n      and\n        /* \"contracts/lib/TransferHelper.sol\":1158:1209  abi.encodeWithSelector(0x23b872dd, from, to, value) */\n      0x24\n      dup4\n      add\n        /* \"#utility.yul\":4260:4294   */\n      mstore\n        /* \"#utility.yul\":4330:4345   */\n      dup5\n      dup2\n      and\n        /* \"#utility.yul\":4310:4328   */\n      0x44\n      dup4\n      add\n        /* \"#utility.yul\":4303:4346   */\n      mstore\n        /* \"#utility.yul\":4362:4380   */\n      0x64\n      dup1\n      dup4\n      add\n        /* \"#utility.yul\":4355:4389   */\n      dup6\n      swap1\n      mstore\n        /* \"contracts/lib/TransferHelper.sol\":1158:1209  abi.encodeWithSelector(0x23b872dd, from, to, value) */\n      dup4\n      mload\n      dup1\n      dup5\n      sub\n      swap1\n      swap2\n      add\n      dup2\n      mstore\n        /* \"#utility.yul\":4195:4213   */\n      0x84\n      swap1\n      swap3\n      add\n        /* \"contracts/lib/TransferHelper.sol\":1158:1209  abi.encodeWithSelector(0x23b872dd, from, to, value) */\n      dup4\n      mstore\n      0x20\n      dup3\n      add\n      dup1\n      mload\n      sub(shl(0xe0, 0x01), 0x01)\n      and\n      shl(0xe0, 0x23b872dd)\n      or\n      swap1\n      mstore\n        /* \"contracts/lib/TransferHelper.sol\":1147:1210  token.call(abi.encodeWithSelector(0x23b872dd, from, to, value)) */\n      swap2\n      mload\n      0x00\n      swap3\n      dup4\n      swap3\n        /* \"contracts/lib/TransferHelper.sol\":1147:1157  token.call */\n      swap1\n      dup9\n      and\n      swap2\n        /* \"contracts/lib/TransferHelper.sol\":1147:1210  token.call(abi.encodeWithSelector(0x23b872dd, from, to, value)) */\n      tag_128\n      swap2\n        /* \"contracts/lib/TransferHelper.sol\":1158:1209  abi.encodeWithSelector(0x23b872dd, from, to, value) */\n      swap1\n        /* \"contracts/lib/TransferHelper.sol\":1147:1210  token.call(abi.encodeWithSelector(0x23b872dd, from, to, value)) */\n      tag_114\n      jump\t// in\n    tag_128:\n      0x00\n      mload(0x40)\n      dup1\n      dup4\n      sub\n      dup2\n      0x00\n      dup7\n      gas\n      call\n      swap2\n      pop\n      pop\n      returndatasize\n      dup1\n      0x00\n      dup2\n      eq\n      tag_131\n      jumpi\n      mload(0x40)\n      swap2\n      pop\n      and(add(returndatasize, 0x3f), not(0x1f))\n      dup3\n      add\n      0x40\n      mstore\n      returndatasize\n      dup3\n      mstore\n      returndatasize\n      0x00\n      0x20\n      dup5\n      add\n      returndatacopy\n      jump(tag_130)\n    tag_131:\n      0x60\n      swap2\n      pop\n    tag_130:\n      pop\n        /* \"contracts/lib/TransferHelper.sol\":1111:1210  (bool success, bytes memory data) = token.call(abi.encodeWithSelector(0x23b872dd, from, to, value)) */\n      swap2\n      pop\n      swap2\n      pop\n        /* \"contracts/lib/TransferHelper.sol\":1228:1235  success */\n      dup2\n        /* \"contracts/lib/TransferHelper.sol\":1228:1285  success && (data.length == 0 || abi.decode(data, (bool))) */\n      dup1\n      iszero\n      tag_134\n      jumpi\n      pop\n        /* \"contracts/lib/TransferHelper.sol\":1240:1251  data.length */\n      dup1\n      mload\n        /* \"contracts/lib/TransferHelper.sol\":1240:1256  data.length == 0 */\n      iszero\n      dup1\n        /* \"contracts/lib/TransferHelper.sol\":1240:1284  data.length == 0 || abi.decode(data, (bool)) */\n      tag_134\n      jumpi\n      pop\n        /* \"contracts/lib/TransferHelper.sol\":1271:1275  data */\n      dup1\n        /* \"contracts/lib/TransferHelper.sol\":1260:1284  abi.decode(data, (bool)) */\n      dup1\n      0x20\n      add\n      swap1\n      mload\n      dup2\n      add\n      swap1\n      tag_134\n      swap2\n      swap1\n      tag_121\n      jump\t// in\n    tag_134:\n        /* \"contracts/lib/TransferHelper.sol\":1220:1326  require(success && (data.length == 0 || abi.decode(data, (bool))), 'TransferHelper: TRANSFER_FROM_FAILED') */\n      tag_135\n      jumpi\n      mload(0x40)\n      shl(0xe5, 0x461bcd)\n      dup2\n      mstore\n        /* \"#utility.yul\":4602:4604   */\n      0x20\n        /* \"contracts/lib/TransferHelper.sol\":1220:1326  require(success && (data.length == 0 || abi.decode(data, (bool))), 'TransferHelper: TRANSFER_FROM_FAILED') */\n      0x04\n      dup3\n      add\n        /* \"#utility.yul\":4584:4605   */\n      mstore\n        /* \"#utility.yul\":4641:4643   */\n      0x24\n        /* \"#utility.yul\":4621:4639   */\n      dup1\n      dup3\n      add\n        /* \"#utility.yul\":4614:4644   */\n      mstore\n        /* \"#utility.yul\":4680:4714   */\n      0x5472616e7366657248656c7065723a205452414e534645525f46524f4d5f4641\n        /* \"#utility.yul\":4660:4678   */\n      0x44\n      dup3\n      add\n        /* \"#utility.yul\":4653:4715   */\n      mstore\n      shl(0xe2, 0x12531151)\n        /* \"#utility.yul\":4731:4749   */\n      0x64\n      dup3\n      add\n        /* \"#utility.yul\":4724:4758   */\n      mstore\n        /* \"#utility.yul\":4775:4794   */\n      0x84\n      add\n        /* \"contracts/lib/TransferHelper.sol\":1220:1326  require(success && (data.length == 0 || abi.decode(data, (bool))), 'TransferHelper: TRANSFER_FROM_FAILED') */\n      tag_77\n        /* \"#utility.yul\":4400:4800   */\n      jump\n        /* \"contracts/lib/TransferHelper.sol\":1220:1326  require(success && (data.length == 0 || abi.decode(data, (bool))), 'TransferHelper: TRANSFER_FROM_FAILED') */\n    tag_135:\n        /* \"contracts/lib/TransferHelper.sol\":1023:1333  {... */\n      pop\n      pop\n        /* \"contracts/lib/TransferHelper.sol\":935:1333  function safeTransferFrom(address token, address from, address to, uint value) internal {... */\n      pop\n      pop\n      pop\n      pop\n      jump\t// out\n        /* \"@openzeppelin/contracts/access/Ownable.sol\":2433:2620  function _transferOwnership(address newOwner) internal virtual {... */\n    tag_88:\n        /* \"@openzeppelin/contracts/access/Ownable.sol\":2506:2522  address oldOwner */\n      0x00\n        /* \"@openzeppelin/contracts/access/Ownable.sol\":2525:2531  _owner */\n      dup1\n      sload\n      sub(shl(0xa0, 0x01), 0x01)\n        /* \"@openzeppelin/contracts/access/Ownable.sol\":2541:2558  _owner = newOwner */\n      dup4\n      dup2\n      and\n      not(sub(shl(0xa0, 0x01), 0x01))\n      dup4\n      and\n      dup2\n      or\n      dup5\n      sstore\n        /* \"@openzeppelin/contracts/access/Ownable.sol\":2573:2613  OwnershipTransferred(oldOwner, newOwner) */\n      mload(0x40)\n        /* \"@openzeppelin/contracts/access/Ownable.sol\":2525:2531  _owner */\n      swap2\n      swap1\n      swap3\n      and\n      swap3\n      dup4\n      swap2\n        /* \"@openzeppelin/contracts/access/Ownable.sol\":2573:2613  OwnershipTransferred(oldOwner, newOwner) */\n      0x8be0079c531659141344cd1fd0a4f28419497f9722a3daafe3b4186f6b6457e0\n      swap2\n        /* \"@openzeppelin/contracts/access/Ownable.sol\":2506:2522  address oldOwner */\n      swap1\n        /* \"@openzeppelin/contracts/access/Ownable.sol\":2573:2613  OwnershipTransferred(oldOwner, newOwner) */\n      log3\n        /* \"@openzeppelin/contracts/access/Ownable.sol\":2496:2620  {... */\n      pop\n        /* \"@openzeppelin/contracts/access/Ownable.sol\":2433:2620  function _transferOwnership(address newOwner) internal virtual {... */\n      pop\n      jump\t// out\n        /* \"#utility.yul\":596:776   */\n    tag_34:\n        /* \"#utility.yul\":655:661   */\n      0x00\n        /* \"#utility.yul\":708:710   */\n      0x20\n        /* \"#utility.yul\":696:705   */\n      dup3\n        /* \"#utility.yul\":687:694   */\n      dup5\n        /* \"#utility.yul\":683:706   */\n      sub\n        /* \"#utility.yul\":679:711   */\n      slt\n        /* \"#utility.yul\":676:728   */\n      iszero\n      tag_145\n      jumpi\n        /* \"#utility.yul\":724:725   */\n      0x00\n        /* \"#utility.yul\":721:722   */\n      dup1\n        /* \"#utility.yul\":714:726   */\n      revert\n        /* \"#utility.yul\":676:728   */\n    tag_145:\n      pop\n        /* \"#utility.yul\":747:770   */\n      calldataload\n      swap2\n        /* \"#utility.yul\":596:776   */\n      swap1\n      pop\n      jump\t// out\n        /* \"#utility.yul\":781:1067   */\n    tag_58:\n        /* \"#utility.yul\":840:846   */\n      0x00\n        /* \"#utility.yul\":893:895   */\n      0x20\n        /* \"#utility.yul\":881:890   */\n      dup3\n        /* \"#utility.yul\":872:879   */\n      dup5\n        /* \"#utility.yul\":868:891   */\n      sub\n        /* \"#utility.yul\":864:896   */\n      slt\n        /* \"#utility.yul\":861:913   */\n      iszero\n      tag_147\n      jumpi\n        /* \"#utility.yul\":909:910   */\n      0x00\n        /* \"#utility.yul\":906:907   */\n      dup1\n        /* \"#utility.yul\":899:911   */\n      revert\n        /* \"#utility.yul\":861:913   */\n    tag_147:\n        /* \"#utility.yul\":935:958   */\n      dup2\n      calldataload\n      sub(shl(0xa0, 0x01), 0x01)\n        /* \"#utility.yul\":987:1018   */\n      dup2\n      and\n        /* \"#utility.yul\":977:1019   */\n      dup2\n      eq\n        /* \"#utility.yul\":967:1037   */\n      tag_148\n      jumpi\n        /* \"#utility.yul\":1033:1034   */\n      0x00\n        /* \"#utility.yul\":1030:1031   */\n      dup1\n        /* \"#utility.yul\":1023:1035   */\n      revert\n        /* \"#utility.yul\":967:1037   */\n    tag_148:\n        /* \"#utility.yul\":1056:1061   */\n      swap4\n        /* \"#utility.yul\":781:1067   */\n      swap3\n      pop\n      pop\n      pop\n      jump\t// out\n        /* \"#utility.yul\":1072:1256   */\n    tag_71:\n        /* \"#utility.yul\":1142:1148   */\n      0x00\n        /* \"#utility.yul\":1195:1197   */\n      0x20\n        /* \"#utility.yul\":1183:1192   */\n      dup3\n        /* \"#utility.yul\":1174:1181   */\n      dup5\n        /* \"#utility.yul\":1170:1193   */\n      sub\n        /* \"#utility.yul\":1166:1198   */\n      slt\n        /* \"#utility.yul\":1163:1215   */\n      iszero\n      tag_150\n      jumpi\n        /* \"#utility.yul\":1211:1212   */\n      0x00\n        /* \"#utility.yul\":1208:1209   */\n      dup1\n        /* \"#utility.yul\":1201:1213   */\n      revert\n        /* \"#utility.yul\":1163:1215   */\n    tag_150:\n      pop\n        /* \"#utility.yul\":1234:1250   */\n      mload\n      swap2\n        /* \"#utility.yul\":1072:1256   */\n      swap1\n      pop\n      jump\t// out\n        /* \"#utility.yul\":1692:1909   */\n    tag_83:\n        /* \"#utility.yul\":1732:1733   */\n      0x00\n        /* \"#utility.yul\":1758:1759   */\n      dup3\n        /* \"#utility.yul\":1748:1880   */\n      tag_153\n      jumpi\n        /* \"#utility.yul\":1802:1812   */\n      0x4e487b71\n        /* \"#utility.yul\":1797:1800   */\n      0xe0\n        /* \"#utility.yul\":1793:1813   */\n      shl\n        /* \"#utility.yul\":1790:1791   */\n      0x00\n        /* \"#utility.yul\":1783:1814   */\n      mstore\n        /* \"#utility.yul\":1837:1841   */\n      0x12\n        /* \"#utility.yul\":1834:1835   */\n      0x04\n        /* \"#utility.yul\":1827:1842   */\n      mstore\n        /* \"#utility.yul\":1865:1869   */\n      0x24\n        /* \"#utility.yul\":1862:1863   */\n      0x00\n        /* \"#utility.yul\":1855:1870   */\n      revert\n        /* \"#utility.yul\":1748:1880   */\n    tag_153:\n      pop\n        /* \"#utility.yul\":1894:1903   */\n      div\n      swap1\n        /* \"#utility.yul\":1692:1909   */\n      jump\t// out\n        /* \"#utility.yul\":2961:3373   */\n    tag_114:\n        /* \"#utility.yul\":3090:3093   */\n      0x00\n        /* \"#utility.yul\":3128:3134   */\n      dup3\n        /* \"#utility.yul\":3122:3135   */\n      mload\n        /* \"#utility.yul\":3153:3154   */\n      0x00\n        /* \"#utility.yul\":3163:3292   */\n    tag_158:\n        /* \"#utility.yul\":3177:3183   */\n      dup2\n        /* \"#utility.yul\":3174:3175   */\n      dup2\n        /* \"#utility.yul\":3171:3184   */\n      lt\n        /* \"#utility.yul\":3163:3292   */\n      iszero\n      tag_160\n      jumpi\n        /* \"#utility.yul\":3275:3279   */\n      0x20\n        /* \"#utility.yul\":3259:3273   */\n      dup2\n      dup7\n      add\n        /* \"#utility.yul\":3255:3280   */\n      dup2\n      add\n        /* \"#utility.yul\":3249:3281   */\n      mload\n        /* \"#utility.yul\":3236:3247   */\n      dup6\n      dup4\n      add\n        /* \"#utility.yul\":3229:3282   */\n      mstore\n        /* \"#utility.yul\":3192:3204   */\n      add\n        /* \"#utility.yul\":3163:3292   */\n      jump(tag_158)\n    tag_160:\n      pop\n        /* \"#utility.yul\":3347:3348   */\n      0x00\n        /* \"#utility.yul\":3311:3327   */\n      swap3\n      add\n        /* \"#utility.yul\":3336:3349   */\n      swap2\n      dup3\n      mstore\n      pop\n        /* \"#utility.yul\":3311:3327   */\n      swap2\n        /* \"#utility.yul\":2961:3373   */\n      swap1\n      pop\n      jump\t// out\n        /* \"#utility.yul\":3378:3655   */\n    tag_121:\n        /* \"#utility.yul\":3445:3451   */\n      0x00\n        /* \"#utility.yul\":3498:3500   */\n      0x20\n        /* \"#utility.yul\":3486:3495   */\n      dup3\n        /* \"#utility.yul\":3477:3484   */\n      dup5\n        /* \"#utility.yul\":3473:3496   */\n      sub\n        /* \"#utility.yul\":3469:3501   */\n      slt\n        /* \"#utility.yul\":3466:3518   */\n      iszero\n      tag_162\n      jumpi\n        /* \"#utility.yul\":3514:3515   */\n      0x00\n        /* \"#utility.yul\":3511:3512   */\n      dup1\n        /* \"#utility.yul\":3504:3516   */\n      revert\n        /* \"#utility.yul\":3466:3518   */\n    tag_162:\n        /* \"#utility.yul\":3546:3555   */\n      dup2\n        /* \"#utility.yul\":3540:3556   */\n      mload\n        /* \"#utility.yul\":3599:3604   */\n      dup1\n        /* \"#utility.yul\":3592:3605   */\n      iszero\n        /* \"#utility.yul\":3585:3606   */\n      iszero\n        /* \"#utility.yul\":3578:3583   */\n      dup2\n        /* \"#utility.yul\":3575:3607   */\n      eq\n        /* \"#utility.yul\":3565:3625   */\n      tag_148\n      jumpi\n        /* \"#utility.yul\":3621:3622   */\n      0x00\n        /* \"#utility.yul\":3618:3619   */\n      dup1\n        /* \"#utility.yul\":3611:3623   */\n      revert\n\n    auxdata: 0xa264697066735822122032b39ed8bb7b1a55f044b94bcebdd98d95e469b1db663de3a750f1cf4b504eae64736f6c63430008120033\n}\n",
				"bytecode": {
					"linkReferences": {},
					"object": "608060405234801561001057600080fd5b5060405161091a38038061091a83398101604081905261002f916100db565b6100383361006f565b600380546001600160a01b039384166001600160a01b031991821617909155600280549290931691161790556103e860045561010e565b600080546001600160a01b038381166001600160a01b0319831681178455604051919092169283917f8be0079c531659141344cd1fd0a4f28419497f9722a3daafe3b4186f6b6457e09190a35050565b80516001600160a01b03811681146100d657600080fd5b919050565b600080604083850312156100ee57600080fd5b6100f7836100bf565b9150610105602084016100bf565b90509250929050565b6107fd8061011d6000396000f3fe608060405234801561001057600080fd5b50600436106100cf5760003560e01c80635356172e1161008c5780638da5cb5b116100665780638da5cb5b1461019d57806392ccd3a6146101ae5780639b2cb5d8146101c1578063f2fde38b146101ca57600080fd5b80635356172e1461016f578063715018a614610182578063897b06371461018a57600080fd5b806314c98009146100d4578063200d2ed2146100de57806322d392cb146101075780634006ccc51461013257806341458c8614610149578063535565591461015c575b600080fd5b6100dc6101dd565b005b6000546100f290600160a01b900460ff1681565b60405190151581526020015b60405180910390f35b60035461011a906001600160a01b031681565b6040516001600160a01b0390911681526020016100fe565b61013b60045481565b6040519081526020016100fe565b6100dc6101573660046106f2565b610206565b6100dc61016a3660046106f2565b61029f565b60025461011a906001600160a01b031681565b6100dc610359565b6100dc6101983660046106f2565b61036d565b6000546001600160a01b031661011a565b6100dc6101bc3660046106f2565b61037a565b61013b60015481565b6100dc6101d836600461070b565b610387565b6101e56103fd565b6000805460ff60a01b198116600160a01b9182900460ff1615909102179055565b61020e6103fd565b6003546040516370a0823160e01b815230600482015282916001600160a01b0316906370a0823190602401602060405180830381865afa158015610256573d6000803e3d6000fd5b505050506040513d601f19601f8201168201806040525081019061027a919061073b565b101561028557600080fd5b60035461029c906001600160a01b03163383610457565b50565b60015481101561031c5760405162461bcd60e51b815260206004820152603e60248201527f546865207175616e7469747920796f7520627579206d7573742062652067726560448201527f61746572207468616e20746865206d696e696d756d207175616e74697479000060648201526084015b60405180910390fd5b600254610334906001600160a01b0316333084610572565b60035460045461029c916001600160a01b03169033906103549085610754565b610457565b6103616103fd565b61036b60006106a2565b565b6103756103fd565b600155565b6103826103fd565b600455565b61038f6103fd565b6001600160a01b0381166103f45760405162461bcd60e51b815260206004820152602660248201527f4f776e61626c653a206e6577206f776e657220697320746865207a65726f206160448201526564647265737360d01b6064820152608401610313565b61029c816106a2565b6000546001600160a01b0316331461036b5760405162461bcd60e51b815260206004820181905260248201527f4f776e61626c653a2063616c6c6572206973206e6f7420746865206f776e65726044820152606401610313565b604080516001600160a01b038481166024830152604480830185905283518084039091018152606490920183526020820180516001600160e01b031663a9059cbb60e01b17905291516000928392908716916104b39190610776565b6000604051808303816000865af19150503d80600081146104f0576040519150601f19603f3d011682016040523d82523d6000602084013e6104f5565b606091505b509150915081801561051f57508051158061051f57508080602001905181019061051f91906107a5565b61056b5760405162461bcd60e51b815260206004820152601f60248201527f5472616e7366657248656c7065723a205452414e534645525f4641494c4544006044820152606401610313565b5050505050565b604080516001600160a01b0385811660248301528481166044830152606480830185905283518084039091018152608490920183526020820180516001600160e01b03166323b872dd60e01b17905291516000928392908816916105d69190610776565b6000604051808303816000865af19150503d8060008114610613576040519150601f19603f3d011682016040523d82523d6000602084013e610618565b606091505b509150915081801561064257508051158061064257508080602001905181019061064291906107a5565b61069a5760405162461bcd60e51b8152602060048201526024808201527f5472616e7366657248656c7065723a205452414e534645525f46524f4d5f46416044820152631253115160e21b6064820152608401610313565b505050505050565b600080546001600160a01b038381166001600160a01b0319831681178455604051919092169283917f8be0079c531659141344cd1fd0a4f28419497f9722a3daafe3b4186f6b6457e09190a35050565b60006020828403121561070457600080fd5b5035919050565b60006020828403121561071d57600080fd5b81356001600160a01b038116811461073457600080fd5b9392505050565b60006020828403121561074d57600080fd5b5051919050565b60008261077157634e487b7160e01b600052601260045260246000fd5b500490565b6000825160005b81811015610797576020818601810151858301520161077d565b506000920191825250919050565b6000602082840312156107b757600080fd5b8151801515811461073457600080fdfea264697066735822122032b39ed8bb7b1a55f044b94bcebdd98d95e469b1db663de3a750f1cf4b504eae64736f6c63430008120033",
					"opcodes": "PUSH1 0x80 PUSH1 0x40 MSTORE CALLVALUE DUP1 ISZERO PUSH2 0x10 JUMPI PUSH1 0x0 DUP1 REVERT JUMPDEST POP PUSH1 0x40 MLOAD PUSH2 0x91A CODESIZE SUB DUP1 PUSH2 0x91A DUP4 CODECOPY DUP2 ADD PUSH1 0x40 DUP2 SWAP1 MSTORE PUSH2 0x2F SWAP2 PUSH2 0xDB JUMP JUMPDEST PUSH2 0x38 CALLER PUSH2 0x6F JUMP JUMPDEST PUSH1 0x3 DUP1 SLOAD PUSH1 0x1 PUSH1 0x1 PUSH1 0xA0 SHL SUB SWAP4 DUP5 AND PUSH1 0x1 PUSH1 0x1 PUSH1 0xA0 SHL SUB NOT SWAP2 DUP3 AND OR SWAP1 SWAP2 SSTORE PUSH1 0x2 DUP1 SLOAD SWAP3 SWAP1 SWAP4 AND SWAP2 AND OR SWAP1 SSTORE PUSH2 0x3E8 PUSH1 0x4 SSTORE PUSH2 0x10E JUMP JUMPDEST PUSH1 0x0 DUP1 SLOAD PUSH1 0x1 PUSH1 0x1 PUSH1 0xA0 SHL SUB DUP4 DUP2 AND PUSH1 0x1 PUSH1 0x1 PUSH1 0xA0 SHL SUB NOT DUP4 AND DUP2 OR DUP5 SSTORE PUSH1 0x40 MLOAD SWAP2 SWAP1 SWAP3 AND SWAP3 DUP4 SWAP2 PUSH32 0x8BE0079C531659141344CD1FD0A4F28419497F9722A3DAAFE3B4186F6B6457E0 SWAP2 SWAP1 LOG3 POP POP JUMP JUMPDEST DUP1 MLOAD PUSH1 0x1 PUSH1 0x1 PUSH1 0xA0 SHL SUB DUP2 AND DUP2 EQ PUSH2 0xD6 JUMPI PUSH1 0x0 DUP1 REVERT JUMPDEST SWAP2 SWAP1 POP JUMP JUMPDEST PUSH1 0x0 DUP1 PUSH1 0x40 DUP4 DUP6 SUB SLT ISZERO PUSH2 0xEE JUMPI PUSH1 0x0 DUP1 REVERT JUMPDEST PUSH2 0xF7 DUP4 PUSH2 0xBF JUMP JUMPDEST SWAP2 POP PUSH2 0x105 PUSH1 0x20 DUP5 ADD PUSH2 0xBF JUMP JUMPDEST SWAP1 POP SWAP3 POP SWAP3 SWAP1 POP JUMP JUMPDEST PUSH2 0x7FD DUP1 PUSH2 0x11D PUSH1 0x0 CODECOPY PUSH1 0x0 RETURN INVALID PUSH1 0x80 PUSH1 0x40 MSTORE CALLVALUE DUP1 ISZERO PUSH2 0x10 JUMPI PUSH1 0x0 DUP1 REVERT JUMPDEST POP PUSH1 0x4 CALLDATASIZE LT PUSH2 0xCF JUMPI PUSH1 0x0 CALLDATALOAD PUSH1 0xE0 SHR DUP1 PUSH4 0x5356172E GT PUSH2 0x8C JUMPI DUP1 PUSH4 0x8DA5CB5B GT PUSH2 0x66 JUMPI DUP1 PUSH4 0x8DA5CB5B EQ PUSH2 0x19D JUMPI DUP1 PUSH4 0x92CCD3A6 EQ PUSH2 0x1AE JUMPI DUP1 PUSH4 0x9B2CB5D8 EQ PUSH2 0x1C1 JUMPI DUP1 PUSH4 0xF2FDE38B EQ PUSH2 0x1CA JUMPI PUSH1 0x0 DUP1 REVERT JUMPDEST DUP1 PUSH4 0x5356172E EQ PUSH2 0x16F JUMPI DUP1 PUSH4 0x715018A6 EQ PUSH2 0x182 JUMPI DUP1 PUSH4 0x897B0637 EQ PUSH2 0x18A JUMPI PUSH1 0x0 DUP1 REVERT JUMPDEST DUP1 PUSH4 0x14C98009 EQ PUSH2 0xD4 JUMPI DUP1 PUSH4 0x200D2ED2 EQ PUSH2 0xDE JUMPI DUP1 PUSH4 0x22D392CB EQ PUSH2 0x107 JUMPI DUP1 PUSH4 0x4006CCC5 EQ PUSH2 0x132 JUMPI DUP1 PUSH4 0x41458C86 EQ PUSH2 0x149 JUMPI DUP1 PUSH4 0x53556559 EQ PUSH2 0x15C JUMPI JUMPDEST PUSH1 0x0 DUP1 REVERT JUMPDEST PUSH2 0xDC PUSH2 0x1DD JUMP JUMPDEST STOP JUMPDEST PUSH1 0x0 SLOAD PUSH2 0xF2 SWAP1 PUSH1 0x1 PUSH1 0xA0 SHL SWAP1 DIV PUSH1 0xFF AND DUP2 JUMP JUMPDEST PUSH1 0x40 MLOAD SWAP1 ISZERO ISZERO DUP2 MSTORE PUSH1 0x20 ADD JUMPDEST PUSH1 0x40 MLOAD DUP1 SWAP2 SUB SWAP1 RETURN JUMPDEST PUSH1 0x3 SLOAD PUSH2 0x11A SWAP1 PUSH1 0x1 PUSH1 0x1 PUSH1 0xA0 SHL SUB AND DUP2 JUMP JUMPDEST PUSH1 0x40 MLOAD PUSH1 0x1 PUSH1 0x1 PUSH1 0xA0 SHL SUB SWAP1 SWAP2 AND DUP2 MSTORE PUSH1 0x20 ADD PUSH2 0xFE JUMP JUMPDEST PUSH2 0x13B PUSH1 0x4 SLOAD DUP2 JUMP JUMPDEST PUSH1 0x40 MLOAD SWAP1 DUP2 MSTORE PUSH1 0x20 ADD PUSH2 0xFE JUMP JUMPDEST PUSH2 0xDC PUSH2 0x157 CALLDATASIZE PUSH1 0x4 PUSH2 0x6F2 JUMP JUMPDEST PUSH2 0x206 JUMP JUMPDEST PUSH2 0xDC PUSH2 0x16A CALLDATASIZE PUSH1 0x4 PUSH2 0x6F2 JUMP JUMPDEST PUSH2 0x29F JUMP JUMPDEST PUSH1 0x2 SLOAD PUSH2 0x11A SWAP1 PUSH1 0x1 PUSH1 0x1 PUSH1 0xA0 SHL SUB AND DUP2 JUMP JUMPDEST PUSH2 0xDC PUSH2 0x359 JUMP JUMPDEST PUSH2 0xDC PUSH2 0x198 CALLDATASIZE PUSH1 0x4 PUSH2 0x6F2 JUMP JUMPDEST PUSH2 0x36D JUMP JUMPDEST PUSH1 0x0 SLOAD PUSH1 0x1 PUSH1 0x1 PUSH1 0xA0 SHL SUB AND PUSH2 0x11A JUMP JUMPDEST PUSH2 0xDC PUSH2 0x1BC CALLDATASIZE PUSH1 0x4 PUSH2 0x6F2 JUMP JUMPDEST PUSH2 0x37A JUMP JUMPDEST PUSH2 0x13B PUSH1 0x1 SLOAD DUP2 JUMP JUMPDEST PUSH2 0xDC PUSH2 0x1D8 CALLDATASIZE PUSH1 0x4 PUSH2 0x70B JUMP JUMPDEST PUSH2 0x387 JUMP JUMPDEST PUSH2 0x1E5 PUSH2 0x3FD JUMP JUMPDEST PUSH1 0x0 DUP1 SLOAD PUSH1 0xFF PUSH1 0xA0 SHL NOT DUP2 AND PUSH1 0x1 PUSH1 0xA0 SHL SWAP2 DUP3 SWAP1 DIV PUSH1 0xFF AND ISZERO SWAP1 SWAP2 MUL OR SWAP1 SSTORE JUMP JUMPDEST PUSH2 0x20E PUSH2 0x3FD JUMP JUMPDEST PUSH1 0x3 SLOAD PUSH1 0x40 MLOAD PUSH4 0x70A08231 PUSH1 0xE0 SHL DUP2 MSTORE ADDRESS PUSH1 0x4 DUP3 ADD MSTORE DUP3 SWAP2 PUSH1 0x1 PUSH1 0x1 PUSH1 0xA0 SHL SUB AND SWAP1 PUSH4 0x70A08231 SWAP1 PUSH1 0x24 ADD PUSH1 0x20 PUSH1 0x40 MLOAD DUP1 DUP4 SUB DUP2 DUP7 GAS STATICCALL ISZERO DUP1 ISZERO PUSH2 0x256 JUMPI RETURNDATASIZE PUSH1 0x0 DUP1 RETURNDATACOPY RETURNDATASIZE PUSH1 0x0 REVERT JUMPDEST POP POP POP POP PUSH1 0x40 MLOAD RETURNDATASIZE PUSH1 0x1F NOT PUSH1 0x1F DUP3 ADD AND DUP3 ADD DUP1 PUSH1 0x40 MSTORE POP DUP2 ADD SWAP1 PUSH2 0x27A SWAP2 SWAP1 PUSH2 0x73B JUMP JUMPDEST LT ISZERO PUSH2 0x285 JUMPI PUSH1 0x0 DUP1 REVERT JUMPDEST PUSH1 0x3 SLOAD PUSH2 0x29C SWAP1 PUSH1 0x1 PUSH1 0x1 PUSH1 0xA0 SHL SUB AND CALLER DUP4 PUSH2 0x457 JUMP JUMPDEST POP JUMP JUMPDEST PUSH1 0x1 SLOAD DUP2 LT ISZERO PUSH2 0x31C JUMPI PUSH1 0x40 MLOAD PUSH3 0x461BCD PUSH1 0xE5 SHL DUP2 MSTORE PUSH1 0x20 PUSH1 0x4 DUP3 ADD MSTORE PUSH1 0x3E PUSH1 0x24 DUP3 ADD MSTORE PUSH32 0x546865207175616E7469747920796F7520627579206D75737420626520677265 PUSH1 0x44 DUP3 ADD MSTORE PUSH32 0x61746572207468616E20746865206D696E696D756D207175616E746974790000 PUSH1 0x64 DUP3 ADD MSTORE PUSH1 0x84 ADD JUMPDEST PUSH1 0x40 MLOAD DUP1 SWAP2 SUB SWAP1 REVERT JUMPDEST PUSH1 0x2 SLOAD PUSH2 0x334 SWAP1 PUSH1 0x1 PUSH1 0x1 PUSH1 0xA0 SHL SUB AND CALLER ADDRESS DUP5 PUSH2 0x572 JUMP JUMPDEST PUSH1 0x3 SLOAD PUSH1 0x4 SLOAD PUSH2 0x29C SWAP2 PUSH1 0x1 PUSH1 0x1 PUSH1 0xA0 SHL SUB AND SWAP1 CALLER SWAP1 PUSH2 0x354 SWAP1 DUP6 PUSH2 0x754 JUMP JUMPDEST PUSH2 0x457 JUMP JUMPDEST PUSH2 0x361 PUSH2 0x3FD JUMP JUMPDEST PUSH2 0x36B PUSH1 0x0 PUSH2 0x6A2 JUMP JUMPDEST JUMP JUMPDEST PUSH2 0x375 PUSH2 0x3FD JUMP JUMPDEST PUSH1 0x1 SSTORE JUMP JUMPDEST PUSH2 0x382 PUSH2 0x3FD JUMP JUMPDEST PUSH1 0x4 SSTORE JUMP JUMPDEST PUSH2 0x38F PUSH2 0x3FD JUMP JUMPDEST PUSH1 0x1 PUSH1 0x1 PUSH1 0xA0 SHL SUB DUP2 AND PUSH2 0x3F4 JUMPI PUSH1 0x40 MLOAD PUSH3 0x461BCD PUSH1 0xE5 SHL DUP2 MSTORE PUSH1 0x20 PUSH1 0x4 DUP3 ADD MSTORE PUSH1 0x26 PUSH1 0x24 DUP3 ADD MSTORE PUSH32 0x4F776E61626C653A206E6577206F776E657220697320746865207A65726F2061 PUSH1 0x44 DUP3 ADD MSTORE PUSH6 0x646472657373 PUSH1 0xD0 SHL PUSH1 0x64 DUP3 ADD MSTORE PUSH1 0x84 ADD PUSH2 0x313 JUMP JUMPDEST PUSH2 0x29C DUP2 PUSH2 0x6A2 JUMP JUMPDEST PUSH1 0x0 SLOAD PUSH1 0x1 PUSH1 0x1 PUSH1 0xA0 SHL SUB AND CALLER EQ PUSH2 0x36B JUMPI PUSH1 0x40 MLOAD PUSH3 0x461BCD PUSH1 0xE5 SHL DUP2 MSTORE PUSH1 0x20 PUSH1 0x4 DUP3 ADD DUP2 SWAP1 MSTORE PUSH1 0x24 DUP3 ADD MSTORE PUSH32 0x4F776E61626C653A2063616C6C6572206973206E6F7420746865206F776E6572 PUSH1 0x44 DUP3 ADD MSTORE PUSH1 0x64 ADD PUSH2 0x313 JUMP JUMPDEST PUSH1 0x40 DUP1 MLOAD PUSH1 0x1 PUSH1 0x1 PUSH1 0xA0 SHL SUB DUP5 DUP2 AND PUSH1 0x24 DUP4 ADD MSTORE PUSH1 0x44 DUP1 DUP4 ADD DUP6 SWAP1 MSTORE DUP4 MLOAD DUP1 DUP5 SUB SWAP1 SWAP2 ADD DUP2 MSTORE PUSH1 0x64 SWAP1 SWAP3 ADD DUP4 MSTORE PUSH1 0x20 DUP3 ADD DUP1 MLOAD PUSH1 0x1 PUSH1 0x1 PUSH1 0xE0 SHL SUB AND PUSH4 0xA9059CBB PUSH1 0xE0 SHL OR SWAP1 MSTORE SWAP2 MLOAD PUSH1 0x0 SWAP3 DUP4 SWAP3 SWAP1 DUP8 AND SWAP2 PUSH2 0x4B3 SWAP2 SWAP1 PUSH2 0x776 JUMP JUMPDEST PUSH1 0x0 PUSH1 0x40 MLOAD DUP1 DUP4 SUB DUP2 PUSH1 0x0 DUP7 GAS CALL SWAP2 POP POP RETURNDATASIZE DUP1 PUSH1 0x0 DUP2 EQ PUSH2 0x4F0 JUMPI PUSH1 0x40 MLOAD SWAP2 POP PUSH1 0x1F NOT PUSH1 0x3F RETURNDATASIZE ADD AND DUP3 ADD PUSH1 0x40 MSTORE RETURNDATASIZE DUP3 MSTORE RETURNDATASIZE PUSH1 0x0 PUSH1 0x20 DUP5 ADD RETURNDATACOPY PUSH2 0x4F5 JUMP JUMPDEST PUSH1 0x60 SWAP2 POP JUMPDEST POP SWAP2 POP SWAP2 POP DUP2 DUP1 ISZERO PUSH2 0x51F JUMPI POP DUP1 MLOAD ISZERO DUP1 PUSH2 0x51F JUMPI POP DUP1 DUP1 PUSH1 0x20 ADD SWAP1 MLOAD DUP2 ADD SWAP1 PUSH2 0x51F SWAP2 SWAP1 PUSH2 0x7A5 JUMP JUMPDEST PUSH2 0x56B JUMPI PUSH1 0x40 MLOAD PUSH3 0x461BCD PUSH1 0xE5 SHL DUP2 MSTORE PUSH1 0x20 PUSH1 0x4 DUP3 ADD MSTORE PUSH1 0x1F PUSH1 0x24 DUP3 ADD MSTORE PUSH32 0x5472616E7366657248656C7065723A205452414E534645525F4641494C454400 PUSH1 0x44 DUP3 ADD MSTORE PUSH1 0x64 ADD PUSH2 0x313 JUMP JUMPDEST POP POP POP POP POP JUMP JUMPDEST PUSH1 0x40 DUP1 MLOAD PUSH1 0x1 PUSH1 0x1 PUSH1 0xA0 SHL SUB DUP6 DUP2 AND PUSH1 0x24 DUP4 ADD MSTORE DUP5 DUP2 AND PUSH1 0x44 DUP4 ADD MSTORE PUSH1 0x64 DUP1 DUP4 ADD DUP6 SWAP1 MSTORE DUP4 MLOAD DUP1 DUP5 SUB SWAP1 SWAP2 ADD DUP2 MSTORE PUSH1 0x84 SWAP1 SWAP3 ADD DUP4 MSTORE PUSH1 0x20 DUP3 ADD DUP1 MLOAD PUSH1 0x1 PUSH1 0x1 PUSH1 0xE0 SHL SUB AND PUSH4 0x23B872DD PUSH1 0xE0 SHL OR SWAP1 MSTORE SWAP2 MLOAD PUSH1 0x0 SWAP3 DUP4 SWAP3 SWAP1 DUP9 AND SWAP2 PUSH2 0x5D6 SWAP2 SWAP1 PUSH2 0x776 JUMP JUMPDEST PUSH1 0x0 PUSH1 0x40 MLOAD DUP1 DUP4 SUB DUP2 PUSH1 0x0 DUP7 GAS CALL SWAP2 POP POP RETURNDATASIZE DUP1 PUSH1 0x0 DUP2 EQ PUSH2 0x613 JUMPI PUSH1 0x40 MLOAD SWAP2 POP PUSH1 0x1F NOT PUSH1 0x3F RETURNDATASIZE ADD AND DUP3 ADD PUSH1 0x40 MSTORE RETURNDATASIZE DUP3 MSTORE RETURNDATASIZE PUSH1 0x0 PUSH1 0x20 DUP5 ADD RETURNDATACOPY PUSH2 0x618 JUMP JUMPDEST PUSH1 0x60 SWAP2 POP JUMPDEST POP SWAP2 POP SWAP2 POP DUP2 DUP1 ISZERO PUSH2 0x642 JUMPI POP DUP1 MLOAD ISZERO DUP1 PUSH2 0x642 JUMPI POP DUP1 DUP1 PUSH1 0x20 ADD SWAP1 MLOAD DUP2 ADD SWAP1 PUSH2 0x642 SWAP2 SWAP1 PUSH2 0x7A5 JUMP JUMPDEST PUSH2 0x69A JUMPI PUSH1 0x40 MLOAD PUSH3 0x461BCD PUSH1 0xE5 SHL DUP2 MSTORE PUSH1 0x20 PUSH1 0x4 DUP3 ADD MSTORE PUSH1 0x24 DUP1 DUP3 ADD MSTORE PUSH32 0x5472616E7366657248656C7065723A205452414E534645525F46524F4D5F4641 PUSH1 0x44 DUP3 ADD MSTORE PUSH4 0x12531151 PUSH1 0xE2 SHL PUSH1 0x64 DUP3 ADD MSTORE PUSH1 0x84 ADD PUSH2 0x313 JUMP JUMPDEST POP POP POP POP POP POP JUMP JUMPDEST PUSH1 0x0 DUP1 SLOAD PUSH1 0x1 PUSH1 0x1 PUSH1 0xA0 SHL SUB DUP4 DUP2 AND PUSH1 0x1 PUSH1 0x1 PUSH1 0xA0 SHL SUB NOT DUP4 AND DUP2 OR DUP5 SSTORE PUSH1 0x40 MLOAD SWAP2 SWAP1 SWAP3 AND SWAP3 DUP4 SWAP2 PUSH32 0x8BE0079C531659141344CD1FD0A4F28419497F9722A3DAAFE3B4186F6B6457E0 SWAP2 SWAP1 LOG3 POP POP JUMP JUMPDEST PUSH1 0x0 PUSH1 0x20 DUP3 DUP5 SUB SLT ISZERO PUSH2 0x704 JUMPI PUSH1 0x0 DUP1 REVERT JUMPDEST POP CALLDATALOAD SWAP2 SWAP1 POP JUMP JUMPDEST PUSH1 0x0 PUSH1 0x20 DUP3 DUP5 SUB SLT ISZERO PUSH2 0x71D JUMPI PUSH1 0x0 DUP1 REVERT JUMPDEST DUP2 CALLDATALOAD PUSH1 0x1 PUSH1 0x1 PUSH1 0xA0 SHL SUB DUP2 AND DUP2 EQ PUSH2 0x734 JUMPI PUSH1 0x0 DUP1 REVERT JUMPDEST SWAP4 SWAP3 POP POP POP JUMP JUMPDEST PUSH1 0x0 PUSH1 0x20 DUP3 DUP5 SUB SLT ISZERO PUSH2 0x74D JUMPI PUSH1 0x0 DUP1 REVERT JUMPDEST POP MLOAD SWAP2 SWAP1 POP JUMP JUMPDEST PUSH1 0x0 DUP3 PUSH2 0x771 JUMPI PUSH4 0x4E487B71 PUSH1 0xE0 SHL PUSH1 0x0 MSTORE PUSH1 0x12 PUSH1 0x4 MSTORE PUSH1 0x24 PUSH1 0x0 REVERT JUMPDEST POP DIV SWAP1 JUMP JUMPDEST PUSH1 0x0 DUP3 MLOAD PUSH1 0x0 JUMPDEST DUP2 DUP2 LT ISZERO PUSH2 0x797 JUMPI PUSH1 0x20 DUP2 DUP7 ADD DUP2 ADD MLOAD DUP6 DUP4 ADD MSTORE ADD PUSH2 0x77D JUMP JUMPDEST POP PUSH1 0x0 SWAP3 ADD SWAP2 DUP3 MSTORE POP SWAP2 SWAP1 POP JUMP JUMPDEST PUSH1 0x0 PUSH1 0x20 DUP3 DUP5 SUB SLT ISZERO PUSH2 0x7B7 JUMPI PUSH1 0x0 DUP1 REVERT JUMPDEST DUP2 MLOAD DUP1 ISZERO ISZERO DUP2 EQ PUSH2 0x734 JUMPI PUSH1 0x0 DUP1 REVERT INVALID LOG2 PUSH5 0x6970667358 0x22 SLT KECCAK256 ORIGIN 0xB3 SWAP15 0xD8 0xBB PUSH28 0x1A55F044B94BCEBDD98D95E469B1DB663DE3A750F1CF4B504EAE6473 PUSH16 0x6C634300081200330000000000000000 "
				},
				"gasEstimates": {
					"creation": {
						"codeDepositCost": "409000",
						"executionCost": "infinite",
						"totalCost": "infinite"
					},
					"external": {
						"backToken(uint256)": "infinite",
						"exchange(uint256)": "infinite",
						"exchangeRatio()": "2362",
						"fdt()": "2382",
						"flame()": "2360",
						"minAmount()": "2361",
						"owner()": "2353",
						"renounceOwnership()": "infinite",
						"setMinAmount(uint256)": "24555",
						"setexchangeRatio(uint256)": "24532",
						"setstatus()": "26582",
						"status()": "2339",
						"transferOwnership(address)": "28386"
					}
				},
				"methodIdentifiers": {
					"backToken(uint256)": "41458c86",
					"exchange(uint256)": "53556559",
					"exchangeRatio()": "4006ccc5",
					"fdt()": "22d392cb",
					"flame()": "5356172e",
					"minAmount()": "9b2cb5d8",
					"owner()": "8da5cb5b",
					"renounceOwnership()": "715018a6",
					"setMinAmount(uint256)": "897b0637",
					"setexchangeRatio(uint256)": "92ccd3a6",
					"setstatus()": "14c98009",
					"status()": "200d2ed2",
					"transferOwnership(address)": "f2fde38b"
				}
			},
			"storageLayout": {
				"storage": [
					{
						"astId": 7,
						"contract": "contracts/FlameExchangeFdt.sol:FlameExchangeFdt",
						"label": "_owner",
						"offset": 0,
						"slot": "0",
						"type": "t_address"
					},
					{
						"astId": 221,
						"contract": "contracts/FlameExchangeFdt.sol:FlameExchangeFdt",
						"label": "status",
						"offset": 20,
						"slot": "0",
						"type": "t_bool"
					},
					{
						"astId": 223,
						"contract": "contracts/FlameExchangeFdt.sol:FlameExchangeFdt",
						"label": "minAmount",
						"offset": 0,
						"slot": "1",
						"type": "t_uint256"
					},
					{
						"astId": 225,
						"contract": "contracts/FlameExchangeFdt.sol:FlameExchangeFdt",
						"label": "flame",
						"offset": 0,
						"slot": "2",
						"type": "t_address"
					},
					{
						"astId": 227,
						"contract": "contracts/FlameExchangeFdt.sol:FlameExchangeFdt",
						"label": "fdt",
						"offset": 0,
						"slot": "3",
						"type": "t_address"
					},
					{
						"astId": 229,
						"contract": "contracts/FlameExchangeFdt.sol:FlameExchangeFdt",
						"label": "exchangeRatio",
						"offset": 0,
						"slot": "4",
						"type": "t_uint256"
					}
				],
				"types": {
					"t_address": {
						"encoding": "inplace",
						"label": "address",
						"numberOfBytes": "20"
					},
					"t_bool": {
						"encoding": "inplace",
						"label": "bool",
						"numberOfBytes": "1"
					},
					"t_uint256": {
						"encoding": "inplace",
						"label": "uint256",
						"numberOfBytes": "32"
					}
				}
			},
			"userdoc": {
				"kind": "user",
				"methods": {},
				"version": 1
			}
		}
	}
}