{
	"contracts/FireLock.sol": {
		"FireLock": {
			"abi": [
				{
					"inputs": [
						{
							"internalType": "address",
							"name": "_weth",
							"type": "address"
						},
						{
							"internalType": "address",
							"name": "_fireLockFeeTransfer",
							"type": "address"
						},
						{
							"internalType": "address",
							"name": "_treasuryDistributionContract",
							"type": "address"
						},
						{
							"internalType": "address",
							"name": "_factoryAddr",
							"type": "address"
						},
						{
							"internalType": "address",
							"name": "_createUser",
							"type": "address"
						}
					],
					"stateMutability": "nonpayable",
					"type": "constructor"
				},
				{
					"inputs": [
						{
							"internalType": "address",
							"name": "_token",
							"type": "address"
						},
						{
							"internalType": "address",
							"name": "_admin",
							"type": "address"
						},
						{
							"internalType": "uint256",
							"name": "_unlockCycle",
							"type": "uint256"
						},
						{
							"internalType": "uint256",
							"name": "_unlockRound",
							"type": "uint256"
						},
						{
							"internalType": "uint256",
							"name": "_amount",
							"type": "uint256"
						},
						{
							"internalType": "address[]",
							"name": "_to",
							"type": "address[]"
						},
						{
							"internalType": "uint256[]",
							"name": "_rate",
							"type": "uint256[]"
						},
						{
							"internalType": "string",
							"name": "_title",
							"type": "string"
						},
						{
							"internalType": "uint256",
							"name": "_cliffPeriod",
							"type": "uint256"
						}
					],
					"name": "Lock",
					"outputs": [],
					"stateMutability": "payable",
					"type": "function"
				},
				{
					"inputs": [],
					"name": "adminForLock",
					"outputs": [
						{
							"internalType": "address",
							"name": "",
							"type": "address"
						}
					],
					"stateMutability": "view",
					"type": "function"
				},
				{
					"inputs": [],
					"name": "adminLockDetail",
					"outputs": [
						{
							"internalType": "string",
							"name": "LockTitle",
							"type": "string"
						},
						{
							"internalType": "uint256",
							"name": "ddl",
							"type": "uint256"
						},
						{
							"internalType": "uint256",
							"name": "startTime",
							"type": "uint256"
						},
						{
							"internalType": "address",
							"name": "admin",
							"type": "address"
						},
						{
							"internalType": "uint256",
							"name": "amount",
							"type": "uint256"
						},
						{
							"internalType": "uint256",
							"name": "unlockCycle",
							"type": "uint256"
						},
						{
							"internalType": "uint256",
							"name": "unlockRound",
							"type": "uint256"
						},
						{
							"internalType": "address",
							"name": "token",
							"type": "address"
						},
						{
							"internalType": "uint256",
							"name": "cliffPeriod",
							"type": "uint256"
						}
					],
					"stateMutability": "view",
					"type": "function"
				},
				{
					"inputs": [
						{
							"internalType": "uint256",
							"name": "userId",
							"type": "uint256"
						}
					],
					"name": "calculateClaimableAmount",
					"outputs": [
						{
							"internalType": "uint256",
							"name": "",
							"type": "uint256"
						}
					],
					"stateMutability": "view",
					"type": "function"
				},
				{
					"inputs": [
						{
							"internalType": "address",
							"name": "_to",
							"type": "address"
						}
					],
					"name": "changeLockAdmin",
					"outputs": [],
					"stateMutability": "nonpayable",
					"type": "function"
				},
				{
					"inputs": [],
					"name": "checkGroupMember",
					"outputs": [
						{
							"internalType": "address[]",
							"name": "",
							"type": "address[]"
						}
					],
					"stateMutability": "view",
					"type": "function"
				},
				{
					"inputs": [
						{
							"internalType": "uint256",
							"name": "_amount",
							"type": "uint256"
						}
					],
					"name": "claim",
					"outputs": [],
					"stateMutability": "nonpayable",
					"type": "function"
				},
				{
					"inputs": [
						{
							"internalType": "address",
							"name": "",
							"type": "address"
						}
					],
					"name": "claimed",
					"outputs": [
						{
							"internalType": "uint256",
							"name": "",
							"type": "uint256"
						}
					],
					"stateMutability": "view",
					"type": "function"
				},
				{
					"inputs": [],
					"name": "createUser",
					"outputs": [
						{
							"internalType": "address",
							"name": "",
							"type": "address"
						}
					],
					"stateMutability": "view",
					"type": "function"
				},
				{
					"inputs": [],
					"name": "factoryAddr",
					"outputs": [
						{
							"internalType": "address",
							"name": "",
							"type": "address"
						}
					],
					"stateMutability": "view",
					"type": "function"
				},
				{
					"inputs": [],
					"name": "feeAmount",
					"outputs": [
						{
							"internalType": "uint256",
							"name": "",
							"type": "uint256"
						}
					],
					"stateMutability": "view",
					"type": "function"
				},
				{
					"inputs": [],
					"name": "feeReceiver",
					"outputs": [
						{
							"internalType": "address",
							"name": "",
							"type": "address"
						}
					],
					"stateMutability": "view",
					"type": "function"
				},
				{
					"inputs": [],
					"name": "fireLockFeeTransfer",
					"outputs": [
						{
							"internalType": "address",
							"name": "",
							"type": "address"
						}
					],
					"stateMutability": "view",
					"type": "function"
				},
				{
					"inputs": [],
					"name": "getLockTitle",
					"outputs": [
						{
							"internalType": "string",
							"name": "",
							"type": "string"
						}
					],
					"stateMutability": "view",
					"type": "function"
				},
				{
					"inputs": [],
					"name": "getMember",
					"outputs": [
						{
							"internalType": "address[]",
							"name": "",
							"type": "address[]"
						}
					],
					"stateMutability": "view",
					"type": "function"
				},
				{
					"inputs": [],
					"name": "getMemberAmount",
					"outputs": [
						{
							"internalType": "uint256",
							"name": "",
							"type": "uint256"
						}
					],
					"stateMutability": "view",
					"type": "function"
				},
				{
					"inputs": [],
					"name": "getMemberRate",
					"outputs": [
						{
							"internalType": "uint256[]",
							"name": "",
							"type": "uint256[]"
						}
					],
					"stateMutability": "view",
					"type": "function"
				},
				{
					"inputs": [],
					"name": "getRecordLength",
					"outputs": [
						{
							"internalType": "uint256",
							"name": "",
							"type": "uint256"
						}
					],
					"stateMutability": "view",
					"type": "function"
				},
				{
					"inputs": [
						{
							"internalType": "address[]",
							"name": "addresses",
							"type": "address[]"
						}
					],
					"name": "isUnique",
					"outputs": [
						{
							"internalType": "bool",
							"name": "",
							"type": "bool"
						}
					],
					"stateMutability": "pure",
					"type": "function"
				},
				{
					"inputs": [
						{
							"internalType": "address",
							"name": "_user",
							"type": "address"
						}
					],
					"name": "isUserUnlock",
					"outputs": [
						{
							"internalType": "uint256",
							"name": "_userId",
							"type": "uint256"
						}
					],
					"stateMutability": "view",
					"type": "function"
				},
				{
					"inputs": [],
					"name": "lockStatus",
					"outputs": [
						{
							"internalType": "bool",
							"name": "",
							"type": "bool"
						}
					],
					"stateMutability": "view",
					"type": "function"
				},
				{
					"inputs": [
						{
							"internalType": "uint256",
							"name": "",
							"type": "uint256"
						}
					],
					"name": "record",
					"outputs": [
						{
							"internalType": "address",
							"name": "user",
							"type": "address"
						},
						{
							"internalType": "uint256",
							"name": "amount",
							"type": "uint256"
						},
						{
							"internalType": "uint256",
							"name": "time",
							"type": "uint256"
						}
					],
					"stateMutability": "view",
					"type": "function"
				},
				{
					"inputs": [
						{
							"internalType": "address",
							"name": "",
							"type": "address"
						}
					],
					"name": "remaining",
					"outputs": [
						{
							"internalType": "uint256",
							"name": "",
							"type": "uint256"
						}
					],
					"stateMutability": "view",
					"type": "function"
				},
				{
					"inputs": [
						{
							"internalType": "uint256",
							"name": "_id",
							"type": "uint256"
						},
						{
							"internalType": "address",
							"name": "_to",
							"type": "address"
						}
					],
					"name": "setLockMemberAddr",
					"outputs": [],
					"stateMutability": "nonpayable",
					"type": "function"
				},
				{
					"inputs": [
						{
							"internalType": "uint256[]",
							"name": "_rate",
							"type": "uint256[]"
						}
					],
					"name": "setMemberRate",
					"outputs": [],
					"stateMutability": "nonpayable",
					"type": "function"
				},
				{
					"inputs": [],
					"name": "totalAmount",
					"outputs": [
						{
							"internalType": "uint256",
							"name": "",
							"type": "uint256"
						}
					],
					"stateMutability": "view",
					"type": "function"
				},
				{
					"inputs": [],
					"name": "totalRate",
					"outputs": [
						{
							"internalType": "uint256",
							"name": "",
							"type": "uint256"
						}
					],
					"stateMutability": "view",
					"type": "function"
				},
				{
					"inputs": [],
					"name": "treasuryDistributionContract",
					"outputs": [
						{
							"internalType": "address",
							"name": "",
							"type": "address"
						}
					],
					"stateMutability": "view",
					"type": "function"
				},
				{
					"inputs": [],
					"name": "unlockStatus",
					"outputs": [
						{
							"internalType": "bool",
							"name": "",
							"type": "bool"
						}
					],
					"stateMutability": "view",
					"type": "function"
				},
				{
					"inputs": [
						{
							"internalType": "uint256[]",
							"name": "nums",
							"type": "uint256[]"
						}
					],
					"name": "validateSum",
					"outputs": [
						{
							"internalType": "bool",
							"name": "",
							"type": "bool"
						}
					],
					"stateMutability": "pure",
					"type": "function"
				},
				{
					"inputs": [],
					"name": "weth",
					"outputs": [
						{
							"internalType": "address",
							"name": "",
							"type": "address"
						}
					],
					"stateMutability": "view",
					"type": "function"
				}
			],
			"devdoc": {
				"kind": "dev",
				"methods": {},
				"version": 1
			},
			"evm": {
				"assembly": "    /* \"contracts/FireLock.sol\":1444:12958  contract FireLock {... */\n  mstore(0x40, 0x80)\n    /* \"contracts/FireLock.sol\":3003:3415  constructor(address _weth,address _fireLockFeeTransfer,address _treasuryDistributionContract,address _factoryAddr,address _createUser) {... */\n  callvalue\n  dup1\n  iszero\n  tag_1\n  jumpi\n  0x00\n  dup1\n  revert\ntag_1:\n  pop\n  mload(0x40)\n  sub(codesize, bytecodeSize)\n  dup1\n  bytecodeSize\n  dup4\n  codecopy\n  dup2\n  add\n  0x40\n  dup2\n  swap1\n  mstore\n  tag_2\n  swap2\n  tag_3\n  jump\t// in\ntag_2:\n    /* \"contracts/FireLock.sol\":3148:3152  weth */\n  0x00\n    /* \"contracts/FireLock.sol\":3148:3160  weth = _weth */\n  dup1\n  sload\n    /* \"contracts/FireLock.sol\":3148:3152  weth */\n  0x03\n    /* \"contracts/FireLock.sol\":3170:3212  fireLockFeeTransfer = _fireLockFeeTransfer */\n  dup1\n  sload\n  sub(shl(0xa0, 0x01), 0x01)\n  swap8\n  dup9\n  and\n  not(sub(shl(0xa0, 0x01), 0x01))\n  swap2\n  dup3\n  and\n  or\n  swap1\n  swap2\n  sstore\n    /* \"contracts/FireLock.sol\":3222:3250  treasuryDistributionContract */\n  0x02\n    /* \"contracts/FireLock.sol\":3222:3282  treasuryDistributionContract = _treasuryDistributionContract */\n  dup1\n  sload\n  swap7\n  dup9\n  and\n  swap7\n  dup3\n  and\n  swap7\n  swap1\n  swap7\n  or\n  swap1\n  swap6\n  sstore\n  0x01\n    /* \"contracts/FireLock.sol\":3292:3318  factoryAddr = _factoryAddr */\n  dup1\n  sload\n  swap5\n  dup8\n  and\n  swap5\n  dup7\n  and\n  swap5\n  swap1\n  swap5\n  or\n  swap1\n  swap4\n  sstore\n    /* \"contracts/FireLock.sol\":3328:3338  createUser */\n  0x05\n    /* \"contracts/FireLock.sol\":3328:3352  createUser = _createUser */\n  dup1\n  sload\n  swap3\n  dup7\n  and\n  swap3\n  swap1\n  swap5\n  and\n  swap2\n  swap1\n  swap2\n  or\n  swap1\n  swap3\n  sstore\n  not(0xff0000)\n  not(0xff00)\n    /* \"contracts/FireLock.sol\":3148:3160  weth = _weth */\n  swap4\n  swap1\n  swap5\n  and\n  0x01000000\n  mul\n    /* \"contracts/FireLock.sol\":3362:3379  lockStatus = true */\n  swap3\n  swap1\n  swap3\n  and\n  not(sub(shl(0xb8, 0x01), 0xff0100))\n  swap1\n  swap3\n  and\n  swap2\n  swap1\n  swap2\n  or\n    /* \"contracts/FireLock.sol\":3148:3160  weth = _weth */\n  0x0100\n    /* \"contracts/FireLock.sol\":3362:3379  lockStatus = true */\n  or\n    /* \"contracts/FireLock.sol\":3389:3408  unlockStatus = true */\n  swap2\n  swap1\n  swap2\n  and\n  0x010000\n  or\n  swap1\n  sstore\n    /* \"contracts/FireLock.sol\":1444:12958  contract FireLock {... */\n  jump(tag_8)\n    /* \"#utility.yul\":14:191   */\ntag_7:\n    /* \"#utility.yul\":93:106   */\n  dup1\n  mload\n  sub(shl(0xa0, 0x01), 0x01)\n    /* \"#utility.yul\":135:166   */\n  dup2\n  and\n    /* \"#utility.yul\":125:167   */\n  dup2\n  eq\n    /* \"#utility.yul\":115:185   */\n  tag_10\n  jumpi\n    /* \"#utility.yul\":181:182   */\n  0x00\n    /* \"#utility.yul\":178:179   */\n  dup1\n    /* \"#utility.yul\":171:183   */\n  revert\n    /* \"#utility.yul\":115:185   */\ntag_10:\n    /* \"#utility.yul\":14:191   */\n  swap2\n  swap1\n  pop\n  jump\t// out\n    /* \"#utility.yul\":196:746   */\ntag_3:\n    /* \"#utility.yul\":302:308   */\n  0x00\n    /* \"#utility.yul\":310:316   */\n  dup1\n    /* \"#utility.yul\":318:324   */\n  0x00\n    /* \"#utility.yul\":326:332   */\n  dup1\n    /* \"#utility.yul\":334:340   */\n  0x00\n    /* \"#utility.yul\":387:390   */\n  0xa0\n    /* \"#utility.yul\":375:384   */\n  dup7\n    /* \"#utility.yul\":366:373   */\n  dup9\n    /* \"#utility.yul\":362:385   */\n  sub\n    /* \"#utility.yul\":358:391   */\n  slt\n    /* \"#utility.yul\":355:408   */\n  iszero\n  tag_12\n  jumpi\n    /* \"#utility.yul\":404:405   */\n  0x00\n    /* \"#utility.yul\":401:402   */\n  dup1\n    /* \"#utility.yul\":394:406   */\n  revert\n    /* \"#utility.yul\":355:408   */\ntag_12:\n    /* \"#utility.yul\":427:467   */\n  tag_13\n    /* \"#utility.yul\":457:466   */\n  dup7\n    /* \"#utility.yul\":427:467   */\n  tag_7\n  jump\t// in\ntag_13:\n    /* \"#utility.yul\":417:467   */\n  swap5\n  pop\n    /* \"#utility.yul\":486:535   */\n  tag_14\n    /* \"#utility.yul\":531:533   */\n  0x20\n    /* \"#utility.yul\":520:529   */\n  dup8\n    /* \"#utility.yul\":516:534   */\n  add\n    /* \"#utility.yul\":486:535   */\n  tag_7\n  jump\t// in\ntag_14:\n    /* \"#utility.yul\":476:535   */\n  swap4\n  pop\n    /* \"#utility.yul\":554:603   */\n  tag_15\n    /* \"#utility.yul\":599:601   */\n  0x40\n    /* \"#utility.yul\":588:597   */\n  dup8\n    /* \"#utility.yul\":584:602   */\n  add\n    /* \"#utility.yul\":554:603   */\n  tag_7\n  jump\t// in\ntag_15:\n    /* \"#utility.yul\":544:603   */\n  swap3\n  pop\n    /* \"#utility.yul\":622:671   */\n  tag_16\n    /* \"#utility.yul\":667:669   */\n  0x60\n    /* \"#utility.yul\":656:665   */\n  dup8\n    /* \"#utility.yul\":652:670   */\n  add\n    /* \"#utility.yul\":622:671   */\n  tag_7\n  jump\t// in\ntag_16:\n    /* \"#utility.yul\":612:671   */\n  swap2\n  pop\n    /* \"#utility.yul\":690:740   */\n  tag_17\n    /* \"#utility.yul\":735:738   */\n  0x80\n    /* \"#utility.yul\":724:733   */\n  dup8\n    /* \"#utility.yul\":720:739   */\n  add\n    /* \"#utility.yul\":690:740   */\n  tag_7\n  jump\t// in\ntag_17:\n    /* \"#utility.yul\":680:740   */\n  swap1\n  pop\n    /* \"#utility.yul\":196:746   */\n  swap3\n  swap6\n  pop\n  swap3\n  swap6\n  swap1\n  swap4\n  pop\n  jump\t// out\ntag_8:\n    /* \"contracts/FireLock.sol\":1444:12958  contract FireLock {... */\n  dataSize(sub_0)\n  dup1\n  dataOffset(sub_0)\n  0x00\n  codecopy\n  0x00\n  return\nstop\n\nsub_0: assembly {\n        /* \"contracts/FireLock.sol\":1444:12958  contract FireLock {... */\n      mstore(0x40, 0x80)\n      jumpi(tag_1, lt(calldatasize, 0x04))\n      shr(0xe0, calldataload(0x00))\n      dup1\n      0x6197d885\n      gt\n      tag_33\n      jumpi\n      dup1\n      0xb3f00674\n      gt\n      tag_34\n      jumpi\n      dup1\n      0xcd84cbff\n      gt\n      tag_35\n      jumpi\n      dup1\n      0xcd84cbff\n      eq\n      tag_29\n      jumpi\n      dup1\n      0xe3840bc1\n      eq\n      tag_30\n      jumpi\n      dup1\n      0xe70efbfd\n      eq\n      tag_31\n      jumpi\n      dup1\n      0xf32f3678\n      eq\n      tag_32\n      jumpi\n      0x00\n      dup1\n      revert\n    tag_35:\n      dup1\n      0xb3f00674\n      eq\n      tag_25\n      jumpi\n      dup1\n      0xbbd99dbc\n      eq\n      tag_26\n      jumpi\n      dup1\n      0xbe241531\n      eq\n      tag_2\n      jumpi\n      dup1\n      0xc884ef83\n      eq\n      tag_28\n      jumpi\n      0x00\n      dup1\n      revert\n    tag_34:\n      dup1\n      0x88576cfa\n      gt\n      tag_36\n      jumpi\n      dup1\n      0x88576cfa\n      eq\n      tag_21\n      jumpi\n      dup1\n      0x8c6abbee\n      eq\n      tag_22\n      jumpi\n      dup1\n      0x963671be\n      eq\n      tag_23\n      jumpi\n      dup1\n      0xb399b0bc\n      eq\n      tag_24\n      jumpi\n      0x00\n      dup1\n      revert\n    tag_36:\n      dup1\n      0x6197d885\n      eq\n      tag_17\n      jumpi\n      dup1\n      0x69e15404\n      eq\n      tag_18\n      jumpi\n      dup1\n      0x77fd0348\n      eq\n      tag_19\n      jumpi\n      dup1\n      0x822d2ef7\n      eq\n      tag_20\n      jumpi\n      0x00\n      dup1\n      revert\n    tag_33:\n      dup1\n      0x2fa9083a\n      gt\n      tag_37\n      jumpi\n      dup1\n      0x3fc8cef3\n      gt\n      tag_38\n      jumpi\n      dup1\n      0x3fc8cef3\n      eq\n      tag_13\n      jumpi\n      dup1\n      0x42a66f68\n      eq\n      tag_14\n      jumpi\n      dup1\n      0x46be42fa\n      eq\n      tag_15\n      jumpi\n      dup1\n      0x5ca04266\n      eq\n      tag_16\n      jumpi\n      0x00\n      dup1\n      revert\n    tag_38:\n      dup1\n      0x2fa9083a\n      eq\n      tag_9\n      jumpi\n      dup1\n      0x2fb9e41f\n      eq\n      tag_10\n      jumpi\n      dup1\n      0x379607f5\n      eq\n      tag_11\n      jumpi\n      dup1\n      0x3e89340f\n      eq\n      tag_12\n      jumpi\n      0x00\n      dup1\n      revert\n    tag_37:\n      dup1\n      0x25ad91ce\n      gt\n      tag_39\n      jumpi\n      dup1\n      0x25ad91ce\n      eq\n      tag_5\n      jumpi\n      dup1\n      0x27b2a9e6\n      eq\n      tag_6\n      jumpi\n      dup1\n      0x2c16cd8a\n      eq\n      tag_7\n      jumpi\n      dup1\n      0x2e468b7e\n      eq\n      tag_8\n      jumpi\n      0x00\n      dup1\n      revert\n    tag_39:\n      dup1\n      0x0274c094\n      eq\n      tag_2\n      jumpi\n      dup1\n      0x07802414\n      eq\n      tag_3\n      jumpi\n      dup1\n      0x1a39d8ef\n      eq\n      tag_4\n      jumpi\n    tag_1:\n      0x00\n      dup1\n      revert\n        /* \"contracts/FireLock.sol\":12523:12628  function getMember() public view returns(address[] memory) {... */\n    tag_2:\n      callvalue\n      dup1\n      iszero\n      tag_40\n      jumpi\n      0x00\n      dup1\n      revert\n    tag_40:\n      pop\n      tag_41\n      tag_42\n      jump\t// in\n    tag_41:\n      mload(0x40)\n      tag_43\n      swap2\n      swap1\n      tag_44\n      jump\t// in\n    tag_43:\n      mload(0x40)\n      dup1\n      swap2\n      sub\n      swap1\n      return\n        /* \"contracts/FireLock.sol\":2381:2414  LockDetail public adminLockDetail */\n    tag_3:\n      callvalue\n      dup1\n      iszero\n      tag_45\n      jumpi\n      0x00\n      dup1\n      revert\n    tag_45:\n      pop\n      tag_46\n      tag_47\n      jump\t// in\n    tag_46:\n      mload(0x40)\n      tag_43\n      swap10\n      swap9\n      swap8\n      swap7\n      swap6\n      swap5\n      swap4\n      swap3\n      swap2\n      swap1\n      tag_49\n      jump\t// in\n        /* \"contracts/FireLock.sol\":2319:2345  uint256 public totalAmount */\n    tag_4:\n      callvalue\n      dup1\n      iszero\n      tag_50\n      jumpi\n      0x00\n      dup1\n      revert\n    tag_50:\n      pop\n      tag_51\n      sload(0x06)\n      dup2\n      jump\n    tag_51:\n      mload(0x40)\n        /* \"#utility.yul\":2230:2255   */\n      swap1\n      dup2\n      mstore\n        /* \"#utility.yul\":2218:2220   */\n      0x20\n        /* \"#utility.yul\":2203:2221   */\n      add\n        /* \"contracts/FireLock.sol\":2319:2345  uint256 public totalAmount */\n      tag_43\n        /* \"#utility.yul\":2084:2261   */\n      jump\n        /* \"contracts/FireLock.sol\":2288:2313  address public createUser */\n    tag_5:\n      callvalue\n      dup1\n      iszero\n      tag_55\n      jumpi\n      0x00\n      dup1\n      revert\n    tag_55:\n      pop\n      sload(0x05)\n      tag_56\n      swap1\n      sub(shl(0xa0, 0x01), 0x01)\n      and\n      dup2\n      jump\n    tag_56:\n      mload(0x40)\n      sub(shl(0xa0, 0x01), 0x01)\n        /* \"#utility.yul\":2430:2462   */\n      swap1\n      swap2\n      and\n        /* \"#utility.yul\":2412:2463   */\n      dup2\n      mstore\n        /* \"#utility.yul\":2400:2402   */\n      0x20\n        /* \"#utility.yul\":2385:2403   */\n      add\n        /* \"contracts/FireLock.sol\":2288:2313  address public createUser */\n      tag_43\n        /* \"#utility.yul\":2266:2469   */\n      jump\n        /* \"contracts/FireLock.sol\":2255:2282  address public adminForLock */\n    tag_6:\n      callvalue\n      dup1\n      iszero\n      tag_60\n      jumpi\n      0x00\n      dup1\n      revert\n    tag_60:\n      pop\n      sload(0x04)\n      tag_56\n      swap1\n      sub(shl(0xa0, 0x01), 0x01)\n      and\n      dup2\n      jump\n        /* \"contracts/FireLock.sol\":2420:2448  unLockRecord[] public record */\n    tag_7:\n      callvalue\n      dup1\n      iszero\n      tag_64\n      jumpi\n      0x00\n      dup1\n      revert\n    tag_64:\n      pop\n      tag_65\n      tag_66\n      calldatasize\n      0x04\n      tag_67\n      jump\t// in\n    tag_66:\n      tag_68\n      jump\t// in\n    tag_65:\n      0x40\n      dup1\n      mload\n      sub(shl(0xa0, 0x01), 0x01)\n        /* \"#utility.yul\":2879:2911   */\n      swap1\n      swap5\n      and\n        /* \"#utility.yul\":2861:2912   */\n      dup5\n      mstore\n        /* \"#utility.yul\":2943:2945   */\n      0x20\n        /* \"#utility.yul\":2928:2946   */\n      dup5\n      add\n        /* \"#utility.yul\":2921:2955   */\n      swap3\n      swap1\n      swap3\n      mstore\n        /* \"#utility.yul\":2971:2989   */\n      swap1\n      dup3\n      add\n        /* \"#utility.yul\":2964:2998   */\n      mstore\n        /* \"#utility.yul\":2849:2851   */\n      0x60\n        /* \"#utility.yul\":2834:2852   */\n      add\n        /* \"contracts/FireLock.sol\":2420:2448  unLockRecord[] public record */\n      tag_43\n        /* \"#utility.yul\":2659:3004   */\n      jump\n        /* \"contracts/FireLock.sol\":9935:10677  function setLockMemberAddr(uint256 _id, address _to) public  unlock {... */\n    tag_8:\n      callvalue\n      dup1\n      iszero\n      tag_71\n      jumpi\n      0x00\n      dup1\n      revert\n    tag_71:\n      pop\n      tag_72\n      tag_73\n      calldatasize\n      0x04\n      tag_74\n      jump\t// in\n    tag_73:\n      tag_75\n      jump\t// in\n    tag_72:\n      stop\n        /* \"contracts/FireLock.sol\":12745:12856  function getMemberAmount() external view returns(uint256) {... */\n    tag_9:\n      callvalue\n      dup1\n      iszero\n      tag_76\n      jumpi\n      0x00\n      dup1\n      revert\n    tag_76:\n      pop\n        /* \"contracts/FireLock.sol\":12820:12842  adminLockDetail.member */\n      0x11\n        /* \"contracts/FireLock.sol\":12820:12849  adminLockDetail.member.length */\n      sload\n        /* \"contracts/FireLock.sol\":12745:12856  function getMemberAmount() external view returns(uint256) {... */\n      jump(tag_51)\n        /* \"contracts/FireLock.sol\":2079:2103  bool public unlockStatus */\n    tag_10:\n      callvalue\n      dup1\n      iszero\n      tag_80\n      jumpi\n      0x00\n      dup1\n      revert\n    tag_80:\n      pop\n      sload(0x00)\n      tag_81\n      swap1\n      0x010000\n      swap1\n      div\n      0xff\n      and\n      dup2\n      jump\n    tag_81:\n      mload(0x40)\n        /* \"#utility.yul\":3769:3783   */\n      swap1\n      iszero\n        /* \"#utility.yul\":3762:3784   */\n      iszero\n        /* \"#utility.yul\":3744:3785   */\n      dup2\n      mstore\n        /* \"#utility.yul\":3732:3734   */\n      0x20\n        /* \"#utility.yul\":3717:3735   */\n      add\n        /* \"contracts/FireLock.sol\":2079:2103  bool public unlockStatus */\n      tag_43\n        /* \"#utility.yul\":3604:3791   */\n      jump\n        /* \"contracts/FireLock.sol\":7177:8959  function claim(uint256 _amount) public nonReentrant unlock {... */\n    tag_11:\n      callvalue\n      dup1\n      iszero\n      tag_85\n      jumpi\n      0x00\n      dup1\n      revert\n    tag_85:\n      pop\n      tag_72\n      tag_87\n      calldatasize\n      0x04\n      tag_67\n      jump\t// in\n    tag_87:\n      tag_88\n      jump\t// in\n        /* \"contracts/FireLock.sol\":2051:2073  bool public lockStatus */\n    tag_12:\n      callvalue\n      dup1\n      iszero\n      tag_89\n      jumpi\n      0x00\n      dup1\n      revert\n    tag_89:\n      pop\n      sload(0x00)\n      tag_81\n      swap1\n      0x0100\n      swap1\n      div\n      0xff\n      and\n      dup2\n      jump\n        /* \"contracts/FireLock.sol\":2109:2128  address public weth */\n    tag_13:\n      callvalue\n      dup1\n      iszero\n      tag_93\n      jumpi\n      0x00\n      dup1\n      revert\n    tag_93:\n      pop\n      sload(0x00)\n      tag_56\n      swap1\n      0x01000000\n      swap1\n      div\n      sub(shl(0xa0, 0x01), 0x01)\n      and\n      dup2\n      jump\n        /* \"contracts/FireLock.sol\":2351:2375  uint256 public totalRate */\n    tag_14:\n      callvalue\n      dup1\n      iszero\n      tag_97\n      jumpi\n      0x00\n      dup1\n      revert\n    tag_97:\n      pop\n      tag_51\n      sload(0x07)\n      dup2\n      jump\n        /* \"contracts/FireLock.sol\":11290:12130  function calculateClaimableAmount(uint256 userId) public view returns(uint256) {... */\n    tag_15:\n      callvalue\n      dup1\n      iszero\n      tag_101\n      jumpi\n      0x00\n      dup1\n      revert\n    tag_101:\n      pop\n      tag_51\n      tag_103\n      calldatasize\n      0x04\n      tag_67\n      jump\t// in\n    tag_103:\n      tag_104\n      jump\t// in\n        /* \"contracts/FireLock.sol\":12861:12956  function getRecordLength() external view returns(uint256) {... */\n    tag_16:\n      callvalue\n      dup1\n      iszero\n      tag_106\n      jumpi\n      0x00\n      dup1\n      revert\n    tag_106:\n      pop\n        /* \"contracts/FireLock.sol\":12936:12942  record */\n      0x13\n        /* \"contracts/FireLock.sol\":12936:12949  record.length */\n      sload\n        /* \"contracts/FireLock.sol\":12861:12956  function getRecordLength() external view returns(uint256) {... */\n      jump(tag_51)\n        /* \"contracts/FireLock.sol\":12633:12740  function getMemberRate() public view returns(uint256[] memory) {... */\n    tag_17:\n      callvalue\n      dup1\n      iszero\n      tag_110\n      jumpi\n      0x00\n      dup1\n      revert\n    tag_110:\n      pop\n      tag_111\n      tag_112\n      jump\t// in\n    tag_111:\n      mload(0x40)\n      tag_43\n      swap2\n      swap1\n      tag_114\n      jump\t// in\n        /* \"contracts/FireLock.sol\":12254:12378  function feeAmount() public view returns(uint256) {... */\n    tag_18:\n      callvalue\n      dup1\n      iszero\n      tag_115\n      jumpi\n      0x00\n      dup1\n      revert\n    tag_115:\n      pop\n      tag_51\n      tag_117\n      jump\t// in\n        /* \"contracts/FireLock.sol\":4247:6856  function Lock(... */\n    tag_19:\n      tag_72\n      tag_120\n      calldatasize\n      0x04\n      tag_121\n      jump\t// in\n    tag_120:\n      tag_122\n      jump\t// in\n        /* \"contracts/FireLock.sol\":10802:11281  function setMemberRate(uint[] memory _rate) public {... */\n    tag_20:\n      callvalue\n      dup1\n      iszero\n      tag_123\n      jumpi\n      0x00\n      dup1\n      revert\n    tag_123:\n      pop\n      tag_72\n      tag_125\n      calldatasize\n      0x04\n      tag_126\n      jump\t// in\n    tag_125:\n      tag_127\n      jump\t// in\n        /* \"contracts/FireLock.sol\":12137:12245  function getLockTitle() public view returns(string memory) {... */\n    tag_21:\n      callvalue\n      dup1\n      iszero\n      tag_128\n      jumpi\n      0x00\n      dup1\n      revert\n    tag_128:\n      pop\n      tag_129\n      tag_130\n      jump\t// in\n    tag_129:\n      mload(0x40)\n      tag_43\n      swap2\n      swap1\n      tag_132\n      jump\t// in\n        /* \"contracts/FireLock.sol\":3711:4076  function isUnique(address[] memory addresses) public pure returns (bool) {... */\n    tag_22:\n      callvalue\n      dup1\n      iszero\n      tag_133\n      jumpi\n      0x00\n      dup1\n      revert\n    tag_133:\n      pop\n      tag_81\n      tag_135\n      calldatasize\n      0x04\n      tag_136\n      jump\t// in\n    tag_135:\n      tag_137\n      jump\t// in\n        /* \"contracts/FireLock.sol\":2134:2160  address public factoryAddr */\n    tag_23:\n      callvalue\n      dup1\n      iszero\n      tag_139\n      jumpi\n      0x00\n      dup1\n      revert\n    tag_139:\n      pop\n      sload(0x01)\n      tag_56\n      swap1\n      sub(shl(0xa0, 0x01), 0x01)\n      and\n      dup2\n      jump\n        /* \"contracts/FireLock.sol\":2552:2596  mapping(address => uint256) public remaining */\n    tag_24:\n      callvalue\n      dup1\n      iszero\n      tag_143\n      jumpi\n      0x00\n      dup1\n      revert\n    tag_143:\n      pop\n      tag_51\n      tag_145\n      calldatasize\n      0x04\n      tag_146\n      jump\t// in\n    tag_145:\n      mstore(0x20, 0x16)\n      0x00\n      swap1\n      dup2\n      mstore\n      0x40\n      swap1\n      keccak256\n      sload\n      dup2\n      jump\n        /* \"contracts/FireLock.sol\":12383:12513  function feeReceiver() public view returns(address) {... */\n    tag_25:\n      callvalue\n      dup1\n      iszero\n      tag_149\n      jumpi\n      0x00\n      dup1\n      revert\n    tag_149:\n      pop\n      tag_56\n      tag_151\n      jump\t// in\n        /* \"contracts/FireLock.sol\":6858:7174  function isUserUnlock(address _user) public view returns(uint256 _userId) {... */\n    tag_26:\n      callvalue\n      dup1\n      iszero\n      tag_153\n      jumpi\n      0x00\n      dup1\n      revert\n    tag_153:\n      pop\n      tag_51\n      tag_155\n      calldatasize\n      0x04\n      tag_146\n      jump\t// in\n    tag_155:\n      tag_156\n      jump\t// in\n        /* \"contracts/FireLock.sol\":2454:2496  mapping(address => uint256) public claimed */\n    tag_28:\n      callvalue\n      dup1\n      iszero\n      tag_162\n      jumpi\n      0x00\n      dup1\n      revert\n    tag_162:\n      pop\n      tag_51\n      tag_164\n      calldatasize\n      0x04\n      tag_146\n      jump\t// in\n    tag_164:\n      mstore(0x20, 0x14)\n      0x00\n      swap1\n      dup2\n      mstore\n      0x40\n      swap1\n      keccak256\n      sload\n      dup2\n      jump\n        /* \"contracts/FireLock.sol\":3421:3705  function validateSum(uint[] memory nums) public pure returns (bool) {... */\n    tag_29:\n      callvalue\n      dup1\n      iszero\n      tag_167\n      jumpi\n      0x00\n      dup1\n      revert\n    tag_167:\n      pop\n      tag_81\n      tag_169\n      calldatasize\n      0x04\n      tag_126\n      jump\t// in\n    tag_169:\n      tag_170\n      jump\t// in\n        /* \"contracts/FireLock.sol\":2166:2209  address public treasuryDistributionContract */\n    tag_30:\n      callvalue\n      dup1\n      iszero\n      tag_172\n      jumpi\n      0x00\n      dup1\n      revert\n    tag_172:\n      pop\n      sload(0x02)\n      tag_56\n      swap1\n      sub(shl(0xa0, 0x01), 0x01)\n      and\n      dup2\n      jump\n        /* \"contracts/FireLock.sol\":9211:9665  function changeLockAdmin(address _to) public  {... */\n    tag_31:\n      callvalue\n      dup1\n      iszero\n      tag_176\n      jumpi\n      0x00\n      dup1\n      revert\n    tag_176:\n      pop\n      tag_72\n      tag_178\n      calldatasize\n      0x04\n      tag_146\n      jump\t// in\n    tag_178:\n      tag_179\n      jump\t// in\n        /* \"contracts/FireLock.sol\":2215:2249  address public fireLockFeeTransfer */\n    tag_32:\n      callvalue\n      dup1\n      iszero\n      tag_180\n      jumpi\n      0x00\n      dup1\n      revert\n    tag_180:\n      pop\n      sload(0x03)\n      tag_56\n      swap1\n      sub(shl(0xa0, 0x01), 0x01)\n      and\n      dup2\n      jump\n        /* \"contracts/FireLock.sol\":12523:12628  function getMember() public view returns(address[] memory) {... */\n    tag_42:\n        /* \"contracts/FireLock.sol\":12564:12580  address[] memory */\n      0x60\n        /* \"contracts/FireLock.sol\":12599:12614  adminLockDetail */\n      0x08\n        /* \"contracts/FireLock.sol\":12599:12621  adminLockDetail.member */\n      0x09\n      add\n        /* \"contracts/FireLock.sol\":12592:12621  return adminLockDetail.member */\n      dup1\n      sload\n      dup1\n      0x20\n      mul\n      0x20\n      add\n      mload(0x40)\n      swap1\n      dup2\n      add\n      0x40\n      mstore\n      dup1\n      swap3\n      swap2\n      swap1\n      dup2\n      dup2\n      mstore\n      0x20\n      add\n      dup3\n      dup1\n      sload\n      dup1\n      iszero\n      tag_185\n      jumpi\n      0x20\n      mul\n      dup3\n      add\n      swap2\n      swap1\n      0x00\n      mstore\n      keccak256(0x00, 0x20)\n      swap1\n    tag_186:\n      dup2\n      sload\n      sub(shl(0xa0, 0x01), 0x01)\n      and\n      dup2\n      mstore\n      0x01\n      swap1\n      swap2\n      add\n      swap1\n      0x20\n      add\n      dup1\n      dup4\n      gt\n      tag_186\n      jumpi\n    tag_185:\n      pop\n      pop\n      pop\n      pop\n      pop\n      swap1\n      pop\n        /* \"contracts/FireLock.sol\":12523:12628  function getMember() public view returns(address[] memory) {... */\n      swap1\n      jump\t// out\n        /* \"contracts/FireLock.sol\":2381:2414  LockDetail public adminLockDetail */\n    tag_47:\n      0x08\n      dup1\n      sload\n      dup2\n      swap1\n      tag_187\n      swap1\n      tag_188\n      jump\t// in\n    tag_187:\n      dup1\n      0x1f\n      add\n      0x20\n      dup1\n      swap2\n      div\n      mul\n      0x20\n      add\n      mload(0x40)\n      swap1\n      dup2\n      add\n      0x40\n      mstore\n      dup1\n      swap3\n      swap2\n      swap1\n      dup2\n      dup2\n      mstore\n      0x20\n      add\n      dup3\n      dup1\n      sload\n      tag_189\n      swap1\n      tag_188\n      jump\t// in\n    tag_189:\n      dup1\n      iszero\n      tag_190\n      jumpi\n      dup1\n      0x1f\n      lt\n      tag_191\n      jumpi\n      0x0100\n      dup1\n      dup4\n      sload\n      div\n      mul\n      dup4\n      mstore\n      swap2\n      0x20\n      add\n      swap2\n      jump(tag_190)\n    tag_191:\n      dup3\n      add\n      swap2\n      swap1\n      0x00\n      mstore\n      keccak256(0x00, 0x20)\n      swap1\n    tag_192:\n      dup2\n      sload\n      dup2\n      mstore\n      swap1\n      0x01\n      add\n      swap1\n      0x20\n      add\n      dup1\n      dup4\n      gt\n      tag_192\n      jumpi\n      dup3\n      swap1\n      sub\n      0x1f\n      and\n      dup3\n      add\n      swap2\n    tag_190:\n      pop\n      pop\n      pop\n      0x01\n      dup5\n      add\n      sload\n      0x02\n      dup6\n      add\n      sload\n      0x03\n      dup7\n      add\n      sload\n      0x04\n      dup8\n      add\n      sload\n      0x05\n      dup9\n      add\n      sload\n      0x06\n      dup10\n      add\n      sload\n      0x08\n      dup11\n      add\n      sload\n      0x0a\n      swap1\n      swap11\n      add\n      sload\n      swap9\n      swap10\n      swap6\n      swap9\n      swap5\n      swap8\n      pop\n      sub(shl(0xa0, 0x01), 0x01)\n      swap4\n      dup5\n      and\n      swap7\n      pop\n      swap2\n      swap5\n      swap1\n      swap4\n      swap2\n      swap3\n      and\n      swap1\n      dup10\n      jump\t// out\n        /* \"contracts/FireLock.sol\":2420:2448  unLockRecord[] public record */\n    tag_68:\n      0x13\n      dup2\n      dup2\n      sload\n      dup2\n      lt\n      tag_193\n      jumpi\n      0x00\n      dup1\n      revert\n    tag_193:\n      0x00\n      swap2\n      dup3\n      mstore\n      0x20\n      swap1\n      swap2\n      keccak256\n      0x03\n      swap1\n      swap2\n      mul\n      add\n      dup1\n      sload\n      0x01\n      dup3\n      add\n      sload\n      0x02\n      swap1\n      swap3\n      add\n      sload\n      sub(shl(0xa0, 0x01), 0x01)\n      swap1\n      swap2\n      and\n      swap3\n      pop\n      dup4\n      jump\t// out\n        /* \"contracts/FireLock.sol\":9935:10677  function setLockMemberAddr(uint256 _id, address _to) public  unlock {... */\n    tag_75:\n        /* \"contracts/FireLock.sol\":2751:2763  unlockStatus */\n      sload(0x00)\n      0x010000\n      swap1\n      div\n      0xff\n      and\n        /* \"contracts/FireLock.sol\":2743:2812  require(unlockStatus,\"FireLock: The contract has already terminated\") */\n      tag_196\n      jumpi\n      mload(0x40)\n      shl(0xe5, 0x461bcd)\n      dup2\n      mstore\n      0x04\n      add\n      tag_197\n      swap1\n      tag_198\n      jump\t// in\n    tag_197:\n      mload(0x40)\n      dup1\n      swap2\n      sub\n      swap1\n      revert\n    tag_196:\n        /* \"contracts/FireLock.sol\":10017:10032  isNotExist(_to) */\n      tag_200\n        /* \"contracts/FireLock.sol\":10028:10031  _to */\n      dup2\n        /* \"contracts/FireLock.sol\":10017:10027  isNotExist */\n      tag_201\n        /* \"contracts/FireLock.sol\":10017:10032  isNotExist(_to) */\n      jump\t// in\n    tag_200:\n        /* \"contracts/FireLock.sol\":10009:10067  require(isNotExist(_to), \"FireLock: the address is exist\") */\n      tag_202\n      jumpi\n      mload(0x40)\n      shl(0xe5, 0x461bcd)\n      dup2\n      mstore\n        /* \"#utility.yul\":10388:10390   */\n      0x20\n        /* \"contracts/FireLock.sol\":10009:10067  require(isNotExist(_to), \"FireLock: the address is exist\") */\n      0x04\n      dup3\n      add\n        /* \"#utility.yul\":10370:10391   */\n      mstore\n        /* \"#utility.yul\":10427:10429   */\n      0x1e\n        /* \"#utility.yul\":10407:10425   */\n      0x24\n      dup3\n      add\n        /* \"#utility.yul\":10400:10430   */\n      mstore\n        /* \"#utility.yul\":10466:10498   */\n      0x466972654c6f636b3a2074686520616464726573732069732065786973740000\n        /* \"#utility.yul\":10446:10464   */\n      0x44\n      dup3\n      add\n        /* \"#utility.yul\":10439:10499   */\n      mstore\n        /* \"#utility.yul\":10516:10534   */\n      0x64\n      add\n        /* \"contracts/FireLock.sol\":10009:10067  require(isNotExist(_to), \"FireLock: the address is exist\") */\n      tag_197\n        /* \"#utility.yul\":10186:10540   */\n      jump\n        /* \"contracts/FireLock.sol\":10009:10067  require(isNotExist(_to), \"FireLock: the address is exist\") */\n    tag_202:\n      sub(shl(0xa0, 0x01), 0x01)\n        /* \"contracts/FireLock.sol\":10081:10098  _to != address(0) */\n      dup2\n      and\n        /* \"contracts/FireLock.sol\":10073:10141  require(_to != address(0),\"FireLock: the address zero is not allow\") */\n      tag_205\n      jumpi\n      mload(0x40)\n      shl(0xe5, 0x461bcd)\n      dup2\n      mstore\n        /* \"#utility.yul\":10747:10749   */\n      0x20\n        /* \"contracts/FireLock.sol\":10073:10141  require(_to != address(0),\"FireLock: the address zero is not allow\") */\n      0x04\n      dup3\n      add\n        /* \"#utility.yul\":10729:10750   */\n      mstore\n        /* \"#utility.yul\":10786:10788   */\n      0x27\n        /* \"#utility.yul\":10766:10784   */\n      0x24\n      dup3\n      add\n        /* \"#utility.yul\":10759:10789   */\n      mstore\n        /* \"#utility.yul\":10825:10859   */\n      0x466972654c6f636b3a207468652061646472657373207a65726f206973206e6f\n        /* \"#utility.yul\":10805:10823   */\n      0x44\n      dup3\n      add\n        /* \"#utility.yul\":10798:10860   */\n      mstore\n      shl(0xc8, 0x7420616c6c6f77)\n        /* \"#utility.yul\":10876:10894   */\n      0x64\n      dup3\n      add\n        /* \"#utility.yul\":10869:10906   */\n      mstore\n        /* \"#utility.yul\":10923:10942   */\n      0x84\n      add\n        /* \"contracts/FireLock.sol\":10073:10141  require(_to != address(0),\"FireLock: the address zero is not allow\") */\n      tag_197\n        /* \"#utility.yul\":10545:10948   */\n      jump\n        /* \"contracts/FireLock.sol\":10073:10141  require(_to != address(0),\"FireLock: the address zero is not allow\") */\n    tag_205:\n        /* \"contracts/FireLock.sol\":10155:10177  adminLockDetail.member */\n      0x11\n        /* \"contracts/FireLock.sol\":10155:10184  adminLockDetail.member.length */\n      sload\n        /* \"contracts/FireLock.sol\":10147:10220  require(adminLockDetail.member.length > 0, \"FireLock: user amount error\") */\n      tag_208\n      jumpi\n      mload(0x40)\n      shl(0xe5, 0x461bcd)\n      dup2\n      mstore\n        /* \"#utility.yul\":11155:11157   */\n      0x20\n        /* \"contracts/FireLock.sol\":10147:10220  require(adminLockDetail.member.length > 0, \"FireLock: user amount error\") */\n      0x04\n      dup3\n      add\n        /* \"#utility.yul\":11137:11158   */\n      mstore\n        /* \"#utility.yul\":11194:11196   */\n      0x1b\n        /* \"#utility.yul\":11174:11192   */\n      0x24\n      dup3\n      add\n        /* \"#utility.yul\":11167:11197   */\n      mstore\n        /* \"#utility.yul\":11233:11262   */\n      0x466972654c6f636b3a207573657220616d6f756e74206572726f720000000000\n        /* \"#utility.yul\":11213:11231   */\n      0x44\n      dup3\n      add\n        /* \"#utility.yul\":11206:11263   */\n      mstore\n        /* \"#utility.yul\":11280:11298   */\n      0x64\n      add\n        /* \"contracts/FireLock.sol\":10147:10220  require(adminLockDetail.member.length > 0, \"FireLock: user amount error\") */\n      tag_197\n        /* \"#utility.yul\":10953:11304   */\n      jump\n        /* \"contracts/FireLock.sol\":10147:10220  require(adminLockDetail.member.length > 0, \"FireLock: user amount error\") */\n    tag_208:\n        /* \"contracts/FireLock.sol\":10248:10269  adminLockDetail.admin */\n      and(sub(shl(0xa0, 0x01), 0x01), sload(0x0b))\n        /* \"contracts/FireLock.sol\":10234:10244  msg.sender */\n      caller\n        /* \"contracts/FireLock.sol\":10234:10269  msg.sender == adminLockDetail.admin */\n      eq\n        /* \"contracts/FireLock.sol\":10226:10270  require(msg.sender == adminLockDetail.admin) */\n      tag_211\n      jumpi\n      0x00\n      dup1\n      revert\n    tag_211:\n        /* \"contracts/FireLock.sol\":10290:10312  adminLockDetail.member */\n      0x11\n        /* \"contracts/FireLock.sol\":10290:10319  adminLockDetail.member.length */\n      sload\n        /* \"contracts/FireLock.sol\":10284:10319  _id < adminLockDetail.member.length */\n      dup3\n      lt\n        /* \"contracts/FireLock.sol\":10276:10351  require(_id < adminLockDetail.member.length, \"FireLock: Invalid member ID\") */\n      tag_212\n      jumpi\n      mload(0x40)\n      shl(0xe5, 0x461bcd)\n      dup2\n      mstore\n        /* \"#utility.yul\":11511:11513   */\n      0x20\n        /* \"contracts/FireLock.sol\":10276:10351  require(_id < adminLockDetail.member.length, \"FireLock: Invalid member ID\") */\n      0x04\n      dup3\n      add\n        /* \"#utility.yul\":11493:11514   */\n      mstore\n        /* \"#utility.yul\":11550:11552   */\n      0x1b\n        /* \"#utility.yul\":11530:11548   */\n      0x24\n      dup3\n      add\n        /* \"#utility.yul\":11523:11553   */\n      mstore\n        /* \"#utility.yul\":11589:11618   */\n      0x466972654c6f636b3a20496e76616c6964206d656d6265722049440000000000\n        /* \"#utility.yul\":11569:11587   */\n      0x44\n      dup3\n      add\n        /* \"#utility.yul\":11562:11619   */\n      mstore\n        /* \"#utility.yul\":11636:11654   */\n      0x64\n      add\n        /* \"contracts/FireLock.sol\":10276:10351  require(_id < adminLockDetail.member.length, \"FireLock: Invalid member ID\") */\n      tag_197\n        /* \"#utility.yul\":11309:11660   */\n      jump\n        /* \"contracts/FireLock.sol\":10276:10351  require(_id < adminLockDetail.member.length, \"FireLock: Invalid member ID\") */\n    tag_212:\n        /* \"contracts/FireLock.sol\":10358:10376  address oldAddress */\n      0x00\n        /* \"contracts/FireLock.sol\":10379:10394  adminLockDetail */\n      0x08\n        /* \"contracts/FireLock.sol\":10379:10401  adminLockDetail.member */\n      0x09\n      add\n        /* \"contracts/FireLock.sol\":10402:10405  _id */\n      dup4\n        /* \"contracts/FireLock.sol\":10379:10406  adminLockDetail.member[_id] */\n      dup2\n      sload\n      dup2\n      lt\n      tag_216\n      jumpi\n      tag_216\n      tag_217\n      jump\t// in\n    tag_216:\n      0x00\n      swap2\n      dup3\n      mstore\n      0x20\n      dup1\n      dup4\n      keccak256\n      swap1\n      swap2\n      add\n      sload\n      sub(shl(0xa0, 0x01), 0x01)\n      swap1\n      dup2\n      and\n        /* \"contracts/FireLock.sol\":10428:10447  claimed[oldAddress] */\n      dup1\n      dup5\n      mstore\n        /* \"contracts/FireLock.sol\":10428:10435  claimed */\n      0x14\n        /* \"contracts/FireLock.sol\":10428:10447  claimed[oldAddress] */\n      dup4\n      mstore\n      0x40\n      dup1\n      dup6\n      keccak256\n      dup1\n      sload\n        /* \"contracts/FireLock.sol\":10413:10425  claimed[_to] */\n      swap4\n      dup9\n      and\n      dup1\n      dup8\n      mstore\n      dup3\n      dup8\n      keccak256\n        /* \"contracts/FireLock.sol\":10413:10447  claimed[_to] = claimed[oldAddress] */\n      swap5\n      swap1\n      swap5\n      sstore\n        /* \"contracts/FireLock.sol\":10460:10479  claimed[oldAddress] */\n      dup3\n      dup7\n      mstore\n        /* \"contracts/FireLock.sol\":10453:10479  delete claimed[oldAddress] */\n      dup6\n      swap1\n      sstore\n        /* \"contracts/FireLock.sol\":10503:10512  remaining */\n      0x16\n        /* \"contracts/FireLock.sol\":10503:10524  remaining[oldAddress] */\n      dup5\n      mstore\n      dup1\n      dup6\n      keccak256\n      dup1\n      sload\n        /* \"contracts/FireLock.sol\":10486:10500  remaining[_to] */\n      dup5\n      dup8\n      mstore\n      dup3\n      dup8\n      keccak256\n        /* \"contracts/FireLock.sol\":10486:10524  remaining[_to] = remaining[oldAddress] */\n      sstore\n        /* \"contracts/FireLock.sol\":10537:10558  remaining[oldAddress] */\n      dup3\n      dup7\n      mstore\n        /* \"contracts/FireLock.sol\":10530:10558  delete remaining[oldAddress] */\n      dup6\n      swap1\n      sstore\n        /* \"contracts/FireLock.sol\":10581:10589  userTime */\n      0x15\n        /* \"contracts/FireLock.sol\":10581:10601  userTime[oldAddress] */\n      swap1\n      swap4\n      mstore\n      dup3\n      dup5\n      keccak256\n      dup1\n      sload\n        /* \"contracts/FireLock.sol\":10565:10578  userTime[_to] */\n      swap3\n      dup6\n      mstore\n      swap3\n      dup5\n      keccak256\n        /* \"contracts/FireLock.sol\":10565:10601  userTime[_to] = userTime[oldAddress] */\n      swap2\n      swap1\n      swap2\n      sstore\n        /* \"contracts/FireLock.sol\":10614:10634  userTime[oldAddress] */\n      dup1\n      dup4\n      mstore\n        /* \"contracts/FireLock.sol\":10607:10634  delete userTime[oldAddress] */\n      swap2\n      swap1\n      sstore\n        /* \"contracts/FireLock.sol\":10641:10663  adminLockDetail.member */\n      0x11\n        /* \"contracts/FireLock.sol\":10641:10668  adminLockDetail.member[_id] */\n      dup1\n      sload\n        /* \"contracts/FireLock.sol\":10379:10406  adminLockDetail.member[_id] */\n      swap2\n      swap3\n      pop\n        /* \"contracts/FireLock.sol\":10421:10424  _to */\n      dup4\n      swap2\n        /* \"contracts/FireLock.sol\":10664:10667  _id */\n      dup6\n      swap1\n        /* \"contracts/FireLock.sol\":10641:10668  adminLockDetail.member[_id] */\n      dup2\n      lt\n      tag_220\n      jumpi\n      tag_220\n      tag_217\n      jump\t// in\n    tag_220:\n      swap1\n      0x00\n      mstore\n      keccak256(0x00, 0x20)\n      add\n      0x00\n        /* \"contracts/FireLock.sol\":10641:10674  adminLockDetail.member[_id] = _to */\n      0x0100\n      exp\n      dup2\n      sload\n      dup2\n      sub(shl(0xa0, 0x01), 0x01)\n      mul\n      not\n      and\n      swap1\n      dup4\n      sub(shl(0xa0, 0x01), 0x01)\n      and\n      mul\n      or\n      swap1\n      sstore\n      pop\n        /* \"contracts/FireLock.sol\":10003:10677  {... */\n      pop\n        /* \"contracts/FireLock.sol\":9935:10677  function setLockMemberAddr(uint256 _id, address _to) public  unlock {... */\n      pop\n      pop\n      jump\t// out\n        /* \"contracts/FireLock.sol\":7177:8959  function claim(uint256 _amount) public nonReentrant unlock {... */\n    tag_88:\n        /* \"contracts/FireLock.sol\":2879:2885  locked */\n      and(0xff, sload(0x00))\n        /* \"contracts/FireLock.sol\":2878:2885  !locked */\n      iszero\n        /* \"contracts/FireLock.sol\":2870:2931  require(!locked, \"FireLock: ReentrancyGuard: reentrant call\") */\n      tag_224\n      jumpi\n      mload(0x40)\n      shl(0xe5, 0x461bcd)\n      dup2\n      mstore\n        /* \"#utility.yul\":11999:12001   */\n      0x20\n        /* \"contracts/FireLock.sol\":2870:2931  require(!locked, \"FireLock: ReentrancyGuard: reentrant call\") */\n      0x04\n      dup3\n      add\n        /* \"#utility.yul\":11981:12002   */\n      mstore\n        /* \"#utility.yul\":12038:12040   */\n      0x29\n        /* \"#utility.yul\":12018:12036   */\n      0x24\n      dup3\n      add\n        /* \"#utility.yul\":12011:12041   */\n      mstore\n        /* \"#utility.yul\":12077:12111   */\n      0x466972654c6f636b3a205265656e7472616e637947756172643a207265656e74\n        /* \"#utility.yul\":12057:12075   */\n      0x44\n      dup3\n      add\n        /* \"#utility.yul\":12050:12112   */\n      mstore\n      shl(0xba, 0x1c985b9d0818d85b1b)\n        /* \"#utility.yul\":12128:12146   */\n      0x64\n      dup3\n      add\n        /* \"#utility.yul\":12121:12160   */\n      mstore\n        /* \"#utility.yul\":12177:12196   */\n      0x84\n      add\n        /* \"contracts/FireLock.sol\":2870:2931  require(!locked, \"FireLock: ReentrancyGuard: reentrant call\") */\n      tag_197\n        /* \"#utility.yul\":11797:12202   */\n      jump\n        /* \"contracts/FireLock.sol\":2870:2931  require(!locked, \"FireLock: ReentrancyGuard: reentrant call\") */\n    tag_224:\n        /* \"contracts/FireLock.sol\":2941:2947  locked */\n      0x00\n        /* \"contracts/FireLock.sol\":2941:2954  locked = true */\n      dup1\n      sload\n      not(0xff)\n      and\n        /* \"contracts/FireLock.sol\":2950:2954  true */\n      0x01\n        /* \"contracts/FireLock.sol\":2941:2954  locked = true */\n      or\n      swap1\n      dup2\n      swap1\n      sstore\n        /* \"contracts/FireLock.sol\":2751:2763  unlockStatus */\n      0x010000\n      swap1\n      div\n        /* \"contracts/FireLock.sol\":2941:2954  locked = true */\n      0xff\n        /* \"contracts/FireLock.sol\":2751:2763  unlockStatus */\n      and\n        /* \"contracts/FireLock.sol\":2743:2812  require(unlockStatus,\"FireLock: The contract has already terminated\") */\n      tag_228\n      jumpi\n      mload(0x40)\n      shl(0xe5, 0x461bcd)\n      dup2\n      mstore\n      0x04\n      add\n      tag_197\n      swap1\n      tag_198\n      jump\t// in\n    tag_228:\n        /* \"contracts/FireLock.sol\":7250:7259  totalRate */\n      sload(0x07)\n        /* \"contracts/FireLock.sol\":7263:7266  100 */\n      0x64\n        /* \"contracts/FireLock.sol\":7250:7266  totalRate == 100 */\n      eq\n        /* \"contracts/FireLock.sol\":7242:7294  require(totalRate == 100, \"FireLock: rate is error\") */\n      tag_231\n      jumpi\n      mload(0x40)\n      shl(0xe5, 0x461bcd)\n      dup2\n      mstore\n        /* \"#utility.yul\":12409:12411   */\n      0x20\n        /* \"contracts/FireLock.sol\":7242:7294  require(totalRate == 100, \"FireLock: rate is error\") */\n      0x04\n      dup3\n      add\n        /* \"#utility.yul\":12391:12412   */\n      mstore\n        /* \"#utility.yul\":12448:12450   */\n      0x17\n        /* \"#utility.yul\":12428:12446   */\n      0x24\n      dup3\n      add\n        /* \"#utility.yul\":12421:12451   */\n      mstore\n        /* \"#utility.yul\":12487:12512   */\n      0x466972654c6f636b3a2072617465206973206572726f72000000000000000000\n        /* \"#utility.yul\":12467:12485   */\n      0x44\n      dup3\n      add\n        /* \"#utility.yul\":12460:12513   */\n      mstore\n        /* \"#utility.yul\":12530:12548   */\n      0x64\n      add\n        /* \"contracts/FireLock.sol\":7242:7294  require(totalRate == 100, \"FireLock: rate is error\") */\n      tag_197\n        /* \"#utility.yul\":12207:12554   */\n      jump\n        /* \"contracts/FireLock.sol\":7242:7294  require(totalRate == 100, \"FireLock: rate is error\") */\n    tag_231:\n        /* \"contracts/FireLock.sol\":7326:7353  adminLockDetail.cliffPeriod */\n      sload(0x12)\n        /* \"contracts/FireLock.sol\":7308:7323  block.timestamp */\n      timestamp\n        /* \"contracts/FireLock.sol\":7308:7353  block.timestamp > adminLockDetail.cliffPeriod */\n      gt\n        /* \"contracts/FireLock.sol\":7300:7385  require(block.timestamp > adminLockDetail.cliffPeriod, \"FireLock: still cliffPeriod\") */\n      tag_234\n      jumpi\n      mload(0x40)\n      shl(0xe5, 0x461bcd)\n      dup2\n      mstore\n        /* \"#utility.yul\":12761:12763   */\n      0x20\n        /* \"contracts/FireLock.sol\":7300:7385  require(block.timestamp > adminLockDetail.cliffPeriod, \"FireLock: still cliffPeriod\") */\n      0x04\n      dup3\n      add\n        /* \"#utility.yul\":12743:12764   */\n      mstore\n        /* \"#utility.yul\":12800:12802   */\n      0x1b\n        /* \"#utility.yul\":12780:12798   */\n      0x24\n      dup3\n      add\n        /* \"#utility.yul\":12773:12803   */\n      mstore\n        /* \"#utility.yul\":12839:12868   */\n      0x466972654c6f636b3a207374696c6c20636c696666506572696f640000000000\n        /* \"#utility.yul\":12819:12837   */\n      0x44\n      dup3\n      add\n        /* \"#utility.yul\":12812:12869   */\n      mstore\n        /* \"#utility.yul\":12886:12904   */\n      0x64\n      add\n        /* \"contracts/FireLock.sol\":7300:7385  require(block.timestamp > adminLockDetail.cliffPeriod, \"FireLock: still cliffPeriod\") */\n      tag_197\n        /* \"#utility.yul\":12559:12910   */\n      jump\n        /* \"contracts/FireLock.sol\":7300:7385  require(block.timestamp > adminLockDetail.cliffPeriod, \"FireLock: still cliffPeriod\") */\n    tag_234:\n        /* \"contracts/FireLock.sol\":7391:7405  uint256 userId */\n      0x00\n        /* \"contracts/FireLock.sol\":7408:7432  isUserUnlock(msg.sender) */\n      tag_237\n        /* \"contracts/FireLock.sol\":7421:7431  msg.sender */\n      caller\n        /* \"contracts/FireLock.sol\":7408:7420  isUserUnlock */\n      tag_156\n        /* \"contracts/FireLock.sol\":7408:7432  isUserUnlock(msg.sender) */\n      jump\t// in\n    tag_237:\n        /* \"contracts/FireLock.sol\":7461:7472  totalAmount */\n      sload(0x06)\n        /* \"contracts/FireLock.sol\":7495:7516  adminLockDetail.token */\n      sload(0x10)\n        /* \"contracts/FireLock.sol\":7548:7558  msg.sender */\n      caller\n        /* \"contracts/FireLock.sol\":7438:7458  uint256 amountOfUser */\n      0x00\n        /* \"contracts/FireLock.sol\":7539:7559  userTime[msg.sender] */\n      swap1\n      dup2\n      mstore\n        /* \"contracts/FireLock.sol\":7539:7547  userTime */\n      0x15\n        /* \"contracts/FireLock.sol\":7539:7559  userTime[msg.sender] */\n      0x20\n      mstore\n      0x40\n      dup2\n      keccak256\n      sload\n        /* \"contracts/FireLock.sol\":7391:7432  uint256 userId = isUserUnlock(msg.sender) */\n      swap4\n      swap5\n      pop\n        /* \"contracts/FireLock.sol\":7461:7472  totalAmount */\n      swap2\n      swap3\n      sub(shl(0xa0, 0x01), 0x01)\n        /* \"contracts/FireLock.sol\":7495:7516  adminLockDetail.token */\n      swap1\n      swap2\n      and\n      swap2\n        /* \"contracts/FireLock.sol\":7438:7458  uint256 amountOfUser */\n      swap1\n        /* \"contracts/FireLock.sol\":7539:7564  userTime[msg.sender] == 0 */\n      iszero\n        /* \"contracts/FireLock.sol\":7538:7660  (userTime[msg.sender] == 0) ? block.timestamp.sub(adminLockDetail.cliffPeriod) : block.timestamp.sub(userTime[msg.sender]) */\n      tag_238\n      jumpi\n        /* \"contracts/FireLock.sol\":7648:7658  msg.sender */\n      caller\n        /* \"contracts/FireLock.sol\":7639:7659  userTime[msg.sender] */\n      0x00\n      swap1\n      dup2\n      mstore\n        /* \"contracts/FireLock.sol\":7639:7647  userTime */\n      0x15\n        /* \"contracts/FireLock.sol\":7639:7659  userTime[msg.sender] */\n      0x20\n      mstore\n      0x40\n      swap1\n      keccak256\n      sload\n        /* \"contracts/FireLock.sol\":7619:7660  block.timestamp.sub(userTime[msg.sender]) */\n      tag_239\n      swap1\n        /* \"contracts/FireLock.sol\":7619:7634  block.timestamp */\n      timestamp\n      swap1\n        /* \"contracts/FireLock.sol\":7619:7638  block.timestamp.sub */\n      tag_240\n        /* \"contracts/FireLock.sol\":7619:7660  block.timestamp.sub(userTime[msg.sender]) */\n      jump\t// in\n    tag_239:\n        /* \"contracts/FireLock.sol\":7538:7660  (userTime[msg.sender] == 0) ? block.timestamp.sub(adminLockDetail.cliffPeriod) : block.timestamp.sub(userTime[msg.sender]) */\n      jump(tag_242)\n    tag_238:\n        /* \"contracts/FireLock.sol\":7588:7615  adminLockDetail.cliffPeriod */\n      sload(0x12)\n        /* \"contracts/FireLock.sol\":7568:7616  block.timestamp.sub(adminLockDetail.cliffPeriod) */\n      tag_242\n      swap1\n        /* \"contracts/FireLock.sol\":7568:7583  block.timestamp */\n      timestamp\n      swap1\n        /* \"contracts/FireLock.sol\":7568:7587  block.timestamp.sub */\n      tag_240\n        /* \"contracts/FireLock.sol\":7568:7616  block.timestamp.sub(adminLockDetail.cliffPeriod) */\n      jump\t// in\n    tag_242:\n        /* \"contracts/FireLock.sol\":7714:7741  adminLockDetail.unlockRound */\n      sload(0x0e)\n        /* \"contracts/FireLock.sol\":7682:7709  adminLockDetail.unlockCycle */\n      sload(0x0d)\n        /* \"contracts/FireLock.sol\":7522:7660  uint256 timeA = (userTime[msg.sender] == 0) ? block.timestamp.sub(adminLockDetail.cliffPeriod) : block.timestamp.sub(userTime[msg.sender]) */\n      swap2\n      swap3\n      pop\n        /* \"contracts/FireLock.sol\":7666:7679  uint256 timeB */\n      0x00\n      swap2\n        /* \"contracts/FireLock.sol\":7682:7766  adminLockDetail.unlockCycle.mul(adminLockDetail.unlockRound).mul(ONE_DAY_TIME_STAMP) */\n      tag_243\n      swap2\n        /* \"contracts/FireLock.sol\":2014:2019  86400 */\n      0x015180\n      swap2\n        /* \"contracts/FireLock.sol\":7682:7742  adminLockDetail.unlockCycle.mul(adminLockDetail.unlockRound) */\n      tag_244\n      swap2\n        /* \"contracts/FireLock.sol\":7682:7713  adminLockDetail.unlockCycle.mul */\n      tag_245\n        /* \"contracts/FireLock.sol\":7682:7742  adminLockDetail.unlockCycle.mul(adminLockDetail.unlockRound) */\n      jump\t// in\n    tag_244:\n        /* \"contracts/FireLock.sol\":7682:7746  adminLockDetail.unlockCycle.mul(adminLockDetail.unlockRound).mul */\n      swap1\n      tag_245\n        /* \"contracts/FireLock.sol\":7682:7766  adminLockDetail.unlockCycle.mul(adminLockDetail.unlockRound).mul(ONE_DAY_TIME_STAMP) */\n      jump\t// in\n    tag_243:\n        /* \"contracts/FireLock.sol\":7666:7766  uint256 timeB = adminLockDetail.unlockCycle.mul(adminLockDetail.unlockRound).mul(ONE_DAY_TIME_STAMP) */\n      swap1\n      pop\n        /* \"contracts/FireLock.sol\":7772:7792  uint256 userMaxClaim */\n      0x00\n        /* \"contracts/FireLock.sol\":7795:7850  amountOfUser.mul(adminLockDetail.rate[userId]).div(100) */\n      tag_246\n        /* \"contracts/FireLock.sol\":7846:7849  100 */\n      0x64\n        /* \"contracts/FireLock.sol\":7795:7841  amountOfUser.mul(adminLockDetail.rate[userId]) */\n      tag_247\n        /* \"contracts/FireLock.sol\":7812:7827  adminLockDetail */\n      0x08\n        /* \"contracts/FireLock.sol\":7812:7832  adminLockDetail.rate */\n      0x07\n      add\n        /* \"contracts/FireLock.sol\":7833:7839  userId */\n      dup10\n        /* \"contracts/FireLock.sol\":7812:7840  adminLockDetail.rate[userId] */\n      dup2\n      sload\n      dup2\n      lt\n      tag_249\n      jumpi\n      tag_249\n      tag_217\n      jump\t// in\n    tag_249:\n      swap1\n      0x00\n      mstore\n      keccak256(0x00, 0x20)\n      add\n      sload\n        /* \"contracts/FireLock.sol\":7795:7807  amountOfUser */\n      dup9\n        /* \"contracts/FireLock.sol\":7795:7811  amountOfUser.mul */\n      tag_245\n      swap1\n        /* \"contracts/FireLock.sol\":7795:7841  amountOfUser.mul(adminLockDetail.rate[userId]) */\n      swap2\n      swap1\n      0xffffffff\n      and\n      jump\t// in\n    tag_247:\n        /* \"contracts/FireLock.sol\":7795:7845  amountOfUser.mul(adminLockDetail.rate[userId]).div */\n      swap1\n      tag_251\n        /* \"contracts/FireLock.sol\":7795:7850  amountOfUser.mul(adminLockDetail.rate[userId]).div(100) */\n      jump\t// in\n    tag_246:\n        /* \"contracts/FireLock.sol\":7772:7850  uint256 userMaxClaim = amountOfUser.mul(adminLockDetail.rate[userId]).div(100) */\n      swap1\n      pop\n        /* \"contracts/FireLock.sol\":7856:7877  uint256 _unLockAmount */\n      0x00\n        /* \"contracts/FireLock.sol\":7880:7914  userMaxClaim.mul(timeA).div(timeB) */\n      tag_252\n        /* \"contracts/FireLock.sol\":7908:7913  timeB */\n      dup4\n        /* \"contracts/FireLock.sol\":7880:7903  userMaxClaim.mul(timeA) */\n      tag_247\n        /* \"contracts/FireLock.sol\":7772:7850  uint256 userMaxClaim = amountOfUser.mul(adminLockDetail.rate[userId]).div(100) */\n      dup5\n        /* \"contracts/FireLock.sol\":7897:7902  timeA */\n      dup8\n        /* \"contracts/FireLock.sol\":7880:7896  userMaxClaim.mul */\n      tag_245\n        /* \"contracts/FireLock.sol\":7880:7903  userMaxClaim.mul(timeA) */\n      jump\t// in\n        /* \"contracts/FireLock.sol\":7880:7914  userMaxClaim.mul(timeA).div(timeB) */\n    tag_252:\n        /* \"contracts/FireLock.sol\":7937:7947  msg.sender */\n      caller\n        /* \"contracts/FireLock.sol\":7929:7948  claimed[msg.sender] */\n      0x00\n      swap1\n      dup2\n      mstore\n        /* \"contracts/FireLock.sol\":7929:7936  claimed */\n      0x14\n        /* \"contracts/FireLock.sol\":7929:7948  claimed[msg.sender] */\n      0x20\n      mstore\n      0x40\n      swap1\n      keccak256\n      sload\n        /* \"contracts/FireLock.sol\":7856:7914  uint256 _unLockAmount = userMaxClaim.mul(timeA).div(timeB) */\n      swap1\n      swap2\n      pop\n        /* \"contracts/FireLock.sol\":7929:7963  claimed[msg.sender] < userMaxClaim */\n      dup3\n      gt\n        /* \"contracts/FireLock.sol\":7921:8017  require(claimed[msg.sender] < userMaxClaim, \"FireLock: You do not have enough balance to claim\") */\n      tag_254\n      jumpi\n      mload(0x40)\n      shl(0xe5, 0x461bcd)\n      dup2\n      mstore\n        /* \"#utility.yul\":13117:13119   */\n      0x20\n        /* \"contracts/FireLock.sol\":7921:8017  require(claimed[msg.sender] < userMaxClaim, \"FireLock: You do not have enough balance to claim\") */\n      0x04\n      dup3\n      add\n        /* \"#utility.yul\":13099:13120   */\n      mstore\n        /* \"#utility.yul\":13156:13158   */\n      0x31\n        /* \"#utility.yul\":13136:13154   */\n      0x24\n      dup3\n      add\n        /* \"#utility.yul\":13129:13159   */\n      mstore\n        /* \"#utility.yul\":13195:13229   */\n      0x466972654c6f636b3a20596f7520646f206e6f74206861766520656e6f756768\n        /* \"#utility.yul\":13175:13193   */\n      0x44\n      dup3\n      add\n        /* \"#utility.yul\":13168:13230   */\n      mstore\n      shl(0x78, 0x2062616c616e636520746f20636c61696d)\n        /* \"#utility.yul\":13246:13264   */\n      0x64\n      dup3\n      add\n        /* \"#utility.yul\":13239:13286   */\n      mstore\n        /* \"#utility.yul\":13303:13322   */\n      0x84\n      add\n        /* \"contracts/FireLock.sol\":7921:8017  require(claimed[msg.sender] < userMaxClaim, \"FireLock: You do not have enough balance to claim\") */\n      tag_197\n        /* \"#utility.yul\":12915:13328   */\n      jump\n        /* \"contracts/FireLock.sol\":7921:8017  require(claimed[msg.sender] < userMaxClaim, \"FireLock: You do not have enough balance to claim\") */\n    tag_254:\n        /* \"contracts/FireLock.sol\":8042:8054  userMaxClaim */\n      dup2\n        /* \"contracts/FireLock.sol\":8031:8038  _amount */\n      dup9\n        /* \"contracts/FireLock.sol\":8031:8054  _amount <= userMaxClaim */\n      gt\n      iszero\n        /* \"contracts/FireLock.sol\":8023:8087  require(_amount <= userMaxClaim, \"FireLock: Insufficient quota\") */\n      tag_257\n      jumpi\n      mload(0x40)\n      shl(0xe5, 0x461bcd)\n      dup2\n      mstore\n        /* \"#utility.yul\":13535:13537   */\n      0x20\n        /* \"contracts/FireLock.sol\":8023:8087  require(_amount <= userMaxClaim, \"FireLock: Insufficient quota\") */\n      0x04\n      dup3\n      add\n        /* \"#utility.yul\":13517:13538   */\n      mstore\n        /* \"#utility.yul\":13574:13576   */\n      0x1c\n        /* \"#utility.yul\":13554:13572   */\n      0x24\n      dup3\n      add\n        /* \"#utility.yul\":13547:13577   */\n      mstore\n        /* \"#utility.yul\":13613:13643   */\n      0x466972654c6f636b3a20496e73756666696369656e742071756f746100000000\n        /* \"#utility.yul\":13593:13611   */\n      0x44\n      dup3\n      add\n        /* \"#utility.yul\":13586:13644   */\n      mstore\n        /* \"#utility.yul\":13661:13679   */\n      0x64\n      add\n        /* \"contracts/FireLock.sol\":8023:8087  require(_amount <= userMaxClaim, \"FireLock: Insufficient quota\") */\n      tag_197\n        /* \"#utility.yul\":13333:13685   */\n      jump\n        /* \"contracts/FireLock.sol\":8023:8087  require(_amount <= userMaxClaim, \"FireLock: Insufficient quota\") */\n    tag_257:\n        /* \"contracts/FireLock.sol\":8140:8150  msg.sender */\n      caller\n        /* \"contracts/FireLock.sol\":8130:8151  remaining[msg.sender] */\n      0x00\n      swap1\n      dup2\n      mstore\n        /* \"contracts/FireLock.sol\":8130:8139  remaining */\n      0x16\n        /* \"contracts/FireLock.sol\":8130:8151  remaining[msg.sender] */\n      0x20\n      mstore\n      0x40\n      swap1\n      keccak256\n      sload\n        /* \"contracts/FireLock.sol\":8112:8152  _unLockAmount.add(remaining[msg.sender]) */\n      tag_260\n      swap1\n        /* \"contracts/FireLock.sol\":8112:8125  _unLockAmount */\n      dup3\n      swap1\n        /* \"contracts/FireLock.sol\":8112:8129  _unLockAmount.add */\n      tag_261\n        /* \"contracts/FireLock.sol\":8112:8152  _unLockAmount.add(remaining[msg.sender]) */\n      jump\t// in\n    tag_260:\n        /* \"contracts/FireLock.sol\":8101:8108  _amount */\n      dup9\n        /* \"contracts/FireLock.sol\":8101:8152  _amount <= _unLockAmount.add(remaining[msg.sender]) */\n      gt\n      iszero\n        /* \"contracts/FireLock.sol\":8093:8203  require(_amount <= _unLockAmount.add(remaining[msg.sender]), \"FireLock: Claim amount exceeds allowed maximum\") */\n      tag_262\n      jumpi\n      mload(0x40)\n      shl(0xe5, 0x461bcd)\n      dup2\n      mstore\n        /* \"#utility.yul\":13892:13894   */\n      0x20\n        /* \"contracts/FireLock.sol\":8093:8203  require(_amount <= _unLockAmount.add(remaining[msg.sender]), \"FireLock: Claim amount exceeds allowed maximum\") */\n      0x04\n      dup3\n      add\n        /* \"#utility.yul\":13874:13895   */\n      mstore\n        /* \"#utility.yul\":13931:13933   */\n      0x2e\n        /* \"#utility.yul\":13911:13929   */\n      0x24\n      dup3\n      add\n        /* \"#utility.yul\":13904:13934   */\n      mstore\n        /* \"#utility.yul\":13970:14004   */\n      0x466972654c6f636b3a20436c61696d20616d6f756e7420657863656564732061\n        /* \"#utility.yul\":13950:13968   */\n      0x44\n      dup3\n      add\n        /* \"#utility.yul\":13943:14005   */\n      mstore\n      shl(0x90, 0x6c6c6f776564206d6178696d756d)\n        /* \"#utility.yul\":14021:14039   */\n      0x64\n      dup3\n      add\n        /* \"#utility.yul\":14014:14058   */\n      mstore\n        /* \"#utility.yul\":14075:14094   */\n      0x84\n      add\n        /* \"contracts/FireLock.sol\":8093:8203  require(_amount <= _unLockAmount.add(remaining[msg.sender]), \"FireLock: Claim amount exceeds allowed maximum\") */\n      tag_197\n        /* \"#utility.yul\":13690:14100   */\n      jump\n        /* \"contracts/FireLock.sol\":8093:8203  require(_amount <= _unLockAmount.add(remaining[msg.sender]), \"FireLock: Claim amount exceeds allowed maximum\") */\n    tag_262:\n        /* \"contracts/FireLock.sol\":8225:8235  msg.sender */\n      caller\n        /* \"contracts/FireLock.sol\":8217:8236  claimed[msg.sender] */\n      0x00\n      swap1\n      dup2\n      mstore\n        /* \"contracts/FireLock.sol\":8217:8224  claimed */\n      0x14\n        /* \"contracts/FireLock.sol\":8217:8236  claimed[msg.sender] */\n      0x20\n      mstore\n      0x40\n      swap1\n      keccak256\n      sload\n        /* \"contracts/FireLock.sol\":8253:8265  userMaxClaim */\n      dup3\n      swap1\n        /* \"contracts/FireLock.sol\":8217:8249  claimed[msg.sender].add(_amount) */\n      tag_265\n      swap1\n        /* \"contracts/FireLock.sol\":8241:8248  _amount */\n      dup11\n        /* \"contracts/FireLock.sol\":8217:8240  claimed[msg.sender].add */\n      tag_261\n        /* \"contracts/FireLock.sol\":8217:8249  claimed[msg.sender].add(_amount) */\n      jump\t// in\n    tag_265:\n        /* \"contracts/FireLock.sol\":8217:8265  claimed[msg.sender].add(_amount) <= userMaxClaim */\n      gt\n      iszero\n        /* \"contracts/FireLock.sol\":8209:8323  require(claimed[msg.sender].add(_amount) <= userMaxClaim, \"FireLock: Claim amount exceeds user's allowed maximum\") */\n      tag_266\n      jumpi\n      mload(0x40)\n      shl(0xe5, 0x461bcd)\n      dup2\n      mstore\n        /* \"#utility.yul\":14307:14309   */\n      0x20\n        /* \"contracts/FireLock.sol\":8209:8323  require(claimed[msg.sender].add(_amount) <= userMaxClaim, \"FireLock: Claim amount exceeds user's allowed maximum\") */\n      0x04\n      dup3\n      add\n        /* \"#utility.yul\":14289:14310   */\n      mstore\n        /* \"#utility.yul\":14346:14348   */\n      0x35\n        /* \"#utility.yul\":14326:14344   */\n      0x24\n      dup3\n      add\n        /* \"#utility.yul\":14319:14349   */\n      mstore\n        /* \"#utility.yul\":14385:14419   */\n      0x466972654c6f636b3a20436c61696d20616d6f756e7420657863656564732075\n        /* \"#utility.yul\":14365:14383   */\n      0x44\n      dup3\n      add\n        /* \"#utility.yul\":14358:14420   */\n      mstore\n      shl(0x58, 0x736572277320616c6c6f776564206d6178696d756d)\n        /* \"#utility.yul\":14436:14454   */\n      0x64\n      dup3\n      add\n        /* \"#utility.yul\":14429:14480   */\n      mstore\n        /* \"#utility.yul\":14497:14516   */\n      0x84\n      add\n        /* \"contracts/FireLock.sol\":8209:8323  require(claimed[msg.sender].add(_amount) <= userMaxClaim, \"FireLock: Claim amount exceeds user's allowed maximum\") */\n      tag_197\n        /* \"#utility.yul\":14105:14522   */\n      jump\n        /* \"contracts/FireLock.sol\":8209:8323  require(claimed[msg.sender].add(_amount) <= userMaxClaim, \"FireLock: Claim amount exceeds user's allowed maximum\") */\n    tag_266:\n        /* \"contracts/FireLock.sol\":8330:8378  IERC20(_token).safeTransfer(msg.sender, _amount) */\n      tag_269\n      sub(shl(0xa0, 0x01), 0x01)\n        /* \"contracts/FireLock.sol\":8330:8357  IERC20(_token).safeTransfer */\n      dup7\n      and\n        /* \"contracts/FireLock.sol\":8358:8368  msg.sender */\n      caller\n        /* \"contracts/FireLock.sol\":8370:8377  _amount */\n      dup11\n        /* \"contracts/FireLock.sol\":8330:8357  IERC20(_token).safeTransfer */\n      tag_270\n        /* \"contracts/FireLock.sol\":8330:8378  IERC20(_token).safeTransfer(msg.sender, _amount) */\n      jump\t// in\n    tag_269:\n        /* \"contracts/FireLock.sol\":8409:8431  adminLockDetail.amount */\n      sload(0x0c)\n        /* \"contracts/FireLock.sol\":8409:8444  adminLockDetail.amount.sub(_amount) */\n      tag_271\n      swap1\n        /* \"contracts/FireLock.sol\":8436:8443  _amount */\n      dup10\n        /* \"contracts/FireLock.sol\":8409:8435  adminLockDetail.amount.sub */\n      tag_240\n        /* \"contracts/FireLock.sol\":8409:8444  adminLockDetail.amount.sub(_amount) */\n      jump\t// in\n    tag_271:\n        /* \"contracts/FireLock.sol\":8384:8406  adminLockDetail.amount */\n      0x0c\n        /* \"contracts/FireLock.sol\":8384:8444  adminLockDetail.amount = adminLockDetail.amount.sub(_amount) */\n      sstore\n        /* \"contracts/FireLock.sol\":8459:8469  msg.sender */\n      caller\n        /* \"contracts/FireLock.sol\":8450:8470  userTime[msg.sender] */\n      0x00\n      swap1\n      dup2\n      mstore\n        /* \"contracts/FireLock.sol\":8450:8458  userTime */\n      0x15\n        /* \"contracts/FireLock.sol\":8450:8470  userTime[msg.sender] */\n      0x20\n      swap1\n      dup2\n      mstore\n      0x40\n      dup1\n      dup4\n      keccak256\n        /* \"contracts/FireLock.sol\":8473:8488  block.timestamp */\n      timestamp\n        /* \"contracts/FireLock.sol\":8450:8488  userTime[msg.sender] = block.timestamp */\n      swap1\n      sstore\n        /* \"contracts/FireLock.sol\":8536:8545  remaining */\n      0x16\n        /* \"contracts/FireLock.sol\":8536:8557  remaining[msg.sender] */\n      swap1\n      swap2\n      mstore\n      swap1\n      keccak256\n      sload\n        /* \"contracts/FireLock.sol\":8518:8571  _unLockAmount.add(remaining[msg.sender]).sub(_amount) */\n      tag_272\n      swap1\n        /* \"contracts/FireLock.sol\":8563:8570  _amount */\n      dup10\n      swap1\n        /* \"contracts/FireLock.sol\":8518:8558  _unLockAmount.add(remaining[msg.sender]) */\n      tag_273\n      swap1\n        /* \"contracts/FireLock.sol\":8518:8531  _unLockAmount */\n      dup5\n      swap1\n        /* \"contracts/FireLock.sol\":8518:8535  _unLockAmount.add */\n      tag_261\n        /* \"contracts/FireLock.sol\":8518:8558  _unLockAmount.add(remaining[msg.sender]) */\n      jump\t// in\n    tag_273:\n        /* \"contracts/FireLock.sol\":8518:8562  _unLockAmount.add(remaining[msg.sender]).sub */\n      swap1\n      tag_240\n        /* \"contracts/FireLock.sol\":8518:8571  _unLockAmount.add(remaining[msg.sender]).sub(_amount) */\n      jump\t// in\n    tag_272:\n        /* \"contracts/FireLock.sol\":8504:8514  msg.sender */\n      caller\n        /* \"contracts/FireLock.sol\":8494:8515  remaining[msg.sender] */\n      0x00\n      dup2\n      dup2\n      mstore\n        /* \"contracts/FireLock.sol\":8494:8503  remaining */\n      0x16\n        /* \"contracts/FireLock.sol\":8494:8515  remaining[msg.sender] */\n      0x20\n      swap1\n      dup2\n      mstore\n      0x40\n      dup1\n      dup4\n      keccak256\n        /* \"contracts/FireLock.sol\":8494:8571  remaining[msg.sender] = _unLockAmount.add(remaining[msg.sender]).sub(_amount) */\n      swap5\n      swap1\n      swap5\n      sstore\n        /* \"contracts/FireLock.sol\":8614:8716  unLockRecord({... */\n      dup4\n      mload\n      0x60\n      dup2\n      add\n      dup6\n      mstore\n      dup4\n      dup2\n      mstore\n      dup1\n      dup3\n      add\n      dup14\n      dup2\n      mstore\n        /* \"contracts/FireLock.sol\":8694:8709  block.timestamp */\n      timestamp\n        /* \"contracts/FireLock.sol\":8614:8716  unLockRecord({... */\n      dup3\n      dup8\n      add\n      swap1\n      dup2\n      mstore\n        /* \"contracts/FireLock.sol\":8722:8728  record */\n      0x13\n        /* \"contracts/FireLock.sol\":8722:8748  record.push(_unlockRecord) */\n      dup1\n      sload\n      0x01\n      dup2\n      add\n      dup3\n      sstore\n      swap1\n      dup7\n      mstore\n      dup4\n      mload\n      0x66de8ffda797e3de9c05e8fc57b3bf0ec28a930d40b0d285d93c06501cf6a090\n      0x03\n      swap1\n      swap3\n      mul\n      swap2\n      dup3\n      add\n      dup1\n      sload\n      not(sub(shl(0xa0, 0x01), 0x01))\n      and\n      sub(shl(0xa0, 0x01), 0x01)\n      swap1\n      swap3\n      and\n      swap2\n      swap1\n      swap2\n      or\n      swap1\n      sstore\n      swap2\n      mload\n      0x66de8ffda797e3de9c05e8fc57b3bf0ec28a930d40b0d285d93c06501cf6a091\n      dup4\n      add\n      sstore\n      mload\n      0x66de8ffda797e3de9c05e8fc57b3bf0ec28a930d40b0d285d93c06501cf6a092\n      swap1\n      swap2\n      add\n      sstore\n        /* \"contracts/FireLock.sol\":8776:8795  claimed[msg.sender] */\n      swap3\n      dup3\n      mstore\n        /* \"contracts/FireLock.sol\":8776:8783  claimed */\n      0x14\n        /* \"contracts/FireLock.sol\":8776:8795  claimed[msg.sender] */\n      swap1\n      mstore\n      swap2\n      swap1\n      swap2\n      keccak256\n      sload\n        /* \"contracts/FireLock.sol\":8776:8808  claimed[msg.sender].add(_amount) */\n      tag_275\n      swap1\n        /* \"contracts/FireLock.sol\":8614:8716  unLockRecord({... */\n      dup11\n        /* \"contracts/FireLock.sol\":8776:8799  claimed[msg.sender].add */\n      tag_261\n        /* \"contracts/FireLock.sol\":8776:8808  claimed[msg.sender].add(_amount) */\n      jump\t// in\n    tag_275:\n        /* \"contracts/FireLock.sol\":8762:8772  msg.sender */\n      caller\n        /* \"contracts/FireLock.sol\":8754:8773  claimed[msg.sender] */\n      0x00\n      swap1\n      dup2\n      mstore\n        /* \"contracts/FireLock.sol\":8754:8761  claimed */\n      0x14\n        /* \"contracts/FireLock.sol\":8754:8773  claimed[msg.sender] */\n      0x20\n      mstore\n      0x40\n      swap1\n      dup2\n      swap1\n      keccak256\n        /* \"contracts/FireLock.sol\":8754:8808  claimed[msg.sender] = claimed[msg.sender].add(_amount) */\n      swap2\n      swap1\n      swap2\n      sstore\n        /* \"contracts/FireLock.sol\":8831:8842  factoryAddr */\n      sload(0x01)\n        /* \"contracts/FireLock.sol\":8814:8880  IFireLockFactory(factoryAddr).addClaimInfo(address(this), _amount) */\n      swap1\n      mload\n      shl(0xe3, 0x162d870b)\n      dup2\n      mstore\n        /* \"contracts/FireLock.sol\":8865:8869  this */\n      address\n        /* \"contracts/FireLock.sol\":8814:8880  IFireLockFactory(factoryAddr).addClaimInfo(address(this), _amount) */\n      0x04\n      dup3\n      add\n        /* \"#utility.yul\":14701:14752   */\n      mstore\n        /* \"#utility.yul\":14768:14786   */\n      0x24\n      dup2\n      add\n        /* \"#utility.yul\":14761:14795   */\n      dup12\n      swap1\n      mstore\n      sub(shl(0xa0, 0x01), 0x01)\n        /* \"contracts/FireLock.sol\":8831:8842  factoryAddr */\n      swap1\n      swap2\n      and\n      swap1\n        /* \"contracts/FireLock.sol\":8814:8856  IFireLockFactory(factoryAddr).addClaimInfo */\n      0xb16c3858\n      swap1\n        /* \"#utility.yul\":14674:14692   */\n      0x44\n      add\n        /* \"contracts/FireLock.sol\":8814:8880  IFireLockFactory(factoryAddr).addClaimInfo(address(this), _amount) */\n      0x00\n      mload(0x40)\n      dup1\n      dup4\n      sub\n      dup2\n      0x00\n      dup8\n      dup1\n      extcodesize\n      iszero\n      dup1\n      iszero\n      tag_278\n      jumpi\n      0x00\n      dup1\n      revert\n    tag_278:\n      pop\n      gas\n      call\n      iszero\n      dup1\n      iszero\n      tag_280\n      jumpi\n      returndatasize\n      0x00\n      dup1\n      returndatacopy\n      revert(0x00, returndatasize)\n    tag_280:\n      pop\n      pop\n      pop\n      pop\n        /* \"contracts/FireLock.sol\":8891:8906  adminLockDetail */\n      0x08\n        /* \"contracts/FireLock.sol\":8891:8913  adminLockDetail.amount */\n      0x04\n      add\n      sload\n        /* \"contracts/FireLock.sol\":8917:8918  0 */\n      0x00\n        /* \"contracts/FireLock.sol\":8891:8918  adminLockDetail.amount == 0 */\n      sub\n        /* \"contracts/FireLock.sol\":8887:8957  if (adminLockDetail.amount == 0) {... */\n      tag_281\n      jumpi\n        /* \"contracts/FireLock.sol\":8945:8950  false */\n      0x00\n        /* \"contracts/FireLock.sol\":8930:8950  unlockStatus = false */\n      dup1\n      sload\n      not(0xff0000)\n      and\n      swap1\n      sstore\n        /* \"contracts/FireLock.sol\":8887:8957  if (adminLockDetail.amount == 0) {... */\n    tag_281:\n      pop\n      pop\n        /* \"contracts/FireLock.sol\":2984:2989  false */\n      0x00\n        /* \"contracts/FireLock.sol\":2975:2989  locked = false */\n      dup1\n      sload\n      not(0xff)\n      and\n      swap1\n      sstore\n      pop\n      pop\n      pop\n      pop\n      pop\n      pop\n      pop\n        /* \"contracts/FireLock.sol\":7177:8959  function claim(uint256 _amount) public nonReentrant unlock {... */\n      jump\t// out\n        /* \"contracts/FireLock.sol\":11290:12130  function calculateClaimableAmount(uint256 userId) public view returns(uint256) {... */\n    tag_104:\n        /* \"contracts/FireLock.sol\":11360:11367  uint256 */\n      0x00\n        /* \"contracts/FireLock.sol\":11375:11388  address _user */\n      dup1\n        /* \"contracts/FireLock.sol\":11391:11406  adminLockDetail */\n      0x08\n        /* \"contracts/FireLock.sol\":11391:11413  adminLockDetail.member */\n      0x09\n      add\n        /* \"contracts/FireLock.sol\":11414:11420  userId */\n      dup4\n        /* \"contracts/FireLock.sol\":11391:11421  adminLockDetail.member[userId] */\n      dup2\n      sload\n      dup2\n      lt\n      tag_284\n      jumpi\n      tag_284\n      tag_217\n      jump\t// in\n    tag_284:\n      0x00\n      swap2\n      dup3\n      mstore\n      0x20\n      swap1\n      swap2\n      keccak256\n      add\n      sload\n        /* \"contracts/FireLock.sol\":11444:11466  adminLockDetail.member */\n      0x11\n        /* \"contracts/FireLock.sol\":11444:11473  adminLockDetail.member.length */\n      sload\n      sub(shl(0xa0, 0x01), 0x01)\n        /* \"contracts/FireLock.sol\":11391:11421  adminLockDetail.member[userId] */\n      swap1\n      swap2\n      and\n      swap2\n      pop\n        /* \"contracts/FireLock.sol\":11435:11473  userId < adminLockDetail.member.length */\n      dup4\n      lt\n        /* \"contracts/FireLock.sol\":11427:11508  require(userId < adminLockDetail.member.length , \"FireLock: User does not exist\") */\n      tag_286\n      jumpi\n      mload(0x40)\n      shl(0xe5, 0x461bcd)\n      dup2\n      mstore\n        /* \"#utility.yul\":15008:15010   */\n      0x20\n        /* \"contracts/FireLock.sol\":11427:11508  require(userId < adminLockDetail.member.length , \"FireLock: User does not exist\") */\n      0x04\n      dup3\n      add\n        /* \"#utility.yul\":14990:15011   */\n      mstore\n        /* \"#utility.yul\":15047:15049   */\n      0x1d\n        /* \"#utility.yul\":15027:15045   */\n      0x24\n      dup3\n      add\n        /* \"#utility.yul\":15020:15050   */\n      mstore\n        /* \"#utility.yul\":15086:15117   */\n      0x466972654c6f636b3a205573657220646f6573206e6f74206578697374000000\n        /* \"#utility.yul\":15066:15084   */\n      0x44\n      dup3\n      add\n        /* \"#utility.yul\":15059:15118   */\n      mstore\n        /* \"#utility.yul\":15135:15153   */\n      0x64\n      add\n        /* \"contracts/FireLock.sol\":11427:11508  require(userId < adminLockDetail.member.length , \"FireLock: User does not exist\") */\n      tag_197\n        /* \"#utility.yul\":14806:15159   */\n      jump\n        /* \"contracts/FireLock.sol\":11427:11508  require(userId < adminLockDetail.member.length , \"FireLock: User does not exist\") */\n    tag_286:\n      sub(shl(0xa0, 0x01), 0x01)\n        /* \"contracts/FireLock.sol\":11522:11541  _user != address(0) */\n      dup2\n      and\n        /* \"contracts/FireLock.sol\":11514:11575  require(_user != address(0), \"FireLock: User does not exist\") */\n      tag_289\n      jumpi\n      mload(0x40)\n      shl(0xe5, 0x461bcd)\n      dup2\n      mstore\n        /* \"#utility.yul\":15008:15010   */\n      0x20\n        /* \"contracts/FireLock.sol\":11514:11575  require(_user != address(0), \"FireLock: User does not exist\") */\n      0x04\n      dup3\n      add\n        /* \"#utility.yul\":14990:15011   */\n      mstore\n        /* \"#utility.yul\":15047:15049   */\n      0x1d\n        /* \"#utility.yul\":15027:15045   */\n      0x24\n      dup3\n      add\n        /* \"#utility.yul\":15020:15050   */\n      mstore\n        /* \"#utility.yul\":15086:15117   */\n      0x466972654c6f636b3a205573657220646f6573206e6f74206578697374000000\n        /* \"#utility.yul\":15066:15084   */\n      0x44\n      dup3\n      add\n        /* \"#utility.yul\":15059:15118   */\n      mstore\n        /* \"#utility.yul\":15135:15153   */\n      0x64\n      add\n        /* \"contracts/FireLock.sol\":11514:11575  require(_user != address(0), \"FireLock: User does not exist\") */\n      tag_197\n        /* \"#utility.yul\":14806:15159   */\n      jump\n        /* \"contracts/FireLock.sol\":11514:11575  require(_user != address(0), \"FireLock: User does not exist\") */\n    tag_289:\n      sub(shl(0xa0, 0x01), 0x01)\n        /* \"contracts/FireLock.sol\":11611:11626  userTime[_user] */\n      dup2\n      and\n        /* \"contracts/FireLock.sol\":11581:11601  uint256 unLockAmount */\n      0x00\n        /* \"contracts/FireLock.sol\":11611:11626  userTime[_user] */\n      swap1\n      dup2\n      mstore\n        /* \"contracts/FireLock.sol\":11611:11619  userTime */\n      0x15\n        /* \"contracts/FireLock.sol\":11611:11626  userTime[_user] */\n      0x20\n      mstore\n      0x40\n      dup2\n      keccak256\n      sload\n        /* \"contracts/FireLock.sol\":11611:11631  userTime[_user] == 0 */\n      dup2\n      sub\n        /* \"contracts/FireLock.sol\":11607:12103  if (userTime[_user] == 0) {... */\n      tag_291\n      jumpi\n        /* \"contracts/FireLock.sol\":11658:11863  totalAmount.mul(adminLockDetail.rate[userId]).mul(block.timestamp.sub(adminLockDetail.startTime))... */\n      tag_292\n        /* \"contracts/FireLock.sol\":2014:2019  86400 */\n      0x015180\n        /* \"contracts/FireLock.sol\":11658:11839  totalAmount.mul(adminLockDetail.rate[userId]).mul(block.timestamp.sub(adminLockDetail.startTime))... */\n      tag_244\n        /* \"contracts/FireLock.sol\":11811:11826  adminLockDetail */\n      0x08\n        /* \"contracts/FireLock.sol\":11811:11838  adminLockDetail.unlockCycle */\n      0x05\n      add\n      sload\n        /* \"contracts/FireLock.sol\":11658:11806  totalAmount.mul(adminLockDetail.rate[userId]).mul(block.timestamp.sub(adminLockDetail.startTime))... */\n      tag_247\n        /* \"contracts/FireLock.sol\":11778:11793  adminLockDetail */\n      0x08\n        /* \"contracts/FireLock.sol\":11778:11805  adminLockDetail.unlockRound */\n      0x06\n      add\n      sload\n        /* \"contracts/FireLock.sol\":11658:11773  totalAmount.mul(adminLockDetail.rate[userId]).mul(block.timestamp.sub(adminLockDetail.startTime))... */\n      tag_247\n        /* \"contracts/FireLock.sol\":11769:11772  100 */\n      0x64\n        /* \"contracts/FireLock.sol\":11658:11755  totalAmount.mul(adminLockDetail.rate[userId]).mul(block.timestamp.sub(adminLockDetail.startTime)) */\n      tag_247\n        /* \"contracts/FireLock.sol\":11708:11754  block.timestamp.sub(adminLockDetail.startTime) */\n      tag_297\n        /* \"contracts/FireLock.sol\":11728:11743  adminLockDetail */\n      0x08\n        /* \"contracts/FireLock.sol\":11728:11753  adminLockDetail.startTime */\n      0x02\n      add\n      sload\n        /* \"contracts/FireLock.sol\":11708:11723  block.timestamp */\n      timestamp\n        /* \"contracts/FireLock.sol\":11708:11727  block.timestamp.sub */\n      tag_240\n      swap1\n        /* \"contracts/FireLock.sol\":11708:11754  block.timestamp.sub(adminLockDetail.startTime) */\n      swap2\n      swap1\n      0xffffffff\n      and\n      jump\t// in\n    tag_297:\n        /* \"contracts/FireLock.sol\":11658:11703  totalAmount.mul(adminLockDetail.rate[userId]) */\n      tag_244\n        /* \"contracts/FireLock.sol\":11674:11689  adminLockDetail */\n      0x08\n        /* \"contracts/FireLock.sol\":11674:11694  adminLockDetail.rate */\n      0x07\n      add\n        /* \"contracts/FireLock.sol\":11695:11701  userId */\n      dup16\n        /* \"contracts/FireLock.sol\":11674:11702  adminLockDetail.rate[userId] */\n      dup2\n      sload\n      dup2\n      lt\n      tag_300\n      jumpi\n      tag_300\n      tag_217\n      jump\t// in\n    tag_300:\n      swap1\n      0x00\n      mstore\n      keccak256(0x00, 0x20)\n      add\n      sload\n        /* \"contracts/FireLock.sol\":11658:11669  totalAmount */\n      sload(0x06)\n        /* \"contracts/FireLock.sol\":11658:11673  totalAmount.mul */\n      tag_245\n      swap1\n        /* \"contracts/FireLock.sol\":11658:11703  totalAmount.mul(adminLockDetail.rate[userId]) */\n      swap2\n      swap1\n      0xffffffff\n      and\n      jump\t// in\n        /* \"contracts/FireLock.sol\":11658:11863  totalAmount.mul(adminLockDetail.rate[userId]).mul(block.timestamp.sub(adminLockDetail.startTime))... */\n    tag_292:\n        /* \"contracts/FireLock.sol\":11643:11863  unLockAmount = totalAmount.mul(adminLockDetail.rate[userId]).mul(block.timestamp.sub(adminLockDetail.startTime))... */\n      swap1\n      pop\n        /* \"contracts/FireLock.sol\":11607:12103  if (userTime[_user] == 0) {... */\n      jump(tag_302)\n    tag_291:\n        /* \"contracts/FireLock.sol\":12044:12071  adminLockDetail.unlockCycle */\n      sload(0x0d)\n        /* \"contracts/FireLock.sol\":12011:12038  adminLockDetail.unlockRound */\n      sload(0x0e)\n      sub(shl(0xa0, 0x01), 0x01)\n        /* \"contracts/FireLock.sol\":11971:11986  userTime[_user] */\n      dup5\n      and\n      0x00\n      swap1\n      dup2\n      mstore\n        /* \"contracts/FireLock.sol\":11971:11979  userTime */\n      0x15\n        /* \"contracts/FireLock.sol\":11971:11986  userTime[_user] */\n      0x20\n      mstore\n      0x40\n      swap1\n      keccak256\n      sload\n        /* \"contracts/FireLock.sol\":11901:12096  totalAmount.mul(adminLockDetail.rate[userId]).mul(block.timestamp.sub(userTime[_user]))... */\n      tag_303\n      swap3\n        /* \"contracts/FireLock.sol\":2014:2019  86400 */\n      0x015180\n      swap3\n        /* \"contracts/FireLock.sol\":11901:12072  totalAmount.mul(adminLockDetail.rate[userId]).mul(block.timestamp.sub(userTime[_user]))... */\n      tag_244\n      swap3\n        /* \"contracts/FireLock.sol\":11901:12039  totalAmount.mul(adminLockDetail.rate[userId]).mul(block.timestamp.sub(userTime[_user]))... */\n      tag_247\n      swap2\n        /* \"contracts/FireLock.sol\":12011:12038  adminLockDetail.unlockRound */\n      swap1\n        /* \"contracts/FireLock.sol\":11901:12039  totalAmount.mul(adminLockDetail.rate[userId]).mul(block.timestamp.sub(userTime[_user]))... */\n      dup3\n      swap1\n        /* \"contracts/FireLock.sol\":12002:12005  100 */\n      0x64\n      swap1\n        /* \"contracts/FireLock.sol\":11901:12039  totalAmount.mul(adminLockDetail.rate[userId]).mul(block.timestamp.sub(userTime[_user]))... */\n      dup3\n      swap1\n        /* \"contracts/FireLock.sol\":11951:11987  block.timestamp.sub(userTime[_user]) */\n      tag_297\n      swap1\n        /* \"contracts/FireLock.sol\":11951:11966  block.timestamp */\n      timestamp\n      swap1\n        /* \"contracts/FireLock.sol\":11951:11970  block.timestamp.sub */\n      tag_240\n        /* \"contracts/FireLock.sol\":11951:11987  block.timestamp.sub(userTime[_user]) */\n      jump\t// in\n        /* \"contracts/FireLock.sol\":11901:12096  totalAmount.mul(adminLockDetail.rate[userId]).mul(block.timestamp.sub(userTime[_user]))... */\n    tag_303:\n        /* \"contracts/FireLock.sol\":11886:12096  unLockAmount = totalAmount.mul(adminLockDetail.rate[userId]).mul(block.timestamp.sub(userTime[_user]))... */\n      swap1\n      pop\n        /* \"contracts/FireLock.sol\":11607:12103  if (userTime[_user] == 0) {... */\n    tag_302:\n        /* \"contracts/FireLock.sol\":12115:12127  unLockAmount */\n      swap4\n        /* \"contracts/FireLock.sol\":11290:12130  function calculateClaimableAmount(uint256 userId) public view returns(uint256) {... */\n      swap3\n      pop\n      pop\n      pop\n      jump\t// out\n        /* \"contracts/FireLock.sol\":12633:12740  function getMemberRate() public view returns(uint256[] memory) {... */\n    tag_112:\n        /* \"contracts/FireLock.sol\":12678:12694  uint256[] memory */\n      0x60\n        /* \"contracts/FireLock.sol\":12713:12728  adminLockDetail */\n      0x08\n        /* \"contracts/FireLock.sol\":12713:12733  adminLockDetail.rate */\n      0x07\n      add\n        /* \"contracts/FireLock.sol\":12706:12733  return adminLockDetail.rate */\n      dup1\n      sload\n      dup1\n      0x20\n      mul\n      0x20\n      add\n      mload(0x40)\n      swap1\n      dup2\n      add\n      0x40\n      mstore\n      dup1\n      swap3\n      swap2\n      swap1\n      dup2\n      dup2\n      mstore\n      0x20\n      add\n      dup3\n      dup1\n      sload\n      dup1\n      iszero\n      tag_185\n      jumpi\n      0x20\n      mul\n      dup3\n      add\n      swap2\n      swap1\n      0x00\n      mstore\n      keccak256(0x00, 0x20)\n      swap1\n    tag_316:\n      dup2\n      sload\n      dup2\n      mstore\n      0x20\n      add\n      swap1\n      0x01\n      add\n      swap1\n      dup1\n      dup4\n      gt\n      tag_316\n      jumpi\n      pop\n      pop\n      pop\n      pop\n      pop\n      swap1\n      pop\n        /* \"contracts/FireLock.sol\":12633:12740  function getMemberRate() public view returns(uint256[] memory) {... */\n      swap1\n      jump\t// out\n        /* \"contracts/FireLock.sol\":12254:12378  function feeAmount() public view returns(uint256) {... */\n    tag_117:\n        /* \"contracts/FireLock.sol\":12342:12361  fireLockFeeTransfer */\n      sload(0x03)\n        /* \"contracts/FireLock.sol\":12321:12371  IFireLockFeeTransfer(fireLockFeeTransfer).getFee() */\n      0x40\n      dup1\n      mload\n      shl(0xe0, 0xced72f87)\n      dup2\n      mstore\n      swap1\n      mload\n        /* \"contracts/FireLock.sol\":12295:12302  uint256 */\n      0x00\n      swap3\n      sub(shl(0xa0, 0x01), 0x01)\n        /* \"contracts/FireLock.sol\":12342:12361  fireLockFeeTransfer */\n      and\n      swap2\n        /* \"contracts/FireLock.sol\":12321:12369  IFireLockFeeTransfer(fireLockFeeTransfer).getFee */\n      0xced72f87\n      swap2\n        /* \"contracts/FireLock.sol\":12321:12371  IFireLockFeeTransfer(fireLockFeeTransfer).getFee() */\n      0x04\n      dup1\n      dup4\n      add\n      swap3\n      0x20\n      swap3\n      swap2\n      swap1\n      dup3\n      swap1\n      sub\n      add\n      dup2\n        /* \"contracts/FireLock.sol\":12342:12361  fireLockFeeTransfer */\n      dup7\n        /* \"contracts/FireLock.sol\":12321:12371  IFireLockFeeTransfer(fireLockFeeTransfer).getFee() */\n      gas\n      staticcall\n      iszero\n      dup1\n      iszero\n      tag_319\n      jumpi\n      returndatasize\n      0x00\n      dup1\n      returndatacopy\n      revert(0x00, returndatasize)\n    tag_319:\n      pop\n      pop\n      pop\n      pop\n      mload(0x40)\n      returndatasize\n      not(0x1f)\n      0x1f\n      dup3\n      add\n      and\n      dup3\n      add\n      dup1\n      0x40\n      mstore\n      pop\n      dup2\n      add\n      swap1\n      tag_320\n      swap2\n      swap1\n      tag_321\n      jump\t// in\n    tag_320:\n        /* \"contracts/FireLock.sol\":12314:12371  return IFireLockFeeTransfer(fireLockFeeTransfer).getFee() */\n      swap1\n      pop\n        /* \"contracts/FireLock.sol\":12254:12378  function feeAmount() public view returns(uint256) {... */\n      swap1\n      jump\t// out\n        /* \"contracts/FireLock.sol\":4247:6856  function Lock(... */\n    tag_122:\n        /* \"contracts/FireLock.sol\":2633:2643  lockStatus */\n      sload(0x00)\n      0x0100\n      swap1\n      div\n      0xff\n      and\n        /* \"contracts/FireLock.sol\":2625:2693  require(lockStatus,\"FireLock: You have already locked the position\") */\n      tag_323\n      jumpi\n      mload(0x40)\n      shl(0xe5, 0x461bcd)\n      dup2\n      mstore\n        /* \"#utility.yul\":15555:15557   */\n      0x20\n        /* \"contracts/FireLock.sol\":2625:2693  require(lockStatus,\"FireLock: You have already locked the position\") */\n      0x04\n      dup3\n      add\n        /* \"#utility.yul\":15537:15558   */\n      mstore\n        /* \"#utility.yul\":15594:15596   */\n      0x2e\n        /* \"#utility.yul\":15574:15592   */\n      0x24\n      dup3\n      add\n        /* \"#utility.yul\":15567:15597   */\n      mstore\n        /* \"#utility.yul\":15633:15667   */\n      0x466972654c6f636b3a20596f75206861766520616c7265616479206c6f636b65\n        /* \"#utility.yul\":15613:15631   */\n      0x44\n      dup3\n      add\n        /* \"#utility.yul\":15606:15668   */\n      mstore\n      shl(0x91, 0x32103a3432903837b9b4ba34b7b7)\n        /* \"#utility.yul\":15684:15702   */\n      0x64\n      dup3\n      add\n        /* \"#utility.yul\":15677:15721   */\n      mstore\n        /* \"#utility.yul\":15738:15757   */\n      0x84\n      add\n        /* \"contracts/FireLock.sol\":2625:2693  require(lockStatus,\"FireLock: You have already locked the position\") */\n      tag_197\n        /* \"#utility.yul\":15353:15763   */\n      jump\n        /* \"contracts/FireLock.sol\":2625:2693  require(lockStatus,\"FireLock: You have already locked the position\") */\n    tag_323:\n        /* \"contracts/FireLock.sol\":4517:4530  isUnique(_to) */\n      tag_327\n        /* \"contracts/FireLock.sol\":4526:4529  _to */\n      dup5\n        /* \"contracts/FireLock.sol\":4517:4525  isUnique */\n      tag_137\n        /* \"contracts/FireLock.sol\":4517:4530  isUnique(_to) */\n      jump\t// in\n    tag_327:\n        /* \"contracts/FireLock.sol\":4509:4565  require(isUnique(_to),\"FireLock: address is not unique\") */\n      tag_328\n      jumpi\n      mload(0x40)\n      shl(0xe5, 0x461bcd)\n      dup2\n      mstore\n        /* \"#utility.yul\":15970:15972   */\n      0x20\n        /* \"contracts/FireLock.sol\":4509:4565  require(isUnique(_to),\"FireLock: address is not unique\") */\n      0x04\n      dup3\n      add\n        /* \"#utility.yul\":15952:15973   */\n      mstore\n        /* \"#utility.yul\":16009:16011   */\n      0x1f\n        /* \"#utility.yul\":15989:16007   */\n      0x24\n      dup3\n      add\n        /* \"#utility.yul\":15982:16012   */\n      mstore\n        /* \"#utility.yul\":16048:16081   */\n      0x466972654c6f636b3a2061646472657373206973206e6f7420756e6971756500\n        /* \"#utility.yul\":16028:16046   */\n      0x44\n      dup3\n      add\n        /* \"#utility.yul\":16021:16082   */\n      mstore\n        /* \"#utility.yul\":16099:16117   */\n      0x64\n      add\n        /* \"contracts/FireLock.sol\":4509:4565  require(isUnique(_to),\"FireLock: address is not unique\") */\n      tag_197\n        /* \"#utility.yul\":15768:16123   */\n      jump\n        /* \"contracts/FireLock.sol\":4509:4565  require(isUnique(_to),\"FireLock: address is not unique\") */\n    tag_328:\n        /* \"contracts/FireLock.sol\":4592:4593  0 */\n      0x00\n        /* \"contracts/FireLock.sol\":4579:4582  _to */\n      dup5\n        /* \"contracts/FireLock.sol\":4579:4589  _to.length */\n      mload\n        /* \"contracts/FireLock.sol\":4579:4593  _to.length > 0 */\n      gt\n        /* \"contracts/FireLock.sol\":4579:4613  _to.length > 0 && _rate.length > 0 */\n      dup1\n      iszero\n      tag_331\n      jumpi\n      pop\n        /* \"contracts/FireLock.sol\":4612:4613  0 */\n      0x00\n        /* \"contracts/FireLock.sol\":4597:4602  _rate */\n      dup4\n        /* \"contracts/FireLock.sol\":4597:4609  _rate.length */\n      mload\n        /* \"contracts/FireLock.sol\":4597:4613  _rate.length > 0 */\n      gt\n        /* \"contracts/FireLock.sol\":4579:4613  _to.length > 0 && _rate.length > 0 */\n    tag_331:\n        /* \"contracts/FireLock.sol\":4571:4662  require(_to.length > 0 && _rate.length > 0 , \"FireLock: Address and scale cannot be empty\") */\n      tag_332\n      jumpi\n      mload(0x40)\n      shl(0xe5, 0x461bcd)\n      dup2\n      mstore\n        /* \"#utility.yul\":16330:16332   */\n      0x20\n        /* \"contracts/FireLock.sol\":4571:4662  require(_to.length > 0 && _rate.length > 0 , \"FireLock: Address and scale cannot be empty\") */\n      0x04\n      dup3\n      add\n        /* \"#utility.yul\":16312:16333   */\n      mstore\n        /* \"#utility.yul\":16369:16371   */\n      0x2b\n        /* \"#utility.yul\":16349:16367   */\n      0x24\n      dup3\n      add\n        /* \"#utility.yul\":16342:16372   */\n      mstore\n        /* \"#utility.yul\":16408:16442   */\n      0x466972654c6f636b3a204164647265737320616e64207363616c652063616e6e\n        /* \"#utility.yul\":16388:16406   */\n      0x44\n      dup3\n      add\n        /* \"#utility.yul\":16381:16443   */\n      mstore\n      shl(0xa8, 0x6f7420626520656d707479)\n        /* \"#utility.yul\":16459:16477   */\n      0x64\n      dup3\n      add\n        /* \"#utility.yul\":16452:16493   */\n      mstore\n        /* \"#utility.yul\":16510:16529   */\n      0x84\n      add\n        /* \"contracts/FireLock.sol\":4571:4662  require(_to.length > 0 && _rate.length > 0 , \"FireLock: Address and scale cannot be empty\") */\n      tag_197\n        /* \"#utility.yul\":16128:16535   */\n      jump\n        /* \"contracts/FireLock.sol\":4571:4662  require(_to.length > 0 && _rate.length > 0 , \"FireLock: Address and scale cannot be empty\") */\n    tag_332:\n        /* \"contracts/FireLock.sol\":4690:4695  _rate */\n      dup3\n        /* \"contracts/FireLock.sol\":4690:4702  _rate.length */\n      mload\n        /* \"contracts/FireLock.sol\":4676:4679  _to */\n      dup5\n        /* \"contracts/FireLock.sol\":4676:4686  _to.length */\n      mload\n        /* \"contracts/FireLock.sol\":4676:4702  _to.length == _rate.length */\n      eq\n        /* \"contracts/FireLock.sol\":4668:4735  require(_to.length == _rate.length , \"FireLock: user amount error\") */\n      tag_335\n      jumpi\n      mload(0x40)\n      shl(0xe5, 0x461bcd)\n      dup2\n      mstore\n        /* \"#utility.yul\":11155:11157   */\n      0x20\n        /* \"contracts/FireLock.sol\":4668:4735  require(_to.length == _rate.length , \"FireLock: user amount error\") */\n      0x04\n      dup3\n      add\n        /* \"#utility.yul\":11137:11158   */\n      mstore\n        /* \"#utility.yul\":11194:11196   */\n      0x1b\n        /* \"#utility.yul\":11174:11192   */\n      0x24\n      dup3\n      add\n        /* \"#utility.yul\":11167:11197   */\n      mstore\n        /* \"#utility.yul\":11233:11262   */\n      0x466972654c6f636b3a207573657220616d6f756e74206572726f720000000000\n        /* \"#utility.yul\":11213:11231   */\n      0x44\n      dup3\n      add\n        /* \"#utility.yul\":11206:11263   */\n      mstore\n        /* \"#utility.yul\":11280:11298   */\n      0x64\n      add\n        /* \"contracts/FireLock.sol\":4668:4735  require(_to.length == _rate.length , \"FireLock: user amount error\") */\n      tag_197\n        /* \"#utility.yul\":10953:11304   */\n      jump\n        /* \"contracts/FireLock.sol\":4668:4735  require(_to.length == _rate.length , \"FireLock: user amount error\") */\n    tag_335:\n        /* \"contracts/FireLock.sol\":4745:4754  uint256 i */\n      0x00\n        /* \"contracts/FireLock.sol\":4741:4876  for(uint256 i = 0; i < _to.length; i++){... */\n    tag_337:\n        /* \"contracts/FireLock.sol\":4764:4767  _to */\n      dup5\n        /* \"contracts/FireLock.sol\":4764:4774  _to.length */\n      mload\n        /* \"contracts/FireLock.sol\":4760:4761  i */\n      dup2\n        /* \"contracts/FireLock.sol\":4760:4774  i < _to.length */\n      lt\n        /* \"contracts/FireLock.sol\":4741:4876  for(uint256 i = 0; i < _to.length; i++){... */\n      iszero\n      tag_338\n      jumpi\n        /* \"contracts/FireLock.sol\":4799:4818  _to[i].isContract() */\n      tag_340\n        /* \"contracts/FireLock.sol\":4799:4802  _to */\n      dup6\n        /* \"contracts/FireLock.sol\":4803:4804  i */\n      dup3\n        /* \"contracts/FireLock.sol\":4799:4805  _to[i] */\n      dup2\n      mload\n      dup2\n      lt\n      tag_342\n      jumpi\n      tag_342\n      tag_217\n      jump\t// in\n    tag_342:\n      0x20\n      mul\n      0x20\n      add\n      add\n      mload\n      sub(shl(0xa0, 0x01), 0x01)\n        /* \"contracts/FireLock.sol\":4799:4816  _to[i].isContract */\n      and\n      sub(shl(0xa0, 0x01), 0x01)\n        /* \"@openzeppelin/contracts/utils/Address.sol\":1465:1484  account.code.length */\n      and\n      extcodesize\n        /* \"@openzeppelin/contracts/utils/Address.sol\":1465:1488  account.code.length > 0 */\n      iszero\n      iszero\n      swap1\n        /* \"@openzeppelin/contracts/utils/Address.sol\":1175:1495  function isContract(address account) internal view returns (bool) {... */\n      jump\n        /* \"contracts/FireLock.sol\":4799:4818  _to[i].isContract() */\n    tag_340:\n        /* \"contracts/FireLock.sol\":4798:4818  !_to[i].isContract() */\n      iszero\n        /* \"contracts/FireLock.sol\":4790:4869  require(!_to[i].isContract(), \"FireLock: Contract address found in _to array.\") */\n      tag_344\n      jumpi\n      mload(0x40)\n      shl(0xe5, 0x461bcd)\n      dup2\n      mstore\n        /* \"#utility.yul\":16742:16744   */\n      0x20\n        /* \"contracts/FireLock.sol\":4790:4869  require(!_to[i].isContract(), \"FireLock: Contract address found in _to array.\") */\n      0x04\n      dup3\n      add\n        /* \"#utility.yul\":16724:16745   */\n      mstore\n        /* \"#utility.yul\":16781:16783   */\n      0x2e\n        /* \"#utility.yul\":16761:16779   */\n      0x24\n      dup3\n      add\n        /* \"#utility.yul\":16754:16784   */\n      mstore\n        /* \"#utility.yul\":16820:16854   */\n      0x466972654c6f636b3a20436f6e7472616374206164647265737320666f756e64\n        /* \"#utility.yul\":16800:16818   */\n      0x44\n      dup3\n      add\n        /* \"#utility.yul\":16793:16855   */\n      mstore\n      shl(0x91, 0x1034b7102fba379030b93930bc97)\n        /* \"#utility.yul\":16871:16889   */\n      0x64\n      dup3\n      add\n        /* \"#utility.yul\":16864:16908   */\n      mstore\n        /* \"#utility.yul\":16925:16944   */\n      0x84\n      add\n        /* \"contracts/FireLock.sol\":4790:4869  require(!_to[i].isContract(), \"FireLock: Contract address found in _to array.\") */\n      tag_197\n        /* \"#utility.yul\":16540:16950   */\n      jump\n        /* \"contracts/FireLock.sol\":4790:4869  require(!_to[i].isContract(), \"FireLock: Contract address found in _to array.\") */\n    tag_344:\n        /* \"contracts/FireLock.sol\":4776:4779  i++ */\n      dup1\n      tag_347\n      dup2\n      tag_348\n      jump\t// in\n    tag_347:\n      swap2\n      pop\n      pop\n        /* \"contracts/FireLock.sol\":4741:4876  for(uint256 i = 0; i < _to.length; i++){... */\n      jump(tag_337)\n    tag_338:\n      pop\n        /* \"contracts/FireLock.sol\":4903:4913  createUser */\n      and(sub(shl(0xa0, 0x01), 0x01), sload(0x05))\n        /* \"contracts/FireLock.sol\":4889:4899  msg.sender */\n      caller\n        /* \"contracts/FireLock.sol\":4889:4913  msg.sender == createUser */\n      eq\n        /* \"contracts/FireLock.sol\":4881:4950  require(msg.sender == createUser, \"FireLock: you are not creat user\") */\n      tag_349\n      jumpi\n      mload(0x40)\n      shl(0xe5, 0x461bcd)\n      dup2\n      mstore\n        /* \"#utility.yul\":17429:17431   */\n      0x20\n        /* \"contracts/FireLock.sol\":4881:4950  require(msg.sender == createUser, \"FireLock: you are not creat user\") */\n      0x04\n      dup3\n      add\n        /* \"#utility.yul\":17411:17432   */\n      dup2\n      swap1\n      mstore\n        /* \"#utility.yul\":17448:17466   */\n      0x24\n      dup3\n      add\n        /* \"#utility.yul\":17441:17471   */\n      mstore\n        /* \"#utility.yul\":17507:17541   */\n      0x466972654c6f636b3a20796f7520617265206e6f742063726561742075736572\n        /* \"#utility.yul\":17487:17505   */\n      0x44\n      dup3\n      add\n        /* \"#utility.yul\":17480:17542   */\n      mstore\n        /* \"#utility.yul\":17559:17577   */\n      0x64\n      add\n        /* \"contracts/FireLock.sol\":4881:4950  require(msg.sender == createUser, \"FireLock: you are not creat user\") */\n      tag_197\n        /* \"#utility.yul\":17227:17583   */\n      jump\n        /* \"contracts/FireLock.sol\":4881:4950  require(msg.sender == createUser, \"FireLock: you are not creat user\") */\n    tag_349:\n        /* \"contracts/FireLock.sol\":5042:5057  block.timestamp */\n      timestamp\n        /* \"contracts/FireLock.sol\":4964:5039  block.timestamp.add(_unlockCycle.mul(_unlockRound).mul(ONE_DAY_TIME_STAMP)) */\n      tag_352\n        /* \"contracts/FireLock.sol\":4984:5038  _unlockCycle.mul(_unlockRound).mul(ONE_DAY_TIME_STAMP) */\n      tag_353\n        /* \"contracts/FireLock.sol\":2014:2019  86400 */\n      0x015180\n        /* \"contracts/FireLock.sol\":4984:5014  _unlockCycle.mul(_unlockRound) */\n      tag_244\n        /* \"contracts/FireLock.sol\":4984:4996  _unlockCycle */\n      dup12\n        /* \"contracts/FireLock.sol\":5001:5013  _unlockRound */\n      dup12\n        /* \"contracts/FireLock.sol\":4984:5000  _unlockCycle.mul */\n      tag_245\n        /* \"contracts/FireLock.sol\":4984:5014  _unlockCycle.mul(_unlockRound) */\n      jump\t// in\n        /* \"contracts/FireLock.sol\":4984:5038  _unlockCycle.mul(_unlockRound).mul(ONE_DAY_TIME_STAMP) */\n    tag_353:\n        /* \"contracts/FireLock.sol\":4964:4979  block.timestamp */\n      timestamp\n      swap1\n        /* \"contracts/FireLock.sol\":4964:4983  block.timestamp.add */\n      tag_261\n        /* \"contracts/FireLock.sol\":4964:5039  block.timestamp.add(_unlockCycle.mul(_unlockRound).mul(ONE_DAY_TIME_STAMP)) */\n      jump\t// in\n    tag_352:\n        /* \"contracts/FireLock.sol\":4964:5057  block.timestamp.add(_unlockCycle.mul(_unlockRound).mul(ONE_DAY_TIME_STAMP)) > block.timestamp */\n      gt\n        /* \"contracts/FireLock.sol\":4956:5123  require(block.timestamp.add(_unlockCycle.mul(_unlockRound).mul(ONE_DAY_TIME_STAMP)) > block.timestamp, \"FireLock: Deadline should be bigger than current block number\") */\n      tag_355\n      jumpi\n      mload(0x40)\n      shl(0xe5, 0x461bcd)\n      dup2\n      mstore\n        /* \"#utility.yul\":17790:17792   */\n      0x20\n        /* \"contracts/FireLock.sol\":4956:5123  require(block.timestamp.add(_unlockCycle.mul(_unlockRound).mul(ONE_DAY_TIME_STAMP)) > block.timestamp, \"FireLock: Deadline should be bigger than current block number\") */\n      0x04\n      dup3\n      add\n        /* \"#utility.yul\":17772:17793   */\n      mstore\n        /* \"#utility.yul\":17829:17831   */\n      0x3d\n        /* \"#utility.yul\":17809:17827   */\n      0x24\n      dup3\n      add\n        /* \"#utility.yul\":17802:17832   */\n      mstore\n        /* \"#utility.yul\":17868:17902   */\n      0x466972654c6f636b3a20446561646c696e652073686f756c6420626520626967\n        /* \"#utility.yul\":17848:17866   */\n      0x44\n      dup3\n      add\n        /* \"#utility.yul\":17841:17903   */\n      mstore\n        /* \"#utility.yul\":17939:17970   */\n      0x676572207468616e2063757272656e7420626c6f636b206e756d626572000000\n        /* \"#utility.yul\":17919:17937   */\n      0x64\n      dup3\n      add\n        /* \"#utility.yul\":17912:17971   */\n      mstore\n        /* \"#utility.yul\":17988:18007   */\n      0x84\n      add\n        /* \"contracts/FireLock.sol\":4956:5123  require(block.timestamp.add(_unlockCycle.mul(_unlockRound).mul(ONE_DAY_TIME_STAMP)) > block.timestamp, \"FireLock: Deadline should be bigger than current block number\") */\n      tag_197\n        /* \"#utility.yul\":17588:18013   */\n      jump\n        /* \"contracts/FireLock.sol\":4956:5123  require(block.timestamp.add(_unlockCycle.mul(_unlockRound).mul(ONE_DAY_TIME_STAMP)) > block.timestamp, \"FireLock: Deadline should be bigger than current block number\") */\n    tag_355:\n        /* \"contracts/FireLock.sol\":5147:5148  0 */\n      0x00\n        /* \"contracts/FireLock.sol\":5137:5144  _amount */\n      dup6\n        /* \"contracts/FireLock.sol\":5137:5148  _amount > 0 */\n      gt\n        /* \"contracts/FireLock.sol\":5129:5202  require(_amount > 0, \"FireLock: Token amount should be bigger than zero\") */\n      tag_358\n      jumpi\n      mload(0x40)\n      shl(0xe5, 0x461bcd)\n      dup2\n      mstore\n        /* \"#utility.yul\":18220:18222   */\n      0x20\n        /* \"contracts/FireLock.sol\":5129:5202  require(_amount > 0, \"FireLock: Token amount should be bigger than zero\") */\n      0x04\n      dup3\n      add\n        /* \"#utility.yul\":18202:18223   */\n      mstore\n        /* \"#utility.yul\":18259:18261   */\n      0x31\n        /* \"#utility.yul\":18239:18257   */\n      0x24\n      dup3\n      add\n        /* \"#utility.yul\":18232:18262   */\n      mstore\n        /* \"#utility.yul\":18298:18332   */\n      0x466972654c6f636b3a20546f6b656e20616d6f756e742073686f756c64206265\n        /* \"#utility.yul\":18278:18296   */\n      0x44\n      dup3\n      add\n        /* \"#utility.yul\":18271:18333   */\n      mstore\n      shl(0x78, 0x20626967676572207468616e207a65726f)\n        /* \"#utility.yul\":18349:18367   */\n      0x64\n      dup3\n      add\n        /* \"#utility.yul\":18342:18389   */\n      mstore\n        /* \"#utility.yul\":18406:18425   */\n      0x84\n      add\n        /* \"contracts/FireLock.sol\":5129:5202  require(_amount > 0, \"FireLock: Token amount should be bigger than zero\") */\n      tag_197\n        /* \"#utility.yul\":18018:18431   */\n      jump\n        /* \"contracts/FireLock.sol\":5129:5202  require(_amount > 0, \"FireLock: Token amount should be bigger than zero\") */\n    tag_358:\n        /* \"contracts/FireLock.sol\":5216:5234  validateSum(_rate) */\n      tag_361\n        /* \"contracts/FireLock.sol\":5228:5233  _rate */\n      dup4\n        /* \"contracts/FireLock.sol\":5216:5227  validateSum */\n      tag_170\n        /* \"contracts/FireLock.sol\":5216:5234  validateSum(_rate) */\n      jump\t// in\n    tag_361:\n        /* \"contracts/FireLock.sol\":5208:5258  require(validateSum(_rate),\"FireLock: rate error\") */\n      tag_362\n      jumpi\n      mload(0x40)\n      shl(0xe5, 0x461bcd)\n      dup2\n      mstore\n        /* \"#utility.yul\":18638:18640   */\n      0x20\n        /* \"contracts/FireLock.sol\":5208:5258  require(validateSum(_rate),\"FireLock: rate error\") */\n      0x04\n      dup3\n      add\n        /* \"#utility.yul\":18620:18641   */\n      mstore\n        /* \"#utility.yul\":18677:18679   */\n      0x14\n        /* \"#utility.yul\":18657:18675   */\n      0x24\n      dup3\n      add\n        /* \"#utility.yul\":18650:18680   */\n      mstore\n      shl(0x61, 0x2334b932a637b1b59d103930ba329032b93937b9)\n        /* \"#utility.yul\":18696:18714   */\n      0x44\n      dup3\n      add\n        /* \"#utility.yul\":18689:18739   */\n      mstore\n        /* \"#utility.yul\":18756:18774   */\n      0x64\n      add\n        /* \"contracts/FireLock.sol\":5208:5258  require(validateSum(_rate),\"FireLock: rate error\") */\n      tag_197\n        /* \"#utility.yul\":18436:18780   */\n      jump\n        /* \"contracts/FireLock.sol\":5208:5258  require(validateSum(_rate),\"FireLock: rate error\") */\n    tag_362:\n        /* \"contracts/FireLock.sol\":5287:5288  0 */\n      0x00\n        /* \"contracts/FireLock.sol\":5272:5284  _unlockCycle */\n      dup8\n        /* \"contracts/FireLock.sol\":5272:5288  _unlockCycle > 0 */\n      gt\n        /* \"contracts/FireLock.sol\":5272:5308  _unlockCycle > 0 && _unlockRound > 0 */\n      dup1\n      iszero\n      tag_365\n      jumpi\n      pop\n        /* \"contracts/FireLock.sol\":5307:5308  0 */\n      0x00\n        /* \"contracts/FireLock.sol\":5292:5304  _unlockRound */\n      dup7\n        /* \"contracts/FireLock.sol\":5292:5308  _unlockRound > 0 */\n      gt\n        /* \"contracts/FireLock.sol\":5272:5308  _unlockCycle > 0 && _unlockRound > 0 */\n    tag_365:\n        /* \"contracts/FireLock.sol\":5264:5352  require(_unlockCycle > 0 && _unlockRound > 0, \"FireLock: Period and round input errors\") */\n      tag_366\n      jumpi\n      mload(0x40)\n      shl(0xe5, 0x461bcd)\n      dup2\n      mstore\n        /* \"#utility.yul\":18987:18989   */\n      0x20\n        /* \"contracts/FireLock.sol\":5264:5352  require(_unlockCycle > 0 && _unlockRound > 0, \"FireLock: Period and round input errors\") */\n      0x04\n      dup3\n      add\n        /* \"#utility.yul\":18969:18990   */\n      mstore\n        /* \"#utility.yul\":19026:19028   */\n      0x27\n        /* \"#utility.yul\":19006:19024   */\n      0x24\n      dup3\n      add\n        /* \"#utility.yul\":18999:19029   */\n      mstore\n        /* \"#utility.yul\":19065:19099   */\n      0x466972654c6f636b3a20506572696f6420616e6420726f756e6420696e707574\n        /* \"#utility.yul\":19045:19063   */\n      0x44\n      dup3\n      add\n        /* \"#utility.yul\":19038:19100   */\n      mstore\n      shl(0xc8, 0x206572726f7273)\n        /* \"#utility.yul\":19116:19134   */\n      0x64\n      dup3\n      add\n        /* \"#utility.yul\":19109:19146   */\n      mstore\n        /* \"#utility.yul\":19163:19182   */\n      0x84\n      add\n        /* \"contracts/FireLock.sol\":5264:5352  require(_unlockCycle > 0 && _unlockRound > 0, \"FireLock: Period and round input errors\") */\n      tag_197\n        /* \"#utility.yul\":18785:19188   */\n      jump\n        /* \"contracts/FireLock.sol\":5264:5352  require(_unlockCycle > 0 && _unlockRound > 0, \"FireLock: Period and round input errors\") */\n    tag_366:\n        /* \"contracts/FireLock.sol\":5389:5390  0 */\n      0x00\n        /* \"contracts/FireLock.sol\":5372:5378  _title */\n      dup3\n        /* \"contracts/FireLock.sol\":5366:5386  bytes(_title).length */\n      mload\n        /* \"contracts/FireLock.sol\":5366:5390  bytes(_title).length > 0 */\n      gt\n        /* \"contracts/FireLock.sol\":5358:5430  require(bytes(_title).length > 0, \"FireLock: String must not be empty.\") */\n      tag_369\n      jumpi\n      mload(0x40)\n      shl(0xe5, 0x461bcd)\n      dup2\n      mstore\n        /* \"#utility.yul\":19395:19397   */\n      0x20\n        /* \"contracts/FireLock.sol\":5358:5430  require(bytes(_title).length > 0, \"FireLock: String must not be empty.\") */\n      0x04\n      dup3\n      add\n        /* \"#utility.yul\":19377:19398   */\n      mstore\n        /* \"#utility.yul\":19434:19436   */\n      0x23\n        /* \"#utility.yul\":19414:19432   */\n      0x24\n      dup3\n      add\n        /* \"#utility.yul\":19407:19437   */\n      mstore\n        /* \"#utility.yul\":19473:19507   */\n      0x466972654c6f636b3a20537472696e67206d757374206e6f7420626520656d70\n        /* \"#utility.yul\":19453:19471   */\n      0x44\n      dup3\n      add\n        /* \"#utility.yul\":19446:19508   */\n      mstore\n      shl(0xe9, 0x3a3c97)\n        /* \"#utility.yul\":19524:19542   */\n      0x64\n      dup3\n      add\n        /* \"#utility.yul\":19517:19550   */\n      mstore\n        /* \"#utility.yul\":19567:19586   */\n      0x84\n      add\n        /* \"contracts/FireLock.sol\":5358:5430  require(bytes(_title).length > 0, \"FireLock: String must not be empty.\") */\n      tag_197\n        /* \"#utility.yul\":19193:19592   */\n      jump\n        /* \"contracts/FireLock.sol\":5358:5430  require(bytes(_title).length > 0, \"FireLock: String must not be empty.\") */\n    tag_369:\n        /* \"contracts/FireLock.sol\":5452:5462  msg.sender */\n      caller\n        /* \"contracts/FireLock.sol\":5436:5449  address owner */\n      0x00\n        /* \"contracts/FireLock.sol\":5490:5547  block.timestamp.add(_cliffPeriod.mul(ONE_DAY_TIME_STAMP)) */\n      tag_372\n        /* \"contracts/FireLock.sol\":5510:5546  _cliffPeriod.mul(ONE_DAY_TIME_STAMP) */\n      tag_353\n        /* \"contracts/FireLock.sol\":5510:5522  _cliffPeriod */\n      dup5\n        /* \"contracts/FireLock.sol\":2014:2019  86400 */\n      0x015180\n        /* \"contracts/FireLock.sol\":5510:5526  _cliffPeriod.mul */\n      tag_245\n        /* \"contracts/FireLock.sol\":5510:5546  _cliffPeriod.mul(ONE_DAY_TIME_STAMP) */\n      jump\t// in\n        /* \"contracts/FireLock.sol\":5490:5547  block.timestamp.add(_cliffPeriod.mul(ONE_DAY_TIME_STAMP)) */\n    tag_372:\n        /* \"contracts/FireLock.sol\":5468:5547  uint256 cliffPeriod = block.timestamp.add(_cliffPeriod.mul(ONE_DAY_TIME_STAMP)) */\n      swap1\n      pop\n        /* \"contracts/FireLock.sol\":5554:5566  uint256 _ddl */\n      0x00\n        /* \"contracts/FireLock.sol\":5569:5640  cliffPeriod.add(_unlockCycle.add(_unlockRound).mul(ONE_DAY_TIME_STAMP)) */\n      tag_374\n        /* \"contracts/FireLock.sol\":5585:5639  _unlockCycle.add(_unlockRound).mul(ONE_DAY_TIME_STAMP) */\n      tag_375\n        /* \"contracts/FireLock.sol\":2014:2019  86400 */\n      0x015180\n        /* \"contracts/FireLock.sol\":5585:5615  _unlockCycle.add(_unlockRound) */\n      tag_244\n        /* \"contracts/FireLock.sol\":5585:5597  _unlockCycle */\n      dup14\n        /* \"contracts/FireLock.sol\":5602:5614  _unlockRound */\n      dup14\n        /* \"contracts/FireLock.sol\":5585:5601  _unlockCycle.add */\n      tag_261\n        /* \"contracts/FireLock.sol\":5585:5615  _unlockCycle.add(_unlockRound) */\n      jump\t// in\n        /* \"contracts/FireLock.sol\":5585:5639  _unlockCycle.add(_unlockRound).mul(ONE_DAY_TIME_STAMP) */\n    tag_375:\n        /* \"contracts/FireLock.sol\":5569:5580  cliffPeriod */\n      dup4\n      swap1\n        /* \"contracts/FireLock.sol\":5569:5584  cliffPeriod.add */\n      tag_261\n        /* \"contracts/FireLock.sol\":5569:5640  cliffPeriod.add(_unlockCycle.add(_unlockRound).mul(ONE_DAY_TIME_STAMP)) */\n      jump\t// in\n    tag_374:\n        /* \"contracts/FireLock.sol\":5554:5640  uint256 _ddl = cliffPeriod.add(_unlockCycle.add(_unlockRound).mul(ONE_DAY_TIME_STAMP)) */\n      swap1\n      pop\n        /* \"contracts/FireLock.sol\":5651:5660  msg.value */\n      callvalue\n        /* \"contracts/FireLock.sol\":5664:5665  0 */\n      0x00\n        /* \"contracts/FireLock.sol\":5651:5665  msg.value == 0 */\n      sub\n        /* \"contracts/FireLock.sol\":5647:5942  if (msg.value == 0) {... */\n      tag_377\n      jumpi\n        /* \"contracts/FireLock.sol\":5709:5713  weth */\n      sload(0x00)\n        /* \"contracts/FireLock.sol\":5677:5754  TransferHelper.safeTransferFrom(weth, msg.sender, feeReceiver(), feeAmount()) */\n      tag_378\n      swap1\n        /* \"contracts/FireLock.sol\":5709:5713  weth */\n      0x01000000\n      swap1\n      div\n      sub(shl(0xa0, 0x01), 0x01)\n      and\n        /* \"contracts/FireLock.sol\":5715:5725  msg.sender */\n      caller\n        /* \"contracts/FireLock.sol\":5727:5740  feeReceiver() */\n      tag_379\n        /* \"contracts/FireLock.sol\":5727:5738  feeReceiver */\n      tag_151\n        /* \"contracts/FireLock.sol\":5727:5740  feeReceiver() */\n      jump\t// in\n    tag_379:\n        /* \"contracts/FireLock.sol\":5742:5753  feeAmount() */\n      tag_380\n        /* \"contracts/FireLock.sol\":5742:5751  feeAmount */\n      tag_117\n        /* \"contracts/FireLock.sol\":5742:5753  feeAmount() */\n      jump\t// in\n    tag_380:\n        /* \"contracts/FireLock.sol\":5677:5708  TransferHelper.safeTransferFrom */\n      tag_381\n        /* \"contracts/FireLock.sol\":5677:5754  TransferHelper.safeTransferFrom(weth, msg.sender, feeReceiver(), feeAmount()) */\n      jump\t// in\n    tag_378:\n        /* \"contracts/FireLock.sol\":5647:5942  if (msg.value == 0) {... */\n      jump(tag_382)\n    tag_377:\n        /* \"contracts/FireLock.sol\":5798:5809  feeAmount() */\n      tag_383\n        /* \"contracts/FireLock.sol\":5798:5807  feeAmount */\n      tag_117\n        /* \"contracts/FireLock.sol\":5798:5809  feeAmount() */\n      jump\t// in\n    tag_383:\n        /* \"contracts/FireLock.sol\":5785:5794  msg.value */\n      callvalue\n        /* \"contracts/FireLock.sol\":5785:5809  msg.value == feeAmount() */\n      eq\n        /* \"contracts/FireLock.sol\":5777:5826  require(msg.value == feeAmount(), 'Amount error') */\n      tag_384\n      jumpi\n      mload(0x40)\n      shl(0xe5, 0x461bcd)\n      dup2\n      mstore\n        /* \"#utility.yul\":19799:19801   */\n      0x20\n        /* \"contracts/FireLock.sol\":5777:5826  require(msg.value == feeAmount(), 'Amount error') */\n      0x04\n      dup3\n      add\n        /* \"#utility.yul\":19781:19802   */\n      mstore\n        /* \"#utility.yul\":19838:19840   */\n      0x0c\n        /* \"#utility.yul\":19818:19836   */\n      0x24\n      dup3\n      add\n        /* \"#utility.yul\":19811:19841   */\n      mstore\n      shl(0xa1, 0x20b6b7bab73a1032b93937b9)\n        /* \"#utility.yul\":19857:19875   */\n      0x44\n      dup3\n      add\n        /* \"#utility.yul\":19850:19892   */\n      mstore\n        /* \"#utility.yul\":19909:19927   */\n      0x64\n      add\n        /* \"contracts/FireLock.sol\":5777:5826  require(msg.value == feeAmount(), 'Amount error') */\n      tag_197\n        /* \"#utility.yul\":19597:19933   */\n      jump\n        /* \"contracts/FireLock.sol\":5777:5826  require(msg.value == feeAmount(), 'Amount error') */\n    tag_384:\n        /* \"contracts/FireLock.sol\":5842:5846  weth */\n      sload(0x00)\n      0x01000000\n      swap1\n      div\n      sub(shl(0xa0, 0x01), 0x01)\n      and\n        /* \"contracts/FireLock.sol\":5836:5855  IWETH(weth).deposit */\n      0xd0e30db0\n        /* \"contracts/FireLock.sol\":5863:5874  feeAmount() */\n      tag_387\n        /* \"contracts/FireLock.sol\":5863:5872  feeAmount */\n      tag_117\n        /* \"contracts/FireLock.sol\":5863:5874  feeAmount() */\n      jump\t// in\n    tag_387:\n        /* \"contracts/FireLock.sol\":5836:5877  IWETH(weth).deposit{value: feeAmount()}() */\n      mload(0x40)\n      dup3\n      0xffffffff\n      and\n      0xe0\n      shl\n      dup2\n      mstore\n      0x04\n      add\n      0x00\n      mload(0x40)\n      dup1\n      dup4\n      sub\n      dup2\n      dup6\n      dup9\n      dup1\n      extcodesize\n      iszero\n      dup1\n      iszero\n      tag_388\n      jumpi\n      0x00\n      dup1\n      revert\n    tag_388:\n      pop\n      gas\n      call\n      iszero\n      dup1\n      iszero\n      tag_390\n      jumpi\n      returndatasize\n      0x00\n      dup1\n      returndatacopy\n      revert(0x00, returndatasize)\n    tag_390:\n      pop\n      pop\n        /* \"contracts/FireLock.sol\":5893:5897  weth */\n      sload(0x00)\n      0x01000000\n      swap1\n      div\n      sub(shl(0xa0, 0x01), 0x01)\n      and\n      swap3\n      pop\n        /* \"contracts/FireLock.sol\":5887:5907  IWETH(weth).transfer */\n      0xa9059cbb\n      swap2\n      pop\n        /* \"contracts/FireLock.sol\":5908:5921  feeReceiver() */\n      tag_391\n      swap1\n      pop\n        /* \"contracts/FireLock.sol\":5908:5919  feeReceiver */\n      tag_151\n        /* \"contracts/FireLock.sol\":5908:5921  feeReceiver() */\n      jump\t// in\n    tag_391:\n        /* \"contracts/FireLock.sol\":5923:5934  feeAmount() */\n      tag_392\n        /* \"contracts/FireLock.sol\":5923:5932  feeAmount */\n      tag_117\n        /* \"contracts/FireLock.sol\":5923:5934  feeAmount() */\n      jump\t// in\n    tag_392:\n        /* \"contracts/FireLock.sol\":5887:5935  IWETH(weth).transfer(feeReceiver(), feeAmount()) */\n      mload(0x40)\n      not(sub(shl(0xe0, 0x01), 0x01))\n      0xe0\n      dup6\n      swap1\n      shl\n      and\n      dup2\n      mstore\n      sub(shl(0xa0, 0x01), 0x01)\n        /* \"#utility.yul\":14719:14751   */\n      swap1\n      swap3\n      and\n        /* \"contracts/FireLock.sol\":5887:5935  IWETH(weth).transfer(feeReceiver(), feeAmount()) */\n      0x04\n      dup4\n      add\n        /* \"#utility.yul\":14701:14752   */\n      mstore\n        /* \"#utility.yul\":14768:14786   */\n      0x24\n      dup3\n      add\n        /* \"#utility.yul\":14761:14795   */\n      mstore\n        /* \"#utility.yul\":14674:14692   */\n      0x44\n      add\n        /* \"contracts/FireLock.sol\":5887:5935  IWETH(weth).transfer(feeReceiver(), feeAmount()) */\n      0x20\n      mload(0x40)\n      dup1\n      dup4\n      sub\n      dup2\n      0x00\n      dup8\n      gas\n      call\n      iszero\n      dup1\n      iszero\n      tag_395\n      jumpi\n      returndatasize\n      0x00\n      dup1\n      returndatacopy\n      revert(0x00, returndatasize)\n    tag_395:\n      pop\n      pop\n      pop\n      pop\n      mload(0x40)\n      returndatasize\n      not(0x1f)\n      0x1f\n      dup3\n      add\n      and\n      dup3\n      add\n      dup1\n      0x40\n      mstore\n      pop\n      dup2\n      add\n      swap1\n      tag_396\n      swap2\n      swap1\n      tag_397\n      jump\t// in\n    tag_396:\n      pop\n        /* \"contracts/FireLock.sol\":5647:5942  if (msg.value == 0) {... */\n    tag_382:\n        /* \"contracts/FireLock.sol\":5985:6298  LockDetail({... */\n      0x40\n      dup1\n      mload\n      0x0160\n      dup2\n      add\n      dup3\n      mstore\n      dup7\n      dup2\n      mstore\n      0x20\n      dup2\n      add\n      dup4\n      swap1\n      mstore\n      swap1\n      dup2\n      add\n      dup4\n      swap1\n      mstore\n      sub(shl(0xa0, 0x01), 0x01)\n      dup1\n      dup14\n      and\n      0x60\n      dup4\n      add\n      mstore\n      0x80\n      dup3\n      add\n      dup11\n      swap1\n      mstore\n      0xa0\n      dup3\n      add\n      dup13\n      swap1\n      mstore\n      0xc0\n      dup3\n      add\n      dup12\n      swap1\n      mstore\n      0xe0\n      dup3\n      add\n      dup9\n      swap1\n      mstore\n      dup14\n      and\n      0x0100\n      dup3\n      add\n      mstore\n      0x0120\n      dup2\n      add\n      dup9\n      swap1\n      mstore\n      0x0140\n      dup2\n      add\n      dup4\n      swap1\n      mstore\n      dup1\n        /* \"contracts/FireLock.sol\":6305:6320  adminLockDetail */\n      0x08\n      dup1\n        /* \"contracts/FireLock.sol\":6305:6334  adminLockDetail = _LockDetail */\n      tag_398\n        /* \"contracts/FireLock.sol\":6017:6023  _title */\n      dup10\n        /* \"contracts/FireLock.sol\":6305:6320  adminLockDetail */\n      dup3\n        /* \"contracts/FireLock.sol\":6305:6334  adminLockDetail = _LockDetail */\n      tag_399\n      jump\t// in\n    tag_398:\n      pop\n      0x20\n      dup3\n      dup2\n      add\n      mload\n      0x01\n      dup4\n      add\n      sstore\n      0x40\n      dup4\n      add\n      mload\n      0x02\n      dup4\n      add\n      sstore\n      0x60\n      dup4\n      add\n      mload\n      0x03\n      dup4\n      add\n      dup1\n      sload\n      not(sub(shl(0xa0, 0x01), 0x01))\n      and\n      sub(shl(0xa0, 0x01), 0x01)\n      swap1\n      swap3\n      and\n      swap2\n      swap1\n      swap2\n      or\n      swap1\n      sstore\n      0x80\n      dup4\n      add\n      mload\n      0x04\n      dup4\n      add\n      sstore\n      0xa0\n      dup4\n      add\n      mload\n      0x05\n      dup4\n      add\n      sstore\n      0xc0\n      dup4\n      add\n      mload\n      0x06\n      dup4\n      add\n      sstore\n      0xe0\n      dup4\n      add\n      mload\n      dup1\n      mload\n      tag_400\n      swap3\n      0x07\n      dup6\n      add\n      swap3\n      add\n      swap1\n      tag_401\n      jump\t// in\n    tag_400:\n      pop\n      0x0100\n      dup3\n      add\n      mload\n      0x08\n      dup3\n      add\n      dup1\n      sload\n      not(sub(shl(0xa0, 0x01), 0x01))\n      and\n      sub(shl(0xa0, 0x01), 0x01)\n      swap1\n      swap3\n      and\n      swap2\n      swap1\n      swap2\n      or\n      swap1\n      sstore\n      0x0120\n      dup3\n      add\n      mload\n      dup1\n      mload\n      tag_402\n      swap2\n      0x09\n      dup5\n      add\n      swap2\n      0x20\n      swap1\n      swap2\n      add\n      swap1\n      tag_403\n      jump\t// in\n    tag_402:\n      pop\n      0x0140\n      swap2\n      swap1\n      swap2\n      add\n      mload\n      0x0a\n      swap1\n      swap2\n      add\n      sstore\n        /* \"contracts/FireLock.sol\":6341:6399  IERC20(_token).transferFrom(owner, address(this), _amount) */\n      mload(0x40)\n      shl(0xe0, 0x23b872dd)\n      dup2\n      mstore\n      sub(shl(0xa0, 0x01), 0x01)\n        /* \"#utility.yul\":22682:22697   */\n      dup6\n      dup2\n      and\n        /* \"contracts/FireLock.sol\":6341:6399  IERC20(_token).transferFrom(owner, address(this), _amount) */\n      0x04\n      dup4\n      add\n        /* \"#utility.yul\":22664:22698   */\n      mstore\n        /* \"contracts/FireLock.sol\":6384:6388  this */\n      address\n        /* \"#utility.yul\":22714:22732   */\n      0x24\n      dup4\n      add\n        /* \"#utility.yul\":22707:22750   */\n      mstore\n        /* \"#utility.yul\":22766:22784   */\n      0x44\n      dup3\n      add\n        /* \"#utility.yul\":22759:22793   */\n      dup12\n      swap1\n      mstore\n        /* \"contracts/FireLock.sol\":6341:6368  IERC20(_token).transferFrom */\n      dup15\n      and\n      swap1\n      0x23b872dd\n      swap1\n        /* \"#utility.yul\":22599:22617   */\n      0x64\n      add\n        /* \"contracts/FireLock.sol\":6341:6399  IERC20(_token).transferFrom(owner, address(this), _amount) */\n      0x20\n      mload(0x40)\n      dup1\n      dup4\n      sub\n      dup2\n      0x00\n      dup8\n      gas\n      call\n      iszero\n      dup1\n      iszero\n      tag_407\n      jumpi\n      returndatasize\n      0x00\n      dup1\n      returndatacopy\n      revert(0x00, returndatasize)\n    tag_407:\n      pop\n      pop\n      pop\n      pop\n      mload(0x40)\n      returndatasize\n      not(0x1f)\n      0x1f\n      dup3\n      add\n      and\n      dup3\n      add\n      dup1\n      0x40\n      mstore\n      pop\n      dup2\n      add\n      swap1\n      tag_408\n      swap2\n      swap1\n      tag_397\n      jump\t// in\n    tag_408:\n      pop\n        /* \"contracts/FireLock.sol\":6418:6423  false */\n      0x00\n        /* \"contracts/FireLock.sol\":6405:6423  lockStatus = false */\n      dup1\n      sload\n      not(0xff00)\n      and\n      swap1\n      sstore\n        /* \"contracts/FireLock.sol\":6405:6415  lockStatus */\n      0x01\n        /* \"contracts/FireLock.sol\":6447:6458  factoryAddr */\n      sload\n        /* \"contracts/FireLock.sol\":6504:6525  _LockDetail.LockTitle */\n      dup2\n      mload\n        /* \"contracts/FireLock.sol\":6535:6553  _LockDetail.amount */\n      0x80\n      dup4\n      add\n      mload\n        /* \"contracts/FireLock.sol\":6588:6609  _LockDetail.startTime */\n      0x40\n      dup1\n      dup6\n      add\n      mload\n        /* \"contracts/FireLock.sol\":6619:6642  _LockDetail.unlockCycle */\n      0xa0\n      dup7\n      add\n      mload\n        /* \"contracts/FireLock.sol\":6652:6675  _LockDetail.unlockRound */\n      0xc0\n      dup8\n      add\n      mload\n        /* \"contracts/FireLock.sol\":6685:6700  _LockDetail.ddl */\n      0x20\n      dup9\n      add\n      mload\n        /* \"contracts/FireLock.sol\":6710:6727  _LockDetail.admin */\n      0x60\n      dup10\n      add\n      mload\n        /* \"contracts/FireLock.sol\":6430:6733  IFireLockFactory(factoryAddr).addLockItem(... */\n      swap5\n      mload\n      shl(0xe1, 0x5d78589b)\n      dup2\n      mstore\n      sub(shl(0xa0, 0x01), 0x01)\n        /* \"contracts/FireLock.sol\":6447:6458  factoryAddr */\n      swap1\n      swap9\n      and\n      swap8\n        /* \"contracts/FireLock.sol\":6430:6471  IFireLockFactory(factoryAddr).addLockItem */\n      0xbaf0b136\n      swap8\n        /* \"contracts/FireLock.sol\":6430:6733  IFireLockFactory(factoryAddr).addLockItem(... */\n      tag_409\n      swap8\n        /* \"contracts/FireLock.sol\":6489:6493  this */\n      address\n      swap8\n        /* \"contracts/FireLock.sol\":6504:6525  _LockDetail.LockTitle */\n      swap2\n      swap7\n        /* \"contracts/FireLock.sol\":6535:6553  _LockDetail.amount */\n      swap1\n      swap6\n        /* \"contracts/FireLock.sol\":6563:6578  block.timestamp */\n      timestamp\n      swap6\n        /* \"contracts/FireLock.sol\":6588:6609  _LockDetail.startTime */\n      swap2\n      swap5\n        /* \"contracts/FireLock.sol\":6619:6642  _LockDetail.unlockCycle */\n      swap1\n      swap4\n        /* \"contracts/FireLock.sol\":6652:6675  _LockDetail.unlockRound */\n      swap2\n      swap3\n        /* \"contracts/FireLock.sol\":6685:6700  _LockDetail.ddl */\n      swap1\n      swap2\n        /* \"contracts/FireLock.sol\":6430:6733  IFireLockFactory(factoryAddr).addLockItem(... */\n      0x04\n      add\n      tag_410\n      jump\t// in\n    tag_409:\n      0x00\n      mload(0x40)\n      dup1\n      dup4\n      sub\n      dup2\n      0x00\n      dup8\n      dup1\n      extcodesize\n      iszero\n      dup1\n      iszero\n      tag_411\n      jumpi\n      0x00\n      dup1\n      revert\n    tag_411:\n      pop\n      gas\n      call\n      iszero\n      dup1\n      iszero\n      tag_413\n      jumpi\n      returndatasize\n      0x00\n      dup1\n      returndatacopy\n      revert(0x00, returndatasize)\n    tag_413:\n      pop\n      pop\n      pop\n        /* \"contracts/FireLock.sol\":6739:6750  totalAmount */\n      0x06\n        /* \"contracts/FireLock.sol\":6739:6761  totalAmount =  _amount */\n      dup11\n      swap1\n      sstore\n      pop\n        /* \"contracts/FireLock.sol\":6767:6778  checkRate() */\n      tag_414\n        /* \"contracts/FireLock.sol\":6767:6776  checkRate */\n      tag_415\n        /* \"contracts/FireLock.sol\":6767:6778  checkRate() */\n      jump\t// in\n    tag_414:\n        /* \"contracts/FireLock.sol\":6801:6812  factoryAddr */\n      0x01\n      dup1\n      sload\n        /* \"contracts/FireLock.sol\":6784:6853  IFireLockFactory(factoryAddr).isNotUninitialized(address(this), true) */\n      mload(0x40)\n      shl(0xe0, 0xebdcc19b)\n      dup2\n      mstore\n        /* \"contracts/FireLock.sol\":6841:6845  this */\n      address\n        /* \"contracts/FireLock.sol\":6784:6853  IFireLockFactory(factoryAddr).isNotUninitialized(address(this), true) */\n      0x04\n      dup3\n      add\n        /* \"#utility.yul\":23848:23899   */\n      mstore\n        /* \"#utility.yul\":23915:23933   */\n      0x24\n      dup2\n      add\n        /* \"#utility.yul\":23908:23958   */\n      swap3\n      swap1\n      swap3\n      mstore\n      sub(shl(0xa0, 0x01), 0x01)\n        /* \"contracts/FireLock.sol\":6801:6812  factoryAddr */\n      and\n      swap1\n        /* \"contracts/FireLock.sol\":6784:6832  IFireLockFactory(factoryAddr).isNotUninitialized */\n      0xebdcc19b\n      swap1\n        /* \"#utility.yul\":23821:23839   */\n      0x44\n      add\n        /* \"contracts/FireLock.sol\":6784:6853  IFireLockFactory(factoryAddr).isNotUninitialized(address(this), true) */\n      0x00\n      mload(0x40)\n      dup1\n      dup4\n      sub\n      dup2\n      0x00\n      dup8\n      dup1\n      extcodesize\n      iszero\n      dup1\n      iszero\n      tag_418\n      jumpi\n      0x00\n      dup1\n      revert\n    tag_418:\n      pop\n      gas\n      call\n      iszero\n      dup1\n      iszero\n      tag_420\n      jumpi\n      returndatasize\n      0x00\n      dup1\n      returndatacopy\n      revert(0x00, returndatasize)\n    tag_420:\n      pop\n      pop\n      pop\n      pop\n        /* \"contracts/FireLock.sol\":4503:6856  {... */\n      pop\n      pop\n      pop\n      pop\n        /* \"contracts/FireLock.sol\":4247:6856  function Lock(... */\n      pop\n      pop\n      pop\n      pop\n      pop\n      pop\n      pop\n      pop\n      pop\n      jump\t// out\n        /* \"contracts/FireLock.sol\":10802:11281  function setMemberRate(uint[] memory _rate) public {... */\n    tag_127:\n        /* \"contracts/FireLock.sol\":10885:10906  adminLockDetail.admin */\n      and(sub(shl(0xa0, 0x01), 0x01), sload(0x0b))\n        /* \"contracts/FireLock.sol\":10871:10881  msg.sender */\n      caller\n        /* \"contracts/FireLock.sol\":10871:10906  msg.sender == adminLockDetail.admin */\n      eq\n        /* \"contracts/FireLock.sol\":10863:10937  require(msg.sender == adminLockDetail.admin,\"FireLock: you are not admin\") */\n      tag_422\n      jumpi\n      mload(0x40)\n      shl(0xe5, 0x461bcd)\n      dup2\n      mstore\n        /* \"#utility.yul\":24171:24173   */\n      0x20\n        /* \"contracts/FireLock.sol\":10863:10937  require(msg.sender == adminLockDetail.admin,\"FireLock: you are not admin\") */\n      0x04\n      dup3\n      add\n        /* \"#utility.yul\":24153:24174   */\n      mstore\n        /* \"#utility.yul\":24210:24212   */\n      0x1b\n        /* \"#utility.yul\":24190:24208   */\n      0x24\n      dup3\n      add\n        /* \"#utility.yul\":24183:24213   */\n      mstore\n        /* \"#utility.yul\":24249:24278   */\n      0x466972654c6f636b3a20796f7520617265206e6f742061646d696e0000000000\n        /* \"#utility.yul\":24229:24247   */\n      0x44\n      dup3\n      add\n        /* \"#utility.yul\":24222:24279   */\n      mstore\n        /* \"#utility.yul\":24296:24314   */\n      0x64\n      add\n        /* \"contracts/FireLock.sol\":10863:10937  require(msg.sender == adminLockDetail.admin,\"FireLock: you are not admin\") */\n      tag_197\n        /* \"#utility.yul\":23969:24320   */\n      jump\n        /* \"contracts/FireLock.sol\":10863:10937  require(msg.sender == adminLockDetail.admin,\"FireLock: you are not admin\") */\n    tag_422:\n        /* \"contracts/FireLock.sol\":10971:10991  adminLockDetail.rate */\n      0x0f\n        /* \"contracts/FireLock.sol\":10971:10998  adminLockDetail.rate.length */\n      sload\n        /* \"contracts/FireLock.sol\":10955:10967  _rate.length */\n      dup2\n      mload\n        /* \"contracts/FireLock.sol\":10955:10998  _rate.length == adminLockDetail.rate.length */\n      eq\n        /* \"contracts/FireLock.sol\":10947:11031  require(_rate.length == adminLockDetail.rate.length , \"FireLock: rate is not match\") */\n      tag_425\n      jumpi\n      mload(0x40)\n      shl(0xe5, 0x461bcd)\n      dup2\n      mstore\n        /* \"#utility.yul\":24527:24529   */\n      0x20\n        /* \"contracts/FireLock.sol\":10947:11031  require(_rate.length == adminLockDetail.rate.length , \"FireLock: rate is not match\") */\n      0x04\n      dup3\n      add\n        /* \"#utility.yul\":24509:24530   */\n      mstore\n        /* \"#utility.yul\":24566:24568   */\n      0x1b\n        /* \"#utility.yul\":24546:24564   */\n      0x24\n      dup3\n      add\n        /* \"#utility.yul\":24539:24569   */\n      mstore\n        /* \"#utility.yul\":24605:24634   */\n      0x466972654c6f636b3a2072617465206973206e6f74206d617463680000000000\n        /* \"#utility.yul\":24585:24603   */\n      0x44\n      dup3\n      add\n        /* \"#utility.yul\":24578:24635   */\n      mstore\n        /* \"#utility.yul\":24652:24670   */\n      0x64\n      add\n        /* \"contracts/FireLock.sol\":10947:11031  require(_rate.length == adminLockDetail.rate.length , \"FireLock: rate is not match\") */\n      tag_197\n        /* \"#utility.yul\":24325:24676   */\n      jump\n        /* \"contracts/FireLock.sol\":10947:11031  require(_rate.length == adminLockDetail.rate.length , \"FireLock: rate is not match\") */\n    tag_425:\n        /* \"contracts/FireLock.sol\":11065:11087  adminLockDetail.member */\n      0x11\n        /* \"contracts/FireLock.sol\":11065:11094  adminLockDetail.member.length */\n      sload\n        /* \"contracts/FireLock.sol\":11049:11061  _rate.length */\n      dup2\n      mload\n        /* \"contracts/FireLock.sol\":11049:11094  _rate.length == adminLockDetail.member.length */\n      eq\n        /* \"contracts/FireLock.sol\":11041:11126  require(_rate.length == adminLockDetail.member.length, \"FireLock: rate is not match\") */\n      tag_428\n      jumpi\n      mload(0x40)\n      shl(0xe5, 0x461bcd)\n      dup2\n      mstore\n        /* \"#utility.yul\":24527:24529   */\n      0x20\n        /* \"contracts/FireLock.sol\":11041:11126  require(_rate.length == adminLockDetail.member.length, \"FireLock: rate is not match\") */\n      0x04\n      dup3\n      add\n        /* \"#utility.yul\":24509:24530   */\n      mstore\n        /* \"#utility.yul\":24566:24568   */\n      0x1b\n        /* \"#utility.yul\":24546:24564   */\n      0x24\n      dup3\n      add\n        /* \"#utility.yul\":24539:24569   */\n      mstore\n        /* \"#utility.yul\":24605:24634   */\n      0x466972654c6f636b3a2072617465206973206e6f74206d617463680000000000\n        /* \"#utility.yul\":24585:24603   */\n      0x44\n      dup3\n      add\n        /* \"#utility.yul\":24578:24635   */\n      mstore\n        /* \"#utility.yul\":24652:24670   */\n      0x64\n      add\n        /* \"contracts/FireLock.sol\":11041:11126  require(_rate.length == adminLockDetail.member.length, \"FireLock: rate is not match\") */\n      tag_197\n        /* \"#utility.yul\":24325:24676   */\n      jump\n        /* \"contracts/FireLock.sol\":11041:11126  require(_rate.length == adminLockDetail.member.length, \"FireLock: rate is not match\") */\n    tag_428:\n        /* \"contracts/FireLock.sol\":11140:11149  uint256 i */\n      0x00\n        /* \"contracts/FireLock.sol\":11136:11254  for(uint256 i =0; i< adminLockDetail.rate.length ;i++){... */\n    tag_430:\n        /* \"contracts/FireLock.sol\":11157:11177  adminLockDetail.rate */\n      0x0f\n        /* \"contracts/FireLock.sol\":11157:11184  adminLockDetail.rate.length */\n      sload\n        /* \"contracts/FireLock.sol\":11154:11184  i< adminLockDetail.rate.length */\n      dup2\n      lt\n        /* \"contracts/FireLock.sol\":11136:11254  for(uint256 i =0; i< adminLockDetail.rate.length ;i++){... */\n      iszero\n      tag_431\n      jumpi\n        /* \"contracts/FireLock.sol\":11235:11240  _rate */\n      dup2\n        /* \"contracts/FireLock.sol\":11241:11242  i */\n      dup2\n        /* \"contracts/FireLock.sol\":11235:11243  _rate[i] */\n      dup2\n      mload\n      dup2\n      lt\n      tag_434\n      jumpi\n      tag_434\n      tag_217\n      jump\t// in\n    tag_434:\n      0x20\n      mul\n      0x20\n      add\n      add\n      mload\n        /* \"contracts/FireLock.sol\":11209:11224  adminLockDetail */\n      0x08\n        /* \"contracts/FireLock.sol\":11209:11229  adminLockDetail.rate */\n      0x07\n      add\n        /* \"contracts/FireLock.sol\":11230:11231  i */\n      dup3\n        /* \"contracts/FireLock.sol\":11209:11232  adminLockDetail.rate[i] */\n      dup2\n      sload\n      dup2\n      lt\n      tag_436\n      jumpi\n      tag_436\n      tag_217\n      jump\t// in\n    tag_436:\n      0x00\n      swap2\n      dup3\n      mstore\n      0x20\n      swap1\n      swap2\n      keccak256\n      add\n        /* \"contracts/FireLock.sol\":11209:11243  adminLockDetail.rate[i] = _rate[i] */\n      sstore\n        /* \"contracts/FireLock.sol\":11186:11189  i++ */\n      dup1\n      tag_438\n      dup2\n      tag_348\n      jump\t// in\n    tag_438:\n      swap2\n      pop\n      pop\n        /* \"contracts/FireLock.sol\":11136:11254  for(uint256 i =0; i< adminLockDetail.rate.length ;i++){... */\n      jump(tag_430)\n    tag_431:\n      pop\n        /* \"contracts/FireLock.sol\":11263:11274  checkRate() */\n      tag_439\n        /* \"contracts/FireLock.sol\":11263:11272  checkRate */\n      tag_415\n        /* \"contracts/FireLock.sol\":11263:11274  checkRate() */\n      jump\t// in\n    tag_439:\n        /* \"contracts/FireLock.sol\":10802:11281  function setMemberRate(uint[] memory _rate) public {... */\n      pop\n      jump\t// out\n        /* \"contracts/FireLock.sol\":12137:12245  function getLockTitle() public view returns(string memory) {... */\n    tag_130:\n        /* \"contracts/FireLock.sol\":12181:12194  string memory */\n      0x60\n        /* \"contracts/FireLock.sol\":12213:12228  adminLockDetail */\n      0x08\n        /* \"contracts/FireLock.sol\":12213:12238  adminLockDetail.LockTitle */\n      0x00\n      add\n        /* \"contracts/FireLock.sol\":12206:12238  return adminLockDetail.LockTitle */\n      dup1\n      sload\n      tag_441\n      swap1\n      tag_188\n      jump\t// in\n    tag_441:\n      dup1\n      0x1f\n      add\n      0x20\n      dup1\n      swap2\n      div\n      mul\n      0x20\n      add\n      mload(0x40)\n      swap1\n      dup2\n      add\n      0x40\n      mstore\n      dup1\n      swap3\n      swap2\n      swap1\n      dup2\n      dup2\n      mstore\n      0x20\n      add\n      dup3\n      dup1\n      sload\n      tag_442\n      swap1\n      tag_188\n      jump\t// in\n    tag_442:\n      dup1\n      iszero\n      tag_185\n      jumpi\n      dup1\n      0x1f\n      lt\n      tag_444\n      jumpi\n      0x0100\n      dup1\n      dup4\n      sload\n      div\n      mul\n      dup4\n      mstore\n      swap2\n      0x20\n      add\n      swap2\n      jump(tag_185)\n    tag_444:\n      dup3\n      add\n      swap2\n      swap1\n      0x00\n      mstore\n      keccak256(0x00, 0x20)\n      swap1\n    tag_445:\n      dup2\n      sload\n      dup2\n      mstore\n      swap1\n      0x01\n      add\n      swap1\n      0x20\n      add\n      dup1\n      dup4\n      gt\n      tag_445\n      jumpi\n      pop\n      swap4\n      swap6\n        /* \"contracts/FireLock.sol\":12137:12245  function getLockTitle() public view returns(string memory) {... */\n      swap5\n      pop\n      pop\n      pop\n      pop\n      pop\n      jump\t// out\n        /* \"contracts/FireLock.sol\":3711:4076  function isUnique(address[] memory addresses) public pure returns (bool) {... */\n    tag_137:\n        /* \"contracts/FireLock.sol\":3808:3824  addresses.length */\n      dup1\n      mload\n        /* \"contracts/FireLock.sol\":3778:3782  bool */\n      0x00\n      swap1\n      dup2\n        /* \"contracts/FireLock.sol\":3834:4049  for (uint i = 0; i < length; i++) {... */\n    tag_447:\n        /* \"contracts/FireLock.sol\":3855:3861  length */\n      dup2\n        /* \"contracts/FireLock.sol\":3851:3852  i */\n      dup2\n        /* \"contracts/FireLock.sol\":3851:3861  i < length */\n      lt\n        /* \"contracts/FireLock.sol\":3834:4049  for (uint i = 0; i < length; i++) {... */\n      iszero\n      tag_448\n      jumpi\n        /* \"contracts/FireLock.sol\":3887:3893  uint j */\n      0x00\n        /* \"contracts/FireLock.sol\":3896:3901  i + 1 */\n      tag_453\n        /* \"contracts/FireLock.sol\":3896:3897  i */\n      dup3\n        /* \"contracts/FireLock.sol\":3900:3901  1 */\n      0x01\n        /* \"contracts/FireLock.sol\":3896:3901  i + 1 */\n      tag_454\n      jump\t// in\n    tag_453:\n        /* \"contracts/FireLock.sol\":3887:3901  uint j = i + 1 */\n      swap1\n      pop\n        /* \"contracts/FireLock.sol\":3882:4039  for (uint j = i + 1; j < length; j++) {... */\n    tag_450:\n        /* \"contracts/FireLock.sol\":3907:3913  length */\n      dup3\n        /* \"contracts/FireLock.sol\":3903:3904  j */\n      dup2\n        /* \"contracts/FireLock.sol\":3903:3913  j < length */\n      lt\n        /* \"contracts/FireLock.sol\":3882:4039  for (uint j = i + 1; j < length; j++) {... */\n      iszero\n      tag_451\n      jumpi\n        /* \"contracts/FireLock.sol\":3958:3967  addresses */\n      dup5\n        /* \"contracts/FireLock.sol\":3968:3969  j */\n      dup2\n        /* \"contracts/FireLock.sol\":3958:3970  addresses[j] */\n      dup2\n      mload\n      dup2\n      lt\n      tag_456\n      jumpi\n      tag_456\n      tag_217\n      jump\t// in\n    tag_456:\n      0x20\n      mul\n      0x20\n      add\n      add\n      mload\n      sub(shl(0xa0, 0x01), 0x01)\n        /* \"contracts/FireLock.sol\":3942:3970  addresses[i] == addresses[j] */\n      and\n        /* \"contracts/FireLock.sol\":3942:3951  addresses */\n      dup6\n        /* \"contracts/FireLock.sol\":3952:3953  i */\n      dup4\n        /* \"contracts/FireLock.sol\":3942:3954  addresses[i] */\n      dup2\n      mload\n      dup2\n      lt\n      tag_458\n      jumpi\n      tag_458\n      tag_217\n      jump\t// in\n    tag_458:\n      0x20\n      mul\n      0x20\n      add\n      add\n      mload\n      sub(shl(0xa0, 0x01), 0x01)\n        /* \"contracts/FireLock.sol\":3942:3970  addresses[i] == addresses[j] */\n      and\n      sub\n        /* \"contracts/FireLock.sol\":3938:4025  if (addresses[i] == addresses[j]) {... */\n      tag_459\n      jumpi\n      pop\n        /* \"contracts/FireLock.sol\":4001:4006  false */\n      0x00\n      swap5\n        /* \"contracts/FireLock.sol\":3711:4076  function isUnique(address[] memory addresses) public pure returns (bool) {... */\n      swap4\n      pop\n      pop\n      pop\n      pop\n      jump\t// out\n        /* \"contracts/FireLock.sol\":3938:4025  if (addresses[i] == addresses[j]) {... */\n    tag_459:\n        /* \"contracts/FireLock.sol\":3915:3918  j++ */\n      dup1\n      tag_460\n      dup2\n      tag_348\n      jump\t// in\n    tag_460:\n      swap2\n      pop\n      pop\n        /* \"contracts/FireLock.sol\":3882:4039  for (uint j = i + 1; j < length; j++) {... */\n      jump(tag_450)\n    tag_451:\n      pop\n        /* \"contracts/FireLock.sol\":3863:3866  i++ */\n      dup1\n      tag_461\n      dup2\n      tag_348\n      jump\t// in\n    tag_461:\n      swap2\n      pop\n      pop\n        /* \"contracts/FireLock.sol\":3834:4049  for (uint i = 0; i < length; i++) {... */\n      jump(tag_447)\n    tag_448:\n      pop\n        /* \"contracts/FireLock.sol\":4065:4069  true */\n      0x01\n      swap4\n        /* \"contracts/FireLock.sol\":3711:4076  function isUnique(address[] memory addresses) public pure returns (bool) {... */\n      swap3\n      pop\n      pop\n      pop\n      jump\t// out\n        /* \"contracts/FireLock.sol\":12383:12513  function feeReceiver() public view returns(address) {... */\n    tag_151:\n        /* \"contracts/FireLock.sol\":12473:12492  fireLockFeeTransfer */\n      sload(0x03)\n        /* \"contracts/FireLock.sol\":12452:12506  IFireLockFeeTransfer(fireLockFeeTransfer).getAddress() */\n      0x40\n      dup1\n      mload\n      shl(0xe0, 0x38cc4831)\n      dup2\n      mstore\n      swap1\n      mload\n        /* \"contracts/FireLock.sol\":12426:12433  address */\n      0x00\n      swap3\n      sub(shl(0xa0, 0x01), 0x01)\n        /* \"contracts/FireLock.sol\":12473:12492  fireLockFeeTransfer */\n      and\n      swap2\n        /* \"contracts/FireLock.sol\":12452:12504  IFireLockFeeTransfer(fireLockFeeTransfer).getAddress */\n      0x38cc4831\n      swap2\n        /* \"contracts/FireLock.sol\":12452:12506  IFireLockFeeTransfer(fireLockFeeTransfer).getAddress() */\n      0x04\n      dup1\n      dup4\n      add\n      swap3\n      0x20\n      swap3\n      swap2\n      swap1\n      dup3\n      swap1\n      sub\n      add\n      dup2\n        /* \"contracts/FireLock.sol\":12473:12492  fireLockFeeTransfer */\n      dup7\n        /* \"contracts/FireLock.sol\":12452:12506  IFireLockFeeTransfer(fireLockFeeTransfer).getAddress() */\n      gas\n      staticcall\n      iszero\n      dup1\n      iszero\n      tag_464\n      jumpi\n      returndatasize\n      0x00\n      dup1\n      returndatacopy\n      revert(0x00, returndatasize)\n    tag_464:\n      pop\n      pop\n      pop\n      pop\n      mload(0x40)\n      returndatasize\n      not(0x1f)\n      0x1f\n      dup3\n      add\n      and\n      dup3\n      add\n      dup1\n      0x40\n      mstore\n      pop\n      dup2\n      add\n      swap1\n      tag_320\n      swap2\n      swap1\n      tag_466\n      jump\t// in\n        /* \"contracts/FireLock.sol\":6858:7174  function isUserUnlock(address _user) public view returns(uint256 _userId) {... */\n    tag_156:\n        /* \"contracts/FireLock.sol\":6952:6974  adminLockDetail.member */\n      0x11\n        /* \"contracts/FireLock.sol\":6952:6981  adminLockDetail.member.length */\n      sload\n        /* \"contracts/FireLock.sol\":6915:6930  uint256 _userId */\n      0x00\n      swap1\n      dup2\n        /* \"contracts/FireLock.sol\":6987:7107  for(uint256 i = 0 ; i < len; i++){... */\n    tag_468:\n        /* \"contracts/FireLock.sol\":7011:7014  len */\n      dup2\n        /* \"contracts/FireLock.sol\":7007:7008  i */\n      dup2\n        /* \"contracts/FireLock.sol\":7007:7014  i < len */\n      lt\n        /* \"contracts/FireLock.sol\":6987:7107  for(uint256 i = 0 ; i < len; i++){... */\n      iszero\n      tag_469\n      jumpi\n        /* \"contracts/FireLock.sol\":7042:7064  adminLockDetail.member */\n      0x11\n        /* \"contracts/FireLock.sol\":7042:7067  adminLockDetail.member[i] */\n      dup1\n      sload\n        /* \"contracts/FireLock.sol\":7065:7066  i */\n      dup3\n      swap1\n        /* \"contracts/FireLock.sol\":7042:7067  adminLockDetail.member[i] */\n      dup2\n      lt\n      tag_472\n      jumpi\n      tag_472\n      tag_217\n      jump\t// in\n    tag_472:\n      0x00\n      swap2\n      dup3\n      mstore\n      0x20\n      swap1\n      swap2\n      keccak256\n      add\n      sload\n      sub(shl(0xa0, 0x01), 0x01)\n      swap1\n      dup2\n      and\n        /* \"contracts/FireLock.sol\":7033:7067  _user == adminLockDetail.member[i] */\n      swap1\n      dup6\n      and\n      sub\n        /* \"contracts/FireLock.sol\":7030:7101  if(_user == adminLockDetail.member[i]){... */\n      tag_474\n      jumpi\n        /* \"contracts/FireLock.sol\":7089:7090  i */\n      swap4\n        /* \"contracts/FireLock.sol\":6858:7174  function isUserUnlock(address _user) public view returns(uint256 _userId) {... */\n      swap3\n      pop\n      pop\n      pop\n      jump\t// out\n        /* \"contracts/FireLock.sol\":7030:7101  if(_user == adminLockDetail.member[i]){... */\n    tag_474:\n        /* \"contracts/FireLock.sol\":7016:7019  i++ */\n      dup1\n      tag_475\n      dup2\n      tag_348\n      jump\t// in\n    tag_475:\n      swap2\n      pop\n      pop\n        /* \"contracts/FireLock.sol\":6987:7107  for(uint256 i = 0 ; i < len; i++){... */\n      jump(tag_468)\n    tag_469:\n      pop\n        /* \"contracts/FireLock.sol\":7112:7171  revert(\"FireLock: You are not a user of this lock address\") */\n      mload(0x40)\n      shl(0xe5, 0x461bcd)\n      dup2\n      mstore\n        /* \"#utility.yul\":25269:25271   */\n      0x20\n        /* \"contracts/FireLock.sol\":7112:7171  revert(\"FireLock: You are not a user of this lock address\") */\n      0x04\n      dup3\n      add\n        /* \"#utility.yul\":25251:25272   */\n      mstore\n        /* \"#utility.yul\":25308:25310   */\n      0x31\n        /* \"#utility.yul\":25288:25306   */\n      0x24\n      dup3\n      add\n        /* \"#utility.yul\":25281:25311   */\n      mstore\n        /* \"#utility.yul\":25347:25381   */\n      0x466972654c6f636b3a20596f7520617265206e6f7420612075736572206f6620\n        /* \"#utility.yul\":25327:25345   */\n      0x44\n      dup3\n      add\n        /* \"#utility.yul\":25320:25382   */\n      mstore\n      shl(0x78, 0x74686973206c6f636b2061646472657373)\n        /* \"#utility.yul\":25398:25416   */\n      0x64\n      dup3\n      add\n        /* \"#utility.yul\":25391:25438   */\n      mstore\n        /* \"#utility.yul\":25455:25474   */\n      0x84\n      add\n        /* \"contracts/FireLock.sol\":7112:7171  revert(\"FireLock: You are not a user of this lock address\") */\n      tag_197\n        /* \"#utility.yul\":25067:25480   */\n      jump\n        /* \"contracts/FireLock.sol\":3421:3705  function validateSum(uint[] memory nums) public pure returns (bool) {... */\n    tag_170:\n        /* \"contracts/FireLock.sol\":3483:3487  bool */\n      0x00\n      dup1\n      dup1\n        /* \"contracts/FireLock.sol\":3521:3672  for (uint i = 0; i < nums.length; i++) {... */\n    tag_482:\n        /* \"contracts/FireLock.sol\":3542:3546  nums */\n      dup4\n        /* \"contracts/FireLock.sol\":3542:3553  nums.length */\n      mload\n        /* \"contracts/FireLock.sol\":3538:3539  i */\n      dup2\n        /* \"contracts/FireLock.sol\":3538:3553  i < nums.length */\n      lt\n        /* \"contracts/FireLock.sol\":3521:3672  for (uint i = 0; i < nums.length; i++) {... */\n      iszero\n      tag_483\n      jumpi\n        /* \"contracts/FireLock.sol\":3581:3585  nums */\n      dup4\n        /* \"contracts/FireLock.sol\":3586:3587  i */\n      dup2\n        /* \"contracts/FireLock.sol\":3581:3588  nums[i] */\n      dup2\n      mload\n      dup2\n      lt\n      tag_486\n      jumpi\n      tag_486\n      tag_217\n      jump\t// in\n    tag_486:\n      0x20\n      mul\n      0x20\n      add\n      add\n      mload\n        /* \"contracts/FireLock.sol\":3574:3588  sum += nums[i] */\n      dup3\n      tag_487\n      swap2\n      swap1\n      tag_454\n      jump\t// in\n    tag_487:\n      swap2\n      pop\n        /* \"contracts/FireLock.sol\":3612:3615  100 */\n      0x64\n        /* \"contracts/FireLock.sol\":3606:3609  sum */\n      dup3\n        /* \"contracts/FireLock.sol\":3606:3615  sum > 100 */\n      gt\n        /* \"contracts/FireLock.sol\":3602:3662  if (sum > 100) {... */\n      iszero\n      tag_488\n      jumpi\n      pop\n        /* \"contracts/FireLock.sol\":3642:3647  false */\n      0x00\n      swap4\n        /* \"contracts/FireLock.sol\":3421:3705  function validateSum(uint[] memory nums) public pure returns (bool) {... */\n      swap3\n      pop\n      pop\n      pop\n      jump\t// out\n        /* \"contracts/FireLock.sol\":3602:3662  if (sum > 100) {... */\n    tag_488:\n        /* \"contracts/FireLock.sol\":3555:3558  i++ */\n      dup1\n      tag_489\n      dup2\n      tag_348\n      jump\t// in\n    tag_489:\n      swap2\n      pop\n      pop\n        /* \"contracts/FireLock.sol\":3521:3672  for (uint i = 0; i < nums.length; i++) {... */\n      jump(tag_482)\n    tag_483:\n      pop\n        /* \"contracts/FireLock.sol\":3695:3698  100 */\n      0x64\n        /* \"contracts/FireLock.sol\":3688:3698  sum == 100 */\n      eq\n      swap3\n        /* \"contracts/FireLock.sol\":3421:3705  function validateSum(uint[] memory nums) public pure returns (bool) {... */\n      swap2\n      pop\n      pop\n      jump\t// out\n        /* \"contracts/FireLock.sol\":9211:9665  function changeLockAdmin(address _to) public  {... */\n    tag_179:\n        /* \"contracts/FireLock.sol\":9316:9337  adminLockDetail.admin */\n      sload(0x0b)\n        /* \"contracts/FireLock.sol\":9280:9290  msg.sender */\n      caller\n      swap1\n      sub(shl(0xa0, 0x01), 0x01)\n        /* \"contracts/FireLock.sol\":9316:9337  adminLockDetail.admin */\n      and\n      dup1\n        /* \"contracts/FireLock.sol\":9343:9410  require(lockAdmin != address(0), \"FireLock: Lock admin must exist\") */\n      tag_491\n      jumpi\n      mload(0x40)\n      shl(0xe5, 0x461bcd)\n      dup2\n      mstore\n        /* \"#utility.yul\":25687:25689   */\n      0x20\n        /* \"contracts/FireLock.sol\":9343:9410  require(lockAdmin != address(0), \"FireLock: Lock admin must exist\") */\n      0x04\n      dup3\n      add\n        /* \"#utility.yul\":25669:25690   */\n      mstore\n        /* \"#utility.yul\":25726:25728   */\n      0x1f\n        /* \"#utility.yul\":25706:25724   */\n      0x24\n      dup3\n      add\n        /* \"#utility.yul\":25699:25729   */\n      mstore\n        /* \"#utility.yul\":25765:25798   */\n      0x466972654c6f636b3a204c6f636b2061646d696e206d75737420657869737400\n        /* \"#utility.yul\":25745:25763   */\n      0x44\n      dup3\n      add\n        /* \"#utility.yul\":25738:25799   */\n      mstore\n        /* \"#utility.yul\":25816:25834   */\n      0x64\n      add\n        /* \"contracts/FireLock.sol\":9343:9410  require(lockAdmin != address(0), \"FireLock: Lock admin must exist\") */\n      tag_197\n        /* \"#utility.yul\":25485:25840   */\n      jump\n        /* \"contracts/FireLock.sol\":9343:9410  require(lockAdmin != address(0), \"FireLock: Lock admin must exist\") */\n    tag_491:\n        /* \"contracts/FireLock.sol\":9437:9443  sender */\n      dup2\n      sub(shl(0xa0, 0x01), 0x01)\n        /* \"contracts/FireLock.sol\":9424:9443  lockAdmin == sender */\n      and\n        /* \"contracts/FireLock.sol\":9424:9433  lockAdmin */\n      dup2\n      sub(shl(0xa0, 0x01), 0x01)\n        /* \"contracts/FireLock.sol\":9424:9443  lockAdmin == sender */\n      and\n      eq\n        /* \"contracts/FireLock.sol\":9416:9478  require(lockAdmin == sender, \"FireLock: Sender must be admin\") */\n      tag_494\n      jumpi\n      mload(0x40)\n      shl(0xe5, 0x461bcd)\n      dup2\n      mstore\n        /* \"#utility.yul\":26047:26049   */\n      0x20\n        /* \"contracts/FireLock.sol\":9416:9478  require(lockAdmin == sender, \"FireLock: Sender must be admin\") */\n      0x04\n      dup3\n      add\n        /* \"#utility.yul\":26029:26050   */\n      mstore\n        /* \"#utility.yul\":26086:26088   */\n      0x1e\n        /* \"#utility.yul\":26066:26084   */\n      0x24\n      dup3\n      add\n        /* \"#utility.yul\":26059:26089   */\n      mstore\n        /* \"#utility.yul\":26125:26157   */\n      0x466972654c6f636b3a2053656e646572206d7573742062652061646d696e0000\n        /* \"#utility.yul\":26105:26123   */\n      0x44\n      dup3\n      add\n        /* \"#utility.yul\":26098:26158   */\n      mstore\n        /* \"#utility.yul\":26175:26193   */\n      0x64\n      add\n        /* \"contracts/FireLock.sol\":9416:9478  require(lockAdmin == sender, \"FireLock: Sender must be admin\") */\n      tag_197\n        /* \"#utility.yul\":25845:26199   */\n      jump\n        /* \"contracts/FireLock.sol\":9416:9478  require(lockAdmin == sender, \"FireLock: Sender must be admin\") */\n    tag_494:\n      sub(shl(0xa0, 0x01), 0x01)\n        /* \"contracts/FireLock.sol\":9492:9509  _to != address(0) */\n      dup4\n      and\n        /* \"contracts/FireLock.sol\":9484:9555  require(_to != address(0), \"FireLock: transfer address does not exist\") */\n      tag_497\n      jumpi\n      mload(0x40)\n      shl(0xe5, 0x461bcd)\n      dup2\n      mstore\n        /* \"#utility.yul\":26406:26408   */\n      0x20\n        /* \"contracts/FireLock.sol\":9484:9555  require(_to != address(0), \"FireLock: transfer address does not exist\") */\n      0x04\n      dup3\n      add\n        /* \"#utility.yul\":26388:26409   */\n      mstore\n        /* \"#utility.yul\":26445:26447   */\n      0x29\n        /* \"#utility.yul\":26425:26443   */\n      0x24\n      dup3\n      add\n        /* \"#utility.yul\":26418:26448   */\n      mstore\n        /* \"#utility.yul\":26484:26518   */\n      0x466972654c6f636b3a207472616e73666572206164647265737320646f657320\n        /* \"#utility.yul\":26464:26482   */\n      0x44\n      dup3\n      add\n        /* \"#utility.yul\":26457:26519   */\n      mstore\n      shl(0xba, 0x1b9bdd08195e1a5cdd)\n        /* \"#utility.yul\":26535:26553   */\n      0x64\n      dup3\n      add\n        /* \"#utility.yul\":26528:26567   */\n      mstore\n        /* \"#utility.yul\":26584:26603   */\n      0x84\n      add\n        /* \"contracts/FireLock.sol\":9484:9555  require(_to != address(0), \"FireLock: transfer address does not exist\") */\n      tag_197\n        /* \"#utility.yul\":26204:26609   */\n      jump\n        /* \"contracts/FireLock.sol\":9484:9555  require(_to != address(0), \"FireLock: transfer address does not exist\") */\n    tag_497:\n        /* \"contracts/FireLock.sol\":9562:9583  adminLockDetail.admin */\n      0x0b\n        /* \"contracts/FireLock.sol\":9562:9589  adminLockDetail.admin = _to */\n      dup1\n      sload\n      not(sub(shl(0xa0, 0x01), 0x01))\n      and\n      sub(shl(0xa0, 0x01), 0x01)\n      dup6\n      dup2\n      and\n      swap2\n      dup3\n      or\n      swap1\n      swap3\n      sstore\n      0x01\n        /* \"contracts/FireLock.sol\":9613:9624  factoryAddr */\n      sload\n        /* \"contracts/FireLock.sol\":9596:9658  IFireLockFactory(factoryAddr).addlockAdmin(address(this), _to) */\n      mload(0x40)\n      shl(0xe1, 0x751971b7)\n      dup2\n      mstore\n        /* \"contracts/FireLock.sol\":9647:9651  this */\n      address\n        /* \"contracts/FireLock.sol\":9596:9658  IFireLockFactory(factoryAddr).addlockAdmin(address(this), _to) */\n      0x04\n      dup3\n      add\n        /* \"#utility.yul\":26826:26860   */\n      mstore\n        /* \"#utility.yul\":26876:26894   */\n      0x24\n      dup2\n      add\n        /* \"#utility.yul\":26869:26912   */\n      swap3\n      swap1\n      swap3\n      mstore\n        /* \"contracts/FireLock.sol\":9613:9624  factoryAddr */\n      swap1\n      swap2\n      and\n      swap1\n        /* \"contracts/FireLock.sol\":9596:9638  IFireLockFactory(factoryAddr).addlockAdmin */\n      0xea32e36e\n      swap1\n        /* \"#utility.yul\":26761:26779   */\n      0x44\n      add\n        /* \"contracts/FireLock.sol\":9596:9658  IFireLockFactory(factoryAddr).addlockAdmin(address(this), _to) */\n      0x00\n      mload(0x40)\n      dup1\n      dup4\n      sub\n      dup2\n      0x00\n      dup8\n      dup1\n      extcodesize\n      iszero\n      dup1\n      iszero\n      tag_502\n      jumpi\n      0x00\n      dup1\n      revert\n    tag_502:\n      pop\n      gas\n      call\n      iszero\n      dup1\n      iszero\n      tag_504\n      jumpi\n      returndatasize\n      0x00\n      dup1\n      returndatacopy\n      revert(0x00, returndatasize)\n    tag_504:\n      pop\n      pop\n      pop\n      pop\n        /* \"contracts/FireLock.sol\":9257:9665  {... */\n      pop\n      pop\n        /* \"contracts/FireLock.sol\":9211:9665  function changeLockAdmin(address _to) public  {... */\n      pop\n      jump\t// out\n        /* \"contracts/FireLock.sol\":9671:9934  function isNotExist(address _to) internal view returns(bool) {... */\n    tag_201:\n        /* \"contracts/FireLock.sol\":9726:9730  bool */\n      0x00\n      dup1\n        /* \"contracts/FireLock.sol\":9742:9907  for(uint256 i = 0 ; i < adminLockDetail.member.length; i++) {... */\n    tag_506:\n        /* \"contracts/FireLock.sol\":9766:9788  adminLockDetail.member */\n      0x11\n        /* \"contracts/FireLock.sol\":9766:9795  adminLockDetail.member.length */\n      sload\n        /* \"contracts/FireLock.sol\":9762:9795  i < adminLockDetail.member.length */\n      dup2\n      lt\n        /* \"contracts/FireLock.sol\":9742:9907  for(uint256 i = 0 ; i < adminLockDetail.member.length; i++) {... */\n      iszero\n      tag_507\n      jumpi\n        /* \"contracts/FireLock.sol\":9826:9848  adminLockDetail.member */\n      0x11\n        /* \"contracts/FireLock.sol\":9826:9851  adminLockDetail.member[i] */\n      dup1\n      sload\n        /* \"contracts/FireLock.sol\":9849:9850  i */\n      dup3\n      swap1\n        /* \"contracts/FireLock.sol\":9826:9851  adminLockDetail.member[i] */\n      dup2\n      lt\n      tag_510\n      jumpi\n      tag_510\n      tag_217\n      jump\t// in\n    tag_510:\n      0x00\n      swap2\n      dup3\n      mstore\n      0x20\n      swap1\n      swap2\n      keccak256\n      add\n      sload\n      sub(shl(0xa0, 0x01), 0x01)\n      swap1\n      dup2\n      and\n        /* \"contracts/FireLock.sol\":9819:9851  _to == adminLockDetail.member[i] */\n      swap1\n      dup5\n      and\n      sub\n        /* \"contracts/FireLock.sol\":9816:9897  if(_to == adminLockDetail.member[i]){... */\n      tag_512\n      jumpi\n      pop\n        /* \"contracts/FireLock.sol\":9877:9882  false */\n      0x00\n      swap3\n        /* \"contracts/FireLock.sol\":9671:9934  function isNotExist(address _to) internal view returns(bool) {... */\n      swap2\n      pop\n      pop\n      jump\t// out\n        /* \"contracts/FireLock.sol\":9816:9897  if(_to == adminLockDetail.member[i]){... */\n    tag_512:\n        /* \"contracts/FireLock.sol\":9797:9800  i++ */\n      dup1\n      tag_513\n      dup2\n      tag_348\n      jump\t// in\n    tag_513:\n      swap2\n      pop\n      pop\n        /* \"contracts/FireLock.sol\":9742:9907  for(uint256 i = 0 ; i < adminLockDetail.member.length; i++) {... */\n      jump(tag_506)\n    tag_507:\n      pop\n        /* \"contracts/FireLock.sol\":9923:9927  true */\n      0x01\n      swap3\n        /* \"contracts/FireLock.sol\":9671:9934  function isNotExist(address _to) internal view returns(bool) {... */\n      swap2\n      pop\n      pop\n      jump\t// out\n        /* \"@openzeppelin/contracts/utils/math/SafeMath.sol\":3122:3218  function sub(uint256 a, uint256 b) internal pure returns (uint256) {... */\n    tag_240:\n        /* \"@openzeppelin/contracts/utils/math/SafeMath.sol\":3180:3187  uint256 */\n      0x00\n        /* \"@openzeppelin/contracts/utils/math/SafeMath.sol\":3206:3211  a - b */\n      tag_515\n        /* \"@openzeppelin/contracts/utils/math/SafeMath.sol\":3210:3211  b */\n      dup3\n        /* \"@openzeppelin/contracts/utils/math/SafeMath.sol\":3206:3207  a */\n      dup5\n        /* \"@openzeppelin/contracts/utils/math/SafeMath.sol\":3206:3211  a - b */\n      tag_516\n      jump\t// in\n    tag_515:\n        /* \"@openzeppelin/contracts/utils/math/SafeMath.sol\":3199:3211  return a - b */\n      swap1\n      pop\n        /* \"@openzeppelin/contracts/utils/math/SafeMath.sol\":3122:3218  function sub(uint256 a, uint256 b) internal pure returns (uint256) {... */\n    tag_514:\n      swap3\n      swap2\n      pop\n      pop\n      jump\t// out\n        /* \"@openzeppelin/contracts/utils/math/SafeMath.sol\":3465:3561  function mul(uint256 a, uint256 b) internal pure returns (uint256) {... */\n    tag_245:\n        /* \"@openzeppelin/contracts/utils/math/SafeMath.sol\":3523:3530  uint256 */\n      0x00\n        /* \"@openzeppelin/contracts/utils/math/SafeMath.sol\":3549:3554  a * b */\n      tag_515\n        /* \"@openzeppelin/contracts/utils/math/SafeMath.sol\":3553:3554  b */\n      dup3\n        /* \"@openzeppelin/contracts/utils/math/SafeMath.sol\":3549:3550  a */\n      dup5\n        /* \"@openzeppelin/contracts/utils/math/SafeMath.sol\":3549:3554  a * b */\n      tag_519\n      jump\t// in\n        /* \"@openzeppelin/contracts/utils/math/SafeMath.sol\":3850:3946  function div(uint256 a, uint256 b) internal pure returns (uint256) {... */\n    tag_251:\n        /* \"@openzeppelin/contracts/utils/math/SafeMath.sol\":3908:3915  uint256 */\n      0x00\n        /* \"@openzeppelin/contracts/utils/math/SafeMath.sol\":3934:3939  a / b */\n      tag_515\n        /* \"@openzeppelin/contracts/utils/math/SafeMath.sol\":3938:3939  b */\n      dup3\n        /* \"@openzeppelin/contracts/utils/math/SafeMath.sol\":3934:3935  a */\n      dup5\n        /* \"@openzeppelin/contracts/utils/math/SafeMath.sol\":3934:3939  a / b */\n      tag_522\n      jump\t// in\n        /* \"@openzeppelin/contracts/utils/math/SafeMath.sol\":2755:2851  function add(uint256 a, uint256 b) internal pure returns (uint256) {... */\n    tag_261:\n        /* \"@openzeppelin/contracts/utils/math/SafeMath.sol\":2813:2820  uint256 */\n      0x00\n        /* \"@openzeppelin/contracts/utils/math/SafeMath.sol\":2839:2844  a + b */\n      tag_515\n        /* \"@openzeppelin/contracts/utils/math/SafeMath.sol\":2843:2844  b */\n      dup3\n        /* \"@openzeppelin/contracts/utils/math/SafeMath.sol\":2839:2840  a */\n      dup5\n        /* \"@openzeppelin/contracts/utils/math/SafeMath.sol\":2839:2844  a + b */\n      tag_454\n      jump\t// in\n        /* \"@openzeppelin/contracts/token/ERC20/utils/SafeERC20.sol\":763:968  function safeTransfer(... */\n    tag_270:\n        /* \"@openzeppelin/contracts/token/ERC20/utils/SafeERC20.sol\":902:960  abi.encodeWithSelector(token.transfer.selector, to, value) */\n      0x40\n      dup1\n      mload\n      sub(shl(0xa0, 0x01), 0x01)\n        /* \"#utility.yul\":14719:14751   */\n      dup5\n      and\n        /* \"@openzeppelin/contracts/token/ERC20/utils/SafeERC20.sol\":902:960  abi.encodeWithSelector(token.transfer.selector, to, value) */\n      0x24\n      dup3\n      add\n        /* \"#utility.yul\":14701:14752   */\n      mstore\n        /* \"#utility.yul\":14768:14786   */\n      0x44\n      dup1\n      dup3\n      add\n        /* \"#utility.yul\":14761:14795   */\n      dup5\n      swap1\n      mstore\n        /* \"@openzeppelin/contracts/token/ERC20/utils/SafeERC20.sol\":902:960  abi.encodeWithSelector(token.transfer.selector, to, value) */\n      dup3\n      mload\n      dup1\n      dup4\n      sub\n      swap1\n      swap2\n      add\n      dup2\n      mstore\n        /* \"#utility.yul\":14674:14692   */\n      0x64\n      swap1\n      swap2\n      add\n        /* \"@openzeppelin/contracts/token/ERC20/utils/SafeERC20.sol\":902:960  abi.encodeWithSelector(token.transfer.selector, to, value) */\n      swap1\n      swap2\n      mstore\n      0x20\n      dup2\n      add\n      dup1\n      mload\n      sub(shl(0xe0, 0x01), 0x01)\n      and\n      shl(0xe0, 0xa9059cbb)\n      or\n      swap1\n      mstore\n        /* \"@openzeppelin/contracts/token/ERC20/utils/SafeERC20.sol\":875:961  _callOptionalReturn(token, abi.encodeWithSelector(token.transfer.selector, to, value)) */\n      tag_526\n      swap1\n        /* \"@openzeppelin/contracts/token/ERC20/utils/SafeERC20.sol\":895:900  token */\n      dup5\n      swap1\n        /* \"@openzeppelin/contracts/token/ERC20/utils/SafeERC20.sol\":875:894  _callOptionalReturn */\n      tag_528\n        /* \"@openzeppelin/contracts/token/ERC20/utils/SafeERC20.sol\":875:961  _callOptionalReturn(token, abi.encodeWithSelector(token.transfer.selector, to, value)) */\n      jump\t// in\n    tag_526:\n        /* \"@openzeppelin/contracts/token/ERC20/utils/SafeERC20.sol\":763:968  function safeTransfer(... */\n      pop\n      pop\n      pop\n      jump\t// out\n        /* \"contracts/lib/TransferHelper.sol\":935:1333  function safeTransferFrom(address token, address from, address to, uint value) internal {... */\n    tag_381:\n        /* \"contracts/lib/TransferHelper.sol\":1158:1209  abi.encodeWithSelector(0x23b872dd, from, to, value) */\n      0x40\n      dup1\n      mload\n      sub(shl(0xa0, 0x01), 0x01)\n        /* \"#utility.yul\":22682:22697   */\n      dup6\n      dup2\n      and\n        /* \"contracts/lib/TransferHelper.sol\":1158:1209  abi.encodeWithSelector(0x23b872dd, from, to, value) */\n      0x24\n      dup4\n      add\n        /* \"#utility.yul\":22664:22698   */\n      mstore\n        /* \"#utility.yul\":22734:22749   */\n      dup5\n      dup2\n      and\n        /* \"#utility.yul\":22714:22732   */\n      0x44\n      dup4\n      add\n        /* \"#utility.yul\":22707:22750   */\n      mstore\n        /* \"#utility.yul\":22766:22784   */\n      0x64\n      dup1\n      dup4\n      add\n        /* \"#utility.yul\":22759:22793   */\n      dup6\n      swap1\n      mstore\n        /* \"contracts/lib/TransferHelper.sol\":1158:1209  abi.encodeWithSelector(0x23b872dd, from, to, value) */\n      dup4\n      mload\n      dup1\n      dup5\n      sub\n      swap1\n      swap2\n      add\n      dup2\n      mstore\n        /* \"#utility.yul\":22599:22617   */\n      0x84\n      swap1\n      swap3\n      add\n        /* \"contracts/lib/TransferHelper.sol\":1158:1209  abi.encodeWithSelector(0x23b872dd, from, to, value) */\n      dup4\n      mstore\n      0x20\n      dup3\n      add\n      dup1\n      mload\n      sub(shl(0xe0, 0x01), 0x01)\n      and\n      shl(0xe0, 0x23b872dd)\n      or\n      swap1\n      mstore\n        /* \"contracts/lib/TransferHelper.sol\":1147:1210  token.call(abi.encodeWithSelector(0x23b872dd, from, to, value)) */\n      swap2\n      mload\n      0x00\n      swap3\n      dup4\n      swap3\n        /* \"contracts/lib/TransferHelper.sol\":1147:1157  token.call */\n      swap1\n      dup9\n      and\n      swap2\n        /* \"contracts/lib/TransferHelper.sol\":1147:1210  token.call(abi.encodeWithSelector(0x23b872dd, from, to, value)) */\n      tag_532\n      swap2\n        /* \"contracts/lib/TransferHelper.sol\":1158:1209  abi.encodeWithSelector(0x23b872dd, from, to, value) */\n      swap1\n        /* \"contracts/lib/TransferHelper.sol\":1147:1210  token.call(abi.encodeWithSelector(0x23b872dd, from, to, value)) */\n      tag_533\n      jump\t// in\n    tag_532:\n      0x00\n      mload(0x40)\n      dup1\n      dup4\n      sub\n      dup2\n      0x00\n      dup7\n      gas\n      call\n      swap2\n      pop\n      pop\n      returndatasize\n      dup1\n      0x00\n      dup2\n      eq\n      tag_536\n      jumpi\n      mload(0x40)\n      swap2\n      pop\n      and(add(returndatasize, 0x3f), not(0x1f))\n      dup3\n      add\n      0x40\n      mstore\n      returndatasize\n      dup3\n      mstore\n      returndatasize\n      0x00\n      0x20\n      dup5\n      add\n      returndatacopy\n      jump(tag_535)\n    tag_536:\n      0x60\n      swap2\n      pop\n    tag_535:\n      pop\n        /* \"contracts/lib/TransferHelper.sol\":1111:1210  (bool success, bytes memory data) = token.call(abi.encodeWithSelector(0x23b872dd, from, to, value)) */\n      swap2\n      pop\n      swap2\n      pop\n        /* \"contracts/lib/TransferHelper.sol\":1228:1235  success */\n      dup2\n        /* \"contracts/lib/TransferHelper.sol\":1228:1285  success && (data.length == 0 || abi.decode(data, (bool))) */\n      dup1\n      iszero\n      tag_539\n      jumpi\n      pop\n        /* \"contracts/lib/TransferHelper.sol\":1240:1251  data.length */\n      dup1\n      mload\n        /* \"contracts/lib/TransferHelper.sol\":1240:1256  data.length == 0 */\n      iszero\n      dup1\n        /* \"contracts/lib/TransferHelper.sol\":1240:1284  data.length == 0 || abi.decode(data, (bool)) */\n      tag_539\n      jumpi\n      pop\n        /* \"contracts/lib/TransferHelper.sol\":1271:1275  data */\n      dup1\n        /* \"contracts/lib/TransferHelper.sol\":1260:1284  abi.decode(data, (bool)) */\n      dup1\n      0x20\n      add\n      swap1\n      mload\n      dup2\n      add\n      swap1\n      tag_539\n      swap2\n      swap1\n      tag_397\n      jump\t// in\n    tag_539:\n        /* \"contracts/lib/TransferHelper.sol\":1220:1326  require(success && (data.length == 0 || abi.decode(data, (bool))), 'TransferHelper: TRANSFER_FROM_FAILED') */\n      tag_540\n      jumpi\n      mload(0x40)\n      shl(0xe5, 0x461bcd)\n      dup2\n      mstore\n        /* \"#utility.yul\":27945:27947   */\n      0x20\n        /* \"contracts/lib/TransferHelper.sol\":1220:1326  require(success && (data.length == 0 || abi.decode(data, (bool))), 'TransferHelper: TRANSFER_FROM_FAILED') */\n      0x04\n      dup3\n      add\n        /* \"#utility.yul\":27927:27948   */\n      mstore\n        /* \"#utility.yul\":27984:27986   */\n      0x24\n        /* \"#utility.yul\":27964:27982   */\n      dup1\n      dup3\n      add\n        /* \"#utility.yul\":27957:27987   */\n      mstore\n        /* \"#utility.yul\":28023:28057   */\n      0x5472616e7366657248656c7065723a205452414e534645525f46524f4d5f4641\n        /* \"#utility.yul\":28003:28021   */\n      0x44\n      dup3\n      add\n        /* \"#utility.yul\":27996:28058   */\n      mstore\n      shl(0xe2, 0x12531151)\n        /* \"#utility.yul\":28074:28092   */\n      0x64\n      dup3\n      add\n        /* \"#utility.yul\":28067:28101   */\n      mstore\n        /* \"#utility.yul\":28118:28137   */\n      0x84\n      add\n        /* \"contracts/lib/TransferHelper.sol\":1220:1326  require(success && (data.length == 0 || abi.decode(data, (bool))), 'TransferHelper: TRANSFER_FROM_FAILED') */\n      tag_197\n        /* \"#utility.yul\":27743:28143   */\n      jump\n        /* \"contracts/lib/TransferHelper.sol\":1220:1326  require(success && (data.length == 0 || abi.decode(data, (bool))), 'TransferHelper: TRANSFER_FROM_FAILED') */\n    tag_540:\n        /* \"contracts/lib/TransferHelper.sol\":1023:1333  {... */\n      pop\n      pop\n        /* \"contracts/lib/TransferHelper.sol\":935:1333  function safeTransferFrom(address token, address from, address to, uint value) internal {... */\n      pop\n      pop\n      pop\n      pop\n      jump\t// out\n        /* \"contracts/FireLock.sol\":8965:9205  function checkRate() internal {... */\n    tag_415:\n        /* \"contracts/FireLock.sol\":9005:9023  uint256 _totalRate */\n      0x00\n      dup1\n        /* \"contracts/FireLock.sol\":9033:9167  for(uint256 i =0; i < adminLockDetail.rate.length; i++ ){... */\n    tag_544:\n        /* \"contracts/FireLock.sol\":9055:9075  adminLockDetail.rate */\n      0x0f\n        /* \"contracts/FireLock.sol\":9055:9082  adminLockDetail.rate.length */\n      sload\n        /* \"contracts/FireLock.sol\":9051:9082  i < adminLockDetail.rate.length */\n      dup2\n      lt\n        /* \"contracts/FireLock.sol\":9033:9167  for(uint256 i =0; i < adminLockDetail.rate.length; i++ ){... */\n      iszero\n      tag_545\n      jumpi\n        /* \"contracts/FireLock.sol\":9116:9155  _totalRate.add(adminLockDetail.rate[i]) */\n      tag_547\n        /* \"contracts/FireLock.sol\":9131:9146  adminLockDetail */\n      0x08\n        /* \"contracts/FireLock.sol\":9131:9151  adminLockDetail.rate */\n      0x07\n      add\n        /* \"contracts/FireLock.sol\":9152:9153  i */\n      dup3\n        /* \"contracts/FireLock.sol\":9131:9154  adminLockDetail.rate[i] */\n      dup2\n      sload\n      dup2\n      lt\n      tag_549\n      jumpi\n      tag_549\n      tag_217\n      jump\t// in\n    tag_549:\n      swap1\n      0x00\n      mstore\n      keccak256(0x00, 0x20)\n      add\n      sload\n        /* \"contracts/FireLock.sol\":9116:9126  _totalRate */\n      dup4\n        /* \"contracts/FireLock.sol\":9116:9130  _totalRate.add */\n      tag_261\n      swap1\n        /* \"contracts/FireLock.sol\":9116:9155  _totalRate.add(adminLockDetail.rate[i]) */\n      swap2\n      swap1\n      0xffffffff\n      and\n      jump\t// in\n    tag_547:\n        /* \"contracts/FireLock.sol\":9103:9155  _totalRate = _totalRate.add(adminLockDetail.rate[i]) */\n      swap2\n      pop\n        /* \"contracts/FireLock.sol\":9084:9087  i++ */\n      dup1\n      tag_551\n      dup2\n      tag_348\n      jump\t// in\n    tag_551:\n      swap2\n      pop\n      pop\n        /* \"contracts/FireLock.sol\":9033:9167  for(uint256 i =0; i < adminLockDetail.rate.length; i++ ){... */\n      jump(tag_544)\n    tag_545:\n      pop\n        /* \"contracts/FireLock.sol\":9176:9185  totalRate */\n      0x07\n        /* \"contracts/FireLock.sol\":9176:9198  totalRate = _totalRate */\n      sstore\n        /* \"contracts/FireLock.sol\":8965:9205  function checkRate() internal {... */\n      jump\t// out\n        /* \"@openzeppelin/contracts/token/ERC20/utils/SafeERC20.sol\":3747:4453  function _callOptionalReturn(IERC20 token, bytes memory data) private {... */\n    tag_528:\n        /* \"@openzeppelin/contracts/token/ERC20/utils/SafeERC20.sol\":4166:4189  bytes memory returndata */\n      0x00\n        /* \"@openzeppelin/contracts/token/ERC20/utils/SafeERC20.sol\":4192:4261  address(token).functionCall(data, \"SafeERC20: low-level call failed\") */\n      tag_553\n        /* \"@openzeppelin/contracts/token/ERC20/utils/SafeERC20.sol\":4220:4224  data */\n      dup3\n        /* \"@openzeppelin/contracts/token/ERC20/utils/SafeERC20.sol\":4192:4261  address(token).functionCall(data, \"SafeERC20: low-level call failed\") */\n      mload(0x40)\n      dup1\n      0x40\n      add\n      0x40\n      mstore\n      dup1\n      0x20\n      dup2\n      mstore\n      0x20\n      add\n      0x5361666545524332303a206c6f772d6c6576656c2063616c6c206661696c6564\n      dup2\n      mstore\n      pop\n        /* \"@openzeppelin/contracts/token/ERC20/utils/SafeERC20.sol\":4200:4205  token */\n      dup6\n      sub(shl(0xa0, 0x01), 0x01)\n        /* \"@openzeppelin/contracts/token/ERC20/utils/SafeERC20.sol\":4192:4219  address(token).functionCall */\n      and\n      tag_554\n      swap1\n        /* \"@openzeppelin/contracts/token/ERC20/utils/SafeERC20.sol\":4192:4261  address(token).functionCall(data, \"SafeERC20: low-level call failed\") */\n      swap3\n      swap2\n      swap1\n      0xffffffff\n      and\n      jump\t// in\n    tag_553:\n        /* \"@openzeppelin/contracts/token/ERC20/utils/SafeERC20.sol\":4275:4292  returndata.length */\n      dup1\n      mload\n        /* \"@openzeppelin/contracts/token/ERC20/utils/SafeERC20.sol\":4166:4261  bytes memory returndata = address(token).functionCall(data, \"SafeERC20: low-level call failed\") */\n      swap1\n      swap2\n      pop\n        /* \"@openzeppelin/contracts/token/ERC20/utils/SafeERC20.sol\":4275:4296  returndata.length > 0 */\n      iszero\n        /* \"@openzeppelin/contracts/token/ERC20/utils/SafeERC20.sol\":4271:4447  if (returndata.length > 0) {... */\n      tag_526\n      jumpi\n        /* \"@openzeppelin/contracts/token/ERC20/utils/SafeERC20.sol\":4370:4380  returndata */\n      dup1\n        /* \"@openzeppelin/contracts/token/ERC20/utils/SafeERC20.sol\":4359:4389  abi.decode(returndata, (bool)) */\n      dup1\n      0x20\n      add\n      swap1\n      mload\n      dup2\n      add\n      swap1\n      tag_556\n      swap2\n      swap1\n      tag_397\n      jump\t// in\n    tag_556:\n        /* \"@openzeppelin/contracts/token/ERC20/utils/SafeERC20.sol\":4351:4436  require(abi.decode(returndata, (bool)), \"SafeERC20: ERC20 operation did not succeed\") */\n      tag_526\n      jumpi\n      mload(0x40)\n      shl(0xe5, 0x461bcd)\n      dup2\n      mstore\n        /* \"#utility.yul\":28350:28352   */\n      0x20\n        /* \"@openzeppelin/contracts/token/ERC20/utils/SafeERC20.sol\":4351:4436  require(abi.decode(returndata, (bool)), \"SafeERC20: ERC20 operation did not succeed\") */\n      0x04\n      dup3\n      add\n        /* \"#utility.yul\":28332:28353   */\n      mstore\n        /* \"#utility.yul\":28389:28391   */\n      0x2a\n        /* \"#utility.yul\":28369:28387   */\n      0x24\n      dup3\n      add\n        /* \"#utility.yul\":28362:28392   */\n      mstore\n        /* \"#utility.yul\":28428:28462   */\n      0x5361666545524332303a204552433230206f7065726174696f6e20646964206e\n        /* \"#utility.yul\":28408:28426   */\n      0x44\n      dup3\n      add\n        /* \"#utility.yul\":28401:28463   */\n      mstore\n      shl(0xb2, 0x1bdd081cdd58d8d95959)\n        /* \"#utility.yul\":28479:28497   */\n      0x64\n      dup3\n      add\n        /* \"#utility.yul\":28472:28512   */\n      mstore\n        /* \"#utility.yul\":28529:28548   */\n      0x84\n      add\n        /* \"@openzeppelin/contracts/token/ERC20/utils/SafeERC20.sol\":4351:4436  require(abi.decode(returndata, (bool)), \"SafeERC20: ERC20 operation did not succeed\") */\n      tag_197\n        /* \"#utility.yul\":28148:28554   */\n      jump\n        /* \"@openzeppelin/contracts/utils/Address.sol\":3873:4096  function functionCall(... */\n    tag_554:\n        /* \"@openzeppelin/contracts/utils/Address.sol\":4006:4018  bytes memory */\n      0x60\n        /* \"@openzeppelin/contracts/utils/Address.sol\":4037:4089  functionCallWithValue(target, data, 0, errorMessage) */\n      tag_303\n        /* \"@openzeppelin/contracts/utils/Address.sol\":4059:4065  target */\n      dup5\n        /* \"@openzeppelin/contracts/utils/Address.sol\":4067:4071  data */\n      dup5\n        /* \"@openzeppelin/contracts/utils/Address.sol\":4073:4074  0 */\n      0x00\n        /* \"@openzeppelin/contracts/utils/Address.sol\":4076:4088  errorMessage */\n      dup6\n        /* \"@openzeppelin/contracts/utils/Address.sol\":4006:4018  bytes memory */\n      dup6\n        /* \"@openzeppelin/contracts/utils/Address.sol\":5241:5253  bool success */\n      0x00\n        /* \"@openzeppelin/contracts/utils/Address.sol\":5255:5278  bytes memory returndata */\n      dup1\n        /* \"@openzeppelin/contracts/utils/Address.sol\":5282:5288  target */\n      dup7\n      sub(shl(0xa0, 0x01), 0x01)\n        /* \"@openzeppelin/contracts/utils/Address.sol\":5282:5293  target.call */\n      and\n        /* \"@openzeppelin/contracts/utils/Address.sol\":5301:5306  value */\n      dup6\n        /* \"@openzeppelin/contracts/utils/Address.sol\":5308:5312  data */\n      dup8\n        /* \"@openzeppelin/contracts/utils/Address.sol\":5282:5313  target.call{value: value}(data) */\n      mload(0x40)\n      tag_567\n      swap2\n      swap1\n      tag_533\n      jump\t// in\n    tag_567:\n      0x00\n      mload(0x40)\n      dup1\n      dup4\n      sub\n      dup2\n      dup6\n      dup8\n      gas\n      call\n      swap3\n      pop\n      pop\n      pop\n      returndatasize\n      dup1\n      0x00\n      dup2\n      eq\n      tag_570\n      jumpi\n      mload(0x40)\n      swap2\n      pop\n      and(add(returndatasize, 0x3f), not(0x1f))\n      dup3\n      add\n      0x40\n      mstore\n      returndatasize\n      dup3\n      mstore\n      returndatasize\n      0x00\n      0x20\n      dup5\n      add\n      returndatacopy\n      jump(tag_569)\n    tag_570:\n      0x60\n      swap2\n      pop\n    tag_569:\n      pop\n        /* \"@openzeppelin/contracts/utils/Address.sol\":5240:5313  (bool success, bytes memory returndata) = target.call{value: value}(data) */\n      swap2\n      pop\n      swap2\n      pop\n        /* \"@openzeppelin/contracts/utils/Address.sol\":5330:5399  verifyCallResultFromTarget(target, success, returndata, errorMessage) */\n      tag_571\n        /* \"@openzeppelin/contracts/utils/Address.sol\":5357:5363  target */\n      dup8\n        /* \"@openzeppelin/contracts/utils/Address.sol\":5365:5372  success */\n      dup4\n        /* \"@openzeppelin/contracts/utils/Address.sol\":5374:5384  returndata */\n      dup4\n        /* \"@openzeppelin/contracts/utils/Address.sol\":5386:5398  errorMessage */\n      dup8\n        /* \"@openzeppelin/contracts/utils/Address.sol\":5330:5356  verifyCallResultFromTarget */\n      tag_572\n        /* \"@openzeppelin/contracts/utils/Address.sol\":5330:5399  verifyCallResultFromTarget(target, success, returndata, errorMessage) */\n      jump\t// in\n    tag_571:\n        /* \"@openzeppelin/contracts/utils/Address.sol\":5323:5399  return verifyCallResultFromTarget(target, success, returndata, errorMessage) */\n      swap3\n      pop\n      pop\n      pop\n        /* \"@openzeppelin/contracts/utils/Address.sol\":4960:5406  function functionCallWithValue(... */\n    tag_563:\n      swap5\n      swap4\n      pop\n      pop\n      pop\n      pop\n      jump\t// out\n        /* \"@openzeppelin/contracts/utils/Address.sol\":7466:8094  function verifyCallResultFromTarget(... */\n    tag_572:\n        /* \"@openzeppelin/contracts/utils/Address.sol\":7646:7658  bytes memory */\n      0x60\n        /* \"@openzeppelin/contracts/utils/Address.sol\":7674:7681  success */\n      dup4\n        /* \"@openzeppelin/contracts/utils/Address.sol\":7670:8088  if (success) {... */\n      iszero\n      tag_574\n      jumpi\n        /* \"@openzeppelin/contracts/utils/Address.sol\":7701:7711  returndata */\n      dup3\n        /* \"@openzeppelin/contracts/utils/Address.sol\":7701:7718  returndata.length */\n      mload\n        /* \"@openzeppelin/contracts/utils/Address.sol\":7722:7723  0 */\n      0x00\n        /* \"@openzeppelin/contracts/utils/Address.sol\":7701:7723  returndata.length == 0 */\n      sub\n        /* \"@openzeppelin/contracts/utils/Address.sol\":7697:7983  if (returndata.length == 0) {... */\n      tag_577\n      jumpi\n      sub(shl(0xa0, 0x01), 0x01)\n        /* \"@openzeppelin/contracts/utils/Address.sol\":1465:1484  account.code.length */\n      dup6\n      and\n      extcodesize\n        /* \"@openzeppelin/contracts/utils/Address.sol\":7908:7968  require(isContract(target), \"Address: call to non-contract\") */\n      tag_577\n      jumpi\n      mload(0x40)\n      shl(0xe5, 0x461bcd)\n      dup2\n      mstore\n        /* \"#utility.yul\":29168:29170   */\n      0x20\n        /* \"@openzeppelin/contracts/utils/Address.sol\":7908:7968  require(isContract(target), \"Address: call to non-contract\") */\n      0x04\n      dup3\n      add\n        /* \"#utility.yul\":29150:29171   */\n      mstore\n        /* \"#utility.yul\":29207:29209   */\n      0x1d\n        /* \"#utility.yul\":29187:29205   */\n      0x24\n      dup3\n      add\n        /* \"#utility.yul\":29180:29210   */\n      mstore\n        /* \"#utility.yul\":29246:29277   */\n      0x416464726573733a2063616c6c20746f206e6f6e2d636f6e7472616374000000\n        /* \"#utility.yul\":29226:29244   */\n      0x44\n      dup3\n      add\n        /* \"#utility.yul\":29219:29278   */\n      mstore\n        /* \"#utility.yul\":29295:29313   */\n      0x64\n      add\n        /* \"@openzeppelin/contracts/utils/Address.sol\":7908:7968  require(isContract(target), \"Address: call to non-contract\") */\n      tag_197\n        /* \"#utility.yul\":28966:29319   */\n      jump\n        /* \"@openzeppelin/contracts/utils/Address.sol\":7908:7968  require(isContract(target), \"Address: call to non-contract\") */\n    tag_577:\n      pop\n        /* \"@openzeppelin/contracts/utils/Address.sol\":8003:8013  returndata */\n      dup2\n        /* \"@openzeppelin/contracts/utils/Address.sol\":7996:8013  return returndata */\n      jump(tag_563)\n        /* \"@openzeppelin/contracts/utils/Address.sol\":7670:8088  if (success) {... */\n    tag_574:\n        /* \"@openzeppelin/contracts/utils/Address.sol\":8044:8077  _revert(returndata, errorMessage) */\n      tag_563\n        /* \"@openzeppelin/contracts/utils/Address.sol\":8052:8062  returndata */\n      dup4\n        /* \"@openzeppelin/contracts/utils/Address.sol\":8064:8076  errorMessage */\n      dup4\n        /* \"@openzeppelin/contracts/utils/Address.sol\":8775:8792  returndata.length */\n      dup2\n      mload\n        /* \"@openzeppelin/contracts/utils/Address.sol\":8775:8796  returndata.length > 0 */\n      iszero\n        /* \"@openzeppelin/contracts/utils/Address.sol\":8771:9150  if (returndata.length > 0) {... */\n      tag_584\n      jumpi\n        /* \"@openzeppelin/contracts/utils/Address.sol\":9003:9013  returndata */\n      dup2\n        /* \"@openzeppelin/contracts/utils/Address.sol\":8997:9014  mload(returndata) */\n      mload\n        /* \"@openzeppelin/contracts/utils/Address.sol\":9059:9074  returndata_size */\n      dup1\n        /* \"@openzeppelin/contracts/utils/Address.sol\":9046:9056  returndata */\n      dup4\n        /* \"@openzeppelin/contracts/utils/Address.sol\":9042:9044  32 */\n      0x20\n        /* \"@openzeppelin/contracts/utils/Address.sol\":9038:9057  add(32, returndata) */\n      add\n        /* \"@openzeppelin/contracts/utils/Address.sol\":9031:9075  revert(add(32, returndata), returndata_size) */\n      revert\n        /* \"@openzeppelin/contracts/utils/Address.sol\":8771:9150  if (returndata.length > 0) {... */\n    tag_584:\n        /* \"@openzeppelin/contracts/utils/Address.sol\":9126:9138  errorMessage */\n      dup1\n        /* \"@openzeppelin/contracts/utils/Address.sol\":9119:9139  revert(errorMessage) */\n      mload(0x40)\n      shl(0xe5, 0x461bcd)\n      dup2\n      mstore\n      0x04\n      add\n      tag_197\n      swap2\n      swap1\n      tag_132\n      jump\t// in\n    tag_401:\n      dup3\n      dup1\n      sload\n      dup3\n      dup3\n      sstore\n      swap1\n      0x00\n      mstore\n      keccak256(0x00, 0x20)\n      swap1\n      dup2\n      add\n      swap3\n      dup3\n      iszero\n      tag_589\n      jumpi\n      swap2\n      0x20\n      mul\n      dup3\n      add\n    tag_588:\n      dup3\n      dup2\n      gt\n      iszero\n      tag_589\n      jumpi\n      dup3\n      mload\n      dup3\n      sstore\n      swap2\n      0x20\n      add\n      swap2\n      swap1\n      0x01\n      add\n      swap1\n      jump(tag_588)\n    tag_589:\n      pop\n      tag_590\n      swap3\n      swap2\n      pop\n      tag_591\n      jump\t// in\n    tag_590:\n      pop\n      swap1\n      jump\t// out\n    tag_403:\n      dup3\n      dup1\n      sload\n      dup3\n      dup3\n      sstore\n      swap1\n      0x00\n      mstore\n      keccak256(0x00, 0x20)\n      swap1\n      dup2\n      add\n      swap3\n      dup3\n      iszero\n      tag_589\n      jumpi\n      swap2\n      0x20\n      mul\n      dup3\n      add\n    tag_593:\n      dup3\n      dup2\n      gt\n      iszero\n      tag_589\n      jumpi\n      dup3\n      mload\n      dup3\n      sload\n      not(sub(shl(0xa0, 0x01), 0x01))\n      and\n      sub(shl(0xa0, 0x01), 0x01)\n      swap1\n      swap2\n      and\n      or\n      dup3\n      sstore\n      0x20\n      swap1\n      swap3\n      add\n      swap2\n      0x01\n      swap1\n      swap2\n      add\n      swap1\n      jump(tag_593)\n    tag_591:\n    tag_596:\n      dup1\n      dup3\n      gt\n      iszero\n      tag_590\n      jumpi\n      0x00\n      dup2\n      sstore\n      0x01\n      add\n      jump(tag_596)\n        /* \"#utility.yul\":14:672   */\n    tag_44:\n        /* \"#utility.yul\":185:187   */\n      0x20\n        /* \"#utility.yul\":237:258   */\n      dup1\n      dup3\n      mstore\n        /* \"#utility.yul\":307:320   */\n      dup3\n      mload\n        /* \"#utility.yul\":210:228   */\n      dup3\n      dup3\n      add\n        /* \"#utility.yul\":329:351   */\n      dup2\n      swap1\n      mstore\n        /* \"#utility.yul\":156:160   */\n      0x00\n      swap2\n        /* \"#utility.yul\":185:187   */\n      swap1\n        /* \"#utility.yul\":408:423   */\n      dup5\n      dup3\n      add\n      swap1\n        /* \"#utility.yul\":382:384   */\n      0x40\n        /* \"#utility.yul\":367:385   */\n      dup6\n      add\n      swap1\n        /* \"#utility.yul\":156:160   */\n      dup5\n        /* \"#utility.yul\":451:646   */\n    tag_614:\n        /* \"#utility.yul\":465:471   */\n      dup2\n        /* \"#utility.yul\":462:463   */\n      dup2\n        /* \"#utility.yul\":459:472   */\n      lt\n        /* \"#utility.yul\":451:646   */\n      iszero\n      tag_616\n      jumpi\n        /* \"#utility.yul\":530:543   */\n      dup4\n      mload\n      sub(shl(0xa0, 0x01), 0x01)\n        /* \"#utility.yul\":526:565   */\n      and\n        /* \"#utility.yul\":514:566   */\n      dup4\n      mstore\n        /* \"#utility.yul\":621:636   */\n      swap3\n      dup5\n      add\n      swap3\n        /* \"#utility.yul\":586:598   */\n      swap2\n      dup5\n      add\n      swap2\n        /* \"#utility.yul\":562:563   */\n      0x01\n        /* \"#utility.yul\":480:489   */\n      add\n        /* \"#utility.yul\":451:646   */\n      jump(tag_614)\n    tag_616:\n      pop\n        /* \"#utility.yul\":663:666   */\n      swap1\n      swap7\n        /* \"#utility.yul\":14:672   */\n      swap6\n      pop\n      pop\n      pop\n      pop\n      pop\n      pop\n      jump\t// out\n        /* \"#utility.yul\":677:927   */\n    tag_598:\n        /* \"#utility.yul\":762:763   */\n      0x00\n        /* \"#utility.yul\":772:885   */\n    tag_618:\n        /* \"#utility.yul\":786:792   */\n      dup4\n        /* \"#utility.yul\":783:784   */\n      dup2\n        /* \"#utility.yul\":780:793   */\n      lt\n        /* \"#utility.yul\":772:885   */\n      iszero\n      tag_620\n      jumpi\n        /* \"#utility.yul\":862:873   */\n      dup2\n      dup2\n      add\n        /* \"#utility.yul\":856:874   */\n      mload\n        /* \"#utility.yul\":843:854   */\n      dup4\n      dup3\n      add\n        /* \"#utility.yul\":836:875   */\n      mstore\n        /* \"#utility.yul\":808:810   */\n      0x20\n        /* \"#utility.yul\":801:811   */\n      add\n        /* \"#utility.yul\":772:885   */\n      jump(tag_618)\n    tag_620:\n      pop\n      pop\n        /* \"#utility.yul\":919:920   */\n      0x00\n        /* \"#utility.yul\":901:917   */\n      swap2\n      add\n        /* \"#utility.yul\":894:921   */\n      mstore\n        /* \"#utility.yul\":677:927   */\n      jump\t// out\n        /* \"#utility.yul\":932:1203   */\n    tag_599:\n        /* \"#utility.yul\":974:977   */\n      0x00\n        /* \"#utility.yul\":1012:1017   */\n      dup2\n        /* \"#utility.yul\":1006:1018   */\n      mload\n        /* \"#utility.yul\":1039:1045   */\n      dup1\n        /* \"#utility.yul\":1034:1037   */\n      dup5\n        /* \"#utility.yul\":1027:1046   */\n      mstore\n        /* \"#utility.yul\":1055:1131   */\n      tag_622\n        /* \"#utility.yul\":1124:1130   */\n      dup2\n        /* \"#utility.yul\":1117:1121   */\n      0x20\n        /* \"#utility.yul\":1112:1115   */\n      dup7\n        /* \"#utility.yul\":1108:1122   */\n      add\n        /* \"#utility.yul\":1101:1105   */\n      0x20\n        /* \"#utility.yul\":1094:1099   */\n      dup7\n        /* \"#utility.yul\":1090:1106   */\n      add\n        /* \"#utility.yul\":1055:1131   */\n      tag_598\n      jump\t// in\n    tag_622:\n        /* \"#utility.yul\":1185:1187   */\n      0x1f\n        /* \"#utility.yul\":1164:1179   */\n      add\n      not(0x1f)\n        /* \"#utility.yul\":1160:1189   */\n      and\n        /* \"#utility.yul\":1151:1190   */\n      swap3\n      swap1\n      swap3\n      add\n        /* \"#utility.yul\":1192:1196   */\n      0x20\n        /* \"#utility.yul\":1147:1197   */\n      add\n      swap3\n        /* \"#utility.yul\":932:1203   */\n      swap2\n      pop\n      pop\n      jump\t// out\n        /* \"#utility.yul\":1208:2079   */\n    tag_49:\n        /* \"#utility.yul\":1544:1548   */\n      0x00\n        /* \"#utility.yul\":1573:1576   */\n      0x0120\n        /* \"#utility.yul\":1603:1605   */\n      dup1\n        /* \"#utility.yul\":1592:1601   */\n      dup4\n        /* \"#utility.yul\":1585:1606   */\n      mstore\n        /* \"#utility.yul\":1623:1668   */\n      tag_624\n        /* \"#utility.yul\":1664:1666   */\n      dup2\n        /* \"#utility.yul\":1653:1662   */\n      dup5\n        /* \"#utility.yul\":1649:1667   */\n      add\n        /* \"#utility.yul\":1641:1647   */\n      dup14\n        /* \"#utility.yul\":1623:1668   */\n      tag_599\n      jump\t// in\n    tag_624:\n        /* \"#utility.yul\":1699:1701   */\n      0x20\n        /* \"#utility.yul\":1684:1702   */\n      dup5\n      add\n        /* \"#utility.yul\":1677:1711   */\n      swap12\n      swap1\n      swap12\n      mstore\n      pop\n      pop\n        /* \"#utility.yul\":1742:1744   */\n      0x40\n        /* \"#utility.yul\":1727:1745   */\n      dup2\n      add\n        /* \"#utility.yul\":1720:1754   */\n      swap8\n      swap1\n      swap8\n      mstore\n      sub(shl(0xa0, 0x01), 0x01)\n        /* \"#utility.yul\":1828:1843   */\n      swap6\n      dup7\n      and\n        /* \"#utility.yul\":1823:1825   */\n      0x60\n        /* \"#utility.yul\":1808:1826   */\n      dup9\n      add\n        /* \"#utility.yul\":1801:1844   */\n      mstore\n        /* \"#utility.yul\":1875:1878   */\n      0x80\n        /* \"#utility.yul\":1860:1879   */\n      dup8\n      add\n        /* \"#utility.yul\":1853:1888   */\n      swap5\n      swap1\n      swap5\n      mstore\n        /* \"#utility.yul\":1781:1784   */\n      0xa0\n        /* \"#utility.yul\":1904:1923   */\n      dup7\n      add\n        /* \"#utility.yul\":1897:1932   */\n      swap3\n      swap1\n      swap3\n      mstore\n        /* \"#utility.yul\":1963:1966   */\n      0xc0\n        /* \"#utility.yul\":1948:1967   */\n      dup6\n      add\n        /* \"#utility.yul\":1941:1976   */\n      mstore\n        /* \"#utility.yul\":2013:2028   */\n      swap1\n      swap2\n      and\n        /* \"#utility.yul\":2007:2010   */\n      0xe0\n        /* \"#utility.yul\":1992:2011   */\n      dup4\n      add\n        /* \"#utility.yul\":1985:2029   */\n      mstore\n        /* \"#utility.yul\":2060:2063   */\n      0x0100\n        /* \"#utility.yul\":2045:2064   */\n      swap1\n      swap2\n      add\n        /* \"#utility.yul\":2038:2073   */\n      mstore\n        /* \"#utility.yul\":1615:1668   */\n      swap2\n        /* \"#utility.yul\":1208:2079   */\n      swap1\n      pop\n      jump\t// out\n        /* \"#utility.yul\":2474:2654   */\n    tag_67:\n        /* \"#utility.yul\":2533:2539   */\n      0x00\n        /* \"#utility.yul\":2586:2588   */\n      0x20\n        /* \"#utility.yul\":2574:2583   */\n      dup3\n        /* \"#utility.yul\":2565:2572   */\n      dup5\n        /* \"#utility.yul\":2561:2584   */\n      sub\n        /* \"#utility.yul\":2557:2589   */\n      slt\n        /* \"#utility.yul\":2554:2606   */\n      iszero\n      tag_628\n      jumpi\n        /* \"#utility.yul\":2602:2603   */\n      0x00\n        /* \"#utility.yul\":2599:2600   */\n      dup1\n        /* \"#utility.yul\":2592:2604   */\n      revert\n        /* \"#utility.yul\":2554:2606   */\n    tag_628:\n      pop\n        /* \"#utility.yul\":2625:2648   */\n      calldataload\n      swap2\n        /* \"#utility.yul\":2474:2654   */\n      swap1\n      pop\n      jump\t// out\n        /* \"#utility.yul\":3009:3140   */\n    tag_600:\n      sub(shl(0xa0, 0x01), 0x01)\n        /* \"#utility.yul\":3084:3115   */\n      dup2\n      and\n        /* \"#utility.yul\":3074:3116   */\n      dup2\n      eq\n        /* \"#utility.yul\":3064:3134   */\n      tag_439\n      jumpi\n        /* \"#utility.yul\":3130:3131   */\n      0x00\n        /* \"#utility.yul\":3127:3128   */\n      dup1\n        /* \"#utility.yul\":3120:3132   */\n      revert\n        /* \"#utility.yul\":3145:3279   */\n    tag_601:\n        /* \"#utility.yul\":3213:3233   */\n      dup1\n      calldataload\n        /* \"#utility.yul\":3242:3273   */\n      tag_633\n        /* \"#utility.yul\":3213:3233   */\n      dup2\n        /* \"#utility.yul\":3242:3273   */\n      tag_600\n      jump\t// in\n    tag_633:\n        /* \"#utility.yul\":3145:3279   */\n      swap2\n      swap1\n      pop\n      jump\t// out\n        /* \"#utility.yul\":3284:3599   */\n    tag_74:\n        /* \"#utility.yul\":3352:3358   */\n      0x00\n        /* \"#utility.yul\":3360:3366   */\n      dup1\n        /* \"#utility.yul\":3413:3415   */\n      0x40\n        /* \"#utility.yul\":3401:3410   */\n      dup4\n        /* \"#utility.yul\":3392:3399   */\n      dup6\n        /* \"#utility.yul\":3388:3411   */\n      sub\n        /* \"#utility.yul\":3384:3416   */\n      slt\n        /* \"#utility.yul\":3381:3433   */\n      iszero\n      tag_635\n      jumpi\n        /* \"#utility.yul\":3429:3430   */\n      0x00\n        /* \"#utility.yul\":3426:3427   */\n      dup1\n        /* \"#utility.yul\":3419:3431   */\n      revert\n        /* \"#utility.yul\":3381:3433   */\n    tag_635:\n        /* \"#utility.yul\":3465:3474   */\n      dup3\n        /* \"#utility.yul\":3452:3475   */\n      calldataload\n        /* \"#utility.yul\":3442:3475   */\n      swap2\n      pop\n        /* \"#utility.yul\":3525:3527   */\n      0x20\n        /* \"#utility.yul\":3514:3523   */\n      dup4\n        /* \"#utility.yul\":3510:3528   */\n      add\n        /* \"#utility.yul\":3497:3529   */\n      calldataload\n        /* \"#utility.yul\":3538:3569   */\n      tag_636\n        /* \"#utility.yul\":3563:3568   */\n      dup2\n        /* \"#utility.yul\":3538:3569   */\n      tag_600\n      jump\t// in\n    tag_636:\n        /* \"#utility.yul\":3588:3593   */\n      dup1\n        /* \"#utility.yul\":3578:3593   */\n      swap2\n      pop\n      pop\n        /* \"#utility.yul\":3284:3599   */\n      swap3\n      pop\n      swap3\n      swap1\n      pop\n      jump\t// out\n        /* \"#utility.yul\":3796:4428   */\n    tag_114:\n        /* \"#utility.yul\":3967:3969   */\n      0x20\n        /* \"#utility.yul\":4019:4040   */\n      dup1\n      dup3\n      mstore\n        /* \"#utility.yul\":4089:4102   */\n      dup3\n      mload\n        /* \"#utility.yul\":3992:4010   */\n      dup3\n      dup3\n      add\n        /* \"#utility.yul\":4111:4133   */\n      dup2\n      swap1\n      mstore\n        /* \"#utility.yul\":3938:3942   */\n      0x00\n      swap2\n        /* \"#utility.yul\":3967:3969   */\n      swap1\n        /* \"#utility.yul\":4190:4205   */\n      dup5\n      dup3\n      add\n      swap1\n        /* \"#utility.yul\":4164:4166   */\n      0x40\n        /* \"#utility.yul\":4149:4167   */\n      dup6\n      add\n      swap1\n        /* \"#utility.yul\":3938:3942   */\n      dup5\n        /* \"#utility.yul\":4233:4402   */\n    tag_639:\n        /* \"#utility.yul\":4247:4253   */\n      dup2\n        /* \"#utility.yul\":4244:4245   */\n      dup2\n        /* \"#utility.yul\":4241:4254   */\n      lt\n        /* \"#utility.yul\":4233:4402   */\n      iszero\n      tag_616\n      jumpi\n        /* \"#utility.yul\":4308:4321   */\n      dup4\n      mload\n        /* \"#utility.yul\":4296:4322   */\n      dup4\n      mstore\n        /* \"#utility.yul\":4377:4392   */\n      swap3\n      dup5\n      add\n      swap3\n        /* \"#utility.yul\":4342:4354   */\n      swap2\n      dup5\n      add\n      swap2\n        /* \"#utility.yul\":4269:4270   */\n      0x01\n        /* \"#utility.yul\":4262:4271   */\n      add\n        /* \"#utility.yul\":4233:4402   */\n      jump(tag_639)\n        /* \"#utility.yul\":4433:4560   */\n    tag_602:\n        /* \"#utility.yul\":4494:4504   */\n      0x4e487b71\n        /* \"#utility.yul\":4489:4492   */\n      0xe0\n        /* \"#utility.yul\":4485:4505   */\n      shl\n        /* \"#utility.yul\":4482:4483   */\n      0x00\n        /* \"#utility.yul\":4475:4506   */\n      mstore\n        /* \"#utility.yul\":4525:4529   */\n      0x41\n        /* \"#utility.yul\":4522:4523   */\n      0x04\n        /* \"#utility.yul\":4515:4530   */\n      mstore\n        /* \"#utility.yul\":4549:4553   */\n      0x24\n        /* \"#utility.yul\":4546:4547   */\n      0x00\n        /* \"#utility.yul\":4539:4554   */\n      revert\n        /* \"#utility.yul\":4565:4840   */\n    tag_603:\n        /* \"#utility.yul\":4636:4638   */\n      0x40\n        /* \"#utility.yul\":4630:4639   */\n      mload\n        /* \"#utility.yul\":4701:4703   */\n      0x1f\n        /* \"#utility.yul\":4682:4695   */\n      dup3\n      add\n      not(0x1f)\n        /* \"#utility.yul\":4678:4705   */\n      and\n        /* \"#utility.yul\":4666:4706   */\n      dup2\n      add\n        /* \"#utility.yul\":4736:4754   */\n      0xffffffffffffffff\n        /* \"#utility.yul\":4721:4755   */\n      dup2\n      gt\n        /* \"#utility.yul\":4757:4779   */\n      dup3\n      dup3\n      lt\n        /* \"#utility.yul\":4718:4780   */\n      or\n        /* \"#utility.yul\":4715:4803   */\n      iszero\n      tag_645\n      jumpi\n        /* \"#utility.yul\":4783:4801   */\n      tag_645\n      tag_602\n      jump\t// in\n    tag_645:\n        /* \"#utility.yul\":4819:4821   */\n      0x40\n        /* \"#utility.yul\":4812:4834   */\n      mstore\n        /* \"#utility.yul\":4565:4840   */\n      swap2\n      swap1\n      pop\n      jump\t// out\n        /* \"#utility.yul\":4845:5028   */\n    tag_604:\n        /* \"#utility.yul\":4905:4909   */\n      0x00\n        /* \"#utility.yul\":4938:4956   */\n      0xffffffffffffffff\n        /* \"#utility.yul\":4930:4936   */\n      dup3\n        /* \"#utility.yul\":4927:4957   */\n      gt\n        /* \"#utility.yul\":4924:4980   */\n      iszero\n      tag_648\n      jumpi\n        /* \"#utility.yul\":4960:4978   */\n      tag_648\n      tag_602\n      jump\t// in\n    tag_648:\n      pop\n        /* \"#utility.yul\":5005:5006   */\n      0x05\n        /* \"#utility.yul\":5001:5015   */\n      shl\n        /* \"#utility.yul\":5017:5021   */\n      0x20\n        /* \"#utility.yul\":4997:5022   */\n      add\n      swap1\n        /* \"#utility.yul\":4845:5028   */\n      jump\t// out\n        /* \"#utility.yul\":5033:5770   */\n    tag_605:\n        /* \"#utility.yul\":5087:5092   */\n      0x00\n        /* \"#utility.yul\":5140:5143   */\n      dup3\n        /* \"#utility.yul\":5133:5137   */\n      0x1f\n        /* \"#utility.yul\":5125:5131   */\n      dup4\n        /* \"#utility.yul\":5121:5138   */\n      add\n        /* \"#utility.yul\":5117:5144   */\n      slt\n        /* \"#utility.yul\":5107:5162   */\n      tag_650\n      jumpi\n        /* \"#utility.yul\":5158:5159   */\n      0x00\n        /* \"#utility.yul\":5155:5156   */\n      dup1\n        /* \"#utility.yul\":5148:5160   */\n      revert\n        /* \"#utility.yul\":5107:5162   */\n    tag_650:\n        /* \"#utility.yul\":5194:5200   */\n      dup2\n        /* \"#utility.yul\":5181:5201   */\n      calldataload\n        /* \"#utility.yul\":5220:5224   */\n      0x20\n        /* \"#utility.yul\":5244:5304   */\n      tag_651\n        /* \"#utility.yul\":5260:5303   */\n      tag_652\n        /* \"#utility.yul\":5300:5302   */\n      dup4\n        /* \"#utility.yul\":5260:5303   */\n      tag_604\n      jump\t// in\n    tag_652:\n        /* \"#utility.yul\":5244:5304   */\n      tag_603\n      jump\t// in\n    tag_651:\n        /* \"#utility.yul\":5338:5353   */\n      dup3\n      dup2\n      mstore\n        /* \"#utility.yul\":5424:5425   */\n      0x05\n        /* \"#utility.yul\":5420:5430   */\n      swap3\n      swap1\n      swap3\n      shl\n        /* \"#utility.yul\":5408:5431   */\n      dup5\n      add\n        /* \"#utility.yul\":5404:5436   */\n      dup2\n      add\n      swap2\n        /* \"#utility.yul\":5369:5381   */\n      dup2\n      dup2\n      add\n      swap1\n        /* \"#utility.yul\":5448:5463   */\n      dup7\n      dup5\n      gt\n        /* \"#utility.yul\":5445:5480   */\n      iszero\n      tag_653\n      jumpi\n        /* \"#utility.yul\":5476:5477   */\n      0x00\n        /* \"#utility.yul\":5473:5474   */\n      dup1\n        /* \"#utility.yul\":5466:5478   */\n      revert\n        /* \"#utility.yul\":5445:5480   */\n    tag_653:\n        /* \"#utility.yul\":5512:5514   */\n      dup3\n        /* \"#utility.yul\":5504:5510   */\n      dup7\n        /* \"#utility.yul\":5500:5515   */\n      add\n        /* \"#utility.yul\":5524:5741   */\n    tag_654:\n        /* \"#utility.yul\":5540:5546   */\n      dup5\n        /* \"#utility.yul\":5535:5538   */\n      dup2\n        /* \"#utility.yul\":5532:5547   */\n      lt\n        /* \"#utility.yul\":5524:5741   */\n      iszero\n      tag_656\n      jumpi\n        /* \"#utility.yul\":5620:5623   */\n      dup1\n        /* \"#utility.yul\":5607:5624   */\n      calldataload\n        /* \"#utility.yul\":5637:5668   */\n      tag_657\n        /* \"#utility.yul\":5662:5667   */\n      dup2\n        /* \"#utility.yul\":5637:5668   */\n      tag_600\n      jump\t// in\n    tag_657:\n        /* \"#utility.yul\":5681:5699   */\n      dup4\n      mstore\n        /* \"#utility.yul\":5719:5731   */\n      swap2\n      dup4\n      add\n      swap2\n        /* \"#utility.yul\":5557:5569   */\n      dup4\n      add\n        /* \"#utility.yul\":5524:5741   */\n      jump(tag_654)\n    tag_656:\n      pop\n        /* \"#utility.yul\":5759:5764   */\n      swap7\n        /* \"#utility.yul\":5033:5770   */\n      swap6\n      pop\n      pop\n      pop\n      pop\n      pop\n      pop\n      jump\t// out\n        /* \"#utility.yul\":5775:6437   */\n    tag_606:\n        /* \"#utility.yul\":5829:5834   */\n      0x00\n        /* \"#utility.yul\":5882:5885   */\n      dup3\n        /* \"#utility.yul\":5875:5879   */\n      0x1f\n        /* \"#utility.yul\":5867:5873   */\n      dup4\n        /* \"#utility.yul\":5863:5880   */\n      add\n        /* \"#utility.yul\":5859:5886   */\n      slt\n        /* \"#utility.yul\":5849:5904   */\n      tag_659\n      jumpi\n        /* \"#utility.yul\":5900:5901   */\n      0x00\n        /* \"#utility.yul\":5897:5898   */\n      dup1\n        /* \"#utility.yul\":5890:5902   */\n      revert\n        /* \"#utility.yul\":5849:5904   */\n    tag_659:\n        /* \"#utility.yul\":5936:5942   */\n      dup2\n        /* \"#utility.yul\":5923:5943   */\n      calldataload\n        /* \"#utility.yul\":5962:5966   */\n      0x20\n        /* \"#utility.yul\":5986:6046   */\n      tag_660\n        /* \"#utility.yul\":6002:6045   */\n      tag_652\n        /* \"#utility.yul\":6042:6044   */\n      dup4\n        /* \"#utility.yul\":6002:6045   */\n      tag_604\n      jump\t// in\n        /* \"#utility.yul\":5986:6046   */\n    tag_660:\n        /* \"#utility.yul\":6080:6095   */\n      dup3\n      dup2\n      mstore\n        /* \"#utility.yul\":6166:6167   */\n      0x05\n        /* \"#utility.yul\":6162:6172   */\n      swap3\n      swap1\n      swap3\n      shl\n        /* \"#utility.yul\":6150:6173   */\n      dup5\n      add\n        /* \"#utility.yul\":6146:6178   */\n      dup2\n      add\n      swap2\n        /* \"#utility.yul\":6111:6123   */\n      dup2\n      dup2\n      add\n      swap1\n        /* \"#utility.yul\":6190:6205   */\n      dup7\n      dup5\n      gt\n        /* \"#utility.yul\":6187:6222   */\n      iszero\n      tag_662\n      jumpi\n        /* \"#utility.yul\":6218:6219   */\n      0x00\n        /* \"#utility.yul\":6215:6216   */\n      dup1\n        /* \"#utility.yul\":6208:6220   */\n      revert\n        /* \"#utility.yul\":6187:6222   */\n    tag_662:\n        /* \"#utility.yul\":6254:6256   */\n      dup3\n        /* \"#utility.yul\":6246:6252   */\n      dup7\n        /* \"#utility.yul\":6242:6257   */\n      add\n        /* \"#utility.yul\":6266:6408   */\n    tag_663:\n        /* \"#utility.yul\":6282:6288   */\n      dup5\n        /* \"#utility.yul\":6277:6280   */\n      dup2\n        /* \"#utility.yul\":6274:6289   */\n      lt\n        /* \"#utility.yul\":6266:6408   */\n      iszero\n      tag_656\n      jumpi\n        /* \"#utility.yul\":6348:6365   */\n      dup1\n      calldataload\n        /* \"#utility.yul\":6336:6366   */\n      dup4\n      mstore\n        /* \"#utility.yul\":6386:6398   */\n      swap2\n      dup4\n      add\n      swap2\n        /* \"#utility.yul\":6299:6311   */\n      dup4\n      add\n        /* \"#utility.yul\":6266:6408   */\n      jump(tag_663)\n        /* \"#utility.yul\":6442:6973   */\n    tag_607:\n        /* \"#utility.yul\":6485:6490   */\n      0x00\n        /* \"#utility.yul\":6538:6541   */\n      dup3\n        /* \"#utility.yul\":6531:6535   */\n      0x1f\n        /* \"#utility.yul\":6523:6529   */\n      dup4\n        /* \"#utility.yul\":6519:6536   */\n      add\n        /* \"#utility.yul\":6515:6542   */\n      slt\n        /* \"#utility.yul\":6505:6560   */\n      tag_667\n      jumpi\n        /* \"#utility.yul\":6556:6557   */\n      0x00\n        /* \"#utility.yul\":6553:6554   */\n      dup1\n        /* \"#utility.yul\":6546:6558   */\n      revert\n        /* \"#utility.yul\":6505:6560   */\n    tag_667:\n        /* \"#utility.yul\":6592:6598   */\n      dup2\n        /* \"#utility.yul\":6579:6599   */\n      calldataload\n        /* \"#utility.yul\":6618:6636   */\n      0xffffffffffffffff\n        /* \"#utility.yul\":6614:6616   */\n      dup2\n        /* \"#utility.yul\":6611:6637   */\n      gt\n        /* \"#utility.yul\":6608:6660   */\n      iszero\n      tag_669\n      jumpi\n        /* \"#utility.yul\":6640:6658   */\n      tag_669\n      tag_602\n      jump\t// in\n    tag_669:\n        /* \"#utility.yul\":6684:6739   */\n      tag_670\n        /* \"#utility.yul\":6727:6729   */\n      0x1f\n        /* \"#utility.yul\":6708:6721   */\n      dup3\n      add\n      not(0x1f)\n        /* \"#utility.yul\":6704:6731   */\n      and\n        /* \"#utility.yul\":6733:6737   */\n      0x20\n        /* \"#utility.yul\":6700:6738   */\n      add\n        /* \"#utility.yul\":6684:6739   */\n      tag_603\n      jump\t// in\n    tag_670:\n        /* \"#utility.yul\":6764:6766   */\n      dup2\n        /* \"#utility.yul\":6755:6762   */\n      dup2\n        /* \"#utility.yul\":6748:6767   */\n      mstore\n        /* \"#utility.yul\":6810:6813   */\n      dup5\n        /* \"#utility.yul\":6803:6807   */\n      0x20\n        /* \"#utility.yul\":6798:6800   */\n      dup4\n        /* \"#utility.yul\":6790:6796   */\n      dup7\n        /* \"#utility.yul\":6786:6801   */\n      add\n        /* \"#utility.yul\":6782:6808   */\n      add\n        /* \"#utility.yul\":6779:6814   */\n      gt\n        /* \"#utility.yul\":6776:6831   */\n      iszero\n      tag_671\n      jumpi\n        /* \"#utility.yul\":6827:6828   */\n      0x00\n        /* \"#utility.yul\":6824:6825   */\n      dup1\n        /* \"#utility.yul\":6817:6829   */\n      revert\n        /* \"#utility.yul\":6776:6831   */\n    tag_671:\n        /* \"#utility.yul\":6892:6894   */\n      dup2\n        /* \"#utility.yul\":6885:6889   */\n      0x20\n        /* \"#utility.yul\":6877:6883   */\n      dup6\n        /* \"#utility.yul\":6873:6890   */\n      add\n        /* \"#utility.yul\":6866:6870   */\n      0x20\n        /* \"#utility.yul\":6857:6864   */\n      dup4\n        /* \"#utility.yul\":6853:6871   */\n      add\n        /* \"#utility.yul\":6840:6895   */\n      calldatacopy\n        /* \"#utility.yul\":6940:6941   */\n      0x00\n        /* \"#utility.yul\":6915:6931   */\n      swap2\n      dup2\n      add\n        /* \"#utility.yul\":6933:6937   */\n      0x20\n        /* \"#utility.yul\":6911:6938   */\n      add\n        /* \"#utility.yul\":6904:6942   */\n      swap2\n      swap1\n      swap2\n      mstore\n        /* \"#utility.yul\":6919:6926   */\n      swap4\n        /* \"#utility.yul\":6442:6973   */\n      swap3\n      pop\n      pop\n      pop\n      jump\t// out\n        /* \"#utility.yul\":6978:8199   */\n    tag_121:\n        /* \"#utility.yul\":7169:7175   */\n      0x00\n        /* \"#utility.yul\":7177:7183   */\n      dup1\n        /* \"#utility.yul\":7185:7191   */\n      0x00\n        /* \"#utility.yul\":7193:7199   */\n      dup1\n        /* \"#utility.yul\":7201:7207   */\n      0x00\n        /* \"#utility.yul\":7209:7215   */\n      dup1\n        /* \"#utility.yul\":7217:7223   */\n      0x00\n        /* \"#utility.yul\":7225:7231   */\n      dup1\n        /* \"#utility.yul\":7233:7239   */\n      0x00\n        /* \"#utility.yul\":7286:7289   */\n      0x0120\n        /* \"#utility.yul\":7274:7283   */\n      dup11\n        /* \"#utility.yul\":7265:7272   */\n      dup13\n        /* \"#utility.yul\":7261:7284   */\n      sub\n        /* \"#utility.yul\":7257:7290   */\n      slt\n        /* \"#utility.yul\":7254:7307   */\n      iszero\n      tag_673\n      jumpi\n        /* \"#utility.yul\":7303:7304   */\n      0x00\n        /* \"#utility.yul\":7300:7301   */\n      dup1\n        /* \"#utility.yul\":7293:7305   */\n      revert\n        /* \"#utility.yul\":7254:7307   */\n    tag_673:\n        /* \"#utility.yul\":7326:7355   */\n      tag_674\n        /* \"#utility.yul\":7345:7354   */\n      dup11\n        /* \"#utility.yul\":7326:7355   */\n      tag_601\n      jump\t// in\n    tag_674:\n        /* \"#utility.yul\":7316:7355   */\n      swap9\n      pop\n        /* \"#utility.yul\":7374:7412   */\n      tag_675\n        /* \"#utility.yul\":7408:7410   */\n      0x20\n        /* \"#utility.yul\":7397:7406   */\n      dup12\n        /* \"#utility.yul\":7393:7411   */\n      add\n        /* \"#utility.yul\":7374:7412   */\n      tag_601\n      jump\t// in\n    tag_675:\n        /* \"#utility.yul\":7364:7412   */\n      swap8\n      pop\n        /* \"#utility.yul\":7459:7461   */\n      0x40\n        /* \"#utility.yul\":7448:7457   */\n      dup11\n        /* \"#utility.yul\":7444:7462   */\n      add\n        /* \"#utility.yul\":7431:7463   */\n      calldataload\n        /* \"#utility.yul\":7421:7463   */\n      swap7\n      pop\n        /* \"#utility.yul\":7510:7512   */\n      0x60\n        /* \"#utility.yul\":7499:7508   */\n      dup11\n        /* \"#utility.yul\":7495:7513   */\n      add\n        /* \"#utility.yul\":7482:7514   */\n      calldataload\n        /* \"#utility.yul\":7472:7514   */\n      swap6\n      pop\n        /* \"#utility.yul\":7561:7564   */\n      0x80\n        /* \"#utility.yul\":7550:7559   */\n      dup11\n        /* \"#utility.yul\":7546:7565   */\n      add\n        /* \"#utility.yul\":7533:7566   */\n      calldataload\n        /* \"#utility.yul\":7523:7566   */\n      swap5\n      pop\n        /* \"#utility.yul\":7617:7620   */\n      0xa0\n        /* \"#utility.yul\":7606:7615   */\n      dup11\n        /* \"#utility.yul\":7602:7621   */\n      add\n        /* \"#utility.yul\":7589:7622   */\n      calldataload\n        /* \"#utility.yul\":7641:7659   */\n      0xffffffffffffffff\n        /* \"#utility.yul\":7682:7684   */\n      dup1\n        /* \"#utility.yul\":7674:7680   */\n      dup3\n        /* \"#utility.yul\":7671:7685   */\n      gt\n        /* \"#utility.yul\":7668:7702   */\n      iszero\n      tag_676\n      jumpi\n        /* \"#utility.yul\":7698:7699   */\n      0x00\n        /* \"#utility.yul\":7695:7696   */\n      dup1\n        /* \"#utility.yul\":7688:7700   */\n      revert\n        /* \"#utility.yul\":7668:7702   */\n    tag_676:\n        /* \"#utility.yul\":7721:7782   */\n      tag_677\n        /* \"#utility.yul\":7774:7781   */\n      dup14\n        /* \"#utility.yul\":7765:7771   */\n      dup4\n        /* \"#utility.yul\":7754:7763   */\n      dup15\n        /* \"#utility.yul\":7750:7772   */\n      add\n        /* \"#utility.yul\":7721:7782   */\n      tag_605\n      jump\t// in\n    tag_677:\n        /* \"#utility.yul\":7711:7782   */\n      swap6\n      pop\n        /* \"#utility.yul\":7835:7838   */\n      0xc0\n        /* \"#utility.yul\":7824:7833   */\n      dup13\n        /* \"#utility.yul\":7820:7839   */\n      add\n        /* \"#utility.yul\":7807:7840   */\n      calldataload\n        /* \"#utility.yul\":7791:7840   */\n      swap2\n      pop\n        /* \"#utility.yul\":7865:7867   */\n      dup1\n        /* \"#utility.yul\":7855:7863   */\n      dup3\n        /* \"#utility.yul\":7852:7868   */\n      gt\n        /* \"#utility.yul\":7849:7885   */\n      iszero\n      tag_678\n      jumpi\n        /* \"#utility.yul\":7881:7882   */\n      0x00\n        /* \"#utility.yul\":7878:7879   */\n      dup1\n        /* \"#utility.yul\":7871:7883   */\n      revert\n        /* \"#utility.yul\":7849:7885   */\n    tag_678:\n        /* \"#utility.yul\":7904:7967   */\n      tag_679\n        /* \"#utility.yul\":7959:7966   */\n      dup14\n        /* \"#utility.yul\":7948:7956   */\n      dup4\n        /* \"#utility.yul\":7937:7946   */\n      dup15\n        /* \"#utility.yul\":7933:7957   */\n      add\n        /* \"#utility.yul\":7904:7967   */\n      tag_606\n      jump\t// in\n    tag_679:\n        /* \"#utility.yul\":7894:7967   */\n      swap5\n      pop\n        /* \"#utility.yul\":8020:8023   */\n      0xe0\n        /* \"#utility.yul\":8009:8018   */\n      dup13\n        /* \"#utility.yul\":8005:8024   */\n      add\n        /* \"#utility.yul\":7992:8025   */\n      calldataload\n        /* \"#utility.yul\":7976:8025   */\n      swap2\n      pop\n        /* \"#utility.yul\":8050:8052   */\n      dup1\n        /* \"#utility.yul\":8040:8048   */\n      dup3\n        /* \"#utility.yul\":8037:8053   */\n      gt\n        /* \"#utility.yul\":8034:8070   */\n      iszero\n      tag_680\n      jumpi\n        /* \"#utility.yul\":8066:8067   */\n      0x00\n        /* \"#utility.yul\":8063:8064   */\n      dup1\n        /* \"#utility.yul\":8056:8068   */\n      revert\n        /* \"#utility.yul\":8034:8070   */\n    tag_680:\n      pop\n        /* \"#utility.yul\":8089:8141   */\n      tag_681\n        /* \"#utility.yul\":8133:8140   */\n      dup13\n        /* \"#utility.yul\":8122:8130   */\n      dup3\n        /* \"#utility.yul\":8111:8120   */\n      dup14\n        /* \"#utility.yul\":8107:8131   */\n      add\n        /* \"#utility.yul\":8089:8141   */\n      tag_607\n      jump\t// in\n    tag_681:\n        /* \"#utility.yul\":8079:8141   */\n      swap3\n      pop\n      pop\n        /* \"#utility.yul\":8188:8191   */\n      0x0100\n        /* \"#utility.yul\":8177:8186   */\n      dup11\n        /* \"#utility.yul\":8173:8192   */\n      add\n        /* \"#utility.yul\":8160:8193   */\n      calldataload\n        /* \"#utility.yul\":8150:8193   */\n      swap1\n      pop\n        /* \"#utility.yul\":6978:8199   */\n      swap3\n      swap6\n      swap9\n      pop\n      swap3\n      swap6\n      swap9\n      pop\n      swap3\n      swap6\n      swap9\n      jump\t// out\n        /* \"#utility.yul\":8204:8552   */\n    tag_126:\n        /* \"#utility.yul\":8288:8294   */\n      0x00\n        /* \"#utility.yul\":8341:8343   */\n      0x20\n        /* \"#utility.yul\":8329:8338   */\n      dup3\n        /* \"#utility.yul\":8320:8327   */\n      dup5\n        /* \"#utility.yul\":8316:8339   */\n      sub\n        /* \"#utility.yul\":8312:8344   */\n      slt\n        /* \"#utility.yul\":8309:8361   */\n      iszero\n      tag_683\n      jumpi\n        /* \"#utility.yul\":8357:8358   */\n      0x00\n        /* \"#utility.yul\":8354:8355   */\n      dup1\n        /* \"#utility.yul\":8347:8359   */\n      revert\n        /* \"#utility.yul\":8309:8361   */\n    tag_683:\n        /* \"#utility.yul\":8397:8406   */\n      dup2\n        /* \"#utility.yul\":8384:8407   */\n      calldataload\n        /* \"#utility.yul\":8430:8448   */\n      0xffffffffffffffff\n        /* \"#utility.yul\":8422:8428   */\n      dup2\n        /* \"#utility.yul\":8419:8449   */\n      gt\n        /* \"#utility.yul\":8416:8466   */\n      iszero\n      tag_684\n      jumpi\n        /* \"#utility.yul\":8462:8463   */\n      0x00\n        /* \"#utility.yul\":8459:8460   */\n      dup1\n        /* \"#utility.yul\":8452:8464   */\n      revert\n        /* \"#utility.yul\":8416:8466   */\n    tag_684:\n        /* \"#utility.yul\":8485:8546   */\n      tag_563\n        /* \"#utility.yul\":8538:8545   */\n      dup5\n        /* \"#utility.yul\":8529:8535   */\n      dup3\n        /* \"#utility.yul\":8518:8527   */\n      dup6\n        /* \"#utility.yul\":8514:8536   */\n      add\n        /* \"#utility.yul\":8485:8546   */\n      tag_606\n      jump\t// in\n        /* \"#utility.yul\":8557:8777   */\n    tag_132:\n        /* \"#utility.yul\":8706:8708   */\n      0x20\n        /* \"#utility.yul\":8695:8704   */\n      dup2\n        /* \"#utility.yul\":8688:8709   */\n      mstore\n        /* \"#utility.yul\":8669:8673   */\n      0x00\n        /* \"#utility.yul\":8726:8771   */\n      tag_515\n        /* \"#utility.yul\":8767:8769   */\n      0x20\n        /* \"#utility.yul\":8756:8765   */\n      dup4\n        /* \"#utility.yul\":8752:8770   */\n      add\n        /* \"#utility.yul\":8744:8750   */\n      dup5\n        /* \"#utility.yul\":8726:8771   */\n      tag_599\n      jump\t// in\n        /* \"#utility.yul\":8782:9130   */\n    tag_136:\n        /* \"#utility.yul\":8866:8872   */\n      0x00\n        /* \"#utility.yul\":8919:8921   */\n      0x20\n        /* \"#utility.yul\":8907:8916   */\n      dup3\n        /* \"#utility.yul\":8898:8905   */\n      dup5\n        /* \"#utility.yul\":8894:8917   */\n      sub\n        /* \"#utility.yul\":8890:8922   */\n      slt\n        /* \"#utility.yul\":8887:8939   */\n      iszero\n      tag_689\n      jumpi\n        /* \"#utility.yul\":8935:8936   */\n      0x00\n        /* \"#utility.yul\":8932:8933   */\n      dup1\n        /* \"#utility.yul\":8925:8937   */\n      revert\n        /* \"#utility.yul\":8887:8939   */\n    tag_689:\n        /* \"#utility.yul\":8975:8984   */\n      dup2\n        /* \"#utility.yul\":8962:8985   */\n      calldataload\n        /* \"#utility.yul\":9008:9026   */\n      0xffffffffffffffff\n        /* \"#utility.yul\":9000:9006   */\n      dup2\n        /* \"#utility.yul\":8997:9027   */\n      gt\n        /* \"#utility.yul\":8994:9044   */\n      iszero\n      tag_690\n      jumpi\n        /* \"#utility.yul\":9040:9041   */\n      0x00\n        /* \"#utility.yul\":9037:9038   */\n      dup1\n        /* \"#utility.yul\":9030:9042   */\n      revert\n        /* \"#utility.yul\":8994:9044   */\n    tag_690:\n        /* \"#utility.yul\":9063:9124   */\n      tag_563\n        /* \"#utility.yul\":9116:9123   */\n      dup5\n        /* \"#utility.yul\":9107:9113   */\n      dup3\n        /* \"#utility.yul\":9096:9105   */\n      dup6\n        /* \"#utility.yul\":9092:9114   */\n      add\n        /* \"#utility.yul\":9063:9124   */\n      tag_605\n      jump\t// in\n        /* \"#utility.yul\":9135:9382   */\n    tag_146:\n        /* \"#utility.yul\":9194:9200   */\n      0x00\n        /* \"#utility.yul\":9247:9249   */\n      0x20\n        /* \"#utility.yul\":9235:9244   */\n      dup3\n        /* \"#utility.yul\":9226:9233   */\n      dup5\n        /* \"#utility.yul\":9222:9245   */\n      sub\n        /* \"#utility.yul\":9218:9250   */\n      slt\n        /* \"#utility.yul\":9215:9267   */\n      iszero\n      tag_693\n      jumpi\n        /* \"#utility.yul\":9263:9264   */\n      0x00\n        /* \"#utility.yul\":9260:9261   */\n      dup1\n        /* \"#utility.yul\":9253:9265   */\n      revert\n        /* \"#utility.yul\":9215:9267   */\n    tag_693:\n        /* \"#utility.yul\":9302:9311   */\n      dup2\n        /* \"#utility.yul\":9289:9312   */\n      calldataload\n        /* \"#utility.yul\":9321:9352   */\n      tag_302\n        /* \"#utility.yul\":9346:9351   */\n      dup2\n        /* \"#utility.yul\":9321:9352   */\n      tag_600\n      jump\t// in\n        /* \"#utility.yul\":9387:9767   */\n    tag_188:\n        /* \"#utility.yul\":9466:9467   */\n      0x01\n        /* \"#utility.yul\":9462:9474   */\n      dup2\n      dup2\n      shr\n      swap1\n        /* \"#utility.yul\":9509:9521   */\n      dup3\n      and\n      dup1\n        /* \"#utility.yul\":9530:9591   */\n      tag_696\n      jumpi\n        /* \"#utility.yul\":9584:9588   */\n      0x7f\n        /* \"#utility.yul\":9576:9582   */\n      dup3\n        /* \"#utility.yul\":9572:9589   */\n      and\n        /* \"#utility.yul\":9562:9589   */\n      swap2\n      pop\n        /* \"#utility.yul\":9530:9591   */\n    tag_696:\n        /* \"#utility.yul\":9637:9639   */\n      0x20\n        /* \"#utility.yul\":9629:9635   */\n      dup3\n        /* \"#utility.yul\":9626:9640   */\n      lt\n        /* \"#utility.yul\":9606:9624   */\n      dup2\n        /* \"#utility.yul\":9603:9641   */\n      sub\n        /* \"#utility.yul\":9600:9761   */\n      tag_697\n      jumpi\n        /* \"#utility.yul\":9683:9693   */\n      0x4e487b71\n        /* \"#utility.yul\":9678:9681   */\n      0xe0\n        /* \"#utility.yul\":9674:9694   */\n      shl\n        /* \"#utility.yul\":9671:9672   */\n      0x00\n        /* \"#utility.yul\":9664:9695   */\n      mstore\n        /* \"#utility.yul\":9718:9722   */\n      0x22\n        /* \"#utility.yul\":9715:9716   */\n      0x04\n        /* \"#utility.yul\":9708:9723   */\n      mstore\n        /* \"#utility.yul\":9746:9750   */\n      0x24\n        /* \"#utility.yul\":9743:9744   */\n      0x00\n        /* \"#utility.yul\":9736:9751   */\n      revert\n        /* \"#utility.yul\":9600:9761   */\n    tag_697:\n      pop\n        /* \"#utility.yul\":9387:9767   */\n      swap2\n      swap1\n      pop\n      jump\t// out\n        /* \"#utility.yul\":9772:10181   */\n    tag_198:\n        /* \"#utility.yul\":9974:9976   */\n      0x20\n        /* \"#utility.yul\":9956:9977   */\n      dup1\n      dup3\n      mstore\n        /* \"#utility.yul\":10013:10015   */\n      0x2d\n        /* \"#utility.yul\":9993:10011   */\n      swap1\n      dup3\n      add\n        /* \"#utility.yul\":9986:10016   */\n      mstore\n        /* \"#utility.yul\":10052:10086   */\n      0x466972654c6f636b3a2054686520636f6e74726163742068617320616c726561\n        /* \"#utility.yul\":10047:10049   */\n      0x40\n        /* \"#utility.yul\":10032:10050   */\n      dup3\n      add\n        /* \"#utility.yul\":10025:10087   */\n      mstore\n      shl(0x9a, 0x191e481d195c9b5a5b985d1959)\n        /* \"#utility.yul\":10118:10120   */\n      0x60\n        /* \"#utility.yul\":10103:10121   */\n      dup3\n      add\n        /* \"#utility.yul\":10096:10139   */\n      mstore\n        /* \"#utility.yul\":10171:10174   */\n      0x80\n        /* \"#utility.yul\":10156:10175   */\n      add\n      swap1\n        /* \"#utility.yul\":9772:10181   */\n      jump\t// out\n        /* \"#utility.yul\":11665:11792   */\n    tag_217:\n        /* \"#utility.yul\":11726:11736   */\n      0x4e487b71\n        /* \"#utility.yul\":11721:11724   */\n      0xe0\n        /* \"#utility.yul\":11717:11737   */\n      shl\n        /* \"#utility.yul\":11714:11715   */\n      0x00\n        /* \"#utility.yul\":11707:11738   */\n      mstore\n        /* \"#utility.yul\":11757:11761   */\n      0x32\n        /* \"#utility.yul\":11754:11755   */\n      0x04\n        /* \"#utility.yul\":11747:11762   */\n      mstore\n        /* \"#utility.yul\":11781:11785   */\n      0x24\n        /* \"#utility.yul\":11778:11779   */\n      0x00\n        /* \"#utility.yul\":11771:11786   */\n      revert\n        /* \"#utility.yul\":15164:15348   */\n    tag_321:\n        /* \"#utility.yul\":15234:15240   */\n      0x00\n        /* \"#utility.yul\":15287:15289   */\n      0x20\n        /* \"#utility.yul\":15275:15284   */\n      dup3\n        /* \"#utility.yul\":15266:15273   */\n      dup5\n        /* \"#utility.yul\":15262:15285   */\n      sub\n        /* \"#utility.yul\":15258:15290   */\n      slt\n        /* \"#utility.yul\":15255:15307   */\n      iszero\n      tag_714\n      jumpi\n        /* \"#utility.yul\":15303:15304   */\n      0x00\n        /* \"#utility.yul\":15300:15301   */\n      dup1\n        /* \"#utility.yul\":15293:15305   */\n      revert\n        /* \"#utility.yul\":15255:15307   */\n    tag_714:\n      pop\n        /* \"#utility.yul\":15326:15342   */\n      mload\n      swap2\n        /* \"#utility.yul\":15164:15348   */\n      swap1\n      pop\n      jump\t// out\n        /* \"#utility.yul\":16955:17082   */\n    tag_608:\n        /* \"#utility.yul\":17016:17026   */\n      0x4e487b71\n        /* \"#utility.yul\":17011:17014   */\n      0xe0\n        /* \"#utility.yul\":17007:17027   */\n      shl\n        /* \"#utility.yul\":17004:17005   */\n      0x00\n        /* \"#utility.yul\":16997:17028   */\n      mstore\n        /* \"#utility.yul\":17047:17051   */\n      0x11\n        /* \"#utility.yul\":17044:17045   */\n      0x04\n        /* \"#utility.yul\":17037:17052   */\n      mstore\n        /* \"#utility.yul\":17071:17075   */\n      0x24\n        /* \"#utility.yul\":17068:17069   */\n      0x00\n        /* \"#utility.yul\":17061:17076   */\n      revert\n        /* \"#utility.yul\":17087:17222   */\n    tag_348:\n        /* \"#utility.yul\":17126:17129   */\n      0x00\n        /* \"#utility.yul\":17147:17164   */\n      0x01\n      dup3\n      add\n        /* \"#utility.yul\":17144:17187   */\n      tag_722\n      jumpi\n        /* \"#utility.yul\":17167:17185   */\n      tag_722\n      tag_608\n      jump\t// in\n    tag_722:\n      pop\n        /* \"#utility.yul\":17214:17215   */\n      0x01\n        /* \"#utility.yul\":17203:17216   */\n      add\n      swap1\n        /* \"#utility.yul\":17087:17222   */\n      jump\t// out\n        /* \"#utility.yul\":19938:20215   */\n    tag_397:\n        /* \"#utility.yul\":20005:20011   */\n      0x00\n        /* \"#utility.yul\":20058:20060   */\n      0x20\n        /* \"#utility.yul\":20046:20055   */\n      dup3\n        /* \"#utility.yul\":20037:20044   */\n      dup5\n        /* \"#utility.yul\":20033:20056   */\n      sub\n        /* \"#utility.yul\":20029:20061   */\n      slt\n        /* \"#utility.yul\":20026:20078   */\n      iszero\n      tag_731\n      jumpi\n        /* \"#utility.yul\":20074:20075   */\n      0x00\n        /* \"#utility.yul\":20071:20072   */\n      dup1\n        /* \"#utility.yul\":20064:20076   */\n      revert\n        /* \"#utility.yul\":20026:20078   */\n    tag_731:\n        /* \"#utility.yul\":20106:20115   */\n      dup2\n        /* \"#utility.yul\":20100:20116   */\n      mload\n        /* \"#utility.yul\":20159:20164   */\n      dup1\n        /* \"#utility.yul\":20152:20165   */\n      iszero\n        /* \"#utility.yul\":20145:20166   */\n      iszero\n        /* \"#utility.yul\":20138:20143   */\n      dup2\n        /* \"#utility.yul\":20135:20167   */\n      eq\n        /* \"#utility.yul\":20125:20185   */\n      tag_302\n      jumpi\n        /* \"#utility.yul\":20181:20182   */\n      0x00\n        /* \"#utility.yul\":20178:20179   */\n      dup1\n        /* \"#utility.yul\":20171:20183   */\n      revert\n        /* \"#utility.yul\":20346:20891   */\n    tag_610:\n        /* \"#utility.yul\":20448:20450   */\n      0x1f\n        /* \"#utility.yul\":20443:20446   */\n      dup3\n        /* \"#utility.yul\":20440:20451   */\n      gt\n        /* \"#utility.yul\":20437:20885   */\n      iszero\n      tag_526\n      jumpi\n        /* \"#utility.yul\":20484:20485   */\n      0x00\n        /* \"#utility.yul\":20509:20514   */\n      dup2\n        /* \"#utility.yul\":20505:20507   */\n      dup2\n        /* \"#utility.yul\":20498:20515   */\n      mstore\n        /* \"#utility.yul\":20554:20558   */\n      0x20\n        /* \"#utility.yul\":20550:20552   */\n      dup2\n        /* \"#utility.yul\":20540:20559   */\n      keccak256\n        /* \"#utility.yul\":20624:20626   */\n      0x1f\n        /* \"#utility.yul\":20612:20622   */\n      dup6\n        /* \"#utility.yul\":20608:20627   */\n      add\n        /* \"#utility.yul\":20605:20606   */\n      0x05\n        /* \"#utility.yul\":20601:20628   */\n      shr\n        /* \"#utility.yul\":20595:20599   */\n      dup2\n        /* \"#utility.yul\":20591:20629   */\n      add\n        /* \"#utility.yul\":20660:20664   */\n      0x20\n        /* \"#utility.yul\":20648:20658   */\n      dup7\n        /* \"#utility.yul\":20645:20665   */\n      lt\n        /* \"#utility.yul\":20642:20689   */\n      iszero\n      tag_736\n      jumpi\n      pop\n        /* \"#utility.yul\":20683:20687   */\n      dup1\n        /* \"#utility.yul\":20642:20689   */\n    tag_736:\n        /* \"#utility.yul\":20738:20740   */\n      0x1f\n        /* \"#utility.yul\":20733:20736   */\n      dup6\n        /* \"#utility.yul\":20729:20741   */\n      add\n        /* \"#utility.yul\":20726:20727   */\n      0x05\n        /* \"#utility.yul\":20722:20742   */\n      shr\n        /* \"#utility.yul\":20716:20720   */\n      dup3\n        /* \"#utility.yul\":20712:20743   */\n      add\n        /* \"#utility.yul\":20702:20743   */\n      swap2\n      pop\n        /* \"#utility.yul\":20793:20875   */\n    tag_737:\n        /* \"#utility.yul\":20811:20813   */\n      dup2\n        /* \"#utility.yul\":20804:20809   */\n      dup2\n        /* \"#utility.yul\":20801:20814   */\n      lt\n        /* \"#utility.yul\":20793:20875   */\n      iszero\n      tag_540\n      jumpi\n        /* \"#utility.yul\":20856:20873   */\n      dup3\n      dup2\n      sstore\n        /* \"#utility.yul\":20837:20838   */\n      0x01\n        /* \"#utility.yul\":20826:20839   */\n      add\n        /* \"#utility.yul\":20793:20875   */\n      jump(tag_737)\n        /* \"#utility.yul\":21067:22419   */\n    tag_399:\n        /* \"#utility.yul\":21193:21196   */\n      dup2\n        /* \"#utility.yul\":21187:21197   */\n      mload\n        /* \"#utility.yul\":21220:21238   */\n      0xffffffffffffffff\n        /* \"#utility.yul\":21212:21218   */\n      dup2\n        /* \"#utility.yul\":21209:21239   */\n      gt\n        /* \"#utility.yul\":21206:21262   */\n      iszero\n      tag_743\n      jumpi\n        /* \"#utility.yul\":21242:21260   */\n      tag_743\n      tag_602\n      jump\t// in\n    tag_743:\n        /* \"#utility.yul\":21271:21368   */\n      tag_744\n        /* \"#utility.yul\":21361:21367   */\n      dup2\n        /* \"#utility.yul\":21321:21359   */\n      tag_745\n        /* \"#utility.yul\":21353:21357   */\n      dup5\n        /* \"#utility.yul\":21347:21358   */\n      sload\n        /* \"#utility.yul\":21321:21359   */\n      tag_188\n      jump\t// in\n    tag_745:\n        /* \"#utility.yul\":21315:21319   */\n      dup5\n        /* \"#utility.yul\":21271:21368   */\n      tag_610\n      jump\t// in\n    tag_744:\n        /* \"#utility.yul\":21423:21427   */\n      0x20\n      dup1\n        /* \"#utility.yul\":21487:21489   */\n      0x1f\n        /* \"#utility.yul\":21476:21490   */\n      dup4\n      gt\n        /* \"#utility.yul\":21504:21505   */\n      0x01\n        /* \"#utility.yul\":21499:22162   */\n      dup2\n      eq\n      tag_747\n      jumpi\n        /* \"#utility.yul\":22206:22207   */\n      0x00\n        /* \"#utility.yul\":22223:22229   */\n      dup5\n        /* \"#utility.yul\":22220:22309   */\n      iszero\n      tag_748\n      jumpi\n      pop\n        /* \"#utility.yul\":22275:22294   */\n      dup6\n      dup4\n      add\n        /* \"#utility.yul\":22269:22295   */\n      mload\n        /* \"#utility.yul\":22220:22309   */\n    tag_748:\n      not(0x00)\n        /* \"#utility.yul\":21024:21025   */\n      0x03\n        /* \"#utility.yul\":21020:21031   */\n      dup7\n      swap1\n      shl\n        /* \"#utility.yul\":21016:21040   */\n      shr\n        /* \"#utility.yul\":21012:21041   */\n      not\n        /* \"#utility.yul\":21002:21042   */\n      and\n        /* \"#utility.yul\":21048:21049   */\n      0x01\n        /* \"#utility.yul\":21044:21055   */\n      dup6\n      swap1\n      shl\n        /* \"#utility.yul\":20999:21056   */\n      or\n        /* \"#utility.yul\":22322:22403   */\n      dup6\n      sstore\n        /* \"#utility.yul\":21469:22413   */\n      jump(tag_540)\n        /* \"#utility.yul\":21499:22162   */\n    tag_747:\n        /* \"#utility.yul\":20293:20294   */\n      0x00\n        /* \"#utility.yul\":20286:20300   */\n      dup6\n      dup2\n      mstore\n        /* \"#utility.yul\":20330:20334   */\n      0x20\n        /* \"#utility.yul\":20317:20335   */\n      dup2\n      keccak256\n      not(0x1f)\n        /* \"#utility.yul\":21535:21555   */\n      dup7\n      and\n      swap2\n        /* \"#utility.yul\":21653:21889   */\n    tag_751:\n        /* \"#utility.yul\":21667:21674   */\n      dup3\n        /* \"#utility.yul\":21664:21665   */\n      dup2\n        /* \"#utility.yul\":21661:21675   */\n      lt\n        /* \"#utility.yul\":21653:21889   */\n      iszero\n      tag_753\n      jumpi\n        /* \"#utility.yul\":21756:21775   */\n      dup9\n      dup7\n      add\n        /* \"#utility.yul\":21750:21776   */\n      mload\n        /* \"#utility.yul\":21735:21777   */\n      dup3\n      sstore\n        /* \"#utility.yul\":21848:21875   */\n      swap5\n      dup5\n      add\n      swap5\n        /* \"#utility.yul\":21816:21817   */\n      0x01\n        /* \"#utility.yul\":21804:21818   */\n      swap1\n      swap2\n      add\n      swap1\n        /* \"#utility.yul\":21683:21702   */\n      dup5\n      add\n        /* \"#utility.yul\":21653:21889   */\n      jump(tag_751)\n    tag_753:\n        /* \"#utility.yul\":21657:21660   */\n      pop\n        /* \"#utility.yul\":21917:21923   */\n      dup6\n        /* \"#utility.yul\":21908:21915   */\n      dup3\n        /* \"#utility.yul\":21905:21924   */\n      lt\n        /* \"#utility.yul\":21902:22103   */\n      iszero\n      tag_754\n      jumpi\n        /* \"#utility.yul\":21978:21997   */\n      dup8\n      dup6\n      add\n        /* \"#utility.yul\":21972:21998   */\n      mload\n      not(0x00)\n        /* \"#utility.yul\":22061:22062   */\n      0x03\n        /* \"#utility.yul\":22057:22071   */\n      dup9\n      swap1\n      shl\n        /* \"#utility.yul\":22073:22076   */\n      0xf8\n        /* \"#utility.yul\":22053:22077   */\n      and\n        /* \"#utility.yul\":22049:22086   */\n      shr\n        /* \"#utility.yul\":22045:22087   */\n      not\n        /* \"#utility.yul\":22030:22088   */\n      and\n        /* \"#utility.yul\":22015:22089   */\n      dup2\n      sstore\n        /* \"#utility.yul\":21902:22103   */\n    tag_754:\n      pop\n      pop\n      pop\n      pop\n      pop\n        /* \"#utility.yul\":22149:22150   */\n      0x01\n        /* \"#utility.yul\":22133:22147   */\n      swap1\n      dup2\n      shl\n        /* \"#utility.yul\":22129:22151   */\n      add\n        /* \"#utility.yul\":22116:22152   */\n      swap1\n      sstore\n      pop\n        /* \"#utility.yul\":21067:22419   */\n      jump\t// out\n        /* \"#utility.yul\":22804:23675   */\n    tag_410:\n      sub(shl(0xa0, 0x01), 0x01)\n        /* \"#utility.yul\":23237:23252   */\n      dup11\n      dup2\n      and\n        /* \"#utility.yul\":23219:23253   */\n      dup3\n      mstore\n        /* \"#utility.yul\":23169:23172   */\n      0x0120\n        /* \"#utility.yul\":23284:23286   */\n      0x20\n        /* \"#utility.yul\":23269:23287   */\n      dup4\n      add\n        /* \"#utility.yul\":23262:23292   */\n      dup2\n      swap1\n      mstore\n        /* \"#utility.yul\":23140:23144   */\n      0x00\n      swap2\n        /* \"#utility.yul\":23309:23354   */\n      tag_757\n        /* \"#utility.yul\":23335:23353   */\n      dup5\n      dup4\n      add\n        /* \"#utility.yul\":23327:23333   */\n      dup14\n        /* \"#utility.yul\":23309:23354   */\n      tag_599\n      jump\t// in\n    tag_757:\n        /* \"#utility.yul\":23301:23354   */\n      swap3\n      pop\n        /* \"#utility.yul\":23390:23396   */\n      dup11\n        /* \"#utility.yul\":23385:23387   */\n      0x40\n        /* \"#utility.yul\":23374:23383   */\n      dup6\n        /* \"#utility.yul\":23370:23388   */\n      add\n        /* \"#utility.yul\":23363:23397   */\n      mstore\n        /* \"#utility.yul\":23433:23439   */\n      dup10\n        /* \"#utility.yul\":23428:23430   */\n      0x60\n        /* \"#utility.yul\":23417:23426   */\n      dup6\n        /* \"#utility.yul\":23413:23431   */\n      add\n        /* \"#utility.yul\":23406:23440   */\n      mstore\n        /* \"#utility.yul\":23477:23483   */\n      dup9\n        /* \"#utility.yul\":23471:23474   */\n      0x80\n        /* \"#utility.yul\":23460:23469   */\n      dup6\n        /* \"#utility.yul\":23456:23475   */\n      add\n        /* \"#utility.yul\":23449:23484   */\n      mstore\n        /* \"#utility.yul\":23521:23527   */\n      dup8\n        /* \"#utility.yul\":23515:23518   */\n      0xa0\n        /* \"#utility.yul\":23504:23513   */\n      dup6\n        /* \"#utility.yul\":23500:23519   */\n      add\n        /* \"#utility.yul\":23493:23528   */\n      mstore\n        /* \"#utility.yul\":23565:23571   */\n      dup7\n        /* \"#utility.yul\":23559:23562   */\n      0xc0\n        /* \"#utility.yul\":23548:23557   */\n      dup6\n        /* \"#utility.yul\":23544:23563   */\n      add\n        /* \"#utility.yul\":23537:23572   */\n      mstore\n        /* \"#utility.yul\":23609:23615   */\n      dup6\n        /* \"#utility.yul\":23603:23606   */\n      0xe0\n        /* \"#utility.yul\":23592:23601   */\n      dup6\n        /* \"#utility.yul\":23588:23607   */\n      add\n        /* \"#utility.yul\":23581:23616   */\n      mstore\n        /* \"#utility.yul\":23665:23667   */\n      dup1\n        /* \"#utility.yul\":23657:23663   */\n      dup6\n        /* \"#utility.yul\":23653:23668   */\n      and\n        /* \"#utility.yul\":23647:23650   */\n      0x0100\n        /* \"#utility.yul\":23636:23645   */\n      dup6\n        /* \"#utility.yul\":23632:23651   */\n      add\n        /* \"#utility.yul\":23625:23669   */\n      mstore\n      pop\n      pop\n        /* \"#utility.yul\":22804:23675   */\n      swap11\n      swap10\n      pop\n      pop\n      pop\n      pop\n      pop\n      pop\n      pop\n      pop\n      pop\n      pop\n      jump\t// out\n        /* \"#utility.yul\":24681:24806   */\n    tag_454:\n        /* \"#utility.yul\":24746:24755   */\n      dup1\n      dup3\n      add\n        /* \"#utility.yul\":24767:24777   */\n      dup1\n      dup3\n      gt\n        /* \"#utility.yul\":24764:24800   */\n      iszero\n      tag_514\n      jumpi\n        /* \"#utility.yul\":24780:24798   */\n      tag_514\n      tag_608\n      jump\t// in\n        /* \"#utility.yul\":24811:25062   */\n    tag_466:\n        /* \"#utility.yul\":24881:24887   */\n      0x00\n        /* \"#utility.yul\":24934:24936   */\n      0x20\n        /* \"#utility.yul\":24922:24931   */\n      dup3\n        /* \"#utility.yul\":24913:24920   */\n      dup5\n        /* \"#utility.yul\":24909:24932   */\n      sub\n        /* \"#utility.yul\":24905:24937   */\n      slt\n        /* \"#utility.yul\":24902:24954   */\n      iszero\n      tag_765\n      jumpi\n        /* \"#utility.yul\":24950:24951   */\n      0x00\n        /* \"#utility.yul\":24947:24948   */\n      dup1\n        /* \"#utility.yul\":24940:24952   */\n      revert\n        /* \"#utility.yul\":24902:24954   */\n    tag_765:\n        /* \"#utility.yul\":24982:24991   */\n      dup2\n        /* \"#utility.yul\":24976:24992   */\n      mload\n        /* \"#utility.yul\":25001:25032   */\n      tag_302\n        /* \"#utility.yul\":25026:25031   */\n      dup2\n        /* \"#utility.yul\":25001:25032   */\n      tag_600\n      jump\t// in\n        /* \"#utility.yul\":26923:27051   */\n    tag_516:\n        /* \"#utility.yul\":26990:26999   */\n      dup2\n      dup2\n      sub\n        /* \"#utility.yul\":27011:27022   */\n      dup2\n      dup2\n      gt\n        /* \"#utility.yul\":27008:27045   */\n      iszero\n      tag_514\n      jumpi\n        /* \"#utility.yul\":27025:27043   */\n      tag_514\n      tag_608\n      jump\t// in\n        /* \"#utility.yul\":27056:27224   */\n    tag_519:\n        /* \"#utility.yul\":27129:27138   */\n      dup1\n      dup3\n      mul\n        /* \"#utility.yul\":27160:27169   */\n      dup2\n      iszero\n        /* \"#utility.yul\":27177:27192   */\n      dup3\n      dup3\n      div\n        /* \"#utility.yul\":27171:27193   */\n      dup5\n      eq\n        /* \"#utility.yul\":27157:27194   */\n      or\n        /* \"#utility.yul\":27147:27218   */\n      tag_514\n      jumpi\n        /* \"#utility.yul\":27198:27216   */\n      tag_514\n      tag_608\n      jump\t// in\n        /* \"#utility.yul\":27229:27446   */\n    tag_522:\n        /* \"#utility.yul\":27269:27270   */\n      0x00\n        /* \"#utility.yul\":27295:27296   */\n      dup3\n        /* \"#utility.yul\":27285:27417   */\n      tag_779\n      jumpi\n        /* \"#utility.yul\":27339:27349   */\n      0x4e487b71\n        /* \"#utility.yul\":27334:27337   */\n      0xe0\n        /* \"#utility.yul\":27330:27350   */\n      shl\n        /* \"#utility.yul\":27327:27328   */\n      0x00\n        /* \"#utility.yul\":27320:27351   */\n      mstore\n        /* \"#utility.yul\":27374:27378   */\n      0x12\n        /* \"#utility.yul\":27371:27372   */\n      0x04\n        /* \"#utility.yul\":27364:27379   */\n      mstore\n        /* \"#utility.yul\":27402:27406   */\n      0x24\n        /* \"#utility.yul\":27399:27400   */\n      0x00\n        /* \"#utility.yul\":27392:27407   */\n      revert\n        /* \"#utility.yul\":27285:27417   */\n    tag_779:\n      pop\n        /* \"#utility.yul\":27431:27440   */\n      div\n      swap1\n        /* \"#utility.yul\":27229:27446   */\n      jump\t// out\n        /* \"#utility.yul\":27451:27738   */\n    tag_533:\n        /* \"#utility.yul\":27580:27583   */\n      0x00\n        /* \"#utility.yul\":27618:27624   */\n      dup3\n        /* \"#utility.yul\":27612:27625   */\n      mload\n        /* \"#utility.yul\":27634:27700   */\n      tag_781\n        /* \"#utility.yul\":27693:27699   */\n      dup2\n        /* \"#utility.yul\":27688:27691   */\n      dup5\n        /* \"#utility.yul\":27681:27685   */\n      0x20\n        /* \"#utility.yul\":27673:27679   */\n      dup8\n        /* \"#utility.yul\":27669:27686   */\n      add\n        /* \"#utility.yul\":27634:27700   */\n      tag_598\n      jump\t// in\n    tag_781:\n        /* \"#utility.yul\":27716:27732   */\n      swap2\n      swap1\n      swap2\n      add\n      swap3\n        /* \"#utility.yul\":27451:27738   */\n      swap2\n      pop\n      pop\n      jump\t// out\n\n    auxdata: 0xa2646970667358221220fa069ddc1505e5a6ce24d6e11c933e0210775e43ef6d0535a4395f95ad41ca5964736f6c63430008120033\n}\n",
				"bytecode": {
					"linkReferences": {},
					"object": "60806040523480156200001157600080fd5b5060405162002fa038038062002fa08339810160408190526200003491620000e6565b60008054600380546001600160a01b039788166001600160a01b0319918216179091556002805496881696821696909617909555600180549487169486169490941790935560058054928616929094169190911790925562ff00001961ff0019939094166301000000029290921662ff0100600160b81b03199092169190911761010017919091166201000017905562000156565b80516001600160a01b0381168114620000e157600080fd5b919050565b600080600080600060a08688031215620000ff57600080fd5b6200010a86620000c9565b94506200011a60208701620000c9565b93506200012a60408701620000c9565b92506200013a60608701620000c9565b91506200014a60808701620000c9565b90509295509295909350565b612e3a80620001666000396000f3fe6080604052600436106101d85760003560e01c80636197d88511610102578063b3f0067411610095578063cd84cbff11610064578063cd84cbff14610566578063e3840bc114610586578063e70efbfd146105a6578063f32f3678146105c657600080fd5b8063b3f0067414610504578063bbd99dbc14610519578063be241531146101dd578063c884ef831461053957600080fd5b806388576cfa116100d157806388576cfa146104755780638c6abbee14610497578063963671be146104b7578063b399b0bc146104d757600080fd5b80636197d8851461040b57806369e154041461042d57806377fd034814610442578063822d2ef71461045557600080fd5b80632fa9083a1161017a5780633fc8cef3116101495780633fc8cef31461039957806342a66f68146103c057806346be42fa146103d65780635ca04266146103f657600080fd5b80632fa9083a146103155780632fb9e41f1461032a578063379607f51461035a5780633e89340f1461037a57600080fd5b806325ad91ce116101b657806325ad91ce1461025657806327b2a9e61461028e5780632c16cd8a146102ae5780632e468b7e146102f357600080fd5b80630274c094146101dd57806307802414146102085780631a39d8ef14610232575b600080fd5b3480156101e957600080fd5b506101f26105e6565b6040516101ff9190612643565b60405180910390f35b34801561021457600080fd5b5061021d61064b565b6040516101ff999897969594939291906126e0565b34801561023e57600080fd5b5061024860065481565b6040519081526020016101ff565b34801561026257600080fd5b50600554610276906001600160a01b031681565b6040516001600160a01b0390911681526020016101ff565b34801561029a57600080fd5b50600454610276906001600160a01b031681565b3480156102ba57600080fd5b506102ce6102c936600461273f565b61071e565b604080516001600160a01b0390941684526020840192909252908201526060016101ff565b3480156102ff57600080fd5b5061031361030e36600461277d565b61075b565b005b34801561032157600080fd5b50601154610248565b34801561033657600080fd5b5060005461034a9062010000900460ff1681565b60405190151581526020016101ff565b34801561036657600080fd5b5061031361037536600461273f565b6109cc565b34801561038657600080fd5b5060005461034a90610100900460ff1681565b3480156103a557600080fd5b5060005461027690630100000090046001600160a01b031681565b3480156103cc57600080fd5b5061024860075481565b3480156103e257600080fd5b506102486103f136600461273f565b610f9e565b34801561040257600080fd5b50601354610248565b34801561041757600080fd5b50610420611158565b6040516101ff91906127ad565b34801561043957600080fd5b506102486111b2565b61031361045036600461298f565b611225565b34801561046157600080fd5b50610313610470366004612a60565b611b44565b34801561048157600080fd5b5061048a611ca9565b6040516101ff9190612a95565b3480156104a357600080fd5b5061034a6104b2366004612aa8565b611d35565b3480156104c357600080fd5b50600154610276906001600160a01b031681565b3480156104e357600080fd5b506102486104f2366004612add565b60166020526000908152604090205481565b34801561051057600080fd5b50610276611de1565b34801561052557600080fd5b50610248610534366004612add565b611e4f565b34801561054557600080fd5b50610248610554366004612add565b60146020526000908152604090205481565b34801561057257600080fd5b5061034a610581366004612a60565b611f0e565b34801561059257600080fd5b50600254610276906001600160a01b031681565b3480156105b257600080fd5b506103136105c1366004612add565b611f72565b3480156105d257600080fd5b50600354610276906001600160a01b031681565b6060600860090180548060200260200160405190810160405280929190818152602001828054801561064157602002820191906000526020600020905b81546001600160a01b03168152600190910190602001808311610623575b5050505050905090565b60088054819061065a90612afa565b80601f016020809104026020016040519081016040528092919081815260200182805461068690612afa565b80156106d35780601f106106a8576101008083540402835291602001916106d3565b820191906000526020600020905b8154815290600101906020018083116106b657829003601f168201915b50505060018401546002850154600386015460048701546005880154600689015460088a0154600a909a0154989995989497506001600160a01b039384169650919490939192169089565b6013818154811061072e57600080fd5b60009182526020909120600390910201805460018201546002909201546001600160a01b03909116925083565b60005462010000900460ff1661078c5760405162461bcd60e51b815260040161078390612b34565b60405180910390fd5b61079581612117565b6107e15760405162461bcd60e51b815260206004820152601e60248201527f466972654c6f636b3a20746865206164647265737320697320657869737400006044820152606401610783565b6001600160a01b0381166108475760405162461bcd60e51b815260206004820152602760248201527f466972654c6f636b3a207468652061646472657373207a65726f206973206e6f6044820152667420616c6c6f7760c81b6064820152608401610783565b6011546108965760405162461bcd60e51b815260206004820152601b60248201527f466972654c6f636b3a207573657220616d6f756e74206572726f7200000000006044820152606401610783565b600b546001600160a01b031633146108ad57600080fd5b60115482106108fe5760405162461bcd60e51b815260206004820152601b60248201527f466972654c6f636b3a20496e76616c6964206d656d62657220494400000000006044820152606401610783565b60006008600901838154811061091657610916612b81565b60009182526020808320909101546001600160a01b039081168084526014835260408085208054938816808752828720949094558286528590556016845280852080548487528287205582865285905560159093528284208054928552928420919091558083529190556011805491925083918590811061099957610999612b81565b9060005260206000200160006101000a8154816001600160a01b0302191690836001600160a01b03160217905550505050565b60005460ff1615610a315760405162461bcd60e51b815260206004820152602960248201527f466972654c6f636b3a205265656e7472616e637947756172643a207265656e746044820152681c985b9d0818d85b1b60ba1b6064820152608401610783565b6000805460ff19166001179081905562010000900460ff16610a655760405162461bcd60e51b815260040161078390612b34565b600754606414610ab75760405162461bcd60e51b815260206004820152601760248201527f466972654c6f636b3a2072617465206973206572726f720000000000000000006044820152606401610783565b6012544211610b085760405162461bcd60e51b815260206004820152601b60248201527f466972654c6f636b3a207374696c6c20636c696666506572696f6400000000006044820152606401610783565b6000610b1333611e4f565b6006546010543360009081526015602052604081205493945091926001600160a01b03909116919015610b605733600090815260156020526040902054610b5b90429061217c565b610b6e565b601254610b6e90429061217c565b600e54600d54919250600091610b92916201518091610b8c91612191565b90612191565b90506000610bd46064610bce60086007018981548110610bb457610bb4612b81565b90600052602060002001548861219190919063ffffffff16565b9061219d565b90506000610be683610bce8487612191565b336000908152601460205260409020549091508211610c615760405162461bcd60e51b815260206004820152603160248201527f466972654c6f636b3a20596f7520646f206e6f74206861766520656e6f7567686044820152702062616c616e636520746f20636c61696d60781b6064820152608401610783565b81881115610cb15760405162461bcd60e51b815260206004820152601c60248201527f466972654c6f636b3a20496e73756666696369656e742071756f7461000000006044820152606401610783565b33600090815260166020526040902054610ccc9082906121a9565b881115610d325760405162461bcd60e51b815260206004820152602e60248201527f466972654c6f636b3a20436c61696d20616d6f756e742065786365656473206160448201526d6c6c6f776564206d6178696d756d60901b6064820152608401610783565b336000908152601460205260409020548290610d4e908a6121a9565b1115610dba5760405162461bcd60e51b815260206004820152603560248201527f466972654c6f636b3a20436c61696d20616d6f756e7420657863656564732075604482015274736572277320616c6c6f776564206d6178696d756d60581b6064820152608401610783565b610dce6001600160a01b038616338a6121b5565b600c54610ddb908961217c565b600c553360009081526015602090815260408083204290556016909152902054610e12908990610e0c9084906121a9565b9061217c565b3360008181526016602090815260408083209490945583516060810185528381528082018d8152428287019081526013805460018101825590865283517f66de8ffda797e3de9c05e8fc57b3bf0ec28a930d40b0d285d93c06501cf6a090600390920291820180546001600160a01b0319166001600160a01b0390921691909117905591517f66de8ffda797e3de9c05e8fc57b3bf0ec28a930d40b0d285d93c06501cf6a091830155517f66de8ffda797e3de9c05e8fc57b3bf0ec28a930d40b0d285d93c06501cf6a09290910155928252601490529190912054610ef7908a6121a9565b336000908152601460205260409081902091909155600154905163162d870b60e31b8152306004820152602481018b90526001600160a01b039091169063b16c385890604401600060405180830381600087803b158015610f5757600080fd5b505af1158015610f6b573d6000803e3d6000fd5b50505050600860040154600003610f89576000805462ff0000191690555b50506000805460ff1916905550505050505050565b60008060086009018381548110610fb757610fb7612b81565b6000918252602090912001546011546001600160a01b03909116915083106110215760405162461bcd60e51b815260206004820152601d60248201527f466972654c6f636b3a205573657220646f6573206e6f742065786973740000006044820152606401610783565b6001600160a01b0381166110775760405162461bcd60e51b815260206004820152601d60248201527f466972654c6f636b3a205573657220646f6573206e6f742065786973740000006044820152606401610783565b6001600160a01b038116600090815260156020526040812054810361110b5761110462015180610b8c600860050154610bce600860060154610bce6064610bce6110cf6008600201544261217c90919063ffffffff16565b610b8c60086007018f815481106110e8576110e8612b81565b906000526020600020015460065461219190919063ffffffff16565b9050611151565b600d54600e546001600160a01b03841660009081526015602052604090205461114e926201518092610b8c92610bce9190829060649082906110cf90429061217c565b90505b9392505050565b6060600860070180548060200260200160405190810160405280929190818152602001828054801561064157602002820191906000526020600020905b815481526020019060010190808311611195575050505050905090565b6003546040805163ced72f8760e01b815290516000926001600160a01b03169163ced72f879160048083019260209291908290030181865afa1580156111fc573d6000803e3d6000fd5b505050506040513d601f19601f820116820180604052508101906112209190612b97565b905090565b600054610100900460ff166112935760405162461bcd60e51b815260206004820152602e60248201527f466972654c6f636b3a20596f75206861766520616c7265616479206c6f636b6560448201526d32103a3432903837b9b4ba34b7b760911b6064820152608401610783565b61129c84611d35565b6112e85760405162461bcd60e51b815260206004820152601f60248201527f466972654c6f636b3a2061646472657373206973206e6f7420756e69717565006044820152606401610783565b600084511180156112fa575060008351115b61135a5760405162461bcd60e51b815260206004820152602b60248201527f466972654c6f636b3a204164647265737320616e64207363616c652063616e6e60448201526a6f7420626520656d70747960a81b6064820152608401610783565b82518451146113ab5760405162461bcd60e51b815260206004820152601b60248201527f466972654c6f636b3a207573657220616d6f756e74206572726f7200000000006044820152606401610783565b60005b8451811015611462576113ec8582815181106113cc576113cc612b81565b60200260200101516001600160a01b03166001600160a01b03163b151590565b156114505760405162461bcd60e51b815260206004820152602e60248201527f466972654c6f636b3a20436f6e7472616374206164647265737320666f756e6460448201526d1034b7102fba379030b93930bc9760911b6064820152608401610783565b8061145a81612bc6565b9150506113ae565b506005546001600160a01b031633146114bd5760405162461bcd60e51b815260206004820181905260248201527f466972654c6f636b3a20796f7520617265206e6f7420637265617420757365726044820152606401610783565b426114d96114d262015180610b8c8b8b612191565b42906121a9565b1161154c5760405162461bcd60e51b815260206004820152603d60248201527f466972654c6f636b3a20446561646c696e652073686f756c642062652062696760448201527f676572207468616e2063757272656e7420626c6f636b206e756d6265720000006064820152608401610783565b600085116115b65760405162461bcd60e51b815260206004820152603160248201527f466972654c6f636b3a20546f6b656e20616d6f756e742073686f756c6420626560448201527020626967676572207468616e207a65726f60781b6064820152608401610783565b6115bf83611f0e565b6116025760405162461bcd60e51b81526020600482015260146024820152732334b932a637b1b59d103930ba329032b93937b960611b6044820152606401610783565b6000871180156116125750600086115b61166e5760405162461bcd60e51b815260206004820152602760248201527f466972654c6f636b3a20506572696f6420616e6420726f756e6420696e707574604482015266206572726f727360c81b6064820152608401610783565b60008251116116cb5760405162461bcd60e51b815260206004820152602360248201527f466972654c6f636b3a20537472696e67206d757374206e6f7420626520656d706044820152623a3c9760e91b6064820152608401610783565b3360006116de6114d28462015180612191565b905060006116fd6116f662015180610b8c8d8d6121a9565b83906121a9565b9050346000036117395760005461173490630100000090046001600160a01b031633611727611de1565b61172f6111b2565b61220c565b61187e565b6117416111b2565b341461177e5760405162461bcd60e51b815260206004820152600c60248201526b20b6b7bab73a1032b93937b960a11b6044820152606401610783565b600054630100000090046001600160a01b031663d0e30db061179e6111b2565b6040518263ffffffff1660e01b81526004016000604051808303818588803b1580156117c957600080fd5b505af11580156117dd573d6000803e3d6000fd5b5050600054630100000090046001600160a01b0316925063a9059cbb91506118059050611de1565b61180d6111b2565b6040516001600160e01b031960e085901b1681526001600160a01b03909216600483015260248201526044016020604051808303816000875af1158015611858573d6000803e3d6000fd5b505050506040513d601f19601f8201168201806040525081019061187c9190612bdf565b505b6040805161016081018252868152602081018390529081018390526001600160a01b03808d166060830152608082018a905260a082018c905260c082018b905260e082018890528d1661010082015261012081018890526101408101839052806008806118eb8982612c47565b5060208281015160018301556040830151600283015560608301516003830180546001600160a01b0319166001600160a01b039092169190911790556080830151600483015560a0830151600583015560c0830151600683015560e0830151805161195c926007850192019061258e565b506101008201516008820180546001600160a01b0319166001600160a01b0390921691909117905561012082015180516119a09160098401916020909101906125d9565b506101409190910151600a909101556040516323b872dd60e01b81526001600160a01b038581166004830152306024830152604482018b90528e16906323b872dd906064016020604051808303816000875af1158015611a04573d6000803e3d6000fd5b505050506040513d601f19601f82011682018060405250810190611a289190612bdf565b506000805461ff00191690556001548151608083015160408085015160a086015160c0870151602088015160608901519451635d78589b60e11b81526001600160a01b039098169763baf0b13697611a929730979196909542959194909391929091600401612d07565b600060405180830381600087803b158015611aac57600080fd5b505af1158015611ac0573d6000803e3d6000fd5b50505060068a905550611ad161233c565b6001805460405163ebdcc19b60e01b815230600482015260248101929092526001600160a01b03169063ebdcc19b90604401600060405180830381600087803b158015611b1d57600080fd5b505af1158015611b31573d6000803e3d6000fd5b5050505050505050505050505050505050565b600b546001600160a01b03163314611b9e5760405162461bcd60e51b815260206004820152601b60248201527f466972654c6f636b3a20796f7520617265206e6f742061646d696e00000000006044820152606401610783565b600f54815114611bf05760405162461bcd60e51b815260206004820152601b60248201527f466972654c6f636b3a2072617465206973206e6f74206d6174636800000000006044820152606401610783565b601154815114611c425760405162461bcd60e51b815260206004820152601b60248201527f466972654c6f636b3a2072617465206973206e6f74206d6174636800000000006044820152606401610783565b60005b600f54811015611c9d57818181518110611c6157611c61612b81565b602002602001015160086007018281548110611c7f57611c7f612b81565b60009182526020909120015580611c9581612bc6565b915050611c45565b50611ca661233c565b50565b606060086000018054611cbb90612afa565b80601f0160208091040260200160405190810160405280929190818152602001828054611ce790612afa565b80156106415780601f10611d0957610100808354040283529160200191610641565b820191906000526020600020905b815481529060010190602001808311611d1757509395945050505050565b8051600090815b81811015611dd7576000611d51826001612d6c565b90505b82811015611dc457848181518110611d6e57611d6e612b81565b60200260200101516001600160a01b0316858381518110611d9157611d91612b81565b60200260200101516001600160a01b031603611db257506000949350505050565b80611dbc81612bc6565b915050611d54565b5080611dcf81612bc6565b915050611d3c565b5060019392505050565b600354604080516338cc483160e01b815290516000926001600160a01b0316916338cc48319160048083019260209291908290030181865afa158015611e2b573d6000803e3d6000fd5b505050506040513d601f19601f820116820180604052508101906112209190612d7f565b601154600090815b81811015611eab576011805482908110611e7357611e73612b81565b6000918252602090912001546001600160a01b0390811690851603611e99579392505050565b80611ea381612bc6565b915050611e57565b5060405162461bcd60e51b815260206004820152603160248201527f466972654c6f636b3a20596f7520617265206e6f7420612075736572206f662060448201527074686973206c6f636b206164647265737360781b6064820152608401610783565b600080805b8351811015611f6857838181518110611f2e57611f2e612b81565b602002602001015182611f419190612d6c565b91506064821115611f56575060009392505050565b80611f6081612bc6565b915050611f13565b5060641492915050565b600b5433906001600160a01b031680611fcd5760405162461bcd60e51b815260206004820152601f60248201527f466972654c6f636b3a204c6f636b2061646d696e206d757374206578697374006044820152606401610783565b816001600160a01b0316816001600160a01b03161461202e5760405162461bcd60e51b815260206004820152601e60248201527f466972654c6f636b3a2053656e646572206d7573742062652061646d696e00006044820152606401610783565b6001600160a01b0383166120965760405162461bcd60e51b815260206004820152602960248201527f466972654c6f636b3a207472616e73666572206164647265737320646f6573206044820152681b9bdd08195e1a5cdd60ba1b6064820152608401610783565b600b80546001600160a01b0319166001600160a01b0385811691821790925560015460405163751971b760e11b815230600482015260248101929092529091169063ea32e36e90604401600060405180830381600087803b1580156120fa57600080fd5b505af115801561210e573d6000803e3d6000fd5b50505050505050565b6000805b60115481101561217357601180548290811061213957612139612b81565b6000918252602090912001546001600160a01b03908116908416036121615750600092915050565b8061216b81612bc6565b91505061211b565b50600192915050565b60006121888284612d9c565b90505b92915050565b60006121888284612daf565b60006121888284612dc6565b60006121888284612d6c565b604080516001600160a01b038416602482015260448082018490528251808303909101815260649091019091526020810180516001600160e01b031663a9059cbb60e01b179052612207908490612397565b505050565b604080516001600160a01b0385811660248301528481166044830152606480830185905283518084039091018152608490920183526020820180516001600160e01b03166323b872dd60e01b17905291516000928392908816916122709190612de8565b6000604051808303816000865af19150503d80600081146122ad576040519150601f19603f3d011682016040523d82523d6000602084013e6122b2565b606091505b50915091508180156122dc5750805115806122dc5750808060200190518101906122dc9190612bdf565b6123345760405162461bcd60e51b8152602060048201526024808201527f5472616e7366657248656c7065723a205452414e534645525f46524f4d5f46416044820152631253115160e21b6064820152608401610783565b505050505050565b6000805b600f548110156123915761237d6008600701828154811061236357612363612b81565b9060005260206000200154836121a990919063ffffffff16565b91508061238981612bc6565b915050612340565b50600755565b60006123ec826040518060400160405280602081526020017f5361666545524332303a206c6f772d6c6576656c2063616c6c206661696c6564815250856001600160a01b03166124699092919063ffffffff16565b805190915015612207578080602001905181019061240a9190612bdf565b6122075760405162461bcd60e51b815260206004820152602a60248201527f5361666545524332303a204552433230206f7065726174696f6e20646964206e6044820152691bdd081cdd58d8d9595960b21b6064820152608401610783565b606061114e848460008585600080866001600160a01b031685876040516124909190612de8565b60006040518083038185875af1925050503d80600081146124cd576040519150601f19603f3d011682016040523d82523d6000602084013e6124d2565b606091505b50915091506124e3878383876124f0565b925050505b949350505050565b6060831561255f578251600003612558576001600160a01b0385163b6125585760405162461bcd60e51b815260206004820152601d60248201527f416464726573733a2063616c6c20746f206e6f6e2d636f6e74726163740000006044820152606401610783565b50816124e8565b6124e883838151156125745781518083602001fd5b8060405162461bcd60e51b81526004016107839190612a95565b8280548282559060005260206000209081019282156125c9579160200282015b828111156125c95782518255916020019190600101906125ae565b506125d592915061262e565b5090565b8280548282559060005260206000209081019282156125c9579160200282015b828111156125c957825182546001600160a01b0319166001600160a01b039091161782556020909201916001909101906125f9565b5b808211156125d5576000815560010161262f565b6020808252825182820181905260009190848201906040850190845b818110156126845783516001600160a01b03168352928401929184019160010161265f565b50909695505050505050565b60005b838110156126ab578181015183820152602001612693565b50506000910152565b600081518084526126cc816020860160208601612690565b601f01601f19169290920160200192915050565b60006101208083526126f48184018d6126b4565b602084019b909b52505060408101979097526001600160a01b039586166060880152608087019490945260a086019290925260c085015290911660e083015261010090910152919050565b60006020828403121561275157600080fd5b5035919050565b6001600160a01b0381168114611ca657600080fd5b803561277881612758565b919050565b6000806040838503121561279057600080fd5b8235915060208301356127a281612758565b809150509250929050565b6020808252825182820181905260009190848201906040850190845b81811015612684578351835292840192918401916001016127c9565b634e487b7160e01b600052604160045260246000fd5b604051601f8201601f1916810167ffffffffffffffff81118282101715612824576128246127e5565b604052919050565b600067ffffffffffffffff821115612846576128466127e5565b5060051b60200190565b600082601f83011261286157600080fd5b813560206128766128718361282c565b6127fb565b82815260059290921b8401810191818101908684111561289557600080fd5b8286015b848110156128b95780356128ac81612758565b8352918301918301612899565b509695505050505050565b600082601f8301126128d557600080fd5b813560206128e56128718361282c565b82815260059290921b8401810191818101908684111561290457600080fd5b8286015b848110156128b95780358352918301918301612908565b600082601f83011261293057600080fd5b813567ffffffffffffffff81111561294a5761294a6127e5565b61295d601f8201601f19166020016127fb565b81815284602083860101111561297257600080fd5b816020850160208301376000918101602001919091529392505050565b60008060008060008060008060006101208a8c0312156129ae57600080fd5b6129b78a61276d565b98506129c560208b0161276d565b975060408a0135965060608a0135955060808a0135945060a08a013567ffffffffffffffff808211156129f757600080fd5b612a038d838e01612850565b955060c08c0135915080821115612a1957600080fd5b612a258d838e016128c4565b945060e08c0135915080821115612a3b57600080fd5b50612a488c828d0161291f565b9250506101008a013590509295985092959850929598565b600060208284031215612a7257600080fd5b813567ffffffffffffffff811115612a8957600080fd5b6124e8848285016128c4565b60208152600061218860208301846126b4565b600060208284031215612aba57600080fd5b813567ffffffffffffffff811115612ad157600080fd5b6124e884828501612850565b600060208284031215612aef57600080fd5b813561115181612758565b600181811c90821680612b0e57607f821691505b602082108103612b2e57634e487b7160e01b600052602260045260246000fd5b50919050565b6020808252602d908201527f466972654c6f636b3a2054686520636f6e74726163742068617320616c72656160408201526c191e481d195c9b5a5b985d1959609a1b606082015260800190565b634e487b7160e01b600052603260045260246000fd5b600060208284031215612ba957600080fd5b5051919050565b634e487b7160e01b600052601160045260246000fd5b600060018201612bd857612bd8612bb0565b5060010190565b600060208284031215612bf157600080fd5b8151801515811461115157600080fd5b601f82111561220757600081815260208120601f850160051c81016020861015612c285750805b601f850160051c820191505b8181101561233457828155600101612c34565b815167ffffffffffffffff811115612c6157612c616127e5565b612c7581612c6f8454612afa565b84612c01565b602080601f831160018114612caa5760008415612c925750858301515b600019600386901b1c1916600185901b178555612334565b600085815260208120601f198616915b82811015612cd957888601518255948401946001909101908401612cba565b5085821015612cf75787850151600019600388901b60f8161c191681555b5050505050600190811b01905550565b6001600160a01b038a8116825261012060208301819052600091612d2d8483018d6126b4565b92508a60408501528960608501528860808501528760a08501528660c08501528560e085015280851661010085015250509a9950505050505050505050565b8082018082111561218b5761218b612bb0565b600060208284031215612d9157600080fd5b815161115181612758565b8181038181111561218b5761218b612bb0565b808202811582820484141761218b5761218b612bb0565b600082612de357634e487b7160e01b600052601260045260246000fd5b500490565b60008251612dfa818460208701612690565b919091019291505056fea2646970667358221220fa069ddc1505e5a6ce24d6e11c933e0210775e43ef6d0535a4395f95ad41ca5964736f6c63430008120033",
					"opcodes": "PUSH1 0x80 PUSH1 0x40 MSTORE CALLVALUE DUP1 ISZERO PUSH3 0x11 JUMPI PUSH1 0x0 DUP1 REVERT JUMPDEST POP PUSH1 0x40 MLOAD PUSH3 0x2FA0 CODESIZE SUB DUP1 PUSH3 0x2FA0 DUP4 CODECOPY DUP2 ADD PUSH1 0x40 DUP2 SWAP1 MSTORE PUSH3 0x34 SWAP2 PUSH3 0xE6 JUMP JUMPDEST PUSH1 0x0 DUP1 SLOAD PUSH1 0x3 DUP1 SLOAD PUSH1 0x1 PUSH1 0x1 PUSH1 0xA0 SHL SUB SWAP8 DUP9 AND PUSH1 0x1 PUSH1 0x1 PUSH1 0xA0 SHL SUB NOT SWAP2 DUP3 AND OR SWAP1 SWAP2 SSTORE PUSH1 0x2 DUP1 SLOAD SWAP7 DUP9 AND SWAP7 DUP3 AND SWAP7 SWAP1 SWAP7 OR SWAP1 SWAP6 SSTORE PUSH1 0x1 DUP1 SLOAD SWAP5 DUP8 AND SWAP5 DUP7 AND SWAP5 SWAP1 SWAP5 OR SWAP1 SWAP4 SSTORE PUSH1 0x5 DUP1 SLOAD SWAP3 DUP7 AND SWAP3 SWAP1 SWAP5 AND SWAP2 SWAP1 SWAP2 OR SWAP1 SWAP3 SSTORE PUSH3 0xFF0000 NOT PUSH2 0xFF00 NOT SWAP4 SWAP1 SWAP5 AND PUSH4 0x1000000 MUL SWAP3 SWAP1 SWAP3 AND PUSH3 0xFF0100 PUSH1 0x1 PUSH1 0xB8 SHL SUB NOT SWAP1 SWAP3 AND SWAP2 SWAP1 SWAP2 OR PUSH2 0x100 OR SWAP2 SWAP1 SWAP2 AND PUSH3 0x10000 OR SWAP1 SSTORE PUSH3 0x156 JUMP JUMPDEST DUP1 MLOAD PUSH1 0x1 PUSH1 0x1 PUSH1 0xA0 SHL SUB DUP2 AND DUP2 EQ PUSH3 0xE1 JUMPI PUSH1 0x0 DUP1 REVERT JUMPDEST SWAP2 SWAP1 POP JUMP JUMPDEST PUSH1 0x0 DUP1 PUSH1 0x0 DUP1 PUSH1 0x0 PUSH1 0xA0 DUP7 DUP9 SUB SLT ISZERO PUSH3 0xFF JUMPI PUSH1 0x0 DUP1 REVERT JUMPDEST PUSH3 0x10A DUP7 PUSH3 0xC9 JUMP JUMPDEST SWAP5 POP PUSH3 0x11A PUSH1 0x20 DUP8 ADD PUSH3 0xC9 JUMP JUMPDEST SWAP4 POP PUSH3 0x12A PUSH1 0x40 DUP8 ADD PUSH3 0xC9 JUMP JUMPDEST SWAP3 POP PUSH3 0x13A PUSH1 0x60 DUP8 ADD PUSH3 0xC9 JUMP JUMPDEST SWAP2 POP PUSH3 0x14A PUSH1 0x80 DUP8 ADD PUSH3 0xC9 JUMP JUMPDEST SWAP1 POP SWAP3 SWAP6 POP SWAP3 SWAP6 SWAP1 SWAP4 POP JUMP JUMPDEST PUSH2 0x2E3A DUP1 PUSH3 0x166 PUSH1 0x0 CODECOPY PUSH1 0x0 RETURN INVALID PUSH1 0x80 PUSH1 0x40 MSTORE PUSH1 0x4 CALLDATASIZE LT PUSH2 0x1D8 JUMPI PUSH1 0x0 CALLDATALOAD PUSH1 0xE0 SHR DUP1 PUSH4 0x6197D885 GT PUSH2 0x102 JUMPI DUP1 PUSH4 0xB3F00674 GT PUSH2 0x95 JUMPI DUP1 PUSH4 0xCD84CBFF GT PUSH2 0x64 JUMPI DUP1 PUSH4 0xCD84CBFF EQ PUSH2 0x566 JUMPI DUP1 PUSH4 0xE3840BC1 EQ PUSH2 0x586 JUMPI DUP1 PUSH4 0xE70EFBFD EQ PUSH2 0x5A6 JUMPI DUP1 PUSH4 0xF32F3678 EQ PUSH2 0x5C6 JUMPI PUSH1 0x0 DUP1 REVERT JUMPDEST DUP1 PUSH4 0xB3F00674 EQ PUSH2 0x504 JUMPI DUP1 PUSH4 0xBBD99DBC EQ PUSH2 0x519 JUMPI DUP1 PUSH4 0xBE241531 EQ PUSH2 0x1DD JUMPI DUP1 PUSH4 0xC884EF83 EQ PUSH2 0x539 JUMPI PUSH1 0x0 DUP1 REVERT JUMPDEST DUP1 PUSH4 0x88576CFA GT PUSH2 0xD1 JUMPI DUP1 PUSH4 0x88576CFA EQ PUSH2 0x475 JUMPI DUP1 PUSH4 0x8C6ABBEE EQ PUSH2 0x497 JUMPI DUP1 PUSH4 0x963671BE EQ PUSH2 0x4B7 JUMPI DUP1 PUSH4 0xB399B0BC EQ PUSH2 0x4D7 JUMPI PUSH1 0x0 DUP1 REVERT JUMPDEST DUP1 PUSH4 0x6197D885 EQ PUSH2 0x40B JUMPI DUP1 PUSH4 0x69E15404 EQ PUSH2 0x42D JUMPI DUP1 PUSH4 0x77FD0348 EQ PUSH2 0x442 JUMPI DUP1 PUSH4 0x822D2EF7 EQ PUSH2 0x455 JUMPI PUSH1 0x0 DUP1 REVERT JUMPDEST DUP1 PUSH4 0x2FA9083A GT PUSH2 0x17A JUMPI DUP1 PUSH4 0x3FC8CEF3 GT PUSH2 0x149 JUMPI DUP1 PUSH4 0x3FC8CEF3 EQ PUSH2 0x399 JUMPI DUP1 PUSH4 0x42A66F68 EQ PUSH2 0x3C0 JUMPI DUP1 PUSH4 0x46BE42FA EQ PUSH2 0x3D6 JUMPI DUP1 PUSH4 0x5CA04266 EQ PUSH2 0x3F6 JUMPI PUSH1 0x0 DUP1 REVERT JUMPDEST DUP1 PUSH4 0x2FA9083A EQ PUSH2 0x315 JUMPI DUP1 PUSH4 0x2FB9E41F EQ PUSH2 0x32A JUMPI DUP1 PUSH4 0x379607F5 EQ PUSH2 0x35A JUMPI DUP1 PUSH4 0x3E89340F EQ PUSH2 0x37A JUMPI PUSH1 0x0 DUP1 REVERT JUMPDEST DUP1 PUSH4 0x25AD91CE GT PUSH2 0x1B6 JUMPI DUP1 PUSH4 0x25AD91CE EQ PUSH2 0x256 JUMPI DUP1 PUSH4 0x27B2A9E6 EQ PUSH2 0x28E JUMPI DUP1 PUSH4 0x2C16CD8A EQ PUSH2 0x2AE JUMPI DUP1 PUSH4 0x2E468B7E EQ PUSH2 0x2F3 JUMPI PUSH1 0x0 DUP1 REVERT JUMPDEST DUP1 PUSH4 0x274C094 EQ PUSH2 0x1DD JUMPI DUP1 PUSH4 0x7802414 EQ PUSH2 0x208 JUMPI DUP1 PUSH4 0x1A39D8EF EQ PUSH2 0x232 JUMPI JUMPDEST PUSH1 0x0 DUP1 REVERT JUMPDEST CALLVALUE DUP1 ISZERO PUSH2 0x1E9 JUMPI PUSH1 0x0 DUP1 REVERT JUMPDEST POP PUSH2 0x1F2 PUSH2 0x5E6 JUMP JUMPDEST PUSH1 0x40 MLOAD PUSH2 0x1FF SWAP2 SWAP1 PUSH2 0x2643 JUMP JUMPDEST PUSH1 0x40 MLOAD DUP1 SWAP2 SUB SWAP1 RETURN JUMPDEST CALLVALUE DUP1 ISZERO PUSH2 0x214 JUMPI PUSH1 0x0 DUP1 REVERT JUMPDEST POP PUSH2 0x21D PUSH2 0x64B JUMP JUMPDEST PUSH1 0x40 MLOAD PUSH2 0x1FF SWAP10 SWAP9 SWAP8 SWAP7 SWAP6 SWAP5 SWAP4 SWAP3 SWAP2 SWAP1 PUSH2 0x26E0 JUMP JUMPDEST CALLVALUE DUP1 ISZERO PUSH2 0x23E JUMPI PUSH1 0x0 DUP1 REVERT JUMPDEST POP PUSH2 0x248 PUSH1 0x6 SLOAD DUP2 JUMP JUMPDEST PUSH1 0x40 MLOAD SWAP1 DUP2 MSTORE PUSH1 0x20 ADD PUSH2 0x1FF JUMP JUMPDEST CALLVALUE DUP1 ISZERO PUSH2 0x262 JUMPI PUSH1 0x0 DUP1 REVERT JUMPDEST POP PUSH1 0x5 SLOAD PUSH2 0x276 SWAP1 PUSH1 0x1 PUSH1 0x1 PUSH1 0xA0 SHL SUB AND DUP2 JUMP JUMPDEST PUSH1 0x40 MLOAD PUSH1 0x1 PUSH1 0x1 PUSH1 0xA0 SHL SUB SWAP1 SWAP2 AND DUP2 MSTORE PUSH1 0x20 ADD PUSH2 0x1FF JUMP JUMPDEST CALLVALUE DUP1 ISZERO PUSH2 0x29A JUMPI PUSH1 0x0 DUP1 REVERT JUMPDEST POP PUSH1 0x4 SLOAD PUSH2 0x276 SWAP1 PUSH1 0x1 PUSH1 0x1 PUSH1 0xA0 SHL SUB AND DUP2 JUMP JUMPDEST CALLVALUE DUP1 ISZERO PUSH2 0x2BA JUMPI PUSH1 0x0 DUP1 REVERT JUMPDEST POP PUSH2 0x2CE PUSH2 0x2C9 CALLDATASIZE PUSH1 0x4 PUSH2 0x273F JUMP JUMPDEST PUSH2 0x71E JUMP JUMPDEST PUSH1 0x40 DUP1 MLOAD PUSH1 0x1 PUSH1 0x1 PUSH1 0xA0 SHL SUB SWAP1 SWAP5 AND DUP5 MSTORE PUSH1 0x20 DUP5 ADD SWAP3 SWAP1 SWAP3 MSTORE SWAP1 DUP3 ADD MSTORE PUSH1 0x60 ADD PUSH2 0x1FF JUMP JUMPDEST CALLVALUE DUP1 ISZERO PUSH2 0x2FF JUMPI PUSH1 0x0 DUP1 REVERT JUMPDEST POP PUSH2 0x313 PUSH2 0x30E CALLDATASIZE PUSH1 0x4 PUSH2 0x277D JUMP JUMPDEST PUSH2 0x75B JUMP JUMPDEST STOP JUMPDEST CALLVALUE DUP1 ISZERO PUSH2 0x321 JUMPI PUSH1 0x0 DUP1 REVERT JUMPDEST POP PUSH1 0x11 SLOAD PUSH2 0x248 JUMP JUMPDEST CALLVALUE DUP1 ISZERO PUSH2 0x336 JUMPI PUSH1 0x0 DUP1 REVERT JUMPDEST POP PUSH1 0x0 SLOAD PUSH2 0x34A SWAP1 PUSH3 0x10000 SWAP1 DIV PUSH1 0xFF AND DUP2 JUMP JUMPDEST PUSH1 0x40 MLOAD SWAP1 ISZERO ISZERO DUP2 MSTORE PUSH1 0x20 ADD PUSH2 0x1FF JUMP JUMPDEST CALLVALUE DUP1 ISZERO PUSH2 0x366 JUMPI PUSH1 0x0 DUP1 REVERT JUMPDEST POP PUSH2 0x313 PUSH2 0x375 CALLDATASIZE PUSH1 0x4 PUSH2 0x273F JUMP JUMPDEST PUSH2 0x9CC JUMP JUMPDEST CALLVALUE DUP1 ISZERO PUSH2 0x386 JUMPI PUSH1 0x0 DUP1 REVERT JUMPDEST POP PUSH1 0x0 SLOAD PUSH2 0x34A SWAP1 PUSH2 0x100 SWAP1 DIV PUSH1 0xFF AND DUP2 JUMP JUMPDEST CALLVALUE DUP1 ISZERO PUSH2 0x3A5 JUMPI PUSH1 0x0 DUP1 REVERT JUMPDEST POP PUSH1 0x0 SLOAD PUSH2 0x276 SWAP1 PUSH4 0x1000000 SWAP1 DIV PUSH1 0x1 PUSH1 0x1 PUSH1 0xA0 SHL SUB AND DUP2 JUMP JUMPDEST CALLVALUE DUP1 ISZERO PUSH2 0x3CC JUMPI PUSH1 0x0 DUP1 REVERT JUMPDEST POP PUSH2 0x248 PUSH1 0x7 SLOAD DUP2 JUMP JUMPDEST CALLVALUE DUP1 ISZERO PUSH2 0x3E2 JUMPI PUSH1 0x0 DUP1 REVERT JUMPDEST POP PUSH2 0x248 PUSH2 0x3F1 CALLDATASIZE PUSH1 0x4 PUSH2 0x273F JUMP JUMPDEST PUSH2 0xF9E JUMP JUMPDEST CALLVALUE DUP1 ISZERO PUSH2 0x402 JUMPI PUSH1 0x0 DUP1 REVERT JUMPDEST POP PUSH1 0x13 SLOAD PUSH2 0x248 JUMP JUMPDEST CALLVALUE DUP1 ISZERO PUSH2 0x417 JUMPI PUSH1 0x0 DUP1 REVERT JUMPDEST POP PUSH2 0x420 PUSH2 0x1158 JUMP JUMPDEST PUSH1 0x40 MLOAD PUSH2 0x1FF SWAP2 SWAP1 PUSH2 0x27AD JUMP JUMPDEST CALLVALUE DUP1 ISZERO PUSH2 0x439 JUMPI PUSH1 0x0 DUP1 REVERT JUMPDEST POP PUSH2 0x248 PUSH2 0x11B2 JUMP JUMPDEST PUSH2 0x313 PUSH2 0x450 CALLDATASIZE PUSH1 0x4 PUSH2 0x298F JUMP JUMPDEST PUSH2 0x1225 JUMP JUMPDEST CALLVALUE DUP1 ISZERO PUSH2 0x461 JUMPI PUSH1 0x0 DUP1 REVERT JUMPDEST POP PUSH2 0x313 PUSH2 0x470 CALLDATASIZE PUSH1 0x4 PUSH2 0x2A60 JUMP JUMPDEST PUSH2 0x1B44 JUMP JUMPDEST CALLVALUE DUP1 ISZERO PUSH2 0x481 JUMPI PUSH1 0x0 DUP1 REVERT JUMPDEST POP PUSH2 0x48A PUSH2 0x1CA9 JUMP JUMPDEST PUSH1 0x40 MLOAD PUSH2 0x1FF SWAP2 SWAP1 PUSH2 0x2A95 JUMP JUMPDEST CALLVALUE DUP1 ISZERO PUSH2 0x4A3 JUMPI PUSH1 0x0 DUP1 REVERT JUMPDEST POP PUSH2 0x34A PUSH2 0x4B2 CALLDATASIZE PUSH1 0x4 PUSH2 0x2AA8 JUMP JUMPDEST PUSH2 0x1D35 JUMP JUMPDEST CALLVALUE DUP1 ISZERO PUSH2 0x4C3 JUMPI PUSH1 0x0 DUP1 REVERT JUMPDEST POP PUSH1 0x1 SLOAD PUSH2 0x276 SWAP1 PUSH1 0x1 PUSH1 0x1 PUSH1 0xA0 SHL SUB AND DUP2 JUMP JUMPDEST CALLVALUE DUP1 ISZERO PUSH2 0x4E3 JUMPI PUSH1 0x0 DUP1 REVERT JUMPDEST POP PUSH2 0x248 PUSH2 0x4F2 CALLDATASIZE PUSH1 0x4 PUSH2 0x2ADD JUMP JUMPDEST PUSH1 0x16 PUSH1 0x20 MSTORE PUSH1 0x0 SWAP1 DUP2 MSTORE PUSH1 0x40 SWAP1 KECCAK256 SLOAD DUP2 JUMP JUMPDEST CALLVALUE DUP1 ISZERO PUSH2 0x510 JUMPI PUSH1 0x0 DUP1 REVERT JUMPDEST POP PUSH2 0x276 PUSH2 0x1DE1 JUMP JUMPDEST CALLVALUE DUP1 ISZERO PUSH2 0x525 JUMPI PUSH1 0x0 DUP1 REVERT JUMPDEST POP PUSH2 0x248 PUSH2 0x534 CALLDATASIZE PUSH1 0x4 PUSH2 0x2ADD JUMP JUMPDEST PUSH2 0x1E4F JUMP JUMPDEST CALLVALUE DUP1 ISZERO PUSH2 0x545 JUMPI PUSH1 0x0 DUP1 REVERT JUMPDEST POP PUSH2 0x248 PUSH2 0x554 CALLDATASIZE PUSH1 0x4 PUSH2 0x2ADD JUMP JUMPDEST PUSH1 0x14 PUSH1 0x20 MSTORE PUSH1 0x0 SWAP1 DUP2 MSTORE PUSH1 0x40 SWAP1 KECCAK256 SLOAD DUP2 JUMP JUMPDEST CALLVALUE DUP1 ISZERO PUSH2 0x572 JUMPI PUSH1 0x0 DUP1 REVERT JUMPDEST POP PUSH2 0x34A PUSH2 0x581 CALLDATASIZE PUSH1 0x4 PUSH2 0x2A60 JUMP JUMPDEST PUSH2 0x1F0E JUMP JUMPDEST CALLVALUE DUP1 ISZERO PUSH2 0x592 JUMPI PUSH1 0x0 DUP1 REVERT JUMPDEST POP PUSH1 0x2 SLOAD PUSH2 0x276 SWAP1 PUSH1 0x1 PUSH1 0x1 PUSH1 0xA0 SHL SUB AND DUP2 JUMP JUMPDEST CALLVALUE DUP1 ISZERO PUSH2 0x5B2 JUMPI PUSH1 0x0 DUP1 REVERT JUMPDEST POP PUSH2 0x313 PUSH2 0x5C1 CALLDATASIZE PUSH1 0x4 PUSH2 0x2ADD JUMP JUMPDEST PUSH2 0x1F72 JUMP JUMPDEST CALLVALUE DUP1 ISZERO PUSH2 0x5D2 JUMPI PUSH1 0x0 DUP1 REVERT JUMPDEST POP PUSH1 0x3 SLOAD PUSH2 0x276 SWAP1 PUSH1 0x1 PUSH1 0x1 PUSH1 0xA0 SHL SUB AND DUP2 JUMP JUMPDEST PUSH1 0x60 PUSH1 0x8 PUSH1 0x9 ADD DUP1 SLOAD DUP1 PUSH1 0x20 MUL PUSH1 0x20 ADD PUSH1 0x40 MLOAD SWAP1 DUP2 ADD PUSH1 0x40 MSTORE DUP1 SWAP3 SWAP2 SWAP1 DUP2 DUP2 MSTORE PUSH1 0x20 ADD DUP3 DUP1 SLOAD DUP1 ISZERO PUSH2 0x641 JUMPI PUSH1 0x20 MUL DUP3 ADD SWAP2 SWAP1 PUSH1 0x0 MSTORE PUSH1 0x20 PUSH1 0x0 KECCAK256 SWAP1 JUMPDEST DUP2 SLOAD PUSH1 0x1 PUSH1 0x1 PUSH1 0xA0 SHL SUB AND DUP2 MSTORE PUSH1 0x1 SWAP1 SWAP2 ADD SWAP1 PUSH1 0x20 ADD DUP1 DUP4 GT PUSH2 0x623 JUMPI JUMPDEST POP POP POP POP POP SWAP1 POP SWAP1 JUMP JUMPDEST PUSH1 0x8 DUP1 SLOAD DUP2 SWAP1 PUSH2 0x65A SWAP1 PUSH2 0x2AFA JUMP JUMPDEST DUP1 PUSH1 0x1F ADD PUSH1 0x20 DUP1 SWAP2 DIV MUL PUSH1 0x20 ADD PUSH1 0x40 MLOAD SWAP1 DUP2 ADD PUSH1 0x40 MSTORE DUP1 SWAP3 SWAP2 SWAP1 DUP2 DUP2 MSTORE PUSH1 0x20 ADD DUP3 DUP1 SLOAD PUSH2 0x686 SWAP1 PUSH2 0x2AFA JUMP JUMPDEST DUP1 ISZERO PUSH2 0x6D3 JUMPI DUP1 PUSH1 0x1F LT PUSH2 0x6A8 JUMPI PUSH2 0x100 DUP1 DUP4 SLOAD DIV MUL DUP4 MSTORE SWAP2 PUSH1 0x20 ADD SWAP2 PUSH2 0x6D3 JUMP JUMPDEST DUP3 ADD SWAP2 SWAP1 PUSH1 0x0 MSTORE PUSH1 0x20 PUSH1 0x0 KECCAK256 SWAP1 JUMPDEST DUP2 SLOAD DUP2 MSTORE SWAP1 PUSH1 0x1 ADD SWAP1 PUSH1 0x20 ADD DUP1 DUP4 GT PUSH2 0x6B6 JUMPI DUP3 SWAP1 SUB PUSH1 0x1F AND DUP3 ADD SWAP2 JUMPDEST POP POP POP PUSH1 0x1 DUP5 ADD SLOAD PUSH1 0x2 DUP6 ADD SLOAD PUSH1 0x3 DUP7 ADD SLOAD PUSH1 0x4 DUP8 ADD SLOAD PUSH1 0x5 DUP9 ADD SLOAD PUSH1 0x6 DUP10 ADD SLOAD PUSH1 0x8 DUP11 ADD SLOAD PUSH1 0xA SWAP1 SWAP11 ADD SLOAD SWAP9 SWAP10 SWAP6 SWAP9 SWAP5 SWAP8 POP PUSH1 0x1 PUSH1 0x1 PUSH1 0xA0 SHL SUB SWAP4 DUP5 AND SWAP7 POP SWAP2 SWAP5 SWAP1 SWAP4 SWAP2 SWAP3 AND SWAP1 DUP10 JUMP JUMPDEST PUSH1 0x13 DUP2 DUP2 SLOAD DUP2 LT PUSH2 0x72E JUMPI PUSH1 0x0 DUP1 REVERT JUMPDEST PUSH1 0x0 SWAP2 DUP3 MSTORE PUSH1 0x20 SWAP1 SWAP2 KECCAK256 PUSH1 0x3 SWAP1 SWAP2 MUL ADD DUP1 SLOAD PUSH1 0x1 DUP3 ADD SLOAD PUSH1 0x2 SWAP1 SWAP3 ADD SLOAD PUSH1 0x1 PUSH1 0x1 PUSH1 0xA0 SHL SUB SWAP1 SWAP2 AND SWAP3 POP DUP4 JUMP JUMPDEST PUSH1 0x0 SLOAD PUSH3 0x10000 SWAP1 DIV PUSH1 0xFF AND PUSH2 0x78C JUMPI PUSH1 0x40 MLOAD PUSH3 0x461BCD PUSH1 0xE5 SHL DUP2 MSTORE PUSH1 0x4 ADD PUSH2 0x783 SWAP1 PUSH2 0x2B34 JUMP JUMPDEST PUSH1 0x40 MLOAD DUP1 SWAP2 SUB SWAP1 REVERT JUMPDEST PUSH2 0x795 DUP2 PUSH2 0x2117 JUMP JUMPDEST PUSH2 0x7E1 JUMPI PUSH1 0x40 MLOAD PUSH3 0x461BCD PUSH1 0xE5 SHL DUP2 MSTORE PUSH1 0x20 PUSH1 0x4 DUP3 ADD MSTORE PUSH1 0x1E PUSH1 0x24 DUP3 ADD MSTORE PUSH32 0x466972654C6F636B3A2074686520616464726573732069732065786973740000 PUSH1 0x44 DUP3 ADD MSTORE PUSH1 0x64 ADD PUSH2 0x783 JUMP JUMPDEST PUSH1 0x1 PUSH1 0x1 PUSH1 0xA0 SHL SUB DUP2 AND PUSH2 0x847 JUMPI PUSH1 0x40 MLOAD PUSH3 0x461BCD PUSH1 0xE5 SHL DUP2 MSTORE PUSH1 0x20 PUSH1 0x4 DUP3 ADD MSTORE PUSH1 0x27 PUSH1 0x24 DUP3 ADD MSTORE PUSH32 0x466972654C6F636B3A207468652061646472657373207A65726F206973206E6F PUSH1 0x44 DUP3 ADD MSTORE PUSH7 0x7420616C6C6F77 PUSH1 0xC8 SHL PUSH1 0x64 DUP3 ADD MSTORE PUSH1 0x84 ADD PUSH2 0x783 JUMP JUMPDEST PUSH1 0x11 SLOAD PUSH2 0x896 JUMPI PUSH1 0x40 MLOAD PUSH3 0x461BCD PUSH1 0xE5 SHL DUP2 MSTORE PUSH1 0x20 PUSH1 0x4 DUP3 ADD MSTORE PUSH1 0x1B PUSH1 0x24 DUP3 ADD MSTORE PUSH32 0x466972654C6F636B3A207573657220616D6F756E74206572726F720000000000 PUSH1 0x44 DUP3 ADD MSTORE PUSH1 0x64 ADD PUSH2 0x783 JUMP JUMPDEST PUSH1 0xB SLOAD PUSH1 0x1 PUSH1 0x1 PUSH1 0xA0 SHL SUB AND CALLER EQ PUSH2 0x8AD JUMPI PUSH1 0x0 DUP1 REVERT JUMPDEST PUSH1 0x11 SLOAD DUP3 LT PUSH2 0x8FE JUMPI PUSH1 0x40 MLOAD PUSH3 0x461BCD PUSH1 0xE5 SHL DUP2 MSTORE PUSH1 0x20 PUSH1 0x4 DUP3 ADD MSTORE PUSH1 0x1B PUSH1 0x24 DUP3 ADD MSTORE PUSH32 0x466972654C6F636B3A20496E76616C6964206D656D6265722049440000000000 PUSH1 0x44 DUP3 ADD MSTORE PUSH1 0x64 ADD PUSH2 0x783 JUMP JUMPDEST PUSH1 0x0 PUSH1 0x8 PUSH1 0x9 ADD DUP4 DUP2 SLOAD DUP2 LT PUSH2 0x916 JUMPI PUSH2 0x916 PUSH2 0x2B81 JUMP JUMPDEST PUSH1 0x0 SWAP2 DUP3 MSTORE PUSH1 0x20 DUP1 DUP4 KECCAK256 SWAP1 SWAP2 ADD SLOAD PUSH1 0x1 PUSH1 0x1 PUSH1 0xA0 SHL SUB SWAP1 DUP2 AND DUP1 DUP5 MSTORE PUSH1 0x14 DUP4 MSTORE PUSH1 0x40 DUP1 DUP6 KECCAK256 DUP1 SLOAD SWAP4 DUP9 AND DUP1 DUP8 MSTORE DUP3 DUP8 KECCAK256 SWAP5 SWAP1 SWAP5 SSTORE DUP3 DUP7 MSTORE DUP6 SWAP1 SSTORE PUSH1 0x16 DUP5 MSTORE DUP1 DUP6 KECCAK256 DUP1 SLOAD DUP5 DUP8 MSTORE DUP3 DUP8 KECCAK256 SSTORE DUP3 DUP7 MSTORE DUP6 SWAP1 SSTORE PUSH1 0x15 SWAP1 SWAP4 MSTORE DUP3 DUP5 KECCAK256 DUP1 SLOAD SWAP3 DUP6 MSTORE SWAP3 DUP5 KECCAK256 SWAP2 SWAP1 SWAP2 SSTORE DUP1 DUP4 MSTORE SWAP2 SWAP1 SSTORE PUSH1 0x11 DUP1 SLOAD SWAP2 SWAP3 POP DUP4 SWAP2 DUP6 SWAP1 DUP2 LT PUSH2 0x999 JUMPI PUSH2 0x999 PUSH2 0x2B81 JUMP JUMPDEST SWAP1 PUSH1 0x0 MSTORE PUSH1 0x20 PUSH1 0x0 KECCAK256 ADD PUSH1 0x0 PUSH2 0x100 EXP DUP2 SLOAD DUP2 PUSH1 0x1 PUSH1 0x1 PUSH1 0xA0 SHL SUB MUL NOT AND SWAP1 DUP4 PUSH1 0x1 PUSH1 0x1 PUSH1 0xA0 SHL SUB AND MUL OR SWAP1 SSTORE POP POP POP POP JUMP JUMPDEST PUSH1 0x0 SLOAD PUSH1 0xFF AND ISZERO PUSH2 0xA31 JUMPI PUSH1 0x40 MLOAD PUSH3 0x461BCD PUSH1 0xE5 SHL DUP2 MSTORE PUSH1 0x20 PUSH1 0x4 DUP3 ADD MSTORE PUSH1 0x29 PUSH1 0x24 DUP3 ADD MSTORE PUSH32 0x466972654C6F636B3A205265656E7472616E637947756172643A207265656E74 PUSH1 0x44 DUP3 ADD MSTORE PUSH9 0x1C985B9D0818D85B1B PUSH1 0xBA SHL PUSH1 0x64 DUP3 ADD MSTORE PUSH1 0x84 ADD PUSH2 0x783 JUMP JUMPDEST PUSH1 0x0 DUP1 SLOAD PUSH1 0xFF NOT AND PUSH1 0x1 OR SWAP1 DUP2 SWAP1 SSTORE PUSH3 0x10000 SWAP1 DIV PUSH1 0xFF AND PUSH2 0xA65 JUMPI PUSH1 0x40 MLOAD PUSH3 0x461BCD PUSH1 0xE5 SHL DUP2 MSTORE PUSH1 0x4 ADD PUSH2 0x783 SWAP1 PUSH2 0x2B34 JUMP JUMPDEST PUSH1 0x7 SLOAD PUSH1 0x64 EQ PUSH2 0xAB7 JUMPI PUSH1 0x40 MLOAD PUSH3 0x461BCD PUSH1 0xE5 SHL DUP2 MSTORE PUSH1 0x20 PUSH1 0x4 DUP3 ADD MSTORE PUSH1 0x17 PUSH1 0x24 DUP3 ADD MSTORE PUSH32 0x466972654C6F636B3A2072617465206973206572726F72000000000000000000 PUSH1 0x44 DUP3 ADD MSTORE PUSH1 0x64 ADD PUSH2 0x783 JUMP JUMPDEST PUSH1 0x12 SLOAD TIMESTAMP GT PUSH2 0xB08 JUMPI PUSH1 0x40 MLOAD PUSH3 0x461BCD PUSH1 0xE5 SHL DUP2 MSTORE PUSH1 0x20 PUSH1 0x4 DUP3 ADD MSTORE PUSH1 0x1B PUSH1 0x24 DUP3 ADD MSTORE PUSH32 0x466972654C6F636B3A207374696C6C20636C696666506572696F640000000000 PUSH1 0x44 DUP3 ADD MSTORE PUSH1 0x64 ADD PUSH2 0x783 JUMP JUMPDEST PUSH1 0x0 PUSH2 0xB13 CALLER PUSH2 0x1E4F JUMP JUMPDEST PUSH1 0x6 SLOAD PUSH1 0x10 SLOAD CALLER PUSH1 0x0 SWAP1 DUP2 MSTORE PUSH1 0x15 PUSH1 0x20 MSTORE PUSH1 0x40 DUP2 KECCAK256 SLOAD SWAP4 SWAP5 POP SWAP2 SWAP3 PUSH1 0x1 PUSH1 0x1 PUSH1 0xA0 SHL SUB SWAP1 SWAP2 AND SWAP2 SWAP1 ISZERO PUSH2 0xB60 JUMPI CALLER PUSH1 0x0 SWAP1 DUP2 MSTORE PUSH1 0x15 PUSH1 0x20 MSTORE PUSH1 0x40 SWAP1 KECCAK256 SLOAD PUSH2 0xB5B SWAP1 TIMESTAMP SWAP1 PUSH2 0x217C JUMP JUMPDEST PUSH2 0xB6E JUMP JUMPDEST PUSH1 0x12 SLOAD PUSH2 0xB6E SWAP1 TIMESTAMP SWAP1 PUSH2 0x217C JUMP JUMPDEST PUSH1 0xE SLOAD PUSH1 0xD SLOAD SWAP2 SWAP3 POP PUSH1 0x0 SWAP2 PUSH2 0xB92 SWAP2 PUSH3 0x15180 SWAP2 PUSH2 0xB8C SWAP2 PUSH2 0x2191 JUMP JUMPDEST SWAP1 PUSH2 0x2191 JUMP JUMPDEST SWAP1 POP PUSH1 0x0 PUSH2 0xBD4 PUSH1 0x64 PUSH2 0xBCE PUSH1 0x8 PUSH1 0x7 ADD DUP10 DUP2 SLOAD DUP2 LT PUSH2 0xBB4 JUMPI PUSH2 0xBB4 PUSH2 0x2B81 JUMP JUMPDEST SWAP1 PUSH1 0x0 MSTORE PUSH1 0x20 PUSH1 0x0 KECCAK256 ADD SLOAD DUP9 PUSH2 0x2191 SWAP1 SWAP2 SWAP1 PUSH4 0xFFFFFFFF AND JUMP JUMPDEST SWAP1 PUSH2 0x219D JUMP JUMPDEST SWAP1 POP PUSH1 0x0 PUSH2 0xBE6 DUP4 PUSH2 0xBCE DUP5 DUP8 PUSH2 0x2191 JUMP JUMPDEST CALLER PUSH1 0x0 SWAP1 DUP2 MSTORE PUSH1 0x14 PUSH1 0x20 MSTORE PUSH1 0x40 SWAP1 KECCAK256 SLOAD SWAP1 SWAP2 POP DUP3 GT PUSH2 0xC61 JUMPI PUSH1 0x40 MLOAD PUSH3 0x461BCD PUSH1 0xE5 SHL DUP2 MSTORE PUSH1 0x20 PUSH1 0x4 DUP3 ADD MSTORE PUSH1 0x31 PUSH1 0x24 DUP3 ADD MSTORE PUSH32 0x466972654C6F636B3A20596F7520646F206E6F74206861766520656E6F756768 PUSH1 0x44 DUP3 ADD MSTORE PUSH17 0x2062616C616E636520746F20636C61696D PUSH1 0x78 SHL PUSH1 0x64 DUP3 ADD MSTORE PUSH1 0x84 ADD PUSH2 0x783 JUMP JUMPDEST DUP2 DUP9 GT ISZERO PUSH2 0xCB1 JUMPI PUSH1 0x40 MLOAD PUSH3 0x461BCD PUSH1 0xE5 SHL DUP2 MSTORE PUSH1 0x20 PUSH1 0x4 DUP3 ADD MSTORE PUSH1 0x1C PUSH1 0x24 DUP3 ADD MSTORE PUSH32 0x466972654C6F636B3A20496E73756666696369656E742071756F746100000000 PUSH1 0x44 DUP3 ADD MSTORE PUSH1 0x64 ADD PUSH2 0x783 JUMP JUMPDEST CALLER PUSH1 0x0 SWAP1 DUP2 MSTORE PUSH1 0x16 PUSH1 0x20 MSTORE PUSH1 0x40 SWAP1 KECCAK256 SLOAD PUSH2 0xCCC SWAP1 DUP3 SWAP1 PUSH2 0x21A9 JUMP JUMPDEST DUP9 GT ISZERO PUSH2 0xD32 JUMPI PUSH1 0x40 MLOAD PUSH3 0x461BCD PUSH1 0xE5 SHL DUP2 MSTORE PUSH1 0x20 PUSH1 0x4 DUP3 ADD MSTORE PUSH1 0x2E PUSH1 0x24 DUP3 ADD MSTORE PUSH32 0x466972654C6F636B3A20436C61696D20616D6F756E7420657863656564732061 PUSH1 0x44 DUP3 ADD MSTORE PUSH14 0x6C6C6F776564206D6178696D756D PUSH1 0x90 SHL PUSH1 0x64 DUP3 ADD MSTORE PUSH1 0x84 ADD PUSH2 0x783 JUMP JUMPDEST CALLER PUSH1 0x0 SWAP1 DUP2 MSTORE PUSH1 0x14 PUSH1 0x20 MSTORE PUSH1 0x40 SWAP1 KECCAK256 SLOAD DUP3 SWAP1 PUSH2 0xD4E SWAP1 DUP11 PUSH2 0x21A9 JUMP JUMPDEST GT ISZERO PUSH2 0xDBA JUMPI PUSH1 0x40 MLOAD PUSH3 0x461BCD PUSH1 0xE5 SHL DUP2 MSTORE PUSH1 0x20 PUSH1 0x4 DUP3 ADD MSTORE PUSH1 0x35 PUSH1 0x24 DUP3 ADD MSTORE PUSH32 0x466972654C6F636B3A20436C61696D20616D6F756E7420657863656564732075 PUSH1 0x44 DUP3 ADD MSTORE PUSH21 0x736572277320616C6C6F776564206D6178696D756D PUSH1 0x58 SHL PUSH1 0x64 DUP3 ADD MSTORE PUSH1 0x84 ADD PUSH2 0x783 JUMP JUMPDEST PUSH2 0xDCE PUSH1 0x1 PUSH1 0x1 PUSH1 0xA0 SHL SUB DUP7 AND CALLER DUP11 PUSH2 0x21B5 JUMP JUMPDEST PUSH1 0xC SLOAD PUSH2 0xDDB SWAP1 DUP10 PUSH2 0x217C JUMP JUMPDEST PUSH1 0xC SSTORE CALLER PUSH1 0x0 SWAP1 DUP2 MSTORE PUSH1 0x15 PUSH1 0x20 SWAP1 DUP2 MSTORE PUSH1 0x40 DUP1 DUP4 KECCAK256 TIMESTAMP SWAP1 SSTORE PUSH1 0x16 SWAP1 SWAP2 MSTORE SWAP1 KECCAK256 SLOAD PUSH2 0xE12 SWAP1 DUP10 SWAP1 PUSH2 0xE0C SWAP1 DUP5 SWAP1 PUSH2 0x21A9 JUMP JUMPDEST SWAP1 PUSH2 0x217C JUMP JUMPDEST CALLER PUSH1 0x0 DUP2 DUP2 MSTORE PUSH1 0x16 PUSH1 0x20 SWAP1 DUP2 MSTORE PUSH1 0x40 DUP1 DUP4 KECCAK256 SWAP5 SWAP1 SWAP5 SSTORE DUP4 MLOAD PUSH1 0x60 DUP2 ADD DUP6 MSTORE DUP4 DUP2 MSTORE DUP1 DUP3 ADD DUP14 DUP2 MSTORE TIMESTAMP DUP3 DUP8 ADD SWAP1 DUP2 MSTORE PUSH1 0x13 DUP1 SLOAD PUSH1 0x1 DUP2 ADD DUP3 SSTORE SWAP1 DUP7 MSTORE DUP4 MLOAD PUSH32 0x66DE8FFDA797E3DE9C05E8FC57B3BF0EC28A930D40B0D285D93C06501CF6A090 PUSH1 0x3 SWAP1 SWAP3 MUL SWAP2 DUP3 ADD DUP1 SLOAD PUSH1 0x1 PUSH1 0x1 PUSH1 0xA0 SHL SUB NOT AND PUSH1 0x1 PUSH1 0x1 PUSH1 0xA0 SHL SUB SWAP1 SWAP3 AND SWAP2 SWAP1 SWAP2 OR SWAP1 SSTORE SWAP2 MLOAD PUSH32 0x66DE8FFDA797E3DE9C05E8FC57B3BF0EC28A930D40B0D285D93C06501CF6A091 DUP4 ADD SSTORE MLOAD PUSH32 0x66DE8FFDA797E3DE9C05E8FC57B3BF0EC28A930D40B0D285D93C06501CF6A092 SWAP1 SWAP2 ADD SSTORE SWAP3 DUP3 MSTORE PUSH1 0x14 SWAP1 MSTORE SWAP2 SWAP1 SWAP2 KECCAK256 SLOAD PUSH2 0xEF7 SWAP1 DUP11 PUSH2 0x21A9 JUMP JUMPDEST CALLER PUSH1 0x0 SWAP1 DUP2 MSTORE PUSH1 0x14 PUSH1 0x20 MSTORE PUSH1 0x40 SWAP1 DUP2 SWAP1 KECCAK256 SWAP2 SWAP1 SWAP2 SSTORE PUSH1 0x1 SLOAD SWAP1 MLOAD PUSH4 0x162D870B PUSH1 0xE3 SHL DUP2 MSTORE ADDRESS PUSH1 0x4 DUP3 ADD MSTORE PUSH1 0x24 DUP2 ADD DUP12 SWAP1 MSTORE PUSH1 0x1 PUSH1 0x1 PUSH1 0xA0 SHL SUB SWAP1 SWAP2 AND SWAP1 PUSH4 0xB16C3858 SWAP1 PUSH1 0x44 ADD PUSH1 0x0 PUSH1 0x40 MLOAD DUP1 DUP4 SUB DUP2 PUSH1 0x0 DUP8 DUP1 EXTCODESIZE ISZERO DUP1 ISZERO PUSH2 0xF57 JUMPI PUSH1 0x0 DUP1 REVERT JUMPDEST POP GAS CALL ISZERO DUP1 ISZERO PUSH2 0xF6B JUMPI RETURNDATASIZE PUSH1 0x0 DUP1 RETURNDATACOPY RETURNDATASIZE PUSH1 0x0 REVERT JUMPDEST POP POP POP POP PUSH1 0x8 PUSH1 0x4 ADD SLOAD PUSH1 0x0 SUB PUSH2 0xF89 JUMPI PUSH1 0x0 DUP1 SLOAD PUSH3 0xFF0000 NOT AND SWAP1 SSTORE JUMPDEST POP POP PUSH1 0x0 DUP1 SLOAD PUSH1 0xFF NOT AND SWAP1 SSTORE POP POP POP POP POP POP POP JUMP JUMPDEST PUSH1 0x0 DUP1 PUSH1 0x8 PUSH1 0x9 ADD DUP4 DUP2 SLOAD DUP2 LT PUSH2 0xFB7 JUMPI PUSH2 0xFB7 PUSH2 0x2B81 JUMP JUMPDEST PUSH1 0x0 SWAP2 DUP3 MSTORE PUSH1 0x20 SWAP1 SWAP2 KECCAK256 ADD SLOAD PUSH1 0x11 SLOAD PUSH1 0x1 PUSH1 0x1 PUSH1 0xA0 SHL SUB SWAP1 SWAP2 AND SWAP2 POP DUP4 LT PUSH2 0x1021 JUMPI PUSH1 0x40 MLOAD PUSH3 0x461BCD PUSH1 0xE5 SHL DUP2 MSTORE PUSH1 0x20 PUSH1 0x4 DUP3 ADD MSTORE PUSH1 0x1D PUSH1 0x24 DUP3 ADD MSTORE PUSH32 0x466972654C6F636B3A205573657220646F6573206E6F74206578697374000000 PUSH1 0x44 DUP3 ADD MSTORE PUSH1 0x64 ADD PUSH2 0x783 JUMP JUMPDEST PUSH1 0x1 PUSH1 0x1 PUSH1 0xA0 SHL SUB DUP2 AND PUSH2 0x1077 JUMPI PUSH1 0x40 MLOAD PUSH3 0x461BCD PUSH1 0xE5 SHL DUP2 MSTORE PUSH1 0x20 PUSH1 0x4 DUP3 ADD MSTORE PUSH1 0x1D PUSH1 0x24 DUP3 ADD MSTORE PUSH32 0x466972654C6F636B3A205573657220646F6573206E6F74206578697374000000 PUSH1 0x44 DUP3 ADD MSTORE PUSH1 0x64 ADD PUSH2 0x783 JUMP JUMPDEST PUSH1 0x1 PUSH1 0x1 PUSH1 0xA0 SHL SUB DUP2 AND PUSH1 0x0 SWAP1 DUP2 MSTORE PUSH1 0x15 PUSH1 0x20 MSTORE PUSH1 0x40 DUP2 KECCAK256 SLOAD DUP2 SUB PUSH2 0x110B JUMPI PUSH2 0x1104 PUSH3 0x15180 PUSH2 0xB8C PUSH1 0x8 PUSH1 0x5 ADD SLOAD PUSH2 0xBCE PUSH1 0x8 PUSH1 0x6 ADD SLOAD PUSH2 0xBCE PUSH1 0x64 PUSH2 0xBCE PUSH2 0x10CF PUSH1 0x8 PUSH1 0x2 ADD SLOAD TIMESTAMP PUSH2 0x217C SWAP1 SWAP2 SWAP1 PUSH4 0xFFFFFFFF AND JUMP JUMPDEST PUSH2 0xB8C PUSH1 0x8 PUSH1 0x7 ADD DUP16 DUP2 SLOAD DUP2 LT PUSH2 0x10E8 JUMPI PUSH2 0x10E8 PUSH2 0x2B81 JUMP JUMPDEST SWAP1 PUSH1 0x0 MSTORE PUSH1 0x20 PUSH1 0x0 KECCAK256 ADD SLOAD PUSH1 0x6 SLOAD PUSH2 0x2191 SWAP1 SWAP2 SWAP1 PUSH4 0xFFFFFFFF AND JUMP JUMPDEST SWAP1 POP PUSH2 0x1151 JUMP JUMPDEST PUSH1 0xD SLOAD PUSH1 0xE SLOAD PUSH1 0x1 PUSH1 0x1 PUSH1 0xA0 SHL SUB DUP5 AND PUSH1 0x0 SWAP1 DUP2 MSTORE PUSH1 0x15 PUSH1 0x20 MSTORE PUSH1 0x40 SWAP1 KECCAK256 SLOAD PUSH2 0x114E SWAP3 PUSH3 0x15180 SWAP3 PUSH2 0xB8C SWAP3 PUSH2 0xBCE SWAP2 SWAP1 DUP3 SWAP1 PUSH1 0x64 SWAP1 DUP3 SWAP1 PUSH2 0x10CF SWAP1 TIMESTAMP SWAP1 PUSH2 0x217C JUMP JUMPDEST SWAP1 POP JUMPDEST SWAP4 SWAP3 POP POP POP JUMP JUMPDEST PUSH1 0x60 PUSH1 0x8 PUSH1 0x7 ADD DUP1 SLOAD DUP1 PUSH1 0x20 MUL PUSH1 0x20 ADD PUSH1 0x40 MLOAD SWAP1 DUP2 ADD PUSH1 0x40 MSTORE DUP1 SWAP3 SWAP2 SWAP1 DUP2 DUP2 MSTORE PUSH1 0x20 ADD DUP3 DUP1 SLOAD DUP1 ISZERO PUSH2 0x641 JUMPI PUSH1 0x20 MUL DUP3 ADD SWAP2 SWAP1 PUSH1 0x0 MSTORE PUSH1 0x20 PUSH1 0x0 KECCAK256 SWAP1 JUMPDEST DUP2 SLOAD DUP2 MSTORE PUSH1 0x20 ADD SWAP1 PUSH1 0x1 ADD SWAP1 DUP1 DUP4 GT PUSH2 0x1195 JUMPI POP POP POP POP POP SWAP1 POP SWAP1 JUMP JUMPDEST PUSH1 0x3 SLOAD PUSH1 0x40 DUP1 MLOAD PUSH4 0xCED72F87 PUSH1 0xE0 SHL DUP2 MSTORE SWAP1 MLOAD PUSH1 0x0 SWAP3 PUSH1 0x1 PUSH1 0x1 PUSH1 0xA0 SHL SUB AND SWAP2 PUSH4 0xCED72F87 SWAP2 PUSH1 0x4 DUP1 DUP4 ADD SWAP3 PUSH1 0x20 SWAP3 SWAP2 SWAP1 DUP3 SWAP1 SUB ADD DUP2 DUP7 GAS STATICCALL ISZERO DUP1 ISZERO PUSH2 0x11FC JUMPI RETURNDATASIZE PUSH1 0x0 DUP1 RETURNDATACOPY RETURNDATASIZE PUSH1 0x0 REVERT JUMPDEST POP POP POP POP PUSH1 0x40 MLOAD RETURNDATASIZE PUSH1 0x1F NOT PUSH1 0x1F DUP3 ADD AND DUP3 ADD DUP1 PUSH1 0x40 MSTORE POP DUP2 ADD SWAP1 PUSH2 0x1220 SWAP2 SWAP1 PUSH2 0x2B97 JUMP JUMPDEST SWAP1 POP SWAP1 JUMP JUMPDEST PUSH1 0x0 SLOAD PUSH2 0x100 SWAP1 DIV PUSH1 0xFF AND PUSH2 0x1293 JUMPI PUSH1 0x40 MLOAD PUSH3 0x461BCD PUSH1 0xE5 SHL DUP2 MSTORE PUSH1 0x20 PUSH1 0x4 DUP3 ADD MSTORE PUSH1 0x2E PUSH1 0x24 DUP3 ADD MSTORE PUSH32 0x466972654C6F636B3A20596F75206861766520616C7265616479206C6F636B65 PUSH1 0x44 DUP3 ADD MSTORE PUSH14 0x32103A3432903837B9B4BA34B7B7 PUSH1 0x91 SHL PUSH1 0x64 DUP3 ADD MSTORE PUSH1 0x84 ADD PUSH2 0x783 JUMP JUMPDEST PUSH2 0x129C DUP5 PUSH2 0x1D35 JUMP JUMPDEST PUSH2 0x12E8 JUMPI PUSH1 0x40 MLOAD PUSH3 0x461BCD PUSH1 0xE5 SHL DUP2 MSTORE PUSH1 0x20 PUSH1 0x4 DUP3 ADD MSTORE PUSH1 0x1F PUSH1 0x24 DUP3 ADD MSTORE PUSH32 0x466972654C6F636B3A2061646472657373206973206E6F7420756E6971756500 PUSH1 0x44 DUP3 ADD MSTORE PUSH1 0x64 ADD PUSH2 0x783 JUMP JUMPDEST PUSH1 0x0 DUP5 MLOAD GT DUP1 ISZERO PUSH2 0x12FA JUMPI POP PUSH1 0x0 DUP4 MLOAD GT JUMPDEST PUSH2 0x135A JUMPI PUSH1 0x40 MLOAD PUSH3 0x461BCD PUSH1 0xE5 SHL DUP2 MSTORE PUSH1 0x20 PUSH1 0x4 DUP3 ADD MSTORE PUSH1 0x2B PUSH1 0x24 DUP3 ADD MSTORE PUSH32 0x466972654C6F636B3A204164647265737320616E64207363616C652063616E6E PUSH1 0x44 DUP3 ADD MSTORE PUSH11 0x6F7420626520656D707479 PUSH1 0xA8 SHL PUSH1 0x64 DUP3 ADD MSTORE PUSH1 0x84 ADD PUSH2 0x783 JUMP JUMPDEST DUP3 MLOAD DUP5 MLOAD EQ PUSH2 0x13AB JUMPI PUSH1 0x40 MLOAD PUSH3 0x461BCD PUSH1 0xE5 SHL DUP2 MSTORE PUSH1 0x20 PUSH1 0x4 DUP3 ADD MSTORE PUSH1 0x1B PUSH1 0x24 DUP3 ADD MSTORE PUSH32 0x466972654C6F636B3A207573657220616D6F756E74206572726F720000000000 PUSH1 0x44 DUP3 ADD MSTORE PUSH1 0x64 ADD PUSH2 0x783 JUMP JUMPDEST PUSH1 0x0 JUMPDEST DUP5 MLOAD DUP2 LT ISZERO PUSH2 0x1462 JUMPI PUSH2 0x13EC DUP6 DUP3 DUP2 MLOAD DUP2 LT PUSH2 0x13CC JUMPI PUSH2 0x13CC PUSH2 0x2B81 JUMP JUMPDEST PUSH1 0x20 MUL PUSH1 0x20 ADD ADD MLOAD PUSH1 0x1 PUSH1 0x1 PUSH1 0xA0 SHL SUB AND PUSH1 0x1 PUSH1 0x1 PUSH1 0xA0 SHL SUB AND EXTCODESIZE ISZERO ISZERO SWAP1 JUMP JUMPDEST ISZERO PUSH2 0x1450 JUMPI PUSH1 0x40 MLOAD PUSH3 0x461BCD PUSH1 0xE5 SHL DUP2 MSTORE PUSH1 0x20 PUSH1 0x4 DUP3 ADD MSTORE PUSH1 0x2E PUSH1 0x24 DUP3 ADD MSTORE PUSH32 0x466972654C6F636B3A20436F6E7472616374206164647265737320666F756E64 PUSH1 0x44 DUP3 ADD MSTORE PUSH14 0x1034B7102FBA379030B93930BC97 PUSH1 0x91 SHL PUSH1 0x64 DUP3 ADD MSTORE PUSH1 0x84 ADD PUSH2 0x783 JUMP JUMPDEST DUP1 PUSH2 0x145A DUP2 PUSH2 0x2BC6 JUMP JUMPDEST SWAP2 POP POP PUSH2 0x13AE JUMP JUMPDEST POP PUSH1 0x5 SLOAD PUSH1 0x1 PUSH1 0x1 PUSH1 0xA0 SHL SUB AND CALLER EQ PUSH2 0x14BD JUMPI PUSH1 0x40 MLOAD PUSH3 0x461BCD PUSH1 0xE5 SHL DUP2 MSTORE PUSH1 0x20 PUSH1 0x4 DUP3 ADD DUP2 SWAP1 MSTORE PUSH1 0x24 DUP3 ADD MSTORE PUSH32 0x466972654C6F636B3A20796F7520617265206E6F742063726561742075736572 PUSH1 0x44 DUP3 ADD MSTORE PUSH1 0x64 ADD PUSH2 0x783 JUMP JUMPDEST TIMESTAMP PUSH2 0x14D9 PUSH2 0x14D2 PUSH3 0x15180 PUSH2 0xB8C DUP12 DUP12 PUSH2 0x2191 JUMP JUMPDEST TIMESTAMP SWAP1 PUSH2 0x21A9 JUMP JUMPDEST GT PUSH2 0x154C JUMPI PUSH1 0x40 MLOAD PUSH3 0x461BCD PUSH1 0xE5 SHL DUP2 MSTORE PUSH1 0x20 PUSH1 0x4 DUP3 ADD MSTORE PUSH1 0x3D PUSH1 0x24 DUP3 ADD MSTORE PUSH32 0x466972654C6F636B3A20446561646C696E652073686F756C6420626520626967 PUSH1 0x44 DUP3 ADD MSTORE PUSH32 0x676572207468616E2063757272656E7420626C6F636B206E756D626572000000 PUSH1 0x64 DUP3 ADD MSTORE PUSH1 0x84 ADD PUSH2 0x783 JUMP JUMPDEST PUSH1 0x0 DUP6 GT PUSH2 0x15B6 JUMPI PUSH1 0x40 MLOAD PUSH3 0x461BCD PUSH1 0xE5 SHL DUP2 MSTORE PUSH1 0x20 PUSH1 0x4 DUP3 ADD MSTORE PUSH1 0x31 PUSH1 0x24 DUP3 ADD MSTORE PUSH32 0x466972654C6F636B3A20546F6B656E20616D6F756E742073686F756C64206265 PUSH1 0x44 DUP3 ADD MSTORE PUSH17 0x20626967676572207468616E207A65726F PUSH1 0x78 SHL PUSH1 0x64 DUP3 ADD MSTORE PUSH1 0x84 ADD PUSH2 0x783 JUMP JUMPDEST PUSH2 0x15BF DUP4 PUSH2 0x1F0E JUMP JUMPDEST PUSH2 0x1602 JUMPI PUSH1 0x40 MLOAD PUSH3 0x461BCD PUSH1 0xE5 SHL DUP2 MSTORE PUSH1 0x20 PUSH1 0x4 DUP3 ADD MSTORE PUSH1 0x14 PUSH1 0x24 DUP3 ADD MSTORE PUSH20 0x2334B932A637B1B59D103930BA329032B93937B9 PUSH1 0x61 SHL PUSH1 0x44 DUP3 ADD MSTORE PUSH1 0x64 ADD PUSH2 0x783 JUMP JUMPDEST PUSH1 0x0 DUP8 GT DUP1 ISZERO PUSH2 0x1612 JUMPI POP PUSH1 0x0 DUP7 GT JUMPDEST PUSH2 0x166E JUMPI PUSH1 0x40 MLOAD PUSH3 0x461BCD PUSH1 0xE5 SHL DUP2 MSTORE PUSH1 0x20 PUSH1 0x4 DUP3 ADD MSTORE PUSH1 0x27 PUSH1 0x24 DUP3 ADD MSTORE PUSH32 0x466972654C6F636B3A20506572696F6420616E6420726F756E6420696E707574 PUSH1 0x44 DUP3 ADD MSTORE PUSH7 0x206572726F7273 PUSH1 0xC8 SHL PUSH1 0x64 DUP3 ADD MSTORE PUSH1 0x84 ADD PUSH2 0x783 JUMP JUMPDEST PUSH1 0x0 DUP3 MLOAD GT PUSH2 0x16CB JUMPI PUSH1 0x40 MLOAD PUSH3 0x461BCD PUSH1 0xE5 SHL DUP2 MSTORE PUSH1 0x20 PUSH1 0x4 DUP3 ADD MSTORE PUSH1 0x23 PUSH1 0x24 DUP3 ADD MSTORE PUSH32 0x466972654C6F636B3A20537472696E67206D757374206E6F7420626520656D70 PUSH1 0x44 DUP3 ADD MSTORE PUSH3 0x3A3C97 PUSH1 0xE9 SHL PUSH1 0x64 DUP3 ADD MSTORE PUSH1 0x84 ADD PUSH2 0x783 JUMP JUMPDEST CALLER PUSH1 0x0 PUSH2 0x16DE PUSH2 0x14D2 DUP5 PUSH3 0x15180 PUSH2 0x2191 JUMP JUMPDEST SWAP1 POP PUSH1 0x0 PUSH2 0x16FD PUSH2 0x16F6 PUSH3 0x15180 PUSH2 0xB8C DUP14 DUP14 PUSH2 0x21A9 JUMP JUMPDEST DUP4 SWAP1 PUSH2 0x21A9 JUMP JUMPDEST SWAP1 POP CALLVALUE PUSH1 0x0 SUB PUSH2 0x1739 JUMPI PUSH1 0x0 SLOAD PUSH2 0x1734 SWAP1 PUSH4 0x1000000 SWAP1 DIV PUSH1 0x1 PUSH1 0x1 PUSH1 0xA0 SHL SUB AND CALLER PUSH2 0x1727 PUSH2 0x1DE1 JUMP JUMPDEST PUSH2 0x172F PUSH2 0x11B2 JUMP JUMPDEST PUSH2 0x220C JUMP JUMPDEST PUSH2 0x187E JUMP JUMPDEST PUSH2 0x1741 PUSH2 0x11B2 JUMP JUMPDEST CALLVALUE EQ PUSH2 0x177E JUMPI PUSH1 0x40 MLOAD PUSH3 0x461BCD PUSH1 0xE5 SHL DUP2 MSTORE PUSH1 0x20 PUSH1 0x4 DUP3 ADD MSTORE PUSH1 0xC PUSH1 0x24 DUP3 ADD MSTORE PUSH12 0x20B6B7BAB73A1032B93937B9 PUSH1 0xA1 SHL PUSH1 0x44 DUP3 ADD MSTORE PUSH1 0x64 ADD PUSH2 0x783 JUMP JUMPDEST PUSH1 0x0 SLOAD PUSH4 0x1000000 SWAP1 DIV PUSH1 0x1 PUSH1 0x1 PUSH1 0xA0 SHL SUB AND PUSH4 0xD0E30DB0 PUSH2 0x179E PUSH2 0x11B2 JUMP JUMPDEST PUSH1 0x40 MLOAD DUP3 PUSH4 0xFFFFFFFF AND PUSH1 0xE0 SHL DUP2 MSTORE PUSH1 0x4 ADD PUSH1 0x0 PUSH1 0x40 MLOAD DUP1 DUP4 SUB DUP2 DUP6 DUP9 DUP1 EXTCODESIZE ISZERO DUP1 ISZERO PUSH2 0x17C9 JUMPI PUSH1 0x0 DUP1 REVERT JUMPDEST POP GAS CALL ISZERO DUP1 ISZERO PUSH2 0x17DD JUMPI RETURNDATASIZE PUSH1 0x0 DUP1 RETURNDATACOPY RETURNDATASIZE PUSH1 0x0 REVERT JUMPDEST POP POP PUSH1 0x0 SLOAD PUSH4 0x1000000 SWAP1 DIV PUSH1 0x1 PUSH1 0x1 PUSH1 0xA0 SHL SUB AND SWAP3 POP PUSH4 0xA9059CBB SWAP2 POP PUSH2 0x1805 SWAP1 POP PUSH2 0x1DE1 JUMP JUMPDEST PUSH2 0x180D PUSH2 0x11B2 JUMP JUMPDEST PUSH1 0x40 MLOAD PUSH1 0x1 PUSH1 0x1 PUSH1 0xE0 SHL SUB NOT PUSH1 0xE0 DUP6 SWAP1 SHL AND DUP2 MSTORE PUSH1 0x1 PUSH1 0x1 PUSH1 0xA0 SHL SUB SWAP1 SWAP3 AND PUSH1 0x4 DUP4 ADD MSTORE PUSH1 0x24 DUP3 ADD MSTORE PUSH1 0x44 ADD PUSH1 0x20 PUSH1 0x40 MLOAD DUP1 DUP4 SUB DUP2 PUSH1 0x0 DUP8 GAS CALL ISZERO DUP1 ISZERO PUSH2 0x1858 JUMPI RETURNDATASIZE PUSH1 0x0 DUP1 RETURNDATACOPY RETURNDATASIZE PUSH1 0x0 REVERT JUMPDEST POP POP POP POP PUSH1 0x40 MLOAD RETURNDATASIZE PUSH1 0x1F NOT PUSH1 0x1F DUP3 ADD AND DUP3 ADD DUP1 PUSH1 0x40 MSTORE POP DUP2 ADD SWAP1 PUSH2 0x187C SWAP2 SWAP1 PUSH2 0x2BDF JUMP JUMPDEST POP JUMPDEST PUSH1 0x40 DUP1 MLOAD PUSH2 0x160 DUP2 ADD DUP3 MSTORE DUP7 DUP2 MSTORE PUSH1 0x20 DUP2 ADD DUP4 SWAP1 MSTORE SWAP1 DUP2 ADD DUP4 SWAP1 MSTORE PUSH1 0x1 PUSH1 0x1 PUSH1 0xA0 SHL SUB DUP1 DUP14 AND PUSH1 0x60 DUP4 ADD MSTORE PUSH1 0x80 DUP3 ADD DUP11 SWAP1 MSTORE PUSH1 0xA0 DUP3 ADD DUP13 SWAP1 MSTORE PUSH1 0xC0 DUP3 ADD DUP12 SWAP1 MSTORE PUSH1 0xE0 DUP3 ADD DUP9 SWAP1 MSTORE DUP14 AND PUSH2 0x100 DUP3 ADD MSTORE PUSH2 0x120 DUP2 ADD DUP9 SWAP1 MSTORE PUSH2 0x140 DUP2 ADD DUP4 SWAP1 MSTORE DUP1 PUSH1 0x8 DUP1 PUSH2 0x18EB DUP10 DUP3 PUSH2 0x2C47 JUMP JUMPDEST POP PUSH1 0x20 DUP3 DUP2 ADD MLOAD PUSH1 0x1 DUP4 ADD SSTORE PUSH1 0x40 DUP4 ADD MLOAD PUSH1 0x2 DUP4 ADD SSTORE PUSH1 0x60 DUP4 ADD MLOAD PUSH1 0x3 DUP4 ADD DUP1 SLOAD PUSH1 0x1 PUSH1 0x1 PUSH1 0xA0 SHL SUB NOT AND PUSH1 0x1 PUSH1 0x1 PUSH1 0xA0 SHL SUB SWAP1 SWAP3 AND SWAP2 SWAP1 SWAP2 OR SWAP1 SSTORE PUSH1 0x80 DUP4 ADD MLOAD PUSH1 0x4 DUP4 ADD SSTORE PUSH1 0xA0 DUP4 ADD MLOAD PUSH1 0x5 DUP4 ADD SSTORE PUSH1 0xC0 DUP4 ADD MLOAD PUSH1 0x6 DUP4 ADD SSTORE PUSH1 0xE0 DUP4 ADD MLOAD DUP1 MLOAD PUSH2 0x195C SWAP3 PUSH1 0x7 DUP6 ADD SWAP3 ADD SWAP1 PUSH2 0x258E JUMP JUMPDEST POP PUSH2 0x100 DUP3 ADD MLOAD PUSH1 0x8 DUP3 ADD DUP1 SLOAD PUSH1 0x1 PUSH1 0x1 PUSH1 0xA0 SHL SUB NOT AND PUSH1 0x1 PUSH1 0x1 PUSH1 0xA0 SHL SUB SWAP1 SWAP3 AND SWAP2 SWAP1 SWAP2 OR SWAP1 SSTORE PUSH2 0x120 DUP3 ADD MLOAD DUP1 MLOAD PUSH2 0x19A0 SWAP2 PUSH1 0x9 DUP5 ADD SWAP2 PUSH1 0x20 SWAP1 SWAP2 ADD SWAP1 PUSH2 0x25D9 JUMP JUMPDEST POP PUSH2 0x140 SWAP2 SWAP1 SWAP2 ADD MLOAD PUSH1 0xA SWAP1 SWAP2 ADD SSTORE PUSH1 0x40 MLOAD PUSH4 0x23B872DD PUSH1 0xE0 SHL DUP2 MSTORE PUSH1 0x1 PUSH1 0x1 PUSH1 0xA0 SHL SUB DUP6 DUP2 AND PUSH1 0x4 DUP4 ADD MSTORE ADDRESS PUSH1 0x24 DUP4 ADD MSTORE PUSH1 0x44 DUP3 ADD DUP12 SWAP1 MSTORE DUP15 AND SWAP1 PUSH4 0x23B872DD SWAP1 PUSH1 0x64 ADD PUSH1 0x20 PUSH1 0x40 MLOAD DUP1 DUP4 SUB DUP2 PUSH1 0x0 DUP8 GAS CALL ISZERO DUP1 ISZERO PUSH2 0x1A04 JUMPI RETURNDATASIZE PUSH1 0x0 DUP1 RETURNDATACOPY RETURNDATASIZE PUSH1 0x0 REVERT JUMPDEST POP POP POP POP PUSH1 0x40 MLOAD RETURNDATASIZE PUSH1 0x1F NOT PUSH1 0x1F DUP3 ADD AND DUP3 ADD DUP1 PUSH1 0x40 MSTORE POP DUP2 ADD SWAP1 PUSH2 0x1A28 SWAP2 SWAP1 PUSH2 0x2BDF JUMP JUMPDEST POP PUSH1 0x0 DUP1 SLOAD PUSH2 0xFF00 NOT AND SWAP1 SSTORE PUSH1 0x1 SLOAD DUP2 MLOAD PUSH1 0x80 DUP4 ADD MLOAD PUSH1 0x40 DUP1 DUP6 ADD MLOAD PUSH1 0xA0 DUP7 ADD MLOAD PUSH1 0xC0 DUP8 ADD MLOAD PUSH1 0x20 DUP9 ADD MLOAD PUSH1 0x60 DUP10 ADD MLOAD SWAP5 MLOAD PUSH4 0x5D78589B PUSH1 0xE1 SHL DUP2 MSTORE PUSH1 0x1 PUSH1 0x1 PUSH1 0xA0 SHL SUB SWAP1 SWAP9 AND SWAP8 PUSH4 0xBAF0B136 SWAP8 PUSH2 0x1A92 SWAP8 ADDRESS SWAP8 SWAP2 SWAP7 SWAP1 SWAP6 TIMESTAMP SWAP6 SWAP2 SWAP5 SWAP1 SWAP4 SWAP2 SWAP3 SWAP1 SWAP2 PUSH1 0x4 ADD PUSH2 0x2D07 JUMP JUMPDEST PUSH1 0x0 PUSH1 0x40 MLOAD DUP1 DUP4 SUB DUP2 PUSH1 0x0 DUP8 DUP1 EXTCODESIZE ISZERO DUP1 ISZERO PUSH2 0x1AAC JUMPI PUSH1 0x0 DUP1 REVERT JUMPDEST POP GAS CALL ISZERO DUP1 ISZERO PUSH2 0x1AC0 JUMPI RETURNDATASIZE PUSH1 0x0 DUP1 RETURNDATACOPY RETURNDATASIZE PUSH1 0x0 REVERT JUMPDEST POP POP POP PUSH1 0x6 DUP11 SWAP1 SSTORE POP PUSH2 0x1AD1 PUSH2 0x233C JUMP JUMPDEST PUSH1 0x1 DUP1 SLOAD PUSH1 0x40 MLOAD PUSH4 0xEBDCC19B PUSH1 0xE0 SHL DUP2 MSTORE ADDRESS PUSH1 0x4 DUP3 ADD MSTORE PUSH1 0x24 DUP2 ADD SWAP3 SWAP1 SWAP3 MSTORE PUSH1 0x1 PUSH1 0x1 PUSH1 0xA0 SHL SUB AND SWAP1 PUSH4 0xEBDCC19B SWAP1 PUSH1 0x44 ADD PUSH1 0x0 PUSH1 0x40 MLOAD DUP1 DUP4 SUB DUP2 PUSH1 0x0 DUP8 DUP1 EXTCODESIZE ISZERO DUP1 ISZERO PUSH2 0x1B1D JUMPI PUSH1 0x0 DUP1 REVERT JUMPDEST POP GAS CALL ISZERO DUP1 ISZERO PUSH2 0x1B31 JUMPI RETURNDATASIZE PUSH1 0x0 DUP1 RETURNDATACOPY RETURNDATASIZE PUSH1 0x0 REVERT JUMPDEST POP POP POP POP POP POP POP POP POP POP POP POP POP POP POP POP POP JUMP JUMPDEST PUSH1 0xB SLOAD PUSH1 0x1 PUSH1 0x1 PUSH1 0xA0 SHL SUB AND CALLER EQ PUSH2 0x1B9E JUMPI PUSH1 0x40 MLOAD PUSH3 0x461BCD PUSH1 0xE5 SHL DUP2 MSTORE PUSH1 0x20 PUSH1 0x4 DUP3 ADD MSTORE PUSH1 0x1B PUSH1 0x24 DUP3 ADD MSTORE PUSH32 0x466972654C6F636B3A20796F7520617265206E6F742061646D696E0000000000 PUSH1 0x44 DUP3 ADD MSTORE PUSH1 0x64 ADD PUSH2 0x783 JUMP JUMPDEST PUSH1 0xF SLOAD DUP2 MLOAD EQ PUSH2 0x1BF0 JUMPI PUSH1 0x40 MLOAD PUSH3 0x461BCD PUSH1 0xE5 SHL DUP2 MSTORE PUSH1 0x20 PUSH1 0x4 DUP3 ADD MSTORE PUSH1 0x1B PUSH1 0x24 DUP3 ADD MSTORE PUSH32 0x466972654C6F636B3A2072617465206973206E6F74206D617463680000000000 PUSH1 0x44 DUP3 ADD MSTORE PUSH1 0x64 ADD PUSH2 0x783 JUMP JUMPDEST PUSH1 0x11 SLOAD DUP2 MLOAD EQ PUSH2 0x1C42 JUMPI PUSH1 0x40 MLOAD PUSH3 0x461BCD PUSH1 0xE5 SHL DUP2 MSTORE PUSH1 0x20 PUSH1 0x4 DUP3 ADD MSTORE PUSH1 0x1B PUSH1 0x24 DUP3 ADD MSTORE PUSH32 0x466972654C6F636B3A2072617465206973206E6F74206D617463680000000000 PUSH1 0x44 DUP3 ADD MSTORE PUSH1 0x64 ADD PUSH2 0x783 JUMP JUMPDEST PUSH1 0x0 JUMPDEST PUSH1 0xF SLOAD DUP2 LT ISZERO PUSH2 0x1C9D JUMPI DUP2 DUP2 DUP2 MLOAD DUP2 LT PUSH2 0x1C61 JUMPI PUSH2 0x1C61 PUSH2 0x2B81 JUMP JUMPDEST PUSH1 0x20 MUL PUSH1 0x20 ADD ADD MLOAD PUSH1 0x8 PUSH1 0x7 ADD DUP3 DUP2 SLOAD DUP2 LT PUSH2 0x1C7F JUMPI PUSH2 0x1C7F PUSH2 0x2B81 JUMP JUMPDEST PUSH1 0x0 SWAP2 DUP3 MSTORE PUSH1 0x20 SWAP1 SWAP2 KECCAK256 ADD SSTORE DUP1 PUSH2 0x1C95 DUP2 PUSH2 0x2BC6 JUMP JUMPDEST SWAP2 POP POP PUSH2 0x1C45 JUMP JUMPDEST POP PUSH2 0x1CA6 PUSH2 0x233C JUMP JUMPDEST POP JUMP JUMPDEST PUSH1 0x60 PUSH1 0x8 PUSH1 0x0 ADD DUP1 SLOAD PUSH2 0x1CBB SWAP1 PUSH2 0x2AFA JUMP JUMPDEST DUP1 PUSH1 0x1F ADD PUSH1 0x20 DUP1 SWAP2 DIV MUL PUSH1 0x20 ADD PUSH1 0x40 MLOAD SWAP1 DUP2 ADD PUSH1 0x40 MSTORE DUP1 SWAP3 SWAP2 SWAP1 DUP2 DUP2 MSTORE PUSH1 0x20 ADD DUP3 DUP1 SLOAD PUSH2 0x1CE7 SWAP1 PUSH2 0x2AFA JUMP JUMPDEST DUP1 ISZERO PUSH2 0x641 JUMPI DUP1 PUSH1 0x1F LT PUSH2 0x1D09 JUMPI PUSH2 0x100 DUP1 DUP4 SLOAD DIV MUL DUP4 MSTORE SWAP2 PUSH1 0x20 ADD SWAP2 PUSH2 0x641 JUMP JUMPDEST DUP3 ADD SWAP2 SWAP1 PUSH1 0x0 MSTORE PUSH1 0x20 PUSH1 0x0 KECCAK256 SWAP1 JUMPDEST DUP2 SLOAD DUP2 MSTORE SWAP1 PUSH1 0x1 ADD SWAP1 PUSH1 0x20 ADD DUP1 DUP4 GT PUSH2 0x1D17 JUMPI POP SWAP4 SWAP6 SWAP5 POP POP POP POP POP JUMP JUMPDEST DUP1 MLOAD PUSH1 0x0 SWAP1 DUP2 JUMPDEST DUP2 DUP2 LT ISZERO PUSH2 0x1DD7 JUMPI PUSH1 0x0 PUSH2 0x1D51 DUP3 PUSH1 0x1 PUSH2 0x2D6C JUMP JUMPDEST SWAP1 POP JUMPDEST DUP3 DUP2 LT ISZERO PUSH2 0x1DC4 JUMPI DUP5 DUP2 DUP2 MLOAD DUP2 LT PUSH2 0x1D6E JUMPI PUSH2 0x1D6E PUSH2 0x2B81 JUMP JUMPDEST PUSH1 0x20 MUL PUSH1 0x20 ADD ADD MLOAD PUSH1 0x1 PUSH1 0x1 PUSH1 0xA0 SHL SUB AND DUP6 DUP4 DUP2 MLOAD DUP2 LT PUSH2 0x1D91 JUMPI PUSH2 0x1D91 PUSH2 0x2B81 JUMP JUMPDEST PUSH1 0x20 MUL PUSH1 0x20 ADD ADD MLOAD PUSH1 0x1 PUSH1 0x1 PUSH1 0xA0 SHL SUB AND SUB PUSH2 0x1DB2 JUMPI POP PUSH1 0x0 SWAP5 SWAP4 POP POP POP POP JUMP JUMPDEST DUP1 PUSH2 0x1DBC DUP2 PUSH2 0x2BC6 JUMP JUMPDEST SWAP2 POP POP PUSH2 0x1D54 JUMP JUMPDEST POP DUP1 PUSH2 0x1DCF DUP2 PUSH2 0x2BC6 JUMP JUMPDEST SWAP2 POP POP PUSH2 0x1D3C JUMP JUMPDEST POP PUSH1 0x1 SWAP4 SWAP3 POP POP POP JUMP JUMPDEST PUSH1 0x3 SLOAD PUSH1 0x40 DUP1 MLOAD PUSH4 0x38CC4831 PUSH1 0xE0 SHL DUP2 MSTORE SWAP1 MLOAD PUSH1 0x0 SWAP3 PUSH1 0x1 PUSH1 0x1 PUSH1 0xA0 SHL SUB AND SWAP2 PUSH4 0x38CC4831 SWAP2 PUSH1 0x4 DUP1 DUP4 ADD SWAP3 PUSH1 0x20 SWAP3 SWAP2 SWAP1 DUP3 SWAP1 SUB ADD DUP2 DUP7 GAS STATICCALL ISZERO DUP1 ISZERO PUSH2 0x1E2B JUMPI RETURNDATASIZE PUSH1 0x0 DUP1 RETURNDATACOPY RETURNDATASIZE PUSH1 0x0 REVERT JUMPDEST POP POP POP POP PUSH1 0x40 MLOAD RETURNDATASIZE PUSH1 0x1F NOT PUSH1 0x1F DUP3 ADD AND DUP3 ADD DUP1 PUSH1 0x40 MSTORE POP DUP2 ADD SWAP1 PUSH2 0x1220 SWAP2 SWAP1 PUSH2 0x2D7F JUMP JUMPDEST PUSH1 0x11 SLOAD PUSH1 0x0 SWAP1 DUP2 JUMPDEST DUP2 DUP2 LT ISZERO PUSH2 0x1EAB JUMPI PUSH1 0x11 DUP1 SLOAD DUP3 SWAP1 DUP2 LT PUSH2 0x1E73 JUMPI PUSH2 0x1E73 PUSH2 0x2B81 JUMP JUMPDEST PUSH1 0x0 SWAP2 DUP3 MSTORE PUSH1 0x20 SWAP1 SWAP2 KECCAK256 ADD SLOAD PUSH1 0x1 PUSH1 0x1 PUSH1 0xA0 SHL SUB SWAP1 DUP2 AND SWAP1 DUP6 AND SUB PUSH2 0x1E99 JUMPI SWAP4 SWAP3 POP POP POP JUMP JUMPDEST DUP1 PUSH2 0x1EA3 DUP2 PUSH2 0x2BC6 JUMP JUMPDEST SWAP2 POP POP PUSH2 0x1E57 JUMP JUMPDEST POP PUSH1 0x40 MLOAD PUSH3 0x461BCD PUSH1 0xE5 SHL DUP2 MSTORE PUSH1 0x20 PUSH1 0x4 DUP3 ADD MSTORE PUSH1 0x31 PUSH1 0x24 DUP3 ADD MSTORE PUSH32 0x466972654C6F636B3A20596F7520617265206E6F7420612075736572206F6620 PUSH1 0x44 DUP3 ADD MSTORE PUSH17 0x74686973206C6F636B2061646472657373 PUSH1 0x78 SHL PUSH1 0x64 DUP3 ADD MSTORE PUSH1 0x84 ADD PUSH2 0x783 JUMP JUMPDEST PUSH1 0x0 DUP1 DUP1 JUMPDEST DUP4 MLOAD DUP2 LT ISZERO PUSH2 0x1F68 JUMPI DUP4 DUP2 DUP2 MLOAD DUP2 LT PUSH2 0x1F2E JUMPI PUSH2 0x1F2E PUSH2 0x2B81 JUMP JUMPDEST PUSH1 0x20 MUL PUSH1 0x20 ADD ADD MLOAD DUP3 PUSH2 0x1F41 SWAP2 SWAP1 PUSH2 0x2D6C JUMP JUMPDEST SWAP2 POP PUSH1 0x64 DUP3 GT ISZERO PUSH2 0x1F56 JUMPI POP PUSH1 0x0 SWAP4 SWAP3 POP POP POP JUMP JUMPDEST DUP1 PUSH2 0x1F60 DUP2 PUSH2 0x2BC6 JUMP JUMPDEST SWAP2 POP POP PUSH2 0x1F13 JUMP JUMPDEST POP PUSH1 0x64 EQ SWAP3 SWAP2 POP POP JUMP JUMPDEST PUSH1 0xB SLOAD CALLER SWAP1 PUSH1 0x1 PUSH1 0x1 PUSH1 0xA0 SHL SUB AND DUP1 PUSH2 0x1FCD JUMPI PUSH1 0x40 MLOAD PUSH3 0x461BCD PUSH1 0xE5 SHL DUP2 MSTORE PUSH1 0x20 PUSH1 0x4 DUP3 ADD MSTORE PUSH1 0x1F PUSH1 0x24 DUP3 ADD MSTORE PUSH32 0x466972654C6F636B3A204C6F636B2061646D696E206D75737420657869737400 PUSH1 0x44 DUP3 ADD MSTORE PUSH1 0x64 ADD PUSH2 0x783 JUMP JUMPDEST DUP2 PUSH1 0x1 PUSH1 0x1 PUSH1 0xA0 SHL SUB AND DUP2 PUSH1 0x1 PUSH1 0x1 PUSH1 0xA0 SHL SUB AND EQ PUSH2 0x202E JUMPI PUSH1 0x40 MLOAD PUSH3 0x461BCD PUSH1 0xE5 SHL DUP2 MSTORE PUSH1 0x20 PUSH1 0x4 DUP3 ADD MSTORE PUSH1 0x1E PUSH1 0x24 DUP3 ADD MSTORE PUSH32 0x466972654C6F636B3A2053656E646572206D7573742062652061646D696E0000 PUSH1 0x44 DUP3 ADD MSTORE PUSH1 0x64 ADD PUSH2 0x783 JUMP JUMPDEST PUSH1 0x1 PUSH1 0x1 PUSH1 0xA0 SHL SUB DUP4 AND PUSH2 0x2096 JUMPI PUSH1 0x40 MLOAD PUSH3 0x461BCD PUSH1 0xE5 SHL DUP2 MSTORE PUSH1 0x20 PUSH1 0x4 DUP3 ADD MSTORE PUSH1 0x29 PUSH1 0x24 DUP3 ADD MSTORE PUSH32 0x466972654C6F636B3A207472616E73666572206164647265737320646F657320 PUSH1 0x44 DUP3 ADD MSTORE PUSH9 0x1B9BDD08195E1A5CDD PUSH1 0xBA SHL PUSH1 0x64 DUP3 ADD MSTORE PUSH1 0x84 ADD PUSH2 0x783 JUMP JUMPDEST PUSH1 0xB DUP1 SLOAD PUSH1 0x1 PUSH1 0x1 PUSH1 0xA0 SHL SUB NOT AND PUSH1 0x1 PUSH1 0x1 PUSH1 0xA0 SHL SUB DUP6 DUP2 AND SWAP2 DUP3 OR SWAP1 SWAP3 SSTORE PUSH1 0x1 SLOAD PUSH1 0x40 MLOAD PUSH4 0x751971B7 PUSH1 0xE1 SHL DUP2 MSTORE ADDRESS PUSH1 0x4 DUP3 ADD MSTORE PUSH1 0x24 DUP2 ADD SWAP3 SWAP1 SWAP3 MSTORE SWAP1 SWAP2 AND SWAP1 PUSH4 0xEA32E36E SWAP1 PUSH1 0x44 ADD PUSH1 0x0 PUSH1 0x40 MLOAD DUP1 DUP4 SUB DUP2 PUSH1 0x0 DUP8 DUP1 EXTCODESIZE ISZERO DUP1 ISZERO PUSH2 0x20FA JUMPI PUSH1 0x0 DUP1 REVERT JUMPDEST POP GAS CALL ISZERO DUP1 ISZERO PUSH2 0x210E JUMPI RETURNDATASIZE PUSH1 0x0 DUP1 RETURNDATACOPY RETURNDATASIZE PUSH1 0x0 REVERT JUMPDEST POP POP POP POP POP POP POP JUMP JUMPDEST PUSH1 0x0 DUP1 JUMPDEST PUSH1 0x11 SLOAD DUP2 LT ISZERO PUSH2 0x2173 JUMPI PUSH1 0x11 DUP1 SLOAD DUP3 SWAP1 DUP2 LT PUSH2 0x2139 JUMPI PUSH2 0x2139 PUSH2 0x2B81 JUMP JUMPDEST PUSH1 0x0 SWAP2 DUP3 MSTORE PUSH1 0x20 SWAP1 SWAP2 KECCAK256 ADD SLOAD PUSH1 0x1 PUSH1 0x1 PUSH1 0xA0 SHL SUB SWAP1 DUP2 AND SWAP1 DUP5 AND SUB PUSH2 0x2161 JUMPI POP PUSH1 0x0 SWAP3 SWAP2 POP POP JUMP JUMPDEST DUP1 PUSH2 0x216B DUP2 PUSH2 0x2BC6 JUMP JUMPDEST SWAP2 POP POP PUSH2 0x211B JUMP JUMPDEST POP PUSH1 0x1 SWAP3 SWAP2 POP POP JUMP JUMPDEST PUSH1 0x0 PUSH2 0x2188 DUP3 DUP5 PUSH2 0x2D9C JUMP JUMPDEST SWAP1 POP JUMPDEST SWAP3 SWAP2 POP POP JUMP JUMPDEST PUSH1 0x0 PUSH2 0x2188 DUP3 DUP5 PUSH2 0x2DAF JUMP JUMPDEST PUSH1 0x0 PUSH2 0x2188 DUP3 DUP5 PUSH2 0x2DC6 JUMP JUMPDEST PUSH1 0x0 PUSH2 0x2188 DUP3 DUP5 PUSH2 0x2D6C JUMP JUMPDEST PUSH1 0x40 DUP1 MLOAD PUSH1 0x1 PUSH1 0x1 PUSH1 0xA0 SHL SUB DUP5 AND PUSH1 0x24 DUP3 ADD MSTORE PUSH1 0x44 DUP1 DUP3 ADD DUP5 SWAP1 MSTORE DUP3 MLOAD DUP1 DUP4 SUB SWAP1 SWAP2 ADD DUP2 MSTORE PUSH1 0x64 SWAP1 SWAP2 ADD SWAP1 SWAP2 MSTORE PUSH1 0x20 DUP2 ADD DUP1 MLOAD PUSH1 0x1 PUSH1 0x1 PUSH1 0xE0 SHL SUB AND PUSH4 0xA9059CBB PUSH1 0xE0 SHL OR SWAP1 MSTORE PUSH2 0x2207 SWAP1 DUP5 SWAP1 PUSH2 0x2397 JUMP JUMPDEST POP POP POP JUMP JUMPDEST PUSH1 0x40 DUP1 MLOAD PUSH1 0x1 PUSH1 0x1 PUSH1 0xA0 SHL SUB DUP6 DUP2 AND PUSH1 0x24 DUP4 ADD MSTORE DUP5 DUP2 AND PUSH1 0x44 DUP4 ADD MSTORE PUSH1 0x64 DUP1 DUP4 ADD DUP6 SWAP1 MSTORE DUP4 MLOAD DUP1 DUP5 SUB SWAP1 SWAP2 ADD DUP2 MSTORE PUSH1 0x84 SWAP1 SWAP3 ADD DUP4 MSTORE PUSH1 0x20 DUP3 ADD DUP1 MLOAD PUSH1 0x1 PUSH1 0x1 PUSH1 0xE0 SHL SUB AND PUSH4 0x23B872DD PUSH1 0xE0 SHL OR SWAP1 MSTORE SWAP2 MLOAD PUSH1 0x0 SWAP3 DUP4 SWAP3 SWAP1 DUP9 AND SWAP2 PUSH2 0x2270 SWAP2 SWAP1 PUSH2 0x2DE8 JUMP JUMPDEST PUSH1 0x0 PUSH1 0x40 MLOAD DUP1 DUP4 SUB DUP2 PUSH1 0x0 DUP7 GAS CALL SWAP2 POP POP RETURNDATASIZE DUP1 PUSH1 0x0 DUP2 EQ PUSH2 0x22AD JUMPI PUSH1 0x40 MLOAD SWAP2 POP PUSH1 0x1F NOT PUSH1 0x3F RETURNDATASIZE ADD AND DUP3 ADD PUSH1 0x40 MSTORE RETURNDATASIZE DUP3 MSTORE RETURNDATASIZE PUSH1 0x0 PUSH1 0x20 DUP5 ADD RETURNDATACOPY PUSH2 0x22B2 JUMP JUMPDEST PUSH1 0x60 SWAP2 POP JUMPDEST POP SWAP2 POP SWAP2 POP DUP2 DUP1 ISZERO PUSH2 0x22DC JUMPI POP DUP1 MLOAD ISZERO DUP1 PUSH2 0x22DC JUMPI POP DUP1 DUP1 PUSH1 0x20 ADD SWAP1 MLOAD DUP2 ADD SWAP1 PUSH2 0x22DC SWAP2 SWAP1 PUSH2 0x2BDF JUMP JUMPDEST PUSH2 0x2334 JUMPI PUSH1 0x40 MLOAD PUSH3 0x461BCD PUSH1 0xE5 SHL DUP2 MSTORE PUSH1 0x20 PUSH1 0x4 DUP3 ADD MSTORE PUSH1 0x24 DUP1 DUP3 ADD MSTORE PUSH32 0x5472616E7366657248656C7065723A205452414E534645525F46524F4D5F4641 PUSH1 0x44 DUP3 ADD MSTORE PUSH4 0x12531151 PUSH1 0xE2 SHL PUSH1 0x64 DUP3 ADD MSTORE PUSH1 0x84 ADD PUSH2 0x783 JUMP JUMPDEST POP POP POP POP POP POP JUMP JUMPDEST PUSH1 0x0 DUP1 JUMPDEST PUSH1 0xF SLOAD DUP2 LT ISZERO PUSH2 0x2391 JUMPI PUSH2 0x237D PUSH1 0x8 PUSH1 0x7 ADD DUP3 DUP2 SLOAD DUP2 LT PUSH2 0x2363 JUMPI PUSH2 0x2363 PUSH2 0x2B81 JUMP JUMPDEST SWAP1 PUSH1 0x0 MSTORE PUSH1 0x20 PUSH1 0x0 KECCAK256 ADD SLOAD DUP4 PUSH2 0x21A9 SWAP1 SWAP2 SWAP1 PUSH4 0xFFFFFFFF AND JUMP JUMPDEST SWAP2 POP DUP1 PUSH2 0x2389 DUP2 PUSH2 0x2BC6 JUMP JUMPDEST SWAP2 POP POP PUSH2 0x2340 JUMP JUMPDEST POP PUSH1 0x7 SSTORE JUMP JUMPDEST PUSH1 0x0 PUSH2 0x23EC DUP3 PUSH1 0x40 MLOAD DUP1 PUSH1 0x40 ADD PUSH1 0x40 MSTORE DUP1 PUSH1 0x20 DUP2 MSTORE PUSH1 0x20 ADD PUSH32 0x5361666545524332303A206C6F772D6C6576656C2063616C6C206661696C6564 DUP2 MSTORE POP DUP6 PUSH1 0x1 PUSH1 0x1 PUSH1 0xA0 SHL SUB AND PUSH2 0x2469 SWAP1 SWAP3 SWAP2 SWAP1 PUSH4 0xFFFFFFFF AND JUMP JUMPDEST DUP1 MLOAD SWAP1 SWAP2 POP ISZERO PUSH2 0x2207 JUMPI DUP1 DUP1 PUSH1 0x20 ADD SWAP1 MLOAD DUP2 ADD SWAP1 PUSH2 0x240A SWAP2 SWAP1 PUSH2 0x2BDF JUMP JUMPDEST PUSH2 0x2207 JUMPI PUSH1 0x40 MLOAD PUSH3 0x461BCD PUSH1 0xE5 SHL DUP2 MSTORE PUSH1 0x20 PUSH1 0x4 DUP3 ADD MSTORE PUSH1 0x2A PUSH1 0x24 DUP3 ADD MSTORE PUSH32 0x5361666545524332303A204552433230206F7065726174696F6E20646964206E PUSH1 0x44 DUP3 ADD MSTORE PUSH10 0x1BDD081CDD58D8D95959 PUSH1 0xB2 SHL PUSH1 0x64 DUP3 ADD MSTORE PUSH1 0x84 ADD PUSH2 0x783 JUMP JUMPDEST PUSH1 0x60 PUSH2 0x114E DUP5 DUP5 PUSH1 0x0 DUP6 DUP6 PUSH1 0x0 DUP1 DUP7 PUSH1 0x1 PUSH1 0x1 PUSH1 0xA0 SHL SUB AND DUP6 DUP8 PUSH1 0x40 MLOAD PUSH2 0x2490 SWAP2 SWAP1 PUSH2 0x2DE8 JUMP JUMPDEST PUSH1 0x0 PUSH1 0x40 MLOAD DUP1 DUP4 SUB DUP2 DUP6 DUP8 GAS CALL SWAP3 POP POP POP RETURNDATASIZE DUP1 PUSH1 0x0 DUP2 EQ PUSH2 0x24CD JUMPI PUSH1 0x40 MLOAD SWAP2 POP PUSH1 0x1F NOT PUSH1 0x3F RETURNDATASIZE ADD AND DUP3 ADD PUSH1 0x40 MSTORE RETURNDATASIZE DUP3 MSTORE RETURNDATASIZE PUSH1 0x0 PUSH1 0x20 DUP5 ADD RETURNDATACOPY PUSH2 0x24D2 JUMP JUMPDEST PUSH1 0x60 SWAP2 POP JUMPDEST POP SWAP2 POP SWAP2 POP PUSH2 0x24E3 DUP8 DUP4 DUP4 DUP8 PUSH2 0x24F0 JUMP JUMPDEST SWAP3 POP POP POP JUMPDEST SWAP5 SWAP4 POP POP POP POP JUMP JUMPDEST PUSH1 0x60 DUP4 ISZERO PUSH2 0x255F JUMPI DUP3 MLOAD PUSH1 0x0 SUB PUSH2 0x2558 JUMPI PUSH1 0x1 PUSH1 0x1 PUSH1 0xA0 SHL SUB DUP6 AND EXTCODESIZE PUSH2 0x2558 JUMPI PUSH1 0x40 MLOAD PUSH3 0x461BCD PUSH1 0xE5 SHL DUP2 MSTORE PUSH1 0x20 PUSH1 0x4 DUP3 ADD MSTORE PUSH1 0x1D PUSH1 0x24 DUP3 ADD MSTORE PUSH32 0x416464726573733A2063616C6C20746F206E6F6E2D636F6E7472616374000000 PUSH1 0x44 DUP3 ADD MSTORE PUSH1 0x64 ADD PUSH2 0x783 JUMP JUMPDEST POP DUP2 PUSH2 0x24E8 JUMP JUMPDEST PUSH2 0x24E8 DUP4 DUP4 DUP2 MLOAD ISZERO PUSH2 0x2574 JUMPI DUP2 MLOAD DUP1 DUP4 PUSH1 0x20 ADD REVERT JUMPDEST DUP1 PUSH1 0x40 MLOAD PUSH3 0x461BCD PUSH1 0xE5 SHL DUP2 MSTORE PUSH1 0x4 ADD PUSH2 0x783 SWAP2 SWAP1 PUSH2 0x2A95 JUMP JUMPDEST DUP3 DUP1 SLOAD DUP3 DUP3 SSTORE SWAP1 PUSH1 0x0 MSTORE PUSH1 0x20 PUSH1 0x0 KECCAK256 SWAP1 DUP2 ADD SWAP3 DUP3 ISZERO PUSH2 0x25C9 JUMPI SWAP2 PUSH1 0x20 MUL DUP3 ADD JUMPDEST DUP3 DUP2 GT ISZERO PUSH2 0x25C9 JUMPI DUP3 MLOAD DUP3 SSTORE SWAP2 PUSH1 0x20 ADD SWAP2 SWAP1 PUSH1 0x1 ADD SWAP1 PUSH2 0x25AE JUMP JUMPDEST POP PUSH2 0x25D5 SWAP3 SWAP2 POP PUSH2 0x262E JUMP JUMPDEST POP SWAP1 JUMP JUMPDEST DUP3 DUP1 SLOAD DUP3 DUP3 SSTORE SWAP1 PUSH1 0x0 MSTORE PUSH1 0x20 PUSH1 0x0 KECCAK256 SWAP1 DUP2 ADD SWAP3 DUP3 ISZERO PUSH2 0x25C9 JUMPI SWAP2 PUSH1 0x20 MUL DUP3 ADD JUMPDEST DUP3 DUP2 GT ISZERO PUSH2 0x25C9 JUMPI DUP3 MLOAD DUP3 SLOAD PUSH1 0x1 PUSH1 0x1 PUSH1 0xA0 SHL SUB NOT AND PUSH1 0x1 PUSH1 0x1 PUSH1 0xA0 SHL SUB SWAP1 SWAP2 AND OR DUP3 SSTORE PUSH1 0x20 SWAP1 SWAP3 ADD SWAP2 PUSH1 0x1 SWAP1 SWAP2 ADD SWAP1 PUSH2 0x25F9 JUMP JUMPDEST JUMPDEST DUP1 DUP3 GT ISZERO PUSH2 0x25D5 JUMPI PUSH1 0x0 DUP2 SSTORE PUSH1 0x1 ADD PUSH2 0x262F JUMP JUMPDEST PUSH1 0x20 DUP1 DUP3 MSTORE DUP3 MLOAD DUP3 DUP3 ADD DUP2 SWAP1 MSTORE PUSH1 0x0 SWAP2 SWAP1 DUP5 DUP3 ADD SWAP1 PUSH1 0x40 DUP6 ADD SWAP1 DUP5 JUMPDEST DUP2 DUP2 LT ISZERO PUSH2 0x2684 JUMPI DUP4 MLOAD PUSH1 0x1 PUSH1 0x1 PUSH1 0xA0 SHL SUB AND DUP4 MSTORE SWAP3 DUP5 ADD SWAP3 SWAP2 DUP5 ADD SWAP2 PUSH1 0x1 ADD PUSH2 0x265F JUMP JUMPDEST POP SWAP1 SWAP7 SWAP6 POP POP POP POP POP POP JUMP JUMPDEST PUSH1 0x0 JUMPDEST DUP4 DUP2 LT ISZERO PUSH2 0x26AB JUMPI DUP2 DUP2 ADD MLOAD DUP4 DUP3 ADD MSTORE PUSH1 0x20 ADD PUSH2 0x2693 JUMP JUMPDEST POP POP PUSH1 0x0 SWAP2 ADD MSTORE JUMP JUMPDEST PUSH1 0x0 DUP2 MLOAD DUP1 DUP5 MSTORE PUSH2 0x26CC DUP2 PUSH1 0x20 DUP7 ADD PUSH1 0x20 DUP7 ADD PUSH2 0x2690 JUMP JUMPDEST PUSH1 0x1F ADD PUSH1 0x1F NOT AND SWAP3 SWAP1 SWAP3 ADD PUSH1 0x20 ADD SWAP3 SWAP2 POP POP JUMP JUMPDEST PUSH1 0x0 PUSH2 0x120 DUP1 DUP4 MSTORE PUSH2 0x26F4 DUP2 DUP5 ADD DUP14 PUSH2 0x26B4 JUMP JUMPDEST PUSH1 0x20 DUP5 ADD SWAP12 SWAP1 SWAP12 MSTORE POP POP PUSH1 0x40 DUP2 ADD SWAP8 SWAP1 SWAP8 MSTORE PUSH1 0x1 PUSH1 0x1 PUSH1 0xA0 SHL SUB SWAP6 DUP7 AND PUSH1 0x60 DUP9 ADD MSTORE PUSH1 0x80 DUP8 ADD SWAP5 SWAP1 SWAP5 MSTORE PUSH1 0xA0 DUP7 ADD SWAP3 SWAP1 SWAP3 MSTORE PUSH1 0xC0 DUP6 ADD MSTORE SWAP1 SWAP2 AND PUSH1 0xE0 DUP4 ADD MSTORE PUSH2 0x100 SWAP1 SWAP2 ADD MSTORE SWAP2 SWAP1 POP JUMP JUMPDEST PUSH1 0x0 PUSH1 0x20 DUP3 DUP5 SUB SLT ISZERO PUSH2 0x2751 JUMPI PUSH1 0x0 DUP1 REVERT JUMPDEST POP CALLDATALOAD SWAP2 SWAP1 POP JUMP JUMPDEST PUSH1 0x1 PUSH1 0x1 PUSH1 0xA0 SHL SUB DUP2 AND DUP2 EQ PUSH2 0x1CA6 JUMPI PUSH1 0x0 DUP1 REVERT JUMPDEST DUP1 CALLDATALOAD PUSH2 0x2778 DUP2 PUSH2 0x2758 JUMP JUMPDEST SWAP2 SWAP1 POP JUMP JUMPDEST PUSH1 0x0 DUP1 PUSH1 0x40 DUP4 DUP6 SUB SLT ISZERO PUSH2 0x2790 JUMPI PUSH1 0x0 DUP1 REVERT JUMPDEST DUP3 CALLDATALOAD SWAP2 POP PUSH1 0x20 DUP4 ADD CALLDATALOAD PUSH2 0x27A2 DUP2 PUSH2 0x2758 JUMP JUMPDEST DUP1 SWAP2 POP POP SWAP3 POP SWAP3 SWAP1 POP JUMP JUMPDEST PUSH1 0x20 DUP1 DUP3 MSTORE DUP3 MLOAD DUP3 DUP3 ADD DUP2 SWAP1 MSTORE PUSH1 0x0 SWAP2 SWAP1 DUP5 DUP3 ADD SWAP1 PUSH1 0x40 DUP6 ADD SWAP1 DUP5 JUMPDEST DUP2 DUP2 LT ISZERO PUSH2 0x2684 JUMPI DUP4 MLOAD DUP4 MSTORE SWAP3 DUP5 ADD SWAP3 SWAP2 DUP5 ADD SWAP2 PUSH1 0x1 ADD PUSH2 0x27C9 JUMP JUMPDEST PUSH4 0x4E487B71 PUSH1 0xE0 SHL PUSH1 0x0 MSTORE PUSH1 0x41 PUSH1 0x4 MSTORE PUSH1 0x24 PUSH1 0x0 REVERT JUMPDEST PUSH1 0x40 MLOAD PUSH1 0x1F DUP3 ADD PUSH1 0x1F NOT AND DUP2 ADD PUSH8 0xFFFFFFFFFFFFFFFF DUP2 GT DUP3 DUP3 LT OR ISZERO PUSH2 0x2824 JUMPI PUSH2 0x2824 PUSH2 0x27E5 JUMP JUMPDEST PUSH1 0x40 MSTORE SWAP2 SWAP1 POP JUMP JUMPDEST PUSH1 0x0 PUSH8 0xFFFFFFFFFFFFFFFF DUP3 GT ISZERO PUSH2 0x2846 JUMPI PUSH2 0x2846 PUSH2 0x27E5 JUMP JUMPDEST POP PUSH1 0x5 SHL PUSH1 0x20 ADD SWAP1 JUMP JUMPDEST PUSH1 0x0 DUP3 PUSH1 0x1F DUP4 ADD SLT PUSH2 0x2861 JUMPI PUSH1 0x0 DUP1 REVERT JUMPDEST DUP2 CALLDATALOAD PUSH1 0x20 PUSH2 0x2876 PUSH2 0x2871 DUP4 PUSH2 0x282C JUMP JUMPDEST PUSH2 0x27FB JUMP JUMPDEST DUP3 DUP2 MSTORE PUSH1 0x5 SWAP3 SWAP1 SWAP3 SHL DUP5 ADD DUP2 ADD SWAP2 DUP2 DUP2 ADD SWAP1 DUP7 DUP5 GT ISZERO PUSH2 0x2895 JUMPI PUSH1 0x0 DUP1 REVERT JUMPDEST DUP3 DUP7 ADD JUMPDEST DUP5 DUP2 LT ISZERO PUSH2 0x28B9 JUMPI DUP1 CALLDATALOAD PUSH2 0x28AC DUP2 PUSH2 0x2758 JUMP JUMPDEST DUP4 MSTORE SWAP2 DUP4 ADD SWAP2 DUP4 ADD PUSH2 0x2899 JUMP JUMPDEST POP SWAP7 SWAP6 POP POP POP POP POP POP JUMP JUMPDEST PUSH1 0x0 DUP3 PUSH1 0x1F DUP4 ADD SLT PUSH2 0x28D5 JUMPI PUSH1 0x0 DUP1 REVERT JUMPDEST DUP2 CALLDATALOAD PUSH1 0x20 PUSH2 0x28E5 PUSH2 0x2871 DUP4 PUSH2 0x282C JUMP JUMPDEST DUP3 DUP2 MSTORE PUSH1 0x5 SWAP3 SWAP1 SWAP3 SHL DUP5 ADD DUP2 ADD SWAP2 DUP2 DUP2 ADD SWAP1 DUP7 DUP5 GT ISZERO PUSH2 0x2904 JUMPI PUSH1 0x0 DUP1 REVERT JUMPDEST DUP3 DUP7 ADD JUMPDEST DUP5 DUP2 LT ISZERO PUSH2 0x28B9 JUMPI DUP1 CALLDATALOAD DUP4 MSTORE SWAP2 DUP4 ADD SWAP2 DUP4 ADD PUSH2 0x2908 JUMP JUMPDEST PUSH1 0x0 DUP3 PUSH1 0x1F DUP4 ADD SLT PUSH2 0x2930 JUMPI PUSH1 0x0 DUP1 REVERT JUMPDEST DUP2 CALLDATALOAD PUSH8 0xFFFFFFFFFFFFFFFF DUP2 GT ISZERO PUSH2 0x294A JUMPI PUSH2 0x294A PUSH2 0x27E5 JUMP JUMPDEST PUSH2 0x295D PUSH1 0x1F DUP3 ADD PUSH1 0x1F NOT AND PUSH1 0x20 ADD PUSH2 0x27FB JUMP JUMPDEST DUP2 DUP2 MSTORE DUP5 PUSH1 0x20 DUP4 DUP7 ADD ADD GT ISZERO PUSH2 0x2972 JUMPI PUSH1 0x0 DUP1 REVERT JUMPDEST DUP2 PUSH1 0x20 DUP6 ADD PUSH1 0x20 DUP4 ADD CALLDATACOPY PUSH1 0x0 SWAP2 DUP2 ADD PUSH1 0x20 ADD SWAP2 SWAP1 SWAP2 MSTORE SWAP4 SWAP3 POP POP POP JUMP JUMPDEST PUSH1 0x0 DUP1 PUSH1 0x0 DUP1 PUSH1 0x0 DUP1 PUSH1 0x0 DUP1 PUSH1 0x0 PUSH2 0x120 DUP11 DUP13 SUB SLT ISZERO PUSH2 0x29AE JUMPI PUSH1 0x0 DUP1 REVERT JUMPDEST PUSH2 0x29B7 DUP11 PUSH2 0x276D JUMP JUMPDEST SWAP9 POP PUSH2 0x29C5 PUSH1 0x20 DUP12 ADD PUSH2 0x276D JUMP JUMPDEST SWAP8 POP PUSH1 0x40 DUP11 ADD CALLDATALOAD SWAP7 POP PUSH1 0x60 DUP11 ADD CALLDATALOAD SWAP6 POP PUSH1 0x80 DUP11 ADD CALLDATALOAD SWAP5 POP PUSH1 0xA0 DUP11 ADD CALLDATALOAD PUSH8 0xFFFFFFFFFFFFFFFF DUP1 DUP3 GT ISZERO PUSH2 0x29F7 JUMPI PUSH1 0x0 DUP1 REVERT JUMPDEST PUSH2 0x2A03 DUP14 DUP4 DUP15 ADD PUSH2 0x2850 JUMP JUMPDEST SWAP6 POP PUSH1 0xC0 DUP13 ADD CALLDATALOAD SWAP2 POP DUP1 DUP3 GT ISZERO PUSH2 0x2A19 JUMPI PUSH1 0x0 DUP1 REVERT JUMPDEST PUSH2 0x2A25 DUP14 DUP4 DUP15 ADD PUSH2 0x28C4 JUMP JUMPDEST SWAP5 POP PUSH1 0xE0 DUP13 ADD CALLDATALOAD SWAP2 POP DUP1 DUP3 GT ISZERO PUSH2 0x2A3B JUMPI PUSH1 0x0 DUP1 REVERT JUMPDEST POP PUSH2 0x2A48 DUP13 DUP3 DUP14 ADD PUSH2 0x291F JUMP JUMPDEST SWAP3 POP POP PUSH2 0x100 DUP11 ADD CALLDATALOAD SWAP1 POP SWAP3 SWAP6 SWAP9 POP SWAP3 SWAP6 SWAP9 POP SWAP3 SWAP6 SWAP9 JUMP JUMPDEST PUSH1 0x0 PUSH1 0x20 DUP3 DUP5 SUB SLT ISZERO PUSH2 0x2A72 JUMPI PUSH1 0x0 DUP1 REVERT JUMPDEST DUP2 CALLDATALOAD PUSH8 0xFFFFFFFFFFFFFFFF DUP2 GT ISZERO PUSH2 0x2A89 JUMPI PUSH1 0x0 DUP1 REVERT JUMPDEST PUSH2 0x24E8 DUP5 DUP3 DUP6 ADD PUSH2 0x28C4 JUMP JUMPDEST PUSH1 0x20 DUP2 MSTORE PUSH1 0x0 PUSH2 0x2188 PUSH1 0x20 DUP4 ADD DUP5 PUSH2 0x26B4 JUMP JUMPDEST PUSH1 0x0 PUSH1 0x20 DUP3 DUP5 SUB SLT ISZERO PUSH2 0x2ABA JUMPI PUSH1 0x0 DUP1 REVERT JUMPDEST DUP2 CALLDATALOAD PUSH8 0xFFFFFFFFFFFFFFFF DUP2 GT ISZERO PUSH2 0x2AD1 JUMPI PUSH1 0x0 DUP1 REVERT JUMPDEST PUSH2 0x24E8 DUP5 DUP3 DUP6 ADD PUSH2 0x2850 JUMP JUMPDEST PUSH1 0x0 PUSH1 0x20 DUP3 DUP5 SUB SLT ISZERO PUSH2 0x2AEF JUMPI PUSH1 0x0 DUP1 REVERT JUMPDEST DUP2 CALLDATALOAD PUSH2 0x1151 DUP2 PUSH2 0x2758 JUMP JUMPDEST PUSH1 0x1 DUP2 DUP2 SHR SWAP1 DUP3 AND DUP1 PUSH2 0x2B0E JUMPI PUSH1 0x7F DUP3 AND SWAP2 POP JUMPDEST PUSH1 0x20 DUP3 LT DUP2 SUB PUSH2 0x2B2E JUMPI PUSH4 0x4E487B71 PUSH1 0xE0 SHL PUSH1 0x0 MSTORE PUSH1 0x22 PUSH1 0x4 MSTORE PUSH1 0x24 PUSH1 0x0 REVERT JUMPDEST POP SWAP2 SWAP1 POP JUMP JUMPDEST PUSH1 0x20 DUP1 DUP3 MSTORE PUSH1 0x2D SWAP1 DUP3 ADD MSTORE PUSH32 0x466972654C6F636B3A2054686520636F6E74726163742068617320616C726561 PUSH1 0x40 DUP3 ADD MSTORE PUSH13 0x191E481D195C9B5A5B985D1959 PUSH1 0x9A SHL PUSH1 0x60 DUP3 ADD MSTORE PUSH1 0x80 ADD SWAP1 JUMP JUMPDEST PUSH4 0x4E487B71 PUSH1 0xE0 SHL PUSH1 0x0 MSTORE PUSH1 0x32 PUSH1 0x4 MSTORE PUSH1 0x24 PUSH1 0x0 REVERT JUMPDEST PUSH1 0x0 PUSH1 0x20 DUP3 DUP5 SUB SLT ISZERO PUSH2 0x2BA9 JUMPI PUSH1 0x0 DUP1 REVERT JUMPDEST POP MLOAD SWAP2 SWAP1 POP JUMP JUMPDEST PUSH4 0x4E487B71 PUSH1 0xE0 SHL PUSH1 0x0 MSTORE PUSH1 0x11 PUSH1 0x4 MSTORE PUSH1 0x24 PUSH1 0x0 REVERT JUMPDEST PUSH1 0x0 PUSH1 0x1 DUP3 ADD PUSH2 0x2BD8 JUMPI PUSH2 0x2BD8 PUSH2 0x2BB0 JUMP JUMPDEST POP PUSH1 0x1 ADD SWAP1 JUMP JUMPDEST PUSH1 0x0 PUSH1 0x20 DUP3 DUP5 SUB SLT ISZERO PUSH2 0x2BF1 JUMPI PUSH1 0x0 DUP1 REVERT JUMPDEST DUP2 MLOAD DUP1 ISZERO ISZERO DUP2 EQ PUSH2 0x1151 JUMPI PUSH1 0x0 DUP1 REVERT JUMPDEST PUSH1 0x1F DUP3 GT ISZERO PUSH2 0x2207 JUMPI PUSH1 0x0 DUP2 DUP2 MSTORE PUSH1 0x20 DUP2 KECCAK256 PUSH1 0x1F DUP6 ADD PUSH1 0x5 SHR DUP2 ADD PUSH1 0x20 DUP7 LT ISZERO PUSH2 0x2C28 JUMPI POP DUP1 JUMPDEST PUSH1 0x1F DUP6 ADD PUSH1 0x5 SHR DUP3 ADD SWAP2 POP JUMPDEST DUP2 DUP2 LT ISZERO PUSH2 0x2334 JUMPI DUP3 DUP2 SSTORE PUSH1 0x1 ADD PUSH2 0x2C34 JUMP JUMPDEST DUP2 MLOAD PUSH8 0xFFFFFFFFFFFFFFFF DUP2 GT ISZERO PUSH2 0x2C61 JUMPI PUSH2 0x2C61 PUSH2 0x27E5 JUMP JUMPDEST PUSH2 0x2C75 DUP2 PUSH2 0x2C6F DUP5 SLOAD PUSH2 0x2AFA JUMP JUMPDEST DUP5 PUSH2 0x2C01 JUMP JUMPDEST PUSH1 0x20 DUP1 PUSH1 0x1F DUP4 GT PUSH1 0x1 DUP2 EQ PUSH2 0x2CAA JUMPI PUSH1 0x0 DUP5 ISZERO PUSH2 0x2C92 JUMPI POP DUP6 DUP4 ADD MLOAD JUMPDEST PUSH1 0x0 NOT PUSH1 0x3 DUP7 SWAP1 SHL SHR NOT AND PUSH1 0x1 DUP6 SWAP1 SHL OR DUP6 SSTORE PUSH2 0x2334 JUMP JUMPDEST PUSH1 0x0 DUP6 DUP2 MSTORE PUSH1 0x20 DUP2 KECCAK256 PUSH1 0x1F NOT DUP7 AND SWAP2 JUMPDEST DUP3 DUP2 LT ISZERO PUSH2 0x2CD9 JUMPI DUP9 DUP7 ADD MLOAD DUP3 SSTORE SWAP5 DUP5 ADD SWAP5 PUSH1 0x1 SWAP1 SWAP2 ADD SWAP1 DUP5 ADD PUSH2 0x2CBA JUMP JUMPDEST POP DUP6 DUP3 LT ISZERO PUSH2 0x2CF7 JUMPI DUP8 DUP6 ADD MLOAD PUSH1 0x0 NOT PUSH1 0x3 DUP9 SWAP1 SHL PUSH1 0xF8 AND SHR NOT AND DUP2 SSTORE JUMPDEST POP POP POP POP POP PUSH1 0x1 SWAP1 DUP2 SHL ADD SWAP1 SSTORE POP JUMP JUMPDEST PUSH1 0x1 PUSH1 0x1 PUSH1 0xA0 SHL SUB DUP11 DUP2 AND DUP3 MSTORE PUSH2 0x120 PUSH1 0x20 DUP4 ADD DUP2 SWAP1 MSTORE PUSH1 0x0 SWAP2 PUSH2 0x2D2D DUP5 DUP4 ADD DUP14 PUSH2 0x26B4 JUMP JUMPDEST SWAP3 POP DUP11 PUSH1 0x40 DUP6 ADD MSTORE DUP10 PUSH1 0x60 DUP6 ADD MSTORE DUP9 PUSH1 0x80 DUP6 ADD MSTORE DUP8 PUSH1 0xA0 DUP6 ADD MSTORE DUP7 PUSH1 0xC0 DUP6 ADD MSTORE DUP6 PUSH1 0xE0 DUP6 ADD MSTORE DUP1 DUP6 AND PUSH2 0x100 DUP6 ADD MSTORE POP POP SWAP11 SWAP10 POP POP POP POP POP POP POP POP POP POP JUMP JUMPDEST DUP1 DUP3 ADD DUP1 DUP3 GT ISZERO PUSH2 0x218B JUMPI PUSH2 0x218B PUSH2 0x2BB0 JUMP JUMPDEST PUSH1 0x0 PUSH1 0x20 DUP3 DUP5 SUB SLT ISZERO PUSH2 0x2D91 JUMPI PUSH1 0x0 DUP1 REVERT JUMPDEST DUP2 MLOAD PUSH2 0x1151 DUP2 PUSH2 0x2758 JUMP JUMPDEST DUP2 DUP2 SUB DUP2 DUP2 GT ISZERO PUSH2 0x218B JUMPI PUSH2 0x218B PUSH2 0x2BB0 JUMP JUMPDEST DUP1 DUP3 MUL DUP2 ISZERO DUP3 DUP3 DIV DUP5 EQ OR PUSH2 0x218B JUMPI PUSH2 0x218B PUSH2 0x2BB0 JUMP JUMPDEST PUSH1 0x0 DUP3 PUSH2 0x2DE3 JUMPI PUSH4 0x4E487B71 PUSH1 0xE0 SHL PUSH1 0x0 MSTORE PUSH1 0x12 PUSH1 0x4 MSTORE PUSH1 0x24 PUSH1 0x0 REVERT JUMPDEST POP DIV SWAP1 JUMP JUMPDEST PUSH1 0x0 DUP3 MLOAD PUSH2 0x2DFA DUP2 DUP5 PUSH1 0x20 DUP8 ADD PUSH2 0x2690 JUMP JUMPDEST SWAP2 SWAP1 SWAP2 ADD SWAP3 SWAP2 POP POP JUMP INVALID LOG2 PUSH5 0x6970667358 0x22 SLT KECCAK256 STATICCALL MOD SWAP14 0xDC ISZERO SDIV 0xE5 0xA6 0xCE 0x24 0xD6 0xE1 SHR SWAP4 RETURNDATACOPY MUL LT PUSH24 0x5E43EF6D0535A4395F95AD41CA5964736F6C634300081200 CALLER "
				},
				"gasEstimates": {
					"creation": {
						"codeDepositCost": "2366800",
						"executionCost": "infinite",
						"totalCost": "infinite"
					},
					"external": {
						"Lock(address,address,uint256,uint256,uint256,address[],uint256[],string,uint256)": "infinite",
						"adminForLock()": "2405",
						"adminLockDetail()": "infinite",
						"calculateClaimableAmount(uint256)": "infinite",
						"changeLockAdmin(address)": "infinite",
						"checkGroupMember()": "infinite",
						"claim(uint256)": "infinite",
						"claimed(address)": "2624",
						"createUser()": "2383",
						"factoryAddr()": "2426",
						"feeAmount()": "infinite",
						"feeReceiver()": "infinite",
						"fireLockFeeTransfer()": "2447",
						"getLockTitle()": "infinite",
						"getMember()": "infinite",
						"getMemberAmount()": "2338",
						"getMemberRate()": "infinite",
						"getRecordLength()": "2403",
						"isUnique(address[])": "infinite",
						"isUserUnlock(address)": "infinite",
						"lockStatus()": "2433",
						"record(uint256)": "8990",
						"remaining(address)": "2624",
						"setLockMemberAddr(uint256,address)": "infinite",
						"setMemberRate(uint256[])": "infinite",
						"totalAmount()": "2386",
						"totalRate()": "2362",
						"treasuryDistributionContract()": "2403",
						"unlockStatus()": "2389",
						"validateSum(uint256[])": "infinite",
						"weth()": "2393"
					},
					"internal": {
						"checkRate()": "infinite",
						"isContractAddress(address)": "infinite",
						"isNotExist(address)": "infinite"
					}
				},
				"methodIdentifiers": {
					"Lock(address,address,uint256,uint256,uint256,address[],uint256[],string,uint256)": "77fd0348",
					"adminForLock()": "27b2a9e6",
					"adminLockDetail()": "07802414",
					"calculateClaimableAmount(uint256)": "46be42fa",
					"changeLockAdmin(address)": "e70efbfd",
					"checkGroupMember()": "be241531",
					"claim(uint256)": "379607f5",
					"claimed(address)": "c884ef83",
					"createUser()": "25ad91ce",
					"factoryAddr()": "963671be",
					"feeAmount()": "69e15404",
					"feeReceiver()": "b3f00674",
					"fireLockFeeTransfer()": "f32f3678",
					"getLockTitle()": "88576cfa",
					"getMember()": "0274c094",
					"getMemberAmount()": "2fa9083a",
					"getMemberRate()": "6197d885",
					"getRecordLength()": "5ca04266",
					"isUnique(address[])": "8c6abbee",
					"isUserUnlock(address)": "bbd99dbc",
					"lockStatus()": "3e89340f",
					"record(uint256)": "2c16cd8a",
					"remaining(address)": "b399b0bc",
					"setLockMemberAddr(uint256,address)": "2e468b7e",
					"setMemberRate(uint256[])": "822d2ef7",
					"totalAmount()": "1a39d8ef",
					"totalRate()": "42a66f68",
					"treasuryDistributionContract()": "e3840bc1",
					"unlockStatus()": "2fb9e41f",
					"validateSum(uint256[])": "cd84cbff",
					"weth()": "3fc8cef3"
				}
			},
			"storageLayout": {
				"storage": [
					{
						"astId": 1165,
						"contract": "contracts/FireLock.sol:FireLock",
						"label": "locked",
						"offset": 0,
						"slot": "0",
						"type": "t_bool"
					},
					{
						"astId": 1167,
						"contract": "contracts/FireLock.sol:FireLock",
						"label": "lockStatus",
						"offset": 1,
						"slot": "0",
						"type": "t_bool"
					},
					{
						"astId": 1169,
						"contract": "contracts/FireLock.sol:FireLock",
						"label": "unlockStatus",
						"offset": 2,
						"slot": "0",
						"type": "t_bool"
					},
					{
						"astId": 1171,
						"contract": "contracts/FireLock.sol:FireLock",
						"label": "weth",
						"offset": 3,
						"slot": "0",
						"type": "t_address"
					},
					{
						"astId": 1173,
						"contract": "contracts/FireLock.sol:FireLock",
						"label": "factoryAddr",
						"offset": 0,
						"slot": "1",
						"type": "t_address"
					},
					{
						"astId": 1175,
						"contract": "contracts/FireLock.sol:FireLock",
						"label": "treasuryDistributionContract",
						"offset": 0,
						"slot": "2",
						"type": "t_address"
					},
					{
						"astId": 1177,
						"contract": "contracts/FireLock.sol:FireLock",
						"label": "fireLockFeeTransfer",
						"offset": 0,
						"slot": "3",
						"type": "t_address"
					},
					{
						"astId": 1179,
						"contract": "contracts/FireLock.sol:FireLock",
						"label": "adminForLock",
						"offset": 0,
						"slot": "4",
						"type": "t_address"
					},
					{
						"astId": 1181,
						"contract": "contracts/FireLock.sol:FireLock",
						"label": "createUser",
						"offset": 0,
						"slot": "5",
						"type": "t_address"
					},
					{
						"astId": 1183,
						"contract": "contracts/FireLock.sol:FireLock",
						"label": "totalAmount",
						"offset": 0,
						"slot": "6",
						"type": "t_uint256"
					},
					{
						"astId": 1185,
						"contract": "contracts/FireLock.sol:FireLock",
						"label": "totalRate",
						"offset": 0,
						"slot": "7",
						"type": "t_uint256"
					},
					{
						"astId": 1188,
						"contract": "contracts/FireLock.sol:FireLock",
						"label": "adminLockDetail",
						"offset": 0,
						"slot": "8",
						"type": "t_struct(LockDetail)1153_storage"
					},
					{
						"astId": 1192,
						"contract": "contracts/FireLock.sol:FireLock",
						"label": "record",
						"offset": 0,
						"slot": "19",
						"type": "t_array(t_struct(unLockRecord)1160_storage)dyn_storage"
					},
					{
						"astId": 1196,
						"contract": "contracts/FireLock.sol:FireLock",
						"label": "claimed",
						"offset": 0,
						"slot": "20",
						"type": "t_mapping(t_address,t_uint256)"
					},
					{
						"astId": 1200,
						"contract": "contracts/FireLock.sol:FireLock",
						"label": "userTime",
						"offset": 0,
						"slot": "21",
						"type": "t_mapping(t_address,t_uint256)"
					},
					{
						"astId": 1204,
						"contract": "contracts/FireLock.sol:FireLock",
						"label": "remaining",
						"offset": 0,
						"slot": "22",
						"type": "t_mapping(t_address,t_uint256)"
					}
				],
				"types": {
					"t_address": {
						"encoding": "inplace",
						"label": "address",
						"numberOfBytes": "20"
					},
					"t_array(t_address)dyn_storage": {
						"base": "t_address",
						"encoding": "dynamic_array",
						"label": "address[]",
						"numberOfBytes": "32"
					},
					"t_array(t_struct(unLockRecord)1160_storage)dyn_storage": {
						"base": "t_struct(unLockRecord)1160_storage",
						"encoding": "dynamic_array",
						"label": "struct FireLock.unLockRecord[]",
						"numberOfBytes": "32"
					},
					"t_array(t_uint256)dyn_storage": {
						"base": "t_uint256",
						"encoding": "dynamic_array",
						"label": "uint256[]",
						"numberOfBytes": "32"
					},
					"t_bool": {
						"encoding": "inplace",
						"label": "bool",
						"numberOfBytes": "1"
					},
					"t_mapping(t_address,t_uint256)": {
						"encoding": "mapping",
						"key": "t_address",
						"label": "mapping(address => uint256)",
						"numberOfBytes": "32",
						"value": "t_uint256"
					},
					"t_string_storage": {
						"encoding": "bytes",
						"label": "string",
						"numberOfBytes": "32"
					},
					"t_struct(LockDetail)1153_storage": {
						"encoding": "inplace",
						"label": "struct FireLock.LockDetail",
						"members": [
							{
								"astId": 1130,
								"contract": "contracts/FireLock.sol:FireLock",
								"label": "LockTitle",
								"offset": 0,
								"slot": "0",
								"type": "t_string_storage"
							},
							{
								"astId": 1132,
								"contract": "contracts/FireLock.sol:FireLock",
								"label": "ddl",
								"offset": 0,
								"slot": "1",
								"type": "t_uint256"
							},
							{
								"astId": 1134,
								"contract": "contracts/FireLock.sol:FireLock",
								"label": "startTime",
								"offset": 0,
								"slot": "2",
								"type": "t_uint256"
							},
							{
								"astId": 1136,
								"contract": "contracts/FireLock.sol:FireLock",
								"label": "admin",
								"offset": 0,
								"slot": "3",
								"type": "t_address"
							},
							{
								"astId": 1138,
								"contract": "contracts/FireLock.sol:FireLock",
								"label": "amount",
								"offset": 0,
								"slot": "4",
								"type": "t_uint256"
							},
							{
								"astId": 1140,
								"contract": "contracts/FireLock.sol:FireLock",
								"label": "unlockCycle",
								"offset": 0,
								"slot": "5",
								"type": "t_uint256"
							},
							{
								"astId": 1142,
								"contract": "contracts/FireLock.sol:FireLock",
								"label": "unlockRound",
								"offset": 0,
								"slot": "6",
								"type": "t_uint256"
							},
							{
								"astId": 1145,
								"contract": "contracts/FireLock.sol:FireLock",
								"label": "rate",
								"offset": 0,
								"slot": "7",
								"type": "t_array(t_uint256)dyn_storage"
							},
							{
								"astId": 1147,
								"contract": "contracts/FireLock.sol:FireLock",
								"label": "token",
								"offset": 0,
								"slot": "8",
								"type": "t_address"
							},
							{
								"astId": 1150,
								"contract": "contracts/FireLock.sol:FireLock",
								"label": "member",
								"offset": 0,
								"slot": "9",
								"type": "t_array(t_address)dyn_storage"
							},
							{
								"astId": 1152,
								"contract": "contracts/FireLock.sol:FireLock",
								"label": "cliffPeriod",
								"offset": 0,
								"slot": "10",
								"type": "t_uint256"
							}
						],
						"numberOfBytes": "352"
					},
					"t_struct(unLockRecord)1160_storage": {
						"encoding": "inplace",
						"label": "struct FireLock.unLockRecord",
						"members": [
							{
								"astId": 1155,
								"contract": "contracts/FireLock.sol:FireLock",
								"label": "user",
								"offset": 0,
								"slot": "0",
								"type": "t_address"
							},
							{
								"astId": 1157,
								"contract": "contracts/FireLock.sol:FireLock",
								"label": "amount",
								"offset": 0,
								"slot": "1",
								"type": "t_uint256"
							},
							{
								"astId": 1159,
								"contract": "contracts/FireLock.sol:FireLock",
								"label": "time",
								"offset": 0,
								"slot": "2",
								"type": "t_uint256"
							}
						],
						"numberOfBytes": "96"
					},
					"t_uint256": {
						"encoding": "inplace",
						"label": "uint256",
						"numberOfBytes": "32"
					}
				}
			},
			"userdoc": {
				"kind": "user",
				"methods": {},
				"version": 1
			}
		}
	}
}