{
	"contracts/MarketValueManager.sol": {
		"MarketValueManager": {
			"abi": [
				{
					"inputs": [],
					"stateMutability": "nonpayable",
					"type": "constructor"
				},
				{
					"anonymous": false,
					"inputs": [
						{
							"indexed": true,
							"internalType": "address",
							"name": "previousOwner",
							"type": "address"
						},
						{
							"indexed": true,
							"internalType": "address",
							"name": "newOwner",
							"type": "address"
						}
					],
					"name": "OwnershipTransferred",
					"type": "event"
				},
				{
					"inputs": [],
					"name": "buyAndBurn",
					"outputs": [],
					"stateMutability": "nonpayable",
					"type": "function"
				},
				{
					"inputs": [],
					"name": "checkBNBBalance",
					"outputs": [
						{
							"internalType": "uint256",
							"name": "",
							"type": "uint256"
						}
					],
					"stateMutability": "view",
					"type": "function"
				},
				{
					"inputs": [],
					"name": "checkSAFEBalance",
					"outputs": [
						{
							"internalType": "uint256",
							"name": "",
							"type": "uint256"
						}
					],
					"stateMutability": "view",
					"type": "function"
				},
				{
					"inputs": [],
					"name": "cityNodeAddress",
					"outputs": [
						{
							"internalType": "address",
							"name": "",
							"type": "address"
						}
					],
					"stateMutability": "view",
					"type": "function"
				},
				{
					"inputs": [],
					"name": "cooldown",
					"outputs": [
						{
							"internalType": "uint256",
							"name": "",
							"type": "uint256"
						}
					],
					"stateMutability": "view",
					"type": "function"
				},
				{
					"inputs": [
						{
							"internalType": "address",
							"name": "",
							"type": "address"
						}
					],
					"name": "isOrNotUseWallet",
					"outputs": [
						{
							"internalType": "uint256",
							"name": "",
							"type": "uint256"
						}
					],
					"stateMutability": "view",
					"type": "function"
				},
				{
					"inputs": [],
					"name": "owner",
					"outputs": [
						{
							"internalType": "address",
							"name": "",
							"type": "address"
						}
					],
					"stateMutability": "view",
					"type": "function"
				},
				{
					"inputs": [],
					"name": "renounceOwnership",
					"outputs": [],
					"stateMutability": "nonpayable",
					"type": "function"
				},
				{
					"inputs": [
						{
							"internalType": "address",
							"name": "_token",
							"type": "address"
						}
					],
					"name": "setAimToken",
					"outputs": [],
					"stateMutability": "nonpayable",
					"type": "function"
				},
				{
					"inputs": [
						{
							"internalType": "address",
							"name": "_cityNodeAddress",
							"type": "address"
						}
					],
					"name": "setcityNodeAddress",
					"outputs": [],
					"stateMutability": "nonpayable",
					"type": "function"
				},
				{
					"inputs": [],
					"name": "token",
					"outputs": [
						{
							"internalType": "address",
							"name": "",
							"type": "address"
						}
					],
					"stateMutability": "view",
					"type": "function"
				},
				{
					"inputs": [
						{
							"internalType": "address",
							"name": "newOwner",
							"type": "address"
						}
					],
					"name": "transferOwnership",
					"outputs": [],
					"stateMutability": "nonpayable",
					"type": "function"
				},
				{
					"inputs": [],
					"name": "uniswapV2Router",
					"outputs": [
						{
							"internalType": "contract IUniswapV2Router02",
							"name": "",
							"type": "address"
						}
					],
					"stateMutability": "view",
					"type": "function"
				},
				{
					"inputs": [],
					"name": "weth",
					"outputs": [
						{
							"internalType": "contract IERC20",
							"name": "",
							"type": "address"
						}
					],
					"stateMutability": "view",
					"type": "function"
				},
				{
					"inputs": [],
					"name": "withdraw",
					"outputs": [],
					"stateMutability": "nonpayable",
					"type": "function"
				}
			],
			"devdoc": {
				"kind": "dev",
				"methods": {
					"owner()": {
						"details": "Returns the address of the current owner."
					},
					"renounceOwnership()": {
						"details": "Leaves the contract without owner. It will not be possible to call `onlyOwner` functions anymore. Can only be called by the current owner. NOTE: Renouncing ownership will leave the contract without an owner, thereby removing any functionality that is only available to the owner."
					},
					"transferOwnership(address)": {
						"details": "Transfers ownership of the contract to a new account (`newOwner`). Can only be called by the current owner."
					}
				},
				"version": 1
			},
			"evm": {
				"assembly": "    /* \"contracts/MarketValueManager.sol\":279:2723  contract MarketValueManager is Ownable {... */\n  mstore(0x40, 0x80)\n    /* \"contracts/MarketValueManager.sol\":543:893  constructor() {... */\n  callvalue\n  dup1\n  iszero\n  tag_1\n  jumpi\n  0x00\n  dup1\n  revert\ntag_1:\n  pop\n    /* \"@openzeppelin/contracts/access/Ownable.sol\":936:968  _transferOwnership(_msgSender()) */\n  tag_5\n    /* \"@openzeppelin/contracts/utils/Context.sol\":719:729  msg.sender */\n  caller\n    /* \"@openzeppelin/contracts/access/Ownable.sol\":936:954  _transferOwnership */\n  tag_8\n    /* \"@openzeppelin/contracts/access/Ownable.sol\":936:968  _transferOwnership(_msgSender()) */\n  jump\t// in\ntag_5:\n    /* \"contracts/MarketValueManager.sol\":677:692  uniswapV2Router */\n  0x04\n    /* \"contracts/MarketValueManager.sol\":677:711  uniswapV2Router = _uniswapV2Router */\n  dup1\n  sload\n  not(sub(shl(0xa0, 0x01), 0x01))\n  and\n    /* \"contracts/MarketValueManager.sol\":624:666  0x9Ac64Cc6e4415144C455BD8E4837Fea55603e5c3 */\n  0x9ac64cc6e4415144c455bd8e4837fea55603e5c3\n    /* \"contracts/MarketValueManager.sol\":677:711  uniswapV2Router = _uniswapV2Router */\n  swap1\n  dup2\n  or\n  dup3\n  sstore\n    /* \"contracts/MarketValueManager.sol\":735:757  uniswapV2Router.WETH() */\n  0x40\n  dup1\n  mload\n  shl(0xe3, 0x15ab88c9)\n  dup2\n  mstore\n  swap1\n  mload\n    /* \"contracts/MarketValueManager.sol\":624:666  0x9Ac64Cc6e4415144C455BD8E4837Fea55603e5c3 */\n  swap2\n  swap3\n  dup4\n  swap3\n    /* \"contracts/MarketValueManager.sol\":735:755  uniswapV2Router.WETH */\n  0xad5c4648\n  swap3\n    /* \"contracts/MarketValueManager.sol\":735:757  uniswapV2Router.WETH() */\n  dup1\n  dup4\n  add\n  swap3\n  0x20\n  swap3\n  swap2\n  dup3\n  swap1\n  sub\n  add\n  dup2\n    /* \"contracts/MarketValueManager.sol\":624:666  0x9Ac64Cc6e4415144C455BD8E4837Fea55603e5c3 */\n  dup7\n    /* \"contracts/MarketValueManager.sol\":735:757  uniswapV2Router.WETH() */\n  gas\n  staticcall\n  iszero\n  dup1\n  iszero\n  tag_11\n  jumpi\n  returndatasize\n  0x00\n  dup1\n  returndatacopy\n  revert(0x00, returndatasize)\ntag_11:\n  pop\n  pop\n  pop\n  pop\n  mload(0x40)\n  returndatasize\n  not(0x1f)\n  0x1f\n  dup3\n  add\n  and\n  dup3\n  add\n  dup1\n  0x40\n  mstore\n  pop\n  dup2\n  add\n  swap1\n  tag_12\n  swap2\n  swap1\n  tag_13\n  jump\t// in\ntag_12:\n    /* \"contracts/MarketValueManager.sol\":721:725  weth */\n  0x01\n    /* \"contracts/MarketValueManager.sol\":721:758  weth = IERC20(uniswapV2Router.WETH()) */\n  dup1\n  sload\n  not(sub(shl(0xa0, 0x01), 0x01))\n  and\n  sub(shl(0xa0, 0x01), 0x01)\n  swap3\n  swap1\n  swap3\n  and\n  swap2\n  dup3\n  or\n  swap1\n  sstore\n    /* \"contracts/MarketValueManager.sol\":768:841  weth.approve(address(0x9Ac64Cc6e4415144C455BD8E4837Fea55603e5c3), 10**34) */\n  mload(0x40)\n  shl(0xe0, 0x095ea7b3)\n  dup2\n  mstore\n    /* \"contracts/MarketValueManager.sol\":789:831  0x9Ac64Cc6e4415144C455BD8E4837Fea55603e5c3 */\n  0x9ac64cc6e4415144c455bd8e4837fea55603e5c3\n    /* \"contracts/MarketValueManager.sol\":768:841  weth.approve(address(0x9Ac64Cc6e4415144C455BD8E4837Fea55603e5c3), 10**34) */\n  0x04\n  dup3\n  add\n    /* \"#utility.yul\":525:576   */\n  mstore\n    /* \"contracts/MarketValueManager.sol\":834:840  10**34 */\n  0x01ed09bead87c0378d8e6400000000\n    /* \"#utility.yul\":592:610   */\n  0x24\n  dup3\n  add\n    /* \"#utility.yul\":585:619   */\n  mstore\n    /* \"contracts/MarketValueManager.sol\":768:780  weth.approve */\n  0x095ea7b3\n  swap1\n    /* \"#utility.yul\":498:516   */\n  0x44\n  add\n    /* \"contracts/MarketValueManager.sol\":768:841  weth.approve(address(0x9Ac64Cc6e4415144C455BD8E4837Fea55603e5c3), 10**34) */\n  0x20\n  mload(0x40)\n  dup1\n  dup4\n  sub\n  dup2\n  0x00\n  dup8\n  gas\n  call\n  iszero\n  dup1\n  iszero\n  tag_17\n  jumpi\n  returndatasize\n  0x00\n  dup1\n  returndatacopy\n  revert(0x00, returndatasize)\ntag_17:\n  pop\n  pop\n  pop\n  pop\n  mload(0x40)\n  returndatasize\n  not(0x1f)\n  0x1f\n  dup3\n  add\n  and\n  dup3\n  add\n  dup1\n  0x40\n  mstore\n  pop\n  dup2\n  add\n  swap1\n  tag_18\n  swap2\n  swap1\n  tag_19\n  jump\t// in\ntag_18:\n  pop\n    /* \"contracts/MarketValueManager.sol\":851:855  weth */\n  sload(0x01)\n    /* \"contracts/MarketValueManager.sol\":851:886  weth.approve(address(this), 10**34) */\n  mload(0x40)\n  shl(0xe0, 0x095ea7b3)\n  dup2\n  mstore\n    /* \"contracts/MarketValueManager.sol\":872:876  this */\n  address\n    /* \"contracts/MarketValueManager.sol\":851:886  weth.approve(address(this), 10**34) */\n  0x04\n  dup3\n  add\n    /* \"#utility.yul\":525:576   */\n  mstore\n    /* \"contracts/MarketValueManager.sol\":879:885  10**34 */\n  0x01ed09bead87c0378d8e6400000000\n    /* \"#utility.yul\":592:610   */\n  0x24\n  dup3\n  add\n    /* \"#utility.yul\":585:619   */\n  mstore\n  sub(shl(0xa0, 0x01), 0x01)\n    /* \"contracts/MarketValueManager.sol\":851:855  weth */\n  swap1\n  swap2\n  and\n  swap1\n    /* \"contracts/MarketValueManager.sol\":851:863  weth.approve */\n  0x095ea7b3\n  swap1\n    /* \"#utility.yul\":498:516   */\n  0x44\n  add\n    /* \"contracts/MarketValueManager.sol\":851:886  weth.approve(address(this), 10**34) */\n  0x20\n  mload(0x40)\n  dup1\n  dup4\n  sub\n  dup2\n  0x00\n  dup8\n  gas\n  call\n  iszero\n  dup1\n  iszero\n  tag_22\n  jumpi\n  returndatasize\n  0x00\n  dup1\n  returndatacopy\n  revert(0x00, returndatasize)\ntag_22:\n  pop\n  pop\n  pop\n  pop\n  mload(0x40)\n  returndatasize\n  not(0x1f)\n  0x1f\n  dup3\n  add\n  and\n  dup3\n  add\n  dup1\n  0x40\n  mstore\n  pop\n  dup2\n  add\n  swap1\n  tag_23\n  swap2\n  swap1\n  tag_19\n  jump\t// in\ntag_23:\n  pop\n    /* \"contracts/MarketValueManager.sol\":557:893  {... */\n  pop\n    /* \"contracts/MarketValueManager.sol\":279:2723  contract MarketValueManager is Ownable {... */\n  jump(tag_27)\n    /* \"@openzeppelin/contracts/access/Ownable.sol\":2433:2620  function _transferOwnership(address newOwner) internal virtual {... */\ntag_8:\n    /* \"@openzeppelin/contracts/access/Ownable.sol\":2506:2522  address oldOwner */\n  0x00\n    /* \"@openzeppelin/contracts/access/Ownable.sol\":2525:2531  _owner */\n  dup1\n  sload\n  sub(shl(0xa0, 0x01), 0x01)\n    /* \"@openzeppelin/contracts/access/Ownable.sol\":2541:2558  _owner = newOwner */\n  dup4\n  dup2\n  and\n  not(sub(shl(0xa0, 0x01), 0x01))\n  dup4\n  and\n  dup2\n  or\n  dup5\n  sstore\n    /* \"@openzeppelin/contracts/access/Ownable.sol\":2573:2613  OwnershipTransferred(oldOwner, newOwner) */\n  mload(0x40)\n    /* \"@openzeppelin/contracts/access/Ownable.sol\":2525:2531  _owner */\n  swap2\n  swap1\n  swap3\n  and\n  swap3\n  dup4\n  swap2\n    /* \"@openzeppelin/contracts/access/Ownable.sol\":2573:2613  OwnershipTransferred(oldOwner, newOwner) */\n  0x8be0079c531659141344cd1fd0a4f28419497f9722a3daafe3b4186f6b6457e0\n  swap2\n    /* \"@openzeppelin/contracts/access/Ownable.sol\":2506:2522  address oldOwner */\n  swap1\n    /* \"@openzeppelin/contracts/access/Ownable.sol\":2573:2613  OwnershipTransferred(oldOwner, newOwner) */\n  log3\n    /* \"@openzeppelin/contracts/access/Ownable.sol\":2496:2620  {... */\n  pop\n    /* \"@openzeppelin/contracts/access/Ownable.sol\":2433:2620  function _transferOwnership(address newOwner) internal virtual {... */\n  pop\n  jump\t// out\n    /* \"#utility.yul\":14:304   */\ntag_13:\n    /* \"#utility.yul\":84:90   */\n  0x00\n    /* \"#utility.yul\":137:139   */\n  0x20\n    /* \"#utility.yul\":125:134   */\n  dup3\n    /* \"#utility.yul\":116:123   */\n  dup5\n    /* \"#utility.yul\":112:135   */\n  sub\n    /* \"#utility.yul\":108:140   */\n  slt\n    /* \"#utility.yul\":105:157   */\n  iszero\n  tag_29\n  jumpi\n    /* \"#utility.yul\":153:154   */\n  0x00\n    /* \"#utility.yul\":150:151   */\n  dup1\n    /* \"#utility.yul\":143:155   */\n  revert\n    /* \"#utility.yul\":105:157   */\ntag_29:\n    /* \"#utility.yul\":179:195   */\n  dup2\n  mload\n  sub(shl(0xa0, 0x01), 0x01)\n    /* \"#utility.yul\":224:255   */\n  dup2\n  and\n    /* \"#utility.yul\":214:256   */\n  dup2\n  eq\n    /* \"#utility.yul\":204:274   */\n  tag_30\n  jumpi\n    /* \"#utility.yul\":270:271   */\n  0x00\n    /* \"#utility.yul\":267:268   */\n  dup1\n    /* \"#utility.yul\":260:272   */\n  revert\n    /* \"#utility.yul\":204:274   */\ntag_30:\n    /* \"#utility.yul\":293:298   */\n  swap4\n    /* \"#utility.yul\":14:304   */\n  swap3\n  pop\n  pop\n  pop\n  jump\t// out\n    /* \"#utility.yul\":630:907   */\ntag_19:\n    /* \"#utility.yul\":697:703   */\n  0x00\n    /* \"#utility.yul\":750:752   */\n  0x20\n    /* \"#utility.yul\":738:747   */\n  dup3\n    /* \"#utility.yul\":729:736   */\n  dup5\n    /* \"#utility.yul\":725:748   */\n  sub\n    /* \"#utility.yul\":721:753   */\n  slt\n    /* \"#utility.yul\":718:770   */\n  iszero\n  tag_33\n  jumpi\n    /* \"#utility.yul\":766:767   */\n  0x00\n    /* \"#utility.yul\":763:764   */\n  dup1\n    /* \"#utility.yul\":756:768   */\n  revert\n    /* \"#utility.yul\":718:770   */\ntag_33:\n    /* \"#utility.yul\":798:807   */\n  dup2\n    /* \"#utility.yul\":792:808   */\n  mload\n    /* \"#utility.yul\":851:856   */\n  dup1\n    /* \"#utility.yul\":844:857   */\n  iszero\n    /* \"#utility.yul\":837:858   */\n  iszero\n    /* \"#utility.yul\":830:835   */\n  dup2\n    /* \"#utility.yul\":827:859   */\n  eq\n    /* \"#utility.yul\":817:877   */\n  tag_30\n  jumpi\n    /* \"#utility.yul\":873:874   */\n  0x00\n    /* \"#utility.yul\":870:871   */\n  dup1\n    /* \"#utility.yul\":863:875   */\n  revert\n    /* \"#utility.yul\":630:907   */\ntag_27:\n    /* \"contracts/MarketValueManager.sol\":279:2723  contract MarketValueManager is Ownable {... */\n  dataSize(sub_0)\n  dup1\n  dataOffset(sub_0)\n  0x00\n  codecopy\n  0x00\n  return\nstop\n\nsub_0: assembly {\n        /* \"contracts/MarketValueManager.sol\":279:2723  contract MarketValueManager is Ownable {... */\n      mstore(0x40, 0x80)\n      callvalue\n      dup1\n      iszero\n      tag_1\n      jumpi\n      0x00\n      dup1\n      revert\n    tag_1:\n      pop\n      jumpi(tag_2, lt(calldatasize, 0x04))\n      shr(0xe0, calldataload(0x00))\n      dup1\n      0x8da5cb5b\n      gt\n      tag_18\n      jumpi\n      dup1\n      0xcc9b2e0e\n      gt\n      tag_19\n      jumpi\n      dup1\n      0xcc9b2e0e\n      eq\n      tag_14\n      jumpi\n      dup1\n      0xdab9e087\n      eq\n      tag_15\n      jumpi\n      dup1\n      0xf2fde38b\n      eq\n      tag_16\n      jumpi\n      dup1\n      0xfc0c546a\n      eq\n      tag_17\n      jumpi\n      0x00\n      dup1\n      revert\n    tag_19:\n      dup1\n      0x8da5cb5b\n      eq\n      tag_10\n      jumpi\n      dup1\n      0xa703bd02\n      eq\n      tag_11\n      jumpi\n      dup1\n      0xaa6df299\n      eq\n      tag_12\n      jumpi\n      dup1\n      0xcb464c49\n      eq\n      tag_13\n      jumpi\n      0x00\n      dup1\n      revert\n    tag_18:\n      dup1\n      0x467e8814\n      gt\n      tag_20\n      jumpi\n      dup1\n      0x467e8814\n      eq\n      tag_6\n      jumpi\n      dup1\n      0x610abe35\n      eq\n      tag_7\n      jumpi\n      dup1\n      0x715018a6\n      eq\n      tag_8\n      jumpi\n      dup1\n      0x787a08a6\n      eq\n      tag_9\n      jumpi\n      0x00\n      dup1\n      revert\n    tag_20:\n      dup1\n      0x1694505e\n      eq\n      tag_3\n      jumpi\n      dup1\n      0x3ccfd60b\n      eq\n      tag_4\n      jumpi\n      dup1\n      0x3fc8cef3\n      eq\n      tag_5\n      jumpi\n    tag_2:\n      0x00\n      dup1\n      revert\n        /* \"contracts/MarketValueManager.sol\":403:444  IUniswapV2Router02 public uniswapV2Router */\n    tag_3:\n      sload(0x04)\n      tag_21\n      swap1\n      sub(shl(0xa0, 0x01), 0x01)\n      and\n      dup2\n      jump\n    tag_21:\n      mload(0x40)\n      sub(shl(0xa0, 0x01), 0x01)\n        /* \"#utility.yul\":204:236   */\n      swap1\n      swap2\n      and\n        /* \"#utility.yul\":186:237   */\n      dup2\n      mstore\n        /* \"#utility.yul\":174:176   */\n      0x20\n        /* \"#utility.yul\":159:177   */\n      add\n        /* \"contracts/MarketValueManager.sol\":403:444  IUniswapV2Router02 public uniswapV2Router */\n    tag_23:\n      mload(0x40)\n      dup1\n      swap2\n      sub\n      swap1\n      return\n        /* \"contracts/MarketValueManager.sol\":2624:2721  function withdraw() public onlyOwner{... */\n    tag_4:\n      tag_25\n      tag_26\n      jump\t// in\n    tag_25:\n      stop\n        /* \"contracts/MarketValueManager.sol\":324:342  IERC20 public weth */\n    tag_5:\n      sload(0x01)\n      tag_21\n      swap1\n      sub(shl(0xa0, 0x01), 0x01)\n      and\n      dup2\n      jump\n        /* \"contracts/MarketValueManager.sol\":1893:1978  function setAimToken(address _token) public onlyOwner {... */\n    tag_6:\n      tag_25\n      tag_32\n      calldatasize\n      0x04\n      tag_33\n      jump\t// in\n    tag_32:\n      tag_34\n      jump\t// in\n        /* \"contracts/MarketValueManager.sol\":1653:1771  function checkSAFEBalance() public view returns(uint256){... */\n    tag_7:\n      tag_35\n      tag_36\n      jump\t// in\n    tag_35:\n      mload(0x40)\n        /* \"#utility.yul\":1004:1029   */\n      swap1\n      dup2\n      mstore\n        /* \"#utility.yul\":992:994   */\n      0x20\n        /* \"#utility.yul\":977:995   */\n      add\n        /* \"contracts/MarketValueManager.sol\":1653:1771  function checkSAFEBalance() public view returns(uint256){... */\n      tag_23\n        /* \"#utility.yul\":858:1035   */\n      jump\n        /* \"@openzeppelin/contracts/access/Ownable.sol\":1831:1932  function renounceOwnership() public virtual onlyOwner {... */\n    tag_8:\n      tag_25\n      tag_40\n      jump\t// in\n        /* \"contracts/MarketValueManager.sol\":374:397  uint256 public cooldown */\n    tag_9:\n      tag_35\n      sload(0x03)\n      dup2\n      jump\n        /* \"@openzeppelin/contracts/access/Ownable.sol\":1201:1286  function owner() public view virtual returns (address) {... */\n    tag_10:\n        /* \"@openzeppelin/contracts/access/Ownable.sol\":1247:1254  address */\n      0x00\n        /* \"@openzeppelin/contracts/access/Ownable.sol\":1273:1279  _owner */\n      sload\n      sub(shl(0xa0, 0x01), 0x01)\n      and\n        /* \"@openzeppelin/contracts/access/Ownable.sol\":1201:1286  function owner() public view virtual returns (address) {... */\n      jump(tag_21)\n        /* \"contracts/MarketValueManager.sol\":1010:1132  function setcityNodeAddress(address _cityNodeAddress) public onlyOwner {... */\n    tag_11:\n      tag_25\n      tag_49\n      calldatasize\n      0x04\n      tag_33\n      jump\t// in\n    tag_49:\n      tag_50\n      jump\t// in\n        /* \"contracts/MarketValueManager.sol\":1138:1644  function buyAndBurn() public  {... */\n    tag_12:\n      tag_25\n      tag_52\n      jump\t// in\n        /* \"contracts/MarketValueManager.sol\":450:501  mapping(address => uint256) public isOrNotUseWallet */\n    tag_13:\n      tag_35\n      tag_54\n      calldatasize\n      0x04\n      tag_33\n      jump\t// in\n    tag_54:\n      mstore(0x20, 0x05)\n      0x00\n      swap1\n      dup2\n      mstore\n      0x40\n      swap1\n      keccak256\n      sload\n      dup2\n      jump\n        /* \"contracts/MarketValueManager.sol\":1777:1886  function checkBNBBalance() public view returns(uint256) {... */\n    tag_14:\n      tag_35\n      tag_58\n      jump\t// in\n        /* \"contracts/MarketValueManager.sol\":507:537  address public cityNodeAddress */\n    tag_15:\n      sload(0x06)\n      tag_21\n      swap1\n      sub(shl(0xa0, 0x01), 0x01)\n      and\n      dup2\n      jump\n        /* \"@openzeppelin/contracts/access/Ownable.sol\":2081:2279  function transferOwnership(address newOwner) public virtual onlyOwner {... */\n    tag_16:\n      tag_25\n      tag_64\n      calldatasize\n      0x04\n      tag_33\n      jump\t// in\n    tag_64:\n      tag_65\n      jump\t// in\n        /* \"contracts/MarketValueManager.sol\":348:368  address public token */\n    tag_17:\n      sload(0x02)\n      tag_21\n      swap1\n      sub(shl(0xa0, 0x01), 0x01)\n      and\n      dup2\n      jump\n        /* \"contracts/MarketValueManager.sol\":2624:2721  function withdraw() public onlyOwner{... */\n    tag_26:\n        /* \"@openzeppelin/contracts/access/Ownable.sol\":1094:1107  _checkOwner() */\n      tag_70\n        /* \"@openzeppelin/contracts/access/Ownable.sol\":1094:1105  _checkOwner */\n      tag_71\n        /* \"@openzeppelin/contracts/access/Ownable.sol\":1094:1107  _checkOwner() */\n      jump\t// in\n    tag_70:\n        /* \"contracts/MarketValueManager.sol\":2670:2674  weth */\n      and(sub(shl(0xa0, 0x01), 0x01), sload(0x01))\n        /* \"contracts/MarketValueManager.sol\":2670:2683  weth.transfer */\n      0xa9059cbb\n        /* \"contracts/MarketValueManager.sol\":2684:2694  msg.sender */\n      caller\n        /* \"contracts/MarketValueManager.sol\":2696:2713  checkBNBBalance() */\n      tag_73\n        /* \"contracts/MarketValueManager.sol\":2696:2711  checkBNBBalance */\n      tag_58\n        /* \"contracts/MarketValueManager.sol\":2696:2713  checkBNBBalance() */\n      jump\t// in\n    tag_73:\n        /* \"contracts/MarketValueManager.sol\":2670:2714  weth.transfer(msg.sender, checkBNBBalance()) */\n      mload(0x40)\n      not(sub(shl(0xe0, 0x01), 0x01))\n      0xe0\n      dup6\n      swap1\n      shl\n      and\n      dup2\n      mstore\n      sub(shl(0xa0, 0x01), 0x01)\n        /* \"#utility.yul\":1440:1472   */\n      swap1\n      swap3\n      and\n        /* \"contracts/MarketValueManager.sol\":2670:2714  weth.transfer(msg.sender, checkBNBBalance()) */\n      0x04\n      dup4\n      add\n        /* \"#utility.yul\":1422:1473   */\n      mstore\n        /* \"#utility.yul\":1489:1507   */\n      0x24\n      dup3\n      add\n        /* \"#utility.yul\":1482:1516   */\n      mstore\n        /* \"#utility.yul\":1395:1413   */\n      0x44\n      add\n        /* \"contracts/MarketValueManager.sol\":2670:2714  weth.transfer(msg.sender, checkBNBBalance()) */\n      0x20\n      mload(0x40)\n      dup1\n      dup4\n      sub\n      dup2\n      0x00\n      dup8\n      gas\n      call\n      iszero\n      dup1\n      iszero\n      tag_77\n      jumpi\n      returndatasize\n      0x00\n      dup1\n      returndatacopy\n      revert(0x00, returndatasize)\n    tag_77:\n      pop\n      pop\n      pop\n      pop\n      mload(0x40)\n      returndatasize\n      not(0x1f)\n      0x1f\n      dup3\n      add\n      and\n      dup3\n      add\n      dup1\n      0x40\n      mstore\n      pop\n      dup2\n      add\n      swap1\n      tag_78\n      swap2\n      swap1\n      tag_79\n      jump\t// in\n    tag_78:\n      pop\n        /* \"contracts/MarketValueManager.sol\":2624:2721  function withdraw() public onlyOwner{... */\n      jump\t// out\n        /* \"contracts/MarketValueManager.sol\":1893:1978  function setAimToken(address _token) public onlyOwner {... */\n    tag_34:\n        /* \"@openzeppelin/contracts/access/Ownable.sol\":1094:1107  _checkOwner() */\n      tag_81\n        /* \"@openzeppelin/contracts/access/Ownable.sol\":1094:1105  _checkOwner */\n      tag_71\n        /* \"@openzeppelin/contracts/access/Ownable.sol\":1094:1107  _checkOwner() */\n      jump\t// in\n    tag_81:\n        /* \"contracts/MarketValueManager.sol\":1957:1962  token */\n      0x02\n        /* \"contracts/MarketValueManager.sol\":1957:1971  token = _token */\n      dup1\n      sload\n      not(sub(shl(0xa0, 0x01), 0x01))\n      and\n      sub(shl(0xa0, 0x01), 0x01)\n      swap3\n      swap1\n      swap3\n      and\n      swap2\n      swap1\n      swap2\n      or\n      swap1\n      sstore\n        /* \"contracts/MarketValueManager.sol\":1893:1978  function setAimToken(address _token) public onlyOwner {... */\n      jump\t// out\n        /* \"contracts/MarketValueManager.sol\":1653:1771  function checkSAFEBalance() public view returns(uint256){... */\n    tag_36:\n        /* \"contracts/MarketValueManager.sol\":1733:1738  token */\n      sload(0x02)\n        /* \"contracts/MarketValueManager.sol\":1726:1764  IERC20(token).balanceOf(address(this)) */\n      mload(0x40)\n      shl(0xe0, 0x70a08231)\n      dup2\n      mstore\n        /* \"contracts/MarketValueManager.sol\":1758:1762  this */\n      address\n        /* \"contracts/MarketValueManager.sol\":1726:1764  IERC20(token).balanceOf(address(this)) */\n      0x04\n      dup3\n      add\n        /* \"#utility.yul\":186:237   */\n      mstore\n        /* \"contracts/MarketValueManager.sol\":1701:1708  uint256 */\n      0x00\n      swap2\n      sub(shl(0xa0, 0x01), 0x01)\n        /* \"contracts/MarketValueManager.sol\":1733:1738  token */\n      and\n      swap1\n        /* \"contracts/MarketValueManager.sol\":1726:1749  IERC20(token).balanceOf */\n      0x70a08231\n      swap1\n        /* \"#utility.yul\":159:177   */\n      0x24\n      add\n        /* \"contracts/MarketValueManager.sol\":1726:1764  IERC20(token).balanceOf(address(this)) */\n    tag_84:\n      0x20\n      mload(0x40)\n      dup1\n      dup4\n      sub\n      dup2\n      dup7\n      gas\n      staticcall\n      iszero\n      dup1\n      iszero\n      tag_86\n      jumpi\n      returndatasize\n      0x00\n      dup1\n      returndatacopy\n      revert(0x00, returndatasize)\n    tag_86:\n      pop\n      pop\n      pop\n      pop\n      mload(0x40)\n      returndatasize\n      not(0x1f)\n      0x1f\n      dup3\n      add\n      and\n      dup3\n      add\n      dup1\n      0x40\n      mstore\n      pop\n      dup2\n      add\n      swap1\n      tag_87\n      swap2\n      swap1\n      tag_88\n      jump\t// in\n    tag_87:\n        /* \"contracts/MarketValueManager.sol\":1719:1764  return IERC20(token).balanceOf(address(this)) */\n      swap1\n      pop\n        /* \"contracts/MarketValueManager.sol\":1653:1771  function checkSAFEBalance() public view returns(uint256){... */\n      swap1\n      jump\t// out\n        /* \"@openzeppelin/contracts/access/Ownable.sol\":1831:1932  function renounceOwnership() public virtual onlyOwner {... */\n    tag_40:\n        /* \"@openzeppelin/contracts/access/Ownable.sol\":1094:1107  _checkOwner() */\n      tag_90\n        /* \"@openzeppelin/contracts/access/Ownable.sol\":1094:1105  _checkOwner */\n      tag_71\n        /* \"@openzeppelin/contracts/access/Ownable.sol\":1094:1107  _checkOwner() */\n      jump\t// in\n    tag_90:\n        /* \"@openzeppelin/contracts/access/Ownable.sol\":1895:1925  _transferOwnership(address(0)) */\n      tag_92\n        /* \"@openzeppelin/contracts/access/Ownable.sol\":1922:1923  0 */\n      0x00\n        /* \"@openzeppelin/contracts/access/Ownable.sol\":1895:1913  _transferOwnership */\n      tag_93\n        /* \"@openzeppelin/contracts/access/Ownable.sol\":1895:1925  _transferOwnership(address(0)) */\n      jump\t// in\n    tag_92:\n        /* \"@openzeppelin/contracts/access/Ownable.sol\":1831:1932  function renounceOwnership() public virtual onlyOwner {... */\n      jump\t// out\n        /* \"contracts/MarketValueManager.sol\":1010:1132  function setcityNodeAddress(address _cityNodeAddress) public onlyOwner {... */\n    tag_50:\n        /* \"@openzeppelin/contracts/access/Ownable.sol\":1094:1107  _checkOwner() */\n      tag_96\n        /* \"@openzeppelin/contracts/access/Ownable.sol\":1094:1105  _checkOwner */\n      tag_71\n        /* \"@openzeppelin/contracts/access/Ownable.sol\":1094:1107  _checkOwner() */\n      jump\t// in\n    tag_96:\n        /* \"contracts/MarketValueManager.sol\":1091:1106  cityNodeAddress */\n      0x06\n        /* \"contracts/MarketValueManager.sol\":1091:1125  cityNodeAddress = _cityNodeAddress */\n      dup1\n      sload\n      not(sub(shl(0xa0, 0x01), 0x01))\n      and\n      sub(shl(0xa0, 0x01), 0x01)\n      swap3\n      swap1\n      swap3\n      and\n      swap2\n      swap1\n      swap2\n      or\n      swap1\n      sstore\n        /* \"contracts/MarketValueManager.sol\":1010:1132  function setcityNodeAddress(address _cityNodeAddress) public onlyOwner {... */\n      jump\t// out\n        /* \"contracts/MarketValueManager.sol\":1138:1644  function buyAndBurn() public  {... */\n    tag_52:\n        /* \"contracts/MarketValueManager.sol\":1186:1190  weth */\n      sload(0x01)\n        /* \"contracts/MarketValueManager.sol\":1186:1215  weth.balanceOf(address(this)) */\n      mload(0x40)\n      shl(0xe0, 0x70a08231)\n      dup2\n      mstore\n        /* \"contracts/MarketValueManager.sol\":1209:1213  this */\n      address\n        /* \"contracts/MarketValueManager.sol\":1186:1215  weth.balanceOf(address(this)) */\n      0x04\n      dup3\n      add\n        /* \"#utility.yul\":186:237   */\n      mstore\n        /* \"contracts/MarketValueManager.sol\":1218:1225  10 **18 */\n      0x0de0b6b3a7640000\n      swap2\n      sub(shl(0xa0, 0x01), 0x01)\n        /* \"contracts/MarketValueManager.sol\":1186:1190  weth */\n      and\n      swap1\n        /* \"contracts/MarketValueManager.sol\":1186:1200  weth.balanceOf */\n      0x70a08231\n      swap1\n        /* \"#utility.yul\":159:177   */\n      0x24\n      add\n        /* \"contracts/MarketValueManager.sol\":1186:1215  weth.balanceOf(address(this)) */\n      0x20\n      mload(0x40)\n      dup1\n      dup4\n      sub\n      dup2\n      dup7\n      gas\n      staticcall\n      iszero\n      dup1\n      iszero\n      tag_101\n      jumpi\n      returndatasize\n      0x00\n      dup1\n      returndatacopy\n      revert(0x00, returndatasize)\n    tag_101:\n      pop\n      pop\n      pop\n      pop\n      mload(0x40)\n      returndatasize\n      not(0x1f)\n      0x1f\n      dup3\n      add\n      and\n      dup3\n      add\n      dup1\n      0x40\n      mstore\n      pop\n      dup2\n      add\n      swap1\n      tag_102\n      swap2\n      swap1\n      tag_88\n      jump\t// in\n    tag_102:\n        /* \"contracts/MarketValueManager.sol\":1186:1225  weth.balanceOf(address(this)) >=10 **18 */\n      lt\n      iszero\n        /* \"contracts/MarketValueManager.sol\":1178:1248  require(weth.balanceOf(address(this)) >=10 **18 , \"BNB balance error\") */\n      tag_103\n      jumpi\n      mload(0x40)\n      shl(0xe5, 0x461bcd)\n      dup2\n      mstore\n        /* \"#utility.yul\":2200:2202   */\n      0x20\n        /* \"contracts/MarketValueManager.sol\":1178:1248  require(weth.balanceOf(address(this)) >=10 **18 , \"BNB balance error\") */\n      0x04\n      dup3\n      add\n        /* \"#utility.yul\":2182:2203   */\n      mstore\n        /* \"#utility.yul\":2239:2241   */\n      0x11\n        /* \"#utility.yul\":2219:2237   */\n      0x24\n      dup3\n      add\n        /* \"#utility.yul\":2212:2242   */\n      mstore\n      shl(0x79, 0x212721103130b630b731b29032b93937b9)\n        /* \"#utility.yul\":2258:2276   */\n      0x44\n      dup3\n      add\n        /* \"#utility.yul\":2251:2298   */\n      mstore\n        /* \"#utility.yul\":2315:2333   */\n      0x64\n      add\n        /* \"contracts/MarketValueManager.sol\":1178:1248  require(weth.balanceOf(address(this)) >=10 **18 , \"BNB balance error\") */\n    tag_104:\n      mload(0x40)\n      dup1\n      swap2\n      sub\n      swap1\n      revert\n    tag_103:\n        /* \"contracts/MarketValueManager.sol\":1284:1292  cooldown */\n      sload(0x03)\n        /* \"contracts/MarketValueManager.sol\":1284:1298  cooldown + 300 */\n      tag_106\n      swap1\n        /* \"contracts/MarketValueManager.sol\":1295:1298  300 */\n      0x012c\n        /* \"contracts/MarketValueManager.sol\":1284:1298  cooldown + 300 */\n      tag_107\n      jump\t// in\n    tag_106:\n        /* \"contracts/MarketValueManager.sol\":1266:1281  block.timestamp */\n      timestamp\n        /* \"contracts/MarketValueManager.sol\":1266:1298  block.timestamp > cooldown + 300 */\n      gt\n        /* \"contracts/MarketValueManager.sol\":1258:1319  require(block.timestamp > cooldown + 300 , \"is not cooldown\") */\n      tag_108\n      jumpi\n      mload(0x40)\n      shl(0xe5, 0x461bcd)\n      dup2\n      mstore\n        /* \"#utility.yul\":2808:2810   */\n      0x20\n        /* \"contracts/MarketValueManager.sol\":1258:1319  require(block.timestamp > cooldown + 300 , \"is not cooldown\") */\n      0x04\n      dup3\n      add\n        /* \"#utility.yul\":2790:2811   */\n      mstore\n        /* \"#utility.yul\":2847:2849   */\n      0x0f\n        /* \"#utility.yul\":2827:2845   */\n      0x24\n      dup3\n      add\n        /* \"#utility.yul\":2820:2850   */\n      mstore\n      shl(0x89, 0x34b9903737ba1031b7b7b63237bbb7)\n        /* \"#utility.yul\":2866:2884   */\n      0x44\n      dup3\n      add\n        /* \"#utility.yul\":2859:2904   */\n      mstore\n        /* \"#utility.yul\":2921:2939   */\n      0x64\n      add\n        /* \"contracts/MarketValueManager.sol\":1258:1319  require(block.timestamp > cooldown + 300 , \"is not cooldown\") */\n      tag_104\n        /* \"#utility.yul\":2606:2945   */\n      jump\n        /* \"contracts/MarketValueManager.sol\":1258:1319  require(block.timestamp > cooldown + 300 , \"is not cooldown\") */\n    tag_108:\n        /* \"contracts/MarketValueManager.sol\":1344:1349  token */\n      sload(0x02)\n        /* \"contracts/MarketValueManager.sol\":1337:1372  IERC20(token).balanceOf(msg.sender) */\n      mload(0x40)\n      shl(0xe0, 0x70a08231)\n      dup2\n      mstore\n        /* \"contracts/MarketValueManager.sol\":1361:1371  msg.sender */\n      caller\n        /* \"contracts/MarketValueManager.sol\":1337:1372  IERC20(token).balanceOf(msg.sender) */\n      0x04\n      dup3\n      add\n        /* \"#utility.yul\":186:237   */\n      mstore\n        /* \"contracts/MarketValueManager.sol\":1375:1386  1000*10**18 */\n      0x3635c9adc5dea00000\n      swap2\n      sub(shl(0xa0, 0x01), 0x01)\n        /* \"contracts/MarketValueManager.sol\":1344:1349  token */\n      and\n      swap1\n        /* \"contracts/MarketValueManager.sol\":1337:1360  IERC20(token).balanceOf */\n      0x70a08231\n      swap1\n        /* \"#utility.yul\":159:177   */\n      0x24\n      add\n        /* \"contracts/MarketValueManager.sol\":1337:1372  IERC20(token).balanceOf(msg.sender) */\n      0x20\n      mload(0x40)\n      dup1\n      dup4\n      sub\n      dup2\n      dup7\n      gas\n      staticcall\n      iszero\n      dup1\n      iszero\n      tag_113\n      jumpi\n      returndatasize\n      0x00\n      dup1\n      returndatacopy\n      revert(0x00, returndatasize)\n    tag_113:\n      pop\n      pop\n      pop\n      pop\n      mload(0x40)\n      returndatasize\n      not(0x1f)\n      0x1f\n      dup3\n      add\n      and\n      dup3\n      add\n      dup1\n      0x40\n      mstore\n      pop\n      dup2\n      add\n      swap1\n      tag_114\n      swap2\n      swap1\n      tag_88\n      jump\t// in\n    tag_114:\n        /* \"contracts/MarketValueManager.sol\":1337:1386  IERC20(token).balanceOf(msg.sender) > 1000*10**18 */\n      gt\n        /* \"contracts/MarketValueManager.sol\":1329:1410  require(IERC20(token).balanceOf(msg.sender) > 1000*10**18,\"u hold amount error\" ) */\n      tag_115\n      jumpi\n      mload(0x40)\n      shl(0xe5, 0x461bcd)\n      dup2\n      mstore\n        /* \"#utility.yul\":3152:3154   */\n      0x20\n        /* \"contracts/MarketValueManager.sol\":1329:1410  require(IERC20(token).balanceOf(msg.sender) > 1000*10**18,\"u hold amount error\" ) */\n      0x04\n      dup3\n      add\n        /* \"#utility.yul\":3134:3155   */\n      mstore\n        /* \"#utility.yul\":3191:3193   */\n      0x13\n        /* \"#utility.yul\":3171:3189   */\n      0x24\n      dup3\n      add\n        /* \"#utility.yul\":3164:3194   */\n      mstore\n      shl(0x69, 0x3a903437b6321030b6b7bab73a1032b93937b9)\n        /* \"#utility.yul\":3210:3228   */\n      0x44\n      dup3\n      add\n        /* \"#utility.yul\":3203:3252   */\n      mstore\n        /* \"#utility.yul\":3269:3287   */\n      0x64\n      add\n        /* \"contracts/MarketValueManager.sol\":1329:1410  require(IERC20(token).balanceOf(msg.sender) > 1000*10**18,\"u hold amount error\" ) */\n      tag_104\n        /* \"#utility.yul\":2950:3293   */\n      jump\n        /* \"contracts/MarketValueManager.sol\":1329:1410  require(IERC20(token).balanceOf(msg.sender) > 1000*10**18,\"u hold amount error\" ) */\n    tag_115:\n        /* \"contracts/MarketValueManager.sol\":1458:1468  msg.sender */\n      caller\n        /* \"contracts/MarketValueManager.sol\":1441:1469  isOrNotUseWallet[msg.sender] */\n      0x00\n      swap1\n      dup2\n      mstore\n        /* \"contracts/MarketValueManager.sol\":1441:1457  isOrNotUseWallet */\n      0x05\n        /* \"contracts/MarketValueManager.sol\":1441:1469  isOrNotUseWallet[msg.sender] */\n      0x20\n      mstore\n      0x40\n      swap1\n      keccak256\n      sload\n        /* \"contracts/MarketValueManager.sol\":1472:1476  3600 */\n      0x0e10\n      swap1\n        /* \"contracts/MarketValueManager.sol\":1423:1469  block.timestamp - isOrNotUseWallet[msg.sender] */\n      tag_118\n      swap1\n        /* \"contracts/MarketValueManager.sol\":1423:1438  block.timestamp */\n      timestamp\n        /* \"contracts/MarketValueManager.sol\":1423:1469  block.timestamp - isOrNotUseWallet[msg.sender] */\n      tag_119\n      jump\t// in\n    tag_118:\n        /* \"contracts/MarketValueManager.sol\":1423:1476  block.timestamp - isOrNotUseWallet[msg.sender] < 3600 */\n      lt\n        /* \"contracts/MarketValueManager.sol\":1420:1510  if(block.timestamp - isOrNotUseWallet[msg.sender] < 3600){... */\n      iszero\n      tag_120\n      jumpi\n        /* \"contracts/MarketValueManager.sol\":1491:1499  revert() */\n      0x00\n      dup1\n      revert\n        /* \"contracts/MarketValueManager.sol\":1420:1510  if(block.timestamp - isOrNotUseWallet[msg.sender] < 3600){... */\n    tag_120:\n        /* \"contracts/MarketValueManager.sol\":1519:1545  swapTokensForOther(10**18) */\n      tag_121\n        /* \"contracts/MarketValueManager.sol\":1538:1544  10**18 */\n      0x0de0b6b3a7640000\n        /* \"contracts/MarketValueManager.sol\":1519:1537  swapTokensForOther */\n      tag_122\n        /* \"contracts/MarketValueManager.sol\":1519:1545  swapTokensForOther(10**18) */\n      jump\t// in\n    tag_121:\n        /* \"contracts/MarketValueManager.sol\":1572:1582  msg.sender */\n      caller\n        /* \"contracts/MarketValueManager.sol\":1555:1583  isOrNotUseWallet[msg.sender] */\n      0x00\n      swap1\n      dup2\n      mstore\n        /* \"contracts/MarketValueManager.sol\":1555:1571  isOrNotUseWallet */\n      0x05\n        /* \"contracts/MarketValueManager.sol\":1555:1583  isOrNotUseWallet[msg.sender] */\n      0x20\n      mstore\n      0x40\n      swap1\n      keccak256\n        /* \"contracts/MarketValueManager.sol\":1586:1601  block.timestamp */\n      timestamp\n        /* \"contracts/MarketValueManager.sol\":1555:1601  isOrNotUseWallet[msg.sender] = block.timestamp */\n      swap1\n      dup2\n      swap1\n      sstore\n        /* \"contracts/MarketValueManager.sol\":1611:1619  cooldown */\n      0x03\n        /* \"contracts/MarketValueManager.sol\":1611:1637  cooldown = block.timestamp */\n      sstore\n        /* \"contracts/MarketValueManager.sol\":1138:1644  function buyAndBurn() public  {... */\n      jump\t// out\n        /* \"contracts/MarketValueManager.sol\":1777:1886  function checkBNBBalance() public view returns(uint256) {... */\n    tag_58:\n        /* \"contracts/MarketValueManager.sol\":1850:1854  weth */\n      sload(0x01)\n        /* \"contracts/MarketValueManager.sol\":1850:1879  weth.balanceOf(address(this)) */\n      mload(0x40)\n      shl(0xe0, 0x70a08231)\n      dup2\n      mstore\n        /* \"contracts/MarketValueManager.sol\":1873:1877  this */\n      address\n        /* \"contracts/MarketValueManager.sol\":1850:1879  weth.balanceOf(address(this)) */\n      0x04\n      dup3\n      add\n        /* \"#utility.yul\":186:237   */\n      mstore\n        /* \"contracts/MarketValueManager.sol\":1824:1831  uint256 */\n      0x00\n      swap2\n      sub(shl(0xa0, 0x01), 0x01)\n        /* \"contracts/MarketValueManager.sol\":1850:1854  weth */\n      and\n      swap1\n        /* \"contracts/MarketValueManager.sol\":1850:1864  weth.balanceOf */\n      0x70a08231\n      swap1\n        /* \"#utility.yul\":159:177   */\n      0x24\n      add\n        /* \"contracts/MarketValueManager.sol\":1850:1879  weth.balanceOf(address(this)) */\n      tag_84\n        /* \"#utility.yul\":14:243   */\n      jump\n        /* \"@openzeppelin/contracts/access/Ownable.sol\":2081:2279  function transferOwnership(address newOwner) public virtual onlyOwner {... */\n    tag_65:\n        /* \"@openzeppelin/contracts/access/Ownable.sol\":1094:1107  _checkOwner() */\n      tag_129\n        /* \"@openzeppelin/contracts/access/Ownable.sol\":1094:1105  _checkOwner */\n      tag_71\n        /* \"@openzeppelin/contracts/access/Ownable.sol\":1094:1107  _checkOwner() */\n      jump\t// in\n    tag_129:\n      sub(shl(0xa0, 0x01), 0x01)\n        /* \"@openzeppelin/contracts/access/Ownable.sol\":2169:2191  newOwner != address(0) */\n      dup2\n      and\n        /* \"@openzeppelin/contracts/access/Ownable.sol\":2161:2234  require(newOwner != address(0), \"Ownable: new owner is the zero address\") */\n      tag_131\n      jumpi\n      mload(0x40)\n      shl(0xe5, 0x461bcd)\n      dup2\n      mstore\n        /* \"#utility.yul\":3633:3635   */\n      0x20\n        /* \"@openzeppelin/contracts/access/Ownable.sol\":2161:2234  require(newOwner != address(0), \"Ownable: new owner is the zero address\") */\n      0x04\n      dup3\n      add\n        /* \"#utility.yul\":3615:3636   */\n      mstore\n        /* \"#utility.yul\":3672:3674   */\n      0x26\n        /* \"#utility.yul\":3652:3670   */\n      0x24\n      dup3\n      add\n        /* \"#utility.yul\":3645:3675   */\n      mstore\n        /* \"#utility.yul\":3711:3745   */\n      0x4f776e61626c653a206e6577206f776e657220697320746865207a65726f2061\n        /* \"#utility.yul\":3691:3709   */\n      0x44\n      dup3\n      add\n        /* \"#utility.yul\":3684:3746   */\n      mstore\n      shl(0xd0, 0x646472657373)\n        /* \"#utility.yul\":3762:3780   */\n      0x64\n      dup3\n      add\n        /* \"#utility.yul\":3755:3791   */\n      mstore\n        /* \"#utility.yul\":3808:3827   */\n      0x84\n      add\n        /* \"@openzeppelin/contracts/access/Ownable.sol\":2161:2234  require(newOwner != address(0), \"Ownable: new owner is the zero address\") */\n      tag_104\n        /* \"#utility.yul\":3431:3833   */\n      jump\n        /* \"@openzeppelin/contracts/access/Ownable.sol\":2161:2234  require(newOwner != address(0), \"Ownable: new owner is the zero address\") */\n    tag_131:\n        /* \"@openzeppelin/contracts/access/Ownable.sol\":2244:2272  _transferOwnership(newOwner) */\n      tag_78\n        /* \"@openzeppelin/contracts/access/Ownable.sol\":2263:2271  newOwner */\n      dup2\n        /* \"@openzeppelin/contracts/access/Ownable.sol\":2244:2262  _transferOwnership */\n      tag_93\n        /* \"@openzeppelin/contracts/access/Ownable.sol\":2244:2272  _transferOwnership(newOwner) */\n      jump\t// in\n        /* \"@openzeppelin/contracts/access/Ownable.sol\":1359:1489  function _checkOwner() internal view virtual {... */\n    tag_71:\n        /* \"@openzeppelin/contracts/access/Ownable.sol\":1247:1254  address */\n      0x00\n        /* \"@openzeppelin/contracts/access/Ownable.sol\":1273:1279  _owner */\n      sload\n      sub(shl(0xa0, 0x01), 0x01)\n      and\n        /* \"@openzeppelin/contracts/utils/Context.sol\":719:729  msg.sender */\n      caller\n        /* \"@openzeppelin/contracts/access/Ownable.sol\":1422:1445  owner() == _msgSender() */\n      eq\n        /* \"@openzeppelin/contracts/access/Ownable.sol\":1414:1482  require(owner() == _msgSender(), \"Ownable: caller is not the owner\") */\n      tag_92\n      jumpi\n      mload(0x40)\n      shl(0xe5, 0x461bcd)\n      dup2\n      mstore\n        /* \"#utility.yul\":4040:4042   */\n      0x20\n        /* \"@openzeppelin/contracts/access/Ownable.sol\":1414:1482  require(owner() == _msgSender(), \"Ownable: caller is not the owner\") */\n      0x04\n      dup3\n      add\n        /* \"#utility.yul\":4022:4043   */\n      dup2\n      swap1\n      mstore\n        /* \"#utility.yul\":4059:4077   */\n      0x24\n      dup3\n      add\n        /* \"#utility.yul\":4052:4082   */\n      mstore\n        /* \"#utility.yul\":4118:4152   */\n      0x4f776e61626c653a2063616c6c6572206973206e6f7420746865206f776e6572\n        /* \"#utility.yul\":4098:4116   */\n      0x44\n      dup3\n      add\n        /* \"#utility.yul\":4091:4153   */\n      mstore\n        /* \"#utility.yul\":4170:4188   */\n      0x64\n      add\n        /* \"@openzeppelin/contracts/access/Ownable.sol\":1414:1482  require(owner() == _msgSender(), \"Ownable: caller is not the owner\") */\n      tag_104\n        /* \"#utility.yul\":3838:4194   */\n      jump\n        /* \"@openzeppelin/contracts/access/Ownable.sol\":2433:2620  function _transferOwnership(address newOwner) internal virtual {... */\n    tag_93:\n        /* \"@openzeppelin/contracts/access/Ownable.sol\":2506:2522  address oldOwner */\n      0x00\n        /* \"@openzeppelin/contracts/access/Ownable.sol\":2525:2531  _owner */\n      dup1\n      sload\n      sub(shl(0xa0, 0x01), 0x01)\n        /* \"@openzeppelin/contracts/access/Ownable.sol\":2541:2558  _owner = newOwner */\n      dup4\n      dup2\n      and\n      not(sub(shl(0xa0, 0x01), 0x01))\n      dup4\n      and\n      dup2\n      or\n      dup5\n      sstore\n        /* \"@openzeppelin/contracts/access/Ownable.sol\":2573:2613  OwnershipTransferred(oldOwner, newOwner) */\n      mload(0x40)\n        /* \"@openzeppelin/contracts/access/Ownable.sol\":2525:2531  _owner */\n      swap2\n      swap1\n      swap3\n      and\n      swap3\n      dup4\n      swap2\n        /* \"@openzeppelin/contracts/access/Ownable.sol\":2573:2613  OwnershipTransferred(oldOwner, newOwner) */\n      0x8be0079c531659141344cd1fd0a4f28419497f9722a3daafe3b4186f6b6457e0\n      swap2\n        /* \"@openzeppelin/contracts/access/Ownable.sol\":2506:2522  address oldOwner */\n      swap1\n        /* \"@openzeppelin/contracts/access/Ownable.sol\":2573:2613  OwnershipTransferred(oldOwner, newOwner) */\n      log3\n        /* \"@openzeppelin/contracts/access/Ownable.sol\":2496:2620  {... */\n      pop\n        /* \"@openzeppelin/contracts/access/Ownable.sol\":2433:2620  function _transferOwnership(address newOwner) internal virtual {... */\n      pop\n      jump\t// out\n        /* \"contracts/MarketValueManager.sol\":1990:2619  function swapTokensForOther(uint256 tokenAmount) private {... */\n    tag_122:\n        /* \"contracts/MarketValueManager.sol\":2134:2150  new address[](2) */\n      0x40\n      dup1\n      mload\n        /* \"contracts/MarketValueManager.sol\":2148:2149  2 */\n      0x02\n        /* \"contracts/MarketValueManager.sol\":2134:2150  new address[](2) */\n      dup1\n      dup3\n      mstore\n      0x60\n      dup3\n      add\n      dup4\n      mstore\n        /* \"contracts/MarketValueManager.sol\":2110:2131  address[] memory path */\n      0x00\n      swap3\n        /* \"contracts/MarketValueManager.sol\":2134:2150  new address[](2) */\n      0x20\n      dup4\n      add\n      swap1\n      dup1\n      calldatasize\n      dup4\n      calldatacopy\n      pop\n      pop\n        /* \"contracts/MarketValueManager.sol\":2170:2185  uniswapV2Router */\n      0x04\n      dup1\n      sload\n        /* \"contracts/MarketValueManager.sol\":2170:2192  uniswapV2Router.WETH() */\n      0x40\n      dup1\n      mload\n      shl(0xe3, 0x15ab88c9)\n      dup2\n      mstore\n      swap1\n      mload\n        /* \"contracts/MarketValueManager.sol\":2110:2150  address[] memory path = new address[](2) */\n      swap5\n      swap6\n      pop\n      sub(shl(0xa0, 0x01), 0x01)\n        /* \"contracts/MarketValueManager.sol\":2170:2185  uniswapV2Router */\n      swap1\n      swap2\n      and\n      swap4\n        /* \"contracts/MarketValueManager.sol\":2170:2190  uniswapV2Router.WETH */\n      0xad5c4648\n      swap4\n      pop\n        /* \"contracts/MarketValueManager.sol\":2170:2192  uniswapV2Router.WETH() */\n      dup2\n      dup4\n      add\n      swap3\n      0x20\n      swap3\n      dup3\n      swap1\n      sub\n      add\n      dup2\n        /* \"contracts/MarketValueManager.sol\":2170:2185  uniswapV2Router */\n      dup7\n        /* \"contracts/MarketValueManager.sol\":2170:2192  uniswapV2Router.WETH() */\n      gas\n      staticcall\n      iszero\n      dup1\n      iszero\n      tag_149\n      jumpi\n      returndatasize\n      0x00\n      dup1\n      returndatacopy\n      revert(0x00, returndatasize)\n    tag_149:\n      pop\n      pop\n      pop\n      pop\n      mload(0x40)\n      returndatasize\n      not(0x1f)\n      0x1f\n      dup3\n      add\n      and\n      dup3\n      add\n      dup1\n      0x40\n      mstore\n      pop\n      dup2\n      add\n      swap1\n      tag_150\n      swap2\n      swap1\n      tag_151\n      jump\t// in\n    tag_150:\n        /* \"contracts/MarketValueManager.sol\":2160:2164  path */\n      dup2\n        /* \"contracts/MarketValueManager.sol\":2165:2166  0 */\n      0x00\n        /* \"contracts/MarketValueManager.sol\":2160:2167  path[0] */\n      dup2\n      mload\n      dup2\n      lt\n      tag_153\n      jumpi\n      tag_153\n      tag_154\n      jump\t// in\n    tag_153:\n      sub(shl(0xa0, 0x01), 0x01)\n        /* \"contracts/MarketValueManager.sol\":2160:2192  path[0] = uniswapV2Router.WETH() */\n      swap3\n      dup4\n      and\n        /* \"contracts/MarketValueManager.sol\":2160:2167  path[0] */\n      0x20\n      swap2\n      dup3\n      mul\n      swap3\n      swap1\n      swap3\n      add\n      add\n        /* \"contracts/MarketValueManager.sol\":2160:2192  path[0] = uniswapV2Router.WETH() */\n      mstore\n        /* \"contracts/MarketValueManager.sol\":2212:2217  token */\n      sload(0x02)\n        /* \"contracts/MarketValueManager.sol\":2202:2209  path[1] */\n      dup3\n      mload\n        /* \"contracts/MarketValueManager.sol\":2212:2217  token */\n      swap2\n      and\n      swap1\n        /* \"contracts/MarketValueManager.sol\":2202:2206  path */\n      dup3\n      swap1\n        /* \"contracts/MarketValueManager.sol\":2212:2217  token */\n      0x01\n      swap1\n        /* \"contracts/MarketValueManager.sol\":2202:2209  path[1] */\n      dup2\n      lt\n      tag_156\n      jumpi\n      tag_156\n      tag_154\n      jump\t// in\n    tag_156:\n      sub(shl(0xa0, 0x01), 0x01)\n        /* \"contracts/MarketValueManager.sol\":2202:2217  path[1] = token */\n      swap3\n      dup4\n      and\n        /* \"contracts/MarketValueManager.sol\":2202:2209  path[1] */\n      0x20\n      swap2\n      dup3\n      mul\n      swap3\n      swap1\n      swap3\n      add\n      add\n        /* \"contracts/MarketValueManager.sol\":2202:2217  path[1] = token */\n      mstore\n        /* \"contracts/MarketValueManager.sol\":2237:2252  uniswapV2Router */\n      0x04\n      dup1\n      sload\n        /* \"contracts/MarketValueManager.sol\":2237:2430  uniswapV2Router.swapExactTokensForTokensSupportingFeeOnTransferTokens(... */\n      mload(0x40)\n      shl(0xe0, 0x5c11d795)\n      dup2\n      mstore\n        /* \"contracts/MarketValueManager.sol\":2237:2252  uniswapV2Router */\n      swap3\n      and\n      swap2\n        /* \"contracts/MarketValueManager.sol\":2237:2306  uniswapV2Router.swapExactTokensForTokensSupportingFeeOnTransferTokens */\n      0x5c11d795\n      swap2\n        /* \"contracts/MarketValueManager.sol\":2237:2430  uniswapV2Router.swapExactTokensForTokensSupportingFeeOnTransferTokens(... */\n      tag_157\n      swap2\n        /* \"contracts/MarketValueManager.sol\":2320:2331  tokenAmount */\n      dup7\n      swap2\n        /* \"contracts/MarketValueManager.sol\":2237:2252  uniswapV2Router */\n      0x00\n      swap2\n        /* \"contracts/MarketValueManager.sol\":2360:2364  path */\n      dup8\n      swap2\n        /* \"contracts/MarketValueManager.sol\":2386:2390  this */\n      address\n      swap2\n        /* \"contracts/MarketValueManager.sol\":2405:2420  block.timestamp */\n      timestamp\n      swap2\n        /* \"contracts/MarketValueManager.sol\":2237:2430  uniswapV2Router.swapExactTokensForTokensSupportingFeeOnTransferTokens(... */\n      add\n      tag_158\n      jump\t// in\n    tag_157:\n      0x00\n      mload(0x40)\n      dup1\n      dup4\n      sub\n      dup2\n      0x00\n      dup8\n      dup1\n      extcodesize\n      iszero\n      dup1\n      iszero\n      tag_159\n      jumpi\n      0x00\n      dup1\n      revert\n    tag_159:\n      pop\n      gas\n      call\n      iszero\n      dup1\n      iszero\n      tag_161\n      jumpi\n      returndatasize\n      0x00\n      dup1\n      returndatacopy\n      revert(0x00, returndatasize)\n    tag_161:\n      pop\n      pop\n        /* \"contracts/MarketValueManager.sol\":2447:2452  token */\n      and(sub(shl(0xa0, 0x01), 0x01), sload(0x02))\n      swap2\n      pop\n        /* \"contracts/MarketValueManager.sol\":2440:2462  IERC20(token).transfer */\n      0xa9059cbb\n      swap1\n      pop\n        /* \"contracts/MarketValueManager.sol\":2471:2513  0x000000000000000000000000000000000000dEaD */\n      0xdead\n        /* \"contracts/MarketValueManager.sol\":2535:2538  100 */\n      0x64\n        /* \"contracts/MarketValueManager.sol\":2516:2534  checkSAFEBalance() */\n      tag_162\n        /* \"contracts/MarketValueManager.sol\":2516:2532  checkSAFEBalance */\n      tag_36\n        /* \"contracts/MarketValueManager.sol\":2516:2534  checkSAFEBalance() */\n      jump\t// in\n    tag_162:\n        /* \"contracts/MarketValueManager.sol\":2516:2538  checkSAFEBalance()/100 */\n      tag_163\n      swap2\n      swap1\n      tag_164\n      jump\t// in\n    tag_163:\n        /* \"contracts/MarketValueManager.sol\":2516:2541  checkSAFEBalance()/100*95 */\n      tag_165\n      swap1\n        /* \"contracts/MarketValueManager.sol\":2539:2541  95 */\n      0x5f\n        /* \"contracts/MarketValueManager.sol\":2516:2541  checkSAFEBalance()/100*95 */\n      tag_166\n      jump\t// in\n    tag_165:\n        /* \"contracts/MarketValueManager.sol\":2440:2542  IERC20(token).transfer(address(0x000000000000000000000000000000000000dEaD), checkSAFEBalance()/100*95) */\n      mload(0x40)\n      not(sub(shl(0xe0, 0x01), 0x01))\n      0xe0\n      dup6\n      swap1\n      shl\n      and\n      dup2\n      mstore\n      sub(shl(0xa0, 0x01), 0x01)\n        /* \"#utility.yul\":1440:1472   */\n      swap1\n      swap3\n      and\n        /* \"contracts/MarketValueManager.sol\":2440:2542  IERC20(token).transfer(address(0x000000000000000000000000000000000000dEaD), checkSAFEBalance()/100*95) */\n      0x04\n      dup4\n      add\n        /* \"#utility.yul\":1422:1473   */\n      mstore\n        /* \"#utility.yul\":1489:1507   */\n      0x24\n      dup3\n      add\n        /* \"#utility.yul\":1482:1516   */\n      mstore\n        /* \"#utility.yul\":1395:1413   */\n      0x44\n      add\n        /* \"contracts/MarketValueManager.sol\":2440:2542  IERC20(token).transfer(address(0x000000000000000000000000000000000000dEaD), checkSAFEBalance()/100*95) */\n      0x20\n      mload(0x40)\n      dup1\n      dup4\n      sub\n      dup2\n      0x00\n      dup8\n      gas\n      call\n      iszero\n      dup1\n      iszero\n      tag_169\n      jumpi\n      returndatasize\n      0x00\n      dup1\n      returndatacopy\n      revert(0x00, returndatasize)\n    tag_169:\n      pop\n      pop\n      pop\n      pop\n      mload(0x40)\n      returndatasize\n      not(0x1f)\n      0x1f\n      dup3\n      add\n      and\n      dup3\n      add\n      dup1\n      0x40\n      mstore\n      pop\n      dup2\n      add\n      swap1\n      tag_170\n      swap2\n      swap1\n      tag_79\n      jump\t// in\n    tag_170:\n      pop\n        /* \"contracts/MarketValueManager.sol\":2559:2564  token */\n      and(sub(shl(0xa0, 0x01), 0x01), sload(0x02))\n        /* \"contracts/MarketValueManager.sol\":2552:2574  IERC20(token).transfer */\n      0xa9059cbb\n        /* \"contracts/MarketValueManager.sol\":2575:2585  msg.sender */\n      caller\n        /* \"contracts/MarketValueManager.sol\":2606:2609  100 */\n      0x64\n        /* \"contracts/MarketValueManager.sol\":2587:2605  checkSAFEBalance() */\n      tag_171\n        /* \"contracts/MarketValueManager.sol\":2587:2603  checkSAFEBalance */\n      tag_36\n        /* \"contracts/MarketValueManager.sol\":2587:2605  checkSAFEBalance() */\n      jump\t// in\n    tag_171:\n        /* \"contracts/MarketValueManager.sol\":2587:2609  checkSAFEBalance()/100 */\n      tag_172\n      swap2\n      swap1\n      tag_164\n      jump\t// in\n    tag_172:\n        /* \"contracts/MarketValueManager.sol\":2587:2611  checkSAFEBalance()/100*5 */\n      tag_173\n      swap1\n        /* \"contracts/MarketValueManager.sol\":2610:2611  5 */\n      0x05\n        /* \"contracts/MarketValueManager.sol\":2587:2611  checkSAFEBalance()/100*5 */\n      tag_166\n      jump\t// in\n    tag_173:\n        /* \"contracts/MarketValueManager.sol\":2552:2612  IERC20(token).transfer(msg.sender, checkSAFEBalance()/100*5) */\n      mload(0x40)\n      not(sub(shl(0xe0, 0x01), 0x01))\n      0xe0\n      dup6\n      swap1\n      shl\n      and\n      dup2\n      mstore\n      sub(shl(0xa0, 0x01), 0x01)\n        /* \"#utility.yul\":1440:1472   */\n      swap1\n      swap3\n      and\n        /* \"contracts/MarketValueManager.sol\":2552:2612  IERC20(token).transfer(msg.sender, checkSAFEBalance()/100*5) */\n      0x04\n      dup4\n      add\n        /* \"#utility.yul\":1422:1473   */\n      mstore\n        /* \"#utility.yul\":1489:1507   */\n      0x24\n      dup3\n      add\n        /* \"#utility.yul\":1482:1516   */\n      mstore\n        /* \"#utility.yul\":1395:1413   */\n      0x44\n      add\n        /* \"contracts/MarketValueManager.sol\":2552:2612  IERC20(token).transfer(msg.sender, checkSAFEBalance()/100*5) */\n      0x20\n      mload(0x40)\n      dup1\n      dup4\n      sub\n      dup2\n      0x00\n      dup8\n      gas\n      call\n      iszero\n      dup1\n      iszero\n      tag_176\n      jumpi\n      returndatasize\n      0x00\n      dup1\n      returndatacopy\n      revert(0x00, returndatasize)\n    tag_176:\n      pop\n      pop\n      pop\n      pop\n      mload(0x40)\n      returndatasize\n      not(0x1f)\n      0x1f\n      dup3\n      add\n      and\n      dup3\n      add\n      dup1\n      0x40\n      mstore\n      pop\n      dup2\n      add\n      swap1\n      tag_177\n      swap2\n      swap1\n      tag_79\n      jump\t// in\n    tag_177:\n      pop\n        /* \"contracts/MarketValueManager.sol\":2047:2619  {... */\n      pop\n        /* \"contracts/MarketValueManager.sol\":1990:2619  function swapTokensForOther(uint256 tokenAmount) private {... */\n      pop\n      jump\t// out\n        /* \"#utility.yul\":470:601   */\n    tag_179:\n      sub(shl(0xa0, 0x01), 0x01)\n        /* \"#utility.yul\":545:576   */\n      dup2\n      and\n        /* \"#utility.yul\":535:577   */\n      dup2\n      eq\n        /* \"#utility.yul\":525:595   */\n      tag_78\n      jumpi\n        /* \"#utility.yul\":591:592   */\n      0x00\n        /* \"#utility.yul\":588:589   */\n      dup1\n        /* \"#utility.yul\":581:593   */\n      revert\n        /* \"#utility.yul\":606:853   */\n    tag_33:\n        /* \"#utility.yul\":665:671   */\n      0x00\n        /* \"#utility.yul\":718:720   */\n      0x20\n        /* \"#utility.yul\":706:715   */\n      dup3\n        /* \"#utility.yul\":697:704   */\n      dup5\n        /* \"#utility.yul\":693:716   */\n      sub\n        /* \"#utility.yul\":689:721   */\n      slt\n        /* \"#utility.yul\":686:738   */\n      iszero\n      tag_187\n      jumpi\n        /* \"#utility.yul\":734:735   */\n      0x00\n        /* \"#utility.yul\":731:732   */\n      dup1\n        /* \"#utility.yul\":724:736   */\n      revert\n        /* \"#utility.yul\":686:738   */\n    tag_187:\n        /* \"#utility.yul\":773:782   */\n      dup2\n        /* \"#utility.yul\":760:783   */\n      calldataload\n        /* \"#utility.yul\":792:823   */\n      tag_188\n        /* \"#utility.yul\":817:822   */\n      dup2\n        /* \"#utility.yul\":792:823   */\n      tag_179\n      jump\t// in\n    tag_188:\n        /* \"#utility.yul\":842:847   */\n      swap4\n        /* \"#utility.yul\":606:853   */\n      swap3\n      pop\n      pop\n      pop\n      jump\t// out\n        /* \"#utility.yul\":1527:1804   */\n    tag_79:\n        /* \"#utility.yul\":1594:1600   */\n      0x00\n        /* \"#utility.yul\":1647:1649   */\n      0x20\n        /* \"#utility.yul\":1635:1644   */\n      dup3\n        /* \"#utility.yul\":1626:1633   */\n      dup5\n        /* \"#utility.yul\":1622:1645   */\n      sub\n        /* \"#utility.yul\":1618:1650   */\n      slt\n        /* \"#utility.yul\":1615:1667   */\n      iszero\n      tag_193\n      jumpi\n        /* \"#utility.yul\":1663:1664   */\n      0x00\n        /* \"#utility.yul\":1660:1661   */\n      dup1\n        /* \"#utility.yul\":1653:1665   */\n      revert\n        /* \"#utility.yul\":1615:1667   */\n    tag_193:\n        /* \"#utility.yul\":1695:1704   */\n      dup2\n        /* \"#utility.yul\":1689:1705   */\n      mload\n        /* \"#utility.yul\":1748:1753   */\n      dup1\n        /* \"#utility.yul\":1741:1754   */\n      iszero\n        /* \"#utility.yul\":1734:1755   */\n      iszero\n        /* \"#utility.yul\":1727:1732   */\n      dup2\n        /* \"#utility.yul\":1724:1756   */\n      eq\n        /* \"#utility.yul\":1714:1774   */\n      tag_188\n      jumpi\n        /* \"#utility.yul\":1770:1771   */\n      0x00\n        /* \"#utility.yul\":1767:1768   */\n      dup1\n        /* \"#utility.yul\":1760:1772   */\n      revert\n        /* \"#utility.yul\":1809:1993   */\n    tag_88:\n        /* \"#utility.yul\":1879:1885   */\n      0x00\n        /* \"#utility.yul\":1932:1934   */\n      0x20\n        /* \"#utility.yul\":1920:1929   */\n      dup3\n        /* \"#utility.yul\":1911:1918   */\n      dup5\n        /* \"#utility.yul\":1907:1930   */\n      sub\n        /* \"#utility.yul\":1903:1935   */\n      slt\n        /* \"#utility.yul\":1900:1952   */\n      iszero\n      tag_196\n      jumpi\n        /* \"#utility.yul\":1948:1949   */\n      0x00\n        /* \"#utility.yul\":1945:1946   */\n      dup1\n        /* \"#utility.yul\":1938:1950   */\n      revert\n        /* \"#utility.yul\":1900:1952   */\n    tag_196:\n      pop\n        /* \"#utility.yul\":1971:1987   */\n      mload\n      swap2\n        /* \"#utility.yul\":1809:1993   */\n      swap1\n      pop\n      jump\t// out\n        /* \"#utility.yul\":2344:2471   */\n    tag_180:\n        /* \"#utility.yul\":2405:2415   */\n      0x4e487b71\n        /* \"#utility.yul\":2400:2403   */\n      0xe0\n        /* \"#utility.yul\":2396:2416   */\n      shl\n        /* \"#utility.yul\":2393:2394   */\n      0x00\n        /* \"#utility.yul\":2386:2417   */\n      mstore\n        /* \"#utility.yul\":2436:2440   */\n      0x11\n        /* \"#utility.yul\":2433:2434   */\n      0x04\n        /* \"#utility.yul\":2426:2441   */\n      mstore\n        /* \"#utility.yul\":2460:2464   */\n      0x24\n        /* \"#utility.yul\":2457:2458   */\n      0x00\n        /* \"#utility.yul\":2450:2465   */\n      revert\n        /* \"#utility.yul\":2476:2601   */\n    tag_107:\n        /* \"#utility.yul\":2541:2550   */\n      dup1\n      dup3\n      add\n        /* \"#utility.yul\":2562:2572   */\n      dup1\n      dup3\n      gt\n        /* \"#utility.yul\":2559:2595   */\n      iszero\n      tag_201\n      jumpi\n        /* \"#utility.yul\":2575:2593   */\n      tag_201\n      tag_180\n      jump\t// in\n    tag_201:\n        /* \"#utility.yul\":2476:2601   */\n      swap3\n      swap2\n      pop\n      pop\n      jump\t// out\n        /* \"#utility.yul\":3298:3426   */\n    tag_119:\n        /* \"#utility.yul\":3365:3374   */\n      dup2\n      dup2\n      sub\n        /* \"#utility.yul\":3386:3397   */\n      dup2\n      dup2\n      gt\n        /* \"#utility.yul\":3383:3420   */\n      iszero\n      tag_201\n      jumpi\n        /* \"#utility.yul\":3400:3418   */\n      tag_201\n      tag_180\n      jump\t// in\n        /* \"#utility.yul\":4331:4582   */\n    tag_151:\n        /* \"#utility.yul\":4401:4407   */\n      0x00\n        /* \"#utility.yul\":4454:4456   */\n      0x20\n        /* \"#utility.yul\":4442:4451   */\n      dup3\n        /* \"#utility.yul\":4433:4440   */\n      dup5\n        /* \"#utility.yul\":4429:4452   */\n      sub\n        /* \"#utility.yul\":4425:4457   */\n      slt\n        /* \"#utility.yul\":4422:4474   */\n      iszero\n      tag_211\n      jumpi\n        /* \"#utility.yul\":4470:4471   */\n      0x00\n        /* \"#utility.yul\":4467:4468   */\n      dup1\n        /* \"#utility.yul\":4460:4472   */\n      revert\n        /* \"#utility.yul\":4422:4474   */\n    tag_211:\n        /* \"#utility.yul\":4502:4511   */\n      dup2\n        /* \"#utility.yul\":4496:4512   */\n      mload\n        /* \"#utility.yul\":4521:4552   */\n      tag_188\n        /* \"#utility.yul\":4546:4551   */\n      dup2\n        /* \"#utility.yul\":4521:4552   */\n      tag_179\n      jump\t// in\n        /* \"#utility.yul\":4587:4714   */\n    tag_154:\n        /* \"#utility.yul\":4648:4658   */\n      0x4e487b71\n        /* \"#utility.yul\":4643:4646   */\n      0xe0\n        /* \"#utility.yul\":4639:4659   */\n      shl\n        /* \"#utility.yul\":4636:4637   */\n      0x00\n        /* \"#utility.yul\":4629:4660   */\n      mstore\n        /* \"#utility.yul\":4679:4683   */\n      0x32\n        /* \"#utility.yul\":4676:4677   */\n      0x04\n        /* \"#utility.yul\":4669:4684   */\n      mstore\n        /* \"#utility.yul\":4703:4707   */\n      0x24\n        /* \"#utility.yul\":4700:4701   */\n      0x00\n        /* \"#utility.yul\":4693:4708   */\n      revert\n        /* \"#utility.yul\":4719:5699   */\n    tag_158:\n        /* \"#utility.yul\":4981:4985   */\n      0x00\n        /* \"#utility.yul\":5029:5032   */\n      0xa0\n        /* \"#utility.yul\":5018:5027   */\n      dup3\n        /* \"#utility.yul\":5014:5033   */\n      add\n        /* \"#utility.yul\":5060:5066   */\n      dup8\n        /* \"#utility.yul\":5049:5058   */\n      dup4\n        /* \"#utility.yul\":5042:5067   */\n      mstore\n        /* \"#utility.yul\":5086:5088   */\n      0x20\n        /* \"#utility.yul\":5124:5130   */\n      dup8\n        /* \"#utility.yul\":5119:5121   */\n      dup2\n        /* \"#utility.yul\":5108:5117   */\n      dup6\n        /* \"#utility.yul\":5104:5122   */\n      add\n        /* \"#utility.yul\":5097:5131   */\n      mstore\n        /* \"#utility.yul\":5167:5170   */\n      0xa0\n        /* \"#utility.yul\":5162:5164   */\n      0x40\n        /* \"#utility.yul\":5151:5160   */\n      dup6\n        /* \"#utility.yul\":5147:5165   */\n      add\n        /* \"#utility.yul\":5140:5171   */\n      mstore\n        /* \"#utility.yul\":5191:5197   */\n      dup2\n        /* \"#utility.yul\":5226:5232   */\n      dup8\n        /* \"#utility.yul\":5220:5233   */\n      mload\n        /* \"#utility.yul\":5257:5263   */\n      dup1\n        /* \"#utility.yul\":5249:5255   */\n      dup5\n        /* \"#utility.yul\":5242:5264   */\n      mstore\n        /* \"#utility.yul\":5295:5298   */\n      0xc0\n        /* \"#utility.yul\":5284:5293   */\n      dup7\n        /* \"#utility.yul\":5280:5299   */\n      add\n        /* \"#utility.yul\":5273:5299   */\n      swap2\n      pop\n        /* \"#utility.yul\":5334:5336   */\n      dup3\n        /* \"#utility.yul\":5326:5332   */\n      dup10\n        /* \"#utility.yul\":5322:5337   */\n      add\n        /* \"#utility.yul\":5308:5337   */\n      swap4\n      pop\n        /* \"#utility.yul\":5355:5356   */\n      0x00\n        /* \"#utility.yul\":5365:5560   */\n    tag_215:\n        /* \"#utility.yul\":5379:5385   */\n      dup2\n        /* \"#utility.yul\":5376:5377   */\n      dup2\n        /* \"#utility.yul\":5373:5386   */\n      lt\n        /* \"#utility.yul\":5365:5560   */\n      iszero\n      tag_217\n      jumpi\n        /* \"#utility.yul\":5444:5457   */\n      dup5\n      mload\n      sub(shl(0xa0, 0x01), 0x01)\n        /* \"#utility.yul\":5440:5479   */\n      and\n        /* \"#utility.yul\":5428:5480   */\n      dup4\n      mstore\n        /* \"#utility.yul\":5535:5550   */\n      swap4\n      dup4\n      add\n      swap4\n        /* \"#utility.yul\":5500:5512   */\n      swap2\n      dup4\n      add\n      swap2\n        /* \"#utility.yul\":5476:5477   */\n      0x01\n        /* \"#utility.yul\":5394:5403   */\n      add\n        /* \"#utility.yul\":5365:5560   */\n      jump(tag_215)\n    tag_217:\n      pop\n      pop\n      sub(shl(0xa0, 0x01), 0x01)\n        /* \"#utility.yul\":5616:5648   */\n      swap7\n      swap1\n      swap7\n      and\n        /* \"#utility.yul\":5611:5613   */\n      0x60\n        /* \"#utility.yul\":5596:5614   */\n      dup6\n      add\n        /* \"#utility.yul\":5589:5649   */\n      mstore\n      pop\n      pop\n      pop\n        /* \"#utility.yul\":5680:5683   */\n      0x80\n        /* \"#utility.yul\":5665:5684   */\n      add\n        /* \"#utility.yul\":5658:5693   */\n      mstore\n        /* \"#utility.yul\":5577:5580   */\n      swap4\n        /* \"#utility.yul\":4719:5699   */\n      swap3\n      pop\n      pop\n      pop\n      jump\t// out\n        /* \"#utility.yul\":5704:5921   */\n    tag_164:\n        /* \"#utility.yul\":5744:5745   */\n      0x00\n        /* \"#utility.yul\":5770:5771   */\n      dup3\n        /* \"#utility.yul\":5760:5892   */\n      tag_219\n      jumpi\n        /* \"#utility.yul\":5814:5824   */\n      0x4e487b71\n        /* \"#utility.yul\":5809:5812   */\n      0xe0\n        /* \"#utility.yul\":5805:5825   */\n      shl\n        /* \"#utility.yul\":5802:5803   */\n      0x00\n        /* \"#utility.yul\":5795:5826   */\n      mstore\n        /* \"#utility.yul\":5849:5853   */\n      0x12\n        /* \"#utility.yul\":5846:5847   */\n      0x04\n        /* \"#utility.yul\":5839:5854   */\n      mstore\n        /* \"#utility.yul\":5877:5881   */\n      0x24\n        /* \"#utility.yul\":5874:5875   */\n      0x00\n        /* \"#utility.yul\":5867:5882   */\n      revert\n        /* \"#utility.yul\":5760:5892   */\n    tag_219:\n      pop\n        /* \"#utility.yul\":5906:5915   */\n      div\n      swap1\n        /* \"#utility.yul\":5704:5921   */\n      jump\t// out\n        /* \"#utility.yul\":5926:6094   */\n    tag_166:\n        /* \"#utility.yul\":5999:6008   */\n      dup1\n      dup3\n      mul\n        /* \"#utility.yul\":6030:6039   */\n      dup2\n      iszero\n        /* \"#utility.yul\":6047:6062   */\n      dup3\n      dup3\n      div\n        /* \"#utility.yul\":6041:6063   */\n      dup5\n      eq\n        /* \"#utility.yul\":6027:6064   */\n      or\n        /* \"#utility.yul\":6017:6088   */\n      tag_201\n      jumpi\n        /* \"#utility.yul\":6068:6086   */\n      tag_201\n      tag_180\n      jump\t// in\n\n    auxdata: 0xa2646970667358221220c5cb9b96a17ddd6e8c0d8a9cacb9a63f4c73998d811085bf14e45fcffed0c8c964736f6c63430008120033\n}\n",
				"bytecode": {
					"linkReferences": {},
					"object": "608060405234801561001057600080fd5b5061001a336101d3565b600480546001600160a01b031916739ac64cc6e4415144c455bd8e4837fea55603e5c39081178255604080516315ab88c960e31b815290519192839263ad5c46489280830192602092918290030181865afa15801561007d573d6000803e3d6000fd5b505050506040513d601f19601f820116820180604052508101906100a19190610223565b600180546001600160a01b0319166001600160a01b0392909216918217905560405163095ea7b360e01b8152739ac64cc6e4415144c455bd8e4837fea55603e5c360048201526e01ed09bead87c0378d8e6400000000602482015263095ea7b3906044016020604051808303816000875af1158015610124573d6000803e3d6000fd5b505050506040513d601f19601f820116820180604052508101906101489190610253565b5060015460405163095ea7b360e01b81523060048201526e01ed09bead87c0378d8e640000000060248201526001600160a01b039091169063095ea7b3906044016020604051808303816000875af11580156101a8573d6000803e3d6000fd5b505050506040513d601f19601f820116820180604052508101906101cc9190610253565b5050610275565b600080546001600160a01b038381166001600160a01b0319831681178455604051919092169283917f8be0079c531659141344cd1fd0a4f28419497f9722a3daafe3b4186f6b6457e09190a35050565b60006020828403121561023557600080fd5b81516001600160a01b038116811461024c57600080fd5b9392505050565b60006020828403121561026557600080fd5b8151801515811461024c57600080fd5b610b3c806102846000396000f3fe608060405234801561001057600080fd5b50600436106100f55760003560e01c80638da5cb5b11610097578063cc9b2e0e11610066578063cc9b2e0e146101cd578063dab9e087146101d5578063f2fde38b146101e8578063fc0c546a146101fb57600080fd5b80638da5cb5b14610181578063a703bd0214610192578063aa6df299146101a5578063cb464c49146101ad57600080fd5b8063467e8814116100d3578063467e881414610147578063610abe351461015a578063715018a614610170578063787a08a61461017857600080fd5b80631694505e146100fa5780633ccfd60b1461012a5780633fc8cef314610134575b600080fd5b60045461010d906001600160a01b031681565b6040516001600160a01b0390911681526020015b60405180910390f35b61013261020e565b005b60015461010d906001600160a01b031681565b610132610155366004610988565b6102a2565b6101626102cc565b604051908152602001610121565b61013261033f565b61016260035481565b6000546001600160a01b031661010d565b6101326101a0366004610988565b610353565b61013261037d565b6101626101bb366004610988565b60056020526000908152604090205481565b610162610592565b60065461010d906001600160a01b031681565b6101326101f6366004610988565b6105c3565b60025461010d906001600160a01b031681565b610216610639565b6001546001600160a01b031663a9059cbb33610230610592565b6040516001600160e01b031960e085901b1681526001600160a01b03909216600483015260248201526044016020604051808303816000875af115801561027b573d6000803e3d6000fd5b505050506040513d601f19601f8201168201806040525081019061029f91906109ac565b50565b6102aa610639565b600280546001600160a01b0319166001600160a01b0392909216919091179055565b6002546040516370a0823160e01b81523060048201526000916001600160a01b0316906370a08231906024015b602060405180830381865afa158015610316573d6000803e3d6000fd5b505050506040513d601f19601f8201168201806040525081019061033a91906109ce565b905090565b610347610639565b6103516000610693565b565b61035b610639565b600680546001600160a01b0319166001600160a01b0392909216919091179055565b6001546040516370a0823160e01b8152306004820152670de0b6b3a7640000916001600160a01b0316906370a0823190602401602060405180830381865afa1580156103cd573d6000803e3d6000fd5b505050506040513d601f19601f820116820180604052508101906103f191906109ce565b10156104385760405162461bcd60e51b8152602060048201526011602482015270212721103130b630b731b29032b93937b960791b60448201526064015b60405180910390fd5b6003546104479061012c6109fd565b42116104875760405162461bcd60e51b815260206004820152600f60248201526e34b9903737ba1031b7b7b63237bbb760891b604482015260640161042f565b6002546040516370a0823160e01b8152336004820152683635c9adc5dea00000916001600160a01b0316906370a0823190602401602060405180830381865afa1580156104d8573d6000803e3d6000fd5b505050506040513d601f19601f820116820180604052508101906104fc91906109ce565b1161053f5760405162461bcd60e51b81526020600482015260136024820152723a903437b6321030b6b7bab73a1032b93937b960691b604482015260640161042f565b33600090815260056020526040902054610e109061055d9042610a16565b101561056857600080fd5b610579670de0b6b3a76400006106e3565b3360009081526005602052604090204290819055600355565b6001546040516370a0823160e01b81523060048201526000916001600160a01b0316906370a08231906024016102f9565b6105cb610639565b6001600160a01b0381166106305760405162461bcd60e51b815260206004820152602660248201527f4f776e61626c653a206e6577206f776e657220697320746865207a65726f206160448201526564647265737360d01b606482015260840161042f565b61029f81610693565b6000546001600160a01b031633146103515760405162461bcd60e51b815260206004820181905260248201527f4f776e61626c653a2063616c6c6572206973206e6f7420746865206f776e6572604482015260640161042f565b600080546001600160a01b038381166001600160a01b0319831681178455604051919092169283917f8be0079c531659141344cd1fd0a4f28419497f9722a3daafe3b4186f6b6457e09190a35050565b604080516002808252606082018352600092602083019080368337505060048054604080516315ab88c960e31b815290519495506001600160a01b039091169363ad5c46489350818301926020928290030181865afa15801561074a573d6000803e3d6000fd5b505050506040513d601f19601f8201168201806040525081019061076e9190610a29565b8160008151811061078157610781610a46565b6001600160a01b0392831660209182029290920101526002548251911690829060019081106107b2576107b2610a46565b6001600160a01b03928316602091820292909201015260048054604051635c11d79560e01b8152921691635c11d795916107f791869160009187913091429101610a5c565b600060405180830381600087803b15801561081157600080fd5b505af1158015610825573d6000803e3d6000fd5b50506002546001600160a01b0316915063a9059cbb905061dead60646108496102cc565b6108539190610acd565b61085e90605f610aef565b6040516001600160e01b031960e085901b1681526001600160a01b03909216600483015260248201526044016020604051808303816000875af11580156108a9573d6000803e3d6000fd5b505050506040513d601f19601f820116820180604052508101906108cd91906109ac565b506002546001600160a01b031663a9059cbb3360646108ea6102cc565b6108f49190610acd565b6108ff906005610aef565b6040516001600160e01b031960e085901b1681526001600160a01b03909216600483015260248201526044016020604051808303816000875af115801561094a573d6000803e3d6000fd5b505050506040513d601f19601f8201168201806040525081019061096e91906109ac565b505050565b6001600160a01b038116811461029f57600080fd5b60006020828403121561099a57600080fd5b81356109a581610973565b9392505050565b6000602082840312156109be57600080fd5b815180151581146109a557600080fd5b6000602082840312156109e057600080fd5b5051919050565b634e487b7160e01b600052601160045260246000fd5b80820180821115610a1057610a106109e7565b92915050565b81810381811115610a1057610a106109e7565b600060208284031215610a3b57600080fd5b81516109a581610973565b634e487b7160e01b600052603260045260246000fd5b600060a082018783526020878185015260a0604085015281875180845260c086019150828901935060005b81811015610aac5784516001600160a01b031683529383019391830191600101610a87565b50506001600160a01b03969096166060850152505050608001529392505050565b600082610aea57634e487b7160e01b600052601260045260246000fd5b500490565b8082028115828204841417610a1057610a106109e756fea2646970667358221220c5cb9b96a17ddd6e8c0d8a9cacb9a63f4c73998d811085bf14e45fcffed0c8c964736f6c63430008120033",
					"opcodes": "PUSH1 0x80 PUSH1 0x40 MSTORE CALLVALUE DUP1 ISZERO PUSH2 0x10 JUMPI PUSH1 0x0 DUP1 REVERT JUMPDEST POP PUSH2 0x1A CALLER PUSH2 0x1D3 JUMP JUMPDEST PUSH1 0x4 DUP1 SLOAD PUSH1 0x1 PUSH1 0x1 PUSH1 0xA0 SHL SUB NOT AND PUSH20 0x9AC64CC6E4415144C455BD8E4837FEA55603E5C3 SWAP1 DUP2 OR DUP3 SSTORE PUSH1 0x40 DUP1 MLOAD PUSH4 0x15AB88C9 PUSH1 0xE3 SHL DUP2 MSTORE SWAP1 MLOAD SWAP2 SWAP3 DUP4 SWAP3 PUSH4 0xAD5C4648 SWAP3 DUP1 DUP4 ADD SWAP3 PUSH1 0x20 SWAP3 SWAP2 DUP3 SWAP1 SUB ADD DUP2 DUP7 GAS STATICCALL ISZERO DUP1 ISZERO PUSH2 0x7D JUMPI RETURNDATASIZE PUSH1 0x0 DUP1 RETURNDATACOPY RETURNDATASIZE PUSH1 0x0 REVERT JUMPDEST POP POP POP POP PUSH1 0x40 MLOAD RETURNDATASIZE PUSH1 0x1F NOT PUSH1 0x1F DUP3 ADD AND DUP3 ADD DUP1 PUSH1 0x40 MSTORE POP DUP2 ADD SWAP1 PUSH2 0xA1 SWAP2 SWAP1 PUSH2 0x223 JUMP JUMPDEST PUSH1 0x1 DUP1 SLOAD PUSH1 0x1 PUSH1 0x1 PUSH1 0xA0 SHL SUB NOT AND PUSH1 0x1 PUSH1 0x1 PUSH1 0xA0 SHL SUB SWAP3 SWAP1 SWAP3 AND SWAP2 DUP3 OR SWAP1 SSTORE PUSH1 0x40 MLOAD PUSH4 0x95EA7B3 PUSH1 0xE0 SHL DUP2 MSTORE PUSH20 0x9AC64CC6E4415144C455BD8E4837FEA55603E5C3 PUSH1 0x4 DUP3 ADD MSTORE PUSH15 0x1ED09BEAD87C0378D8E6400000000 PUSH1 0x24 DUP3 ADD MSTORE PUSH4 0x95EA7B3 SWAP1 PUSH1 0x44 ADD PUSH1 0x20 PUSH1 0x40 MLOAD DUP1 DUP4 SUB DUP2 PUSH1 0x0 DUP8 GAS CALL ISZERO DUP1 ISZERO PUSH2 0x124 JUMPI RETURNDATASIZE PUSH1 0x0 DUP1 RETURNDATACOPY RETURNDATASIZE PUSH1 0x0 REVERT JUMPDEST POP POP POP POP PUSH1 0x40 MLOAD RETURNDATASIZE PUSH1 0x1F NOT PUSH1 0x1F DUP3 ADD AND DUP3 ADD DUP1 PUSH1 0x40 MSTORE POP DUP2 ADD SWAP1 PUSH2 0x148 SWAP2 SWAP1 PUSH2 0x253 JUMP JUMPDEST POP PUSH1 0x1 SLOAD PUSH1 0x40 MLOAD PUSH4 0x95EA7B3 PUSH1 0xE0 SHL DUP2 MSTORE ADDRESS PUSH1 0x4 DUP3 ADD MSTORE PUSH15 0x1ED09BEAD87C0378D8E6400000000 PUSH1 0x24 DUP3 ADD MSTORE PUSH1 0x1 PUSH1 0x1 PUSH1 0xA0 SHL SUB SWAP1 SWAP2 AND SWAP1 PUSH4 0x95EA7B3 SWAP1 PUSH1 0x44 ADD PUSH1 0x20 PUSH1 0x40 MLOAD DUP1 DUP4 SUB DUP2 PUSH1 0x0 DUP8 GAS CALL ISZERO DUP1 ISZERO PUSH2 0x1A8 JUMPI RETURNDATASIZE PUSH1 0x0 DUP1 RETURNDATACOPY RETURNDATASIZE PUSH1 0x0 REVERT JUMPDEST POP POP POP POP PUSH1 0x40 MLOAD RETURNDATASIZE PUSH1 0x1F NOT PUSH1 0x1F DUP3 ADD AND DUP3 ADD DUP1 PUSH1 0x40 MSTORE POP DUP2 ADD SWAP1 PUSH2 0x1CC SWAP2 SWAP1 PUSH2 0x253 JUMP JUMPDEST POP POP PUSH2 0x275 JUMP JUMPDEST PUSH1 0x0 DUP1 SLOAD PUSH1 0x1 PUSH1 0x1 PUSH1 0xA0 SHL SUB DUP4 DUP2 AND PUSH1 0x1 PUSH1 0x1 PUSH1 0xA0 SHL SUB NOT DUP4 AND DUP2 OR DUP5 SSTORE PUSH1 0x40 MLOAD SWAP2 SWAP1 SWAP3 AND SWAP3 DUP4 SWAP2 PUSH32 0x8BE0079C531659141344CD1FD0A4F28419497F9722A3DAAFE3B4186F6B6457E0 SWAP2 SWAP1 LOG3 POP POP JUMP JUMPDEST PUSH1 0x0 PUSH1 0x20 DUP3 DUP5 SUB SLT ISZERO PUSH2 0x235 JUMPI PUSH1 0x0 DUP1 REVERT JUMPDEST DUP2 MLOAD PUSH1 0x1 PUSH1 0x1 PUSH1 0xA0 SHL SUB DUP2 AND DUP2 EQ PUSH2 0x24C JUMPI PUSH1 0x0 DUP1 REVERT JUMPDEST SWAP4 SWAP3 POP POP POP JUMP JUMPDEST PUSH1 0x0 PUSH1 0x20 DUP3 DUP5 SUB SLT ISZERO PUSH2 0x265 JUMPI PUSH1 0x0 DUP1 REVERT JUMPDEST DUP2 MLOAD DUP1 ISZERO ISZERO DUP2 EQ PUSH2 0x24C JUMPI PUSH1 0x0 DUP1 REVERT JUMPDEST PUSH2 0xB3C DUP1 PUSH2 0x284 PUSH1 0x0 CODECOPY PUSH1 0x0 RETURN INVALID PUSH1 0x80 PUSH1 0x40 MSTORE CALLVALUE DUP1 ISZERO PUSH2 0x10 JUMPI PUSH1 0x0 DUP1 REVERT JUMPDEST POP PUSH1 0x4 CALLDATASIZE LT PUSH2 0xF5 JUMPI PUSH1 0x0 CALLDATALOAD PUSH1 0xE0 SHR DUP1 PUSH4 0x8DA5CB5B GT PUSH2 0x97 JUMPI DUP1 PUSH4 0xCC9B2E0E GT PUSH2 0x66 JUMPI DUP1 PUSH4 0xCC9B2E0E EQ PUSH2 0x1CD JUMPI DUP1 PUSH4 0xDAB9E087 EQ PUSH2 0x1D5 JUMPI DUP1 PUSH4 0xF2FDE38B EQ PUSH2 0x1E8 JUMPI DUP1 PUSH4 0xFC0C546A EQ PUSH2 0x1FB JUMPI PUSH1 0x0 DUP1 REVERT JUMPDEST DUP1 PUSH4 0x8DA5CB5B EQ PUSH2 0x181 JUMPI DUP1 PUSH4 0xA703BD02 EQ PUSH2 0x192 JUMPI DUP1 PUSH4 0xAA6DF299 EQ PUSH2 0x1A5 JUMPI DUP1 PUSH4 0xCB464C49 EQ PUSH2 0x1AD JUMPI PUSH1 0x0 DUP1 REVERT JUMPDEST DUP1 PUSH4 0x467E8814 GT PUSH2 0xD3 JUMPI DUP1 PUSH4 0x467E8814 EQ PUSH2 0x147 JUMPI DUP1 PUSH4 0x610ABE35 EQ PUSH2 0x15A JUMPI DUP1 PUSH4 0x715018A6 EQ PUSH2 0x170 JUMPI DUP1 PUSH4 0x787A08A6 EQ PUSH2 0x178 JUMPI PUSH1 0x0 DUP1 REVERT JUMPDEST DUP1 PUSH4 0x1694505E EQ PUSH2 0xFA JUMPI DUP1 PUSH4 0x3CCFD60B EQ PUSH2 0x12A JUMPI DUP1 PUSH4 0x3FC8CEF3 EQ PUSH2 0x134 JUMPI JUMPDEST PUSH1 0x0 DUP1 REVERT JUMPDEST PUSH1 0x4 SLOAD PUSH2 0x10D SWAP1 PUSH1 0x1 PUSH1 0x1 PUSH1 0xA0 SHL SUB AND DUP2 JUMP JUMPDEST PUSH1 0x40 MLOAD PUSH1 0x1 PUSH1 0x1 PUSH1 0xA0 SHL SUB SWAP1 SWAP2 AND DUP2 MSTORE PUSH1 0x20 ADD JUMPDEST PUSH1 0x40 MLOAD DUP1 SWAP2 SUB SWAP1 RETURN JUMPDEST PUSH2 0x132 PUSH2 0x20E JUMP JUMPDEST STOP JUMPDEST PUSH1 0x1 SLOAD PUSH2 0x10D SWAP1 PUSH1 0x1 PUSH1 0x1 PUSH1 0xA0 SHL SUB AND DUP2 JUMP JUMPDEST PUSH2 0x132 PUSH2 0x155 CALLDATASIZE PUSH1 0x4 PUSH2 0x988 JUMP JUMPDEST PUSH2 0x2A2 JUMP JUMPDEST PUSH2 0x162 PUSH2 0x2CC JUMP JUMPDEST PUSH1 0x40 MLOAD SWAP1 DUP2 MSTORE PUSH1 0x20 ADD PUSH2 0x121 JUMP JUMPDEST PUSH2 0x132 PUSH2 0x33F JUMP JUMPDEST PUSH2 0x162 PUSH1 0x3 SLOAD DUP2 JUMP JUMPDEST PUSH1 0x0 SLOAD PUSH1 0x1 PUSH1 0x1 PUSH1 0xA0 SHL SUB AND PUSH2 0x10D JUMP JUMPDEST PUSH2 0x132 PUSH2 0x1A0 CALLDATASIZE PUSH1 0x4 PUSH2 0x988 JUMP JUMPDEST PUSH2 0x353 JUMP JUMPDEST PUSH2 0x132 PUSH2 0x37D JUMP JUMPDEST PUSH2 0x162 PUSH2 0x1BB CALLDATASIZE PUSH1 0x4 PUSH2 0x988 JUMP JUMPDEST PUSH1 0x5 PUSH1 0x20 MSTORE PUSH1 0x0 SWAP1 DUP2 MSTORE PUSH1 0x40 SWAP1 KECCAK256 SLOAD DUP2 JUMP JUMPDEST PUSH2 0x162 PUSH2 0x592 JUMP JUMPDEST PUSH1 0x6 SLOAD PUSH2 0x10D SWAP1 PUSH1 0x1 PUSH1 0x1 PUSH1 0xA0 SHL SUB AND DUP2 JUMP JUMPDEST PUSH2 0x132 PUSH2 0x1F6 CALLDATASIZE PUSH1 0x4 PUSH2 0x988 JUMP JUMPDEST PUSH2 0x5C3 JUMP JUMPDEST PUSH1 0x2 SLOAD PUSH2 0x10D SWAP1 PUSH1 0x1 PUSH1 0x1 PUSH1 0xA0 SHL SUB AND DUP2 JUMP JUMPDEST PUSH2 0x216 PUSH2 0x639 JUMP JUMPDEST PUSH1 0x1 SLOAD PUSH1 0x1 PUSH1 0x1 PUSH1 0xA0 SHL SUB AND PUSH4 0xA9059CBB CALLER PUSH2 0x230 PUSH2 0x592 JUMP JUMPDEST PUSH1 0x40 MLOAD PUSH1 0x1 PUSH1 0x1 PUSH1 0xE0 SHL SUB NOT PUSH1 0xE0 DUP6 SWAP1 SHL AND DUP2 MSTORE PUSH1 0x1 PUSH1 0x1 PUSH1 0xA0 SHL SUB SWAP1 SWAP3 AND PUSH1 0x4 DUP4 ADD MSTORE PUSH1 0x24 DUP3 ADD MSTORE PUSH1 0x44 ADD PUSH1 0x20 PUSH1 0x40 MLOAD DUP1 DUP4 SUB DUP2 PUSH1 0x0 DUP8 GAS CALL ISZERO DUP1 ISZERO PUSH2 0x27B JUMPI RETURNDATASIZE PUSH1 0x0 DUP1 RETURNDATACOPY RETURNDATASIZE PUSH1 0x0 REVERT JUMPDEST POP POP POP POP PUSH1 0x40 MLOAD RETURNDATASIZE PUSH1 0x1F NOT PUSH1 0x1F DUP3 ADD AND DUP3 ADD DUP1 PUSH1 0x40 MSTORE POP DUP2 ADD SWAP1 PUSH2 0x29F SWAP2 SWAP1 PUSH2 0x9AC JUMP JUMPDEST POP JUMP JUMPDEST PUSH2 0x2AA PUSH2 0x639 JUMP JUMPDEST PUSH1 0x2 DUP1 SLOAD PUSH1 0x1 PUSH1 0x1 PUSH1 0xA0 SHL SUB NOT AND PUSH1 0x1 PUSH1 0x1 PUSH1 0xA0 SHL SUB SWAP3 SWAP1 SWAP3 AND SWAP2 SWAP1 SWAP2 OR SWAP1 SSTORE JUMP JUMPDEST PUSH1 0x2 SLOAD PUSH1 0x40 MLOAD PUSH4 0x70A08231 PUSH1 0xE0 SHL DUP2 MSTORE ADDRESS PUSH1 0x4 DUP3 ADD MSTORE PUSH1 0x0 SWAP2 PUSH1 0x1 PUSH1 0x1 PUSH1 0xA0 SHL SUB AND SWAP1 PUSH4 0x70A08231 SWAP1 PUSH1 0x24 ADD JUMPDEST PUSH1 0x20 PUSH1 0x40 MLOAD DUP1 DUP4 SUB DUP2 DUP7 GAS STATICCALL ISZERO DUP1 ISZERO PUSH2 0x316 JUMPI RETURNDATASIZE PUSH1 0x0 DUP1 RETURNDATACOPY RETURNDATASIZE PUSH1 0x0 REVERT JUMPDEST POP POP POP POP PUSH1 0x40 MLOAD RETURNDATASIZE PUSH1 0x1F NOT PUSH1 0x1F DUP3 ADD AND DUP3 ADD DUP1 PUSH1 0x40 MSTORE POP DUP2 ADD SWAP1 PUSH2 0x33A SWAP2 SWAP1 PUSH2 0x9CE JUMP JUMPDEST SWAP1 POP SWAP1 JUMP JUMPDEST PUSH2 0x347 PUSH2 0x639 JUMP JUMPDEST PUSH2 0x351 PUSH1 0x0 PUSH2 0x693 JUMP JUMPDEST JUMP JUMPDEST PUSH2 0x35B PUSH2 0x639 JUMP JUMPDEST PUSH1 0x6 DUP1 SLOAD PUSH1 0x1 PUSH1 0x1 PUSH1 0xA0 SHL SUB NOT AND PUSH1 0x1 PUSH1 0x1 PUSH1 0xA0 SHL SUB SWAP3 SWAP1 SWAP3 AND SWAP2 SWAP1 SWAP2 OR SWAP1 SSTORE JUMP JUMPDEST PUSH1 0x1 SLOAD PUSH1 0x40 MLOAD PUSH4 0x70A08231 PUSH1 0xE0 SHL DUP2 MSTORE ADDRESS PUSH1 0x4 DUP3 ADD MSTORE PUSH8 0xDE0B6B3A7640000 SWAP2 PUSH1 0x1 PUSH1 0x1 PUSH1 0xA0 SHL SUB AND SWAP1 PUSH4 0x70A08231 SWAP1 PUSH1 0x24 ADD PUSH1 0x20 PUSH1 0x40 MLOAD DUP1 DUP4 SUB DUP2 DUP7 GAS STATICCALL ISZERO DUP1 ISZERO PUSH2 0x3CD JUMPI RETURNDATASIZE PUSH1 0x0 DUP1 RETURNDATACOPY RETURNDATASIZE PUSH1 0x0 REVERT JUMPDEST POP POP POP POP PUSH1 0x40 MLOAD RETURNDATASIZE PUSH1 0x1F NOT PUSH1 0x1F DUP3 ADD AND DUP3 ADD DUP1 PUSH1 0x40 MSTORE POP DUP2 ADD SWAP1 PUSH2 0x3F1 SWAP2 SWAP1 PUSH2 0x9CE JUMP JUMPDEST LT ISZERO PUSH2 0x438 JUMPI PUSH1 0x40 MLOAD PUSH3 0x461BCD PUSH1 0xE5 SHL DUP2 MSTORE PUSH1 0x20 PUSH1 0x4 DUP3 ADD MSTORE PUSH1 0x11 PUSH1 0x24 DUP3 ADD MSTORE PUSH17 0x212721103130B630B731B29032B93937B9 PUSH1 0x79 SHL PUSH1 0x44 DUP3 ADD MSTORE PUSH1 0x64 ADD JUMPDEST PUSH1 0x40 MLOAD DUP1 SWAP2 SUB SWAP1 REVERT JUMPDEST PUSH1 0x3 SLOAD PUSH2 0x447 SWAP1 PUSH2 0x12C PUSH2 0x9FD JUMP JUMPDEST TIMESTAMP GT PUSH2 0x487 JUMPI PUSH1 0x40 MLOAD PUSH3 0x461BCD PUSH1 0xE5 SHL DUP2 MSTORE PUSH1 0x20 PUSH1 0x4 DUP3 ADD MSTORE PUSH1 0xF PUSH1 0x24 DUP3 ADD MSTORE PUSH15 0x34B9903737BA1031B7B7B63237BBB7 PUSH1 0x89 SHL PUSH1 0x44 DUP3 ADD MSTORE PUSH1 0x64 ADD PUSH2 0x42F JUMP JUMPDEST PUSH1 0x2 SLOAD PUSH1 0x40 MLOAD PUSH4 0x70A08231 PUSH1 0xE0 SHL DUP2 MSTORE CALLER PUSH1 0x4 DUP3 ADD MSTORE PUSH9 0x3635C9ADC5DEA00000 SWAP2 PUSH1 0x1 PUSH1 0x1 PUSH1 0xA0 SHL SUB AND SWAP1 PUSH4 0x70A08231 SWAP1 PUSH1 0x24 ADD PUSH1 0x20 PUSH1 0x40 MLOAD DUP1 DUP4 SUB DUP2 DUP7 GAS STATICCALL ISZERO DUP1 ISZERO PUSH2 0x4D8 JUMPI RETURNDATASIZE PUSH1 0x0 DUP1 RETURNDATACOPY RETURNDATASIZE PUSH1 0x0 REVERT JUMPDEST POP POP POP POP PUSH1 0x40 MLOAD RETURNDATASIZE PUSH1 0x1F NOT PUSH1 0x1F DUP3 ADD AND DUP3 ADD DUP1 PUSH1 0x40 MSTORE POP DUP2 ADD SWAP1 PUSH2 0x4FC SWAP2 SWAP1 PUSH2 0x9CE JUMP JUMPDEST GT PUSH2 0x53F JUMPI PUSH1 0x40 MLOAD PUSH3 0x461BCD PUSH1 0xE5 SHL DUP2 MSTORE PUSH1 0x20 PUSH1 0x4 DUP3 ADD MSTORE PUSH1 0x13 PUSH1 0x24 DUP3 ADD MSTORE PUSH19 0x3A903437B6321030B6B7BAB73A1032B93937B9 PUSH1 0x69 SHL PUSH1 0x44 DUP3 ADD MSTORE PUSH1 0x64 ADD PUSH2 0x42F JUMP JUMPDEST CALLER PUSH1 0x0 SWAP1 DUP2 MSTORE PUSH1 0x5 PUSH1 0x20 MSTORE PUSH1 0x40 SWAP1 KECCAK256 SLOAD PUSH2 0xE10 SWAP1 PUSH2 0x55D SWAP1 TIMESTAMP PUSH2 0xA16 JUMP JUMPDEST LT ISZERO PUSH2 0x568 JUMPI PUSH1 0x0 DUP1 REVERT JUMPDEST PUSH2 0x579 PUSH8 0xDE0B6B3A7640000 PUSH2 0x6E3 JUMP JUMPDEST CALLER PUSH1 0x0 SWAP1 DUP2 MSTORE PUSH1 0x5 PUSH1 0x20 MSTORE PUSH1 0x40 SWAP1 KECCAK256 TIMESTAMP SWAP1 DUP2 SWAP1 SSTORE PUSH1 0x3 SSTORE JUMP JUMPDEST PUSH1 0x1 SLOAD PUSH1 0x40 MLOAD PUSH4 0x70A08231 PUSH1 0xE0 SHL DUP2 MSTORE ADDRESS PUSH1 0x4 DUP3 ADD MSTORE PUSH1 0x0 SWAP2 PUSH1 0x1 PUSH1 0x1 PUSH1 0xA0 SHL SUB AND SWAP1 PUSH4 0x70A08231 SWAP1 PUSH1 0x24 ADD PUSH2 0x2F9 JUMP JUMPDEST PUSH2 0x5CB PUSH2 0x639 JUMP JUMPDEST PUSH1 0x1 PUSH1 0x1 PUSH1 0xA0 SHL SUB DUP2 AND PUSH2 0x630 JUMPI PUSH1 0x40 MLOAD PUSH3 0x461BCD PUSH1 0xE5 SHL DUP2 MSTORE PUSH1 0x20 PUSH1 0x4 DUP3 ADD MSTORE PUSH1 0x26 PUSH1 0x24 DUP3 ADD MSTORE PUSH32 0x4F776E61626C653A206E6577206F776E657220697320746865207A65726F2061 PUSH1 0x44 DUP3 ADD MSTORE PUSH6 0x646472657373 PUSH1 0xD0 SHL PUSH1 0x64 DUP3 ADD MSTORE PUSH1 0x84 ADD PUSH2 0x42F JUMP JUMPDEST PUSH2 0x29F DUP2 PUSH2 0x693 JUMP JUMPDEST PUSH1 0x0 SLOAD PUSH1 0x1 PUSH1 0x1 PUSH1 0xA0 SHL SUB AND CALLER EQ PUSH2 0x351 JUMPI PUSH1 0x40 MLOAD PUSH3 0x461BCD PUSH1 0xE5 SHL DUP2 MSTORE PUSH1 0x20 PUSH1 0x4 DUP3 ADD DUP2 SWAP1 MSTORE PUSH1 0x24 DUP3 ADD MSTORE PUSH32 0x4F776E61626C653A2063616C6C6572206973206E6F7420746865206F776E6572 PUSH1 0x44 DUP3 ADD MSTORE PUSH1 0x64 ADD PUSH2 0x42F JUMP JUMPDEST PUSH1 0x0 DUP1 SLOAD PUSH1 0x1 PUSH1 0x1 PUSH1 0xA0 SHL SUB DUP4 DUP2 AND PUSH1 0x1 PUSH1 0x1 PUSH1 0xA0 SHL SUB NOT DUP4 AND DUP2 OR DUP5 SSTORE PUSH1 0x40 MLOAD SWAP2 SWAP1 SWAP3 AND SWAP3 DUP4 SWAP2 PUSH32 0x8BE0079C531659141344CD1FD0A4F28419497F9722A3DAAFE3B4186F6B6457E0 SWAP2 SWAP1 LOG3 POP POP JUMP JUMPDEST PUSH1 0x40 DUP1 MLOAD PUSH1 0x2 DUP1 DUP3 MSTORE PUSH1 0x60 DUP3 ADD DUP4 MSTORE PUSH1 0x0 SWAP3 PUSH1 0x20 DUP4 ADD SWAP1 DUP1 CALLDATASIZE DUP4 CALLDATACOPY POP POP PUSH1 0x4 DUP1 SLOAD PUSH1 0x40 DUP1 MLOAD PUSH4 0x15AB88C9 PUSH1 0xE3 SHL DUP2 MSTORE SWAP1 MLOAD SWAP5 SWAP6 POP PUSH1 0x1 PUSH1 0x1 PUSH1 0xA0 SHL SUB SWAP1 SWAP2 AND SWAP4 PUSH4 0xAD5C4648 SWAP4 POP DUP2 DUP4 ADD SWAP3 PUSH1 0x20 SWAP3 DUP3 SWAP1 SUB ADD DUP2 DUP7 GAS STATICCALL ISZERO DUP1 ISZERO PUSH2 0x74A JUMPI RETURNDATASIZE PUSH1 0x0 DUP1 RETURNDATACOPY RETURNDATASIZE PUSH1 0x0 REVERT JUMPDEST POP POP POP POP PUSH1 0x40 MLOAD RETURNDATASIZE PUSH1 0x1F NOT PUSH1 0x1F DUP3 ADD AND DUP3 ADD DUP1 PUSH1 0x40 MSTORE POP DUP2 ADD SWAP1 PUSH2 0x76E SWAP2 SWAP1 PUSH2 0xA29 JUMP JUMPDEST DUP2 PUSH1 0x0 DUP2 MLOAD DUP2 LT PUSH2 0x781 JUMPI PUSH2 0x781 PUSH2 0xA46 JUMP JUMPDEST PUSH1 0x1 PUSH1 0x1 PUSH1 0xA0 SHL SUB SWAP3 DUP4 AND PUSH1 0x20 SWAP2 DUP3 MUL SWAP3 SWAP1 SWAP3 ADD ADD MSTORE PUSH1 0x2 SLOAD DUP3 MLOAD SWAP2 AND SWAP1 DUP3 SWAP1 PUSH1 0x1 SWAP1 DUP2 LT PUSH2 0x7B2 JUMPI PUSH2 0x7B2 PUSH2 0xA46 JUMP JUMPDEST PUSH1 0x1 PUSH1 0x1 PUSH1 0xA0 SHL SUB SWAP3 DUP4 AND PUSH1 0x20 SWAP2 DUP3 MUL SWAP3 SWAP1 SWAP3 ADD ADD MSTORE PUSH1 0x4 DUP1 SLOAD PUSH1 0x40 MLOAD PUSH4 0x5C11D795 PUSH1 0xE0 SHL DUP2 MSTORE SWAP3 AND SWAP2 PUSH4 0x5C11D795 SWAP2 PUSH2 0x7F7 SWAP2 DUP7 SWAP2 PUSH1 0x0 SWAP2 DUP8 SWAP2 ADDRESS SWAP2 TIMESTAMP SWAP2 ADD PUSH2 0xA5C JUMP JUMPDEST PUSH1 0x0 PUSH1 0x40 MLOAD DUP1 DUP4 SUB DUP2 PUSH1 0x0 DUP8 DUP1 EXTCODESIZE ISZERO DUP1 ISZERO PUSH2 0x811 JUMPI PUSH1 0x0 DUP1 REVERT JUMPDEST POP GAS CALL ISZERO DUP1 ISZERO PUSH2 0x825 JUMPI RETURNDATASIZE PUSH1 0x0 DUP1 RETURNDATACOPY RETURNDATASIZE PUSH1 0x0 REVERT JUMPDEST POP POP PUSH1 0x2 SLOAD PUSH1 0x1 PUSH1 0x1 PUSH1 0xA0 SHL SUB AND SWAP2 POP PUSH4 0xA9059CBB SWAP1 POP PUSH2 0xDEAD PUSH1 0x64 PUSH2 0x849 PUSH2 0x2CC JUMP JUMPDEST PUSH2 0x853 SWAP2 SWAP1 PUSH2 0xACD JUMP JUMPDEST PUSH2 0x85E SWAP1 PUSH1 0x5F PUSH2 0xAEF JUMP JUMPDEST PUSH1 0x40 MLOAD PUSH1 0x1 PUSH1 0x1 PUSH1 0xE0 SHL SUB NOT PUSH1 0xE0 DUP6 SWAP1 SHL AND DUP2 MSTORE PUSH1 0x1 PUSH1 0x1 PUSH1 0xA0 SHL SUB SWAP1 SWAP3 AND PUSH1 0x4 DUP4 ADD MSTORE PUSH1 0x24 DUP3 ADD MSTORE PUSH1 0x44 ADD PUSH1 0x20 PUSH1 0x40 MLOAD DUP1 DUP4 SUB DUP2 PUSH1 0x0 DUP8 GAS CALL ISZERO DUP1 ISZERO PUSH2 0x8A9 JUMPI RETURNDATASIZE PUSH1 0x0 DUP1 RETURNDATACOPY RETURNDATASIZE PUSH1 0x0 REVERT JUMPDEST POP POP POP POP PUSH1 0x40 MLOAD RETURNDATASIZE PUSH1 0x1F NOT PUSH1 0x1F DUP3 ADD AND DUP3 ADD DUP1 PUSH1 0x40 MSTORE POP DUP2 ADD SWAP1 PUSH2 0x8CD SWAP2 SWAP1 PUSH2 0x9AC JUMP JUMPDEST POP PUSH1 0x2 SLOAD PUSH1 0x1 PUSH1 0x1 PUSH1 0xA0 SHL SUB AND PUSH4 0xA9059CBB CALLER PUSH1 0x64 PUSH2 0x8EA PUSH2 0x2CC JUMP JUMPDEST PUSH2 0x8F4 SWAP2 SWAP1 PUSH2 0xACD JUMP JUMPDEST PUSH2 0x8FF SWAP1 PUSH1 0x5 PUSH2 0xAEF JUMP JUMPDEST PUSH1 0x40 MLOAD PUSH1 0x1 PUSH1 0x1 PUSH1 0xE0 SHL SUB NOT PUSH1 0xE0 DUP6 SWAP1 SHL AND DUP2 MSTORE PUSH1 0x1 PUSH1 0x1 PUSH1 0xA0 SHL SUB SWAP1 SWAP3 AND PUSH1 0x4 DUP4 ADD MSTORE PUSH1 0x24 DUP3 ADD MSTORE PUSH1 0x44 ADD PUSH1 0x20 PUSH1 0x40 MLOAD DUP1 DUP4 SUB DUP2 PUSH1 0x0 DUP8 GAS CALL ISZERO DUP1 ISZERO PUSH2 0x94A JUMPI RETURNDATASIZE PUSH1 0x0 DUP1 RETURNDATACOPY RETURNDATASIZE PUSH1 0x0 REVERT JUMPDEST POP POP POP POP PUSH1 0x40 MLOAD RETURNDATASIZE PUSH1 0x1F NOT PUSH1 0x1F DUP3 ADD AND DUP3 ADD DUP1 PUSH1 0x40 MSTORE POP DUP2 ADD SWAP1 PUSH2 0x96E SWAP2 SWAP1 PUSH2 0x9AC JUMP JUMPDEST POP POP POP JUMP JUMPDEST PUSH1 0x1 PUSH1 0x1 PUSH1 0xA0 SHL SUB DUP2 AND DUP2 EQ PUSH2 0x29F JUMPI PUSH1 0x0 DUP1 REVERT JUMPDEST PUSH1 0x0 PUSH1 0x20 DUP3 DUP5 SUB SLT ISZERO PUSH2 0x99A JUMPI PUSH1 0x0 DUP1 REVERT JUMPDEST DUP2 CALLDATALOAD PUSH2 0x9A5 DUP2 PUSH2 0x973 JUMP JUMPDEST SWAP4 SWAP3 POP POP POP JUMP JUMPDEST PUSH1 0x0 PUSH1 0x20 DUP3 DUP5 SUB SLT ISZERO PUSH2 0x9BE JUMPI PUSH1 0x0 DUP1 REVERT JUMPDEST DUP2 MLOAD DUP1 ISZERO ISZERO DUP2 EQ PUSH2 0x9A5 JUMPI PUSH1 0x0 DUP1 REVERT JUMPDEST PUSH1 0x0 PUSH1 0x20 DUP3 DUP5 SUB SLT ISZERO PUSH2 0x9E0 JUMPI PUSH1 0x0 DUP1 REVERT JUMPDEST POP MLOAD SWAP2 SWAP1 POP JUMP JUMPDEST PUSH4 0x4E487B71 PUSH1 0xE0 SHL PUSH1 0x0 MSTORE PUSH1 0x11 PUSH1 0x4 MSTORE PUSH1 0x24 PUSH1 0x0 REVERT JUMPDEST DUP1 DUP3 ADD DUP1 DUP3 GT ISZERO PUSH2 0xA10 JUMPI PUSH2 0xA10 PUSH2 0x9E7 JUMP JUMPDEST SWAP3 SWAP2 POP POP JUMP JUMPDEST DUP2 DUP2 SUB DUP2 DUP2 GT ISZERO PUSH2 0xA10 JUMPI PUSH2 0xA10 PUSH2 0x9E7 JUMP JUMPDEST PUSH1 0x0 PUSH1 0x20 DUP3 DUP5 SUB SLT ISZERO PUSH2 0xA3B JUMPI PUSH1 0x0 DUP1 REVERT JUMPDEST DUP2 MLOAD PUSH2 0x9A5 DUP2 PUSH2 0x973 JUMP JUMPDEST PUSH4 0x4E487B71 PUSH1 0xE0 SHL PUSH1 0x0 MSTORE PUSH1 0x32 PUSH1 0x4 MSTORE PUSH1 0x24 PUSH1 0x0 REVERT JUMPDEST PUSH1 0x0 PUSH1 0xA0 DUP3 ADD DUP8 DUP4 MSTORE PUSH1 0x20 DUP8 DUP2 DUP6 ADD MSTORE PUSH1 0xA0 PUSH1 0x40 DUP6 ADD MSTORE DUP2 DUP8 MLOAD DUP1 DUP5 MSTORE PUSH1 0xC0 DUP7 ADD SWAP2 POP DUP3 DUP10 ADD SWAP4 POP PUSH1 0x0 JUMPDEST DUP2 DUP2 LT ISZERO PUSH2 0xAAC JUMPI DUP5 MLOAD PUSH1 0x1 PUSH1 0x1 PUSH1 0xA0 SHL SUB AND DUP4 MSTORE SWAP4 DUP4 ADD SWAP4 SWAP2 DUP4 ADD SWAP2 PUSH1 0x1 ADD PUSH2 0xA87 JUMP JUMPDEST POP POP PUSH1 0x1 PUSH1 0x1 PUSH1 0xA0 SHL SUB SWAP7 SWAP1 SWAP7 AND PUSH1 0x60 DUP6 ADD MSTORE POP POP POP PUSH1 0x80 ADD MSTORE SWAP4 SWAP3 POP POP POP JUMP JUMPDEST PUSH1 0x0 DUP3 PUSH2 0xAEA JUMPI PUSH4 0x4E487B71 PUSH1 0xE0 SHL PUSH1 0x0 MSTORE PUSH1 0x12 PUSH1 0x4 MSTORE PUSH1 0x24 PUSH1 0x0 REVERT JUMPDEST POP DIV SWAP1 JUMP JUMPDEST DUP1 DUP3 MUL DUP2 ISZERO DUP3 DUP3 DIV DUP5 EQ OR PUSH2 0xA10 JUMPI PUSH2 0xA10 PUSH2 0x9E7 JUMP INVALID LOG2 PUSH5 0x6970667358 0x22 SLT KECCAK256 0xC5 0xCB SWAP12 SWAP7 LOG1 PUSH30 0xDD6E8C0D8A9CACB9A63F4C73998D811085BF14E45FCFFED0C8C964736F6C PUSH4 0x43000812 STOP CALLER "
				},
				"gasEstimates": {
					"creation": {
						"codeDepositCost": "575200",
						"executionCost": "infinite",
						"totalCost": "infinite"
					},
					"external": {
						"buyAndBurn()": "infinite",
						"checkBNBBalance()": "infinite",
						"checkSAFEBalance()": "infinite",
						"cityNodeAddress()": "2370",
						"cooldown()": "2384",
						"isOrNotUseWallet(address)": "2602",
						"owner()": "2343",
						"renounceOwnership()": "infinite",
						"setAimToken(address)": "26752",
						"setcityNodeAddress(address)": "26774",
						"token()": "2414",
						"transferOwnership(address)": "infinite",
						"uniswapV2Router()": "2350",
						"weth()": "2394",
						"withdraw()": "infinite"
					},
					"internal": {
						"swapTokensForOther(uint256)": "infinite"
					}
				},
				"methodIdentifiers": {
					"buyAndBurn()": "aa6df299",
					"checkBNBBalance()": "cc9b2e0e",
					"checkSAFEBalance()": "610abe35",
					"cityNodeAddress()": "dab9e087",
					"cooldown()": "787a08a6",
					"isOrNotUseWallet(address)": "cb464c49",
					"owner()": "8da5cb5b",
					"renounceOwnership()": "715018a6",
					"setAimToken(address)": "467e8814",
					"setcityNodeAddress(address)": "a703bd02",
					"token()": "fc0c546a",
					"transferOwnership(address)": "f2fde38b",
					"uniswapV2Router()": "1694505e",
					"weth()": "3fc8cef3",
					"withdraw()": "3ccfd60b"
				}
			},
			"storageLayout": {
				"storage": [
					{
						"astId": 7,
						"contract": "contracts/MarketValueManager.sol:MarketValueManager",
						"label": "_owner",
						"offset": 0,
						"slot": "0",
						"type": "t_address"
					},
					{
						"astId": 224,
						"contract": "contracts/MarketValueManager.sol:MarketValueManager",
						"label": "weth",
						"offset": 0,
						"slot": "1",
						"type": "t_contract(IERC20)190"
					},
					{
						"astId": 226,
						"contract": "contracts/MarketValueManager.sol:MarketValueManager",
						"label": "token",
						"offset": 0,
						"slot": "2",
						"type": "t_address"
					},
					{
						"astId": 228,
						"contract": "contracts/MarketValueManager.sol:MarketValueManager",
						"label": "cooldown",
						"offset": 0,
						"slot": "3",
						"type": "t_uint256"
					},
					{
						"astId": 231,
						"contract": "contracts/MarketValueManager.sol:MarketValueManager",
						"label": "uniswapV2Router",
						"offset": 0,
						"slot": "4",
						"type": "t_contract(IUniswapV2Router02)928"
					},
					{
						"astId": 235,
						"contract": "contracts/MarketValueManager.sol:MarketValueManager",
						"label": "isOrNotUseWallet",
						"offset": 0,
						"slot": "5",
						"type": "t_mapping(t_address,t_uint256)"
					},
					{
						"astId": 237,
						"contract": "contracts/MarketValueManager.sol:MarketValueManager",
						"label": "cityNodeAddress",
						"offset": 0,
						"slot": "6",
						"type": "t_address"
					}
				],
				"types": {
					"t_address": {
						"encoding": "inplace",
						"label": "address",
						"numberOfBytes": "20"
					},
					"t_contract(IERC20)190": {
						"encoding": "inplace",
						"label": "contract IERC20",
						"numberOfBytes": "20"
					},
					"t_contract(IUniswapV2Router02)928": {
						"encoding": "inplace",
						"label": "contract IUniswapV2Router02",
						"numberOfBytes": "20"
					},
					"t_mapping(t_address,t_uint256)": {
						"encoding": "mapping",
						"key": "t_address",
						"label": "mapping(address => uint256)",
						"numberOfBytes": "32",
						"value": "t_uint256"
					},
					"t_uint256": {
						"encoding": "inplace",
						"label": "uint256",
						"numberOfBytes": "32"
					}
				}
			},
			"userdoc": {
				"kind": "user",
				"methods": {},
				"version": 1
			}
		}
	}
}