{
	"contracts/FireLockFeeTransfer.sol": {
		"FireLockFeeTransfer": {
			"abi": [
				{
					"inputs": [
						{
							"internalType": "address",
							"name": "_setAddr",
							"type": "address"
						}
					],
					"stateMutability": "nonpayable",
					"type": "constructor"
				},
				{
					"anonymous": false,
					"inputs": [
						{
							"indexed": true,
							"internalType": "address",
							"name": "previousOwner",
							"type": "address"
						},
						{
							"indexed": true,
							"internalType": "address",
							"name": "newOwner",
							"type": "address"
						}
					],
					"name": "OwnershipTransferred",
					"type": "event"
				},
				{
					"inputs": [],
					"name": "fee",
					"outputs": [
						{
							"internalType": "uint256",
							"name": "",
							"type": "uint256"
						}
					],
					"stateMutability": "view",
					"type": "function"
				},
				{
					"inputs": [],
					"name": "getAddress",
					"outputs": [
						{
							"internalType": "address",
							"name": "",
							"type": "address"
						}
					],
					"stateMutability": "view",
					"type": "function"
				},
				{
					"inputs": [],
					"name": "getFee",
					"outputs": [
						{
							"internalType": "uint256",
							"name": "",
							"type": "uint256"
						}
					],
					"stateMutability": "view",
					"type": "function"
				},
				{
					"inputs": [],
					"name": "getUseTreasuryDistributionContract",
					"outputs": [
						{
							"internalType": "bool",
							"name": "",
							"type": "bool"
						}
					],
					"stateMutability": "view",
					"type": "function"
				},
				{
					"inputs": [],
					"name": "isUseTreasuryDistributionContract",
					"outputs": [],
					"stateMutability": "nonpayable",
					"type": "function"
				},
				{
					"inputs": [],
					"name": "owner",
					"outputs": [
						{
							"internalType": "address",
							"name": "",
							"type": "address"
						}
					],
					"stateMutability": "view",
					"type": "function"
				},
				{
					"inputs": [],
					"name": "renounceOwnership",
					"outputs": [],
					"stateMutability": "nonpayable",
					"type": "function"
				},
				{
					"inputs": [],
					"name": "setAddr",
					"outputs": [
						{
							"internalType": "address",
							"name": "",
							"type": "address"
						}
					],
					"stateMutability": "view",
					"type": "function"
				},
				{
					"inputs": [
						{
							"internalType": "address",
							"name": "_addr",
							"type": "address"
						}
					],
					"name": "setAddress",
					"outputs": [],
					"stateMutability": "nonpayable",
					"type": "function"
				},
				{
					"inputs": [
						{
							"internalType": "uint256",
							"name": "_fee",
							"type": "uint256"
						}
					],
					"name": "setFee",
					"outputs": [],
					"stateMutability": "nonpayable",
					"type": "function"
				},
				{
					"inputs": [
						{
							"internalType": "address",
							"name": "newOwner",
							"type": "address"
						}
					],
					"name": "transferOwnership",
					"outputs": [],
					"stateMutability": "nonpayable",
					"type": "function"
				},
				{
					"inputs": [],
					"name": "useTreasuryDistributionContract",
					"outputs": [
						{
							"internalType": "bool",
							"name": "",
							"type": "bool"
						}
					],
					"stateMutability": "view",
					"type": "function"
				}
			],
			"devdoc": {
				"kind": "dev",
				"methods": {
					"owner()": {
						"details": "Returns the address of the current owner."
					},
					"renounceOwnership()": {
						"details": "Leaves the contract without owner. It will not be possible to call `onlyOwner` functions anymore. Can only be called by the current owner. NOTE: Renouncing ownership will leave the contract without an owner, thereby removing any functionality that is only available to the owner."
					},
					"transferOwnership(address)": {
						"details": "Transfers ownership of the contract to a new account (`newOwner`). Can only be called by the current owner."
					}
				},
				"version": 1
			},
			"evm": {
				"assembly": "    /* \"contracts/FireLockFeeTransfer.sol\":109:900  contract FireLockFeeTransfer is Ownable{... */\n  mstore(0x40, 0x80)\n    /* \"contracts/FireLockFeeTransfer.sol\":255:352  constructor(address _setAddr) {... */\n  callvalue\n  dup1\n  iszero\n  tag_1\n  jumpi\n  0x00\n  dup1\n  revert\ntag_1:\n  pop\n  mload(0x40)\n  sub(codesize, bytecodeSize)\n  dup1\n  bytecodeSize\n  dup4\n  codecopy\n  dup2\n  add\n  0x40\n  dup2\n  swap1\n  mstore\n  tag_2\n  swap2\n  tag_3\n  jump\t// in\ntag_2:\n    /* \"@openzeppelin/contracts/access/Ownable.sol\":936:968  _transferOwnership(_msgSender()) */\n  tag_7\n    /* \"@openzeppelin/contracts/utils/Context.sol\":719:729  msg.sender */\n  caller\n    /* \"@openzeppelin/contracts/access/Ownable.sol\":936:954  _transferOwnership */\n  tag_10\n    /* \"@openzeppelin/contracts/access/Ownable.sol\":936:968  _transferOwnership(_msgSender()) */\n  jump\t// in\ntag_7:\n    /* \"contracts/FireLockFeeTransfer.sol\":301:317  8000000000000000 */\n  0x1c6bf526340000\n    /* \"contracts/FireLockFeeTransfer.sol\":295:298  fee */\n  0x01\n    /* \"contracts/FireLockFeeTransfer.sol\":295:317  fee = 8000000000000000 */\n  sstore\n    /* \"contracts/FireLockFeeTransfer.sol\":327:334  setAddr */\n  0x02\n    /* \"contracts/FireLockFeeTransfer.sol\":327:345  setAddr = _setAddr */\n  dup1\n  sload\n  not(sub(shl(0xa0, 0x01), 0x01))\n  and\n  sub(shl(0xa0, 0x01), 0x01)\n  swap3\n  swap1\n  swap3\n  and\n  swap2\n  swap1\n  swap2\n  or\n  swap1\n  sstore\n    /* \"contracts/FireLockFeeTransfer.sol\":109:900  contract FireLockFeeTransfer is Ownable{... */\n  jump(tag_15)\n    /* \"@openzeppelin/contracts/access/Ownable.sol\":2433:2620  function _transferOwnership(address newOwner) internal virtual {... */\ntag_10:\n    /* \"@openzeppelin/contracts/access/Ownable.sol\":2506:2522  address oldOwner */\n  0x00\n    /* \"@openzeppelin/contracts/access/Ownable.sol\":2525:2531  _owner */\n  dup1\n  sload\n  sub(shl(0xa0, 0x01), 0x01)\n    /* \"@openzeppelin/contracts/access/Ownable.sol\":2541:2558  _owner = newOwner */\n  dup4\n  dup2\n  and\n  not(sub(shl(0xa0, 0x01), 0x01))\n  dup4\n  and\n  dup2\n  or\n  dup5\n  sstore\n    /* \"@openzeppelin/contracts/access/Ownable.sol\":2573:2613  OwnershipTransferred(oldOwner, newOwner) */\n  mload(0x40)\n    /* \"@openzeppelin/contracts/access/Ownable.sol\":2525:2531  _owner */\n  swap2\n  swap1\n  swap3\n  and\n  swap3\n  dup4\n  swap2\n    /* \"@openzeppelin/contracts/access/Ownable.sol\":2573:2613  OwnershipTransferred(oldOwner, newOwner) */\n  0x8be0079c531659141344cd1fd0a4f28419497f9722a3daafe3b4186f6b6457e0\n  swap2\n    /* \"@openzeppelin/contracts/access/Ownable.sol\":2506:2522  address oldOwner */\n  swap1\n    /* \"@openzeppelin/contracts/access/Ownable.sol\":2573:2613  OwnershipTransferred(oldOwner, newOwner) */\n  log3\n    /* \"@openzeppelin/contracts/access/Ownable.sol\":2496:2620  {... */\n  pop\n    /* \"@openzeppelin/contracts/access/Ownable.sol\":2433:2620  function _transferOwnership(address newOwner) internal virtual {... */\n  pop\n  jump\t// out\n    /* \"#utility.yul\":14:304   */\ntag_3:\n    /* \"#utility.yul\":84:90   */\n  0x00\n    /* \"#utility.yul\":137:139   */\n  0x20\n    /* \"#utility.yul\":125:134   */\n  dup3\n    /* \"#utility.yul\":116:123   */\n  dup5\n    /* \"#utility.yul\":112:135   */\n  sub\n    /* \"#utility.yul\":108:140   */\n  slt\n    /* \"#utility.yul\":105:157   */\n  iszero\n  tag_17\n  jumpi\n    /* \"#utility.yul\":153:154   */\n  0x00\n    /* \"#utility.yul\":150:151   */\n  dup1\n    /* \"#utility.yul\":143:155   */\n  revert\n    /* \"#utility.yul\":105:157   */\ntag_17:\n    /* \"#utility.yul\":179:195   */\n  dup2\n  mload\n  sub(shl(0xa0, 0x01), 0x01)\n    /* \"#utility.yul\":224:255   */\n  dup2\n  and\n    /* \"#utility.yul\":214:256   */\n  dup2\n  eq\n    /* \"#utility.yul\":204:274   */\n  tag_18\n  jumpi\n    /* \"#utility.yul\":270:271   */\n  0x00\n    /* \"#utility.yul\":267:268   */\n  dup1\n    /* \"#utility.yul\":260:272   */\n  revert\n    /* \"#utility.yul\":204:274   */\ntag_18:\n    /* \"#utility.yul\":293:298   */\n  swap4\n    /* \"#utility.yul\":14:304   */\n  swap3\n  pop\n  pop\n  pop\n  jump\t// out\ntag_15:\n    /* \"contracts/FireLockFeeTransfer.sol\":109:900  contract FireLockFeeTransfer is Ownable{... */\n  dataSize(sub_0)\n  dup1\n  dataOffset(sub_0)\n  0x00\n  codecopy\n  0x00\n  return\nstop\n\nsub_0: assembly {\n        /* \"contracts/FireLockFeeTransfer.sol\":109:900  contract FireLockFeeTransfer is Ownable{... */\n      mstore(0x40, 0x80)\n      callvalue\n      dup1\n      iszero\n      tag_1\n      jumpi\n      0x00\n      dup1\n      revert\n    tag_1:\n      pop\n      jumpi(tag_2, lt(calldatasize, 0x04))\n      shr(0xe0, calldataload(0x00))\n      dup1\n      0x9b8be4ee\n      gt\n      tag_15\n      jumpi\n      dup1\n      0x9b8be4ee\n      eq\n      tag_9\n      jumpi\n      dup1\n      0xced72f87\n      eq\n      tag_10\n      jumpi\n      dup1\n      0xddca3f43\n      eq\n      tag_11\n      jumpi\n      dup1\n      0xe30081a0\n      eq\n      tag_12\n      jumpi\n      dup1\n      0xf143d102\n      eq\n      tag_13\n      jumpi\n      dup1\n      0xf2fde38b\n      eq\n      tag_14\n      jumpi\n      0x00\n      dup1\n      revert\n    tag_15:\n      dup1\n      0x13fe5521\n      eq\n      tag_3\n      jumpi\n      dup1\n      0x38cc4831\n      eq\n      tag_4\n      jumpi\n      dup1\n      0x4ad2287f\n      eq\n      tag_5\n      jumpi\n      dup1\n      0x69fe0e2d\n      eq\n      tag_6\n      jumpi\n      dup1\n      0x715018a6\n      eq\n      tag_7\n      jumpi\n      dup1\n      0x8da5cb5b\n      eq\n      tag_8\n      jumpi\n    tag_2:\n      0x00\n      dup1\n      revert\n        /* \"contracts/FireLockFeeTransfer.sol\":353:490  function isUseTreasuryDistributionContract() public onlyOwner {... */\n    tag_3:\n      tag_16\n      tag_17\n      jump\t// in\n    tag_16:\n      stop\n        /* \"contracts/FireLockFeeTransfer.sol\":822:898  function getAddress() external view returns(address) {... */\n    tag_4:\n        /* \"contracts/FireLockFeeTransfer.sol\":888:895  setAddr */\n      and(sub(shl(0xa0, 0x01), 0x01), sload(0x02))\n        /* \"contracts/FireLockFeeTransfer.sol\":822:898  function getAddress() external view returns(address) {... */\n    tag_18:\n      mload(0x40)\n      sub(shl(0xa0, 0x01), 0x01)\n        /* \"#utility.yul\":178:210   */\n      swap1\n      swap2\n      and\n        /* \"#utility.yul\":160:211   */\n      dup2\n      mstore\n        /* \"#utility.yul\":148:150   */\n      0x20\n        /* \"#utility.yul\":133:151   */\n      add\n        /* \"contracts/FireLockFeeTransfer.sol\":822:898  function getAddress() external view returns(address) {... */\n    tag_20:\n      mload(0x40)\n      dup1\n      swap2\n      sub\n      swap1\n      return\n        /* \"contracts/FireLockFeeTransfer.sol\":699:820  function getUseTreasuryDistributionContract() external view returns(bool) {... */\n    tag_5:\n        /* \"contracts/FireLockFeeTransfer.sol\":786:817  useTreasuryDistributionContract */\n      sload(0x02)\n      shl(0xa0, 0x01)\n      swap1\n      div\n      0xff\n      and\n        /* \"contracts/FireLockFeeTransfer.sol\":699:820  function getUseTreasuryDistributionContract() external view returns(bool) {... */\n    tag_22:\n      mload(0x40)\n        /* \"#utility.yul\":387:401   */\n      swap1\n      iszero\n        /* \"#utility.yul\":380:402   */\n      iszero\n        /* \"#utility.yul\":362:403   */\n      dup2\n      mstore\n        /* \"#utility.yul\":350:352   */\n      0x20\n        /* \"#utility.yul\":335:353   */\n      add\n        /* \"contracts/FireLockFeeTransfer.sol\":699:820  function getUseTreasuryDistributionContract() external view returns(bool) {... */\n      tag_20\n        /* \"#utility.yul\":222:409   */\n      jump\n        /* \"contracts/FireLockFeeTransfer.sol\":491:553  function setFee(uint _fee) public onlyOwner{... */\n    tag_6:\n      tag_16\n      tag_27\n      calldatasize\n      0x04\n      tag_28\n      jump\t// in\n    tag_27:\n      tag_29\n      jump\t// in\n        /* \"@openzeppelin/contracts/access/Ownable.sol\":1831:1932  function renounceOwnership() public virtual onlyOwner {... */\n    tag_7:\n      tag_16\n      tag_31\n      jump\t// in\n        /* \"@openzeppelin/contracts/access/Ownable.sol\":1201:1286  function owner() public view virtual returns (address) {... */\n    tag_8:\n        /* \"@openzeppelin/contracts/access/Ownable.sol\":1247:1254  address */\n      0x00\n        /* \"@openzeppelin/contracts/access/Ownable.sol\":1273:1279  _owner */\n      sload\n      sub(shl(0xa0, 0x01), 0x01)\n      and\n        /* \"@openzeppelin/contracts/access/Ownable.sol\":1201:1286  function owner() public view virtual returns (address) {... */\n      jump(tag_18)\n        /* \"contracts/FireLockFeeTransfer.sol\":178:200  address public setAddr */\n    tag_9:\n      sload(0x02)\n      tag_18\n      swap1\n      sub(shl(0xa0, 0x01), 0x01)\n      and\n      dup2\n      jump\n        /* \"contracts/FireLockFeeTransfer.sol\":630:698  function getFee() external view returns(uint256) {... */\n    tag_10:\n        /* \"contracts/FireLockFeeTransfer.sol\":692:695  fee */\n      sload(0x01)\n        /* \"contracts/FireLockFeeTransfer.sol\":630:698  function getFee() external view returns(uint256) {... */\n    tag_38:\n      mload(0x40)\n        /* \"#utility.yul\":745:770   */\n      swap1\n      dup2\n      mstore\n        /* \"#utility.yul\":733:735   */\n      0x20\n        /* \"#utility.yul\":718:736   */\n      add\n        /* \"contracts/FireLockFeeTransfer.sol\":630:698  function getFee() external view returns(uint256) {... */\n      tag_20\n        /* \"#utility.yul\":599:776   */\n      jump\n        /* \"contracts/FireLockFeeTransfer.sol\":154:172  uint256 public fee */\n    tag_11:\n      tag_38\n      sload(0x01)\n      dup2\n      jump\n        /* \"contracts/FireLockFeeTransfer.sol\":554:629  function setAddress(address _addr) public onlyOwner{... */\n    tag_12:\n      tag_16\n      tag_46\n      calldatasize\n      0x04\n      tag_47\n      jump\t// in\n    tag_46:\n      tag_48\n      jump\t// in\n        /* \"contracts/FireLockFeeTransfer.sol\":206:249  bool public useTreasuryDistributionContract */\n    tag_13:\n      sload(0x02)\n      tag_22\n      swap1\n      shl(0xa0, 0x01)\n      swap1\n      div\n      0xff\n      and\n      dup2\n      jump\n        /* \"@openzeppelin/contracts/access/Ownable.sol\":2081:2279  function transferOwnership(address newOwner) public virtual onlyOwner {... */\n    tag_14:\n      tag_16\n      tag_53\n      calldatasize\n      0x04\n      tag_47\n      jump\t// in\n    tag_53:\n      tag_54\n      jump\t// in\n        /* \"contracts/FireLockFeeTransfer.sol\":353:490  function isUseTreasuryDistributionContract() public onlyOwner {... */\n    tag_17:\n        /* \"@openzeppelin/contracts/access/Ownable.sol\":1094:1107  _checkOwner() */\n      tag_56\n        /* \"@openzeppelin/contracts/access/Ownable.sol\":1094:1105  _checkOwner */\n      tag_57\n        /* \"@openzeppelin/contracts/access/Ownable.sol\":1094:1107  _checkOwner() */\n      jump\t// in\n    tag_56:\n        /* \"contracts/FireLockFeeTransfer.sol\":456:487  useTreasuryDistributionContract */\n      0x02\n      dup1\n      sload\n      not(shl(0xa0, 0xff))\n        /* \"contracts/FireLockFeeTransfer.sol\":421:487  useTreasuryDistributionContract = !useTreasuryDistributionContract */\n      dup2\n      and\n      shl(0xa0, 0x01)\n        /* \"contracts/FireLockFeeTransfer.sol\":456:487  useTreasuryDistributionContract */\n      swap2\n      dup3\n      swap1\n      div\n      0xff\n      and\n        /* \"contracts/FireLockFeeTransfer.sol\":455:487  !useTreasuryDistributionContract */\n      iszero\n        /* \"contracts/FireLockFeeTransfer.sol\":421:487  useTreasuryDistributionContract = !useTreasuryDistributionContract */\n      swap1\n      swap2\n      mul\n      or\n      swap1\n      sstore\n        /* \"contracts/FireLockFeeTransfer.sol\":353:490  function isUseTreasuryDistributionContract() public onlyOwner {... */\n      jump\t// out\n        /* \"contracts/FireLockFeeTransfer.sol\":491:553  function setFee(uint _fee) public onlyOwner{... */\n    tag_29:\n        /* \"@openzeppelin/contracts/access/Ownable.sol\":1094:1107  _checkOwner() */\n      tag_62\n        /* \"@openzeppelin/contracts/access/Ownable.sol\":1094:1105  _checkOwner */\n      tag_57\n        /* \"@openzeppelin/contracts/access/Ownable.sol\":1094:1107  _checkOwner() */\n      jump\t// in\n    tag_62:\n        /* \"contracts/FireLockFeeTransfer.sol\":540:543  fee */\n      0x01\n        /* \"contracts/FireLockFeeTransfer.sol\":540:550  fee = _fee */\n      sstore\n        /* \"contracts/FireLockFeeTransfer.sol\":491:553  function setFee(uint _fee) public onlyOwner{... */\n      jump\t// out\n        /* \"@openzeppelin/contracts/access/Ownable.sol\":1831:1932  function renounceOwnership() public virtual onlyOwner {... */\n    tag_31:\n        /* \"@openzeppelin/contracts/access/Ownable.sol\":1094:1107  _checkOwner() */\n      tag_65\n        /* \"@openzeppelin/contracts/access/Ownable.sol\":1094:1105  _checkOwner */\n      tag_57\n        /* \"@openzeppelin/contracts/access/Ownable.sol\":1094:1107  _checkOwner() */\n      jump\t// in\n    tag_65:\n        /* \"@openzeppelin/contracts/access/Ownable.sol\":1895:1925  _transferOwnership(address(0)) */\n      tag_67\n        /* \"@openzeppelin/contracts/access/Ownable.sol\":1922:1923  0 */\n      0x00\n        /* \"@openzeppelin/contracts/access/Ownable.sol\":1895:1913  _transferOwnership */\n      tag_68\n        /* \"@openzeppelin/contracts/access/Ownable.sol\":1895:1925  _transferOwnership(address(0)) */\n      jump\t// in\n    tag_67:\n        /* \"@openzeppelin/contracts/access/Ownable.sol\":1831:1932  function renounceOwnership() public virtual onlyOwner {... */\n      jump\t// out\n        /* \"contracts/FireLockFeeTransfer.sol\":554:629  function setAddress(address _addr) public onlyOwner{... */\n    tag_48:\n        /* \"@openzeppelin/contracts/access/Ownable.sol\":1094:1107  _checkOwner() */\n      tag_72\n        /* \"@openzeppelin/contracts/access/Ownable.sol\":1094:1105  _checkOwner */\n      tag_57\n        /* \"@openzeppelin/contracts/access/Ownable.sol\":1094:1107  _checkOwner() */\n      jump\t// in\n    tag_72:\n        /* \"contracts/FireLockFeeTransfer.sol\":611:618  setAddr */\n      0x02\n        /* \"contracts/FireLockFeeTransfer.sol\":611:626  setAddr = _addr */\n      dup1\n      sload\n      not(sub(shl(0xa0, 0x01), 0x01))\n      and\n      sub(shl(0xa0, 0x01), 0x01)\n      swap3\n      swap1\n      swap3\n      and\n      swap2\n      swap1\n      swap2\n      or\n      swap1\n      sstore\n        /* \"contracts/FireLockFeeTransfer.sol\":554:629  function setAddress(address _addr) public onlyOwner{... */\n      jump\t// out\n        /* \"@openzeppelin/contracts/access/Ownable.sol\":2081:2279  function transferOwnership(address newOwner) public virtual onlyOwner {... */\n    tag_54:\n        /* \"@openzeppelin/contracts/access/Ownable.sol\":1094:1107  _checkOwner() */\n      tag_75\n        /* \"@openzeppelin/contracts/access/Ownable.sol\":1094:1105  _checkOwner */\n      tag_57\n        /* \"@openzeppelin/contracts/access/Ownable.sol\":1094:1107  _checkOwner() */\n      jump\t// in\n    tag_75:\n      sub(shl(0xa0, 0x01), 0x01)\n        /* \"@openzeppelin/contracts/access/Ownable.sol\":2169:2191  newOwner != address(0) */\n      dup2\n      and\n        /* \"@openzeppelin/contracts/access/Ownable.sol\":2161:2234  require(newOwner != address(0), \"Ownable: new owner is the zero address\") */\n      tag_77\n      jumpi\n      mload(0x40)\n      shl(0xe5, 0x461bcd)\n      dup2\n      mstore\n        /* \"#utility.yul\":1274:1276   */\n      0x20\n        /* \"@openzeppelin/contracts/access/Ownable.sol\":2161:2234  require(newOwner != address(0), \"Ownable: new owner is the zero address\") */\n      0x04\n      dup3\n      add\n        /* \"#utility.yul\":1256:1277   */\n      mstore\n        /* \"#utility.yul\":1313:1315   */\n      0x26\n        /* \"#utility.yul\":1293:1311   */\n      0x24\n      dup3\n      add\n        /* \"#utility.yul\":1286:1316   */\n      mstore\n        /* \"#utility.yul\":1352:1386   */\n      0x4f776e61626c653a206e6577206f776e657220697320746865207a65726f2061\n        /* \"#utility.yul\":1332:1350   */\n      0x44\n      dup3\n      add\n        /* \"#utility.yul\":1325:1387   */\n      mstore\n      shl(0xd0, 0x646472657373)\n        /* \"#utility.yul\":1403:1421   */\n      0x64\n      dup3\n      add\n        /* \"#utility.yul\":1396:1432   */\n      mstore\n        /* \"#utility.yul\":1449:1468   */\n      0x84\n      add\n        /* \"@openzeppelin/contracts/access/Ownable.sol\":2161:2234  require(newOwner != address(0), \"Ownable: new owner is the zero address\") */\n    tag_78:\n      mload(0x40)\n      dup1\n      swap2\n      sub\n      swap1\n      revert\n    tag_77:\n        /* \"@openzeppelin/contracts/access/Ownable.sol\":2244:2272  _transferOwnership(newOwner) */\n      tag_80\n        /* \"@openzeppelin/contracts/access/Ownable.sol\":2263:2271  newOwner */\n      dup2\n        /* \"@openzeppelin/contracts/access/Ownable.sol\":2244:2262  _transferOwnership */\n      tag_68\n        /* \"@openzeppelin/contracts/access/Ownable.sol\":2244:2272  _transferOwnership(newOwner) */\n      jump\t// in\n    tag_80:\n        /* \"@openzeppelin/contracts/access/Ownable.sol\":2081:2279  function transferOwnership(address newOwner) public virtual onlyOwner {... */\n      pop\n      jump\t// out\n        /* \"@openzeppelin/contracts/access/Ownable.sol\":1359:1489  function _checkOwner() internal view virtual {... */\n    tag_57:\n        /* \"@openzeppelin/contracts/access/Ownable.sol\":1247:1254  address */\n      0x00\n        /* \"@openzeppelin/contracts/access/Ownable.sol\":1273:1279  _owner */\n      sload\n      sub(shl(0xa0, 0x01), 0x01)\n      and\n        /* \"@openzeppelin/contracts/utils/Context.sol\":719:729  msg.sender */\n      caller\n        /* \"@openzeppelin/contracts/access/Ownable.sol\":1422:1445  owner() == _msgSender() */\n      eq\n        /* \"@openzeppelin/contracts/access/Ownable.sol\":1414:1482  require(owner() == _msgSender(), \"Ownable: caller is not the owner\") */\n      tag_67\n      jumpi\n      mload(0x40)\n      shl(0xe5, 0x461bcd)\n      dup2\n      mstore\n        /* \"#utility.yul\":1681:1683   */\n      0x20\n        /* \"@openzeppelin/contracts/access/Ownable.sol\":1414:1482  require(owner() == _msgSender(), \"Ownable: caller is not the owner\") */\n      0x04\n      dup3\n      add\n        /* \"#utility.yul\":1663:1684   */\n      dup2\n      swap1\n      mstore\n        /* \"#utility.yul\":1700:1718   */\n      0x24\n      dup3\n      add\n        /* \"#utility.yul\":1693:1723   */\n      mstore\n        /* \"#utility.yul\":1759:1793   */\n      0x4f776e61626c653a2063616c6c6572206973206e6f7420746865206f776e6572\n        /* \"#utility.yul\":1739:1757   */\n      0x44\n      dup3\n      add\n        /* \"#utility.yul\":1732:1794   */\n      mstore\n        /* \"#utility.yul\":1811:1829   */\n      0x64\n      add\n        /* \"@openzeppelin/contracts/access/Ownable.sol\":1414:1482  require(owner() == _msgSender(), \"Ownable: caller is not the owner\") */\n      tag_78\n        /* \"#utility.yul\":1479:1835   */\n      jump\n        /* \"@openzeppelin/contracts/access/Ownable.sol\":2433:2620  function _transferOwnership(address newOwner) internal virtual {... */\n    tag_68:\n        /* \"@openzeppelin/contracts/access/Ownable.sol\":2506:2522  address oldOwner */\n      0x00\n        /* \"@openzeppelin/contracts/access/Ownable.sol\":2525:2531  _owner */\n      dup1\n      sload\n      sub(shl(0xa0, 0x01), 0x01)\n        /* \"@openzeppelin/contracts/access/Ownable.sol\":2541:2558  _owner = newOwner */\n      dup4\n      dup2\n      and\n      not(sub(shl(0xa0, 0x01), 0x01))\n      dup4\n      and\n      dup2\n      or\n      dup5\n      sstore\n        /* \"@openzeppelin/contracts/access/Ownable.sol\":2573:2613  OwnershipTransferred(oldOwner, newOwner) */\n      mload(0x40)\n        /* \"@openzeppelin/contracts/access/Ownable.sol\":2525:2531  _owner */\n      swap2\n      swap1\n      swap3\n      and\n      swap3\n      dup4\n      swap2\n        /* \"@openzeppelin/contracts/access/Ownable.sol\":2573:2613  OwnershipTransferred(oldOwner, newOwner) */\n      0x8be0079c531659141344cd1fd0a4f28419497f9722a3daafe3b4186f6b6457e0\n      swap2\n        /* \"@openzeppelin/contracts/access/Ownable.sol\":2506:2522  address oldOwner */\n      swap1\n        /* \"@openzeppelin/contracts/access/Ownable.sol\":2573:2613  OwnershipTransferred(oldOwner, newOwner) */\n      log3\n        /* \"@openzeppelin/contracts/access/Ownable.sol\":2496:2620  {... */\n      pop\n        /* \"@openzeppelin/contracts/access/Ownable.sol\":2433:2620  function _transferOwnership(address newOwner) internal virtual {... */\n      pop\n      jump\t// out\n        /* \"#utility.yul\":414:594   */\n    tag_28:\n        /* \"#utility.yul\":473:479   */\n      0x00\n        /* \"#utility.yul\":526:528   */\n      0x20\n        /* \"#utility.yul\":514:523   */\n      dup3\n        /* \"#utility.yul\":505:512   */\n      dup5\n        /* \"#utility.yul\":501:524   */\n      sub\n        /* \"#utility.yul\":497:529   */\n      slt\n        /* \"#utility.yul\":494:546   */\n      iszero\n      tag_94\n      jumpi\n        /* \"#utility.yul\":542:543   */\n      0x00\n        /* \"#utility.yul\":539:540   */\n      dup1\n        /* \"#utility.yul\":532:544   */\n      revert\n        /* \"#utility.yul\":494:546   */\n    tag_94:\n      pop\n        /* \"#utility.yul\":565:588   */\n      calldataload\n      swap2\n        /* \"#utility.yul\":414:594   */\n      swap1\n      pop\n      jump\t// out\n        /* \"#utility.yul\":781:1067   */\n    tag_47:\n        /* \"#utility.yul\":840:846   */\n      0x00\n        /* \"#utility.yul\":893:895   */\n      0x20\n        /* \"#utility.yul\":881:890   */\n      dup3\n        /* \"#utility.yul\":872:879   */\n      dup5\n        /* \"#utility.yul\":868:891   */\n      sub\n        /* \"#utility.yul\":864:896   */\n      slt\n        /* \"#utility.yul\":861:913   */\n      iszero\n      tag_97\n      jumpi\n        /* \"#utility.yul\":909:910   */\n      0x00\n        /* \"#utility.yul\":906:907   */\n      dup1\n        /* \"#utility.yul\":899:911   */\n      revert\n        /* \"#utility.yul\":861:913   */\n    tag_97:\n        /* \"#utility.yul\":935:958   */\n      dup2\n      calldataload\n      sub(shl(0xa0, 0x01), 0x01)\n        /* \"#utility.yul\":987:1018   */\n      dup2\n      and\n        /* \"#utility.yul\":977:1019   */\n      dup2\n      eq\n        /* \"#utility.yul\":967:1037   */\n      tag_98\n      jumpi\n        /* \"#utility.yul\":1033:1034   */\n      0x00\n        /* \"#utility.yul\":1030:1031   */\n      dup1\n        /* \"#utility.yul\":1023:1035   */\n      revert\n        /* \"#utility.yul\":967:1037   */\n    tag_98:\n        /* \"#utility.yul\":1056:1061   */\n      swap4\n        /* \"#utility.yul\":781:1067   */\n      swap3\n      pop\n      pop\n      pop\n      jump\t// out\n\n    auxdata: 0xa264697066735822122039eb16b26e4776ea614e8500c03de19bd0741d7b9ff89222b94e6d66cde89c7e64736f6c63430008120033\n}\n",
				"bytecode": {
					"linkReferences": {},
					"object": "608060405234801561001057600080fd5b506040516104b13803806104b183398101604081905261002f916100b8565b61003833610068565b661c6bf526340000600155600280546001600160a01b0319166001600160a01b03929092169190911790556100e8565b600080546001600160a01b038381166001600160a01b0319831681178455604051919092169283917f8be0079c531659141344cd1fd0a4f28419497f9722a3daafe3b4186f6b6457e09190a35050565b6000602082840312156100ca57600080fd5b81516001600160a01b03811681146100e157600080fd5b9392505050565b6103ba806100f76000396000f3fe608060405234801561001057600080fd5b50600436106100b45760003560e01c80639b8be4ee116100715780639b8be4ee14610137578063ced72f871461014a578063ddca3f431461015c578063e30081a014610165578063f143d10214610178578063f2fde38b1461018c57600080fd5b806313fe5521146100b957806338cc4831146100c35780634ad2287f146100ed57806369fe0e2d1461010b578063715018a61461011e5780638da5cb5b14610126575b600080fd5b6100c161019f565b005b6002546001600160a01b03165b6040516001600160a01b0390911681526020015b60405180910390f35b600254600160a01b900460ff165b60405190151581526020016100e4565b6100c161011936600461033b565b6101c8565b6100c16101d5565b6000546001600160a01b03166100d0565b6002546100d0906001600160a01b031681565b6001545b6040519081526020016100e4565b61014e60015481565b6100c1610173366004610354565b6101e9565b6002546100fb90600160a01b900460ff1681565b6100c161019a366004610354565b610213565b6101a7610291565b6002805460ff60a01b198116600160a01b9182900460ff1615909102179055565b6101d0610291565b600155565b6101dd610291565b6101e760006102eb565b565b6101f1610291565b600280546001600160a01b0319166001600160a01b0392909216919091179055565b61021b610291565b6001600160a01b0381166102855760405162461bcd60e51b815260206004820152602660248201527f4f776e61626c653a206e6577206f776e657220697320746865207a65726f206160448201526564647265737360d01b60648201526084015b60405180910390fd5b61028e816102eb565b50565b6000546001600160a01b031633146101e75760405162461bcd60e51b815260206004820181905260248201527f4f776e61626c653a2063616c6c6572206973206e6f7420746865206f776e6572604482015260640161027c565b600080546001600160a01b038381166001600160a01b0319831681178455604051919092169283917f8be0079c531659141344cd1fd0a4f28419497f9722a3daafe3b4186f6b6457e09190a35050565b60006020828403121561034d57600080fd5b5035919050565b60006020828403121561036657600080fd5b81356001600160a01b038116811461037d57600080fd5b939250505056fea264697066735822122039eb16b26e4776ea614e8500c03de19bd0741d7b9ff89222b94e6d66cde89c7e64736f6c63430008120033",
					"opcodes": "PUSH1 0x80 PUSH1 0x40 MSTORE CALLVALUE DUP1 ISZERO PUSH2 0x10 JUMPI PUSH1 0x0 DUP1 REVERT JUMPDEST POP PUSH1 0x40 MLOAD PUSH2 0x4B1 CODESIZE SUB DUP1 PUSH2 0x4B1 DUP4 CODECOPY DUP2 ADD PUSH1 0x40 DUP2 SWAP1 MSTORE PUSH2 0x2F SWAP2 PUSH2 0xB8 JUMP JUMPDEST PUSH2 0x38 CALLER PUSH2 0x68 JUMP JUMPDEST PUSH7 0x1C6BF526340000 PUSH1 0x1 SSTORE PUSH1 0x2 DUP1 SLOAD PUSH1 0x1 PUSH1 0x1 PUSH1 0xA0 SHL SUB NOT AND PUSH1 0x1 PUSH1 0x1 PUSH1 0xA0 SHL SUB SWAP3 SWAP1 SWAP3 AND SWAP2 SWAP1 SWAP2 OR SWAP1 SSTORE PUSH2 0xE8 JUMP JUMPDEST PUSH1 0x0 DUP1 SLOAD PUSH1 0x1 PUSH1 0x1 PUSH1 0xA0 SHL SUB DUP4 DUP2 AND PUSH1 0x1 PUSH1 0x1 PUSH1 0xA0 SHL SUB NOT DUP4 AND DUP2 OR DUP5 SSTORE PUSH1 0x40 MLOAD SWAP2 SWAP1 SWAP3 AND SWAP3 DUP4 SWAP2 PUSH32 0x8BE0079C531659141344CD1FD0A4F28419497F9722A3DAAFE3B4186F6B6457E0 SWAP2 SWAP1 LOG3 POP POP JUMP JUMPDEST PUSH1 0x0 PUSH1 0x20 DUP3 DUP5 SUB SLT ISZERO PUSH2 0xCA JUMPI PUSH1 0x0 DUP1 REVERT JUMPDEST DUP2 MLOAD PUSH1 0x1 PUSH1 0x1 PUSH1 0xA0 SHL SUB DUP2 AND DUP2 EQ PUSH2 0xE1 JUMPI PUSH1 0x0 DUP1 REVERT JUMPDEST SWAP4 SWAP3 POP POP POP JUMP JUMPDEST PUSH2 0x3BA DUP1 PUSH2 0xF7 PUSH1 0x0 CODECOPY PUSH1 0x0 RETURN INVALID PUSH1 0x80 PUSH1 0x40 MSTORE CALLVALUE DUP1 ISZERO PUSH2 0x10 JUMPI PUSH1 0x0 DUP1 REVERT JUMPDEST POP PUSH1 0x4 CALLDATASIZE LT PUSH2 0xB4 JUMPI PUSH1 0x0 CALLDATALOAD PUSH1 0xE0 SHR DUP1 PUSH4 0x9B8BE4EE GT PUSH2 0x71 JUMPI DUP1 PUSH4 0x9B8BE4EE EQ PUSH2 0x137 JUMPI DUP1 PUSH4 0xCED72F87 EQ PUSH2 0x14A JUMPI DUP1 PUSH4 0xDDCA3F43 EQ PUSH2 0x15C JUMPI DUP1 PUSH4 0xE30081A0 EQ PUSH2 0x165 JUMPI DUP1 PUSH4 0xF143D102 EQ PUSH2 0x178 JUMPI DUP1 PUSH4 0xF2FDE38B EQ PUSH2 0x18C JUMPI PUSH1 0x0 DUP1 REVERT JUMPDEST DUP1 PUSH4 0x13FE5521 EQ PUSH2 0xB9 JUMPI DUP1 PUSH4 0x38CC4831 EQ PUSH2 0xC3 JUMPI DUP1 PUSH4 0x4AD2287F EQ PUSH2 0xED JUMPI DUP1 PUSH4 0x69FE0E2D EQ PUSH2 0x10B JUMPI DUP1 PUSH4 0x715018A6 EQ PUSH2 0x11E JUMPI DUP1 PUSH4 0x8DA5CB5B EQ PUSH2 0x126 JUMPI JUMPDEST PUSH1 0x0 DUP1 REVERT JUMPDEST PUSH2 0xC1 PUSH2 0x19F JUMP JUMPDEST STOP JUMPDEST PUSH1 0x2 SLOAD PUSH1 0x1 PUSH1 0x1 PUSH1 0xA0 SHL SUB AND JUMPDEST PUSH1 0x40 MLOAD PUSH1 0x1 PUSH1 0x1 PUSH1 0xA0 SHL SUB SWAP1 SWAP2 AND DUP2 MSTORE PUSH1 0x20 ADD JUMPDEST PUSH1 0x40 MLOAD DUP1 SWAP2 SUB SWAP1 RETURN JUMPDEST PUSH1 0x2 SLOAD PUSH1 0x1 PUSH1 0xA0 SHL SWAP1 DIV PUSH1 0xFF AND JUMPDEST PUSH1 0x40 MLOAD SWAP1 ISZERO ISZERO DUP2 MSTORE PUSH1 0x20 ADD PUSH2 0xE4 JUMP JUMPDEST PUSH2 0xC1 PUSH2 0x119 CALLDATASIZE PUSH1 0x4 PUSH2 0x33B JUMP JUMPDEST PUSH2 0x1C8 JUMP JUMPDEST PUSH2 0xC1 PUSH2 0x1D5 JUMP JUMPDEST PUSH1 0x0 SLOAD PUSH1 0x1 PUSH1 0x1 PUSH1 0xA0 SHL SUB AND PUSH2 0xD0 JUMP JUMPDEST PUSH1 0x2 SLOAD PUSH2 0xD0 SWAP1 PUSH1 0x1 PUSH1 0x1 PUSH1 0xA0 SHL SUB AND DUP2 JUMP JUMPDEST PUSH1 0x1 SLOAD JUMPDEST PUSH1 0x40 MLOAD SWAP1 DUP2 MSTORE PUSH1 0x20 ADD PUSH2 0xE4 JUMP JUMPDEST PUSH2 0x14E PUSH1 0x1 SLOAD DUP2 JUMP JUMPDEST PUSH2 0xC1 PUSH2 0x173 CALLDATASIZE PUSH1 0x4 PUSH2 0x354 JUMP JUMPDEST PUSH2 0x1E9 JUMP JUMPDEST PUSH1 0x2 SLOAD PUSH2 0xFB SWAP1 PUSH1 0x1 PUSH1 0xA0 SHL SWAP1 DIV PUSH1 0xFF AND DUP2 JUMP JUMPDEST PUSH2 0xC1 PUSH2 0x19A CALLDATASIZE PUSH1 0x4 PUSH2 0x354 JUMP JUMPDEST PUSH2 0x213 JUMP JUMPDEST PUSH2 0x1A7 PUSH2 0x291 JUMP JUMPDEST PUSH1 0x2 DUP1 SLOAD PUSH1 0xFF PUSH1 0xA0 SHL NOT DUP2 AND PUSH1 0x1 PUSH1 0xA0 SHL SWAP2 DUP3 SWAP1 DIV PUSH1 0xFF AND ISZERO SWAP1 SWAP2 MUL OR SWAP1 SSTORE JUMP JUMPDEST PUSH2 0x1D0 PUSH2 0x291 JUMP JUMPDEST PUSH1 0x1 SSTORE JUMP JUMPDEST PUSH2 0x1DD PUSH2 0x291 JUMP JUMPDEST PUSH2 0x1E7 PUSH1 0x0 PUSH2 0x2EB JUMP JUMPDEST JUMP JUMPDEST PUSH2 0x1F1 PUSH2 0x291 JUMP JUMPDEST PUSH1 0x2 DUP1 SLOAD PUSH1 0x1 PUSH1 0x1 PUSH1 0xA0 SHL SUB NOT AND PUSH1 0x1 PUSH1 0x1 PUSH1 0xA0 SHL SUB SWAP3 SWAP1 SWAP3 AND SWAP2 SWAP1 SWAP2 OR SWAP1 SSTORE JUMP JUMPDEST PUSH2 0x21B PUSH2 0x291 JUMP JUMPDEST PUSH1 0x1 PUSH1 0x1 PUSH1 0xA0 SHL SUB DUP2 AND PUSH2 0x285 JUMPI PUSH1 0x40 MLOAD PUSH3 0x461BCD PUSH1 0xE5 SHL DUP2 MSTORE PUSH1 0x20 PUSH1 0x4 DUP3 ADD MSTORE PUSH1 0x26 PUSH1 0x24 DUP3 ADD MSTORE PUSH32 0x4F776E61626C653A206E6577206F776E657220697320746865207A65726F2061 PUSH1 0x44 DUP3 ADD MSTORE PUSH6 0x646472657373 PUSH1 0xD0 SHL PUSH1 0x64 DUP3 ADD MSTORE PUSH1 0x84 ADD JUMPDEST PUSH1 0x40 MLOAD DUP1 SWAP2 SUB SWAP1 REVERT JUMPDEST PUSH2 0x28E DUP2 PUSH2 0x2EB JUMP JUMPDEST POP JUMP JUMPDEST PUSH1 0x0 SLOAD PUSH1 0x1 PUSH1 0x1 PUSH1 0xA0 SHL SUB AND CALLER EQ PUSH2 0x1E7 JUMPI PUSH1 0x40 MLOAD PUSH3 0x461BCD PUSH1 0xE5 SHL DUP2 MSTORE PUSH1 0x20 PUSH1 0x4 DUP3 ADD DUP2 SWAP1 MSTORE PUSH1 0x24 DUP3 ADD MSTORE PUSH32 0x4F776E61626C653A2063616C6C6572206973206E6F7420746865206F776E6572 PUSH1 0x44 DUP3 ADD MSTORE PUSH1 0x64 ADD PUSH2 0x27C JUMP JUMPDEST PUSH1 0x0 DUP1 SLOAD PUSH1 0x1 PUSH1 0x1 PUSH1 0xA0 SHL SUB DUP4 DUP2 AND PUSH1 0x1 PUSH1 0x1 PUSH1 0xA0 SHL SUB NOT DUP4 AND DUP2 OR DUP5 SSTORE PUSH1 0x40 MLOAD SWAP2 SWAP1 SWAP3 AND SWAP3 DUP4 SWAP2 PUSH32 0x8BE0079C531659141344CD1FD0A4F28419497F9722A3DAAFE3B4186F6B6457E0 SWAP2 SWAP1 LOG3 POP POP JUMP JUMPDEST PUSH1 0x0 PUSH1 0x20 DUP3 DUP5 SUB SLT ISZERO PUSH2 0x34D JUMPI PUSH1 0x0 DUP1 REVERT JUMPDEST POP CALLDATALOAD SWAP2 SWAP1 POP JUMP JUMPDEST PUSH1 0x0 PUSH1 0x20 DUP3 DUP5 SUB SLT ISZERO PUSH2 0x366 JUMPI PUSH1 0x0 DUP1 REVERT JUMPDEST DUP2 CALLDATALOAD PUSH1 0x1 PUSH1 0x1 PUSH1 0xA0 SHL SUB DUP2 AND DUP2 EQ PUSH2 0x37D JUMPI PUSH1 0x0 DUP1 REVERT JUMPDEST SWAP4 SWAP3 POP POP POP JUMP INVALID LOG2 PUSH5 0x6970667358 0x22 SLT KECCAK256 CODECOPY 0xEB AND 0xB2 PUSH15 0x4776EA614E8500C03DE19BD0741D7B SWAP16 0xF8 SWAP3 0x22 0xB9 0x4E PUSH14 0x66CDE89C7E64736F6C6343000812 STOP CALLER "
				},
				"gasEstimates": {
					"creation": {
						"codeDepositCost": "190800",
						"executionCost": "infinite",
						"totalCost": "infinite"
					},
					"external": {
						"fee()": "2339",
						"getAddress()": "2332",
						"getFee()": "2303",
						"getUseTreasuryDistributionContract()": "2355",
						"isUseTreasuryDistributionContract()": "26582",
						"owner()": "2431",
						"renounceOwnership()": "infinite",
						"setAddr()": "2326",
						"setAddress(address)": "26766",
						"setFee(uint256)": "24555",
						"transferOwnership(address)": "28408",
						"useTreasuryDistributionContract()": "2415"
					}
				},
				"methodIdentifiers": {
					"fee()": "ddca3f43",
					"getAddress()": "38cc4831",
					"getFee()": "ced72f87",
					"getUseTreasuryDistributionContract()": "4ad2287f",
					"isUseTreasuryDistributionContract()": "13fe5521",
					"owner()": "8da5cb5b",
					"renounceOwnership()": "715018a6",
					"setAddr()": "9b8be4ee",
					"setAddress(address)": "e30081a0",
					"setFee(uint256)": "69fe0e2d",
					"transferOwnership(address)": "f2fde38b",
					"useTreasuryDistributionContract()": "f143d102"
				}
			},
			"storageLayout": {
				"storage": [
					{
						"astId": 7,
						"contract": "contracts/FireLockFeeTransfer.sol:FireLockFeeTransfer",
						"label": "_owner",
						"offset": 0,
						"slot": "0",
						"type": "t_address"
					},
					{
						"astId": 141,
						"contract": "contracts/FireLockFeeTransfer.sol:FireLockFeeTransfer",
						"label": "fee",
						"offset": 0,
						"slot": "1",
						"type": "t_uint256"
					},
					{
						"astId": 143,
						"contract": "contracts/FireLockFeeTransfer.sol:FireLockFeeTransfer",
						"label": "setAddr",
						"offset": 0,
						"slot": "2",
						"type": "t_address"
					},
					{
						"astId": 145,
						"contract": "contracts/FireLockFeeTransfer.sol:FireLockFeeTransfer",
						"label": "useTreasuryDistributionContract",
						"offset": 20,
						"slot": "2",
						"type": "t_bool"
					}
				],
				"types": {
					"t_address": {
						"encoding": "inplace",
						"label": "address",
						"numberOfBytes": "20"
					},
					"t_bool": {
						"encoding": "inplace",
						"label": "bool",
						"numberOfBytes": "1"
					},
					"t_uint256": {
						"encoding": "inplace",
						"label": "uint256",
						"numberOfBytes": "32"
					}
				}
			},
			"userdoc": {
				"kind": "user",
				"methods": {},
				"version": 1
			}
		}
	}
}