{
	"contracts/poolManager.sol": {
		"poolManager": {
			"abi": [
				{
					"inputs": [
						{
							"internalType": "address",
							"name": "_weth",
							"type": "address"
						}
					],
					"stateMutability": "nonpayable",
					"type": "constructor"
				},
				{
					"anonymous": false,
					"inputs": [
						{
							"indexed": true,
							"internalType": "address",
							"name": "previousOwner",
							"type": "address"
						},
						{
							"indexed": true,
							"internalType": "address",
							"name": "newOwner",
							"type": "address"
						}
					],
					"name": "OwnershipTransferred",
					"type": "event"
				},
				{
					"inputs": [],
					"name": "EMERGENCY_POOL_RATIO",
					"outputs": [
						{
							"internalType": "uint256",
							"name": "",
							"type": "uint256"
						}
					],
					"stateMutability": "view",
					"type": "function"
				},
				{
					"inputs": [],
					"name": "FEE_RATIO",
					"outputs": [
						{
							"internalType": "uint256",
							"name": "",
							"type": "uint256"
						}
					],
					"stateMutability": "view",
					"type": "function"
				},
				{
					"inputs": [],
					"name": "NORMAL_POOL_RATIO",
					"outputs": [
						{
							"internalType": "uint256",
							"name": "",
							"type": "uint256"
						}
					],
					"stateMutability": "view",
					"type": "function"
				},
				{
					"inputs": [
						{
							"internalType": "uint256",
							"name": "_time",
							"type": "uint256"
						}
					],
					"name": "_setAddressFrequency",
					"outputs": [],
					"stateMutability": "nonpayable",
					"type": "function"
				},
				{
					"inputs": [
						{
							"internalType": "uint256",
							"name": "_amount",
							"type": "uint256"
						}
					],
					"name": "_setQuota",
					"outputs": [],
					"stateMutability": "nonpayable",
					"type": "function"
				},
				{
					"inputs": [
						{
							"internalType": "uint256",
							"name": "_amount",
							"type": "uint256"
						}
					],
					"name": "_setReputationAmount",
					"outputs": [],
					"stateMutability": "nonpayable",
					"type": "function"
				},
				{
					"inputs": [
						{
							"internalType": "uint256",
							"name": "_ratio",
							"type": "uint256"
						}
					],
					"name": "_setReward",
					"outputs": [],
					"stateMutability": "nonpayable",
					"type": "function"
				},
				{
					"inputs": [],
					"name": "_setStatus",
					"outputs": [],
					"stateMutability": "nonpayable",
					"type": "function"
				},
				{
					"inputs": [
						{
							"internalType": "uint256",
							"name": "_time",
							"type": "uint256"
						}
					],
					"name": "_setTimeFrequency",
					"outputs": [],
					"stateMutability": "nonpayable",
					"type": "function"
				},
				{
					"inputs": [
						{
							"internalType": "contract IUniswapV2Router02",
							"name": "_uniswapV2Router",
							"type": "address"
						}
					],
					"name": "_setUniswapV2Router",
					"outputs": [],
					"stateMutability": "nonpayable",
					"type": "function"
				},
				{
					"inputs": [],
					"name": "emergencyPool",
					"outputs": [
						{
							"internalType": "address",
							"name": "",
							"type": "address"
						}
					],
					"stateMutability": "view",
					"type": "function"
				},
				{
					"inputs": [],
					"name": "fundAllocation",
					"outputs": [],
					"stateMutability": "nonpayable",
					"type": "function"
				},
				{
					"inputs": [],
					"name": "getContractBalance",
					"outputs": [
						{
							"internalType": "uint256",
							"name": "",
							"type": "uint256"
						}
					],
					"stateMutability": "view",
					"type": "function"
				},
				{
					"inputs": [
						{
							"internalType": "address",
							"name": "_normalPool",
							"type": "address"
						},
						{
							"internalType": "address",
							"name": "_emergencyPool",
							"type": "address"
						}
					],
					"name": "init",
					"outputs": [],
					"stateMutability": "nonpayable",
					"type": "function"
				},
				{
					"inputs": [],
					"name": "normalPool",
					"outputs": [
						{
							"internalType": "address",
							"name": "",
							"type": "address"
						}
					],
					"stateMutability": "view",
					"type": "function"
				},
				{
					"inputs": [],
					"name": "owner",
					"outputs": [
						{
							"internalType": "address",
							"name": "",
							"type": "address"
						}
					],
					"stateMutability": "view",
					"type": "function"
				},
				{
					"inputs": [],
					"name": "renounceOwnership",
					"outputs": [],
					"stateMutability": "nonpayable",
					"type": "function"
				},
				{
					"inputs": [
						{
							"internalType": "uint256",
							"name": "_time",
							"type": "uint256"
						}
					],
					"name": "setAddressFrequency",
					"outputs": [],
					"stateMutability": "nonpayable",
					"type": "function"
				},
				{
					"inputs": [
						{
							"internalType": "uint256",
							"name": "_ratio",
							"type": "uint256"
						}
					],
					"name": "setEMERGENCY_POOL_RATIO",
					"outputs": [],
					"stateMutability": "nonpayable",
					"type": "function"
				},
				{
					"inputs": [
						{
							"internalType": "uint256",
							"name": "_ratio",
							"type": "uint256"
						}
					],
					"name": "setNORMAL_POOL_RATIO",
					"outputs": [],
					"stateMutability": "nonpayable",
					"type": "function"
				},
				{
					"inputs": [
						{
							"internalType": "uint256",
							"name": "_amount",
							"type": "uint256"
						}
					],
					"name": "setQuota",
					"outputs": [],
					"stateMutability": "nonpayable",
					"type": "function"
				},
				{
					"inputs": [
						{
							"internalType": "uint256",
							"name": "_ratio",
							"type": "uint256"
						}
					],
					"name": "setReward",
					"outputs": [],
					"stateMutability": "nonpayable",
					"type": "function"
				},
				{
					"inputs": [
						{
							"internalType": "uint256",
							"name": "_time",
							"type": "uint256"
						}
					],
					"name": "setTimeFrequency",
					"outputs": [],
					"stateMutability": "nonpayable",
					"type": "function"
				},
				{
					"inputs": [
						{
							"internalType": "address",
							"name": "newOwner",
							"type": "address"
						}
					],
					"name": "transferOwnership",
					"outputs": [],
					"stateMutability": "nonpayable",
					"type": "function"
				},
				{
					"inputs": [],
					"name": "weth",
					"outputs": [
						{
							"internalType": "address",
							"name": "",
							"type": "address"
						}
					],
					"stateMutability": "view",
					"type": "function"
				}
			],
			"devdoc": {
				"kind": "dev",
				"methods": {
					"owner()": {
						"details": "Returns the address of the current owner."
					},
					"renounceOwnership()": {
						"details": "Leaves the contract without owner. It will not be possible to call `onlyOwner` functions anymore. Can only be called by the current owner. NOTE: Renouncing ownership will leave the contract without an owner, thereby removing any functionality that is only available to the owner."
					},
					"transferOwnership(address)": {
						"details": "Transfers ownership of the contract to a new account (`newOwner`). Can only be called by the current owner."
					}
				},
				"version": 1
			},
			"evm": {
				"assembly": "    /* \"contracts/poolManager.sol\":640:3662  contract poolManager is Ownable {... */\n  mstore(0x40, 0xa0)\n    /* \"contracts/poolManager.sol\":805:808  100 */\n  0x64\n    /* \"contracts/poolManager.sol\":768:808  uint256 immutable public FEE_RATIO = 100 */\n  0x80\n  mstore\n    /* \"contracts/poolManager.sol\":893:1023  constructor(address _weth) {... */\n  callvalue\n  dup1\n  iszero\n  tag_1\n  jumpi\n  0x00\n  dup1\n  revert\ntag_1:\n  pop\n  mload(0x40)\n  sub(codesize, bytecodeSize)\n  dup1\n  bytecodeSize\n  dup4\n  codecopy\n  dup2\n  add\n  0x40\n  dup2\n  swap1\n  mstore\n  tag_2\n  swap2\n  tag_3\n  jump\t// in\ntag_2:\n    /* \"@openzeppelin/contracts/access/Ownable.sol\":936:968  _transferOwnership(_msgSender()) */\n  tag_7\n    /* \"@openzeppelin/contracts/utils/Context.sol\":719:729  msg.sender */\n  caller\n    /* \"@openzeppelin/contracts/access/Ownable.sol\":936:954  _transferOwnership */\n  tag_10\n    /* \"@openzeppelin/contracts/access/Ownable.sol\":936:968  _transferOwnership(_msgSender()) */\n  jump\t// in\ntag_7:\n    /* \"contracts/poolManager.sol\":937:941  weth */\n  0x01\n    /* \"contracts/poolManager.sol\":937:949  weth = _weth */\n  dup1\n  sload\n  not(sub(shl(0xa0, 0x01), 0x01))\n  and\n  sub(shl(0xa0, 0x01), 0x01)\n  swap3\n  swap1\n  swap3\n  and\n  swap2\n  swap1\n  swap2\n  or\n  swap1\n  sstore\n    /* \"contracts/poolManager.sol\":979:981  50 */\n  0x32\n    /* \"contracts/poolManager.sol\":959:976  NORMAL_POOL_RATIO */\n  0x04\n    /* \"contracts/poolManager.sol\":959:981  NORMAL_POOL_RATIO = 50 */\n  dup2\n  swap1\n  sstore\n    /* \"contracts/poolManager.sol\":991:1011  EMERGENCY_POOL_RATIO */\n  0x05\n    /* \"contracts/poolManager.sol\":991:1016  EMERGENCY_POOL_RATIO = 50 */\n  sstore\n    /* \"contracts/poolManager.sol\":640:3662  contract poolManager is Ownable {... */\n  jump(tag_15)\n    /* \"@openzeppelin/contracts/access/Ownable.sol\":2433:2620  function _transferOwnership(address newOwner) internal virtual {... */\ntag_10:\n    /* \"@openzeppelin/contracts/access/Ownable.sol\":2506:2522  address oldOwner */\n  0x00\n    /* \"@openzeppelin/contracts/access/Ownable.sol\":2525:2531  _owner */\n  dup1\n  sload\n  sub(shl(0xa0, 0x01), 0x01)\n    /* \"@openzeppelin/contracts/access/Ownable.sol\":2541:2558  _owner = newOwner */\n  dup4\n  dup2\n  and\n  not(sub(shl(0xa0, 0x01), 0x01))\n  dup4\n  and\n  dup2\n  or\n  dup5\n  sstore\n    /* \"@openzeppelin/contracts/access/Ownable.sol\":2573:2613  OwnershipTransferred(oldOwner, newOwner) */\n  mload(0x40)\n    /* \"@openzeppelin/contracts/access/Ownable.sol\":2525:2531  _owner */\n  swap2\n  swap1\n  swap3\n  and\n  swap3\n  dup4\n  swap2\n    /* \"@openzeppelin/contracts/access/Ownable.sol\":2573:2613  OwnershipTransferred(oldOwner, newOwner) */\n  0x8be0079c531659141344cd1fd0a4f28419497f9722a3daafe3b4186f6b6457e0\n  swap2\n    /* \"@openzeppelin/contracts/access/Ownable.sol\":2506:2522  address oldOwner */\n  swap1\n    /* \"@openzeppelin/contracts/access/Ownable.sol\":2573:2613  OwnershipTransferred(oldOwner, newOwner) */\n  log3\n    /* \"@openzeppelin/contracts/access/Ownable.sol\":2496:2620  {... */\n  pop\n    /* \"@openzeppelin/contracts/access/Ownable.sol\":2433:2620  function _transferOwnership(address newOwner) internal virtual {... */\n  pop\n  jump\t// out\n    /* \"#utility.yul\":14:304   */\ntag_3:\n    /* \"#utility.yul\":84:90   */\n  0x00\n    /* \"#utility.yul\":137:139   */\n  0x20\n    /* \"#utility.yul\":125:134   */\n  dup3\n    /* \"#utility.yul\":116:123   */\n  dup5\n    /* \"#utility.yul\":112:135   */\n  sub\n    /* \"#utility.yul\":108:140   */\n  slt\n    /* \"#utility.yul\":105:157   */\n  iszero\n  tag_17\n  jumpi\n    /* \"#utility.yul\":153:154   */\n  0x00\n    /* \"#utility.yul\":150:151   */\n  dup1\n    /* \"#utility.yul\":143:155   */\n  revert\n    /* \"#utility.yul\":105:157   */\ntag_17:\n    /* \"#utility.yul\":179:195   */\n  dup2\n  mload\n  sub(shl(0xa0, 0x01), 0x01)\n    /* \"#utility.yul\":224:255   */\n  dup2\n  and\n    /* \"#utility.yul\":214:256   */\n  dup2\n  eq\n    /* \"#utility.yul\":204:274   */\n  tag_18\n  jumpi\n    /* \"#utility.yul\":270:271   */\n  0x00\n    /* \"#utility.yul\":267:268   */\n  dup1\n    /* \"#utility.yul\":260:272   */\n  revert\n    /* \"#utility.yul\":204:274   */\ntag_18:\n    /* \"#utility.yul\":293:298   */\n  swap4\n    /* \"#utility.yul\":14:304   */\n  swap3\n  pop\n  pop\n  pop\n  jump\t// out\ntag_15:\n    /* \"contracts/poolManager.sol\":640:3662  contract poolManager is Ownable {... */\n  mload(0x80)\n  codecopy(0x00, dataOffset(sub_0), dataSize(sub_0))\n  0x00\n  assignImmutable(\"0x32390289b9a3eb6d483890ed29640a229fc9f283fde028575907589e3fbdc24f\")\n  return(0x00, dataSize(sub_0))\nstop\n\nsub_0: assembly {\n        /* \"contracts/poolManager.sol\":640:3662  contract poolManager is Ownable {... */\n      mstore(0x40, 0x80)\n      callvalue\n      dup1\n      iszero\n      tag_1\n      jumpi\n      0x00\n      dup1\n      revert\n    tag_1:\n      pop\n      jumpi(tag_2, lt(calldatasize, 0x04))\n      shr(0xe0, calldataload(0x00))\n      dup1\n      0xa257db8e\n      gt\n      tag_28\n      jumpi\n      dup1\n      0xd872d6cb\n      gt\n      tag_29\n      jumpi\n      dup1\n      0xea1502fb\n      gt\n      tag_30\n      jumpi\n      dup1\n      0xea1502fb\n      eq\n      tag_24\n      jumpi\n      dup1\n      0xef4bf8d9\n      eq\n      tag_25\n      jumpi\n      dup1\n      0xf09a4016\n      eq\n      tag_26\n      jumpi\n      dup1\n      0xf2fde38b\n      eq\n      tag_27\n      jumpi\n      0x00\n      dup1\n      revert\n    tag_30:\n      dup1\n      0xd872d6cb\n      eq\n      tag_21\n      jumpi\n      dup1\n      0xe18c7bc1\n      eq\n      tag_22\n      jumpi\n      dup1\n      0xe3cae000\n      eq\n      tag_23\n      jumpi\n      0x00\n      dup1\n      revert\n    tag_29:\n      dup1\n      0xa257db8e\n      eq\n      tag_15\n      jumpi\n      dup1\n      0xa59b3645\n      eq\n      tag_16\n      jumpi\n      dup1\n      0xaa76bb71\n      eq\n      tag_17\n      jumpi\n      dup1\n      0xb83282da\n      eq\n      tag_18\n      jumpi\n      dup1\n      0xc5b71eb6\n      eq\n      tag_19\n      jumpi\n      dup1\n      0xcce69231\n      eq\n      tag_20\n      jumpi\n      0x00\n      dup1\n      revert\n    tag_28:\n      dup1\n      0x5d1b4083\n      gt\n      tag_31\n      jumpi\n      dup1\n      0x5d1b4083\n      eq\n      tag_9\n      jumpi\n      dup1\n      0x6a7c143e\n      eq\n      tag_10\n      jumpi\n      dup1\n      0x6f9fb98a\n      eq\n      tag_11\n      jumpi\n      dup1\n      0x715018a6\n      eq\n      tag_12\n      jumpi\n      dup1\n      0x8da5cb5b\n      eq\n      tag_13\n      jumpi\n      dup1\n      0x960d49b9\n      eq\n      tag_14\n      jumpi\n      0x00\n      dup1\n      revert\n    tag_31:\n      dup1\n      0x12d7205f\n      eq\n      tag_3\n      jumpi\n      dup1\n      0x208bf176\n      eq\n      tag_4\n      jumpi\n      dup1\n      0x293be456\n      eq\n      tag_5\n      jumpi\n      dup1\n      0x2bd3a019\n      eq\n      tag_6\n      jumpi\n      dup1\n      0x3fc8cef3\n      eq\n      tag_7\n      jumpi\n      dup1\n      0x435aca6f\n      eq\n      tag_8\n      jumpi\n    tag_2:\n      0x00\n      dup1\n      revert\n        /* \"contracts/poolManager.sol\":703:728  address public normalPool */\n    tag_3:\n      sload(0x02)\n      tag_32\n      swap1\n      sub(shl(0xa0, 0x01), 0x01)\n      and\n      dup2\n      jump\n    tag_32:\n      mload(0x40)\n      sub(shl(0xa0, 0x01), 0x01)\n        /* \"#utility.yul\":178:210   */\n      swap1\n      swap2\n      and\n        /* \"#utility.yul\":160:211   */\n      dup2\n      mstore\n        /* \"#utility.yul\":148:150   */\n      0x20\n        /* \"#utility.yul\":133:151   */\n      add\n        /* \"contracts/poolManager.sol\":703:728  address public normalPool */\n    tag_34:\n      mload(0x40)\n      dup1\n      swap2\n      sub\n      swap1\n      return\n        /* \"contracts/poolManager.sol\":2054:2530  function fundAllocation() public onlyOwner {... */\n    tag_4:\n      tag_36\n      tag_37\n      jump\t// in\n    tag_36:\n      stop\n        /* \"contracts/poolManager.sol\":2796:2903  function setReward(uint256 _ratio) public onlyOwner {... */\n    tag_5:\n      tag_36\n      tag_39\n      calldatasize\n      0x04\n      tag_40\n      jump\t// in\n    tag_39:\n      tag_41\n      jump\t// in\n        /* \"contracts/poolManager.sol\":3414:3537  function _setTimeFrequency(uint256 _time) public onlyOwner {... */\n    tag_6:\n      tag_36\n      tag_43\n      calldatasize\n      0x04\n      tag_40\n      jump\t// in\n    tag_43:\n      tag_44\n      jump\t// in\n        /* \"contracts/poolManager.sol\":678:697  address public weth */\n    tag_7:\n      sload(0x01)\n      tag_32\n      swap1\n      sub(shl(0xa0, 0x01), 0x01)\n      and\n      dup2\n      jump\n        /* \"contracts/poolManager.sol\":3179:3292  function _setQuota(uint256 _amount) public onlyOwner {... */\n    tag_8:\n      tag_36\n      tag_49\n      calldatasize\n      0x04\n      tag_40\n      jump\t// in\n    tag_49:\n      tag_50\n      jump\t// in\n        /* \"contracts/poolManager.sol\":1602:1708  function setNORMAL_POOL_RATIO(uint256 _ratio) public onlyOwner {... */\n    tag_9:\n      tag_36\n      tag_52\n      calldatasize\n      0x04\n      tag_40\n      jump\t// in\n    tag_52:\n      tag_53\n      jump\t// in\n        /* \"contracts/poolManager.sol\":852:887  uint256 public EMERGENCY_POOL_RATIO */\n    tag_10:\n      tag_54\n      sload(0x05)\n      dup2\n      jump\n    tag_54:\n      mload(0x40)\n        /* \"#utility.yul\":553:578   */\n      swap1\n      dup2\n      mstore\n        /* \"#utility.yul\":541:543   */\n      0x20\n        /* \"#utility.yul\":526:544   */\n      add\n        /* \"contracts/poolManager.sol\":852:887  uint256 public EMERGENCY_POOL_RATIO */\n      tag_34\n        /* \"#utility.yul\":407:584   */\n      jump\n        /* \"contracts/poolManager.sol\":2535:2655  function getContractBalance() public view returns(uint256) {... */\n    tag_11:\n      tag_54\n      tag_59\n      jump\t// in\n        /* \"@openzeppelin/contracts/access/Ownable.sol\":1831:1932  function renounceOwnership() public virtual onlyOwner {... */\n    tag_12:\n      tag_36\n      tag_62\n      jump\t// in\n        /* \"@openzeppelin/contracts/access/Ownable.sol\":1201:1286  function owner() public view virtual returns (address) {... */\n    tag_13:\n        /* \"@openzeppelin/contracts/access/Ownable.sol\":1247:1254  address */\n      0x00\n        /* \"@openzeppelin/contracts/access/Ownable.sol\":1273:1279  _owner */\n      sload\n      sub(shl(0xa0, 0x01), 0x01)\n      and\n        /* \"@openzeppelin/contracts/access/Ownable.sol\":1201:1286  function owner() public view virtual returns (address) {... */\n      jump(tag_32)\n        /* \"contracts/poolManager.sol\":814:846  uint256 public NORMAL_POOL_RATIO */\n    tag_14:\n      tag_54\n      sload(0x04)\n      dup2\n      jump\n        /* \"contracts/poolManager.sol\":2682:2791  function setQuota(uint256 _amount) public onlyOwner {... */\n    tag_15:\n      tag_36\n      tag_70\n      calldatasize\n      0x04\n      tag_40\n      jump\t// in\n    tag_70:\n      tag_71\n      jump\t// in\n        /* \"contracts/poolManager.sol\":734:762  address public emergencyPool */\n    tag_16:\n      sload(0x03)\n      tag_32\n      swap1\n      sub(shl(0xa0, 0x01), 0x01)\n      and\n      dup2\n      jump\n        /* \"contracts/poolManager.sol\":3297:3408  function _setReward(uint256 _ratio) public onlyOwner {... */\n    tag_17:\n      tag_36\n      tag_76\n      calldatasize\n      0x04\n      tag_40\n      jump\t// in\n    tag_76:\n      tag_77\n      jump\t// in\n        /* \"contracts/poolManager.sol\":768:808  uint256 immutable public FEE_RATIO = 100 */\n    tag_18:\n      tag_54\n      immutable(\"0x32390289b9a3eb6d483890ed29640a229fc9f283fde028575907589e3fbdc24f\")\n      dup2\n      jump\n        /* \"contracts/poolManager.sol\":1830:2049  function _setUniswapV2Router(IUniswapV2Router02 _uniswapV2Router) public onlyOwner {... */\n    tag_19:\n      tag_36\n      tag_82\n      calldatasize\n      0x04\n      tag_83\n      jump\t// in\n    tag_82:\n      tag_84\n      jump\t// in\n        /* \"contracts/poolManager.sol\":2909:3028  function setTimeFrequency(uint256 _time) public onlyOwner {... */\n    tag_20:\n      tag_36\n      tag_86\n      calldatasize\n      0x04\n      tag_40\n      jump\t// in\n    tag_86:\n      tag_87\n      jump\t// in\n        /* \"contracts/poolManager.sol\":3033:3147  function setAddressFrequency(uint256 _time) public onlyOwner {... */\n    tag_21:\n      tag_36\n      tag_89\n      calldatasize\n      0x04\n      tag_40\n      jump\t// in\n    tag_89:\n      tag_90\n      jump\t// in\n        /* \"contracts/poolManager.sol\":1413:1597  function _setReputationAmount(uint256 _amount) public onlyOwner {... */\n    tag_22:\n      tag_36\n      tag_92\n      calldatasize\n      0x04\n      tag_40\n      jump\t// in\n    tag_92:\n      tag_93\n      jump\t// in\n        /* \"contracts/poolManager.sol\":1283:1408  function _setStatus() public onlyOwner {... */\n    tag_23:\n      tag_36\n      tag_95\n      jump\t// in\n        /* \"contracts/poolManager.sol\":1713:1825  function setEMERGENCY_POOL_RATIO(uint256 _ratio) public onlyOwner {... */\n    tag_24:\n      tag_36\n      tag_97\n      calldatasize\n      0x04\n      tag_40\n      jump\t// in\n    tag_97:\n      tag_98\n      jump\t// in\n        /* \"contracts/poolManager.sol\":3542:3660  function _setAddressFrequency(uint256 _time) public onlyOwner {... */\n    tag_25:\n      tag_36\n      tag_100\n      calldatasize\n      0x04\n      tag_40\n      jump\t// in\n    tag_100:\n      tag_101\n      jump\t// in\n        /* \"contracts/poolManager.sol\":1028:1278  function init(address _normalPool, address _emergencyPool) public onlyOwner {... */\n    tag_26:\n      tag_36\n      tag_103\n      calldatasize\n      0x04\n      tag_104\n      jump\t// in\n    tag_103:\n      tag_105\n      jump\t// in\n        /* \"@openzeppelin/contracts/access/Ownable.sol\":2081:2279  function transferOwnership(address newOwner) public virtual onlyOwner {... */\n    tag_27:\n      tag_36\n      tag_107\n      calldatasize\n      0x04\n      tag_83\n      jump\t// in\n    tag_107:\n      tag_109\n      jump\t// in\n        /* \"contracts/poolManager.sol\":2054:2530  function fundAllocation() public onlyOwner {... */\n    tag_37:\n        /* \"@openzeppelin/contracts/access/Ownable.sol\":1094:1107  _checkOwner() */\n      tag_111\n        /* \"@openzeppelin/contracts/access/Ownable.sol\":1094:1105  _checkOwner */\n      tag_112\n        /* \"@openzeppelin/contracts/access/Ownable.sol\":1094:1107  _checkOwner() */\n      jump\t// in\n    tag_111:\n        /* \"contracts/poolManager.sol\":2135:2155  EMERGENCY_POOL_RATIO */\n      sload(0x05)\n        /* \"contracts/poolManager.sol\":2115:2132  NORMAL_POOL_RATIO */\n      sload(0x04)\n        /* \"contracts/poolManager.sol\":2115:2155  NORMAL_POOL_RATIO + EMERGENCY_POOL_RATIO */\n      tag_114\n      swap2\n      swap1\n      tag_115\n      jump\t// in\n    tag_114:\n        /* \"contracts/poolManager.sol\":2159:2162  100 */\n      0x64\n        /* \"contracts/poolManager.sol\":2115:2162  NORMAL_POOL_RATIO + EMERGENCY_POOL_RATIO == 100 */\n      eq\n        /* \"contracts/poolManager.sol\":2107:2193  require(NORMAL_POOL_RATIO + EMERGENCY_POOL_RATIO == 100, \"allocation ration is error\") */\n      tag_116\n      jumpi\n      mload(0x40)\n      shl(0xe5, 0x461bcd)\n      dup2\n      mstore\n        /* \"#utility.yul\":2212:2214   */\n      0x20\n        /* \"contracts/poolManager.sol\":2107:2193  require(NORMAL_POOL_RATIO + EMERGENCY_POOL_RATIO == 100, \"allocation ration is error\") */\n      0x04\n      dup3\n      add\n        /* \"#utility.yul\":2194:2215   */\n      mstore\n        /* \"#utility.yul\":2251:2253   */\n      0x1a\n        /* \"#utility.yul\":2231:2249   */\n      0x24\n      dup3\n      add\n        /* \"#utility.yul\":2224:2254   */\n      mstore\n        /* \"#utility.yul\":2290:2318   */\n      0x616c6c6f636174696f6e20726174696f6e206973206572726f72000000000000\n        /* \"#utility.yul\":2270:2288   */\n      0x44\n      dup3\n      add\n        /* \"#utility.yul\":2263:2319   */\n      mstore\n        /* \"#utility.yul\":2336:2354   */\n      0x64\n      add\n        /* \"contracts/poolManager.sol\":2107:2193  require(NORMAL_POOL_RATIO + EMERGENCY_POOL_RATIO == 100, \"allocation ration is error\") */\n    tag_117:\n      mload(0x40)\n      dup1\n      swap2\n      sub\n      swap1\n      revert\n    tag_116:\n        /* \"contracts/poolManager.sol\":2234:2235  0 */\n      0x00\n        /* \"contracts/poolManager.sol\":2211:2231  getContractBalance() */\n      tag_119\n        /* \"contracts/poolManager.sol\":2211:2229  getContractBalance */\n      tag_59\n        /* \"contracts/poolManager.sol\":2211:2231  getContractBalance() */\n      jump\t// in\n    tag_119:\n        /* \"contracts/poolManager.sol\":2211:2235  getContractBalance() > 0 */\n      gt\n        /* \"contracts/poolManager.sol\":2203:2266  require(getContractBalance() > 0 , \"contract balance is error\") */\n      tag_120\n      jumpi\n      mload(0x40)\n      shl(0xe5, 0x461bcd)\n      dup2\n      mstore\n        /* \"#utility.yul\":2567:2569   */\n      0x20\n        /* \"contracts/poolManager.sol\":2203:2266  require(getContractBalance() > 0 , \"contract balance is error\") */\n      0x04\n      dup3\n      add\n        /* \"#utility.yul\":2549:2570   */\n      mstore\n        /* \"#utility.yul\":2606:2608   */\n      0x19\n        /* \"#utility.yul\":2586:2604   */\n      0x24\n      dup3\n      add\n        /* \"#utility.yul\":2579:2609   */\n      mstore\n        /* \"#utility.yul\":2645:2672   */\n      0x636f6e74726163742062616c616e6365206973206572726f7200000000000000\n        /* \"#utility.yul\":2625:2643   */\n      0x44\n      dup3\n      add\n        /* \"#utility.yul\":2618:2673   */\n      mstore\n        /* \"#utility.yul\":2690:2708   */\n      0x64\n      add\n        /* \"contracts/poolManager.sol\":2203:2266  require(getContractBalance() > 0 , \"contract balance is error\") */\n      tag_117\n        /* \"#utility.yul\":2365:2714   */\n      jump\n        /* \"contracts/poolManager.sol\":2203:2266  require(getContractBalance() > 0 , \"contract balance is error\") */\n    tag_120:\n        /* \"contracts/poolManager.sol\":2276:2294  uint256 wethAmount */\n      0x00\n        /* \"contracts/poolManager.sol\":2298:2318  getContractBalance() */\n      tag_123\n        /* \"contracts/poolManager.sol\":2298:2316  getContractBalance */\n      tag_59\n        /* \"contracts/poolManager.sol\":2298:2318  getContractBalance() */\n      jump\t// in\n    tag_123:\n        /* \"contracts/poolManager.sol\":2356:2360  weth */\n      sload(0x01)\n        /* \"contracts/poolManager.sol\":2362:2372  normalPool */\n      sload(0x02)\n        /* \"contracts/poolManager.sol\":2387:2404  NORMAL_POOL_RATIO */\n      sload(0x04)\n        /* \"contracts/poolManager.sol\":2276:2318  uint256 wethAmount  = getContractBalance() */\n      swap3\n      swap4\n      pop\n        /* \"contracts/poolManager.sol\":2328:2417  TransferHelper.safeTransfer(weth, normalPool, wethAmount * NORMAL_POOL_RATIO / FEE_RATIO) */\n      tag_124\n      swap3\n      sub(shl(0xa0, 0x01), 0x01)\n        /* \"contracts/poolManager.sol\":2356:2360  weth */\n      swap3\n      dup4\n      and\n      swap3\n        /* \"contracts/poolManager.sol\":2362:2372  normalPool */\n      swap1\n      swap2\n      and\n      swap1\n        /* \"contracts/poolManager.sol\":2407:2416  FEE_RATIO */\n      immutable(\"0x32390289b9a3eb6d483890ed29640a229fc9f283fde028575907589e3fbdc24f\")\n      swap1\n        /* \"contracts/poolManager.sol\":2374:2404  wethAmount * NORMAL_POOL_RATIO */\n      tag_125\n      swap1\n        /* \"contracts/poolManager.sol\":2276:2318  uint256 wethAmount  = getContractBalance() */\n      dup7\n        /* \"contracts/poolManager.sol\":2374:2404  wethAmount * NORMAL_POOL_RATIO */\n      tag_126\n      jump\t// in\n    tag_125:\n        /* \"contracts/poolManager.sol\":2374:2416  wethAmount * NORMAL_POOL_RATIO / FEE_RATIO */\n      tag_127\n      swap2\n      swap1\n      tag_128\n      jump\t// in\n    tag_127:\n        /* \"contracts/poolManager.sol\":2328:2355  TransferHelper.safeTransfer */\n      tag_129\n        /* \"contracts/poolManager.sol\":2328:2417  TransferHelper.safeTransfer(weth, normalPool, wethAmount * NORMAL_POOL_RATIO / FEE_RATIO) */\n      jump\t// in\n    tag_124:\n        /* \"contracts/poolManager.sol\":2455:2459  weth */\n      sload(0x01)\n        /* \"contracts/poolManager.sol\":2461:2474  emergencyPool */\n      sload(0x03)\n        /* \"contracts/poolManager.sol\":2489:2509  EMERGENCY_POOL_RATIO */\n      sload(0x05)\n        /* \"contracts/poolManager.sol\":2427:2522  TransferHelper.safeTransfer(weth, emergencyPool, wethAmount * EMERGENCY_POOL_RATIO / FEE_RATIO) */\n      tag_130\n      swap3\n      sub(shl(0xa0, 0x01), 0x01)\n        /* \"contracts/poolManager.sol\":2455:2459  weth */\n      swap1\n      dup2\n      and\n      swap3\n        /* \"contracts/poolManager.sol\":2461:2474  emergencyPool */\n      and\n      swap1\n        /* \"contracts/poolManager.sol\":2512:2521  FEE_RATIO */\n      immutable(\"0x32390289b9a3eb6d483890ed29640a229fc9f283fde028575907589e3fbdc24f\")\n      swap1\n        /* \"contracts/poolManager.sol\":2476:2509  wethAmount * EMERGENCY_POOL_RATIO */\n      tag_125\n      swap1\n        /* \"contracts/poolManager.sol\":2476:2486  wethAmount */\n      dup7\n        /* \"contracts/poolManager.sol\":2476:2509  wethAmount * EMERGENCY_POOL_RATIO */\n      tag_126\n      jump\t// in\n        /* \"contracts/poolManager.sol\":2427:2522  TransferHelper.safeTransfer(weth, emergencyPool, wethAmount * EMERGENCY_POOL_RATIO / FEE_RATIO) */\n    tag_130:\n        /* \"contracts/poolManager.sol\":2097:2530  {... */\n      pop\n        /* \"contracts/poolManager.sol\":2054:2530  function fundAllocation() public onlyOwner {... */\n      jump\t// out\n        /* \"contracts/poolManager.sol\":2796:2903  function setReward(uint256 _ratio) public onlyOwner {... */\n    tag_41:\n        /* \"@openzeppelin/contracts/access/Ownable.sol\":1094:1107  _checkOwner() */\n      tag_134\n        /* \"@openzeppelin/contracts/access/Ownable.sol\":1094:1105  _checkOwner */\n      tag_112\n        /* \"@openzeppelin/contracts/access/Ownable.sol\":1094:1107  _checkOwner() */\n      jump\t// in\n    tag_134:\n        /* \"contracts/poolManager.sol\":2863:2873  normalPool */\n      sload(0x02)\n        /* \"contracts/poolManager.sol\":2858:2896  Pool(normalPool).setAwardRatio(_ratio) */\n      mload(0x40)\n      shl(0xe0, 0xe5ad5523)\n      dup2\n      mstore\n      0x04\n      dup2\n      add\n        /* \"#utility.yul\":553:578   */\n      dup4\n      swap1\n      mstore\n      sub(shl(0xa0, 0x01), 0x01)\n        /* \"contracts/poolManager.sol\":2863:2873  normalPool */\n      swap1\n      swap2\n      and\n      swap1\n        /* \"contracts/poolManager.sol\":2858:2888  Pool(normalPool).setAwardRatio */\n      0xe5ad5523\n      swap1\n        /* \"#utility.yul\":526:544   */\n      0x24\n      add\n        /* \"contracts/poolManager.sol\":2858:2896  Pool(normalPool).setAwardRatio(_ratio) */\n    tag_136:\n      0x00\n      mload(0x40)\n      dup1\n      dup4\n      sub\n      dup2\n      0x00\n      dup8\n      dup1\n      extcodesize\n      iszero\n      dup1\n      iszero\n      tag_137\n      jumpi\n      0x00\n      dup1\n      revert\n    tag_137:\n      pop\n      gas\n      call\n      iszero\n      dup1\n      iszero\n      tag_139\n      jumpi\n      returndatasize\n      0x00\n      dup1\n      returndatacopy\n      revert(0x00, returndatasize)\n    tag_139:\n      pop\n      pop\n      pop\n      pop\n        /* \"contracts/poolManager.sol\":2796:2903  function setReward(uint256 _ratio) public onlyOwner {... */\n      pop\n      jump\t// out\n        /* \"contracts/poolManager.sol\":3414:3537  function _setTimeFrequency(uint256 _time) public onlyOwner {... */\n    tag_44:\n        /* \"@openzeppelin/contracts/access/Ownable.sol\":1094:1107  _checkOwner() */\n      tag_141\n        /* \"@openzeppelin/contracts/access/Ownable.sol\":1094:1105  _checkOwner */\n      tag_112\n        /* \"@openzeppelin/contracts/access/Ownable.sol\":1094:1107  _checkOwner() */\n      jump\t// in\n    tag_141:\n        /* \"contracts/poolManager.sol\":3488:3501  emergencyPool */\n      sload(0x03)\n        /* \"contracts/poolManager.sol\":3483:3530  Pool(emergencyPool).setContractIntervals(_time) */\n      mload(0x40)\n      shl(0xe0, 0x42e21959)\n      dup2\n      mstore\n      0x04\n      dup2\n      add\n        /* \"#utility.yul\":553:578   */\n      dup4\n      swap1\n      mstore\n      sub(shl(0xa0, 0x01), 0x01)\n        /* \"contracts/poolManager.sol\":3488:3501  emergencyPool */\n      swap1\n      swap2\n      and\n      swap1\n        /* \"contracts/poolManager.sol\":3483:3523  Pool(emergencyPool).setContractIntervals */\n      0x42e21959\n      swap1\n        /* \"#utility.yul\":526:544   */\n      0x24\n      add\n        /* \"contracts/poolManager.sol\":3483:3530  Pool(emergencyPool).setContractIntervals(_time) */\n      tag_136\n        /* \"#utility.yul\":407:584   */\n      jump\n        /* \"contracts/poolManager.sol\":3179:3292  function _setQuota(uint256 _amount) public onlyOwner {... */\n    tag_50:\n        /* \"@openzeppelin/contracts/access/Ownable.sol\":1094:1107  _checkOwner() */\n      tag_148\n        /* \"@openzeppelin/contracts/access/Ownable.sol\":1094:1105  _checkOwner */\n      tag_112\n        /* \"@openzeppelin/contracts/access/Ownable.sol\":1094:1107  _checkOwner() */\n      jump\t// in\n    tag_148:\n        /* \"contracts/poolManager.sol\":3247:3260  emergencyPool */\n      sload(0x03)\n        /* \"contracts/poolManager.sol\":3242:3285  Pool(emergencyPool).setTokenAmount(_amount) */\n      mload(0x40)\n      shl(0xe0, 0x0749469f)\n      dup2\n      mstore\n      0x04\n      dup2\n      add\n        /* \"#utility.yul\":553:578   */\n      dup4\n      swap1\n      mstore\n      sub(shl(0xa0, 0x01), 0x01)\n        /* \"contracts/poolManager.sol\":3247:3260  emergencyPool */\n      swap1\n      swap2\n      and\n      swap1\n        /* \"contracts/poolManager.sol\":3242:3276  Pool(emergencyPool).setTokenAmount */\n      0x0749469f\n      swap1\n        /* \"#utility.yul\":526:544   */\n      0x24\n      add\n        /* \"contracts/poolManager.sol\":3242:3285  Pool(emergencyPool).setTokenAmount(_amount) */\n      tag_136\n        /* \"#utility.yul\":407:584   */\n      jump\n        /* \"contracts/poolManager.sol\":1602:1708  function setNORMAL_POOL_RATIO(uint256 _ratio) public onlyOwner {... */\n    tag_53:\n        /* \"@openzeppelin/contracts/access/Ownable.sol\":1094:1107  _checkOwner() */\n      tag_155\n        /* \"@openzeppelin/contracts/access/Ownable.sol\":1094:1105  _checkOwner */\n      tag_112\n        /* \"@openzeppelin/contracts/access/Ownable.sol\":1094:1107  _checkOwner() */\n      jump\t// in\n    tag_155:\n        /* \"contracts/poolManager.sol\":1675:1692  NORMAL_POOL_RATIO */\n      0x04\n        /* \"contracts/poolManager.sol\":1675:1701  NORMAL_POOL_RATIO = _ratio */\n      sstore\n        /* \"contracts/poolManager.sol\":1602:1708  function setNORMAL_POOL_RATIO(uint256 _ratio) public onlyOwner {... */\n      jump\t// out\n        /* \"contracts/poolManager.sol\":2535:2655  function getContractBalance() public view returns(uint256) {... */\n    tag_59:\n        /* \"contracts/poolManager.sol\":2618:2622  weth */\n      sload(0x01)\n        /* \"contracts/poolManager.sol\":2611:2648  IERC20(weth).balanceOf(address(this)) */\n      mload(0x40)\n      shl(0xe0, 0x70a08231)\n      dup2\n      mstore\n        /* \"contracts/poolManager.sol\":2642:2646  this */\n      address\n        /* \"contracts/poolManager.sol\":2611:2648  IERC20(weth).balanceOf(address(this)) */\n      0x04\n      dup3\n      add\n        /* \"#utility.yul\":160:211   */\n      mstore\n        /* \"contracts/poolManager.sol\":2585:2592  uint256 */\n      0x00\n      swap2\n      sub(shl(0xa0, 0x01), 0x01)\n        /* \"contracts/poolManager.sol\":2618:2622  weth */\n      and\n      swap1\n        /* \"contracts/poolManager.sol\":2611:2633  IERC20(weth).balanceOf */\n      0x70a08231\n      swap1\n        /* \"#utility.yul\":133:151   */\n      0x24\n      add\n        /* \"contracts/poolManager.sol\":2611:2648  IERC20(weth).balanceOf(address(this)) */\n      0x20\n      mload(0x40)\n      dup1\n      dup4\n      sub\n      dup2\n      dup7\n      gas\n      staticcall\n      iszero\n      dup1\n      iszero\n      tag_160\n      jumpi\n      returndatasize\n      0x00\n      dup1\n      returndatacopy\n      revert(0x00, returndatasize)\n    tag_160:\n      pop\n      pop\n      pop\n      pop\n      mload(0x40)\n      returndatasize\n      not(0x1f)\n      0x1f\n      dup3\n      add\n      and\n      dup3\n      add\n      dup1\n      0x40\n      mstore\n      pop\n      dup2\n      add\n      swap1\n      tag_161\n      swap2\n      swap1\n      tag_162\n      jump\t// in\n    tag_161:\n        /* \"contracts/poolManager.sol\":2604:2648  return IERC20(weth).balanceOf(address(this)) */\n      swap1\n      pop\n        /* \"contracts/poolManager.sol\":2535:2655  function getContractBalance() public view returns(uint256) {... */\n      swap1\n      jump\t// out\n        /* \"@openzeppelin/contracts/access/Ownable.sol\":1831:1932  function renounceOwnership() public virtual onlyOwner {... */\n    tag_62:\n        /* \"@openzeppelin/contracts/access/Ownable.sol\":1094:1107  _checkOwner() */\n      tag_164\n        /* \"@openzeppelin/contracts/access/Ownable.sol\":1094:1105  _checkOwner */\n      tag_112\n        /* \"@openzeppelin/contracts/access/Ownable.sol\":1094:1107  _checkOwner() */\n      jump\t// in\n    tag_164:\n        /* \"@openzeppelin/contracts/access/Ownable.sol\":1895:1925  _transferOwnership(address(0)) */\n      tag_166\n        /* \"@openzeppelin/contracts/access/Ownable.sol\":1922:1923  0 */\n      0x00\n        /* \"@openzeppelin/contracts/access/Ownable.sol\":1895:1913  _transferOwnership */\n      tag_167\n        /* \"@openzeppelin/contracts/access/Ownable.sol\":1895:1925  _transferOwnership(address(0)) */\n      jump\t// in\n    tag_166:\n        /* \"@openzeppelin/contracts/access/Ownable.sol\":1831:1932  function renounceOwnership() public virtual onlyOwner {... */\n      jump\t// out\n        /* \"contracts/poolManager.sol\":2682:2791  function setQuota(uint256 _amount) public onlyOwner {... */\n    tag_71:\n        /* \"@openzeppelin/contracts/access/Ownable.sol\":1094:1107  _checkOwner() */\n      tag_170\n        /* \"@openzeppelin/contracts/access/Ownable.sol\":1094:1105  _checkOwner */\n      tag_112\n        /* \"@openzeppelin/contracts/access/Ownable.sol\":1094:1107  _checkOwner() */\n      jump\t// in\n    tag_170:\n        /* \"contracts/poolManager.sol\":2749:2759  normalPool */\n      sload(0x02)\n        /* \"contracts/poolManager.sol\":2744:2784  Pool(normalPool).setTokenAmount(_amount) */\n      mload(0x40)\n      shl(0xe0, 0x0749469f)\n      dup2\n      mstore\n      0x04\n      dup2\n      add\n        /* \"#utility.yul\":553:578   */\n      dup4\n      swap1\n      mstore\n      sub(shl(0xa0, 0x01), 0x01)\n        /* \"contracts/poolManager.sol\":2749:2759  normalPool */\n      swap1\n      swap2\n      and\n      swap1\n        /* \"contracts/poolManager.sol\":2744:2775  Pool(normalPool).setTokenAmount */\n      0x0749469f\n      swap1\n        /* \"#utility.yul\":526:544   */\n      0x24\n      add\n        /* \"contracts/poolManager.sol\":2744:2784  Pool(normalPool).setTokenAmount(_amount) */\n      tag_136\n        /* \"#utility.yul\":407:584   */\n      jump\n        /* \"contracts/poolManager.sol\":3297:3408  function _setReward(uint256 _ratio) public onlyOwner {... */\n    tag_77:\n        /* \"@openzeppelin/contracts/access/Ownable.sol\":1094:1107  _checkOwner() */\n      tag_177\n        /* \"@openzeppelin/contracts/access/Ownable.sol\":1094:1105  _checkOwner */\n      tag_112\n        /* \"@openzeppelin/contracts/access/Ownable.sol\":1094:1107  _checkOwner() */\n      jump\t// in\n    tag_177:\n        /* \"contracts/poolManager.sol\":3365:3378  emergencyPool */\n      sload(0x03)\n        /* \"contracts/poolManager.sol\":3360:3401  Pool(emergencyPool).setAwardRatio(_ratio) */\n      mload(0x40)\n      shl(0xe0, 0xe5ad5523)\n      dup2\n      mstore\n      0x04\n      dup2\n      add\n        /* \"#utility.yul\":553:578   */\n      dup4\n      swap1\n      mstore\n      sub(shl(0xa0, 0x01), 0x01)\n        /* \"contracts/poolManager.sol\":3365:3378  emergencyPool */\n      swap1\n      swap2\n      and\n      swap1\n        /* \"contracts/poolManager.sol\":3360:3393  Pool(emergencyPool).setAwardRatio */\n      0xe5ad5523\n      swap1\n        /* \"#utility.yul\":526:544   */\n      0x24\n      add\n        /* \"contracts/poolManager.sol\":3360:3401  Pool(emergencyPool).setAwardRatio(_ratio) */\n      tag_136\n        /* \"#utility.yul\":407:584   */\n      jump\n        /* \"contracts/poolManager.sol\":1830:2049  function _setUniswapV2Router(IUniswapV2Router02 _uniswapV2Router) public onlyOwner {... */\n    tag_84:\n        /* \"@openzeppelin/contracts/access/Ownable.sol\":1094:1107  _checkOwner() */\n      tag_184\n        /* \"@openzeppelin/contracts/access/Ownable.sol\":1094:1105  _checkOwner */\n      tag_112\n        /* \"@openzeppelin/contracts/access/Ownable.sol\":1094:1107  _checkOwner() */\n      jump\t// in\n    tag_184:\n        /* \"contracts/poolManager.sol\":1928:1938  normalPool */\n      sload(0x02)\n        /* \"contracts/poolManager.sol\":1923:1976  Pool(normalPool).setUniswapV2Router(_uniswapV2Router) */\n      mload(0x40)\n      shl(0xe0, 0x1419841d)\n      dup2\n      mstore\n      sub(shl(0xa0, 0x01), 0x01)\n        /* \"#utility.yul\":178:210   */\n      dup4\n      dup2\n      and\n        /* \"contracts/poolManager.sol\":1923:1976  Pool(normalPool).setUniswapV2Router(_uniswapV2Router) */\n      0x04\n      dup4\n      add\n        /* \"#utility.yul\":160:211   */\n      mstore\n        /* \"contracts/poolManager.sol\":1928:1938  normalPool */\n      swap1\n      swap2\n      and\n      swap1\n        /* \"contracts/poolManager.sol\":1923:1958  Pool(normalPool).setUniswapV2Router */\n      0x1419841d\n      swap1\n        /* \"#utility.yul\":133:151   */\n      0x24\n      add\n        /* \"contracts/poolManager.sol\":1923:1976  Pool(normalPool).setUniswapV2Router(_uniswapV2Router) */\n      0x00\n      mload(0x40)\n      dup1\n      dup4\n      sub\n      dup2\n      0x00\n      dup8\n      dup1\n      extcodesize\n      iszero\n      dup1\n      iszero\n      tag_188\n      jumpi\n      0x00\n      dup1\n      revert\n    tag_188:\n      pop\n      gas\n      call\n      iszero\n      dup1\n      iszero\n      tag_190\n      jumpi\n      returndatasize\n      0x00\n      dup1\n      returndatacopy\n      revert(0x00, returndatasize)\n    tag_190:\n      pop\n      pop\n        /* \"contracts/poolManager.sol\":1991:2004  emergencyPool */\n      sload(0x03)\n        /* \"contracts/poolManager.sol\":1986:2042  Pool(emergencyPool).setUniswapV2Router(_uniswapV2Router) */\n      mload(0x40)\n      shl(0xe0, 0x1419841d)\n      dup2\n      mstore\n      sub(shl(0xa0, 0x01), 0x01)\n        /* \"#utility.yul\":178:210   */\n      dup6\n      dup2\n      and\n        /* \"contracts/poolManager.sol\":1986:2042  Pool(emergencyPool).setUniswapV2Router(_uniswapV2Router) */\n      0x04\n      dup4\n      add\n        /* \"#utility.yul\":160:211   */\n      mstore\n        /* \"contracts/poolManager.sol\":1991:2004  emergencyPool */\n      swap1\n      swap2\n      and\n      swap3\n      pop\n        /* \"contracts/poolManager.sol\":1986:2024  Pool(emergencyPool).setUniswapV2Router */\n      0x1419841d\n      swap2\n      pop\n        /* \"#utility.yul\":133:151   */\n      0x24\n      add\n        /* \"contracts/poolManager.sol\":1986:2042  Pool(emergencyPool).setUniswapV2Router(_uniswapV2Router) */\n      tag_136\n        /* \"#utility.yul\":14:217   */\n      jump\n        /* \"contracts/poolManager.sol\":2909:3028  function setTimeFrequency(uint256 _time) public onlyOwner {... */\n    tag_87:\n        /* \"@openzeppelin/contracts/access/Ownable.sol\":1094:1107  _checkOwner() */\n      tag_196\n        /* \"@openzeppelin/contracts/access/Ownable.sol\":1094:1105  _checkOwner */\n      tag_112\n        /* \"@openzeppelin/contracts/access/Ownable.sol\":1094:1107  _checkOwner() */\n      jump\t// in\n    tag_196:\n        /* \"contracts/poolManager.sol\":2982:2992  normalPool */\n      sload(0x02)\n        /* \"contracts/poolManager.sol\":2977:3021  Pool(normalPool).setContractIntervals(_time) */\n      mload(0x40)\n      shl(0xe0, 0x42e21959)\n      dup2\n      mstore\n      0x04\n      dup2\n      add\n        /* \"#utility.yul\":553:578   */\n      dup4\n      swap1\n      mstore\n      sub(shl(0xa0, 0x01), 0x01)\n        /* \"contracts/poolManager.sol\":2982:2992  normalPool */\n      swap1\n      swap2\n      and\n      swap1\n        /* \"contracts/poolManager.sol\":2977:3014  Pool(normalPool).setContractIntervals */\n      0x42e21959\n      swap1\n        /* \"#utility.yul\":526:544   */\n      0x24\n      add\n        /* \"contracts/poolManager.sol\":2977:3021  Pool(normalPool).setContractIntervals(_time) */\n      tag_136\n        /* \"#utility.yul\":407:584   */\n      jump\n        /* \"contracts/poolManager.sol\":3033:3147  function setAddressFrequency(uint256 _time) public onlyOwner {... */\n    tag_90:\n        /* \"@openzeppelin/contracts/access/Ownable.sol\":1094:1107  _checkOwner() */\n      tag_203\n        /* \"@openzeppelin/contracts/access/Ownable.sol\":1094:1105  _checkOwner */\n      tag_112\n        /* \"@openzeppelin/contracts/access/Ownable.sol\":1094:1107  _checkOwner() */\n      jump\t// in\n    tag_203:\n        /* \"contracts/poolManager.sol\":3109:3119  normalPool */\n      sload(0x02)\n        /* \"contracts/poolManager.sol\":3104:3140  Pool(normalPool).setIntervals(_time) */\n      mload(0x40)\n      shl(0xe1, 0x6b8d7db7)\n      dup2\n      mstore\n      0x04\n      dup2\n      add\n        /* \"#utility.yul\":553:578   */\n      dup4\n      swap1\n      mstore\n      sub(shl(0xa0, 0x01), 0x01)\n        /* \"contracts/poolManager.sol\":3109:3119  normalPool */\n      swap1\n      swap2\n      and\n      swap1\n        /* \"contracts/poolManager.sol\":3104:3133  Pool(normalPool).setIntervals */\n      0xd71afb6e\n      swap1\n        /* \"#utility.yul\":526:544   */\n      0x24\n      add\n        /* \"contracts/poolManager.sol\":3104:3140  Pool(normalPool).setIntervals(_time) */\n      tag_136\n        /* \"#utility.yul\":407:584   */\n      jump\n        /* \"contracts/poolManager.sol\":1413:1597  function _setReputationAmount(uint256 _amount) public onlyOwner {... */\n    tag_93:\n        /* \"@openzeppelin/contracts/access/Ownable.sol\":1094:1107  _checkOwner() */\n      tag_210\n        /* \"@openzeppelin/contracts/access/Ownable.sol\":1094:1105  _checkOwner */\n      tag_112\n        /* \"@openzeppelin/contracts/access/Ownable.sol\":1094:1107  _checkOwner() */\n      jump\t// in\n    tag_210:\n        /* \"contracts/poolManager.sol\":1492:1502  normalPool */\n      sload(0x02)\n        /* \"contracts/poolManager.sol\":1487:1532  Pool(normalPool).setReputationAmount(_amount) */\n      mload(0x40)\n      shl(0xe3, 0x1833c929)\n      dup2\n      mstore\n      0x04\n      dup2\n      add\n        /* \"#utility.yul\":553:578   */\n      dup4\n      swap1\n      mstore\n      sub(shl(0xa0, 0x01), 0x01)\n        /* \"contracts/poolManager.sol\":1492:1502  normalPool */\n      swap1\n      swap2\n      and\n      swap1\n        /* \"contracts/poolManager.sol\":1487:1523  Pool(normalPool).setReputationAmount */\n      0xc19e4948\n      swap1\n        /* \"#utility.yul\":526:544   */\n      0x24\n      add\n        /* \"contracts/poolManager.sol\":1487:1532  Pool(normalPool).setReputationAmount(_amount) */\n      0x00\n      mload(0x40)\n      dup1\n      dup4\n      sub\n      dup2\n      0x00\n      dup8\n      dup1\n      extcodesize\n      iszero\n      dup1\n      iszero\n      tag_213\n      jumpi\n      0x00\n      dup1\n      revert\n    tag_213:\n      pop\n      gas\n      call\n      iszero\n      dup1\n      iszero\n      tag_215\n      jumpi\n      returndatasize\n      0x00\n      dup1\n      returndatacopy\n      revert(0x00, returndatasize)\n    tag_215:\n      pop\n      pop\n        /* \"contracts/poolManager.sol\":1547:1560  emergencyPool */\n      sload(0x03)\n        /* \"contracts/poolManager.sol\":1542:1590  Pool(emergencyPool).setReputationAmount(_amount) */\n      mload(0x40)\n      shl(0xe3, 0x1833c929)\n      dup2\n      mstore\n      0x04\n      dup2\n      add\n        /* \"#utility.yul\":553:578   */\n      dup6\n      swap1\n      mstore\n      sub(shl(0xa0, 0x01), 0x01)\n        /* \"contracts/poolManager.sol\":1547:1560  emergencyPool */\n      swap1\n      swap2\n      and\n      swap3\n      pop\n        /* \"contracts/poolManager.sol\":1542:1581  Pool(emergencyPool).setReputationAmount */\n      0xc19e4948\n      swap2\n      pop\n        /* \"#utility.yul\":526:544   */\n      0x24\n      add\n        /* \"contracts/poolManager.sol\":1542:1590  Pool(emergencyPool).setReputationAmount(_amount) */\n      tag_136\n        /* \"#utility.yul\":407:584   */\n      jump\n        /* \"contracts/poolManager.sol\":1283:1408  function _setStatus() public onlyOwner {... */\n    tag_95:\n        /* \"@openzeppelin/contracts/access/Ownable.sol\":1094:1107  _checkOwner() */\n      tag_221\n        /* \"@openzeppelin/contracts/access/Ownable.sol\":1094:1105  _checkOwner */\n      tag_112\n        /* \"@openzeppelin/contracts/access/Ownable.sol\":1094:1107  _checkOwner() */\n      jump\t// in\n    tag_221:\n        /* \"contracts/poolManager.sol\":1337:1347  normalPool */\n      0x02\n      0x00\n      swap1\n      sload\n      swap1\n      0x0100\n      exp\n      swap1\n      div\n      sub(shl(0xa0, 0x01), 0x01)\n      and\n      sub(shl(0xa0, 0x01), 0x01)\n        /* \"contracts/poolManager.sol\":1332:1358  Pool(normalPool).setStatus */\n      and\n      0xc0336629\n        /* \"contracts/poolManager.sol\":1332:1360  Pool(normalPool).setStatus() */\n      mload(0x40)\n      dup2\n      0xffffffff\n      and\n      0xe0\n      shl\n      dup2\n      mstore\n      0x04\n      add\n      0x00\n      mload(0x40)\n      dup1\n      dup4\n      sub\n      dup2\n      0x00\n      dup8\n      dup1\n      extcodesize\n      iszero\n      dup1\n      iszero\n      tag_223\n      jumpi\n      0x00\n      dup1\n      revert\n    tag_223:\n      pop\n      gas\n      call\n      iszero\n      dup1\n      iszero\n      tag_225\n      jumpi\n      returndatasize\n      0x00\n      dup1\n      returndatacopy\n      revert(0x00, returndatasize)\n    tag_225:\n      pop\n      pop\n      pop\n      pop\n        /* \"contracts/poolManager.sol\":1375:1388  emergencyPool */\n      0x03\n      0x00\n      swap1\n      sload\n      swap1\n      0x0100\n      exp\n      swap1\n      div\n      sub(shl(0xa0, 0x01), 0x01)\n      and\n      sub(shl(0xa0, 0x01), 0x01)\n        /* \"contracts/poolManager.sol\":1370:1399  Pool(emergencyPool).setStatus */\n      and\n      0xc0336629\n        /* \"contracts/poolManager.sol\":1370:1401  Pool(emergencyPool).setStatus() */\n      mload(0x40)\n      dup2\n      0xffffffff\n      and\n      0xe0\n      shl\n      dup2\n      mstore\n      0x04\n      add\n      0x00\n      mload(0x40)\n      dup1\n      dup4\n      sub\n      dup2\n      0x00\n      dup8\n      dup1\n      extcodesize\n      iszero\n      dup1\n      iszero\n      tag_226\n      jumpi\n      0x00\n      dup1\n      revert\n    tag_226:\n      pop\n      gas\n      call\n      iszero\n      dup1\n      iszero\n      tag_228\n      jumpi\n      returndatasize\n      0x00\n      dup1\n      returndatacopy\n      revert(0x00, returndatasize)\n    tag_228:\n      pop\n      pop\n      pop\n      pop\n        /* \"contracts/poolManager.sol\":1283:1408  function _setStatus() public onlyOwner {... */\n      jump\t// out\n        /* \"contracts/poolManager.sol\":1713:1825  function setEMERGENCY_POOL_RATIO(uint256 _ratio) public onlyOwner {... */\n    tag_98:\n        /* \"@openzeppelin/contracts/access/Ownable.sol\":1094:1107  _checkOwner() */\n      tag_230\n        /* \"@openzeppelin/contracts/access/Ownable.sol\":1094:1105  _checkOwner */\n      tag_112\n        /* \"@openzeppelin/contracts/access/Ownable.sol\":1094:1107  _checkOwner() */\n      jump\t// in\n    tag_230:\n        /* \"contracts/poolManager.sol\":1789:1809  EMERGENCY_POOL_RATIO */\n      0x05\n        /* \"contracts/poolManager.sol\":1789:1818  EMERGENCY_POOL_RATIO = _ratio */\n      sstore\n        /* \"contracts/poolManager.sol\":1713:1825  function setEMERGENCY_POOL_RATIO(uint256 _ratio) public onlyOwner {... */\n      jump\t// out\n        /* \"contracts/poolManager.sol\":3542:3660  function _setAddressFrequency(uint256 _time) public onlyOwner {... */\n    tag_101:\n        /* \"@openzeppelin/contracts/access/Ownable.sol\":1094:1107  _checkOwner() */\n      tag_233\n        /* \"@openzeppelin/contracts/access/Ownable.sol\":1094:1105  _checkOwner */\n      tag_112\n        /* \"@openzeppelin/contracts/access/Ownable.sol\":1094:1107  _checkOwner() */\n      jump\t// in\n    tag_233:\n        /* \"contracts/poolManager.sol\":3619:3632  emergencyPool */\n      sload(0x03)\n        /* \"contracts/poolManager.sol\":3614:3653  Pool(emergencyPool).setIntervals(_time) */\n      mload(0x40)\n      shl(0xe1, 0x6b8d7db7)\n      dup2\n      mstore\n      0x04\n      dup2\n      add\n        /* \"#utility.yul\":553:578   */\n      dup4\n      swap1\n      mstore\n      sub(shl(0xa0, 0x01), 0x01)\n        /* \"contracts/poolManager.sol\":3619:3632  emergencyPool */\n      swap1\n      swap2\n      and\n      swap1\n        /* \"contracts/poolManager.sol\":3614:3646  Pool(emergencyPool).setIntervals */\n      0xd71afb6e\n      swap1\n        /* \"#utility.yul\":526:544   */\n      0x24\n      add\n        /* \"contracts/poolManager.sol\":3614:3653  Pool(emergencyPool).setIntervals(_time) */\n      tag_136\n        /* \"#utility.yul\":407:584   */\n      jump\n        /* \"contracts/poolManager.sol\":1028:1278  function init(address _normalPool, address _emergencyPool) public onlyOwner {... */\n    tag_105:\n        /* \"@openzeppelin/contracts/access/Ownable.sol\":1094:1107  _checkOwner() */\n      tag_240\n        /* \"@openzeppelin/contracts/access/Ownable.sol\":1094:1105  _checkOwner */\n      tag_112\n        /* \"@openzeppelin/contracts/access/Ownable.sol\":1094:1107  _checkOwner() */\n      jump\t// in\n    tag_240:\n      sub(shl(0xa0, 0x01), 0x01)\n        /* \"contracts/poolManager.sol\":1122:1147  _normalPool != address(0) */\n      dup3\n      and\n      iszero\n      dup1\n      iszero\n      swap1\n        /* \"contracts/poolManager.sol\":1122:1179  _normalPool != address(0) && _emergencyPool != address(0) */\n      tag_242\n      jumpi\n      pop\n      sub(shl(0xa0, 0x01), 0x01)\n        /* \"contracts/poolManager.sol\":1151:1179  _emergencyPool != address(0) */\n      dup2\n      and\n      iszero\n      iszero\n        /* \"contracts/poolManager.sol\":1122:1179  _normalPool != address(0) && _emergencyPool != address(0) */\n    tag_242:\n        /* \"contracts/poolManager.sol\":1114:1197  require(_normalPool != address(0) && _emergencyPool != address(0), \"address error\") */\n      tag_243\n      jumpi\n      mload(0x40)\n      shl(0xe5, 0x461bcd)\n      dup2\n      mstore\n        /* \"#utility.yul\":3739:3741   */\n      0x20\n        /* \"contracts/poolManager.sol\":1114:1197  require(_normalPool != address(0) && _emergencyPool != address(0), \"address error\") */\n      0x04\n      dup3\n      add\n        /* \"#utility.yul\":3721:3742   */\n      mstore\n        /* \"#utility.yul\":3778:3780   */\n      0x0d\n        /* \"#utility.yul\":3758:3776   */\n      0x24\n      dup3\n      add\n        /* \"#utility.yul\":3751:3781   */\n      mstore\n      shl(0x99, 0x30b2323932b9b99032b93937b9)\n        /* \"#utility.yul\":3797:3815   */\n      0x44\n      dup3\n      add\n        /* \"#utility.yul\":3790:3833   */\n      mstore\n        /* \"#utility.yul\":3850:3868   */\n      0x64\n      add\n        /* \"contracts/poolManager.sol\":1114:1197  require(_normalPool != address(0) && _emergencyPool != address(0), \"address error\") */\n      tag_117\n        /* \"#utility.yul\":3537:3874   */\n      jump\n        /* \"contracts/poolManager.sol\":1114:1197  require(_normalPool != address(0) && _emergencyPool != address(0), \"address error\") */\n    tag_243:\n        /* \"contracts/poolManager.sol\":1207:1217  normalPool */\n      0x02\n        /* \"contracts/poolManager.sol\":1207:1231  normalPool = _normalPool */\n      dup1\n      sload\n      sub(shl(0xa0, 0x01), 0x01)\n      swap4\n      dup5\n      and\n      not(sub(shl(0xa0, 0x01), 0x01))\n      swap2\n      dup3\n      and\n      or\n      swap1\n      swap2\n      sstore\n        /* \"contracts/poolManager.sol\":1241:1254  emergencyPool */\n      0x03\n        /* \"contracts/poolManager.sol\":1241:1271  emergencyPool = _emergencyPool */\n      dup1\n      sload\n      swap3\n      swap1\n      swap4\n      and\n      swap2\n      and\n      or\n      swap1\n      sstore\n        /* \"contracts/poolManager.sol\":1028:1278  function init(address _normalPool, address _emergencyPool) public onlyOwner {... */\n      jump\t// out\n        /* \"@openzeppelin/contracts/access/Ownable.sol\":2081:2279  function transferOwnership(address newOwner) public virtual onlyOwner {... */\n    tag_109:\n        /* \"@openzeppelin/contracts/access/Ownable.sol\":1094:1107  _checkOwner() */\n      tag_247\n        /* \"@openzeppelin/contracts/access/Ownable.sol\":1094:1105  _checkOwner */\n      tag_112\n        /* \"@openzeppelin/contracts/access/Ownable.sol\":1094:1107  _checkOwner() */\n      jump\t// in\n    tag_247:\n      sub(shl(0xa0, 0x01), 0x01)\n        /* \"@openzeppelin/contracts/access/Ownable.sol\":2169:2191  newOwner != address(0) */\n      dup2\n      and\n        /* \"@openzeppelin/contracts/access/Ownable.sol\":2161:2234  require(newOwner != address(0), \"Ownable: new owner is the zero address\") */\n      tag_249\n      jumpi\n      mload(0x40)\n      shl(0xe5, 0x461bcd)\n      dup2\n      mstore\n        /* \"#utility.yul\":4081:4083   */\n      0x20\n        /* \"@openzeppelin/contracts/access/Ownable.sol\":2161:2234  require(newOwner != address(0), \"Ownable: new owner is the zero address\") */\n      0x04\n      dup3\n      add\n        /* \"#utility.yul\":4063:4084   */\n      mstore\n        /* \"#utility.yul\":4120:4122   */\n      0x26\n        /* \"#utility.yul\":4100:4118   */\n      0x24\n      dup3\n      add\n        /* \"#utility.yul\":4093:4123   */\n      mstore\n        /* \"#utility.yul\":4159:4193   */\n      0x4f776e61626c653a206e6577206f776e657220697320746865207a65726f2061\n        /* \"#utility.yul\":4139:4157   */\n      0x44\n      dup3\n      add\n        /* \"#utility.yul\":4132:4194   */\n      mstore\n      shl(0xd0, 0x646472657373)\n        /* \"#utility.yul\":4210:4228   */\n      0x64\n      dup3\n      add\n        /* \"#utility.yul\":4203:4239   */\n      mstore\n        /* \"#utility.yul\":4256:4275   */\n      0x84\n      add\n        /* \"@openzeppelin/contracts/access/Ownable.sol\":2161:2234  require(newOwner != address(0), \"Ownable: new owner is the zero address\") */\n      tag_117\n        /* \"#utility.yul\":3879:4281   */\n      jump\n        /* \"@openzeppelin/contracts/access/Ownable.sol\":2161:2234  require(newOwner != address(0), \"Ownable: new owner is the zero address\") */\n    tag_249:\n        /* \"@openzeppelin/contracts/access/Ownable.sol\":2244:2272  _transferOwnership(newOwner) */\n      tag_130\n        /* \"@openzeppelin/contracts/access/Ownable.sol\":2263:2271  newOwner */\n      dup2\n        /* \"@openzeppelin/contracts/access/Ownable.sol\":2244:2262  _transferOwnership */\n      tag_167\n        /* \"@openzeppelin/contracts/access/Ownable.sol\":2244:2272  _transferOwnership(newOwner) */\n      jump\t// in\n        /* \"@openzeppelin/contracts/access/Ownable.sol\":1359:1489  function _checkOwner() internal view virtual {... */\n    tag_112:\n        /* \"@openzeppelin/contracts/access/Ownable.sol\":1247:1254  address */\n      0x00\n        /* \"@openzeppelin/contracts/access/Ownable.sol\":1273:1279  _owner */\n      sload\n      sub(shl(0xa0, 0x01), 0x01)\n      and\n        /* \"@openzeppelin/contracts/utils/Context.sol\":719:729  msg.sender */\n      caller\n        /* \"@openzeppelin/contracts/access/Ownable.sol\":1422:1445  owner() == _msgSender() */\n      eq\n        /* \"@openzeppelin/contracts/access/Ownable.sol\":1414:1482  require(owner() == _msgSender(), \"Ownable: caller is not the owner\") */\n      tag_166\n      jumpi\n      mload(0x40)\n      shl(0xe5, 0x461bcd)\n      dup2\n      mstore\n        /* \"#utility.yul\":4488:4490   */\n      0x20\n        /* \"@openzeppelin/contracts/access/Ownable.sol\":1414:1482  require(owner() == _msgSender(), \"Ownable: caller is not the owner\") */\n      0x04\n      dup3\n      add\n        /* \"#utility.yul\":4470:4491   */\n      dup2\n      swap1\n      mstore\n        /* \"#utility.yul\":4507:4525   */\n      0x24\n      dup3\n      add\n        /* \"#utility.yul\":4500:4530   */\n      mstore\n        /* \"#utility.yul\":4566:4600   */\n      0x4f776e61626c653a2063616c6c6572206973206e6f7420746865206f776e6572\n        /* \"#utility.yul\":4546:4564   */\n      0x44\n      dup3\n      add\n        /* \"#utility.yul\":4539:4601   */\n      mstore\n        /* \"#utility.yul\":4618:4636   */\n      0x64\n      add\n        /* \"@openzeppelin/contracts/access/Ownable.sol\":1414:1482  require(owner() == _msgSender(), \"Ownable: caller is not the owner\") */\n      tag_117\n        /* \"#utility.yul\":4286:4642   */\n      jump\n        /* \"contracts/lib/TransferHelper.sol\":572:929  function safeTransfer(address token, address to, uint value) internal {... */\n    tag_129:\n        /* \"contracts/lib/TransferHelper.sol\":765:810  abi.encodeWithSelector(0xa9059cbb, to, value) */\n      0x40\n      dup1\n      mload\n      sub(shl(0xa0, 0x01), 0x01)\n        /* \"#utility.yul\":4839:4871   */\n      dup5\n      dup2\n      and\n        /* \"contracts/lib/TransferHelper.sol\":765:810  abi.encodeWithSelector(0xa9059cbb, to, value) */\n      0x24\n      dup4\n      add\n        /* \"#utility.yul\":4821:4872   */\n      mstore\n        /* \"#utility.yul\":4888:4906   */\n      0x44\n      dup1\n      dup4\n      add\n        /* \"#utility.yul\":4881:4915   */\n      dup6\n      swap1\n      mstore\n        /* \"contracts/lib/TransferHelper.sol\":765:810  abi.encodeWithSelector(0xa9059cbb, to, value) */\n      dup4\n      mload\n      dup1\n      dup5\n      sub\n      swap1\n      swap2\n      add\n      dup2\n      mstore\n        /* \"#utility.yul\":4794:4812   */\n      0x64\n      swap1\n      swap3\n      add\n        /* \"contracts/lib/TransferHelper.sol\":765:810  abi.encodeWithSelector(0xa9059cbb, to, value) */\n      dup4\n      mstore\n      0x20\n      dup3\n      add\n      dup1\n      mload\n      sub(shl(0xe0, 0x01), 0x01)\n      and\n      shl(0xe0, 0xa9059cbb)\n      or\n      swap1\n      mstore\n        /* \"contracts/lib/TransferHelper.sol\":754:811  token.call(abi.encodeWithSelector(0xa9059cbb, to, value)) */\n      swap2\n      mload\n      0x00\n      swap3\n      dup4\n      swap3\n        /* \"contracts/lib/TransferHelper.sol\":754:764  token.call */\n      swap1\n      dup8\n      and\n      swap2\n        /* \"contracts/lib/TransferHelper.sol\":754:811  token.call(abi.encodeWithSelector(0xa9059cbb, to, value)) */\n      tag_263\n      swap2\n        /* \"contracts/lib/TransferHelper.sol\":765:810  abi.encodeWithSelector(0xa9059cbb, to, value) */\n      swap1\n        /* \"contracts/lib/TransferHelper.sol\":754:811  token.call(abi.encodeWithSelector(0xa9059cbb, to, value)) */\n      tag_264\n      jump\t// in\n    tag_263:\n      0x00\n      mload(0x40)\n      dup1\n      dup4\n      sub\n      dup2\n      0x00\n      dup7\n      gas\n      call\n      swap2\n      pop\n      pop\n      returndatasize\n      dup1\n      0x00\n      dup2\n      eq\n      tag_267\n      jumpi\n      mload(0x40)\n      swap2\n      pop\n      and(add(returndatasize, 0x3f), not(0x1f))\n      dup3\n      add\n      0x40\n      mstore\n      returndatasize\n      dup3\n      mstore\n      returndatasize\n      0x00\n      0x20\n      dup5\n      add\n      returndatacopy\n      jump(tag_266)\n    tag_267:\n      0x60\n      swap2\n      pop\n    tag_266:\n      pop\n        /* \"contracts/lib/TransferHelper.sol\":718:811  (bool success, bytes memory data) = token.call(abi.encodeWithSelector(0xa9059cbb, to, value)) */\n      swap2\n      pop\n      swap2\n      pop\n        /* \"contracts/lib/TransferHelper.sol\":829:836  success */\n      dup2\n        /* \"contracts/lib/TransferHelper.sol\":829:886  success && (data.length == 0 || abi.decode(data, (bool))) */\n      dup1\n      iszero\n      tag_270\n      jumpi\n      pop\n        /* \"contracts/lib/TransferHelper.sol\":841:852  data.length */\n      dup1\n      mload\n        /* \"contracts/lib/TransferHelper.sol\":841:857  data.length == 0 */\n      iszero\n      dup1\n        /* \"contracts/lib/TransferHelper.sol\":841:885  data.length == 0 || abi.decode(data, (bool)) */\n      tag_270\n      jumpi\n      pop\n        /* \"contracts/lib/TransferHelper.sol\":872:876  data */\n      dup1\n        /* \"contracts/lib/TransferHelper.sol\":861:885  abi.decode(data, (bool)) */\n      dup1\n      0x20\n      add\n      swap1\n      mload\n      dup2\n      add\n      swap1\n      tag_270\n      swap2\n      swap1\n      tag_271\n      jump\t// in\n    tag_270:\n        /* \"contracts/lib/TransferHelper.sol\":821:922  require(success && (data.length == 0 || abi.decode(data, (bool))), 'TransferHelper: TRANSFER_FAILED') */\n      tag_139\n      jumpi\n      mload(0x40)\n      shl(0xe5, 0x461bcd)\n      dup2\n      mstore\n        /* \"#utility.yul\":5827:5829   */\n      0x20\n        /* \"contracts/lib/TransferHelper.sol\":821:922  require(success && (data.length == 0 || abi.decode(data, (bool))), 'TransferHelper: TRANSFER_FAILED') */\n      0x04\n      dup3\n      add\n        /* \"#utility.yul\":5809:5830   */\n      mstore\n        /* \"#utility.yul\":5866:5868   */\n      0x1f\n        /* \"#utility.yul\":5846:5864   */\n      0x24\n      dup3\n      add\n        /* \"#utility.yul\":5839:5869   */\n      mstore\n        /* \"#utility.yul\":5905:5938   */\n      0x5472616e7366657248656c7065723a205452414e534645525f4641494c454400\n        /* \"#utility.yul\":5885:5903   */\n      0x44\n      dup3\n      add\n        /* \"#utility.yul\":5878:5939   */\n      mstore\n        /* \"#utility.yul\":5956:5974   */\n      0x64\n      add\n        /* \"contracts/lib/TransferHelper.sol\":821:922  require(success && (data.length == 0 || abi.decode(data, (bool))), 'TransferHelper: TRANSFER_FAILED') */\n      tag_117\n        /* \"#utility.yul\":5625:5980   */\n      jump\n        /* \"@openzeppelin/contracts/access/Ownable.sol\":2433:2620  function _transferOwnership(address newOwner) internal virtual {... */\n    tag_167:\n        /* \"@openzeppelin/contracts/access/Ownable.sol\":2506:2522  address oldOwner */\n      0x00\n        /* \"@openzeppelin/contracts/access/Ownable.sol\":2525:2531  _owner */\n      dup1\n      sload\n      sub(shl(0xa0, 0x01), 0x01)\n        /* \"@openzeppelin/contracts/access/Ownable.sol\":2541:2558  _owner = newOwner */\n      dup4\n      dup2\n      and\n      not(sub(shl(0xa0, 0x01), 0x01))\n      dup4\n      and\n      dup2\n      or\n      dup5\n      sstore\n        /* \"@openzeppelin/contracts/access/Ownable.sol\":2573:2613  OwnershipTransferred(oldOwner, newOwner) */\n      mload(0x40)\n        /* \"@openzeppelin/contracts/access/Ownable.sol\":2525:2531  _owner */\n      swap2\n      swap1\n      swap3\n      and\n      swap3\n      dup4\n      swap2\n        /* \"@openzeppelin/contracts/access/Ownable.sol\":2573:2613  OwnershipTransferred(oldOwner, newOwner) */\n      0x8be0079c531659141344cd1fd0a4f28419497f9722a3daafe3b4186f6b6457e0\n      swap2\n        /* \"@openzeppelin/contracts/access/Ownable.sol\":2506:2522  address oldOwner */\n      swap1\n        /* \"@openzeppelin/contracts/access/Ownable.sol\":2573:2613  OwnershipTransferred(oldOwner, newOwner) */\n      log3\n        /* \"@openzeppelin/contracts/access/Ownable.sol\":2496:2620  {... */\n      pop\n        /* \"@openzeppelin/contracts/access/Ownable.sol\":2433:2620  function _transferOwnership(address newOwner) internal virtual {... */\n      pop\n      jump\t// out\n        /* \"#utility.yul\":222:402   */\n    tag_40:\n        /* \"#utility.yul\":281:287   */\n      0x00\n        /* \"#utility.yul\":334:336   */\n      0x20\n        /* \"#utility.yul\":322:331   */\n      dup3\n        /* \"#utility.yul\":313:320   */\n      dup5\n        /* \"#utility.yul\":309:332   */\n      sub\n        /* \"#utility.yul\":305:337   */\n      slt\n        /* \"#utility.yul\":302:354   */\n      iszero\n      tag_282\n      jumpi\n        /* \"#utility.yul\":350:351   */\n      0x00\n        /* \"#utility.yul\":347:348   */\n      dup1\n        /* \"#utility.yul\":340:352   */\n      revert\n        /* \"#utility.yul\":302:354   */\n    tag_282:\n      pop\n        /* \"#utility.yul\":373:396   */\n      calldataload\n      swap2\n        /* \"#utility.yul\":222:402   */\n      swap1\n      pop\n      jump\t// out\n        /* \"#utility.yul\":589:740   */\n    tag_277:\n      sub(shl(0xa0, 0x01), 0x01)\n        /* \"#utility.yul\":684:715   */\n      dup2\n      and\n        /* \"#utility.yul\":674:716   */\n      dup2\n      eq\n        /* \"#utility.yul\":664:734   */\n      tag_130\n      jumpi\n        /* \"#utility.yul\":730:731   */\n      0x00\n        /* \"#utility.yul\":727:728   */\n      dup1\n        /* \"#utility.yul\":720:732   */\n      revert\n        /* \"#utility.yul\":745:1038   */\n    tag_83:\n        /* \"#utility.yul\":830:836   */\n      0x00\n        /* \"#utility.yul\":883:885   */\n      0x20\n        /* \"#utility.yul\":871:880   */\n      dup3\n        /* \"#utility.yul\":862:869   */\n      dup5\n        /* \"#utility.yul\":858:881   */\n      sub\n        /* \"#utility.yul\":854:886   */\n      slt\n        /* \"#utility.yul\":851:903   */\n      iszero\n      tag_287\n      jumpi\n        /* \"#utility.yul\":899:900   */\n      0x00\n        /* \"#utility.yul\":896:897   */\n      dup1\n        /* \"#utility.yul\":889:901   */\n      revert\n        /* \"#utility.yul\":851:903   */\n    tag_287:\n        /* \"#utility.yul\":938:947   */\n      dup2\n        /* \"#utility.yul\":925:948   */\n      calldataload\n        /* \"#utility.yul\":957:1008   */\n      tag_288\n        /* \"#utility.yul\":1002:1007   */\n      dup2\n        /* \"#utility.yul\":957:1008   */\n      tag_277\n      jump\t// in\n    tag_288:\n        /* \"#utility.yul\":1027:1032   */\n      swap4\n        /* \"#utility.yul\":745:1038   */\n      swap3\n      pop\n      pop\n      pop\n      jump\t// out\n        /* \"#utility.yul\":1043:1471   */\n    tag_104:\n        /* \"#utility.yul\":1111:1117   */\n      0x00\n        /* \"#utility.yul\":1119:1125   */\n      dup1\n        /* \"#utility.yul\":1172:1174   */\n      0x40\n        /* \"#utility.yul\":1160:1169   */\n      dup4\n        /* \"#utility.yul\":1151:1158   */\n      dup6\n        /* \"#utility.yul\":1147:1170   */\n      sub\n        /* \"#utility.yul\":1143:1175   */\n      slt\n        /* \"#utility.yul\":1140:1192   */\n      iszero\n      tag_290\n      jumpi\n        /* \"#utility.yul\":1188:1189   */\n      0x00\n        /* \"#utility.yul\":1185:1186   */\n      dup1\n        /* \"#utility.yul\":1178:1190   */\n      revert\n        /* \"#utility.yul\":1140:1192   */\n    tag_290:\n        /* \"#utility.yul\":1227:1236   */\n      dup3\n        /* \"#utility.yul\":1214:1237   */\n      calldataload\n        /* \"#utility.yul\":1246:1297   */\n      tag_291\n        /* \"#utility.yul\":1291:1296   */\n      dup2\n        /* \"#utility.yul\":1246:1297   */\n      tag_277\n      jump\t// in\n    tag_291:\n        /* \"#utility.yul\":1316:1321   */\n      swap2\n      pop\n        /* \"#utility.yul\":1373:1375   */\n      0x20\n        /* \"#utility.yul\":1358:1376   */\n      dup4\n      add\n        /* \"#utility.yul\":1345:1377   */\n      calldataload\n        /* \"#utility.yul\":1386:1439   */\n      tag_292\n        /* \"#utility.yul\":1345:1377   */\n      dup2\n        /* \"#utility.yul\":1386:1439   */\n      tag_277\n      jump\t// in\n    tag_292:\n        /* \"#utility.yul\":1458:1465   */\n      dup1\n        /* \"#utility.yul\":1448:1465   */\n      swap2\n      pop\n      pop\n        /* \"#utility.yul\":1043:1471   */\n      swap3\n      pop\n      swap3\n      swap1\n      pop\n      jump\t// out\n        /* \"#utility.yul\":1748:1875   */\n    tag_278:\n        /* \"#utility.yul\":1809:1819   */\n      0x4e487b71\n        /* \"#utility.yul\":1804:1807   */\n      0xe0\n        /* \"#utility.yul\":1800:1820   */\n      shl\n        /* \"#utility.yul\":1797:1798   */\n      0x00\n        /* \"#utility.yul\":1790:1821   */\n      mstore\n        /* \"#utility.yul\":1840:1844   */\n      0x11\n        /* \"#utility.yul\":1837:1838   */\n      0x04\n        /* \"#utility.yul\":1830:1845   */\n      mstore\n        /* \"#utility.yul\":1864:1868   */\n      0x24\n        /* \"#utility.yul\":1861:1862   */\n      0x00\n        /* \"#utility.yul\":1854:1869   */\n      revert\n        /* \"#utility.yul\":1880:2005   */\n    tag_115:\n        /* \"#utility.yul\":1945:1954   */\n      dup1\n      dup3\n      add\n        /* \"#utility.yul\":1966:1976   */\n      dup1\n      dup3\n      gt\n        /* \"#utility.yul\":1963:1999   */\n      iszero\n      tag_299\n      jumpi\n        /* \"#utility.yul\":1979:1997   */\n      tag_299\n      tag_278\n      jump\t// in\n    tag_299:\n        /* \"#utility.yul\":1880:2005   */\n      swap3\n      swap2\n      pop\n      pop\n      jump\t// out\n        /* \"#utility.yul\":2719:2887   */\n    tag_126:\n        /* \"#utility.yul\":2792:2801   */\n      dup1\n      dup3\n      mul\n        /* \"#utility.yul\":2823:2832   */\n      dup2\n      iszero\n        /* \"#utility.yul\":2840:2855   */\n      dup3\n      dup3\n      div\n        /* \"#utility.yul\":2834:2856   */\n      dup5\n      eq\n        /* \"#utility.yul\":2820:2857   */\n      or\n        /* \"#utility.yul\":2810:2881   */\n      tag_299\n      jumpi\n        /* \"#utility.yul\":2861:2879   */\n      tag_299\n      tag_278\n      jump\t// in\n        /* \"#utility.yul\":2892:3109   */\n    tag_128:\n        /* \"#utility.yul\":2932:2933   */\n      0x00\n        /* \"#utility.yul\":2958:2959   */\n      dup3\n        /* \"#utility.yul\":2948:3080   */\n      tag_306\n      jumpi\n        /* \"#utility.yul\":3002:3012   */\n      0x4e487b71\n        /* \"#utility.yul\":2997:3000   */\n      0xe0\n        /* \"#utility.yul\":2993:3013   */\n      shl\n        /* \"#utility.yul\":2990:2991   */\n      0x00\n        /* \"#utility.yul\":2983:3014   */\n      mstore\n        /* \"#utility.yul\":3037:3041   */\n      0x12\n        /* \"#utility.yul\":3034:3035   */\n      0x04\n        /* \"#utility.yul\":3027:3042   */\n      mstore\n        /* \"#utility.yul\":3065:3069   */\n      0x24\n        /* \"#utility.yul\":3062:3063   */\n      0x00\n        /* \"#utility.yul\":3055:3070   */\n      revert\n        /* \"#utility.yul\":2948:3080   */\n    tag_306:\n      pop\n        /* \"#utility.yul\":3094:3103   */\n      div\n      swap1\n        /* \"#utility.yul\":2892:3109   */\n      jump\t// out\n        /* \"#utility.yul\":3114:3298   */\n    tag_162:\n        /* \"#utility.yul\":3184:3190   */\n      0x00\n        /* \"#utility.yul\":3237:3239   */\n      0x20\n        /* \"#utility.yul\":3225:3234   */\n      dup3\n        /* \"#utility.yul\":3216:3223   */\n      dup5\n        /* \"#utility.yul\":3212:3235   */\n      sub\n        /* \"#utility.yul\":3208:3240   */\n      slt\n        /* \"#utility.yul\":3205:3257   */\n      iszero\n      tag_308\n      jumpi\n        /* \"#utility.yul\":3253:3254   */\n      0x00\n        /* \"#utility.yul\":3250:3251   */\n      dup1\n        /* \"#utility.yul\":3243:3255   */\n      revert\n        /* \"#utility.yul\":3205:3257   */\n    tag_308:\n      pop\n        /* \"#utility.yul\":3276:3292   */\n      mload\n      swap2\n        /* \"#utility.yul\":3114:3298   */\n      swap1\n      pop\n      jump\t// out\n        /* \"#utility.yul\":4926:5338   */\n    tag_264:\n        /* \"#utility.yul\":5055:5058   */\n      0x00\n        /* \"#utility.yul\":5093:5099   */\n      dup3\n        /* \"#utility.yul\":5087:5100   */\n      mload\n        /* \"#utility.yul\":5118:5119   */\n      0x00\n        /* \"#utility.yul\":5128:5257   */\n    tag_315:\n        /* \"#utility.yul\":5142:5148   */\n      dup2\n        /* \"#utility.yul\":5139:5140   */\n      dup2\n        /* \"#utility.yul\":5136:5149   */\n      lt\n        /* \"#utility.yul\":5128:5257   */\n      iszero\n      tag_317\n      jumpi\n        /* \"#utility.yul\":5240:5244   */\n      0x20\n        /* \"#utility.yul\":5224:5238   */\n      dup2\n      dup7\n      add\n        /* \"#utility.yul\":5220:5245   */\n      dup2\n      add\n        /* \"#utility.yul\":5214:5246   */\n      mload\n        /* \"#utility.yul\":5201:5212   */\n      dup6\n      dup4\n      add\n        /* \"#utility.yul\":5194:5247   */\n      mstore\n        /* \"#utility.yul\":5157:5169   */\n      add\n        /* \"#utility.yul\":5128:5257   */\n      jump(tag_315)\n    tag_317:\n      pop\n        /* \"#utility.yul\":5312:5313   */\n      0x00\n        /* \"#utility.yul\":5276:5292   */\n      swap3\n      add\n        /* \"#utility.yul\":5301:5314   */\n      swap2\n      dup3\n      mstore\n      pop\n        /* \"#utility.yul\":5276:5292   */\n      swap2\n        /* \"#utility.yul\":4926:5338   */\n      swap1\n      pop\n      jump\t// out\n        /* \"#utility.yul\":5343:5620   */\n    tag_271:\n        /* \"#utility.yul\":5410:5416   */\n      0x00\n        /* \"#utility.yul\":5463:5465   */\n      0x20\n        /* \"#utility.yul\":5451:5460   */\n      dup3\n        /* \"#utility.yul\":5442:5449   */\n      dup5\n        /* \"#utility.yul\":5438:5461   */\n      sub\n        /* \"#utility.yul\":5434:5466   */\n      slt\n        /* \"#utility.yul\":5431:5483   */\n      iszero\n      tag_319\n      jumpi\n        /* \"#utility.yul\":5479:5480   */\n      0x00\n        /* \"#utility.yul\":5476:5477   */\n      dup1\n        /* \"#utility.yul\":5469:5481   */\n      revert\n        /* \"#utility.yul\":5431:5483   */\n    tag_319:\n        /* \"#utility.yul\":5511:5520   */\n      dup2\n        /* \"#utility.yul\":5505:5521   */\n      mload\n        /* \"#utility.yul\":5564:5569   */\n      dup1\n        /* \"#utility.yul\":5557:5570   */\n      iszero\n        /* \"#utility.yul\":5550:5571   */\n      iszero\n        /* \"#utility.yul\":5543:5548   */\n      dup2\n        /* \"#utility.yul\":5540:5572   */\n      eq\n        /* \"#utility.yul\":5530:5590   */\n      tag_288\n      jumpi\n        /* \"#utility.yul\":5586:5587   */\n      0x00\n        /* \"#utility.yul\":5583:5584   */\n      dup1\n        /* \"#utility.yul\":5576:5588   */\n      revert\n\n    auxdata: 0xa264697066735822122059f8ea4c358705872fb156b31c8806e00507140945683e9ae34589d147ac2a7f64736f6c63430008120033\n}\n",
				"bytecode": {
					"linkReferences": {},
					"object": "60a0604052606460805234801561001557600080fd5b50604051610ed5380380610ed5833981016040819052610034916100bc565b61003d3361006c565b600180546001600160a01b0319166001600160a01b0392909216919091179055603260048190556005556100ec565b600080546001600160a01b038381166001600160a01b0319831681178455604051919092169283917f8be0079c531659141344cd1fd0a4f28419497f9722a3daafe3b4186f6b6457e09190a35050565b6000602082840312156100ce57600080fd5b81516001600160a01b03811681146100e557600080fd5b9392505050565b608051610dc0610115600039600081816102900152818161044101526104970152610dc06000f3fe608060405234801561001057600080fd5b50600436106101735760003560e01c8063a257db8e116100de578063d872d6cb11610097578063ea1502fb11610071578063ea1502fb14610306578063ef4bf8d914610319578063f09a40161461032c578063f2fde38b1461033f57600080fd5b8063d872d6cb146102d8578063e18c7bc1146102eb578063e3cae000146102fe57600080fd5b8063a257db8e14610252578063a59b364514610265578063aa76bb7114610278578063b83282da1461028b578063c5b71eb6146102b2578063cce69231146102c557600080fd5b80635d1b4083116101305780635d1b4083146101fe5780636a7c143e146102115780636f9fb98a14610228578063715018a6146102305780638da5cb5b14610238578063960d49b91461024957600080fd5b806312d7205f14610178578063208bf176146101a8578063293be456146101b25780632bd3a019146101c55780633fc8cef3146101d8578063435aca6f146101eb575b600080fd5b60025461018b906001600160a01b031681565b6040516001600160a01b0390911681526020015b60405180910390f35b6101b0610352565b005b6101b06101c0366004610c2d565b6104c4565b6101b06101d3366004610c2d565b61052e565b60015461018b906001600160a01b031681565b6101b06101f9366004610c2d565b610567565b6101b061020c366004610c2d565b6105a0565b61021a60055481565b60405190815260200161019f565b61021a6105ad565b6101b061061f565b6000546001600160a01b031661018b565b61021a60045481565b6101b0610260366004610c2d565b610633565b60035461018b906001600160a01b031681565b6101b0610286366004610c2d565b61066c565b61021a7f000000000000000000000000000000000000000000000000000000000000000081565b6101b06102c0366004610c5b565b6106a5565b6101b06102d3366004610c2d565b61073e565b6101b06102e6366004610c2d565b610777565b6101b06102f9366004610c2d565b6107b0565b6101b0610847565b6101b0610314366004610c2d565b610921565b6101b0610327366004610c2d565b61092e565b6101b061033a366004610c7f565b610967565b6101b061034d366004610c5b565b6109f9565b61035a610a6f565b60055460045461036a9190610cce565b6064146103be5760405162461bcd60e51b815260206004820152601a60248201527f616c6c6f636174696f6e20726174696f6e206973206572726f7200000000000060448201526064015b60405180910390fd5b60006103c86105ad565b116104155760405162461bcd60e51b815260206004820152601960248201527f636f6e74726163742062616c616e6365206973206572726f720000000000000060448201526064016103b5565b600061041f6105ad565b60015460025460045492935061047a926001600160a01b0392831692909116907f00000000000000000000000000000000000000000000000000000000000000009061046b9086610ce7565b6104759190610cfe565b610ac9565b6001546003546005546104c1926001600160a01b039081169216907f00000000000000000000000000000000000000000000000000000000000000009061046b9086610ce7565b50565b6104cc610a6f565b60025460405163e5ad552360e01b8152600481018390526001600160a01b039091169063e5ad5523906024015b600060405180830381600087803b15801561051357600080fd5b505af1158015610527573d6000803e3d6000fd5b5050505050565b610536610a6f565b6003546040516342e2195960e01b8152600481018390526001600160a01b03909116906342e21959906024016104f9565b61056f610a6f565b600354604051630749469f60e01b8152600481018390526001600160a01b0390911690630749469f906024016104f9565b6105a8610a6f565b600455565b6001546040516370a0823160e01b81523060048201526000916001600160a01b0316906370a0823190602401602060405180830381865afa1580156105f6573d6000803e3d6000fd5b505050506040513d601f19601f8201168201806040525081019061061a9190610d20565b905090565b610627610a6f565b6106316000610bdd565b565b61063b610a6f565b600254604051630749469f60e01b8152600481018390526001600160a01b0390911690630749469f906024016104f9565b610674610a6f565b60035460405163e5ad552360e01b8152600481018390526001600160a01b039091169063e5ad5523906024016104f9565b6106ad610a6f565b600254604051631419841d60e01b81526001600160a01b03838116600483015290911690631419841d90602401600060405180830381600087803b1580156106f457600080fd5b505af1158015610708573d6000803e3d6000fd5b5050600354604051631419841d60e01b81526001600160a01b0385811660048301529091169250631419841d91506024016104f9565b610746610a6f565b6002546040516342e2195960e01b8152600481018390526001600160a01b03909116906342e21959906024016104f9565b61077f610a6f565b600254604051636b8d7db760e11b8152600481018390526001600160a01b039091169063d71afb6e906024016104f9565b6107b8610a6f565b600254604051631833c92960e31b8152600481018390526001600160a01b039091169063c19e494890602401600060405180830381600087803b1580156107fe57600080fd5b505af1158015610812573d6000803e3d6000fd5b5050600354604051631833c92960e31b8152600481018590526001600160a01b03909116925063c19e494891506024016104f9565b61084f610a6f565b600260009054906101000a90046001600160a01b03166001600160a01b031663c03366296040518163ffffffff1660e01b8152600401600060405180830381600087803b15801561089f57600080fd5b505af11580156108b3573d6000803e3d6000fd5b50505050600360009054906101000a90046001600160a01b03166001600160a01b031663c03366296040518163ffffffff1660e01b8152600401600060405180830381600087803b15801561090757600080fd5b505af115801561091b573d6000803e3d6000fd5b50505050565b610929610a6f565b600555565b610936610a6f565b600354604051636b8d7db760e11b8152600481018390526001600160a01b039091169063d71afb6e906024016104f9565b61096f610a6f565b6001600160a01b0382161580159061098f57506001600160a01b03811615155b6109cb5760405162461bcd60e51b815260206004820152600d60248201526c30b2323932b9b99032b93937b960991b60448201526064016103b5565b600280546001600160a01b039384166001600160a01b03199182161790915560038054929093169116179055565b610a01610a6f565b6001600160a01b038116610a665760405162461bcd60e51b815260206004820152602660248201527f4f776e61626c653a206e6577206f776e657220697320746865207a65726f206160448201526564647265737360d01b60648201526084016103b5565b6104c181610bdd565b6000546001600160a01b031633146106315760405162461bcd60e51b815260206004820181905260248201527f4f776e61626c653a2063616c6c6572206973206e6f7420746865206f776e657260448201526064016103b5565b604080516001600160a01b038481166024830152604480830185905283518084039091018152606490920183526020820180516001600160e01b031663a9059cbb60e01b1790529151600092839290871691610b259190610d39565b6000604051808303816000865af19150503d8060008114610b62576040519150601f19603f3d011682016040523d82523d6000602084013e610b67565b606091505b5091509150818015610b91575080511580610b91575080806020019051810190610b919190610d68565b6105275760405162461bcd60e51b815260206004820152601f60248201527f5472616e7366657248656c7065723a205452414e534645525f4641494c45440060448201526064016103b5565b600080546001600160a01b038381166001600160a01b0319831681178455604051919092169283917f8be0079c531659141344cd1fd0a4f28419497f9722a3daafe3b4186f6b6457e09190a35050565b600060208284031215610c3f57600080fd5b5035919050565b6001600160a01b03811681146104c157600080fd5b600060208284031215610c6d57600080fd5b8135610c7881610c46565b9392505050565b60008060408385031215610c9257600080fd5b8235610c9d81610c46565b91506020830135610cad81610c46565b809150509250929050565b634e487b7160e01b600052601160045260246000fd5b80820180821115610ce157610ce1610cb8565b92915050565b8082028115828204841417610ce157610ce1610cb8565b600082610d1b57634e487b7160e01b600052601260045260246000fd5b500490565b600060208284031215610d3257600080fd5b5051919050565b6000825160005b81811015610d5a5760208186018101518583015201610d40565b506000920191825250919050565b600060208284031215610d7a57600080fd5b81518015158114610c7857600080fdfea264697066735822122059f8ea4c358705872fb156b31c8806e00507140945683e9ae34589d147ac2a7f64736f6c63430008120033",
					"opcodes": "PUSH1 0xA0 PUSH1 0x40 MSTORE PUSH1 0x64 PUSH1 0x80 MSTORE CALLVALUE DUP1 ISZERO PUSH2 0x15 JUMPI PUSH1 0x0 DUP1 REVERT JUMPDEST POP PUSH1 0x40 MLOAD PUSH2 0xED5 CODESIZE SUB DUP1 PUSH2 0xED5 DUP4 CODECOPY DUP2 ADD PUSH1 0x40 DUP2 SWAP1 MSTORE PUSH2 0x34 SWAP2 PUSH2 0xBC JUMP JUMPDEST PUSH2 0x3D CALLER PUSH2 0x6C JUMP JUMPDEST PUSH1 0x1 DUP1 SLOAD PUSH1 0x1 PUSH1 0x1 PUSH1 0xA0 SHL SUB NOT AND PUSH1 0x1 PUSH1 0x1 PUSH1 0xA0 SHL SUB SWAP3 SWAP1 SWAP3 AND SWAP2 SWAP1 SWAP2 OR SWAP1 SSTORE PUSH1 0x32 PUSH1 0x4 DUP2 SWAP1 SSTORE PUSH1 0x5 SSTORE PUSH2 0xEC JUMP JUMPDEST PUSH1 0x0 DUP1 SLOAD PUSH1 0x1 PUSH1 0x1 PUSH1 0xA0 SHL SUB DUP4 DUP2 AND PUSH1 0x1 PUSH1 0x1 PUSH1 0xA0 SHL SUB NOT DUP4 AND DUP2 OR DUP5 SSTORE PUSH1 0x40 MLOAD SWAP2 SWAP1 SWAP3 AND SWAP3 DUP4 SWAP2 PUSH32 0x8BE0079C531659141344CD1FD0A4F28419497F9722A3DAAFE3B4186F6B6457E0 SWAP2 SWAP1 LOG3 POP POP JUMP JUMPDEST PUSH1 0x0 PUSH1 0x20 DUP3 DUP5 SUB SLT ISZERO PUSH2 0xCE JUMPI PUSH1 0x0 DUP1 REVERT JUMPDEST DUP2 MLOAD PUSH1 0x1 PUSH1 0x1 PUSH1 0xA0 SHL SUB DUP2 AND DUP2 EQ PUSH2 0xE5 JUMPI PUSH1 0x0 DUP1 REVERT JUMPDEST SWAP4 SWAP3 POP POP POP JUMP JUMPDEST PUSH1 0x80 MLOAD PUSH2 0xDC0 PUSH2 0x115 PUSH1 0x0 CODECOPY PUSH1 0x0 DUP2 DUP2 PUSH2 0x290 ADD MSTORE DUP2 DUP2 PUSH2 0x441 ADD MSTORE PUSH2 0x497 ADD MSTORE PUSH2 0xDC0 PUSH1 0x0 RETURN INVALID PUSH1 0x80 PUSH1 0x40 MSTORE CALLVALUE DUP1 ISZERO PUSH2 0x10 JUMPI PUSH1 0x0 DUP1 REVERT JUMPDEST POP PUSH1 0x4 CALLDATASIZE LT PUSH2 0x173 JUMPI PUSH1 0x0 CALLDATALOAD PUSH1 0xE0 SHR DUP1 PUSH4 0xA257DB8E GT PUSH2 0xDE JUMPI DUP1 PUSH4 0xD872D6CB GT PUSH2 0x97 JUMPI DUP1 PUSH4 0xEA1502FB GT PUSH2 0x71 JUMPI DUP1 PUSH4 0xEA1502FB EQ PUSH2 0x306 JUMPI DUP1 PUSH4 0xEF4BF8D9 EQ PUSH2 0x319 JUMPI DUP1 PUSH4 0xF09A4016 EQ PUSH2 0x32C JUMPI DUP1 PUSH4 0xF2FDE38B EQ PUSH2 0x33F JUMPI PUSH1 0x0 DUP1 REVERT JUMPDEST DUP1 PUSH4 0xD872D6CB EQ PUSH2 0x2D8 JUMPI DUP1 PUSH4 0xE18C7BC1 EQ PUSH2 0x2EB JUMPI DUP1 PUSH4 0xE3CAE000 EQ PUSH2 0x2FE JUMPI PUSH1 0x0 DUP1 REVERT JUMPDEST DUP1 PUSH4 0xA257DB8E EQ PUSH2 0x252 JUMPI DUP1 PUSH4 0xA59B3645 EQ PUSH2 0x265 JUMPI DUP1 PUSH4 0xAA76BB71 EQ PUSH2 0x278 JUMPI DUP1 PUSH4 0xB83282DA EQ PUSH2 0x28B JUMPI DUP1 PUSH4 0xC5B71EB6 EQ PUSH2 0x2B2 JUMPI DUP1 PUSH4 0xCCE69231 EQ PUSH2 0x2C5 JUMPI PUSH1 0x0 DUP1 REVERT JUMPDEST DUP1 PUSH4 0x5D1B4083 GT PUSH2 0x130 JUMPI DUP1 PUSH4 0x5D1B4083 EQ PUSH2 0x1FE JUMPI DUP1 PUSH4 0x6A7C143E EQ PUSH2 0x211 JUMPI DUP1 PUSH4 0x6F9FB98A EQ PUSH2 0x228 JUMPI DUP1 PUSH4 0x715018A6 EQ PUSH2 0x230 JUMPI DUP1 PUSH4 0x8DA5CB5B EQ PUSH2 0x238 JUMPI DUP1 PUSH4 0x960D49B9 EQ PUSH2 0x249 JUMPI PUSH1 0x0 DUP1 REVERT JUMPDEST DUP1 PUSH4 0x12D7205F EQ PUSH2 0x178 JUMPI DUP1 PUSH4 0x208BF176 EQ PUSH2 0x1A8 JUMPI DUP1 PUSH4 0x293BE456 EQ PUSH2 0x1B2 JUMPI DUP1 PUSH4 0x2BD3A019 EQ PUSH2 0x1C5 JUMPI DUP1 PUSH4 0x3FC8CEF3 EQ PUSH2 0x1D8 JUMPI DUP1 PUSH4 0x435ACA6F EQ PUSH2 0x1EB JUMPI JUMPDEST PUSH1 0x0 DUP1 REVERT JUMPDEST PUSH1 0x2 SLOAD PUSH2 0x18B SWAP1 PUSH1 0x1 PUSH1 0x1 PUSH1 0xA0 SHL SUB AND DUP2 JUMP JUMPDEST PUSH1 0x40 MLOAD PUSH1 0x1 PUSH1 0x1 PUSH1 0xA0 SHL SUB SWAP1 SWAP2 AND DUP2 MSTORE PUSH1 0x20 ADD JUMPDEST PUSH1 0x40 MLOAD DUP1 SWAP2 SUB SWAP1 RETURN JUMPDEST PUSH2 0x1B0 PUSH2 0x352 JUMP JUMPDEST STOP JUMPDEST PUSH2 0x1B0 PUSH2 0x1C0 CALLDATASIZE PUSH1 0x4 PUSH2 0xC2D JUMP JUMPDEST PUSH2 0x4C4 JUMP JUMPDEST PUSH2 0x1B0 PUSH2 0x1D3 CALLDATASIZE PUSH1 0x4 PUSH2 0xC2D JUMP JUMPDEST PUSH2 0x52E JUMP JUMPDEST PUSH1 0x1 SLOAD PUSH2 0x18B SWAP1 PUSH1 0x1 PUSH1 0x1 PUSH1 0xA0 SHL SUB AND DUP2 JUMP JUMPDEST PUSH2 0x1B0 PUSH2 0x1F9 CALLDATASIZE PUSH1 0x4 PUSH2 0xC2D JUMP JUMPDEST PUSH2 0x567 JUMP JUMPDEST PUSH2 0x1B0 PUSH2 0x20C CALLDATASIZE PUSH1 0x4 PUSH2 0xC2D JUMP JUMPDEST PUSH2 0x5A0 JUMP JUMPDEST PUSH2 0x21A PUSH1 0x5 SLOAD DUP2 JUMP JUMPDEST PUSH1 0x40 MLOAD SWAP1 DUP2 MSTORE PUSH1 0x20 ADD PUSH2 0x19F JUMP JUMPDEST PUSH2 0x21A PUSH2 0x5AD JUMP JUMPDEST PUSH2 0x1B0 PUSH2 0x61F JUMP JUMPDEST PUSH1 0x0 SLOAD PUSH1 0x1 PUSH1 0x1 PUSH1 0xA0 SHL SUB AND PUSH2 0x18B JUMP JUMPDEST PUSH2 0x21A PUSH1 0x4 SLOAD DUP2 JUMP JUMPDEST PUSH2 0x1B0 PUSH2 0x260 CALLDATASIZE PUSH1 0x4 PUSH2 0xC2D JUMP JUMPDEST PUSH2 0x633 JUMP JUMPDEST PUSH1 0x3 SLOAD PUSH2 0x18B SWAP1 PUSH1 0x1 PUSH1 0x1 PUSH1 0xA0 SHL SUB AND DUP2 JUMP JUMPDEST PUSH2 0x1B0 PUSH2 0x286 CALLDATASIZE PUSH1 0x4 PUSH2 0xC2D JUMP JUMPDEST PUSH2 0x66C JUMP JUMPDEST PUSH2 0x21A PUSH32 0x0 DUP2 JUMP JUMPDEST PUSH2 0x1B0 PUSH2 0x2C0 CALLDATASIZE PUSH1 0x4 PUSH2 0xC5B JUMP JUMPDEST PUSH2 0x6A5 JUMP JUMPDEST PUSH2 0x1B0 PUSH2 0x2D3 CALLDATASIZE PUSH1 0x4 PUSH2 0xC2D JUMP JUMPDEST PUSH2 0x73E JUMP JUMPDEST PUSH2 0x1B0 PUSH2 0x2E6 CALLDATASIZE PUSH1 0x4 PUSH2 0xC2D JUMP JUMPDEST PUSH2 0x777 JUMP JUMPDEST PUSH2 0x1B0 PUSH2 0x2F9 CALLDATASIZE PUSH1 0x4 PUSH2 0xC2D JUMP JUMPDEST PUSH2 0x7B0 JUMP JUMPDEST PUSH2 0x1B0 PUSH2 0x847 JUMP JUMPDEST PUSH2 0x1B0 PUSH2 0x314 CALLDATASIZE PUSH1 0x4 PUSH2 0xC2D JUMP JUMPDEST PUSH2 0x921 JUMP JUMPDEST PUSH2 0x1B0 PUSH2 0x327 CALLDATASIZE PUSH1 0x4 PUSH2 0xC2D JUMP JUMPDEST PUSH2 0x92E JUMP JUMPDEST PUSH2 0x1B0 PUSH2 0x33A CALLDATASIZE PUSH1 0x4 PUSH2 0xC7F JUMP JUMPDEST PUSH2 0x967 JUMP JUMPDEST PUSH2 0x1B0 PUSH2 0x34D CALLDATASIZE PUSH1 0x4 PUSH2 0xC5B JUMP JUMPDEST PUSH2 0x9F9 JUMP JUMPDEST PUSH2 0x35A PUSH2 0xA6F JUMP JUMPDEST PUSH1 0x5 SLOAD PUSH1 0x4 SLOAD PUSH2 0x36A SWAP2 SWAP1 PUSH2 0xCCE JUMP JUMPDEST PUSH1 0x64 EQ PUSH2 0x3BE JUMPI PUSH1 0x40 MLOAD PUSH3 0x461BCD PUSH1 0xE5 SHL DUP2 MSTORE PUSH1 0x20 PUSH1 0x4 DUP3 ADD MSTORE PUSH1 0x1A PUSH1 0x24 DUP3 ADD MSTORE PUSH32 0x616C6C6F636174696F6E20726174696F6E206973206572726F72000000000000 PUSH1 0x44 DUP3 ADD MSTORE PUSH1 0x64 ADD JUMPDEST PUSH1 0x40 MLOAD DUP1 SWAP2 SUB SWAP1 REVERT JUMPDEST PUSH1 0x0 PUSH2 0x3C8 PUSH2 0x5AD JUMP JUMPDEST GT PUSH2 0x415 JUMPI PUSH1 0x40 MLOAD PUSH3 0x461BCD PUSH1 0xE5 SHL DUP2 MSTORE PUSH1 0x20 PUSH1 0x4 DUP3 ADD MSTORE PUSH1 0x19 PUSH1 0x24 DUP3 ADD MSTORE PUSH32 0x636F6E74726163742062616C616E6365206973206572726F7200000000000000 PUSH1 0x44 DUP3 ADD MSTORE PUSH1 0x64 ADD PUSH2 0x3B5 JUMP JUMPDEST PUSH1 0x0 PUSH2 0x41F PUSH2 0x5AD JUMP JUMPDEST PUSH1 0x1 SLOAD PUSH1 0x2 SLOAD PUSH1 0x4 SLOAD SWAP3 SWAP4 POP PUSH2 0x47A SWAP3 PUSH1 0x1 PUSH1 0x1 PUSH1 0xA0 SHL SUB SWAP3 DUP4 AND SWAP3 SWAP1 SWAP2 AND SWAP1 PUSH32 0x0 SWAP1 PUSH2 0x46B SWAP1 DUP7 PUSH2 0xCE7 JUMP JUMPDEST PUSH2 0x475 SWAP2 SWAP1 PUSH2 0xCFE JUMP JUMPDEST PUSH2 0xAC9 JUMP JUMPDEST PUSH1 0x1 SLOAD PUSH1 0x3 SLOAD PUSH1 0x5 SLOAD PUSH2 0x4C1 SWAP3 PUSH1 0x1 PUSH1 0x1 PUSH1 0xA0 SHL SUB SWAP1 DUP2 AND SWAP3 AND SWAP1 PUSH32 0x0 SWAP1 PUSH2 0x46B SWAP1 DUP7 PUSH2 0xCE7 JUMP JUMPDEST POP JUMP JUMPDEST PUSH2 0x4CC PUSH2 0xA6F JUMP JUMPDEST PUSH1 0x2 SLOAD PUSH1 0x40 MLOAD PUSH4 0xE5AD5523 PUSH1 0xE0 SHL DUP2 MSTORE PUSH1 0x4 DUP2 ADD DUP4 SWAP1 MSTORE PUSH1 0x1 PUSH1 0x1 PUSH1 0xA0 SHL SUB SWAP1 SWAP2 AND SWAP1 PUSH4 0xE5AD5523 SWAP1 PUSH1 0x24 ADD JUMPDEST PUSH1 0x0 PUSH1 0x40 MLOAD DUP1 DUP4 SUB DUP2 PUSH1 0x0 DUP8 DUP1 EXTCODESIZE ISZERO DUP1 ISZERO PUSH2 0x513 JUMPI PUSH1 0x0 DUP1 REVERT JUMPDEST POP GAS CALL ISZERO DUP1 ISZERO PUSH2 0x527 JUMPI RETURNDATASIZE PUSH1 0x0 DUP1 RETURNDATACOPY RETURNDATASIZE PUSH1 0x0 REVERT JUMPDEST POP POP POP POP POP JUMP JUMPDEST PUSH2 0x536 PUSH2 0xA6F JUMP JUMPDEST PUSH1 0x3 SLOAD PUSH1 0x40 MLOAD PUSH4 0x42E21959 PUSH1 0xE0 SHL DUP2 MSTORE PUSH1 0x4 DUP2 ADD DUP4 SWAP1 MSTORE PUSH1 0x1 PUSH1 0x1 PUSH1 0xA0 SHL SUB SWAP1 SWAP2 AND SWAP1 PUSH4 0x42E21959 SWAP1 PUSH1 0x24 ADD PUSH2 0x4F9 JUMP JUMPDEST PUSH2 0x56F PUSH2 0xA6F JUMP JUMPDEST PUSH1 0x3 SLOAD PUSH1 0x40 MLOAD PUSH4 0x749469F PUSH1 0xE0 SHL DUP2 MSTORE PUSH1 0x4 DUP2 ADD DUP4 SWAP1 MSTORE PUSH1 0x1 PUSH1 0x1 PUSH1 0xA0 SHL SUB SWAP1 SWAP2 AND SWAP1 PUSH4 0x749469F SWAP1 PUSH1 0x24 ADD PUSH2 0x4F9 JUMP JUMPDEST PUSH2 0x5A8 PUSH2 0xA6F JUMP JUMPDEST PUSH1 0x4 SSTORE JUMP JUMPDEST PUSH1 0x1 SLOAD PUSH1 0x40 MLOAD PUSH4 0x70A08231 PUSH1 0xE0 SHL DUP2 MSTORE ADDRESS PUSH1 0x4 DUP3 ADD MSTORE PUSH1 0x0 SWAP2 PUSH1 0x1 PUSH1 0x1 PUSH1 0xA0 SHL SUB AND SWAP1 PUSH4 0x70A08231 SWAP1 PUSH1 0x24 ADD PUSH1 0x20 PUSH1 0x40 MLOAD DUP1 DUP4 SUB DUP2 DUP7 GAS STATICCALL ISZERO DUP1 ISZERO PUSH2 0x5F6 JUMPI RETURNDATASIZE PUSH1 0x0 DUP1 RETURNDATACOPY RETURNDATASIZE PUSH1 0x0 REVERT JUMPDEST POP POP POP POP PUSH1 0x40 MLOAD RETURNDATASIZE PUSH1 0x1F NOT PUSH1 0x1F DUP3 ADD AND DUP3 ADD DUP1 PUSH1 0x40 MSTORE POP DUP2 ADD SWAP1 PUSH2 0x61A SWAP2 SWAP1 PUSH2 0xD20 JUMP JUMPDEST SWAP1 POP SWAP1 JUMP JUMPDEST PUSH2 0x627 PUSH2 0xA6F JUMP JUMPDEST PUSH2 0x631 PUSH1 0x0 PUSH2 0xBDD JUMP JUMPDEST JUMP JUMPDEST PUSH2 0x63B PUSH2 0xA6F JUMP JUMPDEST PUSH1 0x2 SLOAD PUSH1 0x40 MLOAD PUSH4 0x749469F PUSH1 0xE0 SHL DUP2 MSTORE PUSH1 0x4 DUP2 ADD DUP4 SWAP1 MSTORE PUSH1 0x1 PUSH1 0x1 PUSH1 0xA0 SHL SUB SWAP1 SWAP2 AND SWAP1 PUSH4 0x749469F SWAP1 PUSH1 0x24 ADD PUSH2 0x4F9 JUMP JUMPDEST PUSH2 0x674 PUSH2 0xA6F JUMP JUMPDEST PUSH1 0x3 SLOAD PUSH1 0x40 MLOAD PUSH4 0xE5AD5523 PUSH1 0xE0 SHL DUP2 MSTORE PUSH1 0x4 DUP2 ADD DUP4 SWAP1 MSTORE PUSH1 0x1 PUSH1 0x1 PUSH1 0xA0 SHL SUB SWAP1 SWAP2 AND SWAP1 PUSH4 0xE5AD5523 SWAP1 PUSH1 0x24 ADD PUSH2 0x4F9 JUMP JUMPDEST PUSH2 0x6AD PUSH2 0xA6F JUMP JUMPDEST PUSH1 0x2 SLOAD PUSH1 0x40 MLOAD PUSH4 0x1419841D PUSH1 0xE0 SHL DUP2 MSTORE PUSH1 0x1 PUSH1 0x1 PUSH1 0xA0 SHL SUB DUP4 DUP2 AND PUSH1 0x4 DUP4 ADD MSTORE SWAP1 SWAP2 AND SWAP1 PUSH4 0x1419841D SWAP1 PUSH1 0x24 ADD PUSH1 0x0 PUSH1 0x40 MLOAD DUP1 DUP4 SUB DUP2 PUSH1 0x0 DUP8 DUP1 EXTCODESIZE ISZERO DUP1 ISZERO PUSH2 0x6F4 JUMPI PUSH1 0x0 DUP1 REVERT JUMPDEST POP GAS CALL ISZERO DUP1 ISZERO PUSH2 0x708 JUMPI RETURNDATASIZE PUSH1 0x0 DUP1 RETURNDATACOPY RETURNDATASIZE PUSH1 0x0 REVERT JUMPDEST POP POP PUSH1 0x3 SLOAD PUSH1 0x40 MLOAD PUSH4 0x1419841D PUSH1 0xE0 SHL DUP2 MSTORE PUSH1 0x1 PUSH1 0x1 PUSH1 0xA0 SHL SUB DUP6 DUP2 AND PUSH1 0x4 DUP4 ADD MSTORE SWAP1 SWAP2 AND SWAP3 POP PUSH4 0x1419841D SWAP2 POP PUSH1 0x24 ADD PUSH2 0x4F9 JUMP JUMPDEST PUSH2 0x746 PUSH2 0xA6F JUMP JUMPDEST PUSH1 0x2 SLOAD PUSH1 0x40 MLOAD PUSH4 0x42E21959 PUSH1 0xE0 SHL DUP2 MSTORE PUSH1 0x4 DUP2 ADD DUP4 SWAP1 MSTORE PUSH1 0x1 PUSH1 0x1 PUSH1 0xA0 SHL SUB SWAP1 SWAP2 AND SWAP1 PUSH4 0x42E21959 SWAP1 PUSH1 0x24 ADD PUSH2 0x4F9 JUMP JUMPDEST PUSH2 0x77F PUSH2 0xA6F JUMP JUMPDEST PUSH1 0x2 SLOAD PUSH1 0x40 MLOAD PUSH4 0x6B8D7DB7 PUSH1 0xE1 SHL DUP2 MSTORE PUSH1 0x4 DUP2 ADD DUP4 SWAP1 MSTORE PUSH1 0x1 PUSH1 0x1 PUSH1 0xA0 SHL SUB SWAP1 SWAP2 AND SWAP1 PUSH4 0xD71AFB6E SWAP1 PUSH1 0x24 ADD PUSH2 0x4F9 JUMP JUMPDEST PUSH2 0x7B8 PUSH2 0xA6F JUMP JUMPDEST PUSH1 0x2 SLOAD PUSH1 0x40 MLOAD PUSH4 0x1833C929 PUSH1 0xE3 SHL DUP2 MSTORE PUSH1 0x4 DUP2 ADD DUP4 SWAP1 MSTORE PUSH1 0x1 PUSH1 0x1 PUSH1 0xA0 SHL SUB SWAP1 SWAP2 AND SWAP1 PUSH4 0xC19E4948 SWAP1 PUSH1 0x24 ADD PUSH1 0x0 PUSH1 0x40 MLOAD DUP1 DUP4 SUB DUP2 PUSH1 0x0 DUP8 DUP1 EXTCODESIZE ISZERO DUP1 ISZERO PUSH2 0x7FE JUMPI PUSH1 0x0 DUP1 REVERT JUMPDEST POP GAS CALL ISZERO DUP1 ISZERO PUSH2 0x812 JUMPI RETURNDATASIZE PUSH1 0x0 DUP1 RETURNDATACOPY RETURNDATASIZE PUSH1 0x0 REVERT JUMPDEST POP POP PUSH1 0x3 SLOAD PUSH1 0x40 MLOAD PUSH4 0x1833C929 PUSH1 0xE3 SHL DUP2 MSTORE PUSH1 0x4 DUP2 ADD DUP6 SWAP1 MSTORE PUSH1 0x1 PUSH1 0x1 PUSH1 0xA0 SHL SUB SWAP1 SWAP2 AND SWAP3 POP PUSH4 0xC19E4948 SWAP2 POP PUSH1 0x24 ADD PUSH2 0x4F9 JUMP JUMPDEST PUSH2 0x84F PUSH2 0xA6F JUMP JUMPDEST PUSH1 0x2 PUSH1 0x0 SWAP1 SLOAD SWAP1 PUSH2 0x100 EXP SWAP1 DIV PUSH1 0x1 PUSH1 0x1 PUSH1 0xA0 SHL SUB AND PUSH1 0x1 PUSH1 0x1 PUSH1 0xA0 SHL SUB AND PUSH4 0xC0336629 PUSH1 0x40 MLOAD DUP2 PUSH4 0xFFFFFFFF AND PUSH1 0xE0 SHL DUP2 MSTORE PUSH1 0x4 ADD PUSH1 0x0 PUSH1 0x40 MLOAD DUP1 DUP4 SUB DUP2 PUSH1 0x0 DUP8 DUP1 EXTCODESIZE ISZERO DUP1 ISZERO PUSH2 0x89F JUMPI PUSH1 0x0 DUP1 REVERT JUMPDEST POP GAS CALL ISZERO DUP1 ISZERO PUSH2 0x8B3 JUMPI RETURNDATASIZE PUSH1 0x0 DUP1 RETURNDATACOPY RETURNDATASIZE PUSH1 0x0 REVERT JUMPDEST POP POP POP POP PUSH1 0x3 PUSH1 0x0 SWAP1 SLOAD SWAP1 PUSH2 0x100 EXP SWAP1 DIV PUSH1 0x1 PUSH1 0x1 PUSH1 0xA0 SHL SUB AND PUSH1 0x1 PUSH1 0x1 PUSH1 0xA0 SHL SUB AND PUSH4 0xC0336629 PUSH1 0x40 MLOAD DUP2 PUSH4 0xFFFFFFFF AND PUSH1 0xE0 SHL DUP2 MSTORE PUSH1 0x4 ADD PUSH1 0x0 PUSH1 0x40 MLOAD DUP1 DUP4 SUB DUP2 PUSH1 0x0 DUP8 DUP1 EXTCODESIZE ISZERO DUP1 ISZERO PUSH2 0x907 JUMPI PUSH1 0x0 DUP1 REVERT JUMPDEST POP GAS CALL ISZERO DUP1 ISZERO PUSH2 0x91B JUMPI RETURNDATASIZE PUSH1 0x0 DUP1 RETURNDATACOPY RETURNDATASIZE PUSH1 0x0 REVERT JUMPDEST POP POP POP POP JUMP JUMPDEST PUSH2 0x929 PUSH2 0xA6F JUMP JUMPDEST PUSH1 0x5 SSTORE JUMP JUMPDEST PUSH2 0x936 PUSH2 0xA6F JUMP JUMPDEST PUSH1 0x3 SLOAD PUSH1 0x40 MLOAD PUSH4 0x6B8D7DB7 PUSH1 0xE1 SHL DUP2 MSTORE PUSH1 0x4 DUP2 ADD DUP4 SWAP1 MSTORE PUSH1 0x1 PUSH1 0x1 PUSH1 0xA0 SHL SUB SWAP1 SWAP2 AND SWAP1 PUSH4 0xD71AFB6E SWAP1 PUSH1 0x24 ADD PUSH2 0x4F9 JUMP JUMPDEST PUSH2 0x96F PUSH2 0xA6F JUMP JUMPDEST PUSH1 0x1 PUSH1 0x1 PUSH1 0xA0 SHL SUB DUP3 AND ISZERO DUP1 ISZERO SWAP1 PUSH2 0x98F JUMPI POP PUSH1 0x1 PUSH1 0x1 PUSH1 0xA0 SHL SUB DUP2 AND ISZERO ISZERO JUMPDEST PUSH2 0x9CB JUMPI PUSH1 0x40 MLOAD PUSH3 0x461BCD PUSH1 0xE5 SHL DUP2 MSTORE PUSH1 0x20 PUSH1 0x4 DUP3 ADD MSTORE PUSH1 0xD PUSH1 0x24 DUP3 ADD MSTORE PUSH13 0x30B2323932B9B99032B93937B9 PUSH1 0x99 SHL PUSH1 0x44 DUP3 ADD MSTORE PUSH1 0x64 ADD PUSH2 0x3B5 JUMP JUMPDEST PUSH1 0x2 DUP1 SLOAD PUSH1 0x1 PUSH1 0x1 PUSH1 0xA0 SHL SUB SWAP4 DUP5 AND PUSH1 0x1 PUSH1 0x1 PUSH1 0xA0 SHL SUB NOT SWAP2 DUP3 AND OR SWAP1 SWAP2 SSTORE PUSH1 0x3 DUP1 SLOAD SWAP3 SWAP1 SWAP4 AND SWAP2 AND OR SWAP1 SSTORE JUMP JUMPDEST PUSH2 0xA01 PUSH2 0xA6F JUMP JUMPDEST PUSH1 0x1 PUSH1 0x1 PUSH1 0xA0 SHL SUB DUP2 AND PUSH2 0xA66 JUMPI PUSH1 0x40 MLOAD PUSH3 0x461BCD PUSH1 0xE5 SHL DUP2 MSTORE PUSH1 0x20 PUSH1 0x4 DUP3 ADD MSTORE PUSH1 0x26 PUSH1 0x24 DUP3 ADD MSTORE PUSH32 0x4F776E61626C653A206E6577206F776E657220697320746865207A65726F2061 PUSH1 0x44 DUP3 ADD MSTORE PUSH6 0x646472657373 PUSH1 0xD0 SHL PUSH1 0x64 DUP3 ADD MSTORE PUSH1 0x84 ADD PUSH2 0x3B5 JUMP JUMPDEST PUSH2 0x4C1 DUP2 PUSH2 0xBDD JUMP JUMPDEST PUSH1 0x0 SLOAD PUSH1 0x1 PUSH1 0x1 PUSH1 0xA0 SHL SUB AND CALLER EQ PUSH2 0x631 JUMPI PUSH1 0x40 MLOAD PUSH3 0x461BCD PUSH1 0xE5 SHL DUP2 MSTORE PUSH1 0x20 PUSH1 0x4 DUP3 ADD DUP2 SWAP1 MSTORE PUSH1 0x24 DUP3 ADD MSTORE PUSH32 0x4F776E61626C653A2063616C6C6572206973206E6F7420746865206F776E6572 PUSH1 0x44 DUP3 ADD MSTORE PUSH1 0x64 ADD PUSH2 0x3B5 JUMP JUMPDEST PUSH1 0x40 DUP1 MLOAD PUSH1 0x1 PUSH1 0x1 PUSH1 0xA0 SHL SUB DUP5 DUP2 AND PUSH1 0x24 DUP4 ADD MSTORE PUSH1 0x44 DUP1 DUP4 ADD DUP6 SWAP1 MSTORE DUP4 MLOAD DUP1 DUP5 SUB SWAP1 SWAP2 ADD DUP2 MSTORE PUSH1 0x64 SWAP1 SWAP3 ADD DUP4 MSTORE PUSH1 0x20 DUP3 ADD DUP1 MLOAD PUSH1 0x1 PUSH1 0x1 PUSH1 0xE0 SHL SUB AND PUSH4 0xA9059CBB PUSH1 0xE0 SHL OR SWAP1 MSTORE SWAP2 MLOAD PUSH1 0x0 SWAP3 DUP4 SWAP3 SWAP1 DUP8 AND SWAP2 PUSH2 0xB25 SWAP2 SWAP1 PUSH2 0xD39 JUMP JUMPDEST PUSH1 0x0 PUSH1 0x40 MLOAD DUP1 DUP4 SUB DUP2 PUSH1 0x0 DUP7 GAS CALL SWAP2 POP POP RETURNDATASIZE DUP1 PUSH1 0x0 DUP2 EQ PUSH2 0xB62 JUMPI PUSH1 0x40 MLOAD SWAP2 POP PUSH1 0x1F NOT PUSH1 0x3F RETURNDATASIZE ADD AND DUP3 ADD PUSH1 0x40 MSTORE RETURNDATASIZE DUP3 MSTORE RETURNDATASIZE PUSH1 0x0 PUSH1 0x20 DUP5 ADD RETURNDATACOPY PUSH2 0xB67 JUMP JUMPDEST PUSH1 0x60 SWAP2 POP JUMPDEST POP SWAP2 POP SWAP2 POP DUP2 DUP1 ISZERO PUSH2 0xB91 JUMPI POP DUP1 MLOAD ISZERO DUP1 PUSH2 0xB91 JUMPI POP DUP1 DUP1 PUSH1 0x20 ADD SWAP1 MLOAD DUP2 ADD SWAP1 PUSH2 0xB91 SWAP2 SWAP1 PUSH2 0xD68 JUMP JUMPDEST PUSH2 0x527 JUMPI PUSH1 0x40 MLOAD PUSH3 0x461BCD PUSH1 0xE5 SHL DUP2 MSTORE PUSH1 0x20 PUSH1 0x4 DUP3 ADD MSTORE PUSH1 0x1F PUSH1 0x24 DUP3 ADD MSTORE PUSH32 0x5472616E7366657248656C7065723A205452414E534645525F4641494C454400 PUSH1 0x44 DUP3 ADD MSTORE PUSH1 0x64 ADD PUSH2 0x3B5 JUMP JUMPDEST PUSH1 0x0 DUP1 SLOAD PUSH1 0x1 PUSH1 0x1 PUSH1 0xA0 SHL SUB DUP4 DUP2 AND PUSH1 0x1 PUSH1 0x1 PUSH1 0xA0 SHL SUB NOT DUP4 AND DUP2 OR DUP5 SSTORE PUSH1 0x40 MLOAD SWAP2 SWAP1 SWAP3 AND SWAP3 DUP4 SWAP2 PUSH32 0x8BE0079C531659141344CD1FD0A4F28419497F9722A3DAAFE3B4186F6B6457E0 SWAP2 SWAP1 LOG3 POP POP JUMP JUMPDEST PUSH1 0x0 PUSH1 0x20 DUP3 DUP5 SUB SLT ISZERO PUSH2 0xC3F JUMPI PUSH1 0x0 DUP1 REVERT JUMPDEST POP CALLDATALOAD SWAP2 SWAP1 POP JUMP JUMPDEST PUSH1 0x1 PUSH1 0x1 PUSH1 0xA0 SHL SUB DUP2 AND DUP2 EQ PUSH2 0x4C1 JUMPI PUSH1 0x0 DUP1 REVERT JUMPDEST PUSH1 0x0 PUSH1 0x20 DUP3 DUP5 SUB SLT ISZERO PUSH2 0xC6D JUMPI PUSH1 0x0 DUP1 REVERT JUMPDEST DUP2 CALLDATALOAD PUSH2 0xC78 DUP2 PUSH2 0xC46 JUMP JUMPDEST SWAP4 SWAP3 POP POP POP JUMP JUMPDEST PUSH1 0x0 DUP1 PUSH1 0x40 DUP4 DUP6 SUB SLT ISZERO PUSH2 0xC92 JUMPI PUSH1 0x0 DUP1 REVERT JUMPDEST DUP3 CALLDATALOAD PUSH2 0xC9D DUP2 PUSH2 0xC46 JUMP JUMPDEST SWAP2 POP PUSH1 0x20 DUP4 ADD CALLDATALOAD PUSH2 0xCAD DUP2 PUSH2 0xC46 JUMP JUMPDEST DUP1 SWAP2 POP POP SWAP3 POP SWAP3 SWAP1 POP JUMP JUMPDEST PUSH4 0x4E487B71 PUSH1 0xE0 SHL PUSH1 0x0 MSTORE PUSH1 0x11 PUSH1 0x4 MSTORE PUSH1 0x24 PUSH1 0x0 REVERT JUMPDEST DUP1 DUP3 ADD DUP1 DUP3 GT ISZERO PUSH2 0xCE1 JUMPI PUSH2 0xCE1 PUSH2 0xCB8 JUMP JUMPDEST SWAP3 SWAP2 POP POP JUMP JUMPDEST DUP1 DUP3 MUL DUP2 ISZERO DUP3 DUP3 DIV DUP5 EQ OR PUSH2 0xCE1 JUMPI PUSH2 0xCE1 PUSH2 0xCB8 JUMP JUMPDEST PUSH1 0x0 DUP3 PUSH2 0xD1B JUMPI PUSH4 0x4E487B71 PUSH1 0xE0 SHL PUSH1 0x0 MSTORE PUSH1 0x12 PUSH1 0x4 MSTORE PUSH1 0x24 PUSH1 0x0 REVERT JUMPDEST POP DIV SWAP1 JUMP JUMPDEST PUSH1 0x0 PUSH1 0x20 DUP3 DUP5 SUB SLT ISZERO PUSH2 0xD32 JUMPI PUSH1 0x0 DUP1 REVERT JUMPDEST POP MLOAD SWAP2 SWAP1 POP JUMP JUMPDEST PUSH1 0x0 DUP3 MLOAD PUSH1 0x0 JUMPDEST DUP2 DUP2 LT ISZERO PUSH2 0xD5A JUMPI PUSH1 0x20 DUP2 DUP7 ADD DUP2 ADD MLOAD DUP6 DUP4 ADD MSTORE ADD PUSH2 0xD40 JUMP JUMPDEST POP PUSH1 0x0 SWAP3 ADD SWAP2 DUP3 MSTORE POP SWAP2 SWAP1 POP JUMP JUMPDEST PUSH1 0x0 PUSH1 0x20 DUP3 DUP5 SUB SLT ISZERO PUSH2 0xD7A JUMPI PUSH1 0x0 DUP1 REVERT JUMPDEST DUP2 MLOAD DUP1 ISZERO ISZERO DUP2 EQ PUSH2 0xC78 JUMPI PUSH1 0x0 DUP1 REVERT INVALID LOG2 PUSH5 0x6970667358 0x22 SLT KECCAK256 MSIZE 0xF8 0xEA 0x4C CALLDATALOAD DUP8 SDIV DUP8 0x2F 0xB1 JUMP 0xB3 SHR DUP9 MOD 0xE0 SDIV SMOD EQ MULMOD GASLIMIT PUSH9 0x3E9AE34589D147AC2A PUSH32 0x64736F6C63430008120033000000000000000000000000000000000000000000 "
				},
				"gasEstimates": {
					"creation": {
						"codeDepositCost": "704000",
						"executionCost": "infinite",
						"totalCost": "infinite"
					},
					"external": {
						"EMERGENCY_POOL_RATIO()": "2340",
						"FEE_RATIO()": "infinite",
						"NORMAL_POOL_RATIO()": "2428",
						"_setAddressFrequency(uint256)": "infinite",
						"_setQuota(uint256)": "infinite",
						"_setReputationAmount(uint256)": "infinite",
						"_setReward(uint256)": "infinite",
						"_setStatus()": "infinite",
						"_setTimeFrequency(uint256)": "infinite",
						"_setUniswapV2Router(address)": "infinite",
						"emergencyPool()": "2371",
						"fundAllocation()": "infinite",
						"getContractBalance()": "infinite",
						"init(address,address)": "infinite",
						"normalPool()": "2350",
						"owner()": "2431",
						"renounceOwnership()": "infinite",
						"setAddressFrequency(uint256)": "infinite",
						"setEMERGENCY_POOL_RATIO(uint256)": "24532",
						"setNORMAL_POOL_RATIO(uint256)": "24511",
						"setQuota(uint256)": "infinite",
						"setReward(uint256)": "infinite",
						"setTimeFrequency(uint256)": "infinite",
						"transferOwnership(address)": "infinite",
						"weth()": "2438"
					}
				},
				"methodIdentifiers": {
					"EMERGENCY_POOL_RATIO()": "6a7c143e",
					"FEE_RATIO()": "b83282da",
					"NORMAL_POOL_RATIO()": "960d49b9",
					"_setAddressFrequency(uint256)": "ef4bf8d9",
					"_setQuota(uint256)": "435aca6f",
					"_setReputationAmount(uint256)": "e18c7bc1",
					"_setReward(uint256)": "aa76bb71",
					"_setStatus()": "e3cae000",
					"_setTimeFrequency(uint256)": "2bd3a019",
					"_setUniswapV2Router(address)": "c5b71eb6",
					"emergencyPool()": "a59b3645",
					"fundAllocation()": "208bf176",
					"getContractBalance()": "6f9fb98a",
					"init(address,address)": "f09a4016",
					"normalPool()": "12d7205f",
					"owner()": "8da5cb5b",
					"renounceOwnership()": "715018a6",
					"setAddressFrequency(uint256)": "d872d6cb",
					"setEMERGENCY_POOL_RATIO(uint256)": "ea1502fb",
					"setNORMAL_POOL_RATIO(uint256)": "5d1b4083",
					"setQuota(uint256)": "a257db8e",
					"setReward(uint256)": "293be456",
					"setTimeFrequency(uint256)": "cce69231",
					"transferOwnership(address)": "f2fde38b",
					"weth()": "3fc8cef3"
				}
			},
			"storageLayout": {
				"storage": [
					{
						"astId": 7,
						"contract": "contracts/poolManager.sol:poolManager",
						"label": "_owner",
						"offset": 0,
						"slot": "0",
						"type": "t_address"
					},
					{
						"astId": 813,
						"contract": "contracts/poolManager.sol:poolManager",
						"label": "weth",
						"offset": 0,
						"slot": "1",
						"type": "t_address"
					},
					{
						"astId": 815,
						"contract": "contracts/poolManager.sol:poolManager",
						"label": "normalPool",
						"offset": 0,
						"slot": "2",
						"type": "t_address"
					},
					{
						"astId": 817,
						"contract": "contracts/poolManager.sol:poolManager",
						"label": "emergencyPool",
						"offset": 0,
						"slot": "3",
						"type": "t_address"
					},
					{
						"astId": 822,
						"contract": "contracts/poolManager.sol:poolManager",
						"label": "NORMAL_POOL_RATIO",
						"offset": 0,
						"slot": "4",
						"type": "t_uint256"
					},
					{
						"astId": 824,
						"contract": "contracts/poolManager.sol:poolManager",
						"label": "EMERGENCY_POOL_RATIO",
						"offset": 0,
						"slot": "5",
						"type": "t_uint256"
					}
				],
				"types": {
					"t_address": {
						"encoding": "inplace",
						"label": "address",
						"numberOfBytes": "20"
					},
					"t_uint256": {
						"encoding": "inplace",
						"label": "uint256",
						"numberOfBytes": "32"
					}
				}
			},
			"userdoc": {
				"kind": "user",
				"methods": {},
				"version": 1
			}
		}
	}
}