{
	"contracts/CityNodeTreasury.sol": {
		"CityNodeTreasury": {
			"abi": [
				{
					"inputs": [
						{
							"internalType": "address payable",
							"name": "_admin",
							"type": "address"
						},
						{
							"internalType": "address",
							"name": "_cityNode",
							"type": "address"
						}
					],
					"stateMutability": "nonpayable",
					"type": "constructor"
				},
				{
					"inputs": [],
					"name": "AllocationAmount",
					"outputs": [],
					"stateMutability": "nonpayable",
					"type": "function"
				},
				{
					"inputs": [
						{
							"internalType": "uint256",
							"name": "",
							"type": "uint256"
						}
					],
					"name": "AllocationFundAddress",
					"outputs": [
						{
							"internalType": "address",
							"name": "",
							"type": "address"
						}
					],
					"stateMutability": "view",
					"type": "function"
				},
				{
					"inputs": [],
					"name": "DestructStatus",
					"outputs": [
						{
							"internalType": "bool",
							"name": "",
							"type": "bool"
						}
					],
					"stateMutability": "view",
					"type": "function"
				},
				{
					"inputs": [],
					"name": "WETH",
					"outputs": [
						{
							"internalType": "contract IERC20",
							"name": "",
							"type": "address"
						}
					],
					"stateMutability": "view",
					"type": "function"
				},
				{
					"inputs": [
						{
							"internalType": "address",
							"name": "assigned",
							"type": "address"
						}
					],
					"name": "addAddress",
					"outputs": [],
					"stateMutability": "nonpayable",
					"type": "function"
				},
				{
					"inputs": [
						{
							"internalType": "uint256",
							"name": "_rate",
							"type": "uint256"
						}
					],
					"name": "addRate",
					"outputs": [],
					"stateMutability": "nonpayable",
					"type": "function"
				},
				{
					"inputs": [],
					"name": "admin",
					"outputs": [
						{
							"internalType": "address payable",
							"name": "",
							"type": "address"
						}
					],
					"stateMutability": "view",
					"type": "function"
				},
				{
					"inputs": [],
					"name": "cityNode",
					"outputs": [
						{
							"internalType": "address",
							"name": "",
							"type": "address"
						}
					],
					"stateMutability": "view",
					"type": "function"
				},
				{
					"inputs": [],
					"name": "getBalanceOfWeth",
					"outputs": [
						{
							"internalType": "uint256",
							"name": "",
							"type": "uint256"
						}
					],
					"stateMutability": "view",
					"type": "function"
				},
				{
					"inputs": [],
					"name": "getDestructStatus",
					"outputs": [
						{
							"internalType": "bool",
							"name": "",
							"type": "bool"
						}
					],
					"stateMutability": "view",
					"type": "function"
				},
				{
					"inputs": [
						{
							"internalType": "uint256",
							"name": "",
							"type": "uint256"
						}
					],
					"name": "rate",
					"outputs": [
						{
							"internalType": "uint256",
							"name": "",
							"type": "uint256"
						}
					],
					"stateMutability": "view",
					"type": "function"
				},
				{
					"inputs": [
						{
							"internalType": "uint256",
							"name": "num",
							"type": "uint256"
						},
						{
							"internalType": "address",
							"name": "_add",
							"type": "address"
						}
					],
					"name": "setAddress",
					"outputs": [],
					"stateMutability": "nonpayable",
					"type": "function"
				},
				{
					"inputs": [
						{
							"internalType": "uint256",
							"name": "num",
							"type": "uint256"
						},
						{
							"internalType": "uint256",
							"name": "_rate",
							"type": "uint256"
						}
					],
					"name": "setRate",
					"outputs": [],
					"stateMutability": "nonpayable",
					"type": "function"
				},
				{
					"inputs": [
						{
							"internalType": "contract IERC20",
							"name": "_weth",
							"type": "address"
						}
					],
					"name": "setToken",
					"outputs": [],
					"stateMutability": "nonpayable",
					"type": "function"
				},
				{
					"inputs": [
						{
							"internalType": "address",
							"name": "_to",
							"type": "address"
						},
						{
							"internalType": "uint256",
							"name": "amount",
							"type": "uint256"
						}
					],
					"name": "transferAmount",
					"outputs": [],
					"stateMutability": "nonpayable",
					"type": "function"
				},
				{
					"inputs": [
						{
							"internalType": "address",
							"name": "_admin",
							"type": "address"
						},
						{
							"internalType": "address payable",
							"name": "_to",
							"type": "address"
						}
					],
					"name": "transferOwner",
					"outputs": [],
					"stateMutability": "nonpayable",
					"type": "function"
				}
			],
			"devdoc": {
				"kind": "dev",
				"methods": {},
				"version": 1
			},
			"evm": {
				"assembly": "    /* \"contracts/CityNodeTreasury.sol\":115:1785  contract CityNodeTreasury  {... */\n  mstore(0x40, 0x80)\n    /* \"contracts/CityNodeTreasury.sol\":425:541  constructor(address payable _admin, address _cityNode) {... */\n  callvalue\n  dup1\n  iszero\n  tag_1\n  jumpi\n  0x00\n  dup1\n  revert\ntag_1:\n  pop\n  mload(0x40)\n  sub(codesize, bytecodeSize)\n  dup1\n  bytecodeSize\n  dup4\n  codecopy\n  dup2\n  add\n  0x40\n  dup2\n  swap1\n  mstore\n  tag_2\n  swap2\n  tag_3\n  jump\t// in\ntag_2:\n    /* \"contracts/CityNodeTreasury.sol\":490:495  admin */\n  0x03\n    /* \"contracts/CityNodeTreasury.sol\":490:504  admin = _admin */\n  dup1\n  sload\n  sub(shl(0xa0, 0x01), 0x01)\n  swap4\n  dup5\n  and\n  not(sub(shl(0xa0, 0x01), 0x01))\n  swap2\n  dup3\n  and\n  or\n  swap1\n  swap2\n  sstore\n    /* \"contracts/CityNodeTreasury.sol\":514:522  cityNode */\n  0x04\n    /* \"contracts/CityNodeTreasury.sol\":514:534  cityNode = _cityNode */\n  dup1\n  sload\n  swap3\n  swap1\n  swap4\n  and\n  swap2\n  and\n  or\n  swap1\n  sstore\n    /* \"contracts/CityNodeTreasury.sol\":115:1785  contract CityNodeTreasury  {... */\n  jump(tag_8)\n    /* \"#utility.yul\":14:153   */\ntag_7:\n  sub(shl(0xa0, 0x01), 0x01)\n    /* \"#utility.yul\":97:128   */\n  dup2\n  and\n    /* \"#utility.yul\":87:129   */\n  dup2\n  eq\n    /* \"#utility.yul\":77:147   */\n  tag_10\n  jumpi\n    /* \"#utility.yul\":143:144   */\n  0x00\n    /* \"#utility.yul\":140:141   */\n  dup1\n    /* \"#utility.yul\":133:145   */\n  revert\n    /* \"#utility.yul\":77:147   */\ntag_10:\n    /* \"#utility.yul\":14:153   */\n  pop\n  jump\t// out\n    /* \"#utility.yul\":158:567   */\ntag_3:\n    /* \"#utility.yul\":245:251   */\n  0x00\n    /* \"#utility.yul\":253:259   */\n  dup1\n    /* \"#utility.yul\":306:308   */\n  0x40\n    /* \"#utility.yul\":294:303   */\n  dup4\n    /* \"#utility.yul\":285:292   */\n  dup6\n    /* \"#utility.yul\":281:304   */\n  sub\n    /* \"#utility.yul\":277:309   */\n  slt\n    /* \"#utility.yul\":274:326   */\n  iszero\n  tag_12\n  jumpi\n    /* \"#utility.yul\":322:323   */\n  0x00\n    /* \"#utility.yul\":319:320   */\n  dup1\n    /* \"#utility.yul\":312:324   */\n  revert\n    /* \"#utility.yul\":274:326   */\ntag_12:\n    /* \"#utility.yul\":354:363   */\n  dup3\n    /* \"#utility.yul\":348:364   */\n  mload\n    /* \"#utility.yul\":373:412   */\n  tag_13\n    /* \"#utility.yul\":406:411   */\n  dup2\n    /* \"#utility.yul\":373:412   */\n  tag_7\n  jump\t// in\ntag_13:\n    /* \"#utility.yul\":481:483   */\n  0x20\n    /* \"#utility.yul\":466:484   */\n  dup5\n  add\n    /* \"#utility.yul\":460:485   */\n  mload\n    /* \"#utility.yul\":431:436   */\n  swap1\n  swap3\n  pop\n    /* \"#utility.yul\":494:535   */\n  tag_14\n    /* \"#utility.yul\":460:485   */\n  dup2\n    /* \"#utility.yul\":494:535   */\n  tag_7\n  jump\t// in\ntag_14:\n    /* \"#utility.yul\":554:561   */\n  dup1\n    /* \"#utility.yul\":544:561   */\n  swap2\n  pop\n  pop\n    /* \"#utility.yul\":158:567   */\n  swap3\n  pop\n  swap3\n  swap1\n  pop\n  jump\t// out\ntag_8:\n    /* \"contracts/CityNodeTreasury.sol\":115:1785  contract CityNodeTreasury  {... */\n  dataSize(sub_0)\n  dup1\n  dataOffset(sub_0)\n  0x00\n  codecopy\n  0x00\n  return\nstop\n\nsub_0: assembly {\n        /* \"contracts/CityNodeTreasury.sol\":115:1785  contract CityNodeTreasury  {... */\n      mstore(0x40, 0x80)\n      callvalue\n      dup1\n      iszero\n      tag_1\n      jumpi\n      0x00\n      dup1\n      revert\n    tag_1:\n      pop\n      jumpi(tag_2, lt(calldatasize, 0x04))\n      shr(0xe0, calldataload(0x00))\n      dup1\n      0x8fc99ea3\n      gt\n      tag_19\n      jumpi\n      dup1\n      0xd7081e03\n      gt\n      tag_20\n      jumpi\n      dup1\n      0xd7081e03\n      eq\n      tag_15\n      jumpi\n      dup1\n      0xe7ee6ad6\n      eq\n      tag_16\n      jumpi\n      dup1\n      0xf851a440\n      eq\n      tag_17\n      jumpi\n      dup1\n      0xfa46b690\n      eq\n      tag_18\n      jumpi\n      0x00\n      dup1\n      revert\n    tag_20:\n      dup1\n      0x8fc99ea3\n      eq\n      tag_11\n      jumpi\n      dup1\n      0xac4ce2c6\n      eq\n      tag_12\n      jumpi\n      dup1\n      0xad5c4648\n      eq\n      tag_13\n      jumpi\n      dup1\n      0xb8ac457b\n      eq\n      tag_14\n      jumpi\n      0x00\n      dup1\n      revert\n    tag_19:\n      dup1\n      0x38eada1c\n      gt\n      tag_21\n      jumpi\n      dup1\n      0x38eada1c\n      eq\n      tag_7\n      jumpi\n      dup1\n      0x46df2ccb\n      eq\n      tag_8\n      jumpi\n      dup1\n      0x6711be0e\n      eq\n      tag_9\n      jumpi\n      dup1\n      0x70ca09bc\n      eq\n      tag_10\n      jumpi\n      0x00\n      dup1\n      revert\n    tag_21:\n      dup1\n      0x09f14a5c\n      eq\n      tag_3\n      jumpi\n      dup1\n      0x144fa6d7\n      eq\n      tag_4\n      jumpi\n      dup1\n      0x1de1e2ac\n      eq\n      tag_5\n      jumpi\n      dup1\n      0x31678cf6\n      eq\n      tag_6\n      jumpi\n    tag_2:\n      0x00\n      dup1\n      revert\n        /* \"contracts/CityNodeTreasury.sol\":804:882  function addRate(uint _rate) public onlyAdmin{... */\n    tag_3:\n      tag_22\n      tag_23\n      calldatasize\n      0x04\n      tag_24\n      jump\t// in\n    tag_23:\n      tag_25\n      jump\t// in\n    tag_22:\n      stop\n        /* \"contracts/CityNodeTreasury.sol\":546:624  function setToken(IERC20 _weth) public onlyAdmin {... */\n    tag_4:\n      tag_22\n      tag_27\n      calldatasize\n      0x04\n      tag_28\n      jump\t// in\n    tag_27:\n      tag_29\n      jump\t// in\n        /* \"contracts/CityNodeTreasury.sol\":172:210  address[] public AllocationFundAddress */\n    tag_5:\n      tag_30\n      tag_31\n      calldatasize\n      0x04\n      tag_24\n      jump\t// in\n    tag_31:\n      tag_32\n      jump\t// in\n    tag_30:\n      mload(0x40)\n      sub(shl(0xa0, 0x01), 0x01)\n        /* \"#utility.yul\":780:812   */\n      swap1\n      swap2\n      and\n        /* \"#utility.yul\":762:813   */\n      dup2\n      mstore\n        /* \"#utility.yul\":750:752   */\n      0x20\n        /* \"#utility.yul\":735:753   */\n      add\n        /* \"contracts/CityNodeTreasury.sol\":172:210  address[] public AllocationFundAddress */\n    tag_33:\n      mload(0x40)\n      dup1\n      swap2\n      sub\n      swap1\n      return\n        /* \"contracts/CityNodeTreasury.sol\":629:799  function transferOwner(address _admin ,address payable _to) external  {... */\n    tag_6:\n      tag_22\n      tag_36\n      calldatasize\n      0x04\n      tag_37\n      jump\t// in\n    tag_36:\n      tag_38\n      jump\t// in\n        /* \"contracts/CityNodeTreasury.sol\":887:995  function addAddress(address assigned) public onlyAdmin {... */\n    tag_7:\n      tag_22\n      tag_40\n      calldatasize\n      0x04\n      tag_28\n      jump\t// in\n    tag_40:\n      tag_42\n      jump\t// in\n        /* \"contracts/CityNodeTreasury.sol\":1118:1215  function setRate(uint256 num , uint256 _rate) public onlyAdmin {... */\n    tag_8:\n      tag_22\n      tag_44\n      calldatasize\n      0x04\n      tag_45\n      jump\t// in\n    tag_44:\n      tag_46\n      jump\t// in\n        /* \"contracts/CityNodeTreasury.sol\":1672:1782  function getBalanceOfWeth() public view returns(uint256) {... */\n    tag_9:\n      tag_47\n      tag_48\n      jump\t// in\n    tag_47:\n      mload(0x40)\n        /* \"#utility.yul\":1900:1925   */\n      swap1\n      dup2\n      mstore\n        /* \"#utility.yul\":1888:1890   */\n      0x20\n        /* \"#utility.yul\":1873:1891   */\n      add\n        /* \"contracts/CityNodeTreasury.sol\":1672:1782  function getBalanceOfWeth() public view returns(uint256) {... */\n      tag_33\n        /* \"#utility.yul\":1754:1931   */\n      jump\n        /* \"contracts/CityNodeTreasury.sol\":277:300  address public cityNode */\n    tag_10:\n      sload(0x04)\n      tag_30\n      swap1\n      sub(shl(0xa0, 0x01), 0x01)\n      and\n      dup2\n      jump\n        /* \"contracts/CityNodeTreasury.sol\":306:332  bool public DestructStatus */\n    tag_11:\n      sload(0x04)\n      tag_54\n      swap1\n      shl(0xa0, 0x01)\n      swap1\n      div\n      0xff\n      and\n      dup2\n      jump\n    tag_54:\n      mload(0x40)\n        /* \"#utility.yul\":2101:2115   */\n      swap1\n      iszero\n        /* \"#utility.yul\":2094:2116   */\n      iszero\n        /* \"#utility.yul\":2076:2117   */\n      dup2\n      mstore\n        /* \"#utility.yul\":2064:2066   */\n      0x20\n        /* \"#utility.yul\":2049:2067   */\n      add\n        /* \"contracts/CityNodeTreasury.sol\":306:332  bool public DestructStatus */\n      tag_33\n        /* \"#utility.yul\":1936:2123   */\n      jump\n        /* \"contracts/CityNodeTreasury.sol\":1000:1113  function setAddress(uint256 num , address _add)public onlyAdmin{... */\n    tag_12:\n      tag_22\n      tag_59\n      calldatasize\n      0x04\n      tag_60\n      jump\t// in\n    tag_59:\n      tag_61\n      jump\t// in\n        /* \"contracts/CityNodeTreasury.sol\":148:166  IERC20 public WETH */\n    tag_13:\n      sload(0x00)\n      tag_30\n      swap1\n      sub(shl(0xa0, 0x01), 0x01)\n      and\n      dup2\n      jump\n        /* \"contracts/CityNodeTreasury.sol\":1572:1667  function getDestructStatus() external view returns(bool) {... */\n    tag_14:\n        /* \"contracts/CityNodeTreasury.sol\":1646:1660  DestructStatus */\n      sload(0x04)\n      shl(0xa0, 0x01)\n      swap1\n      div\n      0xff\n      and\n        /* \"contracts/CityNodeTreasury.sol\":1572:1667  function getDestructStatus() external view returns(bool) {... */\n      jump(tag_54)\n        /* \"contracts/CityNodeTreasury.sol\":1402:1565  function transferAmount(address _to,uint256 amount) public onlyAdmin {... */\n    tag_15:\n      tag_22\n      tag_70\n      calldatasize\n      0x04\n      tag_71\n      jump\t// in\n    tag_70:\n      tag_72\n      jump\t// in\n        /* \"contracts/CityNodeTreasury.sol\":216:237  uint256[] public rate */\n    tag_16:\n      tag_47\n      tag_74\n      calldatasize\n      0x04\n      tag_24\n      jump\t// in\n    tag_74:\n      tag_75\n      jump\t// in\n        /* \"contracts/CityNodeTreasury.sol\":243:271  address payable public admin */\n    tag_17:\n      sload(0x03)\n      tag_30\n      swap1\n      sub(shl(0xa0, 0x01), 0x01)\n      and\n      dup2\n      jump\n        /* \"contracts/CityNodeTreasury.sol\":1220:1397  function AllocationAmount() public {... */\n    tag_18:\n      tag_22\n      tag_82\n      jump\t// in\n        /* \"contracts/CityNodeTreasury.sol\":804:882  function addRate(uint _rate) public onlyAdmin{... */\n    tag_25:\n        /* \"contracts/CityNodeTreasury.sol\":391:396  admin */\n      and(sub(shl(0xa0, 0x01), 0x01), sload(0x03))\n        /* \"contracts/CityNodeTreasury.sol\":377:387  msg.sender */\n      caller\n        /* \"contracts/CityNodeTreasury.sol\":377:396  msg.sender == admin */\n      eq\n        /* \"contracts/CityNodeTreasury.sol\":369:397  require(msg.sender == admin) */\n      tag_84\n      jumpi\n      0x00\n      dup1\n      revert\n    tag_84:\n        /* \"contracts/CityNodeTreasury.sol\":859:863  rate */\n      0x02\n        /* \"contracts/CityNodeTreasury.sol\":859:875  rate.push(_rate) */\n      dup1\n      sload\n      0x01\n      dup2\n      add\n      dup3\n      sstore\n      0x00\n      swap2\n      swap1\n      swap2\n      mstore\n      0x405787fa12a823e0f2b7631cc41b3ba8828b3321ca811111fa75cd3aa3bb5ace\n      add\n      sstore\n        /* \"contracts/CityNodeTreasury.sol\":804:882  function addRate(uint _rate) public onlyAdmin{... */\n      jump\t// out\n        /* \"contracts/CityNodeTreasury.sol\":546:624  function setToken(IERC20 _weth) public onlyAdmin {... */\n    tag_29:\n        /* \"contracts/CityNodeTreasury.sol\":391:396  admin */\n      and(sub(shl(0xa0, 0x01), 0x01), sload(0x03))\n        /* \"contracts/CityNodeTreasury.sol\":377:387  msg.sender */\n      caller\n        /* \"contracts/CityNodeTreasury.sol\":377:396  msg.sender == admin */\n      eq\n        /* \"contracts/CityNodeTreasury.sol\":369:397  require(msg.sender == admin) */\n      tag_88\n      jumpi\n      0x00\n      dup1\n      revert\n    tag_88:\n        /* \"contracts/CityNodeTreasury.sol\":605:609  WETH */\n      0x00\n        /* \"contracts/CityNodeTreasury.sol\":605:617  WETH = _weth */\n      dup1\n      sload\n      not(sub(shl(0xa0, 0x01), 0x01))\n      and\n      sub(shl(0xa0, 0x01), 0x01)\n      swap3\n      swap1\n      swap3\n      and\n      swap2\n      swap1\n      swap2\n      or\n      swap1\n      sstore\n        /* \"contracts/CityNodeTreasury.sol\":546:624  function setToken(IERC20 _weth) public onlyAdmin {... */\n      jump\t// out\n        /* \"contracts/CityNodeTreasury.sol\":172:210  address[] public AllocationFundAddress */\n    tag_32:\n      0x01\n      dup2\n      dup2\n      sload\n      dup2\n      lt\n      tag_90\n      jumpi\n      0x00\n      dup1\n      revert\n    tag_90:\n      0x00\n      swap2\n      dup3\n      mstore\n      0x20\n      swap1\n      swap2\n      keccak256\n      add\n      sload\n      sub(shl(0xa0, 0x01), 0x01)\n      and\n      swap1\n      pop\n      dup2\n      jump\t// out\n        /* \"contracts/CityNodeTreasury.sol\":629:799  function transferOwner(address _admin ,address payable _to) external  {... */\n    tag_38:\n        /* \"contracts/CityNodeTreasury.sol\":731:739  cityNode */\n      and(sub(shl(0xa0, 0x01), 0x01), sload(0x04))\n        /* \"contracts/CityNodeTreasury.sol\":717:727  msg.sender */\n      caller\n        /* \"contracts/CityNodeTreasury.sol\":717:739  msg.sender == cityNode */\n      eq\n        /* \"contracts/CityNodeTreasury.sol\":717:758  msg.sender == cityNode && admin == _admin */\n      dup1\n      iszero\n      tag_93\n      jumpi\n      pop\n        /* \"contracts/CityNodeTreasury.sol\":743:748  admin */\n      sload(0x03)\n      sub(shl(0xa0, 0x01), 0x01)\n        /* \"contracts/CityNodeTreasury.sol\":743:758  admin == _admin */\n      dup4\n      dup2\n      and\n        /* \"contracts/CityNodeTreasury.sol\":743:748  admin */\n      swap2\n      and\n        /* \"contracts/CityNodeTreasury.sol\":743:758  admin == _admin */\n      eq\n        /* \"contracts/CityNodeTreasury.sol\":717:758  msg.sender == cityNode && admin == _admin */\n    tag_93:\n        /* \"contracts/CityNodeTreasury.sol\":709:771  require(msg.sender == cityNode && admin == _admin,\"no access\") */\n      tag_94\n      jumpi\n      mload(0x40)\n      shl(0xe5, 0x461bcd)\n      dup2\n      mstore\n        /* \"#utility.yul\":3431:3433   */\n      0x20\n        /* \"contracts/CityNodeTreasury.sol\":709:771  require(msg.sender == cityNode && admin == _admin,\"no access\") */\n      0x04\n      dup3\n      add\n        /* \"#utility.yul\":3413:3434   */\n      mstore\n        /* \"#utility.yul\":3470:3471   */\n      0x09\n        /* \"#utility.yul\":3450:3468   */\n      0x24\n      dup3\n      add\n        /* \"#utility.yul\":3443:3472   */\n      mstore\n      shl(0xb8, 0x6e6f20616363657373)\n        /* \"#utility.yul\":3488:3506   */\n      0x44\n      dup3\n      add\n        /* \"#utility.yul\":3481:3520   */\n      mstore\n        /* \"#utility.yul\":3537:3555   */\n      0x64\n      add\n        /* \"contracts/CityNodeTreasury.sol\":709:771  require(msg.sender == cityNode && admin == _admin,\"no access\") */\n    tag_95:\n      mload(0x40)\n      dup1\n      swap2\n      sub\n      swap1\n      revert\n    tag_94:\n        /* \"contracts/CityNodeTreasury.sol\":781:786  admin */\n      0x03\n        /* \"contracts/CityNodeTreasury.sol\":781:792  admin = _to */\n      dup1\n      sload\n      not(sub(shl(0xa0, 0x01), 0x01))\n      and\n      sub(shl(0xa0, 0x01), 0x01)\n      swap3\n      swap1\n      swap3\n      and\n      swap2\n      swap1\n      swap2\n      or\n      swap1\n      sstore\n      pop\n        /* \"contracts/CityNodeTreasury.sol\":629:799  function transferOwner(address _admin ,address payable _to) external  {... */\n      jump\t// out\n        /* \"contracts/CityNodeTreasury.sol\":887:995  function addAddress(address assigned) public onlyAdmin {... */\n    tag_42:\n        /* \"contracts/CityNodeTreasury.sol\":391:396  admin */\n      and(sub(shl(0xa0, 0x01), 0x01), sload(0x03))\n        /* \"contracts/CityNodeTreasury.sol\":377:387  msg.sender */\n      caller\n        /* \"contracts/CityNodeTreasury.sol\":377:396  msg.sender == admin */\n      eq\n        /* \"contracts/CityNodeTreasury.sol\":369:397  require(msg.sender == admin) */\n      tag_98\n      jumpi\n      0x00\n      dup1\n      revert\n    tag_98:\n        /* \"contracts/CityNodeTreasury.sol\":952:973  AllocationFundAddress */\n      0x01\n        /* \"contracts/CityNodeTreasury.sol\":952:988  AllocationFundAddress.push(assigned) */\n      dup1\n      sload\n      dup1\n      dup3\n      add\n      dup3\n      sstore\n      0x00\n      swap2\n      swap1\n      swap2\n      mstore\n      0xb10e2d527612073b26eecdfd717e6a320cf44b4afac2b0732d9fcbe2b7fa0cf6\n      add\n      dup1\n      sload\n      not(sub(shl(0xa0, 0x01), 0x01))\n      and\n      sub(shl(0xa0, 0x01), 0x01)\n      swap3\n      swap1\n      swap3\n      and\n      swap2\n      swap1\n      swap2\n      or\n      swap1\n      sstore\n        /* \"contracts/CityNodeTreasury.sol\":887:995  function addAddress(address assigned) public onlyAdmin {... */\n      jump\t// out\n        /* \"contracts/CityNodeTreasury.sol\":1118:1215  function setRate(uint256 num , uint256 _rate) public onlyAdmin {... */\n    tag_46:\n        /* \"contracts/CityNodeTreasury.sol\":391:396  admin */\n      and(sub(shl(0xa0, 0x01), 0x01), sload(0x03))\n        /* \"contracts/CityNodeTreasury.sol\":377:387  msg.sender */\n      caller\n        /* \"contracts/CityNodeTreasury.sol\":377:396  msg.sender == admin */\n      eq\n        /* \"contracts/CityNodeTreasury.sol\":369:397  require(msg.sender == admin) */\n      tag_102\n      jumpi\n      0x00\n      dup1\n      revert\n    tag_102:\n        /* \"contracts/CityNodeTreasury.sol\":1203:1208  _rate */\n      dup1\n        /* \"contracts/CityNodeTreasury.sol\":1191:1195  rate */\n      0x02\n        /* \"contracts/CityNodeTreasury.sol\":1196:1199  num */\n      dup4\n        /* \"contracts/CityNodeTreasury.sol\":1191:1200  rate[num] */\n      dup2\n      sload\n      dup2\n      lt\n      tag_105\n      jumpi\n      tag_105\n      tag_106\n      jump\t// in\n    tag_105:\n      0x00\n      swap2\n      dup3\n      mstore\n      0x20\n      swap1\n      swap2\n      keccak256\n      add\n        /* \"contracts/CityNodeTreasury.sol\":1191:1208  rate[num] = _rate */\n      sstore\n      pop\n      pop\n        /* \"contracts/CityNodeTreasury.sol\":1118:1215  function setRate(uint256 num , uint256 _rate) public onlyAdmin {... */\n      jump\t// out\n        /* \"contracts/CityNodeTreasury.sol\":1672:1782  function getBalanceOfWeth() public view returns(uint256) {... */\n    tag_48:\n        /* \"contracts/CityNodeTreasury.sol\":1720:1727  uint256 */\n      0x00\n        /* \"contracts/CityNodeTreasury.sol\":1746:1750  WETH */\n      dup1\n      sload\n        /* \"contracts/CityNodeTreasury.sol\":1746:1775  WETH.balanceOf(address(this)) */\n      mload(0x40)\n      shl(0xe0, 0x70a08231)\n      dup2\n      mstore\n        /* \"contracts/CityNodeTreasury.sol\":1769:1773  this */\n      address\n        /* \"contracts/CityNodeTreasury.sol\":1746:1775  WETH.balanceOf(address(this)) */\n      0x04\n      dup3\n      add\n        /* \"#utility.yul\":762:813   */\n      mstore\n      sub(shl(0xa0, 0x01), 0x01)\n        /* \"contracts/CityNodeTreasury.sol\":1746:1750  WETH */\n      swap1\n      swap2\n      and\n      swap1\n        /* \"contracts/CityNodeTreasury.sol\":1746:1760  WETH.balanceOf */\n      0x70a08231\n      swap1\n        /* \"#utility.yul\":735:753   */\n      0x24\n      add\n        /* \"contracts/CityNodeTreasury.sol\":1746:1775  WETH.balanceOf(address(this)) */\n      0x20\n      mload(0x40)\n      dup1\n      dup4\n      sub\n      dup2\n      dup7\n      gas\n      staticcall\n      iszero\n      dup1\n      iszero\n      tag_111\n      jumpi\n      returndatasize\n      0x00\n      dup1\n      returndatacopy\n      revert(0x00, returndatasize)\n    tag_111:\n      pop\n      pop\n      pop\n      pop\n      mload(0x40)\n      returndatasize\n      not(0x1f)\n      0x1f\n      dup3\n      add\n      and\n      dup3\n      add\n      dup1\n      0x40\n      mstore\n      pop\n      dup2\n      add\n      swap1\n      tag_112\n      swap2\n      swap1\n      tag_113\n      jump\t// in\n    tag_112:\n        /* \"contracts/CityNodeTreasury.sol\":1739:1775  return WETH.balanceOf(address(this)) */\n      swap1\n      pop\n        /* \"contracts/CityNodeTreasury.sol\":1672:1782  function getBalanceOfWeth() public view returns(uint256) {... */\n      swap1\n      jump\t// out\n        /* \"contracts/CityNodeTreasury.sol\":1000:1113  function setAddress(uint256 num , address _add)public onlyAdmin{... */\n    tag_61:\n        /* \"contracts/CityNodeTreasury.sol\":391:396  admin */\n      and(sub(shl(0xa0, 0x01), 0x01), sload(0x03))\n        /* \"contracts/CityNodeTreasury.sol\":377:387  msg.sender */\n      caller\n        /* \"contracts/CityNodeTreasury.sol\":377:396  msg.sender == admin */\n      eq\n        /* \"contracts/CityNodeTreasury.sol\":369:397  require(msg.sender == admin) */\n      tag_115\n      jumpi\n      0x00\n      dup1\n      revert\n    tag_115:\n        /* \"contracts/CityNodeTreasury.sol\":1102:1106  _add */\n      dup1\n        /* \"contracts/CityNodeTreasury.sol\":1073:1094  AllocationFundAddress */\n      0x01\n        /* \"contracts/CityNodeTreasury.sol\":1095:1098  num */\n      dup4\n        /* \"contracts/CityNodeTreasury.sol\":1073:1099  AllocationFundAddress[num] */\n      dup2\n      sload\n      dup2\n      lt\n      tag_118\n      jumpi\n      tag_118\n      tag_106\n      jump\t// in\n    tag_118:\n      swap1\n      0x00\n      mstore\n      keccak256(0x00, 0x20)\n      add\n      0x00\n        /* \"contracts/CityNodeTreasury.sol\":1073:1106  AllocationFundAddress[num] = _add */\n      0x0100\n      exp\n      dup2\n      sload\n      dup2\n      sub(shl(0xa0, 0x01), 0x01)\n      mul\n      not\n      and\n      swap1\n      dup4\n      sub(shl(0xa0, 0x01), 0x01)\n      and\n      mul\n      or\n      swap1\n      sstore\n      pop\n        /* \"contracts/CityNodeTreasury.sol\":1000:1113  function setAddress(uint256 num , address _add)public onlyAdmin{... */\n      pop\n      pop\n      jump\t// out\n        /* \"contracts/CityNodeTreasury.sol\":1402:1565  function transferAmount(address _to,uint256 amount) public onlyAdmin {... */\n    tag_72:\n        /* \"contracts/CityNodeTreasury.sol\":391:396  admin */\n      and(sub(shl(0xa0, 0x01), 0x01), sload(0x03))\n        /* \"contracts/CityNodeTreasury.sol\":377:387  msg.sender */\n      caller\n        /* \"contracts/CityNodeTreasury.sol\":377:396  msg.sender == admin */\n      eq\n        /* \"contracts/CityNodeTreasury.sol\":369:397  require(msg.sender == admin) */\n      tag_122\n      jumpi\n      0x00\n      dup1\n      revert\n    tag_122:\n        /* \"contracts/CityNodeTreasury.sol\":1508:1509  0 */\n      0x00\n        /* \"contracts/CityNodeTreasury.sol\":1489:1507  getBalanceOfWeth() */\n      tag_124\n        /* \"contracts/CityNodeTreasury.sol\":1489:1505  getBalanceOfWeth */\n      tag_48\n        /* \"contracts/CityNodeTreasury.sol\":1489:1507  getBalanceOfWeth() */\n      jump\t// in\n    tag_124:\n        /* \"contracts/CityNodeTreasury.sol\":1489:1509  getBalanceOfWeth()>0 */\n      gt\n        /* \"contracts/CityNodeTreasury.sol\":1481:1522  require(getBalanceOfWeth()>0,\"no amount\") */\n      tag_125\n      jumpi\n      mload(0x40)\n      shl(0xe5, 0x461bcd)\n      dup2\n      mstore\n        /* \"#utility.yul\":4089:4091   */\n      0x20\n        /* \"contracts/CityNodeTreasury.sol\":1481:1522  require(getBalanceOfWeth()>0,\"no amount\") */\n      0x04\n      dup3\n      add\n        /* \"#utility.yul\":4071:4092   */\n      mstore\n        /* \"#utility.yul\":4128:4129   */\n      0x09\n        /* \"#utility.yul\":4108:4126   */\n      0x24\n      dup3\n      add\n        /* \"#utility.yul\":4101:4130   */\n      mstore\n      shl(0xba, 0x1b9bc8185b5bdd5b9d)\n        /* \"#utility.yul\":4146:4164   */\n      0x44\n      dup3\n      add\n        /* \"#utility.yul\":4139:4178   */\n      mstore\n        /* \"#utility.yul\":4195:4213   */\n      0x64\n      add\n        /* \"contracts/CityNodeTreasury.sol\":1481:1522  require(getBalanceOfWeth()>0,\"no amount\") */\n      tag_95\n        /* \"#utility.yul\":3887:4219   */\n      jump\n        /* \"contracts/CityNodeTreasury.sol\":1481:1522  require(getBalanceOfWeth()>0,\"no amount\") */\n    tag_125:\n        /* \"contracts/CityNodeTreasury.sol\":1532:1536  WETH */\n      sload(0x00)\n        /* \"contracts/CityNodeTreasury.sol\":1532:1558  WETH.transfer(_to, amount) */\n      mload(0x40)\n      shl(0xe0, 0xa9059cbb)\n      dup2\n      mstore\n      sub(shl(0xa0, 0x01), 0x01)\n        /* \"#utility.yul\":4416:4448   */\n      dup5\n      dup2\n      and\n        /* \"contracts/CityNodeTreasury.sol\":1532:1558  WETH.transfer(_to, amount) */\n      0x04\n      dup4\n      add\n        /* \"#utility.yul\":4398:4449   */\n      mstore\n        /* \"#utility.yul\":4465:4483   */\n      0x24\n      dup3\n      add\n        /* \"#utility.yul\":4458:4492   */\n      dup5\n      swap1\n      mstore\n        /* \"contracts/CityNodeTreasury.sol\":1532:1536  WETH */\n      swap1\n      swap2\n      and\n      swap1\n        /* \"contracts/CityNodeTreasury.sol\":1532:1545  WETH.transfer */\n      0xa9059cbb\n      swap1\n        /* \"#utility.yul\":4371:4389   */\n      0x44\n      add\n        /* \"contracts/CityNodeTreasury.sol\":1532:1558  WETH.transfer(_to, amount) */\n      0x20\n      mload(0x40)\n      dup1\n      dup4\n      sub\n      dup2\n      0x00\n      dup8\n      gas\n      call\n      iszero\n      dup1\n      iszero\n      tag_131\n      jumpi\n      returndatasize\n      0x00\n      dup1\n      returndatacopy\n      revert(0x00, returndatasize)\n    tag_131:\n      pop\n      pop\n      pop\n      pop\n      mload(0x40)\n      returndatasize\n      not(0x1f)\n      0x1f\n      dup3\n      add\n      and\n      dup3\n      add\n      dup1\n      0x40\n      mstore\n      pop\n      dup2\n      add\n      swap1\n      tag_132\n      swap2\n      swap1\n      tag_133\n      jump\t// in\n    tag_132:\n      pop\n        /* \"contracts/CityNodeTreasury.sol\":1402:1565  function transferAmount(address _to,uint256 amount) public onlyAdmin {... */\n      pop\n      pop\n      jump\t// out\n        /* \"contracts/CityNodeTreasury.sol\":216:237  uint256[] public rate */\n    tag_75:\n      0x02\n      dup2\n      dup2\n      sload\n      dup2\n      lt\n      tag_134\n      jumpi\n      0x00\n      dup1\n      revert\n    tag_134:\n      0x00\n      swap2\n      dup3\n      mstore\n      0x20\n      swap1\n      swap2\n      keccak256\n      add\n      sload\n      swap1\n      pop\n      dup2\n      jump\t// out\n        /* \"contracts/CityNodeTreasury.sol\":1220:1397  function AllocationAmount() public {... */\n    tag_82:\n        /* \"contracts/CityNodeTreasury.sol\":1269:1275  uint i */\n      0x00\n        /* \"contracts/CityNodeTreasury.sol\":1265:1391  for(uint i = 0 ; i < AllocationFundAddress.length;i++){... */\n    tag_137:\n        /* \"contracts/CityNodeTreasury.sol\":1286:1307  AllocationFundAddress */\n      0x01\n        /* \"contracts/CityNodeTreasury.sol\":1286:1314  AllocationFundAddress.length */\n      sload\n        /* \"contracts/CityNodeTreasury.sol\":1282:1314  i < AllocationFundAddress.length */\n      dup2\n      lt\n        /* \"contracts/CityNodeTreasury.sol\":1265:1391  for(uint i = 0 ; i < AllocationFundAddress.length;i++){... */\n      iszero\n      tag_138\n      jumpi\n        /* \"contracts/CityNodeTreasury.sol\":1333:1337  WETH */\n      sload(0x00)\n      0x01\n        /* \"contracts/CityNodeTreasury.sol\":1347:1371  AllocationFundAddress[i] */\n      dup1\n      sload\n      sub(shl(0xa0, 0x01), 0x01)\n        /* \"contracts/CityNodeTreasury.sol\":1333:1337  WETH */\n      swap1\n      swap3\n      and\n      swap2\n        /* \"contracts/CityNodeTreasury.sol\":1333:1346  WETH.transfer */\n      0xa9059cbb\n      swap2\n        /* \"contracts/CityNodeTreasury.sol\":1333:1337  WETH */\n      swap1\n        /* \"contracts/CityNodeTreasury.sol\":1369:1370  i */\n      dup5\n      swap1\n        /* \"contracts/CityNodeTreasury.sol\":1347:1371  AllocationFundAddress[i] */\n      dup2\n      lt\n      tag_141\n      jumpi\n      tag_141\n      tag_106\n      jump\t// in\n    tag_141:\n      0x00\n      swap2\n      dup3\n      mstore\n      0x20\n      swap1\n      swap2\n      keccak256\n      add\n      sload\n        /* \"contracts/CityNodeTreasury.sol\":1372:1376  rate */\n      0x02\n        /* \"contracts/CityNodeTreasury.sol\":1372:1379  rate[i] */\n      dup1\n      sload\n      sub(shl(0xa0, 0x01), 0x01)\n        /* \"contracts/CityNodeTreasury.sol\":1347:1371  AllocationFundAddress[i] */\n      swap1\n      swap3\n      and\n      swap2\n        /* \"contracts/CityNodeTreasury.sol\":1377:1378  i */\n      dup6\n      swap1\n        /* \"contracts/CityNodeTreasury.sol\":1372:1379  rate[i] */\n      dup2\n      lt\n      tag_144\n      jumpi\n      tag_144\n      tag_106\n      jump\t// in\n    tag_144:\n      0x00\n      swap2\n      dup3\n      mstore\n      0x20\n      swap1\n      swap2\n      keccak256\n      add\n      sload\n        /* \"contracts/CityNodeTreasury.sol\":1333:1380  WETH.transfer(AllocationFundAddress[i],rate[i]) */\n      mload(0x40)\n      not(sub(shl(0xe0, 0x01), 0x01))\n      0xe0\n      dup6\n      swap1\n      shl\n      and\n      dup2\n      mstore\n      sub(shl(0xa0, 0x01), 0x01)\n        /* \"#utility.yul\":4416:4448   */\n      swap1\n      swap3\n      and\n        /* \"contracts/CityNodeTreasury.sol\":1333:1380  WETH.transfer(AllocationFundAddress[i],rate[i]) */\n      0x04\n      dup4\n      add\n        /* \"#utility.yul\":4398:4449   */\n      mstore\n        /* \"#utility.yul\":4465:4483   */\n      0x24\n      dup3\n      add\n        /* \"#utility.yul\":4458:4492   */\n      mstore\n        /* \"#utility.yul\":4371:4389   */\n      0x44\n      add\n        /* \"contracts/CityNodeTreasury.sol\":1333:1380  WETH.transfer(AllocationFundAddress[i],rate[i]) */\n      0x20\n      mload(0x40)\n      dup1\n      dup4\n      sub\n      dup2\n      0x00\n      dup8\n      gas\n      call\n      iszero\n      dup1\n      iszero\n      tag_148\n      jumpi\n      returndatasize\n      0x00\n      dup1\n      returndatacopy\n      revert(0x00, returndatasize)\n    tag_148:\n      pop\n      pop\n      pop\n      pop\n      mload(0x40)\n      returndatasize\n      not(0x1f)\n      0x1f\n      dup3\n      add\n      and\n      dup3\n      add\n      dup1\n      0x40\n      mstore\n      pop\n      dup2\n      add\n      swap1\n      tag_149\n      swap2\n      swap1\n      tag_133\n      jump\t// in\n    tag_149:\n      pop\n        /* \"contracts/CityNodeTreasury.sol\":1315:1318  i++ */\n      dup1\n      tag_150\n      dup2\n      tag_151\n      jump\t// in\n    tag_150:\n      swap2\n      pop\n      pop\n        /* \"contracts/CityNodeTreasury.sol\":1265:1391  for(uint i = 0 ; i < AllocationFundAddress.length;i++){... */\n      jump(tag_137)\n    tag_138:\n      pop\n        /* \"contracts/CityNodeTreasury.sol\":1220:1397  function AllocationAmount() public {... */\n      jump\t// out\n        /* \"#utility.yul\":14:194   */\n    tag_24:\n        /* \"#utility.yul\":73:79   */\n      0x00\n        /* \"#utility.yul\":126:128   */\n      0x20\n        /* \"#utility.yul\":114:123   */\n      dup3\n        /* \"#utility.yul\":105:112   */\n      dup5\n        /* \"#utility.yul\":101:124   */\n      sub\n        /* \"#utility.yul\":97:129   */\n      slt\n        /* \"#utility.yul\":94:146   */\n      iszero\n      tag_155\n      jumpi\n        /* \"#utility.yul\":142:143   */\n      0x00\n        /* \"#utility.yul\":139:140   */\n      dup1\n        /* \"#utility.yul\":132:144   */\n      revert\n        /* \"#utility.yul\":94:146   */\n    tag_155:\n      pop\n        /* \"#utility.yul\":165:188   */\n      calldataload\n      swap2\n        /* \"#utility.yul\":14:194   */\n      swap1\n      pop\n      jump\t// out\n        /* \"#utility.yul\":199:338   */\n    tag_152:\n      sub(shl(0xa0, 0x01), 0x01)\n        /* \"#utility.yul\":282:313   */\n      dup2\n      and\n        /* \"#utility.yul\":272:314   */\n      dup2\n      eq\n        /* \"#utility.yul\":262:332   */\n      tag_138\n      jumpi\n        /* \"#utility.yul\":328:329   */\n      0x00\n        /* \"#utility.yul\":325:326   */\n      dup1\n        /* \"#utility.yul\":318:330   */\n      revert\n        /* \"#utility.yul\":343:611   */\n    tag_28:\n        /* \"#utility.yul\":415:421   */\n      0x00\n        /* \"#utility.yul\":468:470   */\n      0x20\n        /* \"#utility.yul\":456:465   */\n      dup3\n        /* \"#utility.yul\":447:454   */\n      dup5\n        /* \"#utility.yul\":443:466   */\n      sub\n        /* \"#utility.yul\":439:471   */\n      slt\n        /* \"#utility.yul\":436:488   */\n      iszero\n      tag_159\n      jumpi\n        /* \"#utility.yul\":484:485   */\n      0x00\n        /* \"#utility.yul\":481:482   */\n      dup1\n        /* \"#utility.yul\":474:486   */\n      revert\n        /* \"#utility.yul\":436:488   */\n    tag_159:\n        /* \"#utility.yul\":523:532   */\n      dup2\n        /* \"#utility.yul\":510:533   */\n      calldataload\n        /* \"#utility.yul\":542:581   */\n      tag_160\n        /* \"#utility.yul\":575:580   */\n      dup2\n        /* \"#utility.yul\":542:581   */\n      tag_152\n      jump\t// in\n    tag_160:\n        /* \"#utility.yul\":600:605   */\n      swap4\n        /* \"#utility.yul\":343:611   */\n      swap3\n      pop\n      pop\n      pop\n      jump\t// out\n        /* \"#utility.yul\":824:1236   */\n    tag_37:\n        /* \"#utility.yul\":900:906   */\n      0x00\n        /* \"#utility.yul\":908:914   */\n      dup1\n        /* \"#utility.yul\":961:963   */\n      0x40\n        /* \"#utility.yul\":949:958   */\n      dup4\n        /* \"#utility.yul\":940:947   */\n      dup6\n        /* \"#utility.yul\":936:959   */\n      sub\n        /* \"#utility.yul\":932:964   */\n      slt\n        /* \"#utility.yul\":929:981   */\n      iszero\n      tag_163\n      jumpi\n        /* \"#utility.yul\":977:978   */\n      0x00\n        /* \"#utility.yul\":974:975   */\n      dup1\n        /* \"#utility.yul\":967:979   */\n      revert\n        /* \"#utility.yul\":929:981   */\n    tag_163:\n        /* \"#utility.yul\":1016:1025   */\n      dup3\n        /* \"#utility.yul\":1003:1026   */\n      calldataload\n        /* \"#utility.yul\":1035:1074   */\n      tag_164\n        /* \"#utility.yul\":1068:1073   */\n      dup2\n        /* \"#utility.yul\":1035:1074   */\n      tag_152\n      jump\t// in\n    tag_164:\n        /* \"#utility.yul\":1093:1098   */\n      swap2\n      pop\n        /* \"#utility.yul\":1150:1152   */\n      0x20\n        /* \"#utility.yul\":1135:1153   */\n      dup4\n      add\n        /* \"#utility.yul\":1122:1154   */\n      calldataload\n        /* \"#utility.yul\":1163:1204   */\n      tag_165\n        /* \"#utility.yul\":1122:1154   */\n      dup2\n        /* \"#utility.yul\":1163:1204   */\n      tag_152\n      jump\t// in\n    tag_165:\n        /* \"#utility.yul\":1223:1230   */\n      dup1\n        /* \"#utility.yul\":1213:1230   */\n      swap2\n      pop\n      pop\n        /* \"#utility.yul\":824:1236   */\n      swap3\n      pop\n      swap3\n      swap1\n      pop\n      jump\t// out\n        /* \"#utility.yul\":1501:1749   */\n    tag_45:\n        /* \"#utility.yul\":1569:1575   */\n      0x00\n        /* \"#utility.yul\":1577:1583   */\n      dup1\n        /* \"#utility.yul\":1630:1632   */\n      0x40\n        /* \"#utility.yul\":1618:1627   */\n      dup4\n        /* \"#utility.yul\":1609:1616   */\n      dup6\n        /* \"#utility.yul\":1605:1628   */\n      sub\n        /* \"#utility.yul\":1601:1633   */\n      slt\n        /* \"#utility.yul\":1598:1650   */\n      iszero\n      tag_170\n      jumpi\n        /* \"#utility.yul\":1646:1647   */\n      0x00\n        /* \"#utility.yul\":1643:1644   */\n      dup1\n        /* \"#utility.yul\":1636:1648   */\n      revert\n        /* \"#utility.yul\":1598:1650   */\n    tag_170:\n      pop\n      pop\n        /* \"#utility.yul\":1669:1692   */\n      dup1\n      calldataload\n      swap3\n        /* \"#utility.yul\":1739:1741   */\n      0x20\n        /* \"#utility.yul\":1724:1742   */\n      swap1\n      swap2\n      add\n        /* \"#utility.yul\":1711:1743   */\n      calldataload\n      swap2\n      pop\n        /* \"#utility.yul\":1501:1749   */\n      jump\t// out\n        /* \"#utility.yul\":2128:2451   */\n    tag_60:\n        /* \"#utility.yul\":2196:2202   */\n      0x00\n        /* \"#utility.yul\":2204:2210   */\n      dup1\n        /* \"#utility.yul\":2257:2259   */\n      0x40\n        /* \"#utility.yul\":2245:2254   */\n      dup4\n        /* \"#utility.yul\":2236:2243   */\n      dup6\n        /* \"#utility.yul\":2232:2255   */\n      sub\n        /* \"#utility.yul\":2228:2260   */\n      slt\n        /* \"#utility.yul\":2225:2277   */\n      iszero\n      tag_174\n      jumpi\n        /* \"#utility.yul\":2273:2274   */\n      0x00\n        /* \"#utility.yul\":2270:2271   */\n      dup1\n        /* \"#utility.yul\":2263:2275   */\n      revert\n        /* \"#utility.yul\":2225:2277   */\n    tag_174:\n        /* \"#utility.yul\":2309:2318   */\n      dup3\n        /* \"#utility.yul\":2296:2319   */\n      calldataload\n        /* \"#utility.yul\":2286:2319   */\n      swap2\n      pop\n        /* \"#utility.yul\":2369:2371   */\n      0x20\n        /* \"#utility.yul\":2358:2367   */\n      dup4\n        /* \"#utility.yul\":2354:2372   */\n      add\n        /* \"#utility.yul\":2341:2373   */\n      calldataload\n        /* \"#utility.yul\":2382:2421   */\n      tag_165\n        /* \"#utility.yul\":2415:2420   */\n      dup2\n        /* \"#utility.yul\":2382:2421   */\n      tag_152\n      jump\t// in\n        /* \"#utility.yul\":2677:3000   */\n    tag_71:\n        /* \"#utility.yul\":2745:2751   */\n      0x00\n        /* \"#utility.yul\":2753:2759   */\n      dup1\n        /* \"#utility.yul\":2806:2808   */\n      0x40\n        /* \"#utility.yul\":2794:2803   */\n      dup4\n        /* \"#utility.yul\":2785:2792   */\n      dup6\n        /* \"#utility.yul\":2781:2804   */\n      sub\n        /* \"#utility.yul\":2777:2809   */\n      slt\n        /* \"#utility.yul\":2774:2826   */\n      iszero\n      tag_178\n      jumpi\n        /* \"#utility.yul\":2822:2823   */\n      0x00\n        /* \"#utility.yul\":2819:2820   */\n      dup1\n        /* \"#utility.yul\":2812:2824   */\n      revert\n        /* \"#utility.yul\":2774:2826   */\n    tag_178:\n        /* \"#utility.yul\":2861:2870   */\n      dup3\n        /* \"#utility.yul\":2848:2871   */\n      calldataload\n        /* \"#utility.yul\":2880:2919   */\n      tag_179\n        /* \"#utility.yul\":2913:2918   */\n      dup2\n        /* \"#utility.yul\":2880:2919   */\n      tag_152\n      jump\t// in\n    tag_179:\n        /* \"#utility.yul\":2938:2943   */\n      swap5\n        /* \"#utility.yul\":2990:2992   */\n      0x20\n        /* \"#utility.yul\":2975:2993   */\n      swap4\n      swap1\n      swap4\n      add\n        /* \"#utility.yul\":2962:2994   */\n      calldataload\n      swap4\n      pop\n      pop\n      pop\n        /* \"#utility.yul\":2677:3000   */\n      jump\t// out\n        /* \"#utility.yul\":3566:3693   */\n    tag_106:\n        /* \"#utility.yul\":3627:3637   */\n      0x4e487b71\n        /* \"#utility.yul\":3622:3625   */\n      0xe0\n        /* \"#utility.yul\":3618:3638   */\n      shl\n        /* \"#utility.yul\":3615:3616   */\n      0x00\n        /* \"#utility.yul\":3608:3639   */\n      mstore\n        /* \"#utility.yul\":3658:3662   */\n      0x32\n        /* \"#utility.yul\":3655:3656   */\n      0x04\n        /* \"#utility.yul\":3648:3663   */\n      mstore\n        /* \"#utility.yul\":3682:3686   */\n      0x24\n        /* \"#utility.yul\":3679:3680   */\n      0x00\n        /* \"#utility.yul\":3672:3687   */\n      revert\n        /* \"#utility.yul\":3698:3882   */\n    tag_113:\n        /* \"#utility.yul\":3768:3774   */\n      0x00\n        /* \"#utility.yul\":3821:3823   */\n      0x20\n        /* \"#utility.yul\":3809:3818   */\n      dup3\n        /* \"#utility.yul\":3800:3807   */\n      dup5\n        /* \"#utility.yul\":3796:3819   */\n      sub\n        /* \"#utility.yul\":3792:3824   */\n      slt\n        /* \"#utility.yul\":3789:3841   */\n      iszero\n      tag_184\n      jumpi\n        /* \"#utility.yul\":3837:3838   */\n      0x00\n        /* \"#utility.yul\":3834:3835   */\n      dup1\n        /* \"#utility.yul\":3827:3839   */\n      revert\n        /* \"#utility.yul\":3789:3841   */\n    tag_184:\n      pop\n        /* \"#utility.yul\":3860:3876   */\n      mload\n      swap2\n        /* \"#utility.yul\":3698:3882   */\n      swap1\n      pop\n      jump\t// out\n        /* \"#utility.yul\":4503:4780   */\n    tag_133:\n        /* \"#utility.yul\":4570:4576   */\n      0x00\n        /* \"#utility.yul\":4623:4625   */\n      0x20\n        /* \"#utility.yul\":4611:4620   */\n      dup3\n        /* \"#utility.yul\":4602:4609   */\n      dup5\n        /* \"#utility.yul\":4598:4621   */\n      sub\n        /* \"#utility.yul\":4594:4626   */\n      slt\n        /* \"#utility.yul\":4591:4643   */\n      iszero\n      tag_188\n      jumpi\n        /* \"#utility.yul\":4639:4640   */\n      0x00\n        /* \"#utility.yul\":4636:4637   */\n      dup1\n        /* \"#utility.yul\":4629:4641   */\n      revert\n        /* \"#utility.yul\":4591:4643   */\n    tag_188:\n        /* \"#utility.yul\":4671:4680   */\n      dup2\n        /* \"#utility.yul\":4665:4681   */\n      mload\n        /* \"#utility.yul\":4724:4729   */\n      dup1\n        /* \"#utility.yul\":4717:4730   */\n      iszero\n        /* \"#utility.yul\":4710:4731   */\n      iszero\n        /* \"#utility.yul\":4703:4708   */\n      dup2\n        /* \"#utility.yul\":4700:4732   */\n      eq\n        /* \"#utility.yul\":4690:4750   */\n      tag_160\n      jumpi\n        /* \"#utility.yul\":4746:4747   */\n      0x00\n        /* \"#utility.yul\":4743:4744   */\n      dup1\n        /* \"#utility.yul\":4736:4748   */\n      revert\n        /* \"#utility.yul\":4785:5017   */\n    tag_151:\n        /* \"#utility.yul\":4824:4827   */\n      0x00\n        /* \"#utility.yul\":4845:4862   */\n      0x01\n      dup3\n      add\n        /* \"#utility.yul\":4842:4982   */\n      tag_191\n      jumpi\n        /* \"#utility.yul\":4904:4914   */\n      0x4e487b71\n        /* \"#utility.yul\":4899:4902   */\n      0xe0\n        /* \"#utility.yul\":4895:4915   */\n      shl\n        /* \"#utility.yul\":4892:4893   */\n      0x00\n        /* \"#utility.yul\":4885:4916   */\n      mstore\n        /* \"#utility.yul\":4939:4943   */\n      0x11\n        /* \"#utility.yul\":4936:4937   */\n      0x04\n        /* \"#utility.yul\":4929:4944   */\n      mstore\n        /* \"#utility.yul\":4967:4971   */\n      0x24\n        /* \"#utility.yul\":4964:4965   */\n      0x00\n        /* \"#utility.yul\":4957:4972   */\n      revert\n        /* \"#utility.yul\":4842:4982   */\n    tag_191:\n      pop\n        /* \"#utility.yul\":5009:5010   */\n      0x01\n        /* \"#utility.yul\":4998:5011   */\n      add\n      swap1\n        /* \"#utility.yul\":4785:5017   */\n      jump\t// out\n\n    auxdata: 0xa2646970667358221220cdf18415538273333884173f95226f119bb1d1b6d9f7aee243c037a01c9c7fb464736f6c63430008120033\n}\n",
				"bytecode": {
					"linkReferences": {},
					"object": "608060405234801561001057600080fd5b5060405161095c38038061095c83398101604081905261002f91610078565b600380546001600160a01b039384166001600160a01b031991821617909155600480549290931691161790556100b2565b6001600160a01b038116811461007557600080fd5b50565b6000806040838503121561008b57600080fd5b825161009681610060565b60208401519092506100a781610060565b809150509250929050565b61089b806100c16000396000f3fe608060405234801561001057600080fd5b50600436106101005760003560e01c80638fc99ea311610097578063d7081e0311610066578063d7081e031461021b578063e7ee6ad61461022e578063f851a44014610241578063fa46b6901461025457600080fd5b80638fc99ea3146101bf578063ac4ce2c6146101e3578063ad5c4648146101f6578063b8ac457b1461020957600080fd5b806338eada1c116100d357806338eada1c1461017057806346df2ccb146101835780636711be0e1461019657806370ca09bc146101ac57600080fd5b806309f14a5c14610105578063144fa6d71461011a5780631de1e2ac1461012d57806331678cf61461015d575b600080fd5b6101186101133660046106ef565b61025c565b005b61011861012836600461071d565b6102a8565b61014061013b3660046106ef565b6102e1565b6040516001600160a01b0390911681526020015b60405180910390f35b61011861016b366004610741565b61030b565b61011861017e36600461071d565b610392565b61011861019136600461077a565b6103fa565b61019e610435565b604051908152602001610154565b600454610140906001600160a01b031681565b6004546101d390600160a01b900460ff1681565b6040519015158152602001610154565b6101186101f136600461079c565b6104a7565b600054610140906001600160a01b031681565b600454600160a01b900460ff166101d3565b6101186102293660046107c1565b610504565b61019e61023c3660046106ef565b6105da565b600354610140906001600160a01b031681565b6101186105fb565b6003546001600160a01b0316331461027357600080fd5b600280546001810182556000919091527f405787fa12a823e0f2b7631cc41b3ba8828b3321ca811111fa75cd3aa3bb5ace0155565b6003546001600160a01b031633146102bf57600080fd5b600080546001600160a01b0319166001600160a01b0392909216919091179055565b600181815481106102f157600080fd5b6000918252602090912001546001600160a01b0316905081565b6004546001600160a01b03163314801561033257506003546001600160a01b038381169116145b61036f5760405162461bcd60e51b81526020600482015260096024820152686e6f2061636365737360b81b60448201526064015b60405180910390fd5b600380546001600160a01b0319166001600160a01b039290921691909117905550565b6003546001600160a01b031633146103a957600080fd5b6001805480820182556000919091527fb10e2d527612073b26eecdfd717e6a320cf44b4afac2b0732d9fcbe2b7fa0cf60180546001600160a01b0319166001600160a01b0392909216919091179055565b6003546001600160a01b0316331461041157600080fd5b8060028381548110610425576104256107ed565b6000918252602090912001555050565b600080546040516370a0823160e01b81523060048201526001600160a01b03909116906370a0823190602401602060405180830381865afa15801561047e573d6000803e3d6000fd5b505050506040513d601f19601f820116820180604052508101906104a29190610803565b905090565b6003546001600160a01b031633146104be57600080fd5b80600183815481106104d2576104d26107ed565b9060005260206000200160006101000a8154816001600160a01b0302191690836001600160a01b031602179055505050565b6003546001600160a01b0316331461051b57600080fd5b6000610525610435565b1161055e5760405162461bcd60e51b81526020600482015260096024820152681b9bc8185b5bdd5b9d60ba1b6044820152606401610366565b60005460405163a9059cbb60e01b81526001600160a01b038481166004830152602482018490529091169063a9059cbb906044016020604051808303816000875af11580156105b1573d6000803e3d6000fd5b505050506040513d601f19601f820116820180604052508101906105d5919061081c565b505050565b600281815481106105ea57600080fd5b600091825260209091200154905081565b60005b6001548110156106ec57600054600180546001600160a01b039092169163a9059cbb919084908110610632576106326107ed565b600091825260209091200154600280546001600160a01b03909216918590811061065e5761065e6107ed565b6000918252602090912001546040516001600160e01b031960e085901b1681526001600160a01b03909216600483015260248201526044016020604051808303816000875af11580156106b5573d6000803e3d6000fd5b505050506040513d601f19601f820116820180604052508101906106d9919061081c565b50806106e48161083e565b9150506105fe565b50565b60006020828403121561070157600080fd5b5035919050565b6001600160a01b03811681146106ec57600080fd5b60006020828403121561072f57600080fd5b813561073a81610708565b9392505050565b6000806040838503121561075457600080fd5b823561075f81610708565b9150602083013561076f81610708565b809150509250929050565b6000806040838503121561078d57600080fd5b50508035926020909101359150565b600080604083850312156107af57600080fd5b82359150602083013561076f81610708565b600080604083850312156107d457600080fd5b82356107df81610708565b946020939093013593505050565b634e487b7160e01b600052603260045260246000fd5b60006020828403121561081557600080fd5b5051919050565b60006020828403121561082e57600080fd5b8151801515811461073a57600080fd5b60006001820161085e57634e487b7160e01b600052601160045260246000fd5b506001019056fea2646970667358221220cdf18415538273333884173f95226f119bb1d1b6d9f7aee243c037a01c9c7fb464736f6c63430008120033",
					"opcodes": "PUSH1 0x80 PUSH1 0x40 MSTORE CALLVALUE DUP1 ISZERO PUSH2 0x10 JUMPI PUSH1 0x0 DUP1 REVERT JUMPDEST POP PUSH1 0x40 MLOAD PUSH2 0x95C CODESIZE SUB DUP1 PUSH2 0x95C DUP4 CODECOPY DUP2 ADD PUSH1 0x40 DUP2 SWAP1 MSTORE PUSH2 0x2F SWAP2 PUSH2 0x78 JUMP JUMPDEST PUSH1 0x3 DUP1 SLOAD PUSH1 0x1 PUSH1 0x1 PUSH1 0xA0 SHL SUB SWAP4 DUP5 AND PUSH1 0x1 PUSH1 0x1 PUSH1 0xA0 SHL SUB NOT SWAP2 DUP3 AND OR SWAP1 SWAP2 SSTORE PUSH1 0x4 DUP1 SLOAD SWAP3 SWAP1 SWAP4 AND SWAP2 AND OR SWAP1 SSTORE PUSH2 0xB2 JUMP JUMPDEST PUSH1 0x1 PUSH1 0x1 PUSH1 0xA0 SHL SUB DUP2 AND DUP2 EQ PUSH2 0x75 JUMPI PUSH1 0x0 DUP1 REVERT JUMPDEST POP JUMP JUMPDEST PUSH1 0x0 DUP1 PUSH1 0x40 DUP4 DUP6 SUB SLT ISZERO PUSH2 0x8B JUMPI PUSH1 0x0 DUP1 REVERT JUMPDEST DUP3 MLOAD PUSH2 0x96 DUP2 PUSH2 0x60 JUMP JUMPDEST PUSH1 0x20 DUP5 ADD MLOAD SWAP1 SWAP3 POP PUSH2 0xA7 DUP2 PUSH2 0x60 JUMP JUMPDEST DUP1 SWAP2 POP POP SWAP3 POP SWAP3 SWAP1 POP JUMP JUMPDEST PUSH2 0x89B DUP1 PUSH2 0xC1 PUSH1 0x0 CODECOPY PUSH1 0x0 RETURN INVALID PUSH1 0x80 PUSH1 0x40 MSTORE CALLVALUE DUP1 ISZERO PUSH2 0x10 JUMPI PUSH1 0x0 DUP1 REVERT JUMPDEST POP PUSH1 0x4 CALLDATASIZE LT PUSH2 0x100 JUMPI PUSH1 0x0 CALLDATALOAD PUSH1 0xE0 SHR DUP1 PUSH4 0x8FC99EA3 GT PUSH2 0x97 JUMPI DUP1 PUSH4 0xD7081E03 GT PUSH2 0x66 JUMPI DUP1 PUSH4 0xD7081E03 EQ PUSH2 0x21B JUMPI DUP1 PUSH4 0xE7EE6AD6 EQ PUSH2 0x22E JUMPI DUP1 PUSH4 0xF851A440 EQ PUSH2 0x241 JUMPI DUP1 PUSH4 0xFA46B690 EQ PUSH2 0x254 JUMPI PUSH1 0x0 DUP1 REVERT JUMPDEST DUP1 PUSH4 0x8FC99EA3 EQ PUSH2 0x1BF JUMPI DUP1 PUSH4 0xAC4CE2C6 EQ PUSH2 0x1E3 JUMPI DUP1 PUSH4 0xAD5C4648 EQ PUSH2 0x1F6 JUMPI DUP1 PUSH4 0xB8AC457B EQ PUSH2 0x209 JUMPI PUSH1 0x0 DUP1 REVERT JUMPDEST DUP1 PUSH4 0x38EADA1C GT PUSH2 0xD3 JUMPI DUP1 PUSH4 0x38EADA1C EQ PUSH2 0x170 JUMPI DUP1 PUSH4 0x46DF2CCB EQ PUSH2 0x183 JUMPI DUP1 PUSH4 0x6711BE0E EQ PUSH2 0x196 JUMPI DUP1 PUSH4 0x70CA09BC EQ PUSH2 0x1AC JUMPI PUSH1 0x0 DUP1 REVERT JUMPDEST DUP1 PUSH4 0x9F14A5C EQ PUSH2 0x105 JUMPI DUP1 PUSH4 0x144FA6D7 EQ PUSH2 0x11A JUMPI DUP1 PUSH4 0x1DE1E2AC EQ PUSH2 0x12D JUMPI DUP1 PUSH4 0x31678CF6 EQ PUSH2 0x15D JUMPI JUMPDEST PUSH1 0x0 DUP1 REVERT JUMPDEST PUSH2 0x118 PUSH2 0x113 CALLDATASIZE PUSH1 0x4 PUSH2 0x6EF JUMP JUMPDEST PUSH2 0x25C JUMP JUMPDEST STOP JUMPDEST PUSH2 0x118 PUSH2 0x128 CALLDATASIZE PUSH1 0x4 PUSH2 0x71D JUMP JUMPDEST PUSH2 0x2A8 JUMP JUMPDEST PUSH2 0x140 PUSH2 0x13B CALLDATASIZE PUSH1 0x4 PUSH2 0x6EF JUMP JUMPDEST PUSH2 0x2E1 JUMP JUMPDEST PUSH1 0x40 MLOAD PUSH1 0x1 PUSH1 0x1 PUSH1 0xA0 SHL SUB SWAP1 SWAP2 AND DUP2 MSTORE PUSH1 0x20 ADD JUMPDEST PUSH1 0x40 MLOAD DUP1 SWAP2 SUB SWAP1 RETURN JUMPDEST PUSH2 0x118 PUSH2 0x16B CALLDATASIZE PUSH1 0x4 PUSH2 0x741 JUMP JUMPDEST PUSH2 0x30B JUMP JUMPDEST PUSH2 0x118 PUSH2 0x17E CALLDATASIZE PUSH1 0x4 PUSH2 0x71D JUMP JUMPDEST PUSH2 0x392 JUMP JUMPDEST PUSH2 0x118 PUSH2 0x191 CALLDATASIZE PUSH1 0x4 PUSH2 0x77A JUMP JUMPDEST PUSH2 0x3FA JUMP JUMPDEST PUSH2 0x19E PUSH2 0x435 JUMP JUMPDEST PUSH1 0x40 MLOAD SWAP1 DUP2 MSTORE PUSH1 0x20 ADD PUSH2 0x154 JUMP JUMPDEST PUSH1 0x4 SLOAD PUSH2 0x140 SWAP1 PUSH1 0x1 PUSH1 0x1 PUSH1 0xA0 SHL SUB AND DUP2 JUMP JUMPDEST PUSH1 0x4 SLOAD PUSH2 0x1D3 SWAP1 PUSH1 0x1 PUSH1 0xA0 SHL SWAP1 DIV PUSH1 0xFF AND DUP2 JUMP JUMPDEST PUSH1 0x40 MLOAD SWAP1 ISZERO ISZERO DUP2 MSTORE PUSH1 0x20 ADD PUSH2 0x154 JUMP JUMPDEST PUSH2 0x118 PUSH2 0x1F1 CALLDATASIZE PUSH1 0x4 PUSH2 0x79C JUMP JUMPDEST PUSH2 0x4A7 JUMP JUMPDEST PUSH1 0x0 SLOAD PUSH2 0x140 SWAP1 PUSH1 0x1 PUSH1 0x1 PUSH1 0xA0 SHL SUB AND DUP2 JUMP JUMPDEST PUSH1 0x4 SLOAD PUSH1 0x1 PUSH1 0xA0 SHL SWAP1 DIV PUSH1 0xFF AND PUSH2 0x1D3 JUMP JUMPDEST PUSH2 0x118 PUSH2 0x229 CALLDATASIZE PUSH1 0x4 PUSH2 0x7C1 JUMP JUMPDEST PUSH2 0x504 JUMP JUMPDEST PUSH2 0x19E PUSH2 0x23C CALLDATASIZE PUSH1 0x4 PUSH2 0x6EF JUMP JUMPDEST PUSH2 0x5DA JUMP JUMPDEST PUSH1 0x3 SLOAD PUSH2 0x140 SWAP1 PUSH1 0x1 PUSH1 0x1 PUSH1 0xA0 SHL SUB AND DUP2 JUMP JUMPDEST PUSH2 0x118 PUSH2 0x5FB JUMP JUMPDEST PUSH1 0x3 SLOAD PUSH1 0x1 PUSH1 0x1 PUSH1 0xA0 SHL SUB AND CALLER EQ PUSH2 0x273 JUMPI PUSH1 0x0 DUP1 REVERT JUMPDEST PUSH1 0x2 DUP1 SLOAD PUSH1 0x1 DUP2 ADD DUP3 SSTORE PUSH1 0x0 SWAP2 SWAP1 SWAP2 MSTORE PUSH32 0x405787FA12A823E0F2B7631CC41B3BA8828B3321CA811111FA75CD3AA3BB5ACE ADD SSTORE JUMP JUMPDEST PUSH1 0x3 SLOAD PUSH1 0x1 PUSH1 0x1 PUSH1 0xA0 SHL SUB AND CALLER EQ PUSH2 0x2BF JUMPI PUSH1 0x0 DUP1 REVERT JUMPDEST PUSH1 0x0 DUP1 SLOAD PUSH1 0x1 PUSH1 0x1 PUSH1 0xA0 SHL SUB NOT AND PUSH1 0x1 PUSH1 0x1 PUSH1 0xA0 SHL SUB SWAP3 SWAP1 SWAP3 AND SWAP2 SWAP1 SWAP2 OR SWAP1 SSTORE JUMP JUMPDEST PUSH1 0x1 DUP2 DUP2 SLOAD DUP2 LT PUSH2 0x2F1 JUMPI PUSH1 0x0 DUP1 REVERT JUMPDEST PUSH1 0x0 SWAP2 DUP3 MSTORE PUSH1 0x20 SWAP1 SWAP2 KECCAK256 ADD SLOAD PUSH1 0x1 PUSH1 0x1 PUSH1 0xA0 SHL SUB AND SWAP1 POP DUP2 JUMP JUMPDEST PUSH1 0x4 SLOAD PUSH1 0x1 PUSH1 0x1 PUSH1 0xA0 SHL SUB AND CALLER EQ DUP1 ISZERO PUSH2 0x332 JUMPI POP PUSH1 0x3 SLOAD PUSH1 0x1 PUSH1 0x1 PUSH1 0xA0 SHL SUB DUP4 DUP2 AND SWAP2 AND EQ JUMPDEST PUSH2 0x36F JUMPI PUSH1 0x40 MLOAD PUSH3 0x461BCD PUSH1 0xE5 SHL DUP2 MSTORE PUSH1 0x20 PUSH1 0x4 DUP3 ADD MSTORE PUSH1 0x9 PUSH1 0x24 DUP3 ADD MSTORE PUSH9 0x6E6F20616363657373 PUSH1 0xB8 SHL PUSH1 0x44 DUP3 ADD MSTORE PUSH1 0x64 ADD JUMPDEST PUSH1 0x40 MLOAD DUP1 SWAP2 SUB SWAP1 REVERT JUMPDEST PUSH1 0x3 DUP1 SLOAD PUSH1 0x1 PUSH1 0x1 PUSH1 0xA0 SHL SUB NOT AND PUSH1 0x1 PUSH1 0x1 PUSH1 0xA0 SHL SUB SWAP3 SWAP1 SWAP3 AND SWAP2 SWAP1 SWAP2 OR SWAP1 SSTORE POP JUMP JUMPDEST PUSH1 0x3 SLOAD PUSH1 0x1 PUSH1 0x1 PUSH1 0xA0 SHL SUB AND CALLER EQ PUSH2 0x3A9 JUMPI PUSH1 0x0 DUP1 REVERT JUMPDEST PUSH1 0x1 DUP1 SLOAD DUP1 DUP3 ADD DUP3 SSTORE PUSH1 0x0 SWAP2 SWAP1 SWAP2 MSTORE PUSH32 0xB10E2D527612073B26EECDFD717E6A320CF44B4AFAC2B0732D9FCBE2B7FA0CF6 ADD DUP1 SLOAD PUSH1 0x1 PUSH1 0x1 PUSH1 0xA0 SHL SUB NOT AND PUSH1 0x1 PUSH1 0x1 PUSH1 0xA0 SHL SUB SWAP3 SWAP1 SWAP3 AND SWAP2 SWAP1 SWAP2 OR SWAP1 SSTORE JUMP JUMPDEST PUSH1 0x3 SLOAD PUSH1 0x1 PUSH1 0x1 PUSH1 0xA0 SHL SUB AND CALLER EQ PUSH2 0x411 JUMPI PUSH1 0x0 DUP1 REVERT JUMPDEST DUP1 PUSH1 0x2 DUP4 DUP2 SLOAD DUP2 LT PUSH2 0x425 JUMPI PUSH2 0x425 PUSH2 0x7ED JUMP JUMPDEST PUSH1 0x0 SWAP2 DUP3 MSTORE PUSH1 0x20 SWAP1 SWAP2 KECCAK256 ADD SSTORE POP POP JUMP JUMPDEST PUSH1 0x0 DUP1 SLOAD PUSH1 0x40 MLOAD PUSH4 0x70A08231 PUSH1 0xE0 SHL DUP2 MSTORE ADDRESS PUSH1 0x4 DUP3 ADD MSTORE PUSH1 0x1 PUSH1 0x1 PUSH1 0xA0 SHL SUB SWAP1 SWAP2 AND SWAP1 PUSH4 0x70A08231 SWAP1 PUSH1 0x24 ADD PUSH1 0x20 PUSH1 0x40 MLOAD DUP1 DUP4 SUB DUP2 DUP7 GAS STATICCALL ISZERO DUP1 ISZERO PUSH2 0x47E JUMPI RETURNDATASIZE PUSH1 0x0 DUP1 RETURNDATACOPY RETURNDATASIZE PUSH1 0x0 REVERT JUMPDEST POP POP POP POP PUSH1 0x40 MLOAD RETURNDATASIZE PUSH1 0x1F NOT PUSH1 0x1F DUP3 ADD AND DUP3 ADD DUP1 PUSH1 0x40 MSTORE POP DUP2 ADD SWAP1 PUSH2 0x4A2 SWAP2 SWAP1 PUSH2 0x803 JUMP JUMPDEST SWAP1 POP SWAP1 JUMP JUMPDEST PUSH1 0x3 SLOAD PUSH1 0x1 PUSH1 0x1 PUSH1 0xA0 SHL SUB AND CALLER EQ PUSH2 0x4BE JUMPI PUSH1 0x0 DUP1 REVERT JUMPDEST DUP1 PUSH1 0x1 DUP4 DUP2 SLOAD DUP2 LT PUSH2 0x4D2 JUMPI PUSH2 0x4D2 PUSH2 0x7ED JUMP JUMPDEST SWAP1 PUSH1 0x0 MSTORE PUSH1 0x20 PUSH1 0x0 KECCAK256 ADD PUSH1 0x0 PUSH2 0x100 EXP DUP2 SLOAD DUP2 PUSH1 0x1 PUSH1 0x1 PUSH1 0xA0 SHL SUB MUL NOT AND SWAP1 DUP4 PUSH1 0x1 PUSH1 0x1 PUSH1 0xA0 SHL SUB AND MUL OR SWAP1 SSTORE POP POP POP JUMP JUMPDEST PUSH1 0x3 SLOAD PUSH1 0x1 PUSH1 0x1 PUSH1 0xA0 SHL SUB AND CALLER EQ PUSH2 0x51B JUMPI PUSH1 0x0 DUP1 REVERT JUMPDEST PUSH1 0x0 PUSH2 0x525 PUSH2 0x435 JUMP JUMPDEST GT PUSH2 0x55E JUMPI PUSH1 0x40 MLOAD PUSH3 0x461BCD PUSH1 0xE5 SHL DUP2 MSTORE PUSH1 0x20 PUSH1 0x4 DUP3 ADD MSTORE PUSH1 0x9 PUSH1 0x24 DUP3 ADD MSTORE PUSH9 0x1B9BC8185B5BDD5B9D PUSH1 0xBA SHL PUSH1 0x44 DUP3 ADD MSTORE PUSH1 0x64 ADD PUSH2 0x366 JUMP JUMPDEST PUSH1 0x0 SLOAD PUSH1 0x40 MLOAD PUSH4 0xA9059CBB PUSH1 0xE0 SHL DUP2 MSTORE PUSH1 0x1 PUSH1 0x1 PUSH1 0xA0 SHL SUB DUP5 DUP2 AND PUSH1 0x4 DUP4 ADD MSTORE PUSH1 0x24 DUP3 ADD DUP5 SWAP1 MSTORE SWAP1 SWAP2 AND SWAP1 PUSH4 0xA9059CBB SWAP1 PUSH1 0x44 ADD PUSH1 0x20 PUSH1 0x40 MLOAD DUP1 DUP4 SUB DUP2 PUSH1 0x0 DUP8 GAS CALL ISZERO DUP1 ISZERO PUSH2 0x5B1 JUMPI RETURNDATASIZE PUSH1 0x0 DUP1 RETURNDATACOPY RETURNDATASIZE PUSH1 0x0 REVERT JUMPDEST POP POP POP POP PUSH1 0x40 MLOAD RETURNDATASIZE PUSH1 0x1F NOT PUSH1 0x1F DUP3 ADD AND DUP3 ADD DUP1 PUSH1 0x40 MSTORE POP DUP2 ADD SWAP1 PUSH2 0x5D5 SWAP2 SWAP1 PUSH2 0x81C JUMP JUMPDEST POP POP POP JUMP JUMPDEST PUSH1 0x2 DUP2 DUP2 SLOAD DUP2 LT PUSH2 0x5EA JUMPI PUSH1 0x0 DUP1 REVERT JUMPDEST PUSH1 0x0 SWAP2 DUP3 MSTORE PUSH1 0x20 SWAP1 SWAP2 KECCAK256 ADD SLOAD SWAP1 POP DUP2 JUMP JUMPDEST PUSH1 0x0 JUMPDEST PUSH1 0x1 SLOAD DUP2 LT ISZERO PUSH2 0x6EC JUMPI PUSH1 0x0 SLOAD PUSH1 0x1 DUP1 SLOAD PUSH1 0x1 PUSH1 0x1 PUSH1 0xA0 SHL SUB SWAP1 SWAP3 AND SWAP2 PUSH4 0xA9059CBB SWAP2 SWAP1 DUP5 SWAP1 DUP2 LT PUSH2 0x632 JUMPI PUSH2 0x632 PUSH2 0x7ED JUMP JUMPDEST PUSH1 0x0 SWAP2 DUP3 MSTORE PUSH1 0x20 SWAP1 SWAP2 KECCAK256 ADD SLOAD PUSH1 0x2 DUP1 SLOAD PUSH1 0x1 PUSH1 0x1 PUSH1 0xA0 SHL SUB SWAP1 SWAP3 AND SWAP2 DUP6 SWAP1 DUP2 LT PUSH2 0x65E JUMPI PUSH2 0x65E PUSH2 0x7ED JUMP JUMPDEST PUSH1 0x0 SWAP2 DUP3 MSTORE PUSH1 0x20 SWAP1 SWAP2 KECCAK256 ADD SLOAD PUSH1 0x40 MLOAD PUSH1 0x1 PUSH1 0x1 PUSH1 0xE0 SHL SUB NOT PUSH1 0xE0 DUP6 SWAP1 SHL AND DUP2 MSTORE PUSH1 0x1 PUSH1 0x1 PUSH1 0xA0 SHL SUB SWAP1 SWAP3 AND PUSH1 0x4 DUP4 ADD MSTORE PUSH1 0x24 DUP3 ADD MSTORE PUSH1 0x44 ADD PUSH1 0x20 PUSH1 0x40 MLOAD DUP1 DUP4 SUB DUP2 PUSH1 0x0 DUP8 GAS CALL ISZERO DUP1 ISZERO PUSH2 0x6B5 JUMPI RETURNDATASIZE PUSH1 0x0 DUP1 RETURNDATACOPY RETURNDATASIZE PUSH1 0x0 REVERT JUMPDEST POP POP POP POP PUSH1 0x40 MLOAD RETURNDATASIZE PUSH1 0x1F NOT PUSH1 0x1F DUP3 ADD AND DUP3 ADD DUP1 PUSH1 0x40 MSTORE POP DUP2 ADD SWAP1 PUSH2 0x6D9 SWAP2 SWAP1 PUSH2 0x81C JUMP JUMPDEST POP DUP1 PUSH2 0x6E4 DUP2 PUSH2 0x83E JUMP JUMPDEST SWAP2 POP POP PUSH2 0x5FE JUMP JUMPDEST POP JUMP JUMPDEST PUSH1 0x0 PUSH1 0x20 DUP3 DUP5 SUB SLT ISZERO PUSH2 0x701 JUMPI PUSH1 0x0 DUP1 REVERT JUMPDEST POP CALLDATALOAD SWAP2 SWAP1 POP JUMP JUMPDEST PUSH1 0x1 PUSH1 0x1 PUSH1 0xA0 SHL SUB DUP2 AND DUP2 EQ PUSH2 0x6EC JUMPI PUSH1 0x0 DUP1 REVERT JUMPDEST PUSH1 0x0 PUSH1 0x20 DUP3 DUP5 SUB SLT ISZERO PUSH2 0x72F JUMPI PUSH1 0x0 DUP1 REVERT JUMPDEST DUP2 CALLDATALOAD PUSH2 0x73A DUP2 PUSH2 0x708 JUMP JUMPDEST SWAP4 SWAP3 POP POP POP JUMP JUMPDEST PUSH1 0x0 DUP1 PUSH1 0x40 DUP4 DUP6 SUB SLT ISZERO PUSH2 0x754 JUMPI PUSH1 0x0 DUP1 REVERT JUMPDEST DUP3 CALLDATALOAD PUSH2 0x75F DUP2 PUSH2 0x708 JUMP JUMPDEST SWAP2 POP PUSH1 0x20 DUP4 ADD CALLDATALOAD PUSH2 0x76F DUP2 PUSH2 0x708 JUMP JUMPDEST DUP1 SWAP2 POP POP SWAP3 POP SWAP3 SWAP1 POP JUMP JUMPDEST PUSH1 0x0 DUP1 PUSH1 0x40 DUP4 DUP6 SUB SLT ISZERO PUSH2 0x78D JUMPI PUSH1 0x0 DUP1 REVERT JUMPDEST POP POP DUP1 CALLDATALOAD SWAP3 PUSH1 0x20 SWAP1 SWAP2 ADD CALLDATALOAD SWAP2 POP JUMP JUMPDEST PUSH1 0x0 DUP1 PUSH1 0x40 DUP4 DUP6 SUB SLT ISZERO PUSH2 0x7AF JUMPI PUSH1 0x0 DUP1 REVERT JUMPDEST DUP3 CALLDATALOAD SWAP2 POP PUSH1 0x20 DUP4 ADD CALLDATALOAD PUSH2 0x76F DUP2 PUSH2 0x708 JUMP JUMPDEST PUSH1 0x0 DUP1 PUSH1 0x40 DUP4 DUP6 SUB SLT ISZERO PUSH2 0x7D4 JUMPI PUSH1 0x0 DUP1 REVERT JUMPDEST DUP3 CALLDATALOAD PUSH2 0x7DF DUP2 PUSH2 0x708 JUMP JUMPDEST SWAP5 PUSH1 0x20 SWAP4 SWAP1 SWAP4 ADD CALLDATALOAD SWAP4 POP POP POP JUMP JUMPDEST PUSH4 0x4E487B71 PUSH1 0xE0 SHL PUSH1 0x0 MSTORE PUSH1 0x32 PUSH1 0x4 MSTORE PUSH1 0x24 PUSH1 0x0 REVERT JUMPDEST PUSH1 0x0 PUSH1 0x20 DUP3 DUP5 SUB SLT ISZERO PUSH2 0x815 JUMPI PUSH1 0x0 DUP1 REVERT JUMPDEST POP MLOAD SWAP2 SWAP1 POP JUMP JUMPDEST PUSH1 0x0 PUSH1 0x20 DUP3 DUP5 SUB SLT ISZERO PUSH2 0x82E JUMPI PUSH1 0x0 DUP1 REVERT JUMPDEST DUP2 MLOAD DUP1 ISZERO ISZERO DUP2 EQ PUSH2 0x73A JUMPI PUSH1 0x0 DUP1 REVERT JUMPDEST PUSH1 0x0 PUSH1 0x1 DUP3 ADD PUSH2 0x85E JUMPI PUSH4 0x4E487B71 PUSH1 0xE0 SHL PUSH1 0x0 MSTORE PUSH1 0x11 PUSH1 0x4 MSTORE PUSH1 0x24 PUSH1 0x0 REVERT JUMPDEST POP PUSH1 0x1 ADD SWAP1 JUMP INVALID LOG2 PUSH5 0x6970667358 0x22 SLT KECCAK256 0xCD CALL DUP5 ISZERO MSTORE8 DUP3 PUSH20 0x333884173F95226F119BB1D1B6D9F7AEE243C037 LOG0 SHR SWAP13 PUSH32 0xB464736F6C634300081200330000000000000000000000000000000000000000 "
				},
				"gasEstimates": {
					"creation": {
						"codeDepositCost": "440600",
						"executionCost": "infinite",
						"totalCost": "infinite"
					},
					"external": {
						"AllocationAmount()": "infinite",
						"AllocationFundAddress(uint256)": "4671",
						"DestructStatus()": "2350",
						"WETH()": "2393",
						"addAddress(address)": "50964",
						"addRate(uint256)": "48724",
						"admin()": "2392",
						"cityNode()": "2415",
						"getBalanceOfWeth()": "infinite",
						"getDestructStatus()": "2410",
						"rate(uint256)": "4619",
						"setAddress(uint256,address)": "28987",
						"setRate(uint256,uint256)": "26725",
						"setToken(address)": "26751",
						"transferAmount(address,uint256)": "infinite",
						"transferOwner(address,address)": "infinite"
					}
				},
				"methodIdentifiers": {
					"AllocationAmount()": "fa46b690",
					"AllocationFundAddress(uint256)": "1de1e2ac",
					"DestructStatus()": "8fc99ea3",
					"WETH()": "ad5c4648",
					"addAddress(address)": "38eada1c",
					"addRate(uint256)": "09f14a5c",
					"admin()": "f851a440",
					"cityNode()": "70ca09bc",
					"getBalanceOfWeth()": "6711be0e",
					"getDestructStatus()": "b8ac457b",
					"rate(uint256)": "e7ee6ad6",
					"setAddress(uint256,address)": "ac4ce2c6",
					"setRate(uint256,uint256)": "46df2ccb",
					"setToken(address)": "144fa6d7",
					"transferAmount(address,uint256)": "d7081e03",
					"transferOwner(address,address)": "31678cf6"
				}
			},
			"storageLayout": {
				"storage": [
					{
						"astId": 83,
						"contract": "contracts/CityNodeTreasury.sol:CityNodeTreasury",
						"label": "WETH",
						"offset": 0,
						"slot": "0",
						"type": "t_contract(IERC20)77"
					},
					{
						"astId": 86,
						"contract": "contracts/CityNodeTreasury.sol:CityNodeTreasury",
						"label": "AllocationFundAddress",
						"offset": 0,
						"slot": "1",
						"type": "t_array(t_address)dyn_storage"
					},
					{
						"astId": 89,
						"contract": "contracts/CityNodeTreasury.sol:CityNodeTreasury",
						"label": "rate",
						"offset": 0,
						"slot": "2",
						"type": "t_array(t_uint256)dyn_storage"
					},
					{
						"astId": 91,
						"contract": "contracts/CityNodeTreasury.sol:CityNodeTreasury",
						"label": "admin",
						"offset": 0,
						"slot": "3",
						"type": "t_address_payable"
					},
					{
						"astId": 93,
						"contract": "contracts/CityNodeTreasury.sol:CityNodeTreasury",
						"label": "cityNode",
						"offset": 0,
						"slot": "4",
						"type": "t_address"
					},
					{
						"astId": 95,
						"contract": "contracts/CityNodeTreasury.sol:CityNodeTreasury",
						"label": "DestructStatus",
						"offset": 20,
						"slot": "4",
						"type": "t_bool"
					}
				],
				"types": {
					"t_address": {
						"encoding": "inplace",
						"label": "address",
						"numberOfBytes": "20"
					},
					"t_address_payable": {
						"encoding": "inplace",
						"label": "address payable",
						"numberOfBytes": "20"
					},
					"t_array(t_address)dyn_storage": {
						"base": "t_address",
						"encoding": "dynamic_array",
						"label": "address[]",
						"numberOfBytes": "32"
					},
					"t_array(t_uint256)dyn_storage": {
						"base": "t_uint256",
						"encoding": "dynamic_array",
						"label": "uint256[]",
						"numberOfBytes": "32"
					},
					"t_bool": {
						"encoding": "inplace",
						"label": "bool",
						"numberOfBytes": "1"
					},
					"t_contract(IERC20)77": {
						"encoding": "inplace",
						"label": "contract IERC20",
						"numberOfBytes": "20"
					},
					"t_uint256": {
						"encoding": "inplace",
						"label": "uint256",
						"numberOfBytes": "32"
					}
				}
			},
			"userdoc": {
				"kind": "user",
				"methods": {},
				"version": 1
			}
		}
	}
}