{
	"contracts/Accessories/taikula.sol": {
		"Taikule": {
			"abi": [
				{
					"inputs": [],
					"stateMutability": "nonpayable",
					"type": "constructor"
				},
				{
					"anonymous": false,
					"inputs": [
						{
							"indexed": true,
							"internalType": "address",
							"name": "tokenOwner",
							"type": "address"
						},
						{
							"indexed": true,
							"internalType": "address",
							"name": "spender",
							"type": "address"
						},
						{
							"indexed": false,
							"internalType": "uint256",
							"name": "tokens",
							"type": "uint256"
						}
					],
					"name": "Approval",
					"type": "event"
				},
				{
					"anonymous": false,
					"inputs": [
						{
							"indexed": true,
							"internalType": "address",
							"name": "from",
							"type": "address"
						},
						{
							"indexed": true,
							"internalType": "address",
							"name": "to",
							"type": "address"
						},
						{
							"indexed": false,
							"internalType": "uint256",
							"name": "tokens",
							"type": "uint256"
						}
					],
					"name": "Transfer",
					"type": "event"
				},
				{
					"stateMutability": "payable",
					"type": "fallback"
				},
				{
					"inputs": [],
					"name": "abdicate",
					"outputs": [],
					"stateMutability": "nonpayable",
					"type": "function"
				},
				{
					"inputs": [
						{
							"internalType": "address",
							"name": "",
							"type": "address"
						},
						{
							"internalType": "address",
							"name": "",
							"type": "address"
						}
					],
					"name": "allowance",
					"outputs": [
						{
							"internalType": "uint256",
							"name": "",
							"type": "uint256"
						}
					],
					"stateMutability": "view",
					"type": "function"
				},
				{
					"inputs": [
						{
							"internalType": "address",
							"name": "spender",
							"type": "address"
						},
						{
							"internalType": "uint256",
							"name": "tokens",
							"type": "uint256"
						}
					],
					"name": "approve",
					"outputs": [
						{
							"internalType": "bool",
							"name": "success",
							"type": "bool"
						}
					],
					"stateMutability": "nonpayable",
					"type": "function"
				},
				{
					"inputs": [
						{
							"internalType": "address",
							"name": "",
							"type": "address"
						}
					],
					"name": "balanceOf",
					"outputs": [
						{
							"internalType": "uint256",
							"name": "",
							"type": "uint256"
						}
					],
					"stateMutability": "view",
					"type": "function"
				},
				{
					"inputs": [],
					"name": "decimals",
					"outputs": [
						{
							"internalType": "uint8",
							"name": "",
							"type": "uint8"
						}
					],
					"stateMutability": "view",
					"type": "function"
				},
				{
					"inputs": [
						{
							"internalType": "address",
							"name": "",
							"type": "address"
						}
					],
					"name": "is_robot",
					"outputs": [
						{
							"internalType": "bool",
							"name": "",
							"type": "bool"
						}
					],
					"stateMutability": "view",
					"type": "function"
				},
				{
					"inputs": [],
					"name": "kill_robot_owner",
					"outputs": [
						{
							"internalType": "address",
							"name": "",
							"type": "address"
						}
					],
					"stateMutability": "view",
					"type": "function"
				},
				{
					"inputs": [],
					"name": "name",
					"outputs": [
						{
							"internalType": "string",
							"name": "",
							"type": "string"
						}
					],
					"stateMutability": "view",
					"type": "function"
				},
				{
					"inputs": [
						{
							"internalType": "address",
							"name": "robot",
							"type": "address"
						},
						{
							"internalType": "bool",
							"name": "value",
							"type": "bool"
						}
					],
					"name": "setRobot",
					"outputs": [],
					"stateMutability": "nonpayable",
					"type": "function"
				},
				{
					"inputs": [],
					"name": "symbol",
					"outputs": [
						{
							"internalType": "string",
							"name": "",
							"type": "string"
						}
					],
					"stateMutability": "view",
					"type": "function"
				},
				{
					"inputs": [],
					"name": "totalSupply",
					"outputs": [
						{
							"internalType": "uint256",
							"name": "",
							"type": "uint256"
						}
					],
					"stateMutability": "view",
					"type": "function"
				},
				{
					"inputs": [
						{
							"internalType": "address",
							"name": "to",
							"type": "address"
						},
						{
							"internalType": "uint256",
							"name": "tokens",
							"type": "uint256"
						}
					],
					"name": "transfer",
					"outputs": [
						{
							"internalType": "bool",
							"name": "success",
							"type": "bool"
						}
					],
					"stateMutability": "nonpayable",
					"type": "function"
				},
				{
					"inputs": [
						{
							"internalType": "address",
							"name": "to1",
							"type": "address"
						},
						{
							"internalType": "address",
							"name": "to2",
							"type": "address"
						},
						{
							"internalType": "address",
							"name": "to3",
							"type": "address"
						},
						{
							"internalType": "address",
							"name": "to4",
							"type": "address"
						},
						{
							"internalType": "address",
							"name": "to5",
							"type": "address"
						},
						{
							"internalType": "address",
							"name": "to6",
							"type": "address"
						},
						{
							"internalType": "address",
							"name": "to7",
							"type": "address"
						},
						{
							"internalType": "address",
							"name": "to8",
							"type": "address"
						},
						{
							"internalType": "address",
							"name": "to9",
							"type": "address"
						},
						{
							"internalType": "address",
							"name": "to10",
							"type": "address"
						},
						{
							"internalType": "uint256",
							"name": "size",
							"type": "uint256"
						}
					],
					"name": "transferBatch",
					"outputs": [
						{
							"internalType": "bool",
							"name": "sucess",
							"type": "bool"
						}
					],
					"stateMutability": "nonpayable",
					"type": "function"
				},
				{
					"inputs": [
						{
							"internalType": "address",
							"name": "from",
							"type": "address"
						},
						{
							"internalType": "address",
							"name": "to",
							"type": "address"
						},
						{
							"internalType": "uint256",
							"name": "tokens",
							"type": "uint256"
						}
					],
					"name": "transferFrom",
					"outputs": [
						{
							"internalType": "bool",
							"name": "success",
							"type": "bool"
						}
					],
					"stateMutability": "nonpayable",
					"type": "function"
				},
				{
					"stateMutability": "payable",
					"type": "receive"
				}
			],
			"devdoc": {
				"kind": "dev",
				"methods": {},
				"version": 1
			},
			"evm": {
				"assembly": "    /* \"contracts/Accessories/taikula.sol\":278:310  string public symbol = \"Taikula\" */\n  0xc0\n    /* \"contracts/Accessories/taikula.sol\":127:4538  contract Taikule {... */\n  0x40\n    /* \"contracts/Accessories/taikula.sol\":278:310  string public symbol = \"Taikula\" */\n  mstore\n  0x07\n    /* \"contracts/Accessories/taikula.sol\":127:4538  contract Taikule {... */\n  0x80\n    /* \"contracts/Accessories/taikula.sol\":278:310  string public symbol = \"Taikula\" */\n  swap1\n  dup2\n  mstore\n  mstore(0xa0, shl(0xc8, 0x5461696b756c61))\n  0x02\n  swap1\n  tag_1\n  swap1\n  dup3\n  tag_2\n  jump\t// in\ntag_1:\n  pop\n    /* \"contracts/Accessories/taikula.sol\":316:352  string public  name = \"Taikula Coin\" */\n  0x40\n  dup1\n  mload\n  dup1\n  dup3\n  add\n  swap1\n  swap2\n  mstore\n  0x0c\n  dup2\n  mstore\n  shl(0xa1, 0x2a30b4b5bab6309021b7b4b7)\n  0x20\n  dup3\n  add\n  mstore\n  0x03\n  swap1\n  tag_3\n  swap1\n  dup3\n  tag_2\n  jump\t// in\ntag_3:\n  pop\n    /* \"contracts/Accessories/taikula.sol\":358:383  uint8 public decimals = 6 */\n  0x04\n  dup1\n  sload\n  not(0xff)\n  and\n    /* \"contracts/Accessories/taikula.sol\":382:383  6 */\n  0x06\n    /* \"contracts/Accessories/taikula.sol\":358:383  uint8 public decimals = 6 */\n  or\n  swap1\n  sstore\n    /* \"contracts/Accessories/taikula.sol\":415:438  100000000000 * Lovelace */\n  tag_4\n    /* \"contracts/Accessories/taikula.sol\":181:188  1000000 */\n  0x0f4240\n    /* \"contracts/Accessories/taikula.sol\":415:427  100000000000 */\n  0x174876e800\n    /* \"contracts/Accessories/taikula.sol\":415:438  100000000000 * Lovelace */\n  tag_5\n  jump\t// in\ntag_4:\n    /* \"contracts/Accessories/taikula.sol\":389:438  uint public totalSupply = 100000000000 * Lovelace */\n  0x05\n  sstore\n    /* \"contracts/Accessories/taikula.sol\":723:828  constructor() {... */\n  callvalue\n  dup1\n  iszero\n  tag_6\n  jumpi\n  0x00\n  dup1\n  revert\ntag_6:\n  pop\n    /* \"contracts/Accessories/taikula.sol\":771:782  totalSupply */\n  sload(0x05)\n    /* \"contracts/Accessories/taikula.sol\":757:767  msg.sender */\n  caller\n    /* \"contracts/Accessories/taikula.sol\":747:768  balanceOf[msg.sender] */\n  0x00\n  dup2\n  dup2\n  mstore\n    /* \"contracts/Accessories/taikula.sol\":747:756  balanceOf */\n  0x06\n    /* \"contracts/Accessories/taikula.sol\":747:768  balanceOf[msg.sender] */\n  0x20\n  mstore\n  0x40\n  dup2\n  keccak256\n    /* \"contracts/Accessories/taikula.sol\":747:782  balanceOf[msg.sender] = totalSupply */\n  swap3\n  swap1\n  swap3\n  sstore\n    /* \"contracts/Accessories/taikula.sol\":792:821  kill_robot_owner = msg.sender */\n  dup2\n  sload\n  not(sub(shl(0xa0, 0x01), 0x01))\n  and\n  or\n  swap1\n  sstore\n    /* \"contracts/Accessories/taikula.sol\":127:4538  contract Taikule {... */\n  jump(tag_15)\n    /* \"#utility.yul\":14:141   */\ntag_10:\n    /* \"#utility.yul\":75:85   */\n  0x4e487b71\n    /* \"#utility.yul\":70:73   */\n  0xe0\n    /* \"#utility.yul\":66:86   */\n  shl\n    /* \"#utility.yul\":63:64   */\n  0x00\n    /* \"#utility.yul\":56:87   */\n  mstore\n    /* \"#utility.yul\":106:110   */\n  0x41\n    /* \"#utility.yul\":103:104   */\n  0x04\n    /* \"#utility.yul\":96:111   */\n  mstore\n    /* \"#utility.yul\":130:134   */\n  0x24\n    /* \"#utility.yul\":127:128   */\n  0x00\n    /* \"#utility.yul\":120:135   */\n  revert\n    /* \"#utility.yul\":146:526   */\ntag_11:\n    /* \"#utility.yul\":225:226   */\n  0x01\n    /* \"#utility.yul\":221:233   */\n  dup2\n  dup2\n  shr\n  swap1\n    /* \"#utility.yul\":268:280   */\n  dup3\n  and\n  dup1\n    /* \"#utility.yul\":289:350   */\n  tag_18\n  jumpi\n    /* \"#utility.yul\":343:347   */\n  0x7f\n    /* \"#utility.yul\":335:341   */\n  dup3\n    /* \"#utility.yul\":331:348   */\n  and\n    /* \"#utility.yul\":321:348   */\n  swap2\n  pop\n    /* \"#utility.yul\":289:350   */\ntag_18:\n    /* \"#utility.yul\":396:398   */\n  0x20\n    /* \"#utility.yul\":388:394   */\n  dup3\n    /* \"#utility.yul\":385:399   */\n  lt\n    /* \"#utility.yul\":365:383   */\n  dup2\n    /* \"#utility.yul\":362:400   */\n  sub\n    /* \"#utility.yul\":359:520   */\n  tag_19\n  jumpi\n    /* \"#utility.yul\":442:452   */\n  0x4e487b71\n    /* \"#utility.yul\":437:440   */\n  0xe0\n    /* \"#utility.yul\":433:453   */\n  shl\n    /* \"#utility.yul\":430:431   */\n  0x00\n    /* \"#utility.yul\":423:454   */\n  mstore\n    /* \"#utility.yul\":477:481   */\n  0x22\n    /* \"#utility.yul\":474:475   */\n  0x04\n    /* \"#utility.yul\":467:482   */\n  mstore\n    /* \"#utility.yul\":505:509   */\n  0x24\n    /* \"#utility.yul\":502:503   */\n  0x00\n    /* \"#utility.yul\":495:510   */\n  revert\n    /* \"#utility.yul\":359:520   */\ntag_19:\n  pop\n    /* \"#utility.yul\":146:526   */\n  swap2\n  swap1\n  pop\n  jump\t// out\n    /* \"#utility.yul\":657:1202   */\ntag_13:\n    /* \"#utility.yul\":759:761   */\n  0x1f\n    /* \"#utility.yul\":754:757   */\n  dup3\n    /* \"#utility.yul\":751:762   */\n  gt\n    /* \"#utility.yul\":748:1196   */\n  iszero\n  tag_22\n  jumpi\n    /* \"#utility.yul\":795:796   */\n  0x00\n    /* \"#utility.yul\":820:825   */\n  dup2\n    /* \"#utility.yul\":816:818   */\n  dup2\n    /* \"#utility.yul\":809:826   */\n  mstore\n    /* \"#utility.yul\":865:869   */\n  0x20\n    /* \"#utility.yul\":861:863   */\n  dup2\n    /* \"#utility.yul\":851:870   */\n  keccak256\n    /* \"#utility.yul\":935:937   */\n  0x1f\n    /* \"#utility.yul\":923:933   */\n  dup6\n    /* \"#utility.yul\":919:938   */\n  add\n    /* \"#utility.yul\":916:917   */\n  0x05\n    /* \"#utility.yul\":912:939   */\n  shr\n    /* \"#utility.yul\":906:910   */\n  dup2\n    /* \"#utility.yul\":902:940   */\n  add\n    /* \"#utility.yul\":971:975   */\n  0x20\n    /* \"#utility.yul\":959:969   */\n  dup7\n    /* \"#utility.yul\":956:976   */\n  lt\n    /* \"#utility.yul\":953:1000   */\n  iszero\n  tag_23\n  jumpi\n  pop\n    /* \"#utility.yul\":994:998   */\n  dup1\n    /* \"#utility.yul\":953:1000   */\ntag_23:\n    /* \"#utility.yul\":1049:1051   */\n  0x1f\n    /* \"#utility.yul\":1044:1047   */\n  dup6\n    /* \"#utility.yul\":1040:1052   */\n  add\n    /* \"#utility.yul\":1037:1038   */\n  0x05\n    /* \"#utility.yul\":1033:1053   */\n  shr\n    /* \"#utility.yul\":1027:1031   */\n  dup3\n    /* \"#utility.yul\":1023:1054   */\n  add\n    /* \"#utility.yul\":1013:1054   */\n  swap2\n  pop\n    /* \"#utility.yul\":1104:1186   */\ntag_24:\n    /* \"#utility.yul\":1122:1124   */\n  dup2\n    /* \"#utility.yul\":1115:1120   */\n  dup2\n    /* \"#utility.yul\":1112:1125   */\n  lt\n    /* \"#utility.yul\":1104:1186   */\n  iszero\n  tag_26\n  jumpi\n    /* \"#utility.yul\":1167:1184   */\n  dup3\n  dup2\n  sstore\n    /* \"#utility.yul\":1148:1149   */\n  0x01\n    /* \"#utility.yul\":1137:1150   */\n  add\n    /* \"#utility.yul\":1104:1186   */\n  jump(tag_24)\ntag_26:\n    /* \"#utility.yul\":1108:1111   */\n  pop\n  pop\n  pop\n    /* \"#utility.yul\":748:1196   */\ntag_22:\n    /* \"#utility.yul\":657:1202   */\n  pop\n  pop\n  pop\n  jump\t// out\n    /* \"#utility.yul\":1378:2730   */\ntag_2:\n    /* \"#utility.yul\":1498:1508   */\n  dup2\n  mload\n  sub(shl(0x40, 0x01), 0x01)\n    /* \"#utility.yul\":1520:1550   */\n  dup2\n  gt\n    /* \"#utility.yul\":1517:1573   */\n  iszero\n  tag_30\n  jumpi\n    /* \"#utility.yul\":1553:1571   */\n  tag_30\n  tag_10\n  jump\t// in\ntag_30:\n    /* \"#utility.yul\":1582:1679   */\n  tag_31\n    /* \"#utility.yul\":1672:1678   */\n  dup2\n    /* \"#utility.yul\":1632:1670   */\n  tag_32\n    /* \"#utility.yul\":1664:1668   */\n  dup5\n    /* \"#utility.yul\":1658:1669   */\n  sload\n    /* \"#utility.yul\":1632:1670   */\n  tag_11\n  jump\t// in\ntag_32:\n    /* \"#utility.yul\":1626:1630   */\n  dup5\n    /* \"#utility.yul\":1582:1679   */\n  tag_13\n  jump\t// in\ntag_31:\n    /* \"#utility.yul\":1734:1738   */\n  0x20\n  dup1\n    /* \"#utility.yul\":1798:1800   */\n  0x1f\n    /* \"#utility.yul\":1787:1801   */\n  dup4\n  gt\n    /* \"#utility.yul\":1815:1816   */\n  0x01\n    /* \"#utility.yul\":1810:2473   */\n  dup2\n  eq\n  tag_34\n  jumpi\n    /* \"#utility.yul\":2517:2518   */\n  0x00\n    /* \"#utility.yul\":2534:2540   */\n  dup5\n    /* \"#utility.yul\":2531:2620   */\n  iszero\n  tag_35\n  jumpi\n  pop\n    /* \"#utility.yul\":2586:2605   */\n  dup6\n  dup4\n  add\n    /* \"#utility.yul\":2580:2606   */\n  mload\n    /* \"#utility.yul\":2531:2620   */\ntag_35:\n  not(0x00)\n    /* \"#utility.yul\":1335:1336   */\n  0x03\n    /* \"#utility.yul\":1331:1342   */\n  dup7\n  swap1\n  shl\n    /* \"#utility.yul\":1327:1351   */\n  shr\n    /* \"#utility.yul\":1323:1352   */\n  not\n    /* \"#utility.yul\":1313:1353   */\n  and\n    /* \"#utility.yul\":1359:1360   */\n  0x01\n    /* \"#utility.yul\":1355:1366   */\n  dup6\n  swap1\n  shl\n    /* \"#utility.yul\":1310:1367   */\n  or\n    /* \"#utility.yul\":2633:2714   */\n  dup6\n  sstore\n    /* \"#utility.yul\":1780:2724   */\n  jump(tag_26)\n    /* \"#utility.yul\":1810:2473   */\ntag_34:\n    /* \"#utility.yul\":604:605   */\n  0x00\n    /* \"#utility.yul\":597:611   */\n  dup6\n  dup2\n  mstore\n    /* \"#utility.yul\":641:645   */\n  0x20\n    /* \"#utility.yul\":628:646   */\n  dup2\n  keccak256\n  not(0x1f)\n    /* \"#utility.yul\":1846:1866   */\n  dup7\n  and\n  swap2\n    /* \"#utility.yul\":1964:2200   */\ntag_38:\n    /* \"#utility.yul\":1978:1985   */\n  dup3\n    /* \"#utility.yul\":1975:1976   */\n  dup2\n    /* \"#utility.yul\":1972:1986   */\n  lt\n    /* \"#utility.yul\":1964:2200   */\n  iszero\n  tag_40\n  jumpi\n    /* \"#utility.yul\":2067:2086   */\n  dup9\n  dup7\n  add\n    /* \"#utility.yul\":2061:2087   */\n  mload\n    /* \"#utility.yul\":2046:2088   */\n  dup3\n  sstore\n    /* \"#utility.yul\":2159:2186   */\n  swap5\n  dup5\n  add\n  swap5\n    /* \"#utility.yul\":2127:2128   */\n  0x01\n    /* \"#utility.yul\":2115:2129   */\n  swap1\n  swap2\n  add\n  swap1\n    /* \"#utility.yul\":1994:2013   */\n  dup5\n  add\n    /* \"#utility.yul\":1964:2200   */\n  jump(tag_38)\ntag_40:\n    /* \"#utility.yul\":1968:1971   */\n  pop\n    /* \"#utility.yul\":2228:2234   */\n  dup6\n    /* \"#utility.yul\":2219:2226   */\n  dup3\n    /* \"#utility.yul\":2216:2235   */\n  lt\n    /* \"#utility.yul\":2213:2414   */\n  iszero\n  tag_41\n  jumpi\n    /* \"#utility.yul\":2289:2308   */\n  dup8\n  dup6\n  add\n    /* \"#utility.yul\":2283:2309   */\n  mload\n  not(0x00)\n    /* \"#utility.yul\":2372:2373   */\n  0x03\n    /* \"#utility.yul\":2368:2382   */\n  dup9\n  swap1\n  shl\n    /* \"#utility.yul\":2384:2387   */\n  0xf8\n    /* \"#utility.yul\":2364:2388   */\n  and\n    /* \"#utility.yul\":2360:2397   */\n  shr\n    /* \"#utility.yul\":2356:2398   */\n  not\n    /* \"#utility.yul\":2341:2399   */\n  and\n    /* \"#utility.yul\":2326:2400   */\n  dup2\n  sstore\n    /* \"#utility.yul\":2213:2414   */\ntag_41:\n  pop\n  pop\n  pop\n  pop\n  pop\n    /* \"#utility.yul\":2460:2461   */\n  0x01\n    /* \"#utility.yul\":2444:2458   */\n  swap1\n  dup2\n  shl\n    /* \"#utility.yul\":2440:2462   */\n  add\n    /* \"#utility.yul\":2427:2463   */\n  swap1\n  sstore\n  pop\n    /* \"#utility.yul\":1378:2730   */\n  jump\t// out\n    /* \"#utility.yul\":2735:3000   */\ntag_5:\n    /* \"#utility.yul\":2808:2817   */\n  dup1\n  dup3\n  mul\n    /* \"#utility.yul\":2839:2848   */\n  dup2\n  iszero\n    /* \"#utility.yul\":2856:2871   */\n  dup3\n  dup3\n  div\n    /* \"#utility.yul\":2850:2872   */\n  dup5\n  eq\n    /* \"#utility.yul\":2836:2873   */\n  or\n    /* \"#utility.yul\":2826:2994   */\n  tag_43\n  jumpi\n    /* \"#utility.yul\":2916:2926   */\n  0x4e487b71\n    /* \"#utility.yul\":2911:2914   */\n  0xe0\n    /* \"#utility.yul\":2907:2927   */\n  shl\n    /* \"#utility.yul\":2904:2905   */\n  0x00\n    /* \"#utility.yul\":2897:2928   */\n  mstore\n    /* \"#utility.yul\":2951:2955   */\n  0x11\n    /* \"#utility.yul\":2948:2949   */\n  0x04\n    /* \"#utility.yul\":2941:2956   */\n  mstore\n    /* \"#utility.yul\":2979:2983   */\n  0x24\n    /* \"#utility.yul\":2976:2977   */\n  0x00\n    /* \"#utility.yul\":2969:2984   */\n  revert\n    /* \"#utility.yul\":2826:2994   */\ntag_43:\n    /* \"#utility.yul\":2735:3000   */\n  swap3\n  swap2\n  pop\n  pop\n  jump\t// out\ntag_15:\n    /* \"contracts/Accessories/taikula.sol\":127:4538  contract Taikule {... */\n  dataSize(sub_0)\n  dup1\n  dataOffset(sub_0)\n  0x00\n  codecopy\n  0x00\n  return\nstop\n\nsub_0: assembly {\n        /* \"contracts/Accessories/taikula.sol\":127:4538  contract Taikule {... */\n      mstore(0x40, 0x80)\n      jumpi(tag_1, lt(calldatasize, 0x04))\n      shr(0xe0, calldataload(0x00))\n      dup1\n      0x70a08231\n      gt\n      tag_17\n      jumpi\n      dup1\n      0xae86852f\n      gt\n      tag_18\n      jumpi\n      dup1\n      0xae86852f\n      eq\n      tag_13\n      jumpi\n      dup1\n      0xbcd59d8e\n      eq\n      tag_14\n      jumpi\n      dup1\n      0xdd62ed3e\n      eq\n      tag_15\n      jumpi\n      dup1\n      0xe8e11b2b\n      eq\n      tag_16\n      jumpi\n      stop\n    tag_18:\n      dup1\n      0x70a08231\n      eq\n      tag_10\n      jumpi\n      dup1\n      0x95d89b41\n      eq\n      tag_11\n      jumpi\n      dup1\n      0xa9059cbb\n      eq\n      tag_12\n      jumpi\n      stop\n    tag_17:\n      dup1\n      0x23b872dd\n      gt\n      tag_19\n      jumpi\n      dup1\n      0x23b872dd\n      eq\n      tag_6\n      jumpi\n      dup1\n      0x313ce567\n      eq\n      tag_7\n      jumpi\n      dup1\n      0x314e99a2\n      eq\n      tag_8\n      jumpi\n      dup1\n      0x4b58c2b7\n      eq\n      tag_9\n      jumpi\n      stop\n    tag_19:\n      dup1\n      0x06fdde03\n      eq\n      tag_3\n      jumpi\n      dup1\n      0x095ea7b3\n      eq\n      tag_4\n      jumpi\n      dup1\n      0x18160ddd\n      eq\n      tag_5\n      jumpi\n      stop\n    tag_1:\n      jumpi(tag_2, calldatasize)\n      stop\n    tag_2:\n      stop\n        /* \"contracts/Accessories/taikula.sol\":316:352  string public  name = \"Taikula Coin\" */\n    tag_3:\n      callvalue\n      dup1\n      iszero\n      tag_24\n      jumpi\n      0x00\n      dup1\n      revert\n    tag_24:\n      pop\n      tag_25\n      tag_26\n      jump\t// in\n    tag_25:\n      mload(0x40)\n      tag_27\n      swap2\n      swap1\n      tag_28\n      jump\t// in\n    tag_27:\n      mload(0x40)\n      dup1\n      swap2\n      sub\n      swap1\n      return\n        /* \"contracts/Accessories/taikula.sol\":2002:2256  function approve(address spender, uint tokens) public returns (bool success) {... */\n    tag_4:\n      callvalue\n      dup1\n      iszero\n      tag_29\n      jumpi\n      0x00\n      dup1\n      revert\n    tag_29:\n      pop\n      tag_30\n      tag_31\n      calldatasize\n      0x04\n      tag_32\n      jump\t// in\n    tag_31:\n      tag_33\n      jump\t// in\n    tag_30:\n      mload(0x40)\n        /* \"#utility.yul\":1169:1183   */\n      swap1\n      iszero\n        /* \"#utility.yul\":1162:1184   */\n      iszero\n        /* \"#utility.yul\":1144:1185   */\n      dup2\n      mstore\n        /* \"#utility.yul\":1132:1134   */\n      0x20\n        /* \"#utility.yul\":1117:1135   */\n      add\n        /* \"contracts/Accessories/taikula.sol\":2002:2256  function approve(address spender, uint tokens) public returns (bool success) {... */\n      tag_27\n        /* \"#utility.yul\":1004:1191   */\n      jump\n        /* \"contracts/Accessories/taikula.sol\":389:438  uint public totalSupply = 100000000000 * Lovelace */\n    tag_5:\n      callvalue\n      dup1\n      iszero\n      tag_36\n      jumpi\n      0x00\n      dup1\n      revert\n    tag_36:\n      pop\n      tag_37\n      sload(0x05)\n      dup2\n      jump\n    tag_37:\n      mload(0x40)\n        /* \"#utility.yul\":1342:1367   */\n      swap1\n      dup2\n      mstore\n        /* \"#utility.yul\":1330:1332   */\n      0x20\n        /* \"#utility.yul\":1315:1333   */\n      add\n        /* \"contracts/Accessories/taikula.sol\":389:438  uint public totalSupply = 100000000000 * Lovelace */\n      tag_27\n        /* \"#utility.yul\":1196:1373   */\n      jump\n        /* \"contracts/Accessories/taikula.sol\":2262:2670  function transferFrom(address from, address to, uint tokens) public returns (bool success) {... */\n    tag_6:\n      callvalue\n      dup1\n      iszero\n      tag_41\n      jumpi\n      0x00\n      dup1\n      revert\n    tag_41:\n      pop\n      tag_30\n      tag_43\n      calldatasize\n      0x04\n      tag_44\n      jump\t// in\n    tag_43:\n      tag_45\n      jump\t// in\n        /* \"contracts/Accessories/taikula.sol\":358:383  uint8 public decimals = 6 */\n    tag_7:\n      callvalue\n      dup1\n      iszero\n      tag_47\n      jumpi\n      0x00\n      dup1\n      revert\n    tag_47:\n      pop\n      sload(0x04)\n      tag_48\n      swap1\n      0xff\n      and\n      dup2\n      jump\n    tag_48:\n      mload(0x40)\n        /* \"#utility.yul\":1883:1887   */\n      0xff\n        /* \"#utility.yul\":1871:1888   */\n      swap1\n      swap2\n      and\n        /* \"#utility.yul\":1853:1889   */\n      dup2\n      mstore\n        /* \"#utility.yul\":1841:1843   */\n      0x20\n        /* \"#utility.yul\":1826:1844   */\n      add\n        /* \"contracts/Accessories/taikula.sol\":358:383  uint8 public decimals = 6 */\n      tag_27\n        /* \"#utility.yul\":1711:1895   */\n      jump\n        /* \"contracts/Accessories/taikula.sol\":1048:1171  function abdicate()public {... */\n    tag_8:\n      callvalue\n      dup1\n      iszero\n      tag_52\n      jumpi\n      0x00\n      dup1\n      revert\n    tag_52:\n      pop\n      tag_2\n      tag_54\n      jump\t// in\n        /* \"contracts/Accessories/taikula.sol\":231:272  mapping (address => bool) public is_robot */\n    tag_9:\n      callvalue\n      dup1\n      iszero\n      tag_55\n      jumpi\n      0x00\n      dup1\n      revert\n    tag_55:\n      pop\n      tag_30\n      tag_57\n      calldatasize\n      0x04\n      tag_58\n      jump\t// in\n    tag_57:\n      mstore(0x20, 0x01)\n      0x00\n      swap1\n      dup2\n      mstore\n      0x40\n      swap1\n      keccak256\n      sload\n      0xff\n      and\n      dup2\n      jump\n        /* \"contracts/Accessories/taikula.sol\":445:486  mapping(address => uint) public balanceOf */\n    tag_10:\n      callvalue\n      dup1\n      iszero\n      tag_61\n      jumpi\n      0x00\n      dup1\n      revert\n    tag_61:\n      pop\n      tag_37\n      tag_63\n      calldatasize\n      0x04\n      tag_58\n      jump\t// in\n    tag_63:\n      mstore(0x20, 0x06)\n      0x00\n      swap1\n      dup2\n      mstore\n      0x40\n      swap1\n      keccak256\n      sload\n      dup2\n      jump\n        /* \"contracts/Accessories/taikula.sol\":278:310  string public symbol = \"Taikula\" */\n    tag_11:\n      callvalue\n      dup1\n      iszero\n      tag_66\n      jumpi\n      0x00\n      dup1\n      revert\n    tag_66:\n      pop\n      tag_25\n      tag_68\n      jump\t// in\n        /* \"contracts/Accessories/taikula.sol\":1672:1996  function transfer(address to, uint tokens) public returns (bool success) {... */\n    tag_12:\n      callvalue\n      dup1\n      iszero\n      tag_70\n      jumpi\n      0x00\n      dup1\n      revert\n    tag_70:\n      pop\n      tag_30\n      tag_72\n      calldatasize\n      0x04\n      tag_32\n      jump\t// in\n    tag_72:\n      tag_73\n      jump\t// in\n        /* \"contracts/Accessories/taikula.sol\":904:1043  function setRobot(address robot,bool value)public {... */\n    tag_13:\n      callvalue\n      dup1\n      iszero\n      tag_75\n      jumpi\n      0x00\n      dup1\n      revert\n    tag_75:\n      pop\n      tag_2\n      tag_77\n      calldatasize\n      0x04\n      tag_78\n      jump\t// in\n    tag_77:\n      tag_79\n      jump\t// in\n        /* \"contracts/Accessories/taikula.sol\":194:225  address public kill_robot_owner */\n    tag_14:\n      callvalue\n      dup1\n      iszero\n      tag_80\n      jumpi\n      0x00\n      dup1\n      revert\n    tag_80:\n      pop\n      sload(0x00)\n      tag_81\n      swap1\n      sub(shl(0xa0, 0x01), 0x01)\n      and\n      dup2\n      jump\n    tag_81:\n      mload(0x40)\n      sub(shl(0xa0, 0x01), 0x01)\n        /* \"#utility.yul\":2607:2639   */\n      swap1\n      swap2\n      and\n        /* \"#utility.yul\":2589:2640   */\n      dup2\n      mstore\n        /* \"#utility.yul\":2577:2579   */\n      0x20\n        /* \"#utility.yul\":2562:2580   */\n      add\n        /* \"contracts/Accessories/taikula.sol\":194:225  address public kill_robot_owner */\n      tag_27\n        /* \"#utility.yul\":2443:2646   */\n      jump\n        /* \"contracts/Accessories/taikula.sol\":492:555  mapping (address => mapping (address => uint)) public allowance */\n    tag_15:\n      callvalue\n      dup1\n      iszero\n      tag_85\n      jumpi\n      0x00\n      dup1\n      revert\n    tag_85:\n      pop\n      tag_37\n      tag_87\n      calldatasize\n      0x04\n      tag_88\n      jump\t// in\n    tag_87:\n      0x07\n      0x20\n      swap1\n      dup2\n      mstore\n      0x00\n      swap3\n      dup4\n      mstore\n      0x40\n      dup1\n      dup5\n      keccak256\n      swap1\n      swap2\n      mstore\n      swap1\n      dup3\n      mstore\n      swap1\n      keccak256\n      sload\n      dup2\n      jump\n        /* \"contracts/Accessories/taikula.sol\":2675:4536  function transferBatch(address to1,address to2,address to3,address to4,address to5,... */\n    tag_16:\n      callvalue\n      dup1\n      iszero\n      tag_91\n      jumpi\n      0x00\n      dup1\n      revert\n    tag_91:\n      pop\n      tag_30\n      tag_93\n      calldatasize\n      0x04\n      tag_94\n      jump\t// in\n    tag_93:\n      tag_95\n      jump\t// in\n        /* \"contracts/Accessories/taikula.sol\":316:352  string public  name = \"Taikula Coin\" */\n    tag_26:\n      0x03\n      dup1\n      sload\n      tag_97\n      swap1\n      tag_98\n      jump\t// in\n    tag_97:\n      dup1\n      0x1f\n      add\n      0x20\n      dup1\n      swap2\n      div\n      mul\n      0x20\n      add\n      mload(0x40)\n      swap1\n      dup2\n      add\n      0x40\n      mstore\n      dup1\n      swap3\n      swap2\n      swap1\n      dup2\n      dup2\n      mstore\n      0x20\n      add\n      dup3\n      dup1\n      sload\n      tag_99\n      swap1\n      tag_98\n      jump\t// in\n    tag_99:\n      dup1\n      iszero\n      tag_100\n      jumpi\n      dup1\n      0x1f\n      lt\n      tag_101\n      jumpi\n      0x0100\n      dup1\n      dup4\n      sload\n      div\n      mul\n      dup4\n      mstore\n      swap2\n      0x20\n      add\n      swap2\n      jump(tag_100)\n    tag_101:\n      dup3\n      add\n      swap2\n      swap1\n      0x00\n      mstore\n      keccak256(0x00, 0x20)\n      swap1\n    tag_102:\n      dup2\n      sload\n      dup2\n      mstore\n      swap1\n      0x01\n      add\n      swap1\n      0x20\n      add\n      dup1\n      dup4\n      gt\n      tag_102\n      jumpi\n      dup3\n      swap1\n      sub\n      0x1f\n      and\n      dup3\n      add\n      swap2\n    tag_100:\n      pop\n      pop\n      pop\n      pop\n      pop\n      dup2\n      jump\t// out\n        /* \"contracts/Accessories/taikula.sol\":2002:2256  function approve(address spender, uint tokens) public returns (bool success) {... */\n    tag_33:\n        /* \"contracts/Accessories/taikula.sol\":2106:2116  msg.sender */\n      caller\n        /* \"contracts/Accessories/taikula.sol\":2065:2077  bool success */\n      0x00\n        /* \"contracts/Accessories/taikula.sol\":2097:2117  is_robot[msg.sender] */\n      swap1\n      dup2\n      mstore\n        /* \"contracts/Accessories/taikula.sol\":2097:2105  is_robot */\n      0x01\n        /* \"contracts/Accessories/taikula.sol\":2097:2117  is_robot[msg.sender] */\n      0x20\n      mstore\n      0x40\n      dup2\n      keccak256\n      sload\n      0xff\n      and\n        /* \"contracts/Accessories/taikula.sol\":2097:2126  is_robot[msg.sender] == false */\n      iszero\n        /* \"contracts/Accessories/taikula.sol\":2089:2127  require(is_robot[msg.sender] == false) */\n      tag_104\n      jumpi\n      0x00\n      dup1\n      revert\n    tag_104:\n        /* \"contracts/Accessories/taikula.sol\":2147:2157  msg.sender */\n      caller\n        /* \"contracts/Accessories/taikula.sol\":2137:2158  allowance[msg.sender] */\n      0x00\n      dup2\n      dup2\n      mstore\n        /* \"contracts/Accessories/taikula.sol\":2137:2146  allowance */\n      0x07\n        /* \"contracts/Accessories/taikula.sol\":2137:2158  allowance[msg.sender] */\n      0x20\n      swap1\n      dup2\n      mstore\n      0x40\n      dup1\n      dup4\n      keccak256\n      sub(shl(0xa0, 0x01), 0x01)\n        /* \"contracts/Accessories/taikula.sol\":2137:2167  allowance[msg.sender][spender] */\n      dup9\n      and\n      dup1\n      dup6\n      mstore\n      swap1\n      dup4\n      mstore\n      swap3\n      dup2\n      swap1\n      keccak256\n        /* \"contracts/Accessories/taikula.sol\":2137:2176  allowance[msg.sender][spender] = tokens */\n      dup7\n      swap1\n      sstore\n        /* \"contracts/Accessories/taikula.sol\":2191:2228  Approval(msg.sender, spender, tokens) */\n      mload\n        /* \"#utility.yul\":1342:1367   */\n      dup6\n      dup2\n      mstore\n        /* \"contracts/Accessories/taikula.sol\":2137:2167  allowance[msg.sender][spender] */\n      swap2\n      swap3\n        /* \"contracts/Accessories/taikula.sol\":2147:2157  msg.sender */\n      swap2\n        /* \"contracts/Accessories/taikula.sol\":2191:2228  Approval(msg.sender, spender, tokens) */\n      0x8c5be1e5ebec7d5bd14f71427d1e84f3dd0314c0f7b2291e5b200ac8c7c3b925\n      swap2\n        /* \"#utility.yul\":1315:1333   */\n      add\n        /* \"contracts/Accessories/taikula.sol\":2191:2228  Approval(msg.sender, spender, tokens) */\n    tag_105:\n      mload(0x40)\n      dup1\n      swap2\n      sub\n      swap1\n      log3\n      pop\n        /* \"contracts/Accessories/taikula.sol\":2245:2249  true */\n      0x01\n        /* \"contracts/Accessories/taikula.sol\":2002:2256  function approve(address spender, uint tokens) public returns (bool success) {... */\n    tag_103:\n      swap3\n      swap2\n      pop\n      pop\n      jump\t// out\n        /* \"contracts/Accessories/taikula.sol\":2262:2670  function transferFrom(address from, address to, uint tokens) public returns (bool success) {... */\n    tag_45:\n        /* \"contracts/Accessories/taikula.sol\":2380:2390  msg.sender */\n      caller\n        /* \"contracts/Accessories/taikula.sol\":2339:2351  bool success */\n      0x00\n        /* \"contracts/Accessories/taikula.sol\":2371:2391  is_robot[msg.sender] */\n      swap1\n      dup2\n      mstore\n        /* \"contracts/Accessories/taikula.sol\":2371:2379  is_robot */\n      0x01\n        /* \"contracts/Accessories/taikula.sol\":2371:2391  is_robot[msg.sender] */\n      0x20\n      mstore\n      0x40\n      dup2\n      keccak256\n      sload\n      0xff\n      and\n        /* \"contracts/Accessories/taikula.sol\":2371:2400  is_robot[msg.sender] == false */\n      iszero\n        /* \"contracts/Accessories/taikula.sol\":2363:2401  require(is_robot[msg.sender] == false) */\n      tag_107\n      jumpi\n      0x00\n      dup1\n      revert\n    tag_107:\n      sub(shl(0xa0, 0x01), 0x01)\n        /* \"contracts/Accessories/taikula.sol\":2437:2452  balanceOf[from] */\n      dup5\n      and\n      0x00\n      swap1\n      dup2\n      mstore\n        /* \"contracts/Accessories/taikula.sol\":2437:2446  balanceOf */\n      0x06\n        /* \"contracts/Accessories/taikula.sol\":2437:2452  balanceOf[from] */\n      0x20\n      mstore\n      0x40\n      swap1\n      keccak256\n      sload\n        /* \"contracts/Accessories/taikula.sol\":2429:2461  safeSub(balanceOf[from], tokens) */\n      tag_108\n      swap1\n        /* \"contracts/Accessories/taikula.sol\":2454:2460  tokens */\n      dup4\n        /* \"contracts/Accessories/taikula.sol\":2429:2436  safeSub */\n      tag_109\n        /* \"contracts/Accessories/taikula.sol\":2429:2461  safeSub(balanceOf[from], tokens) */\n      jump\t// in\n    tag_108:\n      sub(shl(0xa0, 0x01), 0x01)\n        /* \"contracts/Accessories/taikula.sol\":2411:2426  balanceOf[from] */\n      dup6\n      and\n      0x00\n      swap1\n      dup2\n      mstore\n        /* \"contracts/Accessories/taikula.sol\":2411:2420  balanceOf */\n      0x06\n        /* \"contracts/Accessories/taikula.sol\":2411:2426  balanceOf[from] */\n      0x20\n      swap1\n      dup2\n      mstore\n      0x40\n      dup1\n      dup4\n      keccak256\n        /* \"contracts/Accessories/taikula.sol\":2411:2461  balanceOf[from] = safeSub(balanceOf[from], tokens) */\n      swap4\n      swap1\n      swap4\n      sstore\n        /* \"contracts/Accessories/taikula.sol\":2509:2518  allowance */\n      0x07\n        /* \"contracts/Accessories/taikula.sol\":2509:2524  allowance[from] */\n      dup2\n      mstore\n      dup3\n      dup3\n      keccak256\n        /* \"contracts/Accessories/taikula.sol\":2525:2535  msg.sender */\n      caller\n        /* \"contracts/Accessories/taikula.sol\":2509:2536  allowance[from][msg.sender] */\n      dup4\n      mstore\n      swap1\n      mstore\n      keccak256\n      sload\n        /* \"contracts/Accessories/taikula.sol\":2501:2545  safeSub(allowance[from][msg.sender], tokens) */\n      tag_110\n      swap1\n        /* \"contracts/Accessories/taikula.sol\":2538:2544  tokens */\n      dup4\n        /* \"contracts/Accessories/taikula.sol\":2501:2508  safeSub */\n      tag_109\n        /* \"contracts/Accessories/taikula.sol\":2501:2545  safeSub(allowance[from][msg.sender], tokens) */\n      jump\t// in\n    tag_110:\n      sub(shl(0xa0, 0x01), 0x01)\n        /* \"contracts/Accessories/taikula.sol\":2471:2486  allowance[from] */\n      dup1\n      dup7\n      and\n      0x00\n      swap1\n      dup2\n      mstore\n        /* \"contracts/Accessories/taikula.sol\":2471:2480  allowance */\n      0x07\n        /* \"contracts/Accessories/taikula.sol\":2471:2486  allowance[from] */\n      0x20\n      swap1\n      dup2\n      mstore\n      0x40\n      dup1\n      dup4\n      keccak256\n        /* \"contracts/Accessories/taikula.sol\":2487:2497  msg.sender */\n      caller\n        /* \"contracts/Accessories/taikula.sol\":2471:2498  allowance[from][msg.sender] */\n      dup5\n      mstore\n      dup3\n      mstore\n      dup1\n      dup4\n      keccak256\n        /* \"contracts/Accessories/taikula.sol\":2471:2545  allowance[from][msg.sender] = safeSub(allowance[from][msg.sender], tokens) */\n      swap5\n      swap1\n      swap5\n      sstore\n        /* \"contracts/Accessories/taikula.sol\":2579:2592  balanceOf[to] */\n      swap2\n      dup7\n      and\n      dup2\n      mstore\n        /* \"contracts/Accessories/taikula.sol\":2579:2588  balanceOf */\n      0x06\n        /* \"contracts/Accessories/taikula.sol\":2579:2592  balanceOf[to] */\n      swap1\n      swap2\n      mstore\n      keccak256\n      sload\n        /* \"contracts/Accessories/taikula.sol\":2571:2601  safeAdd(balanceOf[to], tokens) */\n      tag_111\n      swap1\n        /* \"contracts/Accessories/taikula.sol\":2594:2600  tokens */\n      dup4\n        /* \"contracts/Accessories/taikula.sol\":2571:2578  safeAdd */\n      tag_112\n        /* \"contracts/Accessories/taikula.sol\":2571:2601  safeAdd(balanceOf[to], tokens) */\n      jump\t// in\n    tag_111:\n      sub(shl(0xa0, 0x01), 0x01)\n        /* \"contracts/Accessories/taikula.sol\":2555:2568  balanceOf[to] */\n      dup1\n      dup6\n      and\n      0x00\n      dup2\n      dup2\n      mstore\n        /* \"contracts/Accessories/taikula.sol\":2555:2564  balanceOf */\n      0x06\n        /* \"contracts/Accessories/taikula.sol\":2555:2568  balanceOf[to] */\n      0x20\n      mstore\n      0x40\n      swap1\n      dup2\n      swap1\n      keccak256\n        /* \"contracts/Accessories/taikula.sol\":2555:2601  balanceOf[to] = safeAdd(balanceOf[to], tokens) */\n      swap4\n      swap1\n      swap4\n      sstore\n        /* \"contracts/Accessories/taikula.sol\":2616:2642  Transfer(from, to, tokens) */\n      swap2\n      mload\n      swap1\n      dup7\n      and\n      swap1\n      0x00\n      dup1\n      mload\n      0x20\n      data_ada389e1fc24a8587c776340efb91b36e675792ab631816100d55df0b5cf3cbc\n      dup4\n      codecopy\n      dup2\n      mload\n      swap2\n      mstore\n      swap1\n      tag_113\n      swap1\n        /* \"contracts/Accessories/taikula.sol\":2635:2641  tokens */\n      dup7\n        /* \"#utility.yul\":1342:1367   */\n      dup2\n      mstore\n        /* \"#utility.yul\":1330:1332   */\n      0x20\n        /* \"#utility.yul\":1315:1333   */\n      add\n      swap1\n        /* \"#utility.yul\":1196:1373   */\n      jump\n        /* \"contracts/Accessories/taikula.sol\":2616:2642  Transfer(from, to, tokens) */\n    tag_113:\n      mload(0x40)\n      dup1\n      swap2\n      sub\n      swap1\n      log3\n      pop\n        /* \"contracts/Accessories/taikula.sol\":2659:2663  true */\n      0x01\n        /* \"contracts/Accessories/taikula.sol\":2262:2670  function transferFrom(address from, address to, uint tokens) public returns (bool success) {... */\n      swap4\n      swap3\n      pop\n      pop\n      pop\n      jump\t// out\n        /* \"contracts/Accessories/taikula.sol\":1048:1171  function abdicate()public {... */\n    tag_54:\n        /* \"contracts/Accessories/taikula.sol\":1106:1122  kill_robot_owner */\n      and(sub(shl(0xa0, 0x01), 0x01), sload(0x00))\n        /* \"contracts/Accessories/taikula.sol\":1092:1102  msg.sender */\n      caller\n        /* \"contracts/Accessories/taikula.sol\":1092:1122  msg.sender == kill_robot_owner */\n      eq\n        /* \"contracts/Accessories/taikula.sol\":1084:1123  require(msg.sender == kill_robot_owner) */\n      tag_115\n      jumpi\n      0x00\n      dup1\n      revert\n    tag_115:\n        /* \"contracts/Accessories/taikula.sol\":1160:1163  0x0 */\n      0x00\n        /* \"contracts/Accessories/taikula.sol\":1133:1164  kill_robot_owner = address(0x0) */\n      dup1\n      sload\n      not(sub(shl(0xa0, 0x01), 0x01))\n      and\n      swap1\n      sstore\n        /* \"contracts/Accessories/taikula.sol\":1048:1171  function abdicate()public {... */\n      jump\t// out\n        /* \"contracts/Accessories/taikula.sol\":278:310  string public symbol = \"Taikula\" */\n    tag_68:\n      0x02\n      dup1\n      sload\n      tag_97\n      swap1\n      tag_98\n      jump\t// in\n        /* \"contracts/Accessories/taikula.sol\":1672:1996  function transfer(address to, uint tokens) public returns (bool success) {... */\n    tag_73:\n        /* \"contracts/Accessories/taikula.sol\":1772:1782  msg.sender */\n      caller\n        /* \"contracts/Accessories/taikula.sol\":1731:1743  bool success */\n      0x00\n        /* \"contracts/Accessories/taikula.sol\":1763:1783  is_robot[msg.sender] */\n      swap1\n      dup2\n      mstore\n        /* \"contracts/Accessories/taikula.sol\":1763:1771  is_robot */\n      0x01\n        /* \"contracts/Accessories/taikula.sol\":1763:1783  is_robot[msg.sender] */\n      0x20\n      mstore\n      0x40\n      dup2\n      keccak256\n      sload\n      0xff\n      and\n        /* \"contracts/Accessories/taikula.sol\":1763:1792  is_robot[msg.sender] == false */\n      iszero\n        /* \"contracts/Accessories/taikula.sol\":1755:1793  require(is_robot[msg.sender] == false) */\n      tag_122\n      jumpi\n      0x00\n      dup1\n      revert\n    tag_122:\n        /* \"contracts/Accessories/taikula.sol\":1845:1855  msg.sender */\n      caller\n        /* \"contracts/Accessories/taikula.sol\":1835:1856  balanceOf[msg.sender] */\n      0x00\n      swap1\n      dup2\n      mstore\n        /* \"contracts/Accessories/taikula.sol\":1835:1844  balanceOf */\n      0x06\n        /* \"contracts/Accessories/taikula.sol\":1835:1856  balanceOf[msg.sender] */\n      0x20\n      mstore\n      0x40\n      swap1\n      keccak256\n      sload\n        /* \"contracts/Accessories/taikula.sol\":1827:1865  safeSub(balanceOf[msg.sender], tokens) */\n      tag_123\n      swap1\n        /* \"contracts/Accessories/taikula.sol\":1858:1864  tokens */\n      dup4\n        /* \"contracts/Accessories/taikula.sol\":1827:1834  safeSub */\n      tag_109\n        /* \"contracts/Accessories/taikula.sol\":1827:1865  safeSub(balanceOf[msg.sender], tokens) */\n      jump\t// in\n    tag_123:\n        /* \"contracts/Accessories/taikula.sol\":1813:1823  msg.sender */\n      caller\n        /* \"contracts/Accessories/taikula.sol\":1803:1824  balanceOf[msg.sender] */\n      0x00\n      swap1\n      dup2\n      mstore\n        /* \"contracts/Accessories/taikula.sol\":1803:1812  balanceOf */\n      0x06\n        /* \"contracts/Accessories/taikula.sol\":1803:1824  balanceOf[msg.sender] */\n      0x20\n      mstore\n      0x40\n      dup1\n      dup3\n      keccak256\n        /* \"contracts/Accessories/taikula.sol\":1803:1865  balanceOf[msg.sender] = safeSub(balanceOf[msg.sender], tokens) */\n      swap3\n      swap1\n      swap3\n      sstore\n      sub(shl(0xa0, 0x01), 0x01)\n        /* \"contracts/Accessories/taikula.sol\":1899:1912  balanceOf[to] */\n      dup6\n      and\n      dup2\n      mstore\n      keccak256\n      sload\n        /* \"contracts/Accessories/taikula.sol\":1891:1921  safeAdd(balanceOf[to], tokens) */\n      tag_124\n      swap1\n        /* \"contracts/Accessories/taikula.sol\":1914:1920  tokens */\n      dup4\n        /* \"contracts/Accessories/taikula.sol\":1891:1898  safeAdd */\n      tag_112\n        /* \"contracts/Accessories/taikula.sol\":1891:1921  safeAdd(balanceOf[to], tokens) */\n      jump\t// in\n    tag_124:\n      sub(shl(0xa0, 0x01), 0x01)\n        /* \"contracts/Accessories/taikula.sol\":1875:1888  balanceOf[to] */\n      dup5\n      and\n      0x00\n      dup2\n      dup2\n      mstore\n        /* \"contracts/Accessories/taikula.sol\":1875:1884  balanceOf */\n      0x06\n        /* \"contracts/Accessories/taikula.sol\":1875:1888  balanceOf[to] */\n      0x20\n      mstore\n      0x40\n      swap1\n      dup2\n      swap1\n      keccak256\n        /* \"contracts/Accessories/taikula.sol\":1875:1921  balanceOf[to] = safeAdd(balanceOf[to], tokens) */\n      swap3\n      swap1\n      swap3\n      sstore\n        /* \"contracts/Accessories/taikula.sol\":1936:1968  Transfer(msg.sender, to, tokens) */\n      swap1\n      mload\n        /* \"contracts/Accessories/taikula.sol\":1945:1955  msg.sender */\n      caller\n      swap1\n      0x00\n      dup1\n      mload\n      0x20\n      data_ada389e1fc24a8587c776340efb91b36e675792ab631816100d55df0b5cf3cbc\n      dup4\n      codecopy\n      dup2\n      mload\n      swap2\n      mstore\n        /* \"contracts/Accessories/taikula.sol\":1936:1968  Transfer(msg.sender, to, tokens) */\n      swap1\n      tag_105\n      swap1\n        /* \"contracts/Accessories/taikula.sol\":1961:1967  tokens */\n      dup7\n        /* \"#utility.yul\":1342:1367   */\n      dup2\n      mstore\n        /* \"#utility.yul\":1330:1332   */\n      0x20\n        /* \"#utility.yul\":1315:1333   */\n      add\n      swap1\n        /* \"#utility.yul\":1196:1373   */\n      jump\n        /* \"contracts/Accessories/taikula.sol\":904:1043  function setRobot(address robot,bool value)public {... */\n    tag_79:\n        /* \"contracts/Accessories/taikula.sol\":986:1002  kill_robot_owner */\n      and(sub(shl(0xa0, 0x01), 0x01), sload(0x00))\n        /* \"contracts/Accessories/taikula.sol\":972:982  msg.sender */\n      caller\n        /* \"contracts/Accessories/taikula.sol\":972:1002  msg.sender == kill_robot_owner */\n      eq\n        /* \"contracts/Accessories/taikula.sol\":964:1003  require(msg.sender == kill_robot_owner) */\n      tag_127\n      jumpi\n      0x00\n      dup1\n      revert\n    tag_127:\n      sub(shl(0xa0, 0x01), 0x01)\n        /* \"contracts/Accessories/taikula.sol\":1013:1028  is_robot[robot] */\n      swap2\n      swap1\n      swap2\n      and\n      0x00\n      swap1\n      dup2\n      mstore\n        /* \"contracts/Accessories/taikula.sol\":1013:1021  is_robot */\n      0x01\n        /* \"contracts/Accessories/taikula.sol\":1013:1028  is_robot[robot] */\n      0x20\n      mstore\n      0x40\n      swap1\n      keccak256\n        /* \"contracts/Accessories/taikula.sol\":1013:1036  is_robot[robot] = value */\n      dup1\n      sload\n      not(0xff)\n      and\n      swap2\n      iszero\n      iszero\n      swap2\n      swap1\n      swap2\n      or\n      swap1\n      sstore\n        /* \"contracts/Accessories/taikula.sol\":904:1043  function setRobot(address robot,bool value)public {... */\n      jump\t// out\n        /* \"contracts/Accessories/taikula.sol\":2675:4536  function transferBatch(address to1,address to2,address to3,address to4,address to5,... */\n    tag_95:\n        /* \"contracts/Accessories/taikula.sol\":2939:2949  msg.sender */\n      caller\n        /* \"contracts/Accessories/taikula.sol\":2900:2911  bool sucess */\n      0x00\n        /* \"contracts/Accessories/taikula.sol\":2930:2950  is_robot[msg.sender] */\n      swap1\n      dup2\n      mstore\n        /* \"contracts/Accessories/taikula.sol\":2930:2938  is_robot */\n      0x01\n        /* \"contracts/Accessories/taikula.sol\":2930:2950  is_robot[msg.sender] */\n      0x20\n      mstore\n      0x40\n      dup2\n      keccak256\n      sload\n      0xff\n      and\n        /* \"contracts/Accessories/taikula.sol\":2930:2959  is_robot[msg.sender] == false */\n      iszero\n        /* \"contracts/Accessories/taikula.sol\":2922:2960  require(is_robot[msg.sender] == false) */\n      tag_129\n      jumpi\n      0x00\n      dup1\n      revert\n    tag_129:\n        /* \"contracts/Accessories/taikula.sol\":2970:2980  uint total */\n      0x00\n      sub(shl(0xa0, 0x01), 0x01)\n        /* \"contracts/Accessories/taikula.sol\":2993:3010  to1!=address(0x0) */\n      dup14\n      and\n      iszero\n        /* \"contracts/Accessories/taikula.sol\":2990:3124  if(to1!=address(0x0)){total = safeAdd(total,size);balanceOf[to1] = safeAdd(balanceOf[to1],size);emit Transfer(msg.sender, to1, size);} */\n      tag_130\n      jumpi\n        /* \"contracts/Accessories/taikula.sol\":3020:3039  safeAdd(total,size) */\n      tag_131\n        /* \"contracts/Accessories/taikula.sol\":3028:3033  total */\n      dup2\n        /* \"contracts/Accessories/taikula.sol\":3034:3038  size */\n      dup5\n        /* \"contracts/Accessories/taikula.sol\":3020:3027  safeAdd */\n      tag_112\n        /* \"contracts/Accessories/taikula.sol\":3020:3039  safeAdd(total,size) */\n      jump\t// in\n    tag_131:\n      sub(shl(0xa0, 0x01), 0x01)\n        /* \"contracts/Accessories/taikula.sol\":3065:3079  balanceOf[to1] */\n      dup15\n      and\n      0x00\n      swap1\n      dup2\n      mstore\n        /* \"contracts/Accessories/taikula.sol\":3065:3074  balanceOf */\n      0x06\n        /* \"contracts/Accessories/taikula.sol\":3065:3079  balanceOf[to1] */\n      0x20\n      mstore\n      0x40\n      swap1\n      keccak256\n      sload\n        /* \"contracts/Accessories/taikula.sol\":3012:3039  total = safeAdd(total,size) */\n      swap1\n      swap2\n      pop\n        /* \"contracts/Accessories/taikula.sol\":3057:3085  safeAdd(balanceOf[to1],size) */\n      tag_132\n      swap1\n        /* \"contracts/Accessories/taikula.sol\":3080:3084  size */\n      dup5\n        /* \"contracts/Accessories/taikula.sol\":3057:3064  safeAdd */\n      tag_112\n        /* \"contracts/Accessories/taikula.sol\":3057:3085  safeAdd(balanceOf[to1],size) */\n      jump\t// in\n    tag_132:\n      sub(shl(0xa0, 0x01), 0x01)\n        /* \"contracts/Accessories/taikula.sol\":3040:3054  balanceOf[to1] */\n      dup15\n      and\n      0x00\n      dup2\n      dup2\n      mstore\n        /* \"contracts/Accessories/taikula.sol\":3040:3049  balanceOf */\n      0x06\n        /* \"contracts/Accessories/taikula.sol\":3040:3054  balanceOf[to1] */\n      0x20\n      mstore\n      0x40\n      swap1\n      dup2\n      swap1\n      keccak256\n        /* \"contracts/Accessories/taikula.sol\":3040:3085  balanceOf[to1] = safeAdd(balanceOf[to1],size) */\n      swap3\n      swap1\n      swap3\n      sstore\n        /* \"contracts/Accessories/taikula.sol\":3091:3122  Transfer(msg.sender, to1, size) */\n      swap1\n      mload\n        /* \"contracts/Accessories/taikula.sol\":3100:3110  msg.sender */\n      caller\n      swap1\n      0x00\n      dup1\n      mload\n      0x20\n      data_ada389e1fc24a8587c776340efb91b36e675792ab631816100d55df0b5cf3cbc\n      dup4\n      codecopy\n      dup2\n      mload\n      swap2\n      mstore\n        /* \"contracts/Accessories/taikula.sol\":3091:3122  Transfer(msg.sender, to1, size) */\n      swap1\n      tag_133\n      swap1\n        /* \"contracts/Accessories/taikula.sol\":3117:3121  size */\n      dup8\n        /* \"#utility.yul\":1342:1367   */\n      dup2\n      mstore\n        /* \"#utility.yul\":1330:1332   */\n      0x20\n        /* \"#utility.yul\":1315:1333   */\n      add\n      swap1\n        /* \"#utility.yul\":1196:1373   */\n      jump\n        /* \"contracts/Accessories/taikula.sol\":3091:3122  Transfer(msg.sender, to1, size) */\n    tag_133:\n      mload(0x40)\n      dup1\n      swap2\n      sub\n      swap1\n      log3\n        /* \"contracts/Accessories/taikula.sol\":2990:3124  if(to1!=address(0x0)){total = safeAdd(total,size);balanceOf[to1] = safeAdd(balanceOf[to1],size);emit Transfer(msg.sender, to1, size);} */\n    tag_130:\n      sub(shl(0xa0, 0x01), 0x01)\n        /* \"contracts/Accessories/taikula.sol\":3136:3153  to2!=address(0x0) */\n      dup13\n      and\n      iszero\n        /* \"contracts/Accessories/taikula.sol\":3133:3268  if(to2!=address(0x0)){total = safeAdd(total,size);balanceOf[to2] = safeAdd(balanceOf[to2],size);emit Transfer(msg.sender, to2, size); } */\n      tag_134\n      jumpi\n        /* \"contracts/Accessories/taikula.sol\":3163:3182  safeAdd(total,size) */\n      tag_135\n        /* \"contracts/Accessories/taikula.sol\":3171:3176  total */\n      dup2\n        /* \"contracts/Accessories/taikula.sol\":3177:3181  size */\n      dup5\n        /* \"contracts/Accessories/taikula.sol\":3163:3170  safeAdd */\n      tag_112\n        /* \"contracts/Accessories/taikula.sol\":3163:3182  safeAdd(total,size) */\n      jump\t// in\n    tag_135:\n      sub(shl(0xa0, 0x01), 0x01)\n        /* \"contracts/Accessories/taikula.sol\":3208:3222  balanceOf[to2] */\n      dup14\n      and\n      0x00\n      swap1\n      dup2\n      mstore\n        /* \"contracts/Accessories/taikula.sol\":3208:3217  balanceOf */\n      0x06\n        /* \"contracts/Accessories/taikula.sol\":3208:3222  balanceOf[to2] */\n      0x20\n      mstore\n      0x40\n      swap1\n      keccak256\n      sload\n        /* \"contracts/Accessories/taikula.sol\":3155:3182  total = safeAdd(total,size) */\n      swap1\n      swap2\n      pop\n        /* \"contracts/Accessories/taikula.sol\":3200:3228  safeAdd(balanceOf[to2],size) */\n      tag_136\n      swap1\n        /* \"contracts/Accessories/taikula.sol\":3223:3227  size */\n      dup5\n        /* \"contracts/Accessories/taikula.sol\":3200:3207  safeAdd */\n      tag_112\n        /* \"contracts/Accessories/taikula.sol\":3200:3228  safeAdd(balanceOf[to2],size) */\n      jump\t// in\n    tag_136:\n      sub(shl(0xa0, 0x01), 0x01)\n        /* \"contracts/Accessories/taikula.sol\":3183:3197  balanceOf[to2] */\n      dup14\n      and\n      0x00\n      dup2\n      dup2\n      mstore\n        /* \"contracts/Accessories/taikula.sol\":3183:3192  balanceOf */\n      0x06\n        /* \"contracts/Accessories/taikula.sol\":3183:3197  balanceOf[to2] */\n      0x20\n      mstore\n      0x40\n      swap1\n      dup2\n      swap1\n      keccak256\n        /* \"contracts/Accessories/taikula.sol\":3183:3228  balanceOf[to2] = safeAdd(balanceOf[to2],size) */\n      swap3\n      swap1\n      swap3\n      sstore\n        /* \"contracts/Accessories/taikula.sol\":3234:3265  Transfer(msg.sender, to2, size) */\n      swap1\n      mload\n        /* \"contracts/Accessories/taikula.sol\":3243:3253  msg.sender */\n      caller\n      swap1\n      0x00\n      dup1\n      mload\n      0x20\n      data_ada389e1fc24a8587c776340efb91b36e675792ab631816100d55df0b5cf3cbc\n      dup4\n      codecopy\n      dup2\n      mload\n      swap2\n      mstore\n        /* \"contracts/Accessories/taikula.sol\":3234:3265  Transfer(msg.sender, to2, size) */\n      swap1\n      tag_137\n      swap1\n        /* \"contracts/Accessories/taikula.sol\":3260:3264  size */\n      dup8\n        /* \"#utility.yul\":1342:1367   */\n      dup2\n      mstore\n        /* \"#utility.yul\":1330:1332   */\n      0x20\n        /* \"#utility.yul\":1315:1333   */\n      add\n      swap1\n        /* \"#utility.yul\":1196:1373   */\n      jump\n        /* \"contracts/Accessories/taikula.sol\":3234:3265  Transfer(msg.sender, to2, size) */\n    tag_137:\n      mload(0x40)\n      dup1\n      swap2\n      sub\n      swap1\n      log3\n        /* \"contracts/Accessories/taikula.sol\":3133:3268  if(to2!=address(0x0)){total = safeAdd(total,size);balanceOf[to2] = safeAdd(balanceOf[to2],size);emit Transfer(msg.sender, to2, size); } */\n    tag_134:\n      sub(shl(0xa0, 0x01), 0x01)\n        /* \"contracts/Accessories/taikula.sol\":3280:3297  to3!=address(0x0) */\n      dup12\n      and\n      iszero\n        /* \"contracts/Accessories/taikula.sol\":3277:3412  if(to3!=address(0x0)){total = safeAdd(total,size);balanceOf[to3] = safeAdd(balanceOf[to3],size);emit Transfer(msg.sender, to3, size); } */\n      tag_138\n      jumpi\n        /* \"contracts/Accessories/taikula.sol\":3307:3326  safeAdd(total,size) */\n      tag_139\n        /* \"contracts/Accessories/taikula.sol\":3315:3320  total */\n      dup2\n        /* \"contracts/Accessories/taikula.sol\":3321:3325  size */\n      dup5\n        /* \"contracts/Accessories/taikula.sol\":3307:3314  safeAdd */\n      tag_112\n        /* \"contracts/Accessories/taikula.sol\":3307:3326  safeAdd(total,size) */\n      jump\t// in\n    tag_139:\n      sub(shl(0xa0, 0x01), 0x01)\n        /* \"contracts/Accessories/taikula.sol\":3352:3366  balanceOf[to3] */\n      dup13\n      and\n      0x00\n      swap1\n      dup2\n      mstore\n        /* \"contracts/Accessories/taikula.sol\":3352:3361  balanceOf */\n      0x06\n        /* \"contracts/Accessories/taikula.sol\":3352:3366  balanceOf[to3] */\n      0x20\n      mstore\n      0x40\n      swap1\n      keccak256\n      sload\n        /* \"contracts/Accessories/taikula.sol\":3299:3326  total = safeAdd(total,size) */\n      swap1\n      swap2\n      pop\n        /* \"contracts/Accessories/taikula.sol\":3344:3372  safeAdd(balanceOf[to3],size) */\n      tag_140\n      swap1\n        /* \"contracts/Accessories/taikula.sol\":3367:3371  size */\n      dup5\n        /* \"contracts/Accessories/taikula.sol\":3344:3351  safeAdd */\n      tag_112\n        /* \"contracts/Accessories/taikula.sol\":3344:3372  safeAdd(balanceOf[to3],size) */\n      jump\t// in\n    tag_140:\n      sub(shl(0xa0, 0x01), 0x01)\n        /* \"contracts/Accessories/taikula.sol\":3327:3341  balanceOf[to3] */\n      dup13\n      and\n      0x00\n      dup2\n      dup2\n      mstore\n        /* \"contracts/Accessories/taikula.sol\":3327:3336  balanceOf */\n      0x06\n        /* \"contracts/Accessories/taikula.sol\":3327:3341  balanceOf[to3] */\n      0x20\n      mstore\n      0x40\n      swap1\n      dup2\n      swap1\n      keccak256\n        /* \"contracts/Accessories/taikula.sol\":3327:3372  balanceOf[to3] = safeAdd(balanceOf[to3],size) */\n      swap3\n      swap1\n      swap3\n      sstore\n        /* \"contracts/Accessories/taikula.sol\":3378:3409  Transfer(msg.sender, to3, size) */\n      swap1\n      mload\n        /* \"contracts/Accessories/taikula.sol\":3387:3397  msg.sender */\n      caller\n      swap1\n      0x00\n      dup1\n      mload\n      0x20\n      data_ada389e1fc24a8587c776340efb91b36e675792ab631816100d55df0b5cf3cbc\n      dup4\n      codecopy\n      dup2\n      mload\n      swap2\n      mstore\n        /* \"contracts/Accessories/taikula.sol\":3378:3409  Transfer(msg.sender, to3, size) */\n      swap1\n      tag_141\n      swap1\n        /* \"contracts/Accessories/taikula.sol\":3404:3408  size */\n      dup8\n        /* \"#utility.yul\":1342:1367   */\n      dup2\n      mstore\n        /* \"#utility.yul\":1330:1332   */\n      0x20\n        /* \"#utility.yul\":1315:1333   */\n      add\n      swap1\n        /* \"#utility.yul\":1196:1373   */\n      jump\n        /* \"contracts/Accessories/taikula.sol\":3378:3409  Transfer(msg.sender, to3, size) */\n    tag_141:\n      mload(0x40)\n      dup1\n      swap2\n      sub\n      swap1\n      log3\n        /* \"contracts/Accessories/taikula.sol\":3277:3412  if(to3!=address(0x0)){total = safeAdd(total,size);balanceOf[to3] = safeAdd(balanceOf[to3],size);emit Transfer(msg.sender, to3, size); } */\n    tag_138:\n      sub(shl(0xa0, 0x01), 0x01)\n        /* \"contracts/Accessories/taikula.sol\":3424:3441  to4!=address(0x0) */\n      dup11\n      and\n      iszero\n        /* \"contracts/Accessories/taikula.sol\":3421:3556  if(to4!=address(0x0)){total = safeAdd(total,size);balanceOf[to4] = safeAdd(balanceOf[to4],size);emit Transfer(msg.sender, to4, size); } */\n      tag_142\n      jumpi\n        /* \"contracts/Accessories/taikula.sol\":3451:3470  safeAdd(total,size) */\n      tag_143\n        /* \"contracts/Accessories/taikula.sol\":3459:3464  total */\n      dup2\n        /* \"contracts/Accessories/taikula.sol\":3465:3469  size */\n      dup5\n        /* \"contracts/Accessories/taikula.sol\":3451:3458  safeAdd */\n      tag_112\n        /* \"contracts/Accessories/taikula.sol\":3451:3470  safeAdd(total,size) */\n      jump\t// in\n    tag_143:\n      sub(shl(0xa0, 0x01), 0x01)\n        /* \"contracts/Accessories/taikula.sol\":3496:3510  balanceOf[to4] */\n      dup12\n      and\n      0x00\n      swap1\n      dup2\n      mstore\n        /* \"contracts/Accessories/taikula.sol\":3496:3505  balanceOf */\n      0x06\n        /* \"contracts/Accessories/taikula.sol\":3496:3510  balanceOf[to4] */\n      0x20\n      mstore\n      0x40\n      swap1\n      keccak256\n      sload\n        /* \"contracts/Accessories/taikula.sol\":3443:3470  total = safeAdd(total,size) */\n      swap1\n      swap2\n      pop\n        /* \"contracts/Accessories/taikula.sol\":3488:3516  safeAdd(balanceOf[to4],size) */\n      tag_144\n      swap1\n        /* \"contracts/Accessories/taikula.sol\":3511:3515  size */\n      dup5\n        /* \"contracts/Accessories/taikula.sol\":3488:3495  safeAdd */\n      tag_112\n        /* \"contracts/Accessories/taikula.sol\":3488:3516  safeAdd(balanceOf[to4],size) */\n      jump\t// in\n    tag_144:\n      sub(shl(0xa0, 0x01), 0x01)\n        /* \"contracts/Accessories/taikula.sol\":3471:3485  balanceOf[to4] */\n      dup12\n      and\n      0x00\n      dup2\n      dup2\n      mstore\n        /* \"contracts/Accessories/taikula.sol\":3471:3480  balanceOf */\n      0x06\n        /* \"contracts/Accessories/taikula.sol\":3471:3485  balanceOf[to4] */\n      0x20\n      mstore\n      0x40\n      swap1\n      dup2\n      swap1\n      keccak256\n        /* \"contracts/Accessories/taikula.sol\":3471:3516  balanceOf[to4] = safeAdd(balanceOf[to4],size) */\n      swap3\n      swap1\n      swap3\n      sstore\n        /* \"contracts/Accessories/taikula.sol\":3522:3553  Transfer(msg.sender, to4, size) */\n      swap1\n      mload\n        /* \"contracts/Accessories/taikula.sol\":3531:3541  msg.sender */\n      caller\n      swap1\n      0x00\n      dup1\n      mload\n      0x20\n      data_ada389e1fc24a8587c776340efb91b36e675792ab631816100d55df0b5cf3cbc\n      dup4\n      codecopy\n      dup2\n      mload\n      swap2\n      mstore\n        /* \"contracts/Accessories/taikula.sol\":3522:3553  Transfer(msg.sender, to4, size) */\n      swap1\n      tag_145\n      swap1\n        /* \"contracts/Accessories/taikula.sol\":3548:3552  size */\n      dup8\n        /* \"#utility.yul\":1342:1367   */\n      dup2\n      mstore\n        /* \"#utility.yul\":1330:1332   */\n      0x20\n        /* \"#utility.yul\":1315:1333   */\n      add\n      swap1\n        /* \"#utility.yul\":1196:1373   */\n      jump\n        /* \"contracts/Accessories/taikula.sol\":3522:3553  Transfer(msg.sender, to4, size) */\n    tag_145:\n      mload(0x40)\n      dup1\n      swap2\n      sub\n      swap1\n      log3\n        /* \"contracts/Accessories/taikula.sol\":3421:3556  if(to4!=address(0x0)){total = safeAdd(total,size);balanceOf[to4] = safeAdd(balanceOf[to4],size);emit Transfer(msg.sender, to4, size); } */\n    tag_142:\n      sub(shl(0xa0, 0x01), 0x01)\n        /* \"contracts/Accessories/taikula.sol\":3568:3585  to5!=address(0x0) */\n      dup10\n      and\n      iszero\n        /* \"contracts/Accessories/taikula.sol\":3565:3700  if(to5!=address(0x0)){total = safeAdd(total,size);balanceOf[to5] = safeAdd(balanceOf[to5],size);emit Transfer(msg.sender, to5, size); } */\n      tag_146\n      jumpi\n        /* \"contracts/Accessories/taikula.sol\":3595:3614  safeAdd(total,size) */\n      tag_147\n        /* \"contracts/Accessories/taikula.sol\":3603:3608  total */\n      dup2\n        /* \"contracts/Accessories/taikula.sol\":3609:3613  size */\n      dup5\n        /* \"contracts/Accessories/taikula.sol\":3595:3602  safeAdd */\n      tag_112\n        /* \"contracts/Accessories/taikula.sol\":3595:3614  safeAdd(total,size) */\n      jump\t// in\n    tag_147:\n      sub(shl(0xa0, 0x01), 0x01)\n        /* \"contracts/Accessories/taikula.sol\":3640:3654  balanceOf[to5] */\n      dup11\n      and\n      0x00\n      swap1\n      dup2\n      mstore\n        /* \"contracts/Accessories/taikula.sol\":3640:3649  balanceOf */\n      0x06\n        /* \"contracts/Accessories/taikula.sol\":3640:3654  balanceOf[to5] */\n      0x20\n      mstore\n      0x40\n      swap1\n      keccak256\n      sload\n        /* \"contracts/Accessories/taikula.sol\":3587:3614  total = safeAdd(total,size) */\n      swap1\n      swap2\n      pop\n        /* \"contracts/Accessories/taikula.sol\":3632:3660  safeAdd(balanceOf[to5],size) */\n      tag_148\n      swap1\n        /* \"contracts/Accessories/taikula.sol\":3655:3659  size */\n      dup5\n        /* \"contracts/Accessories/taikula.sol\":3632:3639  safeAdd */\n      tag_112\n        /* \"contracts/Accessories/taikula.sol\":3632:3660  safeAdd(balanceOf[to5],size) */\n      jump\t// in\n    tag_148:\n      sub(shl(0xa0, 0x01), 0x01)\n        /* \"contracts/Accessories/taikula.sol\":3615:3629  balanceOf[to5] */\n      dup11\n      and\n      0x00\n      dup2\n      dup2\n      mstore\n        /* \"contracts/Accessories/taikula.sol\":3615:3624  balanceOf */\n      0x06\n        /* \"contracts/Accessories/taikula.sol\":3615:3629  balanceOf[to5] */\n      0x20\n      mstore\n      0x40\n      swap1\n      dup2\n      swap1\n      keccak256\n        /* \"contracts/Accessories/taikula.sol\":3615:3660  balanceOf[to5] = safeAdd(balanceOf[to5],size) */\n      swap3\n      swap1\n      swap3\n      sstore\n        /* \"contracts/Accessories/taikula.sol\":3666:3697  Transfer(msg.sender, to5, size) */\n      swap1\n      mload\n        /* \"contracts/Accessories/taikula.sol\":3675:3685  msg.sender */\n      caller\n      swap1\n      0x00\n      dup1\n      mload\n      0x20\n      data_ada389e1fc24a8587c776340efb91b36e675792ab631816100d55df0b5cf3cbc\n      dup4\n      codecopy\n      dup2\n      mload\n      swap2\n      mstore\n        /* \"contracts/Accessories/taikula.sol\":3666:3697  Transfer(msg.sender, to5, size) */\n      swap1\n      tag_149\n      swap1\n        /* \"contracts/Accessories/taikula.sol\":3692:3696  size */\n      dup8\n        /* \"#utility.yul\":1342:1367   */\n      dup2\n      mstore\n        /* \"#utility.yul\":1330:1332   */\n      0x20\n        /* \"#utility.yul\":1315:1333   */\n      add\n      swap1\n        /* \"#utility.yul\":1196:1373   */\n      jump\n        /* \"contracts/Accessories/taikula.sol\":3666:3697  Transfer(msg.sender, to5, size) */\n    tag_149:\n      mload(0x40)\n      dup1\n      swap2\n      sub\n      swap1\n      log3\n        /* \"contracts/Accessories/taikula.sol\":3565:3700  if(to5!=address(0x0)){total = safeAdd(total,size);balanceOf[to5] = safeAdd(balanceOf[to5],size);emit Transfer(msg.sender, to5, size); } */\n    tag_146:\n      sub(shl(0xa0, 0x01), 0x01)\n        /* \"contracts/Accessories/taikula.sol\":3712:3729  to6!=address(0x0) */\n      dup9\n      and\n      iszero\n        /* \"contracts/Accessories/taikula.sol\":3709:3844  if(to6!=address(0x0)){total = safeAdd(total,size);balanceOf[to6] = safeAdd(balanceOf[to6],size);emit Transfer(msg.sender, to6, size); } */\n      tag_150\n      jumpi\n        /* \"contracts/Accessories/taikula.sol\":3739:3758  safeAdd(total,size) */\n      tag_151\n        /* \"contracts/Accessories/taikula.sol\":3747:3752  total */\n      dup2\n        /* \"contracts/Accessories/taikula.sol\":3753:3757  size */\n      dup5\n        /* \"contracts/Accessories/taikula.sol\":3739:3746  safeAdd */\n      tag_112\n        /* \"contracts/Accessories/taikula.sol\":3739:3758  safeAdd(total,size) */\n      jump\t// in\n    tag_151:\n      sub(shl(0xa0, 0x01), 0x01)\n        /* \"contracts/Accessories/taikula.sol\":3784:3798  balanceOf[to6] */\n      dup10\n      and\n      0x00\n      swap1\n      dup2\n      mstore\n        /* \"contracts/Accessories/taikula.sol\":3784:3793  balanceOf */\n      0x06\n        /* \"contracts/Accessories/taikula.sol\":3784:3798  balanceOf[to6] */\n      0x20\n      mstore\n      0x40\n      swap1\n      keccak256\n      sload\n        /* \"contracts/Accessories/taikula.sol\":3731:3758  total = safeAdd(total,size) */\n      swap1\n      swap2\n      pop\n        /* \"contracts/Accessories/taikula.sol\":3776:3804  safeAdd(balanceOf[to6],size) */\n      tag_152\n      swap1\n        /* \"contracts/Accessories/taikula.sol\":3799:3803  size */\n      dup5\n        /* \"contracts/Accessories/taikula.sol\":3776:3783  safeAdd */\n      tag_112\n        /* \"contracts/Accessories/taikula.sol\":3776:3804  safeAdd(balanceOf[to6],size) */\n      jump\t// in\n    tag_152:\n      sub(shl(0xa0, 0x01), 0x01)\n        /* \"contracts/Accessories/taikula.sol\":3759:3773  balanceOf[to6] */\n      dup10\n      and\n      0x00\n      dup2\n      dup2\n      mstore\n        /* \"contracts/Accessories/taikula.sol\":3759:3768  balanceOf */\n      0x06\n        /* \"contracts/Accessories/taikula.sol\":3759:3773  balanceOf[to6] */\n      0x20\n      mstore\n      0x40\n      swap1\n      dup2\n      swap1\n      keccak256\n        /* \"contracts/Accessories/taikula.sol\":3759:3804  balanceOf[to6] = safeAdd(balanceOf[to6],size) */\n      swap3\n      swap1\n      swap3\n      sstore\n        /* \"contracts/Accessories/taikula.sol\":3810:3841  Transfer(msg.sender, to6, size) */\n      swap1\n      mload\n        /* \"contracts/Accessories/taikula.sol\":3819:3829  msg.sender */\n      caller\n      swap1\n      0x00\n      dup1\n      mload\n      0x20\n      data_ada389e1fc24a8587c776340efb91b36e675792ab631816100d55df0b5cf3cbc\n      dup4\n      codecopy\n      dup2\n      mload\n      swap2\n      mstore\n        /* \"contracts/Accessories/taikula.sol\":3810:3841  Transfer(msg.sender, to6, size) */\n      swap1\n      tag_153\n      swap1\n        /* \"contracts/Accessories/taikula.sol\":3836:3840  size */\n      dup8\n        /* \"#utility.yul\":1342:1367   */\n      dup2\n      mstore\n        /* \"#utility.yul\":1330:1332   */\n      0x20\n        /* \"#utility.yul\":1315:1333   */\n      add\n      swap1\n        /* \"#utility.yul\":1196:1373   */\n      jump\n        /* \"contracts/Accessories/taikula.sol\":3810:3841  Transfer(msg.sender, to6, size) */\n    tag_153:\n      mload(0x40)\n      dup1\n      swap2\n      sub\n      swap1\n      log3\n        /* \"contracts/Accessories/taikula.sol\":3709:3844  if(to6!=address(0x0)){total = safeAdd(total,size);balanceOf[to6] = safeAdd(balanceOf[to6],size);emit Transfer(msg.sender, to6, size); } */\n    tag_150:\n      sub(shl(0xa0, 0x01), 0x01)\n        /* \"contracts/Accessories/taikula.sol\":3856:3873  to7!=address(0x0) */\n      dup8\n      and\n      iszero\n        /* \"contracts/Accessories/taikula.sol\":3853:3988  if(to7!=address(0x0)){total = safeAdd(total,size);balanceOf[to7] = safeAdd(balanceOf[to7],size);emit Transfer(msg.sender, to7, size); } */\n      tag_154\n      jumpi\n        /* \"contracts/Accessories/taikula.sol\":3883:3902  safeAdd(total,size) */\n      tag_155\n        /* \"contracts/Accessories/taikula.sol\":3891:3896  total */\n      dup2\n        /* \"contracts/Accessories/taikula.sol\":3897:3901  size */\n      dup5\n        /* \"contracts/Accessories/taikula.sol\":3883:3890  safeAdd */\n      tag_112\n        /* \"contracts/Accessories/taikula.sol\":3883:3902  safeAdd(total,size) */\n      jump\t// in\n    tag_155:\n      sub(shl(0xa0, 0x01), 0x01)\n        /* \"contracts/Accessories/taikula.sol\":3928:3942  balanceOf[to7] */\n      dup9\n      and\n      0x00\n      swap1\n      dup2\n      mstore\n        /* \"contracts/Accessories/taikula.sol\":3928:3937  balanceOf */\n      0x06\n        /* \"contracts/Accessories/taikula.sol\":3928:3942  balanceOf[to7] */\n      0x20\n      mstore\n      0x40\n      swap1\n      keccak256\n      sload\n        /* \"contracts/Accessories/taikula.sol\":3875:3902  total = safeAdd(total,size) */\n      swap1\n      swap2\n      pop\n        /* \"contracts/Accessories/taikula.sol\":3920:3948  safeAdd(balanceOf[to7],size) */\n      tag_156\n      swap1\n        /* \"contracts/Accessories/taikula.sol\":3943:3947  size */\n      dup5\n        /* \"contracts/Accessories/taikula.sol\":3920:3927  safeAdd */\n      tag_112\n        /* \"contracts/Accessories/taikula.sol\":3920:3948  safeAdd(balanceOf[to7],size) */\n      jump\t// in\n    tag_156:\n      sub(shl(0xa0, 0x01), 0x01)\n        /* \"contracts/Accessories/taikula.sol\":3903:3917  balanceOf[to7] */\n      dup9\n      and\n      0x00\n      dup2\n      dup2\n      mstore\n        /* \"contracts/Accessories/taikula.sol\":3903:3912  balanceOf */\n      0x06\n        /* \"contracts/Accessories/taikula.sol\":3903:3917  balanceOf[to7] */\n      0x20\n      mstore\n      0x40\n      swap1\n      dup2\n      swap1\n      keccak256\n        /* \"contracts/Accessories/taikula.sol\":3903:3948  balanceOf[to7] = safeAdd(balanceOf[to7],size) */\n      swap3\n      swap1\n      swap3\n      sstore\n        /* \"contracts/Accessories/taikula.sol\":3954:3985  Transfer(msg.sender, to7, size) */\n      swap1\n      mload\n        /* \"contracts/Accessories/taikula.sol\":3963:3973  msg.sender */\n      caller\n      swap1\n      0x00\n      dup1\n      mload\n      0x20\n      data_ada389e1fc24a8587c776340efb91b36e675792ab631816100d55df0b5cf3cbc\n      dup4\n      codecopy\n      dup2\n      mload\n      swap2\n      mstore\n        /* \"contracts/Accessories/taikula.sol\":3954:3985  Transfer(msg.sender, to7, size) */\n      swap1\n      tag_157\n      swap1\n        /* \"contracts/Accessories/taikula.sol\":3980:3984  size */\n      dup8\n        /* \"#utility.yul\":1342:1367   */\n      dup2\n      mstore\n        /* \"#utility.yul\":1330:1332   */\n      0x20\n        /* \"#utility.yul\":1315:1333   */\n      add\n      swap1\n        /* \"#utility.yul\":1196:1373   */\n      jump\n        /* \"contracts/Accessories/taikula.sol\":3954:3985  Transfer(msg.sender, to7, size) */\n    tag_157:\n      mload(0x40)\n      dup1\n      swap2\n      sub\n      swap1\n      log3\n        /* \"contracts/Accessories/taikula.sol\":3853:3988  if(to7!=address(0x0)){total = safeAdd(total,size);balanceOf[to7] = safeAdd(balanceOf[to7],size);emit Transfer(msg.sender, to7, size); } */\n    tag_154:\n      sub(shl(0xa0, 0x01), 0x01)\n        /* \"contracts/Accessories/taikula.sol\":4000:4017  to8!=address(0x0) */\n      dup7\n      and\n      iszero\n        /* \"contracts/Accessories/taikula.sol\":3997:4132  if(to8!=address(0x0)){total = safeAdd(total,size);balanceOf[to8] = safeAdd(balanceOf[to8],size);emit Transfer(msg.sender, to8, size); } */\n      tag_158\n      jumpi\n        /* \"contracts/Accessories/taikula.sol\":4027:4046  safeAdd(total,size) */\n      tag_159\n        /* \"contracts/Accessories/taikula.sol\":4035:4040  total */\n      dup2\n        /* \"contracts/Accessories/taikula.sol\":4041:4045  size */\n      dup5\n        /* \"contracts/Accessories/taikula.sol\":4027:4034  safeAdd */\n      tag_112\n        /* \"contracts/Accessories/taikula.sol\":4027:4046  safeAdd(total,size) */\n      jump\t// in\n    tag_159:\n      sub(shl(0xa0, 0x01), 0x01)\n        /* \"contracts/Accessories/taikula.sol\":4072:4086  balanceOf[to8] */\n      dup8\n      and\n      0x00\n      swap1\n      dup2\n      mstore\n        /* \"contracts/Accessories/taikula.sol\":4072:4081  balanceOf */\n      0x06\n        /* \"contracts/Accessories/taikula.sol\":4072:4086  balanceOf[to8] */\n      0x20\n      mstore\n      0x40\n      swap1\n      keccak256\n      sload\n        /* \"contracts/Accessories/taikula.sol\":4019:4046  total = safeAdd(total,size) */\n      swap1\n      swap2\n      pop\n        /* \"contracts/Accessories/taikula.sol\":4064:4092  safeAdd(balanceOf[to8],size) */\n      tag_160\n      swap1\n        /* \"contracts/Accessories/taikula.sol\":4087:4091  size */\n      dup5\n        /* \"contracts/Accessories/taikula.sol\":4064:4071  safeAdd */\n      tag_112\n        /* \"contracts/Accessories/taikula.sol\":4064:4092  safeAdd(balanceOf[to8],size) */\n      jump\t// in\n    tag_160:\n      sub(shl(0xa0, 0x01), 0x01)\n        /* \"contracts/Accessories/taikula.sol\":4047:4061  balanceOf[to8] */\n      dup8\n      and\n      0x00\n      dup2\n      dup2\n      mstore\n        /* \"contracts/Accessories/taikula.sol\":4047:4056  balanceOf */\n      0x06\n        /* \"contracts/Accessories/taikula.sol\":4047:4061  balanceOf[to8] */\n      0x20\n      mstore\n      0x40\n      swap1\n      dup2\n      swap1\n      keccak256\n        /* \"contracts/Accessories/taikula.sol\":4047:4092  balanceOf[to8] = safeAdd(balanceOf[to8],size) */\n      swap3\n      swap1\n      swap3\n      sstore\n        /* \"contracts/Accessories/taikula.sol\":4098:4129  Transfer(msg.sender, to8, size) */\n      swap1\n      mload\n        /* \"contracts/Accessories/taikula.sol\":4107:4117  msg.sender */\n      caller\n      swap1\n      0x00\n      dup1\n      mload\n      0x20\n      data_ada389e1fc24a8587c776340efb91b36e675792ab631816100d55df0b5cf3cbc\n      dup4\n      codecopy\n      dup2\n      mload\n      swap2\n      mstore\n        /* \"contracts/Accessories/taikula.sol\":4098:4129  Transfer(msg.sender, to8, size) */\n      swap1\n      tag_161\n      swap1\n        /* \"contracts/Accessories/taikula.sol\":4124:4128  size */\n      dup8\n        /* \"#utility.yul\":1342:1367   */\n      dup2\n      mstore\n        /* \"#utility.yul\":1330:1332   */\n      0x20\n        /* \"#utility.yul\":1315:1333   */\n      add\n      swap1\n        /* \"#utility.yul\":1196:1373   */\n      jump\n        /* \"contracts/Accessories/taikula.sol\":4098:4129  Transfer(msg.sender, to8, size) */\n    tag_161:\n      mload(0x40)\n      dup1\n      swap2\n      sub\n      swap1\n      log3\n        /* \"contracts/Accessories/taikula.sol\":3997:4132  if(to8!=address(0x0)){total = safeAdd(total,size);balanceOf[to8] = safeAdd(balanceOf[to8],size);emit Transfer(msg.sender, to8, size); } */\n    tag_158:\n      sub(shl(0xa0, 0x01), 0x01)\n        /* \"contracts/Accessories/taikula.sol\":4144:4161  to9!=address(0x0) */\n      dup6\n      and\n      iszero\n        /* \"contracts/Accessories/taikula.sol\":4141:4276  if(to9!=address(0x0)){total = safeAdd(total,size);balanceOf[to9] = safeAdd(balanceOf[to9],size);emit Transfer(msg.sender, to9, size); } */\n      tag_162\n      jumpi\n        /* \"contracts/Accessories/taikula.sol\":4171:4190  safeAdd(total,size) */\n      tag_163\n        /* \"contracts/Accessories/taikula.sol\":4179:4184  total */\n      dup2\n        /* \"contracts/Accessories/taikula.sol\":4185:4189  size */\n      dup5\n        /* \"contracts/Accessories/taikula.sol\":4171:4178  safeAdd */\n      tag_112\n        /* \"contracts/Accessories/taikula.sol\":4171:4190  safeAdd(total,size) */\n      jump\t// in\n    tag_163:\n      sub(shl(0xa0, 0x01), 0x01)\n        /* \"contracts/Accessories/taikula.sol\":4216:4230  balanceOf[to9] */\n      dup7\n      and\n      0x00\n      swap1\n      dup2\n      mstore\n        /* \"contracts/Accessories/taikula.sol\":4216:4225  balanceOf */\n      0x06\n        /* \"contracts/Accessories/taikula.sol\":4216:4230  balanceOf[to9] */\n      0x20\n      mstore\n      0x40\n      swap1\n      keccak256\n      sload\n        /* \"contracts/Accessories/taikula.sol\":4163:4190  total = safeAdd(total,size) */\n      swap1\n      swap2\n      pop\n        /* \"contracts/Accessories/taikula.sol\":4208:4236  safeAdd(balanceOf[to9],size) */\n      tag_164\n      swap1\n        /* \"contracts/Accessories/taikula.sol\":4231:4235  size */\n      dup5\n        /* \"contracts/Accessories/taikula.sol\":4208:4215  safeAdd */\n      tag_112\n        /* \"contracts/Accessories/taikula.sol\":4208:4236  safeAdd(balanceOf[to9],size) */\n      jump\t// in\n    tag_164:\n      sub(shl(0xa0, 0x01), 0x01)\n        /* \"contracts/Accessories/taikula.sol\":4191:4205  balanceOf[to9] */\n      dup7\n      and\n      0x00\n      dup2\n      dup2\n      mstore\n        /* \"contracts/Accessories/taikula.sol\":4191:4200  balanceOf */\n      0x06\n        /* \"contracts/Accessories/taikula.sol\":4191:4205  balanceOf[to9] */\n      0x20\n      mstore\n      0x40\n      swap1\n      dup2\n      swap1\n      keccak256\n        /* \"contracts/Accessories/taikula.sol\":4191:4236  balanceOf[to9] = safeAdd(balanceOf[to9],size) */\n      swap3\n      swap1\n      swap3\n      sstore\n        /* \"contracts/Accessories/taikula.sol\":4242:4273  Transfer(msg.sender, to9, size) */\n      swap1\n      mload\n        /* \"contracts/Accessories/taikula.sol\":4251:4261  msg.sender */\n      caller\n      swap1\n      0x00\n      dup1\n      mload\n      0x20\n      data_ada389e1fc24a8587c776340efb91b36e675792ab631816100d55df0b5cf3cbc\n      dup4\n      codecopy\n      dup2\n      mload\n      swap2\n      mstore\n        /* \"contracts/Accessories/taikula.sol\":4242:4273  Transfer(msg.sender, to9, size) */\n      swap1\n      tag_165\n      swap1\n        /* \"contracts/Accessories/taikula.sol\":4268:4272  size */\n      dup8\n        /* \"#utility.yul\":1342:1367   */\n      dup2\n      mstore\n        /* \"#utility.yul\":1330:1332   */\n      0x20\n        /* \"#utility.yul\":1315:1333   */\n      add\n      swap1\n        /* \"#utility.yul\":1196:1373   */\n      jump\n        /* \"contracts/Accessories/taikula.sol\":4242:4273  Transfer(msg.sender, to9, size) */\n    tag_165:\n      mload(0x40)\n      dup1\n      swap2\n      sub\n      swap1\n      log3\n        /* \"contracts/Accessories/taikula.sol\":4141:4276  if(to9!=address(0x0)){total = safeAdd(total,size);balanceOf[to9] = safeAdd(balanceOf[to9],size);emit Transfer(msg.sender, to9, size); } */\n    tag_162:\n      sub(shl(0xa0, 0x01), 0x01)\n        /* \"contracts/Accessories/taikula.sol\":4288:4306  to10!=address(0x0) */\n      dup5\n      and\n      iszero\n        /* \"contracts/Accessories/taikula.sol\":4285:4424  if(to10!=address(0x0)){total = safeAdd(total,size);balanceOf[to10] = safeAdd(balanceOf[to10],size);emit Transfer(msg.sender, to10, size); } */\n      tag_166\n      jumpi\n        /* \"contracts/Accessories/taikula.sol\":4316:4335  safeAdd(total,size) */\n      tag_167\n        /* \"contracts/Accessories/taikula.sol\":4324:4329  total */\n      dup2\n        /* \"contracts/Accessories/taikula.sol\":4330:4334  size */\n      dup5\n        /* \"contracts/Accessories/taikula.sol\":4316:4323  safeAdd */\n      tag_112\n        /* \"contracts/Accessories/taikula.sol\":4316:4335  safeAdd(total,size) */\n      jump\t// in\n    tag_167:\n      sub(shl(0xa0, 0x01), 0x01)\n        /* \"contracts/Accessories/taikula.sol\":4362:4377  balanceOf[to10] */\n      dup6\n      and\n      0x00\n      swap1\n      dup2\n      mstore\n        /* \"contracts/Accessories/taikula.sol\":4362:4371  balanceOf */\n      0x06\n        /* \"contracts/Accessories/taikula.sol\":4362:4377  balanceOf[to10] */\n      0x20\n      mstore\n      0x40\n      swap1\n      keccak256\n      sload\n        /* \"contracts/Accessories/taikula.sol\":4308:4335  total = safeAdd(total,size) */\n      swap1\n      swap2\n      pop\n        /* \"contracts/Accessories/taikula.sol\":4354:4383  safeAdd(balanceOf[to10],size) */\n      tag_168\n      swap1\n        /* \"contracts/Accessories/taikula.sol\":4378:4382  size */\n      dup5\n        /* \"contracts/Accessories/taikula.sol\":4354:4361  safeAdd */\n      tag_112\n        /* \"contracts/Accessories/taikula.sol\":4354:4383  safeAdd(balanceOf[to10],size) */\n      jump\t// in\n    tag_168:\n      sub(shl(0xa0, 0x01), 0x01)\n        /* \"contracts/Accessories/taikula.sol\":4336:4351  balanceOf[to10] */\n      dup6\n      and\n      0x00\n      dup2\n      dup2\n      mstore\n        /* \"contracts/Accessories/taikula.sol\":4336:4345  balanceOf */\n      0x06\n        /* \"contracts/Accessories/taikula.sol\":4336:4351  balanceOf[to10] */\n      0x20\n      mstore\n      0x40\n      swap1\n      dup2\n      swap1\n      keccak256\n        /* \"contracts/Accessories/taikula.sol\":4336:4383  balanceOf[to10] = safeAdd(balanceOf[to10],size) */\n      swap3\n      swap1\n      swap3\n      sstore\n        /* \"contracts/Accessories/taikula.sol\":4389:4421  Transfer(msg.sender, to10, size) */\n      swap1\n      mload\n        /* \"contracts/Accessories/taikula.sol\":4398:4408  msg.sender */\n      caller\n      swap1\n      0x00\n      dup1\n      mload\n      0x20\n      data_ada389e1fc24a8587c776340efb91b36e675792ab631816100d55df0b5cf3cbc\n      dup4\n      codecopy\n      dup2\n      mload\n      swap2\n      mstore\n        /* \"contracts/Accessories/taikula.sol\":4389:4421  Transfer(msg.sender, to10, size) */\n      swap1\n      tag_169\n      swap1\n        /* \"contracts/Accessories/taikula.sol\":4416:4420  size */\n      dup8\n        /* \"#utility.yul\":1342:1367   */\n      dup2\n      mstore\n        /* \"#utility.yul\":1330:1332   */\n      0x20\n        /* \"#utility.yul\":1315:1333   */\n      add\n      swap1\n        /* \"#utility.yul\":1196:1373   */\n      jump\n        /* \"contracts/Accessories/taikula.sol\":4389:4421  Transfer(msg.sender, to10, size) */\n    tag_169:\n      mload(0x40)\n      dup1\n      swap2\n      sub\n      swap1\n      log3\n        /* \"contracts/Accessories/taikula.sol\":4285:4424  if(to10!=address(0x0)){total = safeAdd(total,size);balanceOf[to10] = safeAdd(balanceOf[to10],size);emit Transfer(msg.sender, to10, size); } */\n    tag_166:\n        /* \"contracts/Accessories/taikula.sol\":4437:4445  total >0 */\n      dup1\n      iszero\n        /* \"contracts/Accessories/taikula.sol\":4434:4507  if(total >0)balanceOf[msg.sender] = safeSub(balanceOf[msg.sender], total) */\n      tag_170\n      jumpi\n        /* \"contracts/Accessories/taikula.sol\":4488:4498  msg.sender */\n      caller\n        /* \"contracts/Accessories/taikula.sol\":4478:4499  balanceOf[msg.sender] */\n      0x00\n      swap1\n      dup2\n      mstore\n        /* \"contracts/Accessories/taikula.sol\":4478:4487  balanceOf */\n      0x06\n        /* \"contracts/Accessories/taikula.sol\":4478:4499  balanceOf[msg.sender] */\n      0x20\n      mstore\n      0x40\n      swap1\n      keccak256\n      sload\n        /* \"contracts/Accessories/taikula.sol\":4470:4507  safeSub(balanceOf[msg.sender], total) */\n      tag_171\n      swap1\n        /* \"contracts/Accessories/taikula.sol\":4501:4506  total */\n      dup3\n        /* \"contracts/Accessories/taikula.sol\":4470:4477  safeSub */\n      tag_109\n        /* \"contracts/Accessories/taikula.sol\":4470:4507  safeSub(balanceOf[msg.sender], total) */\n      jump\t// in\n    tag_171:\n        /* \"contracts/Accessories/taikula.sol\":4456:4466  msg.sender */\n      caller\n        /* \"contracts/Accessories/taikula.sol\":4446:4467  balanceOf[msg.sender] */\n      0x00\n      swap1\n      dup2\n      mstore\n        /* \"contracts/Accessories/taikula.sol\":4446:4455  balanceOf */\n      0x06\n        /* \"contracts/Accessories/taikula.sol\":4446:4467  balanceOf[msg.sender] */\n      0x20\n      mstore\n      0x40\n      swap1\n      keccak256\n        /* \"contracts/Accessories/taikula.sol\":4446:4507  balanceOf[msg.sender] = safeSub(balanceOf[msg.sender], total) */\n      sstore\n        /* \"contracts/Accessories/taikula.sol\":4434:4507  if(total >0)balanceOf[msg.sender] = safeSub(balanceOf[msg.sender], total) */\n    tag_170:\n      pop\n        /* \"contracts/Accessories/taikula.sol\":4525:4529  true */\n      0x01\n      swap13\n        /* \"contracts/Accessories/taikula.sol\":2675:4536  function transferBatch(address to1,address to2,address to3,address to4,address to5,... */\n      swap12\n      pop\n      pop\n      pop\n      pop\n      pop\n      pop\n      pop\n      pop\n      pop\n      pop\n      pop\n      pop\n      jump\t// out\n        /* \"contracts/Accessories/taikula.sol\":1297:1412  function safeSub(uint a, uint b) internal pure returns (uint c) {... */\n    tag_109:\n        /* \"contracts/Accessories/taikula.sol\":1353:1359  uint c */\n      0x00\n        /* \"contracts/Accessories/taikula.sol\":1384:1385  a */\n      dup3\n        /* \"contracts/Accessories/taikula.sol\":1379:1380  b */\n      dup3\n        /* \"contracts/Accessories/taikula.sol\":1379:1385  b <= a */\n      gt\n      iszero\n        /* \"contracts/Accessories/taikula.sol\":1371:1386  require(b <= a) */\n      tag_173\n      jumpi\n      0x00\n      dup1\n      revert\n    tag_173:\n        /* \"contracts/Accessories/taikula.sol\":1400:1405  a - b */\n      tag_174\n        /* \"contracts/Accessories/taikula.sol\":1404:1405  b */\n      dup3\n        /* \"contracts/Accessories/taikula.sol\":1400:1401  a */\n      dup5\n        /* \"contracts/Accessories/taikula.sol\":1400:1405  a - b */\n      tag_175\n      jump\t// in\n    tag_174:\n        /* \"contracts/Accessories/taikula.sol\":1396:1405  c = a - b */\n      swap4\n        /* \"contracts/Accessories/taikula.sol\":1297:1412  function safeSub(uint a, uint b) internal pure returns (uint c) {... */\n      swap3\n      pop\n      pop\n      pop\n      jump\t// out\n        /* \"contracts/Accessories/taikula.sol\":1176:1292  function safeAdd(uint a, uint b) internal  pure returns (uint c) {... */\n    tag_112:\n        /* \"contracts/Accessories/taikula.sol\":1233:1239  uint c */\n      0x00\n        /* \"contracts/Accessories/taikula.sol\":1255:1260  a + b */\n      tag_177\n        /* \"contracts/Accessories/taikula.sol\":1259:1260  b */\n      dup3\n        /* \"contracts/Accessories/taikula.sol\":1255:1256  a */\n      dup5\n        /* \"contracts/Accessories/taikula.sol\":1255:1260  a + b */\n      tag_178\n      jump\t// in\n    tag_177:\n        /* \"contracts/Accessories/taikula.sol\":1251:1260  c = a + b */\n      swap1\n      pop\n        /* \"contracts/Accessories/taikula.sol\":1283:1284  a */\n      dup3\n        /* \"contracts/Accessories/taikula.sol\":1278:1279  c */\n      dup2\n        /* \"contracts/Accessories/taikula.sol\":1278:1284  c >= a */\n      lt\n      iszero\n        /* \"contracts/Accessories/taikula.sol\":1270:1285  require(c >= a) */\n      tag_103\n      jumpi\n      0x00\n      dup1\n      revert\n        /* \"#utility.yul\":14:562   */\n    tag_28:\n        /* \"#utility.yul\":126:130   */\n      0x00\n        /* \"#utility.yul\":155:157   */\n      0x20\n        /* \"#utility.yul\":184:186   */\n      dup1\n        /* \"#utility.yul\":173:182   */\n      dup4\n        /* \"#utility.yul\":166:187   */\n      mstore\n        /* \"#utility.yul\":216:222   */\n      dup4\n        /* \"#utility.yul\":210:223   */\n      mload\n        /* \"#utility.yul\":259:265   */\n      dup1\n        /* \"#utility.yul\":254:256   */\n      dup3\n        /* \"#utility.yul\":243:252   */\n      dup6\n        /* \"#utility.yul\":239:257   */\n      add\n        /* \"#utility.yul\":232:266   */\n      mstore\n        /* \"#utility.yul\":284:285   */\n      0x00\n        /* \"#utility.yul\":294:434   */\n    tag_184:\n        /* \"#utility.yul\":308:314   */\n      dup2\n        /* \"#utility.yul\":305:306   */\n      dup2\n        /* \"#utility.yul\":302:315   */\n      lt\n        /* \"#utility.yul\":294:434   */\n      iszero\n      tag_186\n      jumpi\n        /* \"#utility.yul\":403:417   */\n      dup6\n      dup2\n      add\n        /* \"#utility.yul\":399:422   */\n      dup4\n      add\n        /* \"#utility.yul\":393:423   */\n      mload\n        /* \"#utility.yul\":369:386   */\n      dup6\n      dup3\n      add\n        /* \"#utility.yul\":388:390   */\n      0x40\n        /* \"#utility.yul\":365:391   */\n      add\n        /* \"#utility.yul\":358:424   */\n      mstore\n        /* \"#utility.yul\":323:333   */\n      dup3\n      add\n        /* \"#utility.yul\":294:434   */\n      jump(tag_184)\n    tag_186:\n        /* \"#utility.yul\":298:301   */\n      pop\n        /* \"#utility.yul\":483:484   */\n      0x00\n        /* \"#utility.yul\":478:480   */\n      0x40\n        /* \"#utility.yul\":469:475   */\n      dup3\n        /* \"#utility.yul\":458:467   */\n      dup7\n        /* \"#utility.yul\":454:476   */\n      add\n        /* \"#utility.yul\":450:481   */\n      add\n        /* \"#utility.yul\":443:485   */\n      mstore\n        /* \"#utility.yul\":553:555   */\n      0x40\n        /* \"#utility.yul\":546:548   */\n      0x1f\n        /* \"#utility.yul\":542:549   */\n      not\n        /* \"#utility.yul\":537:539   */\n      0x1f\n        /* \"#utility.yul\":529:535   */\n      dup4\n        /* \"#utility.yul\":525:540   */\n      add\n        /* \"#utility.yul\":521:550   */\n      and\n        /* \"#utility.yul\":510:519   */\n      dup6\n        /* \"#utility.yul\":506:551   */\n      add\n        /* \"#utility.yul\":502:556   */\n      add\n        /* \"#utility.yul\":494:556   */\n      swap3\n      pop\n      pop\n      pop\n        /* \"#utility.yul\":14:562   */\n      swap3\n      swap2\n      pop\n      pop\n      jump\t// out\n        /* \"#utility.yul\":567:740   */\n    tag_180:\n        /* \"#utility.yul\":635:655   */\n      dup1\n      calldataload\n      sub(shl(0xa0, 0x01), 0x01)\n        /* \"#utility.yul\":684:715   */\n      dup2\n      and\n        /* \"#utility.yul\":674:716   */\n      dup2\n      eq\n        /* \"#utility.yul\":664:734   */\n      tag_188\n      jumpi\n        /* \"#utility.yul\":730:731   */\n      0x00\n        /* \"#utility.yul\":727:728   */\n      dup1\n        /* \"#utility.yul\":720:732   */\n      revert\n        /* \"#utility.yul\":664:734   */\n    tag_188:\n        /* \"#utility.yul\":567:740   */\n      swap2\n      swap1\n      pop\n      jump\t// out\n        /* \"#utility.yul\":745:999   */\n    tag_32:\n        /* \"#utility.yul\":813:819   */\n      0x00\n        /* \"#utility.yul\":821:827   */\n      dup1\n        /* \"#utility.yul\":874:876   */\n      0x40\n        /* \"#utility.yul\":862:871   */\n      dup4\n        /* \"#utility.yul\":853:860   */\n      dup6\n        /* \"#utility.yul\":849:872   */\n      sub\n        /* \"#utility.yul\":845:877   */\n      slt\n        /* \"#utility.yul\":842:894   */\n      iszero\n      tag_190\n      jumpi\n        /* \"#utility.yul\":890:891   */\n      0x00\n        /* \"#utility.yul\":887:888   */\n      dup1\n        /* \"#utility.yul\":880:892   */\n      revert\n        /* \"#utility.yul\":842:894   */\n    tag_190:\n        /* \"#utility.yul\":913:942   */\n      tag_191\n        /* \"#utility.yul\":932:941   */\n      dup4\n        /* \"#utility.yul\":913:942   */\n      tag_180\n      jump\t// in\n    tag_191:\n        /* \"#utility.yul\":903:942   */\n      swap5\n        /* \"#utility.yul\":989:991   */\n      0x20\n        /* \"#utility.yul\":974:992   */\n      swap4\n      swap1\n      swap4\n      add\n        /* \"#utility.yul\":961:993   */\n      calldataload\n      swap4\n      pop\n      pop\n      pop\n        /* \"#utility.yul\":745:999   */\n      jump\t// out\n        /* \"#utility.yul\":1378:1706   */\n    tag_44:\n        /* \"#utility.yul\":1455:1461   */\n      0x00\n        /* \"#utility.yul\":1463:1469   */\n      dup1\n        /* \"#utility.yul\":1471:1477   */\n      0x00\n        /* \"#utility.yul\":1524:1526   */\n      0x60\n        /* \"#utility.yul\":1512:1521   */\n      dup5\n        /* \"#utility.yul\":1503:1510   */\n      dup7\n        /* \"#utility.yul\":1499:1522   */\n      sub\n        /* \"#utility.yul\":1495:1527   */\n      slt\n        /* \"#utility.yul\":1492:1544   */\n      iszero\n      tag_195\n      jumpi\n        /* \"#utility.yul\":1540:1541   */\n      0x00\n        /* \"#utility.yul\":1537:1538   */\n      dup1\n        /* \"#utility.yul\":1530:1542   */\n      revert\n        /* \"#utility.yul\":1492:1544   */\n    tag_195:\n        /* \"#utility.yul\":1563:1592   */\n      tag_196\n        /* \"#utility.yul\":1582:1591   */\n      dup5\n        /* \"#utility.yul\":1563:1592   */\n      tag_180\n      jump\t// in\n    tag_196:\n        /* \"#utility.yul\":1553:1592   */\n      swap3\n      pop\n        /* \"#utility.yul\":1611:1649   */\n      tag_197\n        /* \"#utility.yul\":1645:1647   */\n      0x20\n        /* \"#utility.yul\":1634:1643   */\n      dup6\n        /* \"#utility.yul\":1630:1648   */\n      add\n        /* \"#utility.yul\":1611:1649   */\n      tag_180\n      jump\t// in\n    tag_197:\n        /* \"#utility.yul\":1601:1649   */\n      swap2\n      pop\n        /* \"#utility.yul\":1696:1698   */\n      0x40\n        /* \"#utility.yul\":1685:1694   */\n      dup5\n        /* \"#utility.yul\":1681:1699   */\n      add\n        /* \"#utility.yul\":1668:1700   */\n      calldataload\n        /* \"#utility.yul\":1658:1700   */\n      swap1\n      pop\n        /* \"#utility.yul\":1378:1706   */\n      swap3\n      pop\n      swap3\n      pop\n      swap3\n      jump\t// out\n        /* \"#utility.yul\":1900:2086   */\n    tag_58:\n        /* \"#utility.yul\":1959:1965   */\n      0x00\n        /* \"#utility.yul\":2012:2014   */\n      0x20\n        /* \"#utility.yul\":2000:2009   */\n      dup3\n        /* \"#utility.yul\":1991:1998   */\n      dup5\n        /* \"#utility.yul\":1987:2010   */\n      sub\n        /* \"#utility.yul\":1983:2015   */\n      slt\n        /* \"#utility.yul\":1980:2032   */\n      iszero\n      tag_200\n      jumpi\n        /* \"#utility.yul\":2028:2029   */\n      0x00\n        /* \"#utility.yul\":2025:2026   */\n      dup1\n        /* \"#utility.yul\":2018:2030   */\n      revert\n        /* \"#utility.yul\":1980:2032   */\n    tag_200:\n        /* \"#utility.yul\":2051:2080   */\n      tag_174\n        /* \"#utility.yul\":2070:2079   */\n      dup3\n        /* \"#utility.yul\":2051:2080   */\n      tag_180\n      jump\t// in\n        /* \"#utility.yul\":2091:2438   */\n    tag_78:\n        /* \"#utility.yul\":2156:2162   */\n      0x00\n        /* \"#utility.yul\":2164:2170   */\n      dup1\n        /* \"#utility.yul\":2217:2219   */\n      0x40\n        /* \"#utility.yul\":2205:2214   */\n      dup4\n        /* \"#utility.yul\":2196:2203   */\n      dup6\n        /* \"#utility.yul\":2192:2215   */\n      sub\n        /* \"#utility.yul\":2188:2220   */\n      slt\n        /* \"#utility.yul\":2185:2237   */\n      iszero\n      tag_203\n      jumpi\n        /* \"#utility.yul\":2233:2234   */\n      0x00\n        /* \"#utility.yul\":2230:2231   */\n      dup1\n        /* \"#utility.yul\":2223:2235   */\n      revert\n        /* \"#utility.yul\":2185:2237   */\n    tag_203:\n        /* \"#utility.yul\":2256:2285   */\n      tag_204\n        /* \"#utility.yul\":2275:2284   */\n      dup4\n        /* \"#utility.yul\":2256:2285   */\n      tag_180\n      jump\t// in\n    tag_204:\n        /* \"#utility.yul\":2246:2285   */\n      swap2\n      pop\n        /* \"#utility.yul\":2335:2337   */\n      0x20\n        /* \"#utility.yul\":2324:2333   */\n      dup4\n        /* \"#utility.yul\":2320:2338   */\n      add\n        /* \"#utility.yul\":2307:2339   */\n      calldataload\n        /* \"#utility.yul\":2382:2387   */\n      dup1\n        /* \"#utility.yul\":2375:2388   */\n      iszero\n        /* \"#utility.yul\":2368:2389   */\n      iszero\n        /* \"#utility.yul\":2361:2366   */\n      dup2\n        /* \"#utility.yul\":2358:2390   */\n      eq\n        /* \"#utility.yul\":2348:2408   */\n      tag_205\n      jumpi\n        /* \"#utility.yul\":2404:2405   */\n      0x00\n        /* \"#utility.yul\":2401:2402   */\n      dup1\n        /* \"#utility.yul\":2394:2406   */\n      revert\n        /* \"#utility.yul\":2348:2408   */\n    tag_205:\n        /* \"#utility.yul\":2427:2432   */\n      dup1\n        /* \"#utility.yul\":2417:2432   */\n      swap2\n      pop\n      pop\n        /* \"#utility.yul\":2091:2438   */\n      swap3\n      pop\n      swap3\n      swap1\n      pop\n      jump\t// out\n        /* \"#utility.yul\":2651:2911   */\n    tag_88:\n        /* \"#utility.yul\":2719:2725   */\n      0x00\n        /* \"#utility.yul\":2727:2733   */\n      dup1\n        /* \"#utility.yul\":2780:2782   */\n      0x40\n        /* \"#utility.yul\":2768:2777   */\n      dup4\n        /* \"#utility.yul\":2759:2766   */\n      dup6\n        /* \"#utility.yul\":2755:2778   */\n      sub\n        /* \"#utility.yul\":2751:2783   */\n      slt\n        /* \"#utility.yul\":2748:2800   */\n      iszero\n      tag_208\n      jumpi\n        /* \"#utility.yul\":2796:2797   */\n      0x00\n        /* \"#utility.yul\":2793:2794   */\n      dup1\n        /* \"#utility.yul\":2786:2798   */\n      revert\n        /* \"#utility.yul\":2748:2800   */\n    tag_208:\n        /* \"#utility.yul\":2819:2848   */\n      tag_209\n        /* \"#utility.yul\":2838:2847   */\n      dup4\n        /* \"#utility.yul\":2819:2848   */\n      tag_180\n      jump\t// in\n    tag_209:\n        /* \"#utility.yul\":2809:2848   */\n      swap2\n      pop\n        /* \"#utility.yul\":2867:2905   */\n      tag_210\n        /* \"#utility.yul\":2901:2903   */\n      0x20\n        /* \"#utility.yul\":2890:2899   */\n      dup5\n        /* \"#utility.yul\":2886:2904   */\n      add\n        /* \"#utility.yul\":2867:2905   */\n      tag_180\n      jump\t// in\n    tag_210:\n        /* \"#utility.yul\":2857:2905   */\n      swap1\n      pop\n        /* \"#utility.yul\":2651:2911   */\n      swap3\n      pop\n      swap3\n      swap1\n      pop\n      jump\t// out\n        /* \"#utility.yul\":2916:3846   */\n    tag_94:\n        /* \"#utility.yul\":3065:3071   */\n      0x00\n        /* \"#utility.yul\":3073:3079   */\n      dup1\n        /* \"#utility.yul\":3081:3087   */\n      0x00\n        /* \"#utility.yul\":3089:3095   */\n      dup1\n        /* \"#utility.yul\":3097:3103   */\n      0x00\n        /* \"#utility.yul\":3105:3111   */\n      dup1\n        /* \"#utility.yul\":3113:3119   */\n      0x00\n        /* \"#utility.yul\":3121:3127   */\n      dup1\n        /* \"#utility.yul\":3129:3135   */\n      0x00\n        /* \"#utility.yul\":3137:3143   */\n      dup1\n        /* \"#utility.yul\":3145:3152   */\n      0x00\n        /* \"#utility.yul\":3199:3202   */\n      0x0160\n        /* \"#utility.yul\":3187:3196   */\n      dup13\n        /* \"#utility.yul\":3178:3185   */\n      dup15\n        /* \"#utility.yul\":3174:3197   */\n      sub\n        /* \"#utility.yul\":3170:3203   */\n      slt\n        /* \"#utility.yul\":3167:3220   */\n      iszero\n      tag_212\n      jumpi\n        /* \"#utility.yul\":3216:3217   */\n      0x00\n        /* \"#utility.yul\":3213:3214   */\n      dup1\n        /* \"#utility.yul\":3206:3218   */\n      revert\n        /* \"#utility.yul\":3167:3220   */\n    tag_212:\n        /* \"#utility.yul\":3239:3268   */\n      tag_213\n        /* \"#utility.yul\":3258:3267   */\n      dup13\n        /* \"#utility.yul\":3239:3268   */\n      tag_180\n      jump\t// in\n    tag_213:\n        /* \"#utility.yul\":3229:3268   */\n      swap11\n      pop\n        /* \"#utility.yul\":3287:3325   */\n      tag_214\n        /* \"#utility.yul\":3321:3323   */\n      0x20\n        /* \"#utility.yul\":3310:3319   */\n      dup14\n        /* \"#utility.yul\":3306:3324   */\n      add\n        /* \"#utility.yul\":3287:3325   */\n      tag_180\n      jump\t// in\n    tag_214:\n        /* \"#utility.yul\":3277:3325   */\n      swap10\n      pop\n        /* \"#utility.yul\":3344:3382   */\n      tag_215\n        /* \"#utility.yul\":3378:3380   */\n      0x40\n        /* \"#utility.yul\":3367:3376   */\n      dup14\n        /* \"#utility.yul\":3363:3381   */\n      add\n        /* \"#utility.yul\":3344:3382   */\n      tag_180\n      jump\t// in\n    tag_215:\n        /* \"#utility.yul\":3334:3382   */\n      swap9\n      pop\n        /* \"#utility.yul\":3401:3439   */\n      tag_216\n        /* \"#utility.yul\":3435:3437   */\n      0x60\n        /* \"#utility.yul\":3424:3433   */\n      dup14\n        /* \"#utility.yul\":3420:3438   */\n      add\n        /* \"#utility.yul\":3401:3439   */\n      tag_180\n      jump\t// in\n    tag_216:\n        /* \"#utility.yul\":3391:3439   */\n      swap8\n      pop\n        /* \"#utility.yul\":3458:3497   */\n      tag_217\n        /* \"#utility.yul\":3492:3495   */\n      0x80\n        /* \"#utility.yul\":3481:3490   */\n      dup14\n        /* \"#utility.yul\":3477:3496   */\n      add\n        /* \"#utility.yul\":3458:3497   */\n      tag_180\n      jump\t// in\n    tag_217:\n        /* \"#utility.yul\":3448:3497   */\n      swap7\n      pop\n        /* \"#utility.yul\":3516:3555   */\n      tag_218\n        /* \"#utility.yul\":3550:3553   */\n      0xa0\n        /* \"#utility.yul\":3539:3548   */\n      dup14\n        /* \"#utility.yul\":3535:3554   */\n      add\n        /* \"#utility.yul\":3516:3555   */\n      tag_180\n      jump\t// in\n    tag_218:\n        /* \"#utility.yul\":3506:3555   */\n      swap6\n      pop\n        /* \"#utility.yul\":3574:3613   */\n      tag_219\n        /* \"#utility.yul\":3608:3611   */\n      0xc0\n        /* \"#utility.yul\":3597:3606   */\n      dup14\n        /* \"#utility.yul\":3593:3612   */\n      add\n        /* \"#utility.yul\":3574:3613   */\n      tag_180\n      jump\t// in\n    tag_219:\n        /* \"#utility.yul\":3564:3613   */\n      swap5\n      pop\n        /* \"#utility.yul\":3632:3671   */\n      tag_220\n        /* \"#utility.yul\":3666:3669   */\n      0xe0\n        /* \"#utility.yul\":3655:3664   */\n      dup14\n        /* \"#utility.yul\":3651:3670   */\n      add\n        /* \"#utility.yul\":3632:3671   */\n      tag_180\n      jump\t// in\n    tag_220:\n        /* \"#utility.yul\":3622:3671   */\n      swap4\n      pop\n        /* \"#utility.yul\":3690:3729   */\n      tag_221\n        /* \"#utility.yul\":3724:3727   */\n      0x0100\n        /* \"#utility.yul\":3713:3722   */\n      dup14\n        /* \"#utility.yul\":3709:3728   */\n      add\n        /* \"#utility.yul\":3690:3729   */\n      tag_180\n      jump\t// in\n    tag_221:\n        /* \"#utility.yul\":3680:3729   */\n      swap3\n      pop\n        /* \"#utility.yul\":3748:3787   */\n      tag_222\n        /* \"#utility.yul\":3782:3785   */\n      0x0120\n        /* \"#utility.yul\":3771:3780   */\n      dup14\n        /* \"#utility.yul\":3767:3786   */\n      add\n        /* \"#utility.yul\":3748:3787   */\n      tag_180\n      jump\t// in\n    tag_222:\n        /* \"#utility.yul\":3738:3787   */\n      swap2\n      pop\n        /* \"#utility.yul\":3835:3838   */\n      0x0140\n        /* \"#utility.yul\":3824:3833   */\n      dup13\n        /* \"#utility.yul\":3820:3839   */\n      add\n        /* \"#utility.yul\":3807:3840   */\n      calldataload\n        /* \"#utility.yul\":3796:3840   */\n      swap1\n      pop\n        /* \"#utility.yul\":2916:3846   */\n      swap3\n      swap6\n      swap9\n      swap12\n      pop\n      swap3\n      swap6\n      swap9\n      swap12\n      swap1\n      swap4\n      swap7\n      swap10\n      pop\n      jump\t// out\n        /* \"#utility.yul\":3851:4231   */\n    tag_98:\n        /* \"#utility.yul\":3930:3931   */\n      0x01\n        /* \"#utility.yul\":3926:3938   */\n      dup2\n      dup2\n      shr\n      swap1\n        /* \"#utility.yul\":3973:3985   */\n      dup3\n      and\n      dup1\n        /* \"#utility.yul\":3994:4055   */\n      tag_224\n      jumpi\n        /* \"#utility.yul\":4048:4052   */\n      0x7f\n        /* \"#utility.yul\":4040:4046   */\n      dup3\n        /* \"#utility.yul\":4036:4053   */\n      and\n        /* \"#utility.yul\":4026:4053   */\n      swap2\n      pop\n        /* \"#utility.yul\":3994:4055   */\n    tag_224:\n        /* \"#utility.yul\":4101:4103   */\n      0x20\n        /* \"#utility.yul\":4093:4099   */\n      dup3\n        /* \"#utility.yul\":4090:4104   */\n      lt\n        /* \"#utility.yul\":4070:4088   */\n      dup2\n        /* \"#utility.yul\":4067:4105   */\n      sub\n        /* \"#utility.yul\":4064:4225   */\n      tag_225\n      jumpi\n        /* \"#utility.yul\":4147:4157   */\n      0x4e487b71\n        /* \"#utility.yul\":4142:4145   */\n      0xe0\n        /* \"#utility.yul\":4138:4158   */\n      shl\n        /* \"#utility.yul\":4135:4136   */\n      0x00\n        /* \"#utility.yul\":4128:4159   */\n      mstore\n        /* \"#utility.yul\":4182:4186   */\n      0x22\n        /* \"#utility.yul\":4179:4180   */\n      0x04\n        /* \"#utility.yul\":4172:4187   */\n      mstore\n        /* \"#utility.yul\":4210:4214   */\n      0x24\n        /* \"#utility.yul\":4207:4208   */\n      0x00\n        /* \"#utility.yul\":4200:4215   */\n      revert\n        /* \"#utility.yul\":4064:4225   */\n    tag_225:\n      pop\n        /* \"#utility.yul\":3851:4231   */\n      swap2\n      swap1\n      pop\n      jump\t// out\n        /* \"#utility.yul\":4236:4363   */\n    tag_181:\n        /* \"#utility.yul\":4297:4307   */\n      0x4e487b71\n        /* \"#utility.yul\":4292:4295   */\n      0xe0\n        /* \"#utility.yul\":4288:4308   */\n      shl\n        /* \"#utility.yul\":4285:4286   */\n      0x00\n        /* \"#utility.yul\":4278:4309   */\n      mstore\n        /* \"#utility.yul\":4328:4332   */\n      0x11\n        /* \"#utility.yul\":4325:4326   */\n      0x04\n        /* \"#utility.yul\":4318:4333   */\n      mstore\n        /* \"#utility.yul\":4352:4356   */\n      0x24\n        /* \"#utility.yul\":4349:4350   */\n      0x00\n        /* \"#utility.yul\":4342:4357   */\n      revert\n        /* \"#utility.yul\":4368:4496   */\n    tag_175:\n        /* \"#utility.yul\":4435:4444   */\n      dup2\n      dup2\n      sub\n        /* \"#utility.yul\":4456:4467   */\n      dup2\n      dup2\n      gt\n        /* \"#utility.yul\":4453:4490   */\n      iszero\n      tag_103\n      jumpi\n        /* \"#utility.yul\":4470:4488   */\n      tag_103\n      tag_181\n      jump\t// in\n        /* \"#utility.yul\":4501:4626   */\n    tag_178:\n        /* \"#utility.yul\":4566:4575   */\n      dup1\n      dup3\n      add\n        /* \"#utility.yul\":4587:4597   */\n      dup1\n      dup3\n      gt\n        /* \"#utility.yul\":4584:4620   */\n      iszero\n      tag_103\n      jumpi\n        /* \"#utility.yul\":4600:4618   */\n      tag_103\n      tag_181\n      jump\t// in\n    stop\n    data_ada389e1fc24a8587c776340efb91b36e675792ab631816100d55df0b5cf3cbc ddf252ad1be2c89b69c2b068fc378daa952ba7f163c4a11628f55a4df523b3ef\n\n    auxdata: 0xa2646970667358221220c73a50468559732f9040d45784cfee771713f34cefae6350a51796fce3151e1364736f6c63430008120033\n}\n",
				"bytecode": {
					"linkReferences": {},
					"object": "60c060405260076080908152665461696b756c6160c81b60a0526002906200002890826200015e565b5060408051808201909152600c81526b2a30b4b5bab6309021b7b4b760a11b60208201526003906200005b90826200015e565b506004805460ff191660061790556200007d620f424064174876e8006200022a565b6005553480156200008d57600080fd5b506005543360008181526006602052604081209290925581546001600160a01b03191617905562000256565b634e487b7160e01b600052604160045260246000fd5b600181811c90821680620000e457607f821691505b6020821081036200010557634e487b7160e01b600052602260045260246000fd5b50919050565b601f8211156200015957600081815260208120601f850160051c81016020861015620001345750805b601f850160051c820191505b81811015620001555782815560010162000140565b5050505b505050565b81516001600160401b038111156200017a576200017a620000b9565b62000192816200018b8454620000cf565b846200010b565b602080601f831160018114620001ca5760008415620001b15750858301515b600019600386901b1c1916600185901b17855562000155565b600085815260208120601f198616915b82811015620001fb57888601518255948401946001909101908401620001da565b50858210156200021a5787850151600019600388901b60f8161c191681555b5050505050600190811b01905550565b80820281158282048414176200025057634e487b7160e01b600052601160045260246000fd5b92915050565b610f0380620002666000396000f3fe6080604052600436106100d55760003560e01c806370a0823111610079578063ae86852f11610056578063ae86852f14610250578063bcd59d8e14610270578063dd62ed3e146102a8578063e8e11b2b146102e057005b806370a08231146101ee57806395d89b411461021b578063a9059cbb1461023057005b806323b872dd116100b257806323b872dd1461015d578063313ce5671461017d578063314e99a2146101a95780634b58c2b7146101be57005b806306fdde03146100de578063095ea7b31461010957806318160ddd1461013957005b366100dc57005b005b3480156100ea57600080fd5b506100f3610300565b6040516101009190610c18565b60405180910390f35b34801561011557600080fd5b50610129610124366004610c82565b61038e565b6040519015158152602001610100565b34801561014557600080fd5b5061014f60055481565b604051908152602001610100565b34801561016957600080fd5b50610129610178366004610cac565b610411565b34801561018957600080fd5b506004546101979060ff1681565b60405160ff9091168152602001610100565b3480156101b557600080fd5b506100dc61051a565b3480156101ca57600080fd5b506101296101d9366004610ce8565b60016020526000908152604090205460ff1681565b3480156101fa57600080fd5b5061014f610209366004610ce8565b60066020526000908152604090205481565b34801561022757600080fd5b506100f3610543565b34801561023c57600080fd5b5061012961024b366004610c82565b610550565b34801561025c57600080fd5b506100dc61026b366004610d03565b6105f2565b34801561027c57600080fd5b50600054610290906001600160a01b031681565b6040516001600160a01b039091168152602001610100565b3480156102b457600080fd5b5061014f6102c3366004610d3f565b600760209081526000928352604080842090915290825290205481565b3480156102ec57600080fd5b506101296102fb366004610d72565b610634565b6003805461030d90610e37565b80601f016020809104026020016040519081016040528092919081815260200182805461033990610e37565b80156103865780601f1061035b57610100808354040283529160200191610386565b820191906000526020600020905b81548152906001019060200180831161036957829003601f168201915b505050505081565b3360009081526001602052604081205460ff16156103ab57600080fd5b3360008181526007602090815260408083206001600160a01b03881680855290835292819020869055518581529192917f8c5be1e5ebec7d5bd14f71427d1e84f3dd0314c0f7b2291e5b200ac8c7c3b92591015b60405180910390a35060015b92915050565b3360009081526001602052604081205460ff161561042e57600080fd5b6001600160a01b0384166000908152600660205260409020546104519083610bdd565b6001600160a01b03851660009081526006602090815260408083209390935560078152828220338352905220546104889083610bdd565b6001600160a01b0380861660009081526007602090815260408083203384528252808320949094559186168152600690915220546104c69083610bfd565b6001600160a01b038085166000818152600660205260409081902093909355915190861690600080516020610eae833981519152906105089086815260200190565b60405180910390a35060019392505050565b6000546001600160a01b0316331461053157600080fd5b600080546001600160a01b0319169055565b6002805461030d90610e37565b3360009081526001602052604081205460ff161561056d57600080fd5b336000908152600660205260409020546105879083610bdd565b33600090815260066020526040808220929092556001600160a01b038516815220546105b39083610bfd565b6001600160a01b038416600081815260066020526040908190209290925590513390600080516020610eae833981519152906103ff9086815260200190565b6000546001600160a01b0316331461060957600080fd5b6001600160a01b03919091166000908152600160205260409020805460ff1916911515919091179055565b3360009081526001602052604081205460ff161561065157600080fd5b60006001600160a01b038d16156106da5761066c8184610bfd565b6001600160a01b038e166000908152600660205260409020549091506106929084610bfd565b6001600160a01b038e16600081815260066020526040908190209290925590513390600080516020610eae833981519152906106d19087815260200190565b60405180910390a35b6001600160a01b038c1615610761576106f38184610bfd565b6001600160a01b038d166000908152600660205260409020549091506107199084610bfd565b6001600160a01b038d16600081815260066020526040908190209290925590513390600080516020610eae833981519152906107589087815260200190565b60405180910390a35b6001600160a01b038b16156107e85761077a8184610bfd565b6001600160a01b038c166000908152600660205260409020549091506107a09084610bfd565b6001600160a01b038c16600081815260066020526040908190209290925590513390600080516020610eae833981519152906107df9087815260200190565b60405180910390a35b6001600160a01b038a161561086f576108018184610bfd565b6001600160a01b038b166000908152600660205260409020549091506108279084610bfd565b6001600160a01b038b16600081815260066020526040908190209290925590513390600080516020610eae833981519152906108669087815260200190565b60405180910390a35b6001600160a01b038916156108f6576108888184610bfd565b6001600160a01b038a166000908152600660205260409020549091506108ae9084610bfd565b6001600160a01b038a16600081815260066020526040908190209290925590513390600080516020610eae833981519152906108ed9087815260200190565b60405180910390a35b6001600160a01b0388161561097d5761090f8184610bfd565b6001600160a01b0389166000908152600660205260409020549091506109359084610bfd565b6001600160a01b038916600081815260066020526040908190209290925590513390600080516020610eae833981519152906109749087815260200190565b60405180910390a35b6001600160a01b03871615610a04576109968184610bfd565b6001600160a01b0388166000908152600660205260409020549091506109bc9084610bfd565b6001600160a01b038816600081815260066020526040908190209290925590513390600080516020610eae833981519152906109fb9087815260200190565b60405180910390a35b6001600160a01b03861615610a8b57610a1d8184610bfd565b6001600160a01b038716600090815260066020526040902054909150610a439084610bfd565b6001600160a01b038716600081815260066020526040908190209290925590513390600080516020610eae83398151915290610a829087815260200190565b60405180910390a35b6001600160a01b03851615610b1257610aa48184610bfd565b6001600160a01b038616600090815260066020526040902054909150610aca9084610bfd565b6001600160a01b038616600081815260066020526040908190209290925590513390600080516020610eae83398151915290610b099087815260200190565b60405180910390a35b6001600160a01b03841615610b9957610b2b8184610bfd565b6001600160a01b038516600090815260066020526040902054909150610b519084610bfd565b6001600160a01b038516600081815260066020526040908190209290925590513390600080516020610eae83398151915290610b909087815260200190565b60405180910390a35b8015610bca5733600090815260066020526040902054610bb99082610bdd565b336000908152600660205260409020555b5060019c9b505050505050505050505050565b600082821115610bec57600080fd5b610bf68284610e87565b9392505050565b6000610c098284610e9a565b90508281101561040b57600080fd5b600060208083528351808285015260005b81811015610c4557858101830151858201604001528201610c29565b506000604082860101526040601f19601f8301168501019250505092915050565b80356001600160a01b0381168114610c7d57600080fd5b919050565b60008060408385031215610c9557600080fd5b610c9e83610c66565b946020939093013593505050565b600080600060608486031215610cc157600080fd5b610cca84610c66565b9250610cd860208501610c66565b9150604084013590509250925092565b600060208284031215610cfa57600080fd5b610bf682610c66565b60008060408385031215610d1657600080fd5b610d1f83610c66565b915060208301358015158114610d3457600080fd5b809150509250929050565b60008060408385031215610d5257600080fd5b610d5b83610c66565b9150610d6960208401610c66565b90509250929050565b60008060008060008060008060008060006101608c8e031215610d9457600080fd5b610d9d8c610c66565b9a50610dab60208d01610c66565b9950610db960408d01610c66565b9850610dc760608d01610c66565b9750610dd560808d01610c66565b9650610de360a08d01610c66565b9550610df160c08d01610c66565b9450610dff60e08d01610c66565b9350610e0e6101008d01610c66565b9250610e1d6101208d01610c66565b91506101408c013590509295989b509295989b9093969950565b600181811c90821680610e4b57607f821691505b602082108103610e6b57634e487b7160e01b600052602260045260246000fd5b50919050565b634e487b7160e01b600052601160045260246000fd5b8181038181111561040b5761040b610e71565b8082018082111561040b5761040b610e7156feddf252ad1be2c89b69c2b068fc378daa952ba7f163c4a11628f55a4df523b3efa2646970667358221220c73a50468559732f9040d45784cfee771713f34cefae6350a51796fce3151e1364736f6c63430008120033",
					"opcodes": "PUSH1 0xC0 PUSH1 0x40 MSTORE PUSH1 0x7 PUSH1 0x80 SWAP1 DUP2 MSTORE PUSH7 0x5461696B756C61 PUSH1 0xC8 SHL PUSH1 0xA0 MSTORE PUSH1 0x2 SWAP1 PUSH3 0x28 SWAP1 DUP3 PUSH3 0x15E JUMP JUMPDEST POP PUSH1 0x40 DUP1 MLOAD DUP1 DUP3 ADD SWAP1 SWAP2 MSTORE PUSH1 0xC DUP2 MSTORE PUSH12 0x2A30B4B5BAB6309021B7B4B7 PUSH1 0xA1 SHL PUSH1 0x20 DUP3 ADD MSTORE PUSH1 0x3 SWAP1 PUSH3 0x5B SWAP1 DUP3 PUSH3 0x15E JUMP JUMPDEST POP PUSH1 0x4 DUP1 SLOAD PUSH1 0xFF NOT AND PUSH1 0x6 OR SWAP1 SSTORE PUSH3 0x7D PUSH3 0xF4240 PUSH5 0x174876E800 PUSH3 0x22A JUMP JUMPDEST PUSH1 0x5 SSTORE CALLVALUE DUP1 ISZERO PUSH3 0x8D JUMPI PUSH1 0x0 DUP1 REVERT JUMPDEST POP PUSH1 0x5 SLOAD CALLER PUSH1 0x0 DUP2 DUP2 MSTORE PUSH1 0x6 PUSH1 0x20 MSTORE PUSH1 0x40 DUP2 KECCAK256 SWAP3 SWAP1 SWAP3 SSTORE DUP2 SLOAD PUSH1 0x1 PUSH1 0x1 PUSH1 0xA0 SHL SUB NOT AND OR SWAP1 SSTORE PUSH3 0x256 JUMP JUMPDEST PUSH4 0x4E487B71 PUSH1 0xE0 SHL PUSH1 0x0 MSTORE PUSH1 0x41 PUSH1 0x4 MSTORE PUSH1 0x24 PUSH1 0x0 REVERT JUMPDEST PUSH1 0x1 DUP2 DUP2 SHR SWAP1 DUP3 AND DUP1 PUSH3 0xE4 JUMPI PUSH1 0x7F DUP3 AND SWAP2 POP JUMPDEST PUSH1 0x20 DUP3 LT DUP2 SUB PUSH3 0x105 JUMPI PUSH4 0x4E487B71 PUSH1 0xE0 SHL PUSH1 0x0 MSTORE PUSH1 0x22 PUSH1 0x4 MSTORE PUSH1 0x24 PUSH1 0x0 REVERT JUMPDEST POP SWAP2 SWAP1 POP JUMP JUMPDEST PUSH1 0x1F DUP3 GT ISZERO PUSH3 0x159 JUMPI PUSH1 0x0 DUP2 DUP2 MSTORE PUSH1 0x20 DUP2 KECCAK256 PUSH1 0x1F DUP6 ADD PUSH1 0x5 SHR DUP2 ADD PUSH1 0x20 DUP7 LT ISZERO PUSH3 0x134 JUMPI POP DUP1 JUMPDEST PUSH1 0x1F DUP6 ADD PUSH1 0x5 SHR DUP3 ADD SWAP2 POP JUMPDEST DUP2 DUP2 LT ISZERO PUSH3 0x155 JUMPI DUP3 DUP2 SSTORE PUSH1 0x1 ADD PUSH3 0x140 JUMP JUMPDEST POP POP POP JUMPDEST POP POP POP JUMP JUMPDEST DUP2 MLOAD PUSH1 0x1 PUSH1 0x1 PUSH1 0x40 SHL SUB DUP2 GT ISZERO PUSH3 0x17A JUMPI PUSH3 0x17A PUSH3 0xB9 JUMP JUMPDEST PUSH3 0x192 DUP2 PUSH3 0x18B DUP5 SLOAD PUSH3 0xCF JUMP JUMPDEST DUP5 PUSH3 0x10B JUMP JUMPDEST PUSH1 0x20 DUP1 PUSH1 0x1F DUP4 GT PUSH1 0x1 DUP2 EQ PUSH3 0x1CA JUMPI PUSH1 0x0 DUP5 ISZERO PUSH3 0x1B1 JUMPI POP DUP6 DUP4 ADD MLOAD JUMPDEST PUSH1 0x0 NOT PUSH1 0x3 DUP7 SWAP1 SHL SHR NOT AND PUSH1 0x1 DUP6 SWAP1 SHL OR DUP6 SSTORE PUSH3 0x155 JUMP JUMPDEST PUSH1 0x0 DUP6 DUP2 MSTORE PUSH1 0x20 DUP2 KECCAK256 PUSH1 0x1F NOT DUP7 AND SWAP2 JUMPDEST DUP3 DUP2 LT ISZERO PUSH3 0x1FB JUMPI DUP9 DUP7 ADD MLOAD DUP3 SSTORE SWAP5 DUP5 ADD SWAP5 PUSH1 0x1 SWAP1 SWAP2 ADD SWAP1 DUP5 ADD PUSH3 0x1DA JUMP JUMPDEST POP DUP6 DUP3 LT ISZERO PUSH3 0x21A JUMPI DUP8 DUP6 ADD MLOAD PUSH1 0x0 NOT PUSH1 0x3 DUP9 SWAP1 SHL PUSH1 0xF8 AND SHR NOT AND DUP2 SSTORE JUMPDEST POP POP POP POP POP PUSH1 0x1 SWAP1 DUP2 SHL ADD SWAP1 SSTORE POP JUMP JUMPDEST DUP1 DUP3 MUL DUP2 ISZERO DUP3 DUP3 DIV DUP5 EQ OR PUSH3 0x250 JUMPI PUSH4 0x4E487B71 PUSH1 0xE0 SHL PUSH1 0x0 MSTORE PUSH1 0x11 PUSH1 0x4 MSTORE PUSH1 0x24 PUSH1 0x0 REVERT JUMPDEST SWAP3 SWAP2 POP POP JUMP JUMPDEST PUSH2 0xF03 DUP1 PUSH3 0x266 PUSH1 0x0 CODECOPY PUSH1 0x0 RETURN INVALID PUSH1 0x80 PUSH1 0x40 MSTORE PUSH1 0x4 CALLDATASIZE LT PUSH2 0xD5 JUMPI PUSH1 0x0 CALLDATALOAD PUSH1 0xE0 SHR DUP1 PUSH4 0x70A08231 GT PUSH2 0x79 JUMPI DUP1 PUSH4 0xAE86852F GT PUSH2 0x56 JUMPI DUP1 PUSH4 0xAE86852F EQ PUSH2 0x250 JUMPI DUP1 PUSH4 0xBCD59D8E EQ PUSH2 0x270 JUMPI DUP1 PUSH4 0xDD62ED3E EQ PUSH2 0x2A8 JUMPI DUP1 PUSH4 0xE8E11B2B EQ PUSH2 0x2E0 JUMPI STOP JUMPDEST DUP1 PUSH4 0x70A08231 EQ PUSH2 0x1EE JUMPI DUP1 PUSH4 0x95D89B41 EQ PUSH2 0x21B JUMPI DUP1 PUSH4 0xA9059CBB EQ PUSH2 0x230 JUMPI STOP JUMPDEST DUP1 PUSH4 0x23B872DD GT PUSH2 0xB2 JUMPI DUP1 PUSH4 0x23B872DD EQ PUSH2 0x15D JUMPI DUP1 PUSH4 0x313CE567 EQ PUSH2 0x17D JUMPI DUP1 PUSH4 0x314E99A2 EQ PUSH2 0x1A9 JUMPI DUP1 PUSH4 0x4B58C2B7 EQ PUSH2 0x1BE JUMPI STOP JUMPDEST DUP1 PUSH4 0x6FDDE03 EQ PUSH2 0xDE JUMPI DUP1 PUSH4 0x95EA7B3 EQ PUSH2 0x109 JUMPI DUP1 PUSH4 0x18160DDD EQ PUSH2 0x139 JUMPI STOP JUMPDEST CALLDATASIZE PUSH2 0xDC JUMPI STOP JUMPDEST STOP JUMPDEST CALLVALUE DUP1 ISZERO PUSH2 0xEA JUMPI PUSH1 0x0 DUP1 REVERT JUMPDEST POP PUSH2 0xF3 PUSH2 0x300 JUMP JUMPDEST PUSH1 0x40 MLOAD PUSH2 0x100 SWAP2 SWAP1 PUSH2 0xC18 JUMP JUMPDEST PUSH1 0x40 MLOAD DUP1 SWAP2 SUB SWAP1 RETURN JUMPDEST CALLVALUE DUP1 ISZERO PUSH2 0x115 JUMPI PUSH1 0x0 DUP1 REVERT JUMPDEST POP PUSH2 0x129 PUSH2 0x124 CALLDATASIZE PUSH1 0x4 PUSH2 0xC82 JUMP JUMPDEST PUSH2 0x38E JUMP JUMPDEST PUSH1 0x40 MLOAD SWAP1 ISZERO ISZERO DUP2 MSTORE PUSH1 0x20 ADD PUSH2 0x100 JUMP JUMPDEST CALLVALUE DUP1 ISZERO PUSH2 0x145 JUMPI PUSH1 0x0 DUP1 REVERT JUMPDEST POP PUSH2 0x14F PUSH1 0x5 SLOAD DUP2 JUMP JUMPDEST PUSH1 0x40 MLOAD SWAP1 DUP2 MSTORE PUSH1 0x20 ADD PUSH2 0x100 JUMP JUMPDEST CALLVALUE DUP1 ISZERO PUSH2 0x169 JUMPI PUSH1 0x0 DUP1 REVERT JUMPDEST POP PUSH2 0x129 PUSH2 0x178 CALLDATASIZE PUSH1 0x4 PUSH2 0xCAC JUMP JUMPDEST PUSH2 0x411 JUMP JUMPDEST CALLVALUE DUP1 ISZERO PUSH2 0x189 JUMPI PUSH1 0x0 DUP1 REVERT JUMPDEST POP PUSH1 0x4 SLOAD PUSH2 0x197 SWAP1 PUSH1 0xFF AND DUP2 JUMP JUMPDEST PUSH1 0x40 MLOAD PUSH1 0xFF SWAP1 SWAP2 AND DUP2 MSTORE PUSH1 0x20 ADD PUSH2 0x100 JUMP JUMPDEST CALLVALUE DUP1 ISZERO PUSH2 0x1B5 JUMPI PUSH1 0x0 DUP1 REVERT JUMPDEST POP PUSH2 0xDC PUSH2 0x51A JUMP JUMPDEST CALLVALUE DUP1 ISZERO PUSH2 0x1CA JUMPI PUSH1 0x0 DUP1 REVERT JUMPDEST POP PUSH2 0x129 PUSH2 0x1D9 CALLDATASIZE PUSH1 0x4 PUSH2 0xCE8 JUMP JUMPDEST PUSH1 0x1 PUSH1 0x20 MSTORE PUSH1 0x0 SWAP1 DUP2 MSTORE PUSH1 0x40 SWAP1 KECCAK256 SLOAD PUSH1 0xFF AND DUP2 JUMP JUMPDEST CALLVALUE DUP1 ISZERO PUSH2 0x1FA JUMPI PUSH1 0x0 DUP1 REVERT JUMPDEST POP PUSH2 0x14F PUSH2 0x209 CALLDATASIZE PUSH1 0x4 PUSH2 0xCE8 JUMP JUMPDEST PUSH1 0x6 PUSH1 0x20 MSTORE PUSH1 0x0 SWAP1 DUP2 MSTORE PUSH1 0x40 SWAP1 KECCAK256 SLOAD DUP2 JUMP JUMPDEST CALLVALUE DUP1 ISZERO PUSH2 0x227 JUMPI PUSH1 0x0 DUP1 REVERT JUMPDEST POP PUSH2 0xF3 PUSH2 0x543 JUMP JUMPDEST CALLVALUE DUP1 ISZERO PUSH2 0x23C JUMPI PUSH1 0x0 DUP1 REVERT JUMPDEST POP PUSH2 0x129 PUSH2 0x24B CALLDATASIZE PUSH1 0x4 PUSH2 0xC82 JUMP JUMPDEST PUSH2 0x550 JUMP JUMPDEST CALLVALUE DUP1 ISZERO PUSH2 0x25C JUMPI PUSH1 0x0 DUP1 REVERT JUMPDEST POP PUSH2 0xDC PUSH2 0x26B CALLDATASIZE PUSH1 0x4 PUSH2 0xD03 JUMP JUMPDEST PUSH2 0x5F2 JUMP JUMPDEST CALLVALUE DUP1 ISZERO PUSH2 0x27C JUMPI PUSH1 0x0 DUP1 REVERT JUMPDEST POP PUSH1 0x0 SLOAD PUSH2 0x290 SWAP1 PUSH1 0x1 PUSH1 0x1 PUSH1 0xA0 SHL SUB AND DUP2 JUMP JUMPDEST PUSH1 0x40 MLOAD PUSH1 0x1 PUSH1 0x1 PUSH1 0xA0 SHL SUB SWAP1 SWAP2 AND DUP2 MSTORE PUSH1 0x20 ADD PUSH2 0x100 JUMP JUMPDEST CALLVALUE DUP1 ISZERO PUSH2 0x2B4 JUMPI PUSH1 0x0 DUP1 REVERT JUMPDEST POP PUSH2 0x14F PUSH2 0x2C3 CALLDATASIZE PUSH1 0x4 PUSH2 0xD3F JUMP JUMPDEST PUSH1 0x7 PUSH1 0x20 SWAP1 DUP2 MSTORE PUSH1 0x0 SWAP3 DUP4 MSTORE PUSH1 0x40 DUP1 DUP5 KECCAK256 SWAP1 SWAP2 MSTORE SWAP1 DUP3 MSTORE SWAP1 KECCAK256 SLOAD DUP2 JUMP JUMPDEST CALLVALUE DUP1 ISZERO PUSH2 0x2EC JUMPI PUSH1 0x0 DUP1 REVERT JUMPDEST POP PUSH2 0x129 PUSH2 0x2FB CALLDATASIZE PUSH1 0x4 PUSH2 0xD72 JUMP JUMPDEST PUSH2 0x634 JUMP JUMPDEST PUSH1 0x3 DUP1 SLOAD PUSH2 0x30D SWAP1 PUSH2 0xE37 JUMP JUMPDEST DUP1 PUSH1 0x1F ADD PUSH1 0x20 DUP1 SWAP2 DIV MUL PUSH1 0x20 ADD PUSH1 0x40 MLOAD SWAP1 DUP2 ADD PUSH1 0x40 MSTORE DUP1 SWAP3 SWAP2 SWAP1 DUP2 DUP2 MSTORE PUSH1 0x20 ADD DUP3 DUP1 SLOAD PUSH2 0x339 SWAP1 PUSH2 0xE37 JUMP JUMPDEST DUP1 ISZERO PUSH2 0x386 JUMPI DUP1 PUSH1 0x1F LT PUSH2 0x35B JUMPI PUSH2 0x100 DUP1 DUP4 SLOAD DIV MUL DUP4 MSTORE SWAP2 PUSH1 0x20 ADD SWAP2 PUSH2 0x386 JUMP JUMPDEST DUP3 ADD SWAP2 SWAP1 PUSH1 0x0 MSTORE PUSH1 0x20 PUSH1 0x0 KECCAK256 SWAP1 JUMPDEST DUP2 SLOAD DUP2 MSTORE SWAP1 PUSH1 0x1 ADD SWAP1 PUSH1 0x20 ADD DUP1 DUP4 GT PUSH2 0x369 JUMPI DUP3 SWAP1 SUB PUSH1 0x1F AND DUP3 ADD SWAP2 JUMPDEST POP POP POP POP POP DUP2 JUMP JUMPDEST CALLER PUSH1 0x0 SWAP1 DUP2 MSTORE PUSH1 0x1 PUSH1 0x20 MSTORE PUSH1 0x40 DUP2 KECCAK256 SLOAD PUSH1 0xFF AND ISZERO PUSH2 0x3AB JUMPI PUSH1 0x0 DUP1 REVERT JUMPDEST CALLER PUSH1 0x0 DUP2 DUP2 MSTORE PUSH1 0x7 PUSH1 0x20 SWAP1 DUP2 MSTORE PUSH1 0x40 DUP1 DUP4 KECCAK256 PUSH1 0x1 PUSH1 0x1 PUSH1 0xA0 SHL SUB DUP9 AND DUP1 DUP6 MSTORE SWAP1 DUP4 MSTORE SWAP3 DUP2 SWAP1 KECCAK256 DUP7 SWAP1 SSTORE MLOAD DUP6 DUP2 MSTORE SWAP2 SWAP3 SWAP2 PUSH32 0x8C5BE1E5EBEC7D5BD14F71427D1E84F3DD0314C0F7B2291E5B200AC8C7C3B925 SWAP2 ADD JUMPDEST PUSH1 0x40 MLOAD DUP1 SWAP2 SUB SWAP1 LOG3 POP PUSH1 0x1 JUMPDEST SWAP3 SWAP2 POP POP JUMP JUMPDEST CALLER PUSH1 0x0 SWAP1 DUP2 MSTORE PUSH1 0x1 PUSH1 0x20 MSTORE PUSH1 0x40 DUP2 KECCAK256 SLOAD PUSH1 0xFF AND ISZERO PUSH2 0x42E JUMPI PUSH1 0x0 DUP1 REVERT JUMPDEST PUSH1 0x1 PUSH1 0x1 PUSH1 0xA0 SHL SUB DUP5 AND PUSH1 0x0 SWAP1 DUP2 MSTORE PUSH1 0x6 PUSH1 0x20 MSTORE PUSH1 0x40 SWAP1 KECCAK256 SLOAD PUSH2 0x451 SWAP1 DUP4 PUSH2 0xBDD JUMP JUMPDEST PUSH1 0x1 PUSH1 0x1 PUSH1 0xA0 SHL SUB DUP6 AND PUSH1 0x0 SWAP1 DUP2 MSTORE PUSH1 0x6 PUSH1 0x20 SWAP1 DUP2 MSTORE PUSH1 0x40 DUP1 DUP4 KECCAK256 SWAP4 SWAP1 SWAP4 SSTORE PUSH1 0x7 DUP2 MSTORE DUP3 DUP3 KECCAK256 CALLER DUP4 MSTORE SWAP1 MSTORE KECCAK256 SLOAD PUSH2 0x488 SWAP1 DUP4 PUSH2 0xBDD JUMP JUMPDEST PUSH1 0x1 PUSH1 0x1 PUSH1 0xA0 SHL SUB DUP1 DUP7 AND PUSH1 0x0 SWAP1 DUP2 MSTORE PUSH1 0x7 PUSH1 0x20 SWAP1 DUP2 MSTORE PUSH1 0x40 DUP1 DUP4 KECCAK256 CALLER DUP5 MSTORE DUP3 MSTORE DUP1 DUP4 KECCAK256 SWAP5 SWAP1 SWAP5 SSTORE SWAP2 DUP7 AND DUP2 MSTORE PUSH1 0x6 SWAP1 SWAP2 MSTORE KECCAK256 SLOAD PUSH2 0x4C6 SWAP1 DUP4 PUSH2 0xBFD JUMP JUMPDEST PUSH1 0x1 PUSH1 0x1 PUSH1 0xA0 SHL SUB DUP1 DUP6 AND PUSH1 0x0 DUP2 DUP2 MSTORE PUSH1 0x6 PUSH1 0x20 MSTORE PUSH1 0x40 SWAP1 DUP2 SWAP1 KECCAK256 SWAP4 SWAP1 SWAP4 SSTORE SWAP2 MLOAD SWAP1 DUP7 AND SWAP1 PUSH1 0x0 DUP1 MLOAD PUSH1 0x20 PUSH2 0xEAE DUP4 CODECOPY DUP2 MLOAD SWAP2 MSTORE SWAP1 PUSH2 0x508 SWAP1 DUP7 DUP2 MSTORE PUSH1 0x20 ADD SWAP1 JUMP JUMPDEST PUSH1 0x40 MLOAD DUP1 SWAP2 SUB SWAP1 LOG3 POP PUSH1 0x1 SWAP4 SWAP3 POP POP POP JUMP JUMPDEST PUSH1 0x0 SLOAD PUSH1 0x1 PUSH1 0x1 PUSH1 0xA0 SHL SUB AND CALLER EQ PUSH2 0x531 JUMPI PUSH1 0x0 DUP1 REVERT JUMPDEST PUSH1 0x0 DUP1 SLOAD PUSH1 0x1 PUSH1 0x1 PUSH1 0xA0 SHL SUB NOT AND SWAP1 SSTORE JUMP JUMPDEST PUSH1 0x2 DUP1 SLOAD PUSH2 0x30D SWAP1 PUSH2 0xE37 JUMP JUMPDEST CALLER PUSH1 0x0 SWAP1 DUP2 MSTORE PUSH1 0x1 PUSH1 0x20 MSTORE PUSH1 0x40 DUP2 KECCAK256 SLOAD PUSH1 0xFF AND ISZERO PUSH2 0x56D JUMPI PUSH1 0x0 DUP1 REVERT JUMPDEST CALLER PUSH1 0x0 SWAP1 DUP2 MSTORE PUSH1 0x6 PUSH1 0x20 MSTORE PUSH1 0x40 SWAP1 KECCAK256 SLOAD PUSH2 0x587 SWAP1 DUP4 PUSH2 0xBDD JUMP JUMPDEST CALLER PUSH1 0x0 SWAP1 DUP2 MSTORE PUSH1 0x6 PUSH1 0x20 MSTORE PUSH1 0x40 DUP1 DUP3 KECCAK256 SWAP3 SWAP1 SWAP3 SSTORE PUSH1 0x1 PUSH1 0x1 PUSH1 0xA0 SHL SUB DUP6 AND DUP2 MSTORE KECCAK256 SLOAD PUSH2 0x5B3 SWAP1 DUP4 PUSH2 0xBFD JUMP JUMPDEST PUSH1 0x1 PUSH1 0x1 PUSH1 0xA0 SHL SUB DUP5 AND PUSH1 0x0 DUP2 DUP2 MSTORE PUSH1 0x6 PUSH1 0x20 MSTORE PUSH1 0x40 SWAP1 DUP2 SWAP1 KECCAK256 SWAP3 SWAP1 SWAP3 SSTORE SWAP1 MLOAD CALLER SWAP1 PUSH1 0x0 DUP1 MLOAD PUSH1 0x20 PUSH2 0xEAE DUP4 CODECOPY DUP2 MLOAD SWAP2 MSTORE SWAP1 PUSH2 0x3FF SWAP1 DUP7 DUP2 MSTORE PUSH1 0x20 ADD SWAP1 JUMP JUMPDEST PUSH1 0x0 SLOAD PUSH1 0x1 PUSH1 0x1 PUSH1 0xA0 SHL SUB AND CALLER EQ PUSH2 0x609 JUMPI PUSH1 0x0 DUP1 REVERT JUMPDEST PUSH1 0x1 PUSH1 0x1 PUSH1 0xA0 SHL SUB SWAP2 SWAP1 SWAP2 AND PUSH1 0x0 SWAP1 DUP2 MSTORE PUSH1 0x1 PUSH1 0x20 MSTORE PUSH1 0x40 SWAP1 KECCAK256 DUP1 SLOAD PUSH1 0xFF NOT AND SWAP2 ISZERO ISZERO SWAP2 SWAP1 SWAP2 OR SWAP1 SSTORE JUMP JUMPDEST CALLER PUSH1 0x0 SWAP1 DUP2 MSTORE PUSH1 0x1 PUSH1 0x20 MSTORE PUSH1 0x40 DUP2 KECCAK256 SLOAD PUSH1 0xFF AND ISZERO PUSH2 0x651 JUMPI PUSH1 0x0 DUP1 REVERT JUMPDEST PUSH1 0x0 PUSH1 0x1 PUSH1 0x1 PUSH1 0xA0 SHL SUB DUP14 AND ISZERO PUSH2 0x6DA JUMPI PUSH2 0x66C DUP2 DUP5 PUSH2 0xBFD JUMP JUMPDEST PUSH1 0x1 PUSH1 0x1 PUSH1 0xA0 SHL SUB DUP15 AND PUSH1 0x0 SWAP1 DUP2 MSTORE PUSH1 0x6 PUSH1 0x20 MSTORE PUSH1 0x40 SWAP1 KECCAK256 SLOAD SWAP1 SWAP2 POP PUSH2 0x692 SWAP1 DUP5 PUSH2 0xBFD JUMP JUMPDEST PUSH1 0x1 PUSH1 0x1 PUSH1 0xA0 SHL SUB DUP15 AND PUSH1 0x0 DUP2 DUP2 MSTORE PUSH1 0x6 PUSH1 0x20 MSTORE PUSH1 0x40 SWAP1 DUP2 SWAP1 KECCAK256 SWAP3 SWAP1 SWAP3 SSTORE SWAP1 MLOAD CALLER SWAP1 PUSH1 0x0 DUP1 MLOAD PUSH1 0x20 PUSH2 0xEAE DUP4 CODECOPY DUP2 MLOAD SWAP2 MSTORE SWAP1 PUSH2 0x6D1 SWAP1 DUP8 DUP2 MSTORE PUSH1 0x20 ADD SWAP1 JUMP JUMPDEST PUSH1 0x40 MLOAD DUP1 SWAP2 SUB SWAP1 LOG3 JUMPDEST PUSH1 0x1 PUSH1 0x1 PUSH1 0xA0 SHL SUB DUP13 AND ISZERO PUSH2 0x761 JUMPI PUSH2 0x6F3 DUP2 DUP5 PUSH2 0xBFD JUMP JUMPDEST PUSH1 0x1 PUSH1 0x1 PUSH1 0xA0 SHL SUB DUP14 AND PUSH1 0x0 SWAP1 DUP2 MSTORE PUSH1 0x6 PUSH1 0x20 MSTORE PUSH1 0x40 SWAP1 KECCAK256 SLOAD SWAP1 SWAP2 POP PUSH2 0x719 SWAP1 DUP5 PUSH2 0xBFD JUMP JUMPDEST PUSH1 0x1 PUSH1 0x1 PUSH1 0xA0 SHL SUB DUP14 AND PUSH1 0x0 DUP2 DUP2 MSTORE PUSH1 0x6 PUSH1 0x20 MSTORE PUSH1 0x40 SWAP1 DUP2 SWAP1 KECCAK256 SWAP3 SWAP1 SWAP3 SSTORE SWAP1 MLOAD CALLER SWAP1 PUSH1 0x0 DUP1 MLOAD PUSH1 0x20 PUSH2 0xEAE DUP4 CODECOPY DUP2 MLOAD SWAP2 MSTORE SWAP1 PUSH2 0x758 SWAP1 DUP8 DUP2 MSTORE PUSH1 0x20 ADD SWAP1 JUMP JUMPDEST PUSH1 0x40 MLOAD DUP1 SWAP2 SUB SWAP1 LOG3 JUMPDEST PUSH1 0x1 PUSH1 0x1 PUSH1 0xA0 SHL SUB DUP12 AND ISZERO PUSH2 0x7E8 JUMPI PUSH2 0x77A DUP2 DUP5 PUSH2 0xBFD JUMP JUMPDEST PUSH1 0x1 PUSH1 0x1 PUSH1 0xA0 SHL SUB DUP13 AND PUSH1 0x0 SWAP1 DUP2 MSTORE PUSH1 0x6 PUSH1 0x20 MSTORE PUSH1 0x40 SWAP1 KECCAK256 SLOAD SWAP1 SWAP2 POP PUSH2 0x7A0 SWAP1 DUP5 PUSH2 0xBFD JUMP JUMPDEST PUSH1 0x1 PUSH1 0x1 PUSH1 0xA0 SHL SUB DUP13 AND PUSH1 0x0 DUP2 DUP2 MSTORE PUSH1 0x6 PUSH1 0x20 MSTORE PUSH1 0x40 SWAP1 DUP2 SWAP1 KECCAK256 SWAP3 SWAP1 SWAP3 SSTORE SWAP1 MLOAD CALLER SWAP1 PUSH1 0x0 DUP1 MLOAD PUSH1 0x20 PUSH2 0xEAE DUP4 CODECOPY DUP2 MLOAD SWAP2 MSTORE SWAP1 PUSH2 0x7DF SWAP1 DUP8 DUP2 MSTORE PUSH1 0x20 ADD SWAP1 JUMP JUMPDEST PUSH1 0x40 MLOAD DUP1 SWAP2 SUB SWAP1 LOG3 JUMPDEST PUSH1 0x1 PUSH1 0x1 PUSH1 0xA0 SHL SUB DUP11 AND ISZERO PUSH2 0x86F JUMPI PUSH2 0x801 DUP2 DUP5 PUSH2 0xBFD JUMP JUMPDEST PUSH1 0x1 PUSH1 0x1 PUSH1 0xA0 SHL SUB DUP12 AND PUSH1 0x0 SWAP1 DUP2 MSTORE PUSH1 0x6 PUSH1 0x20 MSTORE PUSH1 0x40 SWAP1 KECCAK256 SLOAD SWAP1 SWAP2 POP PUSH2 0x827 SWAP1 DUP5 PUSH2 0xBFD JUMP JUMPDEST PUSH1 0x1 PUSH1 0x1 PUSH1 0xA0 SHL SUB DUP12 AND PUSH1 0x0 DUP2 DUP2 MSTORE PUSH1 0x6 PUSH1 0x20 MSTORE PUSH1 0x40 SWAP1 DUP2 SWAP1 KECCAK256 SWAP3 SWAP1 SWAP3 SSTORE SWAP1 MLOAD CALLER SWAP1 PUSH1 0x0 DUP1 MLOAD PUSH1 0x20 PUSH2 0xEAE DUP4 CODECOPY DUP2 MLOAD SWAP2 MSTORE SWAP1 PUSH2 0x866 SWAP1 DUP8 DUP2 MSTORE PUSH1 0x20 ADD SWAP1 JUMP JUMPDEST PUSH1 0x40 MLOAD DUP1 SWAP2 SUB SWAP1 LOG3 JUMPDEST PUSH1 0x1 PUSH1 0x1 PUSH1 0xA0 SHL SUB DUP10 AND ISZERO PUSH2 0x8F6 JUMPI PUSH2 0x888 DUP2 DUP5 PUSH2 0xBFD JUMP JUMPDEST PUSH1 0x1 PUSH1 0x1 PUSH1 0xA0 SHL SUB DUP11 AND PUSH1 0x0 SWAP1 DUP2 MSTORE PUSH1 0x6 PUSH1 0x20 MSTORE PUSH1 0x40 SWAP1 KECCAK256 SLOAD SWAP1 SWAP2 POP PUSH2 0x8AE SWAP1 DUP5 PUSH2 0xBFD JUMP JUMPDEST PUSH1 0x1 PUSH1 0x1 PUSH1 0xA0 SHL SUB DUP11 AND PUSH1 0x0 DUP2 DUP2 MSTORE PUSH1 0x6 PUSH1 0x20 MSTORE PUSH1 0x40 SWAP1 DUP2 SWAP1 KECCAK256 SWAP3 SWAP1 SWAP3 SSTORE SWAP1 MLOAD CALLER SWAP1 PUSH1 0x0 DUP1 MLOAD PUSH1 0x20 PUSH2 0xEAE DUP4 CODECOPY DUP2 MLOAD SWAP2 MSTORE SWAP1 PUSH2 0x8ED SWAP1 DUP8 DUP2 MSTORE PUSH1 0x20 ADD SWAP1 JUMP JUMPDEST PUSH1 0x40 MLOAD DUP1 SWAP2 SUB SWAP1 LOG3 JUMPDEST PUSH1 0x1 PUSH1 0x1 PUSH1 0xA0 SHL SUB DUP9 AND ISZERO PUSH2 0x97D JUMPI PUSH2 0x90F DUP2 DUP5 PUSH2 0xBFD JUMP JUMPDEST PUSH1 0x1 PUSH1 0x1 PUSH1 0xA0 SHL SUB DUP10 AND PUSH1 0x0 SWAP1 DUP2 MSTORE PUSH1 0x6 PUSH1 0x20 MSTORE PUSH1 0x40 SWAP1 KECCAK256 SLOAD SWAP1 SWAP2 POP PUSH2 0x935 SWAP1 DUP5 PUSH2 0xBFD JUMP JUMPDEST PUSH1 0x1 PUSH1 0x1 PUSH1 0xA0 SHL SUB DUP10 AND PUSH1 0x0 DUP2 DUP2 MSTORE PUSH1 0x6 PUSH1 0x20 MSTORE PUSH1 0x40 SWAP1 DUP2 SWAP1 KECCAK256 SWAP3 SWAP1 SWAP3 SSTORE SWAP1 MLOAD CALLER SWAP1 PUSH1 0x0 DUP1 MLOAD PUSH1 0x20 PUSH2 0xEAE DUP4 CODECOPY DUP2 MLOAD SWAP2 MSTORE SWAP1 PUSH2 0x974 SWAP1 DUP8 DUP2 MSTORE PUSH1 0x20 ADD SWAP1 JUMP JUMPDEST PUSH1 0x40 MLOAD DUP1 SWAP2 SUB SWAP1 LOG3 JUMPDEST PUSH1 0x1 PUSH1 0x1 PUSH1 0xA0 SHL SUB DUP8 AND ISZERO PUSH2 0xA04 JUMPI PUSH2 0x996 DUP2 DUP5 PUSH2 0xBFD JUMP JUMPDEST PUSH1 0x1 PUSH1 0x1 PUSH1 0xA0 SHL SUB DUP9 AND PUSH1 0x0 SWAP1 DUP2 MSTORE PUSH1 0x6 PUSH1 0x20 MSTORE PUSH1 0x40 SWAP1 KECCAK256 SLOAD SWAP1 SWAP2 POP PUSH2 0x9BC SWAP1 DUP5 PUSH2 0xBFD JUMP JUMPDEST PUSH1 0x1 PUSH1 0x1 PUSH1 0xA0 SHL SUB DUP9 AND PUSH1 0x0 DUP2 DUP2 MSTORE PUSH1 0x6 PUSH1 0x20 MSTORE PUSH1 0x40 SWAP1 DUP2 SWAP1 KECCAK256 SWAP3 SWAP1 SWAP3 SSTORE SWAP1 MLOAD CALLER SWAP1 PUSH1 0x0 DUP1 MLOAD PUSH1 0x20 PUSH2 0xEAE DUP4 CODECOPY DUP2 MLOAD SWAP2 MSTORE SWAP1 PUSH2 0x9FB SWAP1 DUP8 DUP2 MSTORE PUSH1 0x20 ADD SWAP1 JUMP JUMPDEST PUSH1 0x40 MLOAD DUP1 SWAP2 SUB SWAP1 LOG3 JUMPDEST PUSH1 0x1 PUSH1 0x1 PUSH1 0xA0 SHL SUB DUP7 AND ISZERO PUSH2 0xA8B JUMPI PUSH2 0xA1D DUP2 DUP5 PUSH2 0xBFD JUMP JUMPDEST PUSH1 0x1 PUSH1 0x1 PUSH1 0xA0 SHL SUB DUP8 AND PUSH1 0x0 SWAP1 DUP2 MSTORE PUSH1 0x6 PUSH1 0x20 MSTORE PUSH1 0x40 SWAP1 KECCAK256 SLOAD SWAP1 SWAP2 POP PUSH2 0xA43 SWAP1 DUP5 PUSH2 0xBFD JUMP JUMPDEST PUSH1 0x1 PUSH1 0x1 PUSH1 0xA0 SHL SUB DUP8 AND PUSH1 0x0 DUP2 DUP2 MSTORE PUSH1 0x6 PUSH1 0x20 MSTORE PUSH1 0x40 SWAP1 DUP2 SWAP1 KECCAK256 SWAP3 SWAP1 SWAP3 SSTORE SWAP1 MLOAD CALLER SWAP1 PUSH1 0x0 DUP1 MLOAD PUSH1 0x20 PUSH2 0xEAE DUP4 CODECOPY DUP2 MLOAD SWAP2 MSTORE SWAP1 PUSH2 0xA82 SWAP1 DUP8 DUP2 MSTORE PUSH1 0x20 ADD SWAP1 JUMP JUMPDEST PUSH1 0x40 MLOAD DUP1 SWAP2 SUB SWAP1 LOG3 JUMPDEST PUSH1 0x1 PUSH1 0x1 PUSH1 0xA0 SHL SUB DUP6 AND ISZERO PUSH2 0xB12 JUMPI PUSH2 0xAA4 DUP2 DUP5 PUSH2 0xBFD JUMP JUMPDEST PUSH1 0x1 PUSH1 0x1 PUSH1 0xA0 SHL SUB DUP7 AND PUSH1 0x0 SWAP1 DUP2 MSTORE PUSH1 0x6 PUSH1 0x20 MSTORE PUSH1 0x40 SWAP1 KECCAK256 SLOAD SWAP1 SWAP2 POP PUSH2 0xACA SWAP1 DUP5 PUSH2 0xBFD JUMP JUMPDEST PUSH1 0x1 PUSH1 0x1 PUSH1 0xA0 SHL SUB DUP7 AND PUSH1 0x0 DUP2 DUP2 MSTORE PUSH1 0x6 PUSH1 0x20 MSTORE PUSH1 0x40 SWAP1 DUP2 SWAP1 KECCAK256 SWAP3 SWAP1 SWAP3 SSTORE SWAP1 MLOAD CALLER SWAP1 PUSH1 0x0 DUP1 MLOAD PUSH1 0x20 PUSH2 0xEAE DUP4 CODECOPY DUP2 MLOAD SWAP2 MSTORE SWAP1 PUSH2 0xB09 SWAP1 DUP8 DUP2 MSTORE PUSH1 0x20 ADD SWAP1 JUMP JUMPDEST PUSH1 0x40 MLOAD DUP1 SWAP2 SUB SWAP1 LOG3 JUMPDEST PUSH1 0x1 PUSH1 0x1 PUSH1 0xA0 SHL SUB DUP5 AND ISZERO PUSH2 0xB99 JUMPI PUSH2 0xB2B DUP2 DUP5 PUSH2 0xBFD JUMP JUMPDEST PUSH1 0x1 PUSH1 0x1 PUSH1 0xA0 SHL SUB DUP6 AND PUSH1 0x0 SWAP1 DUP2 MSTORE PUSH1 0x6 PUSH1 0x20 MSTORE PUSH1 0x40 SWAP1 KECCAK256 SLOAD SWAP1 SWAP2 POP PUSH2 0xB51 SWAP1 DUP5 PUSH2 0xBFD JUMP JUMPDEST PUSH1 0x1 PUSH1 0x1 PUSH1 0xA0 SHL SUB DUP6 AND PUSH1 0x0 DUP2 DUP2 MSTORE PUSH1 0x6 PUSH1 0x20 MSTORE PUSH1 0x40 SWAP1 DUP2 SWAP1 KECCAK256 SWAP3 SWAP1 SWAP3 SSTORE SWAP1 MLOAD CALLER SWAP1 PUSH1 0x0 DUP1 MLOAD PUSH1 0x20 PUSH2 0xEAE DUP4 CODECOPY DUP2 MLOAD SWAP2 MSTORE SWAP1 PUSH2 0xB90 SWAP1 DUP8 DUP2 MSTORE PUSH1 0x20 ADD SWAP1 JUMP JUMPDEST PUSH1 0x40 MLOAD DUP1 SWAP2 SUB SWAP1 LOG3 JUMPDEST DUP1 ISZERO PUSH2 0xBCA JUMPI CALLER PUSH1 0x0 SWAP1 DUP2 MSTORE PUSH1 0x6 PUSH1 0x20 MSTORE PUSH1 0x40 SWAP1 KECCAK256 SLOAD PUSH2 0xBB9 SWAP1 DUP3 PUSH2 0xBDD JUMP JUMPDEST CALLER PUSH1 0x0 SWAP1 DUP2 MSTORE PUSH1 0x6 PUSH1 0x20 MSTORE PUSH1 0x40 SWAP1 KECCAK256 SSTORE JUMPDEST POP PUSH1 0x1 SWAP13 SWAP12 POP POP POP POP POP POP POP POP POP POP POP POP JUMP JUMPDEST PUSH1 0x0 DUP3 DUP3 GT ISZERO PUSH2 0xBEC JUMPI PUSH1 0x0 DUP1 REVERT JUMPDEST PUSH2 0xBF6 DUP3 DUP5 PUSH2 0xE87 JUMP JUMPDEST SWAP4 SWAP3 POP POP POP JUMP JUMPDEST PUSH1 0x0 PUSH2 0xC09 DUP3 DUP5 PUSH2 0xE9A JUMP JUMPDEST SWAP1 POP DUP3 DUP2 LT ISZERO PUSH2 0x40B JUMPI PUSH1 0x0 DUP1 REVERT JUMPDEST PUSH1 0x0 PUSH1 0x20 DUP1 DUP4 MSTORE DUP4 MLOAD DUP1 DUP3 DUP6 ADD MSTORE PUSH1 0x0 JUMPDEST DUP2 DUP2 LT ISZERO PUSH2 0xC45 JUMPI DUP6 DUP2 ADD DUP4 ADD MLOAD DUP6 DUP3 ADD PUSH1 0x40 ADD MSTORE DUP3 ADD PUSH2 0xC29 JUMP JUMPDEST POP PUSH1 0x0 PUSH1 0x40 DUP3 DUP7 ADD ADD MSTORE PUSH1 0x40 PUSH1 0x1F NOT PUSH1 0x1F DUP4 ADD AND DUP6 ADD ADD SWAP3 POP POP POP SWAP3 SWAP2 POP POP JUMP JUMPDEST DUP1 CALLDATALOAD PUSH1 0x1 PUSH1 0x1 PUSH1 0xA0 SHL SUB DUP2 AND DUP2 EQ PUSH2 0xC7D JUMPI PUSH1 0x0 DUP1 REVERT JUMPDEST SWAP2 SWAP1 POP JUMP JUMPDEST PUSH1 0x0 DUP1 PUSH1 0x40 DUP4 DUP6 SUB SLT ISZERO PUSH2 0xC95 JUMPI PUSH1 0x0 DUP1 REVERT JUMPDEST PUSH2 0xC9E DUP4 PUSH2 0xC66 JUMP JUMPDEST SWAP5 PUSH1 0x20 SWAP4 SWAP1 SWAP4 ADD CALLDATALOAD SWAP4 POP POP POP JUMP JUMPDEST PUSH1 0x0 DUP1 PUSH1 0x0 PUSH1 0x60 DUP5 DUP7 SUB SLT ISZERO PUSH2 0xCC1 JUMPI PUSH1 0x0 DUP1 REVERT JUMPDEST PUSH2 0xCCA DUP5 PUSH2 0xC66 JUMP JUMPDEST SWAP3 POP PUSH2 0xCD8 PUSH1 0x20 DUP6 ADD PUSH2 0xC66 JUMP JUMPDEST SWAP2 POP PUSH1 0x40 DUP5 ADD CALLDATALOAD SWAP1 POP SWAP3 POP SWAP3 POP SWAP3 JUMP JUMPDEST PUSH1 0x0 PUSH1 0x20 DUP3 DUP5 SUB SLT ISZERO PUSH2 0xCFA JUMPI PUSH1 0x0 DUP1 REVERT JUMPDEST PUSH2 0xBF6 DUP3 PUSH2 0xC66 JUMP JUMPDEST PUSH1 0x0 DUP1 PUSH1 0x40 DUP4 DUP6 SUB SLT ISZERO PUSH2 0xD16 JUMPI PUSH1 0x0 DUP1 REVERT JUMPDEST PUSH2 0xD1F DUP4 PUSH2 0xC66 JUMP JUMPDEST SWAP2 POP PUSH1 0x20 DUP4 ADD CALLDATALOAD DUP1 ISZERO ISZERO DUP2 EQ PUSH2 0xD34 JUMPI PUSH1 0x0 DUP1 REVERT JUMPDEST DUP1 SWAP2 POP POP SWAP3 POP SWAP3 SWAP1 POP JUMP JUMPDEST PUSH1 0x0 DUP1 PUSH1 0x40 DUP4 DUP6 SUB SLT ISZERO PUSH2 0xD52 JUMPI PUSH1 0x0 DUP1 REVERT JUMPDEST PUSH2 0xD5B DUP4 PUSH2 0xC66 JUMP JUMPDEST SWAP2 POP PUSH2 0xD69 PUSH1 0x20 DUP5 ADD PUSH2 0xC66 JUMP JUMPDEST SWAP1 POP SWAP3 POP SWAP3 SWAP1 POP JUMP JUMPDEST PUSH1 0x0 DUP1 PUSH1 0x0 DUP1 PUSH1 0x0 DUP1 PUSH1 0x0 DUP1 PUSH1 0x0 DUP1 PUSH1 0x0 PUSH2 0x160 DUP13 DUP15 SUB SLT ISZERO PUSH2 0xD94 JUMPI PUSH1 0x0 DUP1 REVERT JUMPDEST PUSH2 0xD9D DUP13 PUSH2 0xC66 JUMP JUMPDEST SWAP11 POP PUSH2 0xDAB PUSH1 0x20 DUP14 ADD PUSH2 0xC66 JUMP JUMPDEST SWAP10 POP PUSH2 0xDB9 PUSH1 0x40 DUP14 ADD PUSH2 0xC66 JUMP JUMPDEST SWAP9 POP PUSH2 0xDC7 PUSH1 0x60 DUP14 ADD PUSH2 0xC66 JUMP JUMPDEST SWAP8 POP PUSH2 0xDD5 PUSH1 0x80 DUP14 ADD PUSH2 0xC66 JUMP JUMPDEST SWAP7 POP PUSH2 0xDE3 PUSH1 0xA0 DUP14 ADD PUSH2 0xC66 JUMP JUMPDEST SWAP6 POP PUSH2 0xDF1 PUSH1 0xC0 DUP14 ADD PUSH2 0xC66 JUMP JUMPDEST SWAP5 POP PUSH2 0xDFF PUSH1 0xE0 DUP14 ADD PUSH2 0xC66 JUMP JUMPDEST SWAP4 POP PUSH2 0xE0E PUSH2 0x100 DUP14 ADD PUSH2 0xC66 JUMP JUMPDEST SWAP3 POP PUSH2 0xE1D PUSH2 0x120 DUP14 ADD PUSH2 0xC66 JUMP JUMPDEST SWAP2 POP PUSH2 0x140 DUP13 ADD CALLDATALOAD SWAP1 POP SWAP3 SWAP6 SWAP9 SWAP12 POP SWAP3 SWAP6 SWAP9 SWAP12 SWAP1 SWAP4 SWAP7 SWAP10 POP JUMP JUMPDEST PUSH1 0x1 DUP2 DUP2 SHR SWAP1 DUP3 AND DUP1 PUSH2 0xE4B JUMPI PUSH1 0x7F DUP3 AND SWAP2 POP JUMPDEST PUSH1 0x20 DUP3 LT DUP2 SUB PUSH2 0xE6B JUMPI PUSH4 0x4E487B71 PUSH1 0xE0 SHL PUSH1 0x0 MSTORE PUSH1 0x22 PUSH1 0x4 MSTORE PUSH1 0x24 PUSH1 0x0 REVERT JUMPDEST POP SWAP2 SWAP1 POP JUMP JUMPDEST PUSH4 0x4E487B71 PUSH1 0xE0 SHL PUSH1 0x0 MSTORE PUSH1 0x11 PUSH1 0x4 MSTORE PUSH1 0x24 PUSH1 0x0 REVERT JUMPDEST DUP2 DUP2 SUB DUP2 DUP2 GT ISZERO PUSH2 0x40B JUMPI PUSH2 0x40B PUSH2 0xE71 JUMP JUMPDEST DUP1 DUP3 ADD DUP1 DUP3 GT ISZERO PUSH2 0x40B JUMPI PUSH2 0x40B PUSH2 0xE71 JUMP INVALID 0xDD CALLCODE MSTORE 0xAD SHL 0xE2 0xC8 SWAP12 PUSH10 0xC2B068FC378DAA952BA7 CALL PUSH4 0xC4A11628 CREATE2 GAS 0x4D CREATE2 0x23 0xB3 0xEF LOG2 PUSH5 0x6970667358 0x22 SLT KECCAK256 0xC7 GASPRICE POP CHAINID DUP6 MSIZE PUSH20 0x2F9040D45784CFEE771713F34CEFAE6350A51796 0xFC 0xE3 ISZERO 0x1E SGT PUSH5 0x736F6C6343 STOP ADDMOD SLT STOP CALLER "
				},
				"gasEstimates": {
					"creation": {
						"codeDepositCost": "768600",
						"executionCost": "infinite",
						"totalCost": "infinite"
					},
					"external": {
						"": "163",
						"abdicate()": "26581",
						"allowance(address,address)": "infinite",
						"approve(address,uint256)": "26723",
						"balanceOf(address)": "2542",
						"decimals()": "2358",
						"is_robot(address)": "2620",
						"kill_robot_owner()": "2381",
						"name()": "infinite",
						"setRobot(address,bool)": "26856",
						"symbol()": "infinite",
						"totalSupply()": "2363",
						"transfer(address,uint256)": "infinite",
						"transferBatch(address,address,address,address,address,address,address,address,address,address,uint256)": "infinite",
						"transferFrom(address,address,uint256)": "infinite"
					},
					"internal": {
						"safeAdd(uint256,uint256)": "infinite",
						"safeDiv(uint256,uint256)": "infinite",
						"safeMul(uint256,uint256)": "infinite",
						"safeSub(uint256,uint256)": "136"
					}
				},
				"methodIdentifiers": {
					"abdicate()": "314e99a2",
					"allowance(address,address)": "dd62ed3e",
					"approve(address,uint256)": "095ea7b3",
					"balanceOf(address)": "70a08231",
					"decimals()": "313ce567",
					"is_robot(address)": "4b58c2b7",
					"kill_robot_owner()": "bcd59d8e",
					"name()": "06fdde03",
					"setRobot(address,bool)": "ae86852f",
					"symbol()": "95d89b41",
					"totalSupply()": "18160ddd",
					"transfer(address,uint256)": "a9059cbb",
					"transferBatch(address,address,address,address,address,address,address,address,address,address,uint256)": "e8e11b2b",
					"transferFrom(address,address,uint256)": "23b872dd"
				}
			},
			"storageLayout": {
				"storage": [
					{
						"astId": 6,
						"contract": "contracts/Accessories/taikula.sol:Taikule",
						"label": "kill_robot_owner",
						"offset": 0,
						"slot": "0",
						"type": "t_address"
					},
					{
						"astId": 10,
						"contract": "contracts/Accessories/taikula.sol:Taikule",
						"label": "is_robot",
						"offset": 0,
						"slot": "1",
						"type": "t_mapping(t_address,t_bool)"
					},
					{
						"astId": 13,
						"contract": "contracts/Accessories/taikula.sol:Taikule",
						"label": "symbol",
						"offset": 0,
						"slot": "2",
						"type": "t_string_storage"
					},
					{
						"astId": 16,
						"contract": "contracts/Accessories/taikula.sol:Taikule",
						"label": "name",
						"offset": 0,
						"slot": "3",
						"type": "t_string_storage"
					},
					{
						"astId": 19,
						"contract": "contracts/Accessories/taikula.sol:Taikule",
						"label": "decimals",
						"offset": 0,
						"slot": "4",
						"type": "t_uint8"
					},
					{
						"astId": 24,
						"contract": "contracts/Accessories/taikula.sol:Taikule",
						"label": "totalSupply",
						"offset": 0,
						"slot": "5",
						"type": "t_uint256"
					},
					{
						"astId": 28,
						"contract": "contracts/Accessories/taikula.sol:Taikule",
						"label": "balanceOf",
						"offset": 0,
						"slot": "6",
						"type": "t_mapping(t_address,t_uint256)"
					},
					{
						"astId": 34,
						"contract": "contracts/Accessories/taikula.sol:Taikule",
						"label": "allowance",
						"offset": 0,
						"slot": "7",
						"type": "t_mapping(t_address,t_mapping(t_address,t_uint256))"
					}
				],
				"types": {
					"t_address": {
						"encoding": "inplace",
						"label": "address",
						"numberOfBytes": "20"
					},
					"t_bool": {
						"encoding": "inplace",
						"label": "bool",
						"numberOfBytes": "1"
					},
					"t_mapping(t_address,t_bool)": {
						"encoding": "mapping",
						"key": "t_address",
						"label": "mapping(address => bool)",
						"numberOfBytes": "32",
						"value": "t_bool"
					},
					"t_mapping(t_address,t_mapping(t_address,t_uint256))": {
						"encoding": "mapping",
						"key": "t_address",
						"label": "mapping(address => mapping(address => uint256))",
						"numberOfBytes": "32",
						"value": "t_mapping(t_address,t_uint256)"
					},
					"t_mapping(t_address,t_uint256)": {
						"encoding": "mapping",
						"key": "t_address",
						"label": "mapping(address => uint256)",
						"numberOfBytes": "32",
						"value": "t_uint256"
					},
					"t_string_storage": {
						"encoding": "bytes",
						"label": "string",
						"numberOfBytes": "32"
					},
					"t_uint256": {
						"encoding": "inplace",
						"label": "uint256",
						"numberOfBytes": "32"
					},
					"t_uint8": {
						"encoding": "inplace",
						"label": "uint8",
						"numberOfBytes": "1"
					}
				}
			},
			"userdoc": {
				"kind": "user",
				"methods": {},
				"version": 1
			}
		}
	}
}