{
	"contracts/Accessories/ERC20FACTORY.sol": {
		"ERC20Factory": {
			"abi": [
				{
					"inputs": [
						{
							"internalType": "address",
							"name": "owner_",
							"type": "address"
						}
					],
					"stateMutability": "nonpayable",
					"type": "constructor"
				},
				{
					"inputs": [
						{
							"internalType": "string",
							"name": "tokenName_",
							"type": "string"
						},
						{
							"internalType": "string",
							"name": "symbol_",
							"type": "string"
						},
						{
							"internalType": "uint8",
							"name": "decimals_",
							"type": "uint8"
						},
						{
							"internalType": "address",
							"name": "owner_",
							"type": "address"
						},
						{
							"internalType": "uint256",
							"name": "totalSupply_",
							"type": "uint256"
						}
					],
					"name": "creatToken",
					"outputs": [
						{
							"internalType": "address",
							"name": "",
							"type": "address"
						}
					],
					"stateMutability": "nonpayable",
					"type": "function"
				},
				{
					"inputs": [],
					"name": "newToken",
					"outputs": [
						{
							"internalType": "address",
							"name": "",
							"type": "address"
						}
					],
					"stateMutability": "view",
					"type": "function"
				},
				{
					"inputs": [],
					"name": "owner",
					"outputs": [
						{
							"internalType": "address",
							"name": "",
							"type": "address"
						}
					],
					"stateMutability": "view",
					"type": "function"
				},
				{
					"inputs": [
						{
							"internalType": "string",
							"name": "",
							"type": "string"
						}
					],
					"name": "tokenAddress",
					"outputs": [
						{
							"internalType": "address",
							"name": "",
							"type": "address"
						}
					],
					"stateMutability": "view",
					"type": "function"
				}
			],
			"devdoc": {
				"kind": "dev",
				"methods": {},
				"version": 1
			},
			"evm": {
				"assembly": "    /* \"contracts/Accessories/ERC20FACTORY.sol\":14900:15630  contract ERC20Factory{... */\n  mstore(0x40, 0x80)\n    /* \"contracts/Accessories/ERC20FACTORY.sol\":15197:15257  constructor(address owner_)  {... */\n  callvalue\n  dup1\n  iszero\n  tag_1\n  jumpi\n  0x00\n  dup1\n  revert\ntag_1:\n  pop\n  mload(0x40)\n  sub(codesize, bytecodeSize)\n  dup1\n  bytecodeSize\n  dup4\n  codecopy\n  dup2\n  add\n  0x40\n  dup2\n  swap1\n  mstore\n  tag_2\n  swap2\n  tag_3\n  jump\t// in\ntag_2:\n    /* \"contracts/Accessories/ERC20FACTORY.sol\":15236:15241  owner */\n  0x00\n    /* \"contracts/Accessories/ERC20FACTORY.sol\":15236:15250  owner = owner_ */\n  dup1\n  sload\n  not(sub(shl(0xa0, 0x01), 0x01))\n  and\n  sub(shl(0xa0, 0x01), 0x01)\n  swap3\n  swap1\n  swap3\n  and\n  swap2\n  swap1\n  swap2\n  or\n  swap1\n  sstore\n    /* \"contracts/Accessories/ERC20FACTORY.sol\":14900:15630  contract ERC20Factory{... */\n  jump(tag_7)\n    /* \"#utility.yul\":14:304   */\ntag_3:\n    /* \"#utility.yul\":84:90   */\n  0x00\n    /* \"#utility.yul\":137:139   */\n  0x20\n    /* \"#utility.yul\":125:134   */\n  dup3\n    /* \"#utility.yul\":116:123   */\n  dup5\n    /* \"#utility.yul\":112:135   */\n  sub\n    /* \"#utility.yul\":108:140   */\n  slt\n    /* \"#utility.yul\":105:157   */\n  iszero\n  tag_9\n  jumpi\n    /* \"#utility.yul\":153:154   */\n  0x00\n    /* \"#utility.yul\":150:151   */\n  dup1\n    /* \"#utility.yul\":143:155   */\n  revert\n    /* \"#utility.yul\":105:157   */\ntag_9:\n    /* \"#utility.yul\":179:195   */\n  dup2\n  mload\n  sub(shl(0xa0, 0x01), 0x01)\n    /* \"#utility.yul\":224:255   */\n  dup2\n  and\n    /* \"#utility.yul\":214:256   */\n  dup2\n  eq\n    /* \"#utility.yul\":204:274   */\n  tag_10\n  jumpi\n    /* \"#utility.yul\":270:271   */\n  0x00\n    /* \"#utility.yul\":267:268   */\n  dup1\n    /* \"#utility.yul\":260:272   */\n  revert\n    /* \"#utility.yul\":204:274   */\ntag_10:\n    /* \"#utility.yul\":293:298   */\n  swap4\n    /* \"#utility.yul\":14:304   */\n  swap3\n  pop\n  pop\n  pop\n  jump\t// out\ntag_7:\n    /* \"contracts/Accessories/ERC20FACTORY.sol\":14900:15630  contract ERC20Factory{... */\n  dataSize(sub_0)\n  dup1\n  dataOffset(sub_0)\n  0x00\n  codecopy\n  0x00\n  return\nstop\n\nsub_0: assembly {\n        /* \"contracts/Accessories/ERC20FACTORY.sol\":14900:15630  contract ERC20Factory{... */\n      mstore(0x40, 0x80)\n      callvalue\n      dup1\n      iszero\n      tag_1\n      jumpi\n      0x00\n      dup1\n      revert\n    tag_1:\n      pop\n      jumpi(tag_2, lt(calldatasize, 0x04))\n      shr(0xe0, calldataload(0x00))\n      dup1\n      0x6e30199f\n      eq\n      tag_3\n      jumpi\n      dup1\n      0x865e6153\n      eq\n      tag_4\n      jumpi\n      dup1\n      0x8da5cb5b\n      eq\n      tag_5\n      jumpi\n      dup1\n      0xc42bd05a\n      eq\n      tag_6\n      jumpi\n    tag_2:\n      0x00\n      dup1\n      revert\n        /* \"contracts/Accessories/ERC20FACTORY.sol\":15145:15191  mapping(string => address) public tokenAddress */\n    tag_3:\n      tag_7\n      tag_8\n      calldatasize\n      0x04\n      tag_9\n      jump\t// in\n    tag_8:\n      dup1\n      mload\n      0x20\n      dup2\n      dup4\n      add\n      dup2\n      add\n      dup1\n      mload\n      0x01\n      dup3\n      mstore\n      swap3\n      dup3\n      add\n      swap2\n      swap1\n      swap4\n      add\n      keccak256\n      swap2\n      mstore\n      sload\n      sub(shl(0xa0, 0x01), 0x01)\n      and\n      dup2\n      jump\n    tag_7:\n      mload(0x40)\n      sub(shl(0xa0, 0x01), 0x01)\n        /* \"#utility.yul\":1361:1393   */\n      swap1\n      swap2\n      and\n        /* \"#utility.yul\":1343:1394   */\n      dup2\n      mstore\n        /* \"#utility.yul\":1331:1333   */\n      0x20\n        /* \"#utility.yul\":1316:1334   */\n      add\n        /* \"contracts/Accessories/ERC20FACTORY.sol\":15145:15191  mapping(string => address) public tokenAddress */\n      mload(0x40)\n      dup1\n      swap2\n      sub\n      swap1\n      return\n        /* \"contracts/Accessories/ERC20FACTORY.sol\":15291:15623  function creatToken(string memory tokenName_,string memory symbol_,uint8 decimals_, address owner_,uint totalSupply_) public returns(address){... */\n    tag_4:\n      tag_7\n      tag_14\n      calldatasize\n      0x04\n      tag_15\n      jump\t// in\n    tag_14:\n      tag_16\n      jump\t// in\n        /* \"contracts/Accessories/ERC20FACTORY.sol\":15119:15139  address public owner */\n    tag_5:\n      sload(0x00)\n      tag_7\n      swap1\n      sub(shl(0xa0, 0x01), 0x01)\n      and\n      dup2\n      jump\n        /* \"contracts/Accessories/ERC20FACTORY.sol\":15262:15285  address public newToken */\n    tag_6:\n      sload(0x02)\n      tag_7\n      swap1\n      sub(shl(0xa0, 0x01), 0x01)\n      and\n      dup2\n      jump\n        /* \"contracts/Accessories/ERC20FACTORY.sol\":15291:15623  function creatToken(string memory tokenName_,string memory symbol_,uint8 decimals_, address owner_,uint totalSupply_) public returns(address){... */\n    tag_16:\n        /* \"contracts/Accessories/ERC20FACTORY.sol\":15424:15431  address */\n      0x00\n        /* \"contracts/Accessories/ERC20FACTORY.sol\":15442:15455  address token */\n      dup1\n        /* \"contracts/Accessories/ERC20FACTORY.sol\":15476:15486  tokenName_ */\n      dup7\n        /* \"contracts/Accessories/ERC20FACTORY.sol\":15487:15494  symbol_ */\n      dup7\n        /* \"contracts/Accessories/ERC20FACTORY.sol\":15495:15504  decimals_ */\n      dup7\n        /* \"contracts/Accessories/ERC20FACTORY.sol\":15505:15511  owner_ */\n      dup7\n        /* \"contracts/Accessories/ERC20FACTORY.sol\":15512:15524  totalSupply_ */\n      dup7\n        /* \"contracts/Accessories/ERC20FACTORY.sol\":15466:15525  new ERC20(tokenName_,symbol_,decimals_,owner_,totalSupply_) */\n      mload(0x40)\n      tag_25\n      swap1\n      tag_26\n      jump\t// in\n    tag_25:\n      tag_27\n      swap6\n      swap5\n      swap4\n      swap3\n      swap2\n      swap1\n      tag_28\n      jump\t// in\n    tag_27:\n      mload(0x40)\n      dup1\n      swap2\n      sub\n      swap1\n      0x00\n      create\n      dup1\n      iszero\n      dup1\n      iszero\n      tag_29\n      jumpi\n      returndatasize\n      0x00\n      dup1\n      returndatacopy\n      revert(0x00, returndatasize)\n    tag_29:\n      pop\n        /* \"contracts/Accessories/ERC20FACTORY.sol\":15536:15544  newToken */\n      0x02\n        /* \"contracts/Accessories/ERC20FACTORY.sol\":15536:15552  newToken = token */\n      dup1\n      sload\n      not(sub(shl(0xa0, 0x01), 0x01))\n      and\n      sub(shl(0xa0, 0x01), 0x01)\n      dup4\n      and\n      or\n      swap1\n      sstore\n        /* \"contracts/Accessories/ERC20FACTORY.sol\":15562:15586  tokenAddress[tokenName_] */\n      mload(0x40)\n        /* \"contracts/Accessories/ERC20FACTORY.sol\":15536:15552  newToken = token */\n      swap1\n      swap2\n      pop\n      dup2\n      swap1\n      0x01\n      swap1\n        /* \"contracts/Accessories/ERC20FACTORY.sol\":15562:15586  tokenAddress[tokenName_] */\n      tag_30\n      swap1\n        /* \"contracts/Accessories/ERC20FACTORY.sol\":15575:15585  tokenName_ */\n      dup11\n      swap1\n        /* \"contracts/Accessories/ERC20FACTORY.sol\":15562:15586  tokenAddress[tokenName_] */\n      tag_31\n      jump\t// in\n    tag_30:\n      swap1\n      dup2\n      mstore\n      mload(0x40)\n      swap1\n      dup2\n      swap1\n      sub\n      0x20\n      add\n      swap1\n      keccak256\n        /* \"contracts/Accessories/ERC20FACTORY.sol\":15562:15594  tokenAddress[tokenName_] = token */\n      dup1\n      sload\n      sub(shl(0xa0, 0x01), 0x01)\n      swap3\n      swap1\n      swap3\n      and\n      not(sub(shl(0xa0, 0x01), 0x01))\n      swap1\n      swap3\n      and\n      swap2\n      swap1\n      swap2\n      or\n      swap1\n      sstore\n        /* \"contracts/Accessories/ERC20FACTORY.sol\":15611:15616  token */\n      swap1\n      pop\n        /* \"contracts/Accessories/ERC20FACTORY.sol\":15291:15623  function creatToken(string memory tokenName_,string memory symbol_,uint8 decimals_, address owner_,uint totalSupply_) public returns(address){... */\n      swap6\n      swap5\n      pop\n      pop\n      pop\n      pop\n      pop\n      jump\t// out\n    tag_26:\n      dataSize(sub_0)\n      dup1\n      dataOffset(sub_0)\n      dup4\n      codecopy\n      add\n      swap1\n      jump\t// out\n        /* \"#utility.yul\":14:141   */\n    tag_32:\n        /* \"#utility.yul\":75:85   */\n      0x4e487b71\n        /* \"#utility.yul\":70:73   */\n      0xe0\n        /* \"#utility.yul\":66:86   */\n      shl\n        /* \"#utility.yul\":63:64   */\n      0x00\n        /* \"#utility.yul\":56:87   */\n      mstore\n        /* \"#utility.yul\":106:110   */\n      0x41\n        /* \"#utility.yul\":103:104   */\n      0x04\n        /* \"#utility.yul\":96:111   */\n      mstore\n        /* \"#utility.yul\":130:134   */\n      0x24\n        /* \"#utility.yul\":127:128   */\n      0x00\n        /* \"#utility.yul\":120:135   */\n      revert\n        /* \"#utility.yul\":146:865   */\n    tag_33:\n        /* \"#utility.yul\":189:194   */\n      0x00\n        /* \"#utility.yul\":242:245   */\n      dup3\n        /* \"#utility.yul\":235:239   */\n      0x1f\n        /* \"#utility.yul\":227:233   */\n      dup4\n        /* \"#utility.yul\":223:240   */\n      add\n        /* \"#utility.yul\":219:246   */\n      slt\n        /* \"#utility.yul\":209:264   */\n      tag_39\n      jumpi\n        /* \"#utility.yul\":260:261   */\n      0x00\n        /* \"#utility.yul\":257:258   */\n      dup1\n        /* \"#utility.yul\":250:262   */\n      revert\n        /* \"#utility.yul\":209:264   */\n    tag_39:\n        /* \"#utility.yul\":296:302   */\n      dup2\n        /* \"#utility.yul\":283:303   */\n      calldataload\n        /* \"#utility.yul\":322:340   */\n      0xffffffffffffffff\n        /* \"#utility.yul\":359:361   */\n      dup1\n        /* \"#utility.yul\":355:357   */\n      dup3\n        /* \"#utility.yul\":352:362   */\n      gt\n        /* \"#utility.yul\":349:385   */\n      iszero\n      tag_41\n      jumpi\n        /* \"#utility.yul\":365:383   */\n      tag_41\n      tag_32\n      jump\t// in\n    tag_41:\n        /* \"#utility.yul\":440:442   */\n      0x40\n        /* \"#utility.yul\":434:443   */\n      mload\n        /* \"#utility.yul\":408:410   */\n      0x1f\n        /* \"#utility.yul\":494:507   */\n      dup4\n      add\n      not(0x1f)\n        /* \"#utility.yul\":490:512   */\n      swap1\n      dup2\n      and\n        /* \"#utility.yul\":514:516   */\n      0x3f\n        /* \"#utility.yul\":486:517   */\n      add\n        /* \"#utility.yul\":482:522   */\n      and\n        /* \"#utility.yul\":470:523   */\n      dup2\n      add\n      swap1\n        /* \"#utility.yul\":538:556   */\n      dup3\n      dup3\n      gt\n        /* \"#utility.yul\":558:580   */\n      dup2\n      dup4\n      lt\n        /* \"#utility.yul\":535:581   */\n      or\n        /* \"#utility.yul\":532:604   */\n      iszero\n      tag_43\n      jumpi\n        /* \"#utility.yul\":584:602   */\n      tag_43\n      tag_32\n      jump\t// in\n    tag_43:\n        /* \"#utility.yul\":624:634   */\n      dup2\n        /* \"#utility.yul\":620:622   */\n      0x40\n        /* \"#utility.yul\":613:635   */\n      mstore\n        /* \"#utility.yul\":659:661   */\n      dup4\n        /* \"#utility.yul\":651:657   */\n      dup2\n        /* \"#utility.yul\":644:662   */\n      mstore\n        /* \"#utility.yul\":705:708   */\n      dup7\n        /* \"#utility.yul\":698:702   */\n      0x20\n        /* \"#utility.yul\":693:695   */\n      dup6\n        /* \"#utility.yul\":685:691   */\n      dup9\n        /* \"#utility.yul\":681:696   */\n      add\n        /* \"#utility.yul\":677:703   */\n      add\n        /* \"#utility.yul\":674:709   */\n      gt\n        /* \"#utility.yul\":671:726   */\n      iszero\n      tag_44\n      jumpi\n        /* \"#utility.yul\":722:723   */\n      0x00\n        /* \"#utility.yul\":719:720   */\n      dup1\n        /* \"#utility.yul\":712:724   */\n      revert\n        /* \"#utility.yul\":671:726   */\n    tag_44:\n        /* \"#utility.yul\":786:788   */\n      dup4\n        /* \"#utility.yul\":779:783   */\n      0x20\n        /* \"#utility.yul\":771:777   */\n      dup8\n        /* \"#utility.yul\":767:784   */\n      add\n        /* \"#utility.yul\":760:764   */\n      0x20\n        /* \"#utility.yul\":752:758   */\n      dup4\n        /* \"#utility.yul\":748:765   */\n      add\n        /* \"#utility.yul\":735:789   */\n      calldatacopy\n        /* \"#utility.yul\":833:834   */\n      0x00\n        /* \"#utility.yul\":826:830   */\n      0x20\n        /* \"#utility.yul\":821:823   */\n      dup6\n        /* \"#utility.yul\":813:819   */\n      dup4\n        /* \"#utility.yul\":809:824   */\n      add\n        /* \"#utility.yul\":805:831   */\n      add\n        /* \"#utility.yul\":798:835   */\n      mstore\n        /* \"#utility.yul\":853:859   */\n      dup1\n        /* \"#utility.yul\":844:859   */\n      swap5\n      pop\n      pop\n      pop\n      pop\n      pop\n        /* \"#utility.yul\":146:865   */\n      swap3\n      swap2\n      pop\n      pop\n      jump\t// out\n        /* \"#utility.yul\":870:1192   */\n    tag_9:\n        /* \"#utility.yul\":939:945   */\n      0x00\n        /* \"#utility.yul\":992:994   */\n      0x20\n        /* \"#utility.yul\":980:989   */\n      dup3\n        /* \"#utility.yul\":971:978   */\n      dup5\n        /* \"#utility.yul\":967:990   */\n      sub\n        /* \"#utility.yul\":963:995   */\n      slt\n        /* \"#utility.yul\":960:1012   */\n      iszero\n      tag_46\n      jumpi\n        /* \"#utility.yul\":1008:1009   */\n      0x00\n        /* \"#utility.yul\":1005:1006   */\n      dup1\n        /* \"#utility.yul\":998:1010   */\n      revert\n        /* \"#utility.yul\":960:1012   */\n    tag_46:\n        /* \"#utility.yul\":1048:1057   */\n      dup2\n        /* \"#utility.yul\":1035:1058   */\n      calldataload\n        /* \"#utility.yul\":1081:1099   */\n      0xffffffffffffffff\n        /* \"#utility.yul\":1073:1079   */\n      dup2\n        /* \"#utility.yul\":1070:1100   */\n      gt\n        /* \"#utility.yul\":1067:1117   */\n      iszero\n      tag_47\n      jumpi\n        /* \"#utility.yul\":1113:1114   */\n      0x00\n        /* \"#utility.yul\":1110:1111   */\n      dup1\n        /* \"#utility.yul\":1103:1115   */\n      revert\n        /* \"#utility.yul\":1067:1117   */\n    tag_47:\n        /* \"#utility.yul\":1136:1186   */\n      tag_48\n        /* \"#utility.yul\":1178:1185   */\n      dup5\n        /* \"#utility.yul\":1169:1175   */\n      dup3\n        /* \"#utility.yul\":1158:1167   */\n      dup6\n        /* \"#utility.yul\":1154:1176   */\n      add\n        /* \"#utility.yul\":1136:1186   */\n      tag_33\n      jump\t// in\n    tag_48:\n        /* \"#utility.yul\":1126:1186   */\n      swap5\n        /* \"#utility.yul\":870:1192   */\n      swap4\n      pop\n      pop\n      pop\n      pop\n      jump\t// out\n        /* \"#utility.yul\":1405:2357   */\n    tag_15:\n        /* \"#utility.yul\":1518:1524   */\n      0x00\n        /* \"#utility.yul\":1526:1532   */\n      dup1\n        /* \"#utility.yul\":1534:1540   */\n      0x00\n        /* \"#utility.yul\":1542:1548   */\n      dup1\n        /* \"#utility.yul\":1550:1556   */\n      0x00\n        /* \"#utility.yul\":1603:1606   */\n      0xa0\n        /* \"#utility.yul\":1591:1600   */\n      dup7\n        /* \"#utility.yul\":1582:1589   */\n      dup9\n        /* \"#utility.yul\":1578:1601   */\n      sub\n        /* \"#utility.yul\":1574:1607   */\n      slt\n        /* \"#utility.yul\":1571:1624   */\n      iszero\n      tag_51\n      jumpi\n        /* \"#utility.yul\":1620:1621   */\n      0x00\n        /* \"#utility.yul\":1617:1618   */\n      dup1\n        /* \"#utility.yul\":1610:1622   */\n      revert\n        /* \"#utility.yul\":1571:1624   */\n    tag_51:\n        /* \"#utility.yul\":1660:1669   */\n      dup6\n        /* \"#utility.yul\":1647:1670   */\n      calldataload\n        /* \"#utility.yul\":1689:1707   */\n      0xffffffffffffffff\n        /* \"#utility.yul\":1730:1732   */\n      dup1\n        /* \"#utility.yul\":1722:1728   */\n      dup3\n        /* \"#utility.yul\":1719:1733   */\n      gt\n        /* \"#utility.yul\":1716:1750   */\n      iszero\n      tag_52\n      jumpi\n        /* \"#utility.yul\":1746:1747   */\n      0x00\n        /* \"#utility.yul\":1743:1744   */\n      dup1\n        /* \"#utility.yul\":1736:1748   */\n      revert\n        /* \"#utility.yul\":1716:1750   */\n    tag_52:\n        /* \"#utility.yul\":1769:1819   */\n      tag_53\n        /* \"#utility.yul\":1811:1818   */\n      dup10\n        /* \"#utility.yul\":1802:1808   */\n      dup4\n        /* \"#utility.yul\":1791:1800   */\n      dup11\n        /* \"#utility.yul\":1787:1809   */\n      add\n        /* \"#utility.yul\":1769:1819   */\n      tag_33\n      jump\t// in\n    tag_53:\n        /* \"#utility.yul\":1759:1819   */\n      swap7\n      pop\n        /* \"#utility.yul\":1872:1874   */\n      0x20\n        /* \"#utility.yul\":1861:1870   */\n      dup9\n        /* \"#utility.yul\":1857:1875   */\n      add\n        /* \"#utility.yul\":1844:1876   */\n      calldataload\n        /* \"#utility.yul\":1828:1876   */\n      swap2\n      pop\n        /* \"#utility.yul\":1901:1903   */\n      dup1\n        /* \"#utility.yul\":1891:1899   */\n      dup3\n        /* \"#utility.yul\":1888:1904   */\n      gt\n        /* \"#utility.yul\":1885:1921   */\n      iszero\n      tag_54\n      jumpi\n        /* \"#utility.yul\":1917:1918   */\n      0x00\n        /* \"#utility.yul\":1914:1915   */\n      dup1\n        /* \"#utility.yul\":1907:1919   */\n      revert\n        /* \"#utility.yul\":1885:1921   */\n    tag_54:\n      pop\n        /* \"#utility.yul\":1940:1992   */\n      tag_55\n        /* \"#utility.yul\":1984:1991   */\n      dup9\n        /* \"#utility.yul\":1973:1981   */\n      dup3\n        /* \"#utility.yul\":1962:1971   */\n      dup10\n        /* \"#utility.yul\":1958:1982   */\n      add\n        /* \"#utility.yul\":1940:1992   */\n      tag_33\n      jump\t// in\n    tag_55:\n        /* \"#utility.yul\":1930:1992   */\n      swap5\n      pop\n      pop\n        /* \"#utility.yul\":2042:2044   */\n      0x40\n        /* \"#utility.yul\":2031:2040   */\n      dup7\n        /* \"#utility.yul\":2027:2045   */\n      add\n        /* \"#utility.yul\":2014:2046   */\n      calldataload\n        /* \"#utility.yul\":2086:2090   */\n      0xff\n        /* \"#utility.yul\":2079:2084   */\n      dup2\n        /* \"#utility.yul\":2075:2091   */\n      and\n        /* \"#utility.yul\":2068:2073   */\n      dup2\n        /* \"#utility.yul\":2065:2092   */\n      eq\n        /* \"#utility.yul\":2055:2110   */\n      tag_56\n      jumpi\n        /* \"#utility.yul\":2106:2107   */\n      0x00\n        /* \"#utility.yul\":2103:2104   */\n      dup1\n        /* \"#utility.yul\":2096:2108   */\n      revert\n        /* \"#utility.yul\":2055:2110   */\n    tag_56:\n        /* \"#utility.yul\":2129:2134   */\n      swap3\n      pop\n        /* \"#utility.yul\":2186:2188   */\n      0x60\n        /* \"#utility.yul\":2171:2189   */\n      dup7\n      add\n        /* \"#utility.yul\":2158:2190   */\n      calldataload\n      sub(shl(0xa0, 0x01), 0x01)\n        /* \"#utility.yul\":2221:2254   */\n      dup2\n      and\n        /* \"#utility.yul\":2209:2255   */\n      dup2\n      eq\n        /* \"#utility.yul\":2199:2273   */\n      tag_57\n      jumpi\n        /* \"#utility.yul\":2269:2270   */\n      0x00\n        /* \"#utility.yul\":2266:2267   */\n      dup1\n        /* \"#utility.yul\":2259:2271   */\n      revert\n        /* \"#utility.yul\":2199:2273   */\n    tag_57:\n        /* \"#utility.yul\":1405:2357   */\n      swap5\n      swap8\n      swap4\n      swap7\n      pop\n      swap2\n      swap5\n        /* \"#utility.yul\":2346:2349   */\n      0x80\n        /* \"#utility.yul\":2331:2350   */\n      add\n        /* \"#utility.yul\":2318:2351   */\n      calldataload\n      swap3\n        /* \"#utility.yul\":1405:2357   */\n      swap2\n      pop\n      pop\n      jump\t// out\n        /* \"#utility.yul\":2362:2612   */\n    tag_34:\n        /* \"#utility.yul\":2447:2448   */\n      0x00\n        /* \"#utility.yul\":2457:2570   */\n    tag_59:\n        /* \"#utility.yul\":2471:2477   */\n      dup4\n        /* \"#utility.yul\":2468:2469   */\n      dup2\n        /* \"#utility.yul\":2465:2478   */\n      lt\n        /* \"#utility.yul\":2457:2570   */\n      iszero\n      tag_61\n      jumpi\n        /* \"#utility.yul\":2547:2558   */\n      dup2\n      dup2\n      add\n        /* \"#utility.yul\":2541:2559   */\n      mload\n        /* \"#utility.yul\":2528:2539   */\n      dup4\n      dup3\n      add\n        /* \"#utility.yul\":2521:2560   */\n      mstore\n        /* \"#utility.yul\":2493:2495   */\n      0x20\n        /* \"#utility.yul\":2486:2496   */\n      add\n        /* \"#utility.yul\":2457:2570   */\n      jump(tag_59)\n    tag_61:\n      pop\n      pop\n        /* \"#utility.yul\":2604:2605   */\n      0x00\n        /* \"#utility.yul\":2586:2602   */\n      swap2\n      add\n        /* \"#utility.yul\":2579:2606   */\n      mstore\n        /* \"#utility.yul\":2362:2612   */\n      jump\t// out\n        /* \"#utility.yul\":2617:2888   */\n    tag_35:\n        /* \"#utility.yul\":2659:2662   */\n      0x00\n        /* \"#utility.yul\":2697:2702   */\n      dup2\n        /* \"#utility.yul\":2691:2703   */\n      mload\n        /* \"#utility.yul\":2724:2730   */\n      dup1\n        /* \"#utility.yul\":2719:2722   */\n      dup5\n        /* \"#utility.yul\":2712:2731   */\n      mstore\n        /* \"#utility.yul\":2740:2816   */\n      tag_63\n        /* \"#utility.yul\":2809:2815   */\n      dup2\n        /* \"#utility.yul\":2802:2806   */\n      0x20\n        /* \"#utility.yul\":2797:2800   */\n      dup7\n        /* \"#utility.yul\":2793:2807   */\n      add\n        /* \"#utility.yul\":2786:2790   */\n      0x20\n        /* \"#utility.yul\":2779:2784   */\n      dup7\n        /* \"#utility.yul\":2775:2791   */\n      add\n        /* \"#utility.yul\":2740:2816   */\n      tag_34\n      jump\t// in\n    tag_63:\n        /* \"#utility.yul\":2870:2872   */\n      0x1f\n        /* \"#utility.yul\":2849:2864   */\n      add\n      not(0x1f)\n        /* \"#utility.yul\":2845:2874   */\n      and\n        /* \"#utility.yul\":2836:2875   */\n      swap3\n      swap1\n      swap3\n      add\n        /* \"#utility.yul\":2877:2881   */\n      0x20\n        /* \"#utility.yul\":2832:2882   */\n      add\n      swap3\n        /* \"#utility.yul\":2617:2888   */\n      swap2\n      pop\n      pop\n      jump\t// out\n        /* \"#utility.yul\":2893:3525   */\n    tag_28:\n        /* \"#utility.yul\":3170:3173   */\n      0xa0\n        /* \"#utility.yul\":3159:3168   */\n      dup2\n        /* \"#utility.yul\":3152:3174   */\n      mstore\n        /* \"#utility.yul\":3133:3137   */\n      0x00\n        /* \"#utility.yul\":3197:3243   */\n      tag_65\n        /* \"#utility.yul\":3238:3241   */\n      0xa0\n        /* \"#utility.yul\":3227:3236   */\n      dup4\n        /* \"#utility.yul\":3223:3242   */\n      add\n        /* \"#utility.yul\":3215:3221   */\n      dup9\n        /* \"#utility.yul\":3197:3243   */\n      tag_35\n      jump\t// in\n    tag_65:\n        /* \"#utility.yul\":3291:3300   */\n      dup3\n        /* \"#utility.yul\":3283:3289   */\n      dup2\n        /* \"#utility.yul\":3279:3301   */\n      sub\n        /* \"#utility.yul\":3274:3276   */\n      0x20\n        /* \"#utility.yul\":3263:3272   */\n      dup5\n        /* \"#utility.yul\":3259:3277   */\n      add\n        /* \"#utility.yul\":3252:3302   */\n      mstore\n        /* \"#utility.yul\":3319:3352   */\n      tag_66\n        /* \"#utility.yul\":3345:3351   */\n      dup2\n        /* \"#utility.yul\":3337:3343   */\n      dup9\n        /* \"#utility.yul\":3319:3352   */\n      tag_35\n      jump\t// in\n    tag_66:\n        /* \"#utility.yul\":3400:3404   */\n      0xff\n        /* \"#utility.yul\":3388:3405   */\n      swap7\n      swap1\n      swap7\n      and\n        /* \"#utility.yul\":3383:3385   */\n      0x40\n        /* \"#utility.yul\":3368:3386   */\n      dup5\n      add\n        /* \"#utility.yul\":3361:3406   */\n      mstore\n      pop\n      pop\n      sub(shl(0xa0, 0x01), 0x01)\n        /* \"#utility.yul\":3442:3474   */\n      swap3\n      swap1\n      swap3\n      and\n        /* \"#utility.yul\":3437:3439   */\n      0x60\n        /* \"#utility.yul\":3422:3440   */\n      dup4\n      add\n        /* \"#utility.yul\":3415:3475   */\n      mstore\n        /* \"#utility.yul\":3506:3509   */\n      0x80\n        /* \"#utility.yul\":3491:3510   */\n      swap1\n      swap2\n      add\n        /* \"#utility.yul\":3484:3519   */\n      mstore\n        /* \"#utility.yul\":3311:3352   */\n      swap3\n        /* \"#utility.yul\":2893:3525   */\n      swap2\n      pop\n      pop\n      jump\t// out\n        /* \"#utility.yul\":3530:3819   */\n    tag_31:\n        /* \"#utility.yul\":3661:3664   */\n      0x00\n        /* \"#utility.yul\":3699:3705   */\n      dup3\n        /* \"#utility.yul\":3693:3706   */\n      mload\n        /* \"#utility.yul\":3715:3781   */\n      tag_68\n        /* \"#utility.yul\":3774:3780   */\n      dup2\n        /* \"#utility.yul\":3769:3772   */\n      dup5\n        /* \"#utility.yul\":3762:3766   */\n      0x20\n        /* \"#utility.yul\":3754:3760   */\n      dup8\n        /* \"#utility.yul\":3750:3767   */\n      add\n        /* \"#utility.yul\":3715:3781   */\n      tag_34\n      jump\t// in\n    tag_68:\n        /* \"#utility.yul\":3797:3813   */\n      swap2\n      swap1\n      swap2\n      add\n      swap3\n        /* \"#utility.yul\":3530:3819   */\n      swap2\n      pop\n      pop\n      jump\t// out\n    stop\n\n    sub_0: assembly {\n            /* \"contracts/Accessories/ERC20FACTORY.sol\":5028:14898  contract ERC20 is Contexts {... */\n          mstore(0x40, 0x80)\n            /* \"contracts/Accessories/ERC20FACTORY.sol\":5967:6357  constructor (string memory name_, string memory symbol_,uint8 decimals_,address owner_, uint totalSupply_)  {... */\n          callvalue\n          dup1\n          iszero\n          tag_1\n          jumpi\n          0x00\n          dup1\n          revert\n        tag_1:\n          pop\n          mload(0x40)\n          sub(codesize, bytecodeSize)\n          dup1\n          bytecodeSize\n          dup4\n          codecopy\n          dup2\n          add\n          0x40\n          dup2\n          swap1\n          mstore\n          tag_2\n          swap2\n          tag_3\n          jump\t// in\n        tag_2:\n            /* \"contracts/Accessories/ERC20FACTORY.sol\":6085:6090  _name */\n          0x03\n            /* \"contracts/Accessories/ERC20FACTORY.sol\":6085:6098  _name = name_ */\n          tag_6\n            /* \"contracts/Accessories/ERC20FACTORY.sol\":6093:6098  name_ */\n          dup7\n            /* \"contracts/Accessories/ERC20FACTORY.sol\":6085:6090  _name */\n          dup3\n            /* \"contracts/Accessories/ERC20FACTORY.sol\":6085:6098  _name = name_ */\n          tag_7\n          jump\t// in\n        tag_6:\n          pop\n            /* \"contracts/Accessories/ERC20FACTORY.sol\":6108:6115  _symbol */\n          0x04\n            /* \"contracts/Accessories/ERC20FACTORY.sol\":6108:6125  _symbol = symbol_ */\n          tag_8\n            /* \"contracts/Accessories/ERC20FACTORY.sol\":6118:6125  symbol_ */\n          dup6\n            /* \"contracts/Accessories/ERC20FACTORY.sol\":6108:6115  _symbol */\n          dup3\n            /* \"contracts/Accessories/ERC20FACTORY.sol\":6108:6125  _symbol = symbol_ */\n          tag_7\n          jump\t// in\n        tag_8:\n          pop\n            /* \"contracts/Accessories/ERC20FACTORY.sol\":6135:6144  _decimals */\n          0x05\n            /* \"contracts/Accessories/ERC20FACTORY.sol\":6135:6156  _decimals = decimals_ */\n          dup1\n          sload\n          not(0xff)\n          and\n          0xff\n          dup6\n          and\n          or\n          swap1\n          sstore\n            /* \"contracts/Accessories/ERC20FACTORY.sol\":6255:6285  _totalSupply.add(totalSupply_) */\n          tag_11\n            /* \"contracts/Accessories/ERC20FACTORY.sol\":6272:6284  totalSupply_ */\n          dup2\n            /* \"contracts/Accessories/ERC20FACTORY.sol\":6255:6267  _totalSupply */\n          sload(0x02)\n            /* \"contracts/Accessories/ERC20FACTORY.sol\":6255:6271  _totalSupply.add */\n          or(tag_0_63, shl(0x20, tag_12))\n          swap1\n            /* \"contracts/Accessories/ERC20FACTORY.sol\":6255:6285  _totalSupply.add(totalSupply_) */\n          swap2\n          swap1\n          0x20\n          shr\n          jump\t// in\n        tag_11:\n            /* \"contracts/Accessories/ERC20FACTORY.sol\":6240:6252  _totalSupply */\n          0x02\n            /* \"contracts/Accessories/ERC20FACTORY.sol\":6240:6285  _totalSupply = _totalSupply.add(totalSupply_) */\n          sstore\n          sub(shl(0xa0, 0x01), 0x01)\n            /* \"contracts/Accessories/ERC20FACTORY.sol\":6315:6332  _balances[owner_] */\n          dup3\n          and\n            /* \"contracts/Accessories/ERC20FACTORY.sol\":6315:6324  _balances */\n          0x00\n            /* \"contracts/Accessories/ERC20FACTORY.sol\":6315:6332  _balances[owner_] */\n          swap1\n          dup2\n          mstore\n          0x20\n          dup2\n          dup2\n          mstore\n          0x40\n          swap1\n          swap2\n          keccak256\n          sload\n            /* \"contracts/Accessories/ERC20FACTORY.sol\":6315:6350  _balances[owner_].add(totalSupply_) */\n          tag_13\n          swap2\n            /* \"contracts/Accessories/ERC20FACTORY.sol\":6337:6349  totalSupply_ */\n          dup4\n          swap1\n            /* \"contracts/Accessories/ERC20FACTORY.sol\":6315:6336  _balances[owner_].add */\n          tag_0_63\n          tag_12\n          dup3\n          shl\n          or\n            /* \"contracts/Accessories/ERC20FACTORY.sol\":6315:6350  _balances[owner_].add(totalSupply_) */\n          swap1\n          shr\n          jump\t// in\n        tag_13:\n          sub(shl(0xa0, 0x01), 0x01)\n            /* \"contracts/Accessories/ERC20FACTORY.sol\":6295:6312  _balances[owner_] */\n          swap1\n          swap3\n          and\n            /* \"contracts/Accessories/ERC20FACTORY.sol\":6295:6304  _balances */\n          0x00\n            /* \"contracts/Accessories/ERC20FACTORY.sol\":6295:6312  _balances[owner_] */\n          swap1\n          dup2\n          mstore\n          0x20\n          dup2\n          swap1\n          mstore\n          0x40\n          swap1\n          keccak256\n            /* \"contracts/Accessories/ERC20FACTORY.sol\":6295:6350  _balances[owner_] = _balances[owner_].add(totalSupply_) */\n          swap2\n          swap1\n          swap2\n          sstore\n          pop\n            /* \"contracts/Accessories/ERC20FACTORY.sol\":5028:14898  contract ERC20 is Contexts {... */\n          tag_28\n          swap3\n          pop\n          pop\n          pop\n          jump\n            /* \"contracts/Accessories/ERC20FACTORY.sol\":14804:14896  function _beforeTokenTransfer(address from, address to, uint256 amount) internal virtual { } */\n        tag_10:\n          pop\n          pop\n          pop\n          jump\t// out\n            /* \"contracts/Accessories/ERC20FACTORY.sol\":324:500  function add(uint256 a, uint256 b) internal pure returns (uint256) {... */\n        tag_12:\n            /* \"contracts/Accessories/ERC20FACTORY.sol\":382:389  uint256 */\n          0x00\n          dup1\n            /* \"contracts/Accessories/ERC20FACTORY.sol\":413:418  a + b */\n          tag_17\n            /* \"contracts/Accessories/ERC20FACTORY.sol\":417:418  b */\n          dup4\n            /* \"contracts/Accessories/ERC20FACTORY.sol\":413:414  a */\n          dup6\n            /* \"contracts/Accessories/ERC20FACTORY.sol\":413:418  a + b */\n          tag_18\n          jump\t// in\n        tag_17:\n            /* \"contracts/Accessories/ERC20FACTORY.sol\":401:418  uint256 c = a + b */\n          swap1\n          pop\n            /* \"contracts/Accessories/ERC20FACTORY.sol\":441:442  a */\n          dup4\n            /* \"contracts/Accessories/ERC20FACTORY.sol\":436:437  c */\n          dup2\n            /* \"contracts/Accessories/ERC20FACTORY.sol\":436:442  c >= a */\n          lt\n          iszero\n            /* \"contracts/Accessories/ERC20FACTORY.sol\":428:474  require(c >= a, \"SafeMath: addition overflow\") */\n          tag_19\n          jumpi\n          mload(0x40)\n          shl(0xe5, 0x461bcd)\n          dup2\n          mstore\n            /* \"#utility.yul\":4964:4966   */\n          0x20\n            /* \"contracts/Accessories/ERC20FACTORY.sol\":428:474  require(c >= a, \"SafeMath: addition overflow\") */\n          0x04\n          dup3\n          add\n            /* \"#utility.yul\":4946:4967   */\n          mstore\n            /* \"#utility.yul\":5003:5005   */\n          0x1b\n            /* \"#utility.yul\":4983:5001   */\n          0x24\n          dup3\n          add\n            /* \"#utility.yul\":4976:5006   */\n          mstore\n            /* \"#utility.yul\":5042:5071   */\n          0x536166654d6174683a206164646974696f6e206f766572666c6f770000000000\n            /* \"#utility.yul\":5022:5040   */\n          0x44\n          dup3\n          add\n            /* \"#utility.yul\":5015:5072   */\n          mstore\n            /* \"#utility.yul\":5089:5107   */\n          0x64\n          add\n            /* \"contracts/Accessories/ERC20FACTORY.sol\":428:474  require(c >= a, \"SafeMath: addition overflow\") */\n          mload(0x40)\n          dup1\n          swap2\n          sub\n          swap1\n          revert\n        tag_19:\n            /* \"contracts/Accessories/ERC20FACTORY.sol\":492:493  c */\n          swap1\n          pop\n            /* \"contracts/Accessories/ERC20FACTORY.sol\":324:500  function add(uint256 a, uint256 b) internal pure returns (uint256) {... */\n        tag_16:\n          swap3\n          swap2\n          pop\n          pop\n          jump\t// out\n            /* \"#utility.yul\":14:141   */\n        tag_22:\n            /* \"#utility.yul\":75:85   */\n          0x4e487b71\n            /* \"#utility.yul\":70:73   */\n          0xe0\n            /* \"#utility.yul\":66:86   */\n          shl\n            /* \"#utility.yul\":63:64   */\n          0x00\n            /* \"#utility.yul\":56:87   */\n          mstore\n            /* \"#utility.yul\":106:110   */\n          0x41\n            /* \"#utility.yul\":103:104   */\n          0x04\n            /* \"#utility.yul\":96:111   */\n          mstore\n            /* \"#utility.yul\":130:134   */\n          0x24\n            /* \"#utility.yul\":127:128   */\n          0x00\n            /* \"#utility.yul\":120:135   */\n          revert\n            /* \"#utility.yul\":146:986   */\n        tag_23:\n            /* \"#utility.yul\":200:205   */\n          0x00\n            /* \"#utility.yul\":253:256   */\n          dup3\n            /* \"#utility.yul\":246:250   */\n          0x1f\n            /* \"#utility.yul\":238:244   */\n          dup4\n            /* \"#utility.yul\":234:251   */\n          add\n            /* \"#utility.yul\":230:257   */\n          slt\n            /* \"#utility.yul\":220:275   */\n          tag_31\n          jumpi\n            /* \"#utility.yul\":271:272   */\n          0x00\n            /* \"#utility.yul\":268:269   */\n          dup1\n            /* \"#utility.yul\":261:273   */\n          revert\n            /* \"#utility.yul\":220:275   */\n        tag_31:\n            /* \"#utility.yul\":294:307   */\n          dup2\n          mload\n          sub(shl(0x40, 0x01), 0x01)\n            /* \"#utility.yul\":356:366   */\n          dup1\n          dup3\n          gt\n            /* \"#utility.yul\":353:389   */\n          iszero\n          tag_33\n          jumpi\n            /* \"#utility.yul\":369:387   */\n          tag_33\n          tag_22\n          jump\t// in\n        tag_33:\n            /* \"#utility.yul\":444:446   */\n          0x40\n            /* \"#utility.yul\":438:447   */\n          mload\n            /* \"#utility.yul\":412:414   */\n          0x1f\n            /* \"#utility.yul\":498:511   */\n          dup4\n          add\n          not(0x1f)\n            /* \"#utility.yul\":494:516   */\n          swap1\n          dup2\n          and\n            /* \"#utility.yul\":518:520   */\n          0x3f\n            /* \"#utility.yul\":490:521   */\n          add\n            /* \"#utility.yul\":486:526   */\n          and\n            /* \"#utility.yul\":474:527   */\n          dup2\n          add\n          swap1\n            /* \"#utility.yul\":542:560   */\n          dup3\n          dup3\n          gt\n            /* \"#utility.yul\":562:584   */\n          dup2\n          dup4\n          lt\n            /* \"#utility.yul\":539:585   */\n          or\n            /* \"#utility.yul\":536:608   */\n          iszero\n          tag_35\n          jumpi\n            /* \"#utility.yul\":588:606   */\n          tag_35\n          tag_22\n          jump\t// in\n        tag_35:\n            /* \"#utility.yul\":628:638   */\n          dup2\n            /* \"#utility.yul\":624:626   */\n          0x40\n            /* \"#utility.yul\":617:639   */\n          mstore\n            /* \"#utility.yul\":663:665   */\n          dup4\n            /* \"#utility.yul\":655:661   */\n          dup2\n            /* \"#utility.yul\":648:666   */\n          mstore\n            /* \"#utility.yul\":685:689   */\n          0x20\n            /* \"#utility.yul\":675:689   */\n          swap3\n          pop\n            /* \"#utility.yul\":730:733   */\n          dup7\n            /* \"#utility.yul\":725:727   */\n          dup4\n            /* \"#utility.yul\":720:722   */\n          dup6\n            /* \"#utility.yul\":712:718   */\n          dup9\n            /* \"#utility.yul\":708:723   */\n          add\n            /* \"#utility.yul\":704:728   */\n          add\n            /* \"#utility.yul\":701:734   */\n          gt\n            /* \"#utility.yul\":698:751   */\n          iszero\n          tag_36\n          jumpi\n            /* \"#utility.yul\":747:748   */\n          0x00\n            /* \"#utility.yul\":744:745   */\n          dup1\n            /* \"#utility.yul\":737:749   */\n          revert\n            /* \"#utility.yul\":698:751   */\n        tag_36:\n            /* \"#utility.yul\":769:770   */\n          0x00\n            /* \"#utility.yul\":760:770   */\n          swap2\n          pop\n            /* \"#utility.yul\":779:912   */\n        tag_37:\n            /* \"#utility.yul\":793:795   */\n          dup4\n            /* \"#utility.yul\":790:791   */\n          dup3\n            /* \"#utility.yul\":787:796   */\n          lt\n            /* \"#utility.yul\":779:912   */\n          iszero\n          tag_39\n          jumpi\n            /* \"#utility.yul\":881:895   */\n          dup6\n          dup3\n          add\n            /* \"#utility.yul\":877:900   */\n          dup4\n          add\n            /* \"#utility.yul\":871:901   */\n          mload\n            /* \"#utility.yul\":850:864   */\n          dup2\n          dup4\n          add\n            /* \"#utility.yul\":846:869   */\n          dup5\n          add\n            /* \"#utility.yul\":839:902   */\n          mstore\n            /* \"#utility.yul\":804:814   */\n          swap1\n          dup3\n          add\n          swap1\n            /* \"#utility.yul\":779:912   */\n          jump(tag_37)\n        tag_39:\n            /* \"#utility.yul\":954:955   */\n          0x00\n            /* \"#utility.yul\":932:947   */\n          swap4\n          dup2\n          add\n            /* \"#utility.yul\":928:952   */\n          swap1\n          swap3\n          add\n            /* \"#utility.yul\":921:956   */\n          swap3\n          swap1\n          swap3\n          mstore\n            /* \"#utility.yul\":936:942   */\n          swap5\n            /* \"#utility.yul\":146:986   */\n          swap4\n          pop\n          pop\n          pop\n          pop\n          jump\t// out\n            /* \"#utility.yul\":991:1941   */\n        tag_3:\n            /* \"#utility.yul\":1115:1121   */\n          0x00\n            /* \"#utility.yul\":1123:1129   */\n          dup1\n            /* \"#utility.yul\":1131:1137   */\n          0x00\n            /* \"#utility.yul\":1139:1145   */\n          dup1\n            /* \"#utility.yul\":1147:1153   */\n          0x00\n            /* \"#utility.yul\":1200:1203   */\n          0xa0\n            /* \"#utility.yul\":1188:1197   */\n          dup7\n            /* \"#utility.yul\":1179:1186   */\n          dup9\n            /* \"#utility.yul\":1175:1198   */\n          sub\n            /* \"#utility.yul\":1171:1204   */\n          slt\n            /* \"#utility.yul\":1168:1221   */\n          iszero\n          tag_41\n          jumpi\n            /* \"#utility.yul\":1217:1218   */\n          0x00\n            /* \"#utility.yul\":1214:1215   */\n          dup1\n            /* \"#utility.yul\":1207:1219   */\n          revert\n            /* \"#utility.yul\":1168:1221   */\n        tag_41:\n            /* \"#utility.yul\":1244:1260   */\n          dup6\n          mload\n          sub(shl(0x40, 0x01), 0x01)\n            /* \"#utility.yul\":1309:1323   */\n          dup1\n          dup3\n          gt\n            /* \"#utility.yul\":1306:1340   */\n          iszero\n          tag_42\n          jumpi\n            /* \"#utility.yul\":1336:1337   */\n          0x00\n            /* \"#utility.yul\":1333:1334   */\n          dup1\n            /* \"#utility.yul\":1326:1338   */\n          revert\n            /* \"#utility.yul\":1306:1340   */\n        tag_42:\n            /* \"#utility.yul\":1359:1420   */\n          tag_43\n            /* \"#utility.yul\":1412:1419   */\n          dup10\n            /* \"#utility.yul\":1403:1409   */\n          dup4\n            /* \"#utility.yul\":1392:1401   */\n          dup11\n            /* \"#utility.yul\":1388:1410   */\n          add\n            /* \"#utility.yul\":1359:1420   */\n          tag_23\n          jump\t// in\n        tag_43:\n            /* \"#utility.yul\":1349:1420   */\n          swap7\n          pop\n            /* \"#utility.yul\":1466:1468   */\n          0x20\n            /* \"#utility.yul\":1455:1464   */\n          dup9\n            /* \"#utility.yul\":1451:1469   */\n          add\n            /* \"#utility.yul\":1445:1470   */\n          mload\n            /* \"#utility.yul\":1429:1470   */\n          swap2\n          pop\n            /* \"#utility.yul\":1495:1497   */\n          dup1\n            /* \"#utility.yul\":1485:1493   */\n          dup3\n            /* \"#utility.yul\":1482:1498   */\n          gt\n            /* \"#utility.yul\":1479:1515   */\n          iszero\n          tag_44\n          jumpi\n            /* \"#utility.yul\":1511:1512   */\n          0x00\n            /* \"#utility.yul\":1508:1509   */\n          dup1\n            /* \"#utility.yul\":1501:1513   */\n          revert\n            /* \"#utility.yul\":1479:1515   */\n        tag_44:\n          pop\n            /* \"#utility.yul\":1534:1597   */\n          tag_45\n            /* \"#utility.yul\":1589:1596   */\n          dup9\n            /* \"#utility.yul\":1578:1586   */\n          dup3\n            /* \"#utility.yul\":1567:1576   */\n          dup10\n            /* \"#utility.yul\":1563:1587   */\n          add\n            /* \"#utility.yul\":1534:1597   */\n          tag_23\n          jump\t// in\n        tag_45:\n            /* \"#utility.yul\":1524:1597   */\n          swap5\n          pop\n          pop\n            /* \"#utility.yul\":1640:1642   */\n          0x40\n            /* \"#utility.yul\":1629:1638   */\n          dup7\n            /* \"#utility.yul\":1625:1643   */\n          add\n            /* \"#utility.yul\":1619:1644   */\n          mload\n            /* \"#utility.yul\":1684:1688   */\n          0xff\n            /* \"#utility.yul\":1677:1682   */\n          dup2\n            /* \"#utility.yul\":1673:1689   */\n          and\n            /* \"#utility.yul\":1666:1671   */\n          dup2\n            /* \"#utility.yul\":1663:1690   */\n          eq\n            /* \"#utility.yul\":1653:1708   */\n          tag_46\n          jumpi\n            /* \"#utility.yul\":1704:1705   */\n          0x00\n            /* \"#utility.yul\":1701:1702   */\n          dup1\n            /* \"#utility.yul\":1694:1706   */\n          revert\n            /* \"#utility.yul\":1653:1708   */\n        tag_46:\n            /* \"#utility.yul\":1777:1779   */\n          0x60\n            /* \"#utility.yul\":1762:1780   */\n          dup8\n          add\n            /* \"#utility.yul\":1756:1781   */\n          mload\n            /* \"#utility.yul\":1727:1732   */\n          swap1\n          swap4\n          pop\n          sub(shl(0xa0, 0x01), 0x01)\n            /* \"#utility.yul\":1812:1845   */\n          dup2\n          and\n            /* \"#utility.yul\":1800:1846   */\n          dup2\n          eq\n            /* \"#utility.yul\":1790:1864   */\n          tag_47\n          jumpi\n            /* \"#utility.yul\":1860:1861   */\n          0x00\n            /* \"#utility.yul\":1857:1858   */\n          dup1\n            /* \"#utility.yul\":1850:1862   */\n          revert\n            /* \"#utility.yul\":1790:1864   */\n        tag_47:\n            /* \"#utility.yul\":1883:1890   */\n          dup1\n            /* \"#utility.yul\":1873:1890   */\n          swap3\n          pop\n          pop\n            /* \"#utility.yul\":1930:1933   */\n          0x80\n            /* \"#utility.yul\":1919:1928   */\n          dup7\n            /* \"#utility.yul\":1915:1934   */\n          add\n            /* \"#utility.yul\":1909:1935   */\n          mload\n            /* \"#utility.yul\":1899:1935   */\n          swap1\n          pop\n            /* \"#utility.yul\":991:1941   */\n          swap3\n          swap6\n          pop\n          swap3\n          swap6\n          swap1\n          swap4\n          pop\n          jump\t// out\n            /* \"#utility.yul\":1946:2326   */\n        tag_24:\n            /* \"#utility.yul\":2025:2026   */\n          0x01\n            /* \"#utility.yul\":2021:2033   */\n          dup2\n          dup2\n          shr\n          swap1\n            /* \"#utility.yul\":2068:2080   */\n          dup3\n          and\n          dup1\n            /* \"#utility.yul\":2089:2150   */\n          tag_49\n          jumpi\n            /* \"#utility.yul\":2143:2147   */\n          0x7f\n            /* \"#utility.yul\":2135:2141   */\n          dup3\n            /* \"#utility.yul\":2131:2148   */\n          and\n            /* \"#utility.yul\":2121:2148   */\n          swap2\n          pop\n            /* \"#utility.yul\":2089:2150   */\n        tag_49:\n            /* \"#utility.yul\":2196:2198   */\n          0x20\n            /* \"#utility.yul\":2188:2194   */\n          dup3\n            /* \"#utility.yul\":2185:2199   */\n          lt\n            /* \"#utility.yul\":2165:2183   */\n          dup2\n            /* \"#utility.yul\":2162:2200   */\n          sub\n            /* \"#utility.yul\":2159:2320   */\n          tag_50\n          jumpi\n            /* \"#utility.yul\":2242:2252   */\n          0x4e487b71\n            /* \"#utility.yul\":2237:2240   */\n          0xe0\n            /* \"#utility.yul\":2233:2253   */\n          shl\n            /* \"#utility.yul\":2230:2231   */\n          0x00\n            /* \"#utility.yul\":2223:2254   */\n          mstore\n            /* \"#utility.yul\":2277:2281   */\n          0x22\n            /* \"#utility.yul\":2274:2275   */\n          0x04\n            /* \"#utility.yul\":2267:2282   */\n          mstore\n            /* \"#utility.yul\":2305:2309   */\n          0x24\n            /* \"#utility.yul\":2302:2303   */\n          0x00\n            /* \"#utility.yul\":2295:2310   */\n          revert\n            /* \"#utility.yul\":2159:2320   */\n        tag_50:\n          pop\n            /* \"#utility.yul\":1946:2326   */\n          swap2\n          swap1\n          pop\n          jump\t// out\n            /* \"#utility.yul\":2457:3002   */\n        tag_26:\n            /* \"#utility.yul\":2559:2561   */\n          0x1f\n            /* \"#utility.yul\":2554:2557   */\n          dup3\n            /* \"#utility.yul\":2551:2562   */\n          gt\n            /* \"#utility.yul\":2548:2996   */\n          iszero\n          tag_10\n          jumpi\n            /* \"#utility.yul\":2595:2596   */\n          0x00\n            /* \"#utility.yul\":2620:2625   */\n          dup2\n            /* \"#utility.yul\":2616:2618   */\n          dup2\n            /* \"#utility.yul\":2609:2626   */\n          mstore\n            /* \"#utility.yul\":2665:2669   */\n          0x20\n            /* \"#utility.yul\":2661:2663   */\n          dup2\n            /* \"#utility.yul\":2651:2670   */\n          keccak256\n            /* \"#utility.yul\":2735:2737   */\n          0x1f\n            /* \"#utility.yul\":2723:2733   */\n          dup6\n            /* \"#utility.yul\":2719:2738   */\n          add\n            /* \"#utility.yul\":2716:2717   */\n          0x05\n            /* \"#utility.yul\":2712:2739   */\n          shr\n            /* \"#utility.yul\":2706:2710   */\n          dup2\n            /* \"#utility.yul\":2702:2740   */\n          add\n            /* \"#utility.yul\":2771:2775   */\n          0x20\n            /* \"#utility.yul\":2759:2769   */\n          dup7\n            /* \"#utility.yul\":2756:2776   */\n          lt\n            /* \"#utility.yul\":2753:2800   */\n          iszero\n          tag_54\n          jumpi\n          pop\n            /* \"#utility.yul\":2794:2798   */\n          dup1\n            /* \"#utility.yul\":2753:2800   */\n        tag_54:\n            /* \"#utility.yul\":2849:2851   */\n          0x1f\n            /* \"#utility.yul\":2844:2847   */\n          dup6\n            /* \"#utility.yul\":2840:2852   */\n          add\n            /* \"#utility.yul\":2837:2838   */\n          0x05\n            /* \"#utility.yul\":2833:2853   */\n          shr\n            /* \"#utility.yul\":2827:2831   */\n          dup3\n            /* \"#utility.yul\":2823:2854   */\n          add\n            /* \"#utility.yul\":2813:2854   */\n          swap2\n          pop\n            /* \"#utility.yul\":2904:2986   */\n        tag_55:\n            /* \"#utility.yul\":2922:2924   */\n          dup2\n            /* \"#utility.yul\":2915:2920   */\n          dup2\n            /* \"#utility.yul\":2912:2925   */\n          lt\n            /* \"#utility.yul\":2904:2986   */\n          iszero\n          tag_57\n          jumpi\n            /* \"#utility.yul\":2967:2984   */\n          dup3\n          dup2\n          sstore\n            /* \"#utility.yul\":2948:2949   */\n          0x01\n            /* \"#utility.yul\":2937:2950   */\n          add\n            /* \"#utility.yul\":2904:2986   */\n          jump(tag_55)\n        tag_57:\n            /* \"#utility.yul\":2908:2911   */\n          pop\n          pop\n          pop\n            /* \"#utility.yul\":2457:3002   */\n          pop\n          pop\n          pop\n          jump\t// out\n            /* \"#utility.yul\":3178:4530   */\n        tag_7:\n            /* \"#utility.yul\":3298:3308   */\n          dup2\n          mload\n          sub(shl(0x40, 0x01), 0x01)\n            /* \"#utility.yul\":3320:3350   */\n          dup2\n          gt\n            /* \"#utility.yul\":3317:3373   */\n          iszero\n          tag_61\n          jumpi\n            /* \"#utility.yul\":3353:3371   */\n          tag_61\n          tag_22\n          jump\t// in\n        tag_61:\n            /* \"#utility.yul\":3382:3479   */\n          tag_62\n            /* \"#utility.yul\":3472:3478   */\n          dup2\n            /* \"#utility.yul\":3432:3470   */\n          tag_63\n            /* \"#utility.yul\":3464:3468   */\n          dup5\n            /* \"#utility.yul\":3458:3469   */\n          sload\n            /* \"#utility.yul\":3432:3470   */\n          tag_24\n          jump\t// in\n        tag_63:\n            /* \"#utility.yul\":3426:3430   */\n          dup5\n            /* \"#utility.yul\":3382:3479   */\n          tag_26\n          jump\t// in\n        tag_62:\n            /* \"#utility.yul\":3534:3538   */\n          0x20\n          dup1\n            /* \"#utility.yul\":3598:3600   */\n          0x1f\n            /* \"#utility.yul\":3587:3601   */\n          dup4\n          gt\n            /* \"#utility.yul\":3615:3616   */\n          0x01\n            /* \"#utility.yul\":3610:4273   */\n          dup2\n          eq\n          tag_65\n          jumpi\n            /* \"#utility.yul\":4317:4318   */\n          0x00\n            /* \"#utility.yul\":4334:4340   */\n          dup5\n            /* \"#utility.yul\":4331:4420   */\n          iszero\n          tag_66\n          jumpi\n          pop\n            /* \"#utility.yul\":4386:4405   */\n          dup6\n          dup4\n          add\n            /* \"#utility.yul\":4380:4406   */\n          mload\n            /* \"#utility.yul\":4331:4420   */\n        tag_66:\n          not(0x00)\n            /* \"#utility.yul\":3135:3136   */\n          0x03\n            /* \"#utility.yul\":3131:3142   */\n          dup7\n          swap1\n          shl\n            /* \"#utility.yul\":3127:3151   */\n          shr\n            /* \"#utility.yul\":3123:3152   */\n          not\n            /* \"#utility.yul\":3113:3153   */\n          and\n            /* \"#utility.yul\":3159:3160   */\n          0x01\n            /* \"#utility.yul\":3155:3166   */\n          dup6\n          swap1\n          shl\n            /* \"#utility.yul\":3110:3167   */\n          or\n            /* \"#utility.yul\":4433:4514   */\n          dup6\n          sstore\n            /* \"#utility.yul\":3580:4524   */\n          jump(tag_57)\n            /* \"#utility.yul\":3610:4273   */\n        tag_65:\n            /* \"#utility.yul\":2404:2405   */\n          0x00\n            /* \"#utility.yul\":2397:2411   */\n          dup6\n          dup2\n          mstore\n            /* \"#utility.yul\":2441:2445   */\n          0x20\n            /* \"#utility.yul\":2428:2446   */\n          dup2\n          keccak256\n          not(0x1f)\n            /* \"#utility.yul\":3646:3666   */\n          dup7\n          and\n          swap2\n            /* \"#utility.yul\":3764:4000   */\n        tag_69:\n            /* \"#utility.yul\":3778:3785   */\n          dup3\n            /* \"#utility.yul\":3775:3776   */\n          dup2\n            /* \"#utility.yul\":3772:3786   */\n          lt\n            /* \"#utility.yul\":3764:4000   */\n          iszero\n          tag_71\n          jumpi\n            /* \"#utility.yul\":3867:3886   */\n          dup9\n          dup7\n          add\n            /* \"#utility.yul\":3861:3887   */\n          mload\n            /* \"#utility.yul\":3846:3888   */\n          dup3\n          sstore\n            /* \"#utility.yul\":3959:3986   */\n          swap5\n          dup5\n          add\n          swap5\n            /* \"#utility.yul\":3927:3928   */\n          0x01\n            /* \"#utility.yul\":3915:3929   */\n          swap1\n          swap2\n          add\n          swap1\n            /* \"#utility.yul\":3794:3813   */\n          dup5\n          add\n            /* \"#utility.yul\":3764:4000   */\n          jump(tag_69)\n        tag_71:\n            /* \"#utility.yul\":3768:3771   */\n          pop\n            /* \"#utility.yul\":4028:4034   */\n          dup6\n            /* \"#utility.yul\":4019:4026   */\n          dup3\n            /* \"#utility.yul\":4016:4035   */\n          lt\n            /* \"#utility.yul\":4013:4214   */\n          iszero\n          tag_72\n          jumpi\n            /* \"#utility.yul\":4089:4108   */\n          dup8\n          dup6\n          add\n            /* \"#utility.yul\":4083:4109   */\n          mload\n          not(0x00)\n            /* \"#utility.yul\":4172:4173   */\n          0x03\n            /* \"#utility.yul\":4168:4182   */\n          dup9\n          swap1\n          shl\n            /* \"#utility.yul\":4184:4187   */\n          0xf8\n            /* \"#utility.yul\":4164:4188   */\n          and\n            /* \"#utility.yul\":4160:4197   */\n          shr\n            /* \"#utility.yul\":4156:4198   */\n          not\n            /* \"#utility.yul\":4141:4199   */\n          and\n            /* \"#utility.yul\":4126:4200   */\n          dup2\n          sstore\n            /* \"#utility.yul\":4013:4214   */\n        tag_72:\n          pop\n          pop\n          pop\n          pop\n          pop\n            /* \"#utility.yul\":4260:4261   */\n          0x01\n            /* \"#utility.yul\":4244:4258   */\n          swap1\n          dup2\n          shl\n            /* \"#utility.yul\":4240:4262   */\n          add\n            /* \"#utility.yul\":4227:4263   */\n          swap1\n          sstore\n          pop\n            /* \"#utility.yul\":3178:4530   */\n          jump\t// out\n            /* \"#utility.yul\":4535:4757   */\n        tag_18:\n            /* \"#utility.yul\":4600:4609   */\n          dup1\n          dup3\n          add\n            /* \"#utility.yul\":4621:4631   */\n          dup1\n          dup3\n          gt\n            /* \"#utility.yul\":4618:4751   */\n          iszero\n          tag_16\n          jumpi\n            /* \"#utility.yul\":4673:4683   */\n          0x4e487b71\n            /* \"#utility.yul\":4668:4671   */\n          0xe0\n            /* \"#utility.yul\":4664:4684   */\n          shl\n            /* \"#utility.yul\":4661:4662   */\n          0x00\n            /* \"#utility.yul\":4654:4685   */\n          mstore\n            /* \"#utility.yul\":4708:4712   */\n          0x11\n            /* \"#utility.yul\":4705:4706   */\n          0x04\n            /* \"#utility.yul\":4698:4713   */\n          mstore\n            /* \"#utility.yul\":4736:4740   */\n          0x24\n            /* \"#utility.yul\":4733:4734   */\n          0x00\n            /* \"#utility.yul\":4726:4741   */\n          revert\n            /* \"#utility.yul\":4762:5113   */\n        tag_28:\n            /* \"contracts/Accessories/ERC20FACTORY.sol\":5028:14898  contract ERC20 is Contexts {... */\n          dataSize(sub_0)\n          dup1\n          dataOffset(sub_0)\n          0x00\n          codecopy\n          0x00\n          return\n        stop\n\n        sub_0: assembly {\n                /* \"contracts/Accessories/ERC20FACTORY.sol\":5028:14898  contract ERC20 is Contexts {... */\n              mstore(0x40, 0x80)\n              callvalue\n              dup1\n              iszero\n              tag_1\n              jumpi\n              0x00\n              dup1\n              revert\n            tag_1:\n              pop\n              jumpi(tag_2, lt(calldatasize, 0x04))\n              shr(0xe0, calldataload(0x00))\n              dup1\n              0x39509351\n              gt\n              tag_14\n              jumpi\n              dup1\n              0x39509351\n              eq\n              tag_8\n              jumpi\n              dup1\n              0x70a08231\n              eq\n              tag_9\n              jumpi\n              dup1\n              0x95d89b41\n              eq\n              tag_10\n              jumpi\n              dup1\n              0xa457c2d7\n              eq\n              tag_11\n              jumpi\n              dup1\n              0xa9059cbb\n              eq\n              tag_12\n              jumpi\n              dup1\n              0xdd62ed3e\n              eq\n              tag_13\n              jumpi\n              0x00\n              dup1\n              revert\n            tag_14:\n              dup1\n              0x06fdde03\n              eq\n              tag_3\n              jumpi\n              dup1\n              0x095ea7b3\n              eq\n              tag_4\n              jumpi\n              dup1\n              0x18160ddd\n              eq\n              tag_5\n              jumpi\n              dup1\n              0x23b872dd\n              eq\n              tag_6\n              jumpi\n              dup1\n              0x313ce567\n              eq\n              tag_7\n              jumpi\n            tag_2:\n              0x00\n              dup1\n              revert\n                /* \"contracts/Accessories/ERC20FACTORY.sol\":6422:6504  function name() public view  returns (string memory) {... */\n            tag_3:\n              tag_15\n              tag_16\n              jump\t// in\n            tag_15:\n              mload(0x40)\n              tag_17\n              swap2\n              swap1\n              tag_18\n              jump\t// in\n            tag_17:\n              mload(0x40)\n              dup1\n              swap2\n              sub\n              swap1\n              return\n                /* \"contracts/Accessories/ERC20FACTORY.sol\":8421:8572  function approve(address spender, uint256 amount) public   returns (bool) {... */\n            tag_4:\n              tag_19\n              tag_20\n              calldatasize\n              0x04\n              tag_21\n              jump\t// in\n            tag_20:\n              tag_22\n              jump\t// in\n            tag_19:\n              mload(0x40)\n                /* \"#utility.yul\":1169:1183   */\n              swap1\n              iszero\n                /* \"#utility.yul\":1162:1184   */\n              iszero\n                /* \"#utility.yul\":1144:1185   */\n              dup2\n              mstore\n                /* \"#utility.yul\":1132:1134   */\n              0x20\n                /* \"#utility.yul\":1117:1135   */\n              add\n                /* \"contracts/Accessories/ERC20FACTORY.sol\":8421:8572  function approve(address spender, uint256 amount) public   returns (bool) {... */\n              tag_17\n                /* \"#utility.yul\":1004:1191   */\n              jump\n                /* \"contracts/Accessories/ERC20FACTORY.sol\":7467:7557  function totalSupply() public view  returns (uint256) {... */\n            tag_5:\n                /* \"contracts/Accessories/ERC20FACTORY.sol\":7538:7550  _totalSupply */\n              sload(0x02)\n                /* \"contracts/Accessories/ERC20FACTORY.sol\":7467:7557  function totalSupply() public view  returns (uint256) {... */\n            tag_25:\n              mload(0x40)\n                /* \"#utility.yul\":1342:1367   */\n              swap1\n              dup2\n              mstore\n                /* \"#utility.yul\":1330:1332   */\n              0x20\n                /* \"#utility.yul\":1315:1333   */\n              add\n                /* \"contracts/Accessories/ERC20FACTORY.sol\":7467:7557  function totalSupply() public view  returns (uint256) {... */\n              tag_17\n                /* \"#utility.yul\":1196:1373   */\n              jump\n                /* \"contracts/Accessories/ERC20FACTORY.sol\":9039:9341  function transferFrom(address sender, address recipient, uint256 amount) public   returns (bool) {... */\n            tag_6:\n              tag_19\n              tag_30\n              calldatasize\n              0x04\n              tag_31\n              jump\t// in\n            tag_30:\n              tag_32\n              jump\t// in\n                /* \"contracts/Accessories/ERC20FACTORY.sol\":7326:7407  function decimals() public view returns (uint8) {... */\n            tag_7:\n                /* \"contracts/Accessories/ERC20FACTORY.sol\":7391:7400  _decimals */\n              sload(0x05)\n                /* \"contracts/Accessories/ERC20FACTORY.sol\":7326:7407  function decimals() public view returns (uint8) {... */\n              mload(0x40)\n                /* \"contracts/Accessories/ERC20FACTORY.sol\":7391:7400  _decimals */\n              0xff\n              swap1\n              swap2\n              and\n                /* \"#utility.yul\":1853:1889   */\n              dup2\n              mstore\n                /* \"#utility.yul\":1841:1843   */\n              0x20\n                /* \"#utility.yul\":1826:1844   */\n              add\n                /* \"contracts/Accessories/ERC20FACTORY.sol\":7326:7407  function decimals() public view returns (uint8) {... */\n              tag_17\n                /* \"#utility.yul\":1711:1895   */\n              jump\n                /* \"contracts/Accessories/ERC20FACTORY.sol\":9736:9944  function increaseAllowance(address spender, uint256 addedValue) public  returns (bool) {... */\n            tag_8:\n              tag_19\n              tag_39\n              calldatasize\n              0x04\n              tag_21\n              jump\t// in\n            tag_39:\n              tag_40\n              jump\t// in\n                /* \"contracts/Accessories/ERC20FACTORY.sol\":7615:7724  function balanceOf(address account) public view  returns (uint256) {... */\n            tag_9:\n              tag_25\n              tag_43\n              calldatasize\n              0x04\n              tag_44\n              jump\t// in\n            tag_43:\n              sub(shl(0xa0, 0x01), 0x01)\n                /* \"contracts/Accessories/ERC20FACTORY.sol\":7699:7717  _balances[account] */\n              and\n                /* \"contracts/Accessories/ERC20FACTORY.sol\":7673:7680  uint256 */\n              0x00\n                /* \"contracts/Accessories/ERC20FACTORY.sol\":7699:7717  _balances[account] */\n              swap1\n              dup2\n              mstore\n              0x20\n              dup2\n              swap1\n              mstore\n              0x40\n              swap1\n              keccak256\n              sload\n              swap1\n                /* \"contracts/Accessories/ERC20FACTORY.sol\":7615:7724  function balanceOf(address account) public view  returns (uint256) {... */\n              jump\n                /* \"contracts/Accessories/ERC20FACTORY.sol\":6617:6703  function symbol() public view  returns (string memory) {... */\n            tag_10:\n              tag_15\n              tag_48\n              jump\t// in\n                /* \"contracts/Accessories/ERC20FACTORY.sol\":10431:10690  function decreaseAllowance(address spender, uint256 subtractedValue) public  returns (bool) {... */\n            tag_11:\n              tag_19\n              tag_51\n              calldatasize\n              0x04\n              tag_21\n              jump\t// in\n            tag_51:\n              tag_52\n              jump\t// in\n                /* \"contracts/Accessories/ERC20FACTORY.sol\":7927:8091  function transfer(address recipient, uint256 amount) public virtual  returns (bool) {... */\n            tag_12:\n              tag_19\n              tag_55\n              calldatasize\n              0x04\n              tag_21\n              jump\t// in\n            tag_55:\n              tag_56\n              jump\t// in\n                /* \"contracts/Accessories/ERC20FACTORY.sol\":8149:8283  function allowance(address owner, address spender) public view   returns (uint256) {... */\n            tag_13:\n              tag_25\n              tag_59\n              calldatasize\n              0x04\n              tag_60\n              jump\t// in\n            tag_59:\n              sub(shl(0xa0, 0x01), 0x01)\n                /* \"contracts/Accessories/ERC20FACTORY.sol\":8249:8267  _allowances[owner] */\n              swap2\n              dup3\n              and\n                /* \"contracts/Accessories/ERC20FACTORY.sol\":8223:8230  uint256 */\n              0x00\n                /* \"contracts/Accessories/ERC20FACTORY.sol\":8249:8267  _allowances[owner] */\n              swap1\n              dup2\n              mstore\n                /* \"contracts/Accessories/ERC20FACTORY.sol\":8249:8260  _allowances */\n              0x01\n                /* \"contracts/Accessories/ERC20FACTORY.sol\":8249:8267  _allowances[owner] */\n              0x20\n              swap1\n              dup2\n              mstore\n              0x40\n              dup1\n              dup4\n              keccak256\n                /* \"contracts/Accessories/ERC20FACTORY.sol\":8249:8276  _allowances[owner][spender] */\n              swap4\n              swap1\n              swap5\n              and\n              dup3\n              mstore\n              swap2\n              swap1\n              swap2\n              mstore\n              keccak256\n              sload\n              swap1\n                /* \"contracts/Accessories/ERC20FACTORY.sol\":8149:8283  function allowance(address owner, address spender) public view   returns (uint256) {... */\n              jump\n                /* \"contracts/Accessories/ERC20FACTORY.sol\":6422:6504  function name() public view  returns (string memory) {... */\n            tag_16:\n                /* \"contracts/Accessories/ERC20FACTORY.sol\":6460:6473  string memory */\n              0x60\n                /* \"contracts/Accessories/ERC20FACTORY.sol\":6492:6497  _name */\n              0x03\n                /* \"contracts/Accessories/ERC20FACTORY.sol\":6485:6497  return _name */\n              dup1\n              sload\n              tag_65\n              swap1\n              tag_66\n              jump\t// in\n            tag_65:\n              dup1\n              0x1f\n              add\n              0x20\n              dup1\n              swap2\n              div\n              mul\n              0x20\n              add\n              mload(0x40)\n              swap1\n              dup2\n              add\n              0x40\n              mstore\n              dup1\n              swap3\n              swap2\n              swap1\n              dup2\n              dup2\n              mstore\n              0x20\n              add\n              dup3\n              dup1\n              sload\n              tag_67\n              swap1\n              tag_66\n              jump\t// in\n            tag_67:\n              dup1\n              iszero\n              tag_68\n              jumpi\n              dup1\n              0x1f\n              lt\n              tag_69\n              jumpi\n              0x0100\n              dup1\n              dup4\n              sload\n              div\n              mul\n              dup4\n              mstore\n              swap2\n              0x20\n              add\n              swap2\n              jump(tag_68)\n            tag_69:\n              dup3\n              add\n              swap2\n              swap1\n              0x00\n              mstore\n              keccak256(0x00, 0x20)\n              swap1\n            tag_70:\n              dup2\n              sload\n              dup2\n              mstore\n              swap1\n              0x01\n              add\n              swap1\n              0x20\n              add\n              dup1\n              dup4\n              gt\n              tag_70\n              jumpi\n              dup3\n              swap1\n              sub\n              0x1f\n              and\n              dup3\n              add\n              swap2\n            tag_68:\n              pop\n              pop\n              pop\n              pop\n              pop\n              swap1\n              pop\n                /* \"contracts/Accessories/ERC20FACTORY.sol\":6422:6504  function name() public view  returns (string memory) {... */\n              swap1\n              jump\t// out\n                /* \"contracts/Accessories/ERC20FACTORY.sol\":8421:8572  function approve(address spender, uint256 amount) public   returns (bool) {... */\n            tag_22:\n                /* \"contracts/Accessories/ERC20FACTORY.sol\":8489:8493  bool */\n              0x00\n                /* \"contracts/Accessories/ERC20FACTORY.sol\":8505:8544  _approve(_msgSender(), spender, amount) */\n              tag_72\n                /* \"contracts/Accessories/ERC20FACTORY.sol\":4770:4780  msg.sender */\n              caller\n                /* \"contracts/Accessories/ERC20FACTORY.sol\":8528:8535  spender */\n              dup5\n                /* \"contracts/Accessories/ERC20FACTORY.sol\":8537:8543  amount */\n              dup5\n                /* \"contracts/Accessories/ERC20FACTORY.sol\":8505:8513  _approve */\n              tag_75\n                /* \"contracts/Accessories/ERC20FACTORY.sol\":8505:8544  _approve(_msgSender(), spender, amount) */\n              jump\t// in\n            tag_72:\n              pop\n                /* \"contracts/Accessories/ERC20FACTORY.sol\":8561:8565  true */\n              0x01\n                /* \"contracts/Accessories/ERC20FACTORY.sol\":8421:8572  function approve(address spender, uint256 amount) public   returns (bool) {... */\n            tag_71:\n              swap3\n              swap2\n              pop\n              pop\n              jump\t// out\n                /* \"contracts/Accessories/ERC20FACTORY.sol\":9039:9341  function transferFrom(address sender, address recipient, uint256 amount) public   returns (bool) {... */\n            tag_32:\n                /* \"contracts/Accessories/ERC20FACTORY.sol\":9130:9134  bool */\n              0x00\n                /* \"contracts/Accessories/ERC20FACTORY.sol\":9146:9182  _transfer(sender, recipient, amount) */\n              tag_78\n                /* \"contracts/Accessories/ERC20FACTORY.sol\":9156:9162  sender */\n              dup5\n                /* \"contracts/Accessories/ERC20FACTORY.sol\":9164:9173  recipient */\n              dup5\n                /* \"contracts/Accessories/ERC20FACTORY.sol\":9175:9181  amount */\n              dup5\n                /* \"contracts/Accessories/ERC20FACTORY.sol\":9146:9155  _transfer */\n              tag_79\n                /* \"contracts/Accessories/ERC20FACTORY.sol\":9146:9182  _transfer(sender, recipient, amount) */\n              jump\t// in\n            tag_78:\n                /* \"contracts/Accessories/ERC20FACTORY.sol\":9192:9313  _approve(sender, _msgSender(), _allowances[sender][_msgSender()].sub(amount, \"ERC20: transfer amount exceeds allowance\")) */\n              tag_80\n                /* \"contracts/Accessories/ERC20FACTORY.sol\":9201:9207  sender */\n              dup5\n                /* \"contracts/Accessories/ERC20FACTORY.sol\":4770:4780  msg.sender */\n              caller\n                /* \"contracts/Accessories/ERC20FACTORY.sol\":9223:9312  _allowances[sender][_msgSender()].sub(amount, \"ERC20: transfer amount exceeds allowance\") */\n              tag_82\n                /* \"contracts/Accessories/ERC20FACTORY.sol\":9261:9267  amount */\n              dup6\n                /* \"contracts/Accessories/ERC20FACTORY.sol\":9223:9312  _allowances[sender][_msgSender()].sub(amount, \"ERC20: transfer amount exceeds allowance\") */\n              mload(0x40)\n              dup1\n              0x60\n              add\n              0x40\n              mstore\n              dup1\n              0x28\n              dup2\n              mstore\n              0x20\n              add\n              data_974d1b4421da69cc60b481194f0dad36a5bb4e23da810da7a7fb30cdba178330\n              0x28\n              swap2\n              codecopy\n              sub(shl(0xa0, 0x01), 0x01)\n                /* \"contracts/Accessories/ERC20FACTORY.sol\":9223:9242  _allowances[sender] */\n              dup11\n              and\n              0x00\n              swap1\n              dup2\n              mstore\n                /* \"contracts/Accessories/ERC20FACTORY.sol\":9223:9234  _allowances */\n              0x01\n                /* \"contracts/Accessories/ERC20FACTORY.sol\":9223:9242  _allowances[sender] */\n              0x20\n              swap1\n              dup2\n              mstore\n              0x40\n              dup1\n              dup4\n              keccak256\n                /* \"contracts/Accessories/ERC20FACTORY.sol\":4770:4780  msg.sender */\n              caller\n                /* \"contracts/Accessories/ERC20FACTORY.sol\":9223:9256  _allowances[sender][_msgSender()] */\n              dup5\n              mstore\n              swap1\n              swap2\n              mstore\n              swap1\n              keccak256\n              sload\n              swap2\n              swap1\n                /* \"contracts/Accessories/ERC20FACTORY.sol\":9223:9260  _allowances[sender][_msgSender()].sub */\n              tag_84\n                /* \"contracts/Accessories/ERC20FACTORY.sol\":9223:9312  _allowances[sender][_msgSender()].sub(amount, \"ERC20: transfer amount exceeds allowance\") */\n              jump\t// in\n            tag_82:\n                /* \"contracts/Accessories/ERC20FACTORY.sol\":9192:9200  _approve */\n              tag_75\n                /* \"contracts/Accessories/ERC20FACTORY.sol\":9192:9313  _approve(sender, _msgSender(), _allowances[sender][_msgSender()].sub(amount, \"ERC20: transfer amount exceeds allowance\")) */\n              jump\t// in\n            tag_80:\n              pop\n                /* \"contracts/Accessories/ERC20FACTORY.sol\":9330:9334  true */\n              0x01\n                /* \"contracts/Accessories/ERC20FACTORY.sol\":9039:9341  function transferFrom(address sender, address recipient, uint256 amount) public   returns (bool) {... */\n              swap4\n              swap3\n              pop\n              pop\n              pop\n              jump\t// out\n                /* \"contracts/Accessories/ERC20FACTORY.sol\":9736:9944  function increaseAllowance(address spender, uint256 addedValue) public  returns (bool) {... */\n            tag_40:\n                /* \"contracts/Accessories/ERC20FACTORY.sol\":4770:4780  msg.sender */\n              caller\n                /* \"contracts/Accessories/ERC20FACTORY.sol\":9817:9821  bool */\n              0x00\n                /* \"contracts/Accessories/ERC20FACTORY.sol\":9865:9890  _allowances[_msgSender()] */\n              dup2\n              dup2\n              mstore\n                /* \"contracts/Accessories/ERC20FACTORY.sol\":9865:9876  _allowances */\n              0x01\n                /* \"contracts/Accessories/ERC20FACTORY.sol\":9865:9890  _allowances[_msgSender()] */\n              0x20\n              swap1\n              dup2\n              mstore\n              0x40\n              dup1\n              dup4\n              keccak256\n              sub(shl(0xa0, 0x01), 0x01)\n                /* \"contracts/Accessories/ERC20FACTORY.sol\":9865:9899  _allowances[_msgSender()][spender] */\n              dup8\n              and\n              dup5\n              mstore\n              swap1\n              swap2\n              mstore\n              dup2\n              keccak256\n              sload\n                /* \"contracts/Accessories/ERC20FACTORY.sol\":9817:9821  bool */\n              swap1\n              swap2\n                /* \"contracts/Accessories/ERC20FACTORY.sol\":9833:9916  _approve(_msgSender(), spender, _allowances[_msgSender()][spender].add(addedValue)) */\n              tag_72\n              swap2\n                /* \"contracts/Accessories/ERC20FACTORY.sol\":9856:9863  spender */\n              dup6\n              swap1\n                /* \"contracts/Accessories/ERC20FACTORY.sol\":9865:9915  _allowances[_msgSender()][spender].add(addedValue) */\n              tag_82\n              swap1\n                /* \"contracts/Accessories/ERC20FACTORY.sol\":9904:9914  addedValue */\n              dup7\n                /* \"contracts/Accessories/ERC20FACTORY.sol\":9865:9903  _allowances[_msgSender()][spender].add */\n              tag_63\n                /* \"contracts/Accessories/ERC20FACTORY.sol\":9865:9915  _allowances[_msgSender()][spender].add(addedValue) */\n              jump\t// in\n                /* \"contracts/Accessories/ERC20FACTORY.sol\":6617:6703  function symbol() public view  returns (string memory) {... */\n            tag_48:\n                /* \"contracts/Accessories/ERC20FACTORY.sol\":6657:6670  string memory */\n              0x60\n                /* \"contracts/Accessories/ERC20FACTORY.sol\":6689:6696  _symbol */\n              0x04\n                /* \"contracts/Accessories/ERC20FACTORY.sol\":6682:6696  return _symbol */\n              dup1\n              sload\n              tag_65\n              swap1\n              tag_66\n              jump\t// in\n                /* \"contracts/Accessories/ERC20FACTORY.sol\":10431:10690  function decreaseAllowance(address spender, uint256 subtractedValue) public  returns (bool) {... */\n            tag_52:\n                /* \"contracts/Accessories/ERC20FACTORY.sol\":10517:10521  bool */\n              0x00\n                /* \"contracts/Accessories/ERC20FACTORY.sol\":10533:10662  _approve(_msgSender(), spender, _allowances[_msgSender()][spender].sub(subtractedValue, \"ERC20: decreased allowance below zero\")) */\n              tag_72\n                /* \"contracts/Accessories/ERC20FACTORY.sol\":4770:4780  msg.sender */\n              caller\n                /* \"contracts/Accessories/ERC20FACTORY.sol\":10556:10563  spender */\n              dup5\n                /* \"contracts/Accessories/ERC20FACTORY.sol\":10565:10661  _allowances[_msgSender()][spender].sub(subtractedValue, \"ERC20: decreased allowance below zero\") */\n              tag_82\n                /* \"contracts/Accessories/ERC20FACTORY.sol\":10604:10619  subtractedValue */\n              dup6\n                /* \"contracts/Accessories/ERC20FACTORY.sol\":10565:10661  _allowances[_msgSender()][spender].sub(subtractedValue, \"ERC20: decreased allowance below zero\") */\n              mload(0x40)\n              dup1\n              0x60\n              add\n              0x40\n              mstore\n              dup1\n              0x25\n              dup2\n              mstore\n              0x20\n              add\n              data_f8b476f7d28209d77d4a4ac1fe36b9f8259aa1bb6bddfa6e89de7e51615cf8a8\n              0x25\n              swap2\n              codecopy\n                /* \"contracts/Accessories/ERC20FACTORY.sol\":4770:4780  msg.sender */\n              caller\n                /* \"contracts/Accessories/ERC20FACTORY.sol\":10565:10590  _allowances[_msgSender()] */\n              0x00\n              swap1\n              dup2\n              mstore\n                /* \"contracts/Accessories/ERC20FACTORY.sol\":10565:10576  _allowances */\n              0x01\n                /* \"contracts/Accessories/ERC20FACTORY.sol\":10565:10590  _allowances[_msgSender()] */\n              0x20\n              swap1\n              dup2\n              mstore\n              0x40\n              dup1\n              dup4\n              keccak256\n              sub(shl(0xa0, 0x01), 0x01)\n                /* \"contracts/Accessories/ERC20FACTORY.sol\":10565:10599  _allowances[_msgSender()][spender] */\n              dup14\n              and\n              dup5\n              mstore\n              swap1\n              swap2\n              mstore\n              swap1\n              keccak256\n              sload\n              swap2\n              swap1\n                /* \"contracts/Accessories/ERC20FACTORY.sol\":10565:10603  _allowances[_msgSender()][spender].sub */\n              tag_84\n                /* \"contracts/Accessories/ERC20FACTORY.sol\":10565:10661  _allowances[_msgSender()][spender].sub(subtractedValue, \"ERC20: decreased allowance below zero\") */\n              jump\t// in\n                /* \"contracts/Accessories/ERC20FACTORY.sol\":7927:8091  function transfer(address recipient, uint256 amount) public virtual  returns (bool) {... */\n            tag_56:\n                /* \"contracts/Accessories/ERC20FACTORY.sol\":8005:8009  bool */\n              0x00\n                /* \"contracts/Accessories/ERC20FACTORY.sol\":8021:8063  _transfer(_msgSender(), recipient, amount) */\n              tag_72\n                /* \"contracts/Accessories/ERC20FACTORY.sol\":4770:4780  msg.sender */\n              caller\n                /* \"contracts/Accessories/ERC20FACTORY.sol\":8045:8054  recipient */\n              dup5\n                /* \"contracts/Accessories/ERC20FACTORY.sol\":8056:8062  amount */\n              dup5\n                /* \"contracts/Accessories/ERC20FACTORY.sol\":8021:8030  _transfer */\n              tag_79\n                /* \"contracts/Accessories/ERC20FACTORY.sol\":8021:8063  _transfer(_msgSender(), recipient, amount) */\n              jump\t// in\n                /* \"contracts/Accessories/ERC20FACTORY.sol\":324:500  function add(uint256 a, uint256 b) internal pure returns (uint256) {... */\n            tag_63:\n                /* \"contracts/Accessories/ERC20FACTORY.sol\":382:389  uint256 */\n              0x00\n              dup1\n                /* \"contracts/Accessories/ERC20FACTORY.sol\":413:418  a + b */\n              tag_108\n                /* \"contracts/Accessories/ERC20FACTORY.sol\":417:418  b */\n              dup4\n                /* \"contracts/Accessories/ERC20FACTORY.sol\":413:414  a */\n              dup6\n                /* \"contracts/Accessories/ERC20FACTORY.sol\":413:418  a + b */\n              tag_109\n              jump\t// in\n            tag_108:\n                /* \"contracts/Accessories/ERC20FACTORY.sol\":401:418  uint256 c = a + b */\n              swap1\n              pop\n                /* \"contracts/Accessories/ERC20FACTORY.sol\":441:442  a */\n              dup4\n                /* \"contracts/Accessories/ERC20FACTORY.sol\":436:437  c */\n              dup2\n                /* \"contracts/Accessories/ERC20FACTORY.sol\":436:442  c >= a */\n              lt\n              iszero\n                /* \"contracts/Accessories/ERC20FACTORY.sol\":428:474  require(c >= a, \"SafeMath: addition overflow\") */\n              tag_110\n              jumpi\n              mload(0x40)\n              shl(0xe5, 0x461bcd)\n              dup2\n              mstore\n                /* \"#utility.yul\":3205:3207   */\n              0x20\n                /* \"contracts/Accessories/ERC20FACTORY.sol\":428:474  require(c >= a, \"SafeMath: addition overflow\") */\n              0x04\n              dup3\n              add\n                /* \"#utility.yul\":3187:3208   */\n              mstore\n                /* \"#utility.yul\":3244:3246   */\n              0x1b\n                /* \"#utility.yul\":3224:3242   */\n              0x24\n              dup3\n              add\n                /* \"#utility.yul\":3217:3247   */\n              mstore\n                /* \"#utility.yul\":3283:3312   */\n              0x536166654d6174683a206164646974696f6e206f766572666c6f770000000000\n                /* \"#utility.yul\":3263:3281   */\n              0x44\n              dup3\n              add\n                /* \"#utility.yul\":3256:3313   */\n              mstore\n                /* \"#utility.yul\":3330:3348   */\n              0x64\n              add\n                /* \"contracts/Accessories/ERC20FACTORY.sol\":428:474  require(c >= a, \"SafeMath: addition overflow\") */\n            tag_111:\n              mload(0x40)\n              dup1\n              swap2\n              sub\n              swap1\n              revert\n            tag_110:\n                /* \"contracts/Accessories/ERC20FACTORY.sol\":492:493  c */\n              swap4\n                /* \"contracts/Accessories/ERC20FACTORY.sol\":324:500  function add(uint256 a, uint256 b) internal pure returns (uint256) {... */\n              swap3\n              pop\n              pop\n              pop\n              jump\t// out\n                /* \"contracts/Accessories/ERC20FACTORY.sol\":13467:13800  function _approve(address owner, address spender, uint256 amount) internal  {... */\n            tag_75:\n              sub(shl(0xa0, 0x01), 0x01)\n                /* \"contracts/Accessories/ERC20FACTORY.sol\":13561:13580  owner != address(0) */\n              dup4\n              and\n                /* \"contracts/Accessories/ERC20FACTORY.sol\":13553:13621  require(owner != address(0), \"ERC20: approve from the zero address\") */\n              tag_115\n              jumpi\n              mload(0x40)\n              shl(0xe5, 0x461bcd)\n              dup2\n              mstore\n                /* \"#utility.yul\":3561:3563   */\n              0x20\n                /* \"contracts/Accessories/ERC20FACTORY.sol\":13553:13621  require(owner != address(0), \"ERC20: approve from the zero address\") */\n              0x04\n              dup3\n              add\n                /* \"#utility.yul\":3543:3564   */\n              mstore\n                /* \"#utility.yul\":3600:3602   */\n              0x24\n                /* \"#utility.yul\":3580:3598   */\n              dup1\n              dup3\n              add\n                /* \"#utility.yul\":3573:3603   */\n              mstore\n                /* \"#utility.yul\":3639:3673   */\n              0x45524332303a20617070726f76652066726f6d20746865207a65726f20616464\n                /* \"#utility.yul\":3619:3637   */\n              0x44\n              dup3\n              add\n                /* \"#utility.yul\":3612:3674   */\n              mstore\n              shl(0xe0, 0x72657373)\n                /* \"#utility.yul\":3690:3708   */\n              0x64\n              dup3\n              add\n                /* \"#utility.yul\":3683:3717   */\n              mstore\n                /* \"#utility.yul\":3734:3753   */\n              0x84\n              add\n                /* \"contracts/Accessories/ERC20FACTORY.sol\":13553:13621  require(owner != address(0), \"ERC20: approve from the zero address\") */\n              tag_111\n                /* \"#utility.yul\":3359:3759   */\n              jump\n                /* \"contracts/Accessories/ERC20FACTORY.sol\":13553:13621  require(owner != address(0), \"ERC20: approve from the zero address\") */\n            tag_115:\n              sub(shl(0xa0, 0x01), 0x01)\n                /* \"contracts/Accessories/ERC20FACTORY.sol\":13639:13660  spender != address(0) */\n              dup3\n              and\n                /* \"contracts/Accessories/ERC20FACTORY.sol\":13631:13699  require(spender != address(0), \"ERC20: approve to the zero address\") */\n              tag_118\n              jumpi\n              mload(0x40)\n              shl(0xe5, 0x461bcd)\n              dup2\n              mstore\n                /* \"#utility.yul\":3966:3968   */\n              0x20\n                /* \"contracts/Accessories/ERC20FACTORY.sol\":13631:13699  require(spender != address(0), \"ERC20: approve to the zero address\") */\n              0x04\n              dup3\n              add\n                /* \"#utility.yul\":3948:3969   */\n              mstore\n                /* \"#utility.yul\":4005:4007   */\n              0x22\n                /* \"#utility.yul\":3985:4003   */\n              0x24\n              dup3\n              add\n                /* \"#utility.yul\":3978:4008   */\n              mstore\n                /* \"#utility.yul\":4044:4078   */\n              0x45524332303a20617070726f766520746f20746865207a65726f206164647265\n                /* \"#utility.yul\":4024:4042   */\n              0x44\n              dup3\n              add\n                /* \"#utility.yul\":4017:4079   */\n              mstore\n              shl(0xf0, 0x7373)\n                /* \"#utility.yul\":4095:4113   */\n              0x64\n              dup3\n              add\n                /* \"#utility.yul\":4088:4120   */\n              mstore\n                /* \"#utility.yul\":4137:4156   */\n              0x84\n              add\n                /* \"contracts/Accessories/ERC20FACTORY.sol\":13631:13699  require(spender != address(0), \"ERC20: approve to the zero address\") */\n              tag_111\n                /* \"#utility.yul\":3764:4162   */\n              jump\n                /* \"contracts/Accessories/ERC20FACTORY.sol\":13631:13699  require(spender != address(0), \"ERC20: approve to the zero address\") */\n            tag_118:\n              sub(shl(0xa0, 0x01), 0x01)\n                /* \"contracts/Accessories/ERC20FACTORY.sol\":13710:13728  _allowances[owner] */\n              dup4\n              dup2\n              and\n              0x00\n              dup2\n              dup2\n              mstore\n                /* \"contracts/Accessories/ERC20FACTORY.sol\":13710:13721  _allowances */\n              0x01\n                /* \"contracts/Accessories/ERC20FACTORY.sol\":13710:13728  _allowances[owner] */\n              0x20\n              swap1\n              dup2\n              mstore\n              0x40\n              dup1\n              dup4\n              keccak256\n                /* \"contracts/Accessories/ERC20FACTORY.sol\":13710:13737  _allowances[owner][spender] */\n              swap5\n              dup8\n              and\n              dup1\n              dup5\n              mstore\n              swap5\n              dup3\n              mstore\n              swap2\n              dup3\n              swap1\n              keccak256\n                /* \"contracts/Accessories/ERC20FACTORY.sol\":13710:13746  _allowances[owner][spender] = amount */\n              dup6\n              swap1\n              sstore\n                /* \"contracts/Accessories/ERC20FACTORY.sol\":13761:13793  Approval(owner, spender, amount) */\n              swap1\n              mload\n                /* \"#utility.yul\":1342:1367   */\n              dup5\n              dup2\n              mstore\n                /* \"contracts/Accessories/ERC20FACTORY.sol\":13761:13793  Approval(owner, spender, amount) */\n              0x8c5be1e5ebec7d5bd14f71427d1e84f3dd0314c0f7b2291e5b200ac8c7c3b925\n              swap2\n                /* \"#utility.yul\":1315:1333   */\n              add\n                /* \"contracts/Accessories/ERC20FACTORY.sol\":13761:13793  Approval(owner, spender, amount) */\n            tag_121:\n              mload(0x40)\n              dup1\n              swap2\n              sub\n              swap1\n              log3\n                /* \"contracts/Accessories/ERC20FACTORY.sol\":13467:13800  function _approve(address owner, address spender, uint256 amount) internal  {... */\n              pop\n              pop\n              pop\n              jump\t// out\n                /* \"contracts/Accessories/ERC20FACTORY.sol\":11164:11687  function _transfer(address sender, address recipient, uint256 amount) internal  {... */\n            tag_79:\n              sub(shl(0xa0, 0x01), 0x01)\n                /* \"contracts/Accessories/ERC20FACTORY.sol\":11262:11282  sender != address(0) */\n              dup4\n              and\n                /* \"contracts/Accessories/ERC20FACTORY.sol\":11254:11324  require(sender != address(0), \"ERC20: transfer from the zero address\") */\n              tag_123\n              jumpi\n              mload(0x40)\n              shl(0xe5, 0x461bcd)\n              dup2\n              mstore\n                /* \"#utility.yul\":4369:4371   */\n              0x20\n                /* \"contracts/Accessories/ERC20FACTORY.sol\":11254:11324  require(sender != address(0), \"ERC20: transfer from the zero address\") */\n              0x04\n              dup3\n              add\n                /* \"#utility.yul\":4351:4372   */\n              mstore\n                /* \"#utility.yul\":4408:4410   */\n              0x25\n                /* \"#utility.yul\":4388:4406   */\n              0x24\n              dup3\n              add\n                /* \"#utility.yul\":4381:4411   */\n              mstore\n                /* \"#utility.yul\":4447:4481   */\n              0x45524332303a207472616e736665722066726f6d20746865207a65726f206164\n                /* \"#utility.yul\":4427:4445   */\n              0x44\n              dup3\n              add\n                /* \"#utility.yul\":4420:4482   */\n              mstore\n              shl(0xd8, 0x6472657373)\n                /* \"#utility.yul\":4498:4516   */\n              0x64\n              dup3\n              add\n                /* \"#utility.yul\":4491:4526   */\n              mstore\n                /* \"#utility.yul\":4543:4562   */\n              0x84\n              add\n                /* \"contracts/Accessories/ERC20FACTORY.sol\":11254:11324  require(sender != address(0), \"ERC20: transfer from the zero address\") */\n              tag_111\n                /* \"#utility.yul\":4167:4568   */\n              jump\n                /* \"contracts/Accessories/ERC20FACTORY.sol\":11254:11324  require(sender != address(0), \"ERC20: transfer from the zero address\") */\n            tag_123:\n              sub(shl(0xa0, 0x01), 0x01)\n                /* \"contracts/Accessories/ERC20FACTORY.sol\":11342:11365  recipient != address(0) */\n              dup3\n              and\n                /* \"contracts/Accessories/ERC20FACTORY.sol\":11334:11405  require(recipient != address(0), \"ERC20: transfer to the zero address\") */\n              tag_126\n              jumpi\n              mload(0x40)\n              shl(0xe5, 0x461bcd)\n              dup2\n              mstore\n                /* \"#utility.yul\":4775:4777   */\n              0x20\n                /* \"contracts/Accessories/ERC20FACTORY.sol\":11334:11405  require(recipient != address(0), \"ERC20: transfer to the zero address\") */\n              0x04\n              dup3\n              add\n                /* \"#utility.yul\":4757:4778   */\n              mstore\n                /* \"#utility.yul\":4814:4816   */\n              0x23\n                /* \"#utility.yul\":4794:4812   */\n              0x24\n              dup3\n              add\n                /* \"#utility.yul\":4787:4817   */\n              mstore\n                /* \"#utility.yul\":4853:4887   */\n              0x45524332303a207472616e7366657220746f20746865207a65726f2061646472\n                /* \"#utility.yul\":4833:4851   */\n              0x44\n              dup3\n              add\n                /* \"#utility.yul\":4826:4888   */\n              mstore\n              shl(0xe8, 0x657373)\n                /* \"#utility.yul\":4904:4922   */\n              0x64\n              dup3\n              add\n                /* \"#utility.yul\":4897:4930   */\n              mstore\n                /* \"#utility.yul\":4947:4966   */\n              0x84\n              add\n                /* \"contracts/Accessories/ERC20FACTORY.sol\":11334:11405  require(recipient != address(0), \"ERC20: transfer to the zero address\") */\n              tag_111\n                /* \"#utility.yul\":4573:4972   */\n              jump\n                /* \"contracts/Accessories/ERC20FACTORY.sol\":11334:11405  require(recipient != address(0), \"ERC20: transfer to the zero address\") */\n            tag_126:\n                /* \"contracts/Accessories/ERC20FACTORY.sol\":11494:11565  _balances[sender].sub(amount, \"ERC20: transfer amount exceeds balance\") */\n              tag_131\n                /* \"contracts/Accessories/ERC20FACTORY.sol\":11516:11522  amount */\n              dup2\n                /* \"contracts/Accessories/ERC20FACTORY.sol\":11494:11565  _balances[sender].sub(amount, \"ERC20: transfer amount exceeds balance\") */\n              mload(0x40)\n              dup1\n              0x60\n              add\n              0x40\n              mstore\n              dup1\n              0x26\n              dup2\n              mstore\n              0x20\n              add\n              data_4107e8a8b9e94bf8ff83080ddec1c0bffe897ebc2241b89d44f66b3d274088b6\n              0x26\n              swap2\n              codecopy\n              sub(shl(0xa0, 0x01), 0x01)\n                /* \"contracts/Accessories/ERC20FACTORY.sol\":11494:11511  _balances[sender] */\n              dup7\n              and\n                /* \"contracts/Accessories/ERC20FACTORY.sol\":11494:11503  _balances */\n              0x00\n                /* \"contracts/Accessories/ERC20FACTORY.sol\":11494:11511  _balances[sender] */\n              swap1\n              dup2\n              mstore\n              0x20\n              dup2\n              swap1\n              mstore\n              0x40\n              swap1\n              keccak256\n              sload\n              swap2\n                /* \"contracts/Accessories/ERC20FACTORY.sol\":11494:11565  _balances[sender].sub(amount, \"ERC20: transfer amount exceeds balance\") */\n              swap1\n                /* \"contracts/Accessories/ERC20FACTORY.sol\":11494:11515  _balances[sender].sub */\n              tag_84\n                /* \"contracts/Accessories/ERC20FACTORY.sol\":11494:11565  _balances[sender].sub(amount, \"ERC20: transfer amount exceeds balance\") */\n              jump\t// in\n            tag_131:\n              sub(shl(0xa0, 0x01), 0x01)\n                /* \"contracts/Accessories/ERC20FACTORY.sol\":11474:11491  _balances[sender] */\n              dup1\n              dup6\n              and\n                /* \"contracts/Accessories/ERC20FACTORY.sol\":11474:11483  _balances */\n              0x00\n                /* \"contracts/Accessories/ERC20FACTORY.sol\":11474:11491  _balances[sender] */\n              swap1\n              dup2\n              mstore\n              0x20\n              dup2\n              swap1\n              mstore\n              0x40\n              dup1\n              dup3\n              keccak256\n                /* \"contracts/Accessories/ERC20FACTORY.sol\":11474:11565  _balances[sender] = _balances[sender].sub(amount, \"ERC20: transfer amount exceeds balance\") */\n              swap4\n              swap1\n              swap4\n              sstore\n                /* \"contracts/Accessories/ERC20FACTORY.sol\":11598:11618  _balances[recipient] */\n              swap1\n              dup5\n              and\n              dup2\n              mstore\n              keccak256\n              sload\n                /* \"contracts/Accessories/ERC20FACTORY.sol\":11598:11630  _balances[recipient].add(amount) */\n              tag_132\n              swap1\n                /* \"contracts/Accessories/ERC20FACTORY.sol\":11623:11629  amount */\n              dup3\n                /* \"contracts/Accessories/ERC20FACTORY.sol\":11598:11622  _balances[recipient].add */\n              tag_63\n                /* \"contracts/Accessories/ERC20FACTORY.sol\":11598:11630  _balances[recipient].add(amount) */\n              jump\t// in\n            tag_132:\n              sub(shl(0xa0, 0x01), 0x01)\n                /* \"contracts/Accessories/ERC20FACTORY.sol\":11575:11595  _balances[recipient] */\n              dup4\n              dup2\n              and\n                /* \"contracts/Accessories/ERC20FACTORY.sol\":11575:11584  _balances */\n              0x00\n                /* \"contracts/Accessories/ERC20FACTORY.sol\":11575:11595  _balances[recipient] */\n              dup2\n              dup2\n              mstore\n              0x20\n              dup2\n              dup2\n              mstore\n              0x40\n              swap2\n              dup3\n              swap1\n              keccak256\n                /* \"contracts/Accessories/ERC20FACTORY.sol\":11575:11630  _balances[recipient] = _balances[recipient].add(amount) */\n              swap5\n              swap1\n              swap5\n              sstore\n                /* \"contracts/Accessories/ERC20FACTORY.sol\":11645:11680  Transfer(sender, recipient, amount) */\n              mload\n                /* \"#utility.yul\":1342:1367   */\n              dup5\n              dup2\n              mstore\n                /* \"contracts/Accessories/ERC20FACTORY.sol\":11575:11595  _balances[recipient] */\n              swap1\n              swap3\n                /* \"contracts/Accessories/ERC20FACTORY.sol\":11645:11680  Transfer(sender, recipient, amount) */\n              swap2\n              dup7\n              and\n              swap2\n              0xddf252ad1be2c89b69c2b068fc378daa952ba7f163c4a11628f55a4df523b3ef\n              swap2\n                /* \"#utility.yul\":1315:1333   */\n              add\n                /* \"contracts/Accessories/ERC20FACTORY.sol\":11645:11680  Transfer(sender, recipient, amount) */\n              tag_121\n                /* \"#utility.yul\":1196:1373   */\n              jump\n                /* \"contracts/Accessories/ERC20FACTORY.sol\":1202:1389  function sub(uint256 a, uint256 b, string memory errorMessage) internal pure returns (uint256) {... */\n            tag_84:\n                /* \"contracts/Accessories/ERC20FACTORY.sol\":1288:1295  uint256 */\n              0x00\n                /* \"contracts/Accessories/ERC20FACTORY.sol\":1323:1335  errorMessage */\n              dup2\n                /* \"contracts/Accessories/ERC20FACTORY.sol\":1315:1321  b <= a */\n              dup5\n              dup5\n              gt\n              iszero\n                /* \"contracts/Accessories/ERC20FACTORY.sol\":1307:1336  require(b <= a, errorMessage) */\n              tag_135\n              jumpi\n              mload(0x40)\n              shl(0xe5, 0x461bcd)\n              dup2\n              mstore\n              0x04\n              add\n              tag_111\n              swap2\n              swap1\n              tag_18\n              jump\t// in\n            tag_135:\n              pop\n                /* \"contracts/Accessories/ERC20FACTORY.sol\":1346:1355  uint256 c */\n              0x00\n                /* \"contracts/Accessories/ERC20FACTORY.sol\":1358:1363  a - b */\n              tag_137\n                /* \"contracts/Accessories/ERC20FACTORY.sol\":1362:1363  b */\n              dup5\n                /* \"contracts/Accessories/ERC20FACTORY.sol\":1358:1359  a */\n              dup7\n                /* \"contracts/Accessories/ERC20FACTORY.sol\":1358:1363  a - b */\n              tag_138\n              jump\t// in\n            tag_137:\n                /* \"contracts/Accessories/ERC20FACTORY.sol\":1346:1363  uint256 c = a - b */\n              swap6\n                /* \"contracts/Accessories/ERC20FACTORY.sol\":1202:1389  function sub(uint256 a, uint256 b, string memory errorMessage) internal pure returns (uint256) {... */\n              swap5\n              pop\n              pop\n              pop\n              pop\n              pop\n              jump\t// out\n                /* \"#utility.yul\":14:562   */\n            tag_18:\n                /* \"#utility.yul\":126:130   */\n              0x00\n                /* \"#utility.yul\":155:157   */\n              0x20\n                /* \"#utility.yul\":184:186   */\n              dup1\n                /* \"#utility.yul\":173:182   */\n              dup4\n                /* \"#utility.yul\":166:187   */\n              mstore\n                /* \"#utility.yul\":216:222   */\n              dup4\n                /* \"#utility.yul\":210:223   */\n              mload\n                /* \"#utility.yul\":259:265   */\n              dup1\n                /* \"#utility.yul\":254:256   */\n              dup3\n                /* \"#utility.yul\":243:252   */\n              dup6\n                /* \"#utility.yul\":239:257   */\n              add\n                /* \"#utility.yul\":232:266   */\n              mstore\n                /* \"#utility.yul\":284:285   */\n              0x00\n                /* \"#utility.yul\":294:434   */\n            tag_144:\n                /* \"#utility.yul\":308:314   */\n              dup2\n                /* \"#utility.yul\":305:306   */\n              dup2\n                /* \"#utility.yul\":302:315   */\n              lt\n                /* \"#utility.yul\":294:434   */\n              iszero\n              tag_146\n              jumpi\n                /* \"#utility.yul\":403:417   */\n              dup6\n              dup2\n              add\n                /* \"#utility.yul\":399:422   */\n              dup4\n              add\n                /* \"#utility.yul\":393:423   */\n              mload\n                /* \"#utility.yul\":369:386   */\n              dup6\n              dup3\n              add\n                /* \"#utility.yul\":388:390   */\n              0x40\n                /* \"#utility.yul\":365:391   */\n              add\n                /* \"#utility.yul\":358:424   */\n              mstore\n                /* \"#utility.yul\":323:333   */\n              dup3\n              add\n                /* \"#utility.yul\":294:434   */\n              jump(tag_144)\n            tag_146:\n                /* \"#utility.yul\":298:301   */\n              pop\n                /* \"#utility.yul\":483:484   */\n              0x00\n                /* \"#utility.yul\":478:480   */\n              0x40\n                /* \"#utility.yul\":469:475   */\n              dup3\n                /* \"#utility.yul\":458:467   */\n              dup7\n                /* \"#utility.yul\":454:476   */\n              add\n                /* \"#utility.yul\":450:481   */\n              add\n                /* \"#utility.yul\":443:485   */\n              mstore\n                /* \"#utility.yul\":553:555   */\n              0x40\n                /* \"#utility.yul\":546:548   */\n              0x1f\n                /* \"#utility.yul\":542:549   */\n              not\n                /* \"#utility.yul\":537:539   */\n              0x1f\n                /* \"#utility.yul\":529:535   */\n              dup4\n                /* \"#utility.yul\":525:540   */\n              add\n                /* \"#utility.yul\":521:550   */\n              and\n                /* \"#utility.yul\":510:519   */\n              dup6\n                /* \"#utility.yul\":506:551   */\n              add\n                /* \"#utility.yul\":502:556   */\n              add\n                /* \"#utility.yul\":494:556   */\n              swap3\n              pop\n              pop\n              pop\n                /* \"#utility.yul\":14:562   */\n              swap3\n              swap2\n              pop\n              pop\n              jump\t// out\n                /* \"#utility.yul\":567:740   */\n            tag_140:\n                /* \"#utility.yul\":635:655   */\n              dup1\n              calldataload\n              sub(shl(0xa0, 0x01), 0x01)\n                /* \"#utility.yul\":684:715   */\n              dup2\n              and\n                /* \"#utility.yul\":674:716   */\n              dup2\n              eq\n                /* \"#utility.yul\":664:734   */\n              tag_148\n              jumpi\n                /* \"#utility.yul\":730:731   */\n              0x00\n                /* \"#utility.yul\":727:728   */\n              dup1\n                /* \"#utility.yul\":720:732   */\n              revert\n                /* \"#utility.yul\":664:734   */\n            tag_148:\n                /* \"#utility.yul\":567:740   */\n              swap2\n              swap1\n              pop\n              jump\t// out\n                /* \"#utility.yul\":745:999   */\n            tag_21:\n                /* \"#utility.yul\":813:819   */\n              0x00\n                /* \"#utility.yul\":821:827   */\n              dup1\n                /* \"#utility.yul\":874:876   */\n              0x40\n                /* \"#utility.yul\":862:871   */\n              dup4\n                /* \"#utility.yul\":853:860   */\n              dup6\n                /* \"#utility.yul\":849:872   */\n              sub\n                /* \"#utility.yul\":845:877   */\n              slt\n                /* \"#utility.yul\":842:894   */\n              iszero\n              tag_150\n              jumpi\n                /* \"#utility.yul\":890:891   */\n              0x00\n                /* \"#utility.yul\":887:888   */\n              dup1\n                /* \"#utility.yul\":880:892   */\n              revert\n                /* \"#utility.yul\":842:894   */\n            tag_150:\n                /* \"#utility.yul\":913:942   */\n              tag_151\n                /* \"#utility.yul\":932:941   */\n              dup4\n                /* \"#utility.yul\":913:942   */\n              tag_140\n              jump\t// in\n            tag_151:\n                /* \"#utility.yul\":903:942   */\n              swap5\n                /* \"#utility.yul\":989:991   */\n              0x20\n                /* \"#utility.yul\":974:992   */\n              swap4\n              swap1\n              swap4\n              add\n                /* \"#utility.yul\":961:993   */\n              calldataload\n              swap4\n              pop\n              pop\n              pop\n                /* \"#utility.yul\":745:999   */\n              jump\t// out\n                /* \"#utility.yul\":1378:1706   */\n            tag_31:\n                /* \"#utility.yul\":1455:1461   */\n              0x00\n                /* \"#utility.yul\":1463:1469   */\n              dup1\n                /* \"#utility.yul\":1471:1477   */\n              0x00\n                /* \"#utility.yul\":1524:1526   */\n              0x60\n                /* \"#utility.yul\":1512:1521   */\n              dup5\n                /* \"#utility.yul\":1503:1510   */\n              dup7\n                /* \"#utility.yul\":1499:1522   */\n              sub\n                /* \"#utility.yul\":1495:1527   */\n              slt\n                /* \"#utility.yul\":1492:1544   */\n              iszero\n              tag_155\n              jumpi\n                /* \"#utility.yul\":1540:1541   */\n              0x00\n                /* \"#utility.yul\":1537:1538   */\n              dup1\n                /* \"#utility.yul\":1530:1542   */\n              revert\n                /* \"#utility.yul\":1492:1544   */\n            tag_155:\n                /* \"#utility.yul\":1563:1592   */\n              tag_156\n                /* \"#utility.yul\":1582:1591   */\n              dup5\n                /* \"#utility.yul\":1563:1592   */\n              tag_140\n              jump\t// in\n            tag_156:\n                /* \"#utility.yul\":1553:1592   */\n              swap3\n              pop\n                /* \"#utility.yul\":1611:1649   */\n              tag_157\n                /* \"#utility.yul\":1645:1647   */\n              0x20\n                /* \"#utility.yul\":1634:1643   */\n              dup6\n                /* \"#utility.yul\":1630:1648   */\n              add\n                /* \"#utility.yul\":1611:1649   */\n              tag_140\n              jump\t// in\n            tag_157:\n                /* \"#utility.yul\":1601:1649   */\n              swap2\n              pop\n                /* \"#utility.yul\":1696:1698   */\n              0x40\n                /* \"#utility.yul\":1685:1694   */\n              dup5\n                /* \"#utility.yul\":1681:1699   */\n              add\n                /* \"#utility.yul\":1668:1700   */\n              calldataload\n                /* \"#utility.yul\":1658:1700   */\n              swap1\n              pop\n                /* \"#utility.yul\":1378:1706   */\n              swap3\n              pop\n              swap3\n              pop\n              swap3\n              jump\t// out\n                /* \"#utility.yul\":1900:2086   */\n            tag_44:\n                /* \"#utility.yul\":1959:1965   */\n              0x00\n                /* \"#utility.yul\":2012:2014   */\n              0x20\n                /* \"#utility.yul\":2000:2009   */\n              dup3\n                /* \"#utility.yul\":1991:1998   */\n              dup5\n                /* \"#utility.yul\":1987:2010   */\n              sub\n                /* \"#utility.yul\":1983:2015   */\n              slt\n                /* \"#utility.yul\":1980:2032   */\n              iszero\n              tag_160\n              jumpi\n                /* \"#utility.yul\":2028:2029   */\n              0x00\n                /* \"#utility.yul\":2025:2026   */\n              dup1\n                /* \"#utility.yul\":2018:2030   */\n              revert\n                /* \"#utility.yul\":1980:2032   */\n            tag_160:\n                /* \"#utility.yul\":2051:2080   */\n              tag_110\n                /* \"#utility.yul\":2070:2079   */\n              dup3\n                /* \"#utility.yul\":2051:2080   */\n              tag_140\n              jump\t// in\n                /* \"#utility.yul\":2091:2351   */\n            tag_60:\n                /* \"#utility.yul\":2159:2165   */\n              0x00\n                /* \"#utility.yul\":2167:2173   */\n              dup1\n                /* \"#utility.yul\":2220:2222   */\n              0x40\n                /* \"#utility.yul\":2208:2217   */\n              dup4\n                /* \"#utility.yul\":2199:2206   */\n              dup6\n                /* \"#utility.yul\":2195:2218   */\n              sub\n                /* \"#utility.yul\":2191:2223   */\n              slt\n                /* \"#utility.yul\":2188:2240   */\n              iszero\n              tag_163\n              jumpi\n                /* \"#utility.yul\":2236:2237   */\n              0x00\n                /* \"#utility.yul\":2233:2234   */\n              dup1\n                /* \"#utility.yul\":2226:2238   */\n              revert\n                /* \"#utility.yul\":2188:2240   */\n            tag_163:\n                /* \"#utility.yul\":2259:2288   */\n              tag_164\n                /* \"#utility.yul\":2278:2287   */\n              dup4\n                /* \"#utility.yul\":2259:2288   */\n              tag_140\n              jump\t// in\n            tag_164:\n                /* \"#utility.yul\":2249:2288   */\n              swap2\n              pop\n                /* \"#utility.yul\":2307:2345   */\n              tag_165\n                /* \"#utility.yul\":2341:2343   */\n              0x20\n                /* \"#utility.yul\":2330:2339   */\n              dup5\n                /* \"#utility.yul\":2326:2344   */\n              add\n                /* \"#utility.yul\":2307:2345   */\n              tag_140\n              jump\t// in\n            tag_165:\n                /* \"#utility.yul\":2297:2345   */\n              swap1\n              pop\n                /* \"#utility.yul\":2091:2351   */\n              swap3\n              pop\n              swap3\n              swap1\n              pop\n              jump\t// out\n                /* \"#utility.yul\":2356:2736   */\n            tag_66:\n                /* \"#utility.yul\":2435:2436   */\n              0x01\n                /* \"#utility.yul\":2431:2443   */\n              dup2\n              dup2\n              shr\n              swap1\n                /* \"#utility.yul\":2478:2490   */\n              dup3\n              and\n              dup1\n                /* \"#utility.yul\":2499:2560   */\n              tag_167\n              jumpi\n                /* \"#utility.yul\":2553:2557   */\n              0x7f\n                /* \"#utility.yul\":2545:2551   */\n              dup3\n                /* \"#utility.yul\":2541:2558   */\n              and\n                /* \"#utility.yul\":2531:2558   */\n              swap2\n              pop\n                /* \"#utility.yul\":2499:2560   */\n            tag_167:\n                /* \"#utility.yul\":2606:2608   */\n              0x20\n                /* \"#utility.yul\":2598:2604   */\n              dup3\n                /* \"#utility.yul\":2595:2609   */\n              lt\n                /* \"#utility.yul\":2575:2593   */\n              dup2\n                /* \"#utility.yul\":2572:2610   */\n              sub\n                /* \"#utility.yul\":2569:2730   */\n              tag_168\n              jumpi\n                /* \"#utility.yul\":2652:2662   */\n              0x4e487b71\n                /* \"#utility.yul\":2647:2650   */\n              0xe0\n                /* \"#utility.yul\":2643:2663   */\n              shl\n                /* \"#utility.yul\":2640:2641   */\n              0x00\n                /* \"#utility.yul\":2633:2664   */\n              mstore\n                /* \"#utility.yul\":2687:2691   */\n              0x22\n                /* \"#utility.yul\":2684:2685   */\n              0x04\n                /* \"#utility.yul\":2677:2692   */\n              mstore\n                /* \"#utility.yul\":2715:2719   */\n              0x24\n                /* \"#utility.yul\":2712:2713   */\n              0x00\n                /* \"#utility.yul\":2705:2720   */\n              revert\n                /* \"#utility.yul\":2569:2730   */\n            tag_168:\n              pop\n                /* \"#utility.yul\":2356:2736   */\n              swap2\n              swap1\n              pop\n              jump\t// out\n                /* \"#utility.yul\":2741:2868   */\n            tag_141:\n                /* \"#utility.yul\":2802:2812   */\n              0x4e487b71\n                /* \"#utility.yul\":2797:2800   */\n              0xe0\n                /* \"#utility.yul\":2793:2813   */\n              shl\n                /* \"#utility.yul\":2790:2791   */\n              0x00\n                /* \"#utility.yul\":2783:2814   */\n              mstore\n                /* \"#utility.yul\":2833:2837   */\n              0x11\n                /* \"#utility.yul\":2830:2831   */\n              0x04\n                /* \"#utility.yul\":2823:2838   */\n              mstore\n                /* \"#utility.yul\":2857:2861   */\n              0x24\n                /* \"#utility.yul\":2854:2855   */\n              0x00\n                /* \"#utility.yul\":2847:2862   */\n              revert\n                /* \"#utility.yul\":2873:2998   */\n            tag_109:\n                /* \"#utility.yul\":2938:2947   */\n              dup1\n              dup3\n              add\n                /* \"#utility.yul\":2959:2969   */\n              dup1\n              dup3\n              gt\n                /* \"#utility.yul\":2956:2992   */\n              iszero\n              tag_71\n              jumpi\n                /* \"#utility.yul\":2972:2990   */\n              tag_71\n              tag_141\n              jump\t// in\n                /* \"#utility.yul\":4977:5105   */\n            tag_138:\n                /* \"#utility.yul\":5044:5053   */\n              dup2\n              dup2\n              sub\n                /* \"#utility.yul\":5065:5076   */\n              dup2\n              dup2\n              gt\n                /* \"#utility.yul\":5062:5099   */\n              iszero\n              tag_71\n              jumpi\n                /* \"#utility.yul\":5079:5097   */\n              tag_71\n              tag_141\n              jump\t// in\n            stop\n            data_4107e8a8b9e94bf8ff83080ddec1c0bffe897ebc2241b89d44f66b3d274088b6 45524332303a207472616e7366657220616d6f756e7420657863656564732062616c616e6365\n            data_974d1b4421da69cc60b481194f0dad36a5bb4e23da810da7a7fb30cdba178330 45524332303a207472616e7366657220616d6f756e74206578636565647320616c6c6f77616e6365\n            data_f8b476f7d28209d77d4a4ac1fe36b9f8259aa1bb6bddfa6e89de7e51615cf8a8 45524332303a2064656372656173656420616c6c6f77616e63652062656c6f77207a65726f\n\n            auxdata: 0xa26469706673582212200f1bb9e308f64b4ad97c6c5364e5a7dd9582a2109fedd793f4a7cdbcdda3aef164736f6c63430008120033\n        }\n    }\n\n    auxdata: 0xa2646970667358221220acd74721b28205da4039af7156e74c2085121ccf7460f1879a3cb17c132b290764736f6c63430008120033\n}\n",
				"bytecode": {
					"linkReferences": {},
					"object": "608060405234801561001057600080fd5b506040516111ee3803806111ee83398101604081905261002f91610054565b600080546001600160a01b0319166001600160a01b0392909216919091179055610084565b60006020828403121561006657600080fd5b81516001600160a01b038116811461007d57600080fd5b9392505050565b61115b806100936000396000f3fe608060405234801561001057600080fd5b506004361061004c5760003560e01c80636e30199f14610051578063865e6153146100a15780638da5cb5b146100b4578063c42bd05a146100c7575b600080fd5b61008561005f366004610234565b80516020818301810180516001825292820191909301209152546001600160a01b031681565b6040516001600160a01b03909116815260200160405180910390f35b6100856100af366004610271565b6100da565b600054610085906001600160a01b031681565b600254610085906001600160a01b031681565b60008086868686866040516100ee90610184565b6100fc959493929190610364565b604051809103906000f080158015610118573d6000803e3d6000fd5b50600280546001600160a01b0319166001600160a01b038316179055604051909150819060019061014a908a906103b3565b90815260405190819003602001902080546001600160a01b03929092166001600160a01b0319909216919091179055905095945050505050565b610d56806103d083390190565b634e487b7160e01b600052604160045260246000fd5b600082601f8301126101b857600080fd5b813567ffffffffffffffff808211156101d3576101d3610191565b604051601f8301601f19908116603f011681019082821181831017156101fb576101fb610191565b8160405283815286602085880101111561021457600080fd5b836020870160208301376000602085830101528094505050505092915050565b60006020828403121561024657600080fd5b813567ffffffffffffffff81111561025d57600080fd5b610269848285016101a7565b949350505050565b600080600080600060a0868803121561028957600080fd5b853567ffffffffffffffff808211156102a157600080fd5b6102ad89838a016101a7565b965060208801359150808211156102c357600080fd5b506102d0888289016101a7565b945050604086013560ff811681146102e757600080fd5b925060608601356001600160a01b038116811461030357600080fd5b949793965091946080013592915050565b60005b8381101561032f578181015183820152602001610317565b50506000910152565b60008151808452610350816020860160208601610314565b601f01601f19169290920160200192915050565b60a08152600061037760a0830188610338565b82810360208401526103898188610338565b60ff96909616604084015250506001600160a01b0392909216606083015260809091015292915050565b600082516103c5818460208701610314565b919091019291505056fe60806040523480156200001157600080fd5b5060405162000d5638038062000d56833981016040819052620000349162000211565b60036200004286826200034f565b5060046200005185826200034f565b506005805460ff191660ff85161790556200007d81600254620000dd60201b6200037f1790919060201c565b6002556001600160a01b03821660009081526020818152604090912054620000b09183906200037f620000dd821b17901c565b6001600160a01b03909216600090815260208190526040902091909155506200043d92505050565b505050565b600080620000ec83856200041b565b905083811015620001435760405162461bcd60e51b815260206004820152601b60248201527f536166654d6174683a206164646974696f6e206f766572666c6f770000000000604482015260640160405180910390fd5b90505b92915050565b634e487b7160e01b600052604160045260246000fd5b600082601f8301126200017457600080fd5b81516001600160401b03808211156200019157620001916200014c565b604051601f8301601f19908116603f01168101908282118183101715620001bc57620001bc6200014c565b81604052838152602092508683858801011115620001d957600080fd5b600091505b83821015620001fd5785820183015181830184015290820190620001de565b600093810190920192909252949350505050565b600080600080600060a086880312156200022a57600080fd5b85516001600160401b03808211156200024257600080fd5b6200025089838a0162000162565b965060208801519150808211156200026757600080fd5b50620002768882890162000162565b945050604086015160ff811681146200028e57600080fd5b60608701519093506001600160a01b0381168114620002ac57600080fd5b80925050608086015190509295509295909350565b600181811c90821680620002d657607f821691505b602082108103620002f757634e487b7160e01b600052602260045260246000fd5b50919050565b601f821115620000d857600081815260208120601f850160051c81016020861015620003265750805b601f850160051c820191505b81811015620003475782815560010162000332565b505050505050565b81516001600160401b038111156200036b576200036b6200014c565b62000383816200037c8454620002c1565b84620002fd565b602080601f831160018114620003bb5760008415620003a25750858301515b600019600386901b1c1916600185901b17855562000347565b600085815260208120601f198616915b82811015620003ec57888601518255948401946001909101908401620003cb565b50858210156200040b5787850151600019600388901b60f8161c191681555b5050505050600190811b01905550565b808201808211156200014657634e487b7160e01b600052601160045260246000fd5b610909806200044d6000396000f3fe608060405234801561001057600080fd5b50600436106100a95760003560e01c80633950935111610071578063395093511461012957806370a082311461013c57806395d89b4114610165578063a457c2d71461016d578063a9059cbb14610180578063dd62ed3e1461019357600080fd5b806306fdde03146100ae578063095ea7b3146100cc57806318160ddd146100ef57806323b872dd14610101578063313ce56714610114575b600080fd5b6100b66101cc565b6040516100c391906106cc565b60405180910390f35b6100df6100da366004610736565b61025e565b60405190151581526020016100c3565b6002545b6040519081526020016100c3565b6100df61010f366004610760565b610275565b60055460405160ff90911681526020016100c3565b6100df610137366004610736565b6102de565b6100f361014a36600461079c565b6001600160a01b031660009081526020819052604090205490565b6100b6610314565b6100df61017b366004610736565b610323565b6100df61018e366004610736565b610372565b6100f36101a13660046107b7565b6001600160a01b03918216600090815260016020908152604080832093909416825291909152205490565b6060600380546101db906107ea565b80601f0160208091040260200160405190810160405280929190818152602001828054610207906107ea565b80156102545780601f1061022957610100808354040283529160200191610254565b820191906000526020600020905b81548152906001019060200180831161023757829003601f168201915b5050505050905090565b600061026b3384846103ea565b5060015b92915050565b600061028284848461050f565b6102d484336102cf85604051806060016040528060288152602001610887602891396001600160a01b038a1660009081526001602090815260408083203384529091529020549190610692565b6103ea565b5060019392505050565b3360008181526001602090815260408083206001600160a01b0387168452909152812054909161026b9185906102cf908661037f565b6060600480546101db906107ea565b600061026b33846102cf856040518060600160405280602581526020016108af602591393360009081526001602090815260408083206001600160a01b038d1684529091529020549190610692565b600061026b33848461050f565b60008061038c838561083a565b9050838110156103e35760405162461bcd60e51b815260206004820152601b60248201527f536166654d6174683a206164646974696f6e206f766572666c6f77000000000060448201526064015b60405180910390fd5b9392505050565b6001600160a01b03831661044c5760405162461bcd60e51b8152602060048201526024808201527f45524332303a20617070726f76652066726f6d20746865207a65726f206164646044820152637265737360e01b60648201526084016103da565b6001600160a01b0382166104ad5760405162461bcd60e51b815260206004820152602260248201527f45524332303a20617070726f766520746f20746865207a65726f206164647265604482015261737360f01b60648201526084016103da565b6001600160a01b0383811660008181526001602090815260408083209487168084529482529182902085905590518481527f8c5be1e5ebec7d5bd14f71427d1e84f3dd0314c0f7b2291e5b200ac8c7c3b92591015b60405180910390a3505050565b6001600160a01b0383166105735760405162461bcd60e51b815260206004820152602560248201527f45524332303a207472616e736665722066726f6d20746865207a65726f206164604482015264647265737360d81b60648201526084016103da565b6001600160a01b0382166105d55760405162461bcd60e51b815260206004820152602360248201527f45524332303a207472616e7366657220746f20746865207a65726f206164647260448201526265737360e81b60648201526084016103da565b61061281604051806060016040528060268152602001610861602691396001600160a01b0386166000908152602081905260409020549190610692565b6001600160a01b038085166000908152602081905260408082209390935590841681522054610641908261037f565b6001600160a01b038381166000818152602081815260409182902094909455518481529092918616917fddf252ad1be2c89b69c2b068fc378daa952ba7f163c4a11628f55a4df523b3ef9101610502565b600081848411156106b65760405162461bcd60e51b81526004016103da91906106cc565b5060006106c3848661084d565b95945050505050565b600060208083528351808285015260005b818110156106f9578581018301518582016040015282016106dd565b506000604082860101526040601f19601f8301168501019250505092915050565b80356001600160a01b038116811461073157600080fd5b919050565b6000806040838503121561074957600080fd5b6107528361071a565b946020939093013593505050565b60008060006060848603121561077557600080fd5b61077e8461071a565b925061078c6020850161071a565b9150604084013590509250925092565b6000602082840312156107ae57600080fd5b6103e38261071a565b600080604083850312156107ca57600080fd5b6107d38361071a565b91506107e16020840161071a565b90509250929050565b600181811c908216806107fe57607f821691505b60208210810361081e57634e487b7160e01b600052602260045260246000fd5b50919050565b634e487b7160e01b600052601160045260246000fd5b8082018082111561026f5761026f610824565b8181038181111561026f5761026f61082456fe45524332303a207472616e7366657220616d6f756e7420657863656564732062616c616e636545524332303a207472616e7366657220616d6f756e74206578636565647320616c6c6f77616e636545524332303a2064656372656173656420616c6c6f77616e63652062656c6f77207a65726fa26469706673582212200f1bb9e308f64b4ad97c6c5364e5a7dd9582a2109fedd793f4a7cdbcdda3aef164736f6c63430008120033a2646970667358221220acd74721b28205da4039af7156e74c2085121ccf7460f1879a3cb17c132b290764736f6c63430008120033",
					"opcodes": "PUSH1 0x80 PUSH1 0x40 MSTORE CALLVALUE DUP1 ISZERO PUSH2 0x10 JUMPI PUSH1 0x0 DUP1 REVERT JUMPDEST POP PUSH1 0x40 MLOAD PUSH2 0x11EE CODESIZE SUB DUP1 PUSH2 0x11EE DUP4 CODECOPY DUP2 ADD PUSH1 0x40 DUP2 SWAP1 MSTORE PUSH2 0x2F SWAP2 PUSH2 0x54 JUMP JUMPDEST PUSH1 0x0 DUP1 SLOAD PUSH1 0x1 PUSH1 0x1 PUSH1 0xA0 SHL SUB NOT AND PUSH1 0x1 PUSH1 0x1 PUSH1 0xA0 SHL SUB SWAP3 SWAP1 SWAP3 AND SWAP2 SWAP1 SWAP2 OR SWAP1 SSTORE PUSH2 0x84 JUMP JUMPDEST PUSH1 0x0 PUSH1 0x20 DUP3 DUP5 SUB SLT ISZERO PUSH2 0x66 JUMPI PUSH1 0x0 DUP1 REVERT JUMPDEST DUP2 MLOAD PUSH1 0x1 PUSH1 0x1 PUSH1 0xA0 SHL SUB DUP2 AND DUP2 EQ PUSH2 0x7D JUMPI PUSH1 0x0 DUP1 REVERT JUMPDEST SWAP4 SWAP3 POP POP POP JUMP JUMPDEST PUSH2 0x115B DUP1 PUSH2 0x93 PUSH1 0x0 CODECOPY PUSH1 0x0 RETURN INVALID PUSH1 0x80 PUSH1 0x40 MSTORE CALLVALUE DUP1 ISZERO PUSH2 0x10 JUMPI PUSH1 0x0 DUP1 REVERT JUMPDEST POP PUSH1 0x4 CALLDATASIZE LT PUSH2 0x4C JUMPI PUSH1 0x0 CALLDATALOAD PUSH1 0xE0 SHR DUP1 PUSH4 0x6E30199F EQ PUSH2 0x51 JUMPI DUP1 PUSH4 0x865E6153 EQ PUSH2 0xA1 JUMPI DUP1 PUSH4 0x8DA5CB5B EQ PUSH2 0xB4 JUMPI DUP1 PUSH4 0xC42BD05A EQ PUSH2 0xC7 JUMPI JUMPDEST PUSH1 0x0 DUP1 REVERT JUMPDEST PUSH2 0x85 PUSH2 0x5F CALLDATASIZE PUSH1 0x4 PUSH2 0x234 JUMP JUMPDEST DUP1 MLOAD PUSH1 0x20 DUP2 DUP4 ADD DUP2 ADD DUP1 MLOAD PUSH1 0x1 DUP3 MSTORE SWAP3 DUP3 ADD SWAP2 SWAP1 SWAP4 ADD KECCAK256 SWAP2 MSTORE SLOAD PUSH1 0x1 PUSH1 0x1 PUSH1 0xA0 SHL SUB AND DUP2 JUMP JUMPDEST PUSH1 0x40 MLOAD PUSH1 0x1 PUSH1 0x1 PUSH1 0xA0 SHL SUB SWAP1 SWAP2 AND DUP2 MSTORE PUSH1 0x20 ADD PUSH1 0x40 MLOAD DUP1 SWAP2 SUB SWAP1 RETURN JUMPDEST PUSH2 0x85 PUSH2 0xAF CALLDATASIZE PUSH1 0x4 PUSH2 0x271 JUMP JUMPDEST PUSH2 0xDA JUMP JUMPDEST PUSH1 0x0 SLOAD PUSH2 0x85 SWAP1 PUSH1 0x1 PUSH1 0x1 PUSH1 0xA0 SHL SUB AND DUP2 JUMP JUMPDEST PUSH1 0x2 SLOAD PUSH2 0x85 SWAP1 PUSH1 0x1 PUSH1 0x1 PUSH1 0xA0 SHL SUB AND DUP2 JUMP JUMPDEST PUSH1 0x0 DUP1 DUP7 DUP7 DUP7 DUP7 DUP7 PUSH1 0x40 MLOAD PUSH2 0xEE SWAP1 PUSH2 0x184 JUMP JUMPDEST PUSH2 0xFC SWAP6 SWAP5 SWAP4 SWAP3 SWAP2 SWAP1 PUSH2 0x364 JUMP JUMPDEST PUSH1 0x40 MLOAD DUP1 SWAP2 SUB SWAP1 PUSH1 0x0 CREATE DUP1 ISZERO DUP1 ISZERO PUSH2 0x118 JUMPI RETURNDATASIZE PUSH1 0x0 DUP1 RETURNDATACOPY RETURNDATASIZE PUSH1 0x0 REVERT JUMPDEST POP PUSH1 0x2 DUP1 SLOAD PUSH1 0x1 PUSH1 0x1 PUSH1 0xA0 SHL SUB NOT AND PUSH1 0x1 PUSH1 0x1 PUSH1 0xA0 SHL SUB DUP4 AND OR SWAP1 SSTORE PUSH1 0x40 MLOAD SWAP1 SWAP2 POP DUP2 SWAP1 PUSH1 0x1 SWAP1 PUSH2 0x14A SWAP1 DUP11 SWAP1 PUSH2 0x3B3 JUMP JUMPDEST SWAP1 DUP2 MSTORE PUSH1 0x40 MLOAD SWAP1 DUP2 SWAP1 SUB PUSH1 0x20 ADD SWAP1 KECCAK256 DUP1 SLOAD PUSH1 0x1 PUSH1 0x1 PUSH1 0xA0 SHL SUB SWAP3 SWAP1 SWAP3 AND PUSH1 0x1 PUSH1 0x1 PUSH1 0xA0 SHL SUB NOT SWAP1 SWAP3 AND SWAP2 SWAP1 SWAP2 OR SWAP1 SSTORE SWAP1 POP SWAP6 SWAP5 POP POP POP POP POP JUMP JUMPDEST PUSH2 0xD56 DUP1 PUSH2 0x3D0 DUP4 CODECOPY ADD SWAP1 JUMP JUMPDEST PUSH4 0x4E487B71 PUSH1 0xE0 SHL PUSH1 0x0 MSTORE PUSH1 0x41 PUSH1 0x4 MSTORE PUSH1 0x24 PUSH1 0x0 REVERT JUMPDEST PUSH1 0x0 DUP3 PUSH1 0x1F DUP4 ADD SLT PUSH2 0x1B8 JUMPI PUSH1 0x0 DUP1 REVERT JUMPDEST DUP2 CALLDATALOAD PUSH8 0xFFFFFFFFFFFFFFFF DUP1 DUP3 GT ISZERO PUSH2 0x1D3 JUMPI PUSH2 0x1D3 PUSH2 0x191 JUMP JUMPDEST PUSH1 0x40 MLOAD PUSH1 0x1F DUP4 ADD PUSH1 0x1F NOT SWAP1 DUP2 AND PUSH1 0x3F ADD AND DUP2 ADD SWAP1 DUP3 DUP3 GT DUP2 DUP4 LT OR ISZERO PUSH2 0x1FB JUMPI PUSH2 0x1FB PUSH2 0x191 JUMP JUMPDEST DUP2 PUSH1 0x40 MSTORE DUP4 DUP2 MSTORE DUP7 PUSH1 0x20 DUP6 DUP9 ADD ADD GT ISZERO PUSH2 0x214 JUMPI PUSH1 0x0 DUP1 REVERT JUMPDEST DUP4 PUSH1 0x20 DUP8 ADD PUSH1 0x20 DUP4 ADD CALLDATACOPY PUSH1 0x0 PUSH1 0x20 DUP6 DUP4 ADD ADD MSTORE DUP1 SWAP5 POP POP POP POP POP SWAP3 SWAP2 POP POP JUMP JUMPDEST PUSH1 0x0 PUSH1 0x20 DUP3 DUP5 SUB SLT ISZERO PUSH2 0x246 JUMPI PUSH1 0x0 DUP1 REVERT JUMPDEST DUP2 CALLDATALOAD PUSH8 0xFFFFFFFFFFFFFFFF DUP2 GT ISZERO PUSH2 0x25D JUMPI PUSH1 0x0 DUP1 REVERT JUMPDEST PUSH2 0x269 DUP5 DUP3 DUP6 ADD PUSH2 0x1A7 JUMP JUMPDEST SWAP5 SWAP4 POP POP POP POP JUMP JUMPDEST PUSH1 0x0 DUP1 PUSH1 0x0 DUP1 PUSH1 0x0 PUSH1 0xA0 DUP7 DUP9 SUB SLT ISZERO PUSH2 0x289 JUMPI PUSH1 0x0 DUP1 REVERT JUMPDEST DUP6 CALLDATALOAD PUSH8 0xFFFFFFFFFFFFFFFF DUP1 DUP3 GT ISZERO PUSH2 0x2A1 JUMPI PUSH1 0x0 DUP1 REVERT JUMPDEST PUSH2 0x2AD DUP10 DUP4 DUP11 ADD PUSH2 0x1A7 JUMP JUMPDEST SWAP7 POP PUSH1 0x20 DUP9 ADD CALLDATALOAD SWAP2 POP DUP1 DUP3 GT ISZERO PUSH2 0x2C3 JUMPI PUSH1 0x0 DUP1 REVERT JUMPDEST POP PUSH2 0x2D0 DUP9 DUP3 DUP10 ADD PUSH2 0x1A7 JUMP JUMPDEST SWAP5 POP POP PUSH1 0x40 DUP7 ADD CALLDATALOAD PUSH1 0xFF DUP2 AND DUP2 EQ PUSH2 0x2E7 JUMPI PUSH1 0x0 DUP1 REVERT JUMPDEST SWAP3 POP PUSH1 0x60 DUP7 ADD CALLDATALOAD PUSH1 0x1 PUSH1 0x1 PUSH1 0xA0 SHL SUB DUP2 AND DUP2 EQ PUSH2 0x303 JUMPI PUSH1 0x0 DUP1 REVERT JUMPDEST SWAP5 SWAP8 SWAP4 SWAP7 POP SWAP2 SWAP5 PUSH1 0x80 ADD CALLDATALOAD SWAP3 SWAP2 POP POP JUMP JUMPDEST PUSH1 0x0 JUMPDEST DUP4 DUP2 LT ISZERO PUSH2 0x32F JUMPI DUP2 DUP2 ADD MLOAD DUP4 DUP3 ADD MSTORE PUSH1 0x20 ADD PUSH2 0x317 JUMP JUMPDEST POP POP PUSH1 0x0 SWAP2 ADD MSTORE JUMP JUMPDEST PUSH1 0x0 DUP2 MLOAD DUP1 DUP5 MSTORE PUSH2 0x350 DUP2 PUSH1 0x20 DUP7 ADD PUSH1 0x20 DUP7 ADD PUSH2 0x314 JUMP JUMPDEST PUSH1 0x1F ADD PUSH1 0x1F NOT AND SWAP3 SWAP1 SWAP3 ADD PUSH1 0x20 ADD SWAP3 SWAP2 POP POP JUMP JUMPDEST PUSH1 0xA0 DUP2 MSTORE PUSH1 0x0 PUSH2 0x377 PUSH1 0xA0 DUP4 ADD DUP9 PUSH2 0x338 JUMP JUMPDEST DUP3 DUP2 SUB PUSH1 0x20 DUP5 ADD MSTORE PUSH2 0x389 DUP2 DUP9 PUSH2 0x338 JUMP JUMPDEST PUSH1 0xFF SWAP7 SWAP1 SWAP7 AND PUSH1 0x40 DUP5 ADD MSTORE POP POP PUSH1 0x1 PUSH1 0x1 PUSH1 0xA0 SHL SUB SWAP3 SWAP1 SWAP3 AND PUSH1 0x60 DUP4 ADD MSTORE PUSH1 0x80 SWAP1 SWAP2 ADD MSTORE SWAP3 SWAP2 POP POP JUMP JUMPDEST PUSH1 0x0 DUP3 MLOAD PUSH2 0x3C5 DUP2 DUP5 PUSH1 0x20 DUP8 ADD PUSH2 0x314 JUMP JUMPDEST SWAP2 SWAP1 SWAP2 ADD SWAP3 SWAP2 POP POP JUMP INVALID PUSH1 0x80 PUSH1 0x40 MSTORE CALLVALUE DUP1 ISZERO PUSH3 0x11 JUMPI PUSH1 0x0 DUP1 REVERT JUMPDEST POP PUSH1 0x40 MLOAD PUSH3 0xD56 CODESIZE SUB DUP1 PUSH3 0xD56 DUP4 CODECOPY DUP2 ADD PUSH1 0x40 DUP2 SWAP1 MSTORE PUSH3 0x34 SWAP2 PUSH3 0x211 JUMP JUMPDEST PUSH1 0x3 PUSH3 0x42 DUP7 DUP3 PUSH3 0x34F JUMP JUMPDEST POP PUSH1 0x4 PUSH3 0x51 DUP6 DUP3 PUSH3 0x34F JUMP JUMPDEST POP PUSH1 0x5 DUP1 SLOAD PUSH1 0xFF NOT AND PUSH1 0xFF DUP6 AND OR SWAP1 SSTORE PUSH3 0x7D DUP2 PUSH1 0x2 SLOAD PUSH3 0xDD PUSH1 0x20 SHL PUSH3 0x37F OR SWAP1 SWAP2 SWAP1 PUSH1 0x20 SHR JUMP JUMPDEST PUSH1 0x2 SSTORE PUSH1 0x1 PUSH1 0x1 PUSH1 0xA0 SHL SUB DUP3 AND PUSH1 0x0 SWAP1 DUP2 MSTORE PUSH1 0x20 DUP2 DUP2 MSTORE PUSH1 0x40 SWAP1 SWAP2 KECCAK256 SLOAD PUSH3 0xB0 SWAP2 DUP4 SWAP1 PUSH3 0x37F PUSH3 0xDD DUP3 SHL OR SWAP1 SHR JUMP JUMPDEST PUSH1 0x1 PUSH1 0x1 PUSH1 0xA0 SHL SUB SWAP1 SWAP3 AND PUSH1 0x0 SWAP1 DUP2 MSTORE PUSH1 0x20 DUP2 SWAP1 MSTORE PUSH1 0x40 SWAP1 KECCAK256 SWAP2 SWAP1 SWAP2 SSTORE POP PUSH3 0x43D SWAP3 POP POP POP JUMP JUMPDEST POP POP POP JUMP JUMPDEST PUSH1 0x0 DUP1 PUSH3 0xEC DUP4 DUP6 PUSH3 0x41B JUMP JUMPDEST SWAP1 POP DUP4 DUP2 LT ISZERO PUSH3 0x143 JUMPI PUSH1 0x40 MLOAD PUSH3 0x461BCD PUSH1 0xE5 SHL DUP2 MSTORE PUSH1 0x20 PUSH1 0x4 DUP3 ADD MSTORE PUSH1 0x1B PUSH1 0x24 DUP3 ADD MSTORE PUSH32 0x536166654D6174683A206164646974696F6E206F766572666C6F770000000000 PUSH1 0x44 DUP3 ADD MSTORE PUSH1 0x64 ADD PUSH1 0x40 MLOAD DUP1 SWAP2 SUB SWAP1 REVERT JUMPDEST SWAP1 POP JUMPDEST SWAP3 SWAP2 POP POP JUMP JUMPDEST PUSH4 0x4E487B71 PUSH1 0xE0 SHL PUSH1 0x0 MSTORE PUSH1 0x41 PUSH1 0x4 MSTORE PUSH1 0x24 PUSH1 0x0 REVERT JUMPDEST PUSH1 0x0 DUP3 PUSH1 0x1F DUP4 ADD SLT PUSH3 0x174 JUMPI PUSH1 0x0 DUP1 REVERT JUMPDEST DUP2 MLOAD PUSH1 0x1 PUSH1 0x1 PUSH1 0x40 SHL SUB DUP1 DUP3 GT ISZERO PUSH3 0x191 JUMPI PUSH3 0x191 PUSH3 0x14C JUMP JUMPDEST PUSH1 0x40 MLOAD PUSH1 0x1F DUP4 ADD PUSH1 0x1F NOT SWAP1 DUP2 AND PUSH1 0x3F ADD AND DUP2 ADD SWAP1 DUP3 DUP3 GT DUP2 DUP4 LT OR ISZERO PUSH3 0x1BC JUMPI PUSH3 0x1BC PUSH3 0x14C JUMP JUMPDEST DUP2 PUSH1 0x40 MSTORE DUP4 DUP2 MSTORE PUSH1 0x20 SWAP3 POP DUP7 DUP4 DUP6 DUP9 ADD ADD GT ISZERO PUSH3 0x1D9 JUMPI PUSH1 0x0 DUP1 REVERT JUMPDEST PUSH1 0x0 SWAP2 POP JUMPDEST DUP4 DUP3 LT ISZERO PUSH3 0x1FD JUMPI DUP6 DUP3 ADD DUP4 ADD MLOAD DUP2 DUP4 ADD DUP5 ADD MSTORE SWAP1 DUP3 ADD SWAP1 PUSH3 0x1DE JUMP JUMPDEST PUSH1 0x0 SWAP4 DUP2 ADD SWAP1 SWAP3 ADD SWAP3 SWAP1 SWAP3 MSTORE SWAP5 SWAP4 POP POP POP POP JUMP JUMPDEST PUSH1 0x0 DUP1 PUSH1 0x0 DUP1 PUSH1 0x0 PUSH1 0xA0 DUP7 DUP9 SUB SLT ISZERO PUSH3 0x22A JUMPI PUSH1 0x0 DUP1 REVERT JUMPDEST DUP6 MLOAD PUSH1 0x1 PUSH1 0x1 PUSH1 0x40 SHL SUB DUP1 DUP3 GT ISZERO PUSH3 0x242 JUMPI PUSH1 0x0 DUP1 REVERT JUMPDEST PUSH3 0x250 DUP10 DUP4 DUP11 ADD PUSH3 0x162 JUMP JUMPDEST SWAP7 POP PUSH1 0x20 DUP9 ADD MLOAD SWAP2 POP DUP1 DUP3 GT ISZERO PUSH3 0x267 JUMPI PUSH1 0x0 DUP1 REVERT JUMPDEST POP PUSH3 0x276 DUP9 DUP3 DUP10 ADD PUSH3 0x162 JUMP JUMPDEST SWAP5 POP POP PUSH1 0x40 DUP7 ADD MLOAD PUSH1 0xFF DUP2 AND DUP2 EQ PUSH3 0x28E JUMPI PUSH1 0x0 DUP1 REVERT JUMPDEST PUSH1 0x60 DUP8 ADD MLOAD SWAP1 SWAP4 POP PUSH1 0x1 PUSH1 0x1 PUSH1 0xA0 SHL SUB DUP2 AND DUP2 EQ PUSH3 0x2AC JUMPI PUSH1 0x0 DUP1 REVERT JUMPDEST DUP1 SWAP3 POP POP PUSH1 0x80 DUP7 ADD MLOAD SWAP1 POP SWAP3 SWAP6 POP SWAP3 SWAP6 SWAP1 SWAP4 POP JUMP JUMPDEST PUSH1 0x1 DUP2 DUP2 SHR SWAP1 DUP3 AND DUP1 PUSH3 0x2D6 JUMPI PUSH1 0x7F DUP3 AND SWAP2 POP JUMPDEST PUSH1 0x20 DUP3 LT DUP2 SUB PUSH3 0x2F7 JUMPI PUSH4 0x4E487B71 PUSH1 0xE0 SHL PUSH1 0x0 MSTORE PUSH1 0x22 PUSH1 0x4 MSTORE PUSH1 0x24 PUSH1 0x0 REVERT JUMPDEST POP SWAP2 SWAP1 POP JUMP JUMPDEST PUSH1 0x1F DUP3 GT ISZERO PUSH3 0xD8 JUMPI PUSH1 0x0 DUP2 DUP2 MSTORE PUSH1 0x20 DUP2 KECCAK256 PUSH1 0x1F DUP6 ADD PUSH1 0x5 SHR DUP2 ADD PUSH1 0x20 DUP7 LT ISZERO PUSH3 0x326 JUMPI POP DUP1 JUMPDEST PUSH1 0x1F DUP6 ADD PUSH1 0x5 SHR DUP3 ADD SWAP2 POP JUMPDEST DUP2 DUP2 LT ISZERO PUSH3 0x347 JUMPI DUP3 DUP2 SSTORE PUSH1 0x1 ADD PUSH3 0x332 JUMP JUMPDEST POP POP POP POP POP POP JUMP JUMPDEST DUP2 MLOAD PUSH1 0x1 PUSH1 0x1 PUSH1 0x40 SHL SUB DUP2 GT ISZERO PUSH3 0x36B JUMPI PUSH3 0x36B PUSH3 0x14C JUMP JUMPDEST PUSH3 0x383 DUP2 PUSH3 0x37C DUP5 SLOAD PUSH3 0x2C1 JUMP JUMPDEST DUP5 PUSH3 0x2FD JUMP JUMPDEST PUSH1 0x20 DUP1 PUSH1 0x1F DUP4 GT PUSH1 0x1 DUP2 EQ PUSH3 0x3BB JUMPI PUSH1 0x0 DUP5 ISZERO PUSH3 0x3A2 JUMPI POP DUP6 DUP4 ADD MLOAD JUMPDEST PUSH1 0x0 NOT PUSH1 0x3 DUP7 SWAP1 SHL SHR NOT AND PUSH1 0x1 DUP6 SWAP1 SHL OR DUP6 SSTORE PUSH3 0x347 JUMP JUMPDEST PUSH1 0x0 DUP6 DUP2 MSTORE PUSH1 0x20 DUP2 KECCAK256 PUSH1 0x1F NOT DUP7 AND SWAP2 JUMPDEST DUP3 DUP2 LT ISZERO PUSH3 0x3EC JUMPI DUP9 DUP7 ADD MLOAD DUP3 SSTORE SWAP5 DUP5 ADD SWAP5 PUSH1 0x1 SWAP1 SWAP2 ADD SWAP1 DUP5 ADD PUSH3 0x3CB JUMP JUMPDEST POP DUP6 DUP3 LT ISZERO PUSH3 0x40B JUMPI DUP8 DUP6 ADD MLOAD PUSH1 0x0 NOT PUSH1 0x3 DUP9 SWAP1 SHL PUSH1 0xF8 AND SHR NOT AND DUP2 SSTORE JUMPDEST POP POP POP POP POP PUSH1 0x1 SWAP1 DUP2 SHL ADD SWAP1 SSTORE POP JUMP JUMPDEST DUP1 DUP3 ADD DUP1 DUP3 GT ISZERO PUSH3 0x146 JUMPI PUSH4 0x4E487B71 PUSH1 0xE0 SHL PUSH1 0x0 MSTORE PUSH1 0x11 PUSH1 0x4 MSTORE PUSH1 0x24 PUSH1 0x0 REVERT JUMPDEST PUSH2 0x909 DUP1 PUSH3 0x44D PUSH1 0x0 CODECOPY PUSH1 0x0 RETURN INVALID PUSH1 0x80 PUSH1 0x40 MSTORE CALLVALUE DUP1 ISZERO PUSH2 0x10 JUMPI PUSH1 0x0 DUP1 REVERT JUMPDEST POP PUSH1 0x4 CALLDATASIZE LT PUSH2 0xA9 JUMPI PUSH1 0x0 CALLDATALOAD PUSH1 0xE0 SHR DUP1 PUSH4 0x39509351 GT PUSH2 0x71 JUMPI DUP1 PUSH4 0x39509351 EQ PUSH2 0x129 JUMPI DUP1 PUSH4 0x70A08231 EQ PUSH2 0x13C JUMPI DUP1 PUSH4 0x95D89B41 EQ PUSH2 0x165 JUMPI DUP1 PUSH4 0xA457C2D7 EQ PUSH2 0x16D JUMPI DUP1 PUSH4 0xA9059CBB EQ PUSH2 0x180 JUMPI DUP1 PUSH4 0xDD62ED3E EQ PUSH2 0x193 JUMPI PUSH1 0x0 DUP1 REVERT JUMPDEST DUP1 PUSH4 0x6FDDE03 EQ PUSH2 0xAE JUMPI DUP1 PUSH4 0x95EA7B3 EQ PUSH2 0xCC JUMPI DUP1 PUSH4 0x18160DDD EQ PUSH2 0xEF JUMPI DUP1 PUSH4 0x23B872DD EQ PUSH2 0x101 JUMPI DUP1 PUSH4 0x313CE567 EQ PUSH2 0x114 JUMPI JUMPDEST PUSH1 0x0 DUP1 REVERT JUMPDEST PUSH2 0xB6 PUSH2 0x1CC JUMP JUMPDEST PUSH1 0x40 MLOAD PUSH2 0xC3 SWAP2 SWAP1 PUSH2 0x6CC JUMP JUMPDEST PUSH1 0x40 MLOAD DUP1 SWAP2 SUB SWAP1 RETURN JUMPDEST PUSH2 0xDF PUSH2 0xDA CALLDATASIZE PUSH1 0x4 PUSH2 0x736 JUMP JUMPDEST PUSH2 0x25E JUMP JUMPDEST PUSH1 0x40 MLOAD SWAP1 ISZERO ISZERO DUP2 MSTORE PUSH1 0x20 ADD PUSH2 0xC3 JUMP JUMPDEST PUSH1 0x2 SLOAD JUMPDEST PUSH1 0x40 MLOAD SWAP1 DUP2 MSTORE PUSH1 0x20 ADD PUSH2 0xC3 JUMP JUMPDEST PUSH2 0xDF PUSH2 0x10F CALLDATASIZE PUSH1 0x4 PUSH2 0x760 JUMP JUMPDEST PUSH2 0x275 JUMP JUMPDEST PUSH1 0x5 SLOAD PUSH1 0x40 MLOAD PUSH1 0xFF SWAP1 SWAP2 AND DUP2 MSTORE PUSH1 0x20 ADD PUSH2 0xC3 JUMP JUMPDEST PUSH2 0xDF PUSH2 0x137 CALLDATASIZE PUSH1 0x4 PUSH2 0x736 JUMP JUMPDEST PUSH2 0x2DE JUMP JUMPDEST PUSH2 0xF3 PUSH2 0x14A CALLDATASIZE PUSH1 0x4 PUSH2 0x79C JUMP JUMPDEST PUSH1 0x1 PUSH1 0x1 PUSH1 0xA0 SHL SUB AND PUSH1 0x0 SWAP1 DUP2 MSTORE PUSH1 0x20 DUP2 SWAP1 MSTORE PUSH1 0x40 SWAP1 KECCAK256 SLOAD SWAP1 JUMP JUMPDEST PUSH2 0xB6 PUSH2 0x314 JUMP JUMPDEST PUSH2 0xDF PUSH2 0x17B CALLDATASIZE PUSH1 0x4 PUSH2 0x736 JUMP JUMPDEST PUSH2 0x323 JUMP JUMPDEST PUSH2 0xDF PUSH2 0x18E CALLDATASIZE PUSH1 0x4 PUSH2 0x736 JUMP JUMPDEST PUSH2 0x372 JUMP JUMPDEST PUSH2 0xF3 PUSH2 0x1A1 CALLDATASIZE PUSH1 0x4 PUSH2 0x7B7 JUMP JUMPDEST PUSH1 0x1 PUSH1 0x1 PUSH1 0xA0 SHL SUB SWAP2 DUP3 AND PUSH1 0x0 SWAP1 DUP2 MSTORE PUSH1 0x1 PUSH1 0x20 SWAP1 DUP2 MSTORE PUSH1 0x40 DUP1 DUP4 KECCAK256 SWAP4 SWAP1 SWAP5 AND DUP3 MSTORE SWAP2 SWAP1 SWAP2 MSTORE KECCAK256 SLOAD SWAP1 JUMP JUMPDEST PUSH1 0x60 PUSH1 0x3 DUP1 SLOAD PUSH2 0x1DB SWAP1 PUSH2 0x7EA JUMP JUMPDEST DUP1 PUSH1 0x1F ADD PUSH1 0x20 DUP1 SWAP2 DIV MUL PUSH1 0x20 ADD PUSH1 0x40 MLOAD SWAP1 DUP2 ADD PUSH1 0x40 MSTORE DUP1 SWAP3 SWAP2 SWAP1 DUP2 DUP2 MSTORE PUSH1 0x20 ADD DUP3 DUP1 SLOAD PUSH2 0x207 SWAP1 PUSH2 0x7EA JUMP JUMPDEST DUP1 ISZERO PUSH2 0x254 JUMPI DUP1 PUSH1 0x1F LT PUSH2 0x229 JUMPI PUSH2 0x100 DUP1 DUP4 SLOAD DIV MUL DUP4 MSTORE SWAP2 PUSH1 0x20 ADD SWAP2 PUSH2 0x254 JUMP JUMPDEST DUP3 ADD SWAP2 SWAP1 PUSH1 0x0 MSTORE PUSH1 0x20 PUSH1 0x0 KECCAK256 SWAP1 JUMPDEST DUP2 SLOAD DUP2 MSTORE SWAP1 PUSH1 0x1 ADD SWAP1 PUSH1 0x20 ADD DUP1 DUP4 GT PUSH2 0x237 JUMPI DUP3 SWAP1 SUB PUSH1 0x1F AND DUP3 ADD SWAP2 JUMPDEST POP POP POP POP POP SWAP1 POP SWAP1 JUMP JUMPDEST PUSH1 0x0 PUSH2 0x26B CALLER DUP5 DUP5 PUSH2 0x3EA JUMP JUMPDEST POP PUSH1 0x1 JUMPDEST SWAP3 SWAP2 POP POP JUMP JUMPDEST PUSH1 0x0 PUSH2 0x282 DUP5 DUP5 DUP5 PUSH2 0x50F JUMP JUMPDEST PUSH2 0x2D4 DUP5 CALLER PUSH2 0x2CF DUP6 PUSH1 0x40 MLOAD DUP1 PUSH1 0x60 ADD PUSH1 0x40 MSTORE DUP1 PUSH1 0x28 DUP2 MSTORE PUSH1 0x20 ADD PUSH2 0x887 PUSH1 0x28 SWAP2 CODECOPY PUSH1 0x1 PUSH1 0x1 PUSH1 0xA0 SHL SUB DUP11 AND PUSH1 0x0 SWAP1 DUP2 MSTORE PUSH1 0x1 PUSH1 0x20 SWAP1 DUP2 MSTORE PUSH1 0x40 DUP1 DUP4 KECCAK256 CALLER DUP5 MSTORE SWAP1 SWAP2 MSTORE SWAP1 KECCAK256 SLOAD SWAP2 SWAP1 PUSH2 0x692 JUMP JUMPDEST PUSH2 0x3EA JUMP JUMPDEST POP PUSH1 0x1 SWAP4 SWAP3 POP POP POP JUMP JUMPDEST CALLER PUSH1 0x0 DUP2 DUP2 MSTORE PUSH1 0x1 PUSH1 0x20 SWAP1 DUP2 MSTORE PUSH1 0x40 DUP1 DUP4 KECCAK256 PUSH1 0x1 PUSH1 0x1 PUSH1 0xA0 SHL SUB DUP8 AND DUP5 MSTORE SWAP1 SWAP2 MSTORE DUP2 KECCAK256 SLOAD SWAP1 SWAP2 PUSH2 0x26B SWAP2 DUP6 SWAP1 PUSH2 0x2CF SWAP1 DUP7 PUSH2 0x37F JUMP JUMPDEST PUSH1 0x60 PUSH1 0x4 DUP1 SLOAD PUSH2 0x1DB SWAP1 PUSH2 0x7EA JUMP JUMPDEST PUSH1 0x0 PUSH2 0x26B CALLER DUP5 PUSH2 0x2CF DUP6 PUSH1 0x40 MLOAD DUP1 PUSH1 0x60 ADD PUSH1 0x40 MSTORE DUP1 PUSH1 0x25 DUP2 MSTORE PUSH1 0x20 ADD PUSH2 0x8AF PUSH1 0x25 SWAP2 CODECOPY CALLER PUSH1 0x0 SWAP1 DUP2 MSTORE PUSH1 0x1 PUSH1 0x20 SWAP1 DUP2 MSTORE PUSH1 0x40 DUP1 DUP4 KECCAK256 PUSH1 0x1 PUSH1 0x1 PUSH1 0xA0 SHL SUB DUP14 AND DUP5 MSTORE SWAP1 SWAP2 MSTORE SWAP1 KECCAK256 SLOAD SWAP2 SWAP1 PUSH2 0x692 JUMP JUMPDEST PUSH1 0x0 PUSH2 0x26B CALLER DUP5 DUP5 PUSH2 0x50F JUMP JUMPDEST PUSH1 0x0 DUP1 PUSH2 0x38C DUP4 DUP6 PUSH2 0x83A JUMP JUMPDEST SWAP1 POP DUP4 DUP2 LT ISZERO PUSH2 0x3E3 JUMPI PUSH1 0x40 MLOAD PUSH3 0x461BCD PUSH1 0xE5 SHL DUP2 MSTORE PUSH1 0x20 PUSH1 0x4 DUP3 ADD MSTORE PUSH1 0x1B PUSH1 0x24 DUP3 ADD MSTORE PUSH32 0x536166654D6174683A206164646974696F6E206F766572666C6F770000000000 PUSH1 0x44 DUP3 ADD MSTORE PUSH1 0x64 ADD JUMPDEST PUSH1 0x40 MLOAD DUP1 SWAP2 SUB SWAP1 REVERT JUMPDEST SWAP4 SWAP3 POP POP POP JUMP JUMPDEST PUSH1 0x1 PUSH1 0x1 PUSH1 0xA0 SHL SUB DUP4 AND PUSH2 0x44C JUMPI PUSH1 0x40 MLOAD PUSH3 0x461BCD PUSH1 0xE5 SHL DUP2 MSTORE PUSH1 0x20 PUSH1 0x4 DUP3 ADD MSTORE PUSH1 0x24 DUP1 DUP3 ADD MSTORE PUSH32 0x45524332303A20617070726F76652066726F6D20746865207A65726F20616464 PUSH1 0x44 DUP3 ADD MSTORE PUSH4 0x72657373 PUSH1 0xE0 SHL PUSH1 0x64 DUP3 ADD MSTORE PUSH1 0x84 ADD PUSH2 0x3DA JUMP JUMPDEST PUSH1 0x1 PUSH1 0x1 PUSH1 0xA0 SHL SUB DUP3 AND PUSH2 0x4AD JUMPI PUSH1 0x40 MLOAD PUSH3 0x461BCD PUSH1 0xE5 SHL DUP2 MSTORE PUSH1 0x20 PUSH1 0x4 DUP3 ADD MSTORE PUSH1 0x22 PUSH1 0x24 DUP3 ADD MSTORE PUSH32 0x45524332303A20617070726F766520746F20746865207A65726F206164647265 PUSH1 0x44 DUP3 ADD MSTORE PUSH2 0x7373 PUSH1 0xF0 SHL PUSH1 0x64 DUP3 ADD MSTORE PUSH1 0x84 ADD PUSH2 0x3DA JUMP JUMPDEST PUSH1 0x1 PUSH1 0x1 PUSH1 0xA0 SHL SUB DUP4 DUP2 AND PUSH1 0x0 DUP2 DUP2 MSTORE PUSH1 0x1 PUSH1 0x20 SWAP1 DUP2 MSTORE PUSH1 0x40 DUP1 DUP4 KECCAK256 SWAP5 DUP8 AND DUP1 DUP5 MSTORE SWAP5 DUP3 MSTORE SWAP2 DUP3 SWAP1 KECCAK256 DUP6 SWAP1 SSTORE SWAP1 MLOAD DUP5 DUP2 MSTORE PUSH32 0x8C5BE1E5EBEC7D5BD14F71427D1E84F3DD0314C0F7B2291E5B200AC8C7C3B925 SWAP2 ADD JUMPDEST PUSH1 0x40 MLOAD DUP1 SWAP2 SUB SWAP1 LOG3 POP POP POP JUMP JUMPDEST PUSH1 0x1 PUSH1 0x1 PUSH1 0xA0 SHL SUB DUP4 AND PUSH2 0x573 JUMPI PUSH1 0x40 MLOAD PUSH3 0x461BCD PUSH1 0xE5 SHL DUP2 MSTORE PUSH1 0x20 PUSH1 0x4 DUP3 ADD MSTORE PUSH1 0x25 PUSH1 0x24 DUP3 ADD MSTORE PUSH32 0x45524332303A207472616E736665722066726F6D20746865207A65726F206164 PUSH1 0x44 DUP3 ADD MSTORE PUSH5 0x6472657373 PUSH1 0xD8 SHL PUSH1 0x64 DUP3 ADD MSTORE PUSH1 0x84 ADD PUSH2 0x3DA JUMP JUMPDEST PUSH1 0x1 PUSH1 0x1 PUSH1 0xA0 SHL SUB DUP3 AND PUSH2 0x5D5 JUMPI PUSH1 0x40 MLOAD PUSH3 0x461BCD PUSH1 0xE5 SHL DUP2 MSTORE PUSH1 0x20 PUSH1 0x4 DUP3 ADD MSTORE PUSH1 0x23 PUSH1 0x24 DUP3 ADD MSTORE PUSH32 0x45524332303A207472616E7366657220746F20746865207A65726F2061646472 PUSH1 0x44 DUP3 ADD MSTORE PUSH3 0x657373 PUSH1 0xE8 SHL PUSH1 0x64 DUP3 ADD MSTORE PUSH1 0x84 ADD PUSH2 0x3DA JUMP JUMPDEST PUSH2 0x612 DUP2 PUSH1 0x40 MLOAD DUP1 PUSH1 0x60 ADD PUSH1 0x40 MSTORE DUP1 PUSH1 0x26 DUP2 MSTORE PUSH1 0x20 ADD PUSH2 0x861 PUSH1 0x26 SWAP2 CODECOPY PUSH1 0x1 PUSH1 0x1 PUSH1 0xA0 SHL SUB DUP7 AND PUSH1 0x0 SWAP1 DUP2 MSTORE PUSH1 0x20 DUP2 SWAP1 MSTORE PUSH1 0x40 SWAP1 KECCAK256 SLOAD SWAP2 SWAP1 PUSH2 0x692 JUMP JUMPDEST PUSH1 0x1 PUSH1 0x1 PUSH1 0xA0 SHL SUB DUP1 DUP6 AND PUSH1 0x0 SWAP1 DUP2 MSTORE PUSH1 0x20 DUP2 SWAP1 MSTORE PUSH1 0x40 DUP1 DUP3 KECCAK256 SWAP4 SWAP1 SWAP4 SSTORE SWAP1 DUP5 AND DUP2 MSTORE KECCAK256 SLOAD PUSH2 0x641 SWAP1 DUP3 PUSH2 0x37F JUMP JUMPDEST PUSH1 0x1 PUSH1 0x1 PUSH1 0xA0 SHL SUB DUP4 DUP2 AND PUSH1 0x0 DUP2 DUP2 MSTORE PUSH1 0x20 DUP2 DUP2 MSTORE PUSH1 0x40 SWAP2 DUP3 SWAP1 KECCAK256 SWAP5 SWAP1 SWAP5 SSTORE MLOAD DUP5 DUP2 MSTORE SWAP1 SWAP3 SWAP2 DUP7 AND SWAP2 PUSH32 0xDDF252AD1BE2C89B69C2B068FC378DAA952BA7F163C4A11628F55A4DF523B3EF SWAP2 ADD PUSH2 0x502 JUMP JUMPDEST PUSH1 0x0 DUP2 DUP5 DUP5 GT ISZERO PUSH2 0x6B6 JUMPI PUSH1 0x40 MLOAD PUSH3 0x461BCD PUSH1 0xE5 SHL DUP2 MSTORE PUSH1 0x4 ADD PUSH2 0x3DA SWAP2 SWAP1 PUSH2 0x6CC JUMP JUMPDEST POP PUSH1 0x0 PUSH2 0x6C3 DUP5 DUP7 PUSH2 0x84D JUMP JUMPDEST SWAP6 SWAP5 POP POP POP POP POP JUMP JUMPDEST PUSH1 0x0 PUSH1 0x20 DUP1 DUP4 MSTORE DUP4 MLOAD DUP1 DUP3 DUP6 ADD MSTORE PUSH1 0x0 JUMPDEST DUP2 DUP2 LT ISZERO PUSH2 0x6F9 JUMPI DUP6 DUP2 ADD DUP4 ADD MLOAD DUP6 DUP3 ADD PUSH1 0x40 ADD MSTORE DUP3 ADD PUSH2 0x6DD JUMP JUMPDEST POP PUSH1 0x0 PUSH1 0x40 DUP3 DUP7 ADD ADD MSTORE PUSH1 0x40 PUSH1 0x1F NOT PUSH1 0x1F DUP4 ADD AND DUP6 ADD ADD SWAP3 POP POP POP SWAP3 SWAP2 POP POP JUMP JUMPDEST DUP1 CALLDATALOAD PUSH1 0x1 PUSH1 0x1 PUSH1 0xA0 SHL SUB DUP2 AND DUP2 EQ PUSH2 0x731 JUMPI PUSH1 0x0 DUP1 REVERT JUMPDEST SWAP2 SWAP1 POP JUMP JUMPDEST PUSH1 0x0 DUP1 PUSH1 0x40 DUP4 DUP6 SUB SLT ISZERO PUSH2 0x749 JUMPI PUSH1 0x0 DUP1 REVERT JUMPDEST PUSH2 0x752 DUP4 PUSH2 0x71A JUMP JUMPDEST SWAP5 PUSH1 0x20 SWAP4 SWAP1 SWAP4 ADD CALLDATALOAD SWAP4 POP POP POP JUMP JUMPDEST PUSH1 0x0 DUP1 PUSH1 0x0 PUSH1 0x60 DUP5 DUP7 SUB SLT ISZERO PUSH2 0x775 JUMPI PUSH1 0x0 DUP1 REVERT JUMPDEST PUSH2 0x77E DUP5 PUSH2 0x71A JUMP JUMPDEST SWAP3 POP PUSH2 0x78C PUSH1 0x20 DUP6 ADD PUSH2 0x71A JUMP JUMPDEST SWAP2 POP PUSH1 0x40 DUP5 ADD CALLDATALOAD SWAP1 POP SWAP3 POP SWAP3 POP SWAP3 JUMP JUMPDEST PUSH1 0x0 PUSH1 0x20 DUP3 DUP5 SUB SLT ISZERO PUSH2 0x7AE JUMPI PUSH1 0x0 DUP1 REVERT JUMPDEST PUSH2 0x3E3 DUP3 PUSH2 0x71A JUMP JUMPDEST PUSH1 0x0 DUP1 PUSH1 0x40 DUP4 DUP6 SUB SLT ISZERO PUSH2 0x7CA JUMPI PUSH1 0x0 DUP1 REVERT JUMPDEST PUSH2 0x7D3 DUP4 PUSH2 0x71A JUMP JUMPDEST SWAP2 POP PUSH2 0x7E1 PUSH1 0x20 DUP5 ADD PUSH2 0x71A JUMP JUMPDEST SWAP1 POP SWAP3 POP SWAP3 SWAP1 POP JUMP JUMPDEST PUSH1 0x1 DUP2 DUP2 SHR SWAP1 DUP3 AND DUP1 PUSH2 0x7FE JUMPI PUSH1 0x7F DUP3 AND SWAP2 POP JUMPDEST PUSH1 0x20 DUP3 LT DUP2 SUB PUSH2 0x81E JUMPI PUSH4 0x4E487B71 PUSH1 0xE0 SHL PUSH1 0x0 MSTORE PUSH1 0x22 PUSH1 0x4 MSTORE PUSH1 0x24 PUSH1 0x0 REVERT JUMPDEST POP SWAP2 SWAP1 POP JUMP JUMPDEST PUSH4 0x4E487B71 PUSH1 0xE0 SHL PUSH1 0x0 MSTORE PUSH1 0x11 PUSH1 0x4 MSTORE PUSH1 0x24 PUSH1 0x0 REVERT JUMPDEST DUP1 DUP3 ADD DUP1 DUP3 GT ISZERO PUSH2 0x26F JUMPI PUSH2 0x26F PUSH2 0x824 JUMP JUMPDEST DUP2 DUP2 SUB DUP2 DUP2 GT ISZERO PUSH2 0x26F JUMPI PUSH2 0x26F PUSH2 0x824 JUMP INVALID GASLIMIT MSTORE NUMBER ORIGIN ADDRESS GASPRICE KECCAK256 PUSH21 0x72616E7366657220616D6F756E7420657863656564 PUSH20 0x2062616C616E636545524332303A207472616E73 PUSH7 0x657220616D6F75 PUSH15 0x74206578636565647320616C6C6F77 PUSH2 0x6E63 PUSH6 0x45524332303A KECCAK256 PUSH5 0x6563726561 PUSH20 0x656420616C6C6F77616E63652062656C6F77207A PUSH6 0x726FA2646970 PUSH7 0x73582212200F1B 0xB9 0xE3 ADDMOD 0xF6 0x4B 0x4A 0xD9 PUSH29 0x6C5364E5A7DD9582A2109FEDD793F4A7CDBCDDA3AEF164736F6C634300 ADDMOD SLT STOP CALLER LOG2 PUSH5 0x6970667358 0x22 SLT KECCAK256 0xAC 0xD7 SELFBALANCE 0x21 0xB2 DUP3 SDIV 0xDA BLOCKHASH CODECOPY 0xAF PUSH18 0x56E74C2085121CCF7460F1879A3CB17C132B 0x29 SMOD PUSH5 0x736F6C6343 STOP ADDMOD SLT STOP CALLER "
				},
				"gasEstimates": {
					"creation": {
						"codeDepositCost": "888600",
						"executionCost": "infinite",
						"totalCost": "infinite"
					},
					"external": {
						"creatToken(string,string,uint8,address,uint256)": "infinite",
						"newToken()": "2369",
						"owner()": "2347",
						"tokenAddress(string)": "infinite"
					}
				},
				"methodIdentifiers": {
					"creatToken(string,string,uint8,address,uint256)": "865e6153",
					"newToken()": "c42bd05a",
					"owner()": "8da5cb5b",
					"tokenAddress(string)": "6e30199f"
				}
			},
			"storageLayout": {
				"storage": [
					{
						"astId": 756,
						"contract": "contracts/Accessories/ERC20FACTORY.sol:ERC20Factory",
						"label": "owner",
						"offset": 0,
						"slot": "0",
						"type": "t_address"
					},
					{
						"astId": 760,
						"contract": "contracts/Accessories/ERC20FACTORY.sol:ERC20Factory",
						"label": "tokenAddress",
						"offset": 0,
						"slot": "1",
						"type": "t_mapping(t_string_memory_ptr,t_address)"
					},
					{
						"astId": 772,
						"contract": "contracts/Accessories/ERC20FACTORY.sol:ERC20Factory",
						"label": "newToken",
						"offset": 0,
						"slot": "2",
						"type": "t_address"
					}
				],
				"types": {
					"t_address": {
						"encoding": "inplace",
						"label": "address",
						"numberOfBytes": "20"
					},
					"t_mapping(t_string_memory_ptr,t_address)": {
						"encoding": "mapping",
						"key": "t_string_memory_ptr",
						"label": "mapping(string => address)",
						"numberOfBytes": "32",
						"value": "t_address"
					},
					"t_string_memory_ptr": {
						"encoding": "bytes",
						"label": "string",
						"numberOfBytes": "32"
					}
				}
			},
			"userdoc": {
				"kind": "user",
				"methods": {},
				"version": 1
			}
		}
	}
}