{
	"contracts/Accessories/ERC20FACTORY.sol": {
		"ERC20Factory": {
			"abi": [
				{
					"inputs": [
						{
							"internalType": "address",
							"name": "owner_",
							"type": "address"
						}
					],
					"stateMutability": "nonpayable",
					"type": "constructor"
				},
				{
					"inputs": [
						{
							"internalType": "string",
							"name": "tokenName_",
							"type": "string"
						},
						{
							"internalType": "string",
							"name": "symbol_",
							"type": "string"
						},
						{
							"internalType": "uint8",
							"name": "decimals_",
							"type": "uint8"
						},
						{
							"internalType": "address",
							"name": "owner_",
							"type": "address"
						},
						{
							"internalType": "uint256",
							"name": "totalSupply_",
							"type": "uint256"
						}
					],
					"name": "creatToken",
					"outputs": [
						{
							"internalType": "address",
							"name": "",
							"type": "address"
						}
					],
					"stateMutability": "nonpayable",
					"type": "function"
				},
				{
					"inputs": [],
					"name": "newToken",
					"outputs": [
						{
							"internalType": "address",
							"name": "",
							"type": "address"
						}
					],
					"stateMutability": "view",
					"type": "function"
				},
				{
					"inputs": [],
					"name": "owner",
					"outputs": [
						{
							"internalType": "address",
							"name": "",
							"type": "address"
						}
					],
					"stateMutability": "view",
					"type": "function"
				},
				{
					"inputs": [
						{
							"internalType": "string",
							"name": "",
							"type": "string"
						}
					],
					"name": "tokenAddress",
					"outputs": [
						{
							"internalType": "address",
							"name": "",
							"type": "address"
						}
					],
					"stateMutability": "view",
					"type": "function"
				}
			],
			"devdoc": {
				"kind": "dev",
				"methods": {},
				"version": 1
			},
			"evm": {
				"assembly": "    /* \"contracts/Accessories/ERC20FACTORY.sol\":14900:15630  contract ERC20Factory{... */\n  mstore(0x40, 0x80)\n    /* \"contracts/Accessories/ERC20FACTORY.sol\":15197:15257  constructor(address owner_)  {... */\n  callvalue\n  dup1\n  iszero\n  tag_1\n  jumpi\n  0x00\n  dup1\n  revert\ntag_1:\n  pop\n  mload(0x40)\n  sub(codesize, bytecodeSize)\n  dup1\n  bytecodeSize\n  dup4\n  codecopy\n  dup2\n  dup2\n  add\n  0x40\n  mstore\n  dup2\n  add\n  swap1\n  tag_2\n  swap2\n  swap1\n  tag_3\n  jump\t// in\ntag_2:\n    /* \"contracts/Accessories/ERC20FACTORY.sol\":15244:15250  owner_ */\n  dup1\n    /* \"contracts/Accessories/ERC20FACTORY.sol\":15236:15241  owner */\n  0x00\n  dup1\n    /* \"contracts/Accessories/ERC20FACTORY.sol\":15236:15250  owner = owner_ */\n  0x0100\n  exp\n  dup2\n  sload\n  dup2\n  0xffffffffffffffffffffffffffffffffffffffff\n  mul\n  not\n  and\n  swap1\n  dup4\n  0xffffffffffffffffffffffffffffffffffffffff\n  and\n  mul\n  or\n  swap1\n  sstore\n  pop\n    /* \"contracts/Accessories/ERC20FACTORY.sol\":15197:15257  constructor(address owner_)  {... */\n  pop\n    /* \"contracts/Accessories/ERC20FACTORY.sol\":14900:15630  contract ERC20Factory{... */\n  jump(tag_6)\n    /* \"#utility.yul\":88:205   */\ntag_8:\n    /* \"#utility.yul\":197:198   */\n  0x00\n    /* \"#utility.yul\":194:195   */\n  dup1\n    /* \"#utility.yul\":187:199   */\n  revert\n    /* \"#utility.yul\":334:460   */\ntag_10:\n    /* \"#utility.yul\":371:378   */\n  0x00\n    /* \"#utility.yul\":411:453   */\n  0xffffffffffffffffffffffffffffffffffffffff\n    /* \"#utility.yul\":404:409   */\n  dup3\n    /* \"#utility.yul\":400:454   */\n  and\n    /* \"#utility.yul\":389:454   */\n  swap1\n  pop\n    /* \"#utility.yul\":334:460   */\n  swap2\n  swap1\n  pop\n  jump\t// out\n    /* \"#utility.yul\":466:562   */\ntag_11:\n    /* \"#utility.yul\":503:510   */\n  0x00\n    /* \"#utility.yul\":532:556   */\n  tag_20\n    /* \"#utility.yul\":550:555   */\n  dup3\n    /* \"#utility.yul\":532:556   */\n  tag_10\n  jump\t// in\ntag_20:\n    /* \"#utility.yul\":521:556   */\n  swap1\n  pop\n    /* \"#utility.yul\":466:562   */\n  swap2\n  swap1\n  pop\n  jump\t// out\n    /* \"#utility.yul\":568:690   */\ntag_12:\n    /* \"#utility.yul\":641:665   */\n  tag_22\n    /* \"#utility.yul\":659:664   */\n  dup2\n    /* \"#utility.yul\":641:665   */\n  tag_11\n  jump\t// in\ntag_22:\n    /* \"#utility.yul\":634:639   */\n  dup2\n    /* \"#utility.yul\":631:666   */\n  eq\n    /* \"#utility.yul\":621:684   */\n  tag_23\n  jumpi\n    /* \"#utility.yul\":680:681   */\n  0x00\n    /* \"#utility.yul\":677:678   */\n  dup1\n    /* \"#utility.yul\":670:682   */\n  revert\n    /* \"#utility.yul\":621:684   */\ntag_23:\n    /* \"#utility.yul\":568:690   */\n  pop\n  jump\t// out\n    /* \"#utility.yul\":696:839   */\ntag_13:\n    /* \"#utility.yul\":753:758   */\n  0x00\n    /* \"#utility.yul\":784:790   */\n  dup2\n    /* \"#utility.yul\":778:791   */\n  mload\n    /* \"#utility.yul\":769:791   */\n  swap1\n  pop\n    /* \"#utility.yul\":800:833   */\n  tag_25\n    /* \"#utility.yul\":827:832   */\n  dup2\n    /* \"#utility.yul\":800:833   */\n  tag_12\n  jump\t// in\ntag_25:\n    /* \"#utility.yul\":696:839   */\n  swap3\n  swap2\n  pop\n  pop\n  jump\t// out\n    /* \"#utility.yul\":845:1196   */\ntag_3:\n    /* \"#utility.yul\":915:921   */\n  0x00\n    /* \"#utility.yul\":964:966   */\n  0x20\n    /* \"#utility.yul\":952:961   */\n  dup3\n    /* \"#utility.yul\":943:950   */\n  dup5\n    /* \"#utility.yul\":939:962   */\n  sub\n    /* \"#utility.yul\":935:967   */\n  slt\n    /* \"#utility.yul\":932:1051   */\n  iszero\n  tag_27\n  jumpi\n    /* \"#utility.yul\":970:1049   */\n  tag_28\n  tag_8\n  jump\t// in\ntag_28:\n    /* \"#utility.yul\":932:1051   */\ntag_27:\n    /* \"#utility.yul\":1090:1091   */\n  0x00\n    /* \"#utility.yul\":1115:1179   */\n  tag_29\n    /* \"#utility.yul\":1171:1178   */\n  dup5\n    /* \"#utility.yul\":1162:1168   */\n  dup3\n    /* \"#utility.yul\":1151:1160   */\n  dup6\n    /* \"#utility.yul\":1147:1169   */\n  add\n    /* \"#utility.yul\":1115:1179   */\n  tag_13\n  jump\t// in\ntag_29:\n    /* \"#utility.yul\":1105:1179   */\n  swap2\n  pop\n    /* \"#utility.yul\":1061:1189   */\n  pop\n    /* \"#utility.yul\":845:1196   */\n  swap3\n  swap2\n  pop\n  pop\n  jump\t// out\n    /* \"contracts/Accessories/ERC20FACTORY.sol\":14900:15630  contract ERC20Factory{... */\ntag_6:\n  dataSize(sub_0)\n  dup1\n  dataOffset(sub_0)\n  0x00\n  codecopy\n  0x00\n  return\nstop\n\nsub_0: assembly {\n        /* \"contracts/Accessories/ERC20FACTORY.sol\":14900:15630  contract ERC20Factory{... */\n      mstore(0x40, 0x80)\n      callvalue\n      dup1\n      iszero\n      tag_1\n      jumpi\n      0x00\n      dup1\n      revert\n    tag_1:\n      pop\n      jumpi(tag_2, lt(calldatasize, 0x04))\n      shr(0xe0, calldataload(0x00))\n      dup1\n      0x6e30199f\n      eq\n      tag_3\n      jumpi\n      dup1\n      0x865e6153\n      eq\n      tag_4\n      jumpi\n      dup1\n      0x8da5cb5b\n      eq\n      tag_5\n      jumpi\n      dup1\n      0xc42bd05a\n      eq\n      tag_6\n      jumpi\n    tag_2:\n      0x00\n      dup1\n      revert\n        /* \"contracts/Accessories/ERC20FACTORY.sol\":15145:15191  mapping(string => address) public tokenAddress */\n    tag_3:\n      tag_7\n      0x04\n      dup1\n      calldatasize\n      sub\n      dup2\n      add\n      swap1\n      tag_8\n      swap2\n      swap1\n      tag_9\n      jump\t// in\n    tag_8:\n      tag_10\n      jump\t// in\n    tag_7:\n      mload(0x40)\n      tag_11\n      swap2\n      swap1\n      tag_12\n      jump\t// in\n    tag_11:\n      mload(0x40)\n      dup1\n      swap2\n      sub\n      swap1\n      return\n        /* \"contracts/Accessories/ERC20FACTORY.sol\":15291:15623  function creatToken(string memory tokenName_,string memory symbol_,uint8 decimals_, address owner_,uint totalSupply_) public returns(address){... */\n    tag_4:\n      tag_13\n      0x04\n      dup1\n      calldatasize\n      sub\n      dup2\n      add\n      swap1\n      tag_14\n      swap2\n      swap1\n      tag_15\n      jump\t// in\n    tag_14:\n      tag_16\n      jump\t// in\n    tag_13:\n      mload(0x40)\n      tag_17\n      swap2\n      swap1\n      tag_12\n      jump\t// in\n    tag_17:\n      mload(0x40)\n      dup1\n      swap2\n      sub\n      swap1\n      return\n        /* \"contracts/Accessories/ERC20FACTORY.sol\":15119:15139  address public owner */\n    tag_5:\n      tag_18\n      tag_19\n      jump\t// in\n    tag_18:\n      mload(0x40)\n      tag_20\n      swap2\n      swap1\n      tag_12\n      jump\t// in\n    tag_20:\n      mload(0x40)\n      dup1\n      swap2\n      sub\n      swap1\n      return\n        /* \"contracts/Accessories/ERC20FACTORY.sol\":15262:15285  address public newToken */\n    tag_6:\n      tag_21\n      tag_22\n      jump\t// in\n    tag_21:\n      mload(0x40)\n      tag_23\n      swap2\n      swap1\n      tag_12\n      jump\t// in\n    tag_23:\n      mload(0x40)\n      dup1\n      swap2\n      sub\n      swap1\n      return\n        /* \"contracts/Accessories/ERC20FACTORY.sol\":15145:15191  mapping(string => address) public tokenAddress */\n    tag_10:\n      0x01\n      dup2\n      dup1\n      mload\n      0x20\n      dup2\n      add\n      dup3\n      add\n      dup1\n      mload\n      dup5\n      dup3\n      mstore\n      0x20\n      dup4\n      add\n      0x20\n      dup6\n      add\n      keccak256\n      dup2\n      dup4\n      mstore\n      dup1\n      swap6\n      pop\n      pop\n      pop\n      pop\n      pop\n      pop\n      0x00\n      swap2\n      pop\n      sload\n      swap1\n      0x0100\n      exp\n      swap1\n      div\n      0xffffffffffffffffffffffffffffffffffffffff\n      and\n      dup2\n      jump\t// out\n        /* \"contracts/Accessories/ERC20FACTORY.sol\":15291:15623  function creatToken(string memory tokenName_,string memory symbol_,uint8 decimals_, address owner_,uint totalSupply_) public returns(address){... */\n    tag_16:\n        /* \"contracts/Accessories/ERC20FACTORY.sol\":15424:15431  address */\n      0x00\n        /* \"contracts/Accessories/ERC20FACTORY.sol\":15442:15455  address token */\n      dup1\n        /* \"contracts/Accessories/ERC20FACTORY.sol\":15476:15486  tokenName_ */\n      dup7\n        /* \"contracts/Accessories/ERC20FACTORY.sol\":15487:15494  symbol_ */\n      dup7\n        /* \"contracts/Accessories/ERC20FACTORY.sol\":15495:15504  decimals_ */\n      dup7\n        /* \"contracts/Accessories/ERC20FACTORY.sol\":15505:15511  owner_ */\n      dup7\n        /* \"contracts/Accessories/ERC20FACTORY.sol\":15512:15524  totalSupply_ */\n      dup7\n        /* \"contracts/Accessories/ERC20FACTORY.sol\":15466:15525  new ERC20(tokenName_,symbol_,decimals_,owner_,totalSupply_) */\n      mload(0x40)\n      tag_25\n      swap1\n      tag_26\n      jump\t// in\n    tag_25:\n      tag_27\n      swap6\n      swap5\n      swap4\n      swap3\n      swap2\n      swap1\n      tag_28\n      jump\t// in\n    tag_27:\n      mload(0x40)\n      dup1\n      swap2\n      sub\n      swap1\n      0x00\n      create\n      dup1\n      iszero\n      dup1\n      iszero\n      tag_29\n      jumpi\n      returndatasize\n      0x00\n      dup1\n      returndatacopy\n      revert(0x00, returndatasize)\n    tag_29:\n      pop\n        /* \"contracts/Accessories/ERC20FACTORY.sol\":15442:15526  address token = address(new ERC20(tokenName_,symbol_,decimals_,owner_,totalSupply_)) */\n      swap1\n      pop\n        /* \"contracts/Accessories/ERC20FACTORY.sol\":15547:15552  token */\n      dup1\n        /* \"contracts/Accessories/ERC20FACTORY.sol\":15536:15544  newToken */\n      0x02\n      0x00\n        /* \"contracts/Accessories/ERC20FACTORY.sol\":15536:15552  newToken = token */\n      0x0100\n      exp\n      dup2\n      sload\n      dup2\n      0xffffffffffffffffffffffffffffffffffffffff\n      mul\n      not\n      and\n      swap1\n      dup4\n      0xffffffffffffffffffffffffffffffffffffffff\n      and\n      mul\n      or\n      swap1\n      sstore\n      pop\n        /* \"contracts/Accessories/ERC20FACTORY.sol\":15589:15594  token */\n      dup1\n        /* \"contracts/Accessories/ERC20FACTORY.sol\":15562:15574  tokenAddress */\n      0x01\n        /* \"contracts/Accessories/ERC20FACTORY.sol\":15575:15585  tokenName_ */\n      dup9\n        /* \"contracts/Accessories/ERC20FACTORY.sol\":15562:15586  tokenAddress[tokenName_] */\n      mload(0x40)\n      tag_30\n      swap2\n      swap1\n      tag_31\n      jump\t// in\n    tag_30:\n      swap1\n      dup2\n      mstore\n      0x20\n      add\n      mload(0x40)\n      dup1\n      swap2\n      sub\n      swap1\n      keccak256\n      0x00\n        /* \"contracts/Accessories/ERC20FACTORY.sol\":15562:15594  tokenAddress[tokenName_] = token */\n      0x0100\n      exp\n      dup2\n      sload\n      dup2\n      0xffffffffffffffffffffffffffffffffffffffff\n      mul\n      not\n      and\n      swap1\n      dup4\n      0xffffffffffffffffffffffffffffffffffffffff\n      and\n      mul\n      or\n      swap1\n      sstore\n      pop\n        /* \"contracts/Accessories/ERC20FACTORY.sol\":15611:15616  token */\n      dup1\n        /* \"contracts/Accessories/ERC20FACTORY.sol\":15604:15616  return token */\n      swap2\n      pop\n      pop\n        /* \"contracts/Accessories/ERC20FACTORY.sol\":15291:15623  function creatToken(string memory tokenName_,string memory symbol_,uint8 decimals_, address owner_,uint totalSupply_) public returns(address){... */\n      swap6\n      swap5\n      pop\n      pop\n      pop\n      pop\n      pop\n      jump\t// out\n        /* \"contracts/Accessories/ERC20FACTORY.sol\":15119:15139  address public owner */\n    tag_19:\n      0x00\n      dup1\n      sload\n      swap1\n      0x0100\n      exp\n      swap1\n      div\n      0xffffffffffffffffffffffffffffffffffffffff\n      and\n      dup2\n      jump\t// out\n        /* \"contracts/Accessories/ERC20FACTORY.sol\":15262:15285  address public newToken */\n    tag_22:\n      0x02\n      0x00\n      swap1\n      sload\n      swap1\n      0x0100\n      exp\n      swap1\n      div\n      0xffffffffffffffffffffffffffffffffffffffff\n      and\n      dup2\n      jump\t// out\n    tag_26:\n      dataSize(sub_0)\n      dup1\n      dataOffset(sub_0)\n      dup4\n      codecopy\n      add\n      swap1\n      jump\t// out\n        /* \"#utility.yul\":7:82   */\n    tag_32:\n        /* \"#utility.yul\":40:46   */\n      0x00\n        /* \"#utility.yul\":73:75   */\n      0x40\n        /* \"#utility.yul\":67:76   */\n      mload\n        /* \"#utility.yul\":57:76   */\n      swap1\n      pop\n        /* \"#utility.yul\":7:82   */\n      swap1\n      jump\t// out\n        /* \"#utility.yul\":88:205   */\n    tag_33:\n        /* \"#utility.yul\":197:198   */\n      0x00\n        /* \"#utility.yul\":194:195   */\n      dup1\n        /* \"#utility.yul\":187:199   */\n      revert\n        /* \"#utility.yul\":211:328   */\n    tag_34:\n        /* \"#utility.yul\":320:321   */\n      0x00\n        /* \"#utility.yul\":317:318   */\n      dup1\n        /* \"#utility.yul\":310:322   */\n      revert\n        /* \"#utility.yul\":334:451   */\n    tag_35:\n        /* \"#utility.yul\":443:444   */\n      0x00\n        /* \"#utility.yul\":440:441   */\n      dup1\n        /* \"#utility.yul\":433:445   */\n      revert\n        /* \"#utility.yul\":457:574   */\n    tag_36:\n        /* \"#utility.yul\":566:567   */\n      0x00\n        /* \"#utility.yul\":563:564   */\n      dup1\n        /* \"#utility.yul\":556:568   */\n      revert\n        /* \"#utility.yul\":580:682   */\n    tag_37:\n        /* \"#utility.yul\":621:627   */\n      0x00\n        /* \"#utility.yul\":672:674   */\n      0x1f\n        /* \"#utility.yul\":668:675   */\n      not\n        /* \"#utility.yul\":663:665   */\n      0x1f\n        /* \"#utility.yul\":656:661   */\n      dup4\n        /* \"#utility.yul\":652:666   */\n      add\n        /* \"#utility.yul\":648:676   */\n      and\n        /* \"#utility.yul\":638:676   */\n      swap1\n      pop\n        /* \"#utility.yul\":580:682   */\n      swap2\n      swap1\n      pop\n      jump\t// out\n        /* \"#utility.yul\":688:868   */\n    tag_38:\n        /* \"#utility.yul\":736:813   */\n      0x4e487b7100000000000000000000000000000000000000000000000000000000\n        /* \"#utility.yul\":733:734   */\n      0x00\n        /* \"#utility.yul\":726:814   */\n      mstore\n        /* \"#utility.yul\":833:837   */\n      0x41\n        /* \"#utility.yul\":830:831   */\n      0x04\n        /* \"#utility.yul\":823:838   */\n      mstore\n        /* \"#utility.yul\":857:861   */\n      0x24\n        /* \"#utility.yul\":854:855   */\n      0x00\n        /* \"#utility.yul\":847:862   */\n      revert\n        /* \"#utility.yul\":874:1155   */\n    tag_39:\n        /* \"#utility.yul\":957:984   */\n      tag_73\n        /* \"#utility.yul\":979:983   */\n      dup3\n        /* \"#utility.yul\":957:984   */\n      tag_37\n      jump\t// in\n    tag_73:\n        /* \"#utility.yul\":949:955   */\n      dup2\n        /* \"#utility.yul\":945:985   */\n      add\n        /* \"#utility.yul\":1087:1093   */\n      dup2\n        /* \"#utility.yul\":1075:1085   */\n      dup2\n        /* \"#utility.yul\":1072:1094   */\n      lt\n        /* \"#utility.yul\":1051:1069   */\n      0xffffffffffffffff\n        /* \"#utility.yul\":1039:1049   */\n      dup3\n        /* \"#utility.yul\":1036:1070   */\n      gt\n        /* \"#utility.yul\":1033:1095   */\n      or\n        /* \"#utility.yul\":1030:1118   */\n      iszero\n      tag_74\n      jumpi\n        /* \"#utility.yul\":1098:1116   */\n      tag_75\n      tag_38\n      jump\t// in\n    tag_75:\n        /* \"#utility.yul\":1030:1118   */\n    tag_74:\n        /* \"#utility.yul\":1138:1148   */\n      dup1\n        /* \"#utility.yul\":1134:1136   */\n      0x40\n        /* \"#utility.yul\":1127:1149   */\n      mstore\n        /* \"#utility.yul\":917:1155   */\n      pop\n        /* \"#utility.yul\":874:1155   */\n      pop\n      pop\n      jump\t// out\n        /* \"#utility.yul\":1161:1290   */\n    tag_40:\n        /* \"#utility.yul\":1195:1201   */\n      0x00\n        /* \"#utility.yul\":1222:1242   */\n      tag_77\n      tag_32\n      jump\t// in\n    tag_77:\n        /* \"#utility.yul\":1212:1242   */\n      swap1\n      pop\n        /* \"#utility.yul\":1251:1284   */\n      tag_78\n        /* \"#utility.yul\":1279:1283   */\n      dup3\n        /* \"#utility.yul\":1271:1277   */\n      dup3\n        /* \"#utility.yul\":1251:1284   */\n      tag_39\n      jump\t// in\n    tag_78:\n        /* \"#utility.yul\":1161:1290   */\n      swap2\n      swap1\n      pop\n      jump\t// out\n        /* \"#utility.yul\":1296:1604   */\n    tag_41:\n        /* \"#utility.yul\":1358:1362   */\n      0x00\n        /* \"#utility.yul\":1448:1466   */\n      0xffffffffffffffff\n        /* \"#utility.yul\":1440:1446   */\n      dup3\n        /* \"#utility.yul\":1437:1467   */\n      gt\n        /* \"#utility.yul\":1434:1490   */\n      iszero\n      tag_80\n      jumpi\n        /* \"#utility.yul\":1470:1488   */\n      tag_81\n      tag_38\n      jump\t// in\n    tag_81:\n        /* \"#utility.yul\":1434:1490   */\n    tag_80:\n        /* \"#utility.yul\":1508:1537   */\n      tag_82\n        /* \"#utility.yul\":1530:1536   */\n      dup3\n        /* \"#utility.yul\":1508:1537   */\n      tag_37\n      jump\t// in\n    tag_82:\n        /* \"#utility.yul\":1500:1537   */\n      swap1\n      pop\n        /* \"#utility.yul\":1592:1596   */\n      0x20\n        /* \"#utility.yul\":1586:1590   */\n      dup2\n        /* \"#utility.yul\":1582:1597   */\n      add\n        /* \"#utility.yul\":1574:1597   */\n      swap1\n      pop\n        /* \"#utility.yul\":1296:1604   */\n      swap2\n      swap1\n      pop\n      jump\t// out\n        /* \"#utility.yul\":1610:1756   */\n    tag_42:\n        /* \"#utility.yul\":1707:1713   */\n      dup3\n        /* \"#utility.yul\":1702:1705   */\n      dup2\n        /* \"#utility.yul\":1697:1700   */\n      dup4\n        /* \"#utility.yul\":1684:1714   */\n      calldatacopy\n        /* \"#utility.yul\":1748:1749   */\n      0x00\n        /* \"#utility.yul\":1739:1745   */\n      dup4\n        /* \"#utility.yul\":1734:1737   */\n      dup4\n        /* \"#utility.yul\":1730:1746   */\n      add\n        /* \"#utility.yul\":1723:1750   */\n      mstore\n        /* \"#utility.yul\":1610:1756   */\n      pop\n      pop\n      pop\n      jump\t// out\n        /* \"#utility.yul\":1762:2187   */\n    tag_43:\n        /* \"#utility.yul\":1840:1845   */\n      0x00\n        /* \"#utility.yul\":1865:1931   */\n      tag_85\n        /* \"#utility.yul\":1881:1930   */\n      tag_86\n        /* \"#utility.yul\":1923:1929   */\n      dup5\n        /* \"#utility.yul\":1881:1930   */\n      tag_41\n      jump\t// in\n    tag_86:\n        /* \"#utility.yul\":1865:1931   */\n      tag_40\n      jump\t// in\n    tag_85:\n        /* \"#utility.yul\":1856:1931   */\n      swap1\n      pop\n        /* \"#utility.yul\":1954:1960   */\n      dup3\n        /* \"#utility.yul\":1947:1952   */\n      dup2\n        /* \"#utility.yul\":1940:1961   */\n      mstore\n        /* \"#utility.yul\":1992:1996   */\n      0x20\n        /* \"#utility.yul\":1985:1990   */\n      dup2\n        /* \"#utility.yul\":1981:1997   */\n      add\n        /* \"#utility.yul\":2030:2033   */\n      dup5\n        /* \"#utility.yul\":2021:2027   */\n      dup5\n        /* \"#utility.yul\":2016:2019   */\n      dup5\n        /* \"#utility.yul\":2012:2028   */\n      add\n        /* \"#utility.yul\":2009:2034   */\n      gt\n        /* \"#utility.yul\":2006:2118   */\n      iszero\n      tag_87\n      jumpi\n        /* \"#utility.yul\":2037:2116   */\n      tag_88\n      tag_36\n      jump\t// in\n    tag_88:\n        /* \"#utility.yul\":2006:2118   */\n    tag_87:\n        /* \"#utility.yul\":2127:2181   */\n      tag_89\n        /* \"#utility.yul\":2174:2180   */\n      dup5\n        /* \"#utility.yul\":2169:2172   */\n      dup3\n        /* \"#utility.yul\":2164:2167   */\n      dup6\n        /* \"#utility.yul\":2127:2181   */\n      tag_42\n      jump\t// in\n    tag_89:\n        /* \"#utility.yul\":1846:2187   */\n      pop\n        /* \"#utility.yul\":1762:2187   */\n      swap4\n      swap3\n      pop\n      pop\n      pop\n      jump\t// out\n        /* \"#utility.yul\":2207:2547   */\n    tag_44:\n        /* \"#utility.yul\":2263:2268   */\n      0x00\n        /* \"#utility.yul\":2312:2315   */\n      dup3\n        /* \"#utility.yul\":2305:2309   */\n      0x1f\n        /* \"#utility.yul\":2297:2303   */\n      dup4\n        /* \"#utility.yul\":2293:2310   */\n      add\n        /* \"#utility.yul\":2289:2316   */\n      slt\n        /* \"#utility.yul\":2279:2401   */\n      tag_91\n      jumpi\n        /* \"#utility.yul\":2320:2399   */\n      tag_92\n      tag_35\n      jump\t// in\n    tag_92:\n        /* \"#utility.yul\":2279:2401   */\n    tag_91:\n        /* \"#utility.yul\":2437:2443   */\n      dup2\n        /* \"#utility.yul\":2424:2444   */\n      calldataload\n        /* \"#utility.yul\":2462:2541   */\n      tag_93\n        /* \"#utility.yul\":2537:2540   */\n      dup5\n        /* \"#utility.yul\":2529:2535   */\n      dup3\n        /* \"#utility.yul\":2522:2526   */\n      0x20\n        /* \"#utility.yul\":2514:2520   */\n      dup7\n        /* \"#utility.yul\":2510:2527   */\n      add\n        /* \"#utility.yul\":2462:2541   */\n      tag_43\n      jump\t// in\n    tag_93:\n        /* \"#utility.yul\":2453:2541   */\n      swap2\n      pop\n        /* \"#utility.yul\":2269:2547   */\n      pop\n        /* \"#utility.yul\":2207:2547   */\n      swap3\n      swap2\n      pop\n      pop\n      jump\t// out\n        /* \"#utility.yul\":2553:3062   */\n    tag_9:\n        /* \"#utility.yul\":2622:2628   */\n      0x00\n        /* \"#utility.yul\":2671:2673   */\n      0x20\n        /* \"#utility.yul\":2659:2668   */\n      dup3\n        /* \"#utility.yul\":2650:2657   */\n      dup5\n        /* \"#utility.yul\":2646:2669   */\n      sub\n        /* \"#utility.yul\":2642:2674   */\n      slt\n        /* \"#utility.yul\":2639:2758   */\n      iszero\n      tag_95\n      jumpi\n        /* \"#utility.yul\":2677:2756   */\n      tag_96\n      tag_33\n      jump\t// in\n    tag_96:\n        /* \"#utility.yul\":2639:2758   */\n    tag_95:\n        /* \"#utility.yul\":2825:2826   */\n      0x00\n        /* \"#utility.yul\":2814:2823   */\n      dup3\n        /* \"#utility.yul\":2810:2827   */\n      add\n        /* \"#utility.yul\":2797:2828   */\n      calldataload\n        /* \"#utility.yul\":2855:2873   */\n      0xffffffffffffffff\n        /* \"#utility.yul\":2847:2853   */\n      dup2\n        /* \"#utility.yul\":2844:2874   */\n      gt\n        /* \"#utility.yul\":2841:2958   */\n      iszero\n      tag_97\n      jumpi\n        /* \"#utility.yul\":2877:2956   */\n      tag_98\n      tag_34\n      jump\t// in\n    tag_98:\n        /* \"#utility.yul\":2841:2958   */\n    tag_97:\n        /* \"#utility.yul\":2982:3045   */\n      tag_99\n        /* \"#utility.yul\":3037:3044   */\n      dup5\n        /* \"#utility.yul\":3028:3034   */\n      dup3\n        /* \"#utility.yul\":3017:3026   */\n      dup6\n        /* \"#utility.yul\":3013:3035   */\n      add\n        /* \"#utility.yul\":2982:3045   */\n      tag_44\n      jump\t// in\n    tag_99:\n        /* \"#utility.yul\":2972:3045   */\n      swap2\n      pop\n        /* \"#utility.yul\":2768:3055   */\n      pop\n        /* \"#utility.yul\":2553:3062   */\n      swap3\n      swap2\n      pop\n      pop\n      jump\t// out\n        /* \"#utility.yul\":3068:3194   */\n    tag_45:\n        /* \"#utility.yul\":3105:3112   */\n      0x00\n        /* \"#utility.yul\":3145:3187   */\n      0xffffffffffffffffffffffffffffffffffffffff\n        /* \"#utility.yul\":3138:3143   */\n      dup3\n        /* \"#utility.yul\":3134:3188   */\n      and\n        /* \"#utility.yul\":3123:3188   */\n      swap1\n      pop\n        /* \"#utility.yul\":3068:3194   */\n      swap2\n      swap1\n      pop\n      jump\t// out\n        /* \"#utility.yul\":3200:3296   */\n    tag_46:\n        /* \"#utility.yul\":3237:3244   */\n      0x00\n        /* \"#utility.yul\":3266:3290   */\n      tag_102\n        /* \"#utility.yul\":3284:3289   */\n      dup3\n        /* \"#utility.yul\":3266:3290   */\n      tag_45\n      jump\t// in\n    tag_102:\n        /* \"#utility.yul\":3255:3290   */\n      swap1\n      pop\n        /* \"#utility.yul\":3200:3296   */\n      swap2\n      swap1\n      pop\n      jump\t// out\n        /* \"#utility.yul\":3302:3420   */\n    tag_47:\n        /* \"#utility.yul\":3389:3413   */\n      tag_104\n        /* \"#utility.yul\":3407:3412   */\n      dup2\n        /* \"#utility.yul\":3389:3413   */\n      tag_46\n      jump\t// in\n    tag_104:\n        /* \"#utility.yul\":3384:3387   */\n      dup3\n        /* \"#utility.yul\":3377:3414   */\n      mstore\n        /* \"#utility.yul\":3302:3420   */\n      pop\n      pop\n      jump\t// out\n        /* \"#utility.yul\":3426:3648   */\n    tag_12:\n        /* \"#utility.yul\":3519:3523   */\n      0x00\n        /* \"#utility.yul\":3557:3559   */\n      0x20\n        /* \"#utility.yul\":3546:3555   */\n      dup3\n        /* \"#utility.yul\":3542:3560   */\n      add\n        /* \"#utility.yul\":3534:3560   */\n      swap1\n      pop\n        /* \"#utility.yul\":3570:3641   */\n      tag_106\n        /* \"#utility.yul\":3638:3639   */\n      0x00\n        /* \"#utility.yul\":3627:3636   */\n      dup4\n        /* \"#utility.yul\":3623:3640   */\n      add\n        /* \"#utility.yul\":3614:3620   */\n      dup5\n        /* \"#utility.yul\":3570:3641   */\n      tag_47\n      jump\t// in\n    tag_106:\n        /* \"#utility.yul\":3426:3648   */\n      swap3\n      swap2\n      pop\n      pop\n      jump\t// out\n        /* \"#utility.yul\":3654:3740   */\n    tag_48:\n        /* \"#utility.yul\":3689:3696   */\n      0x00\n        /* \"#utility.yul\":3729:3733   */\n      0xff\n        /* \"#utility.yul\":3722:3727   */\n      dup3\n        /* \"#utility.yul\":3718:3734   */\n      and\n        /* \"#utility.yul\":3707:3734   */\n      swap1\n      pop\n        /* \"#utility.yul\":3654:3740   */\n      swap2\n      swap1\n      pop\n      jump\t// out\n        /* \"#utility.yul\":3746:3864   */\n    tag_49:\n        /* \"#utility.yul\":3817:3839   */\n      tag_109\n        /* \"#utility.yul\":3833:3838   */\n      dup2\n        /* \"#utility.yul\":3817:3839   */\n      tag_48\n      jump\t// in\n    tag_109:\n        /* \"#utility.yul\":3810:3815   */\n      dup2\n        /* \"#utility.yul\":3807:3840   */\n      eq\n        /* \"#utility.yul\":3797:3858   */\n      tag_110\n      jumpi\n        /* \"#utility.yul\":3854:3855   */\n      0x00\n        /* \"#utility.yul\":3851:3852   */\n      dup1\n        /* \"#utility.yul\":3844:3856   */\n      revert\n        /* \"#utility.yul\":3797:3858   */\n    tag_110:\n        /* \"#utility.yul\":3746:3864   */\n      pop\n      jump\t// out\n        /* \"#utility.yul\":3870:4005   */\n    tag_50:\n        /* \"#utility.yul\":3914:3919   */\n      0x00\n        /* \"#utility.yul\":3952:3958   */\n      dup2\n        /* \"#utility.yul\":3939:3959   */\n      calldataload\n        /* \"#utility.yul\":3930:3959   */\n      swap1\n      pop\n        /* \"#utility.yul\":3968:3999   */\n      tag_112\n        /* \"#utility.yul\":3993:3998   */\n      dup2\n        /* \"#utility.yul\":3968:3999   */\n      tag_49\n      jump\t// in\n    tag_112:\n        /* \"#utility.yul\":3870:4005   */\n      swap3\n      swap2\n      pop\n      pop\n      jump\t// out\n        /* \"#utility.yul\":4011:4133   */\n    tag_51:\n        /* \"#utility.yul\":4084:4108   */\n      tag_114\n        /* \"#utility.yul\":4102:4107   */\n      dup2\n        /* \"#utility.yul\":4084:4108   */\n      tag_46\n      jump\t// in\n    tag_114:\n        /* \"#utility.yul\":4077:4082   */\n      dup2\n        /* \"#utility.yul\":4074:4109   */\n      eq\n        /* \"#utility.yul\":4064:4127   */\n      tag_115\n      jumpi\n        /* \"#utility.yul\":4123:4124   */\n      0x00\n        /* \"#utility.yul\":4120:4121   */\n      dup1\n        /* \"#utility.yul\":4113:4125   */\n      revert\n        /* \"#utility.yul\":4064:4127   */\n    tag_115:\n        /* \"#utility.yul\":4011:4133   */\n      pop\n      jump\t// out\n        /* \"#utility.yul\":4139:4278   */\n    tag_52:\n        /* \"#utility.yul\":4185:4190   */\n      0x00\n        /* \"#utility.yul\":4223:4229   */\n      dup2\n        /* \"#utility.yul\":4210:4230   */\n      calldataload\n        /* \"#utility.yul\":4201:4230   */\n      swap1\n      pop\n        /* \"#utility.yul\":4239:4272   */\n      tag_117\n        /* \"#utility.yul\":4266:4271   */\n      dup2\n        /* \"#utility.yul\":4239:4272   */\n      tag_51\n      jump\t// in\n    tag_117:\n        /* \"#utility.yul\":4139:4278   */\n      swap3\n      swap2\n      pop\n      pop\n      jump\t// out\n        /* \"#utility.yul\":4284:4361   */\n    tag_53:\n        /* \"#utility.yul\":4321:4328   */\n      0x00\n        /* \"#utility.yul\":4350:4355   */\n      dup2\n        /* \"#utility.yul\":4339:4355   */\n      swap1\n      pop\n        /* \"#utility.yul\":4284:4361   */\n      swap2\n      swap1\n      pop\n      jump\t// out\n        /* \"#utility.yul\":4367:4489   */\n    tag_54:\n        /* \"#utility.yul\":4440:4464   */\n      tag_120\n        /* \"#utility.yul\":4458:4463   */\n      dup2\n        /* \"#utility.yul\":4440:4464   */\n      tag_53\n      jump\t// in\n    tag_120:\n        /* \"#utility.yul\":4433:4438   */\n      dup2\n        /* \"#utility.yul\":4430:4465   */\n      eq\n        /* \"#utility.yul\":4420:4483   */\n      tag_121\n      jumpi\n        /* \"#utility.yul\":4479:4480   */\n      0x00\n        /* \"#utility.yul\":4476:4477   */\n      dup1\n        /* \"#utility.yul\":4469:4481   */\n      revert\n        /* \"#utility.yul\":4420:4483   */\n    tag_121:\n        /* \"#utility.yul\":4367:4489   */\n      pop\n      jump\t// out\n        /* \"#utility.yul\":4495:4634   */\n    tag_55:\n        /* \"#utility.yul\":4541:4546   */\n      0x00\n        /* \"#utility.yul\":4579:4585   */\n      dup2\n        /* \"#utility.yul\":4566:4586   */\n      calldataload\n        /* \"#utility.yul\":4557:4586   */\n      swap1\n      pop\n        /* \"#utility.yul\":4595:4628   */\n      tag_123\n        /* \"#utility.yul\":4622:4627   */\n      dup2\n        /* \"#utility.yul\":4595:4628   */\n      tag_54\n      jump\t// in\n    tag_123:\n        /* \"#utility.yul\":4495:4634   */\n      swap3\n      swap2\n      pop\n      pop\n      jump\t// out\n        /* \"#utility.yul\":4640:5907   */\n    tag_15:\n        /* \"#utility.yul\":4753:4759   */\n      0x00\n        /* \"#utility.yul\":4761:4767   */\n      dup1\n        /* \"#utility.yul\":4769:4775   */\n      0x00\n        /* \"#utility.yul\":4777:4783   */\n      dup1\n        /* \"#utility.yul\":4785:4791   */\n      0x00\n        /* \"#utility.yul\":4834:4837   */\n      0xa0\n        /* \"#utility.yul\":4822:4831   */\n      dup7\n        /* \"#utility.yul\":4813:4820   */\n      dup9\n        /* \"#utility.yul\":4809:4832   */\n      sub\n        /* \"#utility.yul\":4805:4838   */\n      slt\n        /* \"#utility.yul\":4802:4922   */\n      iszero\n      tag_125\n      jumpi\n        /* \"#utility.yul\":4841:4920   */\n      tag_126\n      tag_33\n      jump\t// in\n    tag_126:\n        /* \"#utility.yul\":4802:4922   */\n    tag_125:\n        /* \"#utility.yul\":4989:4990   */\n      0x00\n        /* \"#utility.yul\":4978:4987   */\n      dup7\n        /* \"#utility.yul\":4974:4991   */\n      add\n        /* \"#utility.yul\":4961:4992   */\n      calldataload\n        /* \"#utility.yul\":5019:5037   */\n      0xffffffffffffffff\n        /* \"#utility.yul\":5011:5017   */\n      dup2\n        /* \"#utility.yul\":5008:5038   */\n      gt\n        /* \"#utility.yul\":5005:5122   */\n      iszero\n      tag_127\n      jumpi\n        /* \"#utility.yul\":5041:5120   */\n      tag_128\n      tag_34\n      jump\t// in\n    tag_128:\n        /* \"#utility.yul\":5005:5122   */\n    tag_127:\n        /* \"#utility.yul\":5146:5209   */\n      tag_129\n        /* \"#utility.yul\":5201:5208   */\n      dup9\n        /* \"#utility.yul\":5192:5198   */\n      dup3\n        /* \"#utility.yul\":5181:5190   */\n      dup10\n        /* \"#utility.yul\":5177:5199   */\n      add\n        /* \"#utility.yul\":5146:5209   */\n      tag_44\n      jump\t// in\n    tag_129:\n        /* \"#utility.yul\":5136:5209   */\n      swap6\n      pop\n        /* \"#utility.yul\":4932:5219   */\n      pop\n        /* \"#utility.yul\":5286:5288   */\n      0x20\n        /* \"#utility.yul\":5275:5284   */\n      dup7\n        /* \"#utility.yul\":5271:5289   */\n      add\n        /* \"#utility.yul\":5258:5290   */\n      calldataload\n        /* \"#utility.yul\":5317:5335   */\n      0xffffffffffffffff\n        /* \"#utility.yul\":5309:5315   */\n      dup2\n        /* \"#utility.yul\":5306:5336   */\n      gt\n        /* \"#utility.yul\":5303:5420   */\n      iszero\n      tag_130\n      jumpi\n        /* \"#utility.yul\":5339:5418   */\n      tag_131\n      tag_34\n      jump\t// in\n    tag_131:\n        /* \"#utility.yul\":5303:5420   */\n    tag_130:\n        /* \"#utility.yul\":5444:5507   */\n      tag_132\n        /* \"#utility.yul\":5499:5506   */\n      dup9\n        /* \"#utility.yul\":5490:5496   */\n      dup3\n        /* \"#utility.yul\":5479:5488   */\n      dup10\n        /* \"#utility.yul\":5475:5497   */\n      add\n        /* \"#utility.yul\":5444:5507   */\n      tag_44\n      jump\t// in\n    tag_132:\n        /* \"#utility.yul\":5434:5507   */\n      swap5\n      pop\n        /* \"#utility.yul\":5229:5517   */\n      pop\n        /* \"#utility.yul\":5556:5558   */\n      0x40\n        /* \"#utility.yul\":5582:5633   */\n      tag_133\n        /* \"#utility.yul\":5625:5632   */\n      dup9\n        /* \"#utility.yul\":5616:5622   */\n      dup3\n        /* \"#utility.yul\":5605:5614   */\n      dup10\n        /* \"#utility.yul\":5601:5623   */\n      add\n        /* \"#utility.yul\":5582:5633   */\n      tag_50\n      jump\t// in\n    tag_133:\n        /* \"#utility.yul\":5572:5633   */\n      swap4\n      pop\n        /* \"#utility.yul\":5527:5643   */\n      pop\n        /* \"#utility.yul\":5682:5684   */\n      0x60\n        /* \"#utility.yul\":5708:5761   */\n      tag_134\n        /* \"#utility.yul\":5753:5760   */\n      dup9\n        /* \"#utility.yul\":5744:5750   */\n      dup3\n        /* \"#utility.yul\":5733:5742   */\n      dup10\n        /* \"#utility.yul\":5729:5751   */\n      add\n        /* \"#utility.yul\":5708:5761   */\n      tag_52\n      jump\t// in\n    tag_134:\n        /* \"#utility.yul\":5698:5761   */\n      swap3\n      pop\n        /* \"#utility.yul\":5653:5771   */\n      pop\n        /* \"#utility.yul\":5810:5813   */\n      0x80\n        /* \"#utility.yul\":5837:5890   */\n      tag_135\n        /* \"#utility.yul\":5882:5889   */\n      dup9\n        /* \"#utility.yul\":5873:5879   */\n      dup3\n        /* \"#utility.yul\":5862:5871   */\n      dup10\n        /* \"#utility.yul\":5858:5880   */\n      add\n        /* \"#utility.yul\":5837:5890   */\n      tag_55\n      jump\t// in\n    tag_135:\n        /* \"#utility.yul\":5827:5890   */\n      swap2\n      pop\n        /* \"#utility.yul\":5781:5900   */\n      pop\n        /* \"#utility.yul\":4640:5907   */\n      swap3\n      swap6\n      pop\n      swap3\n      swap6\n      swap1\n      swap4\n      pop\n      jump\t// out\n        /* \"#utility.yul\":5913:6012   */\n    tag_56:\n        /* \"#utility.yul\":5965:5971   */\n      0x00\n        /* \"#utility.yul\":5999:6004   */\n      dup2\n        /* \"#utility.yul\":5993:6005   */\n      mload\n        /* \"#utility.yul\":5983:6005   */\n      swap1\n      pop\n        /* \"#utility.yul\":5913:6012   */\n      swap2\n      swap1\n      pop\n      jump\t// out\n        /* \"#utility.yul\":6018:6187   */\n    tag_57:\n        /* \"#utility.yul\":6102:6113   */\n      0x00\n        /* \"#utility.yul\":6136:6142   */\n      dup3\n        /* \"#utility.yul\":6131:6134   */\n      dup3\n        /* \"#utility.yul\":6124:6143   */\n      mstore\n        /* \"#utility.yul\":6176:6180   */\n      0x20\n        /* \"#utility.yul\":6171:6174   */\n      dup3\n        /* \"#utility.yul\":6167:6181   */\n      add\n        /* \"#utility.yul\":6152:6181   */\n      swap1\n      pop\n        /* \"#utility.yul\":6018:6187   */\n      swap3\n      swap2\n      pop\n      pop\n      jump\t// out\n        /* \"#utility.yul\":6193:6439   */\n    tag_58:\n        /* \"#utility.yul\":6274:6275   */\n      0x00\n        /* \"#utility.yul\":6284:6397   */\n    tag_139:\n        /* \"#utility.yul\":6298:6304   */\n      dup4\n        /* \"#utility.yul\":6295:6296   */\n      dup2\n        /* \"#utility.yul\":6292:6305   */\n      lt\n        /* \"#utility.yul\":6284:6397   */\n      iszero\n      tag_141\n      jumpi\n        /* \"#utility.yul\":6383:6384   */\n      dup1\n        /* \"#utility.yul\":6378:6381   */\n      dup3\n        /* \"#utility.yul\":6374:6385   */\n      add\n        /* \"#utility.yul\":6368:6386   */\n      mload\n        /* \"#utility.yul\":6364:6365   */\n      dup2\n        /* \"#utility.yul\":6359:6362   */\n      dup5\n        /* \"#utility.yul\":6355:6366   */\n      add\n        /* \"#utility.yul\":6348:6387   */\n      mstore\n        /* \"#utility.yul\":6320:6322   */\n      0x20\n        /* \"#utility.yul\":6317:6318   */\n      dup2\n        /* \"#utility.yul\":6313:6323   */\n      add\n        /* \"#utility.yul\":6308:6323   */\n      swap1\n      pop\n        /* \"#utility.yul\":6284:6397   */\n      jump(tag_139)\n    tag_141:\n        /* \"#utility.yul\":6431:6432   */\n      0x00\n        /* \"#utility.yul\":6422:6428   */\n      dup5\n        /* \"#utility.yul\":6417:6420   */\n      dup5\n        /* \"#utility.yul\":6413:6429   */\n      add\n        /* \"#utility.yul\":6406:6433   */\n      mstore\n        /* \"#utility.yul\":6255:6439   */\n      pop\n        /* \"#utility.yul\":6193:6439   */\n      pop\n      pop\n      pop\n      jump\t// out\n        /* \"#utility.yul\":6445:6822   */\n    tag_59:\n        /* \"#utility.yul\":6533:6536   */\n      0x00\n        /* \"#utility.yul\":6561:6600   */\n      tag_143\n        /* \"#utility.yul\":6594:6599   */\n      dup3\n        /* \"#utility.yul\":6561:6600   */\n      tag_56\n      jump\t// in\n    tag_143:\n        /* \"#utility.yul\":6616:6687   */\n      tag_144\n        /* \"#utility.yul\":6680:6686   */\n      dup2\n        /* \"#utility.yul\":6675:6678   */\n      dup6\n        /* \"#utility.yul\":6616:6687   */\n      tag_57\n      jump\t// in\n    tag_144:\n        /* \"#utility.yul\":6609:6687   */\n      swap4\n      pop\n        /* \"#utility.yul\":6696:6761   */\n      tag_145\n        /* \"#utility.yul\":6754:6760   */\n      dup2\n        /* \"#utility.yul\":6749:6752   */\n      dup6\n        /* \"#utility.yul\":6742:6746   */\n      0x20\n        /* \"#utility.yul\":6735:6740   */\n      dup7\n        /* \"#utility.yul\":6731:6747   */\n      add\n        /* \"#utility.yul\":6696:6761   */\n      tag_58\n      jump\t// in\n    tag_145:\n        /* \"#utility.yul\":6786:6815   */\n      tag_146\n        /* \"#utility.yul\":6808:6814   */\n      dup2\n        /* \"#utility.yul\":6786:6815   */\n      tag_37\n      jump\t// in\n    tag_146:\n        /* \"#utility.yul\":6781:6784   */\n      dup5\n        /* \"#utility.yul\":6777:6816   */\n      add\n        /* \"#utility.yul\":6770:6816   */\n      swap2\n      pop\n        /* \"#utility.yul\":6537:6822   */\n      pop\n        /* \"#utility.yul\":6445:6822   */\n      swap3\n      swap2\n      pop\n      pop\n      jump\t// out\n        /* \"#utility.yul\":6828:6940   */\n    tag_60:\n        /* \"#utility.yul\":6911:6933   */\n      tag_148\n        /* \"#utility.yul\":6927:6932   */\n      dup2\n        /* \"#utility.yul\":6911:6933   */\n      tag_48\n      jump\t// in\n    tag_148:\n        /* \"#utility.yul\":6906:6909   */\n      dup3\n        /* \"#utility.yul\":6899:6934   */\n      mstore\n        /* \"#utility.yul\":6828:6940   */\n      pop\n      pop\n      jump\t// out\n        /* \"#utility.yul\":6946:7064   */\n    tag_61:\n        /* \"#utility.yul\":7033:7057   */\n      tag_150\n        /* \"#utility.yul\":7051:7056   */\n      dup2\n        /* \"#utility.yul\":7033:7057   */\n      tag_53\n      jump\t// in\n    tag_150:\n        /* \"#utility.yul\":7028:7031   */\n      dup3\n        /* \"#utility.yul\":7021:7058   */\n      mstore\n        /* \"#utility.yul\":6946:7064   */\n      pop\n      pop\n      jump\t// out\n        /* \"#utility.yul\":7070:7908   */\n    tag_28:\n        /* \"#utility.yul\":7311:7315   */\n      0x00\n        /* \"#utility.yul\":7349:7352   */\n      0xa0\n        /* \"#utility.yul\":7338:7347   */\n      dup3\n        /* \"#utility.yul\":7334:7353   */\n      add\n        /* \"#utility.yul\":7326:7353   */\n      swap1\n      pop\n        /* \"#utility.yul\":7399:7408   */\n      dup2\n        /* \"#utility.yul\":7393:7397   */\n      dup2\n        /* \"#utility.yul\":7389:7409   */\n      sub\n        /* \"#utility.yul\":7385:7386   */\n      0x00\n        /* \"#utility.yul\":7374:7383   */\n      dup4\n        /* \"#utility.yul\":7370:7387   */\n      add\n        /* \"#utility.yul\":7363:7410   */\n      mstore\n        /* \"#utility.yul\":7427:7505   */\n      tag_152\n        /* \"#utility.yul\":7500:7504   */\n      dup2\n        /* \"#utility.yul\":7491:7497   */\n      dup9\n        /* \"#utility.yul\":7427:7505   */\n      tag_59\n      jump\t// in\n    tag_152:\n        /* \"#utility.yul\":7419:7505   */\n      swap1\n      pop\n        /* \"#utility.yul\":7552:7561   */\n      dup2\n        /* \"#utility.yul\":7546:7550   */\n      dup2\n        /* \"#utility.yul\":7542:7562   */\n      sub\n        /* \"#utility.yul\":7537:7539   */\n      0x20\n        /* \"#utility.yul\":7526:7535   */\n      dup4\n        /* \"#utility.yul\":7522:7540   */\n      add\n        /* \"#utility.yul\":7515:7563   */\n      mstore\n        /* \"#utility.yul\":7580:7658   */\n      tag_153\n        /* \"#utility.yul\":7653:7657   */\n      dup2\n        /* \"#utility.yul\":7644:7650   */\n      dup8\n        /* \"#utility.yul\":7580:7658   */\n      tag_59\n      jump\t// in\n    tag_153:\n        /* \"#utility.yul\":7572:7658   */\n      swap1\n      pop\n        /* \"#utility.yul\":7668:7736   */\n      tag_154\n        /* \"#utility.yul\":7732:7734   */\n      0x40\n        /* \"#utility.yul\":7721:7730   */\n      dup4\n        /* \"#utility.yul\":7717:7735   */\n      add\n        /* \"#utility.yul\":7708:7714   */\n      dup7\n        /* \"#utility.yul\":7668:7736   */\n      tag_60\n      jump\t// in\n    tag_154:\n        /* \"#utility.yul\":7746:7818   */\n      tag_155\n        /* \"#utility.yul\":7814:7816   */\n      0x60\n        /* \"#utility.yul\":7803:7812   */\n      dup4\n        /* \"#utility.yul\":7799:7817   */\n      add\n        /* \"#utility.yul\":7790:7796   */\n      dup6\n        /* \"#utility.yul\":7746:7818   */\n      tag_47\n      jump\t// in\n    tag_155:\n        /* \"#utility.yul\":7828:7901   */\n      tag_156\n        /* \"#utility.yul\":7896:7899   */\n      0x80\n        /* \"#utility.yul\":7885:7894   */\n      dup4\n        /* \"#utility.yul\":7881:7900   */\n      add\n        /* \"#utility.yul\":7872:7878   */\n      dup5\n        /* \"#utility.yul\":7828:7901   */\n      tag_61\n      jump\t// in\n    tag_156:\n        /* \"#utility.yul\":7070:7908   */\n      swap7\n      swap6\n      pop\n      pop\n      pop\n      pop\n      pop\n      pop\n      jump\t// out\n        /* \"#utility.yul\":7914:8062   */\n    tag_62:\n        /* \"#utility.yul\":8016:8027   */\n      0x00\n        /* \"#utility.yul\":8053:8056   */\n      dup2\n        /* \"#utility.yul\":8038:8056   */\n      swap1\n      pop\n        /* \"#utility.yul\":7914:8062   */\n      swap3\n      swap2\n      pop\n      pop\n      jump\t// out\n        /* \"#utility.yul\":8068:8458   */\n    tag_63:\n        /* \"#utility.yul\":8174:8177   */\n      0x00\n        /* \"#utility.yul\":8202:8241   */\n      tag_159\n        /* \"#utility.yul\":8235:8240   */\n      dup3\n        /* \"#utility.yul\":8202:8241   */\n      tag_56\n      jump\t// in\n    tag_159:\n        /* \"#utility.yul\":8257:8346   */\n      tag_160\n        /* \"#utility.yul\":8339:8345   */\n      dup2\n        /* \"#utility.yul\":8334:8337   */\n      dup6\n        /* \"#utility.yul\":8257:8346   */\n      tag_62\n      jump\t// in\n    tag_160:\n        /* \"#utility.yul\":8250:8346   */\n      swap4\n      pop\n        /* \"#utility.yul\":8355:8420   */\n      tag_161\n        /* \"#utility.yul\":8413:8419   */\n      dup2\n        /* \"#utility.yul\":8408:8411   */\n      dup6\n        /* \"#utility.yul\":8401:8405   */\n      0x20\n        /* \"#utility.yul\":8394:8399   */\n      dup7\n        /* \"#utility.yul\":8390:8406   */\n      add\n        /* \"#utility.yul\":8355:8420   */\n      tag_58\n      jump\t// in\n    tag_161:\n        /* \"#utility.yul\":8445:8451   */\n      dup1\n        /* \"#utility.yul\":8440:8443   */\n      dup5\n        /* \"#utility.yul\":8436:8452   */\n      add\n        /* \"#utility.yul\":8429:8452   */\n      swap2\n      pop\n        /* \"#utility.yul\":8178:8458   */\n      pop\n        /* \"#utility.yul\":8068:8458   */\n      swap3\n      swap2\n      pop\n      pop\n      jump\t// out\n        /* \"#utility.yul\":8464:8739   */\n    tag_31:\n        /* \"#utility.yul\":8596:8599   */\n      0x00\n        /* \"#utility.yul\":8618:8713   */\n      tag_163\n        /* \"#utility.yul\":8709:8712   */\n      dup3\n        /* \"#utility.yul\":8700:8706   */\n      dup5\n        /* \"#utility.yul\":8618:8713   */\n      tag_63\n      jump\t// in\n    tag_163:\n        /* \"#utility.yul\":8611:8713   */\n      swap2\n      pop\n        /* \"#utility.yul\":8730:8733   */\n      dup2\n        /* \"#utility.yul\":8723:8733   */\n      swap1\n      pop\n        /* \"#utility.yul\":8464:8739   */\n      swap3\n      swap2\n      pop\n      pop\n      jump\t// out\n    stop\n\n    sub_0: assembly {\n            /* \"contracts/Accessories/ERC20FACTORY.sol\":5028:14898  contract ERC20 is Contexts {... */\n          mstore(0x40, 0x80)\n            /* \"contracts/Accessories/ERC20FACTORY.sol\":5967:6357  constructor (string memory name_, string memory symbol_,uint8 decimals_,address owner_, uint totalSupply_)  {... */\n          callvalue\n          dup1\n          iszero\n          tag_1\n          jumpi\n          0x00\n          dup1\n          revert\n        tag_1:\n          pop\n          mload(0x40)\n          sub(codesize, bytecodeSize)\n          dup1\n          bytecodeSize\n          dup4\n          codecopy\n          dup2\n          dup2\n          add\n          0x40\n          mstore\n          dup2\n          add\n          swap1\n          tag_2\n          swap2\n          swap1\n          tag_3\n          jump\t// in\n        tag_2:\n            /* \"contracts/Accessories/ERC20FACTORY.sol\":6093:6098  name_ */\n          dup5\n            /* \"contracts/Accessories/ERC20FACTORY.sol\":6085:6090  _name */\n          0x03\n            /* \"contracts/Accessories/ERC20FACTORY.sol\":6085:6098  _name = name_ */\n          swap1\n          dup2\n          tag_6\n          swap2\n          swap1\n          tag_7\n          jump\t// in\n        tag_6:\n          pop\n            /* \"contracts/Accessories/ERC20FACTORY.sol\":6118:6125  symbol_ */\n          dup4\n            /* \"contracts/Accessories/ERC20FACTORY.sol\":6108:6115  _symbol */\n          0x04\n            /* \"contracts/Accessories/ERC20FACTORY.sol\":6108:6125  _symbol = symbol_ */\n          swap1\n          dup2\n          tag_8\n          swap2\n          swap1\n          tag_7\n          jump\t// in\n        tag_8:\n          pop\n            /* \"contracts/Accessories/ERC20FACTORY.sol\":6147:6156  decimals_ */\n          dup3\n            /* \"contracts/Accessories/ERC20FACTORY.sol\":6135:6144  _decimals */\n          0x05\n          0x00\n            /* \"contracts/Accessories/ERC20FACTORY.sol\":6135:6156  _decimals = decimals_ */\n          0x0100\n          exp\n          dup2\n          sload\n          dup2\n          0xff\n          mul\n          not\n          and\n          swap1\n          dup4\n          0xff\n          and\n          mul\n          or\n          swap1\n          sstore\n          pop\n            /* \"contracts/Accessories/ERC20FACTORY.sol\":6175:6229  _beforeTokenTransfer(address(0), owner_, totalSupply_) */\n          tag_9\n            /* \"contracts/Accessories/ERC20FACTORY.sol\":6204:6205  0 */\n          0x00\n            /* \"contracts/Accessories/ERC20FACTORY.sol\":6208:6214  owner_ */\n          dup4\n            /* \"contracts/Accessories/ERC20FACTORY.sol\":6216:6228  totalSupply_ */\n          dup4\n            /* \"contracts/Accessories/ERC20FACTORY.sol\":6175:6195  _beforeTokenTransfer */\n          shl(0x20, tag_10)\n            /* \"contracts/Accessories/ERC20FACTORY.sol\":6175:6229  _beforeTokenTransfer(address(0), owner_, totalSupply_) */\n          0x20\n          shr\n          jump\t// in\n        tag_9:\n            /* \"contracts/Accessories/ERC20FACTORY.sol\":6255:6285  _totalSupply.add(totalSupply_) */\n          tag_11\n            /* \"contracts/Accessories/ERC20FACTORY.sol\":6272:6284  totalSupply_ */\n          dup2\n            /* \"contracts/Accessories/ERC20FACTORY.sol\":6255:6267  _totalSupply */\n          sload(0x02)\n            /* \"contracts/Accessories/ERC20FACTORY.sol\":6255:6271  _totalSupply.add */\n          or(tag_0_63, shl(0x20, tag_12))\n          swap1\n            /* \"contracts/Accessories/ERC20FACTORY.sol\":6255:6285  _totalSupply.add(totalSupply_) */\n          swap2\n          swap1\n          0x20\n          shr\n          jump\t// in\n        tag_11:\n            /* \"contracts/Accessories/ERC20FACTORY.sol\":6240:6252  _totalSupply */\n          0x02\n            /* \"contracts/Accessories/ERC20FACTORY.sol\":6240:6285  _totalSupply = _totalSupply.add(totalSupply_) */\n          dup2\n          swap1\n          sstore\n          pop\n            /* \"contracts/Accessories/ERC20FACTORY.sol\":6315:6350  _balances[owner_].add(totalSupply_) */\n          tag_13\n            /* \"contracts/Accessories/ERC20FACTORY.sol\":6337:6349  totalSupply_ */\n          dup2\n            /* \"contracts/Accessories/ERC20FACTORY.sol\":6315:6324  _balances */\n          0x00\n            /* \"contracts/Accessories/ERC20FACTORY.sol\":6315:6332  _balances[owner_] */\n          dup1\n            /* \"contracts/Accessories/ERC20FACTORY.sol\":6325:6331  owner_ */\n          dup6\n            /* \"contracts/Accessories/ERC20FACTORY.sol\":6315:6332  _balances[owner_] */\n          0xffffffffffffffffffffffffffffffffffffffff\n          and\n          0xffffffffffffffffffffffffffffffffffffffff\n          and\n          dup2\n          mstore\n          0x20\n          add\n          swap1\n          dup2\n          mstore\n          0x20\n          add\n          0x00\n          keccak256\n          sload\n            /* \"contracts/Accessories/ERC20FACTORY.sol\":6315:6336  _balances[owner_].add */\n          or(tag_0_63, shl(0x20, tag_12))\n          swap1\n            /* \"contracts/Accessories/ERC20FACTORY.sol\":6315:6350  _balances[owner_].add(totalSupply_) */\n          swap2\n          swap1\n          0x20\n          shr\n          jump\t// in\n        tag_13:\n            /* \"contracts/Accessories/ERC20FACTORY.sol\":6295:6304  _balances */\n          0x00\n            /* \"contracts/Accessories/ERC20FACTORY.sol\":6295:6312  _balances[owner_] */\n          dup1\n            /* \"contracts/Accessories/ERC20FACTORY.sol\":6305:6311  owner_ */\n          dup5\n            /* \"contracts/Accessories/ERC20FACTORY.sol\":6295:6312  _balances[owner_] */\n          0xffffffffffffffffffffffffffffffffffffffff\n          and\n          0xffffffffffffffffffffffffffffffffffffffff\n          and\n          dup2\n          mstore\n          0x20\n          add\n          swap1\n          dup2\n          mstore\n          0x20\n          add\n          0x00\n          keccak256\n            /* \"contracts/Accessories/ERC20FACTORY.sol\":6295:6350  _balances[owner_] = _balances[owner_].add(totalSupply_) */\n          dup2\n          swap1\n          sstore\n          pop\n            /* \"contracts/Accessories/ERC20FACTORY.sol\":5967:6357  constructor (string memory name_, string memory symbol_,uint8 decimals_,address owner_, uint totalSupply_)  {... */\n          pop\n          pop\n          pop\n          pop\n          pop\n            /* \"contracts/Accessories/ERC20FACTORY.sol\":5028:14898  contract ERC20 is Contexts {... */\n          jump(tag_14)\n            /* \"contracts/Accessories/ERC20FACTORY.sol\":14804:14896  function _beforeTokenTransfer(address from, address to, uint256 amount) internal virtual { } */\n        tag_10:\n          pop\n          pop\n          pop\n          jump\t// out\n            /* \"contracts/Accessories/ERC20FACTORY.sol\":324:500  function add(uint256 a, uint256 b) internal pure returns (uint256) {... */\n        tag_12:\n            /* \"contracts/Accessories/ERC20FACTORY.sol\":382:389  uint256 */\n          0x00\n            /* \"contracts/Accessories/ERC20FACTORY.sol\":401:410  uint256 c */\n          dup1\n            /* \"contracts/Accessories/ERC20FACTORY.sol\":417:418  b */\n          dup3\n            /* \"contracts/Accessories/ERC20FACTORY.sol\":413:414  a */\n          dup5\n            /* \"contracts/Accessories/ERC20FACTORY.sol\":413:418  a + b */\n          tag_17\n          swap2\n          swap1\n          tag_18\n          jump\t// in\n        tag_17:\n            /* \"contracts/Accessories/ERC20FACTORY.sol\":401:418  uint256 c = a + b */\n          swap1\n          pop\n            /* \"contracts/Accessories/ERC20FACTORY.sol\":441:442  a */\n          dup4\n            /* \"contracts/Accessories/ERC20FACTORY.sol\":436:437  c */\n          dup2\n            /* \"contracts/Accessories/ERC20FACTORY.sol\":436:442  c >= a */\n          lt\n          iszero\n            /* \"contracts/Accessories/ERC20FACTORY.sol\":428:474  require(c >= a, \"SafeMath: addition overflow\") */\n          tag_19\n          jumpi\n          mload(0x40)\n          0x08c379a000000000000000000000000000000000000000000000000000000000\n          dup2\n          mstore\n          0x04\n          add\n          tag_20\n          swap1\n          tag_21\n          jump\t// in\n        tag_20:\n          mload(0x40)\n          dup1\n          swap2\n          sub\n          swap1\n          revert\n        tag_19:\n            /* \"contracts/Accessories/ERC20FACTORY.sol\":492:493  c */\n          dup1\n            /* \"contracts/Accessories/ERC20FACTORY.sol\":485:493  return c */\n          swap2\n          pop\n          pop\n            /* \"contracts/Accessories/ERC20FACTORY.sol\":324:500  function add(uint256 a, uint256 b) internal pure returns (uint256) {... */\n          swap3\n          swap2\n          pop\n          pop\n          jump\t// out\n            /* \"#utility.yul\":7:82   */\n        tag_22:\n            /* \"#utility.yul\":40:46   */\n          0x00\n            /* \"#utility.yul\":73:75   */\n          0x40\n            /* \"#utility.yul\":67:76   */\n          mload\n            /* \"#utility.yul\":57:76   */\n          swap1\n          pop\n            /* \"#utility.yul\":7:82   */\n          swap1\n          jump\t// out\n            /* \"#utility.yul\":88:205   */\n        tag_23:\n            /* \"#utility.yul\":197:198   */\n          0x00\n            /* \"#utility.yul\":194:195   */\n          dup1\n            /* \"#utility.yul\":187:199   */\n          revert\n            /* \"#utility.yul\":211:328   */\n        tag_24:\n            /* \"#utility.yul\":320:321   */\n          0x00\n            /* \"#utility.yul\":317:318   */\n          dup1\n            /* \"#utility.yul\":310:322   */\n          revert\n            /* \"#utility.yul\":334:451   */\n        tag_25:\n            /* \"#utility.yul\":443:444   */\n          0x00\n            /* \"#utility.yul\":440:441   */\n          dup1\n            /* \"#utility.yul\":433:445   */\n          revert\n            /* \"#utility.yul\":457:574   */\n        tag_26:\n            /* \"#utility.yul\":566:567   */\n          0x00\n            /* \"#utility.yul\":563:564   */\n          dup1\n            /* \"#utility.yul\":556:568   */\n          revert\n            /* \"#utility.yul\":580:682   */\n        tag_27:\n            /* \"#utility.yul\":621:627   */\n          0x00\n            /* \"#utility.yul\":672:674   */\n          0x1f\n            /* \"#utility.yul\":668:675   */\n          not\n            /* \"#utility.yul\":663:665   */\n          0x1f\n            /* \"#utility.yul\":656:661   */\n          dup4\n            /* \"#utility.yul\":652:666   */\n          add\n            /* \"#utility.yul\":648:676   */\n          and\n            /* \"#utility.yul\":638:676   */\n          swap1\n          pop\n            /* \"#utility.yul\":580:682   */\n          swap2\n          swap1\n          pop\n          jump\t// out\n            /* \"#utility.yul\":688:868   */\n        tag_28:\n            /* \"#utility.yul\":736:813   */\n          0x4e487b7100000000000000000000000000000000000000000000000000000000\n            /* \"#utility.yul\":733:734   */\n          0x00\n            /* \"#utility.yul\":726:814   */\n          mstore\n            /* \"#utility.yul\":833:837   */\n          0x41\n            /* \"#utility.yul\":830:831   */\n          0x04\n            /* \"#utility.yul\":823:838   */\n          mstore\n            /* \"#utility.yul\":857:861   */\n          0x24\n            /* \"#utility.yul\":854:855   */\n          0x00\n            /* \"#utility.yul\":847:862   */\n          revert\n            /* \"#utility.yul\":874:1155   */\n        tag_29:\n            /* \"#utility.yul\":957:984   */\n          tag_76\n            /* \"#utility.yul\":979:983   */\n          dup3\n            /* \"#utility.yul\":957:984   */\n          tag_27\n          jump\t// in\n        tag_76:\n            /* \"#utility.yul\":949:955   */\n          dup2\n            /* \"#utility.yul\":945:985   */\n          add\n            /* \"#utility.yul\":1087:1093   */\n          dup2\n            /* \"#utility.yul\":1075:1085   */\n          dup2\n            /* \"#utility.yul\":1072:1094   */\n          lt\n            /* \"#utility.yul\":1051:1069   */\n          0xffffffffffffffff\n            /* \"#utility.yul\":1039:1049   */\n          dup3\n            /* \"#utility.yul\":1036:1070   */\n          gt\n            /* \"#utility.yul\":1033:1095   */\n          or\n            /* \"#utility.yul\":1030:1118   */\n          iszero\n          tag_77\n          jumpi\n            /* \"#utility.yul\":1098:1116   */\n          tag_78\n          tag_28\n          jump\t// in\n        tag_78:\n            /* \"#utility.yul\":1030:1118   */\n        tag_77:\n            /* \"#utility.yul\":1138:1148   */\n          dup1\n            /* \"#utility.yul\":1134:1136   */\n          0x40\n            /* \"#utility.yul\":1127:1149   */\n          mstore\n            /* \"#utility.yul\":917:1155   */\n          pop\n            /* \"#utility.yul\":874:1155   */\n          pop\n          pop\n          jump\t// out\n            /* \"#utility.yul\":1161:1290   */\n        tag_30:\n            /* \"#utility.yul\":1195:1201   */\n          0x00\n            /* \"#utility.yul\":1222:1242   */\n          tag_80\n          tag_22\n          jump\t// in\n        tag_80:\n            /* \"#utility.yul\":1212:1242   */\n          swap1\n          pop\n            /* \"#utility.yul\":1251:1284   */\n          tag_81\n            /* \"#utility.yul\":1279:1283   */\n          dup3\n            /* \"#utility.yul\":1271:1277   */\n          dup3\n            /* \"#utility.yul\":1251:1284   */\n          tag_29\n          jump\t// in\n        tag_81:\n            /* \"#utility.yul\":1161:1290   */\n          swap2\n          swap1\n          pop\n          jump\t// out\n            /* \"#utility.yul\":1296:1604   */\n        tag_31:\n            /* \"#utility.yul\":1358:1362   */\n          0x00\n            /* \"#utility.yul\":1448:1466   */\n          0xffffffffffffffff\n            /* \"#utility.yul\":1440:1446   */\n          dup3\n            /* \"#utility.yul\":1437:1467   */\n          gt\n            /* \"#utility.yul\":1434:1490   */\n          iszero\n          tag_83\n          jumpi\n            /* \"#utility.yul\":1470:1488   */\n          tag_84\n          tag_28\n          jump\t// in\n        tag_84:\n            /* \"#utility.yul\":1434:1490   */\n        tag_83:\n            /* \"#utility.yul\":1508:1537   */\n          tag_85\n            /* \"#utility.yul\":1530:1536   */\n          dup3\n            /* \"#utility.yul\":1508:1537   */\n          tag_27\n          jump\t// in\n        tag_85:\n            /* \"#utility.yul\":1500:1537   */\n          swap1\n          pop\n            /* \"#utility.yul\":1592:1596   */\n          0x20\n            /* \"#utility.yul\":1586:1590   */\n          dup2\n            /* \"#utility.yul\":1582:1597   */\n          add\n            /* \"#utility.yul\":1574:1597   */\n          swap1\n          pop\n            /* \"#utility.yul\":1296:1604   */\n          swap2\n          swap1\n          pop\n          jump\t// out\n            /* \"#utility.yul\":1610:1856   */\n        tag_32:\n            /* \"#utility.yul\":1691:1692   */\n          0x00\n            /* \"#utility.yul\":1701:1814   */\n        tag_87:\n            /* \"#utility.yul\":1715:1721   */\n          dup4\n            /* \"#utility.yul\":1712:1713   */\n          dup2\n            /* \"#utility.yul\":1709:1722   */\n          lt\n            /* \"#utility.yul\":1701:1814   */\n          iszero\n          tag_89\n          jumpi\n            /* \"#utility.yul\":1800:1801   */\n          dup1\n            /* \"#utility.yul\":1795:1798   */\n          dup3\n            /* \"#utility.yul\":1791:1802   */\n          add\n            /* \"#utility.yul\":1785:1803   */\n          mload\n            /* \"#utility.yul\":1781:1782   */\n          dup2\n            /* \"#utility.yul\":1776:1779   */\n          dup5\n            /* \"#utility.yul\":1772:1783   */\n          add\n            /* \"#utility.yul\":1765:1804   */\n          mstore\n            /* \"#utility.yul\":1737:1739   */\n          0x20\n            /* \"#utility.yul\":1734:1735   */\n          dup2\n            /* \"#utility.yul\":1730:1740   */\n          add\n            /* \"#utility.yul\":1725:1740   */\n          swap1\n          pop\n            /* \"#utility.yul\":1701:1814   */\n          jump(tag_87)\n        tag_89:\n            /* \"#utility.yul\":1848:1849   */\n          0x00\n            /* \"#utility.yul\":1839:1845   */\n          dup5\n            /* \"#utility.yul\":1834:1837   */\n          dup5\n            /* \"#utility.yul\":1830:1846   */\n          add\n            /* \"#utility.yul\":1823:1850   */\n          mstore\n            /* \"#utility.yul\":1672:1856   */\n          pop\n            /* \"#utility.yul\":1610:1856   */\n          pop\n          pop\n          pop\n          jump\t// out\n            /* \"#utility.yul\":1862:2296   */\n        tag_33:\n            /* \"#utility.yul\":1951:1956   */\n          0x00\n            /* \"#utility.yul\":1976:2042   */\n          tag_91\n            /* \"#utility.yul\":1992:2041   */\n          tag_92\n            /* \"#utility.yul\":2034:2040   */\n          dup5\n            /* \"#utility.yul\":1992:2041   */\n          tag_31\n          jump\t// in\n        tag_92:\n            /* \"#utility.yul\":1976:2042   */\n          tag_30\n          jump\t// in\n        tag_91:\n            /* \"#utility.yul\":1967:2042   */\n          swap1\n          pop\n            /* \"#utility.yul\":2065:2071   */\n          dup3\n            /* \"#utility.yul\":2058:2063   */\n          dup2\n            /* \"#utility.yul\":2051:2072   */\n          mstore\n            /* \"#utility.yul\":2103:2107   */\n          0x20\n            /* \"#utility.yul\":2096:2101   */\n          dup2\n            /* \"#utility.yul\":2092:2108   */\n          add\n            /* \"#utility.yul\":2141:2144   */\n          dup5\n            /* \"#utility.yul\":2132:2138   */\n          dup5\n            /* \"#utility.yul\":2127:2130   */\n          dup5\n            /* \"#utility.yul\":2123:2139   */\n          add\n            /* \"#utility.yul\":2120:2145   */\n          gt\n            /* \"#utility.yul\":2117:2229   */\n          iszero\n          tag_93\n          jumpi\n            /* \"#utility.yul\":2148:2227   */\n          tag_94\n          tag_26\n          jump\t// in\n        tag_94:\n            /* \"#utility.yul\":2117:2229   */\n        tag_93:\n            /* \"#utility.yul\":2238:2290   */\n          tag_95\n            /* \"#utility.yul\":2283:2289   */\n          dup5\n            /* \"#utility.yul\":2278:2281   */\n          dup3\n            /* \"#utility.yul\":2273:2276   */\n          dup6\n            /* \"#utility.yul\":2238:2290   */\n          tag_32\n          jump\t// in\n        tag_95:\n            /* \"#utility.yul\":1957:2296   */\n          pop\n            /* \"#utility.yul\":1862:2296   */\n          swap4\n          swap3\n          pop\n          pop\n          pop\n          jump\t// out\n            /* \"#utility.yul\":2316:2671   */\n        tag_34:\n            /* \"#utility.yul\":2383:2388   */\n          0x00\n            /* \"#utility.yul\":2432:2435   */\n          dup3\n            /* \"#utility.yul\":2425:2429   */\n          0x1f\n            /* \"#utility.yul\":2417:2423   */\n          dup4\n            /* \"#utility.yul\":2413:2430   */\n          add\n            /* \"#utility.yul\":2409:2436   */\n          slt\n            /* \"#utility.yul\":2399:2521   */\n          tag_97\n          jumpi\n            /* \"#utility.yul\":2440:2519   */\n          tag_98\n          tag_25\n          jump\t// in\n        tag_98:\n            /* \"#utility.yul\":2399:2521   */\n        tag_97:\n            /* \"#utility.yul\":2550:2556   */\n          dup2\n            /* \"#utility.yul\":2544:2557   */\n          mload\n            /* \"#utility.yul\":2575:2665   */\n          tag_99\n            /* \"#utility.yul\":2661:2664   */\n          dup5\n            /* \"#utility.yul\":2653:2659   */\n          dup3\n            /* \"#utility.yul\":2646:2650   */\n          0x20\n            /* \"#utility.yul\":2638:2644   */\n          dup7\n            /* \"#utility.yul\":2634:2651   */\n          add\n            /* \"#utility.yul\":2575:2665   */\n          tag_33\n          jump\t// in\n        tag_99:\n            /* \"#utility.yul\":2566:2665   */\n          swap2\n          pop\n            /* \"#utility.yul\":2389:2671   */\n          pop\n            /* \"#utility.yul\":2316:2671   */\n          swap3\n          swap2\n          pop\n          pop\n          jump\t// out\n            /* \"#utility.yul\":2677:2763   */\n        tag_35:\n            /* \"#utility.yul\":2712:2719   */\n          0x00\n            /* \"#utility.yul\":2752:2756   */\n          0xff\n            /* \"#utility.yul\":2745:2750   */\n          dup3\n            /* \"#utility.yul\":2741:2757   */\n          and\n            /* \"#utility.yul\":2730:2757   */\n          swap1\n          pop\n            /* \"#utility.yul\":2677:2763   */\n          swap2\n          swap1\n          pop\n          jump\t// out\n            /* \"#utility.yul\":2769:2887   */\n        tag_36:\n            /* \"#utility.yul\":2840:2862   */\n          tag_102\n            /* \"#utility.yul\":2856:2861   */\n          dup2\n            /* \"#utility.yul\":2840:2862   */\n          tag_35\n          jump\t// in\n        tag_102:\n            /* \"#utility.yul\":2833:2838   */\n          dup2\n            /* \"#utility.yul\":2830:2863   */\n          eq\n            /* \"#utility.yul\":2820:2881   */\n          tag_103\n          jumpi\n            /* \"#utility.yul\":2877:2878   */\n          0x00\n            /* \"#utility.yul\":2874:2875   */\n          dup1\n            /* \"#utility.yul\":2867:2879   */\n          revert\n            /* \"#utility.yul\":2820:2881   */\n        tag_103:\n            /* \"#utility.yul\":2769:2887   */\n          pop\n          jump\t// out\n            /* \"#utility.yul\":2893:3032   */\n        tag_37:\n            /* \"#utility.yul\":2948:2953   */\n          0x00\n            /* \"#utility.yul\":2979:2985   */\n          dup2\n            /* \"#utility.yul\":2973:2986   */\n          mload\n            /* \"#utility.yul\":2964:2986   */\n          swap1\n          pop\n            /* \"#utility.yul\":2995:3026   */\n          tag_105\n            /* \"#utility.yul\":3020:3025   */\n          dup2\n            /* \"#utility.yul\":2995:3026   */\n          tag_36\n          jump\t// in\n        tag_105:\n            /* \"#utility.yul\":2893:3032   */\n          swap3\n          swap2\n          pop\n          pop\n          jump\t// out\n            /* \"#utility.yul\":3038:3164   */\n        tag_38:\n            /* \"#utility.yul\":3075:3082   */\n          0x00\n            /* \"#utility.yul\":3115:3157   */\n          0xffffffffffffffffffffffffffffffffffffffff\n            /* \"#utility.yul\":3108:3113   */\n          dup3\n            /* \"#utility.yul\":3104:3158   */\n          and\n            /* \"#utility.yul\":3093:3158   */\n          swap1\n          pop\n            /* \"#utility.yul\":3038:3164   */\n          swap2\n          swap1\n          pop\n          jump\t// out\n            /* \"#utility.yul\":3170:3266   */\n        tag_39:\n            /* \"#utility.yul\":3207:3214   */\n          0x00\n            /* \"#utility.yul\":3236:3260   */\n          tag_108\n            /* \"#utility.yul\":3254:3259   */\n          dup3\n            /* \"#utility.yul\":3236:3260   */\n          tag_38\n          jump\t// in\n        tag_108:\n            /* \"#utility.yul\":3225:3260   */\n          swap1\n          pop\n            /* \"#utility.yul\":3170:3266   */\n          swap2\n          swap1\n          pop\n          jump\t// out\n            /* \"#utility.yul\":3272:3394   */\n        tag_40:\n            /* \"#utility.yul\":3345:3369   */\n          tag_110\n            /* \"#utility.yul\":3363:3368   */\n          dup2\n            /* \"#utility.yul\":3345:3369   */\n          tag_39\n          jump\t// in\n        tag_110:\n            /* \"#utility.yul\":3338:3343   */\n          dup2\n            /* \"#utility.yul\":3335:3370   */\n          eq\n            /* \"#utility.yul\":3325:3388   */\n          tag_111\n          jumpi\n            /* \"#utility.yul\":3384:3385   */\n          0x00\n            /* \"#utility.yul\":3381:3382   */\n          dup1\n            /* \"#utility.yul\":3374:3386   */\n          revert\n            /* \"#utility.yul\":3325:3388   */\n        tag_111:\n            /* \"#utility.yul\":3272:3394   */\n          pop\n          jump\t// out\n            /* \"#utility.yul\":3400:3543   */\n        tag_41:\n            /* \"#utility.yul\":3457:3462   */\n          0x00\n            /* \"#utility.yul\":3488:3494   */\n          dup2\n            /* \"#utility.yul\":3482:3495   */\n          mload\n            /* \"#utility.yul\":3473:3495   */\n          swap1\n          pop\n            /* \"#utility.yul\":3504:3537   */\n          tag_113\n            /* \"#utility.yul\":3531:3536   */\n          dup2\n            /* \"#utility.yul\":3504:3537   */\n          tag_40\n          jump\t// in\n        tag_113:\n            /* \"#utility.yul\":3400:3543   */\n          swap3\n          swap2\n          pop\n          pop\n          jump\t// out\n            /* \"#utility.yul\":3549:3626   */\n        tag_42:\n            /* \"#utility.yul\":3586:3593   */\n          0x00\n            /* \"#utility.yul\":3615:3620   */\n          dup2\n            /* \"#utility.yul\":3604:3620   */\n          swap1\n          pop\n            /* \"#utility.yul\":3549:3626   */\n          swap2\n          swap1\n          pop\n          jump\t// out\n            /* \"#utility.yul\":3632:3754   */\n        tag_43:\n            /* \"#utility.yul\":3705:3729   */\n          tag_116\n            /* \"#utility.yul\":3723:3728   */\n          dup2\n            /* \"#utility.yul\":3705:3729   */\n          tag_42\n          jump\t// in\n        tag_116:\n            /* \"#utility.yul\":3698:3703   */\n          dup2\n            /* \"#utility.yul\":3695:3730   */\n          eq\n            /* \"#utility.yul\":3685:3748   */\n          tag_117\n          jumpi\n            /* \"#utility.yul\":3744:3745   */\n          0x00\n            /* \"#utility.yul\":3741:3742   */\n          dup1\n            /* \"#utility.yul\":3734:3746   */\n          revert\n            /* \"#utility.yul\":3685:3748   */\n        tag_117:\n            /* \"#utility.yul\":3632:3754   */\n          pop\n          jump\t// out\n            /* \"#utility.yul\":3760:3903   */\n        tag_44:\n            /* \"#utility.yul\":3817:3822   */\n          0x00\n            /* \"#utility.yul\":3848:3854   */\n          dup2\n            /* \"#utility.yul\":3842:3855   */\n          mload\n            /* \"#utility.yul\":3833:3855   */\n          swap1\n          pop\n            /* \"#utility.yul\":3864:3897   */\n          tag_119\n            /* \"#utility.yul\":3891:3896   */\n          dup2\n            /* \"#utility.yul\":3864:3897   */\n          tag_43\n          jump\t// in\n        tag_119:\n            /* \"#utility.yul\":3760:3903   */\n          swap3\n          swap2\n          pop\n          pop\n          jump\t// out\n            /* \"#utility.yul\":3909:5228   */\n        tag_3:\n            /* \"#utility.yul\":4033:4039   */\n          0x00\n            /* \"#utility.yul\":4041:4047   */\n          dup1\n            /* \"#utility.yul\":4049:4055   */\n          0x00\n            /* \"#utility.yul\":4057:4063   */\n          dup1\n            /* \"#utility.yul\":4065:4071   */\n          0x00\n            /* \"#utility.yul\":4114:4117   */\n          0xa0\n            /* \"#utility.yul\":4102:4111   */\n          dup7\n            /* \"#utility.yul\":4093:4100   */\n          dup9\n            /* \"#utility.yul\":4089:4112   */\n          sub\n            /* \"#utility.yul\":4085:4118   */\n          slt\n            /* \"#utility.yul\":4082:4202   */\n          iszero\n          tag_121\n          jumpi\n            /* \"#utility.yul\":4121:4200   */\n          tag_122\n          tag_23\n          jump\t// in\n        tag_122:\n            /* \"#utility.yul\":4082:4202   */\n        tag_121:\n            /* \"#utility.yul\":4262:4263   */\n          0x00\n            /* \"#utility.yul\":4251:4260   */\n          dup7\n            /* \"#utility.yul\":4247:4264   */\n          add\n            /* \"#utility.yul\":4241:4265   */\n          mload\n            /* \"#utility.yul\":4292:4310   */\n          0xffffffffffffffff\n            /* \"#utility.yul\":4284:4290   */\n          dup2\n            /* \"#utility.yul\":4281:4311   */\n          gt\n            /* \"#utility.yul\":4278:4395   */\n          iszero\n          tag_123\n          jumpi\n            /* \"#utility.yul\":4314:4393   */\n          tag_124\n          tag_24\n          jump\t// in\n        tag_124:\n            /* \"#utility.yul\":4278:4395   */\n        tag_123:\n            /* \"#utility.yul\":4419:4493   */\n          tag_125\n            /* \"#utility.yul\":4485:4492   */\n          dup9\n            /* \"#utility.yul\":4476:4482   */\n          dup3\n            /* \"#utility.yul\":4465:4474   */\n          dup10\n            /* \"#utility.yul\":4461:4483   */\n          add\n            /* \"#utility.yul\":4419:4493   */\n          tag_34\n          jump\t// in\n        tag_125:\n            /* \"#utility.yul\":4409:4493   */\n          swap6\n          pop\n            /* \"#utility.yul\":4212:4503   */\n          pop\n            /* \"#utility.yul\":4563:4565   */\n          0x20\n            /* \"#utility.yul\":4552:4561   */\n          dup7\n            /* \"#utility.yul\":4548:4566   */\n          add\n            /* \"#utility.yul\":4542:4567   */\n          mload\n            /* \"#utility.yul\":4594:4612   */\n          0xffffffffffffffff\n            /* \"#utility.yul\":4586:4592   */\n          dup2\n            /* \"#utility.yul\":4583:4613   */\n          gt\n            /* \"#utility.yul\":4580:4697   */\n          iszero\n          tag_126\n          jumpi\n            /* \"#utility.yul\":4616:4695   */\n          tag_127\n          tag_24\n          jump\t// in\n        tag_127:\n            /* \"#utility.yul\":4580:4697   */\n        tag_126:\n            /* \"#utility.yul\":4721:4795   */\n          tag_128\n            /* \"#utility.yul\":4787:4794   */\n          dup9\n            /* \"#utility.yul\":4778:4784   */\n          dup3\n            /* \"#utility.yul\":4767:4776   */\n          dup10\n            /* \"#utility.yul\":4763:4785   */\n          add\n            /* \"#utility.yul\":4721:4795   */\n          tag_34\n          jump\t// in\n        tag_128:\n            /* \"#utility.yul\":4711:4795   */\n          swap5\n          pop\n            /* \"#utility.yul\":4513:4805   */\n          pop\n            /* \"#utility.yul\":4844:4846   */\n          0x40\n            /* \"#utility.yul\":4870:4932   */\n          tag_129\n            /* \"#utility.yul\":4924:4931   */\n          dup9\n            /* \"#utility.yul\":4915:4921   */\n          dup3\n            /* \"#utility.yul\":4904:4913   */\n          dup10\n            /* \"#utility.yul\":4900:4922   */\n          add\n            /* \"#utility.yul\":4870:4932   */\n          tag_37\n          jump\t// in\n        tag_129:\n            /* \"#utility.yul\":4860:4932   */\n          swap4\n          pop\n            /* \"#utility.yul\":4815:4942   */\n          pop\n            /* \"#utility.yul\":4981:4983   */\n          0x60\n            /* \"#utility.yul\":5007:5071   */\n          tag_130\n            /* \"#utility.yul\":5063:5070   */\n          dup9\n            /* \"#utility.yul\":5054:5060   */\n          dup3\n            /* \"#utility.yul\":5043:5052   */\n          dup10\n            /* \"#utility.yul\":5039:5061   */\n          add\n            /* \"#utility.yul\":5007:5071   */\n          tag_41\n          jump\t// in\n        tag_130:\n            /* \"#utility.yul\":4997:5071   */\n          swap3\n          pop\n            /* \"#utility.yul\":4952:5081   */\n          pop\n            /* \"#utility.yul\":5120:5123   */\n          0x80\n            /* \"#utility.yul\":5147:5211   */\n          tag_131\n            /* \"#utility.yul\":5203:5210   */\n          dup9\n            /* \"#utility.yul\":5194:5200   */\n          dup3\n            /* \"#utility.yul\":5183:5192   */\n          dup10\n            /* \"#utility.yul\":5179:5201   */\n          add\n            /* \"#utility.yul\":5147:5211   */\n          tag_44\n          jump\t// in\n        tag_131:\n            /* \"#utility.yul\":5137:5211   */\n          swap2\n          pop\n            /* \"#utility.yul\":5091:5221   */\n          pop\n            /* \"#utility.yul\":3909:5228   */\n          swap3\n          swap6\n          pop\n          swap3\n          swap6\n          swap1\n          swap4\n          pop\n          jump\t// out\n            /* \"#utility.yul\":5234:5333   */\n        tag_45:\n            /* \"#utility.yul\":5286:5292   */\n          0x00\n            /* \"#utility.yul\":5320:5325   */\n          dup2\n            /* \"#utility.yul\":5314:5326   */\n          mload\n            /* \"#utility.yul\":5304:5326   */\n          swap1\n          pop\n            /* \"#utility.yul\":5234:5333   */\n          swap2\n          swap1\n          pop\n          jump\t// out\n            /* \"#utility.yul\":5339:5519   */\n        tag_46:\n            /* \"#utility.yul\":5387:5464   */\n          0x4e487b7100000000000000000000000000000000000000000000000000000000\n            /* \"#utility.yul\":5384:5385   */\n          0x00\n            /* \"#utility.yul\":5377:5465   */\n          mstore\n            /* \"#utility.yul\":5484:5488   */\n          0x22\n            /* \"#utility.yul\":5481:5482   */\n          0x04\n            /* \"#utility.yul\":5474:5489   */\n          mstore\n            /* \"#utility.yul\":5508:5512   */\n          0x24\n            /* \"#utility.yul\":5505:5506   */\n          0x00\n            /* \"#utility.yul\":5498:5513   */\n          revert\n            /* \"#utility.yul\":5525:5845   */\n        tag_47:\n            /* \"#utility.yul\":5569:5575   */\n          0x00\n            /* \"#utility.yul\":5606:5607   */\n          0x02\n            /* \"#utility.yul\":5600:5604   */\n          dup3\n            /* \"#utility.yul\":5596:5608   */\n          div\n            /* \"#utility.yul\":5586:5608   */\n          swap1\n          pop\n            /* \"#utility.yul\":5653:5654   */\n          0x01\n            /* \"#utility.yul\":5647:5651   */\n          dup3\n            /* \"#utility.yul\":5643:5655   */\n          and\n            /* \"#utility.yul\":5674:5692   */\n          dup1\n            /* \"#utility.yul\":5664:5745   */\n          tag_135\n          jumpi\n            /* \"#utility.yul\":5730:5734   */\n          0x7f\n            /* \"#utility.yul\":5722:5728   */\n          dup3\n            /* \"#utility.yul\":5718:5735   */\n          and\n            /* \"#utility.yul\":5708:5735   */\n          swap2\n          pop\n            /* \"#utility.yul\":5664:5745   */\n        tag_135:\n            /* \"#utility.yul\":5792:5794   */\n          0x20\n            /* \"#utility.yul\":5784:5790   */\n          dup3\n            /* \"#utility.yul\":5781:5795   */\n          lt\n            /* \"#utility.yul\":5761:5779   */\n          dup2\n            /* \"#utility.yul\":5758:5796   */\n          sub\n            /* \"#utility.yul\":5755:5839   */\n          tag_136\n          jumpi\n            /* \"#utility.yul\":5811:5829   */\n          tag_137\n          tag_46\n          jump\t// in\n        tag_137:\n            /* \"#utility.yul\":5755:5839   */\n        tag_136:\n            /* \"#utility.yul\":5576:5845   */\n          pop\n            /* \"#utility.yul\":5525:5845   */\n          swap2\n          swap1\n          pop\n          jump\t// out\n            /* \"#utility.yul\":5851:5992   */\n        tag_48:\n            /* \"#utility.yul\":5900:5904   */\n          0x00\n            /* \"#utility.yul\":5923:5926   */\n          dup2\n            /* \"#utility.yul\":5915:5926   */\n          swap1\n          pop\n            /* \"#utility.yul\":5946:5949   */\n          dup2\n            /* \"#utility.yul\":5943:5944   */\n          0x00\n            /* \"#utility.yul\":5936:5950   */\n          mstore\n            /* \"#utility.yul\":5980:5984   */\n          0x20\n            /* \"#utility.yul\":5977:5978   */\n          0x00\n            /* \"#utility.yul\":5967:5985   */\n          keccak256\n            /* \"#utility.yul\":5959:5985   */\n          swap1\n          pop\n            /* \"#utility.yul\":5851:5992   */\n          swap2\n          swap1\n          pop\n          jump\t// out\n            /* \"#utility.yul\":5998:6091   */\n        tag_49:\n            /* \"#utility.yul\":6035:6041   */\n          0x00\n            /* \"#utility.yul\":6082:6084   */\n          0x20\n            /* \"#utility.yul\":6077:6079   */\n          0x1f\n            /* \"#utility.yul\":6070:6075   */\n          dup4\n            /* \"#utility.yul\":6066:6080   */\n          add\n            /* \"#utility.yul\":6062:6085   */\n          div\n            /* \"#utility.yul\":6052:6085   */\n          swap1\n          pop\n            /* \"#utility.yul\":5998:6091   */\n          swap2\n          swap1\n          pop\n          jump\t// out\n            /* \"#utility.yul\":6097:6204   */\n        tag_50:\n            /* \"#utility.yul\":6141:6149   */\n          0x00\n            /* \"#utility.yul\":6191:6196   */\n          dup3\n            /* \"#utility.yul\":6185:6189   */\n          dup3\n            /* \"#utility.yul\":6181:6197   */\n          shl\n            /* \"#utility.yul\":6160:6197   */\n          swap1\n          pop\n            /* \"#utility.yul\":6097:6204   */\n          swap3\n          swap2\n          pop\n          pop\n          jump\t// out\n            /* \"#utility.yul\":6210:6603   */\n        tag_51:\n            /* \"#utility.yul\":6279:6285   */\n          0x00\n            /* \"#utility.yul\":6329:6330   */\n          0x08\n            /* \"#utility.yul\":6317:6327   */\n          dup4\n            /* \"#utility.yul\":6313:6331   */\n          mul\n            /* \"#utility.yul\":6352:6449   */\n          tag_142\n            /* \"#utility.yul\":6382:6448   */\n          0xffffffffffffffffffffffffffffffffffffffffffffffffffffffffffffffff\n            /* \"#utility.yul\":6371:6380   */\n          dup3\n            /* \"#utility.yul\":6352:6449   */\n          tag_50\n          jump\t// in\n        tag_142:\n            /* \"#utility.yul\":6470:6509   */\n          tag_143\n            /* \"#utility.yul\":6500:6508   */\n          dup7\n            /* \"#utility.yul\":6489:6498   */\n          dup4\n            /* \"#utility.yul\":6470:6509   */\n          tag_50\n          jump\t// in\n        tag_143:\n            /* \"#utility.yul\":6458:6509   */\n          swap6\n          pop\n            /* \"#utility.yul\":6542:6546   */\n          dup1\n            /* \"#utility.yul\":6538:6547   */\n          not\n            /* \"#utility.yul\":6531:6536   */\n          dup5\n            /* \"#utility.yul\":6527:6548   */\n          and\n            /* \"#utility.yul\":6518:6548   */\n          swap4\n          pop\n            /* \"#utility.yul\":6591:6595   */\n          dup1\n            /* \"#utility.yul\":6581:6589   */\n          dup7\n            /* \"#utility.yul\":6577:6596   */\n          and\n            /* \"#utility.yul\":6570:6575   */\n          dup5\n            /* \"#utility.yul\":6567:6597   */\n          or\n            /* \"#utility.yul\":6557:6597   */\n          swap3\n          pop\n            /* \"#utility.yul\":6286:6603   */\n          pop\n          pop\n            /* \"#utility.yul\":6210:6603   */\n          swap4\n          swap3\n          pop\n          pop\n          pop\n          jump\t// out\n            /* \"#utility.yul\":6609:6669   */\n        tag_52:\n            /* \"#utility.yul\":6637:6640   */\n          0x00\n            /* \"#utility.yul\":6658:6663   */\n          dup2\n            /* \"#utility.yul\":6651:6663   */\n          swap1\n          pop\n            /* \"#utility.yul\":6609:6669   */\n          swap2\n          swap1\n          pop\n          jump\t// out\n            /* \"#utility.yul\":6675:6817   */\n        tag_53:\n            /* \"#utility.yul\":6725:6734   */\n          0x00\n            /* \"#utility.yul\":6758:6811   */\n          tag_146\n            /* \"#utility.yul\":6776:6810   */\n          tag_147\n            /* \"#utility.yul\":6785:6809   */\n          tag_148\n            /* \"#utility.yul\":6803:6808   */\n          dup5\n            /* \"#utility.yul\":6785:6809   */\n          tag_42\n          jump\t// in\n        tag_148:\n            /* \"#utility.yul\":6776:6810   */\n          tag_52\n          jump\t// in\n        tag_147:\n            /* \"#utility.yul\":6758:6811   */\n          tag_42\n          jump\t// in\n        tag_146:\n            /* \"#utility.yul\":6745:6811   */\n          swap1\n          pop\n            /* \"#utility.yul\":6675:6817   */\n          swap2\n          swap1\n          pop\n          jump\t// out\n            /* \"#utility.yul\":6823:6898   */\n        tag_54:\n            /* \"#utility.yul\":6866:6869   */\n          0x00\n            /* \"#utility.yul\":6887:6892   */\n          dup2\n            /* \"#utility.yul\":6880:6892   */\n          swap1\n          pop\n            /* \"#utility.yul\":6823:6898   */\n          swap2\n          swap1\n          pop\n          jump\t// out\n            /* \"#utility.yul\":6904:7173   */\n        tag_55:\n            /* \"#utility.yul\":7014:7053   */\n          tag_151\n            /* \"#utility.yul\":7045:7052   */\n          dup4\n            /* \"#utility.yul\":7014:7053   */\n          tag_53\n          jump\t// in\n        tag_151:\n            /* \"#utility.yul\":7075:7166   */\n          tag_152\n            /* \"#utility.yul\":7124:7165   */\n          tag_153\n            /* \"#utility.yul\":7148:7164   */\n          dup3\n            /* \"#utility.yul\":7124:7165   */\n          tag_54\n          jump\t// in\n        tag_153:\n            /* \"#utility.yul\":7116:7122   */\n          dup5\n            /* \"#utility.yul\":7109:7113   */\n          dup5\n            /* \"#utility.yul\":7103:7114   */\n          sload\n            /* \"#utility.yul\":7075:7166   */\n          tag_51\n          jump\t// in\n        tag_152:\n            /* \"#utility.yul\":7069:7073   */\n          dup3\n            /* \"#utility.yul\":7062:7167   */\n          sstore\n            /* \"#utility.yul\":6980:7173   */\n          pop\n            /* \"#utility.yul\":6904:7173   */\n          pop\n          pop\n          pop\n          jump\t// out\n            /* \"#utility.yul\":7179:7252   */\n        tag_56:\n            /* \"#utility.yul\":7224:7227   */\n          0x00\n            /* \"#utility.yul\":7179:7252   */\n          swap1\n          jump\t// out\n            /* \"#utility.yul\":7258:7447   */\n        tag_57:\n            /* \"#utility.yul\":7335:7367   */\n          tag_156\n          tag_56\n          jump\t// in\n        tag_156:\n            /* \"#utility.yul\":7376:7441   */\n          tag_157\n            /* \"#utility.yul\":7434:7440   */\n          dup2\n            /* \"#utility.yul\":7426:7432   */\n          dup5\n            /* \"#utility.yul\":7420:7424   */\n          dup5\n            /* \"#utility.yul\":7376:7441   */\n          tag_55\n          jump\t// in\n        tag_157:\n            /* \"#utility.yul\":7311:7447   */\n          pop\n            /* \"#utility.yul\":7258:7447   */\n          pop\n          pop\n          jump\t// out\n            /* \"#utility.yul\":7453:7639   */\n        tag_58:\n            /* \"#utility.yul\":7513:7633   */\n        tag_159:\n            /* \"#utility.yul\":7530:7533   */\n          dup2\n            /* \"#utility.yul\":7523:7528   */\n          dup2\n            /* \"#utility.yul\":7520:7534   */\n          lt\n            /* \"#utility.yul\":7513:7633   */\n          iszero\n          tag_161\n          jumpi\n            /* \"#utility.yul\":7584:7623   */\n          tag_162\n            /* \"#utility.yul\":7621:7622   */\n          0x00\n            /* \"#utility.yul\":7614:7619   */\n          dup3\n            /* \"#utility.yul\":7584:7623   */\n          tag_57\n          jump\t// in\n        tag_162:\n            /* \"#utility.yul\":7557:7558   */\n          0x01\n            /* \"#utility.yul\":7550:7555   */\n          dup2\n            /* \"#utility.yul\":7546:7559   */\n          add\n            /* \"#utility.yul\":7537:7559   */\n          swap1\n          pop\n            /* \"#utility.yul\":7513:7633   */\n          jump(tag_159)\n        tag_161:\n            /* \"#utility.yul\":7453:7639   */\n          pop\n          pop\n          jump\t// out\n            /* \"#utility.yul\":7645:8188   */\n        tag_59:\n            /* \"#utility.yul\":7746:7748   */\n          0x1f\n            /* \"#utility.yul\":7741:7744   */\n          dup3\n            /* \"#utility.yul\":7738:7749   */\n          gt\n            /* \"#utility.yul\":7735:8181   */\n          iszero\n          tag_164\n          jumpi\n            /* \"#utility.yul\":7780:7818   */\n          tag_165\n            /* \"#utility.yul\":7812:7817   */\n          dup2\n            /* \"#utility.yul\":7780:7818   */\n          tag_48\n          jump\t// in\n        tag_165:\n            /* \"#utility.yul\":7864:7893   */\n          tag_166\n            /* \"#utility.yul\":7882:7892   */\n          dup5\n            /* \"#utility.yul\":7864:7893   */\n          tag_49\n          jump\t// in\n        tag_166:\n            /* \"#utility.yul\":7854:7862   */\n          dup2\n            /* \"#utility.yul\":7850:7894   */\n          add\n            /* \"#utility.yul\":8047:8049   */\n          0x20\n            /* \"#utility.yul\":8035:8045   */\n          dup6\n            /* \"#utility.yul\":8032:8050   */\n          lt\n            /* \"#utility.yul\":8029:8078   */\n          iszero\n          tag_167\n          jumpi\n            /* \"#utility.yul\":8068:8076   */\n          dup2\n            /* \"#utility.yul\":8053:8076   */\n          swap1\n          pop\n            /* \"#utility.yul\":8029:8078   */\n        tag_167:\n            /* \"#utility.yul\":8091:8171   */\n          tag_168\n            /* \"#utility.yul\":8147:8169   */\n          tag_169\n            /* \"#utility.yul\":8165:8168   */\n          dup6\n            /* \"#utility.yul\":8147:8169   */\n          tag_49\n          jump\t// in\n        tag_169:\n            /* \"#utility.yul\":8137:8145   */\n          dup4\n            /* \"#utility.yul\":8133:8170   */\n          add\n            /* \"#utility.yul\":8120:8131   */\n          dup3\n            /* \"#utility.yul\":8091:8171   */\n          tag_58\n          jump\t// in\n        tag_168:\n            /* \"#utility.yul\":7750:8181   */\n          pop\n          pop\n            /* \"#utility.yul\":7735:8181   */\n        tag_164:\n            /* \"#utility.yul\":7645:8188   */\n          pop\n          pop\n          pop\n          jump\t// out\n            /* \"#utility.yul\":8194:8311   */\n        tag_60:\n            /* \"#utility.yul\":8248:8256   */\n          0x00\n            /* \"#utility.yul\":8298:8303   */\n          dup3\n            /* \"#utility.yul\":8292:8296   */\n          dup3\n            /* \"#utility.yul\":8288:8304   */\n          shr\n            /* \"#utility.yul\":8267:8304   */\n          swap1\n          pop\n            /* \"#utility.yul\":8194:8311   */\n          swap3\n          swap2\n          pop\n          pop\n          jump\t// out\n            /* \"#utility.yul\":8317:8486   */\n        tag_61:\n            /* \"#utility.yul\":8361:8367   */\n          0x00\n            /* \"#utility.yul\":8394:8445   */\n          tag_172\n            /* \"#utility.yul\":8442:8443   */\n          0x00\n            /* \"#utility.yul\":8438:8444   */\n          not\n            /* \"#utility.yul\":8430:8435   */\n          dup5\n            /* \"#utility.yul\":8427:8428   */\n          0x08\n            /* \"#utility.yul\":8423:8436   */\n          mul\n            /* \"#utility.yul\":8394:8445   */\n          tag_60\n          jump\t// in\n        tag_172:\n            /* \"#utility.yul\":8390:8446   */\n          not\n            /* \"#utility.yul\":8475:8479   */\n          dup1\n            /* \"#utility.yul\":8469:8473   */\n          dup4\n            /* \"#utility.yul\":8465:8480   */\n          and\n            /* \"#utility.yul\":8455:8480   */\n          swap2\n          pop\n            /* \"#utility.yul\":8368:8486   */\n          pop\n            /* \"#utility.yul\":8317:8486   */\n          swap3\n          swap2\n          pop\n          pop\n          jump\t// out\n            /* \"#utility.yul\":8491:8786   */\n        tag_62:\n            /* \"#utility.yul\":8567:8571   */\n          0x00\n            /* \"#utility.yul\":8713:8742   */\n          tag_174\n            /* \"#utility.yul\":8738:8741   */\n          dup4\n            /* \"#utility.yul\":8732:8736   */\n          dup4\n            /* \"#utility.yul\":8713:8742   */\n          tag_61\n          jump\t// in\n        tag_174:\n            /* \"#utility.yul\":8705:8742   */\n          swap2\n          pop\n            /* \"#utility.yul\":8775:8778   */\n          dup3\n            /* \"#utility.yul\":8772:8773   */\n          0x02\n            /* \"#utility.yul\":8768:8779   */\n          mul\n            /* \"#utility.yul\":8762:8766   */\n          dup3\n            /* \"#utility.yul\":8759:8780   */\n          or\n            /* \"#utility.yul\":8751:8780   */\n          swap1\n          pop\n            /* \"#utility.yul\":8491:8786   */\n          swap3\n          swap2\n          pop\n          pop\n          jump\t// out\n            /* \"#utility.yul\":8791:10186   */\n        tag_7:\n            /* \"#utility.yul\":8908:8945   */\n          tag_176\n            /* \"#utility.yul\":8941:8944   */\n          dup3\n            /* \"#utility.yul\":8908:8945   */\n          tag_45\n          jump\t// in\n        tag_176:\n            /* \"#utility.yul\":9010:9028   */\n          0xffffffffffffffff\n            /* \"#utility.yul\":9002:9008   */\n          dup2\n            /* \"#utility.yul\":8999:9029   */\n          gt\n            /* \"#utility.yul\":8996:9052   */\n          iszero\n          tag_177\n          jumpi\n            /* \"#utility.yul\":9032:9050   */\n          tag_178\n          tag_28\n          jump\t// in\n        tag_178:\n            /* \"#utility.yul\":8996:9052   */\n        tag_177:\n            /* \"#utility.yul\":9076:9114   */\n          tag_179\n            /* \"#utility.yul\":9108:9112   */\n          dup3\n            /* \"#utility.yul\":9102:9113   */\n          sload\n            /* \"#utility.yul\":9076:9114   */\n          tag_47\n          jump\t// in\n        tag_179:\n            /* \"#utility.yul\":9161:9228   */\n          tag_180\n            /* \"#utility.yul\":9221:9227   */\n          dup3\n            /* \"#utility.yul\":9213:9219   */\n          dup3\n            /* \"#utility.yul\":9207:9211   */\n          dup6\n            /* \"#utility.yul\":9161:9228   */\n          tag_59\n          jump\t// in\n        tag_180:\n            /* \"#utility.yul\":9255:9256   */\n          0x00\n            /* \"#utility.yul\":9279:9283   */\n          0x20\n            /* \"#utility.yul\":9266:9283   */\n          swap1\n          pop\n            /* \"#utility.yul\":9311:9313   */\n          0x1f\n            /* \"#utility.yul\":9303:9309   */\n          dup4\n            /* \"#utility.yul\":9300:9314   */\n          gt\n            /* \"#utility.yul\":9328:9329   */\n          0x01\n            /* \"#utility.yul\":9323:9941   */\n          dup2\n          eq\n          tag_182\n          jumpi\n            /* \"#utility.yul\":9985:9986   */\n          0x00\n            /* \"#utility.yul\":10002:10008   */\n          dup5\n            /* \"#utility.yul\":9999:10076   */\n          iszero\n          tag_183\n          jumpi\n            /* \"#utility.yul\":10051:10060   */\n          dup3\n            /* \"#utility.yul\":10046:10049   */\n          dup8\n            /* \"#utility.yul\":10042:10061   */\n          add\n            /* \"#utility.yul\":10036:10062   */\n          mload\n            /* \"#utility.yul\":10027:10062   */\n          swap1\n          pop\n            /* \"#utility.yul\":9999:10076   */\n        tag_183:\n            /* \"#utility.yul\":10102:10169   */\n          tag_184\n            /* \"#utility.yul\":10162:10168   */\n          dup6\n            /* \"#utility.yul\":10155:10160   */\n          dup3\n            /* \"#utility.yul\":10102:10169   */\n          tag_62\n          jump\t// in\n        tag_184:\n            /* \"#utility.yul\":10096:10100   */\n          dup7\n            /* \"#utility.yul\":10089:10170   */\n          sstore\n            /* \"#utility.yul\":9958:10180   */\n          pop\n            /* \"#utility.yul\":9293:10180   */\n          jump(tag_181)\n            /* \"#utility.yul\":9323:9941   */\n        tag_182:\n            /* \"#utility.yul\":9375:9379   */\n          0x1f\n            /* \"#utility.yul\":9371:9380   */\n          not\n            /* \"#utility.yul\":9363:9369   */\n          dup5\n            /* \"#utility.yul\":9359:9381   */\n          and\n            /* \"#utility.yul\":9409:9446   */\n          tag_185\n            /* \"#utility.yul\":9441:9445   */\n          dup7\n            /* \"#utility.yul\":9409:9446   */\n          tag_48\n          jump\t// in\n        tag_185:\n            /* \"#utility.yul\":9468:9469   */\n          0x00\n            /* \"#utility.yul\":9482:9690   */\n        tag_186:\n            /* \"#utility.yul\":9496:9503   */\n          dup3\n            /* \"#utility.yul\":9493:9494   */\n          dup2\n            /* \"#utility.yul\":9490:9504   */\n          lt\n            /* \"#utility.yul\":9482:9690   */\n          iszero\n          tag_188\n          jumpi\n            /* \"#utility.yul\":9575:9584   */\n          dup5\n            /* \"#utility.yul\":9570:9573   */\n          dup10\n            /* \"#utility.yul\":9566:9585   */\n          add\n            /* \"#utility.yul\":9560:9586   */\n          mload\n            /* \"#utility.yul\":9552:9558   */\n          dup3\n            /* \"#utility.yul\":9545:9587   */\n          sstore\n            /* \"#utility.yul\":9626:9627   */\n          0x01\n            /* \"#utility.yul\":9618:9624   */\n          dup3\n            /* \"#utility.yul\":9614:9628   */\n          add\n            /* \"#utility.yul\":9604:9628   */\n          swap2\n          pop\n            /* \"#utility.yul\":9673:9675   */\n          0x20\n            /* \"#utility.yul\":9662:9671   */\n          dup6\n            /* \"#utility.yul\":9658:9676   */\n          add\n            /* \"#utility.yul\":9645:9676   */\n          swap5\n          pop\n            /* \"#utility.yul\":9519:9523   */\n          0x20\n            /* \"#utility.yul\":9516:9517   */\n          dup2\n            /* \"#utility.yul\":9512:9524   */\n          add\n            /* \"#utility.yul\":9507:9524   */\n          swap1\n          pop\n            /* \"#utility.yul\":9482:9690   */\n          jump(tag_186)\n        tag_188:\n            /* \"#utility.yul\":9718:9724   */\n          dup7\n            /* \"#utility.yul\":9709:9716   */\n          dup4\n            /* \"#utility.yul\":9706:9725   */\n          lt\n            /* \"#utility.yul\":9703:9882   */\n          iszero\n          tag_189\n          jumpi\n            /* \"#utility.yul\":9776:9785   */\n          dup5\n            /* \"#utility.yul\":9771:9774   */\n          dup10\n            /* \"#utility.yul\":9767:9786   */\n          add\n            /* \"#utility.yul\":9761:9787   */\n          mload\n            /* \"#utility.yul\":9819:9867   */\n          tag_190\n            /* \"#utility.yul\":9861:9865   */\n          0x1f\n            /* \"#utility.yul\":9853:9859   */\n          dup10\n            /* \"#utility.yul\":9849:9866   */\n          and\n            /* \"#utility.yul\":9838:9847   */\n          dup3\n            /* \"#utility.yul\":9819:9867   */\n          tag_61\n          jump\t// in\n        tag_190:\n            /* \"#utility.yul\":9811:9817   */\n          dup4\n            /* \"#utility.yul\":9804:9868   */\n          sstore\n            /* \"#utility.yul\":9726:9882   */\n          pop\n            /* \"#utility.yul\":9703:9882   */\n        tag_189:\n            /* \"#utility.yul\":9928:9929   */\n          0x01\n            /* \"#utility.yul\":9924:9925   */\n          0x02\n            /* \"#utility.yul\":9916:9922   */\n          dup9\n            /* \"#utility.yul\":9912:9926   */\n          mul\n            /* \"#utility.yul\":9908:9930   */\n          add\n            /* \"#utility.yul\":9902:9906   */\n          dup9\n            /* \"#utility.yul\":9895:9931   */\n          sstore\n            /* \"#utility.yul\":9330:9941   */\n          pop\n          pop\n          pop\n            /* \"#utility.yul\":9293:10180   */\n        tag_181:\n          pop\n            /* \"#utility.yul\":8883:10186   */\n          pop\n          pop\n          pop\n            /* \"#utility.yul\":8791:10186   */\n          pop\n          pop\n          jump\t// out\n            /* \"#utility.yul\":10192:10372   */\n        tag_63:\n            /* \"#utility.yul\":10240:10317   */\n          0x4e487b7100000000000000000000000000000000000000000000000000000000\n            /* \"#utility.yul\":10237:10238   */\n          0x00\n            /* \"#utility.yul\":10230:10318   */\n          mstore\n            /* \"#utility.yul\":10337:10341   */\n          0x11\n            /* \"#utility.yul\":10334:10335   */\n          0x04\n            /* \"#utility.yul\":10327:10342   */\n          mstore\n            /* \"#utility.yul\":10361:10365   */\n          0x24\n            /* \"#utility.yul\":10358:10359   */\n          0x00\n            /* \"#utility.yul\":10351:10366   */\n          revert\n            /* \"#utility.yul\":10378:10569   */\n        tag_18:\n            /* \"#utility.yul\":10418:10421   */\n          0x00\n            /* \"#utility.yul\":10437:10457   */\n          tag_193\n            /* \"#utility.yul\":10455:10456   */\n          dup3\n            /* \"#utility.yul\":10437:10457   */\n          tag_42\n          jump\t// in\n        tag_193:\n            /* \"#utility.yul\":10432:10457   */\n          swap2\n          pop\n            /* \"#utility.yul\":10471:10491   */\n          tag_194\n            /* \"#utility.yul\":10489:10490   */\n          dup4\n            /* \"#utility.yul\":10471:10491   */\n          tag_42\n          jump\t// in\n        tag_194:\n            /* \"#utility.yul\":10466:10491   */\n          swap3\n          pop\n            /* \"#utility.yul\":10514:10515   */\n          dup3\n            /* \"#utility.yul\":10511:10512   */\n          dup3\n            /* \"#utility.yul\":10507:10516   */\n          add\n            /* \"#utility.yul\":10500:10516   */\n          swap1\n          pop\n            /* \"#utility.yul\":10535:10538   */\n          dup1\n            /* \"#utility.yul\":10532:10533   */\n          dup3\n            /* \"#utility.yul\":10529:10539   */\n          gt\n            /* \"#utility.yul\":10526:10562   */\n          iszero\n          tag_195\n          jumpi\n            /* \"#utility.yul\":10542:10560   */\n          tag_196\n          tag_63\n          jump\t// in\n        tag_196:\n            /* \"#utility.yul\":10526:10562   */\n        tag_195:\n            /* \"#utility.yul\":10378:10569   */\n          swap3\n          swap2\n          pop\n          pop\n          jump\t// out\n            /* \"#utility.yul\":10575:10744   */\n        tag_64:\n            /* \"#utility.yul\":10659:10670   */\n          0x00\n            /* \"#utility.yul\":10693:10699   */\n          dup3\n            /* \"#utility.yul\":10688:10691   */\n          dup3\n            /* \"#utility.yul\":10681:10700   */\n          mstore\n            /* \"#utility.yul\":10733:10737   */\n          0x20\n            /* \"#utility.yul\":10728:10731   */\n          dup3\n            /* \"#utility.yul\":10724:10738   */\n          add\n            /* \"#utility.yul\":10709:10738   */\n          swap1\n          pop\n            /* \"#utility.yul\":10575:10744   */\n          swap3\n          swap2\n          pop\n          pop\n          jump\t// out\n            /* \"#utility.yul\":10750:10927   */\n        tag_65:\n            /* \"#utility.yul\":10890:10919   */\n          0x536166654d6174683a206164646974696f6e206f766572666c6f770000000000\n            /* \"#utility.yul\":10886:10887   */\n          0x00\n            /* \"#utility.yul\":10878:10884   */\n          dup3\n            /* \"#utility.yul\":10874:10888   */\n          add\n            /* \"#utility.yul\":10867:10920   */\n          mstore\n            /* \"#utility.yul\":10750:10927   */\n          pop\n          jump\t// out\n            /* \"#utility.yul\":10933:11299   */\n        tag_66:\n            /* \"#utility.yul\":11075:11078   */\n          0x00\n            /* \"#utility.yul\":11096:11163   */\n          tag_200\n            /* \"#utility.yul\":11160:11162   */\n          0x1b\n            /* \"#utility.yul\":11155:11158   */\n          dup4\n            /* \"#utility.yul\":11096:11163   */\n          tag_64\n          jump\t// in\n        tag_200:\n            /* \"#utility.yul\":11089:11163   */\n          swap2\n          pop\n            /* \"#utility.yul\":11172:11265   */\n          tag_201\n            /* \"#utility.yul\":11261:11264   */\n          dup3\n            /* \"#utility.yul\":11172:11265   */\n          tag_65\n          jump\t// in\n        tag_201:\n            /* \"#utility.yul\":11290:11292   */\n          0x20\n            /* \"#utility.yul\":11285:11288   */\n          dup3\n            /* \"#utility.yul\":11281:11293   */\n          add\n            /* \"#utility.yul\":11274:11293   */\n          swap1\n          pop\n            /* \"#utility.yul\":10933:11299   */\n          swap2\n          swap1\n          pop\n          jump\t// out\n            /* \"#utility.yul\":11305:11724   */\n        tag_21:\n            /* \"#utility.yul\":11471:11475   */\n          0x00\n            /* \"#utility.yul\":11509:11511   */\n          0x20\n            /* \"#utility.yul\":11498:11507   */\n          dup3\n            /* \"#utility.yul\":11494:11512   */\n          add\n            /* \"#utility.yul\":11486:11512   */\n          swap1\n          pop\n            /* \"#utility.yul\":11558:11567   */\n          dup2\n            /* \"#utility.yul\":11552:11556   */\n          dup2\n            /* \"#utility.yul\":11548:11568   */\n          sub\n            /* \"#utility.yul\":11544:11545   */\n          0x00\n            /* \"#utility.yul\":11533:11542   */\n          dup4\n            /* \"#utility.yul\":11529:11546   */\n          add\n            /* \"#utility.yul\":11522:11569   */\n          mstore\n            /* \"#utility.yul\":11586:11717   */\n          tag_203\n            /* \"#utility.yul\":11712:11716   */\n          dup2\n            /* \"#utility.yul\":11586:11717   */\n          tag_66\n          jump\t// in\n        tag_203:\n            /* \"#utility.yul\":11578:11717   */\n          swap1\n          pop\n            /* \"#utility.yul\":11305:11724   */\n          swap2\n          swap1\n          pop\n          jump\t// out\n            /* \"contracts/Accessories/ERC20FACTORY.sol\":5028:14898  contract ERC20 is Contexts {... */\n        tag_14:\n          dataSize(sub_0)\n          dup1\n          dataOffset(sub_0)\n          0x00\n          codecopy\n          0x00\n          return\n        stop\n\n        sub_0: assembly {\n                /* \"contracts/Accessories/ERC20FACTORY.sol\":5028:14898  contract ERC20 is Contexts {... */\n              mstore(0x40, 0x80)\n              callvalue\n              dup1\n              iszero\n              tag_1\n              jumpi\n              0x00\n              dup1\n              revert\n            tag_1:\n              pop\n              jumpi(tag_2, lt(calldatasize, 0x04))\n              shr(0xe0, calldataload(0x00))\n              dup1\n              0x39509351\n              gt\n              tag_14\n              jumpi\n              dup1\n              0x39509351\n              eq\n              tag_8\n              jumpi\n              dup1\n              0x70a08231\n              eq\n              tag_9\n              jumpi\n              dup1\n              0x95d89b41\n              eq\n              tag_10\n              jumpi\n              dup1\n              0xa457c2d7\n              eq\n              tag_11\n              jumpi\n              dup1\n              0xa9059cbb\n              eq\n              tag_12\n              jumpi\n              dup1\n              0xdd62ed3e\n              eq\n              tag_13\n              jumpi\n              jump(tag_2)\n            tag_14:\n              dup1\n              0x06fdde03\n              eq\n              tag_3\n              jumpi\n              dup1\n              0x095ea7b3\n              eq\n              tag_4\n              jumpi\n              dup1\n              0x18160ddd\n              eq\n              tag_5\n              jumpi\n              dup1\n              0x23b872dd\n              eq\n              tag_6\n              jumpi\n              dup1\n              0x313ce567\n              eq\n              tag_7\n              jumpi\n            tag_2:\n              0x00\n              dup1\n              revert\n                /* \"contracts/Accessories/ERC20FACTORY.sol\":6422:6504  function name() public view  returns (string memory) {... */\n            tag_3:\n              tag_15\n              tag_16\n              jump\t// in\n            tag_15:\n              mload(0x40)\n              tag_17\n              swap2\n              swap1\n              tag_18\n              jump\t// in\n            tag_17:\n              mload(0x40)\n              dup1\n              swap2\n              sub\n              swap1\n              return\n                /* \"contracts/Accessories/ERC20FACTORY.sol\":8421:8572  function approve(address spender, uint256 amount) public   returns (bool) {... */\n            tag_4:\n              tag_19\n              0x04\n              dup1\n              calldatasize\n              sub\n              dup2\n              add\n              swap1\n              tag_20\n              swap2\n              swap1\n              tag_21\n              jump\t// in\n            tag_20:\n              tag_22\n              jump\t// in\n            tag_19:\n              mload(0x40)\n              tag_23\n              swap2\n              swap1\n              tag_24\n              jump\t// in\n            tag_23:\n              mload(0x40)\n              dup1\n              swap2\n              sub\n              swap1\n              return\n                /* \"contracts/Accessories/ERC20FACTORY.sol\":7467:7557  function totalSupply() public view  returns (uint256) {... */\n            tag_5:\n              tag_25\n              tag_26\n              jump\t// in\n            tag_25:\n              mload(0x40)\n              tag_27\n              swap2\n              swap1\n              tag_28\n              jump\t// in\n            tag_27:\n              mload(0x40)\n              dup1\n              swap2\n              sub\n              swap1\n              return\n                /* \"contracts/Accessories/ERC20FACTORY.sol\":9039:9341  function transferFrom(address sender, address recipient, uint256 amount) public   returns (bool) {... */\n            tag_6:\n              tag_29\n              0x04\n              dup1\n              calldatasize\n              sub\n              dup2\n              add\n              swap1\n              tag_30\n              swap2\n              swap1\n              tag_31\n              jump\t// in\n            tag_30:\n              tag_32\n              jump\t// in\n            tag_29:\n              mload(0x40)\n              tag_33\n              swap2\n              swap1\n              tag_24\n              jump\t// in\n            tag_33:\n              mload(0x40)\n              dup1\n              swap2\n              sub\n              swap1\n              return\n                /* \"contracts/Accessories/ERC20FACTORY.sol\":7326:7407  function decimals() public view returns (uint8) {... */\n            tag_7:\n              tag_34\n              tag_35\n              jump\t// in\n            tag_34:\n              mload(0x40)\n              tag_36\n              swap2\n              swap1\n              tag_37\n              jump\t// in\n            tag_36:\n              mload(0x40)\n              dup1\n              swap2\n              sub\n              swap1\n              return\n                /* \"contracts/Accessories/ERC20FACTORY.sol\":9736:9944  function increaseAllowance(address spender, uint256 addedValue) public  returns (bool) {... */\n            tag_8:\n              tag_38\n              0x04\n              dup1\n              calldatasize\n              sub\n              dup2\n              add\n              swap1\n              tag_39\n              swap2\n              swap1\n              tag_21\n              jump\t// in\n            tag_39:\n              tag_40\n              jump\t// in\n            tag_38:\n              mload(0x40)\n              tag_41\n              swap2\n              swap1\n              tag_24\n              jump\t// in\n            tag_41:\n              mload(0x40)\n              dup1\n              swap2\n              sub\n              swap1\n              return\n                /* \"contracts/Accessories/ERC20FACTORY.sol\":7615:7724  function balanceOf(address account) public view  returns (uint256) {... */\n            tag_9:\n              tag_42\n              0x04\n              dup1\n              calldatasize\n              sub\n              dup2\n              add\n              swap1\n              tag_43\n              swap2\n              swap1\n              tag_44\n              jump\t// in\n            tag_43:\n              tag_45\n              jump\t// in\n            tag_42:\n              mload(0x40)\n              tag_46\n              swap2\n              swap1\n              tag_28\n              jump\t// in\n            tag_46:\n              mload(0x40)\n              dup1\n              swap2\n              sub\n              swap1\n              return\n                /* \"contracts/Accessories/ERC20FACTORY.sol\":6617:6703  function symbol() public view  returns (string memory) {... */\n            tag_10:\n              tag_47\n              tag_48\n              jump\t// in\n            tag_47:\n              mload(0x40)\n              tag_49\n              swap2\n              swap1\n              tag_18\n              jump\t// in\n            tag_49:\n              mload(0x40)\n              dup1\n              swap2\n              sub\n              swap1\n              return\n                /* \"contracts/Accessories/ERC20FACTORY.sol\":10431:10690  function decreaseAllowance(address spender, uint256 subtractedValue) public  returns (bool) {... */\n            tag_11:\n              tag_50\n              0x04\n              dup1\n              calldatasize\n              sub\n              dup2\n              add\n              swap1\n              tag_51\n              swap2\n              swap1\n              tag_21\n              jump\t// in\n            tag_51:\n              tag_52\n              jump\t// in\n            tag_50:\n              mload(0x40)\n              tag_53\n              swap2\n              swap1\n              tag_24\n              jump\t// in\n            tag_53:\n              mload(0x40)\n              dup1\n              swap2\n              sub\n              swap1\n              return\n                /* \"contracts/Accessories/ERC20FACTORY.sol\":7927:8091  function transfer(address recipient, uint256 amount) public virtual  returns (bool) {... */\n            tag_12:\n              tag_54\n              0x04\n              dup1\n              calldatasize\n              sub\n              dup2\n              add\n              swap1\n              tag_55\n              swap2\n              swap1\n              tag_21\n              jump\t// in\n            tag_55:\n              tag_56\n              jump\t// in\n            tag_54:\n              mload(0x40)\n              tag_57\n              swap2\n              swap1\n              tag_24\n              jump\t// in\n            tag_57:\n              mload(0x40)\n              dup1\n              swap2\n              sub\n              swap1\n              return\n                /* \"contracts/Accessories/ERC20FACTORY.sol\":8149:8283  function allowance(address owner, address spender) public view   returns (uint256) {... */\n            tag_13:\n              tag_58\n              0x04\n              dup1\n              calldatasize\n              sub\n              dup2\n              add\n              swap1\n              tag_59\n              swap2\n              swap1\n              tag_60\n              jump\t// in\n            tag_59:\n              tag_61\n              jump\t// in\n            tag_58:\n              mload(0x40)\n              tag_62\n              swap2\n              swap1\n              tag_28\n              jump\t// in\n            tag_62:\n              mload(0x40)\n              dup1\n              swap2\n              sub\n              swap1\n              return\n                /* \"contracts/Accessories/ERC20FACTORY.sol\":6422:6504  function name() public view  returns (string memory) {... */\n            tag_16:\n                /* \"contracts/Accessories/ERC20FACTORY.sol\":6460:6473  string memory */\n              0x60\n                /* \"contracts/Accessories/ERC20FACTORY.sol\":6492:6497  _name */\n              0x03\n                /* \"contracts/Accessories/ERC20FACTORY.sol\":6485:6497  return _name */\n              dup1\n              sload\n              tag_65\n              swap1\n              tag_66\n              jump\t// in\n            tag_65:\n              dup1\n              0x1f\n              add\n              0x20\n              dup1\n              swap2\n              div\n              mul\n              0x20\n              add\n              mload(0x40)\n              swap1\n              dup2\n              add\n              0x40\n              mstore\n              dup1\n              swap3\n              swap2\n              swap1\n              dup2\n              dup2\n              mstore\n              0x20\n              add\n              dup3\n              dup1\n              sload\n              tag_67\n              swap1\n              tag_66\n              jump\t// in\n            tag_67:\n              dup1\n              iszero\n              tag_68\n              jumpi\n              dup1\n              0x1f\n              lt\n              tag_69\n              jumpi\n              0x0100\n              dup1\n              dup4\n              sload\n              div\n              mul\n              dup4\n              mstore\n              swap2\n              0x20\n              add\n              swap2\n              jump(tag_68)\n            tag_69:\n              dup3\n              add\n              swap2\n              swap1\n              0x00\n              mstore\n              keccak256(0x00, 0x20)\n              swap1\n            tag_70:\n              dup2\n              sload\n              dup2\n              mstore\n              swap1\n              0x01\n              add\n              swap1\n              0x20\n              add\n              dup1\n              dup4\n              gt\n              tag_70\n              jumpi\n              dup3\n              swap1\n              sub\n              0x1f\n              and\n              dup3\n              add\n              swap2\n            tag_68:\n              pop\n              pop\n              pop\n              pop\n              pop\n              swap1\n              pop\n                /* \"contracts/Accessories/ERC20FACTORY.sol\":6422:6504  function name() public view  returns (string memory) {... */\n              swap1\n              jump\t// out\n                /* \"contracts/Accessories/ERC20FACTORY.sol\":8421:8572  function approve(address spender, uint256 amount) public   returns (bool) {... */\n            tag_22:\n                /* \"contracts/Accessories/ERC20FACTORY.sol\":8489:8493  bool */\n              0x00\n                /* \"contracts/Accessories/ERC20FACTORY.sol\":8505:8544  _approve(_msgSender(), spender, amount) */\n              tag_72\n                /* \"contracts/Accessories/ERC20FACTORY.sol\":8514:8526  _msgSender() */\n              tag_73\n                /* \"contracts/Accessories/ERC20FACTORY.sol\":8514:8524  _msgSender */\n              tag_74\n                /* \"contracts/Accessories/ERC20FACTORY.sol\":8514:8526  _msgSender() */\n              jump\t// in\n            tag_73:\n                /* \"contracts/Accessories/ERC20FACTORY.sol\":8528:8535  spender */\n              dup5\n                /* \"contracts/Accessories/ERC20FACTORY.sol\":8537:8543  amount */\n              dup5\n                /* \"contracts/Accessories/ERC20FACTORY.sol\":8505:8513  _approve */\n              tag_75\n                /* \"contracts/Accessories/ERC20FACTORY.sol\":8505:8544  _approve(_msgSender(), spender, amount) */\n              jump\t// in\n            tag_72:\n                /* \"contracts/Accessories/ERC20FACTORY.sol\":8561:8565  true */\n              0x01\n                /* \"contracts/Accessories/ERC20FACTORY.sol\":8554:8565  return true */\n              swap1\n              pop\n                /* \"contracts/Accessories/ERC20FACTORY.sol\":8421:8572  function approve(address spender, uint256 amount) public   returns (bool) {... */\n              swap3\n              swap2\n              pop\n              pop\n              jump\t// out\n                /* \"contracts/Accessories/ERC20FACTORY.sol\":7467:7557  function totalSupply() public view  returns (uint256) {... */\n            tag_26:\n                /* \"contracts/Accessories/ERC20FACTORY.sol\":7512:7519  uint256 */\n              0x00\n                /* \"contracts/Accessories/ERC20FACTORY.sol\":7538:7550  _totalSupply */\n              sload(0x02)\n                /* \"contracts/Accessories/ERC20FACTORY.sol\":7531:7550  return _totalSupply */\n              swap1\n              pop\n                /* \"contracts/Accessories/ERC20FACTORY.sol\":7467:7557  function totalSupply() public view  returns (uint256) {... */\n              swap1\n              jump\t// out\n                /* \"contracts/Accessories/ERC20FACTORY.sol\":9039:9341  function transferFrom(address sender, address recipient, uint256 amount) public   returns (bool) {... */\n            tag_32:\n                /* \"contracts/Accessories/ERC20FACTORY.sol\":9130:9134  bool */\n              0x00\n                /* \"contracts/Accessories/ERC20FACTORY.sol\":9146:9182  _transfer(sender, recipient, amount) */\n              tag_78\n                /* \"contracts/Accessories/ERC20FACTORY.sol\":9156:9162  sender */\n              dup5\n                /* \"contracts/Accessories/ERC20FACTORY.sol\":9164:9173  recipient */\n              dup5\n                /* \"contracts/Accessories/ERC20FACTORY.sol\":9175:9181  amount */\n              dup5\n                /* \"contracts/Accessories/ERC20FACTORY.sol\":9146:9155  _transfer */\n              tag_79\n                /* \"contracts/Accessories/ERC20FACTORY.sol\":9146:9182  _transfer(sender, recipient, amount) */\n              jump\t// in\n            tag_78:\n                /* \"contracts/Accessories/ERC20FACTORY.sol\":9192:9313  _approve(sender, _msgSender(), _allowances[sender][_msgSender()].sub(amount, \"ERC20: transfer amount exceeds allowance\")) */\n              tag_80\n                /* \"contracts/Accessories/ERC20FACTORY.sol\":9201:9207  sender */\n              dup5\n                /* \"contracts/Accessories/ERC20FACTORY.sol\":9209:9221  _msgSender() */\n              tag_81\n                /* \"contracts/Accessories/ERC20FACTORY.sol\":9209:9219  _msgSender */\n              tag_74\n                /* \"contracts/Accessories/ERC20FACTORY.sol\":9209:9221  _msgSender() */\n              jump\t// in\n            tag_81:\n                /* \"contracts/Accessories/ERC20FACTORY.sol\":9223:9312  _allowances[sender][_msgSender()].sub(amount, \"ERC20: transfer amount exceeds allowance\") */\n              tag_82\n                /* \"contracts/Accessories/ERC20FACTORY.sol\":9261:9267  amount */\n              dup6\n                /* \"contracts/Accessories/ERC20FACTORY.sol\":9223:9312  _allowances[sender][_msgSender()].sub(amount, \"ERC20: transfer amount exceeds allowance\") */\n              mload(0x40)\n              dup1\n              0x60\n              add\n              0x40\n              mstore\n              dup1\n              0x28\n              dup2\n              mstore\n              0x20\n              add\n              data_974d1b4421da69cc60b481194f0dad36a5bb4e23da810da7a7fb30cdba178330\n              0x28\n              swap2\n              codecopy\n                /* \"contracts/Accessories/ERC20FACTORY.sol\":9223:9234  _allowances */\n              0x01\n                /* \"contracts/Accessories/ERC20FACTORY.sol\":9223:9242  _allowances[sender] */\n              0x00\n                /* \"contracts/Accessories/ERC20FACTORY.sol\":9235:9241  sender */\n              dup12\n                /* \"contracts/Accessories/ERC20FACTORY.sol\":9223:9242  _allowances[sender] */\n              0xffffffffffffffffffffffffffffffffffffffff\n              and\n              0xffffffffffffffffffffffffffffffffffffffff\n              and\n              dup2\n              mstore\n              0x20\n              add\n              swap1\n              dup2\n              mstore\n              0x20\n              add\n              0x00\n              keccak256\n                /* \"contracts/Accessories/ERC20FACTORY.sol\":9223:9256  _allowances[sender][_msgSender()] */\n              0x00\n                /* \"contracts/Accessories/ERC20FACTORY.sol\":9243:9255  _msgSender() */\n              tag_83\n                /* \"contracts/Accessories/ERC20FACTORY.sol\":9243:9253  _msgSender */\n              tag_74\n                /* \"contracts/Accessories/ERC20FACTORY.sol\":9243:9255  _msgSender() */\n              jump\t// in\n            tag_83:\n                /* \"contracts/Accessories/ERC20FACTORY.sol\":9223:9256  _allowances[sender][_msgSender()] */\n              0xffffffffffffffffffffffffffffffffffffffff\n              and\n              0xffffffffffffffffffffffffffffffffffffffff\n              and\n              dup2\n              mstore\n              0x20\n              add\n              swap1\n              dup2\n              mstore\n              0x20\n              add\n              0x00\n              keccak256\n              sload\n                /* \"contracts/Accessories/ERC20FACTORY.sol\":9223:9260  _allowances[sender][_msgSender()].sub */\n              tag_84\n              swap1\n                /* \"contracts/Accessories/ERC20FACTORY.sol\":9223:9312  _allowances[sender][_msgSender()].sub(amount, \"ERC20: transfer amount exceeds allowance\") */\n              swap3\n              swap2\n              swap1\n              0xffffffff\n              and\n              jump\t// in\n            tag_82:\n                /* \"contracts/Accessories/ERC20FACTORY.sol\":9192:9200  _approve */\n              tag_75\n                /* \"contracts/Accessories/ERC20FACTORY.sol\":9192:9313  _approve(sender, _msgSender(), _allowances[sender][_msgSender()].sub(amount, \"ERC20: transfer amount exceeds allowance\")) */\n              jump\t// in\n            tag_80:\n                /* \"contracts/Accessories/ERC20FACTORY.sol\":9330:9334  true */\n              0x01\n                /* \"contracts/Accessories/ERC20FACTORY.sol\":9323:9334  return true */\n              swap1\n              pop\n                /* \"contracts/Accessories/ERC20FACTORY.sol\":9039:9341  function transferFrom(address sender, address recipient, uint256 amount) public   returns (bool) {... */\n              swap4\n              swap3\n              pop\n              pop\n              pop\n              jump\t// out\n                /* \"contracts/Accessories/ERC20FACTORY.sol\":7326:7407  function decimals() public view returns (uint8) {... */\n            tag_35:\n                /* \"contracts/Accessories/ERC20FACTORY.sol\":7367:7372  uint8 */\n              0x00\n                /* \"contracts/Accessories/ERC20FACTORY.sol\":7391:7400  _decimals */\n              0x05\n              0x00\n              swap1\n              sload\n              swap1\n              0x0100\n              exp\n              swap1\n              div\n              0xff\n              and\n                /* \"contracts/Accessories/ERC20FACTORY.sol\":7384:7400  return _decimals */\n              swap1\n              pop\n                /* \"contracts/Accessories/ERC20FACTORY.sol\":7326:7407  function decimals() public view returns (uint8) {... */\n              swap1\n              jump\t// out\n                /* \"contracts/Accessories/ERC20FACTORY.sol\":9736:9944  function increaseAllowance(address spender, uint256 addedValue) public  returns (bool) {... */\n            tag_40:\n                /* \"contracts/Accessories/ERC20FACTORY.sol\":9817:9821  bool */\n              0x00\n                /* \"contracts/Accessories/ERC20FACTORY.sol\":9833:9916  _approve(_msgSender(), spender, _allowances[_msgSender()][spender].add(addedValue)) */\n              tag_87\n                /* \"contracts/Accessories/ERC20FACTORY.sol\":9842:9854  _msgSender() */\n              tag_88\n                /* \"contracts/Accessories/ERC20FACTORY.sol\":9842:9852  _msgSender */\n              tag_74\n                /* \"contracts/Accessories/ERC20FACTORY.sol\":9842:9854  _msgSender() */\n              jump\t// in\n            tag_88:\n                /* \"contracts/Accessories/ERC20FACTORY.sol\":9856:9863  spender */\n              dup5\n                /* \"contracts/Accessories/ERC20FACTORY.sol\":9865:9915  _allowances[_msgSender()][spender].add(addedValue) */\n              tag_89\n                /* \"contracts/Accessories/ERC20FACTORY.sol\":9904:9914  addedValue */\n              dup6\n                /* \"contracts/Accessories/ERC20FACTORY.sol\":9865:9876  _allowances */\n              0x01\n                /* \"contracts/Accessories/ERC20FACTORY.sol\":9865:9890  _allowances[_msgSender()] */\n              0x00\n                /* \"contracts/Accessories/ERC20FACTORY.sol\":9877:9889  _msgSender() */\n              tag_90\n                /* \"contracts/Accessories/ERC20FACTORY.sol\":9877:9887  _msgSender */\n              tag_74\n                /* \"contracts/Accessories/ERC20FACTORY.sol\":9877:9889  _msgSender() */\n              jump\t// in\n            tag_90:\n                /* \"contracts/Accessories/ERC20FACTORY.sol\":9865:9890  _allowances[_msgSender()] */\n              0xffffffffffffffffffffffffffffffffffffffff\n              and\n              0xffffffffffffffffffffffffffffffffffffffff\n              and\n              dup2\n              mstore\n              0x20\n              add\n              swap1\n              dup2\n              mstore\n              0x20\n              add\n              0x00\n              keccak256\n                /* \"contracts/Accessories/ERC20FACTORY.sol\":9865:9899  _allowances[_msgSender()][spender] */\n              0x00\n                /* \"contracts/Accessories/ERC20FACTORY.sol\":9891:9898  spender */\n              dup10\n                /* \"contracts/Accessories/ERC20FACTORY.sol\":9865:9899  _allowances[_msgSender()][spender] */\n              0xffffffffffffffffffffffffffffffffffffffff\n              and\n              0xffffffffffffffffffffffffffffffffffffffff\n              and\n              dup2\n              mstore\n              0x20\n              add\n              swap1\n              dup2\n              mstore\n              0x20\n              add\n              0x00\n              keccak256\n              sload\n                /* \"contracts/Accessories/ERC20FACTORY.sol\":9865:9903  _allowances[_msgSender()][spender].add */\n              tag_63\n              swap1\n                /* \"contracts/Accessories/ERC20FACTORY.sol\":9865:9915  _allowances[_msgSender()][spender].add(addedValue) */\n              swap2\n              swap1\n              0xffffffff\n              and\n              jump\t// in\n            tag_89:\n                /* \"contracts/Accessories/ERC20FACTORY.sol\":9833:9841  _approve */\n              tag_75\n                /* \"contracts/Accessories/ERC20FACTORY.sol\":9833:9916  _approve(_msgSender(), spender, _allowances[_msgSender()][spender].add(addedValue)) */\n              jump\t// in\n            tag_87:\n                /* \"contracts/Accessories/ERC20FACTORY.sol\":9933:9937  true */\n              0x01\n                /* \"contracts/Accessories/ERC20FACTORY.sol\":9926:9937  return true */\n              swap1\n              pop\n                /* \"contracts/Accessories/ERC20FACTORY.sol\":9736:9944  function increaseAllowance(address spender, uint256 addedValue) public  returns (bool) {... */\n              swap3\n              swap2\n              pop\n              pop\n              jump\t// out\n                /* \"contracts/Accessories/ERC20FACTORY.sol\":7615:7724  function balanceOf(address account) public view  returns (uint256) {... */\n            tag_45:\n                /* \"contracts/Accessories/ERC20FACTORY.sol\":7673:7680  uint256 */\n              0x00\n                /* \"contracts/Accessories/ERC20FACTORY.sol\":7699:7708  _balances */\n              dup1\n                /* \"contracts/Accessories/ERC20FACTORY.sol\":7699:7717  _balances[account] */\n              0x00\n                /* \"contracts/Accessories/ERC20FACTORY.sol\":7709:7716  account */\n              dup4\n                /* \"contracts/Accessories/ERC20FACTORY.sol\":7699:7717  _balances[account] */\n              0xffffffffffffffffffffffffffffffffffffffff\n              and\n              0xffffffffffffffffffffffffffffffffffffffff\n              and\n              dup2\n              mstore\n              0x20\n              add\n              swap1\n              dup2\n              mstore\n              0x20\n              add\n              0x00\n              keccak256\n              sload\n                /* \"contracts/Accessories/ERC20FACTORY.sol\":7692:7717  return _balances[account] */\n              swap1\n              pop\n                /* \"contracts/Accessories/ERC20FACTORY.sol\":7615:7724  function balanceOf(address account) public view  returns (uint256) {... */\n              swap2\n              swap1\n              pop\n              jump\t// out\n                /* \"contracts/Accessories/ERC20FACTORY.sol\":6617:6703  function symbol() public view  returns (string memory) {... */\n            tag_48:\n                /* \"contracts/Accessories/ERC20FACTORY.sol\":6657:6670  string memory */\n              0x60\n                /* \"contracts/Accessories/ERC20FACTORY.sol\":6689:6696  _symbol */\n              0x04\n                /* \"contracts/Accessories/ERC20FACTORY.sol\":6682:6696  return _symbol */\n              dup1\n              sload\n              tag_93\n              swap1\n              tag_66\n              jump\t// in\n            tag_93:\n              dup1\n              0x1f\n              add\n              0x20\n              dup1\n              swap2\n              div\n              mul\n              0x20\n              add\n              mload(0x40)\n              swap1\n              dup2\n              add\n              0x40\n              mstore\n              dup1\n              swap3\n              swap2\n              swap1\n              dup2\n              dup2\n              mstore\n              0x20\n              add\n              dup3\n              dup1\n              sload\n              tag_94\n              swap1\n              tag_66\n              jump\t// in\n            tag_94:\n              dup1\n              iszero\n              tag_95\n              jumpi\n              dup1\n              0x1f\n              lt\n              tag_96\n              jumpi\n              0x0100\n              dup1\n              dup4\n              sload\n              div\n              mul\n              dup4\n              mstore\n              swap2\n              0x20\n              add\n              swap2\n              jump(tag_95)\n            tag_96:\n              dup3\n              add\n              swap2\n              swap1\n              0x00\n              mstore\n              keccak256(0x00, 0x20)\n              swap1\n            tag_97:\n              dup2\n              sload\n              dup2\n              mstore\n              swap1\n              0x01\n              add\n              swap1\n              0x20\n              add\n              dup1\n              dup4\n              gt\n              tag_97\n              jumpi\n              dup3\n              swap1\n              sub\n              0x1f\n              and\n              dup3\n              add\n              swap2\n            tag_95:\n              pop\n              pop\n              pop\n              pop\n              pop\n              swap1\n              pop\n                /* \"contracts/Accessories/ERC20FACTORY.sol\":6617:6703  function symbol() public view  returns (string memory) {... */\n              swap1\n              jump\t// out\n                /* \"contracts/Accessories/ERC20FACTORY.sol\":10431:10690  function decreaseAllowance(address spender, uint256 subtractedValue) public  returns (bool) {... */\n            tag_52:\n                /* \"contracts/Accessories/ERC20FACTORY.sol\":10517:10521  bool */\n              0x00\n                /* \"contracts/Accessories/ERC20FACTORY.sol\":10533:10662  _approve(_msgSender(), spender, _allowances[_msgSender()][spender].sub(subtractedValue, \"ERC20: decreased allowance below zero\")) */\n              tag_99\n                /* \"contracts/Accessories/ERC20FACTORY.sol\":10542:10554  _msgSender() */\n              tag_100\n                /* \"contracts/Accessories/ERC20FACTORY.sol\":10542:10552  _msgSender */\n              tag_74\n                /* \"contracts/Accessories/ERC20FACTORY.sol\":10542:10554  _msgSender() */\n              jump\t// in\n            tag_100:\n                /* \"contracts/Accessories/ERC20FACTORY.sol\":10556:10563  spender */\n              dup5\n                /* \"contracts/Accessories/ERC20FACTORY.sol\":10565:10661  _allowances[_msgSender()][spender].sub(subtractedValue, \"ERC20: decreased allowance below zero\") */\n              tag_101\n                /* \"contracts/Accessories/ERC20FACTORY.sol\":10604:10619  subtractedValue */\n              dup6\n                /* \"contracts/Accessories/ERC20FACTORY.sol\":10565:10661  _allowances[_msgSender()][spender].sub(subtractedValue, \"ERC20: decreased allowance below zero\") */\n              mload(0x40)\n              dup1\n              0x60\n              add\n              0x40\n              mstore\n              dup1\n              0x25\n              dup2\n              mstore\n              0x20\n              add\n              data_f8b476f7d28209d77d4a4ac1fe36b9f8259aa1bb6bddfa6e89de7e51615cf8a8\n              0x25\n              swap2\n              codecopy\n                /* \"contracts/Accessories/ERC20FACTORY.sol\":10565:10576  _allowances */\n              0x01\n                /* \"contracts/Accessories/ERC20FACTORY.sol\":10565:10590  _allowances[_msgSender()] */\n              0x00\n                /* \"contracts/Accessories/ERC20FACTORY.sol\":10577:10589  _msgSender() */\n              tag_102\n                /* \"contracts/Accessories/ERC20FACTORY.sol\":10577:10587  _msgSender */\n              tag_74\n                /* \"contracts/Accessories/ERC20FACTORY.sol\":10577:10589  _msgSender() */\n              jump\t// in\n            tag_102:\n                /* \"contracts/Accessories/ERC20FACTORY.sol\":10565:10590  _allowances[_msgSender()] */\n              0xffffffffffffffffffffffffffffffffffffffff\n              and\n              0xffffffffffffffffffffffffffffffffffffffff\n              and\n              dup2\n              mstore\n              0x20\n              add\n              swap1\n              dup2\n              mstore\n              0x20\n              add\n              0x00\n              keccak256\n                /* \"contracts/Accessories/ERC20FACTORY.sol\":10565:10599  _allowances[_msgSender()][spender] */\n              0x00\n                /* \"contracts/Accessories/ERC20FACTORY.sol\":10591:10598  spender */\n              dup11\n                /* \"contracts/Accessories/ERC20FACTORY.sol\":10565:10599  _allowances[_msgSender()][spender] */\n              0xffffffffffffffffffffffffffffffffffffffff\n              and\n              0xffffffffffffffffffffffffffffffffffffffff\n              and\n              dup2\n              mstore\n              0x20\n              add\n              swap1\n              dup2\n              mstore\n              0x20\n              add\n              0x00\n              keccak256\n              sload\n                /* \"contracts/Accessories/ERC20FACTORY.sol\":10565:10603  _allowances[_msgSender()][spender].sub */\n              tag_84\n              swap1\n                /* \"contracts/Accessories/ERC20FACTORY.sol\":10565:10661  _allowances[_msgSender()][spender].sub(subtractedValue, \"ERC20: decreased allowance below zero\") */\n              swap3\n              swap2\n              swap1\n              0xffffffff\n              and\n              jump\t// in\n            tag_101:\n                /* \"contracts/Accessories/ERC20FACTORY.sol\":10533:10541  _approve */\n              tag_75\n                /* \"contracts/Accessories/ERC20FACTORY.sol\":10533:10662  _approve(_msgSender(), spender, _allowances[_msgSender()][spender].sub(subtractedValue, \"ERC20: decreased allowance below zero\")) */\n              jump\t// in\n            tag_99:\n                /* \"contracts/Accessories/ERC20FACTORY.sol\":10679:10683  true */\n              0x01\n                /* \"contracts/Accessories/ERC20FACTORY.sol\":10672:10683  return true */\n              swap1\n              pop\n                /* \"contracts/Accessories/ERC20FACTORY.sol\":10431:10690  function decreaseAllowance(address spender, uint256 subtractedValue) public  returns (bool) {... */\n              swap3\n              swap2\n              pop\n              pop\n              jump\t// out\n                /* \"contracts/Accessories/ERC20FACTORY.sol\":7927:8091  function transfer(address recipient, uint256 amount) public virtual  returns (bool) {... */\n            tag_56:\n                /* \"contracts/Accessories/ERC20FACTORY.sol\":8005:8009  bool */\n              0x00\n                /* \"contracts/Accessories/ERC20FACTORY.sol\":8021:8063  _transfer(_msgSender(), recipient, amount) */\n              tag_104\n                /* \"contracts/Accessories/ERC20FACTORY.sol\":8031:8043  _msgSender() */\n              tag_105\n                /* \"contracts/Accessories/ERC20FACTORY.sol\":8031:8041  _msgSender */\n              tag_74\n                /* \"contracts/Accessories/ERC20FACTORY.sol\":8031:8043  _msgSender() */\n              jump\t// in\n            tag_105:\n                /* \"contracts/Accessories/ERC20FACTORY.sol\":8045:8054  recipient */\n              dup5\n                /* \"contracts/Accessories/ERC20FACTORY.sol\":8056:8062  amount */\n              dup5\n                /* \"contracts/Accessories/ERC20FACTORY.sol\":8021:8030  _transfer */\n              tag_79\n                /* \"contracts/Accessories/ERC20FACTORY.sol\":8021:8063  _transfer(_msgSender(), recipient, amount) */\n              jump\t// in\n            tag_104:\n                /* \"contracts/Accessories/ERC20FACTORY.sol\":8080:8084  true */\n              0x01\n                /* \"contracts/Accessories/ERC20FACTORY.sol\":8073:8084  return true */\n              swap1\n              pop\n                /* \"contracts/Accessories/ERC20FACTORY.sol\":7927:8091  function transfer(address recipient, uint256 amount) public virtual  returns (bool) {... */\n              swap3\n              swap2\n              pop\n              pop\n              jump\t// out\n                /* \"contracts/Accessories/ERC20FACTORY.sol\":8149:8283  function allowance(address owner, address spender) public view   returns (uint256) {... */\n            tag_61:\n                /* \"contracts/Accessories/ERC20FACTORY.sol\":8223:8230  uint256 */\n              0x00\n                /* \"contracts/Accessories/ERC20FACTORY.sol\":8249:8260  _allowances */\n              0x01\n                /* \"contracts/Accessories/ERC20FACTORY.sol\":8249:8267  _allowances[owner] */\n              0x00\n                /* \"contracts/Accessories/ERC20FACTORY.sol\":8261:8266  owner */\n              dup5\n                /* \"contracts/Accessories/ERC20FACTORY.sol\":8249:8267  _allowances[owner] */\n              0xffffffffffffffffffffffffffffffffffffffff\n              and\n              0xffffffffffffffffffffffffffffffffffffffff\n              and\n              dup2\n              mstore\n              0x20\n              add\n              swap1\n              dup2\n              mstore\n              0x20\n              add\n              0x00\n              keccak256\n                /* \"contracts/Accessories/ERC20FACTORY.sol\":8249:8276  _allowances[owner][spender] */\n              0x00\n                /* \"contracts/Accessories/ERC20FACTORY.sol\":8268:8275  spender */\n              dup4\n                /* \"contracts/Accessories/ERC20FACTORY.sol\":8249:8276  _allowances[owner][spender] */\n              0xffffffffffffffffffffffffffffffffffffffff\n              and\n              0xffffffffffffffffffffffffffffffffffffffff\n              and\n              dup2\n              mstore\n              0x20\n              add\n              swap1\n              dup2\n              mstore\n              0x20\n              add\n              0x00\n              keccak256\n              sload\n                /* \"contracts/Accessories/ERC20FACTORY.sol\":8242:8276  return _allowances[owner][spender] */\n              swap1\n              pop\n                /* \"contracts/Accessories/ERC20FACTORY.sol\":8149:8283  function allowance(address owner, address spender) public view   returns (uint256) {... */\n              swap3\n              swap2\n              pop\n              pop\n              jump\t// out\n                /* \"contracts/Accessories/ERC20FACTORY.sol\":324:500  function add(uint256 a, uint256 b) internal pure returns (uint256) {... */\n            tag_63:\n                /* \"contracts/Accessories/ERC20FACTORY.sol\":382:389  uint256 */\n              0x00\n                /* \"contracts/Accessories/ERC20FACTORY.sol\":401:410  uint256 c */\n              dup1\n                /* \"contracts/Accessories/ERC20FACTORY.sol\":417:418  b */\n              dup3\n                /* \"contracts/Accessories/ERC20FACTORY.sol\":413:414  a */\n              dup5\n                /* \"contracts/Accessories/ERC20FACTORY.sol\":413:418  a + b */\n              tag_108\n              swap2\n              swap1\n              tag_109\n              jump\t// in\n            tag_108:\n                /* \"contracts/Accessories/ERC20FACTORY.sol\":401:418  uint256 c = a + b */\n              swap1\n              pop\n                /* \"contracts/Accessories/ERC20FACTORY.sol\":441:442  a */\n              dup4\n                /* \"contracts/Accessories/ERC20FACTORY.sol\":436:437  c */\n              dup2\n                /* \"contracts/Accessories/ERC20FACTORY.sol\":436:442  c >= a */\n              lt\n              iszero\n                /* \"contracts/Accessories/ERC20FACTORY.sol\":428:474  require(c >= a, \"SafeMath: addition overflow\") */\n              tag_110\n              jumpi\n              mload(0x40)\n              0x08c379a000000000000000000000000000000000000000000000000000000000\n              dup2\n              mstore\n              0x04\n              add\n              tag_111\n              swap1\n              tag_112\n              jump\t// in\n            tag_111:\n              mload(0x40)\n              dup1\n              swap2\n              sub\n              swap1\n              revert\n            tag_110:\n                /* \"contracts/Accessories/ERC20FACTORY.sol\":492:493  c */\n              dup1\n                /* \"contracts/Accessories/ERC20FACTORY.sol\":485:493  return c */\n              swap2\n              pop\n              pop\n                /* \"contracts/Accessories/ERC20FACTORY.sol\":324:500  function add(uint256 a, uint256 b) internal pure returns (uint256) {... */\n              swap3\n              swap2\n              pop\n              pop\n              jump\t// out\n                /* \"contracts/Accessories/ERC20FACTORY.sol\":4691:4787  function _msgSender() internal view virtual returns (address) {... */\n            tag_74:\n                /* \"contracts/Accessories/ERC20FACTORY.sol\":4744:4751  address */\n              0x00\n                /* \"contracts/Accessories/ERC20FACTORY.sol\":4770:4780  msg.sender */\n              caller\n                /* \"contracts/Accessories/ERC20FACTORY.sol\":4763:4780  return msg.sender */\n              swap1\n              pop\n                /* \"contracts/Accessories/ERC20FACTORY.sol\":4691:4787  function _msgSender() internal view virtual returns (address) {... */\n              swap1\n              jump\t// out\n                /* \"contracts/Accessories/ERC20FACTORY.sol\":13467:13800  function _approve(address owner, address spender, uint256 amount) internal  {... */\n            tag_75:\n                /* \"contracts/Accessories/ERC20FACTORY.sol\":13578:13579  0 */\n              0x00\n                /* \"contracts/Accessories/ERC20FACTORY.sol\":13561:13580  owner != address(0) */\n              0xffffffffffffffffffffffffffffffffffffffff\n              and\n                /* \"contracts/Accessories/ERC20FACTORY.sol\":13561:13566  owner */\n              dup4\n                /* \"contracts/Accessories/ERC20FACTORY.sol\":13561:13580  owner != address(0) */\n              0xffffffffffffffffffffffffffffffffffffffff\n              and\n              sub\n                /* \"contracts/Accessories/ERC20FACTORY.sol\":13553:13621  require(owner != address(0), \"ERC20: approve from the zero address\") */\n              tag_115\n              jumpi\n              mload(0x40)\n              0x08c379a000000000000000000000000000000000000000000000000000000000\n              dup2\n              mstore\n              0x04\n              add\n              tag_116\n              swap1\n              tag_117\n              jump\t// in\n            tag_116:\n              mload(0x40)\n              dup1\n              swap2\n              sub\n              swap1\n              revert\n            tag_115:\n                /* \"contracts/Accessories/ERC20FACTORY.sol\":13658:13659  0 */\n              0x00\n                /* \"contracts/Accessories/ERC20FACTORY.sol\":13639:13660  spender != address(0) */\n              0xffffffffffffffffffffffffffffffffffffffff\n              and\n                /* \"contracts/Accessories/ERC20FACTORY.sol\":13639:13646  spender */\n              dup3\n                /* \"contracts/Accessories/ERC20FACTORY.sol\":13639:13660  spender != address(0) */\n              0xffffffffffffffffffffffffffffffffffffffff\n              and\n              sub\n                /* \"contracts/Accessories/ERC20FACTORY.sol\":13631:13699  require(spender != address(0), \"ERC20: approve to the zero address\") */\n              tag_118\n              jumpi\n              mload(0x40)\n              0x08c379a000000000000000000000000000000000000000000000000000000000\n              dup2\n              mstore\n              0x04\n              add\n              tag_119\n              swap1\n              tag_120\n              jump\t// in\n            tag_119:\n              mload(0x40)\n              dup1\n              swap2\n              sub\n              swap1\n              revert\n            tag_118:\n                /* \"contracts/Accessories/ERC20FACTORY.sol\":13740:13746  amount */\n              dup1\n                /* \"contracts/Accessories/ERC20FACTORY.sol\":13710:13721  _allowances */\n              0x01\n                /* \"contracts/Accessories/ERC20FACTORY.sol\":13710:13728  _allowances[owner] */\n              0x00\n                /* \"contracts/Accessories/ERC20FACTORY.sol\":13722:13727  owner */\n              dup6\n                /* \"contracts/Accessories/ERC20FACTORY.sol\":13710:13728  _allowances[owner] */\n              0xffffffffffffffffffffffffffffffffffffffff\n              and\n              0xffffffffffffffffffffffffffffffffffffffff\n              and\n              dup2\n              mstore\n              0x20\n              add\n              swap1\n              dup2\n              mstore\n              0x20\n              add\n              0x00\n              keccak256\n                /* \"contracts/Accessories/ERC20FACTORY.sol\":13710:13737  _allowances[owner][spender] */\n              0x00\n                /* \"contracts/Accessories/ERC20FACTORY.sol\":13729:13736  spender */\n              dup5\n                /* \"contracts/Accessories/ERC20FACTORY.sol\":13710:13737  _allowances[owner][spender] */\n              0xffffffffffffffffffffffffffffffffffffffff\n              and\n              0xffffffffffffffffffffffffffffffffffffffff\n              and\n              dup2\n              mstore\n              0x20\n              add\n              swap1\n              dup2\n              mstore\n              0x20\n              add\n              0x00\n              keccak256\n                /* \"contracts/Accessories/ERC20FACTORY.sol\":13710:13746  _allowances[owner][spender] = amount */\n              dup2\n              swap1\n              sstore\n              pop\n                /* \"contracts/Accessories/ERC20FACTORY.sol\":13777:13784  spender */\n              dup2\n                /* \"contracts/Accessories/ERC20FACTORY.sol\":13761:13793  Approval(owner, spender, amount) */\n              0xffffffffffffffffffffffffffffffffffffffff\n              and\n                /* \"contracts/Accessories/ERC20FACTORY.sol\":13770:13775  owner */\n              dup4\n                /* \"contracts/Accessories/ERC20FACTORY.sol\":13761:13793  Approval(owner, spender, amount) */\n              0xffffffffffffffffffffffffffffffffffffffff\n              and\n              0x8c5be1e5ebec7d5bd14f71427d1e84f3dd0314c0f7b2291e5b200ac8c7c3b925\n                /* \"contracts/Accessories/ERC20FACTORY.sol\":13786:13792  amount */\n              dup4\n                /* \"contracts/Accessories/ERC20FACTORY.sol\":13761:13793  Approval(owner, spender, amount) */\n              mload(0x40)\n              tag_121\n              swap2\n              swap1\n              tag_28\n              jump\t// in\n            tag_121:\n              mload(0x40)\n              dup1\n              swap2\n              sub\n              swap1\n              log3\n                /* \"contracts/Accessories/ERC20FACTORY.sol\":13467:13800  function _approve(address owner, address spender, uint256 amount) internal  {... */\n              pop\n              pop\n              pop\n              jump\t// out\n                /* \"contracts/Accessories/ERC20FACTORY.sol\":11164:11687  function _transfer(address sender, address recipient, uint256 amount) internal  {... */\n            tag_79:\n                /* \"contracts/Accessories/ERC20FACTORY.sol\":11280:11281  0 */\n              0x00\n                /* \"contracts/Accessories/ERC20FACTORY.sol\":11262:11282  sender != address(0) */\n              0xffffffffffffffffffffffffffffffffffffffff\n              and\n                /* \"contracts/Accessories/ERC20FACTORY.sol\":11262:11268  sender */\n              dup4\n                /* \"contracts/Accessories/ERC20FACTORY.sol\":11262:11282  sender != address(0) */\n              0xffffffffffffffffffffffffffffffffffffffff\n              and\n              sub\n                /* \"contracts/Accessories/ERC20FACTORY.sol\":11254:11324  require(sender != address(0), \"ERC20: transfer from the zero address\") */\n              tag_123\n              jumpi\n              mload(0x40)\n              0x08c379a000000000000000000000000000000000000000000000000000000000\n              dup2\n              mstore\n              0x04\n              add\n              tag_124\n              swap1\n              tag_125\n              jump\t// in\n            tag_124:\n              mload(0x40)\n              dup1\n              swap2\n              sub\n              swap1\n              revert\n            tag_123:\n                /* \"contracts/Accessories/ERC20FACTORY.sol\":11363:11364  0 */\n              0x00\n                /* \"contracts/Accessories/ERC20FACTORY.sol\":11342:11365  recipient != address(0) */\n              0xffffffffffffffffffffffffffffffffffffffff\n              and\n                /* \"contracts/Accessories/ERC20FACTORY.sol\":11342:11351  recipient */\n              dup3\n                /* \"contracts/Accessories/ERC20FACTORY.sol\":11342:11365  recipient != address(0) */\n              0xffffffffffffffffffffffffffffffffffffffff\n              and\n              sub\n                /* \"contracts/Accessories/ERC20FACTORY.sol\":11334:11405  require(recipient != address(0), \"ERC20: transfer to the zero address\") */\n              tag_126\n              jumpi\n              mload(0x40)\n              0x08c379a000000000000000000000000000000000000000000000000000000000\n              dup2\n              mstore\n              0x04\n              add\n              tag_127\n              swap1\n              tag_128\n              jump\t// in\n            tag_127:\n              mload(0x40)\n              dup1\n              swap2\n              sub\n              swap1\n              revert\n            tag_126:\n                /* \"contracts/Accessories/ERC20FACTORY.sol\":11416:11463  _beforeTokenTransfer(sender, recipient, amount) */\n              tag_129\n                /* \"contracts/Accessories/ERC20FACTORY.sol\":11437:11443  sender */\n              dup4\n                /* \"contracts/Accessories/ERC20FACTORY.sol\":11445:11454  recipient */\n              dup4\n                /* \"contracts/Accessories/ERC20FACTORY.sol\":11456:11462  amount */\n              dup4\n                /* \"contracts/Accessories/ERC20FACTORY.sol\":11416:11436  _beforeTokenTransfer */\n              tag_130\n                /* \"contracts/Accessories/ERC20FACTORY.sol\":11416:11463  _beforeTokenTransfer(sender, recipient, amount) */\n              jump\t// in\n            tag_129:\n                /* \"contracts/Accessories/ERC20FACTORY.sol\":11494:11565  _balances[sender].sub(amount, \"ERC20: transfer amount exceeds balance\") */\n              tag_131\n                /* \"contracts/Accessories/ERC20FACTORY.sol\":11516:11522  amount */\n              dup2\n                /* \"contracts/Accessories/ERC20FACTORY.sol\":11494:11565  _balances[sender].sub(amount, \"ERC20: transfer amount exceeds balance\") */\n              mload(0x40)\n              dup1\n              0x60\n              add\n              0x40\n              mstore\n              dup1\n              0x26\n              dup2\n              mstore\n              0x20\n              add\n              data_4107e8a8b9e94bf8ff83080ddec1c0bffe897ebc2241b89d44f66b3d274088b6\n              0x26\n              swap2\n              codecopy\n                /* \"contracts/Accessories/ERC20FACTORY.sol\":11494:11503  _balances */\n              0x00\n                /* \"contracts/Accessories/ERC20FACTORY.sol\":11494:11511  _balances[sender] */\n              dup1\n                /* \"contracts/Accessories/ERC20FACTORY.sol\":11504:11510  sender */\n              dup8\n                /* \"contracts/Accessories/ERC20FACTORY.sol\":11494:11511  _balances[sender] */\n              0xffffffffffffffffffffffffffffffffffffffff\n              and\n              0xffffffffffffffffffffffffffffffffffffffff\n              and\n              dup2\n              mstore\n              0x20\n              add\n              swap1\n              dup2\n              mstore\n              0x20\n              add\n              0x00\n              keccak256\n              sload\n                /* \"contracts/Accessories/ERC20FACTORY.sol\":11494:11515  _balances[sender].sub */\n              tag_84\n              swap1\n                /* \"contracts/Accessories/ERC20FACTORY.sol\":11494:11565  _balances[sender].sub(amount, \"ERC20: transfer amount exceeds balance\") */\n              swap3\n              swap2\n              swap1\n              0xffffffff\n              and\n              jump\t// in\n            tag_131:\n                /* \"contracts/Accessories/ERC20FACTORY.sol\":11474:11483  _balances */\n              0x00\n                /* \"contracts/Accessories/ERC20FACTORY.sol\":11474:11491  _balances[sender] */\n              dup1\n                /* \"contracts/Accessories/ERC20FACTORY.sol\":11484:11490  sender */\n              dup6\n                /* \"contracts/Accessories/ERC20FACTORY.sol\":11474:11491  _balances[sender] */\n              0xffffffffffffffffffffffffffffffffffffffff\n              and\n              0xffffffffffffffffffffffffffffffffffffffff\n              and\n              dup2\n              mstore\n              0x20\n              add\n              swap1\n              dup2\n              mstore\n              0x20\n              add\n              0x00\n              keccak256\n                /* \"contracts/Accessories/ERC20FACTORY.sol\":11474:11565  _balances[sender] = _balances[sender].sub(amount, \"ERC20: transfer amount exceeds balance\") */\n              dup2\n              swap1\n              sstore\n              pop\n                /* \"contracts/Accessories/ERC20FACTORY.sol\":11598:11630  _balances[recipient].add(amount) */\n              tag_132\n                /* \"contracts/Accessories/ERC20FACTORY.sol\":11623:11629  amount */\n              dup2\n                /* \"contracts/Accessories/ERC20FACTORY.sol\":11598:11607  _balances */\n              0x00\n                /* \"contracts/Accessories/ERC20FACTORY.sol\":11598:11618  _balances[recipient] */\n              dup1\n                /* \"contracts/Accessories/ERC20FACTORY.sol\":11608:11617  recipient */\n              dup6\n                /* \"contracts/Accessories/ERC20FACTORY.sol\":11598:11618  _balances[recipient] */\n              0xffffffffffffffffffffffffffffffffffffffff\n              and\n              0xffffffffffffffffffffffffffffffffffffffff\n              and\n              dup2\n              mstore\n              0x20\n              add\n              swap1\n              dup2\n              mstore\n              0x20\n              add\n              0x00\n              keccak256\n              sload\n                /* \"contracts/Accessories/ERC20FACTORY.sol\":11598:11622  _balances[recipient].add */\n              tag_63\n              swap1\n                /* \"contracts/Accessories/ERC20FACTORY.sol\":11598:11630  _balances[recipient].add(amount) */\n              swap2\n              swap1\n              0xffffffff\n              and\n              jump\t// in\n            tag_132:\n                /* \"contracts/Accessories/ERC20FACTORY.sol\":11575:11584  _balances */\n              0x00\n                /* \"contracts/Accessories/ERC20FACTORY.sol\":11575:11595  _balances[recipient] */\n              dup1\n                /* \"contracts/Accessories/ERC20FACTORY.sol\":11585:11594  recipient */\n              dup5\n                /* \"contracts/Accessories/ERC20FACTORY.sol\":11575:11595  _balances[recipient] */\n              0xffffffffffffffffffffffffffffffffffffffff\n              and\n              0xffffffffffffffffffffffffffffffffffffffff\n              and\n              dup2\n              mstore\n              0x20\n              add\n              swap1\n              dup2\n              mstore\n              0x20\n              add\n              0x00\n              keccak256\n                /* \"contracts/Accessories/ERC20FACTORY.sol\":11575:11630  _balances[recipient] = _balances[recipient].add(amount) */\n              dup2\n              swap1\n              sstore\n              pop\n                /* \"contracts/Accessories/ERC20FACTORY.sol\":11662:11671  recipient */\n              dup2\n                /* \"contracts/Accessories/ERC20FACTORY.sol\":11645:11680  Transfer(sender, recipient, amount) */\n              0xffffffffffffffffffffffffffffffffffffffff\n              and\n                /* \"contracts/Accessories/ERC20FACTORY.sol\":11654:11660  sender */\n              dup4\n                /* \"contracts/Accessories/ERC20FACTORY.sol\":11645:11680  Transfer(sender, recipient, amount) */\n              0xffffffffffffffffffffffffffffffffffffffff\n              and\n              0xddf252ad1be2c89b69c2b068fc378daa952ba7f163c4a11628f55a4df523b3ef\n                /* \"contracts/Accessories/ERC20FACTORY.sol\":11673:11679  amount */\n              dup4\n                /* \"contracts/Accessories/ERC20FACTORY.sol\":11645:11680  Transfer(sender, recipient, amount) */\n              mload(0x40)\n              tag_133\n              swap2\n              swap1\n              tag_28\n              jump\t// in\n            tag_133:\n              mload(0x40)\n              dup1\n              swap2\n              sub\n              swap1\n              log3\n                /* \"contracts/Accessories/ERC20FACTORY.sol\":11164:11687  function _transfer(address sender, address recipient, uint256 amount) internal  {... */\n              pop\n              pop\n              pop\n              jump\t// out\n                /* \"contracts/Accessories/ERC20FACTORY.sol\":1202:1389  function sub(uint256 a, uint256 b, string memory errorMessage) internal pure returns (uint256) {... */\n            tag_84:\n                /* \"contracts/Accessories/ERC20FACTORY.sol\":1288:1295  uint256 */\n              0x00\n                /* \"contracts/Accessories/ERC20FACTORY.sol\":1320:1321  a */\n              dup4\n                /* \"contracts/Accessories/ERC20FACTORY.sol\":1315:1316  b */\n              dup4\n                /* \"contracts/Accessories/ERC20FACTORY.sol\":1315:1321  b <= a */\n              gt\n              iszero\n                /* \"contracts/Accessories/ERC20FACTORY.sol\":1323:1335  errorMessage */\n              dup3\n                /* \"contracts/Accessories/ERC20FACTORY.sol\":1307:1336  require(b <= a, errorMessage) */\n              swap1\n              tag_135\n              jumpi\n              mload(0x40)\n              0x08c379a000000000000000000000000000000000000000000000000000000000\n              dup2\n              mstore\n              0x04\n              add\n              tag_136\n              swap2\n              swap1\n              tag_18\n              jump\t// in\n            tag_136:\n              mload(0x40)\n              dup1\n              swap2\n              sub\n              swap1\n              revert\n            tag_135:\n              pop\n                /* \"contracts/Accessories/ERC20FACTORY.sol\":1346:1355  uint256 c */\n              0x00\n                /* \"contracts/Accessories/ERC20FACTORY.sol\":1362:1363  b */\n              dup4\n                /* \"contracts/Accessories/ERC20FACTORY.sol\":1358:1359  a */\n              dup6\n                /* \"contracts/Accessories/ERC20FACTORY.sol\":1358:1363  a - b */\n              tag_137\n              swap2\n              swap1\n              tag_138\n              jump\t// in\n            tag_137:\n                /* \"contracts/Accessories/ERC20FACTORY.sol\":1346:1363  uint256 c = a - b */\n              swap1\n              pop\n                /* \"contracts/Accessories/ERC20FACTORY.sol\":1381:1382  c */\n              dup1\n                /* \"contracts/Accessories/ERC20FACTORY.sol\":1374:1382  return c */\n              swap2\n              pop\n              pop\n                /* \"contracts/Accessories/ERC20FACTORY.sol\":1202:1389  function sub(uint256 a, uint256 b, string memory errorMessage) internal pure returns (uint256) {... */\n              swap4\n              swap3\n              pop\n              pop\n              pop\n              jump\t// out\n                /* \"contracts/Accessories/ERC20FACTORY.sol\":14804:14896  function _beforeTokenTransfer(address from, address to, uint256 amount) internal virtual { } */\n            tag_130:\n              pop\n              pop\n              pop\n              jump\t// out\n                /* \"#utility.yul\":7:106   */\n            tag_140:\n                /* \"#utility.yul\":59:65   */\n              0x00\n                /* \"#utility.yul\":93:98   */\n              dup2\n                /* \"#utility.yul\":87:99   */\n              mload\n                /* \"#utility.yul\":77:99   */\n              swap1\n              pop\n                /* \"#utility.yul\":7:106   */\n              swap2\n              swap1\n              pop\n              jump\t// out\n                /* \"#utility.yul\":112:281   */\n            tag_141:\n                /* \"#utility.yul\":196:207   */\n              0x00\n                /* \"#utility.yul\":230:236   */\n              dup3\n                /* \"#utility.yul\":225:228   */\n              dup3\n                /* \"#utility.yul\":218:237   */\n              mstore\n                /* \"#utility.yul\":270:274   */\n              0x20\n                /* \"#utility.yul\":265:268   */\n              dup3\n                /* \"#utility.yul\":261:275   */\n              add\n                /* \"#utility.yul\":246:275   */\n              swap1\n              pop\n                /* \"#utility.yul\":112:281   */\n              swap3\n              swap2\n              pop\n              pop\n              jump\t// out\n                /* \"#utility.yul\":287:533   */\n            tag_142:\n                /* \"#utility.yul\":368:369   */\n              0x00\n                /* \"#utility.yul\":378:491   */\n            tag_176:\n                /* \"#utility.yul\":392:398   */\n              dup4\n                /* \"#utility.yul\":389:390   */\n              dup2\n                /* \"#utility.yul\":386:399   */\n              lt\n                /* \"#utility.yul\":378:491   */\n              iszero\n              tag_178\n              jumpi\n                /* \"#utility.yul\":477:478   */\n              dup1\n                /* \"#utility.yul\":472:475   */\n              dup3\n                /* \"#utility.yul\":468:479   */\n              add\n                /* \"#utility.yul\":462:480   */\n              mload\n                /* \"#utility.yul\":458:459   */\n              dup2\n                /* \"#utility.yul\":453:456   */\n              dup5\n                /* \"#utility.yul\":449:460   */\n              add\n                /* \"#utility.yul\":442:481   */\n              mstore\n                /* \"#utility.yul\":414:416   */\n              0x20\n                /* \"#utility.yul\":411:412   */\n              dup2\n                /* \"#utility.yul\":407:417   */\n              add\n                /* \"#utility.yul\":402:417   */\n              swap1\n              pop\n                /* \"#utility.yul\":378:491   */\n              jump(tag_176)\n            tag_178:\n                /* \"#utility.yul\":525:526   */\n              0x00\n                /* \"#utility.yul\":516:522   */\n              dup5\n                /* \"#utility.yul\":511:514   */\n              dup5\n                /* \"#utility.yul\":507:523   */\n              add\n                /* \"#utility.yul\":500:527   */\n              mstore\n                /* \"#utility.yul\":349:533   */\n              pop\n                /* \"#utility.yul\":287:533   */\n              pop\n              pop\n              pop\n              jump\t// out\n                /* \"#utility.yul\":539:641   */\n            tag_143:\n                /* \"#utility.yul\":580:586   */\n              0x00\n                /* \"#utility.yul\":631:633   */\n              0x1f\n                /* \"#utility.yul\":627:634   */\n              not\n                /* \"#utility.yul\":622:624   */\n              0x1f\n                /* \"#utility.yul\":615:620   */\n              dup4\n                /* \"#utility.yul\":611:625   */\n              add\n                /* \"#utility.yul\":607:635   */\n              and\n                /* \"#utility.yul\":597:635   */\n              swap1\n              pop\n                /* \"#utility.yul\":539:641   */\n              swap2\n              swap1\n              pop\n              jump\t// out\n                /* \"#utility.yul\":647:1024   */\n            tag_144:\n                /* \"#utility.yul\":735:738   */\n              0x00\n                /* \"#utility.yul\":763:802   */\n              tag_181\n                /* \"#utility.yul\":796:801   */\n              dup3\n                /* \"#utility.yul\":763:802   */\n              tag_140\n              jump\t// in\n            tag_181:\n                /* \"#utility.yul\":818:889   */\n              tag_182\n                /* \"#utility.yul\":882:888   */\n              dup2\n                /* \"#utility.yul\":877:880   */\n              dup6\n                /* \"#utility.yul\":818:889   */\n              tag_141\n              jump\t// in\n            tag_182:\n                /* \"#utility.yul\":811:889   */\n              swap4\n              pop\n                /* \"#utility.yul\":898:963   */\n              tag_183\n                /* \"#utility.yul\":956:962   */\n              dup2\n                /* \"#utility.yul\":951:954   */\n              dup6\n                /* \"#utility.yul\":944:948   */\n              0x20\n                /* \"#utility.yul\":937:942   */\n              dup7\n                /* \"#utility.yul\":933:949   */\n              add\n                /* \"#utility.yul\":898:963   */\n              tag_142\n              jump\t// in\n            tag_183:\n                /* \"#utility.yul\":988:1017   */\n              tag_184\n                /* \"#utility.yul\":1010:1016   */\n              dup2\n                /* \"#utility.yul\":988:1017   */\n              tag_143\n              jump\t// in\n            tag_184:\n                /* \"#utility.yul\":983:986   */\n              dup5\n                /* \"#utility.yul\":979:1018   */\n              add\n                /* \"#utility.yul\":972:1018   */\n              swap2\n              pop\n                /* \"#utility.yul\":739:1024   */\n              pop\n                /* \"#utility.yul\":647:1024   */\n              swap3\n              swap2\n              pop\n              pop\n              jump\t// out\n                /* \"#utility.yul\":1030:1343   */\n            tag_18:\n                /* \"#utility.yul\":1143:1147   */\n              0x00\n                /* \"#utility.yul\":1181:1183   */\n              0x20\n                /* \"#utility.yul\":1170:1179   */\n              dup3\n                /* \"#utility.yul\":1166:1184   */\n              add\n                /* \"#utility.yul\":1158:1184   */\n              swap1\n              pop\n                /* \"#utility.yul\":1230:1239   */\n              dup2\n                /* \"#utility.yul\":1224:1228   */\n              dup2\n                /* \"#utility.yul\":1220:1240   */\n              sub\n                /* \"#utility.yul\":1216:1217   */\n              0x00\n                /* \"#utility.yul\":1205:1214   */\n              dup4\n                /* \"#utility.yul\":1201:1218   */\n              add\n                /* \"#utility.yul\":1194:1241   */\n              mstore\n                /* \"#utility.yul\":1258:1336   */\n              tag_186\n                /* \"#utility.yul\":1331:1335   */\n              dup2\n                /* \"#utility.yul\":1322:1328   */\n              dup5\n                /* \"#utility.yul\":1258:1336   */\n              tag_144\n              jump\t// in\n            tag_186:\n                /* \"#utility.yul\":1250:1336   */\n              swap1\n              pop\n                /* \"#utility.yul\":1030:1343   */\n              swap3\n              swap2\n              pop\n              pop\n              jump\t// out\n                /* \"#utility.yul\":1430:1547   */\n            tag_146:\n                /* \"#utility.yul\":1539:1540   */\n              0x00\n                /* \"#utility.yul\":1536:1537   */\n              dup1\n                /* \"#utility.yul\":1529:1541   */\n              revert\n                /* \"#utility.yul\":1676:1802   */\n            tag_148:\n                /* \"#utility.yul\":1713:1720   */\n              0x00\n                /* \"#utility.yul\":1753:1795   */\n              0xffffffffffffffffffffffffffffffffffffffff\n                /* \"#utility.yul\":1746:1751   */\n              dup3\n                /* \"#utility.yul\":1742:1796   */\n              and\n                /* \"#utility.yul\":1731:1796   */\n              swap1\n              pop\n                /* \"#utility.yul\":1676:1802   */\n              swap2\n              swap1\n              pop\n              jump\t// out\n                /* \"#utility.yul\":1808:1904   */\n            tag_149:\n                /* \"#utility.yul\":1845:1852   */\n              0x00\n                /* \"#utility.yul\":1874:1898   */\n              tag_192\n                /* \"#utility.yul\":1892:1897   */\n              dup3\n                /* \"#utility.yul\":1874:1898   */\n              tag_148\n              jump\t// in\n            tag_192:\n                /* \"#utility.yul\":1863:1898   */\n              swap1\n              pop\n                /* \"#utility.yul\":1808:1904   */\n              swap2\n              swap1\n              pop\n              jump\t// out\n                /* \"#utility.yul\":1910:2032   */\n            tag_150:\n                /* \"#utility.yul\":1983:2007   */\n              tag_194\n                /* \"#utility.yul\":2001:2006   */\n              dup2\n                /* \"#utility.yul\":1983:2007   */\n              tag_149\n              jump\t// in\n            tag_194:\n                /* \"#utility.yul\":1976:1981   */\n              dup2\n                /* \"#utility.yul\":1973:2008   */\n              eq\n                /* \"#utility.yul\":1963:2026   */\n              tag_195\n              jumpi\n                /* \"#utility.yul\":2022:2023   */\n              0x00\n                /* \"#utility.yul\":2019:2020   */\n              dup1\n                /* \"#utility.yul\":2012:2024   */\n              revert\n                /* \"#utility.yul\":1963:2026   */\n            tag_195:\n                /* \"#utility.yul\":1910:2032   */\n              pop\n              jump\t// out\n                /* \"#utility.yul\":2038:2177   */\n            tag_151:\n                /* \"#utility.yul\":2084:2089   */\n              0x00\n                /* \"#utility.yul\":2122:2128   */\n              dup2\n                /* \"#utility.yul\":2109:2129   */\n              calldataload\n                /* \"#utility.yul\":2100:2129   */\n              swap1\n              pop\n                /* \"#utility.yul\":2138:2171   */\n              tag_197\n                /* \"#utility.yul\":2165:2170   */\n              dup2\n                /* \"#utility.yul\":2138:2171   */\n              tag_150\n              jump\t// in\n            tag_197:\n                /* \"#utility.yul\":2038:2177   */\n              swap3\n              swap2\n              pop\n              pop\n              jump\t// out\n                /* \"#utility.yul\":2183:2260   */\n            tag_152:\n                /* \"#utility.yul\":2220:2227   */\n              0x00\n                /* \"#utility.yul\":2249:2254   */\n              dup2\n                /* \"#utility.yul\":2238:2254   */\n              swap1\n              pop\n                /* \"#utility.yul\":2183:2260   */\n              swap2\n              swap1\n              pop\n              jump\t// out\n                /* \"#utility.yul\":2266:2388   */\n            tag_153:\n                /* \"#utility.yul\":2339:2363   */\n              tag_200\n                /* \"#utility.yul\":2357:2362   */\n              dup2\n                /* \"#utility.yul\":2339:2363   */\n              tag_152\n              jump\t// in\n            tag_200:\n                /* \"#utility.yul\":2332:2337   */\n              dup2\n                /* \"#utility.yul\":2329:2364   */\n              eq\n                /* \"#utility.yul\":2319:2382   */\n              tag_201\n              jumpi\n                /* \"#utility.yul\":2378:2379   */\n              0x00\n                /* \"#utility.yul\":2375:2376   */\n              dup1\n                /* \"#utility.yul\":2368:2380   */\n              revert\n                /* \"#utility.yul\":2319:2382   */\n            tag_201:\n                /* \"#utility.yul\":2266:2388   */\n              pop\n              jump\t// out\n                /* \"#utility.yul\":2394:2533   */\n            tag_154:\n                /* \"#utility.yul\":2440:2445   */\n              0x00\n                /* \"#utility.yul\":2478:2484   */\n              dup2\n                /* \"#utility.yul\":2465:2485   */\n              calldataload\n                /* \"#utility.yul\":2456:2485   */\n              swap1\n              pop\n                /* \"#utility.yul\":2494:2527   */\n              tag_203\n                /* \"#utility.yul\":2521:2526   */\n              dup2\n                /* \"#utility.yul\":2494:2527   */\n              tag_153\n              jump\t// in\n            tag_203:\n                /* \"#utility.yul\":2394:2533   */\n              swap3\n              swap2\n              pop\n              pop\n              jump\t// out\n                /* \"#utility.yul\":2539:3013   */\n            tag_21:\n                /* \"#utility.yul\":2607:2613   */\n              0x00\n                /* \"#utility.yul\":2615:2621   */\n              dup1\n                /* \"#utility.yul\":2664:2666   */\n              0x40\n                /* \"#utility.yul\":2652:2661   */\n              dup4\n                /* \"#utility.yul\":2643:2650   */\n              dup6\n                /* \"#utility.yul\":2639:2662   */\n              sub\n                /* \"#utility.yul\":2635:2667   */\n              slt\n                /* \"#utility.yul\":2632:2751   */\n              iszero\n              tag_205\n              jumpi\n                /* \"#utility.yul\":2670:2749   */\n              tag_206\n              tag_146\n              jump\t// in\n            tag_206:\n                /* \"#utility.yul\":2632:2751   */\n            tag_205:\n                /* \"#utility.yul\":2790:2791   */\n              0x00\n                /* \"#utility.yul\":2815:2868   */\n              tag_207\n                /* \"#utility.yul\":2860:2867   */\n              dup6\n                /* \"#utility.yul\":2851:2857   */\n              dup3\n                /* \"#utility.yul\":2840:2849   */\n              dup7\n                /* \"#utility.yul\":2836:2858   */\n              add\n                /* \"#utility.yul\":2815:2868   */\n              tag_151\n              jump\t// in\n            tag_207:\n                /* \"#utility.yul\":2805:2868   */\n              swap3\n              pop\n                /* \"#utility.yul\":2761:2878   */\n              pop\n                /* \"#utility.yul\":2917:2919   */\n              0x20\n                /* \"#utility.yul\":2943:2996   */\n              tag_208\n                /* \"#utility.yul\":2988:2995   */\n              dup6\n                /* \"#utility.yul\":2979:2985   */\n              dup3\n                /* \"#utility.yul\":2968:2977   */\n              dup7\n                /* \"#utility.yul\":2964:2986   */\n              add\n                /* \"#utility.yul\":2943:2996   */\n              tag_154\n              jump\t// in\n            tag_208:\n                /* \"#utility.yul\":2933:2996   */\n              swap2\n              pop\n                /* \"#utility.yul\":2888:3006   */\n              pop\n                /* \"#utility.yul\":2539:3013   */\n              swap3\n              pop\n              swap3\n              swap1\n              pop\n              jump\t// out\n                /* \"#utility.yul\":3019:3109   */\n            tag_155:\n                /* \"#utility.yul\":3053:3060   */\n              0x00\n                /* \"#utility.yul\":3096:3101   */\n              dup2\n                /* \"#utility.yul\":3089:3102   */\n              iszero\n                /* \"#utility.yul\":3082:3103   */\n              iszero\n                /* \"#utility.yul\":3071:3103   */\n              swap1\n              pop\n                /* \"#utility.yul\":3019:3109   */\n              swap2\n              swap1\n              pop\n              jump\t// out\n                /* \"#utility.yul\":3115:3224   */\n            tag_156:\n                /* \"#utility.yul\":3196:3217   */\n              tag_211\n                /* \"#utility.yul\":3211:3216   */\n              dup2\n                /* \"#utility.yul\":3196:3217   */\n              tag_155\n              jump\t// in\n            tag_211:\n                /* \"#utility.yul\":3191:3194   */\n              dup3\n                /* \"#utility.yul\":3184:3218   */\n              mstore\n                /* \"#utility.yul\":3115:3224   */\n              pop\n              pop\n              jump\t// out\n                /* \"#utility.yul\":3230:3440   */\n            tag_24:\n                /* \"#utility.yul\":3317:3321   */\n              0x00\n                /* \"#utility.yul\":3355:3357   */\n              0x20\n                /* \"#utility.yul\":3344:3353   */\n              dup3\n                /* \"#utility.yul\":3340:3358   */\n              add\n                /* \"#utility.yul\":3332:3358   */\n              swap1\n              pop\n                /* \"#utility.yul\":3368:3433   */\n              tag_213\n                /* \"#utility.yul\":3430:3431   */\n              0x00\n                /* \"#utility.yul\":3419:3428   */\n              dup4\n                /* \"#utility.yul\":3415:3432   */\n              add\n                /* \"#utility.yul\":3406:3412   */\n              dup5\n                /* \"#utility.yul\":3368:3433   */\n              tag_156\n              jump\t// in\n            tag_213:\n                /* \"#utility.yul\":3230:3440   */\n              swap3\n              swap2\n              pop\n              pop\n              jump\t// out\n                /* \"#utility.yul\":3446:3564   */\n            tag_157:\n                /* \"#utility.yul\":3533:3557   */\n              tag_215\n                /* \"#utility.yul\":3551:3556   */\n              dup2\n                /* \"#utility.yul\":3533:3557   */\n              tag_152\n              jump\t// in\n            tag_215:\n                /* \"#utility.yul\":3528:3531   */\n              dup3\n                /* \"#utility.yul\":3521:3558   */\n              mstore\n                /* \"#utility.yul\":3446:3564   */\n              pop\n              pop\n              jump\t// out\n                /* \"#utility.yul\":3570:3792   */\n            tag_28:\n                /* \"#utility.yul\":3663:3667   */\n              0x00\n                /* \"#utility.yul\":3701:3703   */\n              0x20\n                /* \"#utility.yul\":3690:3699   */\n              dup3\n                /* \"#utility.yul\":3686:3704   */\n              add\n                /* \"#utility.yul\":3678:3704   */\n              swap1\n              pop\n                /* \"#utility.yul\":3714:3785   */\n              tag_217\n                /* \"#utility.yul\":3782:3783   */\n              0x00\n                /* \"#utility.yul\":3771:3780   */\n              dup4\n                /* \"#utility.yul\":3767:3784   */\n              add\n                /* \"#utility.yul\":3758:3764   */\n              dup5\n                /* \"#utility.yul\":3714:3785   */\n              tag_157\n              jump\t// in\n            tag_217:\n                /* \"#utility.yul\":3570:3792   */\n              swap3\n              swap2\n              pop\n              pop\n              jump\t// out\n                /* \"#utility.yul\":3798:4417   */\n            tag_31:\n                /* \"#utility.yul\":3875:3881   */\n              0x00\n                /* \"#utility.yul\":3883:3889   */\n              dup1\n                /* \"#utility.yul\":3891:3897   */\n              0x00\n                /* \"#utility.yul\":3940:3942   */\n              0x60\n                /* \"#utility.yul\":3928:3937   */\n              dup5\n                /* \"#utility.yul\":3919:3926   */\n              dup7\n                /* \"#utility.yul\":3915:3938   */\n              sub\n                /* \"#utility.yul\":3911:3943   */\n              slt\n                /* \"#utility.yul\":3908:4027   */\n              iszero\n              tag_219\n              jumpi\n                /* \"#utility.yul\":3946:4025   */\n              tag_220\n              tag_146\n              jump\t// in\n            tag_220:\n                /* \"#utility.yul\":3908:4027   */\n            tag_219:\n                /* \"#utility.yul\":4066:4067   */\n              0x00\n                /* \"#utility.yul\":4091:4144   */\n              tag_221\n                /* \"#utility.yul\":4136:4143   */\n              dup7\n                /* \"#utility.yul\":4127:4133   */\n              dup3\n                /* \"#utility.yul\":4116:4125   */\n              dup8\n                /* \"#utility.yul\":4112:4134   */\n              add\n                /* \"#utility.yul\":4091:4144   */\n              tag_151\n              jump\t// in\n            tag_221:\n                /* \"#utility.yul\":4081:4144   */\n              swap4\n              pop\n                /* \"#utility.yul\":4037:4154   */\n              pop\n                /* \"#utility.yul\":4193:4195   */\n              0x20\n                /* \"#utility.yul\":4219:4272   */\n              tag_222\n                /* \"#utility.yul\":4264:4271   */\n              dup7\n                /* \"#utility.yul\":4255:4261   */\n              dup3\n                /* \"#utility.yul\":4244:4253   */\n              dup8\n                /* \"#utility.yul\":4240:4262   */\n              add\n                /* \"#utility.yul\":4219:4272   */\n              tag_151\n              jump\t// in\n            tag_222:\n                /* \"#utility.yul\":4209:4272   */\n              swap3\n              pop\n                /* \"#utility.yul\":4164:4282   */\n              pop\n                /* \"#utility.yul\":4321:4323   */\n              0x40\n                /* \"#utility.yul\":4347:4400   */\n              tag_223\n                /* \"#utility.yul\":4392:4399   */\n              dup7\n                /* \"#utility.yul\":4383:4389   */\n              dup3\n                /* \"#utility.yul\":4372:4381   */\n              dup8\n                /* \"#utility.yul\":4368:4390   */\n              add\n                /* \"#utility.yul\":4347:4400   */\n              tag_154\n              jump\t// in\n            tag_223:\n                /* \"#utility.yul\":4337:4400   */\n              swap2\n              pop\n                /* \"#utility.yul\":4292:4410   */\n              pop\n                /* \"#utility.yul\":3798:4417   */\n              swap3\n              pop\n              swap3\n              pop\n              swap3\n              jump\t// out\n                /* \"#utility.yul\":4423:4509   */\n            tag_158:\n                /* \"#utility.yul\":4458:4465   */\n              0x00\n                /* \"#utility.yul\":4498:4502   */\n              0xff\n                /* \"#utility.yul\":4491:4496   */\n              dup3\n                /* \"#utility.yul\":4487:4503   */\n              and\n                /* \"#utility.yul\":4476:4503   */\n              swap1\n              pop\n                /* \"#utility.yul\":4423:4509   */\n              swap2\n              swap1\n              pop\n              jump\t// out\n                /* \"#utility.yul\":4515:4627   */\n            tag_159:\n                /* \"#utility.yul\":4598:4620   */\n              tag_226\n                /* \"#utility.yul\":4614:4619   */\n              dup2\n                /* \"#utility.yul\":4598:4620   */\n              tag_158\n              jump\t// in\n            tag_226:\n                /* \"#utility.yul\":4593:4596   */\n              dup3\n                /* \"#utility.yul\":4586:4621   */\n              mstore\n                /* \"#utility.yul\":4515:4627   */\n              pop\n              pop\n              jump\t// out\n                /* \"#utility.yul\":4633:4847   */\n            tag_37:\n                /* \"#utility.yul\":4722:4726   */\n              0x00\n                /* \"#utility.yul\":4760:4762   */\n              0x20\n                /* \"#utility.yul\":4749:4758   */\n              dup3\n                /* \"#utility.yul\":4745:4763   */\n              add\n                /* \"#utility.yul\":4737:4763   */\n              swap1\n              pop\n                /* \"#utility.yul\":4773:4840   */\n              tag_228\n                /* \"#utility.yul\":4837:4838   */\n              0x00\n                /* \"#utility.yul\":4826:4835   */\n              dup4\n                /* \"#utility.yul\":4822:4839   */\n              add\n                /* \"#utility.yul\":4813:4819   */\n              dup5\n                /* \"#utility.yul\":4773:4840   */\n              tag_159\n              jump\t// in\n            tag_228:\n                /* \"#utility.yul\":4633:4847   */\n              swap3\n              swap2\n              pop\n              pop\n              jump\t// out\n                /* \"#utility.yul\":4853:5182   */\n            tag_44:\n                /* \"#utility.yul\":4912:4918   */\n              0x00\n                /* \"#utility.yul\":4961:4963   */\n              0x20\n                /* \"#utility.yul\":4949:4958   */\n              dup3\n                /* \"#utility.yul\":4940:4947   */\n              dup5\n                /* \"#utility.yul\":4936:4959   */\n              sub\n                /* \"#utility.yul\":4932:4964   */\n              slt\n                /* \"#utility.yul\":4929:5048   */\n              iszero\n              tag_230\n              jumpi\n                /* \"#utility.yul\":4967:5046   */\n              tag_231\n              tag_146\n              jump\t// in\n            tag_231:\n                /* \"#utility.yul\":4929:5048   */\n            tag_230:\n                /* \"#utility.yul\":5087:5088   */\n              0x00\n                /* \"#utility.yul\":5112:5165   */\n              tag_232\n                /* \"#utility.yul\":5157:5164   */\n              dup5\n                /* \"#utility.yul\":5148:5154   */\n              dup3\n                /* \"#utility.yul\":5137:5146   */\n              dup6\n                /* \"#utility.yul\":5133:5155   */\n              add\n                /* \"#utility.yul\":5112:5165   */\n              tag_151\n              jump\t// in\n            tag_232:\n                /* \"#utility.yul\":5102:5165   */\n              swap2\n              pop\n                /* \"#utility.yul\":5058:5175   */\n              pop\n                /* \"#utility.yul\":4853:5182   */\n              swap3\n              swap2\n              pop\n              pop\n              jump\t// out\n                /* \"#utility.yul\":5188:5662   */\n            tag_60:\n                /* \"#utility.yul\":5256:5262   */\n              0x00\n                /* \"#utility.yul\":5264:5270   */\n              dup1\n                /* \"#utility.yul\":5313:5315   */\n              0x40\n                /* \"#utility.yul\":5301:5310   */\n              dup4\n                /* \"#utility.yul\":5292:5299   */\n              dup6\n                /* \"#utility.yul\":5288:5311   */\n              sub\n                /* \"#utility.yul\":5284:5316   */\n              slt\n                /* \"#utility.yul\":5281:5400   */\n              iszero\n              tag_234\n              jumpi\n                /* \"#utility.yul\":5319:5398   */\n              tag_235\n              tag_146\n              jump\t// in\n            tag_235:\n                /* \"#utility.yul\":5281:5400   */\n            tag_234:\n                /* \"#utility.yul\":5439:5440   */\n              0x00\n                /* \"#utility.yul\":5464:5517   */\n              tag_236\n                /* \"#utility.yul\":5509:5516   */\n              dup6\n                /* \"#utility.yul\":5500:5506   */\n              dup3\n                /* \"#utility.yul\":5489:5498   */\n              dup7\n                /* \"#utility.yul\":5485:5507   */\n              add\n                /* \"#utility.yul\":5464:5517   */\n              tag_151\n              jump\t// in\n            tag_236:\n                /* \"#utility.yul\":5454:5517   */\n              swap3\n              pop\n                /* \"#utility.yul\":5410:5527   */\n              pop\n                /* \"#utility.yul\":5566:5568   */\n              0x20\n                /* \"#utility.yul\":5592:5645   */\n              tag_237\n                /* \"#utility.yul\":5637:5644   */\n              dup6\n                /* \"#utility.yul\":5628:5634   */\n              dup3\n                /* \"#utility.yul\":5617:5626   */\n              dup7\n                /* \"#utility.yul\":5613:5635   */\n              add\n                /* \"#utility.yul\":5592:5645   */\n              tag_151\n              jump\t// in\n            tag_237:\n                /* \"#utility.yul\":5582:5645   */\n              swap2\n              pop\n                /* \"#utility.yul\":5537:5655   */\n              pop\n                /* \"#utility.yul\":5188:5662   */\n              swap3\n              pop\n              swap3\n              swap1\n              pop\n              jump\t// out\n                /* \"#utility.yul\":5668:5848   */\n            tag_160:\n                /* \"#utility.yul\":5716:5793   */\n              0x4e487b7100000000000000000000000000000000000000000000000000000000\n                /* \"#utility.yul\":5713:5714   */\n              0x00\n                /* \"#utility.yul\":5706:5794   */\n              mstore\n                /* \"#utility.yul\":5813:5817   */\n              0x22\n                /* \"#utility.yul\":5810:5811   */\n              0x04\n                /* \"#utility.yul\":5803:5818   */\n              mstore\n                /* \"#utility.yul\":5837:5841   */\n              0x24\n                /* \"#utility.yul\":5834:5835   */\n              0x00\n                /* \"#utility.yul\":5827:5842   */\n              revert\n                /* \"#utility.yul\":5854:6174   */\n            tag_66:\n                /* \"#utility.yul\":5898:5904   */\n              0x00\n                /* \"#utility.yul\":5935:5936   */\n              0x02\n                /* \"#utility.yul\":5929:5933   */\n              dup3\n                /* \"#utility.yul\":5925:5937   */\n              div\n                /* \"#utility.yul\":5915:5937   */\n              swap1\n              pop\n                /* \"#utility.yul\":5982:5983   */\n              0x01\n                /* \"#utility.yul\":5976:5980   */\n              dup3\n                /* \"#utility.yul\":5972:5984   */\n              and\n                /* \"#utility.yul\":6003:6021   */\n              dup1\n                /* \"#utility.yul\":5993:6074   */\n              tag_240\n              jumpi\n                /* \"#utility.yul\":6059:6063   */\n              0x7f\n                /* \"#utility.yul\":6051:6057   */\n              dup3\n                /* \"#utility.yul\":6047:6064   */\n              and\n                /* \"#utility.yul\":6037:6064   */\n              swap2\n              pop\n                /* \"#utility.yul\":5993:6074   */\n            tag_240:\n                /* \"#utility.yul\":6121:6123   */\n              0x20\n                /* \"#utility.yul\":6113:6119   */\n              dup3\n                /* \"#utility.yul\":6110:6124   */\n              lt\n                /* \"#utility.yul\":6090:6108   */\n              dup2\n                /* \"#utility.yul\":6087:6125   */\n              sub\n                /* \"#utility.yul\":6084:6168   */\n              tag_241\n              jumpi\n                /* \"#utility.yul\":6140:6158   */\n              tag_242\n              tag_160\n              jump\t// in\n            tag_242:\n                /* \"#utility.yul\":6084:6168   */\n            tag_241:\n                /* \"#utility.yul\":5905:6174   */\n              pop\n                /* \"#utility.yul\":5854:6174   */\n              swap2\n              swap1\n              pop\n              jump\t// out\n                /* \"#utility.yul\":6180:6360   */\n            tag_161:\n                /* \"#utility.yul\":6228:6305   */\n              0x4e487b7100000000000000000000000000000000000000000000000000000000\n                /* \"#utility.yul\":6225:6226   */\n              0x00\n                /* \"#utility.yul\":6218:6306   */\n              mstore\n                /* \"#utility.yul\":6325:6329   */\n              0x11\n                /* \"#utility.yul\":6322:6323   */\n              0x04\n                /* \"#utility.yul\":6315:6330   */\n              mstore\n                /* \"#utility.yul\":6349:6353   */\n              0x24\n                /* \"#utility.yul\":6346:6347   */\n              0x00\n                /* \"#utility.yul\":6339:6354   */\n              revert\n                /* \"#utility.yul\":6366:6557   */\n            tag_109:\n                /* \"#utility.yul\":6406:6409   */\n              0x00\n                /* \"#utility.yul\":6425:6445   */\n              tag_245\n                /* \"#utility.yul\":6443:6444   */\n              dup3\n                /* \"#utility.yul\":6425:6445   */\n              tag_152\n              jump\t// in\n            tag_245:\n                /* \"#utility.yul\":6420:6445   */\n              swap2\n              pop\n                /* \"#utility.yul\":6459:6479   */\n              tag_246\n                /* \"#utility.yul\":6477:6478   */\n              dup4\n                /* \"#utility.yul\":6459:6479   */\n              tag_152\n              jump\t// in\n            tag_246:\n                /* \"#utility.yul\":6454:6479   */\n              swap3\n              pop\n                /* \"#utility.yul\":6502:6503   */\n              dup3\n                /* \"#utility.yul\":6499:6500   */\n              dup3\n                /* \"#utility.yul\":6495:6504   */\n              add\n                /* \"#utility.yul\":6488:6504   */\n              swap1\n              pop\n                /* \"#utility.yul\":6523:6526   */\n              dup1\n                /* \"#utility.yul\":6520:6521   */\n              dup3\n                /* \"#utility.yul\":6517:6527   */\n              gt\n                /* \"#utility.yul\":6514:6550   */\n              iszero\n              tag_247\n              jumpi\n                /* \"#utility.yul\":6530:6548   */\n              tag_248\n              tag_161\n              jump\t// in\n            tag_248:\n                /* \"#utility.yul\":6514:6550   */\n            tag_247:\n                /* \"#utility.yul\":6366:6557   */\n              swap3\n              swap2\n              pop\n              pop\n              jump\t// out\n                /* \"#utility.yul\":6563:6740   */\n            tag_162:\n                /* \"#utility.yul\":6703:6732   */\n              0x536166654d6174683a206164646974696f6e206f766572666c6f770000000000\n                /* \"#utility.yul\":6699:6700   */\n              0x00\n                /* \"#utility.yul\":6691:6697   */\n              dup3\n                /* \"#utility.yul\":6687:6701   */\n              add\n                /* \"#utility.yul\":6680:6733   */\n              mstore\n                /* \"#utility.yul\":6563:6740   */\n              pop\n              jump\t// out\n                /* \"#utility.yul\":6746:7112   */\n            tag_163:\n                /* \"#utility.yul\":6888:6891   */\n              0x00\n                /* \"#utility.yul\":6909:6976   */\n              tag_251\n                /* \"#utility.yul\":6973:6975   */\n              0x1b\n                /* \"#utility.yul\":6968:6971   */\n              dup4\n                /* \"#utility.yul\":6909:6976   */\n              tag_141\n              jump\t// in\n            tag_251:\n                /* \"#utility.yul\":6902:6976   */\n              swap2\n              pop\n                /* \"#utility.yul\":6985:7078   */\n              tag_252\n                /* \"#utility.yul\":7074:7077   */\n              dup3\n                /* \"#utility.yul\":6985:7078   */\n              tag_162\n              jump\t// in\n            tag_252:\n                /* \"#utility.yul\":7103:7105   */\n              0x20\n                /* \"#utility.yul\":7098:7101   */\n              dup3\n                /* \"#utility.yul\":7094:7106   */\n              add\n                /* \"#utility.yul\":7087:7106   */\n              swap1\n              pop\n                /* \"#utility.yul\":6746:7112   */\n              swap2\n              swap1\n              pop\n              jump\t// out\n                /* \"#utility.yul\":7118:7537   */\n            tag_112:\n                /* \"#utility.yul\":7284:7288   */\n              0x00\n                /* \"#utility.yul\":7322:7324   */\n              0x20\n                /* \"#utility.yul\":7311:7320   */\n              dup3\n                /* \"#utility.yul\":7307:7325   */\n              add\n                /* \"#utility.yul\":7299:7325   */\n              swap1\n              pop\n                /* \"#utility.yul\":7371:7380   */\n              dup2\n                /* \"#utility.yul\":7365:7369   */\n              dup2\n                /* \"#utility.yul\":7361:7381   */\n              sub\n                /* \"#utility.yul\":7357:7358   */\n              0x00\n                /* \"#utility.yul\":7346:7355   */\n              dup4\n                /* \"#utility.yul\":7342:7359   */\n              add\n                /* \"#utility.yul\":7335:7382   */\n              mstore\n                /* \"#utility.yul\":7399:7530   */\n              tag_254\n                /* \"#utility.yul\":7525:7529   */\n              dup2\n                /* \"#utility.yul\":7399:7530   */\n              tag_163\n              jump\t// in\n            tag_254:\n                /* \"#utility.yul\":7391:7530   */\n              swap1\n              pop\n                /* \"#utility.yul\":7118:7537   */\n              swap2\n              swap1\n              pop\n              jump\t// out\n                /* \"#utility.yul\":7543:7766   */\n            tag_164:\n                /* \"#utility.yul\":7683:7717   */\n              0x45524332303a20617070726f76652066726f6d20746865207a65726f20616464\n                /* \"#utility.yul\":7679:7680   */\n              0x00\n                /* \"#utility.yul\":7671:7677   */\n              dup3\n                /* \"#utility.yul\":7667:7681   */\n              add\n                /* \"#utility.yul\":7660:7718   */\n              mstore\n                /* \"#utility.yul\":7752:7758   */\n              0x7265737300000000000000000000000000000000000000000000000000000000\n                /* \"#utility.yul\":7747:7749   */\n              0x20\n                /* \"#utility.yul\":7739:7745   */\n              dup3\n                /* \"#utility.yul\":7735:7750   */\n              add\n                /* \"#utility.yul\":7728:7759   */\n              mstore\n                /* \"#utility.yul\":7543:7766   */\n              pop\n              jump\t// out\n                /* \"#utility.yul\":7772:8138   */\n            tag_165:\n                /* \"#utility.yul\":7914:7917   */\n              0x00\n                /* \"#utility.yul\":7935:8002   */\n              tag_257\n                /* \"#utility.yul\":7999:8001   */\n              0x24\n                /* \"#utility.yul\":7994:7997   */\n              dup4\n                /* \"#utility.yul\":7935:8002   */\n              tag_141\n              jump\t// in\n            tag_257:\n                /* \"#utility.yul\":7928:8002   */\n              swap2\n              pop\n                /* \"#utility.yul\":8011:8104   */\n              tag_258\n                /* \"#utility.yul\":8100:8103   */\n              dup3\n                /* \"#utility.yul\":8011:8104   */\n              tag_164\n              jump\t// in\n            tag_258:\n                /* \"#utility.yul\":8129:8131   */\n              0x40\n                /* \"#utility.yul\":8124:8127   */\n              dup3\n                /* \"#utility.yul\":8120:8132   */\n              add\n                /* \"#utility.yul\":8113:8132   */\n              swap1\n              pop\n                /* \"#utility.yul\":7772:8138   */\n              swap2\n              swap1\n              pop\n              jump\t// out\n                /* \"#utility.yul\":8144:8563   */\n            tag_117:\n                /* \"#utility.yul\":8310:8314   */\n              0x00\n                /* \"#utility.yul\":8348:8350   */\n              0x20\n                /* \"#utility.yul\":8337:8346   */\n              dup3\n                /* \"#utility.yul\":8333:8351   */\n              add\n                /* \"#utility.yul\":8325:8351   */\n              swap1\n              pop\n                /* \"#utility.yul\":8397:8406   */\n              dup2\n                /* \"#utility.yul\":8391:8395   */\n              dup2\n                /* \"#utility.yul\":8387:8407   */\n              sub\n                /* \"#utility.yul\":8383:8384   */\n              0x00\n                /* \"#utility.yul\":8372:8381   */\n              dup4\n                /* \"#utility.yul\":8368:8385   */\n              add\n                /* \"#utility.yul\":8361:8408   */\n              mstore\n                /* \"#utility.yul\":8425:8556   */\n              tag_260\n                /* \"#utility.yul\":8551:8555   */\n              dup2\n                /* \"#utility.yul\":8425:8556   */\n              tag_165\n              jump\t// in\n            tag_260:\n                /* \"#utility.yul\":8417:8556   */\n              swap1\n              pop\n                /* \"#utility.yul\":8144:8563   */\n              swap2\n              swap1\n              pop\n              jump\t// out\n                /* \"#utility.yul\":8569:8790   */\n            tag_166:\n                /* \"#utility.yul\":8709:8743   */\n              0x45524332303a20617070726f766520746f20746865207a65726f206164647265\n                /* \"#utility.yul\":8705:8706   */\n              0x00\n                /* \"#utility.yul\":8697:8703   */\n              dup3\n                /* \"#utility.yul\":8693:8707   */\n              add\n                /* \"#utility.yul\":8686:8744   */\n              mstore\n                /* \"#utility.yul\":8778:8782   */\n              0x7373000000000000000000000000000000000000000000000000000000000000\n                /* \"#utility.yul\":8773:8775   */\n              0x20\n                /* \"#utility.yul\":8765:8771   */\n              dup3\n                /* \"#utility.yul\":8761:8776   */\n              add\n                /* \"#utility.yul\":8754:8783   */\n              mstore\n                /* \"#utility.yul\":8569:8790   */\n              pop\n              jump\t// out\n                /* \"#utility.yul\":8796:9162   */\n            tag_167:\n                /* \"#utility.yul\":8938:8941   */\n              0x00\n                /* \"#utility.yul\":8959:9026   */\n              tag_263\n                /* \"#utility.yul\":9023:9025   */\n              0x22\n                /* \"#utility.yul\":9018:9021   */\n              dup4\n                /* \"#utility.yul\":8959:9026   */\n              tag_141\n              jump\t// in\n            tag_263:\n                /* \"#utility.yul\":8952:9026   */\n              swap2\n              pop\n                /* \"#utility.yul\":9035:9128   */\n              tag_264\n                /* \"#utility.yul\":9124:9127   */\n              dup3\n                /* \"#utility.yul\":9035:9128   */\n              tag_166\n              jump\t// in\n            tag_264:\n                /* \"#utility.yul\":9153:9155   */\n              0x40\n                /* \"#utility.yul\":9148:9151   */\n              dup3\n                /* \"#utility.yul\":9144:9156   */\n              add\n                /* \"#utility.yul\":9137:9156   */\n              swap1\n              pop\n                /* \"#utility.yul\":8796:9162   */\n              swap2\n              swap1\n              pop\n              jump\t// out\n                /* \"#utility.yul\":9168:9587   */\n            tag_120:\n                /* \"#utility.yul\":9334:9338   */\n              0x00\n                /* \"#utility.yul\":9372:9374   */\n              0x20\n                /* \"#utility.yul\":9361:9370   */\n              dup3\n                /* \"#utility.yul\":9357:9375   */\n              add\n                /* \"#utility.yul\":9349:9375   */\n              swap1\n              pop\n                /* \"#utility.yul\":9421:9430   */\n              dup2\n                /* \"#utility.yul\":9415:9419   */\n              dup2\n                /* \"#utility.yul\":9411:9431   */\n              sub\n                /* \"#utility.yul\":9407:9408   */\n              0x00\n                /* \"#utility.yul\":9396:9405   */\n              dup4\n                /* \"#utility.yul\":9392:9409   */\n              add\n                /* \"#utility.yul\":9385:9432   */\n              mstore\n                /* \"#utility.yul\":9449:9580   */\n              tag_266\n                /* \"#utility.yul\":9575:9579   */\n              dup2\n                /* \"#utility.yul\":9449:9580   */\n              tag_167\n              jump\t// in\n            tag_266:\n                /* \"#utility.yul\":9441:9580   */\n              swap1\n              pop\n                /* \"#utility.yul\":9168:9587   */\n              swap2\n              swap1\n              pop\n              jump\t// out\n                /* \"#utility.yul\":9593:9817   */\n            tag_168:\n                /* \"#utility.yul\":9733:9767   */\n              0x45524332303a207472616e736665722066726f6d20746865207a65726f206164\n                /* \"#utility.yul\":9729:9730   */\n              0x00\n                /* \"#utility.yul\":9721:9727   */\n              dup3\n                /* \"#utility.yul\":9717:9731   */\n              add\n                /* \"#utility.yul\":9710:9768   */\n              mstore\n                /* \"#utility.yul\":9802:9809   */\n              0x6472657373000000000000000000000000000000000000000000000000000000\n                /* \"#utility.yul\":9797:9799   */\n              0x20\n                /* \"#utility.yul\":9789:9795   */\n              dup3\n                /* \"#utility.yul\":9785:9800   */\n              add\n                /* \"#utility.yul\":9778:9810   */\n              mstore\n                /* \"#utility.yul\":9593:9817   */\n              pop\n              jump\t// out\n                /* \"#utility.yul\":9823:10189   */\n            tag_169:\n                /* \"#utility.yul\":9965:9968   */\n              0x00\n                /* \"#utility.yul\":9986:10053   */\n              tag_269\n                /* \"#utility.yul\":10050:10052   */\n              0x25\n                /* \"#utility.yul\":10045:10048   */\n              dup4\n                /* \"#utility.yul\":9986:10053   */\n              tag_141\n              jump\t// in\n            tag_269:\n                /* \"#utility.yul\":9979:10053   */\n              swap2\n              pop\n                /* \"#utility.yul\":10062:10155   */\n              tag_270\n                /* \"#utility.yul\":10151:10154   */\n              dup3\n                /* \"#utility.yul\":10062:10155   */\n              tag_168\n              jump\t// in\n            tag_270:\n                /* \"#utility.yul\":10180:10182   */\n              0x40\n                /* \"#utility.yul\":10175:10178   */\n              dup3\n                /* \"#utility.yul\":10171:10183   */\n              add\n                /* \"#utility.yul\":10164:10183   */\n              swap1\n              pop\n                /* \"#utility.yul\":9823:10189   */\n              swap2\n              swap1\n              pop\n              jump\t// out\n                /* \"#utility.yul\":10195:10614   */\n            tag_125:\n                /* \"#utility.yul\":10361:10365   */\n              0x00\n                /* \"#utility.yul\":10399:10401   */\n              0x20\n                /* \"#utility.yul\":10388:10397   */\n              dup3\n                /* \"#utility.yul\":10384:10402   */\n              add\n                /* \"#utility.yul\":10376:10402   */\n              swap1\n              pop\n                /* \"#utility.yul\":10448:10457   */\n              dup2\n                /* \"#utility.yul\":10442:10446   */\n              dup2\n                /* \"#utility.yul\":10438:10458   */\n              sub\n                /* \"#utility.yul\":10434:10435   */\n              0x00\n                /* \"#utility.yul\":10423:10432   */\n              dup4\n                /* \"#utility.yul\":10419:10436   */\n              add\n                /* \"#utility.yul\":10412:10459   */\n              mstore\n                /* \"#utility.yul\":10476:10607   */\n              tag_272\n                /* \"#utility.yul\":10602:10606   */\n              dup2\n                /* \"#utility.yul\":10476:10607   */\n              tag_169\n              jump\t// in\n            tag_272:\n                /* \"#utility.yul\":10468:10607   */\n              swap1\n              pop\n                /* \"#utility.yul\":10195:10614   */\n              swap2\n              swap1\n              pop\n              jump\t// out\n                /* \"#utility.yul\":10620:10842   */\n            tag_170:\n                /* \"#utility.yul\":10760:10794   */\n              0x45524332303a207472616e7366657220746f20746865207a65726f2061646472\n                /* \"#utility.yul\":10756:10757   */\n              0x00\n                /* \"#utility.yul\":10748:10754   */\n              dup3\n                /* \"#utility.yul\":10744:10758   */\n              add\n                /* \"#utility.yul\":10737:10795   */\n              mstore\n                /* \"#utility.yul\":10829:10834   */\n              0x6573730000000000000000000000000000000000000000000000000000000000\n                /* \"#utility.yul\":10824:10826   */\n              0x20\n                /* \"#utility.yul\":10816:10822   */\n              dup3\n                /* \"#utility.yul\":10812:10827   */\n              add\n                /* \"#utility.yul\":10805:10835   */\n              mstore\n                /* \"#utility.yul\":10620:10842   */\n              pop\n              jump\t// out\n                /* \"#utility.yul\":10848:11214   */\n            tag_171:\n                /* \"#utility.yul\":10990:10993   */\n              0x00\n                /* \"#utility.yul\":11011:11078   */\n              tag_275\n                /* \"#utility.yul\":11075:11077   */\n              0x23\n                /* \"#utility.yul\":11070:11073   */\n              dup4\n                /* \"#utility.yul\":11011:11078   */\n              tag_141\n              jump\t// in\n            tag_275:\n                /* \"#utility.yul\":11004:11078   */\n              swap2\n              pop\n                /* \"#utility.yul\":11087:11180   */\n              tag_276\n                /* \"#utility.yul\":11176:11179   */\n              dup3\n                /* \"#utility.yul\":11087:11180   */\n              tag_170\n              jump\t// in\n            tag_276:\n                /* \"#utility.yul\":11205:11207   */\n              0x40\n                /* \"#utility.yul\":11200:11203   */\n              dup3\n                /* \"#utility.yul\":11196:11208   */\n              add\n                /* \"#utility.yul\":11189:11208   */\n              swap1\n              pop\n                /* \"#utility.yul\":10848:11214   */\n              swap2\n              swap1\n              pop\n              jump\t// out\n                /* \"#utility.yul\":11220:11639   */\n            tag_128:\n                /* \"#utility.yul\":11386:11390   */\n              0x00\n                /* \"#utility.yul\":11424:11426   */\n              0x20\n                /* \"#utility.yul\":11413:11422   */\n              dup3\n                /* \"#utility.yul\":11409:11427   */\n              add\n                /* \"#utility.yul\":11401:11427   */\n              swap1\n              pop\n                /* \"#utility.yul\":11473:11482   */\n              dup2\n                /* \"#utility.yul\":11467:11471   */\n              dup2\n                /* \"#utility.yul\":11463:11483   */\n              sub\n                /* \"#utility.yul\":11459:11460   */\n              0x00\n                /* \"#utility.yul\":11448:11457   */\n              dup4\n                /* \"#utility.yul\":11444:11461   */\n              add\n                /* \"#utility.yul\":11437:11484   */\n              mstore\n                /* \"#utility.yul\":11501:11632   */\n              tag_278\n                /* \"#utility.yul\":11627:11631   */\n              dup2\n                /* \"#utility.yul\":11501:11632   */\n              tag_171\n              jump\t// in\n            tag_278:\n                /* \"#utility.yul\":11493:11632   */\n              swap1\n              pop\n                /* \"#utility.yul\":11220:11639   */\n              swap2\n              swap1\n              pop\n              jump\t// out\n                /* \"#utility.yul\":11645:11839   */\n            tag_138:\n                /* \"#utility.yul\":11685:11689   */\n              0x00\n                /* \"#utility.yul\":11705:11725   */\n              tag_280\n                /* \"#utility.yul\":11723:11724   */\n              dup3\n                /* \"#utility.yul\":11705:11725   */\n              tag_152\n              jump\t// in\n            tag_280:\n                /* \"#utility.yul\":11700:11725   */\n              swap2\n              pop\n                /* \"#utility.yul\":11739:11759   */\n              tag_281\n                /* \"#utility.yul\":11757:11758   */\n              dup4\n                /* \"#utility.yul\":11739:11759   */\n              tag_152\n              jump\t// in\n            tag_281:\n                /* \"#utility.yul\":11734:11759   */\n              swap3\n              pop\n                /* \"#utility.yul\":11783:11784   */\n              dup3\n                /* \"#utility.yul\":11780:11781   */\n              dup3\n                /* \"#utility.yul\":11776:11785   */\n              sub\n                /* \"#utility.yul\":11768:11785   */\n              swap1\n              pop\n                /* \"#utility.yul\":11807:11808   */\n              dup2\n                /* \"#utility.yul\":11801:11805   */\n              dup2\n                /* \"#utility.yul\":11798:11809   */\n              gt\n                /* \"#utility.yul\":11795:11832   */\n              iszero\n              tag_282\n              jumpi\n                /* \"#utility.yul\":11812:11830   */\n              tag_283\n              tag_161\n              jump\t// in\n            tag_283:\n                /* \"#utility.yul\":11795:11832   */\n            tag_282:\n                /* \"#utility.yul\":11645:11839   */\n              swap3\n              swap2\n              pop\n              pop\n              jump\t// out\n            stop\n            data_4107e8a8b9e94bf8ff83080ddec1c0bffe897ebc2241b89d44f66b3d274088b6 45524332303a207472616e7366657220616d6f756e7420657863656564732062616c616e6365\n            data_974d1b4421da69cc60b481194f0dad36a5bb4e23da810da7a7fb30cdba178330 45524332303a207472616e7366657220616d6f756e74206578636565647320616c6c6f77616e6365\n            data_f8b476f7d28209d77d4a4ac1fe36b9f8259aa1bb6bddfa6e89de7e51615cf8a8 45524332303a2064656372656173656420616c6c6f77616e63652062656c6f77207a65726f\n\n            auxdata: 0xa26469706673582212200eaed8fe41610e5747f5ed7bf7f20b6ccd4c846fcb3290caa6f7434a38ed366364736f6c63430008120033\n        }\n    }\n\n    auxdata: 0xa2646970667358221220db0b54691c2705e4caa6d0314dd38c516542e852824ce6cb9e81f7e668b6f36064736f6c63430008120033\n}\n",
				"bytecode": {
					"linkReferences": {},
					"object": "608060405234801561001057600080fd5b50604051612587380380612587833981810160405281019061003291906100db565b806000806101000a81548173ffffffffffffffffffffffffffffffffffffffff021916908373ffffffffffffffffffffffffffffffffffffffff16021790555050610108565b600080fd5b600073ffffffffffffffffffffffffffffffffffffffff82169050919050565b60006100a88261007d565b9050919050565b6100b88161009d565b81146100c357600080fd5b50565b6000815190506100d5816100af565b92915050565b6000602082840312156100f1576100f0610078565b5b60006100ff848285016100c6565b91505092915050565b612470806101176000396000f3fe60806040523480156200001157600080fd5b5060043610620000525760003560e01c80636e30199f1462000057578063865e6153146200008d5780638da5cb5b14620000c3578063c42bd05a14620000e5575b600080fd5b6200007560048036038101906200006f919062000411565b62000107565b604051620000849190620004a7565b60405180910390f35b620000ab6004803603810190620000a591906200056e565b62000150565b604051620000ba9190620004a7565b60405180910390f35b620000cd62000243565b604051620000dc9190620004a7565b60405180910390f35b620000ef62000267565b604051620000fe9190620004a7565b60405180910390f35b6001818051602081018201805184825260208301602085012081835280955050505050506000915054906101000a900473ffffffffffffffffffffffffffffffffffffffff1681565b600080868686868660405162000166906200028d565b62000176959493929190620006df565b604051809103906000f08015801562000193573d6000803e3d6000fd5b50905080600260006101000a81548173ffffffffffffffffffffffffffffffffffffffff021916908373ffffffffffffffffffffffffffffffffffffffff16021790555080600188604051620001ea91906200078c565b908152602001604051809103902060006101000a81548173ffffffffffffffffffffffffffffffffffffffff021916908373ffffffffffffffffffffffffffffffffffffffff1602179055508091505095945050505050565b60008054906101000a900473ffffffffffffffffffffffffffffffffffffffff1681565b600260009054906101000a900473ffffffffffffffffffffffffffffffffffffffff1681565b611c9580620007a683390190565b6000604051905090565b600080fd5b600080fd5b600080fd5b600080fd5b6000601f19601f8301169050919050565b7f4e487b7100000000000000000000000000000000000000000000000000000000600052604160045260246000fd5b6200030482620002b9565b810181811067ffffffffffffffff82111715620003265762000325620002ca565b5b80604052505050565b60006200033b6200029b565b9050620003498282620002f9565b919050565b600067ffffffffffffffff8211156200036c576200036b620002ca565b5b6200037782620002b9565b9050602081019050919050565b82818337600083830152505050565b6000620003aa620003a4846200034e565b6200032f565b905082815260208101848484011115620003c957620003c8620002b4565b5b620003d684828562000384565b509392505050565b600082601f830112620003f657620003f5620002af565b5b81356200040884826020860162000393565b91505092915050565b6000602082840312156200042a5762000429620002a5565b5b600082013567ffffffffffffffff8111156200044b576200044a620002aa565b5b6200045984828501620003de565b91505092915050565b600073ffffffffffffffffffffffffffffffffffffffff82169050919050565b60006200048f8262000462565b9050919050565b620004a18162000482565b82525050565b6000602082019050620004be600083018462000496565b92915050565b600060ff82169050919050565b620004dc81620004c4565b8114620004e857600080fd5b50565b600081359050620004fc81620004d1565b92915050565b6200050d8162000482565b81146200051957600080fd5b50565b6000813590506200052d8162000502565b92915050565b6000819050919050565b620005488162000533565b81146200055457600080fd5b50565b60008135905062000568816200053d565b92915050565b600080600080600060a086880312156200058d576200058c620002a5565b5b600086013567ffffffffffffffff811115620005ae57620005ad620002aa565b5b620005bc88828901620003de565b955050602086013567ffffffffffffffff811115620005e057620005df620002aa565b5b620005ee88828901620003de565b94505060406200060188828901620004eb565b935050606062000614888289016200051c565b9250506080620006278882890162000557565b9150509295509295909350565b600081519050919050565b600082825260208201905092915050565b60005b838110156200067057808201518184015260208101905062000653565b60008484015250505050565b6000620006898262000634565b6200069581856200063f565b9350620006a781856020860162000650565b620006b281620002b9565b840191505092915050565b620006c881620004c4565b82525050565b620006d98162000533565b82525050565b600060a0820190508181036000830152620006fb81886200067c565b905081810360208301526200071181876200067c565b9050620007226040830186620006bd565b62000731606083018562000496565b620007406080830184620006ce565b9695505050505050565b600081905092915050565b6000620007628262000634565b6200076e81856200074a565b93506200078081856020860162000650565b80840191505092915050565b60006200079a828462000755565b91508190509291505056fe60806040523480156200001157600080fd5b5060405162001c9538038062001c9583398181016040528101906200003791906200042a565b846003908162000048919062000731565b5083600490816200005a919062000731565b5082600560006101000a81548160ff021916908360ff1602179055506200008a600083836200015160201b60201c565b620000a6816002546200015660201b6200071f1790919060201c565b60028190555062000104816000808573ffffffffffffffffffffffffffffffffffffffff1673ffffffffffffffffffffffffffffffffffffffff168152602001908152602001600020546200015660201b6200071f1790919060201c565b6000808473ffffffffffffffffffffffffffffffffffffffff1673ffffffffffffffffffffffffffffffffffffffff16815260200190815260200160002081905550505050505062000905565b505050565b600080828462000167919062000847565b905083811015620001af576040517f08c379a0000000000000000000000000000000000000000000000000000000008152600401620001a690620008e3565b60405180910390fd5b8091505092915050565b6000604051905090565b600080fd5b600080fd5b600080fd5b600080fd5b6000601f19601f8301169050919050565b7f4e487b7100000000000000000000000000000000000000000000000000000000600052604160045260246000fd5b6200022282620001d7565b810181811067ffffffffffffffff82111715620002445762000243620001e8565b5b80604052505050565b600062000259620001b9565b905062000267828262000217565b919050565b600067ffffffffffffffff8211156200028a5762000289620001e8565b5b6200029582620001d7565b9050602081019050919050565b60005b83811015620002c2578082015181840152602081019050620002a5565b60008484015250505050565b6000620002e5620002df846200026c565b6200024d565b905082815260208101848484011115620003045762000303620001d2565b5b62000311848285620002a2565b509392505050565b600082601f830112620003315762000330620001cd565b5b815162000343848260208601620002ce565b91505092915050565b600060ff82169050919050565b62000364816200034c565b81146200037057600080fd5b50565b600081519050620003848162000359565b92915050565b600073ffffffffffffffffffffffffffffffffffffffff82169050919050565b6000620003b7826200038a565b9050919050565b620003c981620003aa565b8114620003d557600080fd5b50565b600081519050620003e981620003be565b92915050565b6000819050919050565b6200040481620003ef565b81146200041057600080fd5b50565b6000815190506200042481620003f9565b92915050565b600080600080600060a08688031215620004495762000448620001c3565b5b600086015167ffffffffffffffff8111156200046a5762000469620001c8565b5b620004788882890162000319565b955050602086015167ffffffffffffffff8111156200049c576200049b620001c8565b5b620004aa8882890162000319565b9450506040620004bd8882890162000373565b9350506060620004d088828901620003d8565b9250506080620004e38882890162000413565b9150509295509295909350565b600081519050919050565b7f4e487b7100000000000000000000000000000000000000000000000000000000600052602260045260246000fd5b600060028204905060018216806200054357607f821691505b602082108103620005595762000558620004fb565b5b50919050565b60008190508160005260206000209050919050565b60006020601f8301049050919050565b600082821b905092915050565b600060088302620005c37fffffffffffffffffffffffffffffffffffffffffffffffffffffffffffffffff8262000584565b620005cf868362000584565b95508019841693508086168417925050509392505050565b6000819050919050565b6000620006126200060c6200060684620003ef565b620005e7565b620003ef565b9050919050565b6000819050919050565b6200062e83620005f1565b620006466200063d8262000619565b84845462000591565b825550505050565b600090565b6200065d6200064e565b6200066a81848462000623565b505050565b5b8181101562000692576200068660008262000653565b60018101905062000670565b5050565b601f821115620006e157620006ab816200055f565b620006b68462000574565b81016020851015620006c6578190505b620006de620006d58562000574565b8301826200066f565b50505b505050565b600082821c905092915050565b60006200070660001984600802620006e6565b1980831691505092915050565b6000620007218383620006f3565b9150826002028217905092915050565b6200073c82620004f0565b67ffffffffffffffff811115620007585762000757620001e8565b5b6200076482546200052a565b6200077182828562000696565b600060209050601f831160018114620007a9576000841562000794578287015190505b620007a0858262000713565b86555062000810565b601f198416620007b9866200055f565b60005b82811015620007e357848901518255600182019150602085019450602081019050620007bc565b86831015620008035784890151620007ff601f891682620006f3565b8355505b6001600288020188555050505b505050505050565b7f4e487b7100000000000000000000000000000000000000000000000000000000600052601160045260246000fd5b60006200085482620003ef565b91506200086183620003ef565b92508282019050808211156200087c576200087b62000818565b5b92915050565b600082825260208201905092915050565b7f536166654d6174683a206164646974696f6e206f766572666c6f770000000000600082015250565b6000620008cb601b8362000882565b9150620008d88262000893565b602082019050919050565b60006020820190508181036000830152620008fe81620008bc565b9050919050565b61138080620009156000396000f3fe608060405234801561001057600080fd5b50600436106100a95760003560e01c80633950935111610071578063395093511461016857806370a082311461019857806395d89b41146101c8578063a457c2d7146101e6578063a9059cbb14610216578063dd62ed3e14610246576100a9565b806306fdde03146100ae578063095ea7b3146100cc57806318160ddd146100fc57806323b872dd1461011a578063313ce5671461014a575b600080fd5b6100b6610276565b6040516100c39190610cda565b60405180910390f35b6100e660048036038101906100e19190610d95565b610308565b6040516100f39190610df0565b60405180910390f35b610104610326565b6040516101119190610e1a565b60405180910390f35b610134600480360381019061012f9190610e35565b610330565b6040516101419190610df0565b60405180910390f35b610152610409565b60405161015f9190610ea4565b60405180910390f35b610182600480360381019061017d9190610d95565b610420565b60405161018f9190610df0565b60405180910390f35b6101b260048036038101906101ad9190610ebf565b6104d3565b6040516101bf9190610e1a565b60405180910390f35b6101d061051b565b6040516101dd9190610cda565b60405180910390f35b61020060048036038101906101fb9190610d95565b6105ad565b60405161020d9190610df0565b60405180910390f35b610230600480360381019061022b9190610d95565b61067a565b60405161023d9190610df0565b60405180910390f35b610260600480360381019061025b9190610eec565b610698565b60405161026d9190610e1a565b60405180910390f35b60606003805461028590610f5b565b80601f01602080910402602001604051908101604052809291908181526020018280546102b190610f5b565b80156102fe5780601f106102d3576101008083540402835291602001916102fe565b820191906000526020600020905b8154815290600101906020018083116102e157829003601f168201915b5050505050905090565b600061031c61031561077d565b8484610785565b6001905092915050565b6000600254905090565b600061033d84848461094e565b6103fe8461034961077d565b6103f9856040518060600160405280602881526020016112fe60289139600160008b73ffffffffffffffffffffffffffffffffffffffff1673ffffffffffffffffffffffffffffffffffffffff16815260200190815260200160002060006103af61077d565b73ffffffffffffffffffffffffffffffffffffffff1673ffffffffffffffffffffffffffffffffffffffff16815260200190815260200160002054610be19092919063ffffffff16565b610785565b600190509392505050565b6000600560009054906101000a900460ff16905090565b60006104c961042d61077d565b846104c4856001600061043e61077d565b73ffffffffffffffffffffffffffffffffffffffff1673ffffffffffffffffffffffffffffffffffffffff16815260200190815260200160002060008973ffffffffffffffffffffffffffffffffffffffff1673ffffffffffffffffffffffffffffffffffffffff1681526020019081526020016000205461071f90919063ffffffff16565b610785565b6001905092915050565b60008060008373ffffffffffffffffffffffffffffffffffffffff1673ffffffffffffffffffffffffffffffffffffffff168152602001908152602001600020549050919050565b60606004805461052a90610f5b565b80601f016020809104026020016040519081016040528092919081815260200182805461055690610f5b565b80156105a35780601f10610578576101008083540402835291602001916105a3565b820191906000526020600020905b81548152906001019060200180831161058657829003601f168201915b5050505050905090565b60006106706105ba61077d565b8461066b8560405180606001604052806025815260200161132660259139600160006105e461077d565b73ffffffffffffffffffffffffffffffffffffffff1673ffffffffffffffffffffffffffffffffffffffff16815260200190815260200160002060008a73ffffffffffffffffffffffffffffffffffffffff1673ffffffffffffffffffffffffffffffffffffffff16815260200190815260200160002054610be19092919063ffffffff16565b610785565b6001905092915050565b600061068e61068761077d565b848461094e565b6001905092915050565b6000600160008473ffffffffffffffffffffffffffffffffffffffff1673ffffffffffffffffffffffffffffffffffffffff16815260200190815260200160002060008373ffffffffffffffffffffffffffffffffffffffff1673ffffffffffffffffffffffffffffffffffffffff16815260200190815260200160002054905092915050565b600080828461072e9190610fbb565b905083811015610773576040517f08c379a000000000000000000000000000000000000000000000000000000000815260040161076a9061103b565b60405180910390fd5b8091505092915050565b600033905090565b600073ffffffffffffffffffffffffffffffffffffffff168373ffffffffffffffffffffffffffffffffffffffff16036107f4576040517f08c379a00000000000000000000000000000000000000000000000000000000081526004016107eb906110cd565b60405180910390fd5b600073ffffffffffffffffffffffffffffffffffffffff168273ffffffffffffffffffffffffffffffffffffffff1603610863576040517f08c379a000000000000000000000000000000000000000000000000000000000815260040161085a9061115f565b60405180910390fd5b80600160008573ffffffffffffffffffffffffffffffffffffffff1673ffffffffffffffffffffffffffffffffffffffff16815260200190815260200160002060008473ffffffffffffffffffffffffffffffffffffffff1673ffffffffffffffffffffffffffffffffffffffff168152602001908152602001600020819055508173ffffffffffffffffffffffffffffffffffffffff168373ffffffffffffffffffffffffffffffffffffffff167f8c5be1e5ebec7d5bd14f71427d1e84f3dd0314c0f7b2291e5b200ac8c7c3b925836040516109419190610e1a565b60405180910390a3505050565b600073ffffffffffffffffffffffffffffffffffffffff168373ffffffffffffffffffffffffffffffffffffffff16036109bd576040517f08c379a00000000000000000000000000000000000000000000000000000000081526004016109b4906111f1565b60405180910390fd5b600073ffffffffffffffffffffffffffffffffffffffff168273ffffffffffffffffffffffffffffffffffffffff1603610a2c576040517f08c379a0000000000000000000000000000000000000000000000000000000008152600401610a2390611283565b60405180910390fd5b610a37838383610c45565b610aa2816040518060600160405280602681526020016112d8602691396000808773ffffffffffffffffffffffffffffffffffffffff1673ffffffffffffffffffffffffffffffffffffffff16815260200190815260200160002054610be19092919063ffffffff16565b6000808573ffffffffffffffffffffffffffffffffffffffff1673ffffffffffffffffffffffffffffffffffffffff16815260200190815260200160002081905550610b35816000808573ffffffffffffffffffffffffffffffffffffffff1673ffffffffffffffffffffffffffffffffffffffff1681526020019081526020016000205461071f90919063ffffffff16565b6000808473ffffffffffffffffffffffffffffffffffffffff1673ffffffffffffffffffffffffffffffffffffffff168152602001908152602001600020819055508173ffffffffffffffffffffffffffffffffffffffff168373ffffffffffffffffffffffffffffffffffffffff167fddf252ad1be2c89b69c2b068fc378daa952ba7f163c4a11628f55a4df523b3ef83604051610bd49190610e1a565b60405180910390a3505050565b6000838311158290610c29576040517f08c379a0000000000000000000000000000000000000000000000000000000008152600401610c209190610cda565b60405180910390fd5b5060008385610c3891906112a3565b9050809150509392505050565b505050565b600081519050919050565b600082825260208201905092915050565b60005b83811015610c84578082015181840152602081019050610c69565b60008484015250505050565b6000601f19601f8301169050919050565b6000610cac82610c4a565b610cb68185610c55565b9350610cc6818560208601610c66565b610ccf81610c90565b840191505092915050565b60006020820190508181036000830152610cf48184610ca1565b905092915050565b600080fd5b600073ffffffffffffffffffffffffffffffffffffffff82169050919050565b6000610d2c82610d01565b9050919050565b610d3c81610d21565b8114610d4757600080fd5b50565b600081359050610d5981610d33565b92915050565b6000819050919050565b610d7281610d5f565b8114610d7d57600080fd5b50565b600081359050610d8f81610d69565b92915050565b60008060408385031215610dac57610dab610cfc565b5b6000610dba85828601610d4a565b9250506020610dcb85828601610d80565b9150509250929050565b60008115159050919050565b610dea81610dd5565b82525050565b6000602082019050610e056000830184610de1565b92915050565b610e1481610d5f565b82525050565b6000602082019050610e2f6000830184610e0b565b92915050565b600080600060608486031215610e4e57610e4d610cfc565b5b6000610e5c86828701610d4a565b9350506020610e6d86828701610d4a565b9250506040610e7e86828701610d80565b9150509250925092565b600060ff82169050919050565b610e9e81610e88565b82525050565b6000602082019050610eb96000830184610e95565b92915050565b600060208284031215610ed557610ed4610cfc565b5b6000610ee384828501610d4a565b91505092915050565b60008060408385031215610f0357610f02610cfc565b5b6000610f1185828601610d4a565b9250506020610f2285828601610d4a565b9150509250929050565b7f4e487b7100000000000000000000000000000000000000000000000000000000600052602260045260246000fd5b60006002820490506001821680610f7357607f821691505b602082108103610f8657610f85610f2c565b5b50919050565b7f4e487b7100000000000000000000000000000000000000000000000000000000600052601160045260246000fd5b6000610fc682610d5f565b9150610fd183610d5f565b9250828201905080821115610fe957610fe8610f8c565b5b92915050565b7f536166654d6174683a206164646974696f6e206f766572666c6f770000000000600082015250565b6000611025601b83610c55565b915061103082610fef565b602082019050919050565b6000602082019050818103600083015261105481611018565b9050919050565b7f45524332303a20617070726f76652066726f6d20746865207a65726f2061646460008201527f7265737300000000000000000000000000000000000000000000000000000000602082015250565b60006110b7602483610c55565b91506110c28261105b565b604082019050919050565b600060208201905081810360008301526110e6816110aa565b9050919050565b7f45524332303a20617070726f766520746f20746865207a65726f20616464726560008201527f7373000000000000000000000000000000000000000000000000000000000000602082015250565b6000611149602283610c55565b9150611154826110ed565b604082019050919050565b600060208201905081810360008301526111788161113c565b9050919050565b7f45524332303a207472616e736665722066726f6d20746865207a65726f20616460008201527f6472657373000000000000000000000000000000000000000000000000000000602082015250565b60006111db602583610c55565b91506111e68261117f565b604082019050919050565b6000602082019050818103600083015261120a816111ce565b9050919050565b7f45524332303a207472616e7366657220746f20746865207a65726f206164647260008201527f6573730000000000000000000000000000000000000000000000000000000000602082015250565b600061126d602383610c55565b915061127882611211565b604082019050919050565b6000602082019050818103600083015261129c81611260565b9050919050565b60006112ae82610d5f565b91506112b983610d5f565b92508282039050818111156112d1576112d0610f8c565b5b9291505056fe45524332303a207472616e7366657220616d6f756e7420657863656564732062616c616e636545524332303a207472616e7366657220616d6f756e74206578636565647320616c6c6f77616e636545524332303a2064656372656173656420616c6c6f77616e63652062656c6f77207a65726fa26469706673582212200eaed8fe41610e5747f5ed7bf7f20b6ccd4c846fcb3290caa6f7434a38ed366364736f6c63430008120033a2646970667358221220db0b54691c2705e4caa6d0314dd38c516542e852824ce6cb9e81f7e668b6f36064736f6c63430008120033",
					"opcodes": "PUSH1 0x80 PUSH1 0x40 MSTORE CALLVALUE DUP1 ISZERO PUSH2 0x10 JUMPI PUSH1 0x0 DUP1 REVERT JUMPDEST POP PUSH1 0x40 MLOAD PUSH2 0x2587 CODESIZE SUB DUP1 PUSH2 0x2587 DUP4 CODECOPY DUP2 DUP2 ADD PUSH1 0x40 MSTORE DUP2 ADD SWAP1 PUSH2 0x32 SWAP2 SWAP1 PUSH2 0xDB JUMP JUMPDEST DUP1 PUSH1 0x0 DUP1 PUSH2 0x100 EXP DUP2 SLOAD DUP2 PUSH20 0xFFFFFFFFFFFFFFFFFFFFFFFFFFFFFFFFFFFFFFFF MUL NOT AND SWAP1 DUP4 PUSH20 0xFFFFFFFFFFFFFFFFFFFFFFFFFFFFFFFFFFFFFFFF AND MUL OR SWAP1 SSTORE POP POP PUSH2 0x108 JUMP JUMPDEST PUSH1 0x0 DUP1 REVERT JUMPDEST PUSH1 0x0 PUSH20 0xFFFFFFFFFFFFFFFFFFFFFFFFFFFFFFFFFFFFFFFF DUP3 AND SWAP1 POP SWAP2 SWAP1 POP JUMP JUMPDEST PUSH1 0x0 PUSH2 0xA8 DUP3 PUSH2 0x7D JUMP JUMPDEST SWAP1 POP SWAP2 SWAP1 POP JUMP JUMPDEST PUSH2 0xB8 DUP2 PUSH2 0x9D JUMP JUMPDEST DUP2 EQ PUSH2 0xC3 JUMPI PUSH1 0x0 DUP1 REVERT JUMPDEST POP JUMP JUMPDEST PUSH1 0x0 DUP2 MLOAD SWAP1 POP PUSH2 0xD5 DUP2 PUSH2 0xAF JUMP JUMPDEST SWAP3 SWAP2 POP POP JUMP JUMPDEST PUSH1 0x0 PUSH1 0x20 DUP3 DUP5 SUB SLT ISZERO PUSH2 0xF1 JUMPI PUSH2 0xF0 PUSH2 0x78 JUMP JUMPDEST JUMPDEST PUSH1 0x0 PUSH2 0xFF DUP5 DUP3 DUP6 ADD PUSH2 0xC6 JUMP JUMPDEST SWAP2 POP POP SWAP3 SWAP2 POP POP JUMP JUMPDEST PUSH2 0x2470 DUP1 PUSH2 0x117 PUSH1 0x0 CODECOPY PUSH1 0x0 RETURN INVALID PUSH1 0x80 PUSH1 0x40 MSTORE CALLVALUE DUP1 ISZERO PUSH3 0x11 JUMPI PUSH1 0x0 DUP1 REVERT JUMPDEST POP PUSH1 0x4 CALLDATASIZE LT PUSH3 0x52 JUMPI PUSH1 0x0 CALLDATALOAD PUSH1 0xE0 SHR DUP1 PUSH4 0x6E30199F EQ PUSH3 0x57 JUMPI DUP1 PUSH4 0x865E6153 EQ PUSH3 0x8D JUMPI DUP1 PUSH4 0x8DA5CB5B EQ PUSH3 0xC3 JUMPI DUP1 PUSH4 0xC42BD05A EQ PUSH3 0xE5 JUMPI JUMPDEST PUSH1 0x0 DUP1 REVERT JUMPDEST PUSH3 0x75 PUSH1 0x4 DUP1 CALLDATASIZE SUB DUP2 ADD SWAP1 PUSH3 0x6F SWAP2 SWAP1 PUSH3 0x411 JUMP JUMPDEST PUSH3 0x107 JUMP JUMPDEST PUSH1 0x40 MLOAD PUSH3 0x84 SWAP2 SWAP1 PUSH3 0x4A7 JUMP JUMPDEST PUSH1 0x40 MLOAD DUP1 SWAP2 SUB SWAP1 RETURN JUMPDEST PUSH3 0xAB PUSH1 0x4 DUP1 CALLDATASIZE SUB DUP2 ADD SWAP1 PUSH3 0xA5 SWAP2 SWAP1 PUSH3 0x56E JUMP JUMPDEST PUSH3 0x150 JUMP JUMPDEST PUSH1 0x40 MLOAD PUSH3 0xBA SWAP2 SWAP1 PUSH3 0x4A7 JUMP JUMPDEST PUSH1 0x40 MLOAD DUP1 SWAP2 SUB SWAP1 RETURN JUMPDEST PUSH3 0xCD PUSH3 0x243 JUMP JUMPDEST PUSH1 0x40 MLOAD PUSH3 0xDC SWAP2 SWAP1 PUSH3 0x4A7 JUMP JUMPDEST PUSH1 0x40 MLOAD DUP1 SWAP2 SUB SWAP1 RETURN JUMPDEST PUSH3 0xEF PUSH3 0x267 JUMP JUMPDEST PUSH1 0x40 MLOAD PUSH3 0xFE SWAP2 SWAP1 PUSH3 0x4A7 JUMP JUMPDEST PUSH1 0x40 MLOAD DUP1 SWAP2 SUB SWAP1 RETURN JUMPDEST PUSH1 0x1 DUP2 DUP1 MLOAD PUSH1 0x20 DUP2 ADD DUP3 ADD DUP1 MLOAD DUP5 DUP3 MSTORE PUSH1 0x20 DUP4 ADD PUSH1 0x20 DUP6 ADD KECCAK256 DUP2 DUP4 MSTORE DUP1 SWAP6 POP POP POP POP POP POP PUSH1 0x0 SWAP2 POP SLOAD SWAP1 PUSH2 0x100 EXP SWAP1 DIV PUSH20 0xFFFFFFFFFFFFFFFFFFFFFFFFFFFFFFFFFFFFFFFF AND DUP2 JUMP JUMPDEST PUSH1 0x0 DUP1 DUP7 DUP7 DUP7 DUP7 DUP7 PUSH1 0x40 MLOAD PUSH3 0x166 SWAP1 PUSH3 0x28D JUMP JUMPDEST PUSH3 0x176 SWAP6 SWAP5 SWAP4 SWAP3 SWAP2 SWAP1 PUSH3 0x6DF JUMP JUMPDEST PUSH1 0x40 MLOAD DUP1 SWAP2 SUB SWAP1 PUSH1 0x0 CREATE DUP1 ISZERO DUP1 ISZERO PUSH3 0x193 JUMPI RETURNDATASIZE PUSH1 0x0 DUP1 RETURNDATACOPY RETURNDATASIZE PUSH1 0x0 REVERT JUMPDEST POP SWAP1 POP DUP1 PUSH1 0x2 PUSH1 0x0 PUSH2 0x100 EXP DUP2 SLOAD DUP2 PUSH20 0xFFFFFFFFFFFFFFFFFFFFFFFFFFFFFFFFFFFFFFFF MUL NOT AND SWAP1 DUP4 PUSH20 0xFFFFFFFFFFFFFFFFFFFFFFFFFFFFFFFFFFFFFFFF AND MUL OR SWAP1 SSTORE POP DUP1 PUSH1 0x1 DUP9 PUSH1 0x40 MLOAD PUSH3 0x1EA SWAP2 SWAP1 PUSH3 0x78C JUMP JUMPDEST SWAP1 DUP2 MSTORE PUSH1 0x20 ADD PUSH1 0x40 MLOAD DUP1 SWAP2 SUB SWAP1 KECCAK256 PUSH1 0x0 PUSH2 0x100 EXP DUP2 SLOAD DUP2 PUSH20 0xFFFFFFFFFFFFFFFFFFFFFFFFFFFFFFFFFFFFFFFF MUL NOT AND SWAP1 DUP4 PUSH20 0xFFFFFFFFFFFFFFFFFFFFFFFFFFFFFFFFFFFFFFFF AND MUL OR SWAP1 SSTORE POP DUP1 SWAP2 POP POP SWAP6 SWAP5 POP POP POP POP POP JUMP JUMPDEST PUSH1 0x0 DUP1 SLOAD SWAP1 PUSH2 0x100 EXP SWAP1 DIV PUSH20 0xFFFFFFFFFFFFFFFFFFFFFFFFFFFFFFFFFFFFFFFF AND DUP2 JUMP JUMPDEST PUSH1 0x2 PUSH1 0x0 SWAP1 SLOAD SWAP1 PUSH2 0x100 EXP SWAP1 DIV PUSH20 0xFFFFFFFFFFFFFFFFFFFFFFFFFFFFFFFFFFFFFFFF AND DUP2 JUMP JUMPDEST PUSH2 0x1C95 DUP1 PUSH3 0x7A6 DUP4 CODECOPY ADD SWAP1 JUMP JUMPDEST PUSH1 0x0 PUSH1 0x40 MLOAD SWAP1 POP SWAP1 JUMP JUMPDEST PUSH1 0x0 DUP1 REVERT JUMPDEST PUSH1 0x0 DUP1 REVERT JUMPDEST PUSH1 0x0 DUP1 REVERT JUMPDEST PUSH1 0x0 DUP1 REVERT JUMPDEST PUSH1 0x0 PUSH1 0x1F NOT PUSH1 0x1F DUP4 ADD AND SWAP1 POP SWAP2 SWAP1 POP JUMP JUMPDEST PUSH32 0x4E487B7100000000000000000000000000000000000000000000000000000000 PUSH1 0x0 MSTORE PUSH1 0x41 PUSH1 0x4 MSTORE PUSH1 0x24 PUSH1 0x0 REVERT JUMPDEST PUSH3 0x304 DUP3 PUSH3 0x2B9 JUMP JUMPDEST DUP2 ADD DUP2 DUP2 LT PUSH8 0xFFFFFFFFFFFFFFFF DUP3 GT OR ISZERO PUSH3 0x326 JUMPI PUSH3 0x325 PUSH3 0x2CA JUMP JUMPDEST JUMPDEST DUP1 PUSH1 0x40 MSTORE POP POP POP JUMP JUMPDEST PUSH1 0x0 PUSH3 0x33B PUSH3 0x29B JUMP JUMPDEST SWAP1 POP PUSH3 0x349 DUP3 DUP3 PUSH3 0x2F9 JUMP JUMPDEST SWAP2 SWAP1 POP JUMP JUMPDEST PUSH1 0x0 PUSH8 0xFFFFFFFFFFFFFFFF DUP3 GT ISZERO PUSH3 0x36C JUMPI PUSH3 0x36B PUSH3 0x2CA JUMP JUMPDEST JUMPDEST PUSH3 0x377 DUP3 PUSH3 0x2B9 JUMP JUMPDEST SWAP1 POP PUSH1 0x20 DUP2 ADD SWAP1 POP SWAP2 SWAP1 POP JUMP JUMPDEST DUP3 DUP2 DUP4 CALLDATACOPY PUSH1 0x0 DUP4 DUP4 ADD MSTORE POP POP POP JUMP JUMPDEST PUSH1 0x0 PUSH3 0x3AA PUSH3 0x3A4 DUP5 PUSH3 0x34E JUMP JUMPDEST PUSH3 0x32F JUMP JUMPDEST SWAP1 POP DUP3 DUP2 MSTORE PUSH1 0x20 DUP2 ADD DUP5 DUP5 DUP5 ADD GT ISZERO PUSH3 0x3C9 JUMPI PUSH3 0x3C8 PUSH3 0x2B4 JUMP JUMPDEST JUMPDEST PUSH3 0x3D6 DUP5 DUP3 DUP6 PUSH3 0x384 JUMP JUMPDEST POP SWAP4 SWAP3 POP POP POP JUMP JUMPDEST PUSH1 0x0 DUP3 PUSH1 0x1F DUP4 ADD SLT PUSH3 0x3F6 JUMPI PUSH3 0x3F5 PUSH3 0x2AF JUMP JUMPDEST JUMPDEST DUP2 CALLDATALOAD PUSH3 0x408 DUP5 DUP3 PUSH1 0x20 DUP7 ADD PUSH3 0x393 JUMP JUMPDEST SWAP2 POP POP SWAP3 SWAP2 POP POP JUMP JUMPDEST PUSH1 0x0 PUSH1 0x20 DUP3 DUP5 SUB SLT ISZERO PUSH3 0x42A JUMPI PUSH3 0x429 PUSH3 0x2A5 JUMP JUMPDEST JUMPDEST PUSH1 0x0 DUP3 ADD CALLDATALOAD PUSH8 0xFFFFFFFFFFFFFFFF DUP2 GT ISZERO PUSH3 0x44B JUMPI PUSH3 0x44A PUSH3 0x2AA JUMP JUMPDEST JUMPDEST PUSH3 0x459 DUP5 DUP3 DUP6 ADD PUSH3 0x3DE JUMP JUMPDEST SWAP2 POP POP SWAP3 SWAP2 POP POP JUMP JUMPDEST PUSH1 0x0 PUSH20 0xFFFFFFFFFFFFFFFFFFFFFFFFFFFFFFFFFFFFFFFF DUP3 AND SWAP1 POP SWAP2 SWAP1 POP JUMP JUMPDEST PUSH1 0x0 PUSH3 0x48F DUP3 PUSH3 0x462 JUMP JUMPDEST SWAP1 POP SWAP2 SWAP1 POP JUMP JUMPDEST PUSH3 0x4A1 DUP2 PUSH3 0x482 JUMP JUMPDEST DUP3 MSTORE POP POP JUMP JUMPDEST PUSH1 0x0 PUSH1 0x20 DUP3 ADD SWAP1 POP PUSH3 0x4BE PUSH1 0x0 DUP4 ADD DUP5 PUSH3 0x496 JUMP JUMPDEST SWAP3 SWAP2 POP POP JUMP JUMPDEST PUSH1 0x0 PUSH1 0xFF DUP3 AND SWAP1 POP SWAP2 SWAP1 POP JUMP JUMPDEST PUSH3 0x4DC DUP2 PUSH3 0x4C4 JUMP JUMPDEST DUP2 EQ PUSH3 0x4E8 JUMPI PUSH1 0x0 DUP1 REVERT JUMPDEST POP JUMP JUMPDEST PUSH1 0x0 DUP2 CALLDATALOAD SWAP1 POP PUSH3 0x4FC DUP2 PUSH3 0x4D1 JUMP JUMPDEST SWAP3 SWAP2 POP POP JUMP JUMPDEST PUSH3 0x50D DUP2 PUSH3 0x482 JUMP JUMPDEST DUP2 EQ PUSH3 0x519 JUMPI PUSH1 0x0 DUP1 REVERT JUMPDEST POP JUMP JUMPDEST PUSH1 0x0 DUP2 CALLDATALOAD SWAP1 POP PUSH3 0x52D DUP2 PUSH3 0x502 JUMP JUMPDEST SWAP3 SWAP2 POP POP JUMP JUMPDEST PUSH1 0x0 DUP2 SWAP1 POP SWAP2 SWAP1 POP JUMP JUMPDEST PUSH3 0x548 DUP2 PUSH3 0x533 JUMP JUMPDEST DUP2 EQ PUSH3 0x554 JUMPI PUSH1 0x0 DUP1 REVERT JUMPDEST POP JUMP JUMPDEST PUSH1 0x0 DUP2 CALLDATALOAD SWAP1 POP PUSH3 0x568 DUP2 PUSH3 0x53D JUMP JUMPDEST SWAP3 SWAP2 POP POP JUMP JUMPDEST PUSH1 0x0 DUP1 PUSH1 0x0 DUP1 PUSH1 0x0 PUSH1 0xA0 DUP7 DUP9 SUB SLT ISZERO PUSH3 0x58D JUMPI PUSH3 0x58C PUSH3 0x2A5 JUMP JUMPDEST JUMPDEST PUSH1 0x0 DUP7 ADD CALLDATALOAD PUSH8 0xFFFFFFFFFFFFFFFF DUP2 GT ISZERO PUSH3 0x5AE JUMPI PUSH3 0x5AD PUSH3 0x2AA JUMP JUMPDEST JUMPDEST PUSH3 0x5BC DUP9 DUP3 DUP10 ADD PUSH3 0x3DE JUMP JUMPDEST SWAP6 POP POP PUSH1 0x20 DUP7 ADD CALLDATALOAD PUSH8 0xFFFFFFFFFFFFFFFF DUP2 GT ISZERO PUSH3 0x5E0 JUMPI PUSH3 0x5DF PUSH3 0x2AA JUMP JUMPDEST JUMPDEST PUSH3 0x5EE DUP9 DUP3 DUP10 ADD PUSH3 0x3DE JUMP JUMPDEST SWAP5 POP POP PUSH1 0x40 PUSH3 0x601 DUP9 DUP3 DUP10 ADD PUSH3 0x4EB JUMP JUMPDEST SWAP4 POP POP PUSH1 0x60 PUSH3 0x614 DUP9 DUP3 DUP10 ADD PUSH3 0x51C JUMP JUMPDEST SWAP3 POP POP PUSH1 0x80 PUSH3 0x627 DUP9 DUP3 DUP10 ADD PUSH3 0x557 JUMP JUMPDEST SWAP2 POP POP SWAP3 SWAP6 POP SWAP3 SWAP6 SWAP1 SWAP4 POP JUMP JUMPDEST PUSH1 0x0 DUP2 MLOAD SWAP1 POP SWAP2 SWAP1 POP JUMP JUMPDEST PUSH1 0x0 DUP3 DUP3 MSTORE PUSH1 0x20 DUP3 ADD SWAP1 POP SWAP3 SWAP2 POP POP JUMP JUMPDEST PUSH1 0x0 JUMPDEST DUP4 DUP2 LT ISZERO PUSH3 0x670 JUMPI DUP1 DUP3 ADD MLOAD DUP2 DUP5 ADD MSTORE PUSH1 0x20 DUP2 ADD SWAP1 POP PUSH3 0x653 JUMP JUMPDEST PUSH1 0x0 DUP5 DUP5 ADD MSTORE POP POP POP POP JUMP JUMPDEST PUSH1 0x0 PUSH3 0x689 DUP3 PUSH3 0x634 JUMP JUMPDEST PUSH3 0x695 DUP2 DUP6 PUSH3 0x63F JUMP JUMPDEST SWAP4 POP PUSH3 0x6A7 DUP2 DUP6 PUSH1 0x20 DUP7 ADD PUSH3 0x650 JUMP JUMPDEST PUSH3 0x6B2 DUP2 PUSH3 0x2B9 JUMP JUMPDEST DUP5 ADD SWAP2 POP POP SWAP3 SWAP2 POP POP JUMP JUMPDEST PUSH3 0x6C8 DUP2 PUSH3 0x4C4 JUMP JUMPDEST DUP3 MSTORE POP POP JUMP JUMPDEST PUSH3 0x6D9 DUP2 PUSH3 0x533 JUMP JUMPDEST DUP3 MSTORE POP POP JUMP JUMPDEST PUSH1 0x0 PUSH1 0xA0 DUP3 ADD SWAP1 POP DUP2 DUP2 SUB PUSH1 0x0 DUP4 ADD MSTORE PUSH3 0x6FB DUP2 DUP9 PUSH3 0x67C JUMP JUMPDEST SWAP1 POP DUP2 DUP2 SUB PUSH1 0x20 DUP4 ADD MSTORE PUSH3 0x711 DUP2 DUP8 PUSH3 0x67C JUMP JUMPDEST SWAP1 POP PUSH3 0x722 PUSH1 0x40 DUP4 ADD DUP7 PUSH3 0x6BD JUMP JUMPDEST PUSH3 0x731 PUSH1 0x60 DUP4 ADD DUP6 PUSH3 0x496 JUMP JUMPDEST PUSH3 0x740 PUSH1 0x80 DUP4 ADD DUP5 PUSH3 0x6CE JUMP JUMPDEST SWAP7 SWAP6 POP POP POP POP POP POP JUMP JUMPDEST PUSH1 0x0 DUP2 SWAP1 POP SWAP3 SWAP2 POP POP JUMP JUMPDEST PUSH1 0x0 PUSH3 0x762 DUP3 PUSH3 0x634 JUMP JUMPDEST PUSH3 0x76E DUP2 DUP6 PUSH3 0x74A JUMP JUMPDEST SWAP4 POP PUSH3 0x780 DUP2 DUP6 PUSH1 0x20 DUP7 ADD PUSH3 0x650 JUMP JUMPDEST DUP1 DUP5 ADD SWAP2 POP POP SWAP3 SWAP2 POP POP JUMP JUMPDEST PUSH1 0x0 PUSH3 0x79A DUP3 DUP5 PUSH3 0x755 JUMP JUMPDEST SWAP2 POP DUP2 SWAP1 POP SWAP3 SWAP2 POP POP JUMP INVALID PUSH1 0x80 PUSH1 0x40 MSTORE CALLVALUE DUP1 ISZERO PUSH3 0x11 JUMPI PUSH1 0x0 DUP1 REVERT JUMPDEST POP PUSH1 0x40 MLOAD PUSH3 0x1C95 CODESIZE SUB DUP1 PUSH3 0x1C95 DUP4 CODECOPY DUP2 DUP2 ADD PUSH1 0x40 MSTORE DUP2 ADD SWAP1 PUSH3 0x37 SWAP2 SWAP1 PUSH3 0x42A JUMP JUMPDEST DUP5 PUSH1 0x3 SWAP1 DUP2 PUSH3 0x48 SWAP2 SWAP1 PUSH3 0x731 JUMP JUMPDEST POP DUP4 PUSH1 0x4 SWAP1 DUP2 PUSH3 0x5A SWAP2 SWAP1 PUSH3 0x731 JUMP JUMPDEST POP DUP3 PUSH1 0x5 PUSH1 0x0 PUSH2 0x100 EXP DUP2 SLOAD DUP2 PUSH1 0xFF MUL NOT AND SWAP1 DUP4 PUSH1 0xFF AND MUL OR SWAP1 SSTORE POP PUSH3 0x8A PUSH1 0x0 DUP4 DUP4 PUSH3 0x151 PUSH1 0x20 SHL PUSH1 0x20 SHR JUMP JUMPDEST PUSH3 0xA6 DUP2 PUSH1 0x2 SLOAD PUSH3 0x156 PUSH1 0x20 SHL PUSH3 0x71F OR SWAP1 SWAP2 SWAP1 PUSH1 0x20 SHR JUMP JUMPDEST PUSH1 0x2 DUP2 SWAP1 SSTORE POP PUSH3 0x104 DUP2 PUSH1 0x0 DUP1 DUP6 PUSH20 0xFFFFFFFFFFFFFFFFFFFFFFFFFFFFFFFFFFFFFFFF AND PUSH20 0xFFFFFFFFFFFFFFFFFFFFFFFFFFFFFFFFFFFFFFFF AND DUP2 MSTORE PUSH1 0x20 ADD SWAP1 DUP2 MSTORE PUSH1 0x20 ADD PUSH1 0x0 KECCAK256 SLOAD PUSH3 0x156 PUSH1 0x20 SHL PUSH3 0x71F OR SWAP1 SWAP2 SWAP1 PUSH1 0x20 SHR JUMP JUMPDEST PUSH1 0x0 DUP1 DUP5 PUSH20 0xFFFFFFFFFFFFFFFFFFFFFFFFFFFFFFFFFFFFFFFF AND PUSH20 0xFFFFFFFFFFFFFFFFFFFFFFFFFFFFFFFFFFFFFFFF AND DUP2 MSTORE PUSH1 0x20 ADD SWAP1 DUP2 MSTORE PUSH1 0x20 ADD PUSH1 0x0 KECCAK256 DUP2 SWAP1 SSTORE POP POP POP POP POP POP PUSH3 0x905 JUMP JUMPDEST POP POP POP JUMP JUMPDEST PUSH1 0x0 DUP1 DUP3 DUP5 PUSH3 0x167 SWAP2 SWAP1 PUSH3 0x847 JUMP JUMPDEST SWAP1 POP DUP4 DUP2 LT ISZERO PUSH3 0x1AF JUMPI PUSH1 0x40 MLOAD PUSH32 0x8C379A000000000000000000000000000000000000000000000000000000000 DUP2 MSTORE PUSH1 0x4 ADD PUSH3 0x1A6 SWAP1 PUSH3 0x8E3 JUMP JUMPDEST PUSH1 0x40 MLOAD DUP1 SWAP2 SUB SWAP1 REVERT JUMPDEST DUP1 SWAP2 POP POP SWAP3 SWAP2 POP POP JUMP JUMPDEST PUSH1 0x0 PUSH1 0x40 MLOAD SWAP1 POP SWAP1 JUMP JUMPDEST PUSH1 0x0 DUP1 REVERT JUMPDEST PUSH1 0x0 DUP1 REVERT JUMPDEST PUSH1 0x0 DUP1 REVERT JUMPDEST PUSH1 0x0 DUP1 REVERT JUMPDEST PUSH1 0x0 PUSH1 0x1F NOT PUSH1 0x1F DUP4 ADD AND SWAP1 POP SWAP2 SWAP1 POP JUMP JUMPDEST PUSH32 0x4E487B7100000000000000000000000000000000000000000000000000000000 PUSH1 0x0 MSTORE PUSH1 0x41 PUSH1 0x4 MSTORE PUSH1 0x24 PUSH1 0x0 REVERT JUMPDEST PUSH3 0x222 DUP3 PUSH3 0x1D7 JUMP JUMPDEST DUP2 ADD DUP2 DUP2 LT PUSH8 0xFFFFFFFFFFFFFFFF DUP3 GT OR ISZERO PUSH3 0x244 JUMPI PUSH3 0x243 PUSH3 0x1E8 JUMP JUMPDEST JUMPDEST DUP1 PUSH1 0x40 MSTORE POP POP POP JUMP JUMPDEST PUSH1 0x0 PUSH3 0x259 PUSH3 0x1B9 JUMP JUMPDEST SWAP1 POP PUSH3 0x267 DUP3 DUP3 PUSH3 0x217 JUMP JUMPDEST SWAP2 SWAP1 POP JUMP JUMPDEST PUSH1 0x0 PUSH8 0xFFFFFFFFFFFFFFFF DUP3 GT ISZERO PUSH3 0x28A JUMPI PUSH3 0x289 PUSH3 0x1E8 JUMP JUMPDEST JUMPDEST PUSH3 0x295 DUP3 PUSH3 0x1D7 JUMP JUMPDEST SWAP1 POP PUSH1 0x20 DUP2 ADD SWAP1 POP SWAP2 SWAP1 POP JUMP JUMPDEST PUSH1 0x0 JUMPDEST DUP4 DUP2 LT ISZERO PUSH3 0x2C2 JUMPI DUP1 DUP3 ADD MLOAD DUP2 DUP5 ADD MSTORE PUSH1 0x20 DUP2 ADD SWAP1 POP PUSH3 0x2A5 JUMP JUMPDEST PUSH1 0x0 DUP5 DUP5 ADD MSTORE POP POP POP POP JUMP JUMPDEST PUSH1 0x0 PUSH3 0x2E5 PUSH3 0x2DF DUP5 PUSH3 0x26C JUMP JUMPDEST PUSH3 0x24D JUMP JUMPDEST SWAP1 POP DUP3 DUP2 MSTORE PUSH1 0x20 DUP2 ADD DUP5 DUP5 DUP5 ADD GT ISZERO PUSH3 0x304 JUMPI PUSH3 0x303 PUSH3 0x1D2 JUMP JUMPDEST JUMPDEST PUSH3 0x311 DUP5 DUP3 DUP6 PUSH3 0x2A2 JUMP JUMPDEST POP SWAP4 SWAP3 POP POP POP JUMP JUMPDEST PUSH1 0x0 DUP3 PUSH1 0x1F DUP4 ADD SLT PUSH3 0x331 JUMPI PUSH3 0x330 PUSH3 0x1CD JUMP JUMPDEST JUMPDEST DUP2 MLOAD PUSH3 0x343 DUP5 DUP3 PUSH1 0x20 DUP7 ADD PUSH3 0x2CE JUMP JUMPDEST SWAP2 POP POP SWAP3 SWAP2 POP POP JUMP JUMPDEST PUSH1 0x0 PUSH1 0xFF DUP3 AND SWAP1 POP SWAP2 SWAP1 POP JUMP JUMPDEST PUSH3 0x364 DUP2 PUSH3 0x34C JUMP JUMPDEST DUP2 EQ PUSH3 0x370 JUMPI PUSH1 0x0 DUP1 REVERT JUMPDEST POP JUMP JUMPDEST PUSH1 0x0 DUP2 MLOAD SWAP1 POP PUSH3 0x384 DUP2 PUSH3 0x359 JUMP JUMPDEST SWAP3 SWAP2 POP POP JUMP JUMPDEST PUSH1 0x0 PUSH20 0xFFFFFFFFFFFFFFFFFFFFFFFFFFFFFFFFFFFFFFFF DUP3 AND SWAP1 POP SWAP2 SWAP1 POP JUMP JUMPDEST PUSH1 0x0 PUSH3 0x3B7 DUP3 PUSH3 0x38A JUMP JUMPDEST SWAP1 POP SWAP2 SWAP1 POP JUMP JUMPDEST PUSH3 0x3C9 DUP2 PUSH3 0x3AA JUMP JUMPDEST DUP2 EQ PUSH3 0x3D5 JUMPI PUSH1 0x0 DUP1 REVERT JUMPDEST POP JUMP JUMPDEST PUSH1 0x0 DUP2 MLOAD SWAP1 POP PUSH3 0x3E9 DUP2 PUSH3 0x3BE JUMP JUMPDEST SWAP3 SWAP2 POP POP JUMP JUMPDEST PUSH1 0x0 DUP2 SWAP1 POP SWAP2 SWAP1 POP JUMP JUMPDEST PUSH3 0x404 DUP2 PUSH3 0x3EF JUMP JUMPDEST DUP2 EQ PUSH3 0x410 JUMPI PUSH1 0x0 DUP1 REVERT JUMPDEST POP JUMP JUMPDEST PUSH1 0x0 DUP2 MLOAD SWAP1 POP PUSH3 0x424 DUP2 PUSH3 0x3F9 JUMP JUMPDEST SWAP3 SWAP2 POP POP JUMP JUMPDEST PUSH1 0x0 DUP1 PUSH1 0x0 DUP1 PUSH1 0x0 PUSH1 0xA0 DUP7 DUP9 SUB SLT ISZERO PUSH3 0x449 JUMPI PUSH3 0x448 PUSH3 0x1C3 JUMP JUMPDEST JUMPDEST PUSH1 0x0 DUP7 ADD MLOAD PUSH8 0xFFFFFFFFFFFFFFFF DUP2 GT ISZERO PUSH3 0x46A JUMPI PUSH3 0x469 PUSH3 0x1C8 JUMP JUMPDEST JUMPDEST PUSH3 0x478 DUP9 DUP3 DUP10 ADD PUSH3 0x319 JUMP JUMPDEST SWAP6 POP POP PUSH1 0x20 DUP7 ADD MLOAD PUSH8 0xFFFFFFFFFFFFFFFF DUP2 GT ISZERO PUSH3 0x49C JUMPI PUSH3 0x49B PUSH3 0x1C8 JUMP JUMPDEST JUMPDEST PUSH3 0x4AA DUP9 DUP3 DUP10 ADD PUSH3 0x319 JUMP JUMPDEST SWAP5 POP POP PUSH1 0x40 PUSH3 0x4BD DUP9 DUP3 DUP10 ADD PUSH3 0x373 JUMP JUMPDEST SWAP4 POP POP PUSH1 0x60 PUSH3 0x4D0 DUP9 DUP3 DUP10 ADD PUSH3 0x3D8 JUMP JUMPDEST SWAP3 POP POP PUSH1 0x80 PUSH3 0x4E3 DUP9 DUP3 DUP10 ADD PUSH3 0x413 JUMP JUMPDEST SWAP2 POP POP SWAP3 SWAP6 POP SWAP3 SWAP6 SWAP1 SWAP4 POP JUMP JUMPDEST PUSH1 0x0 DUP2 MLOAD SWAP1 POP SWAP2 SWAP1 POP JUMP JUMPDEST PUSH32 0x4E487B7100000000000000000000000000000000000000000000000000000000 PUSH1 0x0 MSTORE PUSH1 0x22 PUSH1 0x4 MSTORE PUSH1 0x24 PUSH1 0x0 REVERT JUMPDEST PUSH1 0x0 PUSH1 0x2 DUP3 DIV SWAP1 POP PUSH1 0x1 DUP3 AND DUP1 PUSH3 0x543 JUMPI PUSH1 0x7F DUP3 AND SWAP2 POP JUMPDEST PUSH1 0x20 DUP3 LT DUP2 SUB PUSH3 0x559 JUMPI PUSH3 0x558 PUSH3 0x4FB JUMP JUMPDEST JUMPDEST POP SWAP2 SWAP1 POP JUMP JUMPDEST PUSH1 0x0 DUP2 SWAP1 POP DUP2 PUSH1 0x0 MSTORE PUSH1 0x20 PUSH1 0x0 KECCAK256 SWAP1 POP SWAP2 SWAP1 POP JUMP JUMPDEST PUSH1 0x0 PUSH1 0x20 PUSH1 0x1F DUP4 ADD DIV SWAP1 POP SWAP2 SWAP1 POP JUMP JUMPDEST PUSH1 0x0 DUP3 DUP3 SHL SWAP1 POP SWAP3 SWAP2 POP POP JUMP JUMPDEST PUSH1 0x0 PUSH1 0x8 DUP4 MUL PUSH3 0x5C3 PUSH32 0xFFFFFFFFFFFFFFFFFFFFFFFFFFFFFFFFFFFFFFFFFFFFFFFFFFFFFFFFFFFFFFFF DUP3 PUSH3 0x584 JUMP JUMPDEST PUSH3 0x5CF DUP7 DUP4 PUSH3 0x584 JUMP JUMPDEST SWAP6 POP DUP1 NOT DUP5 AND SWAP4 POP DUP1 DUP7 AND DUP5 OR SWAP3 POP POP POP SWAP4 SWAP3 POP POP POP JUMP JUMPDEST PUSH1 0x0 DUP2 SWAP1 POP SWAP2 SWAP1 POP JUMP JUMPDEST PUSH1 0x0 PUSH3 0x612 PUSH3 0x60C PUSH3 0x606 DUP5 PUSH3 0x3EF JUMP JUMPDEST PUSH3 0x5E7 JUMP JUMPDEST PUSH3 0x3EF JUMP JUMPDEST SWAP1 POP SWAP2 SWAP1 POP JUMP JUMPDEST PUSH1 0x0 DUP2 SWAP1 POP SWAP2 SWAP1 POP JUMP JUMPDEST PUSH3 0x62E DUP4 PUSH3 0x5F1 JUMP JUMPDEST PUSH3 0x646 PUSH3 0x63D DUP3 PUSH3 0x619 JUMP JUMPDEST DUP5 DUP5 SLOAD PUSH3 0x591 JUMP JUMPDEST DUP3 SSTORE POP POP POP POP JUMP JUMPDEST PUSH1 0x0 SWAP1 JUMP JUMPDEST PUSH3 0x65D PUSH3 0x64E JUMP JUMPDEST PUSH3 0x66A DUP2 DUP5 DUP5 PUSH3 0x623 JUMP JUMPDEST POP POP POP JUMP JUMPDEST JUMPDEST DUP2 DUP2 LT ISZERO PUSH3 0x692 JUMPI PUSH3 0x686 PUSH1 0x0 DUP3 PUSH3 0x653 JUMP JUMPDEST PUSH1 0x1 DUP2 ADD SWAP1 POP PUSH3 0x670 JUMP JUMPDEST POP POP JUMP JUMPDEST PUSH1 0x1F DUP3 GT ISZERO PUSH3 0x6E1 JUMPI PUSH3 0x6AB DUP2 PUSH3 0x55F JUMP JUMPDEST PUSH3 0x6B6 DUP5 PUSH3 0x574 JUMP JUMPDEST DUP2 ADD PUSH1 0x20 DUP6 LT ISZERO PUSH3 0x6C6 JUMPI DUP2 SWAP1 POP JUMPDEST PUSH3 0x6DE PUSH3 0x6D5 DUP6 PUSH3 0x574 JUMP JUMPDEST DUP4 ADD DUP3 PUSH3 0x66F JUMP JUMPDEST POP POP JUMPDEST POP POP POP JUMP JUMPDEST PUSH1 0x0 DUP3 DUP3 SHR SWAP1 POP SWAP3 SWAP2 POP POP JUMP JUMPDEST PUSH1 0x0 PUSH3 0x706 PUSH1 0x0 NOT DUP5 PUSH1 0x8 MUL PUSH3 0x6E6 JUMP JUMPDEST NOT DUP1 DUP4 AND SWAP2 POP POP SWAP3 SWAP2 POP POP JUMP JUMPDEST PUSH1 0x0 PUSH3 0x721 DUP4 DUP4 PUSH3 0x6F3 JUMP JUMPDEST SWAP2 POP DUP3 PUSH1 0x2 MUL DUP3 OR SWAP1 POP SWAP3 SWAP2 POP POP JUMP JUMPDEST PUSH3 0x73C DUP3 PUSH3 0x4F0 JUMP JUMPDEST PUSH8 0xFFFFFFFFFFFFFFFF DUP2 GT ISZERO PUSH3 0x758 JUMPI PUSH3 0x757 PUSH3 0x1E8 JUMP JUMPDEST JUMPDEST PUSH3 0x764 DUP3 SLOAD PUSH3 0x52A JUMP JUMPDEST PUSH3 0x771 DUP3 DUP3 DUP6 PUSH3 0x696 JUMP JUMPDEST PUSH1 0x0 PUSH1 0x20 SWAP1 POP PUSH1 0x1F DUP4 GT PUSH1 0x1 DUP2 EQ PUSH3 0x7A9 JUMPI PUSH1 0x0 DUP5 ISZERO PUSH3 0x794 JUMPI DUP3 DUP8 ADD MLOAD SWAP1 POP JUMPDEST PUSH3 0x7A0 DUP6 DUP3 PUSH3 0x713 JUMP JUMPDEST DUP7 SSTORE POP PUSH3 0x810 JUMP JUMPDEST PUSH1 0x1F NOT DUP5 AND PUSH3 0x7B9 DUP7 PUSH3 0x55F JUMP JUMPDEST PUSH1 0x0 JUMPDEST DUP3 DUP2 LT ISZERO PUSH3 0x7E3 JUMPI DUP5 DUP10 ADD MLOAD DUP3 SSTORE PUSH1 0x1 DUP3 ADD SWAP2 POP PUSH1 0x20 DUP6 ADD SWAP5 POP PUSH1 0x20 DUP2 ADD SWAP1 POP PUSH3 0x7BC JUMP JUMPDEST DUP7 DUP4 LT ISZERO PUSH3 0x803 JUMPI DUP5 DUP10 ADD MLOAD PUSH3 0x7FF PUSH1 0x1F DUP10 AND DUP3 PUSH3 0x6F3 JUMP JUMPDEST DUP4 SSTORE POP JUMPDEST PUSH1 0x1 PUSH1 0x2 DUP9 MUL ADD DUP9 SSTORE POP POP POP JUMPDEST POP POP POP POP POP POP JUMP JUMPDEST PUSH32 0x4E487B7100000000000000000000000000000000000000000000000000000000 PUSH1 0x0 MSTORE PUSH1 0x11 PUSH1 0x4 MSTORE PUSH1 0x24 PUSH1 0x0 REVERT JUMPDEST PUSH1 0x0 PUSH3 0x854 DUP3 PUSH3 0x3EF JUMP JUMPDEST SWAP2 POP PUSH3 0x861 DUP4 PUSH3 0x3EF JUMP JUMPDEST SWAP3 POP DUP3 DUP3 ADD SWAP1 POP DUP1 DUP3 GT ISZERO PUSH3 0x87C JUMPI PUSH3 0x87B PUSH3 0x818 JUMP JUMPDEST JUMPDEST SWAP3 SWAP2 POP POP JUMP JUMPDEST PUSH1 0x0 DUP3 DUP3 MSTORE PUSH1 0x20 DUP3 ADD SWAP1 POP SWAP3 SWAP2 POP POP JUMP JUMPDEST PUSH32 0x536166654D6174683A206164646974696F6E206F766572666C6F770000000000 PUSH1 0x0 DUP3 ADD MSTORE POP JUMP JUMPDEST PUSH1 0x0 PUSH3 0x8CB PUSH1 0x1B DUP4 PUSH3 0x882 JUMP JUMPDEST SWAP2 POP PUSH3 0x8D8 DUP3 PUSH3 0x893 JUMP JUMPDEST PUSH1 0x20 DUP3 ADD SWAP1 POP SWAP2 SWAP1 POP JUMP JUMPDEST PUSH1 0x0 PUSH1 0x20 DUP3 ADD SWAP1 POP DUP2 DUP2 SUB PUSH1 0x0 DUP4 ADD MSTORE PUSH3 0x8FE DUP2 PUSH3 0x8BC JUMP JUMPDEST SWAP1 POP SWAP2 SWAP1 POP JUMP JUMPDEST PUSH2 0x1380 DUP1 PUSH3 0x915 PUSH1 0x0 CODECOPY PUSH1 0x0 RETURN INVALID PUSH1 0x80 PUSH1 0x40 MSTORE CALLVALUE DUP1 ISZERO PUSH2 0x10 JUMPI PUSH1 0x0 DUP1 REVERT JUMPDEST POP PUSH1 0x4 CALLDATASIZE LT PUSH2 0xA9 JUMPI PUSH1 0x0 CALLDATALOAD PUSH1 0xE0 SHR DUP1 PUSH4 0x39509351 GT PUSH2 0x71 JUMPI DUP1 PUSH4 0x39509351 EQ PUSH2 0x168 JUMPI DUP1 PUSH4 0x70A08231 EQ PUSH2 0x198 JUMPI DUP1 PUSH4 0x95D89B41 EQ PUSH2 0x1C8 JUMPI DUP1 PUSH4 0xA457C2D7 EQ PUSH2 0x1E6 JUMPI DUP1 PUSH4 0xA9059CBB EQ PUSH2 0x216 JUMPI DUP1 PUSH4 0xDD62ED3E EQ PUSH2 0x246 JUMPI PUSH2 0xA9 JUMP JUMPDEST DUP1 PUSH4 0x6FDDE03 EQ PUSH2 0xAE JUMPI DUP1 PUSH4 0x95EA7B3 EQ PUSH2 0xCC JUMPI DUP1 PUSH4 0x18160DDD EQ PUSH2 0xFC JUMPI DUP1 PUSH4 0x23B872DD EQ PUSH2 0x11A JUMPI DUP1 PUSH4 0x313CE567 EQ PUSH2 0x14A JUMPI JUMPDEST PUSH1 0x0 DUP1 REVERT JUMPDEST PUSH2 0xB6 PUSH2 0x276 JUMP JUMPDEST PUSH1 0x40 MLOAD PUSH2 0xC3 SWAP2 SWAP1 PUSH2 0xCDA JUMP JUMPDEST PUSH1 0x40 MLOAD DUP1 SWAP2 SUB SWAP1 RETURN JUMPDEST PUSH2 0xE6 PUSH1 0x4 DUP1 CALLDATASIZE SUB DUP2 ADD SWAP1 PUSH2 0xE1 SWAP2 SWAP1 PUSH2 0xD95 JUMP JUMPDEST PUSH2 0x308 JUMP JUMPDEST PUSH1 0x40 MLOAD PUSH2 0xF3 SWAP2 SWAP1 PUSH2 0xDF0 JUMP JUMPDEST PUSH1 0x40 MLOAD DUP1 SWAP2 SUB SWAP1 RETURN JUMPDEST PUSH2 0x104 PUSH2 0x326 JUMP JUMPDEST PUSH1 0x40 MLOAD PUSH2 0x111 SWAP2 SWAP1 PUSH2 0xE1A JUMP JUMPDEST PUSH1 0x40 MLOAD DUP1 SWAP2 SUB SWAP1 RETURN JUMPDEST PUSH2 0x134 PUSH1 0x4 DUP1 CALLDATASIZE SUB DUP2 ADD SWAP1 PUSH2 0x12F SWAP2 SWAP1 PUSH2 0xE35 JUMP JUMPDEST PUSH2 0x330 JUMP JUMPDEST PUSH1 0x40 MLOAD PUSH2 0x141 SWAP2 SWAP1 PUSH2 0xDF0 JUMP JUMPDEST PUSH1 0x40 MLOAD DUP1 SWAP2 SUB SWAP1 RETURN JUMPDEST PUSH2 0x152 PUSH2 0x409 JUMP JUMPDEST PUSH1 0x40 MLOAD PUSH2 0x15F SWAP2 SWAP1 PUSH2 0xEA4 JUMP JUMPDEST PUSH1 0x40 MLOAD DUP1 SWAP2 SUB SWAP1 RETURN JUMPDEST PUSH2 0x182 PUSH1 0x4 DUP1 CALLDATASIZE SUB DUP2 ADD SWAP1 PUSH2 0x17D SWAP2 SWAP1 PUSH2 0xD95 JUMP JUMPDEST PUSH2 0x420 JUMP JUMPDEST PUSH1 0x40 MLOAD PUSH2 0x18F SWAP2 SWAP1 PUSH2 0xDF0 JUMP JUMPDEST PUSH1 0x40 MLOAD DUP1 SWAP2 SUB SWAP1 RETURN JUMPDEST PUSH2 0x1B2 PUSH1 0x4 DUP1 CALLDATASIZE SUB DUP2 ADD SWAP1 PUSH2 0x1AD SWAP2 SWAP1 PUSH2 0xEBF JUMP JUMPDEST PUSH2 0x4D3 JUMP JUMPDEST PUSH1 0x40 MLOAD PUSH2 0x1BF SWAP2 SWAP1 PUSH2 0xE1A JUMP JUMPDEST PUSH1 0x40 MLOAD DUP1 SWAP2 SUB SWAP1 RETURN JUMPDEST PUSH2 0x1D0 PUSH2 0x51B JUMP JUMPDEST PUSH1 0x40 MLOAD PUSH2 0x1DD SWAP2 SWAP1 PUSH2 0xCDA JUMP JUMPDEST PUSH1 0x40 MLOAD DUP1 SWAP2 SUB SWAP1 RETURN JUMPDEST PUSH2 0x200 PUSH1 0x4 DUP1 CALLDATASIZE SUB DUP2 ADD SWAP1 PUSH2 0x1FB SWAP2 SWAP1 PUSH2 0xD95 JUMP JUMPDEST PUSH2 0x5AD JUMP JUMPDEST PUSH1 0x40 MLOAD PUSH2 0x20D SWAP2 SWAP1 PUSH2 0xDF0 JUMP JUMPDEST PUSH1 0x40 MLOAD DUP1 SWAP2 SUB SWAP1 RETURN JUMPDEST PUSH2 0x230 PUSH1 0x4 DUP1 CALLDATASIZE SUB DUP2 ADD SWAP1 PUSH2 0x22B SWAP2 SWAP1 PUSH2 0xD95 JUMP JUMPDEST PUSH2 0x67A JUMP JUMPDEST PUSH1 0x40 MLOAD PUSH2 0x23D SWAP2 SWAP1 PUSH2 0xDF0 JUMP JUMPDEST PUSH1 0x40 MLOAD DUP1 SWAP2 SUB SWAP1 RETURN JUMPDEST PUSH2 0x260 PUSH1 0x4 DUP1 CALLDATASIZE SUB DUP2 ADD SWAP1 PUSH2 0x25B SWAP2 SWAP1 PUSH2 0xEEC JUMP JUMPDEST PUSH2 0x698 JUMP JUMPDEST PUSH1 0x40 MLOAD PUSH2 0x26D SWAP2 SWAP1 PUSH2 0xE1A JUMP JUMPDEST PUSH1 0x40 MLOAD DUP1 SWAP2 SUB SWAP1 RETURN JUMPDEST PUSH1 0x60 PUSH1 0x3 DUP1 SLOAD PUSH2 0x285 SWAP1 PUSH2 0xF5B JUMP JUMPDEST DUP1 PUSH1 0x1F ADD PUSH1 0x20 DUP1 SWAP2 DIV MUL PUSH1 0x20 ADD PUSH1 0x40 MLOAD SWAP1 DUP2 ADD PUSH1 0x40 MSTORE DUP1 SWAP3 SWAP2 SWAP1 DUP2 DUP2 MSTORE PUSH1 0x20 ADD DUP3 DUP1 SLOAD PUSH2 0x2B1 SWAP1 PUSH2 0xF5B JUMP JUMPDEST DUP1 ISZERO PUSH2 0x2FE JUMPI DUP1 PUSH1 0x1F LT PUSH2 0x2D3 JUMPI PUSH2 0x100 DUP1 DUP4 SLOAD DIV MUL DUP4 MSTORE SWAP2 PUSH1 0x20 ADD SWAP2 PUSH2 0x2FE JUMP JUMPDEST DUP3 ADD SWAP2 SWAP1 PUSH1 0x0 MSTORE PUSH1 0x20 PUSH1 0x0 KECCAK256 SWAP1 JUMPDEST DUP2 SLOAD DUP2 MSTORE SWAP1 PUSH1 0x1 ADD SWAP1 PUSH1 0x20 ADD DUP1 DUP4 GT PUSH2 0x2E1 JUMPI DUP3 SWAP1 SUB PUSH1 0x1F AND DUP3 ADD SWAP2 JUMPDEST POP POP POP POP POP SWAP1 POP SWAP1 JUMP JUMPDEST PUSH1 0x0 PUSH2 0x31C PUSH2 0x315 PUSH2 0x77D JUMP JUMPDEST DUP5 DUP5 PUSH2 0x785 JUMP JUMPDEST PUSH1 0x1 SWAP1 POP SWAP3 SWAP2 POP POP JUMP JUMPDEST PUSH1 0x0 PUSH1 0x2 SLOAD SWAP1 POP SWAP1 JUMP JUMPDEST PUSH1 0x0 PUSH2 0x33D DUP5 DUP5 DUP5 PUSH2 0x94E JUMP JUMPDEST PUSH2 0x3FE DUP5 PUSH2 0x349 PUSH2 0x77D JUMP JUMPDEST PUSH2 0x3F9 DUP6 PUSH1 0x40 MLOAD DUP1 PUSH1 0x60 ADD PUSH1 0x40 MSTORE DUP1 PUSH1 0x28 DUP2 MSTORE PUSH1 0x20 ADD PUSH2 0x12FE PUSH1 0x28 SWAP2 CODECOPY PUSH1 0x1 PUSH1 0x0 DUP12 PUSH20 0xFFFFFFFFFFFFFFFFFFFFFFFFFFFFFFFFFFFFFFFF AND PUSH20 0xFFFFFFFFFFFFFFFFFFFFFFFFFFFFFFFFFFFFFFFF AND DUP2 MSTORE PUSH1 0x20 ADD SWAP1 DUP2 MSTORE PUSH1 0x20 ADD PUSH1 0x0 KECCAK256 PUSH1 0x0 PUSH2 0x3AF PUSH2 0x77D JUMP JUMPDEST PUSH20 0xFFFFFFFFFFFFFFFFFFFFFFFFFFFFFFFFFFFFFFFF AND PUSH20 0xFFFFFFFFFFFFFFFFFFFFFFFFFFFFFFFFFFFFFFFF AND DUP2 MSTORE PUSH1 0x20 ADD SWAP1 DUP2 MSTORE PUSH1 0x20 ADD PUSH1 0x0 KECCAK256 SLOAD PUSH2 0xBE1 SWAP1 SWAP3 SWAP2 SWAP1 PUSH4 0xFFFFFFFF AND JUMP JUMPDEST PUSH2 0x785 JUMP JUMPDEST PUSH1 0x1 SWAP1 POP SWAP4 SWAP3 POP POP POP JUMP JUMPDEST PUSH1 0x0 PUSH1 0x5 PUSH1 0x0 SWAP1 SLOAD SWAP1 PUSH2 0x100 EXP SWAP1 DIV PUSH1 0xFF AND SWAP1 POP SWAP1 JUMP JUMPDEST PUSH1 0x0 PUSH2 0x4C9 PUSH2 0x42D PUSH2 0x77D JUMP JUMPDEST DUP5 PUSH2 0x4C4 DUP6 PUSH1 0x1 PUSH1 0x0 PUSH2 0x43E PUSH2 0x77D JUMP JUMPDEST PUSH20 0xFFFFFFFFFFFFFFFFFFFFFFFFFFFFFFFFFFFFFFFF AND PUSH20 0xFFFFFFFFFFFFFFFFFFFFFFFFFFFFFFFFFFFFFFFF AND DUP2 MSTORE PUSH1 0x20 ADD SWAP1 DUP2 MSTORE PUSH1 0x20 ADD PUSH1 0x0 KECCAK256 PUSH1 0x0 DUP10 PUSH20 0xFFFFFFFFFFFFFFFFFFFFFFFFFFFFFFFFFFFFFFFF AND PUSH20 0xFFFFFFFFFFFFFFFFFFFFFFFFFFFFFFFFFFFFFFFF AND DUP2 MSTORE PUSH1 0x20 ADD SWAP1 DUP2 MSTORE PUSH1 0x20 ADD PUSH1 0x0 KECCAK256 SLOAD PUSH2 0x71F SWAP1 SWAP2 SWAP1 PUSH4 0xFFFFFFFF AND JUMP JUMPDEST PUSH2 0x785 JUMP JUMPDEST PUSH1 0x1 SWAP1 POP SWAP3 SWAP2 POP POP JUMP JUMPDEST PUSH1 0x0 DUP1 PUSH1 0x0 DUP4 PUSH20 0xFFFFFFFFFFFFFFFFFFFFFFFFFFFFFFFFFFFFFFFF AND PUSH20 0xFFFFFFFFFFFFFFFFFFFFFFFFFFFFFFFFFFFFFFFF AND DUP2 MSTORE PUSH1 0x20 ADD SWAP1 DUP2 MSTORE PUSH1 0x20 ADD PUSH1 0x0 KECCAK256 SLOAD SWAP1 POP SWAP2 SWAP1 POP JUMP JUMPDEST PUSH1 0x60 PUSH1 0x4 DUP1 SLOAD PUSH2 0x52A SWAP1 PUSH2 0xF5B JUMP JUMPDEST DUP1 PUSH1 0x1F ADD PUSH1 0x20 DUP1 SWAP2 DIV MUL PUSH1 0x20 ADD PUSH1 0x40 MLOAD SWAP1 DUP2 ADD PUSH1 0x40 MSTORE DUP1 SWAP3 SWAP2 SWAP1 DUP2 DUP2 MSTORE PUSH1 0x20 ADD DUP3 DUP1 SLOAD PUSH2 0x556 SWAP1 PUSH2 0xF5B JUMP JUMPDEST DUP1 ISZERO PUSH2 0x5A3 JUMPI DUP1 PUSH1 0x1F LT PUSH2 0x578 JUMPI PUSH2 0x100 DUP1 DUP4 SLOAD DIV MUL DUP4 MSTORE SWAP2 PUSH1 0x20 ADD SWAP2 PUSH2 0x5A3 JUMP JUMPDEST DUP3 ADD SWAP2 SWAP1 PUSH1 0x0 MSTORE PUSH1 0x20 PUSH1 0x0 KECCAK256 SWAP1 JUMPDEST DUP2 SLOAD DUP2 MSTORE SWAP1 PUSH1 0x1 ADD SWAP1 PUSH1 0x20 ADD DUP1 DUP4 GT PUSH2 0x586 JUMPI DUP3 SWAP1 SUB PUSH1 0x1F AND DUP3 ADD SWAP2 JUMPDEST POP POP POP POP POP SWAP1 POP SWAP1 JUMP JUMPDEST PUSH1 0x0 PUSH2 0x670 PUSH2 0x5BA PUSH2 0x77D JUMP JUMPDEST DUP5 PUSH2 0x66B DUP6 PUSH1 0x40 MLOAD DUP1 PUSH1 0x60 ADD PUSH1 0x40 MSTORE DUP1 PUSH1 0x25 DUP2 MSTORE PUSH1 0x20 ADD PUSH2 0x1326 PUSH1 0x25 SWAP2 CODECOPY PUSH1 0x1 PUSH1 0x0 PUSH2 0x5E4 PUSH2 0x77D JUMP JUMPDEST PUSH20 0xFFFFFFFFFFFFFFFFFFFFFFFFFFFFFFFFFFFFFFFF AND PUSH20 0xFFFFFFFFFFFFFFFFFFFFFFFFFFFFFFFFFFFFFFFF AND DUP2 MSTORE PUSH1 0x20 ADD SWAP1 DUP2 MSTORE PUSH1 0x20 ADD PUSH1 0x0 KECCAK256 PUSH1 0x0 DUP11 PUSH20 0xFFFFFFFFFFFFFFFFFFFFFFFFFFFFFFFFFFFFFFFF AND PUSH20 0xFFFFFFFFFFFFFFFFFFFFFFFFFFFFFFFFFFFFFFFF AND DUP2 MSTORE PUSH1 0x20 ADD SWAP1 DUP2 MSTORE PUSH1 0x20 ADD PUSH1 0x0 KECCAK256 SLOAD PUSH2 0xBE1 SWAP1 SWAP3 SWAP2 SWAP1 PUSH4 0xFFFFFFFF AND JUMP JUMPDEST PUSH2 0x785 JUMP JUMPDEST PUSH1 0x1 SWAP1 POP SWAP3 SWAP2 POP POP JUMP JUMPDEST PUSH1 0x0 PUSH2 0x68E PUSH2 0x687 PUSH2 0x77D JUMP JUMPDEST DUP5 DUP5 PUSH2 0x94E JUMP JUMPDEST PUSH1 0x1 SWAP1 POP SWAP3 SWAP2 POP POP JUMP JUMPDEST PUSH1 0x0 PUSH1 0x1 PUSH1 0x0 DUP5 PUSH20 0xFFFFFFFFFFFFFFFFFFFFFFFFFFFFFFFFFFFFFFFF AND PUSH20 0xFFFFFFFFFFFFFFFFFFFFFFFFFFFFFFFFFFFFFFFF AND DUP2 MSTORE PUSH1 0x20 ADD SWAP1 DUP2 MSTORE PUSH1 0x20 ADD PUSH1 0x0 KECCAK256 PUSH1 0x0 DUP4 PUSH20 0xFFFFFFFFFFFFFFFFFFFFFFFFFFFFFFFFFFFFFFFF AND PUSH20 0xFFFFFFFFFFFFFFFFFFFFFFFFFFFFFFFFFFFFFFFF AND DUP2 MSTORE PUSH1 0x20 ADD SWAP1 DUP2 MSTORE PUSH1 0x20 ADD PUSH1 0x0 KECCAK256 SLOAD SWAP1 POP SWAP3 SWAP2 POP POP JUMP JUMPDEST PUSH1 0x0 DUP1 DUP3 DUP5 PUSH2 0x72E SWAP2 SWAP1 PUSH2 0xFBB JUMP JUMPDEST SWAP1 POP DUP4 DUP2 LT ISZERO PUSH2 0x773 JUMPI PUSH1 0x40 MLOAD PUSH32 0x8C379A000000000000000000000000000000000000000000000000000000000 DUP2 MSTORE PUSH1 0x4 ADD PUSH2 0x76A SWAP1 PUSH2 0x103B JUMP JUMPDEST PUSH1 0x40 MLOAD DUP1 SWAP2 SUB SWAP1 REVERT JUMPDEST DUP1 SWAP2 POP POP SWAP3 SWAP2 POP POP JUMP JUMPDEST PUSH1 0x0 CALLER SWAP1 POP SWAP1 JUMP JUMPDEST PUSH1 0x0 PUSH20 0xFFFFFFFFFFFFFFFFFFFFFFFFFFFFFFFFFFFFFFFF AND DUP4 PUSH20 0xFFFFFFFFFFFFFFFFFFFFFFFFFFFFFFFFFFFFFFFF AND SUB PUSH2 0x7F4 JUMPI PUSH1 0x40 MLOAD PUSH32 0x8C379A000000000000000000000000000000000000000000000000000000000 DUP2 MSTORE PUSH1 0x4 ADD PUSH2 0x7EB SWAP1 PUSH2 0x10CD JUMP JUMPDEST PUSH1 0x40 MLOAD DUP1 SWAP2 SUB SWAP1 REVERT JUMPDEST PUSH1 0x0 PUSH20 0xFFFFFFFFFFFFFFFFFFFFFFFFFFFFFFFFFFFFFFFF AND DUP3 PUSH20 0xFFFFFFFFFFFFFFFFFFFFFFFFFFFFFFFFFFFFFFFF AND SUB PUSH2 0x863 JUMPI PUSH1 0x40 MLOAD PUSH32 0x8C379A000000000000000000000000000000000000000000000000000000000 DUP2 MSTORE PUSH1 0x4 ADD PUSH2 0x85A SWAP1 PUSH2 0x115F JUMP JUMPDEST PUSH1 0x40 MLOAD DUP1 SWAP2 SUB SWAP1 REVERT JUMPDEST DUP1 PUSH1 0x1 PUSH1 0x0 DUP6 PUSH20 0xFFFFFFFFFFFFFFFFFFFFFFFFFFFFFFFFFFFFFFFF AND PUSH20 0xFFFFFFFFFFFFFFFFFFFFFFFFFFFFFFFFFFFFFFFF AND DUP2 MSTORE PUSH1 0x20 ADD SWAP1 DUP2 MSTORE PUSH1 0x20 ADD PUSH1 0x0 KECCAK256 PUSH1 0x0 DUP5 PUSH20 0xFFFFFFFFFFFFFFFFFFFFFFFFFFFFFFFFFFFFFFFF AND PUSH20 0xFFFFFFFFFFFFFFFFFFFFFFFFFFFFFFFFFFFFFFFF AND DUP2 MSTORE PUSH1 0x20 ADD SWAP1 DUP2 MSTORE PUSH1 0x20 ADD PUSH1 0x0 KECCAK256 DUP2 SWAP1 SSTORE POP DUP2 PUSH20 0xFFFFFFFFFFFFFFFFFFFFFFFFFFFFFFFFFFFFFFFF AND DUP4 PUSH20 0xFFFFFFFFFFFFFFFFFFFFFFFFFFFFFFFFFFFFFFFF AND PUSH32 0x8C5BE1E5EBEC7D5BD14F71427D1E84F3DD0314C0F7B2291E5B200AC8C7C3B925 DUP4 PUSH1 0x40 MLOAD PUSH2 0x941 SWAP2 SWAP1 PUSH2 0xE1A JUMP JUMPDEST PUSH1 0x40 MLOAD DUP1 SWAP2 SUB SWAP1 LOG3 POP POP POP JUMP JUMPDEST PUSH1 0x0 PUSH20 0xFFFFFFFFFFFFFFFFFFFFFFFFFFFFFFFFFFFFFFFF AND DUP4 PUSH20 0xFFFFFFFFFFFFFFFFFFFFFFFFFFFFFFFFFFFFFFFF AND SUB PUSH2 0x9BD JUMPI PUSH1 0x40 MLOAD PUSH32 0x8C379A000000000000000000000000000000000000000000000000000000000 DUP2 MSTORE PUSH1 0x4 ADD PUSH2 0x9B4 SWAP1 PUSH2 0x11F1 JUMP JUMPDEST PUSH1 0x40 MLOAD DUP1 SWAP2 SUB SWAP1 REVERT JUMPDEST PUSH1 0x0 PUSH20 0xFFFFFFFFFFFFFFFFFFFFFFFFFFFFFFFFFFFFFFFF AND DUP3 PUSH20 0xFFFFFFFFFFFFFFFFFFFFFFFFFFFFFFFFFFFFFFFF AND SUB PUSH2 0xA2C JUMPI PUSH1 0x40 MLOAD PUSH32 0x8C379A000000000000000000000000000000000000000000000000000000000 DUP2 MSTORE PUSH1 0x4 ADD PUSH2 0xA23 SWAP1 PUSH2 0x1283 JUMP JUMPDEST PUSH1 0x40 MLOAD DUP1 SWAP2 SUB SWAP1 REVERT JUMPDEST PUSH2 0xA37 DUP4 DUP4 DUP4 PUSH2 0xC45 JUMP JUMPDEST PUSH2 0xAA2 DUP2 PUSH1 0x40 MLOAD DUP1 PUSH1 0x60 ADD PUSH1 0x40 MSTORE DUP1 PUSH1 0x26 DUP2 MSTORE PUSH1 0x20 ADD PUSH2 0x12D8 PUSH1 0x26 SWAP2 CODECOPY PUSH1 0x0 DUP1 DUP8 PUSH20 0xFFFFFFFFFFFFFFFFFFFFFFFFFFFFFFFFFFFFFFFF AND PUSH20 0xFFFFFFFFFFFFFFFFFFFFFFFFFFFFFFFFFFFFFFFF AND DUP2 MSTORE PUSH1 0x20 ADD SWAP1 DUP2 MSTORE PUSH1 0x20 ADD PUSH1 0x0 KECCAK256 SLOAD PUSH2 0xBE1 SWAP1 SWAP3 SWAP2 SWAP1 PUSH4 0xFFFFFFFF AND JUMP JUMPDEST PUSH1 0x0 DUP1 DUP6 PUSH20 0xFFFFFFFFFFFFFFFFFFFFFFFFFFFFFFFFFFFFFFFF AND PUSH20 0xFFFFFFFFFFFFFFFFFFFFFFFFFFFFFFFFFFFFFFFF AND DUP2 MSTORE PUSH1 0x20 ADD SWAP1 DUP2 MSTORE PUSH1 0x20 ADD PUSH1 0x0 KECCAK256 DUP2 SWAP1 SSTORE POP PUSH2 0xB35 DUP2 PUSH1 0x0 DUP1 DUP6 PUSH20 0xFFFFFFFFFFFFFFFFFFFFFFFFFFFFFFFFFFFFFFFF AND PUSH20 0xFFFFFFFFFFFFFFFFFFFFFFFFFFFFFFFFFFFFFFFF AND DUP2 MSTORE PUSH1 0x20 ADD SWAP1 DUP2 MSTORE PUSH1 0x20 ADD PUSH1 0x0 KECCAK256 SLOAD PUSH2 0x71F SWAP1 SWAP2 SWAP1 PUSH4 0xFFFFFFFF AND JUMP JUMPDEST PUSH1 0x0 DUP1 DUP5 PUSH20 0xFFFFFFFFFFFFFFFFFFFFFFFFFFFFFFFFFFFFFFFF AND PUSH20 0xFFFFFFFFFFFFFFFFFFFFFFFFFFFFFFFFFFFFFFFF AND DUP2 MSTORE PUSH1 0x20 ADD SWAP1 DUP2 MSTORE PUSH1 0x20 ADD PUSH1 0x0 KECCAK256 DUP2 SWAP1 SSTORE POP DUP2 PUSH20 0xFFFFFFFFFFFFFFFFFFFFFFFFFFFFFFFFFFFFFFFF AND DUP4 PUSH20 0xFFFFFFFFFFFFFFFFFFFFFFFFFFFFFFFFFFFFFFFF AND PUSH32 0xDDF252AD1BE2C89B69C2B068FC378DAA952BA7F163C4A11628F55A4DF523B3EF DUP4 PUSH1 0x40 MLOAD PUSH2 0xBD4 SWAP2 SWAP1 PUSH2 0xE1A JUMP JUMPDEST PUSH1 0x40 MLOAD DUP1 SWAP2 SUB SWAP1 LOG3 POP POP POP JUMP JUMPDEST PUSH1 0x0 DUP4 DUP4 GT ISZERO DUP3 SWAP1 PUSH2 0xC29 JUMPI PUSH1 0x40 MLOAD PUSH32 0x8C379A000000000000000000000000000000000000000000000000000000000 DUP2 MSTORE PUSH1 0x4 ADD PUSH2 0xC20 SWAP2 SWAP1 PUSH2 0xCDA JUMP JUMPDEST PUSH1 0x40 MLOAD DUP1 SWAP2 SUB SWAP1 REVERT JUMPDEST POP PUSH1 0x0 DUP4 DUP6 PUSH2 0xC38 SWAP2 SWAP1 PUSH2 0x12A3 JUMP JUMPDEST SWAP1 POP DUP1 SWAP2 POP POP SWAP4 SWAP3 POP POP POP JUMP JUMPDEST POP POP POP JUMP JUMPDEST PUSH1 0x0 DUP2 MLOAD SWAP1 POP SWAP2 SWAP1 POP JUMP JUMPDEST PUSH1 0x0 DUP3 DUP3 MSTORE PUSH1 0x20 DUP3 ADD SWAP1 POP SWAP3 SWAP2 POP POP JUMP JUMPDEST PUSH1 0x0 JUMPDEST DUP4 DUP2 LT ISZERO PUSH2 0xC84 JUMPI DUP1 DUP3 ADD MLOAD DUP2 DUP5 ADD MSTORE PUSH1 0x20 DUP2 ADD SWAP1 POP PUSH2 0xC69 JUMP JUMPDEST PUSH1 0x0 DUP5 DUP5 ADD MSTORE POP POP POP POP JUMP JUMPDEST PUSH1 0x0 PUSH1 0x1F NOT PUSH1 0x1F DUP4 ADD AND SWAP1 POP SWAP2 SWAP1 POP JUMP JUMPDEST PUSH1 0x0 PUSH2 0xCAC DUP3 PUSH2 0xC4A JUMP JUMPDEST PUSH2 0xCB6 DUP2 DUP6 PUSH2 0xC55 JUMP JUMPDEST SWAP4 POP PUSH2 0xCC6 DUP2 DUP6 PUSH1 0x20 DUP7 ADD PUSH2 0xC66 JUMP JUMPDEST PUSH2 0xCCF DUP2 PUSH2 0xC90 JUMP JUMPDEST DUP5 ADD SWAP2 POP POP SWAP3 SWAP2 POP POP JUMP JUMPDEST PUSH1 0x0 PUSH1 0x20 DUP3 ADD SWAP1 POP DUP2 DUP2 SUB PUSH1 0x0 DUP4 ADD MSTORE PUSH2 0xCF4 DUP2 DUP5 PUSH2 0xCA1 JUMP JUMPDEST SWAP1 POP SWAP3 SWAP2 POP POP JUMP JUMPDEST PUSH1 0x0 DUP1 REVERT JUMPDEST PUSH1 0x0 PUSH20 0xFFFFFFFFFFFFFFFFFFFFFFFFFFFFFFFFFFFFFFFF DUP3 AND SWAP1 POP SWAP2 SWAP1 POP JUMP JUMPDEST PUSH1 0x0 PUSH2 0xD2C DUP3 PUSH2 0xD01 JUMP JUMPDEST SWAP1 POP SWAP2 SWAP1 POP JUMP JUMPDEST PUSH2 0xD3C DUP2 PUSH2 0xD21 JUMP JUMPDEST DUP2 EQ PUSH2 0xD47 JUMPI PUSH1 0x0 DUP1 REVERT JUMPDEST POP JUMP JUMPDEST PUSH1 0x0 DUP2 CALLDATALOAD SWAP1 POP PUSH2 0xD59 DUP2 PUSH2 0xD33 JUMP JUMPDEST SWAP3 SWAP2 POP POP JUMP JUMPDEST PUSH1 0x0 DUP2 SWAP1 POP SWAP2 SWAP1 POP JUMP JUMPDEST PUSH2 0xD72 DUP2 PUSH2 0xD5F JUMP JUMPDEST DUP2 EQ PUSH2 0xD7D JUMPI PUSH1 0x0 DUP1 REVERT JUMPDEST POP JUMP JUMPDEST PUSH1 0x0 DUP2 CALLDATALOAD SWAP1 POP PUSH2 0xD8F DUP2 PUSH2 0xD69 JUMP JUMPDEST SWAP3 SWAP2 POP POP JUMP JUMPDEST PUSH1 0x0 DUP1 PUSH1 0x40 DUP4 DUP6 SUB SLT ISZERO PUSH2 0xDAC JUMPI PUSH2 0xDAB PUSH2 0xCFC JUMP JUMPDEST JUMPDEST PUSH1 0x0 PUSH2 0xDBA DUP6 DUP3 DUP7 ADD PUSH2 0xD4A JUMP JUMPDEST SWAP3 POP POP PUSH1 0x20 PUSH2 0xDCB DUP6 DUP3 DUP7 ADD PUSH2 0xD80 JUMP JUMPDEST SWAP2 POP POP SWAP3 POP SWAP3 SWAP1 POP JUMP JUMPDEST PUSH1 0x0 DUP2 ISZERO ISZERO SWAP1 POP SWAP2 SWAP1 POP JUMP JUMPDEST PUSH2 0xDEA DUP2 PUSH2 0xDD5 JUMP JUMPDEST DUP3 MSTORE POP POP JUMP JUMPDEST PUSH1 0x0 PUSH1 0x20 DUP3 ADD SWAP1 POP PUSH2 0xE05 PUSH1 0x0 DUP4 ADD DUP5 PUSH2 0xDE1 JUMP JUMPDEST SWAP3 SWAP2 POP POP JUMP JUMPDEST PUSH2 0xE14 DUP2 PUSH2 0xD5F JUMP JUMPDEST DUP3 MSTORE POP POP JUMP JUMPDEST PUSH1 0x0 PUSH1 0x20 DUP3 ADD SWAP1 POP PUSH2 0xE2F PUSH1 0x0 DUP4 ADD DUP5 PUSH2 0xE0B JUMP JUMPDEST SWAP3 SWAP2 POP POP JUMP JUMPDEST PUSH1 0x0 DUP1 PUSH1 0x0 PUSH1 0x60 DUP5 DUP7 SUB SLT ISZERO PUSH2 0xE4E JUMPI PUSH2 0xE4D PUSH2 0xCFC JUMP JUMPDEST JUMPDEST PUSH1 0x0 PUSH2 0xE5C DUP7 DUP3 DUP8 ADD PUSH2 0xD4A JUMP JUMPDEST SWAP4 POP POP PUSH1 0x20 PUSH2 0xE6D DUP7 DUP3 DUP8 ADD PUSH2 0xD4A JUMP JUMPDEST SWAP3 POP POP PUSH1 0x40 PUSH2 0xE7E DUP7 DUP3 DUP8 ADD PUSH2 0xD80 JUMP JUMPDEST SWAP2 POP POP SWAP3 POP SWAP3 POP SWAP3 JUMP JUMPDEST PUSH1 0x0 PUSH1 0xFF DUP3 AND SWAP1 POP SWAP2 SWAP1 POP JUMP JUMPDEST PUSH2 0xE9E DUP2 PUSH2 0xE88 JUMP JUMPDEST DUP3 MSTORE POP POP JUMP JUMPDEST PUSH1 0x0 PUSH1 0x20 DUP3 ADD SWAP1 POP PUSH2 0xEB9 PUSH1 0x0 DUP4 ADD DUP5 PUSH2 0xE95 JUMP JUMPDEST SWAP3 SWAP2 POP POP JUMP JUMPDEST PUSH1 0x0 PUSH1 0x20 DUP3 DUP5 SUB SLT ISZERO PUSH2 0xED5 JUMPI PUSH2 0xED4 PUSH2 0xCFC JUMP JUMPDEST JUMPDEST PUSH1 0x0 PUSH2 0xEE3 DUP5 DUP3 DUP6 ADD PUSH2 0xD4A JUMP JUMPDEST SWAP2 POP POP SWAP3 SWAP2 POP POP JUMP JUMPDEST PUSH1 0x0 DUP1 PUSH1 0x40 DUP4 DUP6 SUB SLT ISZERO PUSH2 0xF03 JUMPI PUSH2 0xF02 PUSH2 0xCFC JUMP JUMPDEST JUMPDEST PUSH1 0x0 PUSH2 0xF11 DUP6 DUP3 DUP7 ADD PUSH2 0xD4A JUMP JUMPDEST SWAP3 POP POP PUSH1 0x20 PUSH2 0xF22 DUP6 DUP3 DUP7 ADD PUSH2 0xD4A JUMP JUMPDEST SWAP2 POP POP SWAP3 POP SWAP3 SWAP1 POP JUMP JUMPDEST PUSH32 0x4E487B7100000000000000000000000000000000000000000000000000000000 PUSH1 0x0 MSTORE PUSH1 0x22 PUSH1 0x4 MSTORE PUSH1 0x24 PUSH1 0x0 REVERT JUMPDEST PUSH1 0x0 PUSH1 0x2 DUP3 DIV SWAP1 POP PUSH1 0x1 DUP3 AND DUP1 PUSH2 0xF73 JUMPI PUSH1 0x7F DUP3 AND SWAP2 POP JUMPDEST PUSH1 0x20 DUP3 LT DUP2 SUB PUSH2 0xF86 JUMPI PUSH2 0xF85 PUSH2 0xF2C JUMP JUMPDEST JUMPDEST POP SWAP2 SWAP1 POP JUMP JUMPDEST PUSH32 0x4E487B7100000000000000000000000000000000000000000000000000000000 PUSH1 0x0 MSTORE PUSH1 0x11 PUSH1 0x4 MSTORE PUSH1 0x24 PUSH1 0x0 REVERT JUMPDEST PUSH1 0x0 PUSH2 0xFC6 DUP3 PUSH2 0xD5F JUMP JUMPDEST SWAP2 POP PUSH2 0xFD1 DUP4 PUSH2 0xD5F JUMP JUMPDEST SWAP3 POP DUP3 DUP3 ADD SWAP1 POP DUP1 DUP3 GT ISZERO PUSH2 0xFE9 JUMPI PUSH2 0xFE8 PUSH2 0xF8C JUMP JUMPDEST JUMPDEST SWAP3 SWAP2 POP POP JUMP JUMPDEST PUSH32 0x536166654D6174683A206164646974696F6E206F766572666C6F770000000000 PUSH1 0x0 DUP3 ADD MSTORE POP JUMP JUMPDEST PUSH1 0x0 PUSH2 0x1025 PUSH1 0x1B DUP4 PUSH2 0xC55 JUMP JUMPDEST SWAP2 POP PUSH2 0x1030 DUP3 PUSH2 0xFEF JUMP JUMPDEST PUSH1 0x20 DUP3 ADD SWAP1 POP SWAP2 SWAP1 POP JUMP JUMPDEST PUSH1 0x0 PUSH1 0x20 DUP3 ADD SWAP1 POP DUP2 DUP2 SUB PUSH1 0x0 DUP4 ADD MSTORE PUSH2 0x1054 DUP2 PUSH2 0x1018 JUMP JUMPDEST SWAP1 POP SWAP2 SWAP1 POP JUMP JUMPDEST PUSH32 0x45524332303A20617070726F76652066726F6D20746865207A65726F20616464 PUSH1 0x0 DUP3 ADD MSTORE PUSH32 0x7265737300000000000000000000000000000000000000000000000000000000 PUSH1 0x20 DUP3 ADD MSTORE POP JUMP JUMPDEST PUSH1 0x0 PUSH2 0x10B7 PUSH1 0x24 DUP4 PUSH2 0xC55 JUMP JUMPDEST SWAP2 POP PUSH2 0x10C2 DUP3 PUSH2 0x105B JUMP JUMPDEST PUSH1 0x40 DUP3 ADD SWAP1 POP SWAP2 SWAP1 POP JUMP JUMPDEST PUSH1 0x0 PUSH1 0x20 DUP3 ADD SWAP1 POP DUP2 DUP2 SUB PUSH1 0x0 DUP4 ADD MSTORE PUSH2 0x10E6 DUP2 PUSH2 0x10AA JUMP JUMPDEST SWAP1 POP SWAP2 SWAP1 POP JUMP JUMPDEST PUSH32 0x45524332303A20617070726F766520746F20746865207A65726F206164647265 PUSH1 0x0 DUP3 ADD MSTORE PUSH32 0x7373000000000000000000000000000000000000000000000000000000000000 PUSH1 0x20 DUP3 ADD MSTORE POP JUMP JUMPDEST PUSH1 0x0 PUSH2 0x1149 PUSH1 0x22 DUP4 PUSH2 0xC55 JUMP JUMPDEST SWAP2 POP PUSH2 0x1154 DUP3 PUSH2 0x10ED JUMP JUMPDEST PUSH1 0x40 DUP3 ADD SWAP1 POP SWAP2 SWAP1 POP JUMP JUMPDEST PUSH1 0x0 PUSH1 0x20 DUP3 ADD SWAP1 POP DUP2 DUP2 SUB PUSH1 0x0 DUP4 ADD MSTORE PUSH2 0x1178 DUP2 PUSH2 0x113C JUMP JUMPDEST SWAP1 POP SWAP2 SWAP1 POP JUMP JUMPDEST PUSH32 0x45524332303A207472616E736665722066726F6D20746865207A65726F206164 PUSH1 0x0 DUP3 ADD MSTORE PUSH32 0x6472657373000000000000000000000000000000000000000000000000000000 PUSH1 0x20 DUP3 ADD MSTORE POP JUMP JUMPDEST PUSH1 0x0 PUSH2 0x11DB PUSH1 0x25 DUP4 PUSH2 0xC55 JUMP JUMPDEST SWAP2 POP PUSH2 0x11E6 DUP3 PUSH2 0x117F JUMP JUMPDEST PUSH1 0x40 DUP3 ADD SWAP1 POP SWAP2 SWAP1 POP JUMP JUMPDEST PUSH1 0x0 PUSH1 0x20 DUP3 ADD SWAP1 POP DUP2 DUP2 SUB PUSH1 0x0 DUP4 ADD MSTORE PUSH2 0x120A DUP2 PUSH2 0x11CE JUMP JUMPDEST SWAP1 POP SWAP2 SWAP1 POP JUMP JUMPDEST PUSH32 0x45524332303A207472616E7366657220746F20746865207A65726F2061646472 PUSH1 0x0 DUP3 ADD MSTORE PUSH32 0x6573730000000000000000000000000000000000000000000000000000000000 PUSH1 0x20 DUP3 ADD MSTORE POP JUMP JUMPDEST PUSH1 0x0 PUSH2 0x126D PUSH1 0x23 DUP4 PUSH2 0xC55 JUMP JUMPDEST SWAP2 POP PUSH2 0x1278 DUP3 PUSH2 0x1211 JUMP JUMPDEST PUSH1 0x40 DUP3 ADD SWAP1 POP SWAP2 SWAP1 POP JUMP JUMPDEST PUSH1 0x0 PUSH1 0x20 DUP3 ADD SWAP1 POP DUP2 DUP2 SUB PUSH1 0x0 DUP4 ADD MSTORE PUSH2 0x129C DUP2 PUSH2 0x1260 JUMP JUMPDEST SWAP1 POP SWAP2 SWAP1 POP JUMP JUMPDEST PUSH1 0x0 PUSH2 0x12AE DUP3 PUSH2 0xD5F JUMP JUMPDEST SWAP2 POP PUSH2 0x12B9 DUP4 PUSH2 0xD5F JUMP JUMPDEST SWAP3 POP DUP3 DUP3 SUB SWAP1 POP DUP2 DUP2 GT ISZERO PUSH2 0x12D1 JUMPI PUSH2 0x12D0 PUSH2 0xF8C JUMP JUMPDEST JUMPDEST SWAP3 SWAP2 POP POP JUMP INVALID GASLIMIT MSTORE NUMBER ORIGIN ADDRESS GASPRICE KECCAK256 PUSH21 0x72616E7366657220616D6F756E7420657863656564 PUSH20 0x2062616C616E636545524332303A207472616E73 PUSH7 0x657220616D6F75 PUSH15 0x74206578636565647320616C6C6F77 PUSH2 0x6E63 PUSH6 0x45524332303A KECCAK256 PUSH5 0x6563726561 PUSH20 0x656420616C6C6F77616E63652062656C6F77207A PUSH6 0x726FA2646970 PUSH7 0x73582212200EAE 0xD8 INVALID COINBASE PUSH2 0xE57 SELFBALANCE CREATE2 0xED PUSH28 0xF7F20B6CCD4C846FCB3290CAA6F7434A38ED366364736F6C63430008 SLT STOP CALLER LOG2 PUSH5 0x6970667358 0x22 SLT KECCAK256 0xDB SIGNEXTEND SLOAD PUSH10 0x1C2705E4CAA6D0314DD3 DUP13 MLOAD PUSH6 0x42E852824CE6 0xCB SWAP15 DUP2 0xF7 0xE6 PUSH9 0xB6F36064736F6C6343 STOP ADDMOD SLT STOP CALLER "
				},
				"gasEstimates": {
					"creation": {
						"codeDepositCost": "1865600",
						"executionCost": "infinite",
						"totalCost": "infinite"
					},
					"external": {
						"creatToken(string,string,uint8,address,uint256)": "infinite",
						"newToken()": "2558",
						"owner()": "2533",
						"tokenAddress(string)": "infinite"
					}
				},
				"methodIdentifiers": {
					"creatToken(string,string,uint8,address,uint256)": "865e6153",
					"newToken()": "c42bd05a",
					"owner()": "8da5cb5b",
					"tokenAddress(string)": "6e30199f"
				}
			},
			"storageLayout": {
				"storage": [
					{
						"astId": 756,
						"contract": "contracts/Accessories/ERC20FACTORY.sol:ERC20Factory",
						"label": "owner",
						"offset": 0,
						"slot": "0",
						"type": "t_address"
					},
					{
						"astId": 760,
						"contract": "contracts/Accessories/ERC20FACTORY.sol:ERC20Factory",
						"label": "tokenAddress",
						"offset": 0,
						"slot": "1",
						"type": "t_mapping(t_string_memory_ptr,t_address)"
					},
					{
						"astId": 772,
						"contract": "contracts/Accessories/ERC20FACTORY.sol:ERC20Factory",
						"label": "newToken",
						"offset": 0,
						"slot": "2",
						"type": "t_address"
					}
				],
				"types": {
					"t_address": {
						"encoding": "inplace",
						"label": "address",
						"numberOfBytes": "20"
					},
					"t_mapping(t_string_memory_ptr,t_address)": {
						"encoding": "mapping",
						"key": "t_string_memory_ptr",
						"label": "mapping(string => address)",
						"numberOfBytes": "32",
						"value": "t_address"
					},
					"t_string_memory_ptr": {
						"encoding": "bytes",
						"label": "string",
						"numberOfBytes": "32"
					}
				}
			},
			"userdoc": {
				"kind": "user",
				"methods": {},
				"version": 1
			}
		}
	}
}