{
	"contracts/erc20/SBT-007.sol": {
		"FDSBT007": {
			"abi": [
				{
					"inputs": [],
					"stateMutability": "nonpayable",
					"type": "constructor"
				},
				{
					"anonymous": false,
					"inputs": [
						{
							"indexed": true,
							"internalType": "address",
							"name": "Admin",
							"type": "address"
						},
						{
							"indexed": true,
							"internalType": "address",
							"name": "newAdmin",
							"type": "address"
						}
					],
					"name": "AdminChange",
					"type": "event"
				},
				{
					"anonymous": false,
					"inputs": [
						{
							"indexed": true,
							"internalType": "address",
							"name": "owner",
							"type": "address"
						},
						{
							"indexed": true,
							"internalType": "address",
							"name": "spender",
							"type": "address"
						},
						{
							"indexed": false,
							"internalType": "uint256",
							"name": "value",
							"type": "uint256"
						}
					],
					"name": "Approval",
					"type": "event"
				},
				{
					"anonymous": false,
					"inputs": [
						{
							"indexed": true,
							"internalType": "address",
							"name": "delegate",
							"type": "address"
						},
						{
							"indexed": false,
							"internalType": "uint256",
							"name": "previousBalance",
							"type": "uint256"
						},
						{
							"indexed": false,
							"internalType": "uint256",
							"name": "newBalance",
							"type": "uint256"
						}
					],
					"name": "DelegateVotesChanged",
					"type": "event"
				},
				{
					"anonymous": false,
					"inputs": [
						{
							"indexed": true,
							"internalType": "address",
							"name": "previousOwner",
							"type": "address"
						},
						{
							"indexed": true,
							"internalType": "address",
							"name": "newOwner",
							"type": "address"
						}
					],
					"name": "OwnershipTransferred",
					"type": "event"
				},
				{
					"anonymous": false,
					"inputs": [
						{
							"indexed": true,
							"internalType": "address",
							"name": "from",
							"type": "address"
						},
						{
							"indexed": true,
							"internalType": "address",
							"name": "to",
							"type": "address"
						},
						{
							"indexed": false,
							"internalType": "uint256",
							"name": "value",
							"type": "uint256"
						}
					],
					"name": "Transfer",
					"type": "event"
				},
				{
					"inputs": [],
					"name": "LockAddress",
					"outputs": [
						{
							"internalType": "address",
							"name": "",
							"type": "address"
						}
					],
					"stateMutability": "view",
					"type": "function"
				},
				{
					"inputs": [],
					"name": "admin",
					"outputs": [
						{
							"internalType": "address",
							"name": "",
							"type": "address"
						}
					],
					"stateMutability": "view",
					"type": "function"
				},
				{
					"inputs": [
						{
							"internalType": "address",
							"name": "owner",
							"type": "address"
						},
						{
							"internalType": "address",
							"name": "spender",
							"type": "address"
						}
					],
					"name": "allowance",
					"outputs": [
						{
							"internalType": "uint256",
							"name": "",
							"type": "uint256"
						}
					],
					"stateMutability": "view",
					"type": "function"
				},
				{
					"inputs": [
						{
							"internalType": "address",
							"name": "spender",
							"type": "address"
						},
						{
							"internalType": "uint256",
							"name": "amount",
							"type": "uint256"
						}
					],
					"name": "approve",
					"outputs": [
						{
							"internalType": "bool",
							"name": "",
							"type": "bool"
						}
					],
					"stateMutability": "nonpayable",
					"type": "function"
				},
				{
					"inputs": [
						{
							"internalType": "address",
							"name": "account",
							"type": "address"
						}
					],
					"name": "balanceOf",
					"outputs": [
						{
							"internalType": "uint256",
							"name": "",
							"type": "uint256"
						}
					],
					"stateMutability": "view",
					"type": "function"
				},
				{
					"inputs": [
						{
							"internalType": "address",
							"name": "account",
							"type": "address"
						},
						{
							"internalType": "uint256",
							"name": "amount",
							"type": "uint256"
						}
					],
					"name": "burn",
					"outputs": [],
					"stateMutability": "nonpayable",
					"type": "function"
				},
				{
					"inputs": [
						{
							"internalType": "address",
							"name": "",
							"type": "address"
						},
						{
							"internalType": "uint32",
							"name": "",
							"type": "uint32"
						}
					],
					"name": "checkpoints",
					"outputs": [
						{
							"internalType": "uint32",
							"name": "fromBlock",
							"type": "uint32"
						},
						{
							"internalType": "uint96",
							"name": "votes",
							"type": "uint96"
						}
					],
					"stateMutability": "view",
					"type": "function"
				},
				{
					"inputs": [],
					"name": "decimals",
					"outputs": [
						{
							"internalType": "uint8",
							"name": "",
							"type": "uint8"
						}
					],
					"stateMutability": "view",
					"type": "function"
				},
				{
					"inputs": [
						{
							"internalType": "address",
							"name": "spender",
							"type": "address"
						},
						{
							"internalType": "uint256",
							"name": "subtractedValue",
							"type": "uint256"
						}
					],
					"name": "decreaseAllowance",
					"outputs": [
						{
							"internalType": "bool",
							"name": "",
							"type": "bool"
						}
					],
					"stateMutability": "nonpayable",
					"type": "function"
				},
				{
					"inputs": [],
					"name": "fireSeed",
					"outputs": [
						{
							"internalType": "address",
							"name": "",
							"type": "address"
						}
					],
					"stateMutability": "view",
					"type": "function"
				},
				{
					"inputs": [],
					"name": "fireSoul",
					"outputs": [
						{
							"internalType": "address",
							"name": "",
							"type": "address"
						}
					],
					"stateMutability": "view",
					"type": "function"
				},
				{
					"inputs": [
						{
							"internalType": "address",
							"name": "account",
							"type": "address"
						}
					],
					"name": "getCurrentVotes",
					"outputs": [
						{
							"internalType": "uint96",
							"name": "",
							"type": "uint96"
						}
					],
					"stateMutability": "view",
					"type": "function"
				},
				{
					"inputs": [
						{
							"internalType": "address",
							"name": "account",
							"type": "address"
						},
						{
							"internalType": "uint256",
							"name": "blockNumber",
							"type": "uint256"
						}
					],
					"name": "getPriorVotes",
					"outputs": [
						{
							"internalType": "uint96",
							"name": "",
							"type": "uint96"
						}
					],
					"stateMutability": "view",
					"type": "function"
				},
				{
					"inputs": [
						{
							"internalType": "address",
							"name": "spender",
							"type": "address"
						},
						{
							"internalType": "uint256",
							"name": "addedValue",
							"type": "uint256"
						}
					],
					"name": "increaseAllowance",
					"outputs": [
						{
							"internalType": "bool",
							"name": "",
							"type": "bool"
						}
					],
					"stateMutability": "nonpayable",
					"type": "function"
				},
				{
					"inputs": [
						{
							"internalType": "address",
							"name": "account",
							"type": "address"
						},
						{
							"internalType": "uint256",
							"name": "amount",
							"type": "uint256"
						}
					],
					"name": "mint",
					"outputs": [],
					"stateMutability": "nonpayable",
					"type": "function"
				},
				{
					"inputs": [],
					"name": "minter",
					"outputs": [
						{
							"internalType": "address",
							"name": "",
							"type": "address"
						}
					],
					"stateMutability": "view",
					"type": "function"
				},
				{
					"inputs": [],
					"name": "name",
					"outputs": [
						{
							"internalType": "string",
							"name": "",
							"type": "string"
						}
					],
					"stateMutability": "view",
					"type": "function"
				},
				{
					"inputs": [
						{
							"internalType": "address",
							"name": "",
							"type": "address"
						}
					],
					"name": "numCheckpoints",
					"outputs": [
						{
							"internalType": "uint32",
							"name": "",
							"type": "uint32"
						}
					],
					"stateMutability": "view",
					"type": "function"
				},
				{
					"inputs": [],
					"name": "owner",
					"outputs": [
						{
							"internalType": "address",
							"name": "",
							"type": "address"
						}
					],
					"stateMutability": "view",
					"type": "function"
				},
				{
					"inputs": [],
					"name": "passPort",
					"outputs": [
						{
							"internalType": "address",
							"name": "",
							"type": "address"
						}
					],
					"stateMutability": "view",
					"type": "function"
				},
				{
					"inputs": [],
					"name": "renounceOwnership",
					"outputs": [],
					"stateMutability": "nonpayable",
					"type": "function"
				},
				{
					"inputs": [],
					"name": "setContractStatus",
					"outputs": [],
					"stateMutability": "nonpayable",
					"type": "function"
				},
				{
					"inputs": [
						{
							"internalType": "address",
							"name": "_fireSeed",
							"type": "address"
						}
					],
					"name": "setFireSeed",
					"outputs": [],
					"stateMutability": "nonpayable",
					"type": "function"
				},
				{
					"inputs": [
						{
							"internalType": "address",
							"name": "firesoulAddress",
							"type": "address"
						}
					],
					"name": "setFireSoul",
					"outputs": [],
					"stateMutability": "nonpayable",
					"type": "function"
				},
				{
					"inputs": [
						{
							"internalType": "address",
							"name": "_LockAddress",
							"type": "address"
						}
					],
					"name": "setMintExternalAddress",
					"outputs": [],
					"stateMutability": "nonpayable",
					"type": "function"
				},
				{
					"inputs": [
						{
							"internalType": "address",
							"name": "_passPort",
							"type": "address"
						}
					],
					"name": "setPassPort",
					"outputs": [],
					"stateMutability": "nonpayable",
					"type": "function"
				},
				{
					"inputs": [],
					"name": "status",
					"outputs": [
						{
							"internalType": "bool",
							"name": "",
							"type": "bool"
						}
					],
					"stateMutability": "view",
					"type": "function"
				},
				{
					"inputs": [],
					"name": "symbol",
					"outputs": [
						{
							"internalType": "string",
							"name": "",
							"type": "string"
						}
					],
					"stateMutability": "view",
					"type": "function"
				},
				{
					"inputs": [],
					"name": "totalSupply",
					"outputs": [
						{
							"internalType": "uint256",
							"name": "",
							"type": "uint256"
						}
					],
					"stateMutability": "view",
					"type": "function"
				},
				{
					"inputs": [
						{
							"internalType": "address",
							"name": "recipient",
							"type": "address"
						},
						{
							"internalType": "uint256",
							"name": "amount",
							"type": "uint256"
						}
					],
					"name": "transfer",
					"outputs": [
						{
							"internalType": "bool",
							"name": "",
							"type": "bool"
						}
					],
					"stateMutability": "nonpayable",
					"type": "function"
				},
				{
					"inputs": [
						{
							"internalType": "address",
							"name": "sender",
							"type": "address"
						},
						{
							"internalType": "address",
							"name": "recipient",
							"type": "address"
						},
						{
							"internalType": "uint256",
							"name": "amount",
							"type": "uint256"
						}
					],
					"name": "transferFrom",
					"outputs": [
						{
							"internalType": "bool",
							"name": "",
							"type": "bool"
						}
					],
					"stateMutability": "nonpayable",
					"type": "function"
				},
				{
					"inputs": [
						{
							"internalType": "address",
							"name": "newOwner",
							"type": "address"
						}
					],
					"name": "transferOwnership",
					"outputs": [],
					"stateMutability": "nonpayable",
					"type": "function"
				}
			],
			"devdoc": {
				"kind": "dev",
				"methods": {
					"allowance(address,address)": {
						"details": "See {IERC20-allowance}."
					},
					"approve(address,uint256)": {
						"details": "See {IERC20-approve}. NOTE: If `amount` is the maximum `uint256`, the allowance is not updated on `transferFrom`. This is semantically equivalent to an infinite approval. Requirements: - `spender` cannot be the zero address."
					},
					"balanceOf(address)": {
						"details": "See {IERC20-balanceOf}."
					},
					"decimals()": {
						"details": "Returns the number of decimals used to get its user representation. For example, if `decimals` equals `2`, a balance of `505` tokens should be displayed to a user as `5.05` (`505 / 10 ** 2`). Tokens usually opt for a value of 18, imitating the relationship between Ether and Wei. This is the value {ERC20} uses, unless this function is overridden; NOTE: This information is only used for _display_ purposes: it in no way affects any of the arithmetic of the contract, including {IERC20-balanceOf} and {IERC20-transfer}."
					},
					"decreaseAllowance(address,uint256)": {
						"details": "Atomically decreases the allowance granted to `spender` by the caller. This is an alternative to {approve} that can be used as a mitigation for problems described in {IERC20-approve}. Emits an {Approval} event indicating the updated allowance. Requirements: - `spender` cannot be the zero address. - `spender` must have allowance for the caller of at least `subtractedValue`."
					},
					"increaseAllowance(address,uint256)": {
						"details": "Atomically increases the allowance granted to `spender` by the caller. This is an alternative to {approve} that can be used as a mitigation for problems described in {IERC20-approve}. Emits an {Approval} event indicating the updated allowance. Requirements: - `spender` cannot be the zero address."
					},
					"name()": {
						"details": "Returns the name of the token."
					},
					"owner()": {
						"details": "Returns the address of the current owner."
					},
					"renounceOwnership()": {
						"details": "Leaves the contract without owner. It will not be possible to call `onlyOwner` functions anymore. Can only be called by the current owner. NOTE: Renouncing ownership will leave the contract without an owner, thereby removing any functionality that is only available to the owner."
					},
					"symbol()": {
						"details": "Returns the symbol of the token, usually a shorter version of the name."
					},
					"totalSupply()": {
						"details": "See {IERC20-totalSupply}."
					},
					"transferOwnership(address)": {
						"details": "Transfers ownership of the contract to a new account (`newOwner`). Can only be called by the current owner."
					}
				},
				"version": 1
			},
			"evm": {
				"assembly": "    /* \"contracts/erc20/SBT-007.sol\":336:6623  contract FDSBT007 is ERC20 ,Ownable{... */\n  mstore(0x40, 0x80)\n    /* \"contracts/erc20/SBT-007.sol\":487:513  bool public status = false */\n  0x05\n  dup1\n  sload\n  not(shl(0xa0, 0xff))\n  and\n  swap1\n  sstore\n    /* \"contracts/erc20/SBT-007.sol\":1031:1079  constructor() ERC20(\"SBT-007\", \"SBT-007\"){... */\n  callvalue\n  dup1\n  iszero\n  tag_1\n  jumpi\n  0x00\n  dup1\n  revert\ntag_1:\n  pop\n    /* \"@openzeppelin/contracts/token/ERC20/ERC20.sol\":1976:2089  constructor(string memory name_, string memory symbol_) {... */\n  0x40\n  dup1\n  mload\n  dup1\n  dup3\n  add\n  dup3\n  mstore\n  0x07\n  dup1\n  dup3\n  mstore\n  shl(0xc8, 0x5342542d303037)\n  0x20\n  dup1\n  dup5\n  add\n  dup3\n  swap1\n  mstore\n  dup5\n  mload\n  dup1\n  dup7\n  add\n  swap1\n  swap6\n  mstore\n  swap2\n  dup5\n  mstore\n  swap1\n  dup4\n  add\n  mstore\n  swap1\n    /* \"@openzeppelin/contracts/token/ERC20/ERC20.sol\":2042:2047  _name */\n  0x03\n    /* \"@openzeppelin/contracts/token/ERC20/ERC20.sol\":2042:2055  _name = name_ */\n  tag_6\n    /* \"@openzeppelin/contracts/token/ERC20/ERC20.sol\":1976:2089  constructor(string memory name_, string memory symbol_) {... */\n  dup4\n    /* \"@openzeppelin/contracts/token/ERC20/ERC20.sol\":2042:2047  _name */\n  dup3\n    /* \"@openzeppelin/contracts/token/ERC20/ERC20.sol\":2042:2055  _name = name_ */\n  tag_7\n  jump\t// in\ntag_6:\n  pop\n    /* \"@openzeppelin/contracts/token/ERC20/ERC20.sol\":2065:2072  _symbol */\n  0x04\n    /* \"@openzeppelin/contracts/token/ERC20/ERC20.sol\":2065:2082  _symbol = symbol_ */\n  tag_8\n    /* \"@openzeppelin/contracts/token/ERC20/ERC20.sol\":2075:2082  symbol_ */\n  dup3\n    /* \"@openzeppelin/contracts/token/ERC20/ERC20.sol\":2065:2072  _symbol */\n  dup3\n    /* \"@openzeppelin/contracts/token/ERC20/ERC20.sol\":2065:2082  _symbol = symbol_ */\n  tag_7\n  jump\t// in\ntag_8:\n  pop\n    /* \"@openzeppelin/contracts/token/ERC20/ERC20.sol\":1976:2089  constructor(string memory name_, string memory symbol_) {... */\n  pop\n  pop\n    /* \"@openzeppelin/contracts/access/Ownable.sol\":936:968  _transferOwnership(_msgSender()) */\n  tag_10\n    /* \"@openzeppelin/contracts/access/Ownable.sol\":955:967  _msgSender() */\n  tag_11\n    /* \"@openzeppelin/contracts/access/Ownable.sol\":955:965  _msgSender */\n  shl(0x20, tag_12)\n    /* \"@openzeppelin/contracts/access/Ownable.sol\":955:967  _msgSender() */\n  0x20\n  shr\n  jump\t// in\ntag_11:\n    /* \"@openzeppelin/contracts/access/Ownable.sol\":936:954  _transferOwnership */\n  tag_13\n    /* \"@openzeppelin/contracts/access/Ownable.sol\":936:968  _transferOwnership(_msgSender()) */\n  jump\t// in\ntag_10:\n    /* \"contracts/erc20/SBT-007.sol\":336:6623  contract FDSBT007 is ERC20 ,Ownable{... */\n  jump(tag_23)\n    /* \"@openzeppelin/contracts/utils/Context.sol\":640:736  function _msgSender() internal view virtual returns (address) {... */\ntag_12:\n    /* \"@openzeppelin/contracts/utils/Context.sol\":719:729  msg.sender */\n  caller\n  swap1\n    /* \"@openzeppelin/contracts/utils/Context.sol\":640:736  function _msgSender() internal view virtual returns (address) {... */\n  jump\t// out\n    /* \"@openzeppelin/contracts/access/Ownable.sol\":2433:2620  function _transferOwnership(address newOwner) internal virtual {... */\ntag_13:\n    /* \"@openzeppelin/contracts/access/Ownable.sol\":2525:2531  _owner */\n  0x05\n  dup1\n  sload\n  sub(shl(0xa0, 0x01), 0x01)\n    /* \"@openzeppelin/contracts/access/Ownable.sol\":2541:2558  _owner = newOwner */\n  dup4\n  dup2\n  and\n  not(sub(shl(0xa0, 0x01), 0x01))\n  dup4\n  and\n  dup2\n  or\n  swap1\n  swap4\n  sstore\n    /* \"@openzeppelin/contracts/access/Ownable.sol\":2573:2613  OwnershipTransferred(oldOwner, newOwner) */\n  mload(0x40)\n    /* \"@openzeppelin/contracts/access/Ownable.sol\":2525:2531  _owner */\n  swap2\n  and\n  swap2\n    /* \"@openzeppelin/contracts/access/Ownable.sol\":2541:2558  _owner = newOwner */\n  swap1\n    /* \"@openzeppelin/contracts/access/Ownable.sol\":2525:2531  _owner */\n  dup3\n  swap1\n    /* \"@openzeppelin/contracts/access/Ownable.sol\":2573:2613  OwnershipTransferred(oldOwner, newOwner) */\n  0x8be0079c531659141344cd1fd0a4f28419497f9722a3daafe3b4186f6b6457e0\n  swap1\n    /* \"@openzeppelin/contracts/access/Ownable.sol\":2506:2522  address oldOwner */\n  0x00\n  swap1\n    /* \"@openzeppelin/contracts/access/Ownable.sol\":2573:2613  OwnershipTransferred(oldOwner, newOwner) */\n  log3\n    /* \"@openzeppelin/contracts/access/Ownable.sol\":2496:2620  {... */\n  pop\n    /* \"@openzeppelin/contracts/access/Ownable.sol\":2433:2620  function _transferOwnership(address newOwner) internal virtual {... */\n  pop\n  jump\t// out\n    /* \"#utility.yul\":14:141   */\ntag_18:\n    /* \"#utility.yul\":75:85   */\n  0x4e487b71\n    /* \"#utility.yul\":70:73   */\n  0xe0\n    /* \"#utility.yul\":66:86   */\n  shl\n    /* \"#utility.yul\":63:64   */\n  0x00\n    /* \"#utility.yul\":56:87   */\n  mstore\n    /* \"#utility.yul\":106:110   */\n  0x41\n    /* \"#utility.yul\":103:104   */\n  0x04\n    /* \"#utility.yul\":96:111   */\n  mstore\n    /* \"#utility.yul\":130:134   */\n  0x24\n    /* \"#utility.yul\":127:128   */\n  0x00\n    /* \"#utility.yul\":120:135   */\n  revert\n    /* \"#utility.yul\":146:526   */\ntag_19:\n    /* \"#utility.yul\":225:226   */\n  0x01\n    /* \"#utility.yul\":221:233   */\n  dup2\n  dup2\n  shr\n  swap1\n    /* \"#utility.yul\":268:280   */\n  dup3\n  and\n  dup1\n    /* \"#utility.yul\":289:350   */\n  tag_26\n  jumpi\n    /* \"#utility.yul\":343:347   */\n  0x7f\n    /* \"#utility.yul\":335:341   */\n  dup3\n    /* \"#utility.yul\":331:348   */\n  and\n    /* \"#utility.yul\":321:348   */\n  swap2\n  pop\n    /* \"#utility.yul\":289:350   */\ntag_26:\n    /* \"#utility.yul\":396:398   */\n  0x20\n    /* \"#utility.yul\":388:394   */\n  dup3\n    /* \"#utility.yul\":385:399   */\n  lt\n    /* \"#utility.yul\":365:383   */\n  dup2\n    /* \"#utility.yul\":362:400   */\n  sub\n    /* \"#utility.yul\":359:520   */\n  tag_27\n  jumpi\n    /* \"#utility.yul\":442:452   */\n  0x4e487b71\n    /* \"#utility.yul\":437:440   */\n  0xe0\n    /* \"#utility.yul\":433:453   */\n  shl\n    /* \"#utility.yul\":430:431   */\n  0x00\n    /* \"#utility.yul\":423:454   */\n  mstore\n    /* \"#utility.yul\":477:481   */\n  0x22\n    /* \"#utility.yul\":474:475   */\n  0x04\n    /* \"#utility.yul\":467:482   */\n  mstore\n    /* \"#utility.yul\":505:509   */\n  0x24\n    /* \"#utility.yul\":502:503   */\n  0x00\n    /* \"#utility.yul\":495:510   */\n  revert\n    /* \"#utility.yul\":359:520   */\ntag_27:\n  pop\n    /* \"#utility.yul\":146:526   */\n  swap2\n  swap1\n  pop\n  jump\t// out\n    /* \"#utility.yul\":657:1202   */\ntag_21:\n    /* \"#utility.yul\":759:761   */\n  0x1f\n    /* \"#utility.yul\":754:757   */\n  dup3\n    /* \"#utility.yul\":751:762   */\n  gt\n    /* \"#utility.yul\":748:1196   */\n  iszero\n  tag_30\n  jumpi\n    /* \"#utility.yul\":795:796   */\n  0x00\n    /* \"#utility.yul\":820:825   */\n  dup2\n    /* \"#utility.yul\":816:818   */\n  dup2\n    /* \"#utility.yul\":809:826   */\n  mstore\n    /* \"#utility.yul\":865:869   */\n  0x20\n    /* \"#utility.yul\":861:863   */\n  dup2\n    /* \"#utility.yul\":851:870   */\n  keccak256\n    /* \"#utility.yul\":935:937   */\n  0x1f\n    /* \"#utility.yul\":923:933   */\n  dup6\n    /* \"#utility.yul\":919:938   */\n  add\n    /* \"#utility.yul\":916:917   */\n  0x05\n    /* \"#utility.yul\":912:939   */\n  shr\n    /* \"#utility.yul\":906:910   */\n  dup2\n    /* \"#utility.yul\":902:940   */\n  add\n    /* \"#utility.yul\":971:975   */\n  0x20\n    /* \"#utility.yul\":959:969   */\n  dup7\n    /* \"#utility.yul\":956:976   */\n  lt\n    /* \"#utility.yul\":953:1000   */\n  iszero\n  tag_31\n  jumpi\n  pop\n    /* \"#utility.yul\":994:998   */\n  dup1\n    /* \"#utility.yul\":953:1000   */\ntag_31:\n    /* \"#utility.yul\":1049:1051   */\n  0x1f\n    /* \"#utility.yul\":1044:1047   */\n  dup6\n    /* \"#utility.yul\":1040:1052   */\n  add\n    /* \"#utility.yul\":1037:1038   */\n  0x05\n    /* \"#utility.yul\":1033:1053   */\n  shr\n    /* \"#utility.yul\":1027:1031   */\n  dup3\n    /* \"#utility.yul\":1023:1054   */\n  add\n    /* \"#utility.yul\":1013:1054   */\n  swap2\n  pop\n    /* \"#utility.yul\":1104:1186   */\ntag_32:\n    /* \"#utility.yul\":1122:1124   */\n  dup2\n    /* \"#utility.yul\":1115:1120   */\n  dup2\n    /* \"#utility.yul\":1112:1125   */\n  lt\n    /* \"#utility.yul\":1104:1186   */\n  iszero\n  tag_34\n  jumpi\n    /* \"#utility.yul\":1167:1184   */\n  dup3\n  dup2\n  sstore\n    /* \"#utility.yul\":1148:1149   */\n  0x01\n    /* \"#utility.yul\":1137:1150   */\n  add\n    /* \"#utility.yul\":1104:1186   */\n  jump(tag_32)\ntag_34:\n    /* \"#utility.yul\":1108:1111   */\n  pop\n  pop\n  pop\n    /* \"#utility.yul\":748:1196   */\ntag_30:\n    /* \"#utility.yul\":657:1202   */\n  pop\n  pop\n  pop\n  jump\t// out\n    /* \"#utility.yul\":1378:2730   */\ntag_7:\n    /* \"#utility.yul\":1498:1508   */\n  dup2\n  mload\n  sub(shl(0x40, 0x01), 0x01)\n    /* \"#utility.yul\":1520:1550   */\n  dup2\n  gt\n    /* \"#utility.yul\":1517:1573   */\n  iszero\n  tag_38\n  jumpi\n    /* \"#utility.yul\":1553:1571   */\n  tag_38\n  tag_18\n  jump\t// in\ntag_38:\n    /* \"#utility.yul\":1582:1679   */\n  tag_39\n    /* \"#utility.yul\":1672:1678   */\n  dup2\n    /* \"#utility.yul\":1632:1670   */\n  tag_40\n    /* \"#utility.yul\":1664:1668   */\n  dup5\n    /* \"#utility.yul\":1658:1669   */\n  sload\n    /* \"#utility.yul\":1632:1670   */\n  tag_19\n  jump\t// in\ntag_40:\n    /* \"#utility.yul\":1626:1630   */\n  dup5\n    /* \"#utility.yul\":1582:1679   */\n  tag_21\n  jump\t// in\ntag_39:\n    /* \"#utility.yul\":1734:1738   */\n  0x20\n  dup1\n    /* \"#utility.yul\":1798:1800   */\n  0x1f\n    /* \"#utility.yul\":1787:1801   */\n  dup4\n  gt\n    /* \"#utility.yul\":1815:1816   */\n  0x01\n    /* \"#utility.yul\":1810:2473   */\n  dup2\n  eq\n  tag_42\n  jumpi\n    /* \"#utility.yul\":2517:2518   */\n  0x00\n    /* \"#utility.yul\":2534:2540   */\n  dup5\n    /* \"#utility.yul\":2531:2620   */\n  iszero\n  tag_43\n  jumpi\n  pop\n    /* \"#utility.yul\":2586:2605   */\n  dup6\n  dup4\n  add\n    /* \"#utility.yul\":2580:2606   */\n  mload\n    /* \"#utility.yul\":2531:2620   */\ntag_43:\n  not(0x00)\n    /* \"#utility.yul\":1335:1336   */\n  0x03\n    /* \"#utility.yul\":1331:1342   */\n  dup7\n  swap1\n  shl\n    /* \"#utility.yul\":1327:1351   */\n  shr\n    /* \"#utility.yul\":1323:1352   */\n  not\n    /* \"#utility.yul\":1313:1353   */\n  and\n    /* \"#utility.yul\":1359:1360   */\n  0x01\n    /* \"#utility.yul\":1355:1366   */\n  dup6\n  swap1\n  shl\n    /* \"#utility.yul\":1310:1367   */\n  or\n    /* \"#utility.yul\":2633:2714   */\n  dup6\n  sstore\n    /* \"#utility.yul\":1780:2724   */\n  jump(tag_34)\n    /* \"#utility.yul\":1810:2473   */\ntag_42:\n    /* \"#utility.yul\":604:605   */\n  0x00\n    /* \"#utility.yul\":597:611   */\n  dup6\n  dup2\n  mstore\n    /* \"#utility.yul\":641:645   */\n  0x20\n    /* \"#utility.yul\":628:646   */\n  dup2\n  keccak256\n  not(0x1f)\n    /* \"#utility.yul\":1846:1866   */\n  dup7\n  and\n  swap2\n    /* \"#utility.yul\":1964:2200   */\ntag_46:\n    /* \"#utility.yul\":1978:1985   */\n  dup3\n    /* \"#utility.yul\":1975:1976   */\n  dup2\n    /* \"#utility.yul\":1972:1986   */\n  lt\n    /* \"#utility.yul\":1964:2200   */\n  iszero\n  tag_48\n  jumpi\n    /* \"#utility.yul\":2067:2086   */\n  dup9\n  dup7\n  add\n    /* \"#utility.yul\":2061:2087   */\n  mload\n    /* \"#utility.yul\":2046:2088   */\n  dup3\n  sstore\n    /* \"#utility.yul\":2159:2186   */\n  swap5\n  dup5\n  add\n  swap5\n    /* \"#utility.yul\":2127:2128   */\n  0x01\n    /* \"#utility.yul\":2115:2129   */\n  swap1\n  swap2\n  add\n  swap1\n    /* \"#utility.yul\":1994:2013   */\n  dup5\n  add\n    /* \"#utility.yul\":1964:2200   */\n  jump(tag_46)\ntag_48:\n    /* \"#utility.yul\":1968:1971   */\n  pop\n    /* \"#utility.yul\":2228:2234   */\n  dup6\n    /* \"#utility.yul\":2219:2226   */\n  dup3\n    /* \"#utility.yul\":2216:2235   */\n  lt\n    /* \"#utility.yul\":2213:2414   */\n  iszero\n  tag_49\n  jumpi\n    /* \"#utility.yul\":2289:2308   */\n  dup8\n  dup6\n  add\n    /* \"#utility.yul\":2283:2309   */\n  mload\n  not(0x00)\n    /* \"#utility.yul\":2372:2373   */\n  0x03\n    /* \"#utility.yul\":2368:2382   */\n  dup9\n  swap1\n  shl\n    /* \"#utility.yul\":2384:2387   */\n  0xf8\n    /* \"#utility.yul\":2364:2388   */\n  and\n    /* \"#utility.yul\":2360:2397   */\n  shr\n    /* \"#utility.yul\":2356:2398   */\n  not\n    /* \"#utility.yul\":2341:2399   */\n  and\n    /* \"#utility.yul\":2326:2400   */\n  dup2\n  sstore\n    /* \"#utility.yul\":2213:2414   */\ntag_49:\n  pop\n  pop\n  pop\n  pop\n  pop\n    /* \"#utility.yul\":2460:2461   */\n  0x01\n    /* \"#utility.yul\":2444:2458   */\n  swap1\n  dup2\n  shl\n    /* \"#utility.yul\":2440:2462   */\n  add\n    /* \"#utility.yul\":2427:2463   */\n  swap1\n  sstore\n  pop\n    /* \"#utility.yul\":1378:2730   */\n  jump\t// out\ntag_23:\n    /* \"contracts/erc20/SBT-007.sol\":336:6623  contract FDSBT007 is ERC20 ,Ownable{... */\n  dataSize(sub_0)\n  dup1\n  dataOffset(sub_0)\n  0x00\n  codecopy\n  0x00\n  return\nstop\n\nsub_0: assembly {\n        /* \"contracts/erc20/SBT-007.sol\":336:6623  contract FDSBT007 is ERC20 ,Ownable{... */\n      mstore(0x40, 0x80)\n      callvalue\n      dup1\n      iszero\n      tag_1\n      jumpi\n      0x00\n      dup1\n      revert\n    tag_1:\n      pop\n      jumpi(tag_2, lt(calldatasize, 0x04))\n      shr(0xe0, calldataload(0x00))\n      dup1\n      0x715018a6\n      gt\n      tag_35\n      jumpi\n      dup1\n      0xab2429c8\n      gt\n      tag_36\n      jumpi\n      dup1\n      0xdd62ed3e\n      gt\n      tag_37\n      jumpi\n      dup1\n      0xdd62ed3e\n      eq\n      tag_31\n      jumpi\n      dup1\n      0xf1127ed8\n      eq\n      tag_32\n      jumpi\n      dup1\n      0xf2fde38b\n      eq\n      tag_33\n      jumpi\n      dup1\n      0xf851a440\n      eq\n      tag_34\n      jumpi\n      0x00\n      dup1\n      revert\n    tag_37:\n      dup1\n      0xab2429c8\n      eq\n      tag_27\n      jumpi\n      dup1\n      0xabace813\n      eq\n      tag_28\n      jumpi\n      dup1\n      0xb4b5ea57\n      eq\n      tag_29\n      jumpi\n      dup1\n      0xcc7ef800\n      eq\n      tag_30\n      jumpi\n      0x00\n      dup1\n      revert\n    tag_36:\n      dup1\n      0x95d89b41\n      gt\n      tag_38\n      jumpi\n      dup1\n      0x95d89b41\n      eq\n      tag_23\n      jumpi\n      dup1\n      0x9dc29fac\n      eq\n      tag_24\n      jumpi\n      dup1\n      0xa457c2d7\n      eq\n      tag_25\n      jumpi\n      dup1\n      0xa9059cbb\n      eq\n      tag_26\n      jumpi\n      0x00\n      dup1\n      revert\n    tag_38:\n      dup1\n      0x715018a6\n      eq\n      tag_19\n      jumpi\n      dup1\n      0x782d6fe1\n      eq\n      tag_20\n      jumpi\n      dup1\n      0x78cb7539\n      eq\n      tag_21\n      jumpi\n      dup1\n      0x8da5cb5b\n      eq\n      tag_22\n      jumpi\n      0x00\n      dup1\n      revert\n    tag_35:\n      dup1\n      0x313ce567\n      gt\n      tag_39\n      jumpi\n      dup1\n      0x477dfeb8\n      gt\n      tag_40\n      jumpi\n      dup1\n      0x477dfeb8\n      eq\n      tag_15\n      jumpi\n      dup1\n      0x6fcfff45\n      eq\n      tag_16\n      jumpi\n      dup1\n      0x70a08231\n      eq\n      tag_17\n      jumpi\n      dup1\n      0x70d8d374\n      eq\n      tag_18\n      jumpi\n      0x00\n      dup1\n      revert\n    tag_40:\n      dup1\n      0x313ce567\n      eq\n      tag_11\n      jumpi\n      dup1\n      0x39509351\n      eq\n      tag_12\n      jumpi\n      dup1\n      0x3e72aeae\n      eq\n      tag_13\n      jumpi\n      dup1\n      0x40c10f19\n      eq\n      tag_14\n      jumpi\n      0x00\n      dup1\n      revert\n    tag_39:\n      dup1\n      0x1a5ef71c\n      gt\n      tag_41\n      jumpi\n      dup1\n      0x1a5ef71c\n      eq\n      tag_7\n      jumpi\n      dup1\n      0x1e9d9782\n      eq\n      tag_8\n      jumpi\n      dup1\n      0x200d2ed2\n      eq\n      tag_9\n      jumpi\n      dup1\n      0x23b872dd\n      eq\n      tag_10\n      jumpi\n      0x00\n      dup1\n      revert\n    tag_41:\n      dup1\n      0x06fdde03\n      eq\n      tag_3\n      jumpi\n      dup1\n      0x07546172\n      eq\n      tag_4\n      jumpi\n      dup1\n      0x095ea7b3\n      eq\n      tag_5\n      jumpi\n      dup1\n      0x18160ddd\n      eq\n      tag_6\n      jumpi\n    tag_2:\n      0x00\n      dup1\n      revert\n        /* \"@openzeppelin/contracts/token/ERC20/ERC20.sol\":2154:2252  function name() public view virtual override returns (string memory) {... */\n    tag_3:\n      tag_42\n      tag_43\n      jump\t// in\n    tag_42:\n      mload(0x40)\n      tag_44\n      swap2\n      swap1\n      tag_45\n      jump\t// in\n    tag_44:\n      mload(0x40)\n      dup1\n      swap2\n      sub\n      swap1\n      return\n        /* \"contracts/erc20/SBT-007.sol\":519:540  address public minter */\n    tag_4:\n      sload(0x06)\n      tag_46\n      swap1\n      sub(shl(0xa0, 0x01), 0x01)\n      and\n      dup2\n      jump\n    tag_46:\n      mload(0x40)\n      sub(shl(0xa0, 0x01), 0x01)\n        /* \"#utility.yul\":731:763   */\n      swap1\n      swap2\n      and\n        /* \"#utility.yul\":713:764   */\n      dup2\n      mstore\n        /* \"#utility.yul\":701:703   */\n      0x20\n        /* \"#utility.yul\":686:704   */\n      add\n        /* \"contracts/erc20/SBT-007.sol\":519:540  address public minter */\n      tag_44\n        /* \"#utility.yul\":567:770   */\n      jump\n        /* \"@openzeppelin/contracts/token/ERC20/ERC20.sol\":4431:4628  function approve(address spender, uint256 amount) public virtual override returns (bool) {... */\n    tag_5:\n      tag_50\n      tag_51\n      calldatasize\n      0x04\n      tag_52\n      jump\t// in\n    tag_51:\n      tag_53\n      jump\t// in\n    tag_50:\n      mload(0x40)\n        /* \"#utility.yul\":1377:1391   */\n      swap1\n      iszero\n        /* \"#utility.yul\":1370:1392   */\n      iszero\n        /* \"#utility.yul\":1352:1393   */\n      dup2\n      mstore\n        /* \"#utility.yul\":1340:1342   */\n      0x20\n        /* \"#utility.yul\":1325:1343   */\n      add\n        /* \"@openzeppelin/contracts/token/ERC20/ERC20.sol\":4431:4628  function approve(address spender, uint256 amount) public virtual override returns (bool) {... */\n      tag_44\n        /* \"#utility.yul\":1212:1399   */\n      jump\n        /* \"@openzeppelin/contracts/token/ERC20/ERC20.sol\":3242:3348  function totalSupply() public view virtual override returns (uint256) {... */\n    tag_6:\n        /* \"@openzeppelin/contracts/token/ERC20/ERC20.sol\":3329:3341  _totalSupply */\n      sload(0x02)\n        /* \"@openzeppelin/contracts/token/ERC20/ERC20.sol\":3242:3348  function totalSupply() public view virtual override returns (uint256) {... */\n    tag_56:\n      mload(0x40)\n        /* \"#utility.yul\":1550:1575   */\n      swap1\n      dup2\n      mstore\n        /* \"#utility.yul\":1538:1540   */\n      0x20\n        /* \"#utility.yul\":1523:1541   */\n      add\n        /* \"@openzeppelin/contracts/token/ERC20/ERC20.sol\":3242:3348  function totalSupply() public view virtual override returns (uint256) {... */\n      tag_44\n        /* \"#utility.yul\":1404:1581   */\n      jump\n        /* \"contracts/erc20/SBT-007.sol\":604:627  address public fireSoul */\n    tag_7:\n      sload(0x09)\n      tag_46\n      swap1\n      sub(shl(0xa0, 0x01), 0x01)\n      and\n      dup2\n      jump\n        /* \"contracts/erc20/SBT-007.sol\":1298:1392  function setPassPort(address _passPort) public onlyOwner {... */\n    tag_8:\n      tag_63\n      tag_64\n      calldatasize\n      0x04\n      tag_65\n      jump\t// in\n    tag_64:\n      tag_66\n      jump\t// in\n    tag_63:\n      stop\n        /* \"contracts/erc20/SBT-007.sol\":487:513  bool public status = false */\n    tag_9:\n      sload(0x05)\n      tag_50\n      swap1\n      shl(0xa0, 0x01)\n      swap1\n      div\n      0xff\n      and\n      dup2\n      jump\n        /* \"contracts/erc20/SBT-007.sol\":2320:2803  function transferFrom(address sender, address recipient, uint256 amount) public virtual override returns (bool) {... */\n    tag_10:\n      tag_50\n      tag_71\n      calldatasize\n      0x04\n      tag_72\n      jump\t// in\n    tag_71:\n      tag_73\n      jump\t// in\n        /* \"@openzeppelin/contracts/token/ERC20/ERC20.sol\":3091:3182  function decimals() public view virtual override returns (uint8) {... */\n    tag_11:\n      mload(0x40)\n        /* \"@openzeppelin/contracts/token/ERC20/ERC20.sol\":3173:3175  18 */\n      0x12\n        /* \"#utility.yul\":2252:2288   */\n      dup2\n      mstore\n        /* \"#utility.yul\":2240:2242   */\n      0x20\n        /* \"#utility.yul\":2225:2243   */\n      add\n        /* \"@openzeppelin/contracts/token/ERC20/ERC20.sol\":3091:3182  function decimals() public view virtual override returns (uint8) {... */\n      tag_44\n        /* \"#utility.yul\":2110:2294   */\n      jump\n        /* \"@openzeppelin/contracts/token/ERC20/ERC20.sol\":5871:6105  function increaseAllowance(address spender, uint256 addedValue) public virtual returns (bool) {... */\n    tag_12:\n      tag_50\n      tag_80\n      calldatasize\n      0x04\n      tag_52\n      jump\t// in\n    tag_80:\n      tag_81\n      jump\t// in\n        /* \"contracts/erc20/SBT-007.sol\":1514:1593  function setContractStatus() public onlyOwner {... */\n    tag_13:\n      tag_63\n      tag_84\n      jump\t// in\n        /* \"contracts/erc20/SBT-007.sol\":1599:1824  function mint(address account, uint256 amount) external {... */\n    tag_14:\n      tag_63\n      tag_86\n      calldatasize\n      0x04\n      tag_52\n      jump\t// in\n    tag_86:\n      tag_87\n      jump\t// in\n        /* \"contracts/erc20/SBT-007.sol\":1199:1293  function setFireSeed(address _fireSeed) public onlyOwner {... */\n    tag_15:\n      tag_63\n      tag_89\n      calldatasize\n      0x04\n      tag_65\n      jump\t// in\n    tag_89:\n      tag_90\n      jump\t// in\n        /* \"contracts/erc20/SBT-007.sol\":767:816  mapping (address => uint32) public numCheckpoints */\n    tag_16:\n      tag_91\n      tag_92\n      calldatasize\n      0x04\n      tag_65\n      jump\t// in\n    tag_92:\n      mstore(0x20, 0x0d)\n      0x00\n      swap1\n      dup2\n      mstore\n      0x40\n      swap1\n      keccak256\n      sload\n      0xffffffff\n      and\n      dup2\n      jump\n    tag_91:\n      mload(0x40)\n        /* \"#utility.yul\":2473:2483   */\n      0xffffffff\n        /* \"#utility.yul\":2461:2484   */\n      swap1\n      swap2\n      and\n        /* \"#utility.yul\":2443:2485   */\n      dup2\n      mstore\n        /* \"#utility.yul\":2431:2433   */\n      0x20\n        /* \"#utility.yul\":2416:2434   */\n      add\n        /* \"contracts/erc20/SBT-007.sol\":767:816  mapping (address => uint32) public numCheckpoints */\n      tag_44\n        /* \"#utility.yul\":2299:2491   */\n      jump\n        /* \"@openzeppelin/contracts/token/ERC20/ERC20.sol\":3406:3531  function balanceOf(address account) public view virtual override returns (uint256) {... */\n    tag_17:\n      tag_56\n      tag_97\n      calldatasize\n      0x04\n      tag_65\n      jump\t// in\n    tag_97:\n      sub(shl(0xa0, 0x01), 0x01)\n        /* \"@openzeppelin/contracts/token/ERC20/ERC20.sol\":3506:3524  _balances[account] */\n      and\n        /* \"@openzeppelin/contracts/token/ERC20/ERC20.sol\":3480:3487  uint256 */\n      0x00\n        /* \"@openzeppelin/contracts/token/ERC20/ERC20.sol\":3506:3524  _balances[account] */\n      swap1\n      dup2\n      mstore\n      0x20\n      dup2\n      swap1\n      mstore\n      0x40\n      swap1\n      keccak256\n      sload\n      swap1\n        /* \"@openzeppelin/contracts/token/ERC20/ERC20.sol\":3406:3531  function balanceOf(address account) public view virtual override returns (uint256) {... */\n      jump\n        /* \"contracts/erc20/SBT-007.sol\":572:598  address public LockAddress */\n    tag_18:\n      sload(0x08)\n      tag_46\n      swap1\n      sub(shl(0xa0, 0x01), 0x01)\n      and\n      dup2\n      jump\n        /* \"@openzeppelin/contracts/access/Ownable.sol\":1831:1932  function renounceOwnership() public virtual onlyOwner {... */\n    tag_19:\n      tag_63\n      tag_104\n      jump\t// in\n        /* \"contracts/erc20/SBT-007.sol\":3090:4193  function getPriorVotes(address account, uint blockNumber) public view returns (uint96) {... */\n    tag_20:\n      tag_105\n      tag_106\n      calldatasize\n      0x04\n      tag_52\n      jump\t// in\n    tag_106:\n      tag_107\n      jump\t// in\n    tag_105:\n      mload(0x40)\n      sub(shl(0x60, 0x01), 0x01)\n        /* \"#utility.yul\":2658:2697   */\n      swap1\n      swap2\n      and\n        /* \"#utility.yul\":2640:2698   */\n      dup2\n      mstore\n        /* \"#utility.yul\":2628:2630   */\n      0x20\n        /* \"#utility.yul\":2613:2631   */\n      add\n        /* \"contracts/erc20/SBT-007.sol\":3090:4193  function getPriorVotes(address account, uint blockNumber) public view returns (uint96) {... */\n      tag_44\n        /* \"#utility.yul\":2496:2704   */\n      jump\n        /* \"contracts/erc20/SBT-007.sol\":633:656  address public fireSeed */\n    tag_21:\n      sload(0x0a)\n      tag_46\n      swap1\n      sub(shl(0xa0, 0x01), 0x01)\n      and\n      dup2\n      jump\n        /* \"@openzeppelin/contracts/access/Ownable.sol\":1201:1286  function owner() public view virtual returns (address) {... */\n    tag_22:\n        /* \"@openzeppelin/contracts/access/Ownable.sol\":1273:1279  _owner */\n      and(sub(shl(0xa0, 0x01), 0x01), sload(0x05))\n        /* \"@openzeppelin/contracts/access/Ownable.sol\":1201:1286  function owner() public view virtual returns (address) {... */\n      jump(tag_46)\n        /* \"@openzeppelin/contracts/token/ERC20/ERC20.sol\":2365:2467  function symbol() public view virtual override returns (string memory) {... */\n    tag_23:\n      tag_42\n      tag_117\n      jump\t// in\n        /* \"contracts/erc20/SBT-007.sol\":1829:2054  function burn(address account, uint256 amount) external {... */\n    tag_24:\n      tag_63\n      tag_120\n      calldatasize\n      0x04\n      tag_52\n      jump\t// in\n    tag_120:\n      tag_121\n      jump\t// in\n        /* \"@openzeppelin/contracts/token/ERC20/ERC20.sol\":6592:7019  function decreaseAllowance(address spender, uint256 subtractedValue) public virtual returns (bool) {... */\n    tag_25:\n      tag_50\n      tag_123\n      calldatasize\n      0x04\n      tag_52\n      jump\t// in\n    tag_123:\n      tag_124\n      jump\t// in\n        /* \"contracts/erc20/SBT-007.sol\":2065:2310  function transfer(address recipient, uint256 amount) public virtual override returns (bool) {... */\n    tag_26:\n      tag_50\n      tag_71\n      calldatasize\n      0x04\n      tag_52\n      jump\t// in\n        /* \"contracts/erc20/SBT-007.sol\":662:685  address public passPort */\n    tag_27:\n      sload(0x0b)\n      tag_46\n      swap1\n      sub(shl(0xa0, 0x01), 0x01)\n      and\n      dup2\n      jump\n        /* \"contracts/erc20/SBT-007.sol\":1397:1509  function setMintExternalAddress(address _LockAddress) public onlyOwner{... */\n    tag_28:\n      tag_63\n      tag_134\n      calldatasize\n      0x04\n      tag_65\n      jump\t// in\n    tag_134:\n      tag_135\n      jump\t// in\n        /* \"contracts/erc20/SBT-007.sol\":2812:3080  function getCurrentVotes(address account) external view returns (uint96) {... */\n    tag_29:\n      tag_105\n      tag_137\n      calldatasize\n      0x04\n      tag_65\n      jump\t// in\n    tag_137:\n      tag_138\n      jump\t// in\n        /* \"contracts/erc20/SBT-007.sol\":1088:1193  function setFireSoul(address firesoulAddress) public onlyOwner{... */\n    tag_30:\n      tag_63\n      tag_141\n      calldatasize\n      0x04\n      tag_65\n      jump\t// in\n    tag_141:\n      tag_142\n      jump\t// in\n        /* \"@openzeppelin/contracts/token/ERC20/ERC20.sol\":3974:4123  function allowance(address owner, address spender) public view virtual override returns (uint256) {... */\n    tag_31:\n      tag_56\n      tag_144\n      calldatasize\n      0x04\n      tag_145\n      jump\t// in\n    tag_144:\n      tag_146\n      jump\t// in\n        /* \"contracts/erc20/SBT-007.sol\":691:761  mapping (address => mapping (uint32 => Checkpoint)) public checkpoints */\n    tag_32:\n      tag_148\n      tag_149\n      calldatasize\n      0x04\n      tag_150\n      jump\t// in\n    tag_149:\n      0x0c\n      0x20\n      swap1\n      dup2\n      mstore\n      0x00\n      swap3\n      dup4\n      mstore\n      0x40\n      dup1\n      dup5\n      keccak256\n      swap1\n      swap2\n      mstore\n      swap1\n      dup3\n      mstore\n      swap1\n      keccak256\n      sload\n      0xffffffff\n      dup2\n      and\n      swap1\n      0x0100000000\n      swap1\n      div\n      sub(shl(0x60, 0x01), 0x01)\n      and\n      dup3\n      jump\n    tag_148:\n      0x40\n      dup1\n      mload\n        /* \"#utility.yul\":3529:3539   */\n      0xffffffff\n        /* \"#utility.yul\":3517:3540   */\n      swap1\n      swap4\n      and\n        /* \"#utility.yul\":3499:3541   */\n      dup4\n      mstore\n      sub(shl(0x60, 0x01), 0x01)\n        /* \"#utility.yul\":3577:3616   */\n      swap1\n      swap2\n      and\n        /* \"#utility.yul\":3572:3574   */\n      0x20\n        /* \"#utility.yul\":3557:3575   */\n      dup4\n      add\n        /* \"#utility.yul\":3550:3617   */\n      mstore\n        /* \"#utility.yul\":3472:3490   */\n      add\n        /* \"contracts/erc20/SBT-007.sol\":691:761  mapping (address => mapping (uint32 => Checkpoint)) public checkpoints */\n      tag_44\n        /* \"#utility.yul\":3329:3623   */\n      jump\n        /* \"@openzeppelin/contracts/access/Ownable.sol\":2081:2279  function transferOwnership(address newOwner) public virtual onlyOwner {... */\n    tag_33:\n      tag_63\n      tag_155\n      calldatasize\n      0x04\n      tag_65\n      jump\t// in\n    tag_155:\n      tag_156\n      jump\t// in\n        /* \"contracts/erc20/SBT-007.sol\":546:566  address public admin */\n    tag_34:\n      sload(0x07)\n      tag_46\n      swap1\n      sub(shl(0xa0, 0x01), 0x01)\n      and\n      dup2\n      jump\n        /* \"@openzeppelin/contracts/token/ERC20/ERC20.sol\":2154:2252  function name() public view virtual override returns (string memory) {... */\n    tag_43:\n        /* \"@openzeppelin/contracts/token/ERC20/ERC20.sol\":2208:2221  string memory */\n      0x60\n        /* \"@openzeppelin/contracts/token/ERC20/ERC20.sol\":2240:2245  _name */\n      0x03\n        /* \"@openzeppelin/contracts/token/ERC20/ERC20.sol\":2233:2245  return _name */\n      dup1\n      sload\n      tag_161\n      swap1\n      tag_162\n      jump\t// in\n    tag_161:\n      dup1\n      0x1f\n      add\n      0x20\n      dup1\n      swap2\n      div\n      mul\n      0x20\n      add\n      mload(0x40)\n      swap1\n      dup2\n      add\n      0x40\n      mstore\n      dup1\n      swap3\n      swap2\n      swap1\n      dup2\n      dup2\n      mstore\n      0x20\n      add\n      dup3\n      dup1\n      sload\n      tag_163\n      swap1\n      tag_162\n      jump\t// in\n    tag_163:\n      dup1\n      iszero\n      tag_164\n      jumpi\n      dup1\n      0x1f\n      lt\n      tag_165\n      jumpi\n      0x0100\n      dup1\n      dup4\n      sload\n      div\n      mul\n      dup4\n      mstore\n      swap2\n      0x20\n      add\n      swap2\n      jump(tag_164)\n    tag_165:\n      dup3\n      add\n      swap2\n      swap1\n      0x00\n      mstore\n      keccak256(0x00, 0x20)\n      swap1\n    tag_166:\n      dup2\n      sload\n      dup2\n      mstore\n      swap1\n      0x01\n      add\n      swap1\n      0x20\n      add\n      dup1\n      dup4\n      gt\n      tag_166\n      jumpi\n      dup3\n      swap1\n      sub\n      0x1f\n      and\n      dup3\n      add\n      swap2\n    tag_164:\n      pop\n      pop\n      pop\n      pop\n      pop\n      swap1\n      pop\n        /* \"@openzeppelin/contracts/token/ERC20/ERC20.sol\":2154:2252  function name() public view virtual override returns (string memory) {... */\n      swap1\n      jump\t// out\n        /* \"@openzeppelin/contracts/token/ERC20/ERC20.sol\":4431:4628  function approve(address spender, uint256 amount) public virtual override returns (bool) {... */\n    tag_53:\n        /* \"@openzeppelin/contracts/token/ERC20/ERC20.sol\":4514:4518  bool */\n      0x00\n        /* \"@openzeppelin/contracts/utils/Context.sol\":719:729  msg.sender */\n      caller\n        /* \"@openzeppelin/contracts/token/ERC20/ERC20.sol\":4568:4600  _approve(owner, spender, amount) */\n      tag_170\n        /* \"@openzeppelin/contracts/utils/Context.sol\":719:729  msg.sender */\n      dup2\n        /* \"@openzeppelin/contracts/token/ERC20/ERC20.sol\":4584:4591  spender */\n      dup6\n        /* \"@openzeppelin/contracts/token/ERC20/ERC20.sol\":4593:4599  amount */\n      dup6\n        /* \"@openzeppelin/contracts/token/ERC20/ERC20.sol\":4568:4576  _approve */\n      tag_171\n        /* \"@openzeppelin/contracts/token/ERC20/ERC20.sol\":4568:4600  _approve(owner, spender, amount) */\n      jump\t// in\n    tag_170:\n        /* \"@openzeppelin/contracts/token/ERC20/ERC20.sol\":4617:4621  true */\n      0x01\n        /* \"@openzeppelin/contracts/token/ERC20/ERC20.sol\":4610:4621  return true */\n      swap2\n      pop\n      pop\n        /* \"@openzeppelin/contracts/token/ERC20/ERC20.sol\":4431:4628  function approve(address spender, uint256 amount) public virtual override returns (bool) {... */\n    tag_167:\n      swap3\n      swap2\n      pop\n      pop\n      jump\t// out\n        /* \"contracts/erc20/SBT-007.sol\":1298:1392  function setPassPort(address _passPort) public onlyOwner {... */\n    tag_66:\n        /* \"@openzeppelin/contracts/access/Ownable.sol\":1094:1107  _checkOwner() */\n      tag_174\n        /* \"@openzeppelin/contracts/access/Ownable.sol\":1094:1105  _checkOwner */\n      tag_175\n        /* \"@openzeppelin/contracts/access/Ownable.sol\":1094:1107  _checkOwner() */\n      jump\t// in\n    tag_174:\n        /* \"contracts/erc20/SBT-007.sol\":1365:1373  passPort */\n      0x0b\n        /* \"contracts/erc20/SBT-007.sol\":1365:1385  passPort = _passPort */\n      dup1\n      sload\n      not(sub(shl(0xa0, 0x01), 0x01))\n      and\n      sub(shl(0xa0, 0x01), 0x01)\n      swap3\n      swap1\n      swap3\n      and\n      swap2\n      swap1\n      swap2\n      or\n      swap1\n      sstore\n        /* \"contracts/erc20/SBT-007.sol\":1298:1392  function setPassPort(address _passPort) public onlyOwner {... */\n      jump\t// out\n        /* \"contracts/erc20/SBT-007.sol\":2320:2803  function transferFrom(address sender, address recipient, uint256 amount) public virtual override returns (bool) {... */\n    tag_73:\n        /* \"contracts/erc20/SBT-007.sol\":2451:2457  status */\n      sload(0x05)\n        /* \"contracts/erc20/SBT-007.sol\":2426:2430  bool */\n      0x00\n      swap1\n      shl(0xa0, 0x01)\n        /* \"contracts/erc20/SBT-007.sol\":2451:2457  status */\n      swap1\n      div\n      0xff\n      and\n        /* \"contracts/erc20/SBT-007.sol\":2450:2457  !status */\n      iszero\n        /* \"contracts/erc20/SBT-007.sol\":2442:2481  require(!status , \"status is not able\") */\n      tag_2\n      jumpi\n      mload(0x40)\n      shl(0xe5, 0x461bcd)\n      dup2\n      mstore\n      0x04\n      add\n      tag_179\n      swap1\n      tag_180\n      jump\t// in\n    tag_179:\n      mload(0x40)\n      dup1\n      swap2\n      sub\n      swap1\n      revert\n        /* \"contracts/erc20/SBT-007.sol\":2751:2774  currentAllowance-amount */\n    tag_191:\n        /* \"contracts/erc20/SBT-007.sol\":2720:2728  _approve */\n      tag_171\n        /* \"contracts/erc20/SBT-007.sol\":2720:2775  _approve(sender, _msgSender(), currentAllowance-amount) */\n      jump\t// in\n    tag_189:\n      pop\n        /* \"contracts/erc20/SBT-007.sol\":2792:2796  true */\n      0x01\n      swap5\n        /* \"contracts/erc20/SBT-007.sol\":2320:2803  function transferFrom(address sender, address recipient, uint256 amount) public virtual override returns (bool) {... */\n      swap4\n      pop\n      pop\n      pop\n      pop\n      jump\t// out\n        /* \"@openzeppelin/contracts/token/ERC20/ERC20.sol\":5871:6105  function increaseAllowance(address spender, uint256 addedValue) public virtual returns (bool) {... */\n    tag_81:\n        /* \"@openzeppelin/contracts/token/ERC20/ERC20.sol\":5959:5963  bool */\n      0x00\n        /* \"@openzeppelin/contracts/utils/Context.sol\":719:729  msg.sender */\n      caller\n        /* \"@openzeppelin/contracts/token/ERC20/ERC20.sol\":6013:6077  _approve(owner, spender, allowance(owner, spender) + addedValue) */\n      tag_170\n        /* \"@openzeppelin/contracts/utils/Context.sol\":719:729  msg.sender */\n      dup2\n        /* \"@openzeppelin/contracts/token/ERC20/ERC20.sol\":6029:6036  spender */\n      dup6\n        /* \"@openzeppelin/contracts/token/ERC20/ERC20.sol\":6066:6076  addedValue */\n      dup6\n        /* \"@openzeppelin/contracts/token/ERC20/ERC20.sol\":6038:6063  allowance(owner, spender) */\n      tag_197\n        /* \"@openzeppelin/contracts/utils/Context.sol\":719:729  msg.sender */\n      dup4\n        /* \"@openzeppelin/contracts/token/ERC20/ERC20.sol\":6029:6036  spender */\n      dup4\n        /* \"@openzeppelin/contracts/token/ERC20/ERC20.sol\":6038:6047  allowance */\n      tag_146\n        /* \"@openzeppelin/contracts/token/ERC20/ERC20.sol\":6038:6063  allowance(owner, spender) */\n      jump\t// in\n    tag_197:\n        /* \"@openzeppelin/contracts/token/ERC20/ERC20.sol\":6038:6076  allowance(owner, spender) + addedValue */\n      tag_191\n      swap2\n      swap1\n      tag_199\n      jump\t// in\n        /* \"contracts/erc20/SBT-007.sol\":1514:1593  function setContractStatus() public onlyOwner {... */\n    tag_84:\n        /* \"@openzeppelin/contracts/access/Ownable.sol\":1094:1107  _checkOwner() */\n      tag_201\n        /* \"@openzeppelin/contracts/access/Ownable.sol\":1094:1105  _checkOwner */\n      tag_175\n        /* \"@openzeppelin/contracts/access/Ownable.sol\":1094:1107  _checkOwner() */\n      jump\t// in\n    tag_201:\n        /* \"contracts/erc20/SBT-007.sol\":1580:1586  status */\n      0x05\n      dup1\n      sload\n      not(shl(0xa0, 0xff))\n        /* \"contracts/erc20/SBT-007.sol\":1570:1586  status = !status */\n      dup2\n      and\n      shl(0xa0, 0x01)\n        /* \"contracts/erc20/SBT-007.sol\":1580:1586  status */\n      swap2\n      dup3\n      swap1\n      div\n      0xff\n      and\n        /* \"contracts/erc20/SBT-007.sol\":1579:1586  !status */\n      iszero\n        /* \"contracts/erc20/SBT-007.sol\":1570:1586  status = !status */\n      swap1\n      swap2\n      mul\n      or\n      swap1\n      sstore\n        /* \"contracts/erc20/SBT-007.sol\":1514:1593  function setContractStatus() public onlyOwner {... */\n      jump\t// out\n        /* \"contracts/erc20/SBT-007.sol\":1599:1824  function mint(address account, uint256 amount) external {... */\n    tag_87:\n        /* \"contracts/erc20/SBT-007.sol\":1687:1698  LockAddress */\n      and(sub(shl(0xa0, 0x01), 0x01), sload(0x08))\n        /* \"contracts/erc20/SBT-007.sol\":1673:1683  msg.sender */\n      caller\n        /* \"contracts/erc20/SBT-007.sol\":1673:1698  msg.sender == LockAddress */\n      eq\n      dup1\n        /* \"contracts/erc20/SBT-007.sol\":1673:1724  msg.sender == LockAddress || msg.sender == fireSeed */\n      tag_204\n      jumpi\n      pop\n        /* \"contracts/erc20/SBT-007.sol\":1716:1724  fireSeed */\n      and(sub(shl(0xa0, 0x01), 0x01), sload(0x0a))\n        /* \"contracts/erc20/SBT-007.sol\":1702:1712  msg.sender */\n      caller\n        /* \"contracts/erc20/SBT-007.sol\":1702:1724  msg.sender == fireSeed */\n      eq\n        /* \"contracts/erc20/SBT-007.sol\":1673:1724  msg.sender == LockAddress || msg.sender == fireSeed */\n    tag_204:\n        /* \"contracts/erc20/SBT-007.sol\":1673:1749  msg.sender == LockAddress || msg.sender == fireSeed || msg.sender ==passPort */\n      dup1\n      tag_205\n      jumpi\n      pop\n        /* \"contracts/erc20/SBT-007.sol\":1741:1749  passPort */\n      and(sub(shl(0xa0, 0x01), 0x01), sload(0x0b))\n        /* \"contracts/erc20/SBT-007.sol\":1728:1738  msg.sender */\n      caller\n        /* \"contracts/erc20/SBT-007.sol\":1728:1749  msg.sender ==passPort */\n      eq\n        /* \"contracts/erc20/SBT-007.sol\":1673:1749  msg.sender == LockAddress || msg.sender == fireSeed || msg.sender ==passPort */\n    tag_205:\n        /* \"contracts/erc20/SBT-007.sol\":1665:1784  require(msg.sender == LockAddress || msg.sender == fireSeed || msg.sender ==passPort,\"SBT007:you set Address is error\") */\n      tag_206\n      jumpi\n      mload(0x40)\n      shl(0xe5, 0x461bcd)\n      dup2\n      mstore\n        /* \"#utility.yul\":5366:5368   */\n      0x20\n        /* \"contracts/erc20/SBT-007.sol\":1665:1784  require(msg.sender == LockAddress || msg.sender == fireSeed || msg.sender ==passPort,\"SBT007:you set Address is error\") */\n      0x04\n      dup3\n      add\n        /* \"#utility.yul\":5348:5369   */\n      mstore\n        /* \"#utility.yul\":5405:5407   */\n      0x1f\n        /* \"#utility.yul\":5385:5403   */\n      0x24\n      dup3\n      add\n        /* \"#utility.yul\":5378:5408   */\n      mstore\n        /* \"#utility.yul\":5444:5477   */\n      0x5342543030373a796f75207365742041646472657373206973206572726f7200\n        /* \"#utility.yul\":5424:5442   */\n      0x44\n      dup3\n      add\n        /* \"#utility.yul\":5417:5478   */\n      mstore\n        /* \"#utility.yul\":5495:5513   */\n      0x64\n      add\n        /* \"contracts/erc20/SBT-007.sol\":1665:1784  require(msg.sender == LockAddress || msg.sender == fireSeed || msg.sender ==passPort,\"SBT007:you set Address is error\") */\n      tag_179\n        /* \"#utility.yul\":5164:5519   */\n      jump\n        /* \"contracts/erc20/SBT-007.sol\":1665:1784  require(msg.sender == LockAddress || msg.sender == fireSeed || msg.sender ==passPort,\"SBT007:you set Address is error\") */\n    tag_206:\n        /* \"contracts/erc20/SBT-007.sol\":1795:1817  _mint(account, amount) */\n      tag_209\n        /* \"contracts/erc20/SBT-007.sol\":1801:1808  account */\n      dup3\n        /* \"contracts/erc20/SBT-007.sol\":1810:1816  amount */\n      dup3\n        /* \"contracts/erc20/SBT-007.sol\":1795:1800  _mint */\n      tag_210\n        /* \"contracts/erc20/SBT-007.sol\":1795:1817  _mint(account, amount) */\n      jump\t// in\n    tag_209:\n        /* \"contracts/erc20/SBT-007.sol\":1599:1824  function mint(address account, uint256 amount) external {... */\n      pop\n      pop\n      jump\t// out\n        /* \"contracts/erc20/SBT-007.sol\":1199:1293  function setFireSeed(address _fireSeed) public onlyOwner {... */\n    tag_90:\n        /* \"@openzeppelin/contracts/access/Ownable.sol\":1094:1107  _checkOwner() */\n      tag_212\n        /* \"@openzeppelin/contracts/access/Ownable.sol\":1094:1105  _checkOwner */\n      tag_175\n        /* \"@openzeppelin/contracts/access/Ownable.sol\":1094:1107  _checkOwner() */\n      jump\t// in\n    tag_212:\n        /* \"contracts/erc20/SBT-007.sol\":1266:1274  fireSeed */\n      0x0a\n        /* \"contracts/erc20/SBT-007.sol\":1266:1286  fireSeed = _fireSeed */\n      dup1\n      sload\n      not(sub(shl(0xa0, 0x01), 0x01))\n      and\n      sub(shl(0xa0, 0x01), 0x01)\n      swap3\n      swap1\n      swap3\n      and\n      swap2\n      swap1\n      swap2\n      or\n      swap1\n      sstore\n        /* \"contracts/erc20/SBT-007.sol\":1199:1293  function setFireSeed(address _fireSeed) public onlyOwner {... */\n      jump\t// out\n        /* \"@openzeppelin/contracts/access/Ownable.sol\":1831:1932  function renounceOwnership() public virtual onlyOwner {... */\n    tag_104:\n        /* \"@openzeppelin/contracts/access/Ownable.sol\":1094:1107  _checkOwner() */\n      tag_216\n        /* \"@openzeppelin/contracts/access/Ownable.sol\":1094:1105  _checkOwner */\n      tag_175\n        /* \"@openzeppelin/contracts/access/Ownable.sol\":1094:1107  _checkOwner() */\n      jump\t// in\n    tag_216:\n        /* \"@openzeppelin/contracts/access/Ownable.sol\":1895:1925  _transferOwnership(address(0)) */\n      tag_218\n        /* \"@openzeppelin/contracts/access/Ownable.sol\":1922:1923  0 */\n      0x00\n        /* \"@openzeppelin/contracts/access/Ownable.sol\":1895:1913  _transferOwnership */\n      tag_219\n        /* \"@openzeppelin/contracts/access/Ownable.sol\":1895:1925  _transferOwnership(address(0)) */\n      jump\t// in\n    tag_218:\n        /* \"@openzeppelin/contracts/access/Ownable.sol\":1831:1932  function renounceOwnership() public virtual onlyOwner {... */\n      jump\t// out\n        /* \"contracts/erc20/SBT-007.sol\":3090:4193  function getPriorVotes(address account, uint blockNumber) public view returns (uint96) {... */\n    tag_107:\n        /* \"contracts/erc20/SBT-007.sol\":3196:3202  status */\n      sload(0x05)\n        /* \"contracts/erc20/SBT-007.sol\":3169:3175  uint96 */\n      0x00\n      swap1\n      shl(0xa0, 0x01)\n        /* \"contracts/erc20/SBT-007.sol\":3196:3202  status */\n      swap1\n      div\n      0xff\n      and\n        /* \"contracts/erc20/SBT-007.sol\":3195:3202  !status */\n      iszero\n        /* \"contracts/erc20/SBT-007.sol\":3187:3226  require(!status , \"status is not able\") */\n      tag_221\n      jumpi\n      mload(0x40)\n      shl(0xe5, 0x461bcd)\n      dup2\n      mstore\n      0x04\n      add\n      tag_179\n      swap1\n      tag_180\n      jump\t// in\n    tag_221:\n        /* \"contracts/erc20/SBT-007.sol\":3261:3273  block.number */\n      number\n        /* \"contracts/erc20/SBT-007.sol\":3246:3257  blockNumber */\n      dup3\n        /* \"contracts/erc20/SBT-007.sol\":3246:3273  blockNumber <= block.number */\n      gt\n      iszero\n        /* \"contracts/erc20/SBT-007.sol\":3238:3303  require(blockNumber <= block.number, \"ERC20: not yet determined\") */\n      tag_223\n      jumpi\n      mload(0x40)\n      shl(0xe5, 0x461bcd)\n      dup2\n      mstore\n        /* \"#utility.yul\":5726:5728   */\n      0x20\n        /* \"contracts/erc20/SBT-007.sol\":3238:3303  require(blockNumber <= block.number, \"ERC20: not yet determined\") */\n      0x04\n      dup3\n      add\n        /* \"#utility.yul\":5708:5729   */\n      mstore\n        /* \"#utility.yul\":5765:5767   */\n      0x19\n        /* \"#utility.yul\":5745:5763   */\n      0x24\n      dup3\n      add\n        /* \"#utility.yul\":5738:5768   */\n      mstore\n        /* \"#utility.yul\":5804:5831   */\n      0x45524332303a206e6f74207965742064657465726d696e656400000000000000\n        /* \"#utility.yul\":5784:5802   */\n      0x44\n      dup3\n      add\n        /* \"#utility.yul\":5777:5832   */\n      mstore\n        /* \"#utility.yul\":5849:5867   */\n      0x64\n      add\n        /* \"contracts/erc20/SBT-007.sol\":3238:3303  require(blockNumber <= block.number, \"ERC20: not yet determined\") */\n      tag_179\n        /* \"#utility.yul\":5524:5873   */\n      jump\n        /* \"contracts/erc20/SBT-007.sol\":3238:3303  require(blockNumber <= block.number, \"ERC20: not yet determined\") */\n    tag_223:\n      sub(shl(0xa0, 0x01), 0x01)\n        /* \"contracts/erc20/SBT-007.sol\":3341:3364  numCheckpoints[account] */\n      dup4\n      and\n        /* \"contracts/erc20/SBT-007.sol\":3319:3338  uint32 nCheckpoints */\n      0x00\n        /* \"contracts/erc20/SBT-007.sol\":3341:3364  numCheckpoints[account] */\n      swap1\n      dup2\n      mstore\n        /* \"contracts/erc20/SBT-007.sol\":3341:3355  numCheckpoints */\n      0x0d\n        /* \"contracts/erc20/SBT-007.sol\":3341:3364  numCheckpoints[account] */\n      0x20\n      mstore\n      0x40\n      swap1\n      keccak256\n      sload\n      0xffffffff\n      and\n        /* \"contracts/erc20/SBT-007.sol\":3379:3396  nCheckpoints == 0 */\n      dup1\n      iszero\n      dup1\n        /* \"contracts/erc20/SBT-007.sol\":3379:3447  nCheckpoints == 0 || checkpoints[account][0].fromBlock > blockNumber */\n      tag_226\n      jumpi\n      pop\n      sub(shl(0xa0, 0x01), 0x01)\n        /* \"contracts/erc20/SBT-007.sol\":3400:3420  checkpoints[account] */\n      dup5\n      and\n      0x00\n      swap1\n      dup2\n      mstore\n        /* \"contracts/erc20/SBT-007.sol\":3400:3411  checkpoints */\n      0x0c\n        /* \"contracts/erc20/SBT-007.sol\":3400:3420  checkpoints[account] */\n      0x20\n      swap1\n      dup2\n      mstore\n      0x40\n      dup1\n      dup4\n      keccak256\n        /* \"contracts/erc20/SBT-007.sol\":3400:3423  checkpoints[account][0] */\n      dup4\n      dup1\n      mstore\n      swap1\n      swap2\n      mstore\n      swap1\n      keccak256\n        /* \"contracts/erc20/SBT-007.sol\":3400:3433  checkpoints[account][0].fromBlock */\n      sload\n        /* \"contracts/erc20/SBT-007.sol\":3400:3423  checkpoints[account][0] */\n      0xffffffff\n        /* \"contracts/erc20/SBT-007.sol\":3400:3433  checkpoints[account][0].fromBlock */\n      and\n        /* \"contracts/erc20/SBT-007.sol\":3400:3447  checkpoints[account][0].fromBlock > blockNumber */\n      dup4\n      lt\n        /* \"contracts/erc20/SBT-007.sol\":3379:3447  nCheckpoints == 0 || checkpoints[account][0].fromBlock > blockNumber */\n    tag_226:\n        /* \"contracts/erc20/SBT-007.sol\":3375:3484  if (nCheckpoints == 0 || checkpoints[account][0].fromBlock > blockNumber) {... */\n      iszero\n      tag_227\n      jumpi\n        /* \"contracts/erc20/SBT-007.sol\":3471:3472  0 */\n      0x00\n        /* \"contracts/erc20/SBT-007.sol\":3464:3472  return 0 */\n      swap2\n      pop\n      pop\n      jump(tag_167)\n        /* \"contracts/erc20/SBT-007.sol\":3375:3484  if (nCheckpoints == 0 || checkpoints[account][0].fromBlock > blockNumber) {... */\n    tag_227:\n      sub(shl(0xa0, 0x01), 0x01)\n        /* \"contracts/erc20/SBT-007.sol\":3508:3528  checkpoints[account] */\n      dup5\n      and\n      0x00\n      swap1\n      dup2\n      mstore\n        /* \"contracts/erc20/SBT-007.sol\":3508:3519  checkpoints */\n      0x0c\n        /* \"contracts/erc20/SBT-007.sol\":3508:3528  checkpoints[account] */\n      0x20\n      mstore\n      0x40\n      dup2\n      keccak256\n        /* \"contracts/erc20/SBT-007.sol\":3560:3571  blockNumber */\n      dup5\n      swap2\n        /* \"contracts/erc20/SBT-007.sol\":3529:3545  nCheckpoints - 1 */\n      tag_228\n        /* \"contracts/erc20/SBT-007.sol\":3544:3545  1 */\n      0x01\n        /* \"contracts/erc20/SBT-007.sol\":3529:3541  nCheckpoints */\n      dup6\n        /* \"contracts/erc20/SBT-007.sol\":3529:3545  nCheckpoints - 1 */\n      tag_229\n      jump\t// in\n    tag_228:\n        /* \"contracts/erc20/SBT-007.sol\":3508:3546  checkpoints[account][nCheckpoints - 1] */\n      0xffffffff\n      swap1\n      dup2\n      and\n      dup3\n      mstore\n      0x20\n      dup3\n      add\n      swap3\n      swap1\n      swap3\n      mstore\n      0x40\n      add\n      0x00\n      keccak256\n        /* \"contracts/erc20/SBT-007.sol\":3508:3556  checkpoints[account][nCheckpoints - 1].fromBlock */\n      sload\n      and\n        /* \"contracts/erc20/SBT-007.sol\":3508:3571  checkpoints[account][nCheckpoints - 1].fromBlock <= blockNumber */\n      gt\n        /* \"contracts/erc20/SBT-007.sol\":3504:3651  if (checkpoints[account][nCheckpoints - 1].fromBlock <= blockNumber) {... */\n      tag_230\n      jumpi\n      sub(shl(0xa0, 0x01), 0x01)\n        /* \"contracts/erc20/SBT-007.sol\":3595:3615  checkpoints[account] */\n      dup5\n      and\n      0x00\n      swap1\n      dup2\n      mstore\n        /* \"contracts/erc20/SBT-007.sol\":3595:3606  checkpoints */\n      0x0c\n        /* \"contracts/erc20/SBT-007.sol\":3595:3615  checkpoints[account] */\n      0x20\n      mstore\n      0x40\n      dup2\n      keccak256\n      swap1\n        /* \"contracts/erc20/SBT-007.sol\":3616:3632  nCheckpoints - 1 */\n      tag_231\n        /* \"contracts/erc20/SBT-007.sol\":3631:3632  1 */\n      0x01\n        /* \"contracts/erc20/SBT-007.sol\":3616:3628  nCheckpoints */\n      dup5\n        /* \"contracts/erc20/SBT-007.sol\":3616:3632  nCheckpoints - 1 */\n      tag_229\n      jump\t// in\n    tag_231:\n        /* \"contracts/erc20/SBT-007.sol\":3595:3633  checkpoints[account][nCheckpoints - 1] */\n      0xffffffff\n      and\n      dup2\n      mstore\n      0x20\n      dup2\n      add\n      swap2\n      swap1\n      swap2\n      mstore\n      0x40\n      add\n      0x00\n      keccak256\n        /* \"contracts/erc20/SBT-007.sol\":3595:3639  checkpoints[account][nCheckpoints - 1].votes */\n      sload\n      0x0100000000\n      swap1\n      div\n      sub(shl(0x60, 0x01), 0x01)\n      and\n      swap2\n      pop\n        /* \"contracts/erc20/SBT-007.sol\":3588:3639  return checkpoints[account][nCheckpoints - 1].votes */\n      tag_167\n      swap1\n      pop\n      jump\n        /* \"contracts/erc20/SBT-007.sol\":3504:3651  if (checkpoints[account][nCheckpoints - 1].fromBlock <= blockNumber) {... */\n    tag_230:\n        /* \"contracts/erc20/SBT-007.sol\":3666:3678  uint32 lower */\n      0x00\n      dup1\n        /* \"contracts/erc20/SBT-007.sol\":3708:3724  nCheckpoints - 1 */\n      tag_232\n        /* \"contracts/erc20/SBT-007.sol\":3723:3724  1 */\n      0x01\n        /* \"contracts/erc20/SBT-007.sol\":3708:3720  nCheckpoints */\n      dup5\n        /* \"contracts/erc20/SBT-007.sol\":3708:3724  nCheckpoints - 1 */\n      tag_229\n      jump\t// in\n    tag_232:\n        /* \"contracts/erc20/SBT-007.sol\":3693:3724  uint32 upper = nCheckpoints - 1 */\n      swap1\n      pop\n        /* \"contracts/erc20/SBT-007.sol\":3735:4136  while (upper > lower) {... */\n    tag_233:\n        /* \"contracts/erc20/SBT-007.sol\":3750:3755  lower */\n      dup2\n        /* \"contracts/erc20/SBT-007.sol\":3742:3755  upper > lower */\n      0xffffffff\n      and\n        /* \"contracts/erc20/SBT-007.sol\":3742:3747  upper */\n      dup2\n        /* \"contracts/erc20/SBT-007.sol\":3742:3755  upper > lower */\n      0xffffffff\n      and\n      gt\n        /* \"contracts/erc20/SBT-007.sol\":3735:4136  while (upper > lower) {... */\n      iszero\n      tag_234\n      jumpi\n        /* \"contracts/erc20/SBT-007.sol\":3772:3785  uint32 center */\n      0x00\n        /* \"contracts/erc20/SBT-007.sol\":3814:3815  2 */\n      0x02\n        /* \"contracts/erc20/SBT-007.sol\":3797:3810  upper - lower */\n      tag_235\n        /* \"contracts/erc20/SBT-007.sol\":3805:3810  lower */\n      dup5\n        /* \"contracts/erc20/SBT-007.sol\":3797:3802  upper */\n      dup5\n        /* \"contracts/erc20/SBT-007.sol\":3797:3810  upper - lower */\n      tag_229\n      jump\t// in\n    tag_235:\n        /* \"contracts/erc20/SBT-007.sol\":3796:3815  (upper - lower) / 2 */\n      tag_236\n      swap2\n      swap1\n      tag_237\n      jump\t// in\n    tag_236:\n        /* \"contracts/erc20/SBT-007.sol\":3788:3815  upper - (upper - lower) / 2 */\n      tag_238\n      swap1\n        /* \"contracts/erc20/SBT-007.sol\":3788:3793  upper */\n      dup4\n        /* \"contracts/erc20/SBT-007.sol\":3788:3815  upper - (upper - lower) / 2 */\n      tag_229\n      jump\t// in\n    tag_238:\n      sub(shl(0xa0, 0x01), 0x01)\n        /* \"contracts/erc20/SBT-007.sol\":3854:3874  checkpoints[account] */\n      dup9\n      and\n        /* \"contracts/erc20/SBT-007.sol\":3831:3851  Checkpoint memory cp */\n      0x00\n        /* \"contracts/erc20/SBT-007.sol\":3854:3874  checkpoints[account] */\n      swap1\n      dup2\n      mstore\n        /* \"contracts/erc20/SBT-007.sol\":3854:3865  checkpoints */\n      0x0c\n        /* \"contracts/erc20/SBT-007.sol\":3854:3874  checkpoints[account] */\n      0x20\n      swap1\n      dup2\n      mstore\n      0x40\n      dup1\n      dup4\n      keccak256\n        /* \"contracts/erc20/SBT-007.sol\":3854:3882  checkpoints[account][center] */\n      0xffffffff\n      dup6\n      dup2\n      and\n      dup6\n      mstore\n      swap1\n      dup4\n      mstore\n      swap3\n      dup2\n      swap1\n      keccak256\n        /* \"contracts/erc20/SBT-007.sol\":3831:3882  Checkpoint memory cp = checkpoints[account][center] */\n      dup2\n      mload\n      dup1\n      dup4\n      add\n      swap1\n      swap3\n      mstore\n      sload\n      swap3\n      dup4\n      and\n      dup1\n      dup3\n      mstore\n      0x0100000000\n      swap1\n      swap4\n      div\n      sub(shl(0x60, 0x01), 0x01)\n      and\n      swap2\n      dup2\n      add\n      swap2\n      swap1\n      swap2\n      mstore\n        /* \"contracts/erc20/SBT-007.sol\":3854:3882  checkpoints[account][center] */\n      swap2\n      swap3\n      pop\n        /* \"contracts/erc20/SBT-007.sol\":3901:3928  cp.fromBlock == blockNumber */\n      dup8\n      swap1\n      sub\n        /* \"contracts/erc20/SBT-007.sol\":3897:4126  if (cp.fromBlock == blockNumber) {... */\n      tag_239\n      jumpi\n        /* \"contracts/erc20/SBT-007.sol\":3956:3964  cp.votes */\n      0x20\n      add\n      mload\n      swap5\n      pop\n        /* \"contracts/erc20/SBT-007.sol\":3949:3964  return cp.votes */\n      tag_167\n      swap4\n      pop\n      pop\n      pop\n      pop\n      jump\n        /* \"contracts/erc20/SBT-007.sol\":3897:4126  if (cp.fromBlock == blockNumber) {... */\n    tag_239:\n        /* \"contracts/erc20/SBT-007.sol\":3990:4002  cp.fromBlock */\n      dup1\n      mload\n        /* \"contracts/erc20/SBT-007.sol\":3990:4016  cp.fromBlock < blockNumber */\n      0xffffffff\n      and\n      dup8\n      gt\n        /* \"contracts/erc20/SBT-007.sol\":3986:4126  if (cp.fromBlock < blockNumber) {... */\n      iszero\n      tag_241\n      jumpi\n        /* \"contracts/erc20/SBT-007.sol\":4045:4051  center */\n      dup2\n        /* \"contracts/erc20/SBT-007.sol\":4037:4051  lower = center */\n      swap4\n      pop\n        /* \"contracts/erc20/SBT-007.sol\":3986:4126  if (cp.fromBlock < blockNumber) {... */\n      jump(tag_242)\n    tag_241:\n        /* \"contracts/erc20/SBT-007.sol\":4100:4110  center - 1 */\n      tag_243\n        /* \"contracts/erc20/SBT-007.sol\":4109:4110  1 */\n      0x01\n        /* \"contracts/erc20/SBT-007.sol\":4100:4106  center */\n      dup4\n        /* \"contracts/erc20/SBT-007.sol\":4100:4110  center - 1 */\n      tag_229\n      jump\t// in\n    tag_243:\n        /* \"contracts/erc20/SBT-007.sol\":4092:4110  upper = center - 1 */\n      swap3\n      pop\n        /* \"contracts/erc20/SBT-007.sol\":3986:4126  if (cp.fromBlock < blockNumber) {... */\n    tag_242:\n        /* \"contracts/erc20/SBT-007.sol\":3757:4136  {... */\n      pop\n      pop\n        /* \"contracts/erc20/SBT-007.sol\":3735:4136  while (upper > lower) {... */\n      jump(tag_233)\n    tag_234:\n      pop\n      sub(shl(0xa0, 0x01), 0x01)\n        /* \"contracts/erc20/SBT-007.sol\":4152:4172  checkpoints[account] */\n      dup6\n      and\n      0x00\n      swap1\n      dup2\n      mstore\n        /* \"contracts/erc20/SBT-007.sol\":4152:4163  checkpoints */\n      0x0c\n        /* \"contracts/erc20/SBT-007.sol\":4152:4172  checkpoints[account] */\n      0x20\n      swap1\n      dup2\n      mstore\n      0x40\n      dup1\n      dup4\n      keccak256\n        /* \"contracts/erc20/SBT-007.sol\":4152:4179  checkpoints[account][lower] */\n      0xffffffff\n      swap1\n      swap5\n      and\n      dup4\n      mstore\n      swap3\n      swap1\n      mstore\n      keccak256\n        /* \"contracts/erc20/SBT-007.sol\":4152:4185  checkpoints[account][lower].votes */\n      sload\n      sub(shl(0x60, 0x01), 0x01)\n      0x0100000000\n      swap1\n      swap2\n      div\n      and\n      swap2\n      pop\n      pop\n        /* \"contracts/erc20/SBT-007.sol\":3090:4193  function getPriorVotes(address account, uint blockNumber) public view returns (uint96) {... */\n      swap3\n      swap2\n      pop\n      pop\n      jump\t// out\n        /* \"@openzeppelin/contracts/token/ERC20/ERC20.sol\":2365:2467  function symbol() public view virtual override returns (string memory) {... */\n    tag_117:\n        /* \"@openzeppelin/contracts/token/ERC20/ERC20.sol\":2421:2434  string memory */\n      0x60\n        /* \"@openzeppelin/contracts/token/ERC20/ERC20.sol\":2453:2460  _symbol */\n      0x04\n        /* \"@openzeppelin/contracts/token/ERC20/ERC20.sol\":2446:2460  return _symbol */\n      dup1\n      sload\n      tag_161\n      swap1\n      tag_162\n      jump\t// in\n        /* \"contracts/erc20/SBT-007.sol\":1829:2054  function burn(address account, uint256 amount) external {... */\n    tag_121:\n        /* \"contracts/erc20/SBT-007.sol\":1917:1928  LockAddress */\n      and(sub(shl(0xa0, 0x01), 0x01), sload(0x08))\n        /* \"contracts/erc20/SBT-007.sol\":1903:1913  msg.sender */\n      caller\n        /* \"contracts/erc20/SBT-007.sol\":1903:1928  msg.sender == LockAddress */\n      eq\n      dup1\n        /* \"contracts/erc20/SBT-007.sol\":1903:1954  msg.sender == LockAddress || msg.sender == fireSeed */\n      tag_252\n      jumpi\n      pop\n        /* \"contracts/erc20/SBT-007.sol\":1946:1954  fireSeed */\n      and(sub(shl(0xa0, 0x01), 0x01), sload(0x0a))\n        /* \"contracts/erc20/SBT-007.sol\":1932:1942  msg.sender */\n      caller\n        /* \"contracts/erc20/SBT-007.sol\":1932:1954  msg.sender == fireSeed */\n      eq\n        /* \"contracts/erc20/SBT-007.sol\":1903:1954  msg.sender == LockAddress || msg.sender == fireSeed */\n    tag_252:\n        /* \"contracts/erc20/SBT-007.sol\":1903:1979  msg.sender == LockAddress || msg.sender == fireSeed || msg.sender ==passPort */\n      dup1\n      tag_253\n      jumpi\n      pop\n        /* \"contracts/erc20/SBT-007.sol\":1971:1979  passPort */\n      and(sub(shl(0xa0, 0x01), 0x01), sload(0x0b))\n        /* \"contracts/erc20/SBT-007.sol\":1958:1968  msg.sender */\n      caller\n        /* \"contracts/erc20/SBT-007.sol\":1958:1979  msg.sender ==passPort */\n      eq\n        /* \"contracts/erc20/SBT-007.sol\":1903:1979  msg.sender == LockAddress || msg.sender == fireSeed || msg.sender ==passPort */\n    tag_253:\n        /* \"contracts/erc20/SBT-007.sol\":1895:2014  require(msg.sender == LockAddress || msg.sender == fireSeed || msg.sender ==passPort,\"SBT007:you set Address is error\") */\n      tag_254\n      jumpi\n      mload(0x40)\n      shl(0xe5, 0x461bcd)\n      dup2\n      mstore\n        /* \"#utility.yul\":5366:5368   */\n      0x20\n        /* \"contracts/erc20/SBT-007.sol\":1895:2014  require(msg.sender == LockAddress || msg.sender == fireSeed || msg.sender ==passPort,\"SBT007:you set Address is error\") */\n      0x04\n      dup3\n      add\n        /* \"#utility.yul\":5348:5369   */\n      mstore\n        /* \"#utility.yul\":5405:5407   */\n      0x1f\n        /* \"#utility.yul\":5385:5403   */\n      0x24\n      dup3\n      add\n        /* \"#utility.yul\":5378:5408   */\n      mstore\n        /* \"#utility.yul\":5444:5477   */\n      0x5342543030373a796f75207365742041646472657373206973206572726f7200\n        /* \"#utility.yul\":5424:5442   */\n      0x44\n      dup3\n      add\n        /* \"#utility.yul\":5417:5478   */\n      mstore\n        /* \"#utility.yul\":5495:5513   */\n      0x64\n      add\n        /* \"contracts/erc20/SBT-007.sol\":1895:2014  require(msg.sender == LockAddress || msg.sender == fireSeed || msg.sender ==passPort,\"SBT007:you set Address is error\") */\n      tag_179\n        /* \"#utility.yul\":5164:5519   */\n      jump\n        /* \"contracts/erc20/SBT-007.sol\":1895:2014  require(msg.sender == LockAddress || msg.sender == fireSeed || msg.sender ==passPort,\"SBT007:you set Address is error\") */\n    tag_254:\n        /* \"contracts/erc20/SBT-007.sol\":2025:2047  _burn(account, amount) */\n      tag_209\n        /* \"contracts/erc20/SBT-007.sol\":2031:2038  account */\n      dup3\n        /* \"contracts/erc20/SBT-007.sol\":2040:2046  amount */\n      dup3\n        /* \"contracts/erc20/SBT-007.sol\":2025:2030  _burn */\n      tag_257\n        /* \"contracts/erc20/SBT-007.sol\":2025:2047  _burn(account, amount) */\n      jump\t// in\n        /* \"@openzeppelin/contracts/token/ERC20/ERC20.sol\":6592:7019  function decreaseAllowance(address spender, uint256 subtractedValue) public virtual returns (bool) {... */\n    tag_124:\n        /* \"@openzeppelin/contracts/token/ERC20/ERC20.sol\":6685:6689  bool */\n      0x00\n        /* \"@openzeppelin/contracts/utils/Context.sol\":719:729  msg.sender */\n      caller\n        /* \"@openzeppelin/contracts/token/ERC20/ERC20.sol\":6685:6689  bool */\n      dup2\n        /* \"@openzeppelin/contracts/token/ERC20/ERC20.sol\":6766:6791  allowance(owner, spender) */\n      tag_260\n        /* \"@openzeppelin/contracts/utils/Context.sol\":719:729  msg.sender */\n      dup3\n        /* \"@openzeppelin/contracts/token/ERC20/ERC20.sol\":6783:6790  spender */\n      dup7\n        /* \"@openzeppelin/contracts/token/ERC20/ERC20.sol\":6766:6775  allowance */\n      tag_146\n        /* \"@openzeppelin/contracts/token/ERC20/ERC20.sol\":6766:6791  allowance(owner, spender) */\n      jump\t// in\n    tag_260:\n        /* \"@openzeppelin/contracts/token/ERC20/ERC20.sol\":6739:6791  uint256 currentAllowance = allowance(owner, spender) */\n      swap1\n      pop\n        /* \"@openzeppelin/contracts/token/ERC20/ERC20.sol\":6829:6844  subtractedValue */\n      dup4\n        /* \"@openzeppelin/contracts/token/ERC20/ERC20.sol\":6809:6825  currentAllowance */\n      dup2\n        /* \"@openzeppelin/contracts/token/ERC20/ERC20.sol\":6809:6844  currentAllowance >= subtractedValue */\n      lt\n      iszero\n        /* \"@openzeppelin/contracts/token/ERC20/ERC20.sol\":6801:6886  require(currentAllowance >= subtractedValue, \"ERC20: decreased allowance below zero\") */\n      tag_261\n      jumpi\n      mload(0x40)\n      shl(0xe5, 0x461bcd)\n      dup2\n      mstore\n        /* \"#utility.yul\":6553:6555   */\n      0x20\n        /* \"@openzeppelin/contracts/token/ERC20/ERC20.sol\":6801:6886  require(currentAllowance >= subtractedValue, \"ERC20: decreased allowance below zero\") */\n      0x04\n      dup3\n      add\n        /* \"#utility.yul\":6535:6556   */\n      mstore\n        /* \"#utility.yul\":6592:6594   */\n      0x25\n        /* \"#utility.yul\":6572:6590   */\n      0x24\n      dup3\n      add\n        /* \"#utility.yul\":6565:6595   */\n      mstore\n        /* \"#utility.yul\":6631:6665   */\n      0x45524332303a2064656372656173656420616c6c6f77616e63652062656c6f77\n        /* \"#utility.yul\":6611:6629   */\n      0x44\n      dup3\n      add\n        /* \"#utility.yul\":6604:6666   */\n      mstore\n      shl(0xd8, 0x207a65726f)\n        /* \"#utility.yul\":6682:6700   */\n      0x64\n      dup3\n      add\n        /* \"#utility.yul\":6675:6710   */\n      mstore\n        /* \"#utility.yul\":6727:6746   */\n      0x84\n      add\n        /* \"@openzeppelin/contracts/token/ERC20/ERC20.sol\":6801:6886  require(currentAllowance >= subtractedValue, \"ERC20: decreased allowance below zero\") */\n      tag_179\n        /* \"#utility.yul\":6351:6752   */\n      jump\n        /* \"@openzeppelin/contracts/token/ERC20/ERC20.sol\":6801:6886  require(currentAllowance >= subtractedValue, \"ERC20: decreased allowance below zero\") */\n    tag_261:\n        /* \"@openzeppelin/contracts/token/ERC20/ERC20.sol\":6920:6980  _approve(owner, spender, currentAllowance - subtractedValue) */\n      tag_189\n        /* \"@openzeppelin/contracts/token/ERC20/ERC20.sol\":6929:6934  owner */\n      dup3\n        /* \"@openzeppelin/contracts/token/ERC20/ERC20.sol\":6936:6943  spender */\n      dup7\n        /* \"@openzeppelin/contracts/token/ERC20/ERC20.sol\":6964:6979  subtractedValue */\n      dup7\n        /* \"@openzeppelin/contracts/token/ERC20/ERC20.sol\":6945:6961  currentAllowance */\n      dup5\n        /* \"@openzeppelin/contracts/token/ERC20/ERC20.sol\":6945:6979  currentAllowance - subtractedValue */\n      sub\n        /* \"@openzeppelin/contracts/token/ERC20/ERC20.sol\":6920:6928  _approve */\n      tag_171\n        /* \"@openzeppelin/contracts/token/ERC20/ERC20.sol\":6920:6980  _approve(owner, spender, currentAllowance - subtractedValue) */\n      jump\t// in\n        /* \"contracts/erc20/SBT-007.sol\":1397:1509  function setMintExternalAddress(address _LockAddress) public onlyOwner{... */\n    tag_135:\n        /* \"@openzeppelin/contracts/access/Ownable.sol\":1094:1107  _checkOwner() */\n      tag_271\n        /* \"@openzeppelin/contracts/access/Ownable.sol\":1094:1105  _checkOwner */\n      tag_175\n        /* \"@openzeppelin/contracts/access/Ownable.sol\":1094:1107  _checkOwner() */\n      jump\t// in\n    tag_271:\n        /* \"contracts/erc20/SBT-007.sol\":1477:1488  LockAddress */\n      0x08\n        /* \"contracts/erc20/SBT-007.sol\":1477:1502  LockAddress =_LockAddress */\n      dup1\n      sload\n      not(sub(shl(0xa0, 0x01), 0x01))\n      and\n      sub(shl(0xa0, 0x01), 0x01)\n      swap3\n      swap1\n      swap3\n      and\n      swap2\n      swap1\n      swap2\n      or\n      swap1\n      sstore\n        /* \"contracts/erc20/SBT-007.sol\":1397:1509  function setMintExternalAddress(address _LockAddress) public onlyOwner{... */\n      jump\t// out\n        /* \"contracts/erc20/SBT-007.sol\":2812:3080  function getCurrentVotes(address account) external view returns (uint96) {... */\n    tag_138:\n        /* \"contracts/erc20/SBT-007.sol\":2904:2910  status */\n      sload(0x05)\n        /* \"contracts/erc20/SBT-007.sol\":2877:2883  uint96 */\n      0x00\n      swap1\n      shl(0xa0, 0x01)\n        /* \"contracts/erc20/SBT-007.sol\":2904:2910  status */\n      swap1\n      div\n      0xff\n      and\n        /* \"contracts/erc20/SBT-007.sol\":2903:2910  !status */\n      iszero\n        /* \"contracts/erc20/SBT-007.sol\":2895:2934  require(!status , \"status is not able\") */\n      tag_274\n      jumpi\n      mload(0x40)\n      shl(0xe5, 0x461bcd)\n      dup2\n      mstore\n      0x04\n      add\n      tag_179\n      swap1\n      tag_180\n      jump\t// in\n    tag_274:\n      sub(shl(0xa0, 0x01), 0x01)\n        /* \"contracts/erc20/SBT-007.sol\":2966:2989  numCheckpoints[account] */\n      dup3\n      and\n        /* \"contracts/erc20/SBT-007.sol\":2944:2963  uint32 nCheckpoints */\n      0x00\n        /* \"contracts/erc20/SBT-007.sol\":2966:2989  numCheckpoints[account] */\n      swap1\n      dup2\n      mstore\n        /* \"contracts/erc20/SBT-007.sol\":2966:2980  numCheckpoints */\n      0x0d\n        /* \"contracts/erc20/SBT-007.sol\":2966:2989  numCheckpoints[account] */\n      0x20\n      mstore\n      0x40\n      swap1\n      keccak256\n      sload\n      0xffffffff\n      and\n        /* \"contracts/erc20/SBT-007.sol\":3006:3022  nCheckpoints > 0 */\n      dup1\n        /* \"contracts/erc20/SBT-007.sol\":3006:3073  nCheckpoints > 0 ? checkpoints[account][nCheckpoints - 1].votes : 0 */\n      tag_276\n      jumpi\n        /* \"contracts/erc20/SBT-007.sol\":3072:3073  0 */\n      0x00\n        /* \"contracts/erc20/SBT-007.sol\":3006:3073  nCheckpoints > 0 ? checkpoints[account][nCheckpoints - 1].votes : 0 */\n      jump(tag_277)\n    tag_276:\n      sub(shl(0xa0, 0x01), 0x01)\n        /* \"contracts/erc20/SBT-007.sol\":3025:3045  checkpoints[account] */\n      dup4\n      and\n      0x00\n      swap1\n      dup2\n      mstore\n        /* \"contracts/erc20/SBT-007.sol\":3025:3036  checkpoints */\n      0x0c\n        /* \"contracts/erc20/SBT-007.sol\":3025:3045  checkpoints[account] */\n      0x20\n      mstore\n      0x40\n      dup2\n      keccak256\n      swap1\n        /* \"contracts/erc20/SBT-007.sol\":3046:3062  nCheckpoints - 1 */\n      tag_278\n        /* \"contracts/erc20/SBT-007.sol\":3061:3062  1 */\n      0x01\n        /* \"contracts/erc20/SBT-007.sol\":3046:3058  nCheckpoints */\n      dup5\n        /* \"contracts/erc20/SBT-007.sol\":3046:3062  nCheckpoints - 1 */\n      tag_229\n      jump\t// in\n    tag_278:\n        /* \"contracts/erc20/SBT-007.sol\":3025:3063  checkpoints[account][nCheckpoints - 1] */\n      0xffffffff\n      and\n      dup2\n      mstore\n      0x20\n      dup2\n      add\n      swap2\n      swap1\n      swap2\n      mstore\n      0x40\n      add\n      0x00\n      keccak256\n        /* \"contracts/erc20/SBT-007.sol\":3025:3069  checkpoints[account][nCheckpoints - 1].votes */\n      sload\n      0x0100000000\n      swap1\n      div\n      sub(shl(0x60, 0x01), 0x01)\n      and\n        /* \"contracts/erc20/SBT-007.sol\":3006:3073  nCheckpoints > 0 ? checkpoints[account][nCheckpoints - 1].votes : 0 */\n    tag_277:\n        /* \"contracts/erc20/SBT-007.sol\":2999:3073  return nCheckpoints > 0 ? checkpoints[account][nCheckpoints - 1].votes : 0 */\n      swap4\n        /* \"contracts/erc20/SBT-007.sol\":2812:3080  function getCurrentVotes(address account) external view returns (uint96) {... */\n      swap3\n      pop\n      pop\n      pop\n      jump\t// out\n        /* \"contracts/erc20/SBT-007.sol\":1088:1193  function setFireSoul(address firesoulAddress) public onlyOwner{... */\n    tag_142:\n        /* \"@openzeppelin/contracts/access/Ownable.sol\":1094:1107  _checkOwner() */\n      tag_280\n        /* \"@openzeppelin/contracts/access/Ownable.sol\":1094:1105  _checkOwner */\n      tag_175\n        /* \"@openzeppelin/contracts/access/Ownable.sol\":1094:1107  _checkOwner() */\n      jump\t// in\n    tag_280:\n        /* \"contracts/erc20/SBT-007.sol\":1160:1168  fireSoul */\n      0x09\n        /* \"contracts/erc20/SBT-007.sol\":1160:1186  fireSoul = firesoulAddress */\n      dup1\n      sload\n      not(sub(shl(0xa0, 0x01), 0x01))\n      and\n      sub(shl(0xa0, 0x01), 0x01)\n      swap3\n      swap1\n      swap3\n      and\n      swap2\n      swap1\n      swap2\n      or\n      swap1\n      sstore\n        /* \"contracts/erc20/SBT-007.sol\":1088:1193  function setFireSoul(address firesoulAddress) public onlyOwner{... */\n      jump\t// out\n        /* \"@openzeppelin/contracts/token/ERC20/ERC20.sol\":3974:4123  function allowance(address owner, address spender) public view virtual override returns (uint256) {... */\n    tag_146:\n      sub(shl(0xa0, 0x01), 0x01)\n        /* \"@openzeppelin/contracts/token/ERC20/ERC20.sol\":4089:4107  _allowances[owner] */\n      swap2\n      dup3\n      and\n        /* \"@openzeppelin/contracts/token/ERC20/ERC20.sol\":4063:4070  uint256 */\n      0x00\n        /* \"@openzeppelin/contracts/token/ERC20/ERC20.sol\":4089:4107  _allowances[owner] */\n      swap1\n      dup2\n      mstore\n        /* \"@openzeppelin/contracts/token/ERC20/ERC20.sol\":4089:4100  _allowances */\n      0x01\n        /* \"@openzeppelin/contracts/token/ERC20/ERC20.sol\":4089:4107  _allowances[owner] */\n      0x20\n      swap1\n      dup2\n      mstore\n      0x40\n      dup1\n      dup4\n      keccak256\n        /* \"@openzeppelin/contracts/token/ERC20/ERC20.sol\":4089:4116  _allowances[owner][spender] */\n      swap4\n      swap1\n      swap5\n      and\n      dup3\n      mstore\n      swap2\n      swap1\n      swap2\n      mstore\n      keccak256\n      sload\n      swap1\n        /* \"@openzeppelin/contracts/token/ERC20/ERC20.sol\":3974:4123  function allowance(address owner, address spender) public view virtual override returns (uint256) {... */\n      jump\t// out\n        /* \"@openzeppelin/contracts/access/Ownable.sol\":2081:2279  function transferOwnership(address newOwner) public virtual onlyOwner {... */\n    tag_156:\n        /* \"@openzeppelin/contracts/access/Ownable.sol\":1094:1107  _checkOwner() */\n      tag_284\n        /* \"@openzeppelin/contracts/access/Ownable.sol\":1094:1105  _checkOwner */\n      tag_175\n        /* \"@openzeppelin/contracts/access/Ownable.sol\":1094:1107  _checkOwner() */\n      jump\t// in\n    tag_284:\n      sub(shl(0xa0, 0x01), 0x01)\n        /* \"@openzeppelin/contracts/access/Ownable.sol\":2169:2191  newOwner != address(0) */\n      dup2\n      and\n        /* \"@openzeppelin/contracts/access/Ownable.sol\":2161:2234  require(newOwner != address(0), \"Ownable: new owner is the zero address\") */\n      tag_286\n      jumpi\n      mload(0x40)\n      shl(0xe5, 0x461bcd)\n      dup2\n      mstore\n        /* \"#utility.yul\":6959:6961   */\n      0x20\n        /* \"@openzeppelin/contracts/access/Ownable.sol\":2161:2234  require(newOwner != address(0), \"Ownable: new owner is the zero address\") */\n      0x04\n      dup3\n      add\n        /* \"#utility.yul\":6941:6962   */\n      mstore\n        /* \"#utility.yul\":6998:7000   */\n      0x26\n        /* \"#utility.yul\":6978:6996   */\n      0x24\n      dup3\n      add\n        /* \"#utility.yul\":6971:7001   */\n      mstore\n        /* \"#utility.yul\":7037:7071   */\n      0x4f776e61626c653a206e6577206f776e657220697320746865207a65726f2061\n        /* \"#utility.yul\":7017:7035   */\n      0x44\n      dup3\n      add\n        /* \"#utility.yul\":7010:7072   */\n      mstore\n      shl(0xd0, 0x646472657373)\n        /* \"#utility.yul\":7088:7106   */\n      0x64\n      dup3\n      add\n        /* \"#utility.yul\":7081:7117   */\n      mstore\n        /* \"#utility.yul\":7134:7153   */\n      0x84\n      add\n        /* \"@openzeppelin/contracts/access/Ownable.sol\":2161:2234  require(newOwner != address(0), \"Ownable: new owner is the zero address\") */\n      tag_179\n        /* \"#utility.yul\":6757:7159   */\n      jump\n        /* \"@openzeppelin/contracts/access/Ownable.sol\":2161:2234  require(newOwner != address(0), \"Ownable: new owner is the zero address\") */\n    tag_286:\n        /* \"@openzeppelin/contracts/access/Ownable.sol\":2244:2272  _transferOwnership(newOwner) */\n      tag_289\n        /* \"@openzeppelin/contracts/access/Ownable.sol\":2263:2271  newOwner */\n      dup2\n        /* \"@openzeppelin/contracts/access/Ownable.sol\":2244:2262  _transferOwnership */\n      tag_219\n        /* \"@openzeppelin/contracts/access/Ownable.sol\":2244:2272  _transferOwnership(newOwner) */\n      jump\t// in\n    tag_289:\n        /* \"@openzeppelin/contracts/access/Ownable.sol\":2081:2279  function transferOwnership(address newOwner) public virtual onlyOwner {... */\n      pop\n      jump\t// out\n        /* \"@openzeppelin/contracts/token/ERC20/ERC20.sol\":10504:10874  function _approve(... */\n    tag_171:\n      sub(shl(0xa0, 0x01), 0x01)\n        /* \"@openzeppelin/contracts/token/ERC20/ERC20.sol\":10635:10654  owner != address(0) */\n      dup4\n      and\n        /* \"@openzeppelin/contracts/token/ERC20/ERC20.sol\":10627:10695  require(owner != address(0), \"ERC20: approve from the zero address\") */\n      tag_292\n      jumpi\n      mload(0x40)\n      shl(0xe5, 0x461bcd)\n      dup2\n      mstore\n        /* \"#utility.yul\":7366:7368   */\n      0x20\n        /* \"@openzeppelin/contracts/token/ERC20/ERC20.sol\":10627:10695  require(owner != address(0), \"ERC20: approve from the zero address\") */\n      0x04\n      dup3\n      add\n        /* \"#utility.yul\":7348:7369   */\n      mstore\n        /* \"#utility.yul\":7405:7407   */\n      0x24\n        /* \"#utility.yul\":7385:7403   */\n      dup1\n      dup3\n      add\n        /* \"#utility.yul\":7378:7408   */\n      mstore\n        /* \"#utility.yul\":7444:7478   */\n      0x45524332303a20617070726f76652066726f6d20746865207a65726f20616464\n        /* \"#utility.yul\":7424:7442   */\n      0x44\n      dup3\n      add\n        /* \"#utility.yul\":7417:7479   */\n      mstore\n      shl(0xe0, 0x72657373)\n        /* \"#utility.yul\":7495:7513   */\n      0x64\n      dup3\n      add\n        /* \"#utility.yul\":7488:7522   */\n      mstore\n        /* \"#utility.yul\":7539:7558   */\n      0x84\n      add\n        /* \"@openzeppelin/contracts/token/ERC20/ERC20.sol\":10627:10695  require(owner != address(0), \"ERC20: approve from the zero address\") */\n      tag_179\n        /* \"#utility.yul\":7164:7564   */\n      jump\n        /* \"@openzeppelin/contracts/token/ERC20/ERC20.sol\":10627:10695  require(owner != address(0), \"ERC20: approve from the zero address\") */\n    tag_292:\n      sub(shl(0xa0, 0x01), 0x01)\n        /* \"@openzeppelin/contracts/token/ERC20/ERC20.sol\":10713:10734  spender != address(0) */\n      dup3\n      and\n        /* \"@openzeppelin/contracts/token/ERC20/ERC20.sol\":10705:10773  require(spender != address(0), \"ERC20: approve to the zero address\") */\n      tag_295\n      jumpi\n      mload(0x40)\n      shl(0xe5, 0x461bcd)\n      dup2\n      mstore\n        /* \"#utility.yul\":7771:7773   */\n      0x20\n        /* \"@openzeppelin/contracts/token/ERC20/ERC20.sol\":10705:10773  require(spender != address(0), \"ERC20: approve to the zero address\") */\n      0x04\n      dup3\n      add\n        /* \"#utility.yul\":7753:7774   */\n      mstore\n        /* \"#utility.yul\":7810:7812   */\n      0x22\n        /* \"#utility.yul\":7790:7808   */\n      0x24\n      dup3\n      add\n        /* \"#utility.yul\":7783:7813   */\n      mstore\n        /* \"#utility.yul\":7849:7883   */\n      0x45524332303a20617070726f766520746f20746865207a65726f206164647265\n        /* \"#utility.yul\":7829:7847   */\n      0x44\n      dup3\n      add\n        /* \"#utility.yul\":7822:7884   */\n      mstore\n      shl(0xf0, 0x7373)\n        /* \"#utility.yul\":7900:7918   */\n      0x64\n      dup3\n      add\n        /* \"#utility.yul\":7893:7925   */\n      mstore\n        /* \"#utility.yul\":7942:7961   */\n      0x84\n      add\n        /* \"@openzeppelin/contracts/token/ERC20/ERC20.sol\":10705:10773  require(spender != address(0), \"ERC20: approve to the zero address\") */\n      tag_179\n        /* \"#utility.yul\":7569:7967   */\n      jump\n        /* \"@openzeppelin/contracts/token/ERC20/ERC20.sol\":10705:10773  require(spender != address(0), \"ERC20: approve to the zero address\") */\n    tag_295:\n      sub(shl(0xa0, 0x01), 0x01)\n        /* \"@openzeppelin/contracts/token/ERC20/ERC20.sol\":10784:10802  _allowances[owner] */\n      dup4\n      dup2\n      and\n      0x00\n      dup2\n      dup2\n      mstore\n        /* \"@openzeppelin/contracts/token/ERC20/ERC20.sol\":10784:10795  _allowances */\n      0x01\n        /* \"@openzeppelin/contracts/token/ERC20/ERC20.sol\":10784:10802  _allowances[owner] */\n      0x20\n      swap1\n      dup2\n      mstore\n      0x40\n      dup1\n      dup4\n      keccak256\n        /* \"@openzeppelin/contracts/token/ERC20/ERC20.sol\":10784:10811  _allowances[owner][spender] */\n      swap5\n      dup8\n      and\n      dup1\n      dup5\n      mstore\n      swap5\n      dup3\n      mstore\n      swap2\n      dup3\n      swap1\n      keccak256\n        /* \"@openzeppelin/contracts/token/ERC20/ERC20.sol\":10784:10820  _allowances[owner][spender] = amount */\n      dup6\n      swap1\n      sstore\n        /* \"@openzeppelin/contracts/token/ERC20/ERC20.sol\":10835:10867  Approval(owner, spender, amount) */\n      swap1\n      mload\n        /* \"#utility.yul\":1550:1575   */\n      dup5\n      dup2\n      mstore\n        /* \"@openzeppelin/contracts/token/ERC20/ERC20.sol\":10835:10867  Approval(owner, spender, amount) */\n      0x8c5be1e5ebec7d5bd14f71427d1e84f3dd0314c0f7b2291e5b200ac8c7c3b925\n      swap2\n        /* \"#utility.yul\":1523:1541   */\n      add\n        /* \"@openzeppelin/contracts/token/ERC20/ERC20.sol\":10835:10867  Approval(owner, spender, amount) */\n    tag_298:\n      mload(0x40)\n      dup1\n      swap2\n      sub\n      swap1\n      log3\n        /* \"@openzeppelin/contracts/token/ERC20/ERC20.sol\":10504:10874  function _approve(... */\n      pop\n      pop\n      pop\n      jump\t// out\n        /* \"@openzeppelin/contracts/access/Ownable.sol\":1359:1489  function _checkOwner() internal view virtual {... */\n    tag_175:\n        /* \"@openzeppelin/contracts/access/Ownable.sol\":1273:1279  _owner */\n      and(sub(shl(0xa0, 0x01), 0x01), sload(0x05))\n        /* \"@openzeppelin/contracts/utils/Context.sol\":719:729  msg.sender */\n      caller\n        /* \"@openzeppelin/contracts/access/Ownable.sol\":1422:1445  owner() == _msgSender() */\n      eq\n        /* \"@openzeppelin/contracts/access/Ownable.sol\":1414:1482  require(owner() == _msgSender(), \"Ownable: caller is not the owner\") */\n      tag_218\n      jumpi\n      mload(0x40)\n      shl(0xe5, 0x461bcd)\n      dup2\n      mstore\n        /* \"#utility.yul\":8174:8176   */\n      0x20\n        /* \"@openzeppelin/contracts/access/Ownable.sol\":1414:1482  require(owner() == _msgSender(), \"Ownable: caller is not the owner\") */\n      0x04\n      dup3\n      add\n        /* \"#utility.yul\":8156:8177   */\n      dup2\n      swap1\n      mstore\n        /* \"#utility.yul\":8193:8211   */\n      0x24\n      dup3\n      add\n        /* \"#utility.yul\":8186:8216   */\n      mstore\n        /* \"#utility.yul\":8252:8286   */\n      0x4f776e61626c653a2063616c6c6572206973206e6f7420746865206f776e6572\n        /* \"#utility.yul\":8232:8250   */\n      0x44\n      dup3\n      add\n        /* \"#utility.yul\":8225:8287   */\n      mstore\n        /* \"#utility.yul\":8304:8322   */\n      0x64\n      add\n        /* \"@openzeppelin/contracts/access/Ownable.sol\":1414:1482  require(owner() == _msgSender(), \"Ownable: caller is not the owner\") */\n      tag_179\n        /* \"#utility.yul\":7972:8328   */\n      jump\n        /* \"@openzeppelin/contracts/token/ERC20/ERC20.sol\":8567:9102  function _mint(address account, uint256 amount) internal virtual {... */\n    tag_210:\n      sub(shl(0xa0, 0x01), 0x01)\n        /* \"@openzeppelin/contracts/token/ERC20/ERC20.sol\":8650:8671  account != address(0) */\n      dup3\n      and\n        /* \"@openzeppelin/contracts/token/ERC20/ERC20.sol\":8642:8707  require(account != address(0), \"ERC20: mint to the zero address\") */\n      tag_315\n      jumpi\n      mload(0x40)\n      shl(0xe5, 0x461bcd)\n      dup2\n      mstore\n        /* \"#utility.yul\":8535:8537   */\n      0x20\n        /* \"@openzeppelin/contracts/token/ERC20/ERC20.sol\":8642:8707  require(account != address(0), \"ERC20: mint to the zero address\") */\n      0x04\n      dup3\n      add\n        /* \"#utility.yul\":8517:8538   */\n      mstore\n        /* \"#utility.yul\":8574:8576   */\n      0x1f\n        /* \"#utility.yul\":8554:8572   */\n      0x24\n      dup3\n      add\n        /* \"#utility.yul\":8547:8577   */\n      mstore\n        /* \"#utility.yul\":8613:8646   */\n      0x45524332303a206d696e7420746f20746865207a65726f206164647265737300\n        /* \"#utility.yul\":8593:8611   */\n      0x44\n      dup3\n      add\n        /* \"#utility.yul\":8586:8647   */\n      mstore\n        /* \"#utility.yul\":8664:8682   */\n      0x64\n      add\n        /* \"@openzeppelin/contracts/token/ERC20/ERC20.sol\":8642:8707  require(account != address(0), \"ERC20: mint to the zero address\") */\n      tag_179\n        /* \"#utility.yul\":8333:8688   */\n      jump\n        /* \"@openzeppelin/contracts/token/ERC20/ERC20.sol\":8642:8707  require(account != address(0), \"ERC20: mint to the zero address\") */\n    tag_315:\n        /* \"@openzeppelin/contracts/token/ERC20/ERC20.sol\":8794:8800  amount */\n      dup1\n        /* \"@openzeppelin/contracts/token/ERC20/ERC20.sol\":8778:8790  _totalSupply */\n      0x02\n      0x00\n        /* \"@openzeppelin/contracts/token/ERC20/ERC20.sol\":8778:8800  _totalSupply += amount */\n      dup3\n      dup3\n      sload\n      tag_320\n      swap2\n      swap1\n      tag_199\n      jump\t// in\n    tag_320:\n      swap1\n      swap2\n      sstore\n      pop\n      pop\n      sub(shl(0xa0, 0x01), 0x01)\n        /* \"@openzeppelin/contracts/token/ERC20/ERC20.sol\":8946:8964  _balances[account] */\n      dup3\n      and\n        /* \"@openzeppelin/contracts/token/ERC20/ERC20.sol\":8946:8955  _balances */\n      0x00\n        /* \"@openzeppelin/contracts/token/ERC20/ERC20.sol\":8946:8964  _balances[account] */\n      dup2\n      dup2\n      mstore\n      0x20\n      dup2\n      dup2\n      mstore\n      0x40\n      dup1\n      dup4\n      keccak256\n        /* \"@openzeppelin/contracts/token/ERC20/ERC20.sol\":8946:8974  _balances[account] += amount */\n      dup1\n      sload\n      dup7\n      add\n      swap1\n      sstore\n        /* \"@openzeppelin/contracts/token/ERC20/ERC20.sol\":8999:9036  Transfer(address(0), account, amount) */\n      mload\n        /* \"#utility.yul\":1550:1575   */\n      dup5\n      dup2\n      mstore\n        /* \"@openzeppelin/contracts/token/ERC20/ERC20.sol\":8999:9036  Transfer(address(0), account, amount) */\n      0xddf252ad1be2c89b69c2b068fc378daa952ba7f163c4a11628f55a4df523b3ef\n      swap2\n        /* \"#utility.yul\":1523:1541   */\n      add\n        /* \"@openzeppelin/contracts/token/ERC20/ERC20.sol\":8999:9036  Transfer(address(0), account, amount) */\n      mload(0x40)\n      dup1\n      swap2\n      sub\n      swap1\n      log3\n        /* \"contracts/erc20/SBT-007.sol\":1599:1824  function mint(address account, uint256 amount) external {... */\n      pop\n      pop\n      jump\t// out\n        /* \"@openzeppelin/contracts/access/Ownable.sol\":2433:2620  function _transferOwnership(address newOwner) internal virtual {... */\n    tag_219:\n        /* \"@openzeppelin/contracts/access/Ownable.sol\":2525:2531  _owner */\n      0x05\n      dup1\n      sload\n      sub(shl(0xa0, 0x01), 0x01)\n        /* \"@openzeppelin/contracts/access/Ownable.sol\":2541:2558  _owner = newOwner */\n      dup4\n      dup2\n      and\n      not(sub(shl(0xa0, 0x01), 0x01))\n      dup4\n      and\n      dup2\n      or\n      swap1\n      swap4\n      sstore\n        /* \"@openzeppelin/contracts/access/Ownable.sol\":2573:2613  OwnershipTransferred(oldOwner, newOwner) */\n      mload(0x40)\n        /* \"@openzeppelin/contracts/access/Ownable.sol\":2525:2531  _owner */\n      swap2\n      and\n      swap2\n        /* \"@openzeppelin/contracts/access/Ownable.sol\":2541:2558  _owner = newOwner */\n      swap1\n        /* \"@openzeppelin/contracts/access/Ownable.sol\":2525:2531  _owner */\n      dup3\n      swap1\n        /* \"@openzeppelin/contracts/access/Ownable.sol\":2573:2613  OwnershipTransferred(oldOwner, newOwner) */\n      0x8be0079c531659141344cd1fd0a4f28419497f9722a3daafe3b4186f6b6457e0\n      swap1\n        /* \"@openzeppelin/contracts/access/Ownable.sol\":2506:2522  address oldOwner */\n      0x00\n      swap1\n        /* \"@openzeppelin/contracts/access/Ownable.sol\":2573:2613  OwnershipTransferred(oldOwner, newOwner) */\n      log3\n        /* \"@openzeppelin/contracts/access/Ownable.sol\":2496:2620  {... */\n      pop\n        /* \"@openzeppelin/contracts/access/Ownable.sol\":2433:2620  function _transferOwnership(address newOwner) internal virtual {... */\n      pop\n      jump\t// out\n        /* \"@openzeppelin/contracts/token/ERC20/ERC20.sol\":9422:10081  function _burn(address account, uint256 amount) internal virtual {... */\n    tag_257:\n      sub(shl(0xa0, 0x01), 0x01)\n        /* \"@openzeppelin/contracts/token/ERC20/ERC20.sol\":9505:9526  account != address(0) */\n      dup3\n      and\n        /* \"@openzeppelin/contracts/token/ERC20/ERC20.sol\":9497:9564  require(account != address(0), \"ERC20: burn from the zero address\") */\n      tag_326\n      jumpi\n      mload(0x40)\n      shl(0xe5, 0x461bcd)\n      dup2\n      mstore\n        /* \"#utility.yul\":8895:8897   */\n      0x20\n        /* \"@openzeppelin/contracts/token/ERC20/ERC20.sol\":9497:9564  require(account != address(0), \"ERC20: burn from the zero address\") */\n      0x04\n      dup3\n      add\n        /* \"#utility.yul\":8877:8898   */\n      mstore\n        /* \"#utility.yul\":8934:8936   */\n      0x21\n        /* \"#utility.yul\":8914:8932   */\n      0x24\n      dup3\n      add\n        /* \"#utility.yul\":8907:8937   */\n      mstore\n        /* \"#utility.yul\":8973:9007   */\n      0x45524332303a206275726e2066726f6d20746865207a65726f20616464726573\n        /* \"#utility.yul\":8953:8971   */\n      0x44\n      dup3\n      add\n        /* \"#utility.yul\":8946:9008   */\n      mstore\n      shl(0xf8, 0x73)\n        /* \"#utility.yul\":9024:9042   */\n      0x64\n      dup3\n      add\n        /* \"#utility.yul\":9017:9048   */\n      mstore\n        /* \"#utility.yul\":9065:9084   */\n      0x84\n      add\n        /* \"@openzeppelin/contracts/token/ERC20/ERC20.sol\":9497:9564  require(account != address(0), \"ERC20: burn from the zero address\") */\n      tag_179\n        /* \"#utility.yul\":8693:9090   */\n      jump\n        /* \"@openzeppelin/contracts/token/ERC20/ERC20.sol\":9497:9564  require(account != address(0), \"ERC20: burn from the zero address\") */\n    tag_326:\n      sub(shl(0xa0, 0x01), 0x01)\n        /* \"@openzeppelin/contracts/token/ERC20/ERC20.sol\":9660:9678  _balances[account] */\n      dup3\n      and\n        /* \"@openzeppelin/contracts/token/ERC20/ERC20.sol\":9635:9657  uint256 accountBalance */\n      0x00\n        /* \"@openzeppelin/contracts/token/ERC20/ERC20.sol\":9660:9678  _balances[account] */\n      swap1\n      dup2\n      mstore\n      0x20\n      dup2\n      swap1\n      mstore\n      0x40\n      swap1\n      keccak256\n      sload\n        /* \"@openzeppelin/contracts/token/ERC20/ERC20.sol\":9696:9720  accountBalance >= amount */\n      dup2\n      dup2\n      lt\n      iszero\n        /* \"@openzeppelin/contracts/token/ERC20/ERC20.sol\":9688:9759  require(accountBalance >= amount, \"ERC20: burn amount exceeds balance\") */\n      tag_330\n      jumpi\n      mload(0x40)\n      shl(0xe5, 0x461bcd)\n      dup2\n      mstore\n        /* \"#utility.yul\":9297:9299   */\n      0x20\n        /* \"@openzeppelin/contracts/token/ERC20/ERC20.sol\":9688:9759  require(accountBalance >= amount, \"ERC20: burn amount exceeds balance\") */\n      0x04\n      dup3\n      add\n        /* \"#utility.yul\":9279:9300   */\n      mstore\n        /* \"#utility.yul\":9336:9338   */\n      0x22\n        /* \"#utility.yul\":9316:9334   */\n      0x24\n      dup3\n      add\n        /* \"#utility.yul\":9309:9339   */\n      mstore\n        /* \"#utility.yul\":9375:9409   */\n      0x45524332303a206275726e20616d6f756e7420657863656564732062616c616e\n        /* \"#utility.yul\":9355:9373   */\n      0x44\n      dup3\n      add\n        /* \"#utility.yul\":9348:9410   */\n      mstore\n      shl(0xf0, 0x6365)\n        /* \"#utility.yul\":9426:9444   */\n      0x64\n      dup3\n      add\n        /* \"#utility.yul\":9419:9451   */\n      mstore\n        /* \"#utility.yul\":9468:9487   */\n      0x84\n      add\n        /* \"@openzeppelin/contracts/token/ERC20/ERC20.sol\":9688:9759  require(accountBalance >= amount, \"ERC20: burn amount exceeds balance\") */\n      tag_179\n        /* \"#utility.yul\":9095:9493   */\n      jump\n        /* \"@openzeppelin/contracts/token/ERC20/ERC20.sol\":9688:9759  require(accountBalance >= amount, \"ERC20: burn amount exceeds balance\") */\n    tag_330:\n      sub(shl(0xa0, 0x01), 0x01)\n        /* \"@openzeppelin/contracts/token/ERC20/ERC20.sol\":9793:9811  _balances[account] */\n      dup4\n      and\n        /* \"@openzeppelin/contracts/token/ERC20/ERC20.sol\":9793:9802  _balances */\n      0x00\n        /* \"@openzeppelin/contracts/token/ERC20/ERC20.sol\":9793:9811  _balances[account] */\n      dup2\n      dup2\n      mstore\n      0x20\n      dup2\n      dup2\n      mstore\n      0x40\n      dup1\n      dup4\n      keccak256\n        /* \"@openzeppelin/contracts/token/ERC20/ERC20.sol\":9814:9837  accountBalance - amount */\n      dup7\n      dup7\n      sub\n        /* \"@openzeppelin/contracts/token/ERC20/ERC20.sol\":9793:9837  _balances[account] = accountBalance - amount */\n      swap1\n      sstore\n        /* \"@openzeppelin/contracts/token/ERC20/ERC20.sol\":9930:9942  _totalSupply */\n      0x02\n        /* \"@openzeppelin/contracts/token/ERC20/ERC20.sol\":9930:9952  _totalSupply -= amount */\n      dup1\n      sload\n      dup8\n      swap1\n      sub\n      swap1\n      sstore\n        /* \"@openzeppelin/contracts/token/ERC20/ERC20.sol\":9978:10015  Transfer(account, address(0), amount) */\n      mload\n        /* \"#utility.yul\":1550:1575   */\n      dup6\n      dup2\n      mstore\n        /* \"@openzeppelin/contracts/token/ERC20/ERC20.sol\":9793:9802  _balances */\n      swap2\n      swap3\n        /* \"@openzeppelin/contracts/token/ERC20/ERC20.sol\":9793:9811  _balances[account] */\n      swap2\n        /* \"@openzeppelin/contracts/token/ERC20/ERC20.sol\":9978:10015  Transfer(account, address(0), amount) */\n      0xddf252ad1be2c89b69c2b068fc378daa952ba7f163c4a11628f55a4df523b3ef\n      swap2\n        /* \"#utility.yul\":1523:1541   */\n      add\n        /* \"@openzeppelin/contracts/token/ERC20/ERC20.sol\":9978:10015  Transfer(account, address(0), amount) */\n      tag_298\n        /* \"#utility.yul\":1404:1581   */\n      jump\n        /* \"#utility.yul\":14:562   */\n    tag_45:\n        /* \"#utility.yul\":126:130   */\n      0x00\n        /* \"#utility.yul\":155:157   */\n      0x20\n        /* \"#utility.yul\":184:186   */\n      dup1\n        /* \"#utility.yul\":173:182   */\n      dup4\n        /* \"#utility.yul\":166:187   */\n      mstore\n        /* \"#utility.yul\":216:222   */\n      dup4\n        /* \"#utility.yul\":210:223   */\n      mload\n        /* \"#utility.yul\":259:265   */\n      dup1\n        /* \"#utility.yul\":254:256   */\n      dup3\n        /* \"#utility.yul\":243:252   */\n      dup6\n        /* \"#utility.yul\":239:257   */\n      add\n        /* \"#utility.yul\":232:266   */\n      mstore\n        /* \"#utility.yul\":284:285   */\n      0x00\n        /* \"#utility.yul\":294:434   */\n    tag_397:\n        /* \"#utility.yul\":308:314   */\n      dup2\n        /* \"#utility.yul\":305:306   */\n      dup2\n        /* \"#utility.yul\":302:315   */\n      lt\n        /* \"#utility.yul\":294:434   */\n      iszero\n      tag_399\n      jumpi\n        /* \"#utility.yul\":403:417   */\n      dup6\n      dup2\n      add\n        /* \"#utility.yul\":399:422   */\n      dup4\n      add\n        /* \"#utility.yul\":393:423   */\n      mload\n        /* \"#utility.yul\":369:386   */\n      dup6\n      dup3\n      add\n        /* \"#utility.yul\":388:390   */\n      0x40\n        /* \"#utility.yul\":365:391   */\n      add\n        /* \"#utility.yul\":358:424   */\n      mstore\n        /* \"#utility.yul\":323:333   */\n      dup3\n      add\n        /* \"#utility.yul\":294:434   */\n      jump(tag_397)\n    tag_399:\n        /* \"#utility.yul\":298:301   */\n      pop\n        /* \"#utility.yul\":483:484   */\n      0x00\n        /* \"#utility.yul\":478:480   */\n      0x40\n        /* \"#utility.yul\":469:475   */\n      dup3\n        /* \"#utility.yul\":458:467   */\n      dup7\n        /* \"#utility.yul\":454:476   */\n      add\n        /* \"#utility.yul\":450:481   */\n      add\n        /* \"#utility.yul\":443:485   */\n      mstore\n        /* \"#utility.yul\":553:555   */\n      0x40\n        /* \"#utility.yul\":546:548   */\n      0x1f\n        /* \"#utility.yul\":542:549   */\n      not\n        /* \"#utility.yul\":537:539   */\n      0x1f\n        /* \"#utility.yul\":529:535   */\n      dup4\n        /* \"#utility.yul\":525:540   */\n      add\n        /* \"#utility.yul\":521:550   */\n      and\n        /* \"#utility.yul\":510:519   */\n      dup6\n        /* \"#utility.yul\":506:551   */\n      add\n        /* \"#utility.yul\":502:556   */\n      add\n        /* \"#utility.yul\":494:556   */\n      swap3\n      pop\n      pop\n      pop\n        /* \"#utility.yul\":14:562   */\n      swap3\n      swap2\n      pop\n      pop\n      jump\t// out\n        /* \"#utility.yul\":775:948   */\n    tag_393:\n        /* \"#utility.yul\":843:863   */\n      dup1\n      calldataload\n      sub(shl(0xa0, 0x01), 0x01)\n        /* \"#utility.yul\":892:923   */\n      dup2\n      and\n        /* \"#utility.yul\":882:924   */\n      dup2\n      eq\n        /* \"#utility.yul\":872:942   */\n      tag_402\n      jumpi\n        /* \"#utility.yul\":938:939   */\n      0x00\n        /* \"#utility.yul\":935:936   */\n      dup1\n        /* \"#utility.yul\":928:940   */\n      revert\n        /* \"#utility.yul\":872:942   */\n    tag_402:\n        /* \"#utility.yul\":775:948   */\n      swap2\n      swap1\n      pop\n      jump\t// out\n        /* \"#utility.yul\":953:1207   */\n    tag_52:\n        /* \"#utility.yul\":1021:1027   */\n      0x00\n        /* \"#utility.yul\":1029:1035   */\n      dup1\n        /* \"#utility.yul\":1082:1084   */\n      0x40\n        /* \"#utility.yul\":1070:1079   */\n      dup4\n        /* \"#utility.yul\":1061:1068   */\n      dup6\n        /* \"#utility.yul\":1057:1080   */\n      sub\n        /* \"#utility.yul\":1053:1085   */\n      slt\n        /* \"#utility.yul\":1050:1102   */\n      iszero\n      tag_404\n      jumpi\n        /* \"#utility.yul\":1098:1099   */\n      0x00\n        /* \"#utility.yul\":1095:1096   */\n      dup1\n        /* \"#utility.yul\":1088:1100   */\n      revert\n        /* \"#utility.yul\":1050:1102   */\n    tag_404:\n        /* \"#utility.yul\":1121:1150   */\n      tag_405\n        /* \"#utility.yul\":1140:1149   */\n      dup4\n        /* \"#utility.yul\":1121:1150   */\n      tag_393\n      jump\t// in\n    tag_405:\n        /* \"#utility.yul\":1111:1150   */\n      swap5\n        /* \"#utility.yul\":1197:1199   */\n      0x20\n        /* \"#utility.yul\":1182:1200   */\n      swap4\n      swap1\n      swap4\n      add\n        /* \"#utility.yul\":1169:1201   */\n      calldataload\n      swap4\n      pop\n      pop\n      pop\n        /* \"#utility.yul\":953:1207   */\n      jump\t// out\n        /* \"#utility.yul\":1586:1772   */\n    tag_65:\n        /* \"#utility.yul\":1645:1651   */\n      0x00\n        /* \"#utility.yul\":1698:1700   */\n      0x20\n        /* \"#utility.yul\":1686:1695   */\n      dup3\n        /* \"#utility.yul\":1677:1684   */\n      dup5\n        /* \"#utility.yul\":1673:1696   */\n      sub\n        /* \"#utility.yul\":1669:1701   */\n      slt\n        /* \"#utility.yul\":1666:1718   */\n      iszero\n      tag_409\n      jumpi\n        /* \"#utility.yul\":1714:1715   */\n      0x00\n        /* \"#utility.yul\":1711:1712   */\n      dup1\n        /* \"#utility.yul\":1704:1716   */\n      revert\n        /* \"#utility.yul\":1666:1718   */\n    tag_409:\n        /* \"#utility.yul\":1737:1766   */\n      tag_277\n        /* \"#utility.yul\":1756:1765   */\n      dup3\n        /* \"#utility.yul\":1737:1766   */\n      tag_393\n      jump\t// in\n        /* \"#utility.yul\":1777:2105   */\n    tag_72:\n        /* \"#utility.yul\":1854:1860   */\n      0x00\n        /* \"#utility.yul\":1862:1868   */\n      dup1\n        /* \"#utility.yul\":1870:1876   */\n      0x00\n        /* \"#utility.yul\":1923:1925   */\n      0x60\n        /* \"#utility.yul\":1911:1920   */\n      dup5\n        /* \"#utility.yul\":1902:1909   */\n      dup7\n        /* \"#utility.yul\":1898:1921   */\n      sub\n        /* \"#utility.yul\":1894:1926   */\n      slt\n        /* \"#utility.yul\":1891:1943   */\n      iszero\n      tag_412\n      jumpi\n        /* \"#utility.yul\":1939:1940   */\n      0x00\n        /* \"#utility.yul\":1936:1937   */\n      dup1\n        /* \"#utility.yul\":1929:1941   */\n      revert\n        /* \"#utility.yul\":1891:1943   */\n    tag_412:\n        /* \"#utility.yul\":1962:1991   */\n      tag_413\n        /* \"#utility.yul\":1981:1990   */\n      dup5\n        /* \"#utility.yul\":1962:1991   */\n      tag_393\n      jump\t// in\n    tag_413:\n        /* \"#utility.yul\":1952:1991   */\n      swap3\n      pop\n        /* \"#utility.yul\":2010:2048   */\n      tag_414\n        /* \"#utility.yul\":2044:2046   */\n      0x20\n        /* \"#utility.yul\":2033:2042   */\n      dup6\n        /* \"#utility.yul\":2029:2047   */\n      add\n        /* \"#utility.yul\":2010:2048   */\n      tag_393\n      jump\t// in\n    tag_414:\n        /* \"#utility.yul\":2000:2048   */\n      swap2\n      pop\n        /* \"#utility.yul\":2095:2097   */\n      0x40\n        /* \"#utility.yul\":2084:2093   */\n      dup5\n        /* \"#utility.yul\":2080:2098   */\n      add\n        /* \"#utility.yul\":2067:2099   */\n      calldataload\n        /* \"#utility.yul\":2057:2099   */\n      swap1\n      pop\n        /* \"#utility.yul\":1777:2105   */\n      swap3\n      pop\n      swap3\n      pop\n      swap3\n      jump\t// out\n        /* \"#utility.yul\":2709:2969   */\n    tag_145:\n        /* \"#utility.yul\":2777:2783   */\n      0x00\n        /* \"#utility.yul\":2785:2791   */\n      dup1\n        /* \"#utility.yul\":2838:2840   */\n      0x40\n        /* \"#utility.yul\":2826:2835   */\n      dup4\n        /* \"#utility.yul\":2817:2824   */\n      dup6\n        /* \"#utility.yul\":2813:2836   */\n      sub\n        /* \"#utility.yul\":2809:2841   */\n      slt\n        /* \"#utility.yul\":2806:2858   */\n      iszero\n      tag_419\n      jumpi\n        /* \"#utility.yul\":2854:2855   */\n      0x00\n        /* \"#utility.yul\":2851:2852   */\n      dup1\n        /* \"#utility.yul\":2844:2856   */\n      revert\n        /* \"#utility.yul\":2806:2858   */\n    tag_419:\n        /* \"#utility.yul\":2877:2906   */\n      tag_420\n        /* \"#utility.yul\":2896:2905   */\n      dup4\n        /* \"#utility.yul\":2877:2906   */\n      tag_393\n      jump\t// in\n    tag_420:\n        /* \"#utility.yul\":2867:2906   */\n      swap2\n      pop\n        /* \"#utility.yul\":2925:2963   */\n      tag_421\n        /* \"#utility.yul\":2959:2961   */\n      0x20\n        /* \"#utility.yul\":2948:2957   */\n      dup5\n        /* \"#utility.yul\":2944:2962   */\n      add\n        /* \"#utility.yul\":2925:2963   */\n      tag_393\n      jump\t// in\n    tag_421:\n        /* \"#utility.yul\":2915:2963   */\n      swap1\n      pop\n        /* \"#utility.yul\":2709:2969   */\n      swap3\n      pop\n      swap3\n      swap1\n      pop\n      jump\t// out\n        /* \"#utility.yul\":2974:3324   */\n    tag_150:\n        /* \"#utility.yul\":3041:3047   */\n      0x00\n        /* \"#utility.yul\":3049:3055   */\n      dup1\n        /* \"#utility.yul\":3102:3104   */\n      0x40\n        /* \"#utility.yul\":3090:3099   */\n      dup4\n        /* \"#utility.yul\":3081:3088   */\n      dup6\n        /* \"#utility.yul\":3077:3100   */\n      sub\n        /* \"#utility.yul\":3073:3105   */\n      slt\n        /* \"#utility.yul\":3070:3122   */\n      iszero\n      tag_423\n      jumpi\n        /* \"#utility.yul\":3118:3119   */\n      0x00\n        /* \"#utility.yul\":3115:3116   */\n      dup1\n        /* \"#utility.yul\":3108:3120   */\n      revert\n        /* \"#utility.yul\":3070:3122   */\n    tag_423:\n        /* \"#utility.yul\":3141:3170   */\n      tag_424\n        /* \"#utility.yul\":3160:3169   */\n      dup4\n        /* \"#utility.yul\":3141:3170   */\n      tag_393\n      jump\t// in\n    tag_424:\n        /* \"#utility.yul\":3131:3170   */\n      swap2\n      pop\n        /* \"#utility.yul\":3220:3222   */\n      0x20\n        /* \"#utility.yul\":3209:3218   */\n      dup4\n        /* \"#utility.yul\":3205:3223   */\n      add\n        /* \"#utility.yul\":3192:3224   */\n      calldataload\n        /* \"#utility.yul\":3264:3274   */\n      0xffffffff\n        /* \"#utility.yul\":3257:3262   */\n      dup2\n        /* \"#utility.yul\":3253:3275   */\n      and\n        /* \"#utility.yul\":3246:3251   */\n      dup2\n        /* \"#utility.yul\":3243:3276   */\n      eq\n        /* \"#utility.yul\":3233:3294   */\n      tag_425\n      jumpi\n        /* \"#utility.yul\":3290:3291   */\n      0x00\n        /* \"#utility.yul\":3287:3288   */\n      dup1\n        /* \"#utility.yul\":3280:3292   */\n      revert\n        /* \"#utility.yul\":3233:3294   */\n    tag_425:\n        /* \"#utility.yul\":3313:3318   */\n      dup1\n        /* \"#utility.yul\":3303:3318   */\n      swap2\n      pop\n      pop\n        /* \"#utility.yul\":2974:3324   */\n      swap3\n      pop\n      swap3\n      swap1\n      pop\n      jump\t// out\n        /* \"#utility.yul\":3628:4008   */\n    tag_162:\n        /* \"#utility.yul\":3707:3708   */\n      0x01\n        /* \"#utility.yul\":3703:3715   */\n      dup2\n      dup2\n      shr\n      swap1\n        /* \"#utility.yul\":3750:3762   */\n      dup3\n      and\n      dup1\n        /* \"#utility.yul\":3771:3832   */\n      tag_428\n      jumpi\n        /* \"#utility.yul\":3825:3829   */\n      0x7f\n        /* \"#utility.yul\":3817:3823   */\n      dup3\n        /* \"#utility.yul\":3813:3830   */\n      and\n        /* \"#utility.yul\":3803:3830   */\n      swap2\n      pop\n        /* \"#utility.yul\":3771:3832   */\n    tag_428:\n        /* \"#utility.yul\":3878:3880   */\n      0x20\n        /* \"#utility.yul\":3870:3876   */\n      dup3\n        /* \"#utility.yul\":3867:3881   */\n      lt\n        /* \"#utility.yul\":3847:3865   */\n      dup2\n        /* \"#utility.yul\":3844:3882   */\n      sub\n        /* \"#utility.yul\":3841:4002   */\n      tag_429\n      jumpi\n        /* \"#utility.yul\":3924:3934   */\n      0x4e487b71\n        /* \"#utility.yul\":3919:3922   */\n      0xe0\n        /* \"#utility.yul\":3915:3935   */\n      shl\n        /* \"#utility.yul\":3912:3913   */\n      0x00\n        /* \"#utility.yul\":3905:3936   */\n      mstore\n        /* \"#utility.yul\":3959:3963   */\n      0x22\n        /* \"#utility.yul\":3956:3957   */\n      0x04\n        /* \"#utility.yul\":3949:3964   */\n      mstore\n        /* \"#utility.yul\":3987:3991   */\n      0x24\n        /* \"#utility.yul\":3984:3985   */\n      0x00\n        /* \"#utility.yul\":3977:3992   */\n      revert\n        /* \"#utility.yul\":3841:4002   */\n    tag_429:\n      pop\n        /* \"#utility.yul\":3628:4008   */\n      swap2\n      swap1\n      pop\n      jump\t// out\n        /* \"#utility.yul\":4013:4355   */\n    tag_180:\n        /* \"#utility.yul\":4215:4217   */\n      0x20\n        /* \"#utility.yul\":4197:4218   */\n      dup1\n      dup3\n      mstore\n        /* \"#utility.yul\":4254:4256   */\n      0x12\n        /* \"#utility.yul\":4234:4252   */\n      swap1\n      dup3\n      add\n        /* \"#utility.yul\":4227:4257   */\n      mstore\n      shl(0x70, 0x737461747573206973206e6f742061626c65)\n        /* \"#utility.yul\":4288:4290   */\n      0x40\n        /* \"#utility.yul\":4273:4291   */\n      dup3\n      add\n        /* \"#utility.yul\":4266:4314   */\n      mstore\n        /* \"#utility.yul\":4346:4348   */\n      0x60\n        /* \"#utility.yul\":4331:4349   */\n      add\n      swap1\n        /* \"#utility.yul\":4013:4355   */\n      jump\t// out\n        /* \"#utility.yul\":4769:4896   */\n    tag_394:\n        /* \"#utility.yul\":4830:4840   */\n      0x4e487b71\n        /* \"#utility.yul\":4825:4828   */\n      0xe0\n        /* \"#utility.yul\":4821:4841   */\n      shl\n        /* \"#utility.yul\":4818:4819   */\n      0x00\n        /* \"#utility.yul\":4811:4842   */\n      mstore\n        /* \"#utility.yul\":4861:4865   */\n      0x11\n        /* \"#utility.yul\":4858:4859   */\n      0x04\n        /* \"#utility.yul\":4851:4866   */\n      mstore\n        /* \"#utility.yul\":4885:4889   */\n      0x24\n        /* \"#utility.yul\":4882:4883   */\n      0x00\n        /* \"#utility.yul\":4875:4890   */\n      revert\n        /* \"#utility.yul\":5034:5159   */\n    tag_199:\n        /* \"#utility.yul\":5099:5108   */\n      dup1\n      dup3\n      add\n        /* \"#utility.yul\":5120:5130   */\n      dup1\n      dup3\n      gt\n        /* \"#utility.yul\":5117:5153   */\n      iszero\n      tag_167\n      jumpi\n        /* \"#utility.yul\":5133:5151   */\n      tag_167\n      tag_394\n      jump\t// in\n        /* \"#utility.yul\":5878:6053   */\n    tag_229:\n        /* \"#utility.yul\":5946:5956   */\n      0xffffffff\n        /* \"#utility.yul\":5989:5999   */\n      dup3\n      dup2\n      and\n        /* \"#utility.yul\":5977:5987   */\n      dup3\n      dup3\n      and\n        /* \"#utility.yul\":5973:6000   */\n      sub\n      swap1\n        /* \"#utility.yul\":6012:6024   */\n      dup1\n      dup3\n      gt\n        /* \"#utility.yul\":6009:6047   */\n      iszero\n      tag_443\n      jumpi\n        /* \"#utility.yul\":6027:6045   */\n      tag_443\n      tag_394\n      jump\t// in\n    tag_443:\n        /* \"#utility.yul\":6009:6047   */\n      pop\n        /* \"#utility.yul\":5878:6053   */\n      swap3\n      swap2\n      pop\n      pop\n      jump\t// out\n        /* \"#utility.yul\":6058:6346   */\n    tag_237:\n        /* \"#utility.yul\":6097:6098   */\n      0x00\n        /* \"#utility.yul\":6123:6133   */\n      0xffffffff\n        /* \"#utility.yul\":6160:6162   */\n      dup1\n        /* \"#utility.yul\":6157:6158   */\n      dup5\n        /* \"#utility.yul\":6153:6163   */\n      and\n        /* \"#utility.yul\":6182:6185   */\n      dup1\n        /* \"#utility.yul\":6172:6306   */\n      tag_445\n      jumpi\n        /* \"#utility.yul\":6228:6238   */\n      0x4e487b71\n        /* \"#utility.yul\":6223:6226   */\n      0xe0\n        /* \"#utility.yul\":6219:6239   */\n      shl\n        /* \"#utility.yul\":6216:6217   */\n      0x00\n        /* \"#utility.yul\":6209:6240   */\n      mstore\n        /* \"#utility.yul\":6263:6267   */\n      0x12\n        /* \"#utility.yul\":6260:6261   */\n      0x04\n        /* \"#utility.yul\":6253:6268   */\n      mstore\n        /* \"#utility.yul\":6291:6295   */\n      0x24\n        /* \"#utility.yul\":6288:6289   */\n      0x00\n        /* \"#utility.yul\":6281:6296   */\n      revert\n        /* \"#utility.yul\":6172:6306   */\n    tag_445:\n        /* \"#utility.yul\":6324:6334   */\n      swap3\n      and\n        /* \"#utility.yul\":6320:6340   */\n      swap2\n      swap1\n      swap2\n      div\n      swap3\n        /* \"#utility.yul\":6058:6346   */\n      swap2\n      pop\n      pop\n      jump\t// out\n    stop\n    data_d207dafab44f9f11909c507995336bca10e93ce5c974e02263eee445d7833e2e 6572633a20626c6f636b206e756d62657220657863656564732033322062697473\n\n    auxdata: 0xa2646970667358221220f2ad719e26e0ff0f01a8c9a0af4e0c2c00f41a037abb851c7b6fbc37c6aab9da64736f6c63430008110033\n}\n",
				"bytecode": {
					"linkReferences": {},
					"object": "60806040526005805460ff60a01b191690553480156200001e57600080fd5b506040805180820182526007808252665342542d30303760c81b60208084018290528451808601909552918452908301529060036200005e83826200018b565b5060046200006d82826200018b565b5050506200008a620000846200009060201b60201c565b62000094565b62000257565b3390565b600580546001600160a01b038381166001600160a01b0319831681179093556040519116919082907f8be0079c531659141344cd1fd0a4f28419497f9722a3daafe3b4186f6b6457e090600090a35050565b634e487b7160e01b600052604160045260246000fd5b600181811c908216806200011157607f821691505b6020821081036200013257634e487b7160e01b600052602260045260246000fd5b50919050565b601f8211156200018657600081815260208120601f850160051c81016020861015620001615750805b601f850160051c820191505b8181101562000182578281556001016200016d565b5050505b505050565b81516001600160401b03811115620001a757620001a7620000e6565b620001bf81620001b88454620000fc565b8462000138565b602080601f831160018114620001f75760008415620001de5750858301515b600019600386901b1c1916600185901b17855562000182565b600085815260208120601f198616915b82811015620002285788860151825594840194600190910190840162000207565b5085821015620002475787850151600019600388901b60f8161c191681555b5050505050600190811b01905550565b6112c980620002676000396000f3fe608060405234801561001057600080fd5b50600436106101f05760003560e01c8063715018a61161010f578063ab2429c8116100a2578063dd62ed3e11610071578063dd62ed3e14610468578063f1127ed81461047b578063f2fde38b146104e3578063f851a440146104f657600080fd5b8063ab2429c81461041c578063abace8131461042f578063b4b5ea5714610442578063cc7ef8001461045557600080fd5b806395d89b41116100de57806395d89b41146103e05780639dc29fac146103e8578063a457c2d7146103fb578063a9059cbb1461040e57600080fd5b8063715018a614610389578063782d6fe11461039157806378cb7539146103bc5780638da5cb5b146103cf57600080fd5b8063313ce56711610187578063477dfeb811610156578063477dfeb8146102ff5780636fcfff451461031257806370a082311461034d57806370d8d3741461037657600080fd5b8063313ce567146102c257806339509351146102d15780633e72aeae146102e457806340c10f19146102ec57600080fd5b80631a5ef71c116101c35780631a5ef71c146102735780631e9d978214610286578063200d2ed21461029b57806323b872dd146102af57600080fd5b806306fdde03146101f55780630754617214610213578063095ea7b31461023e57806318160ddd14610261575b600080fd5b6101fd610509565b60405161020a9190611051565b60405180910390f35b600654610226906001600160a01b031681565b6040516001600160a01b03909116815260200161020a565b61025161024c3660046110bb565b61059b565b604051901515815260200161020a565b6002545b60405190815260200161020a565b600954610226906001600160a01b031681565b6102996102943660046110e5565b6105b5565b005b60055461025190600160a01b900460ff1681565b6102516102bd366004611100565b6105df565b6040516012815260200161020a565b6102516102df3660046110bb565b610625565b610299610642565b6102996102fa3660046110bb565b61066b565b61029961030d3660046110e5565b6106fd565b6103386103203660046110e5565b600d6020526000908152604090205463ffffffff1681565b60405163ffffffff909116815260200161020a565b61026561035b3660046110e5565b6001600160a01b031660009081526020819052604090205490565b600854610226906001600160a01b031681565b610299610727565b6103a461039f3660046110bb565b61073b565b6040516001600160601b03909116815260200161020a565b600a54610226906001600160a01b031681565b6005546001600160a01b0316610226565b6101fd6109db565b6102996103f63660046110bb565b6109ea565b6102516104093660046110bb565b610a78565b6102516102bd3660046110bb565b600b54610226906001600160a01b031681565b61029961043d3660046110e5565b610af3565b6103a46104503660046110e5565b610b1d565b6102996104633660046110e5565b610bc9565b61026561047636600461113c565b610bf3565b6104bf61048936600461116f565b600c60209081526000928352604080842090915290825290205463ffffffff81169064010000000090046001600160601b031682565b6040805163ffffffff90931683526001600160601b0390911660208301520161020a565b6102996104f13660046110e5565b610c1e565b600754610226906001600160a01b031681565b606060038054610518906111af565b80601f0160208091040260200160405190810160405280929190818152602001828054610544906111af565b80156105915780601f1061056657610100808354040283529160200191610591565b820191906000526020600020905b81548152906001019060200180831161057457829003601f168201915b5050505050905090565b6000336105a9818585610c97565b60019150505b92915050565b6105bd610dbc565b600b80546001600160a01b0319166001600160a01b0392909216919091179055565b600554600090600160a01b900460ff16156101f05760405162461bcd60e51b815260040161060c906111e9565b60405180910390fd5b610c97565b506001949350505050565b6000336105a98185856106388383610bf3565b610615919061122b565b61064a610dbc565b6005805460ff60a01b198116600160a01b9182900460ff1615909102179055565b6008546001600160a01b031633148061068e5750600a546001600160a01b031633145b806106a35750600b546001600160a01b031633145b6106ef5760405162461bcd60e51b815260206004820152601f60248201527f5342543030373a796f75207365742041646472657373206973206572726f7200604482015260640161060c565b6106f98282610e16565b5050565b610705610dbc565b600a80546001600160a01b0319166001600160a01b0392909216919091179055565b61072f610dbc565b6107396000610ed5565b565b600554600090600160a01b900460ff16156107685760405162461bcd60e51b815260040161060c906111e9565b438211156107b85760405162461bcd60e51b815260206004820152601960248201527f45524332303a206e6f74207965742064657465726d696e656400000000000000604482015260640161060c565b6001600160a01b0383166000908152600d602052604090205463ffffffff1680158061080c57506001600160a01b0384166000908152600c6020908152604080832083805290915290205463ffffffff1683105b1561081b5760009150506105af565b6001600160a01b0384166000908152600c60205260408120849161084060018561123e565b63ffffffff908116825260208201929092526040016000205416116108b4576001600160a01b0384166000908152600c602052604081209061088360018461123e565b63ffffffff16815260208101919091526040016000205464010000000090046001600160601b031691506105af9050565b6000806108c260018461123e565b90505b8163ffffffff168163ffffffff16111561099557600060026108e7848461123e565b6108f19190611262565b6108fb908361123e565b6001600160a01b0388166000908152600c6020908152604080832063ffffffff8581168552908352928190208151808301909252549283168082526401000000009093046001600160601b031691810191909152919250879003610969576020015194506105af9350505050565b805163ffffffff168711156109805781935061098e565b61098b60018361123e565b92505b50506108c5565b506001600160a01b0385166000908152600c6020908152604080832063ffffffff909416835292905220546001600160601b036401000000009091041691505092915050565b606060048054610518906111af565b6008546001600160a01b0316331480610a0d5750600a546001600160a01b031633145b80610a225750600b546001600160a01b031633145b610a6e5760405162461bcd60e51b815260206004820152601f60248201527f5342543030373a796f75207365742041646472657373206973206572726f7200604482015260640161060c565b6106f98282610f27565b60003381610a868286610bf3565b905083811015610ae65760405162461bcd60e51b815260206004820152602560248201527f45524332303a2064656372656173656420616c6c6f77616e63652062656c6f77604482015264207a65726f60d81b606482015260840161060c565b61061a8286868403610c97565b610afb610dbc565b600880546001600160a01b0319166001600160a01b0392909216919091179055565b600554600090600160a01b900460ff1615610b4a5760405162461bcd60e51b815260040161060c906111e9565b6001600160a01b0382166000908152600d602052604090205463ffffffff1680610b75576000610bc2565b6001600160a01b0383166000908152600c6020526040812090610b9960018461123e565b63ffffffff16815260208101919091526040016000205464010000000090046001600160601b03165b9392505050565b610bd1610dbc565b600980546001600160a01b0319166001600160a01b0392909216919091179055565b6001600160a01b03918216600090815260016020908152604080832093909416825291909152205490565b610c26610dbc565b6001600160a01b038116610c8b5760405162461bcd60e51b815260206004820152602660248201527f4f776e61626c653a206e6577206f776e657220697320746865207a65726f206160448201526564647265737360d01b606482015260840161060c565b610c9481610ed5565b50565b6001600160a01b038316610cf95760405162461bcd60e51b8152602060048201526024808201527f45524332303a20617070726f76652066726f6d20746865207a65726f206164646044820152637265737360e01b606482015260840161060c565b6001600160a01b038216610d5a5760405162461bcd60e51b815260206004820152602260248201527f45524332303a20617070726f766520746f20746865207a65726f206164647265604482015261737360f01b606482015260840161060c565b6001600160a01b0383811660008181526001602090815260408083209487168084529482529182902085905590518481527f8c5be1e5ebec7d5bd14f71427d1e84f3dd0314c0f7b2291e5b200ac8c7c3b92591015b60405180910390a3505050565b6005546001600160a01b031633146107395760405162461bcd60e51b815260206004820181905260248201527f4f776e61626c653a2063616c6c6572206973206e6f7420746865206f776e6572604482015260640161060c565b6001600160a01b038216610e6c5760405162461bcd60e51b815260206004820152601f60248201527f45524332303a206d696e7420746f20746865207a65726f206164647265737300604482015260640161060c565b8060026000828254610e7e919061122b565b90915550506001600160a01b038216600081815260208181526040808320805486019055518481527fddf252ad1be2c89b69c2b068fc378daa952ba7f163c4a11628f55a4df523b3ef910160405180910390a35050565b600580546001600160a01b038381166001600160a01b0319831681179093556040519116919082907f8be0079c531659141344cd1fd0a4f28419497f9722a3daafe3b4186f6b6457e090600090a35050565b6001600160a01b038216610f875760405162461bcd60e51b815260206004820152602160248201527f45524332303a206275726e2066726f6d20746865207a65726f206164647265736044820152607360f81b606482015260840161060c565b6001600160a01b03821660009081526020819052604090205481811015610ffb5760405162461bcd60e51b815260206004820152602260248201527f45524332303a206275726e20616d6f756e7420657863656564732062616c616e604482015261636560f01b606482015260840161060c565b6001600160a01b0383166000818152602081815260408083208686039055600280548790039055518581529192917fddf252ad1be2c89b69c2b068fc378daa952ba7f163c4a11628f55a4df523b3ef9101610daf565b600060208083528351808285015260005b8181101561107e57858101830151858201604001528201611062565b506000604082860101526040601f19601f8301168501019250505092915050565b80356001600160a01b03811681146110b657600080fd5b919050565b600080604083850312156110ce57600080fd5b6110d78361109f565b946020939093013593505050565b6000602082840312156110f757600080fd5b610bc28261109f565b60008060006060848603121561111557600080fd5b61111e8461109f565b925061112c6020850161109f565b9150604084013590509250925092565b6000806040838503121561114f57600080fd5b6111588361109f565b91506111666020840161109f565b90509250929050565b6000806040838503121561118257600080fd5b61118b8361109f565b9150602083013563ffffffff811681146111a457600080fd5b809150509250929050565b600181811c908216806111c357607f821691505b6020821081036111e357634e487b7160e01b600052602260045260246000fd5b50919050565b602080825260129082015271737461747573206973206e6f742061626c6560701b604082015260600190565b634e487b7160e01b600052601160045260246000fd5b808201808211156105af576105af611215565b63ffffffff82811682821603908082111561125b5761125b611215565b5092915050565b600063ffffffff8084168061128757634e487b7160e01b600052601260045260246000fd5b9216919091049291505056fea2646970667358221220f2ad719e26e0ff0f01a8c9a0af4e0c2c00f41a037abb851c7b6fbc37c6aab9da64736f6c63430008110033",
					"opcodes": "PUSH1 0x80 PUSH1 0x40 MSTORE PUSH1 0x5 DUP1 SLOAD PUSH1 0xFF PUSH1 0xA0 SHL NOT AND SWAP1 SSTORE CALLVALUE DUP1 ISZERO PUSH3 0x1E JUMPI PUSH1 0x0 DUP1 REVERT JUMPDEST POP PUSH1 0x40 DUP1 MLOAD DUP1 DUP3 ADD DUP3 MSTORE PUSH1 0x7 DUP1 DUP3 MSTORE PUSH7 0x5342542D303037 PUSH1 0xC8 SHL PUSH1 0x20 DUP1 DUP5 ADD DUP3 SWAP1 MSTORE DUP5 MLOAD DUP1 DUP7 ADD SWAP1 SWAP6 MSTORE SWAP2 DUP5 MSTORE SWAP1 DUP4 ADD MSTORE SWAP1 PUSH1 0x3 PUSH3 0x5E DUP4 DUP3 PUSH3 0x18B JUMP JUMPDEST POP PUSH1 0x4 PUSH3 0x6D DUP3 DUP3 PUSH3 0x18B JUMP JUMPDEST POP POP POP PUSH3 0x8A PUSH3 0x84 PUSH3 0x90 PUSH1 0x20 SHL PUSH1 0x20 SHR JUMP JUMPDEST PUSH3 0x94 JUMP JUMPDEST PUSH3 0x257 JUMP JUMPDEST CALLER SWAP1 JUMP JUMPDEST PUSH1 0x5 DUP1 SLOAD PUSH1 0x1 PUSH1 0x1 PUSH1 0xA0 SHL SUB DUP4 DUP2 AND PUSH1 0x1 PUSH1 0x1 PUSH1 0xA0 SHL SUB NOT DUP4 AND DUP2 OR SWAP1 SWAP4 SSTORE PUSH1 0x40 MLOAD SWAP2 AND SWAP2 SWAP1 DUP3 SWAP1 PUSH32 0x8BE0079C531659141344CD1FD0A4F28419497F9722A3DAAFE3B4186F6B6457E0 SWAP1 PUSH1 0x0 SWAP1 LOG3 POP POP JUMP JUMPDEST PUSH4 0x4E487B71 PUSH1 0xE0 SHL PUSH1 0x0 MSTORE PUSH1 0x41 PUSH1 0x4 MSTORE PUSH1 0x24 PUSH1 0x0 REVERT JUMPDEST PUSH1 0x1 DUP2 DUP2 SHR SWAP1 DUP3 AND DUP1 PUSH3 0x111 JUMPI PUSH1 0x7F DUP3 AND SWAP2 POP JUMPDEST PUSH1 0x20 DUP3 LT DUP2 SUB PUSH3 0x132 JUMPI PUSH4 0x4E487B71 PUSH1 0xE0 SHL PUSH1 0x0 MSTORE PUSH1 0x22 PUSH1 0x4 MSTORE PUSH1 0x24 PUSH1 0x0 REVERT JUMPDEST POP SWAP2 SWAP1 POP JUMP JUMPDEST PUSH1 0x1F DUP3 GT ISZERO PUSH3 0x186 JUMPI PUSH1 0x0 DUP2 DUP2 MSTORE PUSH1 0x20 DUP2 KECCAK256 PUSH1 0x1F DUP6 ADD PUSH1 0x5 SHR DUP2 ADD PUSH1 0x20 DUP7 LT ISZERO PUSH3 0x161 JUMPI POP DUP1 JUMPDEST PUSH1 0x1F DUP6 ADD PUSH1 0x5 SHR DUP3 ADD SWAP2 POP JUMPDEST DUP2 DUP2 LT ISZERO PUSH3 0x182 JUMPI DUP3 DUP2 SSTORE PUSH1 0x1 ADD PUSH3 0x16D JUMP JUMPDEST POP POP POP JUMPDEST POP POP POP JUMP JUMPDEST DUP2 MLOAD PUSH1 0x1 PUSH1 0x1 PUSH1 0x40 SHL SUB DUP2 GT ISZERO PUSH3 0x1A7 JUMPI PUSH3 0x1A7 PUSH3 0xE6 JUMP JUMPDEST PUSH3 0x1BF DUP2 PUSH3 0x1B8 DUP5 SLOAD PUSH3 0xFC JUMP JUMPDEST DUP5 PUSH3 0x138 JUMP JUMPDEST PUSH1 0x20 DUP1 PUSH1 0x1F DUP4 GT PUSH1 0x1 DUP2 EQ PUSH3 0x1F7 JUMPI PUSH1 0x0 DUP5 ISZERO PUSH3 0x1DE JUMPI POP DUP6 DUP4 ADD MLOAD JUMPDEST PUSH1 0x0 NOT PUSH1 0x3 DUP7 SWAP1 SHL SHR NOT AND PUSH1 0x1 DUP6 SWAP1 SHL OR DUP6 SSTORE PUSH3 0x182 JUMP JUMPDEST PUSH1 0x0 DUP6 DUP2 MSTORE PUSH1 0x20 DUP2 KECCAK256 PUSH1 0x1F NOT DUP7 AND SWAP2 JUMPDEST DUP3 DUP2 LT ISZERO PUSH3 0x228 JUMPI DUP9 DUP7 ADD MLOAD DUP3 SSTORE SWAP5 DUP5 ADD SWAP5 PUSH1 0x1 SWAP1 SWAP2 ADD SWAP1 DUP5 ADD PUSH3 0x207 JUMP JUMPDEST POP DUP6 DUP3 LT ISZERO PUSH3 0x247 JUMPI DUP8 DUP6 ADD MLOAD PUSH1 0x0 NOT PUSH1 0x3 DUP9 SWAP1 SHL PUSH1 0xF8 AND SHR NOT AND DUP2 SSTORE JUMPDEST POP POP POP POP POP PUSH1 0x1 SWAP1 DUP2 SHL ADD SWAP1 SSTORE POP JUMP JUMPDEST PUSH2 0x12C9 DUP1 PUSH3 0x267 PUSH1 0x0 CODECOPY PUSH1 0x0 RETURN INVALID PUSH1 0x80 PUSH1 0x40 MSTORE CALLVALUE DUP1 ISZERO PUSH2 0x10 JUMPI PUSH1 0x0 DUP1 REVERT JUMPDEST POP PUSH1 0x4 CALLDATASIZE LT PUSH2 0x1F0 JUMPI PUSH1 0x0 CALLDATALOAD PUSH1 0xE0 SHR DUP1 PUSH4 0x715018A6 GT PUSH2 0x10F JUMPI DUP1 PUSH4 0xAB2429C8 GT PUSH2 0xA2 JUMPI DUP1 PUSH4 0xDD62ED3E GT PUSH2 0x71 JUMPI DUP1 PUSH4 0xDD62ED3E EQ PUSH2 0x468 JUMPI DUP1 PUSH4 0xF1127ED8 EQ PUSH2 0x47B JUMPI DUP1 PUSH4 0xF2FDE38B EQ PUSH2 0x4E3 JUMPI DUP1 PUSH4 0xF851A440 EQ PUSH2 0x4F6 JUMPI PUSH1 0x0 DUP1 REVERT JUMPDEST DUP1 PUSH4 0xAB2429C8 EQ PUSH2 0x41C JUMPI DUP1 PUSH4 0xABACE813 EQ PUSH2 0x42F JUMPI DUP1 PUSH4 0xB4B5EA57 EQ PUSH2 0x442 JUMPI DUP1 PUSH4 0xCC7EF800 EQ PUSH2 0x455 JUMPI PUSH1 0x0 DUP1 REVERT JUMPDEST DUP1 PUSH4 0x95D89B41 GT PUSH2 0xDE JUMPI DUP1 PUSH4 0x95D89B41 EQ PUSH2 0x3E0 JUMPI DUP1 PUSH4 0x9DC29FAC EQ PUSH2 0x3E8 JUMPI DUP1 PUSH4 0xA457C2D7 EQ PUSH2 0x3FB JUMPI DUP1 PUSH4 0xA9059CBB EQ PUSH2 0x40E JUMPI PUSH1 0x0 DUP1 REVERT JUMPDEST DUP1 PUSH4 0x715018A6 EQ PUSH2 0x389 JUMPI DUP1 PUSH4 0x782D6FE1 EQ PUSH2 0x391 JUMPI DUP1 PUSH4 0x78CB7539 EQ PUSH2 0x3BC JUMPI DUP1 PUSH4 0x8DA5CB5B EQ PUSH2 0x3CF JUMPI PUSH1 0x0 DUP1 REVERT JUMPDEST DUP1 PUSH4 0x313CE567 GT PUSH2 0x187 JUMPI DUP1 PUSH4 0x477DFEB8 GT PUSH2 0x156 JUMPI DUP1 PUSH4 0x477DFEB8 EQ PUSH2 0x2FF JUMPI DUP1 PUSH4 0x6FCFFF45 EQ PUSH2 0x312 JUMPI DUP1 PUSH4 0x70A08231 EQ PUSH2 0x34D JUMPI DUP1 PUSH4 0x70D8D374 EQ PUSH2 0x376 JUMPI PUSH1 0x0 DUP1 REVERT JUMPDEST DUP1 PUSH4 0x313CE567 EQ PUSH2 0x2C2 JUMPI DUP1 PUSH4 0x39509351 EQ PUSH2 0x2D1 JUMPI DUP1 PUSH4 0x3E72AEAE EQ PUSH2 0x2E4 JUMPI DUP1 PUSH4 0x40C10F19 EQ PUSH2 0x2EC JUMPI PUSH1 0x0 DUP1 REVERT JUMPDEST DUP1 PUSH4 0x1A5EF71C GT PUSH2 0x1C3 JUMPI DUP1 PUSH4 0x1A5EF71C EQ PUSH2 0x273 JUMPI DUP1 PUSH4 0x1E9D9782 EQ PUSH2 0x286 JUMPI DUP1 PUSH4 0x200D2ED2 EQ PUSH2 0x29B JUMPI DUP1 PUSH4 0x23B872DD EQ PUSH2 0x2AF JUMPI PUSH1 0x0 DUP1 REVERT JUMPDEST DUP1 PUSH4 0x6FDDE03 EQ PUSH2 0x1F5 JUMPI DUP1 PUSH4 0x7546172 EQ PUSH2 0x213 JUMPI DUP1 PUSH4 0x95EA7B3 EQ PUSH2 0x23E JUMPI DUP1 PUSH4 0x18160DDD EQ PUSH2 0x261 JUMPI JUMPDEST PUSH1 0x0 DUP1 REVERT JUMPDEST PUSH2 0x1FD PUSH2 0x509 JUMP JUMPDEST PUSH1 0x40 MLOAD PUSH2 0x20A SWAP2 SWAP1 PUSH2 0x1051 JUMP JUMPDEST PUSH1 0x40 MLOAD DUP1 SWAP2 SUB SWAP1 RETURN JUMPDEST PUSH1 0x6 SLOAD PUSH2 0x226 SWAP1 PUSH1 0x1 PUSH1 0x1 PUSH1 0xA0 SHL SUB AND DUP2 JUMP JUMPDEST PUSH1 0x40 MLOAD PUSH1 0x1 PUSH1 0x1 PUSH1 0xA0 SHL SUB SWAP1 SWAP2 AND DUP2 MSTORE PUSH1 0x20 ADD PUSH2 0x20A JUMP JUMPDEST PUSH2 0x251 PUSH2 0x24C CALLDATASIZE PUSH1 0x4 PUSH2 0x10BB JUMP JUMPDEST PUSH2 0x59B JUMP JUMPDEST PUSH1 0x40 MLOAD SWAP1 ISZERO ISZERO DUP2 MSTORE PUSH1 0x20 ADD PUSH2 0x20A JUMP JUMPDEST PUSH1 0x2 SLOAD JUMPDEST PUSH1 0x40 MLOAD SWAP1 DUP2 MSTORE PUSH1 0x20 ADD PUSH2 0x20A JUMP JUMPDEST PUSH1 0x9 SLOAD PUSH2 0x226 SWAP1 PUSH1 0x1 PUSH1 0x1 PUSH1 0xA0 SHL SUB AND DUP2 JUMP JUMPDEST PUSH2 0x299 PUSH2 0x294 CALLDATASIZE PUSH1 0x4 PUSH2 0x10E5 JUMP JUMPDEST PUSH2 0x5B5 JUMP JUMPDEST STOP JUMPDEST PUSH1 0x5 SLOAD PUSH2 0x251 SWAP1 PUSH1 0x1 PUSH1 0xA0 SHL SWAP1 DIV PUSH1 0xFF AND DUP2 JUMP JUMPDEST PUSH2 0x251 PUSH2 0x2BD CALLDATASIZE PUSH1 0x4 PUSH2 0x1100 JUMP JUMPDEST PUSH2 0x5DF JUMP JUMPDEST PUSH1 0x40 MLOAD PUSH1 0x12 DUP2 MSTORE PUSH1 0x20 ADD PUSH2 0x20A JUMP JUMPDEST PUSH2 0x251 PUSH2 0x2DF CALLDATASIZE PUSH1 0x4 PUSH2 0x10BB JUMP JUMPDEST PUSH2 0x625 JUMP JUMPDEST PUSH2 0x299 PUSH2 0x642 JUMP JUMPDEST PUSH2 0x299 PUSH2 0x2FA CALLDATASIZE PUSH1 0x4 PUSH2 0x10BB JUMP JUMPDEST PUSH2 0x66B JUMP JUMPDEST PUSH2 0x299 PUSH2 0x30D CALLDATASIZE PUSH1 0x4 PUSH2 0x10E5 JUMP JUMPDEST PUSH2 0x6FD JUMP JUMPDEST PUSH2 0x338 PUSH2 0x320 CALLDATASIZE PUSH1 0x4 PUSH2 0x10E5 JUMP JUMPDEST PUSH1 0xD PUSH1 0x20 MSTORE PUSH1 0x0 SWAP1 DUP2 MSTORE PUSH1 0x40 SWAP1 KECCAK256 SLOAD PUSH4 0xFFFFFFFF AND DUP2 JUMP JUMPDEST PUSH1 0x40 MLOAD PUSH4 0xFFFFFFFF SWAP1 SWAP2 AND DUP2 MSTORE PUSH1 0x20 ADD PUSH2 0x20A JUMP JUMPDEST PUSH2 0x265 PUSH2 0x35B CALLDATASIZE PUSH1 0x4 PUSH2 0x10E5 JUMP JUMPDEST PUSH1 0x1 PUSH1 0x1 PUSH1 0xA0 SHL SUB AND PUSH1 0x0 SWAP1 DUP2 MSTORE PUSH1 0x20 DUP2 SWAP1 MSTORE PUSH1 0x40 SWAP1 KECCAK256 SLOAD SWAP1 JUMP JUMPDEST PUSH1 0x8 SLOAD PUSH2 0x226 SWAP1 PUSH1 0x1 PUSH1 0x1 PUSH1 0xA0 SHL SUB AND DUP2 JUMP JUMPDEST PUSH2 0x299 PUSH2 0x727 JUMP JUMPDEST PUSH2 0x3A4 PUSH2 0x39F CALLDATASIZE PUSH1 0x4 PUSH2 0x10BB JUMP JUMPDEST PUSH2 0x73B JUMP JUMPDEST PUSH1 0x40 MLOAD PUSH1 0x1 PUSH1 0x1 PUSH1 0x60 SHL SUB SWAP1 SWAP2 AND DUP2 MSTORE PUSH1 0x20 ADD PUSH2 0x20A JUMP JUMPDEST PUSH1 0xA SLOAD PUSH2 0x226 SWAP1 PUSH1 0x1 PUSH1 0x1 PUSH1 0xA0 SHL SUB AND DUP2 JUMP JUMPDEST PUSH1 0x5 SLOAD PUSH1 0x1 PUSH1 0x1 PUSH1 0xA0 SHL SUB AND PUSH2 0x226 JUMP JUMPDEST PUSH2 0x1FD PUSH2 0x9DB JUMP JUMPDEST PUSH2 0x299 PUSH2 0x3F6 CALLDATASIZE PUSH1 0x4 PUSH2 0x10BB JUMP JUMPDEST PUSH2 0x9EA JUMP JUMPDEST PUSH2 0x251 PUSH2 0x409 CALLDATASIZE PUSH1 0x4 PUSH2 0x10BB JUMP JUMPDEST PUSH2 0xA78 JUMP JUMPDEST PUSH2 0x251 PUSH2 0x2BD CALLDATASIZE PUSH1 0x4 PUSH2 0x10BB JUMP JUMPDEST PUSH1 0xB SLOAD PUSH2 0x226 SWAP1 PUSH1 0x1 PUSH1 0x1 PUSH1 0xA0 SHL SUB AND DUP2 JUMP JUMPDEST PUSH2 0x299 PUSH2 0x43D CALLDATASIZE PUSH1 0x4 PUSH2 0x10E5 JUMP JUMPDEST PUSH2 0xAF3 JUMP JUMPDEST PUSH2 0x3A4 PUSH2 0x450 CALLDATASIZE PUSH1 0x4 PUSH2 0x10E5 JUMP JUMPDEST PUSH2 0xB1D JUMP JUMPDEST PUSH2 0x299 PUSH2 0x463 CALLDATASIZE PUSH1 0x4 PUSH2 0x10E5 JUMP JUMPDEST PUSH2 0xBC9 JUMP JUMPDEST PUSH2 0x265 PUSH2 0x476 CALLDATASIZE PUSH1 0x4 PUSH2 0x113C JUMP JUMPDEST PUSH2 0xBF3 JUMP JUMPDEST PUSH2 0x4BF PUSH2 0x489 CALLDATASIZE PUSH1 0x4 PUSH2 0x116F JUMP JUMPDEST PUSH1 0xC PUSH1 0x20 SWAP1 DUP2 MSTORE PUSH1 0x0 SWAP3 DUP4 MSTORE PUSH1 0x40 DUP1 DUP5 KECCAK256 SWAP1 SWAP2 MSTORE SWAP1 DUP3 MSTORE SWAP1 KECCAK256 SLOAD PUSH4 0xFFFFFFFF DUP2 AND SWAP1 PUSH5 0x100000000 SWAP1 DIV PUSH1 0x1 PUSH1 0x1 PUSH1 0x60 SHL SUB AND DUP3 JUMP JUMPDEST PUSH1 0x40 DUP1 MLOAD PUSH4 0xFFFFFFFF SWAP1 SWAP4 AND DUP4 MSTORE PUSH1 0x1 PUSH1 0x1 PUSH1 0x60 SHL SUB SWAP1 SWAP2 AND PUSH1 0x20 DUP4 ADD MSTORE ADD PUSH2 0x20A JUMP JUMPDEST PUSH2 0x299 PUSH2 0x4F1 CALLDATASIZE PUSH1 0x4 PUSH2 0x10E5 JUMP JUMPDEST PUSH2 0xC1E JUMP JUMPDEST PUSH1 0x7 SLOAD PUSH2 0x226 SWAP1 PUSH1 0x1 PUSH1 0x1 PUSH1 0xA0 SHL SUB AND DUP2 JUMP JUMPDEST PUSH1 0x60 PUSH1 0x3 DUP1 SLOAD PUSH2 0x518 SWAP1 PUSH2 0x11AF JUMP JUMPDEST DUP1 PUSH1 0x1F ADD PUSH1 0x20 DUP1 SWAP2 DIV MUL PUSH1 0x20 ADD PUSH1 0x40 MLOAD SWAP1 DUP2 ADD PUSH1 0x40 MSTORE DUP1 SWAP3 SWAP2 SWAP1 DUP2 DUP2 MSTORE PUSH1 0x20 ADD DUP3 DUP1 SLOAD PUSH2 0x544 SWAP1 PUSH2 0x11AF JUMP JUMPDEST DUP1 ISZERO PUSH2 0x591 JUMPI DUP1 PUSH1 0x1F LT PUSH2 0x566 JUMPI PUSH2 0x100 DUP1 DUP4 SLOAD DIV MUL DUP4 MSTORE SWAP2 PUSH1 0x20 ADD SWAP2 PUSH2 0x591 JUMP JUMPDEST DUP3 ADD SWAP2 SWAP1 PUSH1 0x0 MSTORE PUSH1 0x20 PUSH1 0x0 KECCAK256 SWAP1 JUMPDEST DUP2 SLOAD DUP2 MSTORE SWAP1 PUSH1 0x1 ADD SWAP1 PUSH1 0x20 ADD DUP1 DUP4 GT PUSH2 0x574 JUMPI DUP3 SWAP1 SUB PUSH1 0x1F AND DUP3 ADD SWAP2 JUMPDEST POP POP POP POP POP SWAP1 POP SWAP1 JUMP JUMPDEST PUSH1 0x0 CALLER PUSH2 0x5A9 DUP2 DUP6 DUP6 PUSH2 0xC97 JUMP JUMPDEST PUSH1 0x1 SWAP2 POP POP JUMPDEST SWAP3 SWAP2 POP POP JUMP JUMPDEST PUSH2 0x5BD PUSH2 0xDBC JUMP JUMPDEST PUSH1 0xB DUP1 SLOAD PUSH1 0x1 PUSH1 0x1 PUSH1 0xA0 SHL SUB NOT AND PUSH1 0x1 PUSH1 0x1 PUSH1 0xA0 SHL SUB SWAP3 SWAP1 SWAP3 AND SWAP2 SWAP1 SWAP2 OR SWAP1 SSTORE JUMP JUMPDEST PUSH1 0x5 SLOAD PUSH1 0x0 SWAP1 PUSH1 0x1 PUSH1 0xA0 SHL SWAP1 DIV PUSH1 0xFF AND ISZERO PUSH2 0x1F0 JUMPI PUSH1 0x40 MLOAD PUSH3 0x461BCD PUSH1 0xE5 SHL DUP2 MSTORE PUSH1 0x4 ADD PUSH2 0x60C SWAP1 PUSH2 0x11E9 JUMP JUMPDEST PUSH1 0x40 MLOAD DUP1 SWAP2 SUB SWAP1 REVERT JUMPDEST PUSH2 0xC97 JUMP JUMPDEST POP PUSH1 0x1 SWAP5 SWAP4 POP POP POP POP JUMP JUMPDEST PUSH1 0x0 CALLER PUSH2 0x5A9 DUP2 DUP6 DUP6 PUSH2 0x638 DUP4 DUP4 PUSH2 0xBF3 JUMP JUMPDEST PUSH2 0x615 SWAP2 SWAP1 PUSH2 0x122B JUMP JUMPDEST PUSH2 0x64A PUSH2 0xDBC JUMP JUMPDEST PUSH1 0x5 DUP1 SLOAD PUSH1 0xFF PUSH1 0xA0 SHL NOT DUP2 AND PUSH1 0x1 PUSH1 0xA0 SHL SWAP2 DUP3 SWAP1 DIV PUSH1 0xFF AND ISZERO SWAP1 SWAP2 MUL OR SWAP1 SSTORE JUMP JUMPDEST PUSH1 0x8 SLOAD PUSH1 0x1 PUSH1 0x1 PUSH1 0xA0 SHL SUB AND CALLER EQ DUP1 PUSH2 0x68E JUMPI POP PUSH1 0xA SLOAD PUSH1 0x1 PUSH1 0x1 PUSH1 0xA0 SHL SUB AND CALLER EQ JUMPDEST DUP1 PUSH2 0x6A3 JUMPI POP PUSH1 0xB SLOAD PUSH1 0x1 PUSH1 0x1 PUSH1 0xA0 SHL SUB AND CALLER EQ JUMPDEST PUSH2 0x6EF JUMPI PUSH1 0x40 MLOAD PUSH3 0x461BCD PUSH1 0xE5 SHL DUP2 MSTORE PUSH1 0x20 PUSH1 0x4 DUP3 ADD MSTORE PUSH1 0x1F PUSH1 0x24 DUP3 ADD MSTORE PUSH32 0x5342543030373A796F75207365742041646472657373206973206572726F7200 PUSH1 0x44 DUP3 ADD MSTORE PUSH1 0x64 ADD PUSH2 0x60C JUMP JUMPDEST PUSH2 0x6F9 DUP3 DUP3 PUSH2 0xE16 JUMP JUMPDEST POP POP JUMP JUMPDEST PUSH2 0x705 PUSH2 0xDBC JUMP JUMPDEST PUSH1 0xA DUP1 SLOAD PUSH1 0x1 PUSH1 0x1 PUSH1 0xA0 SHL SUB NOT AND PUSH1 0x1 PUSH1 0x1 PUSH1 0xA0 SHL SUB SWAP3 SWAP1 SWAP3 AND SWAP2 SWAP1 SWAP2 OR SWAP1 SSTORE JUMP JUMPDEST PUSH2 0x72F PUSH2 0xDBC JUMP JUMPDEST PUSH2 0x739 PUSH1 0x0 PUSH2 0xED5 JUMP JUMPDEST JUMP JUMPDEST PUSH1 0x5 SLOAD PUSH1 0x0 SWAP1 PUSH1 0x1 PUSH1 0xA0 SHL SWAP1 DIV PUSH1 0xFF AND ISZERO PUSH2 0x768 JUMPI PUSH1 0x40 MLOAD PUSH3 0x461BCD PUSH1 0xE5 SHL DUP2 MSTORE PUSH1 0x4 ADD PUSH2 0x60C SWAP1 PUSH2 0x11E9 JUMP JUMPDEST NUMBER DUP3 GT ISZERO PUSH2 0x7B8 JUMPI PUSH1 0x40 MLOAD PUSH3 0x461BCD PUSH1 0xE5 SHL DUP2 MSTORE PUSH1 0x20 PUSH1 0x4 DUP3 ADD MSTORE PUSH1 0x19 PUSH1 0x24 DUP3 ADD MSTORE PUSH32 0x45524332303A206E6F74207965742064657465726D696E656400000000000000 PUSH1 0x44 DUP3 ADD MSTORE PUSH1 0x64 ADD PUSH2 0x60C JUMP JUMPDEST PUSH1 0x1 PUSH1 0x1 PUSH1 0xA0 SHL SUB DUP4 AND PUSH1 0x0 SWAP1 DUP2 MSTORE PUSH1 0xD PUSH1 0x20 MSTORE PUSH1 0x40 SWAP1 KECCAK256 SLOAD PUSH4 0xFFFFFFFF AND DUP1 ISZERO DUP1 PUSH2 0x80C JUMPI POP PUSH1 0x1 PUSH1 0x1 PUSH1 0xA0 SHL SUB DUP5 AND PUSH1 0x0 SWAP1 DUP2 MSTORE PUSH1 0xC PUSH1 0x20 SWAP1 DUP2 MSTORE PUSH1 0x40 DUP1 DUP4 KECCAK256 DUP4 DUP1 MSTORE SWAP1 SWAP2 MSTORE SWAP1 KECCAK256 SLOAD PUSH4 0xFFFFFFFF AND DUP4 LT JUMPDEST ISZERO PUSH2 0x81B JUMPI PUSH1 0x0 SWAP2 POP POP PUSH2 0x5AF JUMP JUMPDEST PUSH1 0x1 PUSH1 0x1 PUSH1 0xA0 SHL SUB DUP5 AND PUSH1 0x0 SWAP1 DUP2 MSTORE PUSH1 0xC PUSH1 0x20 MSTORE PUSH1 0x40 DUP2 KECCAK256 DUP5 SWAP2 PUSH2 0x840 PUSH1 0x1 DUP6 PUSH2 0x123E JUMP JUMPDEST PUSH4 0xFFFFFFFF SWAP1 DUP2 AND DUP3 MSTORE PUSH1 0x20 DUP3 ADD SWAP3 SWAP1 SWAP3 MSTORE PUSH1 0x40 ADD PUSH1 0x0 KECCAK256 SLOAD AND GT PUSH2 0x8B4 JUMPI PUSH1 0x1 PUSH1 0x1 PUSH1 0xA0 SHL SUB DUP5 AND PUSH1 0x0 SWAP1 DUP2 MSTORE PUSH1 0xC PUSH1 0x20 MSTORE PUSH1 0x40 DUP2 KECCAK256 SWAP1 PUSH2 0x883 PUSH1 0x1 DUP5 PUSH2 0x123E JUMP JUMPDEST PUSH4 0xFFFFFFFF AND DUP2 MSTORE PUSH1 0x20 DUP2 ADD SWAP2 SWAP1 SWAP2 MSTORE PUSH1 0x40 ADD PUSH1 0x0 KECCAK256 SLOAD PUSH5 0x100000000 SWAP1 DIV PUSH1 0x1 PUSH1 0x1 PUSH1 0x60 SHL SUB AND SWAP2 POP PUSH2 0x5AF SWAP1 POP JUMP JUMPDEST PUSH1 0x0 DUP1 PUSH2 0x8C2 PUSH1 0x1 DUP5 PUSH2 0x123E JUMP JUMPDEST SWAP1 POP JUMPDEST DUP2 PUSH4 0xFFFFFFFF AND DUP2 PUSH4 0xFFFFFFFF AND GT ISZERO PUSH2 0x995 JUMPI PUSH1 0x0 PUSH1 0x2 PUSH2 0x8E7 DUP5 DUP5 PUSH2 0x123E JUMP JUMPDEST PUSH2 0x8F1 SWAP2 SWAP1 PUSH2 0x1262 JUMP JUMPDEST PUSH2 0x8FB SWAP1 DUP4 PUSH2 0x123E JUMP JUMPDEST PUSH1 0x1 PUSH1 0x1 PUSH1 0xA0 SHL SUB DUP9 AND PUSH1 0x0 SWAP1 DUP2 MSTORE PUSH1 0xC PUSH1 0x20 SWAP1 DUP2 MSTORE PUSH1 0x40 DUP1 DUP4 KECCAK256 PUSH4 0xFFFFFFFF DUP6 DUP2 AND DUP6 MSTORE SWAP1 DUP4 MSTORE SWAP3 DUP2 SWAP1 KECCAK256 DUP2 MLOAD DUP1 DUP4 ADD SWAP1 SWAP3 MSTORE SLOAD SWAP3 DUP4 AND DUP1 DUP3 MSTORE PUSH5 0x100000000 SWAP1 SWAP4 DIV PUSH1 0x1 PUSH1 0x1 PUSH1 0x60 SHL SUB AND SWAP2 DUP2 ADD SWAP2 SWAP1 SWAP2 MSTORE SWAP2 SWAP3 POP DUP8 SWAP1 SUB PUSH2 0x969 JUMPI PUSH1 0x20 ADD MLOAD SWAP5 POP PUSH2 0x5AF SWAP4 POP POP POP POP JUMP JUMPDEST DUP1 MLOAD PUSH4 0xFFFFFFFF AND DUP8 GT ISZERO PUSH2 0x980 JUMPI DUP2 SWAP4 POP PUSH2 0x98E JUMP JUMPDEST PUSH2 0x98B PUSH1 0x1 DUP4 PUSH2 0x123E JUMP JUMPDEST SWAP3 POP JUMPDEST POP POP PUSH2 0x8C5 JUMP JUMPDEST POP PUSH1 0x1 PUSH1 0x1 PUSH1 0xA0 SHL SUB DUP6 AND PUSH1 0x0 SWAP1 DUP2 MSTORE PUSH1 0xC PUSH1 0x20 SWAP1 DUP2 MSTORE PUSH1 0x40 DUP1 DUP4 KECCAK256 PUSH4 0xFFFFFFFF SWAP1 SWAP5 AND DUP4 MSTORE SWAP3 SWAP1 MSTORE KECCAK256 SLOAD PUSH1 0x1 PUSH1 0x1 PUSH1 0x60 SHL SUB PUSH5 0x100000000 SWAP1 SWAP2 DIV AND SWAP2 POP POP SWAP3 SWAP2 POP POP JUMP JUMPDEST PUSH1 0x60 PUSH1 0x4 DUP1 SLOAD PUSH2 0x518 SWAP1 PUSH2 0x11AF JUMP JUMPDEST PUSH1 0x8 SLOAD PUSH1 0x1 PUSH1 0x1 PUSH1 0xA0 SHL SUB AND CALLER EQ DUP1 PUSH2 0xA0D JUMPI POP PUSH1 0xA SLOAD PUSH1 0x1 PUSH1 0x1 PUSH1 0xA0 SHL SUB AND CALLER EQ JUMPDEST DUP1 PUSH2 0xA22 JUMPI POP PUSH1 0xB SLOAD PUSH1 0x1 PUSH1 0x1 PUSH1 0xA0 SHL SUB AND CALLER EQ JUMPDEST PUSH2 0xA6E JUMPI PUSH1 0x40 MLOAD PUSH3 0x461BCD PUSH1 0xE5 SHL DUP2 MSTORE PUSH1 0x20 PUSH1 0x4 DUP3 ADD MSTORE PUSH1 0x1F PUSH1 0x24 DUP3 ADD MSTORE PUSH32 0x5342543030373A796F75207365742041646472657373206973206572726F7200 PUSH1 0x44 DUP3 ADD MSTORE PUSH1 0x64 ADD PUSH2 0x60C JUMP JUMPDEST PUSH2 0x6F9 DUP3 DUP3 PUSH2 0xF27 JUMP JUMPDEST PUSH1 0x0 CALLER DUP2 PUSH2 0xA86 DUP3 DUP7 PUSH2 0xBF3 JUMP JUMPDEST SWAP1 POP DUP4 DUP2 LT ISZERO PUSH2 0xAE6 JUMPI PUSH1 0x40 MLOAD PUSH3 0x461BCD PUSH1 0xE5 SHL DUP2 MSTORE PUSH1 0x20 PUSH1 0x4 DUP3 ADD MSTORE PUSH1 0x25 PUSH1 0x24 DUP3 ADD MSTORE PUSH32 0x45524332303A2064656372656173656420616C6C6F77616E63652062656C6F77 PUSH1 0x44 DUP3 ADD MSTORE PUSH5 0x207A65726F PUSH1 0xD8 SHL PUSH1 0x64 DUP3 ADD MSTORE PUSH1 0x84 ADD PUSH2 0x60C JUMP JUMPDEST PUSH2 0x61A DUP3 DUP7 DUP7 DUP5 SUB PUSH2 0xC97 JUMP JUMPDEST PUSH2 0xAFB PUSH2 0xDBC JUMP JUMPDEST PUSH1 0x8 DUP1 SLOAD PUSH1 0x1 PUSH1 0x1 PUSH1 0xA0 SHL SUB NOT AND PUSH1 0x1 PUSH1 0x1 PUSH1 0xA0 SHL SUB SWAP3 SWAP1 SWAP3 AND SWAP2 SWAP1 SWAP2 OR SWAP1 SSTORE JUMP JUMPDEST PUSH1 0x5 SLOAD PUSH1 0x0 SWAP1 PUSH1 0x1 PUSH1 0xA0 SHL SWAP1 DIV PUSH1 0xFF AND ISZERO PUSH2 0xB4A JUMPI PUSH1 0x40 MLOAD PUSH3 0x461BCD PUSH1 0xE5 SHL DUP2 MSTORE PUSH1 0x4 ADD PUSH2 0x60C SWAP1 PUSH2 0x11E9 JUMP JUMPDEST PUSH1 0x1 PUSH1 0x1 PUSH1 0xA0 SHL SUB DUP3 AND PUSH1 0x0 SWAP1 DUP2 MSTORE PUSH1 0xD PUSH1 0x20 MSTORE PUSH1 0x40 SWAP1 KECCAK256 SLOAD PUSH4 0xFFFFFFFF AND DUP1 PUSH2 0xB75 JUMPI PUSH1 0x0 PUSH2 0xBC2 JUMP JUMPDEST PUSH1 0x1 PUSH1 0x1 PUSH1 0xA0 SHL SUB DUP4 AND PUSH1 0x0 SWAP1 DUP2 MSTORE PUSH1 0xC PUSH1 0x20 MSTORE PUSH1 0x40 DUP2 KECCAK256 SWAP1 PUSH2 0xB99 PUSH1 0x1 DUP5 PUSH2 0x123E JUMP JUMPDEST PUSH4 0xFFFFFFFF AND DUP2 MSTORE PUSH1 0x20 DUP2 ADD SWAP2 SWAP1 SWAP2 MSTORE PUSH1 0x40 ADD PUSH1 0x0 KECCAK256 SLOAD PUSH5 0x100000000 SWAP1 DIV PUSH1 0x1 PUSH1 0x1 PUSH1 0x60 SHL SUB AND JUMPDEST SWAP4 SWAP3 POP POP POP JUMP JUMPDEST PUSH2 0xBD1 PUSH2 0xDBC JUMP JUMPDEST PUSH1 0x9 DUP1 SLOAD PUSH1 0x1 PUSH1 0x1 PUSH1 0xA0 SHL SUB NOT AND PUSH1 0x1 PUSH1 0x1 PUSH1 0xA0 SHL SUB SWAP3 SWAP1 SWAP3 AND SWAP2 SWAP1 SWAP2 OR SWAP1 SSTORE JUMP JUMPDEST PUSH1 0x1 PUSH1 0x1 PUSH1 0xA0 SHL SUB SWAP2 DUP3 AND PUSH1 0x0 SWAP1 DUP2 MSTORE PUSH1 0x1 PUSH1 0x20 SWAP1 DUP2 MSTORE PUSH1 0x40 DUP1 DUP4 KECCAK256 SWAP4 SWAP1 SWAP5 AND DUP3 MSTORE SWAP2 SWAP1 SWAP2 MSTORE KECCAK256 SLOAD SWAP1 JUMP JUMPDEST PUSH2 0xC26 PUSH2 0xDBC JUMP JUMPDEST PUSH1 0x1 PUSH1 0x1 PUSH1 0xA0 SHL SUB DUP2 AND PUSH2 0xC8B JUMPI PUSH1 0x40 MLOAD PUSH3 0x461BCD PUSH1 0xE5 SHL DUP2 MSTORE PUSH1 0x20 PUSH1 0x4 DUP3 ADD MSTORE PUSH1 0x26 PUSH1 0x24 DUP3 ADD MSTORE PUSH32 0x4F776E61626C653A206E6577206F776E657220697320746865207A65726F2061 PUSH1 0x44 DUP3 ADD MSTORE PUSH6 0x646472657373 PUSH1 0xD0 SHL PUSH1 0x64 DUP3 ADD MSTORE PUSH1 0x84 ADD PUSH2 0x60C JUMP JUMPDEST PUSH2 0xC94 DUP2 PUSH2 0xED5 JUMP JUMPDEST POP JUMP JUMPDEST PUSH1 0x1 PUSH1 0x1 PUSH1 0xA0 SHL SUB DUP4 AND PUSH2 0xCF9 JUMPI PUSH1 0x40 MLOAD PUSH3 0x461BCD PUSH1 0xE5 SHL DUP2 MSTORE PUSH1 0x20 PUSH1 0x4 DUP3 ADD MSTORE PUSH1 0x24 DUP1 DUP3 ADD MSTORE PUSH32 0x45524332303A20617070726F76652066726F6D20746865207A65726F20616464 PUSH1 0x44 DUP3 ADD MSTORE PUSH4 0x72657373 PUSH1 0xE0 SHL PUSH1 0x64 DUP3 ADD MSTORE PUSH1 0x84 ADD PUSH2 0x60C JUMP JUMPDEST PUSH1 0x1 PUSH1 0x1 PUSH1 0xA0 SHL SUB DUP3 AND PUSH2 0xD5A JUMPI PUSH1 0x40 MLOAD PUSH3 0x461BCD PUSH1 0xE5 SHL DUP2 MSTORE PUSH1 0x20 PUSH1 0x4 DUP3 ADD MSTORE PUSH1 0x22 PUSH1 0x24 DUP3 ADD MSTORE PUSH32 0x45524332303A20617070726F766520746F20746865207A65726F206164647265 PUSH1 0x44 DUP3 ADD MSTORE PUSH2 0x7373 PUSH1 0xF0 SHL PUSH1 0x64 DUP3 ADD MSTORE PUSH1 0x84 ADD PUSH2 0x60C JUMP JUMPDEST PUSH1 0x1 PUSH1 0x1 PUSH1 0xA0 SHL SUB DUP4 DUP2 AND PUSH1 0x0 DUP2 DUP2 MSTORE PUSH1 0x1 PUSH1 0x20 SWAP1 DUP2 MSTORE PUSH1 0x40 DUP1 DUP4 KECCAK256 SWAP5 DUP8 AND DUP1 DUP5 MSTORE SWAP5 DUP3 MSTORE SWAP2 DUP3 SWAP1 KECCAK256 DUP6 SWAP1 SSTORE SWAP1 MLOAD DUP5 DUP2 MSTORE PUSH32 0x8C5BE1E5EBEC7D5BD14F71427D1E84F3DD0314C0F7B2291E5B200AC8C7C3B925 SWAP2 ADD JUMPDEST PUSH1 0x40 MLOAD DUP1 SWAP2 SUB SWAP1 LOG3 POP POP POP JUMP JUMPDEST PUSH1 0x5 SLOAD PUSH1 0x1 PUSH1 0x1 PUSH1 0xA0 SHL SUB AND CALLER EQ PUSH2 0x739 JUMPI PUSH1 0x40 MLOAD PUSH3 0x461BCD PUSH1 0xE5 SHL DUP2 MSTORE PUSH1 0x20 PUSH1 0x4 DUP3 ADD DUP2 SWAP1 MSTORE PUSH1 0x24 DUP3 ADD MSTORE PUSH32 0x4F776E61626C653A2063616C6C6572206973206E6F7420746865206F776E6572 PUSH1 0x44 DUP3 ADD MSTORE PUSH1 0x64 ADD PUSH2 0x60C JUMP JUMPDEST PUSH1 0x1 PUSH1 0x1 PUSH1 0xA0 SHL SUB DUP3 AND PUSH2 0xE6C JUMPI PUSH1 0x40 MLOAD PUSH3 0x461BCD PUSH1 0xE5 SHL DUP2 MSTORE PUSH1 0x20 PUSH1 0x4 DUP3 ADD MSTORE PUSH1 0x1F PUSH1 0x24 DUP3 ADD MSTORE PUSH32 0x45524332303A206D696E7420746F20746865207A65726F206164647265737300 PUSH1 0x44 DUP3 ADD MSTORE PUSH1 0x64 ADD PUSH2 0x60C JUMP JUMPDEST DUP1 PUSH1 0x2 PUSH1 0x0 DUP3 DUP3 SLOAD PUSH2 0xE7E SWAP2 SWAP1 PUSH2 0x122B JUMP JUMPDEST SWAP1 SWAP2 SSTORE POP POP PUSH1 0x1 PUSH1 0x1 PUSH1 0xA0 SHL SUB DUP3 AND PUSH1 0x0 DUP2 DUP2 MSTORE PUSH1 0x20 DUP2 DUP2 MSTORE PUSH1 0x40 DUP1 DUP4 KECCAK256 DUP1 SLOAD DUP7 ADD SWAP1 SSTORE MLOAD DUP5 DUP2 MSTORE PUSH32 0xDDF252AD1BE2C89B69C2B068FC378DAA952BA7F163C4A11628F55A4DF523B3EF SWAP2 ADD PUSH1 0x40 MLOAD DUP1 SWAP2 SUB SWAP1 LOG3 POP POP JUMP JUMPDEST PUSH1 0x5 DUP1 SLOAD PUSH1 0x1 PUSH1 0x1 PUSH1 0xA0 SHL SUB DUP4 DUP2 AND PUSH1 0x1 PUSH1 0x1 PUSH1 0xA0 SHL SUB NOT DUP4 AND DUP2 OR SWAP1 SWAP4 SSTORE PUSH1 0x40 MLOAD SWAP2 AND SWAP2 SWAP1 DUP3 SWAP1 PUSH32 0x8BE0079C531659141344CD1FD0A4F28419497F9722A3DAAFE3B4186F6B6457E0 SWAP1 PUSH1 0x0 SWAP1 LOG3 POP POP JUMP JUMPDEST PUSH1 0x1 PUSH1 0x1 PUSH1 0xA0 SHL SUB DUP3 AND PUSH2 0xF87 JUMPI PUSH1 0x40 MLOAD PUSH3 0x461BCD PUSH1 0xE5 SHL DUP2 MSTORE PUSH1 0x20 PUSH1 0x4 DUP3 ADD MSTORE PUSH1 0x21 PUSH1 0x24 DUP3 ADD MSTORE PUSH32 0x45524332303A206275726E2066726F6D20746865207A65726F20616464726573 PUSH1 0x44 DUP3 ADD MSTORE PUSH1 0x73 PUSH1 0xF8 SHL PUSH1 0x64 DUP3 ADD MSTORE PUSH1 0x84 ADD PUSH2 0x60C JUMP JUMPDEST PUSH1 0x1 PUSH1 0x1 PUSH1 0xA0 SHL SUB DUP3 AND PUSH1 0x0 SWAP1 DUP2 MSTORE PUSH1 0x20 DUP2 SWAP1 MSTORE PUSH1 0x40 SWAP1 KECCAK256 SLOAD DUP2 DUP2 LT ISZERO PUSH2 0xFFB JUMPI PUSH1 0x40 MLOAD PUSH3 0x461BCD PUSH1 0xE5 SHL DUP2 MSTORE PUSH1 0x20 PUSH1 0x4 DUP3 ADD MSTORE PUSH1 0x22 PUSH1 0x24 DUP3 ADD MSTORE PUSH32 0x45524332303A206275726E20616D6F756E7420657863656564732062616C616E PUSH1 0x44 DUP3 ADD MSTORE PUSH2 0x6365 PUSH1 0xF0 SHL PUSH1 0x64 DUP3 ADD MSTORE PUSH1 0x84 ADD PUSH2 0x60C JUMP JUMPDEST PUSH1 0x1 PUSH1 0x1 PUSH1 0xA0 SHL SUB DUP4 AND PUSH1 0x0 DUP2 DUP2 MSTORE PUSH1 0x20 DUP2 DUP2 MSTORE PUSH1 0x40 DUP1 DUP4 KECCAK256 DUP7 DUP7 SUB SWAP1 SSTORE PUSH1 0x2 DUP1 SLOAD DUP8 SWAP1 SUB SWAP1 SSTORE MLOAD DUP6 DUP2 MSTORE SWAP2 SWAP3 SWAP2 PUSH32 0xDDF252AD1BE2C89B69C2B068FC378DAA952BA7F163C4A11628F55A4DF523B3EF SWAP2 ADD PUSH2 0xDAF JUMP JUMPDEST PUSH1 0x0 PUSH1 0x20 DUP1 DUP4 MSTORE DUP4 MLOAD DUP1 DUP3 DUP6 ADD MSTORE PUSH1 0x0 JUMPDEST DUP2 DUP2 LT ISZERO PUSH2 0x107E JUMPI DUP6 DUP2 ADD DUP4 ADD MLOAD DUP6 DUP3 ADD PUSH1 0x40 ADD MSTORE DUP3 ADD PUSH2 0x1062 JUMP JUMPDEST POP PUSH1 0x0 PUSH1 0x40 DUP3 DUP7 ADD ADD MSTORE PUSH1 0x40 PUSH1 0x1F NOT PUSH1 0x1F DUP4 ADD AND DUP6 ADD ADD SWAP3 POP POP POP SWAP3 SWAP2 POP POP JUMP JUMPDEST DUP1 CALLDATALOAD PUSH1 0x1 PUSH1 0x1 PUSH1 0xA0 SHL SUB DUP2 AND DUP2 EQ PUSH2 0x10B6 JUMPI PUSH1 0x0 DUP1 REVERT JUMPDEST SWAP2 SWAP1 POP JUMP JUMPDEST PUSH1 0x0 DUP1 PUSH1 0x40 DUP4 DUP6 SUB SLT ISZERO PUSH2 0x10CE JUMPI PUSH1 0x0 DUP1 REVERT JUMPDEST PUSH2 0x10D7 DUP4 PUSH2 0x109F JUMP JUMPDEST SWAP5 PUSH1 0x20 SWAP4 SWAP1 SWAP4 ADD CALLDATALOAD SWAP4 POP POP POP JUMP JUMPDEST PUSH1 0x0 PUSH1 0x20 DUP3 DUP5 SUB SLT ISZERO PUSH2 0x10F7 JUMPI PUSH1 0x0 DUP1 REVERT JUMPDEST PUSH2 0xBC2 DUP3 PUSH2 0x109F JUMP JUMPDEST PUSH1 0x0 DUP1 PUSH1 0x0 PUSH1 0x60 DUP5 DUP7 SUB SLT ISZERO PUSH2 0x1115 JUMPI PUSH1 0x0 DUP1 REVERT JUMPDEST PUSH2 0x111E DUP5 PUSH2 0x109F JUMP JUMPDEST SWAP3 POP PUSH2 0x112C PUSH1 0x20 DUP6 ADD PUSH2 0x109F JUMP JUMPDEST SWAP2 POP PUSH1 0x40 DUP5 ADD CALLDATALOAD SWAP1 POP SWAP3 POP SWAP3 POP SWAP3 JUMP JUMPDEST PUSH1 0x0 DUP1 PUSH1 0x40 DUP4 DUP6 SUB SLT ISZERO PUSH2 0x114F JUMPI PUSH1 0x0 DUP1 REVERT JUMPDEST PUSH2 0x1158 DUP4 PUSH2 0x109F JUMP JUMPDEST SWAP2 POP PUSH2 0x1166 PUSH1 0x20 DUP5 ADD PUSH2 0x109F JUMP JUMPDEST SWAP1 POP SWAP3 POP SWAP3 SWAP1 POP JUMP JUMPDEST PUSH1 0x0 DUP1 PUSH1 0x40 DUP4 DUP6 SUB SLT ISZERO PUSH2 0x1182 JUMPI PUSH1 0x0 DUP1 REVERT JUMPDEST PUSH2 0x118B DUP4 PUSH2 0x109F JUMP JUMPDEST SWAP2 POP PUSH1 0x20 DUP4 ADD CALLDATALOAD PUSH4 0xFFFFFFFF DUP2 AND DUP2 EQ PUSH2 0x11A4 JUMPI PUSH1 0x0 DUP1 REVERT JUMPDEST DUP1 SWAP2 POP POP SWAP3 POP SWAP3 SWAP1 POP JUMP JUMPDEST PUSH1 0x1 DUP2 DUP2 SHR SWAP1 DUP3 AND DUP1 PUSH2 0x11C3 JUMPI PUSH1 0x7F DUP3 AND SWAP2 POP JUMPDEST PUSH1 0x20 DUP3 LT DUP2 SUB PUSH2 0x11E3 JUMPI PUSH4 0x4E487B71 PUSH1 0xE0 SHL PUSH1 0x0 MSTORE PUSH1 0x22 PUSH1 0x4 MSTORE PUSH1 0x24 PUSH1 0x0 REVERT JUMPDEST POP SWAP2 SWAP1 POP JUMP JUMPDEST PUSH1 0x20 DUP1 DUP3 MSTORE PUSH1 0x12 SWAP1 DUP3 ADD MSTORE PUSH18 0x737461747573206973206E6F742061626C65 PUSH1 0x70 SHL PUSH1 0x40 DUP3 ADD MSTORE PUSH1 0x60 ADD SWAP1 JUMP JUMPDEST PUSH4 0x4E487B71 PUSH1 0xE0 SHL PUSH1 0x0 MSTORE PUSH1 0x11 PUSH1 0x4 MSTORE PUSH1 0x24 PUSH1 0x0 REVERT JUMPDEST DUP1 DUP3 ADD DUP1 DUP3 GT ISZERO PUSH2 0x5AF JUMPI PUSH2 0x5AF PUSH2 0x1215 JUMP JUMPDEST PUSH4 0xFFFFFFFF DUP3 DUP2 AND DUP3 DUP3 AND SUB SWAP1 DUP1 DUP3 GT ISZERO PUSH2 0x125B JUMPI PUSH2 0x125B PUSH2 0x1215 JUMP JUMPDEST POP SWAP3 SWAP2 POP POP JUMP JUMPDEST PUSH1 0x0 PUSH4 0xFFFFFFFF DUP1 DUP5 AND DUP1 PUSH2 0x1287 JUMPI PUSH4 0x4E487B71 PUSH1 0xE0 SHL PUSH1 0x0 MSTORE PUSH1 0x12 PUSH1 0x4 MSTORE PUSH1 0x24 PUSH1 0x0 REVERT JUMPDEST SWAP3 AND SWAP2 SWAP1 SWAP2 DIV SWAP3 SWAP2 POP POP JUMP INVALID LOG2 PUSH5 0x6970667358 0x22 SLT KECCAK256 CALLCODE 0xAD PUSH18 0x9E26E0FF0F01A8C9A0AF4E0C2C00F41A037A 0xBB DUP6 SHR PUSH28 0x6FBC37C6AAB9DA64736F6C6343000811003300000000000000000000 "
				},
				"gasEstimates": {
					"creation": {
						"codeDepositCost": "961800",
						"executionCost": "infinite",
						"totalCost": "infinite"
					},
					"external": {
						"LockAddress()": "2448",
						"admin()": "2447",
						"allowance(address,address)": "infinite",
						"approve(address,uint256)": "24697",
						"balanceOf(address)": "2629",
						"burn(address,uint256)": "57362",
						"checkpoints(address,uint32)": "2806",
						"decimals()": "223",
						"decreaseAllowance(address,uint256)": "27040",
						"fireSeed()": "2427",
						"fireSoul()": "2383",
						"getCurrentVotes(address)": "infinite",
						"getPriorVotes(address,uint256)": "infinite",
						"increaseAllowance(address,uint256)": "infinite",
						"mint(address,uint256)": "57347",
						"minter()": "2406",
						"name()": "infinite",
						"numCheckpoints(address)": "2601",
						"owner()": "2443",
						"passPort()": "2382",
						"renounceOwnership()": "infinite",
						"setContractStatus()": "26671",
						"setFireSeed(address)": "26780",
						"setFireSoul(address)": "26846",
						"setMintExternalAddress(address)": "26802",
						"setPassPort(address)": "26803",
						"status()": "2417",
						"symbol()": "infinite",
						"totalSupply()": "2394",
						"transfer(address,uint256)": "2717",
						"transferFrom(address,address,uint256)": "infinite",
						"transferOwnership(address)": "28424"
					},
					"internal": {
						"_addDelegates(address,uint96)": "infinite",
						"_devDelegates(address,uint96)": "infinite",
						"_transferErc20(address,address,uint256)": "infinite",
						"_writeCheckpoint(address,uint32,uint96,uint96)": "infinite",
						"add96(uint96,uint96,string memory)": "infinite",
						"safe32(uint256,string memory)": "infinite",
						"safe96(uint256,string memory)": "infinite",
						"sub96(uint96,uint96,string memory)": "infinite"
					}
				},
				"methodIdentifiers": {
					"LockAddress()": "70d8d374",
					"admin()": "f851a440",
					"allowance(address,address)": "dd62ed3e",
					"approve(address,uint256)": "095ea7b3",
					"balanceOf(address)": "70a08231",
					"burn(address,uint256)": "9dc29fac",
					"checkpoints(address,uint32)": "f1127ed8",
					"decimals()": "313ce567",
					"decreaseAllowance(address,uint256)": "a457c2d7",
					"fireSeed()": "78cb7539",
					"fireSoul()": "1a5ef71c",
					"getCurrentVotes(address)": "b4b5ea57",
					"getPriorVotes(address,uint256)": "782d6fe1",
					"increaseAllowance(address,uint256)": "39509351",
					"mint(address,uint256)": "40c10f19",
					"minter()": "07546172",
					"name()": "06fdde03",
					"numCheckpoints(address)": "6fcfff45",
					"owner()": "8da5cb5b",
					"passPort()": "ab2429c8",
					"renounceOwnership()": "715018a6",
					"setContractStatus()": "3e72aeae",
					"setFireSeed(address)": "477dfeb8",
					"setFireSoul(address)": "cc7ef800",
					"setMintExternalAddress(address)": "abace813",
					"setPassPort(address)": "1e9d9782",
					"status()": "200d2ed2",
					"symbol()": "95d89b41",
					"totalSupply()": "18160ddd",
					"transfer(address,uint256)": "a9059cbb",
					"transferFrom(address,address,uint256)": "23b872dd",
					"transferOwnership(address)": "f2fde38b"
				}
			},
			"storageLayout": {
				"storage": [
					{
						"astId": 128,
						"contract": "contracts/erc20/SBT-007.sol:FDSBT007",
						"label": "_balances",
						"offset": 0,
						"slot": "0",
						"type": "t_mapping(t_address,t_uint256)"
					},
					{
						"astId": 134,
						"contract": "contracts/erc20/SBT-007.sol:FDSBT007",
						"label": "_allowances",
						"offset": 0,
						"slot": "1",
						"type": "t_mapping(t_address,t_mapping(t_address,t_uint256))"
					},
					{
						"astId": 136,
						"contract": "contracts/erc20/SBT-007.sol:FDSBT007",
						"label": "_totalSupply",
						"offset": 0,
						"slot": "2",
						"type": "t_uint256"
					},
					{
						"astId": 138,
						"contract": "contracts/erc20/SBT-007.sol:FDSBT007",
						"label": "_name",
						"offset": 0,
						"slot": "3",
						"type": "t_string_storage"
					},
					{
						"astId": 140,
						"contract": "contracts/erc20/SBT-007.sol:FDSBT007",
						"label": "_symbol",
						"offset": 0,
						"slot": "4",
						"type": "t_string_storage"
					},
					{
						"astId": 7,
						"contract": "contracts/erc20/SBT-007.sol:FDSBT007",
						"label": "_owner",
						"offset": 0,
						"slot": "5",
						"type": "t_address"
					},
					{
						"astId": 1488,
						"contract": "contracts/erc20/SBT-007.sol:FDSBT007",
						"label": "status",
						"offset": 20,
						"slot": "5",
						"type": "t_bool"
					},
					{
						"astId": 1490,
						"contract": "contracts/erc20/SBT-007.sol:FDSBT007",
						"label": "minter",
						"offset": 0,
						"slot": "6",
						"type": "t_address"
					},
					{
						"astId": 1492,
						"contract": "contracts/erc20/SBT-007.sol:FDSBT007",
						"label": "admin",
						"offset": 0,
						"slot": "7",
						"type": "t_address"
					},
					{
						"astId": 1494,
						"contract": "contracts/erc20/SBT-007.sol:FDSBT007",
						"label": "LockAddress",
						"offset": 0,
						"slot": "8",
						"type": "t_address"
					},
					{
						"astId": 1496,
						"contract": "contracts/erc20/SBT-007.sol:FDSBT007",
						"label": "fireSoul",
						"offset": 0,
						"slot": "9",
						"type": "t_address"
					},
					{
						"astId": 1498,
						"contract": "contracts/erc20/SBT-007.sol:FDSBT007",
						"label": "fireSeed",
						"offset": 0,
						"slot": "10",
						"type": "t_address"
					},
					{
						"astId": 1500,
						"contract": "contracts/erc20/SBT-007.sol:FDSBT007",
						"label": "passPort",
						"offset": 0,
						"slot": "11",
						"type": "t_address"
					},
					{
						"astId": 1507,
						"contract": "contracts/erc20/SBT-007.sol:FDSBT007",
						"label": "checkpoints",
						"offset": 0,
						"slot": "12",
						"type": "t_mapping(t_address,t_mapping(t_uint32,t_struct(Checkpoint)1485_storage))"
					},
					{
						"astId": 1511,
						"contract": "contracts/erc20/SBT-007.sol:FDSBT007",
						"label": "numCheckpoints",
						"offset": 0,
						"slot": "13",
						"type": "t_mapping(t_address,t_uint32)"
					}
				],
				"types": {
					"t_address": {
						"encoding": "inplace",
						"label": "address",
						"numberOfBytes": "20"
					},
					"t_bool": {
						"encoding": "inplace",
						"label": "bool",
						"numberOfBytes": "1"
					},
					"t_mapping(t_address,t_mapping(t_address,t_uint256))": {
						"encoding": "mapping",
						"key": "t_address",
						"label": "mapping(address => mapping(address => uint256))",
						"numberOfBytes": "32",
						"value": "t_mapping(t_address,t_uint256)"
					},
					"t_mapping(t_address,t_mapping(t_uint32,t_struct(Checkpoint)1485_storage))": {
						"encoding": "mapping",
						"key": "t_address",
						"label": "mapping(address => mapping(uint32 => struct FDSBT007.Checkpoint))",
						"numberOfBytes": "32",
						"value": "t_mapping(t_uint32,t_struct(Checkpoint)1485_storage)"
					},
					"t_mapping(t_address,t_uint256)": {
						"encoding": "mapping",
						"key": "t_address",
						"label": "mapping(address => uint256)",
						"numberOfBytes": "32",
						"value": "t_uint256"
					},
					"t_mapping(t_address,t_uint32)": {
						"encoding": "mapping",
						"key": "t_address",
						"label": "mapping(address => uint32)",
						"numberOfBytes": "32",
						"value": "t_uint32"
					},
					"t_mapping(t_uint32,t_struct(Checkpoint)1485_storage)": {
						"encoding": "mapping",
						"key": "t_uint32",
						"label": "mapping(uint32 => struct FDSBT007.Checkpoint)",
						"numberOfBytes": "32",
						"value": "t_struct(Checkpoint)1485_storage"
					},
					"t_string_storage": {
						"encoding": "bytes",
						"label": "string",
						"numberOfBytes": "32"
					},
					"t_struct(Checkpoint)1485_storage": {
						"encoding": "inplace",
						"label": "struct FDSBT007.Checkpoint",
						"members": [
							{
								"astId": 1482,
								"contract": "contracts/erc20/SBT-007.sol:FDSBT007",
								"label": "fromBlock",
								"offset": 0,
								"slot": "0",
								"type": "t_uint32"
							},
							{
								"astId": 1484,
								"contract": "contracts/erc20/SBT-007.sol:FDSBT007",
								"label": "votes",
								"offset": 4,
								"slot": "0",
								"type": "t_uint96"
							}
						],
						"numberOfBytes": "32"
					},
					"t_uint256": {
						"encoding": "inplace",
						"label": "uint256",
						"numberOfBytes": "32"
					},
					"t_uint32": {
						"encoding": "inplace",
						"label": "uint32",
						"numberOfBytes": "4"
					},
					"t_uint96": {
						"encoding": "inplace",
						"label": "uint96",
						"numberOfBytes": "12"
					}
				}
			},
			"userdoc": {
				"kind": "user",
				"methods": {},
				"version": 1
			}
		}
	}
}