{
	"data": {
		"bytecode": {
			"linkReferences": {},
			"object": "60806040523480156200001157600080fd5b506040516200553d3803806200553d8339810160408190526200003491620000f5565b6040805180820190915260048152631d195cdd60e21b60208201526200005a8162000091565b506200006633620000a3565b6005600d55600480546001600160a01b0319166001600160a01b039290921691909117905562000298565b60026200009f8282620001cc565b5050565b600380546001600160a01b038381166001600160a01b0319831681179093556040519116919082907f8be0079c531659141344cd1fd0a4f28419497f9722a3daafe3b4186f6b6457e090600090a35050565b6000602082840312156200010857600080fd5b81516001600160a01b03811681146200012057600080fd5b9392505050565b634e487b7160e01b600052604160045260246000fd5b600181811c908216806200015257607f821691505b6020821081036200017357634e487b7160e01b600052602260045260246000fd5b50919050565b601f821115620001c757600081815260208120601f850160051c81016020861015620001a25750805b601f850160051c820191505b81811015620001c357828155600101620001ae565b5050505b505050565b81516001600160401b03811115620001e857620001e862000127565b6200020081620001f984546200013d565b8462000179565b602080601f8311600181146200023857600084156200021f5750858301515b600019600386901b1c1916600185901b178555620001c3565b600085815260208120601f198616915b82811015620002695788860151825594840194600190910190840162000248565b5085821015620002885787850151600019600388901b60f8161c191681555b5050505050600190811b01905550565b61529580620002a86000396000f3fe608060405260043610620004355760003560e01c80638c063a021162000233578063c6ee20d2116200012f578063eb57e5d411620000b9578063f242432a1162000084578063f242432a1462000e61578063f2fde38b1462000e80578063f3a2937e1462000ea5578063f3e0fb381462000ebd578063fa4c15e11462000ee257600080fd5b8063eb57e5d41462000dc1578063ef9d52f11462000de6578063f056bac41462000e0b578063f22426741462000e3057600080fd5b8063e458a88811620000fa578063e458a8881462000cf6578063e8a0c74e1462000d1b578063e8fef15d1462000d40578063e985e9c51462000d7457600080fd5b8063c6ee20d21462000c62578063c9344c331462000c85578063d431b1ac1462000cb9578063de97c2621462000cd157600080fd5b80639904ed8d11620001bd578063b0005ff81162000188578063b0005ff81462000b8f578063b12c249c1462000ba7578063b31698941462000bd8578063b882a0bb1462000bfd578063bb6674741462000c2e57600080fd5b80639904ed8d1462000af7578063a22cb4651462000b19578063a3f9c8cb1462000b3e578063a79481841462000b5557600080fd5b8063932af1ef11620001fe578063932af1ef1462000a43578063954827681462000a8057806397009f601462000aa5578063972091831462000adf57600080fd5b80638c063a02146200099a5780638da5cb5b14620009bf5780639090c0f214620009df578063913e10631462000a0457600080fd5b80633fc196d011620003435780635731248111620002cd578063715018a61162000298578063715018a614620008d9578063721d9a0014620008f157806378cb7539146200093b578063836f038f146200095d578063861faf5f146200098257600080fd5b80635731248114620008585780635803ad37146200087a5780635b4246d4146200089f57806362f3ccba14620008b757600080fd5b80634d64e73a116200030e5780634d64e73a14620007905780634e1273f414620007b557806353340dc314620007e95780635636cfc8146200083357600080fd5b80633fc196d0146200070d5780633fc8cef314620007245780634386b6ec146200074657806347834e0c146200076b57600080fd5b80630e89341c11620003c55780631d20920c11620003905780631d20920c146200067a57806329fd8201146200069f5780632eb2c2d614620006c457806339a9880414620006e957600080fd5b80630e89341c14620005ac578063149a75d614620005e057806315bb910814620006335780631a5ef71c146200065857600080fd5b80630a4af49c11620004065780630a4af49c14620004f45780630ba360a914620005285780630c40fdfd14620005635780630dae30db146200059457600080fd5b80626cd200146200043a578062fdd58e146200046157806301ffc9a7146200049957806306dd606014620004cf575b600080fd5b3480156200044757600080fd5b506200045f6200045936600462003d42565b62000f16565b005b3480156200046e57600080fd5b50620004866200048036600462003d79565b62000f25565b6040519081526020015b60405180910390f35b348015620004a657600080fd5b50620004be620004b836600462003dbd565b62000fbf565b604051901515815260200162000490565b348015620004dc57600080fd5b506200045f620004ee36600462003de4565b62001012565b3480156200050157600080fd5b50620004be6200051336600462003d42565b60116020526000908152604090205460ff1681565b3480156200053557600080fd5b506200054d6200054736600462003d42565b6200103e565b6040516200049098979695949392919062003e56565b3480156200057057600080fd5b50620004866200058236600462003de4565b60146020526000908152604090205481565b348015620005a157600080fd5b506200048660085481565b348015620005b957600080fd5b50620005d1620005cb36600462003d42565b620011b1565b60405162000490919062003ec3565b348015620005ed57600080fd5b506200061a620005ff36600462003d42565b6019602052600090815260409020546001600160a01b031681565b6040516001600160a01b03909116815260200162000490565b3480156200064057600080fd5b506200045f6200065236600462003d42565b6200124d565b3480156200066557600080fd5b50600b546200061a906001600160a01b031681565b3480156200068757600080fd5b506200045f6200069936600462003ee7565b6200125c565b348015620006ac57600080fd5b506200045f620006be36600462003de4565b62001291565b348015620006d157600080fd5b506200045f620006e336600462004084565b620012bd565b348015620006f657600080fd5b503360009081526014602052604090205462000486565b6200045f6200071e36600462003d79565b620012f8565b3480156200073157600080fd5b506004546200061a906001600160a01b031681565b3480156200075357600080fd5b506200045f6200076536600462003d42565b62001646565b3480156200077857600080fd5b506200054d6200078a36600462003d42565b620018c3565b3480156200079d57600080fd5b506200061a620007af36600462003de4565b620018fb565b348015620007c257600080fd5b50620007da620007d43660046200413c565b6200197f565b60405162000490919062004253565b348015620007f657600080fd5b506200061a6200080836600462003de4565b6001600160a01b03908116600090815260146020908152604080832054835260199091529020541690565b3480156200084057600080fd5b506200045f6200085236600462003d42565b62001abe565b3480156200086557600080fd5b506009546200061a906001600160a01b031681565b3480156200088757600080fd5b50620004866200089936600462003d42565b62001acd565b348015620008ac57600080fd5b5062000486600d5481565b348015620008c457600080fd5b506005546200061a906001600160a01b031681565b348015620008e657600080fd5b506200045f62001bc4565b348015620008fe57600080fd5b50620004be6200091036600462003de4565b6001600160a01b03166000908152601460209081526040808320548352601190915290205460ff1690565b3480156200094857600080fd5b50600a546200061a906001600160a01b031681565b3480156200096a57600080fd5b506200045f6200097c36600462003de4565b62001bdc565b3480156200098f57600080fd5b506200045f62001c08565b348015620009a757600080fd5b506200045f620009b936600462003de4565b62001d01565b348015620009cc57600080fd5b506003546001600160a01b03166200061a565b348015620009ec57600080fd5b506200045f620009fe36600462003de4565b62001fd6565b34801562000a1157600080fd5b50620004be62000a2336600462004268565b8051602081830181018051601d8252928201919093012091525460ff1681565b34801562000a5057600080fd5b50620004be62000a6236600462003de4565b6001600160a01b031660009081526010602052604090205460ff1690565b34801562000a8d57600080fd5b506200045f62000a9f36600462003de4565b62002002565b34801562000ab257600080fd5b506200061a62000ac436600462003d42565b601b602052600090815260409020546001600160a01b031681565b34801562000aec57600080fd5b506200045f620021c6565b34801562000b0457600080fd5b50600c546200061a906001600160a01b031681565b34801562000b2657600080fd5b506200045f62000b3836600462003ee7565b62002254565b34801562000b4b57600080fd5b50601e5462000486565b34801562000b6257600080fd5b506200061a62000b7436600462003de4565b601a602052600090815260409020546001600160a01b031681565b34801562000b9c57600080fd5b506200048660065481565b34801562000bb457600080fd5b506200048662000bc636600462003d42565b60009081526013602052604090205490565b34801562000be557600080fd5b506200045f62000bf736600462003d42565b62002265565b34801562000c0a57600080fd5b506200048662000c1c36600462003d42565b60156020526000908152604090205481565b34801562000c3b57600080fd5b50620004be62000c4d36600462003de4565b60126020526000908152604090205460ff1681565b34801562000c6f57600080fd5b50600454620004be90600160a01b900460ff1681565b34801562000c9257600080fd5b50620004be62000ca436600462003de4565b600f6020526000908152604090205460ff1681565b34801562000cc657600080fd5b506200045f620027b3565b34801562000cde57600080fd5b506200061a62000cf0366004620042a9565b6200283c565b34801562000d0357600080fd5b506200045f62000d15366004620042cc565b62002875565b34801562000d2857600080fd5b50620005d162000d3a36600462004268565b62002f83565b34801562000d4d57600080fd5b50620004be62000d5f36600462003de4565b60106020526000908152604090205460ff1681565b34801562000d8157600080fd5b50620004be62000d933660046200432d565b6001600160a01b03918216600090815260016020908152604080832093909416825291909152205460ff1690565b34801562000dce57600080fd5b506200045f62000de036600462003de4565b62003030565b34801562000df357600080fd5b50620005d162000e0536600462003d42565b6200305c565b34801562000e1857600080fd5b506200054d62000e2a36600462003de4565b62003077565b34801562000e3d57600080fd5b506200048662000e4f36600462003de4565b60186020526000908152604090205481565b34801562000e6e57600080fd5b506200045f620006e336600462004365565b34801562000e8d57600080fd5b506200045f62000e9f36600462003de4565b6200309b565b34801562000eb257600080fd5b506200048660075481565b34801562000eca57600080fd5b506200045f62000edc36600462003d79565b62003117565b34801562000eef57600080fd5b5062000f0762000f0136600462003de4565b620031ac565b604051620004909190620043d2565b62000f20620033b2565b600d55565b60006001600160a01b03831662000f965760405162461bcd60e51b815260206004820152602a60248201527f455243313135353a2061646472657373207a65726f206973206e6f742061207660448201526930b634b21037bbb732b960b11b60648201526084015b60405180910390fd5b506000818152602081815260408083206001600160a01b03861684529091529020545b92915050565b60006001600160e01b03198216636cdb3d1360e11b148062000ff157506001600160e01b031982166303a24d0760e21b145b8062000fb957506301ffc9a760e01b6001600160e01b031983161462000fb9565b6200101c620033b2565b600a80546001600160a01b0319166001600160a01b0392909216919091179055565b60176020526000908152604090208054600182018054919291620010629062004471565b80601f0160208091040260200160405190810160405280929190818152602001828054620010909062004471565b8015620010e15780601f10620010b557610100808354040283529160200191620010e1565b820191906000526020600020905b815481529060010190602001808311620010c357829003601f168201915b5050506002840154600385015460048601546005870154600688015460078901805498996001600160a01b0396871699959850939650919094169392620011289062004471565b80601f0160208091040260200160405190810160405280929190818152602001828054620011569062004471565b8015620011a75780601f106200117b57610100808354040283529160200191620011a7565b820191906000526020600020905b8154815290600101906020018083116200118957829003601f168201915b5050505050905088565b606060028054620011c29062004471565b80601f0160208091040260200160405190810160405280929190818152602001828054620011f09062004471565b8015620012415780601f10620012155761010080835404028352916020019162001241565b820191906000526020600020905b8154815290600101906020018083116200122357829003601f168201915b50505050509050919050565b62001257620033b2565b600855565b62001266620033b2565b6001600160a01b03919091166000908152600f60205260409020805460ff1916911515919091179055565b6200129b620033b2565b600c80546001600160a01b0319166001600160a01b0392909216919091179055565b60405162461bcd60e51b815260206004820152600f60248201526e3737ba103a37903a3930b739b332b960891b604482015260640162000f8d565b6005546001600160a01b03163314620013455760405162461bcd60e51b815260206004820152600e60248201526d31b0b6363130b1b59032b93937b960911b604482015260640162000f8d565b6001600160a01b03821660009081526010602052604090205460ff16620013a05760405162461bcd60e51b815260206004820152600e60248201526d31b0b6363130b1b59032b93937b960911b604482015260640162000f8d565b6000600a600d5483620013b49190620044c3565b620013c09190620044dd565b90506000600a600d54600a620013d7919062004500565b620013e39085620044c3565b620013ef9190620044dd565b6001600160a01b0380861660008181526014602090815260408083205483526019825280832054938352601a90915281205493945090821692909116903490036200146e576004546200144e906001600160a01b0316878487620035ac565b60045462001468906001600160a01b0316878386620035ac565b6200160f565b843414620014b35760405162461bcd60e51b8152602060048201526011602482015270496e76616c6964204554482076616c756560781b604482015260640162000f8d565b6004805460408051630d0e30db60e41b815290516001600160a01b039092169263d0e30db0928992808301926000929182900301818588803b158015620014f957600080fd5b505af11580156200150e573d6000803e3d6000fd5b50506004805460405163a9059cbb60e01b81526001600160a01b0388811693820193909352602481018a90529116935063a9059cbb925060440190506020604051808303816000875af11580156200156a573d6000803e3d6000fd5b505050506040513d601f19601f8201168201806040525081019062001590919062004516565b506004805460405163a9059cbb60e01b81526001600160a01b03848116938201939093526024810186905291169063a9059cbb906044016020604051808303816000875af1158015620015e7573d6000803e3d6000fd5b505050506040513d601f19601f820116820180604052508101906200160d919062004516565b505b6001600160a01b038616600090815260186020526040812080548792906200163990849062004536565b9091555050505050505050565b600454600160a01b900460ff1615620016735760405162461bcd60e51b815260040162000f8d906200454c565b3360009081526010602052604090205460ff16620016d45760405162461bcd60e51b815260206004820152601d60248201527f796f7520686176656e2774206a6f696e20616e7920636974796e6f6465000000604482015260640162000f8d565b336000908152601460205260409020548114620017345760405162461bcd60e51b815260206004820152601860248201527f796f75206973206e6f7420636974796e6f646520757365720000000000000000604482015260640162000f8d565b3360005b6000838152601360205260409020548110156200188957600083815260136020526040902080546001600160a01b0384169190839081106200177e576200177e62004575565b6000918252602090912001546001600160a01b031603620018745760008381526013602052604090208054620017b79060019062004500565b81548110620017ca57620017ca62004575565b60009182526020808320909101548583526013909152604090912080546001600160a01b03909216918390811062001806576200180662004575565b600091825260208083209190910180546001600160a01b0319166001600160a01b0394909416939093179092558481526013909152604090208054806200185157620018516200458b565b600082815260209020810160001990810180546001600160a01b03191690550190555b806200188081620045a1565b91505062001738565b5033600081815260146020526040902054620018a891906001620036de565b5050336000908152601060205260409020805460ff19169055565b601e8181548110620018d457600080fd5b60009182526020909120600890910201805460018201805491935090620010629062004471565b600a546000906001600160a01b03163314620019535760405162461bcd60e51b815260206004820152601660248201527510da5d1e539bd9194e881a5b9d985b1a590818d85b1b60521b604482015260640162000f8d565b506001600160a01b039081166000908152601460209081526040808320548352601b9091529020541690565b60608151835114620019e65760405162461bcd60e51b815260206004820152602960248201527f455243313135353a206163636f756e747320616e6420696473206c656e677468604482015268040dad2e6dac2e8c6d60bb1b606482015260840162000f8d565b6000835167ffffffffffffffff81111562001a055762001a0562003f23565b60405190808252806020026020018201604052801562001a2f578160200160208202803683370190505b50905060005b845181101562001ab65762001a8385828151811062001a585762001a5862004575565b602002602001015185838151811062001a755762001a7562004575565b602002602001015162000f25565b82828151811062001a985762001a9862004575565b602090810291909101015262001aae81620045a1565b905062001a35565b509392505050565b62001ac8620033b2565b600755565b60008060005b60008481526013602052604090205481101562001bbd57600c54600085815260136020526040902080546001600160a01b039092169163014ab31391908490811062001b235762001b2362004575565b60009182526020909120015460405160e083901b6001600160e01b03191681526001600160a01b039091166004820152602401602060405180830381865afa15801562001b74573d6000803e3d6000fd5b505050506040513d601f19601f8201168201806040525081019062001b9a9190620045bd565b62001ba6908362004536565b91508062001bb481620045a1565b91505062001ad3565b5092915050565b62001bce620033b2565b62001bda600062003867565b565b62001be6620033b2565b600980546001600160a01b0319166001600160a01b0392909216919091179055565b62001c12620033b2565b600480546040516370a0823160e01b815230928101929092526001600160a01b03169063a9059cbb90339083906370a0823190602401602060405180830381865afa15801562001c66573d6000803e3d6000fd5b505050506040513d601f19601f8201168201806040525081019062001c8c9190620045bd565b6040516001600160e01b031960e085901b1681526001600160a01b03909216600483015260248201526044016020604051808303816000875af115801562001cd8573d6000803e3d6000fd5b505050506040513d601f19601f8201168201806040525081019062001cfe919062004516565b50565b600454600160a01b900460ff161562001d585760405162461bcd60e51b8152602060048201526018602482015277436f6e7472616374207374617475732069732066616c736560401b604482015260640162000f8d565b600b54604051631238e33160e31b81523360048201526001600160a01b03909116906391c7198890602401602060405180830381865afa15801562001da1573d6000803e3d6000fd5b505050506040513d601f19601f8201168201806040525081019062001dc7919062004516565b62001e305760405162461bcd60e51b815260206004820152603260248201527f596f7520646f6e27742068617665204649442c20706c65617365206275726e20604482015271666972657365656420746f2063726561746560701b606482015260840162000f8d565b3360009081526012602052604090205460ff1662001e895760405162461bcd60e51b81526020600482015260156024820152742cb7ba9030b932903737ba10309031b932b0ba37b960591b604482015260640162000f8d565b33600090815260146020526040808220546001600160a01b0384168352912054811462001f0f5760405162461bcd60e51b815260206004820152602d60248201527f546865206164647265737320646f6573206e6f742062656c6f6e6720746f207960448201526c6f75722063697479206e6f646560981b606482015260840162000f8d565b600081815260196020908152604080832080546001600160a01b038781166001600160a01b0319928316811790935582865260128552838620805460ff1916600117905533808752601a9095528386208054848852858820805490941690831617909255948490525491516318b3c67b60e11b815260048101939093526024830152909116906331678cf690604401600060405180830381600087803b15801562001fb957600080fd5b505af115801562001fce573d6000803e3d6000fd5b505050505050565b62001fe0620033b2565b600b80546001600160a01b0319166001600160a01b0392909216919091179055565b600454600160a01b900460ff1615620020555760405162461bcd60e51b8152602060048201526014602482015273436f6e747261637420697320696e61637469766560601b604482015260640162000f8d565b3360009081526012602052604090205460ff16620020ae5760405162461bcd60e51b81526020600482015260156024820152742cb7ba9030b932903737ba10309031b932b0ba37b960591b604482015260640162000f8d565b33600090815260146020908152604080832054835260199091529020546001600160a01b0316620021225760405162461bcd60e51b815260206004820152601860248201527f41646d696e206164647265737320697320696e76616c69640000000000000000604482015260640162000f8d565b3360008181526014602090815260408083205480845260199092529091205490916001600160a01b0390911614620021965760405162461bcd60e51b81526020600482015260166024820152752cb7ba9030b932903737ba103737b2329030b236b4b760511b604482015260640162000f8d565b620021a482826001620036de565b506001600160a01b03166000908152601060205260409020805460ff19169055565b600454600160a01b900460ff1615620021f35760405162461bcd60e51b815260040162000f8d906200454c565b6008546200220a90670de0b6b3a7640000620044c3565b33600090815260146020526040902054620022259062001acd565b1062001bda5733600090815260146020908152604080832054835260119091529020805460ff19166001179055565b62002261338383620038b9565b5050565b600454600160a01b900460ff1615620022925760405162461bcd60e51b815260040162000f8d906200454c565b600b54604051631238e33160e31b81523360048201526001600160a01b03909116906391c7198890602401602060405180830381865afa158015620022db573d6000803e3d6000fd5b505050506040513d601f19601f8201168201806040525081019062002301919062004516565b806200231c5750336000908152600f602052604090205460ff165b6200237e5760405162461bcd60e51b815260206004820152602b60248201527f796f7520686176656e2774204649442c706c7a206275726e206669726573656560448201526a6420746f2063726561746560a81b606482015260840162000f8d565b3360009081526012602052604090205460ff1615620023e05760405162461bcd60e51b815260206004820152601960248201527f796f752061726520616c726561647920612063726561746f7200000000000000604482015260640162000f8d565b3360009081526010602052604090205460ff1615620024425760405162461bcd60e51b815260206004820152601f60248201527f796f752061726520616c7265616479206a6f696e206120636974794e6f646500604482015260640162000f8d565b6006548110620024875760405162461bcd60e51b815260206004820152600f60248201526e3cb7ba9034b7383aba1032b93937b960891b604482015260640162000f8d565b60008181526013602090815260408083208054600181810183559185528385200180546001600160a01b0319163390811790915584526014835281842085905584845260198352818420546001600160a01b0316845260169092528220018054620024f29062004471565b80601f0160208091040260200160405190810160405280929190818152602001828054620025209062004471565b8015620025715780601f10620025455761010080835404028352916020019162002571565b820191906000526020600020905b8154815290600101906020018083116200255357829003601f168201915b5050506000858152601960209081526040808320546001600160a01b039081168085526016845282852060030154601a8552838620548451610100810186528c81528087018b905280860184905260608101839052426080820152931660a084018190528b8752601386528487205460c08501528b8752601c909552928520805498995092979096509294509160e0830191906200260f9062004471565b80601f01602080910402602001604051908101604052809291908181526020018280546200263d9062004471565b80156200268e5780601f1062002662576101008083540402835291602001916200268e565b820191906000526020600020905b8154815290600101906020018083116200267057829003601f168201915b5050509190925250506000878152601360209081526040808320546001600160a01b0388168452601683529281902060060192909255815180830190925260048252631d195cdd60e21b90820152909150620026f190339088906001906200399b565b336000908152601660209081526040909120825181559082015182919060018201906200271f908262004626565b5060408201516002820180546001600160a01b039283166001600160a01b031991821617909155606084015160038401556080840151600484015560a084015160058401805491909316911617905560c0820151600682015560e082015160078201906200278e908262004626565b5050336000908152601060205260409020805460ff1916600117905550505050505050565b6009546001600160a01b031633146200281b5760405162461bcd60e51b8152602060048201526024808201527f63616c6c6261636b2061646472657373206973206e6f742070617573654164646044820152637265737360e01b606482015260840162000f8d565b6004805460ff60a01b198116600160a01b9182900460ff1615909102179055565b601360205281600052604060002081815481106200285957600080fd5b6000918252602090912001546001600160a01b03169150829050565b601d82604051620028879190620046f3565b9081526040519081900360200190205460ff1615620028dd5760405162461bcd60e51b815260206004820152601160248201527018da5d1e539bd919481a5cc8195e1a5cdd607a1b604482015260640162000f8d565b3360009081526010602052604090205460ff1615620029345760405162461bcd60e51b81526020600482015260126024820152711e5bdd48185b1c9958591e481a9bda5b995960721b604482015260640162000f8d565b600454600160a01b900460ff16156200298b5760405162461bcd60e51b8152602060048201526018602482015277436f6e7472616374207374617475732069732066616c736560401b604482015260640162000f8d565b600b54604051631238e33160e31b81523360048201526001600160a01b03909116906391c7198890602401602060405180830381865afa158015620029d4573d6000803e3d6000fd5b505050506040513d601f19601f82011682018060405250810190620029fa919062004516565b8062002a155750336000908152600f602052604090205460ff165b62002a7b5760405162461bcd60e51b815260206004820152602f60248201527f596f7520686176656e2774204649442c20706c65617365206275726e2066697260448201526e657365656420746f2063726561746560881b606482015260840162000f8d565b60075462002a9290670de0b6b3a7640000620044c3565b600c5460405163014ab31360e01b81523360048201526001600160a01b039091169063014ab31390602401602060405180830381865afa15801562002adb573d6000803e3d6000fd5b505050506040513d601f19601f8201168201806040525081019062002b019190620045bd565b118062002b1d5750336000908152600f602052604090205460ff165b62002b585760405162461bcd60e51b815260206004820152600a6024820152690dcdee840cadcdeeaced60b31b604482015260640162000f8d565b6000333060405162002b6a9062003d34565b6001600160a01b03928316815291166020820152604001604051809103906000f08015801562002b9e573d6000803e3d6000fd5b5090506000600654905062002bd333826001604051806040016040528060048152602001631d195cdd60e21b8152506200399b565b82600e8560405162002be69190620046f3565b9081526020016040518091039020908162002c02919062004626565b506000818152601c6020526040902062002c1d848262004626565b50336000818152601260209081526040808320805460ff191660019081179091558584526013808452828520805480840182558187528587200180546001600160a01b0319908116891790915587875260148652848720899055888752601986528487208054821689179055878752601a865284872080546001600160a01b038c169083168117909155898852601b8752858820805490921681179091558451610100810186528981528087018d8152958101989098524260608901819052608089015260a08801529352915460c085015260e08401879052601e80549283018155909252825160089091027f50bb669a95c7b50b7e8a6f09454034b2b14cf2b85c730dca9a539ca82cb6e3508101918255915183927f50bb669a95c7b50b7e8a6f09454034b2b14cf2b85c730dca9a539ca82cb6e351019062002d62908262004626565b5060408201516002820180546001600160a01b039283166001600160a01b031991821617909155606084015160038401556080840151600484015560a084015160058401805491909316911617905560c0820151600682015560e0820151600782019062002dd1908262004626565b50503360009081526016602090815260409091208351815590830151839250600182019062002e01908262004626565b5060408201516002820180546001600160a01b039283166001600160a01b031991821617909155606084015160038401556080840151600484015560a084015160058401805491909316911617905560c0820151600682015560e0820151600782019062002e70908262004626565b50505060008281526017602090815260409091208251815590820151829190600182019062002ea0908262004626565b5060408201516002820180546001600160a01b039283166001600160a01b031991821617909155606084015160038401556080840151600484015560a084015160058401805491909316911617905560c0820151600682015560e0820151600782019062002f0f908262004626565b50503360009081526010602052604090819020805460ff191660019081179091559051909150601d9062002f45908890620046f3565b908152604051908190036020019020805491151560ff199092169190911790556006805490600062002f7783620045a1565b91905055505050505050565b8051602081830181018051600e825292820191909301209152805462002fa99062004471565b80601f016020809104026020016040519081016040528092919081815260200182805462002fd79062004471565b8015620030285780601f1062002ffc5761010080835404028352916020019162003028565b820191906000526020600020905b8154815290600101906020018083116200300a57829003601f168201915b505050505081565b6200303a620033b2565b600580546001600160a01b0319166001600160a01b0392909216919091179055565b601c602052600090815260409020805462002fa99062004471565b60166020526000908152604090208054600182018054919291620010629062004471565b620030a5620033b2565b6001600160a01b0381166200310c5760405162461bcd60e51b815260206004820152602660248201527f4f776e61626c653a206e6577206f776e657220697320746865207a65726f206160448201526564647265737360d01b606482015260840162000f8d565b62001cfe8162003867565b600a546001600160a01b031633146200316c5760405162461bcd60e51b815260206004820152601660248201527510da5d1e539bd9194e881a5b9d985b1a590818d85b1b60521b604482015260640162000f8d565b6001600160a01b0382166000908152601460209081526040808320548352601590915281208054839290620031a390849062004536565b90915550505050565b62003207604051806101000160405280600081526020016060815260200160006001600160a01b03168152602001600081526020016000815260200160006001600160a01b0316815260200160008152602001606081525090565b6001600160a01b03821660009081526016602090815260409182902082516101008101909352805483526001810180549192840191620032479062004471565b80601f0160208091040260200160405190810160405280929190818152602001828054620032759062004471565b8015620032c65780601f106200329a57610100808354040283529160200191620032c6565b820191906000526020600020905b815481529060010190602001808311620032a857829003601f168201915b505050918352505060028201546001600160a01b03908116602083015260038301546040830152600483015460608301526005830154166080820152600682015460a082015260078201805460c090920191620033239062004471565b80601f0160208091040260200160405190810160405280929190818152602001828054620033519062004471565b8015620033a25780601f106200337657610100808354040283529160200191620033a2565b820191906000526020600020905b8154815290600101906020018083116200338457829003601f168201915b5050505050815250509050919050565b6003546001600160a01b0316331462001bda5760405162461bcd60e51b815260206004820181905260248201527f4f776e61626c653a2063616c6c6572206973206e6f7420746865206f776e6572604482015260640162000f8d565b8451811015620035425760008582815181106200342f576200342f62004575565b60200260200101519050600085838151811062003450576200345062004575565b602090810291909101810151600084815280835260408082206001600160a01b038e168352909352919091205490915081811015620034e55760405162461bcd60e51b815260206004820152602a60248201527f455243313135353a20696e73756666696369656e742062616c616e636520666f60448201526939103a3930b739b332b960b11b606482015260840162000f8d565b6000838152602081815260408083206001600160a01b038e8116855292528083208585039055908b168252812080548492906200352490849062004536565b92505081905550505050806200353a90620045a1565b90506200340e565b50846001600160a01b0316866001600160a01b0316826001600160a01b03167f4a39dc06d4c0dbc64b70af90fd698a233a518aa5d07e595d983b8c0526c8f7fb87876040516200359492919062004711565b60405180910390a462001fce81878787878762003ab0565b604080516001600160a01b0385811660248301528481166044830152606480830185905283518084039091018152608490920183526020820180516001600160e01b03166323b872dd60e01b1790529151600092839290881691620036129190620046f3565b6000604051808303816000865af19150503d806000811462003651576040519150601f19603f3d011682016040523d82523d6000602084013e62003656565b606091505b5091509150818015620036845750805115806200368457508080602001905181019062003684919062004516565b62001fce5760405162461bcd60e51b8152602060048201526024808201527f5472616e7366657248656c7065723a205452414e534645525f46524f4d5f46416044820152631253115160e21b606482015260840162000f8d565b6001600160a01b038316620037425760405162461bcd60e51b815260206004820152602360248201527f455243313135353a206275726e2066726f6d20746865207a65726f206164647260448201526265737360e81b606482015260840162000f8d565b336000620037508462003c1f565b905060006200375f8462003c1f565b60408051602080820183526000918290528882528181528282206001600160a01b038b1683529052205490915084811015620037ea5760405162461bcd60e51b8152602060048201526024808201527f455243313135353a206275726e20616d6f756e7420657863656564732062616c604482015263616e636560e01b606482015260840162000f8d565b6000868152602081815260408083206001600160a01b038b81168086529184528285208a8703905582518b81529384018a90529092908816917fc3d58168c5ae7397731d063d5bbf3d657854427343f4c083240f7aacaa2d0f62910160405180910390a46040805160208101909152600090525b50505050505050565b600380546001600160a01b038381166001600160a01b0319831681179093556040519116919082907f8be0079c531659141344cd1fd0a4f28419497f9722a3daafe3b4186f6b6457e090600090a35050565b816001600160a01b0316836001600160a01b0316036200392e5760405162461bcd60e51b815260206004820152602960248201527f455243313135353a2073657474696e6720617070726f76616c20737461747573604482015268103337b91039b2b63360b91b606482015260840162000f8d565b6001600160a01b03838116600081815260016020908152604080832094871680845294825291829020805460ff191686151590811790915591519182527f17307eab39ab6107e8899845ad3d59bd9653f200f220920489ca2b5937696c31910160405180910390a3505050565b6001600160a01b038416620039fd5760405162461bcd60e51b815260206004820152602160248201527f455243313135353a206d696e7420746f20746865207a65726f206164647265736044820152607360f81b606482015260840162000f8d565b33600062003a0b8562003c1f565b9050600062003a1a8562003c1f565b90506000868152602081815260408083206001600160a01b038b1684529091528120805487929062003a4e90849062004536565b909155505060408051878152602081018790526001600160a01b03808a1692600092918716917fc3d58168c5ae7397731d063d5bbf3d657854427343f4c083240f7aacaa2d0f62910160405180910390a46200385e8360008989898962003c6d565b6001600160a01b0384163b1562001fce5760405163bc197c8160e01b81526001600160a01b0385169063bc197c819062003af7908990899088908890889060040162004743565b6020604051808303816000875af192505050801562003b35575060408051601f3d908101601f1916820190925262003b3291810190620047a7565b60015b62003bec5762003b44620047c7565b806308c379a00362003b84575062003b5b620047e4565b8062003b68575062003b86565b8060405162461bcd60e51b815260040162000f8d919062003ec3565b505b60405162461bcd60e51b815260206004820152603460248201527f455243313135353a207472616e7366657220746f206e6f6e2d455243313135356044820152732932b1b2b4bb32b91034b6b83632b6b2b73a32b960611b606482015260840162000f8d565b6001600160e01b0319811663bc197c8160e01b146200385e5760405162461bcd60e51b815260040162000f8d9062004874565b6040805160018082528183019092526060916000919060208083019080368337019050509050828160008151811062003c5c5762003c5c62004575565b602090810291909101015292915050565b6001600160a01b0384163b1562001fce5760405163f23a6e6160e01b81526001600160a01b0385169063f23a6e619062003cb49089908990889088908890600401620048bc565b6020604051808303816000875af192505050801562003cf2575060408051601f3d908101601f1916820190925262003cef91810190620047a7565b60015b62003d015762003b44620047c7565b6001600160e01b0319811663f23a6e6160e01b146200385e5760405162461bcd60e51b815260040162000f8d9062004874565b61095c806200490483390190565b60006020828403121562003d5557600080fd5b5035919050565b80356001600160a01b038116811462003d7457600080fd5b919050565b6000806040838503121562003d8d57600080fd5b62003d988362003d5c565b946020939093013593505050565b6001600160e01b03198116811462001cfe57600080fd5b60006020828403121562003dd057600080fd5b813562003ddd8162003da6565b9392505050565b60006020828403121562003df757600080fd5b62003ddd8262003d5c565b60005b8381101562003e1f57818101518382015260200162003e05565b50506000910152565b6000815180845262003e4281602086016020860162003e02565b601f01601f19169290920160200192915050565b60006101008a835280602084015262003e728184018b62003e28565b6001600160a01b038a81166040860152606085018a905260808501899052871660a085015260c0840186905283810360e0850152905062003eb4818562003e28565b9b9a5050505050505050505050565b60208152600062003ddd602083018462003e28565b801515811462001cfe57600080fd5b6000806040838503121562003efb57600080fd5b62003f068362003d5c565b9150602083013562003f188162003ed8565b809150509250929050565b634e487b7160e01b600052604160045260246000fd5b601f8201601f1916810167ffffffffffffffff8111828210171562003f625762003f6262003f23565b6040525050565b600067ffffffffffffffff82111562003f865762003f8662003f23565b5060051b60200190565b600082601f83011262003fa257600080fd5b8135602062003fb18262003f69565b60405162003fc0828262003f39565b83815260059390931b850182019282810191508684111562003fe157600080fd5b8286015b8481101562003ffe578035835291830191830162003fe5565b509695505050505050565b600082601f8301126200401b57600080fd5b813567ffffffffffffffff81111562004038576200403862003f23565b60405162004051601f8301601f19166020018262003f39565b8181528460208386010111156200406757600080fd5b816020850160208301376000918101602001919091529392505050565b600080600080600060a086880312156200409d57600080fd5b620040a88662003d5c565b9450620040b86020870162003d5c565b9350604086013567ffffffffffffffff80821115620040d657600080fd5b620040e489838a0162003f90565b94506060880135915080821115620040fb57600080fd5b6200410989838a0162003f90565b935060808801359150808211156200412057600080fd5b506200412f8882890162004009565b9150509295509295909350565b600080604083850312156200415057600080fd5b823567ffffffffffffffff808211156200416957600080fd5b818501915085601f8301126200417e57600080fd5b813560206200418d8262003f69565b6040516200419c828262003f39565b83815260059390931b8501820192828101915089841115620041bd57600080fd5b948201945b83861015620041e657620041d68662003d5c565b82529482019490820190620041c2565b96505086013592505080821115620041fd57600080fd5b506200420c8582860162003f90565b9150509250929050565b600081518084526020808501945080840160005b8381101562004248578151875295820195908201906001016200422a565b509495945050505050565b60208152600062003ddd602083018462004216565b6000602082840312156200427b57600080fd5b813567ffffffffffffffff8111156200429357600080fd5b620042a18482850162004009565b949350505050565b60008060408385031215620042bd57600080fd5b50508035926020909101359150565b60008060408385031215620042e057600080fd5b823567ffffffffffffffff80821115620042f957600080fd5b620043078683870162004009565b935060208501359150808211156200431e57600080fd5b506200420c8582860162004009565b600080604083850312156200434157600080fd5b6200434c8362003d5c565b91506200435c6020840162003d5c565b90509250929050565b600080600080600060a086880312156200437e57600080fd5b620043898662003d5c565b9450620043996020870162003d5c565b93506040860135925060608601359150608086013567ffffffffffffffff811115620043c457600080fd5b6200412f8882890162004009565b602081528151602082015260006020830151610100806040850152620043fd61012085018362003e28565b915060018060a01b03604086015116606085015260608501516080850152608085015160a085015260a08501516200444060c08601826001600160a01b03169052565b5060c085015160e085015260e0850151601f19858403018286015262004467838262003e28565b9695505050505050565b600181811c908216806200448657607f821691505b602082108103620044a757634e487b7160e01b600052602260045260246000fd5b50919050565b634e487b7160e01b600052601160045260246000fd5b808202811582820484141762000fb95762000fb9620044ad565b600082620044fb57634e487b7160e01b600052601260045260246000fd5b500490565b8181038181111562000fb95762000fb9620044ad565b6000602082840312156200452957600080fd5b815162003ddd8162003ed8565b8082018082111562000fb95762000fb9620044ad565b6020808252600f908201526e5374617475732069732066616c736560881b604082015260600190565b634e487b7160e01b600052603260045260246000fd5b634e487b7160e01b600052603160045260246000fd5b600060018201620045b657620045b6620044ad565b5060010190565b600060208284031215620045d057600080fd5b5051919050565b601f8211156200462157600081815260208120601f850160051c81016020861015620046005750805b601f850160051c820191505b8181101562001fce578281556001016200460c565b505050565b815167ffffffffffffffff81111562004643576200464362003f23565b6200465b8162004654845462004471565b84620045d7565b602080601f8311600181146200469357600084156200467a5750858301515b600019600386901b1c1916600185901b17855562001fce565b600085815260208120601f198616915b82811015620046c457888601518255948401946001909101908401620046a3565b5085821015620046e35787850151600019600388901b60f8161c191681555b5050505050600190811b01905550565b600082516200470781846020870162003e02565b9190910192915050565b60408152600062004726604083018562004216565b82810360208401526200473a818562004216565b95945050505050565b6001600160a01b0386811682528516602082015260a060408201819052600090620047719083018662004216565b828103606084015262004785818662004216565b905082810360808401526200479b818562003e28565b98975050505050505050565b600060208284031215620047ba57600080fd5b815162003ddd8162003da6565b600060033d1115620047e15760046000803e5060005160e01c5b90565b600060443d1015620047f35790565b6040516003193d81016004833e81513d67ffffffffffffffff81602484011181841117156200482457505050505090565b82850191508151818111156200483d5750505050505090565b843d8701016020828501011115620048585750505050505090565b620048696020828601018762003f39565b509095945050505050565b60208082526028908201527f455243313135353a204552433131353552656365697665722072656a656374656040820152676420746f6b656e7360c01b606082015260800190565b6001600160a01b03868116825285166020820152604081018490526060810183905260a060808201819052600090620048f89083018462003e28565b97965050505050505056fe608060405234801561001057600080fd5b5060405161095c38038061095c83398101604081905261002f91610078565b600380546001600160a01b039384166001600160a01b031991821617909155600480549290931691161790556100b2565b6001600160a01b038116811461007557600080fd5b50565b6000806040838503121561008b57600080fd5b825161009681610060565b60208401519092506100a781610060565b809150509250929050565b61089b806100c16000396000f3fe608060405234801561001057600080fd5b50600436106101005760003560e01c80638fc99ea311610097578063d7081e0311610066578063d7081e031461021b578063e7ee6ad61461022e578063f851a44014610241578063fa46b6901461025457600080fd5b80638fc99ea3146101bf578063ac4ce2c6146101e3578063ad5c4648146101f6578063b8ac457b1461020957600080fd5b806338eada1c116100d357806338eada1c1461017057806346df2ccb146101835780636711be0e1461019657806370ca09bc146101ac57600080fd5b806309f14a5c14610105578063144fa6d71461011a5780631de1e2ac1461012d57806331678cf61461015d575b600080fd5b6101186101133660046106ef565b61025c565b005b61011861012836600461071d565b6102a8565b61014061013b3660046106ef565b6102e1565b6040516001600160a01b0390911681526020015b60405180910390f35b61011861016b366004610741565b61030b565b61011861017e36600461071d565b610392565b61011861019136600461077a565b6103fa565b61019e610435565b604051908152602001610154565b600454610140906001600160a01b031681565b6004546101d390600160a01b900460ff1681565b6040519015158152602001610154565b6101186101f136600461079c565b6104a7565b600054610140906001600160a01b031681565b600454600160a01b900460ff166101d3565b6101186102293660046107c1565b610504565b61019e61023c3660046106ef565b6105da565b600354610140906001600160a01b031681565b6101186105fb565b6003546001600160a01b0316331461027357600080fd5b600280546001810182556000919091527f405787fa12a823e0f2b7631cc41b3ba8828b3321ca811111fa75cd3aa3bb5ace0155565b6003546001600160a01b031633146102bf57600080fd5b600080546001600160a01b0319166001600160a01b0392909216919091179055565b600181815481106102f157600080fd5b6000918252602090912001546001600160a01b0316905081565b6004546001600160a01b03163314801561033257506003546001600160a01b038381169116145b61036f5760405162461bcd60e51b81526020600482015260096024820152686e6f2061636365737360b81b60448201526064015b60405180910390fd5b600380546001600160a01b0319166001600160a01b039290921691909117905550565b6003546001600160a01b031633146103a957600080fd5b6001805480820182556000919091527fb10e2d527612073b26eecdfd717e6a320cf44b4afac2b0732d9fcbe2b7fa0cf60180546001600160a01b0319166001600160a01b0392909216919091179055565b6003546001600160a01b0316331461041157600080fd5b8060028381548110610425576104256107ed565b6000918252602090912001555050565b600080546040516370a0823160e01b81523060048201526001600160a01b03909116906370a0823190602401602060405180830381865afa15801561047e573d6000803e3d6000fd5b505050506040513d601f19601f820116820180604052508101906104a29190610803565b905090565b6003546001600160a01b031633146104be57600080fd5b80600183815481106104d2576104d26107ed565b9060005260206000200160006101000a8154816001600160a01b0302191690836001600160a01b031602179055505050565b6003546001600160a01b0316331461051b57600080fd5b6000610525610435565b1161055e5760405162461bcd60e51b81526020600482015260096024820152681b9bc8185b5bdd5b9d60ba1b6044820152606401610366565b60005460405163a9059cbb60e01b81526001600160a01b038481166004830152602482018490529091169063a9059cbb906044016020604051808303816000875af11580156105b1573d6000803e3d6000fd5b505050506040513d601f19601f820116820180604052508101906105d5919061081c565b505050565b600281815481106105ea57600080fd5b600091825260209091200154905081565b60005b6001548110156106ec57600054600180546001600160a01b039092169163a9059cbb919084908110610632576106326107ed565b600091825260209091200154600280546001600160a01b03909216918590811061065e5761065e6107ed565b6000918252602090912001546040516001600160e01b031960e085901b1681526001600160a01b03909216600483015260248201526044016020604051808303816000875af11580156106b5573d6000803e3d6000fd5b505050506040513d601f19601f820116820180604052508101906106d9919061081c565b50806106e48161083e565b9150506105fe565b50565b60006020828403121561070157600080fd5b5035919050565b6001600160a01b03811681146106ec57600080fd5b60006020828403121561072f57600080fd5b813561073a81610708565b9392505050565b6000806040838503121561075457600080fd5b823561075f81610708565b9150602083013561076f81610708565b809150509250929050565b6000806040838503121561078d57600080fd5b50508035926020909101359150565b600080604083850312156107af57600080fd5b82359150602083013561076f81610708565b600080604083850312156107d457600080fd5b82356107df81610708565b946020939093013593505050565b634e487b7160e01b600052603260045260246000fd5b60006020828403121561081557600080fd5b5051919050565b60006020828403121561082e57600080fd5b8151801515811461073a57600080fd5b60006001820161085e57634e487b7160e01b600052601160045260246000fd5b506001019056fea2646970667358221220cdf18415538273333884173f95226f119bb1d1b6d9f7aee243c037a01c9c7fb464736f6c63430008120033a2646970667358221220a7e5b0d5d98452650ab2b922eece719e418597b1bcc14804ea39b11447a34fad64736f6c63430008120033",
			"opcodes": "PUSH1 0x80 PUSH1 0x40 MSTORE CALLVALUE DUP1 ISZERO PUSH3 0x11 JUMPI PUSH1 0x0 DUP1 REVERT JUMPDEST POP PUSH1 0x40 MLOAD PUSH3 0x553D CODESIZE SUB DUP1 PUSH3 0x553D DUP4 CODECOPY DUP2 ADD PUSH1 0x40 DUP2 SWAP1 MSTORE PUSH3 0x34 SWAP2 PUSH3 0xF5 JUMP JUMPDEST PUSH1 0x40 DUP1 MLOAD DUP1 DUP3 ADD SWAP1 SWAP2 MSTORE PUSH1 0x4 DUP2 MSTORE PUSH4 0x1D195CDD PUSH1 0xE2 SHL PUSH1 0x20 DUP3 ADD MSTORE PUSH3 0x5A DUP2 PUSH3 0x91 JUMP JUMPDEST POP PUSH3 0x66 CALLER PUSH3 0xA3 JUMP JUMPDEST PUSH1 0x5 PUSH1 0xD SSTORE PUSH1 0x4 DUP1 SLOAD PUSH1 0x1 PUSH1 0x1 PUSH1 0xA0 SHL SUB NOT AND PUSH1 0x1 PUSH1 0x1 PUSH1 0xA0 SHL SUB SWAP3 SWAP1 SWAP3 AND SWAP2 SWAP1 SWAP2 OR SWAP1 SSTORE PUSH3 0x298 JUMP JUMPDEST PUSH1 0x2 PUSH3 0x9F DUP3 DUP3 PUSH3 0x1CC JUMP JUMPDEST POP POP JUMP JUMPDEST PUSH1 0x3 DUP1 SLOAD PUSH1 0x1 PUSH1 0x1 PUSH1 0xA0 SHL SUB DUP4 DUP2 AND PUSH1 0x1 PUSH1 0x1 PUSH1 0xA0 SHL SUB NOT DUP4 AND DUP2 OR SWAP1 SWAP4 SSTORE PUSH1 0x40 MLOAD SWAP2 AND SWAP2 SWAP1 DUP3 SWAP1 PUSH32 0x8BE0079C531659141344CD1FD0A4F28419497F9722A3DAAFE3B4186F6B6457E0 SWAP1 PUSH1 0x0 SWAP1 LOG3 POP POP JUMP JUMPDEST PUSH1 0x0 PUSH1 0x20 DUP3 DUP5 SUB SLT ISZERO PUSH3 0x108 JUMPI PUSH1 0x0 DUP1 REVERT JUMPDEST DUP2 MLOAD PUSH1 0x1 PUSH1 0x1 PUSH1 0xA0 SHL SUB DUP2 AND DUP2 EQ PUSH3 0x120 JUMPI PUSH1 0x0 DUP1 REVERT JUMPDEST SWAP4 SWAP3 POP POP POP JUMP JUMPDEST PUSH4 0x4E487B71 PUSH1 0xE0 SHL PUSH1 0x0 MSTORE PUSH1 0x41 PUSH1 0x4 MSTORE PUSH1 0x24 PUSH1 0x0 REVERT JUMPDEST PUSH1 0x1 DUP2 DUP2 SHR SWAP1 DUP3 AND DUP1 PUSH3 0x152 JUMPI PUSH1 0x7F DUP3 AND SWAP2 POP JUMPDEST PUSH1 0x20 DUP3 LT DUP2 SUB PUSH3 0x173 JUMPI PUSH4 0x4E487B71 PUSH1 0xE0 SHL PUSH1 0x0 MSTORE PUSH1 0x22 PUSH1 0x4 MSTORE PUSH1 0x24 PUSH1 0x0 REVERT JUMPDEST POP SWAP2 SWAP1 POP JUMP JUMPDEST PUSH1 0x1F DUP3 GT ISZERO PUSH3 0x1C7 JUMPI PUSH1 0x0 DUP2 DUP2 MSTORE PUSH1 0x20 DUP2 KECCAK256 PUSH1 0x1F DUP6 ADD PUSH1 0x5 SHR DUP2 ADD PUSH1 0x20 DUP7 LT ISZERO PUSH3 0x1A2 JUMPI POP DUP1 JUMPDEST PUSH1 0x1F DUP6 ADD PUSH1 0x5 SHR DUP3 ADD SWAP2 POP JUMPDEST DUP2 DUP2 LT ISZERO PUSH3 0x1C3 JUMPI DUP3 DUP2 SSTORE PUSH1 0x1 ADD PUSH3 0x1AE JUMP JUMPDEST POP POP POP JUMPDEST POP POP POP JUMP JUMPDEST DUP2 MLOAD PUSH1 0x1 PUSH1 0x1 PUSH1 0x40 SHL SUB DUP2 GT ISZERO PUSH3 0x1E8 JUMPI PUSH3 0x1E8 PUSH3 0x127 JUMP JUMPDEST PUSH3 0x200 DUP2 PUSH3 0x1F9 DUP5 SLOAD PUSH3 0x13D JUMP JUMPDEST DUP5 PUSH3 0x179 JUMP JUMPDEST PUSH1 0x20 DUP1 PUSH1 0x1F DUP4 GT PUSH1 0x1 DUP2 EQ PUSH3 0x238 JUMPI PUSH1 0x0 DUP5 ISZERO PUSH3 0x21F JUMPI POP DUP6 DUP4 ADD MLOAD JUMPDEST PUSH1 0x0 NOT PUSH1 0x3 DUP7 SWAP1 SHL SHR NOT AND PUSH1 0x1 DUP6 SWAP1 SHL OR DUP6 SSTORE PUSH3 0x1C3 JUMP JUMPDEST PUSH1 0x0 DUP6 DUP2 MSTORE PUSH1 0x20 DUP2 KECCAK256 PUSH1 0x1F NOT DUP7 AND SWAP2 JUMPDEST DUP3 DUP2 LT ISZERO PUSH3 0x269 JUMPI DUP9 DUP7 ADD MLOAD DUP3 SSTORE SWAP5 DUP5 ADD SWAP5 PUSH1 0x1 SWAP1 SWAP2 ADD SWAP1 DUP5 ADD PUSH3 0x248 JUMP JUMPDEST POP DUP6 DUP3 LT ISZERO PUSH3 0x288 JUMPI DUP8 DUP6 ADD MLOAD PUSH1 0x0 NOT PUSH1 0x3 DUP9 SWAP1 SHL PUSH1 0xF8 AND SHR NOT AND DUP2 SSTORE JUMPDEST POP POP POP POP POP PUSH1 0x1 SWAP1 DUP2 SHL ADD SWAP1 SSTORE POP JUMP JUMPDEST PUSH2 0x5295 DUP1 PUSH3 0x2A8 PUSH1 0x0 CODECOPY PUSH1 0x0 RETURN INVALID PUSH1 0x80 PUSH1 0x40 MSTORE PUSH1 0x4 CALLDATASIZE LT PUSH3 0x435 JUMPI PUSH1 0x0 CALLDATALOAD PUSH1 0xE0 SHR DUP1 PUSH4 0x8C063A02 GT PUSH3 0x233 JUMPI DUP1 PUSH4 0xC6EE20D2 GT PUSH3 0x12F JUMPI DUP1 PUSH4 0xEB57E5D4 GT PUSH3 0xB9 JUMPI DUP1 PUSH4 0xF242432A GT PUSH3 0x84 JUMPI DUP1 PUSH4 0xF242432A EQ PUSH3 0xE61 JUMPI DUP1 PUSH4 0xF2FDE38B EQ PUSH3 0xE80 JUMPI DUP1 PUSH4 0xF3A2937E EQ PUSH3 0xEA5 JUMPI DUP1 PUSH4 0xF3E0FB38 EQ PUSH3 0xEBD JUMPI DUP1 PUSH4 0xFA4C15E1 EQ PUSH3 0xEE2 JUMPI PUSH1 0x0 DUP1 REVERT JUMPDEST DUP1 PUSH4 0xEB57E5D4 EQ PUSH3 0xDC1 JUMPI DUP1 PUSH4 0xEF9D52F1 EQ PUSH3 0xDE6 JUMPI DUP1 PUSH4 0xF056BAC4 EQ PUSH3 0xE0B JUMPI DUP1 PUSH4 0xF2242674 EQ PUSH3 0xE30 JUMPI PUSH1 0x0 DUP1 REVERT JUMPDEST DUP1 PUSH4 0xE458A888 GT PUSH3 0xFA JUMPI DUP1 PUSH4 0xE458A888 EQ PUSH3 0xCF6 JUMPI DUP1 PUSH4 0xE8A0C74E EQ PUSH3 0xD1B JUMPI DUP1 PUSH4 0xE8FEF15D EQ PUSH3 0xD40 JUMPI DUP1 PUSH4 0xE985E9C5 EQ PUSH3 0xD74 JUMPI PUSH1 0x0 DUP1 REVERT JUMPDEST DUP1 PUSH4 0xC6EE20D2 EQ PUSH3 0xC62 JUMPI DUP1 PUSH4 0xC9344C33 EQ PUSH3 0xC85 JUMPI DUP1 PUSH4 0xD431B1AC EQ PUSH3 0xCB9 JUMPI DUP1 PUSH4 0xDE97C262 EQ PUSH3 0xCD1 JUMPI PUSH1 0x0 DUP1 REVERT JUMPDEST DUP1 PUSH4 0x9904ED8D GT PUSH3 0x1BD JUMPI DUP1 PUSH4 0xB0005FF8 GT PUSH3 0x188 JUMPI DUP1 PUSH4 0xB0005FF8 EQ PUSH3 0xB8F JUMPI DUP1 PUSH4 0xB12C249C EQ PUSH3 0xBA7 JUMPI DUP1 PUSH4 0xB3169894 EQ PUSH3 0xBD8 JUMPI DUP1 PUSH4 0xB882A0BB EQ PUSH3 0xBFD JUMPI DUP1 PUSH4 0xBB667474 EQ PUSH3 0xC2E JUMPI PUSH1 0x0 DUP1 REVERT JUMPDEST DUP1 PUSH4 0x9904ED8D EQ PUSH3 0xAF7 JUMPI DUP1 PUSH4 0xA22CB465 EQ PUSH3 0xB19 JUMPI DUP1 PUSH4 0xA3F9C8CB EQ PUSH3 0xB3E JUMPI DUP1 PUSH4 0xA7948184 EQ PUSH3 0xB55 JUMPI PUSH1 0x0 DUP1 REVERT JUMPDEST DUP1 PUSH4 0x932AF1EF GT PUSH3 0x1FE JUMPI DUP1 PUSH4 0x932AF1EF EQ PUSH3 0xA43 JUMPI DUP1 PUSH4 0x95482768 EQ PUSH3 0xA80 JUMPI DUP1 PUSH4 0x97009F60 EQ PUSH3 0xAA5 JUMPI DUP1 PUSH4 0x97209183 EQ PUSH3 0xADF JUMPI PUSH1 0x0 DUP1 REVERT JUMPDEST DUP1 PUSH4 0x8C063A02 EQ PUSH3 0x99A JUMPI DUP1 PUSH4 0x8DA5CB5B EQ PUSH3 0x9BF JUMPI DUP1 PUSH4 0x9090C0F2 EQ PUSH3 0x9DF JUMPI DUP1 PUSH4 0x913E1063 EQ PUSH3 0xA04 JUMPI PUSH1 0x0 DUP1 REVERT JUMPDEST DUP1 PUSH4 0x3FC196D0 GT PUSH3 0x343 JUMPI DUP1 PUSH4 0x57312481 GT PUSH3 0x2CD JUMPI DUP1 PUSH4 0x715018A6 GT PUSH3 0x298 JUMPI DUP1 PUSH4 0x715018A6 EQ PUSH3 0x8D9 JUMPI DUP1 PUSH4 0x721D9A00 EQ PUSH3 0x8F1 JUMPI DUP1 PUSH4 0x78CB7539 EQ PUSH3 0x93B JUMPI DUP1 PUSH4 0x836F038F EQ PUSH3 0x95D JUMPI DUP1 PUSH4 0x861FAF5F EQ PUSH3 0x982 JUMPI PUSH1 0x0 DUP1 REVERT JUMPDEST DUP1 PUSH4 0x57312481 EQ PUSH3 0x858 JUMPI DUP1 PUSH4 0x5803AD37 EQ PUSH3 0x87A JUMPI DUP1 PUSH4 0x5B4246D4 EQ PUSH3 0x89F JUMPI DUP1 PUSH4 0x62F3CCBA EQ PUSH3 0x8B7 JUMPI PUSH1 0x0 DUP1 REVERT JUMPDEST DUP1 PUSH4 0x4D64E73A GT PUSH3 0x30E JUMPI DUP1 PUSH4 0x4D64E73A EQ PUSH3 0x790 JUMPI DUP1 PUSH4 0x4E1273F4 EQ PUSH3 0x7B5 JUMPI DUP1 PUSH4 0x53340DC3 EQ PUSH3 0x7E9 JUMPI DUP1 PUSH4 0x5636CFC8 EQ PUSH3 0x833 JUMPI PUSH1 0x0 DUP1 REVERT JUMPDEST DUP1 PUSH4 0x3FC196D0 EQ PUSH3 0x70D JUMPI DUP1 PUSH4 0x3FC8CEF3 EQ PUSH3 0x724 JUMPI DUP1 PUSH4 0x4386B6EC EQ PUSH3 0x746 JUMPI DUP1 PUSH4 0x47834E0C EQ PUSH3 0x76B JUMPI PUSH1 0x0 DUP1 REVERT JUMPDEST DUP1 PUSH4 0xE89341C GT PUSH3 0x3C5 JUMPI DUP1 PUSH4 0x1D20920C GT PUSH3 0x390 JUMPI DUP1 PUSH4 0x1D20920C EQ PUSH3 0x67A JUMPI DUP1 PUSH4 0x29FD8201 EQ PUSH3 0x69F JUMPI DUP1 PUSH4 0x2EB2C2D6 EQ PUSH3 0x6C4 JUMPI DUP1 PUSH4 0x39A98804 EQ PUSH3 0x6E9 JUMPI PUSH1 0x0 DUP1 REVERT JUMPDEST DUP1 PUSH4 0xE89341C EQ PUSH3 0x5AC JUMPI DUP1 PUSH4 0x149A75D6 EQ PUSH3 0x5E0 JUMPI DUP1 PUSH4 0x15BB9108 EQ PUSH3 0x633 JUMPI DUP1 PUSH4 0x1A5EF71C EQ PUSH3 0x658 JUMPI PUSH1 0x0 DUP1 REVERT JUMPDEST DUP1 PUSH4 0xA4AF49C GT PUSH3 0x406 JUMPI DUP1 PUSH4 0xA4AF49C EQ PUSH3 0x4F4 JUMPI DUP1 PUSH4 0xBA360A9 EQ PUSH3 0x528 JUMPI DUP1 PUSH4 0xC40FDFD EQ PUSH3 0x563 JUMPI DUP1 PUSH4 0xDAE30DB EQ PUSH3 0x594 JUMPI PUSH1 0x0 DUP1 REVERT JUMPDEST DUP1 PUSH3 0x6CD200 EQ PUSH3 0x43A JUMPI DUP1 PUSH3 0xFDD58E EQ PUSH3 0x461 JUMPI DUP1 PUSH4 0x1FFC9A7 EQ PUSH3 0x499 JUMPI DUP1 PUSH4 0x6DD6060 EQ PUSH3 0x4CF JUMPI JUMPDEST PUSH1 0x0 DUP1 REVERT JUMPDEST CALLVALUE DUP1 ISZERO PUSH3 0x447 JUMPI PUSH1 0x0 DUP1 REVERT JUMPDEST POP PUSH3 0x45F PUSH3 0x459 CALLDATASIZE PUSH1 0x4 PUSH3 0x3D42 JUMP JUMPDEST PUSH3 0xF16 JUMP JUMPDEST STOP JUMPDEST CALLVALUE DUP1 ISZERO PUSH3 0x46E JUMPI PUSH1 0x0 DUP1 REVERT JUMPDEST POP PUSH3 0x486 PUSH3 0x480 CALLDATASIZE PUSH1 0x4 PUSH3 0x3D79 JUMP JUMPDEST PUSH3 0xF25 JUMP JUMPDEST PUSH1 0x40 MLOAD SWAP1 DUP2 MSTORE PUSH1 0x20 ADD JUMPDEST PUSH1 0x40 MLOAD DUP1 SWAP2 SUB SWAP1 RETURN JUMPDEST CALLVALUE DUP1 ISZERO PUSH3 0x4A6 JUMPI PUSH1 0x0 DUP1 REVERT JUMPDEST POP PUSH3 0x4BE PUSH3 0x4B8 CALLDATASIZE PUSH1 0x4 PUSH3 0x3DBD JUMP JUMPDEST PUSH3 0xFBF JUMP JUMPDEST PUSH1 0x40 MLOAD SWAP1 ISZERO ISZERO DUP2 MSTORE PUSH1 0x20 ADD PUSH3 0x490 JUMP JUMPDEST CALLVALUE DUP1 ISZERO PUSH3 0x4DC JUMPI PUSH1 0x0 DUP1 REVERT JUMPDEST POP PUSH3 0x45F PUSH3 0x4EE CALLDATASIZE PUSH1 0x4 PUSH3 0x3DE4 JUMP JUMPDEST PUSH3 0x1012 JUMP JUMPDEST CALLVALUE DUP1 ISZERO PUSH3 0x501 JUMPI PUSH1 0x0 DUP1 REVERT JUMPDEST POP PUSH3 0x4BE PUSH3 0x513 CALLDATASIZE PUSH1 0x4 PUSH3 0x3D42 JUMP JUMPDEST PUSH1 0x11 PUSH1 0x20 MSTORE PUSH1 0x0 SWAP1 DUP2 MSTORE PUSH1 0x40 SWAP1 KECCAK256 SLOAD PUSH1 0xFF AND DUP2 JUMP JUMPDEST CALLVALUE DUP1 ISZERO PUSH3 0x535 JUMPI PUSH1 0x0 DUP1 REVERT JUMPDEST POP PUSH3 0x54D PUSH3 0x547 CALLDATASIZE PUSH1 0x4 PUSH3 0x3D42 JUMP JUMPDEST PUSH3 0x103E JUMP JUMPDEST PUSH1 0x40 MLOAD PUSH3 0x490 SWAP9 SWAP8 SWAP7 SWAP6 SWAP5 SWAP4 SWAP3 SWAP2 SWAP1 PUSH3 0x3E56 JUMP JUMPDEST CALLVALUE DUP1 ISZERO PUSH3 0x570 JUMPI PUSH1 0x0 DUP1 REVERT JUMPDEST POP PUSH3 0x486 PUSH3 0x582 CALLDATASIZE PUSH1 0x4 PUSH3 0x3DE4 JUMP JUMPDEST PUSH1 0x14 PUSH1 0x20 MSTORE PUSH1 0x0 SWAP1 DUP2 MSTORE PUSH1 0x40 SWAP1 KECCAK256 SLOAD DUP2 JUMP JUMPDEST CALLVALUE DUP1 ISZERO PUSH3 0x5A1 JUMPI PUSH1 0x0 DUP1 REVERT JUMPDEST POP PUSH3 0x486 PUSH1 0x8 SLOAD DUP2 JUMP JUMPDEST CALLVALUE DUP1 ISZERO PUSH3 0x5B9 JUMPI PUSH1 0x0 DUP1 REVERT JUMPDEST POP PUSH3 0x5D1 PUSH3 0x5CB CALLDATASIZE PUSH1 0x4 PUSH3 0x3D42 JUMP JUMPDEST PUSH3 0x11B1 JUMP JUMPDEST PUSH1 0x40 MLOAD PUSH3 0x490 SWAP2 SWAP1 PUSH3 0x3EC3 JUMP JUMPDEST CALLVALUE DUP1 ISZERO PUSH3 0x5ED JUMPI PUSH1 0x0 DUP1 REVERT JUMPDEST POP PUSH3 0x61A PUSH3 0x5FF CALLDATASIZE PUSH1 0x4 PUSH3 0x3D42 JUMP JUMPDEST PUSH1 0x19 PUSH1 0x20 MSTORE PUSH1 0x0 SWAP1 DUP2 MSTORE PUSH1 0x40 SWAP1 KECCAK256 SLOAD PUSH1 0x1 PUSH1 0x1 PUSH1 0xA0 SHL SUB AND DUP2 JUMP JUMPDEST PUSH1 0x40 MLOAD PUSH1 0x1 PUSH1 0x1 PUSH1 0xA0 SHL SUB SWAP1 SWAP2 AND DUP2 MSTORE PUSH1 0x20 ADD PUSH3 0x490 JUMP JUMPDEST CALLVALUE DUP1 ISZERO PUSH3 0x640 JUMPI PUSH1 0x0 DUP1 REVERT JUMPDEST POP PUSH3 0x45F PUSH3 0x652 CALLDATASIZE PUSH1 0x4 PUSH3 0x3D42 JUMP JUMPDEST PUSH3 0x124D JUMP JUMPDEST CALLVALUE DUP1 ISZERO PUSH3 0x665 JUMPI PUSH1 0x0 DUP1 REVERT JUMPDEST POP PUSH1 0xB SLOAD PUSH3 0x61A SWAP1 PUSH1 0x1 PUSH1 0x1 PUSH1 0xA0 SHL SUB AND DUP2 JUMP JUMPDEST CALLVALUE DUP1 ISZERO PUSH3 0x687 JUMPI PUSH1 0x0 DUP1 REVERT JUMPDEST POP PUSH3 0x45F PUSH3 0x699 CALLDATASIZE PUSH1 0x4 PUSH3 0x3EE7 JUMP JUMPDEST PUSH3 0x125C JUMP JUMPDEST CALLVALUE DUP1 ISZERO PUSH3 0x6AC JUMPI PUSH1 0x0 DUP1 REVERT JUMPDEST POP PUSH3 0x45F PUSH3 0x6BE CALLDATASIZE PUSH1 0x4 PUSH3 0x3DE4 JUMP JUMPDEST PUSH3 0x1291 JUMP JUMPDEST CALLVALUE DUP1 ISZERO PUSH3 0x6D1 JUMPI PUSH1 0x0 DUP1 REVERT JUMPDEST POP PUSH3 0x45F PUSH3 0x6E3 CALLDATASIZE PUSH1 0x4 PUSH3 0x4084 JUMP JUMPDEST PUSH3 0x12BD JUMP JUMPDEST CALLVALUE DUP1 ISZERO PUSH3 0x6F6 JUMPI PUSH1 0x0 DUP1 REVERT JUMPDEST POP CALLER PUSH1 0x0 SWAP1 DUP2 MSTORE PUSH1 0x14 PUSH1 0x20 MSTORE PUSH1 0x40 SWAP1 KECCAK256 SLOAD PUSH3 0x486 JUMP JUMPDEST PUSH3 0x45F PUSH3 0x71E CALLDATASIZE PUSH1 0x4 PUSH3 0x3D79 JUMP JUMPDEST PUSH3 0x12F8 JUMP JUMPDEST CALLVALUE DUP1 ISZERO PUSH3 0x731 JUMPI PUSH1 0x0 DUP1 REVERT JUMPDEST POP PUSH1 0x4 SLOAD PUSH3 0x61A SWAP1 PUSH1 0x1 PUSH1 0x1 PUSH1 0xA0 SHL SUB AND DUP2 JUMP JUMPDEST CALLVALUE DUP1 ISZERO PUSH3 0x753 JUMPI PUSH1 0x0 DUP1 REVERT JUMPDEST POP PUSH3 0x45F PUSH3 0x765 CALLDATASIZE PUSH1 0x4 PUSH3 0x3D42 JUMP JUMPDEST PUSH3 0x1646 JUMP JUMPDEST CALLVALUE DUP1 ISZERO PUSH3 0x778 JUMPI PUSH1 0x0 DUP1 REVERT JUMPDEST POP PUSH3 0x54D PUSH3 0x78A CALLDATASIZE PUSH1 0x4 PUSH3 0x3D42 JUMP JUMPDEST PUSH3 0x18C3 JUMP JUMPDEST CALLVALUE DUP1 ISZERO PUSH3 0x79D JUMPI PUSH1 0x0 DUP1 REVERT JUMPDEST POP PUSH3 0x61A PUSH3 0x7AF CALLDATASIZE PUSH1 0x4 PUSH3 0x3DE4 JUMP JUMPDEST PUSH3 0x18FB JUMP JUMPDEST CALLVALUE DUP1 ISZERO PUSH3 0x7C2 JUMPI PUSH1 0x0 DUP1 REVERT JUMPDEST POP PUSH3 0x7DA PUSH3 0x7D4 CALLDATASIZE PUSH1 0x4 PUSH3 0x413C JUMP JUMPDEST PUSH3 0x197F JUMP JUMPDEST PUSH1 0x40 MLOAD PUSH3 0x490 SWAP2 SWAP1 PUSH3 0x4253 JUMP JUMPDEST CALLVALUE DUP1 ISZERO PUSH3 0x7F6 JUMPI PUSH1 0x0 DUP1 REVERT JUMPDEST POP PUSH3 0x61A PUSH3 0x808 CALLDATASIZE PUSH1 0x4 PUSH3 0x3DE4 JUMP JUMPDEST PUSH1 0x1 PUSH1 0x1 PUSH1 0xA0 SHL SUB SWAP1 DUP2 AND PUSH1 0x0 SWAP1 DUP2 MSTORE PUSH1 0x14 PUSH1 0x20 SWAP1 DUP2 MSTORE PUSH1 0x40 DUP1 DUP4 KECCAK256 SLOAD DUP4 MSTORE PUSH1 0x19 SWAP1 SWAP2 MSTORE SWAP1 KECCAK256 SLOAD AND SWAP1 JUMP JUMPDEST CALLVALUE DUP1 ISZERO PUSH3 0x840 JUMPI PUSH1 0x0 DUP1 REVERT JUMPDEST POP PUSH3 0x45F PUSH3 0x852 CALLDATASIZE PUSH1 0x4 PUSH3 0x3D42 JUMP JUMPDEST PUSH3 0x1ABE JUMP JUMPDEST CALLVALUE DUP1 ISZERO PUSH3 0x865 JUMPI PUSH1 0x0 DUP1 REVERT JUMPDEST POP PUSH1 0x9 SLOAD PUSH3 0x61A SWAP1 PUSH1 0x1 PUSH1 0x1 PUSH1 0xA0 SHL SUB AND DUP2 JUMP JUMPDEST CALLVALUE DUP1 ISZERO PUSH3 0x887 JUMPI PUSH1 0x0 DUP1 REVERT JUMPDEST POP PUSH3 0x486 PUSH3 0x899 CALLDATASIZE PUSH1 0x4 PUSH3 0x3D42 JUMP JUMPDEST PUSH3 0x1ACD JUMP JUMPDEST CALLVALUE DUP1 ISZERO PUSH3 0x8AC JUMPI PUSH1 0x0 DUP1 REVERT JUMPDEST POP PUSH3 0x486 PUSH1 0xD SLOAD DUP2 JUMP JUMPDEST CALLVALUE DUP1 ISZERO PUSH3 0x8C4 JUMPI PUSH1 0x0 DUP1 REVERT JUMPDEST POP PUSH1 0x5 SLOAD PUSH3 0x61A SWAP1 PUSH1 0x1 PUSH1 0x1 PUSH1 0xA0 SHL SUB AND DUP2 JUMP JUMPDEST CALLVALUE DUP1 ISZERO PUSH3 0x8E6 JUMPI PUSH1 0x0 DUP1 REVERT JUMPDEST POP PUSH3 0x45F PUSH3 0x1BC4 JUMP JUMPDEST CALLVALUE DUP1 ISZERO PUSH3 0x8FE JUMPI PUSH1 0x0 DUP1 REVERT JUMPDEST POP PUSH3 0x4BE PUSH3 0x910 CALLDATASIZE PUSH1 0x4 PUSH3 0x3DE4 JUMP JUMPDEST PUSH1 0x1 PUSH1 0x1 PUSH1 0xA0 SHL SUB AND PUSH1 0x0 SWAP1 DUP2 MSTORE PUSH1 0x14 PUSH1 0x20 SWAP1 DUP2 MSTORE PUSH1 0x40 DUP1 DUP4 KECCAK256 SLOAD DUP4 MSTORE PUSH1 0x11 SWAP1 SWAP2 MSTORE SWAP1 KECCAK256 SLOAD PUSH1 0xFF AND SWAP1 JUMP JUMPDEST CALLVALUE DUP1 ISZERO PUSH3 0x948 JUMPI PUSH1 0x0 DUP1 REVERT JUMPDEST POP PUSH1 0xA SLOAD PUSH3 0x61A SWAP1 PUSH1 0x1 PUSH1 0x1 PUSH1 0xA0 SHL SUB AND DUP2 JUMP JUMPDEST CALLVALUE DUP1 ISZERO PUSH3 0x96A JUMPI PUSH1 0x0 DUP1 REVERT JUMPDEST POP PUSH3 0x45F PUSH3 0x97C CALLDATASIZE PUSH1 0x4 PUSH3 0x3DE4 JUMP JUMPDEST PUSH3 0x1BDC JUMP JUMPDEST CALLVALUE DUP1 ISZERO PUSH3 0x98F JUMPI PUSH1 0x0 DUP1 REVERT JUMPDEST POP PUSH3 0x45F PUSH3 0x1C08 JUMP JUMPDEST CALLVALUE DUP1 ISZERO PUSH3 0x9A7 JUMPI PUSH1 0x0 DUP1 REVERT JUMPDEST POP PUSH3 0x45F PUSH3 0x9B9 CALLDATASIZE PUSH1 0x4 PUSH3 0x3DE4 JUMP JUMPDEST PUSH3 0x1D01 JUMP JUMPDEST CALLVALUE DUP1 ISZERO PUSH3 0x9CC JUMPI PUSH1 0x0 DUP1 REVERT JUMPDEST POP PUSH1 0x3 SLOAD PUSH1 0x1 PUSH1 0x1 PUSH1 0xA0 SHL SUB AND PUSH3 0x61A JUMP JUMPDEST CALLVALUE DUP1 ISZERO PUSH3 0x9EC JUMPI PUSH1 0x0 DUP1 REVERT JUMPDEST POP PUSH3 0x45F PUSH3 0x9FE CALLDATASIZE PUSH1 0x4 PUSH3 0x3DE4 JUMP JUMPDEST PUSH3 0x1FD6 JUMP JUMPDEST CALLVALUE DUP1 ISZERO PUSH3 0xA11 JUMPI PUSH1 0x0 DUP1 REVERT JUMPDEST POP PUSH3 0x4BE PUSH3 0xA23 CALLDATASIZE PUSH1 0x4 PUSH3 0x4268 JUMP JUMPDEST DUP1 MLOAD PUSH1 0x20 DUP2 DUP4 ADD DUP2 ADD DUP1 MLOAD PUSH1 0x1D DUP3 MSTORE SWAP3 DUP3 ADD SWAP2 SWAP1 SWAP4 ADD KECCAK256 SWAP2 MSTORE SLOAD PUSH1 0xFF AND DUP2 JUMP JUMPDEST CALLVALUE DUP1 ISZERO PUSH3 0xA50 JUMPI PUSH1 0x0 DUP1 REVERT JUMPDEST POP PUSH3 0x4BE PUSH3 0xA62 CALLDATASIZE PUSH1 0x4 PUSH3 0x3DE4 JUMP JUMPDEST PUSH1 0x1 PUSH1 0x1 PUSH1 0xA0 SHL SUB AND PUSH1 0x0 SWAP1 DUP2 MSTORE PUSH1 0x10 PUSH1 0x20 MSTORE PUSH1 0x40 SWAP1 KECCAK256 SLOAD PUSH1 0xFF AND SWAP1 JUMP JUMPDEST CALLVALUE DUP1 ISZERO PUSH3 0xA8D JUMPI PUSH1 0x0 DUP1 REVERT JUMPDEST POP PUSH3 0x45F PUSH3 0xA9F CALLDATASIZE PUSH1 0x4 PUSH3 0x3DE4 JUMP JUMPDEST PUSH3 0x2002 JUMP JUMPDEST CALLVALUE DUP1 ISZERO PUSH3 0xAB2 JUMPI PUSH1 0x0 DUP1 REVERT JUMPDEST POP PUSH3 0x61A PUSH3 0xAC4 CALLDATASIZE PUSH1 0x4 PUSH3 0x3D42 JUMP JUMPDEST PUSH1 0x1B PUSH1 0x20 MSTORE PUSH1 0x0 SWAP1 DUP2 MSTORE PUSH1 0x40 SWAP1 KECCAK256 SLOAD PUSH1 0x1 PUSH1 0x1 PUSH1 0xA0 SHL SUB AND DUP2 JUMP JUMPDEST CALLVALUE DUP1 ISZERO PUSH3 0xAEC JUMPI PUSH1 0x0 DUP1 REVERT JUMPDEST POP PUSH3 0x45F PUSH3 0x21C6 JUMP JUMPDEST CALLVALUE DUP1 ISZERO PUSH3 0xB04 JUMPI PUSH1 0x0 DUP1 REVERT JUMPDEST POP PUSH1 0xC SLOAD PUSH3 0x61A SWAP1 PUSH1 0x1 PUSH1 0x1 PUSH1 0xA0 SHL SUB AND DUP2 JUMP JUMPDEST CALLVALUE DUP1 ISZERO PUSH3 0xB26 JUMPI PUSH1 0x0 DUP1 REVERT JUMPDEST POP PUSH3 0x45F PUSH3 0xB38 CALLDATASIZE PUSH1 0x4 PUSH3 0x3EE7 JUMP JUMPDEST PUSH3 0x2254 JUMP JUMPDEST CALLVALUE DUP1 ISZERO PUSH3 0xB4B JUMPI PUSH1 0x0 DUP1 REVERT JUMPDEST POP PUSH1 0x1E SLOAD PUSH3 0x486 JUMP JUMPDEST CALLVALUE DUP1 ISZERO PUSH3 0xB62 JUMPI PUSH1 0x0 DUP1 REVERT JUMPDEST POP PUSH3 0x61A PUSH3 0xB74 CALLDATASIZE PUSH1 0x4 PUSH3 0x3DE4 JUMP JUMPDEST PUSH1 0x1A PUSH1 0x20 MSTORE PUSH1 0x0 SWAP1 DUP2 MSTORE PUSH1 0x40 SWAP1 KECCAK256 SLOAD PUSH1 0x1 PUSH1 0x1 PUSH1 0xA0 SHL SUB AND DUP2 JUMP JUMPDEST CALLVALUE DUP1 ISZERO PUSH3 0xB9C JUMPI PUSH1 0x0 DUP1 REVERT JUMPDEST POP PUSH3 0x486 PUSH1 0x6 SLOAD DUP2 JUMP JUMPDEST CALLVALUE DUP1 ISZERO PUSH3 0xBB4 JUMPI PUSH1 0x0 DUP1 REVERT JUMPDEST POP PUSH3 0x486 PUSH3 0xBC6 CALLDATASIZE PUSH1 0x4 PUSH3 0x3D42 JUMP JUMPDEST PUSH1 0x0 SWAP1 DUP2 MSTORE PUSH1 0x13 PUSH1 0x20 MSTORE PUSH1 0x40 SWAP1 KECCAK256 SLOAD SWAP1 JUMP JUMPDEST CALLVALUE DUP1 ISZERO PUSH3 0xBE5 JUMPI PUSH1 0x0 DUP1 REVERT JUMPDEST POP PUSH3 0x45F PUSH3 0xBF7 CALLDATASIZE PUSH1 0x4 PUSH3 0x3D42 JUMP JUMPDEST PUSH3 0x2265 JUMP JUMPDEST CALLVALUE DUP1 ISZERO PUSH3 0xC0A JUMPI PUSH1 0x0 DUP1 REVERT JUMPDEST POP PUSH3 0x486 PUSH3 0xC1C CALLDATASIZE PUSH1 0x4 PUSH3 0x3D42 JUMP JUMPDEST PUSH1 0x15 PUSH1 0x20 MSTORE PUSH1 0x0 SWAP1 DUP2 MSTORE PUSH1 0x40 SWAP1 KECCAK256 SLOAD DUP2 JUMP JUMPDEST CALLVALUE DUP1 ISZERO PUSH3 0xC3B JUMPI PUSH1 0x0 DUP1 REVERT JUMPDEST POP PUSH3 0x4BE PUSH3 0xC4D CALLDATASIZE PUSH1 0x4 PUSH3 0x3DE4 JUMP JUMPDEST PUSH1 0x12 PUSH1 0x20 MSTORE PUSH1 0x0 SWAP1 DUP2 MSTORE PUSH1 0x40 SWAP1 KECCAK256 SLOAD PUSH1 0xFF AND DUP2 JUMP JUMPDEST CALLVALUE DUP1 ISZERO PUSH3 0xC6F JUMPI PUSH1 0x0 DUP1 REVERT JUMPDEST POP PUSH1 0x4 SLOAD PUSH3 0x4BE SWAP1 PUSH1 0x1 PUSH1 0xA0 SHL SWAP1 DIV PUSH1 0xFF AND DUP2 JUMP JUMPDEST CALLVALUE DUP1 ISZERO PUSH3 0xC92 JUMPI PUSH1 0x0 DUP1 REVERT JUMPDEST POP PUSH3 0x4BE PUSH3 0xCA4 CALLDATASIZE PUSH1 0x4 PUSH3 0x3DE4 JUMP JUMPDEST PUSH1 0xF PUSH1 0x20 MSTORE PUSH1 0x0 SWAP1 DUP2 MSTORE PUSH1 0x40 SWAP1 KECCAK256 SLOAD PUSH1 0xFF AND DUP2 JUMP JUMPDEST CALLVALUE DUP1 ISZERO PUSH3 0xCC6 JUMPI PUSH1 0x0 DUP1 REVERT JUMPDEST POP PUSH3 0x45F PUSH3 0x27B3 JUMP JUMPDEST CALLVALUE DUP1 ISZERO PUSH3 0xCDE JUMPI PUSH1 0x0 DUP1 REVERT JUMPDEST POP PUSH3 0x61A PUSH3 0xCF0 CALLDATASIZE PUSH1 0x4 PUSH3 0x42A9 JUMP JUMPDEST PUSH3 0x283C JUMP JUMPDEST CALLVALUE DUP1 ISZERO PUSH3 0xD03 JUMPI PUSH1 0x0 DUP1 REVERT JUMPDEST POP PUSH3 0x45F PUSH3 0xD15 CALLDATASIZE PUSH1 0x4 PUSH3 0x42CC JUMP JUMPDEST PUSH3 0x2875 JUMP JUMPDEST CALLVALUE DUP1 ISZERO PUSH3 0xD28 JUMPI PUSH1 0x0 DUP1 REVERT JUMPDEST POP PUSH3 0x5D1 PUSH3 0xD3A CALLDATASIZE PUSH1 0x4 PUSH3 0x4268 JUMP JUMPDEST PUSH3 0x2F83 JUMP JUMPDEST CALLVALUE DUP1 ISZERO PUSH3 0xD4D JUMPI PUSH1 0x0 DUP1 REVERT JUMPDEST POP PUSH3 0x4BE PUSH3 0xD5F CALLDATASIZE PUSH1 0x4 PUSH3 0x3DE4 JUMP JUMPDEST PUSH1 0x10 PUSH1 0x20 MSTORE PUSH1 0x0 SWAP1 DUP2 MSTORE PUSH1 0x40 SWAP1 KECCAK256 SLOAD PUSH1 0xFF AND DUP2 JUMP JUMPDEST CALLVALUE DUP1 ISZERO PUSH3 0xD81 JUMPI PUSH1 0x0 DUP1 REVERT JUMPDEST POP PUSH3 0x4BE PUSH3 0xD93 CALLDATASIZE PUSH1 0x4 PUSH3 0x432D JUMP JUMPDEST PUSH1 0x1 PUSH1 0x1 PUSH1 0xA0 SHL SUB SWAP2 DUP3 AND PUSH1 0x0 SWAP1 DUP2 MSTORE PUSH1 0x1 PUSH1 0x20 SWAP1 DUP2 MSTORE PUSH1 0x40 DUP1 DUP4 KECCAK256 SWAP4 SWAP1 SWAP5 AND DUP3 MSTORE SWAP2 SWAP1 SWAP2 MSTORE KECCAK256 SLOAD PUSH1 0xFF AND SWAP1 JUMP JUMPDEST CALLVALUE DUP1 ISZERO PUSH3 0xDCE JUMPI PUSH1 0x0 DUP1 REVERT JUMPDEST POP PUSH3 0x45F PUSH3 0xDE0 CALLDATASIZE PUSH1 0x4 PUSH3 0x3DE4 JUMP JUMPDEST PUSH3 0x3030 JUMP JUMPDEST CALLVALUE DUP1 ISZERO PUSH3 0xDF3 JUMPI PUSH1 0x0 DUP1 REVERT JUMPDEST POP PUSH3 0x5D1 PUSH3 0xE05 CALLDATASIZE PUSH1 0x4 PUSH3 0x3D42 JUMP JUMPDEST PUSH3 0x305C JUMP JUMPDEST CALLVALUE DUP1 ISZERO PUSH3 0xE18 JUMPI PUSH1 0x0 DUP1 REVERT JUMPDEST POP PUSH3 0x54D PUSH3 0xE2A CALLDATASIZE PUSH1 0x4 PUSH3 0x3DE4 JUMP JUMPDEST PUSH3 0x3077 JUMP JUMPDEST CALLVALUE DUP1 ISZERO PUSH3 0xE3D JUMPI PUSH1 0x0 DUP1 REVERT JUMPDEST POP PUSH3 0x486 PUSH3 0xE4F CALLDATASIZE PUSH1 0x4 PUSH3 0x3DE4 JUMP JUMPDEST PUSH1 0x18 PUSH1 0x20 MSTORE PUSH1 0x0 SWAP1 DUP2 MSTORE PUSH1 0x40 SWAP1 KECCAK256 SLOAD DUP2 JUMP JUMPDEST CALLVALUE DUP1 ISZERO PUSH3 0xE6E JUMPI PUSH1 0x0 DUP1 REVERT JUMPDEST POP PUSH3 0x45F PUSH3 0x6E3 CALLDATASIZE PUSH1 0x4 PUSH3 0x4365 JUMP JUMPDEST CALLVALUE DUP1 ISZERO PUSH3 0xE8D JUMPI PUSH1 0x0 DUP1 REVERT JUMPDEST POP PUSH3 0x45F PUSH3 0xE9F CALLDATASIZE PUSH1 0x4 PUSH3 0x3DE4 JUMP JUMPDEST PUSH3 0x309B JUMP JUMPDEST CALLVALUE DUP1 ISZERO PUSH3 0xEB2 JUMPI PUSH1 0x0 DUP1 REVERT JUMPDEST POP PUSH3 0x486 PUSH1 0x7 SLOAD DUP2 JUMP JUMPDEST CALLVALUE DUP1 ISZERO PUSH3 0xECA JUMPI PUSH1 0x0 DUP1 REVERT JUMPDEST POP PUSH3 0x45F PUSH3 0xEDC CALLDATASIZE PUSH1 0x4 PUSH3 0x3D79 JUMP JUMPDEST PUSH3 0x3117 JUMP JUMPDEST CALLVALUE DUP1 ISZERO PUSH3 0xEEF JUMPI PUSH1 0x0 DUP1 REVERT JUMPDEST POP PUSH3 0xF07 PUSH3 0xF01 CALLDATASIZE PUSH1 0x4 PUSH3 0x3DE4 JUMP JUMPDEST PUSH3 0x31AC JUMP JUMPDEST PUSH1 0x40 MLOAD PUSH3 0x490 SWAP2 SWAP1 PUSH3 0x43D2 JUMP JUMPDEST PUSH3 0xF20 PUSH3 0x33B2 JUMP JUMPDEST PUSH1 0xD SSTORE JUMP JUMPDEST PUSH1 0x0 PUSH1 0x1 PUSH1 0x1 PUSH1 0xA0 SHL SUB DUP4 AND PUSH3 0xF96 JUMPI PUSH1 0x40 MLOAD PUSH3 0x461BCD PUSH1 0xE5 SHL DUP2 MSTORE PUSH1 0x20 PUSH1 0x4 DUP3 ADD MSTORE PUSH1 0x2A PUSH1 0x24 DUP3 ADD MSTORE PUSH32 0x455243313135353A2061646472657373207A65726F206973206E6F7420612076 PUSH1 0x44 DUP3 ADD MSTORE PUSH10 0x30B634B21037BBB732B9 PUSH1 0xB1 SHL PUSH1 0x64 DUP3 ADD MSTORE PUSH1 0x84 ADD JUMPDEST PUSH1 0x40 MLOAD DUP1 SWAP2 SUB SWAP1 REVERT JUMPDEST POP PUSH1 0x0 DUP2 DUP2 MSTORE PUSH1 0x20 DUP2 DUP2 MSTORE PUSH1 0x40 DUP1 DUP4 KECCAK256 PUSH1 0x1 PUSH1 0x1 PUSH1 0xA0 SHL SUB DUP7 AND DUP5 MSTORE SWAP1 SWAP2 MSTORE SWAP1 KECCAK256 SLOAD JUMPDEST SWAP3 SWAP2 POP POP JUMP JUMPDEST PUSH1 0x0 PUSH1 0x1 PUSH1 0x1 PUSH1 0xE0 SHL SUB NOT DUP3 AND PUSH4 0x6CDB3D13 PUSH1 0xE1 SHL EQ DUP1 PUSH3 0xFF1 JUMPI POP PUSH1 0x1 PUSH1 0x1 PUSH1 0xE0 SHL SUB NOT DUP3 AND PUSH4 0x3A24D07 PUSH1 0xE2 SHL EQ JUMPDEST DUP1 PUSH3 0xFB9 JUMPI POP PUSH4 0x1FFC9A7 PUSH1 0xE0 SHL PUSH1 0x1 PUSH1 0x1 PUSH1 0xE0 SHL SUB NOT DUP4 AND EQ PUSH3 0xFB9 JUMP JUMPDEST PUSH3 0x101C PUSH3 0x33B2 JUMP JUMPDEST PUSH1 0xA DUP1 SLOAD PUSH1 0x1 PUSH1 0x1 PUSH1 0xA0 SHL SUB NOT AND PUSH1 0x1 PUSH1 0x1 PUSH1 0xA0 SHL SUB SWAP3 SWAP1 SWAP3 AND SWAP2 SWAP1 SWAP2 OR SWAP1 SSTORE JUMP JUMPDEST PUSH1 0x17 PUSH1 0x20 MSTORE PUSH1 0x0 SWAP1 DUP2 MSTORE PUSH1 0x40 SWAP1 KECCAK256 DUP1 SLOAD PUSH1 0x1 DUP3 ADD DUP1 SLOAD SWAP2 SWAP3 SWAP2 PUSH3 0x1062 SWAP1 PUSH3 0x4471 JUMP JUMPDEST DUP1 PUSH1 0x1F ADD PUSH1 0x20 DUP1 SWAP2 DIV MUL PUSH1 0x20 ADD PUSH1 0x40 MLOAD SWAP1 DUP2 ADD PUSH1 0x40 MSTORE DUP1 SWAP3 SWAP2 SWAP1 DUP2 DUP2 MSTORE PUSH1 0x20 ADD DUP3 DUP1 SLOAD PUSH3 0x1090 SWAP1 PUSH3 0x4471 JUMP JUMPDEST DUP1 ISZERO PUSH3 0x10E1 JUMPI DUP1 PUSH1 0x1F LT PUSH3 0x10B5 JUMPI PUSH2 0x100 DUP1 DUP4 SLOAD DIV MUL DUP4 MSTORE SWAP2 PUSH1 0x20 ADD SWAP2 PUSH3 0x10E1 JUMP JUMPDEST DUP3 ADD SWAP2 SWAP1 PUSH1 0x0 MSTORE PUSH1 0x20 PUSH1 0x0 KECCAK256 SWAP1 JUMPDEST DUP2 SLOAD DUP2 MSTORE SWAP1 PUSH1 0x1 ADD SWAP1 PUSH1 0x20 ADD DUP1 DUP4 GT PUSH3 0x10C3 JUMPI DUP3 SWAP1 SUB PUSH1 0x1F AND DUP3 ADD SWAP2 JUMPDEST POP POP POP PUSH1 0x2 DUP5 ADD SLOAD PUSH1 0x3 DUP6 ADD SLOAD PUSH1 0x4 DUP7 ADD SLOAD PUSH1 0x5 DUP8 ADD SLOAD PUSH1 0x6 DUP9 ADD SLOAD PUSH1 0x7 DUP10 ADD DUP1 SLOAD SWAP9 SWAP10 PUSH1 0x1 PUSH1 0x1 PUSH1 0xA0 SHL SUB SWAP7 DUP8 AND SWAP10 SWAP6 SWAP9 POP SWAP4 SWAP7 POP SWAP2 SWAP1 SWAP5 AND SWAP4 SWAP3 PUSH3 0x1128 SWAP1 PUSH3 0x4471 JUMP JUMPDEST DUP1 PUSH1 0x1F ADD PUSH1 0x20 DUP1 SWAP2 DIV MUL PUSH1 0x20 ADD PUSH1 0x40 MLOAD SWAP1 DUP2 ADD PUSH1 0x40 MSTORE DUP1 SWAP3 SWAP2 SWAP1 DUP2 DUP2 MSTORE PUSH1 0x20 ADD DUP3 DUP1 SLOAD PUSH3 0x1156 SWAP1 PUSH3 0x4471 JUMP JUMPDEST DUP1 ISZERO PUSH3 0x11A7 JUMPI DUP1 PUSH1 0x1F LT PUSH3 0x117B JUMPI PUSH2 0x100 DUP1 DUP4 SLOAD DIV MUL DUP4 MSTORE SWAP2 PUSH1 0x20 ADD SWAP2 PUSH3 0x11A7 JUMP JUMPDEST DUP3 ADD SWAP2 SWAP1 PUSH1 0x0 MSTORE PUSH1 0x20 PUSH1 0x0 KECCAK256 SWAP1 JUMPDEST DUP2 SLOAD DUP2 MSTORE SWAP1 PUSH1 0x1 ADD SWAP1 PUSH1 0x20 ADD DUP1 DUP4 GT PUSH3 0x1189 JUMPI DUP3 SWAP1 SUB PUSH1 0x1F AND DUP3 ADD SWAP2 JUMPDEST POP POP POP POP POP SWAP1 POP DUP9 JUMP JUMPDEST PUSH1 0x60 PUSH1 0x2 DUP1 SLOAD PUSH3 0x11C2 SWAP1 PUSH3 0x4471 JUMP JUMPDEST DUP1 PUSH1 0x1F ADD PUSH1 0x20 DUP1 SWAP2 DIV MUL PUSH1 0x20 ADD PUSH1 0x40 MLOAD SWAP1 DUP2 ADD PUSH1 0x40 MSTORE DUP1 SWAP3 SWAP2 SWAP1 DUP2 DUP2 MSTORE PUSH1 0x20 ADD DUP3 DUP1 SLOAD PUSH3 0x11F0 SWAP1 PUSH3 0x4471 JUMP JUMPDEST DUP1 ISZERO PUSH3 0x1241 JUMPI DUP1 PUSH1 0x1F LT PUSH3 0x1215 JUMPI PUSH2 0x100 DUP1 DUP4 SLOAD DIV MUL DUP4 MSTORE SWAP2 PUSH1 0x20 ADD SWAP2 PUSH3 0x1241 JUMP JUMPDEST DUP3 ADD SWAP2 SWAP1 PUSH1 0x0 MSTORE PUSH1 0x20 PUSH1 0x0 KECCAK256 SWAP1 JUMPDEST DUP2 SLOAD DUP2 MSTORE SWAP1 PUSH1 0x1 ADD SWAP1 PUSH1 0x20 ADD DUP1 DUP4 GT PUSH3 0x1223 JUMPI DUP3 SWAP1 SUB PUSH1 0x1F AND DUP3 ADD SWAP2 JUMPDEST POP POP POP POP POP SWAP1 POP SWAP2 SWAP1 POP JUMP JUMPDEST PUSH3 0x1257 PUSH3 0x33B2 JUMP JUMPDEST PUSH1 0x8 SSTORE JUMP JUMPDEST PUSH3 0x1266 PUSH3 0x33B2 JUMP JUMPDEST PUSH1 0x1 PUSH1 0x1 PUSH1 0xA0 SHL SUB SWAP2 SWAP1 SWAP2 AND PUSH1 0x0 SWAP1 DUP2 MSTORE PUSH1 0xF PUSH1 0x20 MSTORE PUSH1 0x40 SWAP1 KECCAK256 DUP1 SLOAD PUSH1 0xFF NOT AND SWAP2 ISZERO ISZERO SWAP2 SWAP1 SWAP2 OR SWAP1 SSTORE JUMP JUMPDEST PUSH3 0x129B PUSH3 0x33B2 JUMP JUMPDEST PUSH1 0xC DUP1 SLOAD PUSH1 0x1 PUSH1 0x1 PUSH1 0xA0 SHL SUB NOT AND PUSH1 0x1 PUSH1 0x1 PUSH1 0xA0 SHL SUB SWAP3 SWAP1 SWAP3 AND SWAP2 SWAP1 SWAP2 OR SWAP1 SSTORE JUMP JUMPDEST PUSH1 0x40 MLOAD PUSH3 0x461BCD PUSH1 0xE5 SHL DUP2 MSTORE PUSH1 0x20 PUSH1 0x4 DUP3 ADD MSTORE PUSH1 0xF PUSH1 0x24 DUP3 ADD MSTORE PUSH15 0x3737BA103A37903A3930B739B332B9 PUSH1 0x89 SHL PUSH1 0x44 DUP3 ADD MSTORE PUSH1 0x64 ADD PUSH3 0xF8D JUMP JUMPDEST PUSH1 0x5 SLOAD PUSH1 0x1 PUSH1 0x1 PUSH1 0xA0 SHL SUB AND CALLER EQ PUSH3 0x1345 JUMPI PUSH1 0x40 MLOAD PUSH3 0x461BCD PUSH1 0xE5 SHL DUP2 MSTORE PUSH1 0x20 PUSH1 0x4 DUP3 ADD MSTORE PUSH1 0xE PUSH1 0x24 DUP3 ADD MSTORE PUSH14 0x31B0B6363130B1B59032B93937B9 PUSH1 0x91 SHL PUSH1 0x44 DUP3 ADD MSTORE PUSH1 0x64 ADD PUSH3 0xF8D JUMP JUMPDEST PUSH1 0x1 PUSH1 0x1 PUSH1 0xA0 SHL SUB DUP3 AND PUSH1 0x0 SWAP1 DUP2 MSTORE PUSH1 0x10 PUSH1 0x20 MSTORE PUSH1 0x40 SWAP1 KECCAK256 SLOAD PUSH1 0xFF AND PUSH3 0x13A0 JUMPI PUSH1 0x40 MLOAD PUSH3 0x461BCD PUSH1 0xE5 SHL DUP2 MSTORE PUSH1 0x20 PUSH1 0x4 DUP3 ADD MSTORE PUSH1 0xE PUSH1 0x24 DUP3 ADD MSTORE PUSH14 0x31B0B6363130B1B59032B93937B9 PUSH1 0x91 SHL PUSH1 0x44 DUP3 ADD MSTORE PUSH1 0x64 ADD PUSH3 0xF8D JUMP JUMPDEST PUSH1 0x0 PUSH1 0xA PUSH1 0xD SLOAD DUP4 PUSH3 0x13B4 SWAP2 SWAP1 PUSH3 0x44C3 JUMP JUMPDEST PUSH3 0x13C0 SWAP2 SWAP1 PUSH3 0x44DD JUMP JUMPDEST SWAP1 POP PUSH1 0x0 PUSH1 0xA PUSH1 0xD SLOAD PUSH1 0xA PUSH3 0x13D7 SWAP2 SWAP1 PUSH3 0x4500 JUMP JUMPDEST PUSH3 0x13E3 SWAP1 DUP6 PUSH3 0x44C3 JUMP JUMPDEST PUSH3 0x13EF SWAP2 SWAP1 PUSH3 0x44DD JUMP JUMPDEST PUSH1 0x1 PUSH1 0x1 PUSH1 0xA0 SHL SUB DUP1 DUP7 AND PUSH1 0x0 DUP2 DUP2 MSTORE PUSH1 0x14 PUSH1 0x20 SWAP1 DUP2 MSTORE PUSH1 0x40 DUP1 DUP4 KECCAK256 SLOAD DUP4 MSTORE PUSH1 0x19 DUP3 MSTORE DUP1 DUP4 KECCAK256 SLOAD SWAP4 DUP4 MSTORE PUSH1 0x1A SWAP1 SWAP2 MSTORE DUP2 KECCAK256 SLOAD SWAP4 SWAP5 POP SWAP1 DUP3 AND SWAP3 SWAP1 SWAP2 AND SWAP1 CALLVALUE SWAP1 SUB PUSH3 0x146E JUMPI PUSH1 0x4 SLOAD PUSH3 0x144E SWAP1 PUSH1 0x1 PUSH1 0x1 PUSH1 0xA0 SHL SUB AND DUP8 DUP5 DUP8 PUSH3 0x35AC JUMP JUMPDEST PUSH1 0x4 SLOAD PUSH3 0x1468 SWAP1 PUSH1 0x1 PUSH1 0x1 PUSH1 0xA0 SHL SUB AND DUP8 DUP4 DUP7 PUSH3 0x35AC JUMP JUMPDEST PUSH3 0x160F JUMP JUMPDEST DUP5 CALLVALUE EQ PUSH3 0x14B3 JUMPI PUSH1 0x40 MLOAD PUSH3 0x461BCD PUSH1 0xE5 SHL DUP2 MSTORE PUSH1 0x20 PUSH1 0x4 DUP3 ADD MSTORE PUSH1 0x11 PUSH1 0x24 DUP3 ADD MSTORE PUSH17 0x496E76616C6964204554482076616C7565 PUSH1 0x78 SHL PUSH1 0x44 DUP3 ADD MSTORE PUSH1 0x64 ADD PUSH3 0xF8D JUMP JUMPDEST PUSH1 0x4 DUP1 SLOAD PUSH1 0x40 DUP1 MLOAD PUSH4 0xD0E30DB PUSH1 0xE4 SHL DUP2 MSTORE SWAP1 MLOAD PUSH1 0x1 PUSH1 0x1 PUSH1 0xA0 SHL SUB SWAP1 SWAP3 AND SWAP3 PUSH4 0xD0E30DB0 SWAP3 DUP10 SWAP3 DUP1 DUP4 ADD SWAP3 PUSH1 0x0 SWAP3 SWAP2 DUP3 SWAP1 SUB ADD DUP2 DUP6 DUP9 DUP1 EXTCODESIZE ISZERO DUP1 ISZERO PUSH3 0x14F9 JUMPI PUSH1 0x0 DUP1 REVERT JUMPDEST POP GAS CALL ISZERO DUP1 ISZERO PUSH3 0x150E JUMPI RETURNDATASIZE PUSH1 0x0 DUP1 RETURNDATACOPY RETURNDATASIZE PUSH1 0x0 REVERT JUMPDEST POP POP PUSH1 0x4 DUP1 SLOAD PUSH1 0x40 MLOAD PUSH4 0xA9059CBB PUSH1 0xE0 SHL DUP2 MSTORE PUSH1 0x1 PUSH1 0x1 PUSH1 0xA0 SHL SUB DUP9 DUP2 AND SWAP4 DUP3 ADD SWAP4 SWAP1 SWAP4 MSTORE PUSH1 0x24 DUP2 ADD DUP11 SWAP1 MSTORE SWAP2 AND SWAP4 POP PUSH4 0xA9059CBB SWAP3 POP PUSH1 0x44 ADD SWAP1 POP PUSH1 0x20 PUSH1 0x40 MLOAD DUP1 DUP4 SUB DUP2 PUSH1 0x0 DUP8 GAS CALL ISZERO DUP1 ISZERO PUSH3 0x156A JUMPI RETURNDATASIZE PUSH1 0x0 DUP1 RETURNDATACOPY RETURNDATASIZE PUSH1 0x0 REVERT JUMPDEST POP POP POP POP PUSH1 0x40 MLOAD RETURNDATASIZE PUSH1 0x1F NOT PUSH1 0x1F DUP3 ADD AND DUP3 ADD DUP1 PUSH1 0x40 MSTORE POP DUP2 ADD SWAP1 PUSH3 0x1590 SWAP2 SWAP1 PUSH3 0x4516 JUMP JUMPDEST POP PUSH1 0x4 DUP1 SLOAD PUSH1 0x40 MLOAD PUSH4 0xA9059CBB PUSH1 0xE0 SHL DUP2 MSTORE PUSH1 0x1 PUSH1 0x1 PUSH1 0xA0 SHL SUB DUP5 DUP2 AND SWAP4 DUP3 ADD SWAP4 SWAP1 SWAP4 MSTORE PUSH1 0x24 DUP2 ADD DUP7 SWAP1 MSTORE SWAP2 AND SWAP1 PUSH4 0xA9059CBB SWAP1 PUSH1 0x44 ADD PUSH1 0x20 PUSH1 0x40 MLOAD DUP1 DUP4 SUB DUP2 PUSH1 0x0 DUP8 GAS CALL ISZERO DUP1 ISZERO PUSH3 0x15E7 JUMPI RETURNDATASIZE PUSH1 0x0 DUP1 RETURNDATACOPY RETURNDATASIZE PUSH1 0x0 REVERT JUMPDEST POP POP POP POP PUSH1 0x40 MLOAD RETURNDATASIZE PUSH1 0x1F NOT PUSH1 0x1F DUP3 ADD AND DUP3 ADD DUP1 PUSH1 0x40 MSTORE POP DUP2 ADD SWAP1 PUSH3 0x160D SWAP2 SWAP1 PUSH3 0x4516 JUMP JUMPDEST POP JUMPDEST PUSH1 0x1 PUSH1 0x1 PUSH1 0xA0 SHL SUB DUP7 AND PUSH1 0x0 SWAP1 DUP2 MSTORE PUSH1 0x18 PUSH1 0x20 MSTORE PUSH1 0x40 DUP2 KECCAK256 DUP1 SLOAD DUP8 SWAP3 SWAP1 PUSH3 0x1639 SWAP1 DUP5 SWAP1 PUSH3 0x4536 JUMP JUMPDEST SWAP1 SWAP2 SSTORE POP POP POP POP POP POP POP POP JUMP JUMPDEST PUSH1 0x4 SLOAD PUSH1 0x1 PUSH1 0xA0 SHL SWAP1 DIV PUSH1 0xFF AND ISZERO PUSH3 0x1673 JUMPI PUSH1 0x40 MLOAD PUSH3 0x461BCD PUSH1 0xE5 SHL DUP2 MSTORE PUSH1 0x4 ADD PUSH3 0xF8D SWAP1 PUSH3 0x454C JUMP JUMPDEST CALLER PUSH1 0x0 SWAP1 DUP2 MSTORE PUSH1 0x10 PUSH1 0x20 MSTORE PUSH1 0x40 SWAP1 KECCAK256 SLOAD PUSH1 0xFF AND PUSH3 0x16D4 JUMPI PUSH1 0x40 MLOAD PUSH3 0x461BCD PUSH1 0xE5 SHL DUP2 MSTORE PUSH1 0x20 PUSH1 0x4 DUP3 ADD MSTORE PUSH1 0x1D PUSH1 0x24 DUP3 ADD MSTORE PUSH32 0x796F7520686176656E2774206A6F696E20616E7920636974796E6F6465000000 PUSH1 0x44 DUP3 ADD MSTORE PUSH1 0x64 ADD PUSH3 0xF8D JUMP JUMPDEST CALLER PUSH1 0x0 SWAP1 DUP2 MSTORE PUSH1 0x14 PUSH1 0x20 MSTORE PUSH1 0x40 SWAP1 KECCAK256 SLOAD DUP2 EQ PUSH3 0x1734 JUMPI PUSH1 0x40 MLOAD PUSH3 0x461BCD PUSH1 0xE5 SHL DUP2 MSTORE PUSH1 0x20 PUSH1 0x4 DUP3 ADD MSTORE PUSH1 0x18 PUSH1 0x24 DUP3 ADD MSTORE PUSH32 0x796F75206973206E6F7420636974796E6F646520757365720000000000000000 PUSH1 0x44 DUP3 ADD MSTORE PUSH1 0x64 ADD PUSH3 0xF8D JUMP JUMPDEST CALLER PUSH1 0x0 JUMPDEST PUSH1 0x0 DUP4 DUP2 MSTORE PUSH1 0x13 PUSH1 0x20 MSTORE PUSH1 0x40 SWAP1 KECCAK256 SLOAD DUP2 LT ISZERO PUSH3 0x1889 JUMPI PUSH1 0x0 DUP4 DUP2 MSTORE PUSH1 0x13 PUSH1 0x20 MSTORE PUSH1 0x40 SWAP1 KECCAK256 DUP1 SLOAD PUSH1 0x1 PUSH1 0x1 PUSH1 0xA0 SHL SUB DUP5 AND SWAP2 SWAP1 DUP4 SWAP1 DUP2 LT PUSH3 0x177E JUMPI PUSH3 0x177E PUSH3 0x4575 JUMP JUMPDEST PUSH1 0x0 SWAP2 DUP3 MSTORE PUSH1 0x20 SWAP1 SWAP2 KECCAK256 ADD SLOAD PUSH1 0x1 PUSH1 0x1 PUSH1 0xA0 SHL SUB AND SUB PUSH3 0x1874 JUMPI PUSH1 0x0 DUP4 DUP2 MSTORE PUSH1 0x13 PUSH1 0x20 MSTORE PUSH1 0x40 SWAP1 KECCAK256 DUP1 SLOAD PUSH3 0x17B7 SWAP1 PUSH1 0x1 SWAP1 PUSH3 0x4500 JUMP JUMPDEST DUP2 SLOAD DUP2 LT PUSH3 0x17CA JUMPI PUSH3 0x17CA PUSH3 0x4575 JUMP JUMPDEST PUSH1 0x0 SWAP2 DUP3 MSTORE PUSH1 0x20 DUP1 DUP4 KECCAK256 SWAP1 SWAP2 ADD SLOAD DUP6 DUP4 MSTORE PUSH1 0x13 SWAP1 SWAP2 MSTORE PUSH1 0x40 SWAP1 SWAP2 KECCAK256 DUP1 SLOAD PUSH1 0x1 PUSH1 0x1 PUSH1 0xA0 SHL SUB SWAP1 SWAP3 AND SWAP2 DUP4 SWAP1 DUP2 LT PUSH3 0x1806 JUMPI PUSH3 0x1806 PUSH3 0x4575 JUMP JUMPDEST PUSH1 0x0 SWAP2 DUP3 MSTORE PUSH1 0x20 DUP1 DUP4 KECCAK256 SWAP2 SWAP1 SWAP2 ADD DUP1 SLOAD PUSH1 0x1 PUSH1 0x1 PUSH1 0xA0 SHL SUB NOT AND PUSH1 0x1 PUSH1 0x1 PUSH1 0xA0 SHL SUB SWAP5 SWAP1 SWAP5 AND SWAP4 SWAP1 SWAP4 OR SWAP1 SWAP3 SSTORE DUP5 DUP2 MSTORE PUSH1 0x13 SWAP1 SWAP2 MSTORE PUSH1 0x40 SWAP1 KECCAK256 DUP1 SLOAD DUP1 PUSH3 0x1851 JUMPI PUSH3 0x1851 PUSH3 0x458B JUMP JUMPDEST PUSH1 0x0 DUP3 DUP2 MSTORE PUSH1 0x20 SWAP1 KECCAK256 DUP2 ADD PUSH1 0x0 NOT SWAP1 DUP2 ADD DUP1 SLOAD PUSH1 0x1 PUSH1 0x1 PUSH1 0xA0 SHL SUB NOT AND SWAP1 SSTORE ADD SWAP1 SSTORE JUMPDEST DUP1 PUSH3 0x1880 DUP2 PUSH3 0x45A1 JUMP JUMPDEST SWAP2 POP POP PUSH3 0x1738 JUMP JUMPDEST POP CALLER PUSH1 0x0 DUP2 DUP2 MSTORE PUSH1 0x14 PUSH1 0x20 MSTORE PUSH1 0x40 SWAP1 KECCAK256 SLOAD PUSH3 0x18A8 SWAP2 SWAP1 PUSH1 0x1 PUSH3 0x36DE JUMP JUMPDEST POP POP CALLER PUSH1 0x0 SWAP1 DUP2 MSTORE PUSH1 0x10 PUSH1 0x20 MSTORE PUSH1 0x40 SWAP1 KECCAK256 DUP1 SLOAD PUSH1 0xFF NOT AND SWAP1 SSTORE JUMP JUMPDEST PUSH1 0x1E DUP2 DUP2 SLOAD DUP2 LT PUSH3 0x18D4 JUMPI PUSH1 0x0 DUP1 REVERT JUMPDEST PUSH1 0x0 SWAP2 DUP3 MSTORE PUSH1 0x20 SWAP1 SWAP2 KECCAK256 PUSH1 0x8 SWAP1 SWAP2 MUL ADD DUP1 SLOAD PUSH1 0x1 DUP3 ADD DUP1 SLOAD SWAP2 SWAP4 POP SWAP1 PUSH3 0x1062 SWAP1 PUSH3 0x4471 JUMP JUMPDEST PUSH1 0xA SLOAD PUSH1 0x0 SWAP1 PUSH1 0x1 PUSH1 0x1 PUSH1 0xA0 SHL SUB AND CALLER EQ PUSH3 0x1953 JUMPI PUSH1 0x40 MLOAD PUSH3 0x461BCD PUSH1 0xE5 SHL DUP2 MSTORE PUSH1 0x20 PUSH1 0x4 DUP3 ADD MSTORE PUSH1 0x16 PUSH1 0x24 DUP3 ADD MSTORE PUSH22 0x10DA5D1E539BD9194E881A5B9D985B1A590818D85B1B PUSH1 0x52 SHL PUSH1 0x44 DUP3 ADD MSTORE PUSH1 0x64 ADD PUSH3 0xF8D JUMP JUMPDEST POP PUSH1 0x1 PUSH1 0x1 PUSH1 0xA0 SHL SUB SWAP1 DUP2 AND PUSH1 0x0 SWAP1 DUP2 MSTORE PUSH1 0x14 PUSH1 0x20 SWAP1 DUP2 MSTORE PUSH1 0x40 DUP1 DUP4 KECCAK256 SLOAD DUP4 MSTORE PUSH1 0x1B SWAP1 SWAP2 MSTORE SWAP1 KECCAK256 SLOAD AND SWAP1 JUMP JUMPDEST PUSH1 0x60 DUP2 MLOAD DUP4 MLOAD EQ PUSH3 0x19E6 JUMPI PUSH1 0x40 MLOAD PUSH3 0x461BCD PUSH1 0xE5 SHL DUP2 MSTORE PUSH1 0x20 PUSH1 0x4 DUP3 ADD MSTORE PUSH1 0x29 PUSH1 0x24 DUP3 ADD MSTORE PUSH32 0x455243313135353A206163636F756E747320616E6420696473206C656E677468 PUSH1 0x44 DUP3 ADD MSTORE PUSH9 0x40DAD2E6DAC2E8C6D PUSH1 0xBB SHL PUSH1 0x64 DUP3 ADD MSTORE PUSH1 0x84 ADD PUSH3 0xF8D JUMP JUMPDEST PUSH1 0x0 DUP4 MLOAD PUSH8 0xFFFFFFFFFFFFFFFF DUP2 GT ISZERO PUSH3 0x1A05 JUMPI PUSH3 0x1A05 PUSH3 0x3F23 JUMP JUMPDEST PUSH1 0x40 MLOAD SWAP1 DUP1 DUP3 MSTORE DUP1 PUSH1 0x20 MUL PUSH1 0x20 ADD DUP3 ADD PUSH1 0x40 MSTORE DUP1 ISZERO PUSH3 0x1A2F JUMPI DUP2 PUSH1 0x20 ADD PUSH1 0x20 DUP3 MUL DUP1 CALLDATASIZE DUP4 CALLDATACOPY ADD SWAP1 POP JUMPDEST POP SWAP1 POP PUSH1 0x0 JUMPDEST DUP5 MLOAD DUP2 LT ISZERO PUSH3 0x1AB6 JUMPI PUSH3 0x1A83 DUP6 DUP3 DUP2 MLOAD DUP2 LT PUSH3 0x1A58 JUMPI PUSH3 0x1A58 PUSH3 0x4575 JUMP JUMPDEST PUSH1 0x20 MUL PUSH1 0x20 ADD ADD MLOAD DUP6 DUP4 DUP2 MLOAD DUP2 LT PUSH3 0x1A75 JUMPI PUSH3 0x1A75 PUSH3 0x4575 JUMP JUMPDEST PUSH1 0x20 MUL PUSH1 0x20 ADD ADD MLOAD PUSH3 0xF25 JUMP JUMPDEST DUP3 DUP3 DUP2 MLOAD DUP2 LT PUSH3 0x1A98 JUMPI PUSH3 0x1A98 PUSH3 0x4575 JUMP JUMPDEST PUSH1 0x20 SWAP1 DUP2 MUL SWAP2 SWAP1 SWAP2 ADD ADD MSTORE PUSH3 0x1AAE DUP2 PUSH3 0x45A1 JUMP JUMPDEST SWAP1 POP PUSH3 0x1A35 JUMP JUMPDEST POP SWAP4 SWAP3 POP POP POP JUMP JUMPDEST PUSH3 0x1AC8 PUSH3 0x33B2 JUMP JUMPDEST PUSH1 0x7 SSTORE JUMP JUMPDEST PUSH1 0x0 DUP1 PUSH1 0x0 JUMPDEST PUSH1 0x0 DUP5 DUP2 MSTORE PUSH1 0x13 PUSH1 0x20 MSTORE PUSH1 0x40 SWAP1 KECCAK256 SLOAD DUP2 LT ISZERO PUSH3 0x1BBD JUMPI PUSH1 0xC SLOAD PUSH1 0x0 DUP6 DUP2 MSTORE PUSH1 0x13 PUSH1 0x20 MSTORE PUSH1 0x40 SWAP1 KECCAK256 DUP1 SLOAD PUSH1 0x1 PUSH1 0x1 PUSH1 0xA0 SHL SUB SWAP1 SWAP3 AND SWAP2 PUSH4 0x14AB313 SWAP2 SWAP1 DUP5 SWAP1 DUP2 LT PUSH3 0x1B23 JUMPI PUSH3 0x1B23 PUSH3 0x4575 JUMP JUMPDEST PUSH1 0x0 SWAP2 DUP3 MSTORE PUSH1 0x20 SWAP1 SWAP2 KECCAK256 ADD SLOAD PUSH1 0x40 MLOAD PUSH1 0xE0 DUP4 SWAP1 SHL PUSH1 0x1 PUSH1 0x1 PUSH1 0xE0 SHL SUB NOT AND DUP2 MSTORE PUSH1 0x1 PUSH1 0x1 PUSH1 0xA0 SHL SUB SWAP1 SWAP2 AND PUSH1 0x4 DUP3 ADD MSTORE PUSH1 0x24 ADD PUSH1 0x20 PUSH1 0x40 MLOAD DUP1 DUP4 SUB DUP2 DUP7 GAS STATICCALL ISZERO DUP1 ISZERO PUSH3 0x1B74 JUMPI RETURNDATASIZE PUSH1 0x0 DUP1 RETURNDATACOPY RETURNDATASIZE PUSH1 0x0 REVERT JUMPDEST POP POP POP POP PUSH1 0x40 MLOAD RETURNDATASIZE PUSH1 0x1F NOT PUSH1 0x1F DUP3 ADD AND DUP3 ADD DUP1 PUSH1 0x40 MSTORE POP DUP2 ADD SWAP1 PUSH3 0x1B9A SWAP2 SWAP1 PUSH3 0x45BD JUMP JUMPDEST PUSH3 0x1BA6 SWAP1 DUP4 PUSH3 0x4536 JUMP JUMPDEST SWAP2 POP DUP1 PUSH3 0x1BB4 DUP2 PUSH3 0x45A1 JUMP JUMPDEST SWAP2 POP POP PUSH3 0x1AD3 JUMP JUMPDEST POP SWAP3 SWAP2 POP POP JUMP JUMPDEST PUSH3 0x1BCE PUSH3 0x33B2 JUMP JUMPDEST PUSH3 0x1BDA PUSH1 0x0 PUSH3 0x3867 JUMP JUMPDEST JUMP JUMPDEST PUSH3 0x1BE6 PUSH3 0x33B2 JUMP JUMPDEST PUSH1 0x9 DUP1 SLOAD PUSH1 0x1 PUSH1 0x1 PUSH1 0xA0 SHL SUB NOT AND PUSH1 0x1 PUSH1 0x1 PUSH1 0xA0 SHL SUB SWAP3 SWAP1 SWAP3 AND SWAP2 SWAP1 SWAP2 OR SWAP1 SSTORE JUMP JUMPDEST PUSH3 0x1C12 PUSH3 0x33B2 JUMP JUMPDEST PUSH1 0x4 DUP1 SLOAD PUSH1 0x40 MLOAD PUSH4 0x70A08231 PUSH1 0xE0 SHL DUP2 MSTORE ADDRESS SWAP3 DUP2 ADD SWAP3 SWAP1 SWAP3 MSTORE PUSH1 0x1 PUSH1 0x1 PUSH1 0xA0 SHL SUB AND SWAP1 PUSH4 0xA9059CBB SWAP1 CALLER SWAP1 DUP4 SWAP1 PUSH4 0x70A08231 SWAP1 PUSH1 0x24 ADD PUSH1 0x20 PUSH1 0x40 MLOAD DUP1 DUP4 SUB DUP2 DUP7 GAS STATICCALL ISZERO DUP1 ISZERO PUSH3 0x1C66 JUMPI RETURNDATASIZE PUSH1 0x0 DUP1 RETURNDATACOPY RETURNDATASIZE PUSH1 0x0 REVERT JUMPDEST POP POP POP POP PUSH1 0x40 MLOAD RETURNDATASIZE PUSH1 0x1F NOT PUSH1 0x1F DUP3 ADD AND DUP3 ADD DUP1 PUSH1 0x40 MSTORE POP DUP2 ADD SWAP1 PUSH3 0x1C8C SWAP2 SWAP1 PUSH3 0x45BD JUMP JUMPDEST PUSH1 0x40 MLOAD PUSH1 0x1 PUSH1 0x1 PUSH1 0xE0 SHL SUB NOT PUSH1 0xE0 DUP6 SWAP1 SHL AND DUP2 MSTORE PUSH1 0x1 PUSH1 0x1 PUSH1 0xA0 SHL SUB SWAP1 SWAP3 AND PUSH1 0x4 DUP4 ADD MSTORE PUSH1 0x24 DUP3 ADD MSTORE PUSH1 0x44 ADD PUSH1 0x20 PUSH1 0x40 MLOAD DUP1 DUP4 SUB DUP2 PUSH1 0x0 DUP8 GAS CALL ISZERO DUP1 ISZERO PUSH3 0x1CD8 JUMPI RETURNDATASIZE PUSH1 0x0 DUP1 RETURNDATACOPY RETURNDATASIZE PUSH1 0x0 REVERT JUMPDEST POP POP POP POP PUSH1 0x40 MLOAD RETURNDATASIZE PUSH1 0x1F NOT PUSH1 0x1F DUP3 ADD AND DUP3 ADD DUP1 PUSH1 0x40 MSTORE POP DUP2 ADD SWAP1 PUSH3 0x1CFE SWAP2 SWAP1 PUSH3 0x4516 JUMP JUMPDEST POP JUMP JUMPDEST PUSH1 0x4 SLOAD PUSH1 0x1 PUSH1 0xA0 SHL SWAP1 DIV PUSH1 0xFF AND ISZERO PUSH3 0x1D58 JUMPI PUSH1 0x40 MLOAD PUSH3 0x461BCD PUSH1 0xE5 SHL DUP2 MSTORE PUSH1 0x20 PUSH1 0x4 DUP3 ADD MSTORE PUSH1 0x18 PUSH1 0x24 DUP3 ADD MSTORE PUSH24 0x436F6E7472616374207374617475732069732066616C7365 PUSH1 0x40 SHL PUSH1 0x44 DUP3 ADD MSTORE PUSH1 0x64 ADD PUSH3 0xF8D JUMP JUMPDEST PUSH1 0xB SLOAD PUSH1 0x40 MLOAD PUSH4 0x1238E331 PUSH1 0xE3 SHL DUP2 MSTORE CALLER PUSH1 0x4 DUP3 ADD MSTORE PUSH1 0x1 PUSH1 0x1 PUSH1 0xA0 SHL SUB SWAP1 SWAP2 AND SWAP1 PUSH4 0x91C71988 SWAP1 PUSH1 0x24 ADD PUSH1 0x20 PUSH1 0x40 MLOAD DUP1 DUP4 SUB DUP2 DUP7 GAS STATICCALL ISZERO DUP1 ISZERO PUSH3 0x1DA1 JUMPI RETURNDATASIZE PUSH1 0x0 DUP1 RETURNDATACOPY RETURNDATASIZE PUSH1 0x0 REVERT JUMPDEST POP POP POP POP PUSH1 0x40 MLOAD RETURNDATASIZE PUSH1 0x1F NOT PUSH1 0x1F DUP3 ADD AND DUP3 ADD DUP1 PUSH1 0x40 MSTORE POP DUP2 ADD SWAP1 PUSH3 0x1DC7 SWAP2 SWAP1 PUSH3 0x4516 JUMP JUMPDEST PUSH3 0x1E30 JUMPI PUSH1 0x40 MLOAD PUSH3 0x461BCD PUSH1 0xE5 SHL DUP2 MSTORE PUSH1 0x20 PUSH1 0x4 DUP3 ADD MSTORE PUSH1 0x32 PUSH1 0x24 DUP3 ADD MSTORE PUSH32 0x596F7520646F6E27742068617665204649442C20706C65617365206275726E20 PUSH1 0x44 DUP3 ADD MSTORE PUSH18 0x666972657365656420746F20637265617465 PUSH1 0x70 SHL PUSH1 0x64 DUP3 ADD MSTORE PUSH1 0x84 ADD PUSH3 0xF8D JUMP JUMPDEST CALLER PUSH1 0x0 SWAP1 DUP2 MSTORE PUSH1 0x12 PUSH1 0x20 MSTORE PUSH1 0x40 SWAP1 KECCAK256 SLOAD PUSH1 0xFF AND PUSH3 0x1E89 JUMPI PUSH1 0x40 MLOAD PUSH3 0x461BCD PUSH1 0xE5 SHL DUP2 MSTORE PUSH1 0x20 PUSH1 0x4 DUP3 ADD MSTORE PUSH1 0x15 PUSH1 0x24 DUP3 ADD MSTORE PUSH21 0x2CB7BA9030B932903737BA10309031B932B0BA37B9 PUSH1 0x59 SHL PUSH1 0x44 DUP3 ADD MSTORE PUSH1 0x64 ADD PUSH3 0xF8D JUMP JUMPDEST CALLER PUSH1 0x0 SWAP1 DUP2 MSTORE PUSH1 0x14 PUSH1 0x20 MSTORE PUSH1 0x40 DUP1 DUP3 KECCAK256 SLOAD PUSH1 0x1 PUSH1 0x1 PUSH1 0xA0 SHL SUB DUP5 AND DUP4 MSTORE SWAP2 KECCAK256 SLOAD DUP2 EQ PUSH3 0x1F0F JUMPI PUSH1 0x40 MLOAD PUSH3 0x461BCD PUSH1 0xE5 SHL DUP2 MSTORE PUSH1 0x20 PUSH1 0x4 DUP3 ADD MSTORE PUSH1 0x2D PUSH1 0x24 DUP3 ADD MSTORE PUSH32 0x546865206164647265737320646F6573206E6F742062656C6F6E6720746F2079 PUSH1 0x44 DUP3 ADD MSTORE PUSH13 0x6F75722063697479206E6F6465 PUSH1 0x98 SHL PUSH1 0x64 DUP3 ADD MSTORE PUSH1 0x84 ADD PUSH3 0xF8D JUMP JUMPDEST PUSH1 0x0 DUP2 DUP2 MSTORE PUSH1 0x19 PUSH1 0x20 SWAP1 DUP2 MSTORE PUSH1 0x40 DUP1 DUP4 KECCAK256 DUP1 SLOAD PUSH1 0x1 PUSH1 0x1 PUSH1 0xA0 SHL SUB DUP8 DUP2 AND PUSH1 0x1 PUSH1 0x1 PUSH1 0xA0 SHL SUB NOT SWAP3 DUP4 AND DUP2 OR SWAP1 SWAP4 SSTORE DUP3 DUP7 MSTORE PUSH1 0x12 DUP6 MSTORE DUP4 DUP7 KECCAK256 DUP1 SLOAD PUSH1 0xFF NOT AND PUSH1 0x1 OR SWAP1 SSTORE CALLER DUP1 DUP8 MSTORE PUSH1 0x1A SWAP1 SWAP6 MSTORE DUP4 DUP7 KECCAK256 DUP1 SLOAD DUP5 DUP9 MSTORE DUP6 DUP9 KECCAK256 DUP1 SLOAD SWAP1 SWAP5 AND SWAP1 DUP4 AND OR SWAP1 SWAP3 SSTORE SWAP5 DUP5 SWAP1 MSTORE SLOAD SWAP2 MLOAD PUSH4 0x18B3C67B PUSH1 0xE1 SHL DUP2 MSTORE PUSH1 0x4 DUP2 ADD SWAP4 SWAP1 SWAP4 MSTORE PUSH1 0x24 DUP4 ADD MSTORE SWAP1 SWAP2 AND SWAP1 PUSH4 0x31678CF6 SWAP1 PUSH1 0x44 ADD PUSH1 0x0 PUSH1 0x40 MLOAD DUP1 DUP4 SUB DUP2 PUSH1 0x0 DUP8 DUP1 EXTCODESIZE ISZERO DUP1 ISZERO PUSH3 0x1FB9 JUMPI PUSH1 0x0 DUP1 REVERT JUMPDEST POP GAS CALL ISZERO DUP1 ISZERO PUSH3 0x1FCE JUMPI RETURNDATASIZE PUSH1 0x0 DUP1 RETURNDATACOPY RETURNDATASIZE PUSH1 0x0 REVERT JUMPDEST POP POP POP POP POP POP JUMP JUMPDEST PUSH3 0x1FE0 PUSH3 0x33B2 JUMP JUMPDEST PUSH1 0xB DUP1 SLOAD PUSH1 0x1 PUSH1 0x1 PUSH1 0xA0 SHL SUB NOT AND PUSH1 0x1 PUSH1 0x1 PUSH1 0xA0 SHL SUB SWAP3 SWAP1 SWAP3 AND SWAP2 SWAP1 SWAP2 OR SWAP1 SSTORE JUMP JUMPDEST PUSH1 0x4 SLOAD PUSH1 0x1 PUSH1 0xA0 SHL SWAP1 DIV PUSH1 0xFF AND ISZERO PUSH3 0x2055 JUMPI PUSH1 0x40 MLOAD PUSH3 0x461BCD PUSH1 0xE5 SHL DUP2 MSTORE PUSH1 0x20 PUSH1 0x4 DUP3 ADD MSTORE PUSH1 0x14 PUSH1 0x24 DUP3 ADD MSTORE PUSH20 0x436F6E747261637420697320696E616374697665 PUSH1 0x60 SHL PUSH1 0x44 DUP3 ADD MSTORE PUSH1 0x64 ADD PUSH3 0xF8D JUMP JUMPDEST CALLER PUSH1 0x0 SWAP1 DUP2 MSTORE PUSH1 0x12 PUSH1 0x20 MSTORE PUSH1 0x40 SWAP1 KECCAK256 SLOAD PUSH1 0xFF AND PUSH3 0x20AE JUMPI PUSH1 0x40 MLOAD PUSH3 0x461BCD PUSH1 0xE5 SHL DUP2 MSTORE PUSH1 0x20 PUSH1 0x4 DUP3 ADD MSTORE PUSH1 0x15 PUSH1 0x24 DUP3 ADD MSTORE PUSH21 0x2CB7BA9030B932903737BA10309031B932B0BA37B9 PUSH1 0x59 SHL PUSH1 0x44 DUP3 ADD MSTORE PUSH1 0x64 ADD PUSH3 0xF8D JUMP JUMPDEST CALLER PUSH1 0x0 SWAP1 DUP2 MSTORE PUSH1 0x14 PUSH1 0x20 SWAP1 DUP2 MSTORE PUSH1 0x40 DUP1 DUP4 KECCAK256 SLOAD DUP4 MSTORE PUSH1 0x19 SWAP1 SWAP2 MSTORE SWAP1 KECCAK256 SLOAD PUSH1 0x1 PUSH1 0x1 PUSH1 0xA0 SHL SUB AND PUSH3 0x2122 JUMPI PUSH1 0x40 MLOAD PUSH3 0x461BCD PUSH1 0xE5 SHL DUP2 MSTORE PUSH1 0x20 PUSH1 0x4 DUP3 ADD MSTORE PUSH1 0x18 PUSH1 0x24 DUP3 ADD MSTORE PUSH32 0x41646D696E206164647265737320697320696E76616C69640000000000000000 PUSH1 0x44 DUP3 ADD MSTORE PUSH1 0x64 ADD PUSH3 0xF8D JUMP JUMPDEST CALLER PUSH1 0x0 DUP2 DUP2 MSTORE PUSH1 0x14 PUSH1 0x20 SWAP1 DUP2 MSTORE PUSH1 0x40 DUP1 DUP4 KECCAK256 SLOAD DUP1 DUP5 MSTORE PUSH1 0x19 SWAP1 SWAP3 MSTORE SWAP1 SWAP2 KECCAK256 SLOAD SWAP1 SWAP2 PUSH1 0x1 PUSH1 0x1 PUSH1 0xA0 SHL SUB SWAP1 SWAP2 AND EQ PUSH3 0x2196 JUMPI PUSH1 0x40 MLOAD PUSH3 0x461BCD PUSH1 0xE5 SHL DUP2 MSTORE PUSH1 0x20 PUSH1 0x4 DUP3 ADD MSTORE PUSH1 0x16 PUSH1 0x24 DUP3 ADD MSTORE PUSH22 0x2CB7BA9030B932903737BA103737B2329030B236B4B7 PUSH1 0x51 SHL PUSH1 0x44 DUP3 ADD MSTORE PUSH1 0x64 ADD PUSH3 0xF8D JUMP JUMPDEST PUSH3 0x21A4 DUP3 DUP3 PUSH1 0x1 PUSH3 0x36DE JUMP JUMPDEST POP PUSH1 0x1 PUSH1 0x1 PUSH1 0xA0 SHL SUB AND PUSH1 0x0 SWAP1 DUP2 MSTORE PUSH1 0x10 PUSH1 0x20 MSTORE PUSH1 0x40 SWAP1 KECCAK256 DUP1 SLOAD PUSH1 0xFF NOT AND SWAP1 SSTORE JUMP JUMPDEST PUSH1 0x4 SLOAD PUSH1 0x1 PUSH1 0xA0 SHL SWAP1 DIV PUSH1 0xFF AND ISZERO PUSH3 0x21F3 JUMPI PUSH1 0x40 MLOAD PUSH3 0x461BCD PUSH1 0xE5 SHL DUP2 MSTORE PUSH1 0x4 ADD PUSH3 0xF8D SWAP1 PUSH3 0x454C JUMP JUMPDEST PUSH1 0x8 SLOAD PUSH3 0x220A SWAP1 PUSH8 0xDE0B6B3A7640000 PUSH3 0x44C3 JUMP JUMPDEST CALLER PUSH1 0x0 SWAP1 DUP2 MSTORE PUSH1 0x14 PUSH1 0x20 MSTORE PUSH1 0x40 SWAP1 KECCAK256 SLOAD PUSH3 0x2225 SWAP1 PUSH3 0x1ACD JUMP JUMPDEST LT PUSH3 0x1BDA JUMPI CALLER PUSH1 0x0 SWAP1 DUP2 MSTORE PUSH1 0x14 PUSH1 0x20 SWAP1 DUP2 MSTORE PUSH1 0x40 DUP1 DUP4 KECCAK256 SLOAD DUP4 MSTORE PUSH1 0x11 SWAP1 SWAP2 MSTORE SWAP1 KECCAK256 DUP1 SLOAD PUSH1 0xFF NOT AND PUSH1 0x1 OR SWAP1 SSTORE JUMP JUMPDEST PUSH3 0x2261 CALLER DUP4 DUP4 PUSH3 0x38B9 JUMP JUMPDEST POP POP JUMP JUMPDEST PUSH1 0x4 SLOAD PUSH1 0x1 PUSH1 0xA0 SHL SWAP1 DIV PUSH1 0xFF AND ISZERO PUSH3 0x2292 JUMPI PUSH1 0x40 MLOAD PUSH3 0x461BCD PUSH1 0xE5 SHL DUP2 MSTORE PUSH1 0x4 ADD PUSH3 0xF8D SWAP1 PUSH3 0x454C JUMP JUMPDEST PUSH1 0xB SLOAD PUSH1 0x40 MLOAD PUSH4 0x1238E331 PUSH1 0xE3 SHL DUP2 MSTORE CALLER PUSH1 0x4 DUP3 ADD MSTORE PUSH1 0x1 PUSH1 0x1 PUSH1 0xA0 SHL SUB SWAP1 SWAP2 AND SWAP1 PUSH4 0x91C71988 SWAP1 PUSH1 0x24 ADD PUSH1 0x20 PUSH1 0x40 MLOAD DUP1 DUP4 SUB DUP2 DUP7 GAS STATICCALL ISZERO DUP1 ISZERO PUSH3 0x22DB JUMPI RETURNDATASIZE PUSH1 0x0 DUP1 RETURNDATACOPY RETURNDATASIZE PUSH1 0x0 REVERT JUMPDEST POP POP POP POP PUSH1 0x40 MLOAD RETURNDATASIZE PUSH1 0x1F NOT PUSH1 0x1F DUP3 ADD AND DUP3 ADD DUP1 PUSH1 0x40 MSTORE POP DUP2 ADD SWAP1 PUSH3 0x2301 SWAP2 SWAP1 PUSH3 0x4516 JUMP JUMPDEST DUP1 PUSH3 0x231C JUMPI POP CALLER PUSH1 0x0 SWAP1 DUP2 MSTORE PUSH1 0xF PUSH1 0x20 MSTORE PUSH1 0x40 SWAP1 KECCAK256 SLOAD PUSH1 0xFF AND JUMPDEST PUSH3 0x237E JUMPI PUSH1 0x40 MLOAD PUSH3 0x461BCD PUSH1 0xE5 SHL DUP2 MSTORE PUSH1 0x20 PUSH1 0x4 DUP3 ADD MSTORE PUSH1 0x2B PUSH1 0x24 DUP3 ADD MSTORE PUSH32 0x796F7520686176656E2774204649442C706C7A206275726E2066697265736565 PUSH1 0x44 DUP3 ADD MSTORE PUSH11 0x6420746F20637265617465 PUSH1 0xA8 SHL PUSH1 0x64 DUP3 ADD MSTORE PUSH1 0x84 ADD PUSH3 0xF8D JUMP JUMPDEST CALLER PUSH1 0x0 SWAP1 DUP2 MSTORE PUSH1 0x12 PUSH1 0x20 MSTORE PUSH1 0x40 SWAP1 KECCAK256 SLOAD PUSH1 0xFF AND ISZERO PUSH3 0x23E0 JUMPI PUSH1 0x40 MLOAD PUSH3 0x461BCD PUSH1 0xE5 SHL DUP2 MSTORE PUSH1 0x20 PUSH1 0x4 DUP3 ADD MSTORE PUSH1 0x19 PUSH1 0x24 DUP3 ADD MSTORE PUSH32 0x796F752061726520616C726561647920612063726561746F7200000000000000 PUSH1 0x44 DUP3 ADD MSTORE PUSH1 0x64 ADD PUSH3 0xF8D JUMP JUMPDEST CALLER PUSH1 0x0 SWAP1 DUP2 MSTORE PUSH1 0x10 PUSH1 0x20 MSTORE PUSH1 0x40 SWAP1 KECCAK256 SLOAD PUSH1 0xFF AND ISZERO PUSH3 0x2442 JUMPI PUSH1 0x40 MLOAD PUSH3 0x461BCD PUSH1 0xE5 SHL DUP2 MSTORE PUSH1 0x20 PUSH1 0x4 DUP3 ADD MSTORE PUSH1 0x1F PUSH1 0x24 DUP3 ADD MSTORE PUSH32 0x796F752061726520616C7265616479206A6F696E206120636974794E6F646500 PUSH1 0x44 DUP3 ADD MSTORE PUSH1 0x64 ADD PUSH3 0xF8D JUMP JUMPDEST PUSH1 0x6 SLOAD DUP2 LT PUSH3 0x2487 JUMPI PUSH1 0x40 MLOAD PUSH3 0x461BCD PUSH1 0xE5 SHL DUP2 MSTORE PUSH1 0x20 PUSH1 0x4 DUP3 ADD MSTORE PUSH1 0xF PUSH1 0x24 DUP3 ADD MSTORE PUSH15 0x3CB7BA9034B7383ABA1032B93937B9 PUSH1 0x89 SHL PUSH1 0x44 DUP3 ADD MSTORE PUSH1 0x64 ADD PUSH3 0xF8D JUMP JUMPDEST PUSH1 0x0 DUP2 DUP2 MSTORE PUSH1 0x13 PUSH1 0x20 SWAP1 DUP2 MSTORE PUSH1 0x40 DUP1 DUP4 KECCAK256 DUP1 SLOAD PUSH1 0x1 DUP2 DUP2 ADD DUP4 SSTORE SWAP2 DUP6 MSTORE DUP4 DUP6 KECCAK256 ADD DUP1 SLOAD PUSH1 0x1 PUSH1 0x1 PUSH1 0xA0 SHL SUB NOT AND CALLER SWAP1 DUP2 OR SWAP1 SWAP2 SSTORE DUP5 MSTORE PUSH1 0x14 DUP4 MSTORE DUP2 DUP5 KECCAK256 DUP6 SWAP1 SSTORE DUP5 DUP5 MSTORE PUSH1 0x19 DUP4 MSTORE DUP2 DUP5 KECCAK256 SLOAD PUSH1 0x1 PUSH1 0x1 PUSH1 0xA0 SHL SUB AND DUP5 MSTORE PUSH1 0x16 SWAP1 SWAP3 MSTORE DUP3 KECCAK256 ADD DUP1 SLOAD PUSH3 0x24F2 SWAP1 PUSH3 0x4471 JUMP JUMPDEST DUP1 PUSH1 0x1F ADD PUSH1 0x20 DUP1 SWAP2 DIV MUL PUSH1 0x20 ADD PUSH1 0x40 MLOAD SWAP1 DUP2 ADD PUSH1 0x40 MSTORE DUP1 SWAP3 SWAP2 SWAP1 DUP2 DUP2 MSTORE PUSH1 0x20 ADD DUP3 DUP1 SLOAD PUSH3 0x2520 SWAP1 PUSH3 0x4471 JUMP JUMPDEST DUP1 ISZERO PUSH3 0x2571 JUMPI DUP1 PUSH1 0x1F LT PUSH3 0x2545 JUMPI PUSH2 0x100 DUP1 DUP4 SLOAD DIV MUL DUP4 MSTORE SWAP2 PUSH1 0x20 ADD SWAP2 PUSH3 0x2571 JUMP JUMPDEST DUP3 ADD SWAP2 SWAP1 PUSH1 0x0 MSTORE PUSH1 0x20 PUSH1 0x0 KECCAK256 SWAP1 JUMPDEST DUP2 SLOAD DUP2 MSTORE SWAP1 PUSH1 0x1 ADD SWAP1 PUSH1 0x20 ADD DUP1 DUP4 GT PUSH3 0x2553 JUMPI DUP3 SWAP1 SUB PUSH1 0x1F AND DUP3 ADD SWAP2 JUMPDEST POP POP POP PUSH1 0x0 DUP6 DUP2 MSTORE PUSH1 0x19 PUSH1 0x20 SWAP1 DUP2 MSTORE PUSH1 0x40 DUP1 DUP4 KECCAK256 SLOAD PUSH1 0x1 PUSH1 0x1 PUSH1 0xA0 SHL SUB SWAP1 DUP2 AND DUP1 DUP6 MSTORE PUSH1 0x16 DUP5 MSTORE DUP3 DUP6 KECCAK256 PUSH1 0x3 ADD SLOAD PUSH1 0x1A DUP6 MSTORE DUP4 DUP7 KECCAK256 SLOAD DUP5 MLOAD PUSH2 0x100 DUP2 ADD DUP7 MSTORE DUP13 DUP2 MSTORE DUP1 DUP8 ADD DUP12 SWAP1 MSTORE DUP1 DUP7 ADD DUP5 SWAP1 MSTORE PUSH1 0x60 DUP2 ADD DUP4 SWAP1 MSTORE TIMESTAMP PUSH1 0x80 DUP3 ADD MSTORE SWAP4 AND PUSH1 0xA0 DUP5 ADD DUP2 SWAP1 MSTORE DUP12 DUP8 MSTORE PUSH1 0x13 DUP7 MSTORE DUP5 DUP8 KECCAK256 SLOAD PUSH1 0xC0 DUP6 ADD MSTORE DUP12 DUP8 MSTORE PUSH1 0x1C SWAP1 SWAP6 MSTORE SWAP3 DUP6 KECCAK256 DUP1 SLOAD SWAP9 SWAP10 POP SWAP3 SWAP8 SWAP1 SWAP7 POP SWAP3 SWAP5 POP SWAP2 PUSH1 0xE0 DUP4 ADD SWAP2 SWAP1 PUSH3 0x260F SWAP1 PUSH3 0x4471 JUMP JUMPDEST DUP1 PUSH1 0x1F ADD PUSH1 0x20 DUP1 SWAP2 DIV MUL PUSH1 0x20 ADD PUSH1 0x40 MLOAD SWAP1 DUP2 ADD PUSH1 0x40 MSTORE DUP1 SWAP3 SWAP2 SWAP1 DUP2 DUP2 MSTORE PUSH1 0x20 ADD DUP3 DUP1 SLOAD PUSH3 0x263D SWAP1 PUSH3 0x4471 JUMP JUMPDEST DUP1 ISZERO PUSH3 0x268E JUMPI DUP1 PUSH1 0x1F LT PUSH3 0x2662 JUMPI PUSH2 0x100 DUP1 DUP4 SLOAD DIV MUL DUP4 MSTORE SWAP2 PUSH1 0x20 ADD SWAP2 PUSH3 0x268E JUMP JUMPDEST DUP3 ADD SWAP2 SWAP1 PUSH1 0x0 MSTORE PUSH1 0x20 PUSH1 0x0 KECCAK256 SWAP1 JUMPDEST DUP2 SLOAD DUP2 MSTORE SWAP1 PUSH1 0x1 ADD SWAP1 PUSH1 0x20 ADD DUP1 DUP4 GT PUSH3 0x2670 JUMPI DUP3 SWAP1 SUB PUSH1 0x1F AND DUP3 ADD SWAP2 JUMPDEST POP POP POP SWAP2 SWAP1 SWAP3 MSTORE POP POP PUSH1 0x0 DUP8 DUP2 MSTORE PUSH1 0x13 PUSH1 0x20 SWAP1 DUP2 MSTORE PUSH1 0x40 DUP1 DUP4 KECCAK256 SLOAD PUSH1 0x1 PUSH1 0x1 PUSH1 0xA0 SHL SUB DUP9 AND DUP5 MSTORE PUSH1 0x16 DUP4 MSTORE SWAP3 DUP2 SWAP1 KECCAK256 PUSH1 0x6 ADD SWAP3 SWAP1 SWAP3 SSTORE DUP2 MLOAD DUP1 DUP4 ADD SWAP1 SWAP3 MSTORE PUSH1 0x4 DUP3 MSTORE PUSH4 0x1D195CDD PUSH1 0xE2 SHL SWAP1 DUP3 ADD MSTORE SWAP1 SWAP2 POP PUSH3 0x26F1 SWAP1 CALLER SWAP1 DUP9 SWAP1 PUSH1 0x1 SWAP1 PUSH3 0x399B JUMP JUMPDEST CALLER PUSH1 0x0 SWAP1 DUP2 MSTORE PUSH1 0x16 PUSH1 0x20 SWAP1 DUP2 MSTORE PUSH1 0x40 SWAP1 SWAP2 KECCAK256 DUP3 MLOAD DUP2 SSTORE SWAP1 DUP3 ADD MLOAD DUP3 SWAP2 SWAP1 PUSH1 0x1 DUP3 ADD SWAP1 PUSH3 0x271F SWAP1 DUP3 PUSH3 0x4626 JUMP JUMPDEST POP PUSH1 0x40 DUP3 ADD MLOAD PUSH1 0x2 DUP3 ADD DUP1 SLOAD PUSH1 0x1 PUSH1 0x1 PUSH1 0xA0 SHL SUB SWAP3 DUP4 AND PUSH1 0x1 PUSH1 0x1 PUSH1 0xA0 SHL SUB NOT SWAP2 DUP3 AND OR SWAP1 SWAP2 SSTORE PUSH1 0x60 DUP5 ADD MLOAD PUSH1 0x3 DUP5 ADD SSTORE PUSH1 0x80 DUP5 ADD MLOAD PUSH1 0x4 DUP5 ADD SSTORE PUSH1 0xA0 DUP5 ADD MLOAD PUSH1 0x5 DUP5 ADD DUP1 SLOAD SWAP2 SWAP1 SWAP4 AND SWAP2 AND OR SWAP1 SSTORE PUSH1 0xC0 DUP3 ADD MLOAD PUSH1 0x6 DUP3 ADD SSTORE PUSH1 0xE0 DUP3 ADD MLOAD PUSH1 0x7 DUP3 ADD SWAP1 PUSH3 0x278E SWAP1 DUP3 PUSH3 0x4626 JUMP JUMPDEST POP POP CALLER PUSH1 0x0 SWAP1 DUP2 MSTORE PUSH1 0x10 PUSH1 0x20 MSTORE PUSH1 0x40 SWAP1 KECCAK256 DUP1 SLOAD PUSH1 0xFF NOT AND PUSH1 0x1 OR SWAP1 SSTORE POP POP POP POP POP POP POP JUMP JUMPDEST PUSH1 0x9 SLOAD PUSH1 0x1 PUSH1 0x1 PUSH1 0xA0 SHL SUB AND CALLER EQ PUSH3 0x281B JUMPI PUSH1 0x40 MLOAD PUSH3 0x461BCD PUSH1 0xE5 SHL DUP2 MSTORE PUSH1 0x20 PUSH1 0x4 DUP3 ADD MSTORE PUSH1 0x24 DUP1 DUP3 ADD MSTORE PUSH32 0x63616C6C6261636B2061646472657373206973206E6F74207061757365416464 PUSH1 0x44 DUP3 ADD MSTORE PUSH4 0x72657373 PUSH1 0xE0 SHL PUSH1 0x64 DUP3 ADD MSTORE PUSH1 0x84 ADD PUSH3 0xF8D JUMP JUMPDEST PUSH1 0x4 DUP1 SLOAD PUSH1 0xFF PUSH1 0xA0 SHL NOT DUP2 AND PUSH1 0x1 PUSH1 0xA0 SHL SWAP2 DUP3 SWAP1 DIV PUSH1 0xFF AND ISZERO SWAP1 SWAP2 MUL OR SWAP1 SSTORE JUMP JUMPDEST PUSH1 0x13 PUSH1 0x20 MSTORE DUP2 PUSH1 0x0 MSTORE PUSH1 0x40 PUSH1 0x0 KECCAK256 DUP2 DUP2 SLOAD DUP2 LT PUSH3 0x2859 JUMPI PUSH1 0x0 DUP1 REVERT JUMPDEST PUSH1 0x0 SWAP2 DUP3 MSTORE PUSH1 0x20 SWAP1 SWAP2 KECCAK256 ADD SLOAD PUSH1 0x1 PUSH1 0x1 PUSH1 0xA0 SHL SUB AND SWAP2 POP DUP3 SWAP1 POP JUMP JUMPDEST PUSH1 0x1D DUP3 PUSH1 0x40 MLOAD PUSH3 0x2887 SWAP2 SWAP1 PUSH3 0x46F3 JUMP JUMPDEST SWAP1 DUP2 MSTORE PUSH1 0x40 MLOAD SWAP1 DUP2 SWAP1 SUB PUSH1 0x20 ADD SWAP1 KECCAK256 SLOAD PUSH1 0xFF AND ISZERO PUSH3 0x28DD JUMPI PUSH1 0x40 MLOAD PUSH3 0x461BCD PUSH1 0xE5 SHL DUP2 MSTORE PUSH1 0x20 PUSH1 0x4 DUP3 ADD MSTORE PUSH1 0x11 PUSH1 0x24 DUP3 ADD MSTORE PUSH17 0x18DA5D1E539BD919481A5CC8195E1A5CDD PUSH1 0x7A SHL PUSH1 0x44 DUP3 ADD MSTORE PUSH1 0x64 ADD PUSH3 0xF8D JUMP JUMPDEST CALLER PUSH1 0x0 SWAP1 DUP2 MSTORE PUSH1 0x10 PUSH1 0x20 MSTORE PUSH1 0x40 SWAP1 KECCAK256 SLOAD PUSH1 0xFF AND ISZERO PUSH3 0x2934 JUMPI PUSH1 0x40 MLOAD PUSH3 0x461BCD PUSH1 0xE5 SHL DUP2 MSTORE PUSH1 0x20 PUSH1 0x4 DUP3 ADD MSTORE PUSH1 0x12 PUSH1 0x24 DUP3 ADD MSTORE PUSH18 0x1E5BDD48185B1C9958591E481A9BDA5B9959 PUSH1 0x72 SHL PUSH1 0x44 DUP3 ADD MSTORE PUSH1 0x64 ADD PUSH3 0xF8D JUMP JUMPDEST PUSH1 0x4 SLOAD PUSH1 0x1 PUSH1 0xA0 SHL SWAP1 DIV PUSH1 0xFF AND ISZERO PUSH3 0x298B JUMPI PUSH1 0x40 MLOAD PUSH3 0x461BCD PUSH1 0xE5 SHL DUP2 MSTORE PUSH1 0x20 PUSH1 0x4 DUP3 ADD MSTORE PUSH1 0x18 PUSH1 0x24 DUP3 ADD MSTORE PUSH24 0x436F6E7472616374207374617475732069732066616C7365 PUSH1 0x40 SHL PUSH1 0x44 DUP3 ADD MSTORE PUSH1 0x64 ADD PUSH3 0xF8D JUMP JUMPDEST PUSH1 0xB SLOAD PUSH1 0x40 MLOAD PUSH4 0x1238E331 PUSH1 0xE3 SHL DUP2 MSTORE CALLER PUSH1 0x4 DUP3 ADD MSTORE PUSH1 0x1 PUSH1 0x1 PUSH1 0xA0 SHL SUB SWAP1 SWAP2 AND SWAP1 PUSH4 0x91C71988 SWAP1 PUSH1 0x24 ADD PUSH1 0x20 PUSH1 0x40 MLOAD DUP1 DUP4 SUB DUP2 DUP7 GAS STATICCALL ISZERO DUP1 ISZERO PUSH3 0x29D4 JUMPI RETURNDATASIZE PUSH1 0x0 DUP1 RETURNDATACOPY RETURNDATASIZE PUSH1 0x0 REVERT JUMPDEST POP POP POP POP PUSH1 0x40 MLOAD RETURNDATASIZE PUSH1 0x1F NOT PUSH1 0x1F DUP3 ADD AND DUP3 ADD DUP1 PUSH1 0x40 MSTORE POP DUP2 ADD SWAP1 PUSH3 0x29FA SWAP2 SWAP1 PUSH3 0x4516 JUMP JUMPDEST DUP1 PUSH3 0x2A15 JUMPI POP CALLER PUSH1 0x0 SWAP1 DUP2 MSTORE PUSH1 0xF PUSH1 0x20 MSTORE PUSH1 0x40 SWAP1 KECCAK256 SLOAD PUSH1 0xFF AND JUMPDEST PUSH3 0x2A7B JUMPI PUSH1 0x40 MLOAD PUSH3 0x461BCD PUSH1 0xE5 SHL DUP2 MSTORE PUSH1 0x20 PUSH1 0x4 DUP3 ADD MSTORE PUSH1 0x2F PUSH1 0x24 DUP3 ADD MSTORE PUSH32 0x596F7520686176656E2774204649442C20706C65617365206275726E20666972 PUSH1 0x44 DUP3 ADD MSTORE PUSH15 0x657365656420746F20637265617465 PUSH1 0x88 SHL PUSH1 0x64 DUP3 ADD MSTORE PUSH1 0x84 ADD PUSH3 0xF8D JUMP JUMPDEST PUSH1 0x7 SLOAD PUSH3 0x2A92 SWAP1 PUSH8 0xDE0B6B3A7640000 PUSH3 0x44C3 JUMP JUMPDEST PUSH1 0xC SLOAD PUSH1 0x40 MLOAD PUSH4 0x14AB313 PUSH1 0xE0 SHL DUP2 MSTORE CALLER PUSH1 0x4 DUP3 ADD MSTORE PUSH1 0x1 PUSH1 0x1 PUSH1 0xA0 SHL SUB SWAP1 SWAP2 AND SWAP1 PUSH4 0x14AB313 SWAP1 PUSH1 0x24 ADD PUSH1 0x20 PUSH1 0x40 MLOAD DUP1 DUP4 SUB DUP2 DUP7 GAS STATICCALL ISZERO DUP1 ISZERO PUSH3 0x2ADB JUMPI RETURNDATASIZE PUSH1 0x0 DUP1 RETURNDATACOPY RETURNDATASIZE PUSH1 0x0 REVERT JUMPDEST POP POP POP POP PUSH1 0x40 MLOAD RETURNDATASIZE PUSH1 0x1F NOT PUSH1 0x1F DUP3 ADD AND DUP3 ADD DUP1 PUSH1 0x40 MSTORE POP DUP2 ADD SWAP1 PUSH3 0x2B01 SWAP2 SWAP1 PUSH3 0x45BD JUMP JUMPDEST GT DUP1 PUSH3 0x2B1D JUMPI POP CALLER PUSH1 0x0 SWAP1 DUP2 MSTORE PUSH1 0xF PUSH1 0x20 MSTORE PUSH1 0x40 SWAP1 KECCAK256 SLOAD PUSH1 0xFF AND JUMPDEST PUSH3 0x2B58 JUMPI PUSH1 0x40 MLOAD PUSH3 0x461BCD PUSH1 0xE5 SHL DUP2 MSTORE PUSH1 0x20 PUSH1 0x4 DUP3 ADD MSTORE PUSH1 0xA PUSH1 0x24 DUP3 ADD MSTORE PUSH10 0xDCDEE840CADCDEEACED PUSH1 0xB3 SHL PUSH1 0x44 DUP3 ADD MSTORE PUSH1 0x64 ADD PUSH3 0xF8D JUMP JUMPDEST PUSH1 0x0 CALLER ADDRESS PUSH1 0x40 MLOAD PUSH3 0x2B6A SWAP1 PUSH3 0x3D34 JUMP JUMPDEST PUSH1 0x1 PUSH1 0x1 PUSH1 0xA0 SHL SUB SWAP3 DUP4 AND DUP2 MSTORE SWAP2 AND PUSH1 0x20 DUP3 ADD MSTORE PUSH1 0x40 ADD PUSH1 0x40 MLOAD DUP1 SWAP2 SUB SWAP1 PUSH1 0x0 CREATE DUP1 ISZERO DUP1 ISZERO PUSH3 0x2B9E JUMPI RETURNDATASIZE PUSH1 0x0 DUP1 RETURNDATACOPY RETURNDATASIZE PUSH1 0x0 REVERT JUMPDEST POP SWAP1 POP PUSH1 0x0 PUSH1 0x6 SLOAD SWAP1 POP PUSH3 0x2BD3 CALLER DUP3 PUSH1 0x1 PUSH1 0x40 MLOAD DUP1 PUSH1 0x40 ADD PUSH1 0x40 MSTORE DUP1 PUSH1 0x4 DUP2 MSTORE PUSH1 0x20 ADD PUSH4 0x1D195CDD PUSH1 0xE2 SHL DUP2 MSTORE POP PUSH3 0x399B JUMP JUMPDEST DUP3 PUSH1 0xE DUP6 PUSH1 0x40 MLOAD PUSH3 0x2BE6 SWAP2 SWAP1 PUSH3 0x46F3 JUMP JUMPDEST SWAP1 DUP2 MSTORE PUSH1 0x20 ADD PUSH1 0x40 MLOAD DUP1 SWAP2 SUB SWAP1 KECCAK256 SWAP1 DUP2 PUSH3 0x2C02 SWAP2 SWAP1 PUSH3 0x4626 JUMP JUMPDEST POP PUSH1 0x0 DUP2 DUP2 MSTORE PUSH1 0x1C PUSH1 0x20 MSTORE PUSH1 0x40 SWAP1 KECCAK256 PUSH3 0x2C1D DUP5 DUP3 PUSH3 0x4626 JUMP JUMPDEST POP CALLER PUSH1 0x0 DUP2 DUP2 MSTORE PUSH1 0x12 PUSH1 0x20 SWAP1 DUP2 MSTORE PUSH1 0x40 DUP1 DUP4 KECCAK256 DUP1 SLOAD PUSH1 0xFF NOT AND PUSH1 0x1 SWAP1 DUP2 OR SWAP1 SWAP2 SSTORE DUP6 DUP5 MSTORE PUSH1 0x13 DUP1 DUP5 MSTORE DUP3 DUP6 KECCAK256 DUP1 SLOAD DUP1 DUP5 ADD DUP3 SSTORE DUP2 DUP8 MSTORE DUP6 DUP8 KECCAK256 ADD DUP1 SLOAD PUSH1 0x1 PUSH1 0x1 PUSH1 0xA0 SHL SUB NOT SWAP1 DUP2 AND DUP10 OR SWAP1 SWAP2 SSTORE DUP8 DUP8 MSTORE PUSH1 0x14 DUP7 MSTORE DUP5 DUP8 KECCAK256 DUP10 SWAP1 SSTORE DUP9 DUP8 MSTORE PUSH1 0x19 DUP7 MSTORE DUP5 DUP8 KECCAK256 DUP1 SLOAD DUP3 AND DUP10 OR SWAP1 SSTORE DUP8 DUP8 MSTORE PUSH1 0x1A DUP7 MSTORE DUP5 DUP8 KECCAK256 DUP1 SLOAD PUSH1 0x1 PUSH1 0x1 PUSH1 0xA0 SHL SUB DUP13 AND SWAP1 DUP4 AND DUP2 OR SWAP1 SWAP2 SSTORE DUP10 DUP9 MSTORE PUSH1 0x1B DUP8 MSTORE DUP6 DUP9 KECCAK256 DUP1 SLOAD SWAP1 SWAP3 AND DUP2 OR SWAP1 SWAP2 SSTORE DUP5 MLOAD PUSH2 0x100 DUP2 ADD DUP7 MSTORE DUP10 DUP2 MSTORE DUP1 DUP8 ADD DUP14 DUP2 MSTORE SWAP6 DUP2 ADD SWAP9 SWAP1 SWAP9 MSTORE TIMESTAMP PUSH1 0x60 DUP10 ADD DUP2 SWAP1 MSTORE PUSH1 0x80 DUP10 ADD MSTORE PUSH1 0xA0 DUP9 ADD MSTORE SWAP4 MSTORE SWAP2 SLOAD PUSH1 0xC0 DUP6 ADD MSTORE PUSH1 0xE0 DUP5 ADD DUP8 SWAP1 MSTORE PUSH1 0x1E DUP1 SLOAD SWAP3 DUP4 ADD DUP2 SSTORE SWAP1 SWAP3 MSTORE DUP3 MLOAD PUSH1 0x8 SWAP1 SWAP2 MUL PUSH32 0x50BB669A95C7B50B7E8A6F09454034B2B14CF2B85C730DCA9A539CA82CB6E350 DUP2 ADD SWAP2 DUP3 SSTORE SWAP2 MLOAD DUP4 SWAP3 PUSH32 0x50BB669A95C7B50B7E8A6F09454034B2B14CF2B85C730DCA9A539CA82CB6E351 ADD SWAP1 PUSH3 0x2D62 SWAP1 DUP3 PUSH3 0x4626 JUMP JUMPDEST POP PUSH1 0x40 DUP3 ADD MLOAD PUSH1 0x2 DUP3 ADD DUP1 SLOAD PUSH1 0x1 PUSH1 0x1 PUSH1 0xA0 SHL SUB SWAP3 DUP4 AND PUSH1 0x1 PUSH1 0x1 PUSH1 0xA0 SHL SUB NOT SWAP2 DUP3 AND OR SWAP1 SWAP2 SSTORE PUSH1 0x60 DUP5 ADD MLOAD PUSH1 0x3 DUP5 ADD SSTORE PUSH1 0x80 DUP5 ADD MLOAD PUSH1 0x4 DUP5 ADD SSTORE PUSH1 0xA0 DUP5 ADD MLOAD PUSH1 0x5 DUP5 ADD DUP1 SLOAD SWAP2 SWAP1 SWAP4 AND SWAP2 AND OR SWAP1 SSTORE PUSH1 0xC0 DUP3 ADD MLOAD PUSH1 0x6 DUP3 ADD SSTORE PUSH1 0xE0 DUP3 ADD MLOAD PUSH1 0x7 DUP3 ADD SWAP1 PUSH3 0x2DD1 SWAP1 DUP3 PUSH3 0x4626 JUMP JUMPDEST POP POP CALLER PUSH1 0x0 SWAP1 DUP2 MSTORE PUSH1 0x16 PUSH1 0x20 SWAP1 DUP2 MSTORE PUSH1 0x40 SWAP1 SWAP2 KECCAK256 DUP4 MLOAD DUP2 SSTORE SWAP1 DUP4 ADD MLOAD DUP4 SWAP3 POP PUSH1 0x1 DUP3 ADD SWAP1 PUSH3 0x2E01 SWAP1 DUP3 PUSH3 0x4626 JUMP JUMPDEST POP PUSH1 0x40 DUP3 ADD MLOAD PUSH1 0x2 DUP3 ADD DUP1 SLOAD PUSH1 0x1 PUSH1 0x1 PUSH1 0xA0 SHL SUB SWAP3 DUP4 AND PUSH1 0x1 PUSH1 0x1 PUSH1 0xA0 SHL SUB NOT SWAP2 DUP3 AND OR SWAP1 SWAP2 SSTORE PUSH1 0x60 DUP5 ADD MLOAD PUSH1 0x3 DUP5 ADD SSTORE PUSH1 0x80 DUP5 ADD MLOAD PUSH1 0x4 DUP5 ADD SSTORE PUSH1 0xA0 DUP5 ADD MLOAD PUSH1 0x5 DUP5 ADD DUP1 SLOAD SWAP2 SWAP1 SWAP4 AND SWAP2 AND OR SWAP1 SSTORE PUSH1 0xC0 DUP3 ADD MLOAD PUSH1 0x6 DUP3 ADD SSTORE PUSH1 0xE0 DUP3 ADD MLOAD PUSH1 0x7 DUP3 ADD SWAP1 PUSH3 0x2E70 SWAP1 DUP3 PUSH3 0x4626 JUMP JUMPDEST POP POP POP PUSH1 0x0 DUP3 DUP2 MSTORE PUSH1 0x17 PUSH1 0x20 SWAP1 DUP2 MSTORE PUSH1 0x40 SWAP1 SWAP2 KECCAK256 DUP3 MLOAD DUP2 SSTORE SWAP1 DUP3 ADD MLOAD DUP3 SWAP2 SWAP1 PUSH1 0x1 DUP3 ADD SWAP1 PUSH3 0x2EA0 SWAP1 DUP3 PUSH3 0x4626 JUMP JUMPDEST POP PUSH1 0x40 DUP3 ADD MLOAD PUSH1 0x2 DUP3 ADD DUP1 SLOAD PUSH1 0x1 PUSH1 0x1 PUSH1 0xA0 SHL SUB SWAP3 DUP4 AND PUSH1 0x1 PUSH1 0x1 PUSH1 0xA0 SHL SUB NOT SWAP2 DUP3 AND OR SWAP1 SWAP2 SSTORE PUSH1 0x60 DUP5 ADD MLOAD PUSH1 0x3 DUP5 ADD SSTORE PUSH1 0x80 DUP5 ADD MLOAD PUSH1 0x4 DUP5 ADD SSTORE PUSH1 0xA0 DUP5 ADD MLOAD PUSH1 0x5 DUP5 ADD DUP1 SLOAD SWAP2 SWAP1 SWAP4 AND SWAP2 AND OR SWAP1 SSTORE PUSH1 0xC0 DUP3 ADD MLOAD PUSH1 0x6 DUP3 ADD SSTORE PUSH1 0xE0 DUP3 ADD MLOAD PUSH1 0x7 DUP3 ADD SWAP1 PUSH3 0x2F0F SWAP1 DUP3 PUSH3 0x4626 JUMP JUMPDEST POP POP CALLER PUSH1 0x0 SWAP1 DUP2 MSTORE PUSH1 0x10 PUSH1 0x20 MSTORE PUSH1 0x40 SWAP1 DUP2 SWAP1 KECCAK256 DUP1 SLOAD PUSH1 0xFF NOT AND PUSH1 0x1 SWAP1 DUP2 OR SWAP1 SWAP2 SSTORE SWAP1 MLOAD SWAP1 SWAP2 POP PUSH1 0x1D SWAP1 PUSH3 0x2F45 SWAP1 DUP9 SWAP1 PUSH3 0x46F3 JUMP JUMPDEST SWAP1 DUP2 MSTORE PUSH1 0x40 MLOAD SWAP1 DUP2 SWAP1 SUB PUSH1 0x20 ADD SWAP1 KECCAK256 DUP1 SLOAD SWAP2 ISZERO ISZERO PUSH1 0xFF NOT SWAP1 SWAP3 AND SWAP2 SWAP1 SWAP2 OR SWAP1 SSTORE PUSH1 0x6 DUP1 SLOAD SWAP1 PUSH1 0x0 PUSH3 0x2F77 DUP4 PUSH3 0x45A1 JUMP JUMPDEST SWAP2 SWAP1 POP SSTORE POP POP POP POP POP POP JUMP JUMPDEST DUP1 MLOAD PUSH1 0x20 DUP2 DUP4 ADD DUP2 ADD DUP1 MLOAD PUSH1 0xE DUP3 MSTORE SWAP3 DUP3 ADD SWAP2 SWAP1 SWAP4 ADD KECCAK256 SWAP2 MSTORE DUP1 SLOAD PUSH3 0x2FA9 SWAP1 PUSH3 0x4471 JUMP JUMPDEST DUP1 PUSH1 0x1F ADD PUSH1 0x20 DUP1 SWAP2 DIV MUL PUSH1 0x20 ADD PUSH1 0x40 MLOAD SWAP1 DUP2 ADD PUSH1 0x40 MSTORE DUP1 SWAP3 SWAP2 SWAP1 DUP2 DUP2 MSTORE PUSH1 0x20 ADD DUP3 DUP1 SLOAD PUSH3 0x2FD7 SWAP1 PUSH3 0x4471 JUMP JUMPDEST DUP1 ISZERO PUSH3 0x3028 JUMPI DUP1 PUSH1 0x1F LT PUSH3 0x2FFC JUMPI PUSH2 0x100 DUP1 DUP4 SLOAD DIV MUL DUP4 MSTORE SWAP2 PUSH1 0x20 ADD SWAP2 PUSH3 0x3028 JUMP JUMPDEST DUP3 ADD SWAP2 SWAP1 PUSH1 0x0 MSTORE PUSH1 0x20 PUSH1 0x0 KECCAK256 SWAP1 JUMPDEST DUP2 SLOAD DUP2 MSTORE SWAP1 PUSH1 0x1 ADD SWAP1 PUSH1 0x20 ADD DUP1 DUP4 GT PUSH3 0x300A JUMPI DUP3 SWAP1 SUB PUSH1 0x1F AND DUP3 ADD SWAP2 JUMPDEST POP POP POP POP POP DUP2 JUMP JUMPDEST PUSH3 0x303A PUSH3 0x33B2 JUMP JUMPDEST PUSH1 0x5 DUP1 SLOAD PUSH1 0x1 PUSH1 0x1 PUSH1 0xA0 SHL SUB NOT AND PUSH1 0x1 PUSH1 0x1 PUSH1 0xA0 SHL SUB SWAP3 SWAP1 SWAP3 AND SWAP2 SWAP1 SWAP2 OR SWAP1 SSTORE JUMP JUMPDEST PUSH1 0x1C PUSH1 0x20 MSTORE PUSH1 0x0 SWAP1 DUP2 MSTORE PUSH1 0x40 SWAP1 KECCAK256 DUP1 SLOAD PUSH3 0x2FA9 SWAP1 PUSH3 0x4471 JUMP JUMPDEST PUSH1 0x16 PUSH1 0x20 MSTORE PUSH1 0x0 SWAP1 DUP2 MSTORE PUSH1 0x40 SWAP1 KECCAK256 DUP1 SLOAD PUSH1 0x1 DUP3 ADD DUP1 SLOAD SWAP2 SWAP3 SWAP2 PUSH3 0x1062 SWAP1 PUSH3 0x4471 JUMP JUMPDEST PUSH3 0x30A5 PUSH3 0x33B2 JUMP JUMPDEST PUSH1 0x1 PUSH1 0x1 PUSH1 0xA0 SHL SUB DUP2 AND PUSH3 0x310C JUMPI PUSH1 0x40 MLOAD PUSH3 0x461BCD PUSH1 0xE5 SHL DUP2 MSTORE PUSH1 0x20 PUSH1 0x4 DUP3 ADD MSTORE PUSH1 0x26 PUSH1 0x24 DUP3 ADD MSTORE PUSH32 0x4F776E61626C653A206E6577206F776E657220697320746865207A65726F2061 PUSH1 0x44 DUP3 ADD MSTORE PUSH6 0x646472657373 PUSH1 0xD0 SHL PUSH1 0x64 DUP3 ADD MSTORE PUSH1 0x84 ADD PUSH3 0xF8D JUMP JUMPDEST PUSH3 0x1CFE DUP2 PUSH3 0x3867 JUMP JUMPDEST PUSH1 0xA SLOAD PUSH1 0x1 PUSH1 0x1 PUSH1 0xA0 SHL SUB AND CALLER EQ PUSH3 0x316C JUMPI PUSH1 0x40 MLOAD PUSH3 0x461BCD PUSH1 0xE5 SHL DUP2 MSTORE PUSH1 0x20 PUSH1 0x4 DUP3 ADD MSTORE PUSH1 0x16 PUSH1 0x24 DUP3 ADD MSTORE PUSH22 0x10DA5D1E539BD9194E881A5B9D985B1A590818D85B1B PUSH1 0x52 SHL PUSH1 0x44 DUP3 ADD MSTORE PUSH1 0x64 ADD PUSH3 0xF8D JUMP JUMPDEST PUSH1 0x1 PUSH1 0x1 PUSH1 0xA0 SHL SUB DUP3 AND PUSH1 0x0 SWAP1 DUP2 MSTORE PUSH1 0x14 PUSH1 0x20 SWAP1 DUP2 MSTORE PUSH1 0x40 DUP1 DUP4 KECCAK256 SLOAD DUP4 MSTORE PUSH1 0x15 SWAP1 SWAP2 MSTORE DUP2 KECCAK256 DUP1 SLOAD DUP4 SWAP3 SWAP1 PUSH3 0x31A3 SWAP1 DUP5 SWAP1 PUSH3 0x4536 JUMP JUMPDEST SWAP1 SWAP2 SSTORE POP POP POP POP JUMP JUMPDEST PUSH3 0x3207 PUSH1 0x40 MLOAD DUP1 PUSH2 0x100 ADD PUSH1 0x40 MSTORE DUP1 PUSH1 0x0 DUP2 MSTORE PUSH1 0x20 ADD PUSH1 0x60 DUP2 MSTORE PUSH1 0x20 ADD PUSH1 0x0 PUSH1 0x1 PUSH1 0x1 PUSH1 0xA0 SHL SUB AND DUP2 MSTORE PUSH1 0x20 ADD PUSH1 0x0 DUP2 MSTORE PUSH1 0x20 ADD PUSH1 0x0 DUP2 MSTORE PUSH1 0x20 ADD PUSH1 0x0 PUSH1 0x1 PUSH1 0x1 PUSH1 0xA0 SHL SUB AND DUP2 MSTORE PUSH1 0x20 ADD PUSH1 0x0 DUP2 MSTORE PUSH1 0x20 ADD PUSH1 0x60 DUP2 MSTORE POP SWAP1 JUMP JUMPDEST PUSH1 0x1 PUSH1 0x1 PUSH1 0xA0 SHL SUB DUP3 AND PUSH1 0x0 SWAP1 DUP2 MSTORE PUSH1 0x16 PUSH1 0x20 SWAP1 DUP2 MSTORE PUSH1 0x40 SWAP2 DUP3 SWAP1 KECCAK256 DUP3 MLOAD PUSH2 0x100 DUP2 ADD SWAP1 SWAP4 MSTORE DUP1 SLOAD DUP4 MSTORE PUSH1 0x1 DUP2 ADD DUP1 SLOAD SWAP2 SWAP3 DUP5 ADD SWAP2 PUSH3 0x3247 SWAP1 PUSH3 0x4471 JUMP JUMPDEST DUP1 PUSH1 0x1F ADD PUSH1 0x20 DUP1 SWAP2 DIV MUL PUSH1 0x20 ADD PUSH1 0x40 MLOAD SWAP1 DUP2 ADD PUSH1 0x40 MSTORE DUP1 SWAP3 SWAP2 SWAP1 DUP2 DUP2 MSTORE PUSH1 0x20 ADD DUP3 DUP1 SLOAD PUSH3 0x3275 SWAP1 PUSH3 0x4471 JUMP JUMPDEST DUP1 ISZERO PUSH3 0x32C6 JUMPI DUP1 PUSH1 0x1F LT PUSH3 0x329A JUMPI PUSH2 0x100 DUP1 DUP4 SLOAD DIV MUL DUP4 MSTORE SWAP2 PUSH1 0x20 ADD SWAP2 PUSH3 0x32C6 JUMP JUMPDEST DUP3 ADD SWAP2 SWAP1 PUSH1 0x0 MSTORE PUSH1 0x20 PUSH1 0x0 KECCAK256 SWAP1 JUMPDEST DUP2 SLOAD DUP2 MSTORE SWAP1 PUSH1 0x1 ADD SWAP1 PUSH1 0x20 ADD DUP1 DUP4 GT PUSH3 0x32A8 JUMPI DUP3 SWAP1 SUB PUSH1 0x1F AND DUP3 ADD SWAP2 JUMPDEST POP POP POP SWAP2 DUP4 MSTORE POP POP PUSH1 0x2 DUP3 ADD SLOAD PUSH1 0x1 PUSH1 0x1 PUSH1 0xA0 SHL SUB SWAP1 DUP2 AND PUSH1 0x20 DUP4 ADD MSTORE PUSH1 0x3 DUP4 ADD SLOAD PUSH1 0x40 DUP4 ADD MSTORE PUSH1 0x4 DUP4 ADD SLOAD PUSH1 0x60 DUP4 ADD MSTORE PUSH1 0x5 DUP4 ADD SLOAD AND PUSH1 0x80 DUP3 ADD MSTORE PUSH1 0x6 DUP3 ADD SLOAD PUSH1 0xA0 DUP3 ADD MSTORE PUSH1 0x7 DUP3 ADD DUP1 SLOAD PUSH1 0xC0 SWAP1 SWAP3 ADD SWAP2 PUSH3 0x3323 SWAP1 PUSH3 0x4471 JUMP JUMPDEST DUP1 PUSH1 0x1F ADD PUSH1 0x20 DUP1 SWAP2 DIV MUL PUSH1 0x20 ADD PUSH1 0x40 MLOAD SWAP1 DUP2 ADD PUSH1 0x40 MSTORE DUP1 SWAP3 SWAP2 SWAP1 DUP2 DUP2 MSTORE PUSH1 0x20 ADD DUP3 DUP1 SLOAD PUSH3 0x3351 SWAP1 PUSH3 0x4471 JUMP JUMPDEST DUP1 ISZERO PUSH3 0x33A2 JUMPI DUP1 PUSH1 0x1F LT PUSH3 0x3376 JUMPI PUSH2 0x100 DUP1 DUP4 SLOAD DIV MUL DUP4 MSTORE SWAP2 PUSH1 0x20 ADD SWAP2 PUSH3 0x33A2 JUMP JUMPDEST DUP3 ADD SWAP2 SWAP1 PUSH1 0x0 MSTORE PUSH1 0x20 PUSH1 0x0 KECCAK256 SWAP1 JUMPDEST DUP2 SLOAD DUP2 MSTORE SWAP1 PUSH1 0x1 ADD SWAP1 PUSH1 0x20 ADD DUP1 DUP4 GT PUSH3 0x3384 JUMPI DUP3 SWAP1 SUB PUSH1 0x1F AND DUP3 ADD SWAP2 JUMPDEST POP POP POP POP POP DUP2 MSTORE POP POP SWAP1 POP SWAP2 SWAP1 POP JUMP JUMPDEST PUSH1 0x3 SLOAD PUSH1 0x1 PUSH1 0x1 PUSH1 0xA0 SHL SUB AND CALLER EQ PUSH3 0x1BDA JUMPI PUSH1 0x40 MLOAD PUSH3 0x461BCD PUSH1 0xE5 SHL DUP2 MSTORE PUSH1 0x20 PUSH1 0x4 DUP3 ADD DUP2 SWAP1 MSTORE PUSH1 0x24 DUP3 ADD MSTORE PUSH32 0x4F776E61626C653A2063616C6C6572206973206E6F7420746865206F776E6572 PUSH1 0x44 DUP3 ADD MSTORE PUSH1 0x64 ADD PUSH3 0xF8D JUMP JUMPDEST DUP5 MLOAD DUP2 LT ISZERO PUSH3 0x3542 JUMPI PUSH1 0x0 DUP6 DUP3 DUP2 MLOAD DUP2 LT PUSH3 0x342F JUMPI PUSH3 0x342F PUSH3 0x4575 JUMP JUMPDEST PUSH1 0x20 MUL PUSH1 0x20 ADD ADD MLOAD SWAP1 POP PUSH1 0x0 DUP6 DUP4 DUP2 MLOAD DUP2 LT PUSH3 0x3450 JUMPI PUSH3 0x3450 PUSH3 0x4575 JUMP JUMPDEST PUSH1 0x20 SWAP1 DUP2 MUL SWAP2 SWAP1 SWAP2 ADD DUP2 ADD MLOAD PUSH1 0x0 DUP5 DUP2 MSTORE DUP1 DUP4 MSTORE PUSH1 0x40 DUP1 DUP3 KECCAK256 PUSH1 0x1 PUSH1 0x1 PUSH1 0xA0 SHL SUB DUP15 AND DUP4 MSTORE SWAP1 SWAP4 MSTORE SWAP2 SWAP1 SWAP2 KECCAK256 SLOAD SWAP1 SWAP2 POP DUP2 DUP2 LT ISZERO PUSH3 0x34E5 JUMPI PUSH1 0x40 MLOAD PUSH3 0x461BCD PUSH1 0xE5 SHL DUP2 MSTORE PUSH1 0x20 PUSH1 0x4 DUP3 ADD MSTORE PUSH1 0x2A PUSH1 0x24 DUP3 ADD MSTORE PUSH32 0x455243313135353A20696E73756666696369656E742062616C616E636520666F PUSH1 0x44 DUP3 ADD MSTORE PUSH10 0x39103A3930B739B332B9 PUSH1 0xB1 SHL PUSH1 0x64 DUP3 ADD MSTORE PUSH1 0x84 ADD PUSH3 0xF8D JUMP JUMPDEST PUSH1 0x0 DUP4 DUP2 MSTORE PUSH1 0x20 DUP2 DUP2 MSTORE PUSH1 0x40 DUP1 DUP4 KECCAK256 PUSH1 0x1 PUSH1 0x1 PUSH1 0xA0 SHL SUB DUP15 DUP2 AND DUP6 MSTORE SWAP3 MSTORE DUP1 DUP4 KECCAK256 DUP6 DUP6 SUB SWAP1 SSTORE SWAP1 DUP12 AND DUP3 MSTORE DUP2 KECCAK256 DUP1 SLOAD DUP5 SWAP3 SWAP1 PUSH3 0x3524 SWAP1 DUP5 SWAP1 PUSH3 0x4536 JUMP JUMPDEST SWAP3 POP POP DUP2 SWAP1 SSTORE POP POP POP POP DUP1 PUSH3 0x353A SWAP1 PUSH3 0x45A1 JUMP JUMPDEST SWAP1 POP PUSH3 0x340E JUMP JUMPDEST POP DUP5 PUSH1 0x1 PUSH1 0x1 PUSH1 0xA0 SHL SUB AND DUP7 PUSH1 0x1 PUSH1 0x1 PUSH1 0xA0 SHL SUB AND DUP3 PUSH1 0x1 PUSH1 0x1 PUSH1 0xA0 SHL SUB AND PUSH32 0x4A39DC06D4C0DBC64B70AF90FD698A233A518AA5D07E595D983B8C0526C8F7FB DUP8 DUP8 PUSH1 0x40 MLOAD PUSH3 0x3594 SWAP3 SWAP2 SWAP1 PUSH3 0x4711 JUMP JUMPDEST PUSH1 0x40 MLOAD DUP1 SWAP2 SUB SWAP1 LOG4 PUSH3 0x1FCE DUP2 DUP8 DUP8 DUP8 DUP8 DUP8 PUSH3 0x3AB0 JUMP JUMPDEST PUSH1 0x40 DUP1 MLOAD PUSH1 0x1 PUSH1 0x1 PUSH1 0xA0 SHL SUB DUP6 DUP2 AND PUSH1 0x24 DUP4 ADD MSTORE DUP5 DUP2 AND PUSH1 0x44 DUP4 ADD MSTORE PUSH1 0x64 DUP1 DUP4 ADD DUP6 SWAP1 MSTORE DUP4 MLOAD DUP1 DUP5 SUB SWAP1 SWAP2 ADD DUP2 MSTORE PUSH1 0x84 SWAP1 SWAP3 ADD DUP4 MSTORE PUSH1 0x20 DUP3 ADD DUP1 MLOAD PUSH1 0x1 PUSH1 0x1 PUSH1 0xE0 SHL SUB AND PUSH4 0x23B872DD PUSH1 0xE0 SHL OR SWAP1 MSTORE SWAP2 MLOAD PUSH1 0x0 SWAP3 DUP4 SWAP3 SWAP1 DUP9 AND SWAP2 PUSH3 0x3612 SWAP2 SWAP1 PUSH3 0x46F3 JUMP JUMPDEST PUSH1 0x0 PUSH1 0x40 MLOAD DUP1 DUP4 SUB DUP2 PUSH1 0x0 DUP7 GAS CALL SWAP2 POP POP RETURNDATASIZE DUP1 PUSH1 0x0 DUP2 EQ PUSH3 0x3651 JUMPI PUSH1 0x40 MLOAD SWAP2 POP PUSH1 0x1F NOT PUSH1 0x3F RETURNDATASIZE ADD AND DUP3 ADD PUSH1 0x40 MSTORE RETURNDATASIZE DUP3 MSTORE RETURNDATASIZE PUSH1 0x0 PUSH1 0x20 DUP5 ADD RETURNDATACOPY PUSH3 0x3656 JUMP JUMPDEST PUSH1 0x60 SWAP2 POP JUMPDEST POP SWAP2 POP SWAP2 POP DUP2 DUP1 ISZERO PUSH3 0x3684 JUMPI POP DUP1 MLOAD ISZERO DUP1 PUSH3 0x3684 JUMPI POP DUP1 DUP1 PUSH1 0x20 ADD SWAP1 MLOAD DUP2 ADD SWAP1 PUSH3 0x3684 SWAP2 SWAP1 PUSH3 0x4516 JUMP JUMPDEST PUSH3 0x1FCE JUMPI PUSH1 0x40 MLOAD PUSH3 0x461BCD PUSH1 0xE5 SHL DUP2 MSTORE PUSH1 0x20 PUSH1 0x4 DUP3 ADD MSTORE PUSH1 0x24 DUP1 DUP3 ADD MSTORE PUSH32 0x5472616E7366657248656C7065723A205452414E534645525F46524F4D5F4641 PUSH1 0x44 DUP3 ADD MSTORE PUSH4 0x12531151 PUSH1 0xE2 SHL PUSH1 0x64 DUP3 ADD MSTORE PUSH1 0x84 ADD PUSH3 0xF8D JUMP JUMPDEST PUSH1 0x1 PUSH1 0x1 PUSH1 0xA0 SHL SUB DUP4 AND PUSH3 0x3742 JUMPI PUSH1 0x40 MLOAD PUSH3 0x461BCD PUSH1 0xE5 SHL DUP2 MSTORE PUSH1 0x20 PUSH1 0x4 DUP3 ADD MSTORE PUSH1 0x23 PUSH1 0x24 DUP3 ADD MSTORE PUSH32 0x455243313135353A206275726E2066726F6D20746865207A65726F2061646472 PUSH1 0x44 DUP3 ADD MSTORE PUSH3 0x657373 PUSH1 0xE8 SHL PUSH1 0x64 DUP3 ADD MSTORE PUSH1 0x84 ADD PUSH3 0xF8D JUMP JUMPDEST CALLER PUSH1 0x0 PUSH3 0x3750 DUP5 PUSH3 0x3C1F JUMP JUMPDEST SWAP1 POP PUSH1 0x0 PUSH3 0x375F DUP5 PUSH3 0x3C1F JUMP JUMPDEST PUSH1 0x40 DUP1 MLOAD PUSH1 0x20 DUP1 DUP3 ADD DUP4 MSTORE PUSH1 0x0 SWAP2 DUP3 SWAP1 MSTORE DUP9 DUP3 MSTORE DUP2 DUP2 MSTORE DUP3 DUP3 KECCAK256 PUSH1 0x1 PUSH1 0x1 PUSH1 0xA0 SHL SUB DUP12 AND DUP4 MSTORE SWAP1 MSTORE KECCAK256 SLOAD SWAP1 SWAP2 POP DUP5 DUP2 LT ISZERO PUSH3 0x37EA JUMPI PUSH1 0x40 MLOAD PUSH3 0x461BCD PUSH1 0xE5 SHL DUP2 MSTORE PUSH1 0x20 PUSH1 0x4 DUP3 ADD MSTORE PUSH1 0x24 DUP1 DUP3 ADD MSTORE PUSH32 0x455243313135353A206275726E20616D6F756E7420657863656564732062616C PUSH1 0x44 DUP3 ADD MSTORE PUSH4 0x616E6365 PUSH1 0xE0 SHL PUSH1 0x64 DUP3 ADD MSTORE PUSH1 0x84 ADD PUSH3 0xF8D JUMP JUMPDEST PUSH1 0x0 DUP7 DUP2 MSTORE PUSH1 0x20 DUP2 DUP2 MSTORE PUSH1 0x40 DUP1 DUP4 KECCAK256 PUSH1 0x1 PUSH1 0x1 PUSH1 0xA0 SHL SUB DUP12 DUP2 AND DUP1 DUP7 MSTORE SWAP2 DUP5 MSTORE DUP3 DUP6 KECCAK256 DUP11 DUP8 SUB SWAP1 SSTORE DUP3 MLOAD DUP12 DUP2 MSTORE SWAP4 DUP5 ADD DUP11 SWAP1 MSTORE SWAP1 SWAP3 SWAP1 DUP9 AND SWAP2 PUSH32 0xC3D58168C5AE7397731D063D5BBF3D657854427343F4C083240F7AACAA2D0F62 SWAP2 ADD PUSH1 0x40 MLOAD DUP1 SWAP2 SUB SWAP1 LOG4 PUSH1 0x40 DUP1 MLOAD PUSH1 0x20 DUP2 ADD SWAP1 SWAP2 MSTORE PUSH1 0x0 SWAP1 MSTORE JUMPDEST POP POP POP POP POP POP POP JUMP JUMPDEST PUSH1 0x3 DUP1 SLOAD PUSH1 0x1 PUSH1 0x1 PUSH1 0xA0 SHL SUB DUP4 DUP2 AND PUSH1 0x1 PUSH1 0x1 PUSH1 0xA0 SHL SUB NOT DUP4 AND DUP2 OR SWAP1 SWAP4 SSTORE PUSH1 0x40 MLOAD SWAP2 AND SWAP2 SWAP1 DUP3 SWAP1 PUSH32 0x8BE0079C531659141344CD1FD0A4F28419497F9722A3DAAFE3B4186F6B6457E0 SWAP1 PUSH1 0x0 SWAP1 LOG3 POP POP JUMP JUMPDEST DUP2 PUSH1 0x1 PUSH1 0x1 PUSH1 0xA0 SHL SUB AND DUP4 PUSH1 0x1 PUSH1 0x1 PUSH1 0xA0 SHL SUB AND SUB PUSH3 0x392E JUMPI PUSH1 0x40 MLOAD PUSH3 0x461BCD PUSH1 0xE5 SHL DUP2 MSTORE PUSH1 0x20 PUSH1 0x4 DUP3 ADD MSTORE PUSH1 0x29 PUSH1 0x24 DUP3 ADD MSTORE PUSH32 0x455243313135353A2073657474696E6720617070726F76616C20737461747573 PUSH1 0x44 DUP3 ADD MSTORE PUSH9 0x103337B91039B2B633 PUSH1 0xB9 SHL PUSH1 0x64 DUP3 ADD MSTORE PUSH1 0x84 ADD PUSH3 0xF8D JUMP JUMPDEST PUSH1 0x1 PUSH1 0x1 PUSH1 0xA0 SHL SUB DUP4 DUP2 AND PUSH1 0x0 DUP2 DUP2 MSTORE PUSH1 0x1 PUSH1 0x20 SWAP1 DUP2 MSTORE PUSH1 0x40 DUP1 DUP4 KECCAK256 SWAP5 DUP8 AND DUP1 DUP5 MSTORE SWAP5 DUP3 MSTORE SWAP2 DUP3 SWAP1 KECCAK256 DUP1 SLOAD PUSH1 0xFF NOT AND DUP7 ISZERO ISZERO SWAP1 DUP2 OR SWAP1 SWAP2 SSTORE SWAP2 MLOAD SWAP2 DUP3 MSTORE PUSH32 0x17307EAB39AB6107E8899845AD3D59BD9653F200F220920489CA2B5937696C31 SWAP2 ADD PUSH1 0x40 MLOAD DUP1 SWAP2 SUB SWAP1 LOG3 POP POP POP JUMP JUMPDEST PUSH1 0x1 PUSH1 0x1 PUSH1 0xA0 SHL SUB DUP5 AND PUSH3 0x39FD JUMPI PUSH1 0x40 MLOAD PUSH3 0x461BCD PUSH1 0xE5 SHL DUP2 MSTORE PUSH1 0x20 PUSH1 0x4 DUP3 ADD MSTORE PUSH1 0x21 PUSH1 0x24 DUP3 ADD MSTORE PUSH32 0x455243313135353A206D696E7420746F20746865207A65726F20616464726573 PUSH1 0x44 DUP3 ADD MSTORE PUSH1 0x73 PUSH1 0xF8 SHL PUSH1 0x64 DUP3 ADD MSTORE PUSH1 0x84 ADD PUSH3 0xF8D JUMP JUMPDEST CALLER PUSH1 0x0 PUSH3 0x3A0B DUP6 PUSH3 0x3C1F JUMP JUMPDEST SWAP1 POP PUSH1 0x0 PUSH3 0x3A1A DUP6 PUSH3 0x3C1F JUMP JUMPDEST SWAP1 POP PUSH1 0x0 DUP7 DUP2 MSTORE PUSH1 0x20 DUP2 DUP2 MSTORE PUSH1 0x40 DUP1 DUP4 KECCAK256 PUSH1 0x1 PUSH1 0x1 PUSH1 0xA0 SHL SUB DUP12 AND DUP5 MSTORE SWAP1 SWAP2 MSTORE DUP2 KECCAK256 DUP1 SLOAD DUP8 SWAP3 SWAP1 PUSH3 0x3A4E SWAP1 DUP5 SWAP1 PUSH3 0x4536 JUMP JUMPDEST SWAP1 SWAP2 SSTORE POP POP PUSH1 0x40 DUP1 MLOAD DUP8 DUP2 MSTORE PUSH1 0x20 DUP2 ADD DUP8 SWAP1 MSTORE PUSH1 0x1 PUSH1 0x1 PUSH1 0xA0 SHL SUB DUP1 DUP11 AND SWAP3 PUSH1 0x0 SWAP3 SWAP2 DUP8 AND SWAP2 PUSH32 0xC3D58168C5AE7397731D063D5BBF3D657854427343F4C083240F7AACAA2D0F62 SWAP2 ADD PUSH1 0x40 MLOAD DUP1 SWAP2 SUB SWAP1 LOG4 PUSH3 0x385E DUP4 PUSH1 0x0 DUP10 DUP10 DUP10 DUP10 PUSH3 0x3C6D JUMP JUMPDEST PUSH1 0x1 PUSH1 0x1 PUSH1 0xA0 SHL SUB DUP5 AND EXTCODESIZE ISZERO PUSH3 0x1FCE JUMPI PUSH1 0x40 MLOAD PUSH4 0xBC197C81 PUSH1 0xE0 SHL DUP2 MSTORE PUSH1 0x1 PUSH1 0x1 PUSH1 0xA0 SHL SUB DUP6 AND SWAP1 PUSH4 0xBC197C81 SWAP1 PUSH3 0x3AF7 SWAP1 DUP10 SWAP1 DUP10 SWAP1 DUP9 SWAP1 DUP9 SWAP1 DUP9 SWAP1 PUSH1 0x4 ADD PUSH3 0x4743 JUMP JUMPDEST PUSH1 0x20 PUSH1 0x40 MLOAD DUP1 DUP4 SUB DUP2 PUSH1 0x0 DUP8 GAS CALL SWAP3 POP POP POP DUP1 ISZERO PUSH3 0x3B35 JUMPI POP PUSH1 0x40 DUP1 MLOAD PUSH1 0x1F RETURNDATASIZE SWAP1 DUP2 ADD PUSH1 0x1F NOT AND DUP3 ADD SWAP1 SWAP3 MSTORE PUSH3 0x3B32 SWAP2 DUP2 ADD SWAP1 PUSH3 0x47A7 JUMP JUMPDEST PUSH1 0x1 JUMPDEST PUSH3 0x3BEC JUMPI PUSH3 0x3B44 PUSH3 0x47C7 JUMP JUMPDEST DUP1 PUSH4 0x8C379A0 SUB PUSH3 0x3B84 JUMPI POP PUSH3 0x3B5B PUSH3 0x47E4 JUMP JUMPDEST DUP1 PUSH3 0x3B68 JUMPI POP PUSH3 0x3B86 JUMP JUMPDEST DUP1 PUSH1 0x40 MLOAD PUSH3 0x461BCD PUSH1 0xE5 SHL DUP2 MSTORE PUSH1 0x4 ADD PUSH3 0xF8D SWAP2 SWAP1 PUSH3 0x3EC3 JUMP JUMPDEST POP JUMPDEST PUSH1 0x40 MLOAD PUSH3 0x461BCD PUSH1 0xE5 SHL DUP2 MSTORE PUSH1 0x20 PUSH1 0x4 DUP3 ADD MSTORE PUSH1 0x34 PUSH1 0x24 DUP3 ADD MSTORE PUSH32 0x455243313135353A207472616E7366657220746F206E6F6E2D45524331313535 PUSH1 0x44 DUP3 ADD MSTORE PUSH20 0x2932B1B2B4BB32B91034B6B83632B6B2B73A32B9 PUSH1 0x61 SHL PUSH1 0x64 DUP3 ADD MSTORE PUSH1 0x84 ADD PUSH3 0xF8D JUMP JUMPDEST PUSH1 0x1 PUSH1 0x1 PUSH1 0xE0 SHL SUB NOT DUP2 AND PUSH4 0xBC197C81 PUSH1 0xE0 SHL EQ PUSH3 0x385E JUMPI PUSH1 0x40 MLOAD PUSH3 0x461BCD PUSH1 0xE5 SHL DUP2 MSTORE PUSH1 0x4 ADD PUSH3 0xF8D SWAP1 PUSH3 0x4874 JUMP JUMPDEST PUSH1 0x40 DUP1 MLOAD PUSH1 0x1 DUP1 DUP3 MSTORE DUP2 DUP4 ADD SWAP1 SWAP3 MSTORE PUSH1 0x60 SWAP2 PUSH1 0x0 SWAP2 SWAP1 PUSH1 0x20 DUP1 DUP4 ADD SWAP1 DUP1 CALLDATASIZE DUP4 CALLDATACOPY ADD SWAP1 POP POP SWAP1 POP DUP3 DUP2 PUSH1 0x0 DUP2 MLOAD DUP2 LT PUSH3 0x3C5C JUMPI PUSH3 0x3C5C PUSH3 0x4575 JUMP JUMPDEST PUSH1 0x20 SWAP1 DUP2 MUL SWAP2 SWAP1 SWAP2 ADD ADD MSTORE SWAP3 SWAP2 POP POP JUMP JUMPDEST PUSH1 0x1 PUSH1 0x1 PUSH1 0xA0 SHL SUB DUP5 AND EXTCODESIZE ISZERO PUSH3 0x1FCE JUMPI PUSH1 0x40 MLOAD PUSH4 0xF23A6E61 PUSH1 0xE0 SHL DUP2 MSTORE PUSH1 0x1 PUSH1 0x1 PUSH1 0xA0 SHL SUB DUP6 AND SWAP1 PUSH4 0xF23A6E61 SWAP1 PUSH3 0x3CB4 SWAP1 DUP10 SWAP1 DUP10 SWAP1 DUP9 SWAP1 DUP9 SWAP1 DUP9 SWAP1 PUSH1 0x4 ADD PUSH3 0x48BC JUMP JUMPDEST PUSH1 0x20 PUSH1 0x40 MLOAD DUP1 DUP4 SUB DUP2 PUSH1 0x0 DUP8 GAS CALL SWAP3 POP POP POP DUP1 ISZERO PUSH3 0x3CF2 JUMPI POP PUSH1 0x40 DUP1 MLOAD PUSH1 0x1F RETURNDATASIZE SWAP1 DUP2 ADD PUSH1 0x1F NOT AND DUP3 ADD SWAP1 SWAP3 MSTORE PUSH3 0x3CEF SWAP2 DUP2 ADD SWAP1 PUSH3 0x47A7 JUMP JUMPDEST PUSH1 0x1 JUMPDEST PUSH3 0x3D01 JUMPI PUSH3 0x3B44 PUSH3 0x47C7 JUMP JUMPDEST PUSH1 0x1 PUSH1 0x1 PUSH1 0xE0 SHL SUB NOT DUP2 AND PUSH4 0xF23A6E61 PUSH1 0xE0 SHL EQ PUSH3 0x385E JUMPI PUSH1 0x40 MLOAD PUSH3 0x461BCD PUSH1 0xE5 SHL DUP2 MSTORE PUSH1 0x4 ADD PUSH3 0xF8D SWAP1 PUSH3 0x4874 JUMP JUMPDEST PUSH2 0x95C DUP1 PUSH3 0x4904 DUP4 CODECOPY ADD SWAP1 JUMP JUMPDEST PUSH1 0x0 PUSH1 0x20 DUP3 DUP5 SUB SLT ISZERO PUSH3 0x3D55 JUMPI PUSH1 0x0 DUP1 REVERT JUMPDEST POP CALLDATALOAD SWAP2 SWAP1 POP JUMP JUMPDEST DUP1 CALLDATALOAD PUSH1 0x1 PUSH1 0x1 PUSH1 0xA0 SHL SUB DUP2 AND DUP2 EQ PUSH3 0x3D74 JUMPI PUSH1 0x0 DUP1 REVERT JUMPDEST SWAP2 SWAP1 POP JUMP JUMPDEST PUSH1 0x0 DUP1 PUSH1 0x40 DUP4 DUP6 SUB SLT ISZERO PUSH3 0x3D8D JUMPI PUSH1 0x0 DUP1 REVERT JUMPDEST PUSH3 0x3D98 DUP4 PUSH3 0x3D5C JUMP JUMPDEST SWAP5 PUSH1 0x20 SWAP4 SWAP1 SWAP4 ADD CALLDATALOAD SWAP4 POP POP POP JUMP JUMPDEST PUSH1 0x1 PUSH1 0x1 PUSH1 0xE0 SHL SUB NOT DUP2 AND DUP2 EQ PUSH3 0x1CFE JUMPI PUSH1 0x0 DUP1 REVERT JUMPDEST PUSH1 0x0 PUSH1 0x20 DUP3 DUP5 SUB SLT ISZERO PUSH3 0x3DD0 JUMPI PUSH1 0x0 DUP1 REVERT JUMPDEST DUP2 CALLDATALOAD PUSH3 0x3DDD DUP2 PUSH3 0x3DA6 JUMP JUMPDEST SWAP4 SWAP3 POP POP POP JUMP JUMPDEST PUSH1 0x0 PUSH1 0x20 DUP3 DUP5 SUB SLT ISZERO PUSH3 0x3DF7 JUMPI PUSH1 0x0 DUP1 REVERT JUMPDEST PUSH3 0x3DDD DUP3 PUSH3 0x3D5C JUMP JUMPDEST PUSH1 0x0 JUMPDEST DUP4 DUP2 LT ISZERO PUSH3 0x3E1F JUMPI DUP2 DUP2 ADD MLOAD DUP4 DUP3 ADD MSTORE PUSH1 0x20 ADD PUSH3 0x3E05 JUMP JUMPDEST POP POP PUSH1 0x0 SWAP2 ADD MSTORE JUMP JUMPDEST PUSH1 0x0 DUP2 MLOAD DUP1 DUP5 MSTORE PUSH3 0x3E42 DUP2 PUSH1 0x20 DUP7 ADD PUSH1 0x20 DUP7 ADD PUSH3 0x3E02 JUMP JUMPDEST PUSH1 0x1F ADD PUSH1 0x1F NOT AND SWAP3 SWAP1 SWAP3 ADD PUSH1 0x20 ADD SWAP3 SWAP2 POP POP JUMP JUMPDEST PUSH1 0x0 PUSH2 0x100 DUP11 DUP4 MSTORE DUP1 PUSH1 0x20 DUP5 ADD MSTORE PUSH3 0x3E72 DUP2 DUP5 ADD DUP12 PUSH3 0x3E28 JUMP JUMPDEST PUSH1 0x1 PUSH1 0x1 PUSH1 0xA0 SHL SUB DUP11 DUP2 AND PUSH1 0x40 DUP7 ADD MSTORE PUSH1 0x60 DUP6 ADD DUP11 SWAP1 MSTORE PUSH1 0x80 DUP6 ADD DUP10 SWAP1 MSTORE DUP8 AND PUSH1 0xA0 DUP6 ADD MSTORE PUSH1 0xC0 DUP5 ADD DUP7 SWAP1 MSTORE DUP4 DUP2 SUB PUSH1 0xE0 DUP6 ADD MSTORE SWAP1 POP PUSH3 0x3EB4 DUP2 DUP6 PUSH3 0x3E28 JUMP JUMPDEST SWAP12 SWAP11 POP POP POP POP POP POP POP POP POP POP POP JUMP JUMPDEST PUSH1 0x20 DUP2 MSTORE PUSH1 0x0 PUSH3 0x3DDD PUSH1 0x20 DUP4 ADD DUP5 PUSH3 0x3E28 JUMP JUMPDEST DUP1 ISZERO ISZERO DUP2 EQ PUSH3 0x1CFE JUMPI PUSH1 0x0 DUP1 REVERT JUMPDEST PUSH1 0x0 DUP1 PUSH1 0x40 DUP4 DUP6 SUB SLT ISZERO PUSH3 0x3EFB JUMPI PUSH1 0x0 DUP1 REVERT JUMPDEST PUSH3 0x3F06 DUP4 PUSH3 0x3D5C JUMP JUMPDEST SWAP2 POP PUSH1 0x20 DUP4 ADD CALLDATALOAD PUSH3 0x3F18 DUP2 PUSH3 0x3ED8 JUMP JUMPDEST DUP1 SWAP2 POP POP SWAP3 POP SWAP3 SWAP1 POP JUMP JUMPDEST PUSH4 0x4E487B71 PUSH1 0xE0 SHL PUSH1 0x0 MSTORE PUSH1 0x41 PUSH1 0x4 MSTORE PUSH1 0x24 PUSH1 0x0 REVERT JUMPDEST PUSH1 0x1F DUP3 ADD PUSH1 0x1F NOT AND DUP2 ADD PUSH8 0xFFFFFFFFFFFFFFFF DUP2 GT DUP3 DUP3 LT OR ISZERO PUSH3 0x3F62 JUMPI PUSH3 0x3F62 PUSH3 0x3F23 JUMP JUMPDEST PUSH1 0x40 MSTORE POP POP JUMP JUMPDEST PUSH1 0x0 PUSH8 0xFFFFFFFFFFFFFFFF DUP3 GT ISZERO PUSH3 0x3F86 JUMPI PUSH3 0x3F86 PUSH3 0x3F23 JUMP JUMPDEST POP PUSH1 0x5 SHL PUSH1 0x20 ADD SWAP1 JUMP JUMPDEST PUSH1 0x0 DUP3 PUSH1 0x1F DUP4 ADD SLT PUSH3 0x3FA2 JUMPI PUSH1 0x0 DUP1 REVERT JUMPDEST DUP2 CALLDATALOAD PUSH1 0x20 PUSH3 0x3FB1 DUP3 PUSH3 0x3F69 JUMP JUMPDEST PUSH1 0x40 MLOAD PUSH3 0x3FC0 DUP3 DUP3 PUSH3 0x3F39 JUMP JUMPDEST DUP4 DUP2 MSTORE PUSH1 0x5 SWAP4 SWAP1 SWAP4 SHL DUP6 ADD DUP3 ADD SWAP3 DUP3 DUP2 ADD SWAP2 POP DUP7 DUP5 GT ISZERO PUSH3 0x3FE1 JUMPI PUSH1 0x0 DUP1 REVERT JUMPDEST DUP3 DUP7 ADD JUMPDEST DUP5 DUP2 LT ISZERO PUSH3 0x3FFE JUMPI DUP1 CALLDATALOAD DUP4 MSTORE SWAP2 DUP4 ADD SWAP2 DUP4 ADD PUSH3 0x3FE5 JUMP JUMPDEST POP SWAP7 SWAP6 POP POP POP POP POP POP JUMP JUMPDEST PUSH1 0x0 DUP3 PUSH1 0x1F DUP4 ADD SLT PUSH3 0x401B JUMPI PUSH1 0x0 DUP1 REVERT JUMPDEST DUP2 CALLDATALOAD PUSH8 0xFFFFFFFFFFFFFFFF DUP2 GT ISZERO PUSH3 0x4038 JUMPI PUSH3 0x4038 PUSH3 0x3F23 JUMP JUMPDEST PUSH1 0x40 MLOAD PUSH3 0x4051 PUSH1 0x1F DUP4 ADD PUSH1 0x1F NOT AND PUSH1 0x20 ADD DUP3 PUSH3 0x3F39 JUMP JUMPDEST DUP2 DUP2 MSTORE DUP5 PUSH1 0x20 DUP4 DUP7 ADD ADD GT ISZERO PUSH3 0x4067 JUMPI PUSH1 0x0 DUP1 REVERT JUMPDEST DUP2 PUSH1 0x20 DUP6 ADD PUSH1 0x20 DUP4 ADD CALLDATACOPY PUSH1 0x0 SWAP2 DUP2 ADD PUSH1 0x20 ADD SWAP2 SWAP1 SWAP2 MSTORE SWAP4 SWAP3 POP POP POP JUMP JUMPDEST PUSH1 0x0 DUP1 PUSH1 0x0 DUP1 PUSH1 0x0 PUSH1 0xA0 DUP7 DUP9 SUB SLT ISZERO PUSH3 0x409D JUMPI PUSH1 0x0 DUP1 REVERT JUMPDEST PUSH3 0x40A8 DUP7 PUSH3 0x3D5C JUMP JUMPDEST SWAP5 POP PUSH3 0x40B8 PUSH1 0x20 DUP8 ADD PUSH3 0x3D5C JUMP JUMPDEST SWAP4 POP PUSH1 0x40 DUP7 ADD CALLDATALOAD PUSH8 0xFFFFFFFFFFFFFFFF DUP1 DUP3 GT ISZERO PUSH3 0x40D6 JUMPI PUSH1 0x0 DUP1 REVERT JUMPDEST PUSH3 0x40E4 DUP10 DUP4 DUP11 ADD PUSH3 0x3F90 JUMP JUMPDEST SWAP5 POP PUSH1 0x60 DUP9 ADD CALLDATALOAD SWAP2 POP DUP1 DUP3 GT ISZERO PUSH3 0x40FB JUMPI PUSH1 0x0 DUP1 REVERT JUMPDEST PUSH3 0x4109 DUP10 DUP4 DUP11 ADD PUSH3 0x3F90 JUMP JUMPDEST SWAP4 POP PUSH1 0x80 DUP9 ADD CALLDATALOAD SWAP2 POP DUP1 DUP3 GT ISZERO PUSH3 0x4120 JUMPI PUSH1 0x0 DUP1 REVERT JUMPDEST POP PUSH3 0x412F DUP9 DUP3 DUP10 ADD PUSH3 0x4009 JUMP JUMPDEST SWAP2 POP POP SWAP3 SWAP6 POP SWAP3 SWAP6 SWAP1 SWAP4 POP JUMP JUMPDEST PUSH1 0x0 DUP1 PUSH1 0x40 DUP4 DUP6 SUB SLT ISZERO PUSH3 0x4150 JUMPI PUSH1 0x0 DUP1 REVERT JUMPDEST DUP3 CALLDATALOAD PUSH8 0xFFFFFFFFFFFFFFFF DUP1 DUP3 GT ISZERO PUSH3 0x4169 JUMPI PUSH1 0x0 DUP1 REVERT JUMPDEST DUP2 DUP6 ADD SWAP2 POP DUP6 PUSH1 0x1F DUP4 ADD SLT PUSH3 0x417E JUMPI PUSH1 0x0 DUP1 REVERT JUMPDEST DUP2 CALLDATALOAD PUSH1 0x20 PUSH3 0x418D DUP3 PUSH3 0x3F69 JUMP JUMPDEST PUSH1 0x40 MLOAD PUSH3 0x419C DUP3 DUP3 PUSH3 0x3F39 JUMP JUMPDEST DUP4 DUP2 MSTORE PUSH1 0x5 SWAP4 SWAP1 SWAP4 SHL DUP6 ADD DUP3 ADD SWAP3 DUP3 DUP2 ADD SWAP2 POP DUP10 DUP5 GT ISZERO PUSH3 0x41BD JUMPI PUSH1 0x0 DUP1 REVERT JUMPDEST SWAP5 DUP3 ADD SWAP5 JUMPDEST DUP4 DUP7 LT ISZERO PUSH3 0x41E6 JUMPI PUSH3 0x41D6 DUP7 PUSH3 0x3D5C JUMP JUMPDEST DUP3 MSTORE SWAP5 DUP3 ADD SWAP5 SWAP1 DUP3 ADD SWAP1 PUSH3 0x41C2 JUMP JUMPDEST SWAP7 POP POP DUP7 ADD CALLDATALOAD SWAP3 POP POP DUP1 DUP3 GT ISZERO PUSH3 0x41FD JUMPI PUSH1 0x0 DUP1 REVERT JUMPDEST POP PUSH3 0x420C DUP6 DUP3 DUP7 ADD PUSH3 0x3F90 JUMP JUMPDEST SWAP2 POP POP SWAP3 POP SWAP3 SWAP1 POP JUMP JUMPDEST PUSH1 0x0 DUP2 MLOAD DUP1 DUP5 MSTORE PUSH1 0x20 DUP1 DUP6 ADD SWAP5 POP DUP1 DUP5 ADD PUSH1 0x0 JUMPDEST DUP4 DUP2 LT ISZERO PUSH3 0x4248 JUMPI DUP2 MLOAD DUP8 MSTORE SWAP6 DUP3 ADD SWAP6 SWAP1 DUP3 ADD SWAP1 PUSH1 0x1 ADD PUSH3 0x422A JUMP JUMPDEST POP SWAP5 SWAP6 SWAP5 POP POP POP POP POP JUMP JUMPDEST PUSH1 0x20 DUP2 MSTORE PUSH1 0x0 PUSH3 0x3DDD PUSH1 0x20 DUP4 ADD DUP5 PUSH3 0x4216 JUMP JUMPDEST PUSH1 0x0 PUSH1 0x20 DUP3 DUP5 SUB SLT ISZERO PUSH3 0x427B JUMPI PUSH1 0x0 DUP1 REVERT JUMPDEST DUP2 CALLDATALOAD PUSH8 0xFFFFFFFFFFFFFFFF DUP2 GT ISZERO PUSH3 0x4293 JUMPI PUSH1 0x0 DUP1 REVERT JUMPDEST PUSH3 0x42A1 DUP5 DUP3 DUP6 ADD PUSH3 0x4009 JUMP JUMPDEST SWAP5 SWAP4 POP POP POP POP JUMP JUMPDEST PUSH1 0x0 DUP1 PUSH1 0x40 DUP4 DUP6 SUB SLT ISZERO PUSH3 0x42BD JUMPI PUSH1 0x0 DUP1 REVERT JUMPDEST POP POP DUP1 CALLDATALOAD SWAP3 PUSH1 0x20 SWAP1 SWAP2 ADD CALLDATALOAD SWAP2 POP JUMP JUMPDEST PUSH1 0x0 DUP1 PUSH1 0x40 DUP4 DUP6 SUB SLT ISZERO PUSH3 0x42E0 JUMPI PUSH1 0x0 DUP1 REVERT JUMPDEST DUP3 CALLDATALOAD PUSH8 0xFFFFFFFFFFFFFFFF DUP1 DUP3 GT ISZERO PUSH3 0x42F9 JUMPI PUSH1 0x0 DUP1 REVERT JUMPDEST PUSH3 0x4307 DUP7 DUP4 DUP8 ADD PUSH3 0x4009 JUMP JUMPDEST SWAP4 POP PUSH1 0x20 DUP6 ADD CALLDATALOAD SWAP2 POP DUP1 DUP3 GT ISZERO PUSH3 0x431E JUMPI PUSH1 0x0 DUP1 REVERT JUMPDEST POP PUSH3 0x420C DUP6 DUP3 DUP7 ADD PUSH3 0x4009 JUMP JUMPDEST PUSH1 0x0 DUP1 PUSH1 0x40 DUP4 DUP6 SUB SLT ISZERO PUSH3 0x4341 JUMPI PUSH1 0x0 DUP1 REVERT JUMPDEST PUSH3 0x434C DUP4 PUSH3 0x3D5C JUMP JUMPDEST SWAP2 POP PUSH3 0x435C PUSH1 0x20 DUP5 ADD PUSH3 0x3D5C JUMP JUMPDEST SWAP1 POP SWAP3 POP SWAP3 SWAP1 POP JUMP JUMPDEST PUSH1 0x0 DUP1 PUSH1 0x0 DUP1 PUSH1 0x0 PUSH1 0xA0 DUP7 DUP9 SUB SLT ISZERO PUSH3 0x437E JUMPI PUSH1 0x0 DUP1 REVERT JUMPDEST PUSH3 0x4389 DUP7 PUSH3 0x3D5C JUMP JUMPDEST SWAP5 POP PUSH3 0x4399 PUSH1 0x20 DUP8 ADD PUSH3 0x3D5C JUMP JUMPDEST SWAP4 POP PUSH1 0x40 DUP7 ADD CALLDATALOAD SWAP3 POP PUSH1 0x60 DUP7 ADD CALLDATALOAD SWAP2 POP PUSH1 0x80 DUP7 ADD CALLDATALOAD PUSH8 0xFFFFFFFFFFFFFFFF DUP2 GT ISZERO PUSH3 0x43C4 JUMPI PUSH1 0x0 DUP1 REVERT JUMPDEST PUSH3 0x412F DUP9 DUP3 DUP10 ADD PUSH3 0x4009 JUMP JUMPDEST PUSH1 0x20 DUP2 MSTORE DUP2 MLOAD PUSH1 0x20 DUP3 ADD MSTORE PUSH1 0x0 PUSH1 0x20 DUP4 ADD MLOAD PUSH2 0x100 DUP1 PUSH1 0x40 DUP6 ADD MSTORE PUSH3 0x43FD PUSH2 0x120 DUP6 ADD DUP4 PUSH3 0x3E28 JUMP JUMPDEST SWAP2 POP PUSH1 0x1 DUP1 PUSH1 0xA0 SHL SUB PUSH1 0x40 DUP7 ADD MLOAD AND PUSH1 0x60 DUP6 ADD MSTORE PUSH1 0x60 DUP6 ADD MLOAD PUSH1 0x80 DUP6 ADD MSTORE PUSH1 0x80 DUP6 ADD MLOAD PUSH1 0xA0 DUP6 ADD MSTORE PUSH1 0xA0 DUP6 ADD MLOAD PUSH3 0x4440 PUSH1 0xC0 DUP7 ADD DUP3 PUSH1 0x1 PUSH1 0x1 PUSH1 0xA0 SHL SUB AND SWAP1 MSTORE JUMP JUMPDEST POP PUSH1 0xC0 DUP6 ADD MLOAD PUSH1 0xE0 DUP6 ADD MSTORE PUSH1 0xE0 DUP6 ADD MLOAD PUSH1 0x1F NOT DUP6 DUP5 SUB ADD DUP3 DUP7 ADD MSTORE PUSH3 0x4467 DUP4 DUP3 PUSH3 0x3E28 JUMP JUMPDEST SWAP7 SWAP6 POP POP POP POP POP POP JUMP JUMPDEST PUSH1 0x1 DUP2 DUP2 SHR SWAP1 DUP3 AND DUP1 PUSH3 0x4486 JUMPI PUSH1 0x7F DUP3 AND SWAP2 POP JUMPDEST PUSH1 0x20 DUP3 LT DUP2 SUB PUSH3 0x44A7 JUMPI PUSH4 0x4E487B71 PUSH1 0xE0 SHL PUSH1 0x0 MSTORE PUSH1 0x22 PUSH1 0x4 MSTORE PUSH1 0x24 PUSH1 0x0 REVERT JUMPDEST POP SWAP2 SWAP1 POP JUMP JUMPDEST PUSH4 0x4E487B71 PUSH1 0xE0 SHL PUSH1 0x0 MSTORE PUSH1 0x11 PUSH1 0x4 MSTORE PUSH1 0x24 PUSH1 0x0 REVERT JUMPDEST DUP1 DUP3 MUL DUP2 ISZERO DUP3 DUP3 DIV DUP5 EQ OR PUSH3 0xFB9 JUMPI PUSH3 0xFB9 PUSH3 0x44AD JUMP JUMPDEST PUSH1 0x0 DUP3 PUSH3 0x44FB JUMPI PUSH4 0x4E487B71 PUSH1 0xE0 SHL PUSH1 0x0 MSTORE PUSH1 0x12 PUSH1 0x4 MSTORE PUSH1 0x24 PUSH1 0x0 REVERT JUMPDEST POP DIV SWAP1 JUMP JUMPDEST DUP2 DUP2 SUB DUP2 DUP2 GT ISZERO PUSH3 0xFB9 JUMPI PUSH3 0xFB9 PUSH3 0x44AD JUMP JUMPDEST PUSH1 0x0 PUSH1 0x20 DUP3 DUP5 SUB SLT ISZERO PUSH3 0x4529 JUMPI PUSH1 0x0 DUP1 REVERT JUMPDEST DUP2 MLOAD PUSH3 0x3DDD DUP2 PUSH3 0x3ED8 JUMP JUMPDEST DUP1 DUP3 ADD DUP1 DUP3 GT ISZERO PUSH3 0xFB9 JUMPI PUSH3 0xFB9 PUSH3 0x44AD JUMP JUMPDEST PUSH1 0x20 DUP1 DUP3 MSTORE PUSH1 0xF SWAP1 DUP3 ADD MSTORE PUSH15 0x5374617475732069732066616C7365 PUSH1 0x88 SHL PUSH1 0x40 DUP3 ADD MSTORE PUSH1 0x60 ADD SWAP1 JUMP JUMPDEST PUSH4 0x4E487B71 PUSH1 0xE0 SHL PUSH1 0x0 MSTORE PUSH1 0x32 PUSH1 0x4 MSTORE PUSH1 0x24 PUSH1 0x0 REVERT JUMPDEST PUSH4 0x4E487B71 PUSH1 0xE0 SHL PUSH1 0x0 MSTORE PUSH1 0x31 PUSH1 0x4 MSTORE PUSH1 0x24 PUSH1 0x0 REVERT JUMPDEST PUSH1 0x0 PUSH1 0x1 DUP3 ADD PUSH3 0x45B6 JUMPI PUSH3 0x45B6 PUSH3 0x44AD JUMP JUMPDEST POP PUSH1 0x1 ADD SWAP1 JUMP JUMPDEST PUSH1 0x0 PUSH1 0x20 DUP3 DUP5 SUB SLT ISZERO PUSH3 0x45D0 JUMPI PUSH1 0x0 DUP1 REVERT JUMPDEST POP MLOAD SWAP2 SWAP1 POP JUMP JUMPDEST PUSH1 0x1F DUP3 GT ISZERO PUSH3 0x4621 JUMPI PUSH1 0x0 DUP2 DUP2 MSTORE PUSH1 0x20 DUP2 KECCAK256 PUSH1 0x1F DUP6 ADD PUSH1 0x5 SHR DUP2 ADD PUSH1 0x20 DUP7 LT ISZERO PUSH3 0x4600 JUMPI POP DUP1 JUMPDEST PUSH1 0x1F DUP6 ADD PUSH1 0x5 SHR DUP3 ADD SWAP2 POP JUMPDEST DUP2 DUP2 LT ISZERO PUSH3 0x1FCE JUMPI DUP3 DUP2 SSTORE PUSH1 0x1 ADD PUSH3 0x460C JUMP JUMPDEST POP POP POP JUMP JUMPDEST DUP2 MLOAD PUSH8 0xFFFFFFFFFFFFFFFF DUP2 GT ISZERO PUSH3 0x4643 JUMPI PUSH3 0x4643 PUSH3 0x3F23 JUMP JUMPDEST PUSH3 0x465B DUP2 PUSH3 0x4654 DUP5 SLOAD PUSH3 0x4471 JUMP JUMPDEST DUP5 PUSH3 0x45D7 JUMP JUMPDEST PUSH1 0x20 DUP1 PUSH1 0x1F DUP4 GT PUSH1 0x1 DUP2 EQ PUSH3 0x4693 JUMPI PUSH1 0x0 DUP5 ISZERO PUSH3 0x467A JUMPI POP DUP6 DUP4 ADD MLOAD JUMPDEST PUSH1 0x0 NOT PUSH1 0x3 DUP7 SWAP1 SHL SHR NOT AND PUSH1 0x1 DUP6 SWAP1 SHL OR DUP6 SSTORE PUSH3 0x1FCE JUMP JUMPDEST PUSH1 0x0 DUP6 DUP2 MSTORE PUSH1 0x20 DUP2 KECCAK256 PUSH1 0x1F NOT DUP7 AND SWAP2 JUMPDEST DUP3 DUP2 LT ISZERO PUSH3 0x46C4 JUMPI DUP9 DUP7 ADD MLOAD DUP3 SSTORE SWAP5 DUP5 ADD SWAP5 PUSH1 0x1 SWAP1 SWAP2 ADD SWAP1 DUP5 ADD PUSH3 0x46A3 JUMP JUMPDEST POP DUP6 DUP3 LT ISZERO PUSH3 0x46E3 JUMPI DUP8 DUP6 ADD MLOAD PUSH1 0x0 NOT PUSH1 0x3 DUP9 SWAP1 SHL PUSH1 0xF8 AND SHR NOT AND DUP2 SSTORE JUMPDEST POP POP POP POP POP PUSH1 0x1 SWAP1 DUP2 SHL ADD SWAP1 SSTORE POP JUMP JUMPDEST PUSH1 0x0 DUP3 MLOAD PUSH3 0x4707 DUP2 DUP5 PUSH1 0x20 DUP8 ADD PUSH3 0x3E02 JUMP JUMPDEST SWAP2 SWAP1 SWAP2 ADD SWAP3 SWAP2 POP POP JUMP JUMPDEST PUSH1 0x40 DUP2 MSTORE PUSH1 0x0 PUSH3 0x4726 PUSH1 0x40 DUP4 ADD DUP6 PUSH3 0x4216 JUMP JUMPDEST DUP3 DUP2 SUB PUSH1 0x20 DUP5 ADD MSTORE PUSH3 0x473A DUP2 DUP6 PUSH3 0x4216 JUMP JUMPDEST SWAP6 SWAP5 POP POP POP POP POP JUMP JUMPDEST PUSH1 0x1 PUSH1 0x1 PUSH1 0xA0 SHL SUB DUP7 DUP2 AND DUP3 MSTORE DUP6 AND PUSH1 0x20 DUP3 ADD MSTORE PUSH1 0xA0 PUSH1 0x40 DUP3 ADD DUP2 SWAP1 MSTORE PUSH1 0x0 SWAP1 PUSH3 0x4771 SWAP1 DUP4 ADD DUP7 PUSH3 0x4216 JUMP JUMPDEST DUP3 DUP2 SUB PUSH1 0x60 DUP5 ADD MSTORE PUSH3 0x4785 DUP2 DUP7 PUSH3 0x4216 JUMP JUMPDEST SWAP1 POP DUP3 DUP2 SUB PUSH1 0x80 DUP5 ADD MSTORE PUSH3 0x479B DUP2 DUP6 PUSH3 0x3E28 JUMP JUMPDEST SWAP9 SWAP8 POP POP POP POP POP POP POP POP JUMP JUMPDEST PUSH1 0x0 PUSH1 0x20 DUP3 DUP5 SUB SLT ISZERO PUSH3 0x47BA JUMPI PUSH1 0x0 DUP1 REVERT JUMPDEST DUP2 MLOAD PUSH3 0x3DDD DUP2 PUSH3 0x3DA6 JUMP JUMPDEST PUSH1 0x0 PUSH1 0x3 RETURNDATASIZE GT ISZERO PUSH3 0x47E1 JUMPI PUSH1 0x4 PUSH1 0x0 DUP1 RETURNDATACOPY POP PUSH1 0x0 MLOAD PUSH1 0xE0 SHR JUMPDEST SWAP1 JUMP JUMPDEST PUSH1 0x0 PUSH1 0x44 RETURNDATASIZE LT ISZERO PUSH3 0x47F3 JUMPI SWAP1 JUMP JUMPDEST PUSH1 0x40 MLOAD PUSH1 0x3 NOT RETURNDATASIZE DUP2 ADD PUSH1 0x4 DUP4 RETURNDATACOPY DUP2 MLOAD RETURNDATASIZE PUSH8 0xFFFFFFFFFFFFFFFF DUP2 PUSH1 0x24 DUP5 ADD GT DUP2 DUP5 GT OR ISZERO PUSH3 0x4824 JUMPI POP POP POP POP POP SWAP1 JUMP JUMPDEST DUP3 DUP6 ADD SWAP2 POP DUP2 MLOAD DUP2 DUP2 GT ISZERO PUSH3 0x483D JUMPI POP POP POP POP POP POP SWAP1 JUMP JUMPDEST DUP5 RETURNDATASIZE DUP8 ADD ADD PUSH1 0x20 DUP3 DUP6 ADD ADD GT ISZERO PUSH3 0x4858 JUMPI POP POP POP POP POP POP SWAP1 JUMP JUMPDEST PUSH3 0x4869 PUSH1 0x20 DUP3 DUP7 ADD ADD DUP8 PUSH3 0x3F39 JUMP JUMPDEST POP SWAP1 SWAP6 SWAP5 POP POP POP POP POP JUMP JUMPDEST PUSH1 0x20 DUP1 DUP3 MSTORE PUSH1 0x28 SWAP1 DUP3 ADD MSTORE PUSH32 0x455243313135353A204552433131353552656365697665722072656A65637465 PUSH1 0x40 DUP3 ADD MSTORE PUSH8 0x6420746F6B656E73 PUSH1 0xC0 SHL PUSH1 0x60 DUP3 ADD MSTORE PUSH1 0x80 ADD SWAP1 JUMP JUMPDEST PUSH1 0x1 PUSH1 0x1 PUSH1 0xA0 SHL SUB DUP7 DUP2 AND DUP3 MSTORE DUP6 AND PUSH1 0x20 DUP3 ADD MSTORE PUSH1 0x40 DUP2 ADD DUP5 SWAP1 MSTORE PUSH1 0x60 DUP2 ADD DUP4 SWAP1 MSTORE PUSH1 0xA0 PUSH1 0x80 DUP3 ADD DUP2 SWAP1 MSTORE PUSH1 0x0 SWAP1 PUSH3 0x48F8 SWAP1 DUP4 ADD DUP5 PUSH3 0x3E28 JUMP JUMPDEST SWAP8 SWAP7 POP POP POP POP POP POP POP JUMP INVALID PUSH1 0x80 PUSH1 0x40 MSTORE CALLVALUE DUP1 ISZERO PUSH2 0x10 JUMPI PUSH1 0x0 DUP1 REVERT JUMPDEST POP PUSH1 0x40 MLOAD PUSH2 0x95C CODESIZE SUB DUP1 PUSH2 0x95C DUP4 CODECOPY DUP2 ADD PUSH1 0x40 DUP2 SWAP1 MSTORE PUSH2 0x2F SWAP2 PUSH2 0x78 JUMP JUMPDEST PUSH1 0x3 DUP1 SLOAD PUSH1 0x1 PUSH1 0x1 PUSH1 0xA0 SHL SUB SWAP4 DUP5 AND PUSH1 0x1 PUSH1 0x1 PUSH1 0xA0 SHL SUB NOT SWAP2 DUP3 AND OR SWAP1 SWAP2 SSTORE PUSH1 0x4 DUP1 SLOAD SWAP3 SWAP1 SWAP4 AND SWAP2 AND OR SWAP1 SSTORE PUSH2 0xB2 JUMP JUMPDEST PUSH1 0x1 PUSH1 0x1 PUSH1 0xA0 SHL SUB DUP2 AND DUP2 EQ PUSH2 0x75 JUMPI PUSH1 0x0 DUP1 REVERT JUMPDEST POP JUMP JUMPDEST PUSH1 0x0 DUP1 PUSH1 0x40 DUP4 DUP6 SUB SLT ISZERO PUSH2 0x8B JUMPI PUSH1 0x0 DUP1 REVERT JUMPDEST DUP3 MLOAD PUSH2 0x96 DUP2 PUSH2 0x60 JUMP JUMPDEST PUSH1 0x20 DUP5 ADD MLOAD SWAP1 SWAP3 POP PUSH2 0xA7 DUP2 PUSH2 0x60 JUMP JUMPDEST DUP1 SWAP2 POP POP SWAP3 POP SWAP3 SWAP1 POP JUMP JUMPDEST PUSH2 0x89B DUP1 PUSH2 0xC1 PUSH1 0x0 CODECOPY PUSH1 0x0 RETURN INVALID PUSH1 0x80 PUSH1 0x40 MSTORE CALLVALUE DUP1 ISZERO PUSH2 0x10 JUMPI PUSH1 0x0 DUP1 REVERT JUMPDEST POP PUSH1 0x4 CALLDATASIZE LT PUSH2 0x100 JUMPI PUSH1 0x0 CALLDATALOAD PUSH1 0xE0 SHR DUP1 PUSH4 0x8FC99EA3 GT PUSH2 0x97 JUMPI DUP1 PUSH4 0xD7081E03 GT PUSH2 0x66 JUMPI DUP1 PUSH4 0xD7081E03 EQ PUSH2 0x21B JUMPI DUP1 PUSH4 0xE7EE6AD6 EQ PUSH2 0x22E JUMPI DUP1 PUSH4 0xF851A440 EQ PUSH2 0x241 JUMPI DUP1 PUSH4 0xFA46B690 EQ PUSH2 0x254 JUMPI PUSH1 0x0 DUP1 REVERT JUMPDEST DUP1 PUSH4 0x8FC99EA3 EQ PUSH2 0x1BF JUMPI DUP1 PUSH4 0xAC4CE2C6 EQ PUSH2 0x1E3 JUMPI DUP1 PUSH4 0xAD5C4648 EQ PUSH2 0x1F6 JUMPI DUP1 PUSH4 0xB8AC457B EQ PUSH2 0x209 JUMPI PUSH1 0x0 DUP1 REVERT JUMPDEST DUP1 PUSH4 0x38EADA1C GT PUSH2 0xD3 JUMPI DUP1 PUSH4 0x38EADA1C EQ PUSH2 0x170 JUMPI DUP1 PUSH4 0x46DF2CCB EQ PUSH2 0x183 JUMPI DUP1 PUSH4 0x6711BE0E EQ PUSH2 0x196 JUMPI DUP1 PUSH4 0x70CA09BC EQ PUSH2 0x1AC JUMPI PUSH1 0x0 DUP1 REVERT JUMPDEST DUP1 PUSH4 0x9F14A5C EQ PUSH2 0x105 JUMPI DUP1 PUSH4 0x144FA6D7 EQ PUSH2 0x11A JUMPI DUP1 PUSH4 0x1DE1E2AC EQ PUSH2 0x12D JUMPI DUP1 PUSH4 0x31678CF6 EQ PUSH2 0x15D JUMPI JUMPDEST PUSH1 0x0 DUP1 REVERT JUMPDEST PUSH2 0x118 PUSH2 0x113 CALLDATASIZE PUSH1 0x4 PUSH2 0x6EF JUMP JUMPDEST PUSH2 0x25C JUMP JUMPDEST STOP JUMPDEST PUSH2 0x118 PUSH2 0x128 CALLDATASIZE PUSH1 0x4 PUSH2 0x71D JUMP JUMPDEST PUSH2 0x2A8 JUMP JUMPDEST PUSH2 0x140 PUSH2 0x13B CALLDATASIZE PUSH1 0x4 PUSH2 0x6EF JUMP JUMPDEST PUSH2 0x2E1 JUMP JUMPDEST PUSH1 0x40 MLOAD PUSH1 0x1 PUSH1 0x1 PUSH1 0xA0 SHL SUB SWAP1 SWAP2 AND DUP2 MSTORE PUSH1 0x20 ADD JUMPDEST PUSH1 0x40 MLOAD DUP1 SWAP2 SUB SWAP1 RETURN JUMPDEST PUSH2 0x118 PUSH2 0x16B CALLDATASIZE PUSH1 0x4 PUSH2 0x741 JUMP JUMPDEST PUSH2 0x30B JUMP JUMPDEST PUSH2 0x118 PUSH2 0x17E CALLDATASIZE PUSH1 0x4 PUSH2 0x71D JUMP JUMPDEST PUSH2 0x392 JUMP JUMPDEST PUSH2 0x118 PUSH2 0x191 CALLDATASIZE PUSH1 0x4 PUSH2 0x77A JUMP JUMPDEST PUSH2 0x3FA JUMP JUMPDEST PUSH2 0x19E PUSH2 0x435 JUMP JUMPDEST PUSH1 0x40 MLOAD SWAP1 DUP2 MSTORE PUSH1 0x20 ADD PUSH2 0x154 JUMP JUMPDEST PUSH1 0x4 SLOAD PUSH2 0x140 SWAP1 PUSH1 0x1 PUSH1 0x1 PUSH1 0xA0 SHL SUB AND DUP2 JUMP JUMPDEST PUSH1 0x4 SLOAD PUSH2 0x1D3 SWAP1 PUSH1 0x1 PUSH1 0xA0 SHL SWAP1 DIV PUSH1 0xFF AND DUP2 JUMP JUMPDEST PUSH1 0x40 MLOAD SWAP1 ISZERO ISZERO DUP2 MSTORE PUSH1 0x20 ADD PUSH2 0x154 JUMP JUMPDEST PUSH2 0x118 PUSH2 0x1F1 CALLDATASIZE PUSH1 0x4 PUSH2 0x79C JUMP JUMPDEST PUSH2 0x4A7 JUMP JUMPDEST PUSH1 0x0 SLOAD PUSH2 0x140 SWAP1 PUSH1 0x1 PUSH1 0x1 PUSH1 0xA0 SHL SUB AND DUP2 JUMP JUMPDEST PUSH1 0x4 SLOAD PUSH1 0x1 PUSH1 0xA0 SHL SWAP1 DIV PUSH1 0xFF AND PUSH2 0x1D3 JUMP JUMPDEST PUSH2 0x118 PUSH2 0x229 CALLDATASIZE PUSH1 0x4 PUSH2 0x7C1 JUMP JUMPDEST PUSH2 0x504 JUMP JUMPDEST PUSH2 0x19E PUSH2 0x23C CALLDATASIZE PUSH1 0x4 PUSH2 0x6EF JUMP JUMPDEST PUSH2 0x5DA JUMP JUMPDEST PUSH1 0x3 SLOAD PUSH2 0x140 SWAP1 PUSH1 0x1 PUSH1 0x1 PUSH1 0xA0 SHL SUB AND DUP2 JUMP JUMPDEST PUSH2 0x118 PUSH2 0x5FB JUMP JUMPDEST PUSH1 0x3 SLOAD PUSH1 0x1 PUSH1 0x1 PUSH1 0xA0 SHL SUB AND CALLER EQ PUSH2 0x273 JUMPI PUSH1 0x0 DUP1 REVERT JUMPDEST PUSH1 0x2 DUP1 SLOAD PUSH1 0x1 DUP2 ADD DUP3 SSTORE PUSH1 0x0 SWAP2 SWAP1 SWAP2 MSTORE PUSH32 0x405787FA12A823E0F2B7631CC41B3BA8828B3321CA811111FA75CD3AA3BB5ACE ADD SSTORE JUMP JUMPDEST PUSH1 0x3 SLOAD PUSH1 0x1 PUSH1 0x1 PUSH1 0xA0 SHL SUB AND CALLER EQ PUSH2 0x2BF JUMPI PUSH1 0x0 DUP1 REVERT JUMPDEST PUSH1 0x0 DUP1 SLOAD PUSH1 0x1 PUSH1 0x1 PUSH1 0xA0 SHL SUB NOT AND PUSH1 0x1 PUSH1 0x1 PUSH1 0xA0 SHL SUB SWAP3 SWAP1 SWAP3 AND SWAP2 SWAP1 SWAP2 OR SWAP1 SSTORE JUMP JUMPDEST PUSH1 0x1 DUP2 DUP2 SLOAD DUP2 LT PUSH2 0x2F1 JUMPI PUSH1 0x0 DUP1 REVERT JUMPDEST PUSH1 0x0 SWAP2 DUP3 MSTORE PUSH1 0x20 SWAP1 SWAP2 KECCAK256 ADD SLOAD PUSH1 0x1 PUSH1 0x1 PUSH1 0xA0 SHL SUB AND SWAP1 POP DUP2 JUMP JUMPDEST PUSH1 0x4 SLOAD PUSH1 0x1 PUSH1 0x1 PUSH1 0xA0 SHL SUB AND CALLER EQ DUP1 ISZERO PUSH2 0x332 JUMPI POP PUSH1 0x3 SLOAD PUSH1 0x1 PUSH1 0x1 PUSH1 0xA0 SHL SUB DUP4 DUP2 AND SWAP2 AND EQ JUMPDEST PUSH2 0x36F JUMPI PUSH1 0x40 MLOAD PUSH3 0x461BCD PUSH1 0xE5 SHL DUP2 MSTORE PUSH1 0x20 PUSH1 0x4 DUP3 ADD MSTORE PUSH1 0x9 PUSH1 0x24 DUP3 ADD MSTORE PUSH9 0x6E6F20616363657373 PUSH1 0xB8 SHL PUSH1 0x44 DUP3 ADD MSTORE PUSH1 0x64 ADD JUMPDEST PUSH1 0x40 MLOAD DUP1 SWAP2 SUB SWAP1 REVERT JUMPDEST PUSH1 0x3 DUP1 SLOAD PUSH1 0x1 PUSH1 0x1 PUSH1 0xA0 SHL SUB NOT AND PUSH1 0x1 PUSH1 0x1 PUSH1 0xA0 SHL SUB SWAP3 SWAP1 SWAP3 AND SWAP2 SWAP1 SWAP2 OR SWAP1 SSTORE POP JUMP JUMPDEST PUSH1 0x3 SLOAD PUSH1 0x1 PUSH1 0x1 PUSH1 0xA0 SHL SUB AND CALLER EQ PUSH2 0x3A9 JUMPI PUSH1 0x0 DUP1 REVERT JUMPDEST PUSH1 0x1 DUP1 SLOAD DUP1 DUP3 ADD DUP3 SSTORE PUSH1 0x0 SWAP2 SWAP1 SWAP2 MSTORE PUSH32 0xB10E2D527612073B26EECDFD717E6A320CF44B4AFAC2B0732D9FCBE2B7FA0CF6 ADD DUP1 SLOAD PUSH1 0x1 PUSH1 0x1 PUSH1 0xA0 SHL SUB NOT AND PUSH1 0x1 PUSH1 0x1 PUSH1 0xA0 SHL SUB SWAP3 SWAP1 SWAP3 AND SWAP2 SWAP1 SWAP2 OR SWAP1 SSTORE JUMP JUMPDEST PUSH1 0x3 SLOAD PUSH1 0x1 PUSH1 0x1 PUSH1 0xA0 SHL SUB AND CALLER EQ PUSH2 0x411 JUMPI PUSH1 0x0 DUP1 REVERT JUMPDEST DUP1 PUSH1 0x2 DUP4 DUP2 SLOAD DUP2 LT PUSH2 0x425 JUMPI PUSH2 0x425 PUSH2 0x7ED JUMP JUMPDEST PUSH1 0x0 SWAP2 DUP3 MSTORE PUSH1 0x20 SWAP1 SWAP2 KECCAK256 ADD SSTORE POP POP JUMP JUMPDEST PUSH1 0x0 DUP1 SLOAD PUSH1 0x40 MLOAD PUSH4 0x70A08231 PUSH1 0xE0 SHL DUP2 MSTORE ADDRESS PUSH1 0x4 DUP3 ADD MSTORE PUSH1 0x1 PUSH1 0x1 PUSH1 0xA0 SHL SUB SWAP1 SWAP2 AND SWAP1 PUSH4 0x70A08231 SWAP1 PUSH1 0x24 ADD PUSH1 0x20 PUSH1 0x40 MLOAD DUP1 DUP4 SUB DUP2 DUP7 GAS STATICCALL ISZERO DUP1 ISZERO PUSH2 0x47E JUMPI RETURNDATASIZE PUSH1 0x0 DUP1 RETURNDATACOPY RETURNDATASIZE PUSH1 0x0 REVERT JUMPDEST POP POP POP POP PUSH1 0x40 MLOAD RETURNDATASIZE PUSH1 0x1F NOT PUSH1 0x1F DUP3 ADD AND DUP3 ADD DUP1 PUSH1 0x40 MSTORE POP DUP2 ADD SWAP1 PUSH2 0x4A2 SWAP2 SWAP1 PUSH2 0x803 JUMP JUMPDEST SWAP1 POP SWAP1 JUMP JUMPDEST PUSH1 0x3 SLOAD PUSH1 0x1 PUSH1 0x1 PUSH1 0xA0 SHL SUB AND CALLER EQ PUSH2 0x4BE JUMPI PUSH1 0x0 DUP1 REVERT JUMPDEST DUP1 PUSH1 0x1 DUP4 DUP2 SLOAD DUP2 LT PUSH2 0x4D2 JUMPI PUSH2 0x4D2 PUSH2 0x7ED JUMP JUMPDEST SWAP1 PUSH1 0x0 MSTORE PUSH1 0x20 PUSH1 0x0 KECCAK256 ADD PUSH1 0x0 PUSH2 0x100 EXP DUP2 SLOAD DUP2 PUSH1 0x1 PUSH1 0x1 PUSH1 0xA0 SHL SUB MUL NOT AND SWAP1 DUP4 PUSH1 0x1 PUSH1 0x1 PUSH1 0xA0 SHL SUB AND MUL OR SWAP1 SSTORE POP POP POP JUMP JUMPDEST PUSH1 0x3 SLOAD PUSH1 0x1 PUSH1 0x1 PUSH1 0xA0 SHL SUB AND CALLER EQ PUSH2 0x51B JUMPI PUSH1 0x0 DUP1 REVERT JUMPDEST PUSH1 0x0 PUSH2 0x525 PUSH2 0x435 JUMP JUMPDEST GT PUSH2 0x55E JUMPI PUSH1 0x40 MLOAD PUSH3 0x461BCD PUSH1 0xE5 SHL DUP2 MSTORE PUSH1 0x20 PUSH1 0x4 DUP3 ADD MSTORE PUSH1 0x9 PUSH1 0x24 DUP3 ADD MSTORE PUSH9 0x1B9BC8185B5BDD5B9D PUSH1 0xBA SHL PUSH1 0x44 DUP3 ADD MSTORE PUSH1 0x64 ADD PUSH2 0x366 JUMP JUMPDEST PUSH1 0x0 SLOAD PUSH1 0x40 MLOAD PUSH4 0xA9059CBB PUSH1 0xE0 SHL DUP2 MSTORE PUSH1 0x1 PUSH1 0x1 PUSH1 0xA0 SHL SUB DUP5 DUP2 AND PUSH1 0x4 DUP4 ADD MSTORE PUSH1 0x24 DUP3 ADD DUP5 SWAP1 MSTORE SWAP1 SWAP2 AND SWAP1 PUSH4 0xA9059CBB SWAP1 PUSH1 0x44 ADD PUSH1 0x20 PUSH1 0x40 MLOAD DUP1 DUP4 SUB DUP2 PUSH1 0x0 DUP8 GAS CALL ISZERO DUP1 ISZERO PUSH2 0x5B1 JUMPI RETURNDATASIZE PUSH1 0x0 DUP1 RETURNDATACOPY RETURNDATASIZE PUSH1 0x0 REVERT JUMPDEST POP POP POP POP PUSH1 0x40 MLOAD RETURNDATASIZE PUSH1 0x1F NOT PUSH1 0x1F DUP3 ADD AND DUP3 ADD DUP1 PUSH1 0x40 MSTORE POP DUP2 ADD SWAP1 PUSH2 0x5D5 SWAP2 SWAP1 PUSH2 0x81C JUMP JUMPDEST POP POP POP JUMP JUMPDEST PUSH1 0x2 DUP2 DUP2 SLOAD DUP2 LT PUSH2 0x5EA JUMPI PUSH1 0x0 DUP1 REVERT JUMPDEST PUSH1 0x0 SWAP2 DUP3 MSTORE PUSH1 0x20 SWAP1 SWAP2 KECCAK256 ADD SLOAD SWAP1 POP DUP2 JUMP JUMPDEST PUSH1 0x0 JUMPDEST PUSH1 0x1 SLOAD DUP2 LT ISZERO PUSH2 0x6EC JUMPI PUSH1 0x0 SLOAD PUSH1 0x1 DUP1 SLOAD PUSH1 0x1 PUSH1 0x1 PUSH1 0xA0 SHL SUB SWAP1 SWAP3 AND SWAP2 PUSH4 0xA9059CBB SWAP2 SWAP1 DUP5 SWAP1 DUP2 LT PUSH2 0x632 JUMPI PUSH2 0x632 PUSH2 0x7ED JUMP JUMPDEST PUSH1 0x0 SWAP2 DUP3 MSTORE PUSH1 0x20 SWAP1 SWAP2 KECCAK256 ADD SLOAD PUSH1 0x2 DUP1 SLOAD PUSH1 0x1 PUSH1 0x1 PUSH1 0xA0 SHL SUB SWAP1 SWAP3 AND SWAP2 DUP6 SWAP1 DUP2 LT PUSH2 0x65E JUMPI PUSH2 0x65E PUSH2 0x7ED JUMP JUMPDEST PUSH1 0x0 SWAP2 DUP3 MSTORE PUSH1 0x20 SWAP1 SWAP2 KECCAK256 ADD SLOAD PUSH1 0x40 MLOAD PUSH1 0x1 PUSH1 0x1 PUSH1 0xE0 SHL SUB NOT PUSH1 0xE0 DUP6 SWAP1 SHL AND DUP2 MSTORE PUSH1 0x1 PUSH1 0x1 PUSH1 0xA0 SHL SUB SWAP1 SWAP3 AND PUSH1 0x4 DUP4 ADD MSTORE PUSH1 0x24 DUP3 ADD MSTORE PUSH1 0x44 ADD PUSH1 0x20 PUSH1 0x40 MLOAD DUP1 DUP4 SUB DUP2 PUSH1 0x0 DUP8 GAS CALL ISZERO DUP1 ISZERO PUSH2 0x6B5 JUMPI RETURNDATASIZE PUSH1 0x0 DUP1 RETURNDATACOPY RETURNDATASIZE PUSH1 0x0 REVERT JUMPDEST POP POP POP POP PUSH1 0x40 MLOAD RETURNDATASIZE PUSH1 0x1F NOT PUSH1 0x1F DUP3 ADD AND DUP3 ADD DUP1 PUSH1 0x40 MSTORE POP DUP2 ADD SWAP1 PUSH2 0x6D9 SWAP2 SWAP1 PUSH2 0x81C JUMP JUMPDEST POP DUP1 PUSH2 0x6E4 DUP2 PUSH2 0x83E JUMP JUMPDEST SWAP2 POP POP PUSH2 0x5FE JUMP JUMPDEST POP JUMP JUMPDEST PUSH1 0x0 PUSH1 0x20 DUP3 DUP5 SUB SLT ISZERO PUSH2 0x701 JUMPI PUSH1 0x0 DUP1 REVERT JUMPDEST POP CALLDATALOAD SWAP2 SWAP1 POP JUMP JUMPDEST PUSH1 0x1 PUSH1 0x1 PUSH1 0xA0 SHL SUB DUP2 AND DUP2 EQ PUSH2 0x6EC JUMPI PUSH1 0x0 DUP1 REVERT JUMPDEST PUSH1 0x0 PUSH1 0x20 DUP3 DUP5 SUB SLT ISZERO PUSH2 0x72F JUMPI PUSH1 0x0 DUP1 REVERT JUMPDEST DUP2 CALLDATALOAD PUSH2 0x73A DUP2 PUSH2 0x708 JUMP JUMPDEST SWAP4 SWAP3 POP POP POP JUMP JUMPDEST PUSH1 0x0 DUP1 PUSH1 0x40 DUP4 DUP6 SUB SLT ISZERO PUSH2 0x754 JUMPI PUSH1 0x0 DUP1 REVERT JUMPDEST DUP3 CALLDATALOAD PUSH2 0x75F DUP2 PUSH2 0x708 JUMP JUMPDEST SWAP2 POP PUSH1 0x20 DUP4 ADD CALLDATALOAD PUSH2 0x76F DUP2 PUSH2 0x708 JUMP JUMPDEST DUP1 SWAP2 POP POP SWAP3 POP SWAP3 SWAP1 POP JUMP JUMPDEST PUSH1 0x0 DUP1 PUSH1 0x40 DUP4 DUP6 SUB SLT ISZERO PUSH2 0x78D JUMPI PUSH1 0x0 DUP1 REVERT JUMPDEST POP POP DUP1 CALLDATALOAD SWAP3 PUSH1 0x20 SWAP1 SWAP2 ADD CALLDATALOAD SWAP2 POP JUMP JUMPDEST PUSH1 0x0 DUP1 PUSH1 0x40 DUP4 DUP6 SUB SLT ISZERO PUSH2 0x7AF JUMPI PUSH1 0x0 DUP1 REVERT JUMPDEST DUP3 CALLDATALOAD SWAP2 POP PUSH1 0x20 DUP4 ADD CALLDATALOAD PUSH2 0x76F DUP2 PUSH2 0x708 JUMP JUMPDEST PUSH1 0x0 DUP1 PUSH1 0x40 DUP4 DUP6 SUB SLT ISZERO PUSH2 0x7D4 JUMPI PUSH1 0x0 DUP1 REVERT JUMPDEST DUP3 CALLDATALOAD PUSH2 0x7DF DUP2 PUSH2 0x708 JUMP JUMPDEST SWAP5 PUSH1 0x20 SWAP4 SWAP1 SWAP4 ADD CALLDATALOAD SWAP4 POP POP POP JUMP JUMPDEST PUSH4 0x4E487B71 PUSH1 0xE0 SHL PUSH1 0x0 MSTORE PUSH1 0x32 PUSH1 0x4 MSTORE PUSH1 0x24 PUSH1 0x0 REVERT JUMPDEST PUSH1 0x0 PUSH1 0x20 DUP3 DUP5 SUB SLT ISZERO PUSH2 0x815 JUMPI PUSH1 0x0 DUP1 REVERT JUMPDEST POP MLOAD SWAP2 SWAP1 POP JUMP JUMPDEST PUSH1 0x0 PUSH1 0x20 DUP3 DUP5 SUB SLT ISZERO PUSH2 0x82E JUMPI PUSH1 0x0 DUP1 REVERT JUMPDEST DUP2 MLOAD DUP1 ISZERO ISZERO DUP2 EQ PUSH2 0x73A JUMPI PUSH1 0x0 DUP1 REVERT JUMPDEST PUSH1 0x0 PUSH1 0x1 DUP3 ADD PUSH2 0x85E JUMPI PUSH4 0x4E487B71 PUSH1 0xE0 SHL PUSH1 0x0 MSTORE PUSH1 0x11 PUSH1 0x4 MSTORE PUSH1 0x24 PUSH1 0x0 REVERT JUMPDEST POP PUSH1 0x1 ADD SWAP1 JUMP INVALID LOG2 PUSH5 0x6970667358 0x22 SLT KECCAK256 0xCD CALL DUP5 ISZERO MSTORE8 DUP3 PUSH20 0x333884173F95226F119BB1D1B6D9F7AEE243C037 LOG0 SHR SWAP13 PUSH32 0xB464736F6C63430008120033A2646970667358221220A7E5B0D5D98452650AB2 0xB9 0x22 0xEE 0xCE PUSH18 0x9E418597B1BCC14804EA39B11447A34FAD64 PUSH20 0x6F6C634300081200330000000000000000000000 "
		},
		"gasEstimates": {
			"creation": {
				"codeDepositCost": "4228200",
				"executionCost": "infinite",
				"totalCost": "infinite"
			},
			"external": {
				"Reputation()": "2405",
				"activationScore()": "2419",
				"backToken()": "infinite",
				"balanceOf(address,uint256)": "2768",
				"balanceOfBatch(address[],uint256[])": "infinite",
				"changeNodeAdmin(address)": "infinite",
				"checkCity(string)": "infinite",
				"checkCityNodeId()": "2483",
				"cityNodeAdmin(uint256)": "2568",
				"cityNodeCreater(address)": "2686",
				"cityNodeIncome(address,uint256)": "29161",
				"cityNodeIncomeAmount(uint256)": "2560",
				"cityNodeInfos(uint256)": "infinite",
				"cityNodeMember(uint256,uint256)": "4839",
				"cityNodeTreasuryAddr(address)": "6967",
				"cityNodeUserNum(address)": "2621",
				"contractStatus()": "2395",
				"createCityNode(string,string)": "infinite",
				"creationScore()": "2394",
				"ctiyNodeId()": "2351",
				"deleteCityNodeUser(address)": "infinite",
				"fdTokenAddress()": "2471",
				"fireSeed()": "2448",
				"fireSoul()": "2472",
				"getCityNodeAdmin(address)": "4851",
				"getCityNodeLength()": "2393",
				"getCityNodeMemberLength(uint256)": "2516",
				"getCityNodeReputation(uint256)": "infinite",
				"getIsCityNode(address,uint256)": "infinite",
				"getUserInNodeInfo(address)": "infinite",
				"idOfNodeInfo(uint256)": "infinite",
				"idToNodeTreasury(uint256)": "2589",
				"isApprovedForAll(address,address)": "infinite",
				"isNotCityNodeLight(address)": "4810",
				"isNotCityNodeUser(address)": "2642",
				"isNotCityNodeUsers(address)": "2617",
				"isNotLightCity(uint256)": "2519",
				"joinCityNode(uint256)": "infinite",
				"lightCityNode()": "infinite",
				"nodeIdInfo(uint256)": "infinite",
				"nodeInfo(string)": "infinite",
				"nodeTreasuryAdmin(address)": "2692",
				"owner()": "2422",
				"pauseAddress()": "2405",
				"proportion()": "2396",
				"quitCityNode(uint256)": "infinite",
				"renounceOwnership()": "infinite",
				"safeBatchTransferFrom(address,address,uint256[],uint256[],bytes)": "infinite",
				"safeTransferFrom(address,address,uint256,uint256,bytes)": "infinite",
				"setActivationScore(uint256)": "24601",
				"setApprovalForAll(address,bool)": "26802",
				"setCreationScore(uint256)": "24622",
				"setFdTokenAddress(address)": "26802",
				"setFireSeedAddress(address)": "26871",
				"setFireSoulAddress(address)": "26848",
				"setPause()": "26669",
				"setPause(address)": "26868",
				"setProportion(uint256)": "24558",
				"setReputationAddress(address)": "26825",
				"setWhiteUser(address,bool)": "26955",
				"supportsInterface(bytes4)": "646",
				"transferOwnership(address)": "28424",
				"uri(uint256)": "infinite",
				"userInNodeInfo(address)": "infinite",
				"userTax(address)": "2641",
				"weth()": "2428",
				"whiteUser(address)": "2621"
			}
		},
		"methodIdentifiers": {
			"Reputation()": "9904ed8d",
			"activationScore()": "0dae30db",
			"backToken()": "861faf5f",
			"balanceOf(address,uint256)": "00fdd58e",
			"balanceOfBatch(address[],uint256[])": "4e1273f4",
			"changeNodeAdmin(address)": "8c063a02",
			"checkCity(string)": "913e1063",
			"checkCityNodeId()": "39a98804",
			"cityNodeAdmin(uint256)": "149a75d6",
			"cityNodeCreater(address)": "bb667474",
			"cityNodeIncome(address,uint256)": "f3e0fb38",
			"cityNodeIncomeAmount(uint256)": "b882a0bb",
			"cityNodeInfos(uint256)": "47834e0c",
			"cityNodeMember(uint256,uint256)": "de97c262",
			"cityNodeTreasuryAddr(address)": "4d64e73a",
			"cityNodeUserNum(address)": "0c40fdfd",
			"contractStatus()": "c6ee20d2",
			"createCityNode(string,string)": "e458a888",
			"creationScore()": "f3a2937e",
			"ctiyNodeId()": "b0005ff8",
			"deleteCityNodeUser(address)": "95482768",
			"fdTokenAddress()": "62f3ccba",
			"fireSeed()": "78cb7539",
			"fireSoul()": "1a5ef71c",
			"getCityNodeAdmin(address)": "53340dc3",
			"getCityNodeLength()": "a3f9c8cb",
			"getCityNodeMemberLength(uint256)": "b12c249c",
			"getCityNodeReputation(uint256)": "5803ad37",
			"getIsCityNode(address,uint256)": "3fc196d0",
			"getUserInNodeInfo(address)": "fa4c15e1",
			"idOfNodeInfo(uint256)": "0ba360a9",
			"idToNodeTreasury(uint256)": "97009f60",
			"isApprovedForAll(address,address)": "e985e9c5",
			"isNotCityNodeLight(address)": "721d9a00",
			"isNotCityNodeUser(address)": "e8fef15d",
			"isNotCityNodeUsers(address)": "932af1ef",
			"isNotLightCity(uint256)": "0a4af49c",
			"joinCityNode(uint256)": "b3169894",
			"lightCityNode()": "97209183",
			"nodeIdInfo(uint256)": "ef9d52f1",
			"nodeInfo(string)": "e8a0c74e",
			"nodeTreasuryAdmin(address)": "a7948184",
			"owner()": "8da5cb5b",
			"pauseAddress()": "57312481",
			"proportion()": "5b4246d4",
			"quitCityNode(uint256)": "4386b6ec",
			"renounceOwnership()": "715018a6",
			"safeBatchTransferFrom(address,address,uint256[],uint256[],bytes)": "2eb2c2d6",
			"safeTransferFrom(address,address,uint256,uint256,bytes)": "f242432a",
			"setActivationScore(uint256)": "15bb9108",
			"setApprovalForAll(address,bool)": "a22cb465",
			"setCreationScore(uint256)": "5636cfc8",
			"setFdTokenAddress(address)": "eb57e5d4",
			"setFireSeedAddress(address)": "06dd6060",
			"setFireSoulAddress(address)": "9090c0f2",
			"setPause()": "d431b1ac",
			"setPause(address)": "836f038f",
			"setProportion(uint256)": "006cd200",
			"setReputationAddress(address)": "29fd8201",
			"setWhiteUser(address,bool)": "1d20920c",
			"supportsInterface(bytes4)": "01ffc9a7",
			"transferOwnership(address)": "f2fde38b",
			"uri(uint256)": "0e89341c",
			"userInNodeInfo(address)": "f056bac4",
			"userTax(address)": "f2242674",
			"weth()": "3fc8cef3",
			"whiteUser(address)": "c9344c33"
		}
	},
	"abi": [
		{
			"inputs": [
				{
					"internalType": "address",
					"name": "_weth",
					"type": "address"
				}
			],
			"stateMutability": "nonpayable",
			"type": "constructor"
		},
		{
			"anonymous": false,
			"inputs": [
				{
					"indexed": true,
					"internalType": "address",
					"name": "account",
					"type": "address"
				},
				{
					"indexed": true,
					"internalType": "address",
					"name": "operator",
					"type": "address"
				},
				{
					"indexed": false,
					"internalType": "bool",
					"name": "approved",
					"type": "bool"
				}
			],
			"name": "ApprovalForAll",
			"type": "event"
		},
		{
			"anonymous": false,
			"inputs": [
				{
					"indexed": true,
					"internalType": "address",
					"name": "previousOwner",
					"type": "address"
				},
				{
					"indexed": true,
					"internalType": "address",
					"name": "newOwner",
					"type": "address"
				}
			],
			"name": "OwnershipTransferred",
			"type": "event"
		},
		{
			"anonymous": false,
			"inputs": [
				{
					"indexed": true,
					"internalType": "address",
					"name": "operator",
					"type": "address"
				},
				{
					"indexed": true,
					"internalType": "address",
					"name": "from",
					"type": "address"
				},
				{
					"indexed": true,
					"internalType": "address",
					"name": "to",
					"type": "address"
				},
				{
					"indexed": false,
					"internalType": "uint256[]",
					"name": "ids",
					"type": "uint256[]"
				},
				{
					"indexed": false,
					"internalType": "uint256[]",
					"name": "values",
					"type": "uint256[]"
				}
			],
			"name": "TransferBatch",
			"type": "event"
		},
		{
			"anonymous": false,
			"inputs": [
				{
					"indexed": true,
					"internalType": "address",
					"name": "operator",
					"type": "address"
				},
				{
					"indexed": true,
					"internalType": "address",
					"name": "from",
					"type": "address"
				},
				{
					"indexed": true,
					"internalType": "address",
					"name": "to",
					"type": "address"
				},
				{
					"indexed": false,
					"internalType": "uint256",
					"name": "id",
					"type": "uint256"
				},
				{
					"indexed": false,
					"internalType": "uint256",
					"name": "value",
					"type": "uint256"
				}
			],
			"name": "TransferSingle",
			"type": "event"
		},
		{
			"anonymous": false,
			"inputs": [
				{
					"indexed": false,
					"internalType": "string",
					"name": "value",
					"type": "string"
				},
				{
					"indexed": true,
					"internalType": "uint256",
					"name": "id",
					"type": "uint256"
				}
			],
			"name": "URI",
			"type": "event"
		},
		{
			"inputs": [],
			"name": "Reputation",
			"outputs": [
				{
					"internalType": "address",
					"name": "",
					"type": "address"
				}
			],
			"stateMutability": "view",
			"type": "function"
		},
		{
			"inputs": [],
			"name": "activationScore",
			"outputs": [
				{
					"internalType": "uint256",
					"name": "",
					"type": "uint256"
				}
			],
			"stateMutability": "view",
			"type": "function"
		},
		{
			"inputs": [],
			"name": "backToken",
			"outputs": [],
			"stateMutability": "nonpayable",
			"type": "function"
		},
		{
			"inputs": [
				{
					"internalType": "address",
					"name": "account",
					"type": "address"
				},
				{
					"internalType": "uint256",
					"name": "id",
					"type": "uint256"
				}
			],
			"name": "balanceOf",
			"outputs": [
				{
					"internalType": "uint256",
					"name": "",
					"type": "uint256"
				}
			],
			"stateMutability": "view",
			"type": "function"
		},
		{
			"inputs": [
				{
					"internalType": "address[]",
					"name": "accounts",
					"type": "address[]"
				},
				{
					"internalType": "uint256[]",
					"name": "ids",
					"type": "uint256[]"
				}
			],
			"name": "balanceOfBatch",
			"outputs": [
				{
					"internalType": "uint256[]",
					"name": "",
					"type": "uint256[]"
				}
			],
			"stateMutability": "view",
			"type": "function"
		},
		{
			"inputs": [
				{
					"internalType": "address",
					"name": "newAdmin",
					"type": "address"
				}
			],
			"name": "changeNodeAdmin",
			"outputs": [],
			"stateMutability": "nonpayable",
			"type": "function"
		},
		{
			"inputs": [
				{
					"internalType": "string",
					"name": "",
					"type": "string"
				}
			],
			"name": "checkCity",
			"outputs": [
				{
					"internalType": "bool",
					"name": "",
					"type": "bool"
				}
			],
			"stateMutability": "view",
			"type": "function"
		},
		{
			"inputs": [],
			"name": "checkCityNodeId",
			"outputs": [
				{
					"internalType": "uint256",
					"name": "",
					"type": "uint256"
				}
			],
			"stateMutability": "view",
			"type": "function"
		},
		{
			"inputs": [
				{
					"internalType": "uint256",
					"name": "",
					"type": "uint256"
				}
			],
			"name": "cityNodeAdmin",
			"outputs": [
				{
					"internalType": "address",
					"name": "",
					"type": "address"
				}
			],
			"stateMutability": "view",
			"type": "function"
		},
		{
			"inputs": [
				{
					"internalType": "address",
					"name": "",
					"type": "address"
				}
			],
			"name": "cityNodeCreater",
			"outputs": [
				{
					"internalType": "bool",
					"name": "",
					"type": "bool"
				}
			],
			"stateMutability": "view",
			"type": "function"
		},
		{
			"inputs": [
				{
					"internalType": "address",
					"name": "_user",
					"type": "address"
				},
				{
					"internalType": "uint256",
					"name": "_income",
					"type": "uint256"
				}
			],
			"name": "cityNodeIncome",
			"outputs": [],
			"stateMutability": "nonpayable",
			"type": "function"
		},
		{
			"inputs": [
				{
					"internalType": "uint256",
					"name": "",
					"type": "uint256"
				}
			],
			"name": "cityNodeIncomeAmount",
			"outputs": [
				{
					"internalType": "uint256",
					"name": "",
					"type": "uint256"
				}
			],
			"stateMutability": "view",
			"type": "function"
		},
		{
			"inputs": [
				{
					"internalType": "uint256",
					"name": "",
					"type": "uint256"
				}
			],
			"name": "cityNodeInfos",
			"outputs": [
				{
					"internalType": "uint256",
					"name": "NodeId",
					"type": "uint256"
				},
				{
					"internalType": "string",
					"name": "NodeName",
					"type": "string"
				},
				{
					"internalType": "address",
					"name": "NodeOwner",
					"type": "address"
				},
				{
					"internalType": "uint256",
					"name": "createTime",
					"type": "uint256"
				},
				{
					"internalType": "uint256",
					"name": "joinCityNodeTime",
					"type": "uint256"
				},
				{
					"internalType": "address",
					"name": "Treasury",
					"type": "address"
				},
				{
					"internalType": "uint256",
					"name": "memberLength",
					"type": "uint256"
				},
				{
					"internalType": "string",
					"name": "hash",
					"type": "string"
				}
			],
			"stateMutability": "view",
			"type": "function"
		},
		{
			"inputs": [
				{
					"internalType": "uint256",
					"name": "",
					"type": "uint256"
				},
				{
					"internalType": "uint256",
					"name": "",
					"type": "uint256"
				}
			],
			"name": "cityNodeMember",
			"outputs": [
				{
					"internalType": "address",
					"name": "",
					"type": "address"
				}
			],
			"stateMutability": "view",
			"type": "function"
		},
		{
			"inputs": [
				{
					"internalType": "address",
					"name": "_user",
					"type": "address"
				}
			],
			"name": "cityNodeTreasuryAddr",
			"outputs": [
				{
					"internalType": "address",
					"name": "",
					"type": "address"
				}
			],
			"stateMutability": "view",
			"type": "function"
		},
		{
			"inputs": [
				{
					"internalType": "address",
					"name": "",
					"type": "address"
				}
			],
			"name": "cityNodeUserNum",
			"outputs": [
				{
					"internalType": "uint256",
					"name": "",
					"type": "uint256"
				}
			],
			"stateMutability": "view",
			"type": "function"
		},
		{
			"inputs": [],
			"name": "contractStatus",
			"outputs": [
				{
					"internalType": "bool",
					"name": "",
					"type": "bool"
				}
			],
			"stateMutability": "view",
			"type": "function"
		},
		{
			"inputs": [
				{
					"internalType": "string",
					"name": "cityNodeName",
					"type": "string"
				},
				{
					"internalType": "string",
					"name": "_info",
					"type": "string"
				}
			],
			"name": "createCityNode",
			"outputs": [],
			"stateMutability": "nonpayable",
			"type": "function"
		},
		{
			"inputs": [],
			"name": "creationScore",
			"outputs": [
				{
					"internalType": "uint256",
					"name": "",
					"type": "uint256"
				}
			],
			"stateMutability": "view",
			"type": "function"
		},
		{
			"inputs": [],
			"name": "ctiyNodeId",
			"outputs": [
				{
					"internalType": "uint256",
					"name": "",
					"type": "uint256"
				}
			],
			"stateMutability": "view",
			"type": "function"
		},
		{
			"inputs": [
				{
					"internalType": "address",
					"name": "_nodeUser",
					"type": "address"
				}
			],
			"name": "deleteCityNodeUser",
			"outputs": [],
			"stateMutability": "nonpayable",
			"type": "function"
		},
		{
			"inputs": [],
			"name": "fdTokenAddress",
			"outputs": [
				{
					"internalType": "address",
					"name": "",
					"type": "address"
				}
			],
			"stateMutability": "view",
			"type": "function"
		},
		{
			"inputs": [],
			"name": "fireSeed",
			"outputs": [
				{
					"internalType": "address",
					"name": "",
					"type": "address"
				}
			],
			"stateMutability": "view",
			"type": "function"
		},
		{
			"inputs": [],
			"name": "fireSoul",
			"outputs": [
				{
					"internalType": "address",
					"name": "",
					"type": "address"
				}
			],
			"stateMutability": "view",
			"type": "function"
		},
		{
			"inputs": [
				{
					"internalType": "address",
					"name": "_user",
					"type": "address"
				}
			],
			"name": "getCityNodeAdmin",
			"outputs": [
				{
					"internalType": "address",
					"name": "",
					"type": "address"
				}
			],
			"stateMutability": "nonpayable",
			"type": "function"
		},
		{
			"inputs": [],
			"name": "getCityNodeLength",
			"outputs": [
				{
					"internalType": "uint256",
					"name": "",
					"type": "uint256"
				}
			],
			"stateMutability": "view",
			"type": "function"
		},
		{
			"inputs": [
				{
					"internalType": "uint256",
					"name": "_num",
					"type": "uint256"
				}
			],
			"name": "getCityNodeMemberLength",
			"outputs": [
				{
					"internalType": "uint256",
					"name": "",
					"type": "uint256"
				}
			],
			"stateMutability": "view",
			"type": "function"
		},
		{
			"inputs": [
				{
					"internalType": "uint256",
					"name": "cityNodeNum",
					"type": "uint256"
				}
			],
			"name": "getCityNodeReputation",
			"outputs": [
				{
					"internalType": "uint256",
					"name": "",
					"type": "uint256"
				}
			],
			"stateMutability": "view",
			"type": "function"
		},
		{
			"inputs": [
				{
					"internalType": "address",
					"name": "account",
					"type": "address"
				},
				{
					"internalType": "uint256",
					"name": "fee",
					"type": "uint256"
				}
			],
			"name": "getIsCityNode",
			"outputs": [],
			"stateMutability": "payable",
			"type": "function"
		},
		{
			"inputs": [
				{
					"internalType": "address",
					"name": "_nodeUser",
					"type": "address"
				}
			],
			"name": "getUserInNodeInfo",
			"outputs": [
				{
					"components": [
						{
							"internalType": "uint256",
							"name": "NodeId",
							"type": "uint256"
						},
						{
							"internalType": "string",
							"name": "NodeName",
							"type": "string"
						},
						{
							"internalType": "address",
							"name": "NodeOwner",
							"type": "address"
						},
						{
							"internalType": "uint256",
							"name": "createTime",
							"type": "uint256"
						},
						{
							"internalType": "uint256",
							"name": "joinCityNodeTime",
							"type": "uint256"
						},
						{
							"internalType": "address",
							"name": "Treasury",
							"type": "address"
						},
						{
							"internalType": "uint256",
							"name": "memberLength",
							"type": "uint256"
						},
						{
							"internalType": "string",
							"name": "hash",
							"type": "string"
						}
					],
					"internalType": "struct cityNode.cityNodeInfo",
					"name": "",
					"type": "tuple"
				}
			],
			"stateMutability": "view",
			"type": "function"
		},
		{
			"inputs": [
				{
					"internalType": "uint256",
					"name": "",
					"type": "uint256"
				}
			],
			"name": "idOfNodeInfo",
			"outputs": [
				{
					"internalType": "uint256",
					"name": "NodeId",
					"type": "uint256"
				},
				{
					"internalType": "string",
					"name": "NodeName",
					"type": "string"
				},
				{
					"internalType": "address",
					"name": "NodeOwner",
					"type": "address"
				},
				{
					"internalType": "uint256",
					"name": "createTime",
					"type": "uint256"
				},
				{
					"internalType": "uint256",
					"name": "joinCityNodeTime",
					"type": "uint256"
				},
				{
					"internalType": "address",
					"name": "Treasury",
					"type": "address"
				},
				{
					"internalType": "uint256",
					"name": "memberLength",
					"type": "uint256"
				},
				{
					"internalType": "string",
					"name": "hash",
					"type": "string"
				}
			],
			"stateMutability": "view",
			"type": "function"
		},
		{
			"inputs": [
				{
					"internalType": "uint256",
					"name": "",
					"type": "uint256"
				}
			],
			"name": "idToNodeTreasury",
			"outputs": [
				{
					"internalType": "address",
					"name": "",
					"type": "address"
				}
			],
			"stateMutability": "view",
			"type": "function"
		},
		{
			"inputs": [
				{
					"internalType": "address",
					"name": "account",
					"type": "address"
				},
				{
					"internalType": "address",
					"name": "operator",
					"type": "address"
				}
			],
			"name": "isApprovedForAll",
			"outputs": [
				{
					"internalType": "bool",
					"name": "",
					"type": "bool"
				}
			],
			"stateMutability": "view",
			"type": "function"
		},
		{
			"inputs": [
				{
					"internalType": "address",
					"name": "_user",
					"type": "address"
				}
			],
			"name": "isNotCityNodeLight",
			"outputs": [
				{
					"internalType": "bool",
					"name": "",
					"type": "bool"
				}
			],
			"stateMutability": "view",
			"type": "function"
		},
		{
			"inputs": [
				{
					"internalType": "address",
					"name": "",
					"type": "address"
				}
			],
			"name": "isNotCityNodeUser",
			"outputs": [
				{
					"internalType": "bool",
					"name": "",
					"type": "bool"
				}
			],
			"stateMutability": "view",
			"type": "function"
		},
		{
			"inputs": [
				{
					"internalType": "address",
					"name": "_user",
					"type": "address"
				}
			],
			"name": "isNotCityNodeUsers",
			"outputs": [
				{
					"internalType": "bool",
					"name": "",
					"type": "bool"
				}
			],
			"stateMutability": "view",
			"type": "function"
		},
		{
			"inputs": [
				{
					"internalType": "uint256",
					"name": "",
					"type": "uint256"
				}
			],
			"name": "isNotLightCity",
			"outputs": [
				{
					"internalType": "bool",
					"name": "",
					"type": "bool"
				}
			],
			"stateMutability": "view",
			"type": "function"
		},
		{
			"inputs": [
				{
					"internalType": "uint256",
					"name": "cityNodeNum",
					"type": "uint256"
				}
			],
			"name": "joinCityNode",
			"outputs": [],
			"stateMutability": "nonpayable",
			"type": "function"
		},
		{
			"inputs": [],
			"name": "lightCityNode",
			"outputs": [],
			"stateMutability": "nonpayable",
			"type": "function"
		},
		{
			"inputs": [
				{
					"internalType": "uint256",
					"name": "",
					"type": "uint256"
				}
			],
			"name": "nodeIdInfo",
			"outputs": [
				{
					"internalType": "string",
					"name": "",
					"type": "string"
				}
			],
			"stateMutability": "view",
			"type": "function"
		},
		{
			"inputs": [
				{
					"internalType": "string",
					"name": "",
					"type": "string"
				}
			],
			"name": "nodeInfo",
			"outputs": [
				{
					"internalType": "string",
					"name": "",
					"type": "string"
				}
			],
			"stateMutability": "view",
			"type": "function"
		},
		{
			"inputs": [
				{
					"internalType": "address",
					"name": "",
					"type": "address"
				}
			],
			"name": "nodeTreasuryAdmin",
			"outputs": [
				{
					"internalType": "address",
					"name": "",
					"type": "address"
				}
			],
			"stateMutability": "view",
			"type": "function"
		},
		{
			"inputs": [],
			"name": "owner",
			"outputs": [
				{
					"internalType": "address",
					"name": "",
					"type": "address"
				}
			],
			"stateMutability": "view",
			"type": "function"
		},
		{
			"inputs": [],
			"name": "pauseAddress",
			"outputs": [
				{
					"internalType": "address",
					"name": "",
					"type": "address"
				}
			],
			"stateMutability": "view",
			"type": "function"
		},
		{
			"inputs": [],
			"name": "proportion",
			"outputs": [
				{
					"internalType": "uint256",
					"name": "",
					"type": "uint256"
				}
			],
			"stateMutability": "view",
			"type": "function"
		},
		{
			"inputs": [
				{
					"internalType": "uint256",
					"name": "_num",
					"type": "uint256"
				}
			],
			"name": "quitCityNode",
			"outputs": [],
			"stateMutability": "nonpayable",
			"type": "function"
		},
		{
			"inputs": [],
			"name": "renounceOwnership",
			"outputs": [],
			"stateMutability": "nonpayable",
			"type": "function"
		},
		{
			"inputs": [
				{
					"internalType": "address",
					"name": "from",
					"type": "address"
				},
				{
					"internalType": "address",
					"name": "to",
					"type": "address"
				},
				{
					"internalType": "uint256[]",
					"name": "ids",
					"type": "uint256[]"
				},
				{
					"internalType": "uint256[]",
					"name": "amounts",
					"type": "uint256[]"
				},
				{
					"internalType": "bytes",
					"name": "data",
					"type": "bytes"
				}
			],
			"name": "safeBatchTransferFrom",
			"outputs": [],
			"stateMutability": "nonpayable",
			"type": "function"
		},
		{
			"inputs": [
				{
					"internalType": "address",
					"name": "from",
					"type": "address"
				},
				{
					"internalType": "address",
					"name": "to",
					"type": "address"
				},
				{
					"internalType": "uint256",
					"name": "id",
					"type": "uint256"
				},
				{
					"internalType": "uint256",
					"name": "amount",
					"type": "uint256"
				},
				{
					"internalType": "bytes",
					"name": "data",
					"type": "bytes"
				}
			],
			"name": "safeTransferFrom",
			"outputs": [],
			"stateMutability": "nonpayable",
			"type": "function"
		},
		{
			"inputs": [
				{
					"internalType": "uint256",
					"name": "_score",
					"type": "uint256"
				}
			],
			"name": "setActivationScore",
			"outputs": [],
			"stateMutability": "nonpayable",
			"type": "function"
		},
		{
			"inputs": [
				{
					"internalType": "address",
					"name": "operator",
					"type": "address"
				},
				{
					"internalType": "bool",
					"name": "approved",
					"type": "bool"
				}
			],
			"name": "setApprovalForAll",
			"outputs": [],
			"stateMutability": "nonpayable",
			"type": "function"
		},
		{
			"inputs": [
				{
					"internalType": "uint256",
					"name": "_score",
					"type": "uint256"
				}
			],
			"name": "setCreationScore",
			"outputs": [],
			"stateMutability": "nonpayable",
			"type": "function"
		},
		{
			"inputs": [
				{
					"internalType": "address",
					"name": "_fdTokenAddress",
					"type": "address"
				}
			],
			"name": "setFdTokenAddress",
			"outputs": [],
			"stateMutability": "nonpayable",
			"type": "function"
		},
		{
			"inputs": [
				{
					"internalType": "address",
					"name": "_addr",
					"type": "address"
				}
			],
			"name": "setFireSeedAddress",
			"outputs": [],
			"stateMutability": "nonpayable",
			"type": "function"
		},
		{
			"inputs": [
				{
					"internalType": "address",
					"name": "_fireSoul",
					"type": "address"
				}
			],
			"name": "setFireSoulAddress",
			"outputs": [],
			"stateMutability": "nonpayable",
			"type": "function"
		},
		{
			"inputs": [
				{
					"internalType": "address",
					"name": "_pauseAddress",
					"type": "address"
				}
			],
			"name": "setPause",
			"outputs": [],
			"stateMutability": "nonpayable",
			"type": "function"
		},
		{
			"inputs": [],
			"name": "setPause",
			"outputs": [],
			"stateMutability": "nonpayable",
			"type": "function"
		},
		{
			"inputs": [
				{
					"internalType": "uint256",
					"name": "_proportion",
					"type": "uint256"
				}
			],
			"name": "setProportion",
			"outputs": [],
			"stateMutability": "nonpayable",
			"type": "function"
		},
		{
			"inputs": [
				{
					"internalType": "address",
					"name": "_Reputation",
					"type": "address"
				}
			],
			"name": "setReputationAddress",
			"outputs": [],
			"stateMutability": "nonpayable",
			"type": "function"
		},
		{
			"inputs": [
				{
					"internalType": "address",
					"name": "_to",
					"type": "address"
				},
				{
					"internalType": "bool",
					"name": "_set",
					"type": "bool"
				}
			],
			"name": "setWhiteUser",
			"outputs": [],
			"stateMutability": "nonpayable",
			"type": "function"
		},
		{
			"inputs": [
				{
					"internalType": "bytes4",
					"name": "interfaceId",
					"type": "bytes4"
				}
			],
			"name": "supportsInterface",
			"outputs": [
				{
					"internalType": "bool",
					"name": "",
					"type": "bool"
				}
			],
			"stateMutability": "view",
			"type": "function"
		},
		{
			"inputs": [
				{
					"internalType": "address",
					"name": "newOwner",
					"type": "address"
				}
			],
			"name": "transferOwnership",
			"outputs": [],
			"stateMutability": "nonpayable",
			"type": "function"
		},
		{
			"inputs": [
				{
					"internalType": "uint256",
					"name": "",
					"type": "uint256"
				}
			],
			"name": "uri",
			"outputs": [
				{
					"internalType": "string",
					"name": "",
					"type": "string"
				}
			],
			"stateMutability": "view",
			"type": "function"
		},
		{
			"inputs": [
				{
					"internalType": "address",
					"name": "",
					"type": "address"
				}
			],
			"name": "userInNodeInfo",
			"outputs": [
				{
					"internalType": "uint256",
					"name": "NodeId",
					"type": "uint256"
				},
				{
					"internalType": "string",
					"name": "NodeName",
					"type": "string"
				},
				{
					"internalType": "address",
					"name": "NodeOwner",
					"type": "address"
				},
				{
					"internalType": "uint256",
					"name": "createTime",
					"type": "uint256"
				},
				{
					"internalType": "uint256",
					"name": "joinCityNodeTime",
					"type": "uint256"
				},
				{
					"internalType": "address",
					"name": "Treasury",
					"type": "address"
				},
				{
					"internalType": "uint256",
					"name": "memberLength",
					"type": "uint256"
				},
				{
					"internalType": "string",
					"name": "hash",
					"type": "string"
				}
			],
			"stateMutability": "view",
			"type": "function"
		},
		{
			"inputs": [
				{
					"internalType": "address",
					"name": "",
					"type": "address"
				}
			],
			"name": "userTax",
			"outputs": [
				{
					"internalType": "uint256",
					"name": "",
					"type": "uint256"
				}
			],
			"stateMutability": "view",
			"type": "function"
		},
		{
			"inputs": [],
			"name": "weth",
			"outputs": [
				{
					"internalType": "address",
					"name": "",
					"type": "address"
				}
			],
			"stateMutability": "view",
			"type": "function"
		},
		{
			"inputs": [
				{
					"internalType": "address",
					"name": "",
					"type": "address"
				}
			],
			"name": "whiteUser",
			"outputs": [
				{
					"internalType": "bool",
					"name": "",
					"type": "bool"
				}
			],
			"stateMutability": "view",
			"type": "function"
		}
	]
}