{
	"data": {
		"bytecode": {
			"linkReferences": {},
			"object": "60806040523480156200001157600080fd5b50604051620055de380380620055de8339810160408190526200003491620000f5565b6040805180820190915260048152631d195cdd60e21b60208201526200005a8162000091565b506200006633620000a3565b6005600d55600480546001600160a01b0319166001600160a01b039290921691909117905562000298565b60026200009f8282620001cc565b5050565b600380546001600160a01b038381166001600160a01b0319831681179093556040519116919082907f8be0079c531659141344cd1fd0a4f28419497f9722a3daafe3b4186f6b6457e090600090a35050565b6000602082840312156200010857600080fd5b81516001600160a01b03811681146200012057600080fd5b9392505050565b634e487b7160e01b600052604160045260246000fd5b600181811c908216806200015257607f821691505b6020821081036200017357634e487b7160e01b600052602260045260246000fd5b50919050565b601f821115620001c757600081815260208120601f850160051c81016020861015620001a25750805b601f850160051c820191505b81811015620001c357828155600101620001ae565b5050505b505050565b81516001600160401b03811115620001e857620001e862000127565b6200020081620001f984546200013d565b8462000179565b602080601f8311600181146200023857600084156200021f5750858301515b600019600386901b1c1916600185901b178555620001c3565b600085815260208120601f198616915b82811015620002695788860151825594840194600190910190840162000248565b5085821015620002885787850151600019600388901b60f8161c191681555b5050505050600190811b01905550565b61533680620002a86000396000f3fe6080604052600436106200044d5760003560e01c80638da5cb5b116200023f578063bb667474116200013b578063eb57e5d411620000b9578063f242432a1162000084578063f242432a1462000ec0578063f2fde38b1462000edf578063f3a2937e1462000f04578063f3e0fb381462000f1c578063fa4c15e11462000f4157600080fd5b8063eb57e5d41462000e20578063ef9d52f11462000e45578063f056bac41462000e6a578063f22426741462000e8f57600080fd5b8063de97c2621162000106578063de97c2621462000d30578063e458a8881462000d55578063e8a0c74e1462000d7a578063e8fef15d1462000d9f578063e985e9c51462000dd357600080fd5b8063bb6674741462000c8d578063c6ee20d21462000cc1578063c9344c331462000ce4578063d431b1ac1462000d1857600080fd5b8063a22cb46511620001c9578063b0005ff81162000194578063b0005ff81462000bc9578063b12c249c1462000be1578063b31698941462000c12578063b477f2c61462000c37578063b882a0bb1462000c5c57600080fd5b8063a22cb4651462000b31578063a3f9c8cb1462000b56578063a79481841462000b6d578063ad6859501462000ba757600080fd5b806395482768116200020a578063954827681462000a9857806397009f601462000abd578063972091831462000af75780639904ed8d1462000b0f57600080fd5b80638da5cb5b14620009d75780639090c0f214620009f7578063913e10631462000a1c578063932af1ef1462000a5b57600080fd5b80633fc8cef3116200034f5780635803ad3711620002d9578063721d9a0011620002a4578063721d9a00146200090957806378cb75391462000953578063836f038f1462000975578063861faf5f146200099a5780638c063a0214620009b257600080fd5b80635803ad3714620008925780635b4246d414620008b757806362f3ccba14620008cf578063715018a614620008f157600080fd5b80634e1273f4116200031a5780634e1273f414620007cd57806353340dc314620008015780635636cfc8146200084b57806357312481146200087057600080fd5b80633fc8cef3146200073c5780634386b6ec146200075e57806347834e0c14620007835780634d64e73a14620007a857600080fd5b80630e89341c11620003dd5780631d20920c11620003a85780631d20920c146200069257806329fd820114620006b75780632eb2c2d614620006dc57806339a9880414620007015780633fc196d0146200072557600080fd5b80630e89341c14620005c4578063149a75d614620005f857806315bb9108146200064b5780631a5ef71c146200067057600080fd5b80630a4af49c116200041e5780630a4af49c146200050c5780630ba360a914620005405780630c40fdfd146200057b5780630dae30db14620005ac57600080fd5b80626cd2001462000452578062fdd58e146200047957806301ffc9a714620004b157806306dd606014620004e7575b600080fd5b3480156200045f57600080fd5b50620004776200047136600462003de3565b62000f75565b005b3480156200048657600080fd5b506200049e6200049836600462003e1a565b62000f84565b6040519081526020015b60405180910390f35b348015620004be57600080fd5b50620004d6620004d036600462003e5e565b6200101e565b6040519015158152602001620004a8565b348015620004f457600080fd5b50620004776200050636600462003e85565b62001071565b3480156200051957600080fd5b50620004d66200052b36600462003de3565b60126020526000908152604090205460ff1681565b3480156200054d57600080fd5b50620005656200055f36600462003de3565b6200109d565b604051620004a898979695949392919062003ef7565b3480156200058857600080fd5b506200049e6200059a36600462003e85565b60156020526000908152604090205481565b348015620005b957600080fd5b506200049e60085481565b348015620005d157600080fd5b50620005e9620005e336600462003de3565b62001210565b604051620004a8919062003f64565b3480156200060557600080fd5b50620006326200061736600462003de3565b601a602052600090815260409020546001600160a01b031681565b6040516001600160a01b039091168152602001620004a8565b3480156200065857600080fd5b50620004776200066a36600462003de3565b620012ac565b3480156200067d57600080fd5b50600b5462000632906001600160a01b031681565b3480156200069f57600080fd5b5062000477620006b136600462003f88565b620012bb565b348015620006c457600080fd5b5062000477620006d636600462003e85565b620012f0565b348015620006e957600080fd5b5062000477620006fb36600462004125565b6200131c565b3480156200070e57600080fd5b50336000908152601560205260409020546200049e565b620004776200073636600462003e1a565b62001357565b3480156200074957600080fd5b5060045462000632906001600160a01b031681565b3480156200076b57600080fd5b50620004776200077d36600462003de3565b620016a5565b3480156200079057600080fd5b5062000565620007a236600462003de3565b62001922565b348015620007b557600080fd5b5062000632620007c736600462003e85565b6200195a565b348015620007da57600080fd5b50620007f2620007ec366004620041dd565b620019f4565b604051620004a89190620042f4565b3480156200080e57600080fd5b50620006326200082036600462003e85565b6001600160a01b039081166000908152601560209081526040808320548352601a9091529020541690565b3480156200085857600080fd5b50620004776200086a36600462003de3565b62001b33565b3480156200087d57600080fd5b5060095462000632906001600160a01b031681565b3480156200089f57600080fd5b506200049e620008b136600462003de3565b62001b42565b348015620008c457600080fd5b506200049e600d5481565b348015620008dc57600080fd5b5060055462000632906001600160a01b031681565b348015620008fe57600080fd5b506200047762001c39565b3480156200091657600080fd5b50620004d66200092836600462003e85565b6001600160a01b03166000908152601560209081526040808320548352601290915290205460ff1690565b3480156200096057600080fd5b50600a5462000632906001600160a01b031681565b3480156200098257600080fd5b50620004776200099436600462003e85565b62001c51565b348015620009a757600080fd5b506200047762001c7d565b348015620009bf57600080fd5b5062000477620009d136600462003e85565b62001d76565b348015620009e457600080fd5b506003546001600160a01b031662000632565b34801562000a0457600080fd5b506200047762000a1636600462003e85565b6200204b565b34801562000a2957600080fd5b50620004d662000a3b36600462004309565b8051602081830181018051601e8252928201919093012091525460ff1681565b34801562000a6857600080fd5b50620004d662000a7a36600462003e85565b6001600160a01b031660009081526011602052604090205460ff1690565b34801562000aa557600080fd5b506200047762000ab736600462003e85565b62002077565b34801562000aca57600080fd5b506200063262000adc36600462003de3565b601c602052600090815260409020546001600160a01b031681565b34801562000b0457600080fd5b50620004776200223b565b34801562000b1c57600080fd5b50600c5462000632906001600160a01b031681565b34801562000b3e57600080fd5b506200047762000b5036600462003f88565b620022c9565b34801562000b6357600080fd5b50601f546200049e565b34801562000b7a57600080fd5b506200063262000b8c36600462003e85565b601b602052600090815260409020546001600160a01b031681565b34801562000bb457600080fd5b50600e5462000632906001600160a01b031681565b34801562000bd657600080fd5b506200049e60065481565b34801562000bee57600080fd5b506200049e62000c0036600462003de3565b60009081526014602052604090205490565b34801562000c1f57600080fd5b506200047762000c3136600462003de3565b620022da565b34801562000c4457600080fd5b506200047762000c5636600462003e85565b62002828565b34801562000c6957600080fd5b506200049e62000c7b36600462003de3565b60166020526000908152604090205481565b34801562000c9a57600080fd5b50620004d662000cac36600462003e85565b60136020526000908152604090205460ff1681565b34801562000cce57600080fd5b50600454620004d690600160a01b900460ff1681565b34801562000cf157600080fd5b50620004d662000d0336600462003e85565b60106020526000908152604090205460ff1681565b34801562000d2557600080fd5b506200047762002854565b34801562000d3d57600080fd5b506200063262000d4f3660046200434a565b620028dd565b34801562000d6257600080fd5b506200047762000d743660046200436d565b62002916565b34801562000d8757600080fd5b50620005e962000d9936600462004309565b62003024565b34801562000dac57600080fd5b50620004d662000dbe36600462003e85565b60116020526000908152604090205460ff1681565b34801562000de057600080fd5b50620004d662000df2366004620043ce565b6001600160a01b03918216600090815260016020908152604080832093909416825291909152205460ff1690565b34801562000e2d57600080fd5b506200047762000e3f36600462003e85565b620030d1565b34801562000e5257600080fd5b50620005e962000e6436600462003de3565b620030fd565b34801562000e7757600080fd5b506200056562000e8936600462003e85565b62003118565b34801562000e9c57600080fd5b506200049e62000eae36600462003e85565b60196020526000908152604090205481565b34801562000ecd57600080fd5b5062000477620006fb36600462004406565b34801562000eec57600080fd5b506200047762000efe36600462003e85565b6200313c565b34801562000f1157600080fd5b506200049e60075481565b34801562000f2957600080fd5b506200047762000f3b36600462003e1a565b620031b8565b34801562000f4e57600080fd5b5062000f6662000f6036600462003e85565b6200324d565b604051620004a8919062004473565b62000f7f62003453565b600d55565b60006001600160a01b03831662000ff55760405162461bcd60e51b815260206004820152602a60248201527f455243313135353a2061646472657373207a65726f206973206e6f742061207660448201526930b634b21037bbb732b960b11b60648201526084015b60405180910390fd5b506000818152602081815260408083206001600160a01b03861684529091529020545b92915050565b60006001600160e01b03198216636cdb3d1360e11b14806200105057506001600160e01b031982166303a24d0760e21b145b806200101857506301ffc9a760e01b6001600160e01b031983161462001018565b6200107b62003453565b600a80546001600160a01b0319166001600160a01b0392909216919091179055565b60186020526000908152604090208054600182018054919291620010c19062004512565b80601f0160208091040260200160405190810160405280929190818152602001828054620010ef9062004512565b8015620011405780601f10620011145761010080835404028352916020019162001140565b820191906000526020600020905b8154815290600101906020018083116200112257829003601f168201915b5050506002840154600385015460048601546005870154600688015460078901805498996001600160a01b0396871699959850939650919094169392620011879062004512565b80601f0160208091040260200160405190810160405280929190818152602001828054620011b59062004512565b8015620012065780601f10620011da5761010080835404028352916020019162001206565b820191906000526020600020905b815481529060010190602001808311620011e857829003601f168201915b5050505050905088565b606060028054620012219062004512565b80601f01602080910402602001604051908101604052809291908181526020018280546200124f9062004512565b8015620012a05780601f106200127457610100808354040283529160200191620012a0565b820191906000526020600020905b8154815290600101906020018083116200128257829003601f168201915b50505050509050919050565b620012b662003453565b600855565b620012c562003453565b6001600160a01b03919091166000908152601060205260409020805460ff1916911515919091179055565b620012fa62003453565b600c80546001600160a01b0319166001600160a01b0392909216919091179055565b60405162461bcd60e51b815260206004820152600f60248201526e3737ba103a37903a3930b739b332b960891b604482015260640162000fec565b6005546001600160a01b03163314620013a45760405162461bcd60e51b815260206004820152600e60248201526d31b0b6363130b1b59032b93937b960911b604482015260640162000fec565b6001600160a01b03821660009081526011602052604090205460ff16620013ff5760405162461bcd60e51b815260206004820152600e60248201526d31b0b6363130b1b59032b93937b960911b604482015260640162000fec565b6000600a600d548362001413919062004564565b6200141f91906200457e565b90506000600a600d54600a620014369190620045a1565b62001442908562004564565b6200144e91906200457e565b6001600160a01b038086166000818152601560209081526040808320548352601a825280832054938352601b9091528120549394509082169290911690349003620014cd57600454620014ad906001600160a01b03168784876200364d565b600454620014c7906001600160a01b03168783866200364d565b6200166e565b843414620015125760405162461bcd60e51b8152602060048201526011602482015270496e76616c6964204554482076616c756560781b604482015260640162000fec565b6004805460408051630d0e30db60e41b815290516001600160a01b039092169263d0e30db0928992808301926000929182900301818588803b1580156200155857600080fd5b505af11580156200156d573d6000803e3d6000fd5b50506004805460405163a9059cbb60e01b81526001600160a01b0388811693820193909352602481018a90529116935063a9059cbb925060440190506020604051808303816000875af1158015620015c9573d6000803e3d6000fd5b505050506040513d601f19601f82011682018060405250810190620015ef9190620045b7565b506004805460405163a9059cbb60e01b81526001600160a01b03848116938201939093526024810186905291169063a9059cbb906044016020604051808303816000875af115801562001646573d6000803e3d6000fd5b505050506040513d601f19601f820116820180604052508101906200166c9190620045b7565b505b6001600160a01b0386166000908152601960205260408120805487929062001698908490620045d7565b9091555050505050505050565b600454600160a01b900460ff1615620016d25760405162461bcd60e51b815260040162000fec90620045ed565b3360009081526011602052604090205460ff16620017335760405162461bcd60e51b815260206004820152601d60248201527f796f7520686176656e2774206a6f696e20616e7920636974796e6f6465000000604482015260640162000fec565b336000908152601560205260409020548114620017935760405162461bcd60e51b815260206004820152601860248201527f796f75206973206e6f7420636974796e6f646520757365720000000000000000604482015260640162000fec565b3360005b600083815260146020526040902054811015620018e857600083815260146020526040902080546001600160a01b038416919083908110620017dd57620017dd62004616565b6000918252602090912001546001600160a01b031603620018d357600083815260146020526040902080546200181690600190620045a1565b8154811062001829576200182962004616565b60009182526020808320909101548583526014909152604090912080546001600160a01b03909216918390811062001865576200186562004616565b600091825260208083209190910180546001600160a01b0319166001600160a01b039490941693909317909255848152601490915260409020805480620018b057620018b06200462c565b600082815260209020810160001990810180546001600160a01b03191690550190555b80620018df8162004642565b91505062001797565b503360008181526015602052604090205462001907919060016200377f565b5050336000908152601160205260409020805460ff19169055565b601f81815481106200193357600080fd5b60009182526020909120600890910201805460018201805491935090620010c19062004512565b600a546000906001600160a01b0316331480620019815750600e546001600160a01b031633145b620019c85760405162461bcd60e51b815260206004820152601660248201527510da5d1e539bd9194e881a5b9d985b1a590818d85b1b60521b604482015260640162000fec565b506001600160a01b039081166000908152601560209081526040808320548352601c9091529020541690565b6060815183511462001a5b5760405162461bcd60e51b815260206004820152602960248201527f455243313135353a206163636f756e747320616e6420696473206c656e677468604482015268040dad2e6dac2e8c6d60bb1b606482015260840162000fec565b6000835167ffffffffffffffff81111562001a7a5762001a7a62003fc4565b60405190808252806020026020018201604052801562001aa4578160200160208202803683370190505b50905060005b845181101562001b2b5762001af885828151811062001acd5762001acd62004616565b602002602001015185838151811062001aea5762001aea62004616565b602002602001015162000f84565b82828151811062001b0d5762001b0d62004616565b602090810291909101015262001b238162004642565b905062001aaa565b509392505050565b62001b3d62003453565b600755565b60008060005b60008481526014602052604090205481101562001c3257600c54600085815260146020526040902080546001600160a01b039092169163014ab31391908490811062001b985762001b9862004616565b60009182526020909120015460405160e083901b6001600160e01b03191681526001600160a01b039091166004820152602401602060405180830381865afa15801562001be9573d6000803e3d6000fd5b505050506040513d601f19601f8201168201806040525081019062001c0f91906200465e565b62001c1b9083620045d7565b91508062001c298162004642565b91505062001b48565b5092915050565b62001c4362003453565b62001c4f600062003908565b565b62001c5b62003453565b600980546001600160a01b0319166001600160a01b0392909216919091179055565b62001c8762003453565b600480546040516370a0823160e01b815230928101929092526001600160a01b03169063a9059cbb90339083906370a0823190602401602060405180830381865afa15801562001cdb573d6000803e3d6000fd5b505050506040513d601f19601f8201168201806040525081019062001d0191906200465e565b6040516001600160e01b031960e085901b1681526001600160a01b03909216600483015260248201526044016020604051808303816000875af115801562001d4d573d6000803e3d6000fd5b505050506040513d601f19601f8201168201806040525081019062001d739190620045b7565b50565b600454600160a01b900460ff161562001dcd5760405162461bcd60e51b8152602060048201526018602482015277436f6e7472616374207374617475732069732066616c736560401b604482015260640162000fec565b600b54604051631238e33160e31b81523360048201526001600160a01b03909116906391c7198890602401602060405180830381865afa15801562001e16573d6000803e3d6000fd5b505050506040513d601f19601f8201168201806040525081019062001e3c9190620045b7565b62001ea55760405162461bcd60e51b815260206004820152603260248201527f596f7520646f6e27742068617665204649442c20706c65617365206275726e20604482015271666972657365656420746f2063726561746560701b606482015260840162000fec565b3360009081526013602052604090205460ff1662001efe5760405162461bcd60e51b81526020600482015260156024820152742cb7ba9030b932903737ba10309031b932b0ba37b960591b604482015260640162000fec565b33600090815260156020526040808220546001600160a01b0384168352912054811462001f845760405162461bcd60e51b815260206004820152602d60248201527f546865206164647265737320646f6573206e6f742062656c6f6e6720746f207960448201526c6f75722063697479206e6f646560981b606482015260840162000fec565b6000818152601a6020908152604080832080546001600160a01b038781166001600160a01b0319928316811790935582865260138552838620805460ff1916600117905533808752601b9095528386208054848852858820805490941690831617909255948490525491516318b3c67b60e11b815260048101939093526024830152909116906331678cf690604401600060405180830381600087803b1580156200202e57600080fd5b505af115801562002043573d6000803e3d6000fd5b505050505050565b6200205562003453565b600b80546001600160a01b0319166001600160a01b0392909216919091179055565b600454600160a01b900460ff1615620020ca5760405162461bcd60e51b8152602060048201526014602482015273436f6e747261637420697320696e61637469766560601b604482015260640162000fec565b3360009081526013602052604090205460ff16620021235760405162461bcd60e51b81526020600482015260156024820152742cb7ba9030b932903737ba10309031b932b0ba37b960591b604482015260640162000fec565b336000908152601560209081526040808320548352601a9091529020546001600160a01b0316620021975760405162461bcd60e51b815260206004820152601860248201527f41646d696e206164647265737320697320696e76616c69640000000000000000604482015260640162000fec565b33600081815260156020908152604080832054808452601a9092529091205490916001600160a01b03909116146200220b5760405162461bcd60e51b81526020600482015260166024820152752cb7ba9030b932903737ba103737b2329030b236b4b760511b604482015260640162000fec565b62002219828260016200377f565b506001600160a01b03166000908152601160205260409020805460ff19169055565b600454600160a01b900460ff1615620022685760405162461bcd60e51b815260040162000fec90620045ed565b6008546200227f90670de0b6b3a764000062004564565b336000908152601560205260409020546200229a9062001b42565b1062001c4f5733600090815260156020908152604080832054835260129091529020805460ff19166001179055565b620022d63383836200395a565b5050565b600454600160a01b900460ff1615620023075760405162461bcd60e51b815260040162000fec90620045ed565b600b54604051631238e33160e31b81523360048201526001600160a01b03909116906391c7198890602401602060405180830381865afa15801562002350573d6000803e3d6000fd5b505050506040513d601f19601f82011682018060405250810190620023769190620045b7565b806200239157503360009081526010602052604090205460ff165b620023f35760405162461bcd60e51b815260206004820152602b60248201527f796f7520686176656e2774204649442c706c7a206275726e206669726573656560448201526a6420746f2063726561746560a81b606482015260840162000fec565b3360009081526013602052604090205460ff1615620024555760405162461bcd60e51b815260206004820152601960248201527f796f752061726520616c726561647920612063726561746f7200000000000000604482015260640162000fec565b3360009081526011602052604090205460ff1615620024b75760405162461bcd60e51b815260206004820152601f60248201527f796f752061726520616c7265616479206a6f696e206120636974794e6f646500604482015260640162000fec565b6006548110620024fc5760405162461bcd60e51b815260206004820152600f60248201526e3cb7ba9034b7383aba1032b93937b960891b604482015260640162000fec565b60008181526014602090815260408083208054600181810183559185528385200180546001600160a01b03191633908117909155845260158352818420859055848452601a8352818420546001600160a01b0316845260179092528220018054620025679062004512565b80601f0160208091040260200160405190810160405280929190818152602001828054620025959062004512565b8015620025e65780601f10620025ba57610100808354040283529160200191620025e6565b820191906000526020600020905b815481529060010190602001808311620025c857829003601f168201915b5050506000858152601a60209081526040808320546001600160a01b039081168085526017845282852060030154601b8552838620548451610100810186528c81528087018b905280860184905260608101839052426080820152931660a084018190528b8752601486528487205460c08501528b8752601d909552928520805498995092979096509294509160e083019190620026849062004512565b80601f0160208091040260200160405190810160405280929190818152602001828054620026b29062004512565b8015620027035780601f10620026d75761010080835404028352916020019162002703565b820191906000526020600020905b815481529060010190602001808311620026e557829003601f168201915b5050509190925250506000878152601460209081526040808320546001600160a01b0388168452601783529281902060060192909255815180830190925260048252631d195cdd60e21b9082015290915062002766903390889060019062003a3c565b33600090815260176020908152604090912082518155908201518291906001820190620027949082620046c7565b5060408201516002820180546001600160a01b039283166001600160a01b031991821617909155606084015160038401556080840151600484015560a084015160058401805491909316911617905560c0820151600682015560e08201516007820190620028039082620046c7565b5050336000908152601160205260409020805460ff1916600117905550505050505050565b6200283262003453565b600e80546001600160a01b0319166001600160a01b0392909216919091179055565b6009546001600160a01b03163314620028bc5760405162461bcd60e51b8152602060048201526024808201527f63616c6c6261636b2061646472657373206973206e6f742070617573654164646044820152637265737360e01b606482015260840162000fec565b6004805460ff60a01b198116600160a01b9182900460ff1615909102179055565b60146020528160005260406000208181548110620028fa57600080fd5b6000918252602090912001546001600160a01b03169150829050565b601e8260405162002928919062004794565b9081526040519081900360200190205460ff16156200297e5760405162461bcd60e51b815260206004820152601160248201527018da5d1e539bd919481a5cc8195e1a5cdd607a1b604482015260640162000fec565b3360009081526011602052604090205460ff1615620029d55760405162461bcd60e51b81526020600482015260126024820152711e5bdd48185b1c9958591e481a9bda5b995960721b604482015260640162000fec565b600454600160a01b900460ff161562002a2c5760405162461bcd60e51b8152602060048201526018602482015277436f6e7472616374207374617475732069732066616c736560401b604482015260640162000fec565b600b54604051631238e33160e31b81523360048201526001600160a01b03909116906391c7198890602401602060405180830381865afa15801562002a75573d6000803e3d6000fd5b505050506040513d601f19601f8201168201806040525081019062002a9b9190620045b7565b8062002ab657503360009081526010602052604090205460ff165b62002b1c5760405162461bcd60e51b815260206004820152602f60248201527f596f7520686176656e2774204649442c20706c65617365206275726e2066697260448201526e657365656420746f2063726561746560881b606482015260840162000fec565b60075462002b3390670de0b6b3a764000062004564565b600c5460405163014ab31360e01b81523360048201526001600160a01b039091169063014ab31390602401602060405180830381865afa15801562002b7c573d6000803e3d6000fd5b505050506040513d601f19601f8201168201806040525081019062002ba291906200465e565b118062002bbe57503360009081526010602052604090205460ff165b62002bf95760405162461bcd60e51b815260206004820152600a6024820152690dcdee840cadcdeeaced60b31b604482015260640162000fec565b6000333060405162002c0b9062003dd5565b6001600160a01b03928316815291166020820152604001604051809103906000f08015801562002c3f573d6000803e3d6000fd5b5090506000600654905062002c7433826001604051806040016040528060048152602001631d195cdd60e21b81525062003a3c565b82600f8560405162002c87919062004794565b9081526020016040518091039020908162002ca39190620046c7565b506000818152601d6020526040902062002cbe8482620046c7565b50336000818152601360209081526040808320805460ff191660019081179091558584526014808452828520805480840182558187528587200180546001600160a01b0319908116891790915587875260158652848720899055888752601a86528487208054821689179055878752601b865284872080546001600160a01b038c169083168117909155898852601c8752858820805490921681179091558451610100810186528981528087018d8152958101989098524260608901819052608089015260a08801529352915460c085015260e08401879052601f80549283018155909252825160089091027fa03837a25210ee280c2113ff4b77ca23440b19d4866cca721c801278fd08d8078101918255915183927fa03837a25210ee280c2113ff4b77ca23440b19d4866cca721c801278fd08d808019062002e039082620046c7565b5060408201516002820180546001600160a01b039283166001600160a01b031991821617909155606084015160038401556080840151600484015560a084015160058401805491909316911617905560c0820151600682015560e0820151600782019062002e729082620046c7565b50503360009081526017602090815260409091208351815590830151839250600182019062002ea29082620046c7565b5060408201516002820180546001600160a01b039283166001600160a01b031991821617909155606084015160038401556080840151600484015560a084015160058401805491909316911617905560c0820151600682015560e0820151600782019062002f119082620046c7565b50505060008281526018602090815260409091208251815590820151829190600182019062002f419082620046c7565b5060408201516002820180546001600160a01b039283166001600160a01b031991821617909155606084015160038401556080840151600484015560a084015160058401805491909316911617905560c0820151600682015560e0820151600782019062002fb09082620046c7565b50503360009081526011602052604090819020805460ff191660019081179091559051909150601e9062002fe690889062004794565b908152604051908190036020019020805491151560ff1990921691909117905560068054906000620030188362004642565b91905055505050505050565b8051602081830181018051600f82529282019190930120915280546200304a9062004512565b80601f0160208091040260200160405190810160405280929190818152602001828054620030789062004512565b8015620030c95780601f106200309d57610100808354040283529160200191620030c9565b820191906000526020600020905b815481529060010190602001808311620030ab57829003601f168201915b505050505081565b620030db62003453565b600580546001600160a01b0319166001600160a01b0392909216919091179055565b601d60205260009081526040902080546200304a9062004512565b60176020526000908152604090208054600182018054919291620010c19062004512565b6200314662003453565b6001600160a01b038116620031ad5760405162461bcd60e51b815260206004820152602660248201527f4f776e61626c653a206e6577206f776e657220697320746865207a65726f206160448201526564647265737360d01b606482015260840162000fec565b62001d738162003908565b600a546001600160a01b031633146200320d5760405162461bcd60e51b815260206004820152601660248201527510da5d1e539bd9194e881a5b9d985b1a590818d85b1b60521b604482015260640162000fec565b6001600160a01b038216600090815260156020908152604080832054835260169091528120805483929062003244908490620045d7565b90915550505050565b620032a8604051806101000160405280600081526020016060815260200160006001600160a01b03168152602001600081526020016000815260200160006001600160a01b0316815260200160008152602001606081525090565b6001600160a01b03821660009081526017602090815260409182902082516101008101909352805483526001810180549192840191620032e89062004512565b80601f0160208091040260200160405190810160405280929190818152602001828054620033169062004512565b8015620033675780601f106200333b5761010080835404028352916020019162003367565b820191906000526020600020905b8154815290600101906020018083116200334957829003601f168201915b505050918352505060028201546001600160a01b03908116602083015260038301546040830152600483015460608301526005830154166080820152600682015460a082015260078201805460c090920191620033c49062004512565b80601f0160208091040260200160405190810160405280929190818152602001828054620033f29062004512565b8015620034435780601f10620034175761010080835404028352916020019162003443565b820191906000526020600020905b8154815290600101906020018083116200342557829003601f168201915b5050505050815250509050919050565b6003546001600160a01b0316331462001c4f5760405162461bcd60e51b815260206004820181905260248201527f4f776e61626c653a2063616c6c6572206973206e6f7420746865206f776e6572604482015260640162000fec565b8451811015620035e3576000858281518110620034d057620034d062004616565b602002602001015190506000858381518110620034f157620034f162004616565b602090810291909101810151600084815280835260408082206001600160a01b038e168352909352919091205490915081811015620035865760405162461bcd60e51b815260206004820152602a60248201527f455243313135353a20696e73756666696369656e742062616c616e636520666f60448201526939103a3930b739b332b960b11b606482015260840162000fec565b6000838152602081815260408083206001600160a01b038e8116855292528083208585039055908b16825281208054849290620035c5908490620045d7565b9250508190555050505080620035db9062004642565b9050620034af565b50846001600160a01b0316866001600160a01b0316826001600160a01b03167f4a39dc06d4c0dbc64b70af90fd698a233a518aa5d07e595d983b8c0526c8f7fb878760405162003635929190620047b2565b60405180910390a46200204381878787878762003b51565b604080516001600160a01b0385811660248301528481166044830152606480830185905283518084039091018152608490920183526020820180516001600160e01b03166323b872dd60e01b1790529151600092839290881691620036b3919062004794565b6000604051808303816000865af19150503d8060008114620036f2576040519150601f19603f3d011682016040523d82523d6000602084013e620036f7565b606091505b50915091508180156200372557508051158062003725575080806020019051810190620037259190620045b7565b620020435760405162461bcd60e51b8152602060048201526024808201527f5472616e7366657248656c7065723a205452414e534645525f46524f4d5f46416044820152631253115160e21b606482015260840162000fec565b6001600160a01b038316620037e35760405162461bcd60e51b815260206004820152602360248201527f455243313135353a206275726e2066726f6d20746865207a65726f206164647260448201526265737360e81b606482015260840162000fec565b336000620037f18462003cc0565b90506000620038008462003cc0565b60408051602080820183526000918290528882528181528282206001600160a01b038b16835290522054909150848110156200388b5760405162461bcd60e51b8152602060048201526024808201527f455243313135353a206275726e20616d6f756e7420657863656564732062616c604482015263616e636560e01b606482015260840162000fec565b6000868152602081815260408083206001600160a01b038b81168086529184528285208a8703905582518b81529384018a90529092908816917fc3d58168c5ae7397731d063d5bbf3d657854427343f4c083240f7aacaa2d0f62910160405180910390a46040805160208101909152600090525b50505050505050565b600380546001600160a01b038381166001600160a01b0319831681179093556040519116919082907f8be0079c531659141344cd1fd0a4f28419497f9722a3daafe3b4186f6b6457e090600090a35050565b816001600160a01b0316836001600160a01b031603620039cf5760405162461bcd60e51b815260206004820152602960248201527f455243313135353a2073657474696e6720617070726f76616c20737461747573604482015268103337b91039b2b63360b91b606482015260840162000fec565b6001600160a01b03838116600081815260016020908152604080832094871680845294825291829020805460ff191686151590811790915591519182527f17307eab39ab6107e8899845ad3d59bd9653f200f220920489ca2b5937696c31910160405180910390a3505050565b6001600160a01b03841662003a9e5760405162461bcd60e51b815260206004820152602160248201527f455243313135353a206d696e7420746f20746865207a65726f206164647265736044820152607360f81b606482015260840162000fec565b33600062003aac8562003cc0565b9050600062003abb8562003cc0565b90506000868152602081815260408083206001600160a01b038b1684529091528120805487929062003aef908490620045d7565b909155505060408051878152602081018790526001600160a01b03808a1692600092918716917fc3d58168c5ae7397731d063d5bbf3d657854427343f4c083240f7aacaa2d0f62910160405180910390a4620038ff8360008989898962003d0e565b6001600160a01b0384163b15620020435760405163bc197c8160e01b81526001600160a01b0385169063bc197c819062003b989089908990889088908890600401620047e4565b6020604051808303816000875af192505050801562003bd6575060408051601f3d908101601f1916820190925262003bd39181019062004848565b60015b62003c8d5762003be562004868565b806308c379a00362003c25575062003bfc62004885565b8062003c09575062003c27565b8060405162461bcd60e51b815260040162000fec919062003f64565b505b60405162461bcd60e51b815260206004820152603460248201527f455243313135353a207472616e7366657220746f206e6f6e2d455243313135356044820152732932b1b2b4bb32b91034b6b83632b6b2b73a32b960611b606482015260840162000fec565b6001600160e01b0319811663bc197c8160e01b14620038ff5760405162461bcd60e51b815260040162000fec9062004915565b6040805160018082528183019092526060916000919060208083019080368337019050509050828160008151811062003cfd5762003cfd62004616565b602090810291909101015292915050565b6001600160a01b0384163b15620020435760405163f23a6e6160e01b81526001600160a01b0385169063f23a6e619062003d5590899089908890889088906004016200495d565b6020604051808303816000875af192505050801562003d93575060408051601f3d908101601f1916820190925262003d909181019062004848565b60015b62003da25762003be562004868565b6001600160e01b0319811663f23a6e6160e01b14620038ff5760405162461bcd60e51b815260040162000fec9062004915565b61095c80620049a583390190565b60006020828403121562003df657600080fd5b5035919050565b80356001600160a01b038116811462003e1557600080fd5b919050565b6000806040838503121562003e2e57600080fd5b62003e398362003dfd565b946020939093013593505050565b6001600160e01b03198116811462001d7357600080fd5b60006020828403121562003e7157600080fd5b813562003e7e8162003e47565b9392505050565b60006020828403121562003e9857600080fd5b62003e7e8262003dfd565b60005b8381101562003ec057818101518382015260200162003ea6565b50506000910152565b6000815180845262003ee381602086016020860162003ea3565b601f01601f19169290920160200192915050565b60006101008a835280602084015262003f138184018b62003ec9565b6001600160a01b038a81166040860152606085018a905260808501899052871660a085015260c0840186905283810360e0850152905062003f55818562003ec9565b9b9a5050505050505050505050565b60208152600062003e7e602083018462003ec9565b801515811462001d7357600080fd5b6000806040838503121562003f9c57600080fd5b62003fa78362003dfd565b9150602083013562003fb98162003f79565b809150509250929050565b634e487b7160e01b600052604160045260246000fd5b601f8201601f1916810167ffffffffffffffff8111828210171562004003576200400362003fc4565b6040525050565b600067ffffffffffffffff82111562004027576200402762003fc4565b5060051b60200190565b600082601f8301126200404357600080fd5b8135602062004052826200400a565b60405162004061828262003fda565b83815260059390931b85018201928281019150868411156200408257600080fd5b8286015b848110156200409f578035835291830191830162004086565b509695505050505050565b600082601f830112620040bc57600080fd5b813567ffffffffffffffff811115620040d957620040d962003fc4565b604051620040f2601f8301601f19166020018262003fda565b8181528460208386010111156200410857600080fd5b816020850160208301376000918101602001919091529392505050565b600080600080600060a086880312156200413e57600080fd5b620041498662003dfd565b9450620041596020870162003dfd565b9350604086013567ffffffffffffffff808211156200417757600080fd5b6200418589838a0162004031565b945060608801359150808211156200419c57600080fd5b620041aa89838a0162004031565b93506080880135915080821115620041c157600080fd5b50620041d088828901620040aa565b9150509295509295909350565b60008060408385031215620041f157600080fd5b823567ffffffffffffffff808211156200420a57600080fd5b818501915085601f8301126200421f57600080fd5b813560206200422e826200400a565b6040516200423d828262003fda565b83815260059390931b85018201928281019150898411156200425e57600080fd5b948201945b838610156200428757620042778662003dfd565b8252948201949082019062004263565b965050860135925050808211156200429e57600080fd5b50620042ad8582860162004031565b9150509250929050565b600081518084526020808501945080840160005b83811015620042e957815187529582019590820190600101620042cb565b509495945050505050565b60208152600062003e7e6020830184620042b7565b6000602082840312156200431c57600080fd5b813567ffffffffffffffff8111156200433457600080fd5b6200434284828501620040aa565b949350505050565b600080604083850312156200435e57600080fd5b50508035926020909101359150565b600080604083850312156200438157600080fd5b823567ffffffffffffffff808211156200439a57600080fd5b620043a886838701620040aa565b93506020850135915080821115620043bf57600080fd5b50620042ad85828601620040aa565b60008060408385031215620043e257600080fd5b620043ed8362003dfd565b9150620043fd6020840162003dfd565b90509250929050565b600080600080600060a086880312156200441f57600080fd5b6200442a8662003dfd565b94506200443a6020870162003dfd565b93506040860135925060608601359150608086013567ffffffffffffffff8111156200446557600080fd5b620041d088828901620040aa565b6020815281516020820152600060208301516101008060408501526200449e61012085018362003ec9565b915060018060a01b03604086015116606085015260608501516080850152608085015160a085015260a0850151620044e160c08601826001600160a01b03169052565b5060c085015160e085015260e0850151601f19858403018286015262004508838262003ec9565b9695505050505050565b600181811c908216806200452757607f821691505b6020821081036200454857634e487b7160e01b600052602260045260246000fd5b50919050565b634e487b7160e01b600052601160045260246000fd5b80820281158282048414176200101857620010186200454e565b6000826200459c57634e487b7160e01b600052601260045260246000fd5b500490565b818103818111156200101857620010186200454e565b600060208284031215620045ca57600080fd5b815162003e7e8162003f79565b808201808211156200101857620010186200454e565b6020808252600f908201526e5374617475732069732066616c736560881b604082015260600190565b634e487b7160e01b600052603260045260246000fd5b634e487b7160e01b600052603160045260246000fd5b6000600182016200465757620046576200454e565b5060010190565b6000602082840312156200467157600080fd5b5051919050565b601f821115620046c257600081815260208120601f850160051c81016020861015620046a15750805b601f850160051c820191505b818110156200204357828155600101620046ad565b505050565b815167ffffffffffffffff811115620046e457620046e462003fc4565b620046fc81620046f5845462004512565b8462004678565b602080601f8311600181146200473457600084156200471b5750858301515b600019600386901b1c1916600185901b17855562002043565b600085815260208120601f198616915b82811015620047655788860151825594840194600190910190840162004744565b5085821015620047845787850151600019600388901b60f8161c191681555b5050505050600190811b01905550565b60008251620047a881846020870162003ea3565b9190910192915050565b604081526000620047c76040830185620042b7565b8281036020840152620047db8185620042b7565b95945050505050565b6001600160a01b0386811682528516602082015260a0604082018190526000906200481290830186620042b7565b8281036060840152620048268186620042b7565b905082810360808401526200483c818562003ec9565b98975050505050505050565b6000602082840312156200485b57600080fd5b815162003e7e8162003e47565b600060033d1115620048825760046000803e5060005160e01c5b90565b600060443d1015620048945790565b6040516003193d81016004833e81513d67ffffffffffffffff8160248401118184111715620048c557505050505090565b8285019150815181811115620048de5750505050505090565b843d8701016020828501011115620048f95750505050505090565b6200490a6020828601018762003fda565b509095945050505050565b60208082526028908201527f455243313135353a204552433131353552656365697665722072656a656374656040820152676420746f6b656e7360c01b606082015260800190565b6001600160a01b03868116825285166020820152604081018490526060810183905260a060808201819052600090620049999083018462003ec9565b97965050505050505056fe608060405234801561001057600080fd5b5060405161095c38038061095c83398101604081905261002f91610078565b600380546001600160a01b039384166001600160a01b031991821617909155600480549290931691161790556100b2565b6001600160a01b038116811461007557600080fd5b50565b6000806040838503121561008b57600080fd5b825161009681610060565b60208401519092506100a781610060565b809150509250929050565b61089b806100c16000396000f3fe608060405234801561001057600080fd5b50600436106101005760003560e01c80638fc99ea311610097578063d7081e0311610066578063d7081e031461021b578063e7ee6ad61461022e578063f851a44014610241578063fa46b6901461025457600080fd5b80638fc99ea3146101bf578063ac4ce2c6146101e3578063ad5c4648146101f6578063b8ac457b1461020957600080fd5b806338eada1c116100d357806338eada1c1461017057806346df2ccb146101835780636711be0e1461019657806370ca09bc146101ac57600080fd5b806309f14a5c14610105578063144fa6d71461011a5780631de1e2ac1461012d57806331678cf61461015d575b600080fd5b6101186101133660046106ef565b61025c565b005b61011861012836600461071d565b6102a8565b61014061013b3660046106ef565b6102e1565b6040516001600160a01b0390911681526020015b60405180910390f35b61011861016b366004610741565b61030b565b61011861017e36600461071d565b610392565b61011861019136600461077a565b6103fa565b61019e610435565b604051908152602001610154565b600454610140906001600160a01b031681565b6004546101d390600160a01b900460ff1681565b6040519015158152602001610154565b6101186101f136600461079c565b6104a7565b600054610140906001600160a01b031681565b600454600160a01b900460ff166101d3565b6101186102293660046107c1565b610504565b61019e61023c3660046106ef565b6105da565b600354610140906001600160a01b031681565b6101186105fb565b6003546001600160a01b0316331461027357600080fd5b600280546001810182556000919091527f405787fa12a823e0f2b7631cc41b3ba8828b3321ca811111fa75cd3aa3bb5ace0155565b6003546001600160a01b031633146102bf57600080fd5b600080546001600160a01b0319166001600160a01b0392909216919091179055565b600181815481106102f157600080fd5b6000918252602090912001546001600160a01b0316905081565b6004546001600160a01b03163314801561033257506003546001600160a01b038381169116145b61036f5760405162461bcd60e51b81526020600482015260096024820152686e6f2061636365737360b81b60448201526064015b60405180910390fd5b600380546001600160a01b0319166001600160a01b039290921691909117905550565b6003546001600160a01b031633146103a957600080fd5b6001805480820182556000919091527fb10e2d527612073b26eecdfd717e6a320cf44b4afac2b0732d9fcbe2b7fa0cf60180546001600160a01b0319166001600160a01b0392909216919091179055565b6003546001600160a01b0316331461041157600080fd5b8060028381548110610425576104256107ed565b6000918252602090912001555050565b600080546040516370a0823160e01b81523060048201526001600160a01b03909116906370a0823190602401602060405180830381865afa15801561047e573d6000803e3d6000fd5b505050506040513d601f19601f820116820180604052508101906104a29190610803565b905090565b6003546001600160a01b031633146104be57600080fd5b80600183815481106104d2576104d26107ed565b9060005260206000200160006101000a8154816001600160a01b0302191690836001600160a01b031602179055505050565b6003546001600160a01b0316331461051b57600080fd5b6000610525610435565b1161055e5760405162461bcd60e51b81526020600482015260096024820152681b9bc8185b5bdd5b9d60ba1b6044820152606401610366565b60005460405163a9059cbb60e01b81526001600160a01b038481166004830152602482018490529091169063a9059cbb906044016020604051808303816000875af11580156105b1573d6000803e3d6000fd5b505050506040513d601f19601f820116820180604052508101906105d5919061081c565b505050565b600281815481106105ea57600080fd5b600091825260209091200154905081565b60005b6001548110156106ec57600054600180546001600160a01b039092169163a9059cbb919084908110610632576106326107ed565b600091825260209091200154600280546001600160a01b03909216918590811061065e5761065e6107ed565b6000918252602090912001546040516001600160e01b031960e085901b1681526001600160a01b03909216600483015260248201526044016020604051808303816000875af11580156106b5573d6000803e3d6000fd5b505050506040513d601f19601f820116820180604052508101906106d9919061081c565b50806106e48161083e565b9150506105fe565b50565b60006020828403121561070157600080fd5b5035919050565b6001600160a01b03811681146106ec57600080fd5b60006020828403121561072f57600080fd5b813561073a81610708565b9392505050565b6000806040838503121561075457600080fd5b823561075f81610708565b9150602083013561076f81610708565b809150509250929050565b6000806040838503121561078d57600080fd5b50508035926020909101359150565b600080604083850312156107af57600080fd5b82359150602083013561076f81610708565b600080604083850312156107d457600080fd5b82356107df81610708565b946020939093013593505050565b634e487b7160e01b600052603260045260246000fd5b60006020828403121561081557600080fd5b5051919050565b60006020828403121561082e57600080fd5b8151801515811461073a57600080fd5b60006001820161085e57634e487b7160e01b600052601160045260246000fd5b506001019056fea2646970667358221220cdf18415538273333884173f95226f119bb1d1b6d9f7aee243c037a01c9c7fb464736f6c63430008120033a26469706673582212204f02037e35a0a2082f84bde02e7e0eee31ab1371f6057b6af4635ecb243fcf0d64736f6c63430008120033",
			"opcodes": "PUSH1 0x80 PUSH1 0x40 MSTORE CALLVALUE DUP1 ISZERO PUSH3 0x11 JUMPI PUSH1 0x0 DUP1 REVERT JUMPDEST POP PUSH1 0x40 MLOAD PUSH3 0x55DE CODESIZE SUB DUP1 PUSH3 0x55DE DUP4 CODECOPY DUP2 ADD PUSH1 0x40 DUP2 SWAP1 MSTORE PUSH3 0x34 SWAP2 PUSH3 0xF5 JUMP JUMPDEST PUSH1 0x40 DUP1 MLOAD DUP1 DUP3 ADD SWAP1 SWAP2 MSTORE PUSH1 0x4 DUP2 MSTORE PUSH4 0x1D195CDD PUSH1 0xE2 SHL PUSH1 0x20 DUP3 ADD MSTORE PUSH3 0x5A DUP2 PUSH3 0x91 JUMP JUMPDEST POP PUSH3 0x66 CALLER PUSH3 0xA3 JUMP JUMPDEST PUSH1 0x5 PUSH1 0xD SSTORE PUSH1 0x4 DUP1 SLOAD PUSH1 0x1 PUSH1 0x1 PUSH1 0xA0 SHL SUB NOT AND PUSH1 0x1 PUSH1 0x1 PUSH1 0xA0 SHL SUB SWAP3 SWAP1 SWAP3 AND SWAP2 SWAP1 SWAP2 OR SWAP1 SSTORE PUSH3 0x298 JUMP JUMPDEST PUSH1 0x2 PUSH3 0x9F DUP3 DUP3 PUSH3 0x1CC JUMP JUMPDEST POP POP JUMP JUMPDEST PUSH1 0x3 DUP1 SLOAD PUSH1 0x1 PUSH1 0x1 PUSH1 0xA0 SHL SUB DUP4 DUP2 AND PUSH1 0x1 PUSH1 0x1 PUSH1 0xA0 SHL SUB NOT DUP4 AND DUP2 OR SWAP1 SWAP4 SSTORE PUSH1 0x40 MLOAD SWAP2 AND SWAP2 SWAP1 DUP3 SWAP1 PUSH32 0x8BE0079C531659141344CD1FD0A4F28419497F9722A3DAAFE3B4186F6B6457E0 SWAP1 PUSH1 0x0 SWAP1 LOG3 POP POP JUMP JUMPDEST PUSH1 0x0 PUSH1 0x20 DUP3 DUP5 SUB SLT ISZERO PUSH3 0x108 JUMPI PUSH1 0x0 DUP1 REVERT JUMPDEST DUP2 MLOAD PUSH1 0x1 PUSH1 0x1 PUSH1 0xA0 SHL SUB DUP2 AND DUP2 EQ PUSH3 0x120 JUMPI PUSH1 0x0 DUP1 REVERT JUMPDEST SWAP4 SWAP3 POP POP POP JUMP JUMPDEST PUSH4 0x4E487B71 PUSH1 0xE0 SHL PUSH1 0x0 MSTORE PUSH1 0x41 PUSH1 0x4 MSTORE PUSH1 0x24 PUSH1 0x0 REVERT JUMPDEST PUSH1 0x1 DUP2 DUP2 SHR SWAP1 DUP3 AND DUP1 PUSH3 0x152 JUMPI PUSH1 0x7F DUP3 AND SWAP2 POP JUMPDEST PUSH1 0x20 DUP3 LT DUP2 SUB PUSH3 0x173 JUMPI PUSH4 0x4E487B71 PUSH1 0xE0 SHL PUSH1 0x0 MSTORE PUSH1 0x22 PUSH1 0x4 MSTORE PUSH1 0x24 PUSH1 0x0 REVERT JUMPDEST POP SWAP2 SWAP1 POP JUMP JUMPDEST PUSH1 0x1F DUP3 GT ISZERO PUSH3 0x1C7 JUMPI PUSH1 0x0 DUP2 DUP2 MSTORE PUSH1 0x20 DUP2 KECCAK256 PUSH1 0x1F DUP6 ADD PUSH1 0x5 SHR DUP2 ADD PUSH1 0x20 DUP7 LT ISZERO PUSH3 0x1A2 JUMPI POP DUP1 JUMPDEST PUSH1 0x1F DUP6 ADD PUSH1 0x5 SHR DUP3 ADD SWAP2 POP JUMPDEST DUP2 DUP2 LT ISZERO PUSH3 0x1C3 JUMPI DUP3 DUP2 SSTORE PUSH1 0x1 ADD PUSH3 0x1AE JUMP JUMPDEST POP POP POP JUMPDEST POP POP POP JUMP JUMPDEST DUP2 MLOAD PUSH1 0x1 PUSH1 0x1 PUSH1 0x40 SHL SUB DUP2 GT ISZERO PUSH3 0x1E8 JUMPI PUSH3 0x1E8 PUSH3 0x127 JUMP JUMPDEST PUSH3 0x200 DUP2 PUSH3 0x1F9 DUP5 SLOAD PUSH3 0x13D JUMP JUMPDEST DUP5 PUSH3 0x179 JUMP JUMPDEST PUSH1 0x20 DUP1 PUSH1 0x1F DUP4 GT PUSH1 0x1 DUP2 EQ PUSH3 0x238 JUMPI PUSH1 0x0 DUP5 ISZERO PUSH3 0x21F JUMPI POP DUP6 DUP4 ADD MLOAD JUMPDEST PUSH1 0x0 NOT PUSH1 0x3 DUP7 SWAP1 SHL SHR NOT AND PUSH1 0x1 DUP6 SWAP1 SHL OR DUP6 SSTORE PUSH3 0x1C3 JUMP JUMPDEST PUSH1 0x0 DUP6 DUP2 MSTORE PUSH1 0x20 DUP2 KECCAK256 PUSH1 0x1F NOT DUP7 AND SWAP2 JUMPDEST DUP3 DUP2 LT ISZERO PUSH3 0x269 JUMPI DUP9 DUP7 ADD MLOAD DUP3 SSTORE SWAP5 DUP5 ADD SWAP5 PUSH1 0x1 SWAP1 SWAP2 ADD SWAP1 DUP5 ADD PUSH3 0x248 JUMP JUMPDEST POP DUP6 DUP3 LT ISZERO PUSH3 0x288 JUMPI DUP8 DUP6 ADD MLOAD PUSH1 0x0 NOT PUSH1 0x3 DUP9 SWAP1 SHL PUSH1 0xF8 AND SHR NOT AND DUP2 SSTORE JUMPDEST POP POP POP POP POP PUSH1 0x1 SWAP1 DUP2 SHL ADD SWAP1 SSTORE POP JUMP JUMPDEST PUSH2 0x5336 DUP1 PUSH3 0x2A8 PUSH1 0x0 CODECOPY PUSH1 0x0 RETURN INVALID PUSH1 0x80 PUSH1 0x40 MSTORE PUSH1 0x4 CALLDATASIZE LT PUSH3 0x44D JUMPI PUSH1 0x0 CALLDATALOAD PUSH1 0xE0 SHR DUP1 PUSH4 0x8DA5CB5B GT PUSH3 0x23F JUMPI DUP1 PUSH4 0xBB667474 GT PUSH3 0x13B JUMPI DUP1 PUSH4 0xEB57E5D4 GT PUSH3 0xB9 JUMPI DUP1 PUSH4 0xF242432A GT PUSH3 0x84 JUMPI DUP1 PUSH4 0xF242432A EQ PUSH3 0xEC0 JUMPI DUP1 PUSH4 0xF2FDE38B EQ PUSH3 0xEDF JUMPI DUP1 PUSH4 0xF3A2937E EQ PUSH3 0xF04 JUMPI DUP1 PUSH4 0xF3E0FB38 EQ PUSH3 0xF1C JUMPI DUP1 PUSH4 0xFA4C15E1 EQ PUSH3 0xF41 JUMPI PUSH1 0x0 DUP1 REVERT JUMPDEST DUP1 PUSH4 0xEB57E5D4 EQ PUSH3 0xE20 JUMPI DUP1 PUSH4 0xEF9D52F1 EQ PUSH3 0xE45 JUMPI DUP1 PUSH4 0xF056BAC4 EQ PUSH3 0xE6A JUMPI DUP1 PUSH4 0xF2242674 EQ PUSH3 0xE8F JUMPI PUSH1 0x0 DUP1 REVERT JUMPDEST DUP1 PUSH4 0xDE97C262 GT PUSH3 0x106 JUMPI DUP1 PUSH4 0xDE97C262 EQ PUSH3 0xD30 JUMPI DUP1 PUSH4 0xE458A888 EQ PUSH3 0xD55 JUMPI DUP1 PUSH4 0xE8A0C74E EQ PUSH3 0xD7A JUMPI DUP1 PUSH4 0xE8FEF15D EQ PUSH3 0xD9F JUMPI DUP1 PUSH4 0xE985E9C5 EQ PUSH3 0xDD3 JUMPI PUSH1 0x0 DUP1 REVERT JUMPDEST DUP1 PUSH4 0xBB667474 EQ PUSH3 0xC8D JUMPI DUP1 PUSH4 0xC6EE20D2 EQ PUSH3 0xCC1 JUMPI DUP1 PUSH4 0xC9344C33 EQ PUSH3 0xCE4 JUMPI DUP1 PUSH4 0xD431B1AC EQ PUSH3 0xD18 JUMPI PUSH1 0x0 DUP1 REVERT JUMPDEST DUP1 PUSH4 0xA22CB465 GT PUSH3 0x1C9 JUMPI DUP1 PUSH4 0xB0005FF8 GT PUSH3 0x194 JUMPI DUP1 PUSH4 0xB0005FF8 EQ PUSH3 0xBC9 JUMPI DUP1 PUSH4 0xB12C249C EQ PUSH3 0xBE1 JUMPI DUP1 PUSH4 0xB3169894 EQ PUSH3 0xC12 JUMPI DUP1 PUSH4 0xB477F2C6 EQ PUSH3 0xC37 JUMPI DUP1 PUSH4 0xB882A0BB EQ PUSH3 0xC5C JUMPI PUSH1 0x0 DUP1 REVERT JUMPDEST DUP1 PUSH4 0xA22CB465 EQ PUSH3 0xB31 JUMPI DUP1 PUSH4 0xA3F9C8CB EQ PUSH3 0xB56 JUMPI DUP1 PUSH4 0xA7948184 EQ PUSH3 0xB6D JUMPI DUP1 PUSH4 0xAD685950 EQ PUSH3 0xBA7 JUMPI PUSH1 0x0 DUP1 REVERT JUMPDEST DUP1 PUSH4 0x95482768 GT PUSH3 0x20A JUMPI DUP1 PUSH4 0x95482768 EQ PUSH3 0xA98 JUMPI DUP1 PUSH4 0x97009F60 EQ PUSH3 0xABD JUMPI DUP1 PUSH4 0x97209183 EQ PUSH3 0xAF7 JUMPI DUP1 PUSH4 0x9904ED8D EQ PUSH3 0xB0F JUMPI PUSH1 0x0 DUP1 REVERT JUMPDEST DUP1 PUSH4 0x8DA5CB5B EQ PUSH3 0x9D7 JUMPI DUP1 PUSH4 0x9090C0F2 EQ PUSH3 0x9F7 JUMPI DUP1 PUSH4 0x913E1063 EQ PUSH3 0xA1C JUMPI DUP1 PUSH4 0x932AF1EF EQ PUSH3 0xA5B JUMPI PUSH1 0x0 DUP1 REVERT JUMPDEST DUP1 PUSH4 0x3FC8CEF3 GT PUSH3 0x34F JUMPI DUP1 PUSH4 0x5803AD37 GT PUSH3 0x2D9 JUMPI DUP1 PUSH4 0x721D9A00 GT PUSH3 0x2A4 JUMPI DUP1 PUSH4 0x721D9A00 EQ PUSH3 0x909 JUMPI DUP1 PUSH4 0x78CB7539 EQ PUSH3 0x953 JUMPI DUP1 PUSH4 0x836F038F EQ PUSH3 0x975 JUMPI DUP1 PUSH4 0x861FAF5F EQ PUSH3 0x99A JUMPI DUP1 PUSH4 0x8C063A02 EQ PUSH3 0x9B2 JUMPI PUSH1 0x0 DUP1 REVERT JUMPDEST DUP1 PUSH4 0x5803AD37 EQ PUSH3 0x892 JUMPI DUP1 PUSH4 0x5B4246D4 EQ PUSH3 0x8B7 JUMPI DUP1 PUSH4 0x62F3CCBA EQ PUSH3 0x8CF JUMPI DUP1 PUSH4 0x715018A6 EQ PUSH3 0x8F1 JUMPI PUSH1 0x0 DUP1 REVERT JUMPDEST DUP1 PUSH4 0x4E1273F4 GT PUSH3 0x31A JUMPI DUP1 PUSH4 0x4E1273F4 EQ PUSH3 0x7CD JUMPI DUP1 PUSH4 0x53340DC3 EQ PUSH3 0x801 JUMPI DUP1 PUSH4 0x5636CFC8 EQ PUSH3 0x84B JUMPI DUP1 PUSH4 0x57312481 EQ PUSH3 0x870 JUMPI PUSH1 0x0 DUP1 REVERT JUMPDEST DUP1 PUSH4 0x3FC8CEF3 EQ PUSH3 0x73C JUMPI DUP1 PUSH4 0x4386B6EC EQ PUSH3 0x75E JUMPI DUP1 PUSH4 0x47834E0C EQ PUSH3 0x783 JUMPI DUP1 PUSH4 0x4D64E73A EQ PUSH3 0x7A8 JUMPI PUSH1 0x0 DUP1 REVERT JUMPDEST DUP1 PUSH4 0xE89341C GT PUSH3 0x3DD JUMPI DUP1 PUSH4 0x1D20920C GT PUSH3 0x3A8 JUMPI DUP1 PUSH4 0x1D20920C EQ PUSH3 0x692 JUMPI DUP1 PUSH4 0x29FD8201 EQ PUSH3 0x6B7 JUMPI DUP1 PUSH4 0x2EB2C2D6 EQ PUSH3 0x6DC JUMPI DUP1 PUSH4 0x39A98804 EQ PUSH3 0x701 JUMPI DUP1 PUSH4 0x3FC196D0 EQ PUSH3 0x725 JUMPI PUSH1 0x0 DUP1 REVERT JUMPDEST DUP1 PUSH4 0xE89341C EQ PUSH3 0x5C4 JUMPI DUP1 PUSH4 0x149A75D6 EQ PUSH3 0x5F8 JUMPI DUP1 PUSH4 0x15BB9108 EQ PUSH3 0x64B JUMPI DUP1 PUSH4 0x1A5EF71C EQ PUSH3 0x670 JUMPI PUSH1 0x0 DUP1 REVERT JUMPDEST DUP1 PUSH4 0xA4AF49C GT PUSH3 0x41E JUMPI DUP1 PUSH4 0xA4AF49C EQ PUSH3 0x50C JUMPI DUP1 PUSH4 0xBA360A9 EQ PUSH3 0x540 JUMPI DUP1 PUSH4 0xC40FDFD EQ PUSH3 0x57B JUMPI DUP1 PUSH4 0xDAE30DB EQ PUSH3 0x5AC JUMPI PUSH1 0x0 DUP1 REVERT JUMPDEST DUP1 PUSH3 0x6CD200 EQ PUSH3 0x452 JUMPI DUP1 PUSH3 0xFDD58E EQ PUSH3 0x479 JUMPI DUP1 PUSH4 0x1FFC9A7 EQ PUSH3 0x4B1 JUMPI DUP1 PUSH4 0x6DD6060 EQ PUSH3 0x4E7 JUMPI JUMPDEST PUSH1 0x0 DUP1 REVERT JUMPDEST CALLVALUE DUP1 ISZERO PUSH3 0x45F JUMPI PUSH1 0x0 DUP1 REVERT JUMPDEST POP PUSH3 0x477 PUSH3 0x471 CALLDATASIZE PUSH1 0x4 PUSH3 0x3DE3 JUMP JUMPDEST PUSH3 0xF75 JUMP JUMPDEST STOP JUMPDEST CALLVALUE DUP1 ISZERO PUSH3 0x486 JUMPI PUSH1 0x0 DUP1 REVERT JUMPDEST POP PUSH3 0x49E PUSH3 0x498 CALLDATASIZE PUSH1 0x4 PUSH3 0x3E1A JUMP JUMPDEST PUSH3 0xF84 JUMP JUMPDEST PUSH1 0x40 MLOAD SWAP1 DUP2 MSTORE PUSH1 0x20 ADD JUMPDEST PUSH1 0x40 MLOAD DUP1 SWAP2 SUB SWAP1 RETURN JUMPDEST CALLVALUE DUP1 ISZERO PUSH3 0x4BE JUMPI PUSH1 0x0 DUP1 REVERT JUMPDEST POP PUSH3 0x4D6 PUSH3 0x4D0 CALLDATASIZE PUSH1 0x4 PUSH3 0x3E5E JUMP JUMPDEST PUSH3 0x101E JUMP JUMPDEST PUSH1 0x40 MLOAD SWAP1 ISZERO ISZERO DUP2 MSTORE PUSH1 0x20 ADD PUSH3 0x4A8 JUMP JUMPDEST CALLVALUE DUP1 ISZERO PUSH3 0x4F4 JUMPI PUSH1 0x0 DUP1 REVERT JUMPDEST POP PUSH3 0x477 PUSH3 0x506 CALLDATASIZE PUSH1 0x4 PUSH3 0x3E85 JUMP JUMPDEST PUSH3 0x1071 JUMP JUMPDEST CALLVALUE DUP1 ISZERO PUSH3 0x519 JUMPI PUSH1 0x0 DUP1 REVERT JUMPDEST POP PUSH3 0x4D6 PUSH3 0x52B CALLDATASIZE PUSH1 0x4 PUSH3 0x3DE3 JUMP JUMPDEST PUSH1 0x12 PUSH1 0x20 MSTORE PUSH1 0x0 SWAP1 DUP2 MSTORE PUSH1 0x40 SWAP1 KECCAK256 SLOAD PUSH1 0xFF AND DUP2 JUMP JUMPDEST CALLVALUE DUP1 ISZERO PUSH3 0x54D JUMPI PUSH1 0x0 DUP1 REVERT JUMPDEST POP PUSH3 0x565 PUSH3 0x55F CALLDATASIZE PUSH1 0x4 PUSH3 0x3DE3 JUMP JUMPDEST PUSH3 0x109D JUMP JUMPDEST PUSH1 0x40 MLOAD PUSH3 0x4A8 SWAP9 SWAP8 SWAP7 SWAP6 SWAP5 SWAP4 SWAP3 SWAP2 SWAP1 PUSH3 0x3EF7 JUMP JUMPDEST CALLVALUE DUP1 ISZERO PUSH3 0x588 JUMPI PUSH1 0x0 DUP1 REVERT JUMPDEST POP PUSH3 0x49E PUSH3 0x59A CALLDATASIZE PUSH1 0x4 PUSH3 0x3E85 JUMP JUMPDEST PUSH1 0x15 PUSH1 0x20 MSTORE PUSH1 0x0 SWAP1 DUP2 MSTORE PUSH1 0x40 SWAP1 KECCAK256 SLOAD DUP2 JUMP JUMPDEST CALLVALUE DUP1 ISZERO PUSH3 0x5B9 JUMPI PUSH1 0x0 DUP1 REVERT JUMPDEST POP PUSH3 0x49E PUSH1 0x8 SLOAD DUP2 JUMP JUMPDEST CALLVALUE DUP1 ISZERO PUSH3 0x5D1 JUMPI PUSH1 0x0 DUP1 REVERT JUMPDEST POP PUSH3 0x5E9 PUSH3 0x5E3 CALLDATASIZE PUSH1 0x4 PUSH3 0x3DE3 JUMP JUMPDEST PUSH3 0x1210 JUMP JUMPDEST PUSH1 0x40 MLOAD PUSH3 0x4A8 SWAP2 SWAP1 PUSH3 0x3F64 JUMP JUMPDEST CALLVALUE DUP1 ISZERO PUSH3 0x605 JUMPI PUSH1 0x0 DUP1 REVERT JUMPDEST POP PUSH3 0x632 PUSH3 0x617 CALLDATASIZE PUSH1 0x4 PUSH3 0x3DE3 JUMP JUMPDEST PUSH1 0x1A PUSH1 0x20 MSTORE PUSH1 0x0 SWAP1 DUP2 MSTORE PUSH1 0x40 SWAP1 KECCAK256 SLOAD PUSH1 0x1 PUSH1 0x1 PUSH1 0xA0 SHL SUB AND DUP2 JUMP JUMPDEST PUSH1 0x40 MLOAD PUSH1 0x1 PUSH1 0x1 PUSH1 0xA0 SHL SUB SWAP1 SWAP2 AND DUP2 MSTORE PUSH1 0x20 ADD PUSH3 0x4A8 JUMP JUMPDEST CALLVALUE DUP1 ISZERO PUSH3 0x658 JUMPI PUSH1 0x0 DUP1 REVERT JUMPDEST POP PUSH3 0x477 PUSH3 0x66A CALLDATASIZE PUSH1 0x4 PUSH3 0x3DE3 JUMP JUMPDEST PUSH3 0x12AC JUMP JUMPDEST CALLVALUE DUP1 ISZERO PUSH3 0x67D JUMPI PUSH1 0x0 DUP1 REVERT JUMPDEST POP PUSH1 0xB SLOAD PUSH3 0x632 SWAP1 PUSH1 0x1 PUSH1 0x1 PUSH1 0xA0 SHL SUB AND DUP2 JUMP JUMPDEST CALLVALUE DUP1 ISZERO PUSH3 0x69F JUMPI PUSH1 0x0 DUP1 REVERT JUMPDEST POP PUSH3 0x477 PUSH3 0x6B1 CALLDATASIZE PUSH1 0x4 PUSH3 0x3F88 JUMP JUMPDEST PUSH3 0x12BB JUMP JUMPDEST CALLVALUE DUP1 ISZERO PUSH3 0x6C4 JUMPI PUSH1 0x0 DUP1 REVERT JUMPDEST POP PUSH3 0x477 PUSH3 0x6D6 CALLDATASIZE PUSH1 0x4 PUSH3 0x3E85 JUMP JUMPDEST PUSH3 0x12F0 JUMP JUMPDEST CALLVALUE DUP1 ISZERO PUSH3 0x6E9 JUMPI PUSH1 0x0 DUP1 REVERT JUMPDEST POP PUSH3 0x477 PUSH3 0x6FB CALLDATASIZE PUSH1 0x4 PUSH3 0x4125 JUMP JUMPDEST PUSH3 0x131C JUMP JUMPDEST CALLVALUE DUP1 ISZERO PUSH3 0x70E JUMPI PUSH1 0x0 DUP1 REVERT JUMPDEST POP CALLER PUSH1 0x0 SWAP1 DUP2 MSTORE PUSH1 0x15 PUSH1 0x20 MSTORE PUSH1 0x40 SWAP1 KECCAK256 SLOAD PUSH3 0x49E JUMP JUMPDEST PUSH3 0x477 PUSH3 0x736 CALLDATASIZE PUSH1 0x4 PUSH3 0x3E1A JUMP JUMPDEST PUSH3 0x1357 JUMP JUMPDEST CALLVALUE DUP1 ISZERO PUSH3 0x749 JUMPI PUSH1 0x0 DUP1 REVERT JUMPDEST POP PUSH1 0x4 SLOAD PUSH3 0x632 SWAP1 PUSH1 0x1 PUSH1 0x1 PUSH1 0xA0 SHL SUB AND DUP2 JUMP JUMPDEST CALLVALUE DUP1 ISZERO PUSH3 0x76B JUMPI PUSH1 0x0 DUP1 REVERT JUMPDEST POP PUSH3 0x477 PUSH3 0x77D CALLDATASIZE PUSH1 0x4 PUSH3 0x3DE3 JUMP JUMPDEST PUSH3 0x16A5 JUMP JUMPDEST CALLVALUE DUP1 ISZERO PUSH3 0x790 JUMPI PUSH1 0x0 DUP1 REVERT JUMPDEST POP PUSH3 0x565 PUSH3 0x7A2 CALLDATASIZE PUSH1 0x4 PUSH3 0x3DE3 JUMP JUMPDEST PUSH3 0x1922 JUMP JUMPDEST CALLVALUE DUP1 ISZERO PUSH3 0x7B5 JUMPI PUSH1 0x0 DUP1 REVERT JUMPDEST POP PUSH3 0x632 PUSH3 0x7C7 CALLDATASIZE PUSH1 0x4 PUSH3 0x3E85 JUMP JUMPDEST PUSH3 0x195A JUMP JUMPDEST CALLVALUE DUP1 ISZERO PUSH3 0x7DA JUMPI PUSH1 0x0 DUP1 REVERT JUMPDEST POP PUSH3 0x7F2 PUSH3 0x7EC CALLDATASIZE PUSH1 0x4 PUSH3 0x41DD JUMP JUMPDEST PUSH3 0x19F4 JUMP JUMPDEST PUSH1 0x40 MLOAD PUSH3 0x4A8 SWAP2 SWAP1 PUSH3 0x42F4 JUMP JUMPDEST CALLVALUE DUP1 ISZERO PUSH3 0x80E JUMPI PUSH1 0x0 DUP1 REVERT JUMPDEST POP PUSH3 0x632 PUSH3 0x820 CALLDATASIZE PUSH1 0x4 PUSH3 0x3E85 JUMP JUMPDEST PUSH1 0x1 PUSH1 0x1 PUSH1 0xA0 SHL SUB SWAP1 DUP2 AND PUSH1 0x0 SWAP1 DUP2 MSTORE PUSH1 0x15 PUSH1 0x20 SWAP1 DUP2 MSTORE PUSH1 0x40 DUP1 DUP4 KECCAK256 SLOAD DUP4 MSTORE PUSH1 0x1A SWAP1 SWAP2 MSTORE SWAP1 KECCAK256 SLOAD AND SWAP1 JUMP JUMPDEST CALLVALUE DUP1 ISZERO PUSH3 0x858 JUMPI PUSH1 0x0 DUP1 REVERT JUMPDEST POP PUSH3 0x477 PUSH3 0x86A CALLDATASIZE PUSH1 0x4 PUSH3 0x3DE3 JUMP JUMPDEST PUSH3 0x1B33 JUMP JUMPDEST CALLVALUE DUP1 ISZERO PUSH3 0x87D JUMPI PUSH1 0x0 DUP1 REVERT JUMPDEST POP PUSH1 0x9 SLOAD PUSH3 0x632 SWAP1 PUSH1 0x1 PUSH1 0x1 PUSH1 0xA0 SHL SUB AND DUP2 JUMP JUMPDEST CALLVALUE DUP1 ISZERO PUSH3 0x89F JUMPI PUSH1 0x0 DUP1 REVERT JUMPDEST POP PUSH3 0x49E PUSH3 0x8B1 CALLDATASIZE PUSH1 0x4 PUSH3 0x3DE3 JUMP JUMPDEST PUSH3 0x1B42 JUMP JUMPDEST CALLVALUE DUP1 ISZERO PUSH3 0x8C4 JUMPI PUSH1 0x0 DUP1 REVERT JUMPDEST POP PUSH3 0x49E PUSH1 0xD SLOAD DUP2 JUMP JUMPDEST CALLVALUE DUP1 ISZERO PUSH3 0x8DC JUMPI PUSH1 0x0 DUP1 REVERT JUMPDEST POP PUSH1 0x5 SLOAD PUSH3 0x632 SWAP1 PUSH1 0x1 PUSH1 0x1 PUSH1 0xA0 SHL SUB AND DUP2 JUMP JUMPDEST CALLVALUE DUP1 ISZERO PUSH3 0x8FE JUMPI PUSH1 0x0 DUP1 REVERT JUMPDEST POP PUSH3 0x477 PUSH3 0x1C39 JUMP JUMPDEST CALLVALUE DUP1 ISZERO PUSH3 0x916 JUMPI PUSH1 0x0 DUP1 REVERT JUMPDEST POP PUSH3 0x4D6 PUSH3 0x928 CALLDATASIZE PUSH1 0x4 PUSH3 0x3E85 JUMP JUMPDEST PUSH1 0x1 PUSH1 0x1 PUSH1 0xA0 SHL SUB AND PUSH1 0x0 SWAP1 DUP2 MSTORE PUSH1 0x15 PUSH1 0x20 SWAP1 DUP2 MSTORE PUSH1 0x40 DUP1 DUP4 KECCAK256 SLOAD DUP4 MSTORE PUSH1 0x12 SWAP1 SWAP2 MSTORE SWAP1 KECCAK256 SLOAD PUSH1 0xFF AND SWAP1 JUMP JUMPDEST CALLVALUE DUP1 ISZERO PUSH3 0x960 JUMPI PUSH1 0x0 DUP1 REVERT JUMPDEST POP PUSH1 0xA SLOAD PUSH3 0x632 SWAP1 PUSH1 0x1 PUSH1 0x1 PUSH1 0xA0 SHL SUB AND DUP2 JUMP JUMPDEST CALLVALUE DUP1 ISZERO PUSH3 0x982 JUMPI PUSH1 0x0 DUP1 REVERT JUMPDEST POP PUSH3 0x477 PUSH3 0x994 CALLDATASIZE PUSH1 0x4 PUSH3 0x3E85 JUMP JUMPDEST PUSH3 0x1C51 JUMP JUMPDEST CALLVALUE DUP1 ISZERO PUSH3 0x9A7 JUMPI PUSH1 0x0 DUP1 REVERT JUMPDEST POP PUSH3 0x477 PUSH3 0x1C7D JUMP JUMPDEST CALLVALUE DUP1 ISZERO PUSH3 0x9BF JUMPI PUSH1 0x0 DUP1 REVERT JUMPDEST POP PUSH3 0x477 PUSH3 0x9D1 CALLDATASIZE PUSH1 0x4 PUSH3 0x3E85 JUMP JUMPDEST PUSH3 0x1D76 JUMP JUMPDEST CALLVALUE DUP1 ISZERO PUSH3 0x9E4 JUMPI PUSH1 0x0 DUP1 REVERT JUMPDEST POP PUSH1 0x3 SLOAD PUSH1 0x1 PUSH1 0x1 PUSH1 0xA0 SHL SUB AND PUSH3 0x632 JUMP JUMPDEST CALLVALUE DUP1 ISZERO PUSH3 0xA04 JUMPI PUSH1 0x0 DUP1 REVERT JUMPDEST POP PUSH3 0x477 PUSH3 0xA16 CALLDATASIZE PUSH1 0x4 PUSH3 0x3E85 JUMP JUMPDEST PUSH3 0x204B JUMP JUMPDEST CALLVALUE DUP1 ISZERO PUSH3 0xA29 JUMPI PUSH1 0x0 DUP1 REVERT JUMPDEST POP PUSH3 0x4D6 PUSH3 0xA3B CALLDATASIZE PUSH1 0x4 PUSH3 0x4309 JUMP JUMPDEST DUP1 MLOAD PUSH1 0x20 DUP2 DUP4 ADD DUP2 ADD DUP1 MLOAD PUSH1 0x1E DUP3 MSTORE SWAP3 DUP3 ADD SWAP2 SWAP1 SWAP4 ADD KECCAK256 SWAP2 MSTORE SLOAD PUSH1 0xFF AND DUP2 JUMP JUMPDEST CALLVALUE DUP1 ISZERO PUSH3 0xA68 JUMPI PUSH1 0x0 DUP1 REVERT JUMPDEST POP PUSH3 0x4D6 PUSH3 0xA7A CALLDATASIZE PUSH1 0x4 PUSH3 0x3E85 JUMP JUMPDEST PUSH1 0x1 PUSH1 0x1 PUSH1 0xA0 SHL SUB AND PUSH1 0x0 SWAP1 DUP2 MSTORE PUSH1 0x11 PUSH1 0x20 MSTORE PUSH1 0x40 SWAP1 KECCAK256 SLOAD PUSH1 0xFF AND SWAP1 JUMP JUMPDEST CALLVALUE DUP1 ISZERO PUSH3 0xAA5 JUMPI PUSH1 0x0 DUP1 REVERT JUMPDEST POP PUSH3 0x477 PUSH3 0xAB7 CALLDATASIZE PUSH1 0x4 PUSH3 0x3E85 JUMP JUMPDEST PUSH3 0x2077 JUMP JUMPDEST CALLVALUE DUP1 ISZERO PUSH3 0xACA JUMPI PUSH1 0x0 DUP1 REVERT JUMPDEST POP PUSH3 0x632 PUSH3 0xADC CALLDATASIZE PUSH1 0x4 PUSH3 0x3DE3 JUMP JUMPDEST PUSH1 0x1C PUSH1 0x20 MSTORE PUSH1 0x0 SWAP1 DUP2 MSTORE PUSH1 0x40 SWAP1 KECCAK256 SLOAD PUSH1 0x1 PUSH1 0x1 PUSH1 0xA0 SHL SUB AND DUP2 JUMP JUMPDEST CALLVALUE DUP1 ISZERO PUSH3 0xB04 JUMPI PUSH1 0x0 DUP1 REVERT JUMPDEST POP PUSH3 0x477 PUSH3 0x223B JUMP JUMPDEST CALLVALUE DUP1 ISZERO PUSH3 0xB1C JUMPI PUSH1 0x0 DUP1 REVERT JUMPDEST POP PUSH1 0xC SLOAD PUSH3 0x632 SWAP1 PUSH1 0x1 PUSH1 0x1 PUSH1 0xA0 SHL SUB AND DUP2 JUMP JUMPDEST CALLVALUE DUP1 ISZERO PUSH3 0xB3E JUMPI PUSH1 0x0 DUP1 REVERT JUMPDEST POP PUSH3 0x477 PUSH3 0xB50 CALLDATASIZE PUSH1 0x4 PUSH3 0x3F88 JUMP JUMPDEST PUSH3 0x22C9 JUMP JUMPDEST CALLVALUE DUP1 ISZERO PUSH3 0xB63 JUMPI PUSH1 0x0 DUP1 REVERT JUMPDEST POP PUSH1 0x1F SLOAD PUSH3 0x49E JUMP JUMPDEST CALLVALUE DUP1 ISZERO PUSH3 0xB7A JUMPI PUSH1 0x0 DUP1 REVERT JUMPDEST POP PUSH3 0x632 PUSH3 0xB8C CALLDATASIZE PUSH1 0x4 PUSH3 0x3E85 JUMP JUMPDEST PUSH1 0x1B PUSH1 0x20 MSTORE PUSH1 0x0 SWAP1 DUP2 MSTORE PUSH1 0x40 SWAP1 KECCAK256 SLOAD PUSH1 0x1 PUSH1 0x1 PUSH1 0xA0 SHL SUB AND DUP2 JUMP JUMPDEST CALLVALUE DUP1 ISZERO PUSH3 0xBB4 JUMPI PUSH1 0x0 DUP1 REVERT JUMPDEST POP PUSH1 0xE SLOAD PUSH3 0x632 SWAP1 PUSH1 0x1 PUSH1 0x1 PUSH1 0xA0 SHL SUB AND DUP2 JUMP JUMPDEST CALLVALUE DUP1 ISZERO PUSH3 0xBD6 JUMPI PUSH1 0x0 DUP1 REVERT JUMPDEST POP PUSH3 0x49E PUSH1 0x6 SLOAD DUP2 JUMP JUMPDEST CALLVALUE DUP1 ISZERO PUSH3 0xBEE JUMPI PUSH1 0x0 DUP1 REVERT JUMPDEST POP PUSH3 0x49E PUSH3 0xC00 CALLDATASIZE PUSH1 0x4 PUSH3 0x3DE3 JUMP JUMPDEST PUSH1 0x0 SWAP1 DUP2 MSTORE PUSH1 0x14 PUSH1 0x20 MSTORE PUSH1 0x40 SWAP1 KECCAK256 SLOAD SWAP1 JUMP JUMPDEST CALLVALUE DUP1 ISZERO PUSH3 0xC1F JUMPI PUSH1 0x0 DUP1 REVERT JUMPDEST POP PUSH3 0x477 PUSH3 0xC31 CALLDATASIZE PUSH1 0x4 PUSH3 0x3DE3 JUMP JUMPDEST PUSH3 0x22DA JUMP JUMPDEST CALLVALUE DUP1 ISZERO PUSH3 0xC44 JUMPI PUSH1 0x0 DUP1 REVERT JUMPDEST POP PUSH3 0x477 PUSH3 0xC56 CALLDATASIZE PUSH1 0x4 PUSH3 0x3E85 JUMP JUMPDEST PUSH3 0x2828 JUMP JUMPDEST CALLVALUE DUP1 ISZERO PUSH3 0xC69 JUMPI PUSH1 0x0 DUP1 REVERT JUMPDEST POP PUSH3 0x49E PUSH3 0xC7B CALLDATASIZE PUSH1 0x4 PUSH3 0x3DE3 JUMP JUMPDEST PUSH1 0x16 PUSH1 0x20 MSTORE PUSH1 0x0 SWAP1 DUP2 MSTORE PUSH1 0x40 SWAP1 KECCAK256 SLOAD DUP2 JUMP JUMPDEST CALLVALUE DUP1 ISZERO PUSH3 0xC9A JUMPI PUSH1 0x0 DUP1 REVERT JUMPDEST POP PUSH3 0x4D6 PUSH3 0xCAC CALLDATASIZE PUSH1 0x4 PUSH3 0x3E85 JUMP JUMPDEST PUSH1 0x13 PUSH1 0x20 MSTORE PUSH1 0x0 SWAP1 DUP2 MSTORE PUSH1 0x40 SWAP1 KECCAK256 SLOAD PUSH1 0xFF AND DUP2 JUMP JUMPDEST CALLVALUE DUP1 ISZERO PUSH3 0xCCE JUMPI PUSH1 0x0 DUP1 REVERT JUMPDEST POP PUSH1 0x4 SLOAD PUSH3 0x4D6 SWAP1 PUSH1 0x1 PUSH1 0xA0 SHL SWAP1 DIV PUSH1 0xFF AND DUP2 JUMP JUMPDEST CALLVALUE DUP1 ISZERO PUSH3 0xCF1 JUMPI PUSH1 0x0 DUP1 REVERT JUMPDEST POP PUSH3 0x4D6 PUSH3 0xD03 CALLDATASIZE PUSH1 0x4 PUSH3 0x3E85 JUMP JUMPDEST PUSH1 0x10 PUSH1 0x20 MSTORE PUSH1 0x0 SWAP1 DUP2 MSTORE PUSH1 0x40 SWAP1 KECCAK256 SLOAD PUSH1 0xFF AND DUP2 JUMP JUMPDEST CALLVALUE DUP1 ISZERO PUSH3 0xD25 JUMPI PUSH1 0x0 DUP1 REVERT JUMPDEST POP PUSH3 0x477 PUSH3 0x2854 JUMP JUMPDEST CALLVALUE DUP1 ISZERO PUSH3 0xD3D JUMPI PUSH1 0x0 DUP1 REVERT JUMPDEST POP PUSH3 0x632 PUSH3 0xD4F CALLDATASIZE PUSH1 0x4 PUSH3 0x434A JUMP JUMPDEST PUSH3 0x28DD JUMP JUMPDEST CALLVALUE DUP1 ISZERO PUSH3 0xD62 JUMPI PUSH1 0x0 DUP1 REVERT JUMPDEST POP PUSH3 0x477 PUSH3 0xD74 CALLDATASIZE PUSH1 0x4 PUSH3 0x436D JUMP JUMPDEST PUSH3 0x2916 JUMP JUMPDEST CALLVALUE DUP1 ISZERO PUSH3 0xD87 JUMPI PUSH1 0x0 DUP1 REVERT JUMPDEST POP PUSH3 0x5E9 PUSH3 0xD99 CALLDATASIZE PUSH1 0x4 PUSH3 0x4309 JUMP JUMPDEST PUSH3 0x3024 JUMP JUMPDEST CALLVALUE DUP1 ISZERO PUSH3 0xDAC JUMPI PUSH1 0x0 DUP1 REVERT JUMPDEST POP PUSH3 0x4D6 PUSH3 0xDBE CALLDATASIZE PUSH1 0x4 PUSH3 0x3E85 JUMP JUMPDEST PUSH1 0x11 PUSH1 0x20 MSTORE PUSH1 0x0 SWAP1 DUP2 MSTORE PUSH1 0x40 SWAP1 KECCAK256 SLOAD PUSH1 0xFF AND DUP2 JUMP JUMPDEST CALLVALUE DUP1 ISZERO PUSH3 0xDE0 JUMPI PUSH1 0x0 DUP1 REVERT JUMPDEST POP PUSH3 0x4D6 PUSH3 0xDF2 CALLDATASIZE PUSH1 0x4 PUSH3 0x43CE JUMP JUMPDEST PUSH1 0x1 PUSH1 0x1 PUSH1 0xA0 SHL SUB SWAP2 DUP3 AND PUSH1 0x0 SWAP1 DUP2 MSTORE PUSH1 0x1 PUSH1 0x20 SWAP1 DUP2 MSTORE PUSH1 0x40 DUP1 DUP4 KECCAK256 SWAP4 SWAP1 SWAP5 AND DUP3 MSTORE SWAP2 SWAP1 SWAP2 MSTORE KECCAK256 SLOAD PUSH1 0xFF AND SWAP1 JUMP JUMPDEST CALLVALUE DUP1 ISZERO PUSH3 0xE2D JUMPI PUSH1 0x0 DUP1 REVERT JUMPDEST POP PUSH3 0x477 PUSH3 0xE3F CALLDATASIZE PUSH1 0x4 PUSH3 0x3E85 JUMP JUMPDEST PUSH3 0x30D1 JUMP JUMPDEST CALLVALUE DUP1 ISZERO PUSH3 0xE52 JUMPI PUSH1 0x0 DUP1 REVERT JUMPDEST POP PUSH3 0x5E9 PUSH3 0xE64 CALLDATASIZE PUSH1 0x4 PUSH3 0x3DE3 JUMP JUMPDEST PUSH3 0x30FD JUMP JUMPDEST CALLVALUE DUP1 ISZERO PUSH3 0xE77 JUMPI PUSH1 0x0 DUP1 REVERT JUMPDEST POP PUSH3 0x565 PUSH3 0xE89 CALLDATASIZE PUSH1 0x4 PUSH3 0x3E85 JUMP JUMPDEST PUSH3 0x3118 JUMP JUMPDEST CALLVALUE DUP1 ISZERO PUSH3 0xE9C JUMPI PUSH1 0x0 DUP1 REVERT JUMPDEST POP PUSH3 0x49E PUSH3 0xEAE CALLDATASIZE PUSH1 0x4 PUSH3 0x3E85 JUMP JUMPDEST PUSH1 0x19 PUSH1 0x20 MSTORE PUSH1 0x0 SWAP1 DUP2 MSTORE PUSH1 0x40 SWAP1 KECCAK256 SLOAD DUP2 JUMP JUMPDEST CALLVALUE DUP1 ISZERO PUSH3 0xECD JUMPI PUSH1 0x0 DUP1 REVERT JUMPDEST POP PUSH3 0x477 PUSH3 0x6FB CALLDATASIZE PUSH1 0x4 PUSH3 0x4406 JUMP JUMPDEST CALLVALUE DUP1 ISZERO PUSH3 0xEEC JUMPI PUSH1 0x0 DUP1 REVERT JUMPDEST POP PUSH3 0x477 PUSH3 0xEFE CALLDATASIZE PUSH1 0x4 PUSH3 0x3E85 JUMP JUMPDEST PUSH3 0x313C JUMP JUMPDEST CALLVALUE DUP1 ISZERO PUSH3 0xF11 JUMPI PUSH1 0x0 DUP1 REVERT JUMPDEST POP PUSH3 0x49E PUSH1 0x7 SLOAD DUP2 JUMP JUMPDEST CALLVALUE DUP1 ISZERO PUSH3 0xF29 JUMPI PUSH1 0x0 DUP1 REVERT JUMPDEST POP PUSH3 0x477 PUSH3 0xF3B CALLDATASIZE PUSH1 0x4 PUSH3 0x3E1A JUMP JUMPDEST PUSH3 0x31B8 JUMP JUMPDEST CALLVALUE DUP1 ISZERO PUSH3 0xF4E JUMPI PUSH1 0x0 DUP1 REVERT JUMPDEST POP PUSH3 0xF66 PUSH3 0xF60 CALLDATASIZE PUSH1 0x4 PUSH3 0x3E85 JUMP JUMPDEST PUSH3 0x324D JUMP JUMPDEST PUSH1 0x40 MLOAD PUSH3 0x4A8 SWAP2 SWAP1 PUSH3 0x4473 JUMP JUMPDEST PUSH3 0xF7F PUSH3 0x3453 JUMP JUMPDEST PUSH1 0xD SSTORE JUMP JUMPDEST PUSH1 0x0 PUSH1 0x1 PUSH1 0x1 PUSH1 0xA0 SHL SUB DUP4 AND PUSH3 0xFF5 JUMPI PUSH1 0x40 MLOAD PUSH3 0x461BCD PUSH1 0xE5 SHL DUP2 MSTORE PUSH1 0x20 PUSH1 0x4 DUP3 ADD MSTORE PUSH1 0x2A PUSH1 0x24 DUP3 ADD MSTORE PUSH32 0x455243313135353A2061646472657373207A65726F206973206E6F7420612076 PUSH1 0x44 DUP3 ADD MSTORE PUSH10 0x30B634B21037BBB732B9 PUSH1 0xB1 SHL PUSH1 0x64 DUP3 ADD MSTORE PUSH1 0x84 ADD JUMPDEST PUSH1 0x40 MLOAD DUP1 SWAP2 SUB SWAP1 REVERT JUMPDEST POP PUSH1 0x0 DUP2 DUP2 MSTORE PUSH1 0x20 DUP2 DUP2 MSTORE PUSH1 0x40 DUP1 DUP4 KECCAK256 PUSH1 0x1 PUSH1 0x1 PUSH1 0xA0 SHL SUB DUP7 AND DUP5 MSTORE SWAP1 SWAP2 MSTORE SWAP1 KECCAK256 SLOAD JUMPDEST SWAP3 SWAP2 POP POP JUMP JUMPDEST PUSH1 0x0 PUSH1 0x1 PUSH1 0x1 PUSH1 0xE0 SHL SUB NOT DUP3 AND PUSH4 0x6CDB3D13 PUSH1 0xE1 SHL EQ DUP1 PUSH3 0x1050 JUMPI POP PUSH1 0x1 PUSH1 0x1 PUSH1 0xE0 SHL SUB NOT DUP3 AND PUSH4 0x3A24D07 PUSH1 0xE2 SHL EQ JUMPDEST DUP1 PUSH3 0x1018 JUMPI POP PUSH4 0x1FFC9A7 PUSH1 0xE0 SHL PUSH1 0x1 PUSH1 0x1 PUSH1 0xE0 SHL SUB NOT DUP4 AND EQ PUSH3 0x1018 JUMP JUMPDEST PUSH3 0x107B PUSH3 0x3453 JUMP JUMPDEST PUSH1 0xA DUP1 SLOAD PUSH1 0x1 PUSH1 0x1 PUSH1 0xA0 SHL SUB NOT AND PUSH1 0x1 PUSH1 0x1 PUSH1 0xA0 SHL SUB SWAP3 SWAP1 SWAP3 AND SWAP2 SWAP1 SWAP2 OR SWAP1 SSTORE JUMP JUMPDEST PUSH1 0x18 PUSH1 0x20 MSTORE PUSH1 0x0 SWAP1 DUP2 MSTORE PUSH1 0x40 SWAP1 KECCAK256 DUP1 SLOAD PUSH1 0x1 DUP3 ADD DUP1 SLOAD SWAP2 SWAP3 SWAP2 PUSH3 0x10C1 SWAP1 PUSH3 0x4512 JUMP JUMPDEST DUP1 PUSH1 0x1F ADD PUSH1 0x20 DUP1 SWAP2 DIV MUL PUSH1 0x20 ADD PUSH1 0x40 MLOAD SWAP1 DUP2 ADD PUSH1 0x40 MSTORE DUP1 SWAP3 SWAP2 SWAP1 DUP2 DUP2 MSTORE PUSH1 0x20 ADD DUP3 DUP1 SLOAD PUSH3 0x10EF SWAP1 PUSH3 0x4512 JUMP JUMPDEST DUP1 ISZERO PUSH3 0x1140 JUMPI DUP1 PUSH1 0x1F LT PUSH3 0x1114 JUMPI PUSH2 0x100 DUP1 DUP4 SLOAD DIV MUL DUP4 MSTORE SWAP2 PUSH1 0x20 ADD SWAP2 PUSH3 0x1140 JUMP JUMPDEST DUP3 ADD SWAP2 SWAP1 PUSH1 0x0 MSTORE PUSH1 0x20 PUSH1 0x0 KECCAK256 SWAP1 JUMPDEST DUP2 SLOAD DUP2 MSTORE SWAP1 PUSH1 0x1 ADD SWAP1 PUSH1 0x20 ADD DUP1 DUP4 GT PUSH3 0x1122 JUMPI DUP3 SWAP1 SUB PUSH1 0x1F AND DUP3 ADD SWAP2 JUMPDEST POP POP POP PUSH1 0x2 DUP5 ADD SLOAD PUSH1 0x3 DUP6 ADD SLOAD PUSH1 0x4 DUP7 ADD SLOAD PUSH1 0x5 DUP8 ADD SLOAD PUSH1 0x6 DUP9 ADD SLOAD PUSH1 0x7 DUP10 ADD DUP1 SLOAD SWAP9 SWAP10 PUSH1 0x1 PUSH1 0x1 PUSH1 0xA0 SHL SUB SWAP7 DUP8 AND SWAP10 SWAP6 SWAP9 POP SWAP4 SWAP7 POP SWAP2 SWAP1 SWAP5 AND SWAP4 SWAP3 PUSH3 0x1187 SWAP1 PUSH3 0x4512 JUMP JUMPDEST DUP1 PUSH1 0x1F ADD PUSH1 0x20 DUP1 SWAP2 DIV MUL PUSH1 0x20 ADD PUSH1 0x40 MLOAD SWAP1 DUP2 ADD PUSH1 0x40 MSTORE DUP1 SWAP3 SWAP2 SWAP1 DUP2 DUP2 MSTORE PUSH1 0x20 ADD DUP3 DUP1 SLOAD PUSH3 0x11B5 SWAP1 PUSH3 0x4512 JUMP JUMPDEST DUP1 ISZERO PUSH3 0x1206 JUMPI DUP1 PUSH1 0x1F LT PUSH3 0x11DA JUMPI PUSH2 0x100 DUP1 DUP4 SLOAD DIV MUL DUP4 MSTORE SWAP2 PUSH1 0x20 ADD SWAP2 PUSH3 0x1206 JUMP JUMPDEST DUP3 ADD SWAP2 SWAP1 PUSH1 0x0 MSTORE PUSH1 0x20 PUSH1 0x0 KECCAK256 SWAP1 JUMPDEST DUP2 SLOAD DUP2 MSTORE SWAP1 PUSH1 0x1 ADD SWAP1 PUSH1 0x20 ADD DUP1 DUP4 GT PUSH3 0x11E8 JUMPI DUP3 SWAP1 SUB PUSH1 0x1F AND DUP3 ADD SWAP2 JUMPDEST POP POP POP POP POP SWAP1 POP DUP9 JUMP JUMPDEST PUSH1 0x60 PUSH1 0x2 DUP1 SLOAD PUSH3 0x1221 SWAP1 PUSH3 0x4512 JUMP JUMPDEST DUP1 PUSH1 0x1F ADD PUSH1 0x20 DUP1 SWAP2 DIV MUL PUSH1 0x20 ADD PUSH1 0x40 MLOAD SWAP1 DUP2 ADD PUSH1 0x40 MSTORE DUP1 SWAP3 SWAP2 SWAP1 DUP2 DUP2 MSTORE PUSH1 0x20 ADD DUP3 DUP1 SLOAD PUSH3 0x124F SWAP1 PUSH3 0x4512 JUMP JUMPDEST DUP1 ISZERO PUSH3 0x12A0 JUMPI DUP1 PUSH1 0x1F LT PUSH3 0x1274 JUMPI PUSH2 0x100 DUP1 DUP4 SLOAD DIV MUL DUP4 MSTORE SWAP2 PUSH1 0x20 ADD SWAP2 PUSH3 0x12A0 JUMP JUMPDEST DUP3 ADD SWAP2 SWAP1 PUSH1 0x0 MSTORE PUSH1 0x20 PUSH1 0x0 KECCAK256 SWAP1 JUMPDEST DUP2 SLOAD DUP2 MSTORE SWAP1 PUSH1 0x1 ADD SWAP1 PUSH1 0x20 ADD DUP1 DUP4 GT PUSH3 0x1282 JUMPI DUP3 SWAP1 SUB PUSH1 0x1F AND DUP3 ADD SWAP2 JUMPDEST POP POP POP POP POP SWAP1 POP SWAP2 SWAP1 POP JUMP JUMPDEST PUSH3 0x12B6 PUSH3 0x3453 JUMP JUMPDEST PUSH1 0x8 SSTORE JUMP JUMPDEST PUSH3 0x12C5 PUSH3 0x3453 JUMP JUMPDEST PUSH1 0x1 PUSH1 0x1 PUSH1 0xA0 SHL SUB SWAP2 SWAP1 SWAP2 AND PUSH1 0x0 SWAP1 DUP2 MSTORE PUSH1 0x10 PUSH1 0x20 MSTORE PUSH1 0x40 SWAP1 KECCAK256 DUP1 SLOAD PUSH1 0xFF NOT AND SWAP2 ISZERO ISZERO SWAP2 SWAP1 SWAP2 OR SWAP1 SSTORE JUMP JUMPDEST PUSH3 0x12FA PUSH3 0x3453 JUMP JUMPDEST PUSH1 0xC DUP1 SLOAD PUSH1 0x1 PUSH1 0x1 PUSH1 0xA0 SHL SUB NOT AND PUSH1 0x1 PUSH1 0x1 PUSH1 0xA0 SHL SUB SWAP3 SWAP1 SWAP3 AND SWAP2 SWAP1 SWAP2 OR SWAP1 SSTORE JUMP JUMPDEST PUSH1 0x40 MLOAD PUSH3 0x461BCD PUSH1 0xE5 SHL DUP2 MSTORE PUSH1 0x20 PUSH1 0x4 DUP3 ADD MSTORE PUSH1 0xF PUSH1 0x24 DUP3 ADD MSTORE PUSH15 0x3737BA103A37903A3930B739B332B9 PUSH1 0x89 SHL PUSH1 0x44 DUP3 ADD MSTORE PUSH1 0x64 ADD PUSH3 0xFEC JUMP JUMPDEST PUSH1 0x5 SLOAD PUSH1 0x1 PUSH1 0x1 PUSH1 0xA0 SHL SUB AND CALLER EQ PUSH3 0x13A4 JUMPI PUSH1 0x40 MLOAD PUSH3 0x461BCD PUSH1 0xE5 SHL DUP2 MSTORE PUSH1 0x20 PUSH1 0x4 DUP3 ADD MSTORE PUSH1 0xE PUSH1 0x24 DUP3 ADD MSTORE PUSH14 0x31B0B6363130B1B59032B93937B9 PUSH1 0x91 SHL PUSH1 0x44 DUP3 ADD MSTORE PUSH1 0x64 ADD PUSH3 0xFEC JUMP JUMPDEST PUSH1 0x1 PUSH1 0x1 PUSH1 0xA0 SHL SUB DUP3 AND PUSH1 0x0 SWAP1 DUP2 MSTORE PUSH1 0x11 PUSH1 0x20 MSTORE PUSH1 0x40 SWAP1 KECCAK256 SLOAD PUSH1 0xFF AND PUSH3 0x13FF JUMPI PUSH1 0x40 MLOAD PUSH3 0x461BCD PUSH1 0xE5 SHL DUP2 MSTORE PUSH1 0x20 PUSH1 0x4 DUP3 ADD MSTORE PUSH1 0xE PUSH1 0x24 DUP3 ADD MSTORE PUSH14 0x31B0B6363130B1B59032B93937B9 PUSH1 0x91 SHL PUSH1 0x44 DUP3 ADD MSTORE PUSH1 0x64 ADD PUSH3 0xFEC JUMP JUMPDEST PUSH1 0x0 PUSH1 0xA PUSH1 0xD SLOAD DUP4 PUSH3 0x1413 SWAP2 SWAP1 PUSH3 0x4564 JUMP JUMPDEST PUSH3 0x141F SWAP2 SWAP1 PUSH3 0x457E JUMP JUMPDEST SWAP1 POP PUSH1 0x0 PUSH1 0xA PUSH1 0xD SLOAD PUSH1 0xA PUSH3 0x1436 SWAP2 SWAP1 PUSH3 0x45A1 JUMP JUMPDEST PUSH3 0x1442 SWAP1 DUP6 PUSH3 0x4564 JUMP JUMPDEST PUSH3 0x144E SWAP2 SWAP1 PUSH3 0x457E JUMP JUMPDEST PUSH1 0x1 PUSH1 0x1 PUSH1 0xA0 SHL SUB DUP1 DUP7 AND PUSH1 0x0 DUP2 DUP2 MSTORE PUSH1 0x15 PUSH1 0x20 SWAP1 DUP2 MSTORE PUSH1 0x40 DUP1 DUP4 KECCAK256 SLOAD DUP4 MSTORE PUSH1 0x1A DUP3 MSTORE DUP1 DUP4 KECCAK256 SLOAD SWAP4 DUP4 MSTORE PUSH1 0x1B SWAP1 SWAP2 MSTORE DUP2 KECCAK256 SLOAD SWAP4 SWAP5 POP SWAP1 DUP3 AND SWAP3 SWAP1 SWAP2 AND SWAP1 CALLVALUE SWAP1 SUB PUSH3 0x14CD JUMPI PUSH1 0x4 SLOAD PUSH3 0x14AD SWAP1 PUSH1 0x1 PUSH1 0x1 PUSH1 0xA0 SHL SUB AND DUP8 DUP5 DUP8 PUSH3 0x364D JUMP JUMPDEST PUSH1 0x4 SLOAD PUSH3 0x14C7 SWAP1 PUSH1 0x1 PUSH1 0x1 PUSH1 0xA0 SHL SUB AND DUP8 DUP4 DUP7 PUSH3 0x364D JUMP JUMPDEST PUSH3 0x166E JUMP JUMPDEST DUP5 CALLVALUE EQ PUSH3 0x1512 JUMPI PUSH1 0x40 MLOAD PUSH3 0x461BCD PUSH1 0xE5 SHL DUP2 MSTORE PUSH1 0x20 PUSH1 0x4 DUP3 ADD MSTORE PUSH1 0x11 PUSH1 0x24 DUP3 ADD MSTORE PUSH17 0x496E76616C6964204554482076616C7565 PUSH1 0x78 SHL PUSH1 0x44 DUP3 ADD MSTORE PUSH1 0x64 ADD PUSH3 0xFEC JUMP JUMPDEST PUSH1 0x4 DUP1 SLOAD PUSH1 0x40 DUP1 MLOAD PUSH4 0xD0E30DB PUSH1 0xE4 SHL DUP2 MSTORE SWAP1 MLOAD PUSH1 0x1 PUSH1 0x1 PUSH1 0xA0 SHL SUB SWAP1 SWAP3 AND SWAP3 PUSH4 0xD0E30DB0 SWAP3 DUP10 SWAP3 DUP1 DUP4 ADD SWAP3 PUSH1 0x0 SWAP3 SWAP2 DUP3 SWAP1 SUB ADD DUP2 DUP6 DUP9 DUP1 EXTCODESIZE ISZERO DUP1 ISZERO PUSH3 0x1558 JUMPI PUSH1 0x0 DUP1 REVERT JUMPDEST POP GAS CALL ISZERO DUP1 ISZERO PUSH3 0x156D JUMPI RETURNDATASIZE PUSH1 0x0 DUP1 RETURNDATACOPY RETURNDATASIZE PUSH1 0x0 REVERT JUMPDEST POP POP PUSH1 0x4 DUP1 SLOAD PUSH1 0x40 MLOAD PUSH4 0xA9059CBB PUSH1 0xE0 SHL DUP2 MSTORE PUSH1 0x1 PUSH1 0x1 PUSH1 0xA0 SHL SUB DUP9 DUP2 AND SWAP4 DUP3 ADD SWAP4 SWAP1 SWAP4 MSTORE PUSH1 0x24 DUP2 ADD DUP11 SWAP1 MSTORE SWAP2 AND SWAP4 POP PUSH4 0xA9059CBB SWAP3 POP PUSH1 0x44 ADD SWAP1 POP PUSH1 0x20 PUSH1 0x40 MLOAD DUP1 DUP4 SUB DUP2 PUSH1 0x0 DUP8 GAS CALL ISZERO DUP1 ISZERO PUSH3 0x15C9 JUMPI RETURNDATASIZE PUSH1 0x0 DUP1 RETURNDATACOPY RETURNDATASIZE PUSH1 0x0 REVERT JUMPDEST POP POP POP POP PUSH1 0x40 MLOAD RETURNDATASIZE PUSH1 0x1F NOT PUSH1 0x1F DUP3 ADD AND DUP3 ADD DUP1 PUSH1 0x40 MSTORE POP DUP2 ADD SWAP1 PUSH3 0x15EF SWAP2 SWAP1 PUSH3 0x45B7 JUMP JUMPDEST POP PUSH1 0x4 DUP1 SLOAD PUSH1 0x40 MLOAD PUSH4 0xA9059CBB PUSH1 0xE0 SHL DUP2 MSTORE PUSH1 0x1 PUSH1 0x1 PUSH1 0xA0 SHL SUB DUP5 DUP2 AND SWAP4 DUP3 ADD SWAP4 SWAP1 SWAP4 MSTORE PUSH1 0x24 DUP2 ADD DUP7 SWAP1 MSTORE SWAP2 AND SWAP1 PUSH4 0xA9059CBB SWAP1 PUSH1 0x44 ADD PUSH1 0x20 PUSH1 0x40 MLOAD DUP1 DUP4 SUB DUP2 PUSH1 0x0 DUP8 GAS CALL ISZERO DUP1 ISZERO PUSH3 0x1646 JUMPI RETURNDATASIZE PUSH1 0x0 DUP1 RETURNDATACOPY RETURNDATASIZE PUSH1 0x0 REVERT JUMPDEST POP POP POP POP PUSH1 0x40 MLOAD RETURNDATASIZE PUSH1 0x1F NOT PUSH1 0x1F DUP3 ADD AND DUP3 ADD DUP1 PUSH1 0x40 MSTORE POP DUP2 ADD SWAP1 PUSH3 0x166C SWAP2 SWAP1 PUSH3 0x45B7 JUMP JUMPDEST POP JUMPDEST PUSH1 0x1 PUSH1 0x1 PUSH1 0xA0 SHL SUB DUP7 AND PUSH1 0x0 SWAP1 DUP2 MSTORE PUSH1 0x19 PUSH1 0x20 MSTORE PUSH1 0x40 DUP2 KECCAK256 DUP1 SLOAD DUP8 SWAP3 SWAP1 PUSH3 0x1698 SWAP1 DUP5 SWAP1 PUSH3 0x45D7 JUMP JUMPDEST SWAP1 SWAP2 SSTORE POP POP POP POP POP POP POP POP JUMP JUMPDEST PUSH1 0x4 SLOAD PUSH1 0x1 PUSH1 0xA0 SHL SWAP1 DIV PUSH1 0xFF AND ISZERO PUSH3 0x16D2 JUMPI PUSH1 0x40 MLOAD PUSH3 0x461BCD PUSH1 0xE5 SHL DUP2 MSTORE PUSH1 0x4 ADD PUSH3 0xFEC SWAP1 PUSH3 0x45ED JUMP JUMPDEST CALLER PUSH1 0x0 SWAP1 DUP2 MSTORE PUSH1 0x11 PUSH1 0x20 MSTORE PUSH1 0x40 SWAP1 KECCAK256 SLOAD PUSH1 0xFF AND PUSH3 0x1733 JUMPI PUSH1 0x40 MLOAD PUSH3 0x461BCD PUSH1 0xE5 SHL DUP2 MSTORE PUSH1 0x20 PUSH1 0x4 DUP3 ADD MSTORE PUSH1 0x1D PUSH1 0x24 DUP3 ADD MSTORE PUSH32 0x796F7520686176656E2774206A6F696E20616E7920636974796E6F6465000000 PUSH1 0x44 DUP3 ADD MSTORE PUSH1 0x64 ADD PUSH3 0xFEC JUMP JUMPDEST CALLER PUSH1 0x0 SWAP1 DUP2 MSTORE PUSH1 0x15 PUSH1 0x20 MSTORE PUSH1 0x40 SWAP1 KECCAK256 SLOAD DUP2 EQ PUSH3 0x1793 JUMPI PUSH1 0x40 MLOAD PUSH3 0x461BCD PUSH1 0xE5 SHL DUP2 MSTORE PUSH1 0x20 PUSH1 0x4 DUP3 ADD MSTORE PUSH1 0x18 PUSH1 0x24 DUP3 ADD MSTORE PUSH32 0x796F75206973206E6F7420636974796E6F646520757365720000000000000000 PUSH1 0x44 DUP3 ADD MSTORE PUSH1 0x64 ADD PUSH3 0xFEC JUMP JUMPDEST CALLER PUSH1 0x0 JUMPDEST PUSH1 0x0 DUP4 DUP2 MSTORE PUSH1 0x14 PUSH1 0x20 MSTORE PUSH1 0x40 SWAP1 KECCAK256 SLOAD DUP2 LT ISZERO PUSH3 0x18E8 JUMPI PUSH1 0x0 DUP4 DUP2 MSTORE PUSH1 0x14 PUSH1 0x20 MSTORE PUSH1 0x40 SWAP1 KECCAK256 DUP1 SLOAD PUSH1 0x1 PUSH1 0x1 PUSH1 0xA0 SHL SUB DUP5 AND SWAP2 SWAP1 DUP4 SWAP1 DUP2 LT PUSH3 0x17DD JUMPI PUSH3 0x17DD PUSH3 0x4616 JUMP JUMPDEST PUSH1 0x0 SWAP2 DUP3 MSTORE PUSH1 0x20 SWAP1 SWAP2 KECCAK256 ADD SLOAD PUSH1 0x1 PUSH1 0x1 PUSH1 0xA0 SHL SUB AND SUB PUSH3 0x18D3 JUMPI PUSH1 0x0 DUP4 DUP2 MSTORE PUSH1 0x14 PUSH1 0x20 MSTORE PUSH1 0x40 SWAP1 KECCAK256 DUP1 SLOAD PUSH3 0x1816 SWAP1 PUSH1 0x1 SWAP1 PUSH3 0x45A1 JUMP JUMPDEST DUP2 SLOAD DUP2 LT PUSH3 0x1829 JUMPI PUSH3 0x1829 PUSH3 0x4616 JUMP JUMPDEST PUSH1 0x0 SWAP2 DUP3 MSTORE PUSH1 0x20 DUP1 DUP4 KECCAK256 SWAP1 SWAP2 ADD SLOAD DUP6 DUP4 MSTORE PUSH1 0x14 SWAP1 SWAP2 MSTORE PUSH1 0x40 SWAP1 SWAP2 KECCAK256 DUP1 SLOAD PUSH1 0x1 PUSH1 0x1 PUSH1 0xA0 SHL SUB SWAP1 SWAP3 AND SWAP2 DUP4 SWAP1 DUP2 LT PUSH3 0x1865 JUMPI PUSH3 0x1865 PUSH3 0x4616 JUMP JUMPDEST PUSH1 0x0 SWAP2 DUP3 MSTORE PUSH1 0x20 DUP1 DUP4 KECCAK256 SWAP2 SWAP1 SWAP2 ADD DUP1 SLOAD PUSH1 0x1 PUSH1 0x1 PUSH1 0xA0 SHL SUB NOT AND PUSH1 0x1 PUSH1 0x1 PUSH1 0xA0 SHL SUB SWAP5 SWAP1 SWAP5 AND SWAP4 SWAP1 SWAP4 OR SWAP1 SWAP3 SSTORE DUP5 DUP2 MSTORE PUSH1 0x14 SWAP1 SWAP2 MSTORE PUSH1 0x40 SWAP1 KECCAK256 DUP1 SLOAD DUP1 PUSH3 0x18B0 JUMPI PUSH3 0x18B0 PUSH3 0x462C JUMP JUMPDEST PUSH1 0x0 DUP3 DUP2 MSTORE PUSH1 0x20 SWAP1 KECCAK256 DUP2 ADD PUSH1 0x0 NOT SWAP1 DUP2 ADD DUP1 SLOAD PUSH1 0x1 PUSH1 0x1 PUSH1 0xA0 SHL SUB NOT AND SWAP1 SSTORE ADD SWAP1 SSTORE JUMPDEST DUP1 PUSH3 0x18DF DUP2 PUSH3 0x4642 JUMP JUMPDEST SWAP2 POP POP PUSH3 0x1797 JUMP JUMPDEST POP CALLER PUSH1 0x0 DUP2 DUP2 MSTORE PUSH1 0x15 PUSH1 0x20 MSTORE PUSH1 0x40 SWAP1 KECCAK256 SLOAD PUSH3 0x1907 SWAP2 SWAP1 PUSH1 0x1 PUSH3 0x377F JUMP JUMPDEST POP POP CALLER PUSH1 0x0 SWAP1 DUP2 MSTORE PUSH1 0x11 PUSH1 0x20 MSTORE PUSH1 0x40 SWAP1 KECCAK256 DUP1 SLOAD PUSH1 0xFF NOT AND SWAP1 SSTORE JUMP JUMPDEST PUSH1 0x1F DUP2 DUP2 SLOAD DUP2 LT PUSH3 0x1933 JUMPI PUSH1 0x0 DUP1 REVERT JUMPDEST PUSH1 0x0 SWAP2 DUP3 MSTORE PUSH1 0x20 SWAP1 SWAP2 KECCAK256 PUSH1 0x8 SWAP1 SWAP2 MUL ADD DUP1 SLOAD PUSH1 0x1 DUP3 ADD DUP1 SLOAD SWAP2 SWAP4 POP SWAP1 PUSH3 0x10C1 SWAP1 PUSH3 0x4512 JUMP JUMPDEST PUSH1 0xA SLOAD PUSH1 0x0 SWAP1 PUSH1 0x1 PUSH1 0x1 PUSH1 0xA0 SHL SUB AND CALLER EQ DUP1 PUSH3 0x1981 JUMPI POP PUSH1 0xE SLOAD PUSH1 0x1 PUSH1 0x1 PUSH1 0xA0 SHL SUB AND CALLER EQ JUMPDEST PUSH3 0x19C8 JUMPI PUSH1 0x40 MLOAD PUSH3 0x461BCD PUSH1 0xE5 SHL DUP2 MSTORE PUSH1 0x20 PUSH1 0x4 DUP3 ADD MSTORE PUSH1 0x16 PUSH1 0x24 DUP3 ADD MSTORE PUSH22 0x10DA5D1E539BD9194E881A5B9D985B1A590818D85B1B PUSH1 0x52 SHL PUSH1 0x44 DUP3 ADD MSTORE PUSH1 0x64 ADD PUSH3 0xFEC JUMP JUMPDEST POP PUSH1 0x1 PUSH1 0x1 PUSH1 0xA0 SHL SUB SWAP1 DUP2 AND PUSH1 0x0 SWAP1 DUP2 MSTORE PUSH1 0x15 PUSH1 0x20 SWAP1 DUP2 MSTORE PUSH1 0x40 DUP1 DUP4 KECCAK256 SLOAD DUP4 MSTORE PUSH1 0x1C SWAP1 SWAP2 MSTORE SWAP1 KECCAK256 SLOAD AND SWAP1 JUMP JUMPDEST PUSH1 0x60 DUP2 MLOAD DUP4 MLOAD EQ PUSH3 0x1A5B JUMPI PUSH1 0x40 MLOAD PUSH3 0x461BCD PUSH1 0xE5 SHL DUP2 MSTORE PUSH1 0x20 PUSH1 0x4 DUP3 ADD MSTORE PUSH1 0x29 PUSH1 0x24 DUP3 ADD MSTORE PUSH32 0x455243313135353A206163636F756E747320616E6420696473206C656E677468 PUSH1 0x44 DUP3 ADD MSTORE PUSH9 0x40DAD2E6DAC2E8C6D PUSH1 0xBB SHL PUSH1 0x64 DUP3 ADD MSTORE PUSH1 0x84 ADD PUSH3 0xFEC JUMP JUMPDEST PUSH1 0x0 DUP4 MLOAD PUSH8 0xFFFFFFFFFFFFFFFF DUP2 GT ISZERO PUSH3 0x1A7A JUMPI PUSH3 0x1A7A PUSH3 0x3FC4 JUMP JUMPDEST PUSH1 0x40 MLOAD SWAP1 DUP1 DUP3 MSTORE DUP1 PUSH1 0x20 MUL PUSH1 0x20 ADD DUP3 ADD PUSH1 0x40 MSTORE DUP1 ISZERO PUSH3 0x1AA4 JUMPI DUP2 PUSH1 0x20 ADD PUSH1 0x20 DUP3 MUL DUP1 CALLDATASIZE DUP4 CALLDATACOPY ADD SWAP1 POP JUMPDEST POP SWAP1 POP PUSH1 0x0 JUMPDEST DUP5 MLOAD DUP2 LT ISZERO PUSH3 0x1B2B JUMPI PUSH3 0x1AF8 DUP6 DUP3 DUP2 MLOAD DUP2 LT PUSH3 0x1ACD JUMPI PUSH3 0x1ACD PUSH3 0x4616 JUMP JUMPDEST PUSH1 0x20 MUL PUSH1 0x20 ADD ADD MLOAD DUP6 DUP4 DUP2 MLOAD DUP2 LT PUSH3 0x1AEA JUMPI PUSH3 0x1AEA PUSH3 0x4616 JUMP JUMPDEST PUSH1 0x20 MUL PUSH1 0x20 ADD ADD MLOAD PUSH3 0xF84 JUMP JUMPDEST DUP3 DUP3 DUP2 MLOAD DUP2 LT PUSH3 0x1B0D JUMPI PUSH3 0x1B0D PUSH3 0x4616 JUMP JUMPDEST PUSH1 0x20 SWAP1 DUP2 MUL SWAP2 SWAP1 SWAP2 ADD ADD MSTORE PUSH3 0x1B23 DUP2 PUSH3 0x4642 JUMP JUMPDEST SWAP1 POP PUSH3 0x1AAA JUMP JUMPDEST POP SWAP4 SWAP3 POP POP POP JUMP JUMPDEST PUSH3 0x1B3D PUSH3 0x3453 JUMP JUMPDEST PUSH1 0x7 SSTORE JUMP JUMPDEST PUSH1 0x0 DUP1 PUSH1 0x0 JUMPDEST PUSH1 0x0 DUP5 DUP2 MSTORE PUSH1 0x14 PUSH1 0x20 MSTORE PUSH1 0x40 SWAP1 KECCAK256 SLOAD DUP2 LT ISZERO PUSH3 0x1C32 JUMPI PUSH1 0xC SLOAD PUSH1 0x0 DUP6 DUP2 MSTORE PUSH1 0x14 PUSH1 0x20 MSTORE PUSH1 0x40 SWAP1 KECCAK256 DUP1 SLOAD PUSH1 0x1 PUSH1 0x1 PUSH1 0xA0 SHL SUB SWAP1 SWAP3 AND SWAP2 PUSH4 0x14AB313 SWAP2 SWAP1 DUP5 SWAP1 DUP2 LT PUSH3 0x1B98 JUMPI PUSH3 0x1B98 PUSH3 0x4616 JUMP JUMPDEST PUSH1 0x0 SWAP2 DUP3 MSTORE PUSH1 0x20 SWAP1 SWAP2 KECCAK256 ADD SLOAD PUSH1 0x40 MLOAD PUSH1 0xE0 DUP4 SWAP1 SHL PUSH1 0x1 PUSH1 0x1 PUSH1 0xE0 SHL SUB NOT AND DUP2 MSTORE PUSH1 0x1 PUSH1 0x1 PUSH1 0xA0 SHL SUB SWAP1 SWAP2 AND PUSH1 0x4 DUP3 ADD MSTORE PUSH1 0x24 ADD PUSH1 0x20 PUSH1 0x40 MLOAD DUP1 DUP4 SUB DUP2 DUP7 GAS STATICCALL ISZERO DUP1 ISZERO PUSH3 0x1BE9 JUMPI RETURNDATASIZE PUSH1 0x0 DUP1 RETURNDATACOPY RETURNDATASIZE PUSH1 0x0 REVERT JUMPDEST POP POP POP POP PUSH1 0x40 MLOAD RETURNDATASIZE PUSH1 0x1F NOT PUSH1 0x1F DUP3 ADD AND DUP3 ADD DUP1 PUSH1 0x40 MSTORE POP DUP2 ADD SWAP1 PUSH3 0x1C0F SWAP2 SWAP1 PUSH3 0x465E JUMP JUMPDEST PUSH3 0x1C1B SWAP1 DUP4 PUSH3 0x45D7 JUMP JUMPDEST SWAP2 POP DUP1 PUSH3 0x1C29 DUP2 PUSH3 0x4642 JUMP JUMPDEST SWAP2 POP POP PUSH3 0x1B48 JUMP JUMPDEST POP SWAP3 SWAP2 POP POP JUMP JUMPDEST PUSH3 0x1C43 PUSH3 0x3453 JUMP JUMPDEST PUSH3 0x1C4F PUSH1 0x0 PUSH3 0x3908 JUMP JUMPDEST JUMP JUMPDEST PUSH3 0x1C5B PUSH3 0x3453 JUMP JUMPDEST PUSH1 0x9 DUP1 SLOAD PUSH1 0x1 PUSH1 0x1 PUSH1 0xA0 SHL SUB NOT AND PUSH1 0x1 PUSH1 0x1 PUSH1 0xA0 SHL SUB SWAP3 SWAP1 SWAP3 AND SWAP2 SWAP1 SWAP2 OR SWAP1 SSTORE JUMP JUMPDEST PUSH3 0x1C87 PUSH3 0x3453 JUMP JUMPDEST PUSH1 0x4 DUP1 SLOAD PUSH1 0x40 MLOAD PUSH4 0x70A08231 PUSH1 0xE0 SHL DUP2 MSTORE ADDRESS SWAP3 DUP2 ADD SWAP3 SWAP1 SWAP3 MSTORE PUSH1 0x1 PUSH1 0x1 PUSH1 0xA0 SHL SUB AND SWAP1 PUSH4 0xA9059CBB SWAP1 CALLER SWAP1 DUP4 SWAP1 PUSH4 0x70A08231 SWAP1 PUSH1 0x24 ADD PUSH1 0x20 PUSH1 0x40 MLOAD DUP1 DUP4 SUB DUP2 DUP7 GAS STATICCALL ISZERO DUP1 ISZERO PUSH3 0x1CDB JUMPI RETURNDATASIZE PUSH1 0x0 DUP1 RETURNDATACOPY RETURNDATASIZE PUSH1 0x0 REVERT JUMPDEST POP POP POP POP PUSH1 0x40 MLOAD RETURNDATASIZE PUSH1 0x1F NOT PUSH1 0x1F DUP3 ADD AND DUP3 ADD DUP1 PUSH1 0x40 MSTORE POP DUP2 ADD SWAP1 PUSH3 0x1D01 SWAP2 SWAP1 PUSH3 0x465E JUMP JUMPDEST PUSH1 0x40 MLOAD PUSH1 0x1 PUSH1 0x1 PUSH1 0xE0 SHL SUB NOT PUSH1 0xE0 DUP6 SWAP1 SHL AND DUP2 MSTORE PUSH1 0x1 PUSH1 0x1 PUSH1 0xA0 SHL SUB SWAP1 SWAP3 AND PUSH1 0x4 DUP4 ADD MSTORE PUSH1 0x24 DUP3 ADD MSTORE PUSH1 0x44 ADD PUSH1 0x20 PUSH1 0x40 MLOAD DUP1 DUP4 SUB DUP2 PUSH1 0x0 DUP8 GAS CALL ISZERO DUP1 ISZERO PUSH3 0x1D4D JUMPI RETURNDATASIZE PUSH1 0x0 DUP1 RETURNDATACOPY RETURNDATASIZE PUSH1 0x0 REVERT JUMPDEST POP POP POP POP PUSH1 0x40 MLOAD RETURNDATASIZE PUSH1 0x1F NOT PUSH1 0x1F DUP3 ADD AND DUP3 ADD DUP1 PUSH1 0x40 MSTORE POP DUP2 ADD SWAP1 PUSH3 0x1D73 SWAP2 SWAP1 PUSH3 0x45B7 JUMP JUMPDEST POP JUMP JUMPDEST PUSH1 0x4 SLOAD PUSH1 0x1 PUSH1 0xA0 SHL SWAP1 DIV PUSH1 0xFF AND ISZERO PUSH3 0x1DCD JUMPI PUSH1 0x40 MLOAD PUSH3 0x461BCD PUSH1 0xE5 SHL DUP2 MSTORE PUSH1 0x20 PUSH1 0x4 DUP3 ADD MSTORE PUSH1 0x18 PUSH1 0x24 DUP3 ADD MSTORE PUSH24 0x436F6E7472616374207374617475732069732066616C7365 PUSH1 0x40 SHL PUSH1 0x44 DUP3 ADD MSTORE PUSH1 0x64 ADD PUSH3 0xFEC JUMP JUMPDEST PUSH1 0xB SLOAD PUSH1 0x40 MLOAD PUSH4 0x1238E331 PUSH1 0xE3 SHL DUP2 MSTORE CALLER PUSH1 0x4 DUP3 ADD MSTORE PUSH1 0x1 PUSH1 0x1 PUSH1 0xA0 SHL SUB SWAP1 SWAP2 AND SWAP1 PUSH4 0x91C71988 SWAP1 PUSH1 0x24 ADD PUSH1 0x20 PUSH1 0x40 MLOAD DUP1 DUP4 SUB DUP2 DUP7 GAS STATICCALL ISZERO DUP1 ISZERO PUSH3 0x1E16 JUMPI RETURNDATASIZE PUSH1 0x0 DUP1 RETURNDATACOPY RETURNDATASIZE PUSH1 0x0 REVERT JUMPDEST POP POP POP POP PUSH1 0x40 MLOAD RETURNDATASIZE PUSH1 0x1F NOT PUSH1 0x1F DUP3 ADD AND DUP3 ADD DUP1 PUSH1 0x40 MSTORE POP DUP2 ADD SWAP1 PUSH3 0x1E3C SWAP2 SWAP1 PUSH3 0x45B7 JUMP JUMPDEST PUSH3 0x1EA5 JUMPI PUSH1 0x40 MLOAD PUSH3 0x461BCD PUSH1 0xE5 SHL DUP2 MSTORE PUSH1 0x20 PUSH1 0x4 DUP3 ADD MSTORE PUSH1 0x32 PUSH1 0x24 DUP3 ADD MSTORE PUSH32 0x596F7520646F6E27742068617665204649442C20706C65617365206275726E20 PUSH1 0x44 DUP3 ADD MSTORE PUSH18 0x666972657365656420746F20637265617465 PUSH1 0x70 SHL PUSH1 0x64 DUP3 ADD MSTORE PUSH1 0x84 ADD PUSH3 0xFEC JUMP JUMPDEST CALLER PUSH1 0x0 SWAP1 DUP2 MSTORE PUSH1 0x13 PUSH1 0x20 MSTORE PUSH1 0x40 SWAP1 KECCAK256 SLOAD PUSH1 0xFF AND PUSH3 0x1EFE JUMPI PUSH1 0x40 MLOAD PUSH3 0x461BCD PUSH1 0xE5 SHL DUP2 MSTORE PUSH1 0x20 PUSH1 0x4 DUP3 ADD MSTORE PUSH1 0x15 PUSH1 0x24 DUP3 ADD MSTORE PUSH21 0x2CB7BA9030B932903737BA10309031B932B0BA37B9 PUSH1 0x59 SHL PUSH1 0x44 DUP3 ADD MSTORE PUSH1 0x64 ADD PUSH3 0xFEC JUMP JUMPDEST CALLER PUSH1 0x0 SWAP1 DUP2 MSTORE PUSH1 0x15 PUSH1 0x20 MSTORE PUSH1 0x40 DUP1 DUP3 KECCAK256 SLOAD PUSH1 0x1 PUSH1 0x1 PUSH1 0xA0 SHL SUB DUP5 AND DUP4 MSTORE SWAP2 KECCAK256 SLOAD DUP2 EQ PUSH3 0x1F84 JUMPI PUSH1 0x40 MLOAD PUSH3 0x461BCD PUSH1 0xE5 SHL DUP2 MSTORE PUSH1 0x20 PUSH1 0x4 DUP3 ADD MSTORE PUSH1 0x2D PUSH1 0x24 DUP3 ADD MSTORE PUSH32 0x546865206164647265737320646F6573206E6F742062656C6F6E6720746F2079 PUSH1 0x44 DUP3 ADD MSTORE PUSH13 0x6F75722063697479206E6F6465 PUSH1 0x98 SHL PUSH1 0x64 DUP3 ADD MSTORE PUSH1 0x84 ADD PUSH3 0xFEC JUMP JUMPDEST PUSH1 0x0 DUP2 DUP2 MSTORE PUSH1 0x1A PUSH1 0x20 SWAP1 DUP2 MSTORE PUSH1 0x40 DUP1 DUP4 KECCAK256 DUP1 SLOAD PUSH1 0x1 PUSH1 0x1 PUSH1 0xA0 SHL SUB DUP8 DUP2 AND PUSH1 0x1 PUSH1 0x1 PUSH1 0xA0 SHL SUB NOT SWAP3 DUP4 AND DUP2 OR SWAP1 SWAP4 SSTORE DUP3 DUP7 MSTORE PUSH1 0x13 DUP6 MSTORE DUP4 DUP7 KECCAK256 DUP1 SLOAD PUSH1 0xFF NOT AND PUSH1 0x1 OR SWAP1 SSTORE CALLER DUP1 DUP8 MSTORE PUSH1 0x1B SWAP1 SWAP6 MSTORE DUP4 DUP7 KECCAK256 DUP1 SLOAD DUP5 DUP9 MSTORE DUP6 DUP9 KECCAK256 DUP1 SLOAD SWAP1 SWAP5 AND SWAP1 DUP4 AND OR SWAP1 SWAP3 SSTORE SWAP5 DUP5 SWAP1 MSTORE SLOAD SWAP2 MLOAD PUSH4 0x18B3C67B PUSH1 0xE1 SHL DUP2 MSTORE PUSH1 0x4 DUP2 ADD SWAP4 SWAP1 SWAP4 MSTORE PUSH1 0x24 DUP4 ADD MSTORE SWAP1 SWAP2 AND SWAP1 PUSH4 0x31678CF6 SWAP1 PUSH1 0x44 ADD PUSH1 0x0 PUSH1 0x40 MLOAD DUP1 DUP4 SUB DUP2 PUSH1 0x0 DUP8 DUP1 EXTCODESIZE ISZERO DUP1 ISZERO PUSH3 0x202E JUMPI PUSH1 0x0 DUP1 REVERT JUMPDEST POP GAS CALL ISZERO DUP1 ISZERO PUSH3 0x2043 JUMPI RETURNDATASIZE PUSH1 0x0 DUP1 RETURNDATACOPY RETURNDATASIZE PUSH1 0x0 REVERT JUMPDEST POP POP POP POP POP POP JUMP JUMPDEST PUSH3 0x2055 PUSH3 0x3453 JUMP JUMPDEST PUSH1 0xB DUP1 SLOAD PUSH1 0x1 PUSH1 0x1 PUSH1 0xA0 SHL SUB NOT AND PUSH1 0x1 PUSH1 0x1 PUSH1 0xA0 SHL SUB SWAP3 SWAP1 SWAP3 AND SWAP2 SWAP1 SWAP2 OR SWAP1 SSTORE JUMP JUMPDEST PUSH1 0x4 SLOAD PUSH1 0x1 PUSH1 0xA0 SHL SWAP1 DIV PUSH1 0xFF AND ISZERO PUSH3 0x20CA JUMPI PUSH1 0x40 MLOAD PUSH3 0x461BCD PUSH1 0xE5 SHL DUP2 MSTORE PUSH1 0x20 PUSH1 0x4 DUP3 ADD MSTORE PUSH1 0x14 PUSH1 0x24 DUP3 ADD MSTORE PUSH20 0x436F6E747261637420697320696E616374697665 PUSH1 0x60 SHL PUSH1 0x44 DUP3 ADD MSTORE PUSH1 0x64 ADD PUSH3 0xFEC JUMP JUMPDEST CALLER PUSH1 0x0 SWAP1 DUP2 MSTORE PUSH1 0x13 PUSH1 0x20 MSTORE PUSH1 0x40 SWAP1 KECCAK256 SLOAD PUSH1 0xFF AND PUSH3 0x2123 JUMPI PUSH1 0x40 MLOAD PUSH3 0x461BCD PUSH1 0xE5 SHL DUP2 MSTORE PUSH1 0x20 PUSH1 0x4 DUP3 ADD MSTORE PUSH1 0x15 PUSH1 0x24 DUP3 ADD MSTORE PUSH21 0x2CB7BA9030B932903737BA10309031B932B0BA37B9 PUSH1 0x59 SHL PUSH1 0x44 DUP3 ADD MSTORE PUSH1 0x64 ADD PUSH3 0xFEC JUMP JUMPDEST CALLER PUSH1 0x0 SWAP1 DUP2 MSTORE PUSH1 0x15 PUSH1 0x20 SWAP1 DUP2 MSTORE PUSH1 0x40 DUP1 DUP4 KECCAK256 SLOAD DUP4 MSTORE PUSH1 0x1A SWAP1 SWAP2 MSTORE SWAP1 KECCAK256 SLOAD PUSH1 0x1 PUSH1 0x1 PUSH1 0xA0 SHL SUB AND PUSH3 0x2197 JUMPI PUSH1 0x40 MLOAD PUSH3 0x461BCD PUSH1 0xE5 SHL DUP2 MSTORE PUSH1 0x20 PUSH1 0x4 DUP3 ADD MSTORE PUSH1 0x18 PUSH1 0x24 DUP3 ADD MSTORE PUSH32 0x41646D696E206164647265737320697320696E76616C69640000000000000000 PUSH1 0x44 DUP3 ADD MSTORE PUSH1 0x64 ADD PUSH3 0xFEC JUMP JUMPDEST CALLER PUSH1 0x0 DUP2 DUP2 MSTORE PUSH1 0x15 PUSH1 0x20 SWAP1 DUP2 MSTORE PUSH1 0x40 DUP1 DUP4 KECCAK256 SLOAD DUP1 DUP5 MSTORE PUSH1 0x1A SWAP1 SWAP3 MSTORE SWAP1 SWAP2 KECCAK256 SLOAD SWAP1 SWAP2 PUSH1 0x1 PUSH1 0x1 PUSH1 0xA0 SHL SUB SWAP1 SWAP2 AND EQ PUSH3 0x220B JUMPI PUSH1 0x40 MLOAD PUSH3 0x461BCD PUSH1 0xE5 SHL DUP2 MSTORE PUSH1 0x20 PUSH1 0x4 DUP3 ADD MSTORE PUSH1 0x16 PUSH1 0x24 DUP3 ADD MSTORE PUSH22 0x2CB7BA9030B932903737BA103737B2329030B236B4B7 PUSH1 0x51 SHL PUSH1 0x44 DUP3 ADD MSTORE PUSH1 0x64 ADD PUSH3 0xFEC JUMP JUMPDEST PUSH3 0x2219 DUP3 DUP3 PUSH1 0x1 PUSH3 0x377F JUMP JUMPDEST POP PUSH1 0x1 PUSH1 0x1 PUSH1 0xA0 SHL SUB AND PUSH1 0x0 SWAP1 DUP2 MSTORE PUSH1 0x11 PUSH1 0x20 MSTORE PUSH1 0x40 SWAP1 KECCAK256 DUP1 SLOAD PUSH1 0xFF NOT AND SWAP1 SSTORE JUMP JUMPDEST PUSH1 0x4 SLOAD PUSH1 0x1 PUSH1 0xA0 SHL SWAP1 DIV PUSH1 0xFF AND ISZERO PUSH3 0x2268 JUMPI PUSH1 0x40 MLOAD PUSH3 0x461BCD PUSH1 0xE5 SHL DUP2 MSTORE PUSH1 0x4 ADD PUSH3 0xFEC SWAP1 PUSH3 0x45ED JUMP JUMPDEST PUSH1 0x8 SLOAD PUSH3 0x227F SWAP1 PUSH8 0xDE0B6B3A7640000 PUSH3 0x4564 JUMP JUMPDEST CALLER PUSH1 0x0 SWAP1 DUP2 MSTORE PUSH1 0x15 PUSH1 0x20 MSTORE PUSH1 0x40 SWAP1 KECCAK256 SLOAD PUSH3 0x229A SWAP1 PUSH3 0x1B42 JUMP JUMPDEST LT PUSH3 0x1C4F JUMPI CALLER PUSH1 0x0 SWAP1 DUP2 MSTORE PUSH1 0x15 PUSH1 0x20 SWAP1 DUP2 MSTORE PUSH1 0x40 DUP1 DUP4 KECCAK256 SLOAD DUP4 MSTORE PUSH1 0x12 SWAP1 SWAP2 MSTORE SWAP1 KECCAK256 DUP1 SLOAD PUSH1 0xFF NOT AND PUSH1 0x1 OR SWAP1 SSTORE JUMP JUMPDEST PUSH3 0x22D6 CALLER DUP4 DUP4 PUSH3 0x395A JUMP JUMPDEST POP POP JUMP JUMPDEST PUSH1 0x4 SLOAD PUSH1 0x1 PUSH1 0xA0 SHL SWAP1 DIV PUSH1 0xFF AND ISZERO PUSH3 0x2307 JUMPI PUSH1 0x40 MLOAD PUSH3 0x461BCD PUSH1 0xE5 SHL DUP2 MSTORE PUSH1 0x4 ADD PUSH3 0xFEC SWAP1 PUSH3 0x45ED JUMP JUMPDEST PUSH1 0xB SLOAD PUSH1 0x40 MLOAD PUSH4 0x1238E331 PUSH1 0xE3 SHL DUP2 MSTORE CALLER PUSH1 0x4 DUP3 ADD MSTORE PUSH1 0x1 PUSH1 0x1 PUSH1 0xA0 SHL SUB SWAP1 SWAP2 AND SWAP1 PUSH4 0x91C71988 SWAP1 PUSH1 0x24 ADD PUSH1 0x20 PUSH1 0x40 MLOAD DUP1 DUP4 SUB DUP2 DUP7 GAS STATICCALL ISZERO DUP1 ISZERO PUSH3 0x2350 JUMPI RETURNDATASIZE PUSH1 0x0 DUP1 RETURNDATACOPY RETURNDATASIZE PUSH1 0x0 REVERT JUMPDEST POP POP POP POP PUSH1 0x40 MLOAD RETURNDATASIZE PUSH1 0x1F NOT PUSH1 0x1F DUP3 ADD AND DUP3 ADD DUP1 PUSH1 0x40 MSTORE POP DUP2 ADD SWAP1 PUSH3 0x2376 SWAP2 SWAP1 PUSH3 0x45B7 JUMP JUMPDEST DUP1 PUSH3 0x2391 JUMPI POP CALLER PUSH1 0x0 SWAP1 DUP2 MSTORE PUSH1 0x10 PUSH1 0x20 MSTORE PUSH1 0x40 SWAP1 KECCAK256 SLOAD PUSH1 0xFF AND JUMPDEST PUSH3 0x23F3 JUMPI PUSH1 0x40 MLOAD PUSH3 0x461BCD PUSH1 0xE5 SHL DUP2 MSTORE PUSH1 0x20 PUSH1 0x4 DUP3 ADD MSTORE PUSH1 0x2B PUSH1 0x24 DUP3 ADD MSTORE PUSH32 0x796F7520686176656E2774204649442C706C7A206275726E2066697265736565 PUSH1 0x44 DUP3 ADD MSTORE PUSH11 0x6420746F20637265617465 PUSH1 0xA8 SHL PUSH1 0x64 DUP3 ADD MSTORE PUSH1 0x84 ADD PUSH3 0xFEC JUMP JUMPDEST CALLER PUSH1 0x0 SWAP1 DUP2 MSTORE PUSH1 0x13 PUSH1 0x20 MSTORE PUSH1 0x40 SWAP1 KECCAK256 SLOAD PUSH1 0xFF AND ISZERO PUSH3 0x2455 JUMPI PUSH1 0x40 MLOAD PUSH3 0x461BCD PUSH1 0xE5 SHL DUP2 MSTORE PUSH1 0x20 PUSH1 0x4 DUP3 ADD MSTORE PUSH1 0x19 PUSH1 0x24 DUP3 ADD MSTORE PUSH32 0x796F752061726520616C726561647920612063726561746F7200000000000000 PUSH1 0x44 DUP3 ADD MSTORE PUSH1 0x64 ADD PUSH3 0xFEC JUMP JUMPDEST CALLER PUSH1 0x0 SWAP1 DUP2 MSTORE PUSH1 0x11 PUSH1 0x20 MSTORE PUSH1 0x40 SWAP1 KECCAK256 SLOAD PUSH1 0xFF AND ISZERO PUSH3 0x24B7 JUMPI PUSH1 0x40 MLOAD PUSH3 0x461BCD PUSH1 0xE5 SHL DUP2 MSTORE PUSH1 0x20 PUSH1 0x4 DUP3 ADD MSTORE PUSH1 0x1F PUSH1 0x24 DUP3 ADD MSTORE PUSH32 0x796F752061726520616C7265616479206A6F696E206120636974794E6F646500 PUSH1 0x44 DUP3 ADD MSTORE PUSH1 0x64 ADD PUSH3 0xFEC JUMP JUMPDEST PUSH1 0x6 SLOAD DUP2 LT PUSH3 0x24FC JUMPI PUSH1 0x40 MLOAD PUSH3 0x461BCD PUSH1 0xE5 SHL DUP2 MSTORE PUSH1 0x20 PUSH1 0x4 DUP3 ADD MSTORE PUSH1 0xF PUSH1 0x24 DUP3 ADD MSTORE PUSH15 0x3CB7BA9034B7383ABA1032B93937B9 PUSH1 0x89 SHL PUSH1 0x44 DUP3 ADD MSTORE PUSH1 0x64 ADD PUSH3 0xFEC JUMP JUMPDEST PUSH1 0x0 DUP2 DUP2 MSTORE PUSH1 0x14 PUSH1 0x20 SWAP1 DUP2 MSTORE PUSH1 0x40 DUP1 DUP4 KECCAK256 DUP1 SLOAD PUSH1 0x1 DUP2 DUP2 ADD DUP4 SSTORE SWAP2 DUP6 MSTORE DUP4 DUP6 KECCAK256 ADD DUP1 SLOAD PUSH1 0x1 PUSH1 0x1 PUSH1 0xA0 SHL SUB NOT AND CALLER SWAP1 DUP2 OR SWAP1 SWAP2 SSTORE DUP5 MSTORE PUSH1 0x15 DUP4 MSTORE DUP2 DUP5 KECCAK256 DUP6 SWAP1 SSTORE DUP5 DUP5 MSTORE PUSH1 0x1A DUP4 MSTORE DUP2 DUP5 KECCAK256 SLOAD PUSH1 0x1 PUSH1 0x1 PUSH1 0xA0 SHL SUB AND DUP5 MSTORE PUSH1 0x17 SWAP1 SWAP3 MSTORE DUP3 KECCAK256 ADD DUP1 SLOAD PUSH3 0x2567 SWAP1 PUSH3 0x4512 JUMP JUMPDEST DUP1 PUSH1 0x1F ADD PUSH1 0x20 DUP1 SWAP2 DIV MUL PUSH1 0x20 ADD PUSH1 0x40 MLOAD SWAP1 DUP2 ADD PUSH1 0x40 MSTORE DUP1 SWAP3 SWAP2 SWAP1 DUP2 DUP2 MSTORE PUSH1 0x20 ADD DUP3 DUP1 SLOAD PUSH3 0x2595 SWAP1 PUSH3 0x4512 JUMP JUMPDEST DUP1 ISZERO PUSH3 0x25E6 JUMPI DUP1 PUSH1 0x1F LT PUSH3 0x25BA JUMPI PUSH2 0x100 DUP1 DUP4 SLOAD DIV MUL DUP4 MSTORE SWAP2 PUSH1 0x20 ADD SWAP2 PUSH3 0x25E6 JUMP JUMPDEST DUP3 ADD SWAP2 SWAP1 PUSH1 0x0 MSTORE PUSH1 0x20 PUSH1 0x0 KECCAK256 SWAP1 JUMPDEST DUP2 SLOAD DUP2 MSTORE SWAP1 PUSH1 0x1 ADD SWAP1 PUSH1 0x20 ADD DUP1 DUP4 GT PUSH3 0x25C8 JUMPI DUP3 SWAP1 SUB PUSH1 0x1F AND DUP3 ADD SWAP2 JUMPDEST POP POP POP PUSH1 0x0 DUP6 DUP2 MSTORE PUSH1 0x1A PUSH1 0x20 SWAP1 DUP2 MSTORE PUSH1 0x40 DUP1 DUP4 KECCAK256 SLOAD PUSH1 0x1 PUSH1 0x1 PUSH1 0xA0 SHL SUB SWAP1 DUP2 AND DUP1 DUP6 MSTORE PUSH1 0x17 DUP5 MSTORE DUP3 DUP6 KECCAK256 PUSH1 0x3 ADD SLOAD PUSH1 0x1B DUP6 MSTORE DUP4 DUP7 KECCAK256 SLOAD DUP5 MLOAD PUSH2 0x100 DUP2 ADD DUP7 MSTORE DUP13 DUP2 MSTORE DUP1 DUP8 ADD DUP12 SWAP1 MSTORE DUP1 DUP7 ADD DUP5 SWAP1 MSTORE PUSH1 0x60 DUP2 ADD DUP4 SWAP1 MSTORE TIMESTAMP PUSH1 0x80 DUP3 ADD MSTORE SWAP4 AND PUSH1 0xA0 DUP5 ADD DUP2 SWAP1 MSTORE DUP12 DUP8 MSTORE PUSH1 0x14 DUP7 MSTORE DUP5 DUP8 KECCAK256 SLOAD PUSH1 0xC0 DUP6 ADD MSTORE DUP12 DUP8 MSTORE PUSH1 0x1D SWAP1 SWAP6 MSTORE SWAP3 DUP6 KECCAK256 DUP1 SLOAD SWAP9 SWAP10 POP SWAP3 SWAP8 SWAP1 SWAP7 POP SWAP3 SWAP5 POP SWAP2 PUSH1 0xE0 DUP4 ADD SWAP2 SWAP1 PUSH3 0x2684 SWAP1 PUSH3 0x4512 JUMP JUMPDEST DUP1 PUSH1 0x1F ADD PUSH1 0x20 DUP1 SWAP2 DIV MUL PUSH1 0x20 ADD PUSH1 0x40 MLOAD SWAP1 DUP2 ADD PUSH1 0x40 MSTORE DUP1 SWAP3 SWAP2 SWAP1 DUP2 DUP2 MSTORE PUSH1 0x20 ADD DUP3 DUP1 SLOAD PUSH3 0x26B2 SWAP1 PUSH3 0x4512 JUMP JUMPDEST DUP1 ISZERO PUSH3 0x2703 JUMPI DUP1 PUSH1 0x1F LT PUSH3 0x26D7 JUMPI PUSH2 0x100 DUP1 DUP4 SLOAD DIV MUL DUP4 MSTORE SWAP2 PUSH1 0x20 ADD SWAP2 PUSH3 0x2703 JUMP JUMPDEST DUP3 ADD SWAP2 SWAP1 PUSH1 0x0 MSTORE PUSH1 0x20 PUSH1 0x0 KECCAK256 SWAP1 JUMPDEST DUP2 SLOAD DUP2 MSTORE SWAP1 PUSH1 0x1 ADD SWAP1 PUSH1 0x20 ADD DUP1 DUP4 GT PUSH3 0x26E5 JUMPI DUP3 SWAP1 SUB PUSH1 0x1F AND DUP3 ADD SWAP2 JUMPDEST POP POP POP SWAP2 SWAP1 SWAP3 MSTORE POP POP PUSH1 0x0 DUP8 DUP2 MSTORE PUSH1 0x14 PUSH1 0x20 SWAP1 DUP2 MSTORE PUSH1 0x40 DUP1 DUP4 KECCAK256 SLOAD PUSH1 0x1 PUSH1 0x1 PUSH1 0xA0 SHL SUB DUP9 AND DUP5 MSTORE PUSH1 0x17 DUP4 MSTORE SWAP3 DUP2 SWAP1 KECCAK256 PUSH1 0x6 ADD SWAP3 SWAP1 SWAP3 SSTORE DUP2 MLOAD DUP1 DUP4 ADD SWAP1 SWAP3 MSTORE PUSH1 0x4 DUP3 MSTORE PUSH4 0x1D195CDD PUSH1 0xE2 SHL SWAP1 DUP3 ADD MSTORE SWAP1 SWAP2 POP PUSH3 0x2766 SWAP1 CALLER SWAP1 DUP9 SWAP1 PUSH1 0x1 SWAP1 PUSH3 0x3A3C JUMP JUMPDEST CALLER PUSH1 0x0 SWAP1 DUP2 MSTORE PUSH1 0x17 PUSH1 0x20 SWAP1 DUP2 MSTORE PUSH1 0x40 SWAP1 SWAP2 KECCAK256 DUP3 MLOAD DUP2 SSTORE SWAP1 DUP3 ADD MLOAD DUP3 SWAP2 SWAP1 PUSH1 0x1 DUP3 ADD SWAP1 PUSH3 0x2794 SWAP1 DUP3 PUSH3 0x46C7 JUMP JUMPDEST POP PUSH1 0x40 DUP3 ADD MLOAD PUSH1 0x2 DUP3 ADD DUP1 SLOAD PUSH1 0x1 PUSH1 0x1 PUSH1 0xA0 SHL SUB SWAP3 DUP4 AND PUSH1 0x1 PUSH1 0x1 PUSH1 0xA0 SHL SUB NOT SWAP2 DUP3 AND OR SWAP1 SWAP2 SSTORE PUSH1 0x60 DUP5 ADD MLOAD PUSH1 0x3 DUP5 ADD SSTORE PUSH1 0x80 DUP5 ADD MLOAD PUSH1 0x4 DUP5 ADD SSTORE PUSH1 0xA0 DUP5 ADD MLOAD PUSH1 0x5 DUP5 ADD DUP1 SLOAD SWAP2 SWAP1 SWAP4 AND SWAP2 AND OR SWAP1 SSTORE PUSH1 0xC0 DUP3 ADD MLOAD PUSH1 0x6 DUP3 ADD SSTORE PUSH1 0xE0 DUP3 ADD MLOAD PUSH1 0x7 DUP3 ADD SWAP1 PUSH3 0x2803 SWAP1 DUP3 PUSH3 0x46C7 JUMP JUMPDEST POP POP CALLER PUSH1 0x0 SWAP1 DUP2 MSTORE PUSH1 0x11 PUSH1 0x20 MSTORE PUSH1 0x40 SWAP1 KECCAK256 DUP1 SLOAD PUSH1 0xFF NOT AND PUSH1 0x1 OR SWAP1 SSTORE POP POP POP POP POP POP POP JUMP JUMPDEST PUSH3 0x2832 PUSH3 0x3453 JUMP JUMPDEST PUSH1 0xE DUP1 SLOAD PUSH1 0x1 PUSH1 0x1 PUSH1 0xA0 SHL SUB NOT AND PUSH1 0x1 PUSH1 0x1 PUSH1 0xA0 SHL SUB SWAP3 SWAP1 SWAP3 AND SWAP2 SWAP1 SWAP2 OR SWAP1 SSTORE JUMP JUMPDEST PUSH1 0x9 SLOAD PUSH1 0x1 PUSH1 0x1 PUSH1 0xA0 SHL SUB AND CALLER EQ PUSH3 0x28BC JUMPI PUSH1 0x40 MLOAD PUSH3 0x461BCD PUSH1 0xE5 SHL DUP2 MSTORE PUSH1 0x20 PUSH1 0x4 DUP3 ADD MSTORE PUSH1 0x24 DUP1 DUP3 ADD MSTORE PUSH32 0x63616C6C6261636B2061646472657373206973206E6F74207061757365416464 PUSH1 0x44 DUP3 ADD MSTORE PUSH4 0x72657373 PUSH1 0xE0 SHL PUSH1 0x64 DUP3 ADD MSTORE PUSH1 0x84 ADD PUSH3 0xFEC JUMP JUMPDEST PUSH1 0x4 DUP1 SLOAD PUSH1 0xFF PUSH1 0xA0 SHL NOT DUP2 AND PUSH1 0x1 PUSH1 0xA0 SHL SWAP2 DUP3 SWAP1 DIV PUSH1 0xFF AND ISZERO SWAP1 SWAP2 MUL OR SWAP1 SSTORE JUMP JUMPDEST PUSH1 0x14 PUSH1 0x20 MSTORE DUP2 PUSH1 0x0 MSTORE PUSH1 0x40 PUSH1 0x0 KECCAK256 DUP2 DUP2 SLOAD DUP2 LT PUSH3 0x28FA JUMPI PUSH1 0x0 DUP1 REVERT JUMPDEST PUSH1 0x0 SWAP2 DUP3 MSTORE PUSH1 0x20 SWAP1 SWAP2 KECCAK256 ADD SLOAD PUSH1 0x1 PUSH1 0x1 PUSH1 0xA0 SHL SUB AND SWAP2 POP DUP3 SWAP1 POP JUMP JUMPDEST PUSH1 0x1E DUP3 PUSH1 0x40 MLOAD PUSH3 0x2928 SWAP2 SWAP1 PUSH3 0x4794 JUMP JUMPDEST SWAP1 DUP2 MSTORE PUSH1 0x40 MLOAD SWAP1 DUP2 SWAP1 SUB PUSH1 0x20 ADD SWAP1 KECCAK256 SLOAD PUSH1 0xFF AND ISZERO PUSH3 0x297E JUMPI PUSH1 0x40 MLOAD PUSH3 0x461BCD PUSH1 0xE5 SHL DUP2 MSTORE PUSH1 0x20 PUSH1 0x4 DUP3 ADD MSTORE PUSH1 0x11 PUSH1 0x24 DUP3 ADD MSTORE PUSH17 0x18DA5D1E539BD919481A5CC8195E1A5CDD PUSH1 0x7A SHL PUSH1 0x44 DUP3 ADD MSTORE PUSH1 0x64 ADD PUSH3 0xFEC JUMP JUMPDEST CALLER PUSH1 0x0 SWAP1 DUP2 MSTORE PUSH1 0x11 PUSH1 0x20 MSTORE PUSH1 0x40 SWAP1 KECCAK256 SLOAD PUSH1 0xFF AND ISZERO PUSH3 0x29D5 JUMPI PUSH1 0x40 MLOAD PUSH3 0x461BCD PUSH1 0xE5 SHL DUP2 MSTORE PUSH1 0x20 PUSH1 0x4 DUP3 ADD MSTORE PUSH1 0x12 PUSH1 0x24 DUP3 ADD MSTORE PUSH18 0x1E5BDD48185B1C9958591E481A9BDA5B9959 PUSH1 0x72 SHL PUSH1 0x44 DUP3 ADD MSTORE PUSH1 0x64 ADD PUSH3 0xFEC JUMP JUMPDEST PUSH1 0x4 SLOAD PUSH1 0x1 PUSH1 0xA0 SHL SWAP1 DIV PUSH1 0xFF AND ISZERO PUSH3 0x2A2C JUMPI PUSH1 0x40 MLOAD PUSH3 0x461BCD PUSH1 0xE5 SHL DUP2 MSTORE PUSH1 0x20 PUSH1 0x4 DUP3 ADD MSTORE PUSH1 0x18 PUSH1 0x24 DUP3 ADD MSTORE PUSH24 0x436F6E7472616374207374617475732069732066616C7365 PUSH1 0x40 SHL PUSH1 0x44 DUP3 ADD MSTORE PUSH1 0x64 ADD PUSH3 0xFEC JUMP JUMPDEST PUSH1 0xB SLOAD PUSH1 0x40 MLOAD PUSH4 0x1238E331 PUSH1 0xE3 SHL DUP2 MSTORE CALLER PUSH1 0x4 DUP3 ADD MSTORE PUSH1 0x1 PUSH1 0x1 PUSH1 0xA0 SHL SUB SWAP1 SWAP2 AND SWAP1 PUSH4 0x91C71988 SWAP1 PUSH1 0x24 ADD PUSH1 0x20 PUSH1 0x40 MLOAD DUP1 DUP4 SUB DUP2 DUP7 GAS STATICCALL ISZERO DUP1 ISZERO PUSH3 0x2A75 JUMPI RETURNDATASIZE PUSH1 0x0 DUP1 RETURNDATACOPY RETURNDATASIZE PUSH1 0x0 REVERT JUMPDEST POP POP POP POP PUSH1 0x40 MLOAD RETURNDATASIZE PUSH1 0x1F NOT PUSH1 0x1F DUP3 ADD AND DUP3 ADD DUP1 PUSH1 0x40 MSTORE POP DUP2 ADD SWAP1 PUSH3 0x2A9B SWAP2 SWAP1 PUSH3 0x45B7 JUMP JUMPDEST DUP1 PUSH3 0x2AB6 JUMPI POP CALLER PUSH1 0x0 SWAP1 DUP2 MSTORE PUSH1 0x10 PUSH1 0x20 MSTORE PUSH1 0x40 SWAP1 KECCAK256 SLOAD PUSH1 0xFF AND JUMPDEST PUSH3 0x2B1C JUMPI PUSH1 0x40 MLOAD PUSH3 0x461BCD PUSH1 0xE5 SHL DUP2 MSTORE PUSH1 0x20 PUSH1 0x4 DUP3 ADD MSTORE PUSH1 0x2F PUSH1 0x24 DUP3 ADD MSTORE PUSH32 0x596F7520686176656E2774204649442C20706C65617365206275726E20666972 PUSH1 0x44 DUP3 ADD MSTORE PUSH15 0x657365656420746F20637265617465 PUSH1 0x88 SHL PUSH1 0x64 DUP3 ADD MSTORE PUSH1 0x84 ADD PUSH3 0xFEC JUMP JUMPDEST PUSH1 0x7 SLOAD PUSH3 0x2B33 SWAP1 PUSH8 0xDE0B6B3A7640000 PUSH3 0x4564 JUMP JUMPDEST PUSH1 0xC SLOAD PUSH1 0x40 MLOAD PUSH4 0x14AB313 PUSH1 0xE0 SHL DUP2 MSTORE CALLER PUSH1 0x4 DUP3 ADD MSTORE PUSH1 0x1 PUSH1 0x1 PUSH1 0xA0 SHL SUB SWAP1 SWAP2 AND SWAP1 PUSH4 0x14AB313 SWAP1 PUSH1 0x24 ADD PUSH1 0x20 PUSH1 0x40 MLOAD DUP1 DUP4 SUB DUP2 DUP7 GAS STATICCALL ISZERO DUP1 ISZERO PUSH3 0x2B7C JUMPI RETURNDATASIZE PUSH1 0x0 DUP1 RETURNDATACOPY RETURNDATASIZE PUSH1 0x0 REVERT JUMPDEST POP POP POP POP PUSH1 0x40 MLOAD RETURNDATASIZE PUSH1 0x1F NOT PUSH1 0x1F DUP3 ADD AND DUP3 ADD DUP1 PUSH1 0x40 MSTORE POP DUP2 ADD SWAP1 PUSH3 0x2BA2 SWAP2 SWAP1 PUSH3 0x465E JUMP JUMPDEST GT DUP1 PUSH3 0x2BBE JUMPI POP CALLER PUSH1 0x0 SWAP1 DUP2 MSTORE PUSH1 0x10 PUSH1 0x20 MSTORE PUSH1 0x40 SWAP1 KECCAK256 SLOAD PUSH1 0xFF AND JUMPDEST PUSH3 0x2BF9 JUMPI PUSH1 0x40 MLOAD PUSH3 0x461BCD PUSH1 0xE5 SHL DUP2 MSTORE PUSH1 0x20 PUSH1 0x4 DUP3 ADD MSTORE PUSH1 0xA PUSH1 0x24 DUP3 ADD MSTORE PUSH10 0xDCDEE840CADCDEEACED PUSH1 0xB3 SHL PUSH1 0x44 DUP3 ADD MSTORE PUSH1 0x64 ADD PUSH3 0xFEC JUMP JUMPDEST PUSH1 0x0 CALLER ADDRESS PUSH1 0x40 MLOAD PUSH3 0x2C0B SWAP1 PUSH3 0x3DD5 JUMP JUMPDEST PUSH1 0x1 PUSH1 0x1 PUSH1 0xA0 SHL SUB SWAP3 DUP4 AND DUP2 MSTORE SWAP2 AND PUSH1 0x20 DUP3 ADD MSTORE PUSH1 0x40 ADD PUSH1 0x40 MLOAD DUP1 SWAP2 SUB SWAP1 PUSH1 0x0 CREATE DUP1 ISZERO DUP1 ISZERO PUSH3 0x2C3F JUMPI RETURNDATASIZE PUSH1 0x0 DUP1 RETURNDATACOPY RETURNDATASIZE PUSH1 0x0 REVERT JUMPDEST POP SWAP1 POP PUSH1 0x0 PUSH1 0x6 SLOAD SWAP1 POP PUSH3 0x2C74 CALLER DUP3 PUSH1 0x1 PUSH1 0x40 MLOAD DUP1 PUSH1 0x40 ADD PUSH1 0x40 MSTORE DUP1 PUSH1 0x4 DUP2 MSTORE PUSH1 0x20 ADD PUSH4 0x1D195CDD PUSH1 0xE2 SHL DUP2 MSTORE POP PUSH3 0x3A3C JUMP JUMPDEST DUP3 PUSH1 0xF DUP6 PUSH1 0x40 MLOAD PUSH3 0x2C87 SWAP2 SWAP1 PUSH3 0x4794 JUMP JUMPDEST SWAP1 DUP2 MSTORE PUSH1 0x20 ADD PUSH1 0x40 MLOAD DUP1 SWAP2 SUB SWAP1 KECCAK256 SWAP1 DUP2 PUSH3 0x2CA3 SWAP2 SWAP1 PUSH3 0x46C7 JUMP JUMPDEST POP PUSH1 0x0 DUP2 DUP2 MSTORE PUSH1 0x1D PUSH1 0x20 MSTORE PUSH1 0x40 SWAP1 KECCAK256 PUSH3 0x2CBE DUP5 DUP3 PUSH3 0x46C7 JUMP JUMPDEST POP CALLER PUSH1 0x0 DUP2 DUP2 MSTORE PUSH1 0x13 PUSH1 0x20 SWAP1 DUP2 MSTORE PUSH1 0x40 DUP1 DUP4 KECCAK256 DUP1 SLOAD PUSH1 0xFF NOT AND PUSH1 0x1 SWAP1 DUP2 OR SWAP1 SWAP2 SSTORE DUP6 DUP5 MSTORE PUSH1 0x14 DUP1 DUP5 MSTORE DUP3 DUP6 KECCAK256 DUP1 SLOAD DUP1 DUP5 ADD DUP3 SSTORE DUP2 DUP8 MSTORE DUP6 DUP8 KECCAK256 ADD DUP1 SLOAD PUSH1 0x1 PUSH1 0x1 PUSH1 0xA0 SHL SUB NOT SWAP1 DUP2 AND DUP10 OR SWAP1 SWAP2 SSTORE DUP8 DUP8 MSTORE PUSH1 0x15 DUP7 MSTORE DUP5 DUP8 KECCAK256 DUP10 SWAP1 SSTORE DUP9 DUP8 MSTORE PUSH1 0x1A DUP7 MSTORE DUP5 DUP8 KECCAK256 DUP1 SLOAD DUP3 AND DUP10 OR SWAP1 SSTORE DUP8 DUP8 MSTORE PUSH1 0x1B DUP7 MSTORE DUP5 DUP8 KECCAK256 DUP1 SLOAD PUSH1 0x1 PUSH1 0x1 PUSH1 0xA0 SHL SUB DUP13 AND SWAP1 DUP4 AND DUP2 OR SWAP1 SWAP2 SSTORE DUP10 DUP9 MSTORE PUSH1 0x1C DUP8 MSTORE DUP6 DUP9 KECCAK256 DUP1 SLOAD SWAP1 SWAP3 AND DUP2 OR SWAP1 SWAP2 SSTORE DUP5 MLOAD PUSH2 0x100 DUP2 ADD DUP7 MSTORE DUP10 DUP2 MSTORE DUP1 DUP8 ADD DUP14 DUP2 MSTORE SWAP6 DUP2 ADD SWAP9 SWAP1 SWAP9 MSTORE TIMESTAMP PUSH1 0x60 DUP10 ADD DUP2 SWAP1 MSTORE PUSH1 0x80 DUP10 ADD MSTORE PUSH1 0xA0 DUP9 ADD MSTORE SWAP4 MSTORE SWAP2 SLOAD PUSH1 0xC0 DUP6 ADD MSTORE PUSH1 0xE0 DUP5 ADD DUP8 SWAP1 MSTORE PUSH1 0x1F DUP1 SLOAD SWAP3 DUP4 ADD DUP2 SSTORE SWAP1 SWAP3 MSTORE DUP3 MLOAD PUSH1 0x8 SWAP1 SWAP2 MUL PUSH32 0xA03837A25210EE280C2113FF4B77CA23440B19D4866CCA721C801278FD08D807 DUP2 ADD SWAP2 DUP3 SSTORE SWAP2 MLOAD DUP4 SWAP3 PUSH32 0xA03837A25210EE280C2113FF4B77CA23440B19D4866CCA721C801278FD08D808 ADD SWAP1 PUSH3 0x2E03 SWAP1 DUP3 PUSH3 0x46C7 JUMP JUMPDEST POP PUSH1 0x40 DUP3 ADD MLOAD PUSH1 0x2 DUP3 ADD DUP1 SLOAD PUSH1 0x1 PUSH1 0x1 PUSH1 0xA0 SHL SUB SWAP3 DUP4 AND PUSH1 0x1 PUSH1 0x1 PUSH1 0xA0 SHL SUB NOT SWAP2 DUP3 AND OR SWAP1 SWAP2 SSTORE PUSH1 0x60 DUP5 ADD MLOAD PUSH1 0x3 DUP5 ADD SSTORE PUSH1 0x80 DUP5 ADD MLOAD PUSH1 0x4 DUP5 ADD SSTORE PUSH1 0xA0 DUP5 ADD MLOAD PUSH1 0x5 DUP5 ADD DUP1 SLOAD SWAP2 SWAP1 SWAP4 AND SWAP2 AND OR SWAP1 SSTORE PUSH1 0xC0 DUP3 ADD MLOAD PUSH1 0x6 DUP3 ADD SSTORE PUSH1 0xE0 DUP3 ADD MLOAD PUSH1 0x7 DUP3 ADD SWAP1 PUSH3 0x2E72 SWAP1 DUP3 PUSH3 0x46C7 JUMP JUMPDEST POP POP CALLER PUSH1 0x0 SWAP1 DUP2 MSTORE PUSH1 0x17 PUSH1 0x20 SWAP1 DUP2 MSTORE PUSH1 0x40 SWAP1 SWAP2 KECCAK256 DUP4 MLOAD DUP2 SSTORE SWAP1 DUP4 ADD MLOAD DUP4 SWAP3 POP PUSH1 0x1 DUP3 ADD SWAP1 PUSH3 0x2EA2 SWAP1 DUP3 PUSH3 0x46C7 JUMP JUMPDEST POP PUSH1 0x40 DUP3 ADD MLOAD PUSH1 0x2 DUP3 ADD DUP1 SLOAD PUSH1 0x1 PUSH1 0x1 PUSH1 0xA0 SHL SUB SWAP3 DUP4 AND PUSH1 0x1 PUSH1 0x1 PUSH1 0xA0 SHL SUB NOT SWAP2 DUP3 AND OR SWAP1 SWAP2 SSTORE PUSH1 0x60 DUP5 ADD MLOAD PUSH1 0x3 DUP5 ADD SSTORE PUSH1 0x80 DUP5 ADD MLOAD PUSH1 0x4 DUP5 ADD SSTORE PUSH1 0xA0 DUP5 ADD MLOAD PUSH1 0x5 DUP5 ADD DUP1 SLOAD SWAP2 SWAP1 SWAP4 AND SWAP2 AND OR SWAP1 SSTORE PUSH1 0xC0 DUP3 ADD MLOAD PUSH1 0x6 DUP3 ADD SSTORE PUSH1 0xE0 DUP3 ADD MLOAD PUSH1 0x7 DUP3 ADD SWAP1 PUSH3 0x2F11 SWAP1 DUP3 PUSH3 0x46C7 JUMP JUMPDEST POP POP POP PUSH1 0x0 DUP3 DUP2 MSTORE PUSH1 0x18 PUSH1 0x20 SWAP1 DUP2 MSTORE PUSH1 0x40 SWAP1 SWAP2 KECCAK256 DUP3 MLOAD DUP2 SSTORE SWAP1 DUP3 ADD MLOAD DUP3 SWAP2 SWAP1 PUSH1 0x1 DUP3 ADD SWAP1 PUSH3 0x2F41 SWAP1 DUP3 PUSH3 0x46C7 JUMP JUMPDEST POP PUSH1 0x40 DUP3 ADD MLOAD PUSH1 0x2 DUP3 ADD DUP1 SLOAD PUSH1 0x1 PUSH1 0x1 PUSH1 0xA0 SHL SUB SWAP3 DUP4 AND PUSH1 0x1 PUSH1 0x1 PUSH1 0xA0 SHL SUB NOT SWAP2 DUP3 AND OR SWAP1 SWAP2 SSTORE PUSH1 0x60 DUP5 ADD MLOAD PUSH1 0x3 DUP5 ADD SSTORE PUSH1 0x80 DUP5 ADD MLOAD PUSH1 0x4 DUP5 ADD SSTORE PUSH1 0xA0 DUP5 ADD MLOAD PUSH1 0x5 DUP5 ADD DUP1 SLOAD SWAP2 SWAP1 SWAP4 AND SWAP2 AND OR SWAP1 SSTORE PUSH1 0xC0 DUP3 ADD MLOAD PUSH1 0x6 DUP3 ADD SSTORE PUSH1 0xE0 DUP3 ADD MLOAD PUSH1 0x7 DUP3 ADD SWAP1 PUSH3 0x2FB0 SWAP1 DUP3 PUSH3 0x46C7 JUMP JUMPDEST POP POP CALLER PUSH1 0x0 SWAP1 DUP2 MSTORE PUSH1 0x11 PUSH1 0x20 MSTORE PUSH1 0x40 SWAP1 DUP2 SWAP1 KECCAK256 DUP1 SLOAD PUSH1 0xFF NOT AND PUSH1 0x1 SWAP1 DUP2 OR SWAP1 SWAP2 SSTORE SWAP1 MLOAD SWAP1 SWAP2 POP PUSH1 0x1E SWAP1 PUSH3 0x2FE6 SWAP1 DUP9 SWAP1 PUSH3 0x4794 JUMP JUMPDEST SWAP1 DUP2 MSTORE PUSH1 0x40 MLOAD SWAP1 DUP2 SWAP1 SUB PUSH1 0x20 ADD SWAP1 KECCAK256 DUP1 SLOAD SWAP2 ISZERO ISZERO PUSH1 0xFF NOT SWAP1 SWAP3 AND SWAP2 SWAP1 SWAP2 OR SWAP1 SSTORE PUSH1 0x6 DUP1 SLOAD SWAP1 PUSH1 0x0 PUSH3 0x3018 DUP4 PUSH3 0x4642 JUMP JUMPDEST SWAP2 SWAP1 POP SSTORE POP POP POP POP POP POP JUMP JUMPDEST DUP1 MLOAD PUSH1 0x20 DUP2 DUP4 ADD DUP2 ADD DUP1 MLOAD PUSH1 0xF DUP3 MSTORE SWAP3 DUP3 ADD SWAP2 SWAP1 SWAP4 ADD KECCAK256 SWAP2 MSTORE DUP1 SLOAD PUSH3 0x304A SWAP1 PUSH3 0x4512 JUMP JUMPDEST DUP1 PUSH1 0x1F ADD PUSH1 0x20 DUP1 SWAP2 DIV MUL PUSH1 0x20 ADD PUSH1 0x40 MLOAD SWAP1 DUP2 ADD PUSH1 0x40 MSTORE DUP1 SWAP3 SWAP2 SWAP1 DUP2 DUP2 MSTORE PUSH1 0x20 ADD DUP3 DUP1 SLOAD PUSH3 0x3078 SWAP1 PUSH3 0x4512 JUMP JUMPDEST DUP1 ISZERO PUSH3 0x30C9 JUMPI DUP1 PUSH1 0x1F LT PUSH3 0x309D JUMPI PUSH2 0x100 DUP1 DUP4 SLOAD DIV MUL DUP4 MSTORE SWAP2 PUSH1 0x20 ADD SWAP2 PUSH3 0x30C9 JUMP JUMPDEST DUP3 ADD SWAP2 SWAP1 PUSH1 0x0 MSTORE PUSH1 0x20 PUSH1 0x0 KECCAK256 SWAP1 JUMPDEST DUP2 SLOAD DUP2 MSTORE SWAP1 PUSH1 0x1 ADD SWAP1 PUSH1 0x20 ADD DUP1 DUP4 GT PUSH3 0x30AB JUMPI DUP3 SWAP1 SUB PUSH1 0x1F AND DUP3 ADD SWAP2 JUMPDEST POP POP POP POP POP DUP2 JUMP JUMPDEST PUSH3 0x30DB PUSH3 0x3453 JUMP JUMPDEST PUSH1 0x5 DUP1 SLOAD PUSH1 0x1 PUSH1 0x1 PUSH1 0xA0 SHL SUB NOT AND PUSH1 0x1 PUSH1 0x1 PUSH1 0xA0 SHL SUB SWAP3 SWAP1 SWAP3 AND SWAP2 SWAP1 SWAP2 OR SWAP1 SSTORE JUMP JUMPDEST PUSH1 0x1D PUSH1 0x20 MSTORE PUSH1 0x0 SWAP1 DUP2 MSTORE PUSH1 0x40 SWAP1 KECCAK256 DUP1 SLOAD PUSH3 0x304A SWAP1 PUSH3 0x4512 JUMP JUMPDEST PUSH1 0x17 PUSH1 0x20 MSTORE PUSH1 0x0 SWAP1 DUP2 MSTORE PUSH1 0x40 SWAP1 KECCAK256 DUP1 SLOAD PUSH1 0x1 DUP3 ADD DUP1 SLOAD SWAP2 SWAP3 SWAP2 PUSH3 0x10C1 SWAP1 PUSH3 0x4512 JUMP JUMPDEST PUSH3 0x3146 PUSH3 0x3453 JUMP JUMPDEST PUSH1 0x1 PUSH1 0x1 PUSH1 0xA0 SHL SUB DUP2 AND PUSH3 0x31AD JUMPI PUSH1 0x40 MLOAD PUSH3 0x461BCD PUSH1 0xE5 SHL DUP2 MSTORE PUSH1 0x20 PUSH1 0x4 DUP3 ADD MSTORE PUSH1 0x26 PUSH1 0x24 DUP3 ADD MSTORE PUSH32 0x4F776E61626C653A206E6577206F776E657220697320746865207A65726F2061 PUSH1 0x44 DUP3 ADD MSTORE PUSH6 0x646472657373 PUSH1 0xD0 SHL PUSH1 0x64 DUP3 ADD MSTORE PUSH1 0x84 ADD PUSH3 0xFEC JUMP JUMPDEST PUSH3 0x1D73 DUP2 PUSH3 0x3908 JUMP JUMPDEST PUSH1 0xA SLOAD PUSH1 0x1 PUSH1 0x1 PUSH1 0xA0 SHL SUB AND CALLER EQ PUSH3 0x320D JUMPI PUSH1 0x40 MLOAD PUSH3 0x461BCD PUSH1 0xE5 SHL DUP2 MSTORE PUSH1 0x20 PUSH1 0x4 DUP3 ADD MSTORE PUSH1 0x16 PUSH1 0x24 DUP3 ADD MSTORE PUSH22 0x10DA5D1E539BD9194E881A5B9D985B1A590818D85B1B PUSH1 0x52 SHL PUSH1 0x44 DUP3 ADD MSTORE PUSH1 0x64 ADD PUSH3 0xFEC JUMP JUMPDEST PUSH1 0x1 PUSH1 0x1 PUSH1 0xA0 SHL SUB DUP3 AND PUSH1 0x0 SWAP1 DUP2 MSTORE PUSH1 0x15 PUSH1 0x20 SWAP1 DUP2 MSTORE PUSH1 0x40 DUP1 DUP4 KECCAK256 SLOAD DUP4 MSTORE PUSH1 0x16 SWAP1 SWAP2 MSTORE DUP2 KECCAK256 DUP1 SLOAD DUP4 SWAP3 SWAP1 PUSH3 0x3244 SWAP1 DUP5 SWAP1 PUSH3 0x45D7 JUMP JUMPDEST SWAP1 SWAP2 SSTORE POP POP POP POP JUMP JUMPDEST PUSH3 0x32A8 PUSH1 0x40 MLOAD DUP1 PUSH2 0x100 ADD PUSH1 0x40 MSTORE DUP1 PUSH1 0x0 DUP2 MSTORE PUSH1 0x20 ADD PUSH1 0x60 DUP2 MSTORE PUSH1 0x20 ADD PUSH1 0x0 PUSH1 0x1 PUSH1 0x1 PUSH1 0xA0 SHL SUB AND DUP2 MSTORE PUSH1 0x20 ADD PUSH1 0x0 DUP2 MSTORE PUSH1 0x20 ADD PUSH1 0x0 DUP2 MSTORE PUSH1 0x20 ADD PUSH1 0x0 PUSH1 0x1 PUSH1 0x1 PUSH1 0xA0 SHL SUB AND DUP2 MSTORE PUSH1 0x20 ADD PUSH1 0x0 DUP2 MSTORE PUSH1 0x20 ADD PUSH1 0x60 DUP2 MSTORE POP SWAP1 JUMP JUMPDEST PUSH1 0x1 PUSH1 0x1 PUSH1 0xA0 SHL SUB DUP3 AND PUSH1 0x0 SWAP1 DUP2 MSTORE PUSH1 0x17 PUSH1 0x20 SWAP1 DUP2 MSTORE PUSH1 0x40 SWAP2 DUP3 SWAP1 KECCAK256 DUP3 MLOAD PUSH2 0x100 DUP2 ADD SWAP1 SWAP4 MSTORE DUP1 SLOAD DUP4 MSTORE PUSH1 0x1 DUP2 ADD DUP1 SLOAD SWAP2 SWAP3 DUP5 ADD SWAP2 PUSH3 0x32E8 SWAP1 PUSH3 0x4512 JUMP JUMPDEST DUP1 PUSH1 0x1F ADD PUSH1 0x20 DUP1 SWAP2 DIV MUL PUSH1 0x20 ADD PUSH1 0x40 MLOAD SWAP1 DUP2 ADD PUSH1 0x40 MSTORE DUP1 SWAP3 SWAP2 SWAP1 DUP2 DUP2 MSTORE PUSH1 0x20 ADD DUP3 DUP1 SLOAD PUSH3 0x3316 SWAP1 PUSH3 0x4512 JUMP JUMPDEST DUP1 ISZERO PUSH3 0x3367 JUMPI DUP1 PUSH1 0x1F LT PUSH3 0x333B JUMPI PUSH2 0x100 DUP1 DUP4 SLOAD DIV MUL DUP4 MSTORE SWAP2 PUSH1 0x20 ADD SWAP2 PUSH3 0x3367 JUMP JUMPDEST DUP3 ADD SWAP2 SWAP1 PUSH1 0x0 MSTORE PUSH1 0x20 PUSH1 0x0 KECCAK256 SWAP1 JUMPDEST DUP2 SLOAD DUP2 MSTORE SWAP1 PUSH1 0x1 ADD SWAP1 PUSH1 0x20 ADD DUP1 DUP4 GT PUSH3 0x3349 JUMPI DUP3 SWAP1 SUB PUSH1 0x1F AND DUP3 ADD SWAP2 JUMPDEST POP POP POP SWAP2 DUP4 MSTORE POP POP PUSH1 0x2 DUP3 ADD SLOAD PUSH1 0x1 PUSH1 0x1 PUSH1 0xA0 SHL SUB SWAP1 DUP2 AND PUSH1 0x20 DUP4 ADD MSTORE PUSH1 0x3 DUP4 ADD SLOAD PUSH1 0x40 DUP4 ADD MSTORE PUSH1 0x4 DUP4 ADD SLOAD PUSH1 0x60 DUP4 ADD MSTORE PUSH1 0x5 DUP4 ADD SLOAD AND PUSH1 0x80 DUP3 ADD MSTORE PUSH1 0x6 DUP3 ADD SLOAD PUSH1 0xA0 DUP3 ADD MSTORE PUSH1 0x7 DUP3 ADD DUP1 SLOAD PUSH1 0xC0 SWAP1 SWAP3 ADD SWAP2 PUSH3 0x33C4 SWAP1 PUSH3 0x4512 JUMP JUMPDEST DUP1 PUSH1 0x1F ADD PUSH1 0x20 DUP1 SWAP2 DIV MUL PUSH1 0x20 ADD PUSH1 0x40 MLOAD SWAP1 DUP2 ADD PUSH1 0x40 MSTORE DUP1 SWAP3 SWAP2 SWAP1 DUP2 DUP2 MSTORE PUSH1 0x20 ADD DUP3 DUP1 SLOAD PUSH3 0x33F2 SWAP1 PUSH3 0x4512 JUMP JUMPDEST DUP1 ISZERO PUSH3 0x3443 JUMPI DUP1 PUSH1 0x1F LT PUSH3 0x3417 JUMPI PUSH2 0x100 DUP1 DUP4 SLOAD DIV MUL DUP4 MSTORE SWAP2 PUSH1 0x20 ADD SWAP2 PUSH3 0x3443 JUMP JUMPDEST DUP3 ADD SWAP2 SWAP1 PUSH1 0x0 MSTORE PUSH1 0x20 PUSH1 0x0 KECCAK256 SWAP1 JUMPDEST DUP2 SLOAD DUP2 MSTORE SWAP1 PUSH1 0x1 ADD SWAP1 PUSH1 0x20 ADD DUP1 DUP4 GT PUSH3 0x3425 JUMPI DUP3 SWAP1 SUB PUSH1 0x1F AND DUP3 ADD SWAP2 JUMPDEST POP POP POP POP POP DUP2 MSTORE POP POP SWAP1 POP SWAP2 SWAP1 POP JUMP JUMPDEST PUSH1 0x3 SLOAD PUSH1 0x1 PUSH1 0x1 PUSH1 0xA0 SHL SUB AND CALLER EQ PUSH3 0x1C4F JUMPI PUSH1 0x40 MLOAD PUSH3 0x461BCD PUSH1 0xE5 SHL DUP2 MSTORE PUSH1 0x20 PUSH1 0x4 DUP3 ADD DUP2 SWAP1 MSTORE PUSH1 0x24 DUP3 ADD MSTORE PUSH32 0x4F776E61626C653A2063616C6C6572206973206E6F7420746865206F776E6572 PUSH1 0x44 DUP3 ADD MSTORE PUSH1 0x64 ADD PUSH3 0xFEC JUMP JUMPDEST DUP5 MLOAD DUP2 LT ISZERO PUSH3 0x35E3 JUMPI PUSH1 0x0 DUP6 DUP3 DUP2 MLOAD DUP2 LT PUSH3 0x34D0 JUMPI PUSH3 0x34D0 PUSH3 0x4616 JUMP JUMPDEST PUSH1 0x20 MUL PUSH1 0x20 ADD ADD MLOAD SWAP1 POP PUSH1 0x0 DUP6 DUP4 DUP2 MLOAD DUP2 LT PUSH3 0x34F1 JUMPI PUSH3 0x34F1 PUSH3 0x4616 JUMP JUMPDEST PUSH1 0x20 SWAP1 DUP2 MUL SWAP2 SWAP1 SWAP2 ADD DUP2 ADD MLOAD PUSH1 0x0 DUP5 DUP2 MSTORE DUP1 DUP4 MSTORE PUSH1 0x40 DUP1 DUP3 KECCAK256 PUSH1 0x1 PUSH1 0x1 PUSH1 0xA0 SHL SUB DUP15 AND DUP4 MSTORE SWAP1 SWAP4 MSTORE SWAP2 SWAP1 SWAP2 KECCAK256 SLOAD SWAP1 SWAP2 POP DUP2 DUP2 LT ISZERO PUSH3 0x3586 JUMPI PUSH1 0x40 MLOAD PUSH3 0x461BCD PUSH1 0xE5 SHL DUP2 MSTORE PUSH1 0x20 PUSH1 0x4 DUP3 ADD MSTORE PUSH1 0x2A PUSH1 0x24 DUP3 ADD MSTORE PUSH32 0x455243313135353A20696E73756666696369656E742062616C616E636520666F PUSH1 0x44 DUP3 ADD MSTORE PUSH10 0x39103A3930B739B332B9 PUSH1 0xB1 SHL PUSH1 0x64 DUP3 ADD MSTORE PUSH1 0x84 ADD PUSH3 0xFEC JUMP JUMPDEST PUSH1 0x0 DUP4 DUP2 MSTORE PUSH1 0x20 DUP2 DUP2 MSTORE PUSH1 0x40 DUP1 DUP4 KECCAK256 PUSH1 0x1 PUSH1 0x1 PUSH1 0xA0 SHL SUB DUP15 DUP2 AND DUP6 MSTORE SWAP3 MSTORE DUP1 DUP4 KECCAK256 DUP6 DUP6 SUB SWAP1 SSTORE SWAP1 DUP12 AND DUP3 MSTORE DUP2 KECCAK256 DUP1 SLOAD DUP5 SWAP3 SWAP1 PUSH3 0x35C5 SWAP1 DUP5 SWAP1 PUSH3 0x45D7 JUMP JUMPDEST SWAP3 POP POP DUP2 SWAP1 SSTORE POP POP POP POP DUP1 PUSH3 0x35DB SWAP1 PUSH3 0x4642 JUMP JUMPDEST SWAP1 POP PUSH3 0x34AF JUMP JUMPDEST POP DUP5 PUSH1 0x1 PUSH1 0x1 PUSH1 0xA0 SHL SUB AND DUP7 PUSH1 0x1 PUSH1 0x1 PUSH1 0xA0 SHL SUB AND DUP3 PUSH1 0x1 PUSH1 0x1 PUSH1 0xA0 SHL SUB AND PUSH32 0x4A39DC06D4C0DBC64B70AF90FD698A233A518AA5D07E595D983B8C0526C8F7FB DUP8 DUP8 PUSH1 0x40 MLOAD PUSH3 0x3635 SWAP3 SWAP2 SWAP1 PUSH3 0x47B2 JUMP JUMPDEST PUSH1 0x40 MLOAD DUP1 SWAP2 SUB SWAP1 LOG4 PUSH3 0x2043 DUP2 DUP8 DUP8 DUP8 DUP8 DUP8 PUSH3 0x3B51 JUMP JUMPDEST PUSH1 0x40 DUP1 MLOAD PUSH1 0x1 PUSH1 0x1 PUSH1 0xA0 SHL SUB DUP6 DUP2 AND PUSH1 0x24 DUP4 ADD MSTORE DUP5 DUP2 AND PUSH1 0x44 DUP4 ADD MSTORE PUSH1 0x64 DUP1 DUP4 ADD DUP6 SWAP1 MSTORE DUP4 MLOAD DUP1 DUP5 SUB SWAP1 SWAP2 ADD DUP2 MSTORE PUSH1 0x84 SWAP1 SWAP3 ADD DUP4 MSTORE PUSH1 0x20 DUP3 ADD DUP1 MLOAD PUSH1 0x1 PUSH1 0x1 PUSH1 0xE0 SHL SUB AND PUSH4 0x23B872DD PUSH1 0xE0 SHL OR SWAP1 MSTORE SWAP2 MLOAD PUSH1 0x0 SWAP3 DUP4 SWAP3 SWAP1 DUP9 AND SWAP2 PUSH3 0x36B3 SWAP2 SWAP1 PUSH3 0x4794 JUMP JUMPDEST PUSH1 0x0 PUSH1 0x40 MLOAD DUP1 DUP4 SUB DUP2 PUSH1 0x0 DUP7 GAS CALL SWAP2 POP POP RETURNDATASIZE DUP1 PUSH1 0x0 DUP2 EQ PUSH3 0x36F2 JUMPI PUSH1 0x40 MLOAD SWAP2 POP PUSH1 0x1F NOT PUSH1 0x3F RETURNDATASIZE ADD AND DUP3 ADD PUSH1 0x40 MSTORE RETURNDATASIZE DUP3 MSTORE RETURNDATASIZE PUSH1 0x0 PUSH1 0x20 DUP5 ADD RETURNDATACOPY PUSH3 0x36F7 JUMP JUMPDEST PUSH1 0x60 SWAP2 POP JUMPDEST POP SWAP2 POP SWAP2 POP DUP2 DUP1 ISZERO PUSH3 0x3725 JUMPI POP DUP1 MLOAD ISZERO DUP1 PUSH3 0x3725 JUMPI POP DUP1 DUP1 PUSH1 0x20 ADD SWAP1 MLOAD DUP2 ADD SWAP1 PUSH3 0x3725 SWAP2 SWAP1 PUSH3 0x45B7 JUMP JUMPDEST PUSH3 0x2043 JUMPI PUSH1 0x40 MLOAD PUSH3 0x461BCD PUSH1 0xE5 SHL DUP2 MSTORE PUSH1 0x20 PUSH1 0x4 DUP3 ADD MSTORE PUSH1 0x24 DUP1 DUP3 ADD MSTORE PUSH32 0x5472616E7366657248656C7065723A205452414E534645525F46524F4D5F4641 PUSH1 0x44 DUP3 ADD MSTORE PUSH4 0x12531151 PUSH1 0xE2 SHL PUSH1 0x64 DUP3 ADD MSTORE PUSH1 0x84 ADD PUSH3 0xFEC JUMP JUMPDEST PUSH1 0x1 PUSH1 0x1 PUSH1 0xA0 SHL SUB DUP4 AND PUSH3 0x37E3 JUMPI PUSH1 0x40 MLOAD PUSH3 0x461BCD PUSH1 0xE5 SHL DUP2 MSTORE PUSH1 0x20 PUSH1 0x4 DUP3 ADD MSTORE PUSH1 0x23 PUSH1 0x24 DUP3 ADD MSTORE PUSH32 0x455243313135353A206275726E2066726F6D20746865207A65726F2061646472 PUSH1 0x44 DUP3 ADD MSTORE PUSH3 0x657373 PUSH1 0xE8 SHL PUSH1 0x64 DUP3 ADD MSTORE PUSH1 0x84 ADD PUSH3 0xFEC JUMP JUMPDEST CALLER PUSH1 0x0 PUSH3 0x37F1 DUP5 PUSH3 0x3CC0 JUMP JUMPDEST SWAP1 POP PUSH1 0x0 PUSH3 0x3800 DUP5 PUSH3 0x3CC0 JUMP JUMPDEST PUSH1 0x40 DUP1 MLOAD PUSH1 0x20 DUP1 DUP3 ADD DUP4 MSTORE PUSH1 0x0 SWAP2 DUP3 SWAP1 MSTORE DUP9 DUP3 MSTORE DUP2 DUP2 MSTORE DUP3 DUP3 KECCAK256 PUSH1 0x1 PUSH1 0x1 PUSH1 0xA0 SHL SUB DUP12 AND DUP4 MSTORE SWAP1 MSTORE KECCAK256 SLOAD SWAP1 SWAP2 POP DUP5 DUP2 LT ISZERO PUSH3 0x388B JUMPI PUSH1 0x40 MLOAD PUSH3 0x461BCD PUSH1 0xE5 SHL DUP2 MSTORE PUSH1 0x20 PUSH1 0x4 DUP3 ADD MSTORE PUSH1 0x24 DUP1 DUP3 ADD MSTORE PUSH32 0x455243313135353A206275726E20616D6F756E7420657863656564732062616C PUSH1 0x44 DUP3 ADD MSTORE PUSH4 0x616E6365 PUSH1 0xE0 SHL PUSH1 0x64 DUP3 ADD MSTORE PUSH1 0x84 ADD PUSH3 0xFEC JUMP JUMPDEST PUSH1 0x0 DUP7 DUP2 MSTORE PUSH1 0x20 DUP2 DUP2 MSTORE PUSH1 0x40 DUP1 DUP4 KECCAK256 PUSH1 0x1 PUSH1 0x1 PUSH1 0xA0 SHL SUB DUP12 DUP2 AND DUP1 DUP7 MSTORE SWAP2 DUP5 MSTORE DUP3 DUP6 KECCAK256 DUP11 DUP8 SUB SWAP1 SSTORE DUP3 MLOAD DUP12 DUP2 MSTORE SWAP4 DUP5 ADD DUP11 SWAP1 MSTORE SWAP1 SWAP3 SWAP1 DUP9 AND SWAP2 PUSH32 0xC3D58168C5AE7397731D063D5BBF3D657854427343F4C083240F7AACAA2D0F62 SWAP2 ADD PUSH1 0x40 MLOAD DUP1 SWAP2 SUB SWAP1 LOG4 PUSH1 0x40 DUP1 MLOAD PUSH1 0x20 DUP2 ADD SWAP1 SWAP2 MSTORE PUSH1 0x0 SWAP1 MSTORE JUMPDEST POP POP POP POP POP POP POP JUMP JUMPDEST PUSH1 0x3 DUP1 SLOAD PUSH1 0x1 PUSH1 0x1 PUSH1 0xA0 SHL SUB DUP4 DUP2 AND PUSH1 0x1 PUSH1 0x1 PUSH1 0xA0 SHL SUB NOT DUP4 AND DUP2 OR SWAP1 SWAP4 SSTORE PUSH1 0x40 MLOAD SWAP2 AND SWAP2 SWAP1 DUP3 SWAP1 PUSH32 0x8BE0079C531659141344CD1FD0A4F28419497F9722A3DAAFE3B4186F6B6457E0 SWAP1 PUSH1 0x0 SWAP1 LOG3 POP POP JUMP JUMPDEST DUP2 PUSH1 0x1 PUSH1 0x1 PUSH1 0xA0 SHL SUB AND DUP4 PUSH1 0x1 PUSH1 0x1 PUSH1 0xA0 SHL SUB AND SUB PUSH3 0x39CF JUMPI PUSH1 0x40 MLOAD PUSH3 0x461BCD PUSH1 0xE5 SHL DUP2 MSTORE PUSH1 0x20 PUSH1 0x4 DUP3 ADD MSTORE PUSH1 0x29 PUSH1 0x24 DUP3 ADD MSTORE PUSH32 0x455243313135353A2073657474696E6720617070726F76616C20737461747573 PUSH1 0x44 DUP3 ADD MSTORE PUSH9 0x103337B91039B2B633 PUSH1 0xB9 SHL PUSH1 0x64 DUP3 ADD MSTORE PUSH1 0x84 ADD PUSH3 0xFEC JUMP JUMPDEST PUSH1 0x1 PUSH1 0x1 PUSH1 0xA0 SHL SUB DUP4 DUP2 AND PUSH1 0x0 DUP2 DUP2 MSTORE PUSH1 0x1 PUSH1 0x20 SWAP1 DUP2 MSTORE PUSH1 0x40 DUP1 DUP4 KECCAK256 SWAP5 DUP8 AND DUP1 DUP5 MSTORE SWAP5 DUP3 MSTORE SWAP2 DUP3 SWAP1 KECCAK256 DUP1 SLOAD PUSH1 0xFF NOT AND DUP7 ISZERO ISZERO SWAP1 DUP2 OR SWAP1 SWAP2 SSTORE SWAP2 MLOAD SWAP2 DUP3 MSTORE PUSH32 0x17307EAB39AB6107E8899845AD3D59BD9653F200F220920489CA2B5937696C31 SWAP2 ADD PUSH1 0x40 MLOAD DUP1 SWAP2 SUB SWAP1 LOG3 POP POP POP JUMP JUMPDEST PUSH1 0x1 PUSH1 0x1 PUSH1 0xA0 SHL SUB DUP5 AND PUSH3 0x3A9E JUMPI PUSH1 0x40 MLOAD PUSH3 0x461BCD PUSH1 0xE5 SHL DUP2 MSTORE PUSH1 0x20 PUSH1 0x4 DUP3 ADD MSTORE PUSH1 0x21 PUSH1 0x24 DUP3 ADD MSTORE PUSH32 0x455243313135353A206D696E7420746F20746865207A65726F20616464726573 PUSH1 0x44 DUP3 ADD MSTORE PUSH1 0x73 PUSH1 0xF8 SHL PUSH1 0x64 DUP3 ADD MSTORE PUSH1 0x84 ADD PUSH3 0xFEC JUMP JUMPDEST CALLER PUSH1 0x0 PUSH3 0x3AAC DUP6 PUSH3 0x3CC0 JUMP JUMPDEST SWAP1 POP PUSH1 0x0 PUSH3 0x3ABB DUP6 PUSH3 0x3CC0 JUMP JUMPDEST SWAP1 POP PUSH1 0x0 DUP7 DUP2 MSTORE PUSH1 0x20 DUP2 DUP2 MSTORE PUSH1 0x40 DUP1 DUP4 KECCAK256 PUSH1 0x1 PUSH1 0x1 PUSH1 0xA0 SHL SUB DUP12 AND DUP5 MSTORE SWAP1 SWAP2 MSTORE DUP2 KECCAK256 DUP1 SLOAD DUP8 SWAP3 SWAP1 PUSH3 0x3AEF SWAP1 DUP5 SWAP1 PUSH3 0x45D7 JUMP JUMPDEST SWAP1 SWAP2 SSTORE POP POP PUSH1 0x40 DUP1 MLOAD DUP8 DUP2 MSTORE PUSH1 0x20 DUP2 ADD DUP8 SWAP1 MSTORE PUSH1 0x1 PUSH1 0x1 PUSH1 0xA0 SHL SUB DUP1 DUP11 AND SWAP3 PUSH1 0x0 SWAP3 SWAP2 DUP8 AND SWAP2 PUSH32 0xC3D58168C5AE7397731D063D5BBF3D657854427343F4C083240F7AACAA2D0F62 SWAP2 ADD PUSH1 0x40 MLOAD DUP1 SWAP2 SUB SWAP1 LOG4 PUSH3 0x38FF DUP4 PUSH1 0x0 DUP10 DUP10 DUP10 DUP10 PUSH3 0x3D0E JUMP JUMPDEST PUSH1 0x1 PUSH1 0x1 PUSH1 0xA0 SHL SUB DUP5 AND EXTCODESIZE ISZERO PUSH3 0x2043 JUMPI PUSH1 0x40 MLOAD PUSH4 0xBC197C81 PUSH1 0xE0 SHL DUP2 MSTORE PUSH1 0x1 PUSH1 0x1 PUSH1 0xA0 SHL SUB DUP6 AND SWAP1 PUSH4 0xBC197C81 SWAP1 PUSH3 0x3B98 SWAP1 DUP10 SWAP1 DUP10 SWAP1 DUP9 SWAP1 DUP9 SWAP1 DUP9 SWAP1 PUSH1 0x4 ADD PUSH3 0x47E4 JUMP JUMPDEST PUSH1 0x20 PUSH1 0x40 MLOAD DUP1 DUP4 SUB DUP2 PUSH1 0x0 DUP8 GAS CALL SWAP3 POP POP POP DUP1 ISZERO PUSH3 0x3BD6 JUMPI POP PUSH1 0x40 DUP1 MLOAD PUSH1 0x1F RETURNDATASIZE SWAP1 DUP2 ADD PUSH1 0x1F NOT AND DUP3 ADD SWAP1 SWAP3 MSTORE PUSH3 0x3BD3 SWAP2 DUP2 ADD SWAP1 PUSH3 0x4848 JUMP JUMPDEST PUSH1 0x1 JUMPDEST PUSH3 0x3C8D JUMPI PUSH3 0x3BE5 PUSH3 0x4868 JUMP JUMPDEST DUP1 PUSH4 0x8C379A0 SUB PUSH3 0x3C25 JUMPI POP PUSH3 0x3BFC PUSH3 0x4885 JUMP JUMPDEST DUP1 PUSH3 0x3C09 JUMPI POP PUSH3 0x3C27 JUMP JUMPDEST DUP1 PUSH1 0x40 MLOAD PUSH3 0x461BCD PUSH1 0xE5 SHL DUP2 MSTORE PUSH1 0x4 ADD PUSH3 0xFEC SWAP2 SWAP1 PUSH3 0x3F64 JUMP JUMPDEST POP JUMPDEST PUSH1 0x40 MLOAD PUSH3 0x461BCD PUSH1 0xE5 SHL DUP2 MSTORE PUSH1 0x20 PUSH1 0x4 DUP3 ADD MSTORE PUSH1 0x34 PUSH1 0x24 DUP3 ADD MSTORE PUSH32 0x455243313135353A207472616E7366657220746F206E6F6E2D45524331313535 PUSH1 0x44 DUP3 ADD MSTORE PUSH20 0x2932B1B2B4BB32B91034B6B83632B6B2B73A32B9 PUSH1 0x61 SHL PUSH1 0x64 DUP3 ADD MSTORE PUSH1 0x84 ADD PUSH3 0xFEC JUMP JUMPDEST PUSH1 0x1 PUSH1 0x1 PUSH1 0xE0 SHL SUB NOT DUP2 AND PUSH4 0xBC197C81 PUSH1 0xE0 SHL EQ PUSH3 0x38FF JUMPI PUSH1 0x40 MLOAD PUSH3 0x461BCD PUSH1 0xE5 SHL DUP2 MSTORE PUSH1 0x4 ADD PUSH3 0xFEC SWAP1 PUSH3 0x4915 JUMP JUMPDEST PUSH1 0x40 DUP1 MLOAD PUSH1 0x1 DUP1 DUP3 MSTORE DUP2 DUP4 ADD SWAP1 SWAP3 MSTORE PUSH1 0x60 SWAP2 PUSH1 0x0 SWAP2 SWAP1 PUSH1 0x20 DUP1 DUP4 ADD SWAP1 DUP1 CALLDATASIZE DUP4 CALLDATACOPY ADD SWAP1 POP POP SWAP1 POP DUP3 DUP2 PUSH1 0x0 DUP2 MLOAD DUP2 LT PUSH3 0x3CFD JUMPI PUSH3 0x3CFD PUSH3 0x4616 JUMP JUMPDEST PUSH1 0x20 SWAP1 DUP2 MUL SWAP2 SWAP1 SWAP2 ADD ADD MSTORE SWAP3 SWAP2 POP POP JUMP JUMPDEST PUSH1 0x1 PUSH1 0x1 PUSH1 0xA0 SHL SUB DUP5 AND EXTCODESIZE ISZERO PUSH3 0x2043 JUMPI PUSH1 0x40 MLOAD PUSH4 0xF23A6E61 PUSH1 0xE0 SHL DUP2 MSTORE PUSH1 0x1 PUSH1 0x1 PUSH1 0xA0 SHL SUB DUP6 AND SWAP1 PUSH4 0xF23A6E61 SWAP1 PUSH3 0x3D55 SWAP1 DUP10 SWAP1 DUP10 SWAP1 DUP9 SWAP1 DUP9 SWAP1 DUP9 SWAP1 PUSH1 0x4 ADD PUSH3 0x495D JUMP JUMPDEST PUSH1 0x20 PUSH1 0x40 MLOAD DUP1 DUP4 SUB DUP2 PUSH1 0x0 DUP8 GAS CALL SWAP3 POP POP POP DUP1 ISZERO PUSH3 0x3D93 JUMPI POP PUSH1 0x40 DUP1 MLOAD PUSH1 0x1F RETURNDATASIZE SWAP1 DUP2 ADD PUSH1 0x1F NOT AND DUP3 ADD SWAP1 SWAP3 MSTORE PUSH3 0x3D90 SWAP2 DUP2 ADD SWAP1 PUSH3 0x4848 JUMP JUMPDEST PUSH1 0x1 JUMPDEST PUSH3 0x3DA2 JUMPI PUSH3 0x3BE5 PUSH3 0x4868 JUMP JUMPDEST PUSH1 0x1 PUSH1 0x1 PUSH1 0xE0 SHL SUB NOT DUP2 AND PUSH4 0xF23A6E61 PUSH1 0xE0 SHL EQ PUSH3 0x38FF JUMPI PUSH1 0x40 MLOAD PUSH3 0x461BCD PUSH1 0xE5 SHL DUP2 MSTORE PUSH1 0x4 ADD PUSH3 0xFEC SWAP1 PUSH3 0x4915 JUMP JUMPDEST PUSH2 0x95C DUP1 PUSH3 0x49A5 DUP4 CODECOPY ADD SWAP1 JUMP JUMPDEST PUSH1 0x0 PUSH1 0x20 DUP3 DUP5 SUB SLT ISZERO PUSH3 0x3DF6 JUMPI PUSH1 0x0 DUP1 REVERT JUMPDEST POP CALLDATALOAD SWAP2 SWAP1 POP JUMP JUMPDEST DUP1 CALLDATALOAD PUSH1 0x1 PUSH1 0x1 PUSH1 0xA0 SHL SUB DUP2 AND DUP2 EQ PUSH3 0x3E15 JUMPI PUSH1 0x0 DUP1 REVERT JUMPDEST SWAP2 SWAP1 POP JUMP JUMPDEST PUSH1 0x0 DUP1 PUSH1 0x40 DUP4 DUP6 SUB SLT ISZERO PUSH3 0x3E2E JUMPI PUSH1 0x0 DUP1 REVERT JUMPDEST PUSH3 0x3E39 DUP4 PUSH3 0x3DFD JUMP JUMPDEST SWAP5 PUSH1 0x20 SWAP4 SWAP1 SWAP4 ADD CALLDATALOAD SWAP4 POP POP POP JUMP JUMPDEST PUSH1 0x1 PUSH1 0x1 PUSH1 0xE0 SHL SUB NOT DUP2 AND DUP2 EQ PUSH3 0x1D73 JUMPI PUSH1 0x0 DUP1 REVERT JUMPDEST PUSH1 0x0 PUSH1 0x20 DUP3 DUP5 SUB SLT ISZERO PUSH3 0x3E71 JUMPI PUSH1 0x0 DUP1 REVERT JUMPDEST DUP2 CALLDATALOAD PUSH3 0x3E7E DUP2 PUSH3 0x3E47 JUMP JUMPDEST SWAP4 SWAP3 POP POP POP JUMP JUMPDEST PUSH1 0x0 PUSH1 0x20 DUP3 DUP5 SUB SLT ISZERO PUSH3 0x3E98 JUMPI PUSH1 0x0 DUP1 REVERT JUMPDEST PUSH3 0x3E7E DUP3 PUSH3 0x3DFD JUMP JUMPDEST PUSH1 0x0 JUMPDEST DUP4 DUP2 LT ISZERO PUSH3 0x3EC0 JUMPI DUP2 DUP2 ADD MLOAD DUP4 DUP3 ADD MSTORE PUSH1 0x20 ADD PUSH3 0x3EA6 JUMP JUMPDEST POP POP PUSH1 0x0 SWAP2 ADD MSTORE JUMP JUMPDEST PUSH1 0x0 DUP2 MLOAD DUP1 DUP5 MSTORE PUSH3 0x3EE3 DUP2 PUSH1 0x20 DUP7 ADD PUSH1 0x20 DUP7 ADD PUSH3 0x3EA3 JUMP JUMPDEST PUSH1 0x1F ADD PUSH1 0x1F NOT AND SWAP3 SWAP1 SWAP3 ADD PUSH1 0x20 ADD SWAP3 SWAP2 POP POP JUMP JUMPDEST PUSH1 0x0 PUSH2 0x100 DUP11 DUP4 MSTORE DUP1 PUSH1 0x20 DUP5 ADD MSTORE PUSH3 0x3F13 DUP2 DUP5 ADD DUP12 PUSH3 0x3EC9 JUMP JUMPDEST PUSH1 0x1 PUSH1 0x1 PUSH1 0xA0 SHL SUB DUP11 DUP2 AND PUSH1 0x40 DUP7 ADD MSTORE PUSH1 0x60 DUP6 ADD DUP11 SWAP1 MSTORE PUSH1 0x80 DUP6 ADD DUP10 SWAP1 MSTORE DUP8 AND PUSH1 0xA0 DUP6 ADD MSTORE PUSH1 0xC0 DUP5 ADD DUP7 SWAP1 MSTORE DUP4 DUP2 SUB PUSH1 0xE0 DUP6 ADD MSTORE SWAP1 POP PUSH3 0x3F55 DUP2 DUP6 PUSH3 0x3EC9 JUMP JUMPDEST SWAP12 SWAP11 POP POP POP POP POP POP POP POP POP POP POP JUMP JUMPDEST PUSH1 0x20 DUP2 MSTORE PUSH1 0x0 PUSH3 0x3E7E PUSH1 0x20 DUP4 ADD DUP5 PUSH3 0x3EC9 JUMP JUMPDEST DUP1 ISZERO ISZERO DUP2 EQ PUSH3 0x1D73 JUMPI PUSH1 0x0 DUP1 REVERT JUMPDEST PUSH1 0x0 DUP1 PUSH1 0x40 DUP4 DUP6 SUB SLT ISZERO PUSH3 0x3F9C JUMPI PUSH1 0x0 DUP1 REVERT JUMPDEST PUSH3 0x3FA7 DUP4 PUSH3 0x3DFD JUMP JUMPDEST SWAP2 POP PUSH1 0x20 DUP4 ADD CALLDATALOAD PUSH3 0x3FB9 DUP2 PUSH3 0x3F79 JUMP JUMPDEST DUP1 SWAP2 POP POP SWAP3 POP SWAP3 SWAP1 POP JUMP JUMPDEST PUSH4 0x4E487B71 PUSH1 0xE0 SHL PUSH1 0x0 MSTORE PUSH1 0x41 PUSH1 0x4 MSTORE PUSH1 0x24 PUSH1 0x0 REVERT JUMPDEST PUSH1 0x1F DUP3 ADD PUSH1 0x1F NOT AND DUP2 ADD PUSH8 0xFFFFFFFFFFFFFFFF DUP2 GT DUP3 DUP3 LT OR ISZERO PUSH3 0x4003 JUMPI PUSH3 0x4003 PUSH3 0x3FC4 JUMP JUMPDEST PUSH1 0x40 MSTORE POP POP JUMP JUMPDEST PUSH1 0x0 PUSH8 0xFFFFFFFFFFFFFFFF DUP3 GT ISZERO PUSH3 0x4027 JUMPI PUSH3 0x4027 PUSH3 0x3FC4 JUMP JUMPDEST POP PUSH1 0x5 SHL PUSH1 0x20 ADD SWAP1 JUMP JUMPDEST PUSH1 0x0 DUP3 PUSH1 0x1F DUP4 ADD SLT PUSH3 0x4043 JUMPI PUSH1 0x0 DUP1 REVERT JUMPDEST DUP2 CALLDATALOAD PUSH1 0x20 PUSH3 0x4052 DUP3 PUSH3 0x400A JUMP JUMPDEST PUSH1 0x40 MLOAD PUSH3 0x4061 DUP3 DUP3 PUSH3 0x3FDA JUMP JUMPDEST DUP4 DUP2 MSTORE PUSH1 0x5 SWAP4 SWAP1 SWAP4 SHL DUP6 ADD DUP3 ADD SWAP3 DUP3 DUP2 ADD SWAP2 POP DUP7 DUP5 GT ISZERO PUSH3 0x4082 JUMPI PUSH1 0x0 DUP1 REVERT JUMPDEST DUP3 DUP7 ADD JUMPDEST DUP5 DUP2 LT ISZERO PUSH3 0x409F JUMPI DUP1 CALLDATALOAD DUP4 MSTORE SWAP2 DUP4 ADD SWAP2 DUP4 ADD PUSH3 0x4086 JUMP JUMPDEST POP SWAP7 SWAP6 POP POP POP POP POP POP JUMP JUMPDEST PUSH1 0x0 DUP3 PUSH1 0x1F DUP4 ADD SLT PUSH3 0x40BC JUMPI PUSH1 0x0 DUP1 REVERT JUMPDEST DUP2 CALLDATALOAD PUSH8 0xFFFFFFFFFFFFFFFF DUP2 GT ISZERO PUSH3 0x40D9 JUMPI PUSH3 0x40D9 PUSH3 0x3FC4 JUMP JUMPDEST PUSH1 0x40 MLOAD PUSH3 0x40F2 PUSH1 0x1F DUP4 ADD PUSH1 0x1F NOT AND PUSH1 0x20 ADD DUP3 PUSH3 0x3FDA JUMP JUMPDEST DUP2 DUP2 MSTORE DUP5 PUSH1 0x20 DUP4 DUP7 ADD ADD GT ISZERO PUSH3 0x4108 JUMPI PUSH1 0x0 DUP1 REVERT JUMPDEST DUP2 PUSH1 0x20 DUP6 ADD PUSH1 0x20 DUP4 ADD CALLDATACOPY PUSH1 0x0 SWAP2 DUP2 ADD PUSH1 0x20 ADD SWAP2 SWAP1 SWAP2 MSTORE SWAP4 SWAP3 POP POP POP JUMP JUMPDEST PUSH1 0x0 DUP1 PUSH1 0x0 DUP1 PUSH1 0x0 PUSH1 0xA0 DUP7 DUP9 SUB SLT ISZERO PUSH3 0x413E JUMPI PUSH1 0x0 DUP1 REVERT JUMPDEST PUSH3 0x4149 DUP7 PUSH3 0x3DFD JUMP JUMPDEST SWAP5 POP PUSH3 0x4159 PUSH1 0x20 DUP8 ADD PUSH3 0x3DFD JUMP JUMPDEST SWAP4 POP PUSH1 0x40 DUP7 ADD CALLDATALOAD PUSH8 0xFFFFFFFFFFFFFFFF DUP1 DUP3 GT ISZERO PUSH3 0x4177 JUMPI PUSH1 0x0 DUP1 REVERT JUMPDEST PUSH3 0x4185 DUP10 DUP4 DUP11 ADD PUSH3 0x4031 JUMP JUMPDEST SWAP5 POP PUSH1 0x60 DUP9 ADD CALLDATALOAD SWAP2 POP DUP1 DUP3 GT ISZERO PUSH3 0x419C JUMPI PUSH1 0x0 DUP1 REVERT JUMPDEST PUSH3 0x41AA DUP10 DUP4 DUP11 ADD PUSH3 0x4031 JUMP JUMPDEST SWAP4 POP PUSH1 0x80 DUP9 ADD CALLDATALOAD SWAP2 POP DUP1 DUP3 GT ISZERO PUSH3 0x41C1 JUMPI PUSH1 0x0 DUP1 REVERT JUMPDEST POP PUSH3 0x41D0 DUP9 DUP3 DUP10 ADD PUSH3 0x40AA JUMP JUMPDEST SWAP2 POP POP SWAP3 SWAP6 POP SWAP3 SWAP6 SWAP1 SWAP4 POP JUMP JUMPDEST PUSH1 0x0 DUP1 PUSH1 0x40 DUP4 DUP6 SUB SLT ISZERO PUSH3 0x41F1 JUMPI PUSH1 0x0 DUP1 REVERT JUMPDEST DUP3 CALLDATALOAD PUSH8 0xFFFFFFFFFFFFFFFF DUP1 DUP3 GT ISZERO PUSH3 0x420A JUMPI PUSH1 0x0 DUP1 REVERT JUMPDEST DUP2 DUP6 ADD SWAP2 POP DUP6 PUSH1 0x1F DUP4 ADD SLT PUSH3 0x421F JUMPI PUSH1 0x0 DUP1 REVERT JUMPDEST DUP2 CALLDATALOAD PUSH1 0x20 PUSH3 0x422E DUP3 PUSH3 0x400A JUMP JUMPDEST PUSH1 0x40 MLOAD PUSH3 0x423D DUP3 DUP3 PUSH3 0x3FDA JUMP JUMPDEST DUP4 DUP2 MSTORE PUSH1 0x5 SWAP4 SWAP1 SWAP4 SHL DUP6 ADD DUP3 ADD SWAP3 DUP3 DUP2 ADD SWAP2 POP DUP10 DUP5 GT ISZERO PUSH3 0x425E JUMPI PUSH1 0x0 DUP1 REVERT JUMPDEST SWAP5 DUP3 ADD SWAP5 JUMPDEST DUP4 DUP7 LT ISZERO PUSH3 0x4287 JUMPI PUSH3 0x4277 DUP7 PUSH3 0x3DFD JUMP JUMPDEST DUP3 MSTORE SWAP5 DUP3 ADD SWAP5 SWAP1 DUP3 ADD SWAP1 PUSH3 0x4263 JUMP JUMPDEST SWAP7 POP POP DUP7 ADD CALLDATALOAD SWAP3 POP POP DUP1 DUP3 GT ISZERO PUSH3 0x429E JUMPI PUSH1 0x0 DUP1 REVERT JUMPDEST POP PUSH3 0x42AD DUP6 DUP3 DUP7 ADD PUSH3 0x4031 JUMP JUMPDEST SWAP2 POP POP SWAP3 POP SWAP3 SWAP1 POP JUMP JUMPDEST PUSH1 0x0 DUP2 MLOAD DUP1 DUP5 MSTORE PUSH1 0x20 DUP1 DUP6 ADD SWAP5 POP DUP1 DUP5 ADD PUSH1 0x0 JUMPDEST DUP4 DUP2 LT ISZERO PUSH3 0x42E9 JUMPI DUP2 MLOAD DUP8 MSTORE SWAP6 DUP3 ADD SWAP6 SWAP1 DUP3 ADD SWAP1 PUSH1 0x1 ADD PUSH3 0x42CB JUMP JUMPDEST POP SWAP5 SWAP6 SWAP5 POP POP POP POP POP JUMP JUMPDEST PUSH1 0x20 DUP2 MSTORE PUSH1 0x0 PUSH3 0x3E7E PUSH1 0x20 DUP4 ADD DUP5 PUSH3 0x42B7 JUMP JUMPDEST PUSH1 0x0 PUSH1 0x20 DUP3 DUP5 SUB SLT ISZERO PUSH3 0x431C JUMPI PUSH1 0x0 DUP1 REVERT JUMPDEST DUP2 CALLDATALOAD PUSH8 0xFFFFFFFFFFFFFFFF DUP2 GT ISZERO PUSH3 0x4334 JUMPI PUSH1 0x0 DUP1 REVERT JUMPDEST PUSH3 0x4342 DUP5 DUP3 DUP6 ADD PUSH3 0x40AA JUMP JUMPDEST SWAP5 SWAP4 POP POP POP POP JUMP JUMPDEST PUSH1 0x0 DUP1 PUSH1 0x40 DUP4 DUP6 SUB SLT ISZERO PUSH3 0x435E JUMPI PUSH1 0x0 DUP1 REVERT JUMPDEST POP POP DUP1 CALLDATALOAD SWAP3 PUSH1 0x20 SWAP1 SWAP2 ADD CALLDATALOAD SWAP2 POP JUMP JUMPDEST PUSH1 0x0 DUP1 PUSH1 0x40 DUP4 DUP6 SUB SLT ISZERO PUSH3 0x4381 JUMPI PUSH1 0x0 DUP1 REVERT JUMPDEST DUP3 CALLDATALOAD PUSH8 0xFFFFFFFFFFFFFFFF DUP1 DUP3 GT ISZERO PUSH3 0x439A JUMPI PUSH1 0x0 DUP1 REVERT JUMPDEST PUSH3 0x43A8 DUP7 DUP4 DUP8 ADD PUSH3 0x40AA JUMP JUMPDEST SWAP4 POP PUSH1 0x20 DUP6 ADD CALLDATALOAD SWAP2 POP DUP1 DUP3 GT ISZERO PUSH3 0x43BF JUMPI PUSH1 0x0 DUP1 REVERT JUMPDEST POP PUSH3 0x42AD DUP6 DUP3 DUP7 ADD PUSH3 0x40AA JUMP JUMPDEST PUSH1 0x0 DUP1 PUSH1 0x40 DUP4 DUP6 SUB SLT ISZERO PUSH3 0x43E2 JUMPI PUSH1 0x0 DUP1 REVERT JUMPDEST PUSH3 0x43ED DUP4 PUSH3 0x3DFD JUMP JUMPDEST SWAP2 POP PUSH3 0x43FD PUSH1 0x20 DUP5 ADD PUSH3 0x3DFD JUMP JUMPDEST SWAP1 POP SWAP3 POP SWAP3 SWAP1 POP JUMP JUMPDEST PUSH1 0x0 DUP1 PUSH1 0x0 DUP1 PUSH1 0x0 PUSH1 0xA0 DUP7 DUP9 SUB SLT ISZERO PUSH3 0x441F JUMPI PUSH1 0x0 DUP1 REVERT JUMPDEST PUSH3 0x442A DUP7 PUSH3 0x3DFD JUMP JUMPDEST SWAP5 POP PUSH3 0x443A PUSH1 0x20 DUP8 ADD PUSH3 0x3DFD JUMP JUMPDEST SWAP4 POP PUSH1 0x40 DUP7 ADD CALLDATALOAD SWAP3 POP PUSH1 0x60 DUP7 ADD CALLDATALOAD SWAP2 POP PUSH1 0x80 DUP7 ADD CALLDATALOAD PUSH8 0xFFFFFFFFFFFFFFFF DUP2 GT ISZERO PUSH3 0x4465 JUMPI PUSH1 0x0 DUP1 REVERT JUMPDEST PUSH3 0x41D0 DUP9 DUP3 DUP10 ADD PUSH3 0x40AA JUMP JUMPDEST PUSH1 0x20 DUP2 MSTORE DUP2 MLOAD PUSH1 0x20 DUP3 ADD MSTORE PUSH1 0x0 PUSH1 0x20 DUP4 ADD MLOAD PUSH2 0x100 DUP1 PUSH1 0x40 DUP6 ADD MSTORE PUSH3 0x449E PUSH2 0x120 DUP6 ADD DUP4 PUSH3 0x3EC9 JUMP JUMPDEST SWAP2 POP PUSH1 0x1 DUP1 PUSH1 0xA0 SHL SUB PUSH1 0x40 DUP7 ADD MLOAD AND PUSH1 0x60 DUP6 ADD MSTORE PUSH1 0x60 DUP6 ADD MLOAD PUSH1 0x80 DUP6 ADD MSTORE PUSH1 0x80 DUP6 ADD MLOAD PUSH1 0xA0 DUP6 ADD MSTORE PUSH1 0xA0 DUP6 ADD MLOAD PUSH3 0x44E1 PUSH1 0xC0 DUP7 ADD DUP3 PUSH1 0x1 PUSH1 0x1 PUSH1 0xA0 SHL SUB AND SWAP1 MSTORE JUMP JUMPDEST POP PUSH1 0xC0 DUP6 ADD MLOAD PUSH1 0xE0 DUP6 ADD MSTORE PUSH1 0xE0 DUP6 ADD MLOAD PUSH1 0x1F NOT DUP6 DUP5 SUB ADD DUP3 DUP7 ADD MSTORE PUSH3 0x4508 DUP4 DUP3 PUSH3 0x3EC9 JUMP JUMPDEST SWAP7 SWAP6 POP POP POP POP POP POP JUMP JUMPDEST PUSH1 0x1 DUP2 DUP2 SHR SWAP1 DUP3 AND DUP1 PUSH3 0x4527 JUMPI PUSH1 0x7F DUP3 AND SWAP2 POP JUMPDEST PUSH1 0x20 DUP3 LT DUP2 SUB PUSH3 0x4548 JUMPI PUSH4 0x4E487B71 PUSH1 0xE0 SHL PUSH1 0x0 MSTORE PUSH1 0x22 PUSH1 0x4 MSTORE PUSH1 0x24 PUSH1 0x0 REVERT JUMPDEST POP SWAP2 SWAP1 POP JUMP JUMPDEST PUSH4 0x4E487B71 PUSH1 0xE0 SHL PUSH1 0x0 MSTORE PUSH1 0x11 PUSH1 0x4 MSTORE PUSH1 0x24 PUSH1 0x0 REVERT JUMPDEST DUP1 DUP3 MUL DUP2 ISZERO DUP3 DUP3 DIV DUP5 EQ OR PUSH3 0x1018 JUMPI PUSH3 0x1018 PUSH3 0x454E JUMP JUMPDEST PUSH1 0x0 DUP3 PUSH3 0x459C JUMPI PUSH4 0x4E487B71 PUSH1 0xE0 SHL PUSH1 0x0 MSTORE PUSH1 0x12 PUSH1 0x4 MSTORE PUSH1 0x24 PUSH1 0x0 REVERT JUMPDEST POP DIV SWAP1 JUMP JUMPDEST DUP2 DUP2 SUB DUP2 DUP2 GT ISZERO PUSH3 0x1018 JUMPI PUSH3 0x1018 PUSH3 0x454E JUMP JUMPDEST PUSH1 0x0 PUSH1 0x20 DUP3 DUP5 SUB SLT ISZERO PUSH3 0x45CA JUMPI PUSH1 0x0 DUP1 REVERT JUMPDEST DUP2 MLOAD PUSH3 0x3E7E DUP2 PUSH3 0x3F79 JUMP JUMPDEST DUP1 DUP3 ADD DUP1 DUP3 GT ISZERO PUSH3 0x1018 JUMPI PUSH3 0x1018 PUSH3 0x454E JUMP JUMPDEST PUSH1 0x20 DUP1 DUP3 MSTORE PUSH1 0xF SWAP1 DUP3 ADD MSTORE PUSH15 0x5374617475732069732066616C7365 PUSH1 0x88 SHL PUSH1 0x40 DUP3 ADD MSTORE PUSH1 0x60 ADD SWAP1 JUMP JUMPDEST PUSH4 0x4E487B71 PUSH1 0xE0 SHL PUSH1 0x0 MSTORE PUSH1 0x32 PUSH1 0x4 MSTORE PUSH1 0x24 PUSH1 0x0 REVERT JUMPDEST PUSH4 0x4E487B71 PUSH1 0xE0 SHL PUSH1 0x0 MSTORE PUSH1 0x31 PUSH1 0x4 MSTORE PUSH1 0x24 PUSH1 0x0 REVERT JUMPDEST PUSH1 0x0 PUSH1 0x1 DUP3 ADD PUSH3 0x4657 JUMPI PUSH3 0x4657 PUSH3 0x454E JUMP JUMPDEST POP PUSH1 0x1 ADD SWAP1 JUMP JUMPDEST PUSH1 0x0 PUSH1 0x20 DUP3 DUP5 SUB SLT ISZERO PUSH3 0x4671 JUMPI PUSH1 0x0 DUP1 REVERT JUMPDEST POP MLOAD SWAP2 SWAP1 POP JUMP JUMPDEST PUSH1 0x1F DUP3 GT ISZERO PUSH3 0x46C2 JUMPI PUSH1 0x0 DUP2 DUP2 MSTORE PUSH1 0x20 DUP2 KECCAK256 PUSH1 0x1F DUP6 ADD PUSH1 0x5 SHR DUP2 ADD PUSH1 0x20 DUP7 LT ISZERO PUSH3 0x46A1 JUMPI POP DUP1 JUMPDEST PUSH1 0x1F DUP6 ADD PUSH1 0x5 SHR DUP3 ADD SWAP2 POP JUMPDEST DUP2 DUP2 LT ISZERO PUSH3 0x2043 JUMPI DUP3 DUP2 SSTORE PUSH1 0x1 ADD PUSH3 0x46AD JUMP JUMPDEST POP POP POP JUMP JUMPDEST DUP2 MLOAD PUSH8 0xFFFFFFFFFFFFFFFF DUP2 GT ISZERO PUSH3 0x46E4 JUMPI PUSH3 0x46E4 PUSH3 0x3FC4 JUMP JUMPDEST PUSH3 0x46FC DUP2 PUSH3 0x46F5 DUP5 SLOAD PUSH3 0x4512 JUMP JUMPDEST DUP5 PUSH3 0x4678 JUMP JUMPDEST PUSH1 0x20 DUP1 PUSH1 0x1F DUP4 GT PUSH1 0x1 DUP2 EQ PUSH3 0x4734 JUMPI PUSH1 0x0 DUP5 ISZERO PUSH3 0x471B JUMPI POP DUP6 DUP4 ADD MLOAD JUMPDEST PUSH1 0x0 NOT PUSH1 0x3 DUP7 SWAP1 SHL SHR NOT AND PUSH1 0x1 DUP6 SWAP1 SHL OR DUP6 SSTORE PUSH3 0x2043 JUMP JUMPDEST PUSH1 0x0 DUP6 DUP2 MSTORE PUSH1 0x20 DUP2 KECCAK256 PUSH1 0x1F NOT DUP7 AND SWAP2 JUMPDEST DUP3 DUP2 LT ISZERO PUSH3 0x4765 JUMPI DUP9 DUP7 ADD MLOAD DUP3 SSTORE SWAP5 DUP5 ADD SWAP5 PUSH1 0x1 SWAP1 SWAP2 ADD SWAP1 DUP5 ADD PUSH3 0x4744 JUMP JUMPDEST POP DUP6 DUP3 LT ISZERO PUSH3 0x4784 JUMPI DUP8 DUP6 ADD MLOAD PUSH1 0x0 NOT PUSH1 0x3 DUP9 SWAP1 SHL PUSH1 0xF8 AND SHR NOT AND DUP2 SSTORE JUMPDEST POP POP POP POP POP PUSH1 0x1 SWAP1 DUP2 SHL ADD SWAP1 SSTORE POP JUMP JUMPDEST PUSH1 0x0 DUP3 MLOAD PUSH3 0x47A8 DUP2 DUP5 PUSH1 0x20 DUP8 ADD PUSH3 0x3EA3 JUMP JUMPDEST SWAP2 SWAP1 SWAP2 ADD SWAP3 SWAP2 POP POP JUMP JUMPDEST PUSH1 0x40 DUP2 MSTORE PUSH1 0x0 PUSH3 0x47C7 PUSH1 0x40 DUP4 ADD DUP6 PUSH3 0x42B7 JUMP JUMPDEST DUP3 DUP2 SUB PUSH1 0x20 DUP5 ADD MSTORE PUSH3 0x47DB DUP2 DUP6 PUSH3 0x42B7 JUMP JUMPDEST SWAP6 SWAP5 POP POP POP POP POP JUMP JUMPDEST PUSH1 0x1 PUSH1 0x1 PUSH1 0xA0 SHL SUB DUP7 DUP2 AND DUP3 MSTORE DUP6 AND PUSH1 0x20 DUP3 ADD MSTORE PUSH1 0xA0 PUSH1 0x40 DUP3 ADD DUP2 SWAP1 MSTORE PUSH1 0x0 SWAP1 PUSH3 0x4812 SWAP1 DUP4 ADD DUP7 PUSH3 0x42B7 JUMP JUMPDEST DUP3 DUP2 SUB PUSH1 0x60 DUP5 ADD MSTORE PUSH3 0x4826 DUP2 DUP7 PUSH3 0x42B7 JUMP JUMPDEST SWAP1 POP DUP3 DUP2 SUB PUSH1 0x80 DUP5 ADD MSTORE PUSH3 0x483C DUP2 DUP6 PUSH3 0x3EC9 JUMP JUMPDEST SWAP9 SWAP8 POP POP POP POP POP POP POP POP JUMP JUMPDEST PUSH1 0x0 PUSH1 0x20 DUP3 DUP5 SUB SLT ISZERO PUSH3 0x485B JUMPI PUSH1 0x0 DUP1 REVERT JUMPDEST DUP2 MLOAD PUSH3 0x3E7E DUP2 PUSH3 0x3E47 JUMP JUMPDEST PUSH1 0x0 PUSH1 0x3 RETURNDATASIZE GT ISZERO PUSH3 0x4882 JUMPI PUSH1 0x4 PUSH1 0x0 DUP1 RETURNDATACOPY POP PUSH1 0x0 MLOAD PUSH1 0xE0 SHR JUMPDEST SWAP1 JUMP JUMPDEST PUSH1 0x0 PUSH1 0x44 RETURNDATASIZE LT ISZERO PUSH3 0x4894 JUMPI SWAP1 JUMP JUMPDEST PUSH1 0x40 MLOAD PUSH1 0x3 NOT RETURNDATASIZE DUP2 ADD PUSH1 0x4 DUP4 RETURNDATACOPY DUP2 MLOAD RETURNDATASIZE PUSH8 0xFFFFFFFFFFFFFFFF DUP2 PUSH1 0x24 DUP5 ADD GT DUP2 DUP5 GT OR ISZERO PUSH3 0x48C5 JUMPI POP POP POP POP POP SWAP1 JUMP JUMPDEST DUP3 DUP6 ADD SWAP2 POP DUP2 MLOAD DUP2 DUP2 GT ISZERO PUSH3 0x48DE JUMPI POP POP POP POP POP POP SWAP1 JUMP JUMPDEST DUP5 RETURNDATASIZE DUP8 ADD ADD PUSH1 0x20 DUP3 DUP6 ADD ADD GT ISZERO PUSH3 0x48F9 JUMPI POP POP POP POP POP POP SWAP1 JUMP JUMPDEST PUSH3 0x490A PUSH1 0x20 DUP3 DUP7 ADD ADD DUP8 PUSH3 0x3FDA JUMP JUMPDEST POP SWAP1 SWAP6 SWAP5 POP POP POP POP POP JUMP JUMPDEST PUSH1 0x20 DUP1 DUP3 MSTORE PUSH1 0x28 SWAP1 DUP3 ADD MSTORE PUSH32 0x455243313135353A204552433131353552656365697665722072656A65637465 PUSH1 0x40 DUP3 ADD MSTORE PUSH8 0x6420746F6B656E73 PUSH1 0xC0 SHL PUSH1 0x60 DUP3 ADD MSTORE PUSH1 0x80 ADD SWAP1 JUMP JUMPDEST PUSH1 0x1 PUSH1 0x1 PUSH1 0xA0 SHL SUB DUP7 DUP2 AND DUP3 MSTORE DUP6 AND PUSH1 0x20 DUP3 ADD MSTORE PUSH1 0x40 DUP2 ADD DUP5 SWAP1 MSTORE PUSH1 0x60 DUP2 ADD DUP4 SWAP1 MSTORE PUSH1 0xA0 PUSH1 0x80 DUP3 ADD DUP2 SWAP1 MSTORE PUSH1 0x0 SWAP1 PUSH3 0x4999 SWAP1 DUP4 ADD DUP5 PUSH3 0x3EC9 JUMP JUMPDEST SWAP8 SWAP7 POP POP POP POP POP POP POP JUMP INVALID PUSH1 0x80 PUSH1 0x40 MSTORE CALLVALUE DUP1 ISZERO PUSH2 0x10 JUMPI PUSH1 0x0 DUP1 REVERT JUMPDEST POP PUSH1 0x40 MLOAD PUSH2 0x95C CODESIZE SUB DUP1 PUSH2 0x95C DUP4 CODECOPY DUP2 ADD PUSH1 0x40 DUP2 SWAP1 MSTORE PUSH2 0x2F SWAP2 PUSH2 0x78 JUMP JUMPDEST PUSH1 0x3 DUP1 SLOAD PUSH1 0x1 PUSH1 0x1 PUSH1 0xA0 SHL SUB SWAP4 DUP5 AND PUSH1 0x1 PUSH1 0x1 PUSH1 0xA0 SHL SUB NOT SWAP2 DUP3 AND OR SWAP1 SWAP2 SSTORE PUSH1 0x4 DUP1 SLOAD SWAP3 SWAP1 SWAP4 AND SWAP2 AND OR SWAP1 SSTORE PUSH2 0xB2 JUMP JUMPDEST PUSH1 0x1 PUSH1 0x1 PUSH1 0xA0 SHL SUB DUP2 AND DUP2 EQ PUSH2 0x75 JUMPI PUSH1 0x0 DUP1 REVERT JUMPDEST POP JUMP JUMPDEST PUSH1 0x0 DUP1 PUSH1 0x40 DUP4 DUP6 SUB SLT ISZERO PUSH2 0x8B JUMPI PUSH1 0x0 DUP1 REVERT JUMPDEST DUP3 MLOAD PUSH2 0x96 DUP2 PUSH2 0x60 JUMP JUMPDEST PUSH1 0x20 DUP5 ADD MLOAD SWAP1 SWAP3 POP PUSH2 0xA7 DUP2 PUSH2 0x60 JUMP JUMPDEST DUP1 SWAP2 POP POP SWAP3 POP SWAP3 SWAP1 POP JUMP JUMPDEST PUSH2 0x89B DUP1 PUSH2 0xC1 PUSH1 0x0 CODECOPY PUSH1 0x0 RETURN INVALID PUSH1 0x80 PUSH1 0x40 MSTORE CALLVALUE DUP1 ISZERO PUSH2 0x10 JUMPI PUSH1 0x0 DUP1 REVERT JUMPDEST POP PUSH1 0x4 CALLDATASIZE LT PUSH2 0x100 JUMPI PUSH1 0x0 CALLDATALOAD PUSH1 0xE0 SHR DUP1 PUSH4 0x8FC99EA3 GT PUSH2 0x97 JUMPI DUP1 PUSH4 0xD7081E03 GT PUSH2 0x66 JUMPI DUP1 PUSH4 0xD7081E03 EQ PUSH2 0x21B JUMPI DUP1 PUSH4 0xE7EE6AD6 EQ PUSH2 0x22E JUMPI DUP1 PUSH4 0xF851A440 EQ PUSH2 0x241 JUMPI DUP1 PUSH4 0xFA46B690 EQ PUSH2 0x254 JUMPI PUSH1 0x0 DUP1 REVERT JUMPDEST DUP1 PUSH4 0x8FC99EA3 EQ PUSH2 0x1BF JUMPI DUP1 PUSH4 0xAC4CE2C6 EQ PUSH2 0x1E3 JUMPI DUP1 PUSH4 0xAD5C4648 EQ PUSH2 0x1F6 JUMPI DUP1 PUSH4 0xB8AC457B EQ PUSH2 0x209 JUMPI PUSH1 0x0 DUP1 REVERT JUMPDEST DUP1 PUSH4 0x38EADA1C GT PUSH2 0xD3 JUMPI DUP1 PUSH4 0x38EADA1C EQ PUSH2 0x170 JUMPI DUP1 PUSH4 0x46DF2CCB EQ PUSH2 0x183 JUMPI DUP1 PUSH4 0x6711BE0E EQ PUSH2 0x196 JUMPI DUP1 PUSH4 0x70CA09BC EQ PUSH2 0x1AC JUMPI PUSH1 0x0 DUP1 REVERT JUMPDEST DUP1 PUSH4 0x9F14A5C EQ PUSH2 0x105 JUMPI DUP1 PUSH4 0x144FA6D7 EQ PUSH2 0x11A JUMPI DUP1 PUSH4 0x1DE1E2AC EQ PUSH2 0x12D JUMPI DUP1 PUSH4 0x31678CF6 EQ PUSH2 0x15D JUMPI JUMPDEST PUSH1 0x0 DUP1 REVERT JUMPDEST PUSH2 0x118 PUSH2 0x113 CALLDATASIZE PUSH1 0x4 PUSH2 0x6EF JUMP JUMPDEST PUSH2 0x25C JUMP JUMPDEST STOP JUMPDEST PUSH2 0x118 PUSH2 0x128 CALLDATASIZE PUSH1 0x4 PUSH2 0x71D JUMP JUMPDEST PUSH2 0x2A8 JUMP JUMPDEST PUSH2 0x140 PUSH2 0x13B CALLDATASIZE PUSH1 0x4 PUSH2 0x6EF JUMP JUMPDEST PUSH2 0x2E1 JUMP JUMPDEST PUSH1 0x40 MLOAD PUSH1 0x1 PUSH1 0x1 PUSH1 0xA0 SHL SUB SWAP1 SWAP2 AND DUP2 MSTORE PUSH1 0x20 ADD JUMPDEST PUSH1 0x40 MLOAD DUP1 SWAP2 SUB SWAP1 RETURN JUMPDEST PUSH2 0x118 PUSH2 0x16B CALLDATASIZE PUSH1 0x4 PUSH2 0x741 JUMP JUMPDEST PUSH2 0x30B JUMP JUMPDEST PUSH2 0x118 PUSH2 0x17E CALLDATASIZE PUSH1 0x4 PUSH2 0x71D JUMP JUMPDEST PUSH2 0x392 JUMP JUMPDEST PUSH2 0x118 PUSH2 0x191 CALLDATASIZE PUSH1 0x4 PUSH2 0x77A JUMP JUMPDEST PUSH2 0x3FA JUMP JUMPDEST PUSH2 0x19E PUSH2 0x435 JUMP JUMPDEST PUSH1 0x40 MLOAD SWAP1 DUP2 MSTORE PUSH1 0x20 ADD PUSH2 0x154 JUMP JUMPDEST PUSH1 0x4 SLOAD PUSH2 0x140 SWAP1 PUSH1 0x1 PUSH1 0x1 PUSH1 0xA0 SHL SUB AND DUP2 JUMP JUMPDEST PUSH1 0x4 SLOAD PUSH2 0x1D3 SWAP1 PUSH1 0x1 PUSH1 0xA0 SHL SWAP1 DIV PUSH1 0xFF AND DUP2 JUMP JUMPDEST PUSH1 0x40 MLOAD SWAP1 ISZERO ISZERO DUP2 MSTORE PUSH1 0x20 ADD PUSH2 0x154 JUMP JUMPDEST PUSH2 0x118 PUSH2 0x1F1 CALLDATASIZE PUSH1 0x4 PUSH2 0x79C JUMP JUMPDEST PUSH2 0x4A7 JUMP JUMPDEST PUSH1 0x0 SLOAD PUSH2 0x140 SWAP1 PUSH1 0x1 PUSH1 0x1 PUSH1 0xA0 SHL SUB AND DUP2 JUMP JUMPDEST PUSH1 0x4 SLOAD PUSH1 0x1 PUSH1 0xA0 SHL SWAP1 DIV PUSH1 0xFF AND PUSH2 0x1D3 JUMP JUMPDEST PUSH2 0x118 PUSH2 0x229 CALLDATASIZE PUSH1 0x4 PUSH2 0x7C1 JUMP JUMPDEST PUSH2 0x504 JUMP JUMPDEST PUSH2 0x19E PUSH2 0x23C CALLDATASIZE PUSH1 0x4 PUSH2 0x6EF JUMP JUMPDEST PUSH2 0x5DA JUMP JUMPDEST PUSH1 0x3 SLOAD PUSH2 0x140 SWAP1 PUSH1 0x1 PUSH1 0x1 PUSH1 0xA0 SHL SUB AND DUP2 JUMP JUMPDEST PUSH2 0x118 PUSH2 0x5FB JUMP JUMPDEST PUSH1 0x3 SLOAD PUSH1 0x1 PUSH1 0x1 PUSH1 0xA0 SHL SUB AND CALLER EQ PUSH2 0x273 JUMPI PUSH1 0x0 DUP1 REVERT JUMPDEST PUSH1 0x2 DUP1 SLOAD PUSH1 0x1 DUP2 ADD DUP3 SSTORE PUSH1 0x0 SWAP2 SWAP1 SWAP2 MSTORE PUSH32 0x405787FA12A823E0F2B7631CC41B3BA8828B3321CA811111FA75CD3AA3BB5ACE ADD SSTORE JUMP JUMPDEST PUSH1 0x3 SLOAD PUSH1 0x1 PUSH1 0x1 PUSH1 0xA0 SHL SUB AND CALLER EQ PUSH2 0x2BF JUMPI PUSH1 0x0 DUP1 REVERT JUMPDEST PUSH1 0x0 DUP1 SLOAD PUSH1 0x1 PUSH1 0x1 PUSH1 0xA0 SHL SUB NOT AND PUSH1 0x1 PUSH1 0x1 PUSH1 0xA0 SHL SUB SWAP3 SWAP1 SWAP3 AND SWAP2 SWAP1 SWAP2 OR SWAP1 SSTORE JUMP JUMPDEST PUSH1 0x1 DUP2 DUP2 SLOAD DUP2 LT PUSH2 0x2F1 JUMPI PUSH1 0x0 DUP1 REVERT JUMPDEST PUSH1 0x0 SWAP2 DUP3 MSTORE PUSH1 0x20 SWAP1 SWAP2 KECCAK256 ADD SLOAD PUSH1 0x1 PUSH1 0x1 PUSH1 0xA0 SHL SUB AND SWAP1 POP DUP2 JUMP JUMPDEST PUSH1 0x4 SLOAD PUSH1 0x1 PUSH1 0x1 PUSH1 0xA0 SHL SUB AND CALLER EQ DUP1 ISZERO PUSH2 0x332 JUMPI POP PUSH1 0x3 SLOAD PUSH1 0x1 PUSH1 0x1 PUSH1 0xA0 SHL SUB DUP4 DUP2 AND SWAP2 AND EQ JUMPDEST PUSH2 0x36F JUMPI PUSH1 0x40 MLOAD PUSH3 0x461BCD PUSH1 0xE5 SHL DUP2 MSTORE PUSH1 0x20 PUSH1 0x4 DUP3 ADD MSTORE PUSH1 0x9 PUSH1 0x24 DUP3 ADD MSTORE PUSH9 0x6E6F20616363657373 PUSH1 0xB8 SHL PUSH1 0x44 DUP3 ADD MSTORE PUSH1 0x64 ADD JUMPDEST PUSH1 0x40 MLOAD DUP1 SWAP2 SUB SWAP1 REVERT JUMPDEST PUSH1 0x3 DUP1 SLOAD PUSH1 0x1 PUSH1 0x1 PUSH1 0xA0 SHL SUB NOT AND PUSH1 0x1 PUSH1 0x1 PUSH1 0xA0 SHL SUB SWAP3 SWAP1 SWAP3 AND SWAP2 SWAP1 SWAP2 OR SWAP1 SSTORE POP JUMP JUMPDEST PUSH1 0x3 SLOAD PUSH1 0x1 PUSH1 0x1 PUSH1 0xA0 SHL SUB AND CALLER EQ PUSH2 0x3A9 JUMPI PUSH1 0x0 DUP1 REVERT JUMPDEST PUSH1 0x1 DUP1 SLOAD DUP1 DUP3 ADD DUP3 SSTORE PUSH1 0x0 SWAP2 SWAP1 SWAP2 MSTORE PUSH32 0xB10E2D527612073B26EECDFD717E6A320CF44B4AFAC2B0732D9FCBE2B7FA0CF6 ADD DUP1 SLOAD PUSH1 0x1 PUSH1 0x1 PUSH1 0xA0 SHL SUB NOT AND PUSH1 0x1 PUSH1 0x1 PUSH1 0xA0 SHL SUB SWAP3 SWAP1 SWAP3 AND SWAP2 SWAP1 SWAP2 OR SWAP1 SSTORE JUMP JUMPDEST PUSH1 0x3 SLOAD PUSH1 0x1 PUSH1 0x1 PUSH1 0xA0 SHL SUB AND CALLER EQ PUSH2 0x411 JUMPI PUSH1 0x0 DUP1 REVERT JUMPDEST DUP1 PUSH1 0x2 DUP4 DUP2 SLOAD DUP2 LT PUSH2 0x425 JUMPI PUSH2 0x425 PUSH2 0x7ED JUMP JUMPDEST PUSH1 0x0 SWAP2 DUP3 MSTORE PUSH1 0x20 SWAP1 SWAP2 KECCAK256 ADD SSTORE POP POP JUMP JUMPDEST PUSH1 0x0 DUP1 SLOAD PUSH1 0x40 MLOAD PUSH4 0x70A08231 PUSH1 0xE0 SHL DUP2 MSTORE ADDRESS PUSH1 0x4 DUP3 ADD MSTORE PUSH1 0x1 PUSH1 0x1 PUSH1 0xA0 SHL SUB SWAP1 SWAP2 AND SWAP1 PUSH4 0x70A08231 SWAP1 PUSH1 0x24 ADD PUSH1 0x20 PUSH1 0x40 MLOAD DUP1 DUP4 SUB DUP2 DUP7 GAS STATICCALL ISZERO DUP1 ISZERO PUSH2 0x47E JUMPI RETURNDATASIZE PUSH1 0x0 DUP1 RETURNDATACOPY RETURNDATASIZE PUSH1 0x0 REVERT JUMPDEST POP POP POP POP PUSH1 0x40 MLOAD RETURNDATASIZE PUSH1 0x1F NOT PUSH1 0x1F DUP3 ADD AND DUP3 ADD DUP1 PUSH1 0x40 MSTORE POP DUP2 ADD SWAP1 PUSH2 0x4A2 SWAP2 SWAP1 PUSH2 0x803 JUMP JUMPDEST SWAP1 POP SWAP1 JUMP JUMPDEST PUSH1 0x3 SLOAD PUSH1 0x1 PUSH1 0x1 PUSH1 0xA0 SHL SUB AND CALLER EQ PUSH2 0x4BE JUMPI PUSH1 0x0 DUP1 REVERT JUMPDEST DUP1 PUSH1 0x1 DUP4 DUP2 SLOAD DUP2 LT PUSH2 0x4D2 JUMPI PUSH2 0x4D2 PUSH2 0x7ED JUMP JUMPDEST SWAP1 PUSH1 0x0 MSTORE PUSH1 0x20 PUSH1 0x0 KECCAK256 ADD PUSH1 0x0 PUSH2 0x100 EXP DUP2 SLOAD DUP2 PUSH1 0x1 PUSH1 0x1 PUSH1 0xA0 SHL SUB MUL NOT AND SWAP1 DUP4 PUSH1 0x1 PUSH1 0x1 PUSH1 0xA0 SHL SUB AND MUL OR SWAP1 SSTORE POP POP POP JUMP JUMPDEST PUSH1 0x3 SLOAD PUSH1 0x1 PUSH1 0x1 PUSH1 0xA0 SHL SUB AND CALLER EQ PUSH2 0x51B JUMPI PUSH1 0x0 DUP1 REVERT JUMPDEST PUSH1 0x0 PUSH2 0x525 PUSH2 0x435 JUMP JUMPDEST GT PUSH2 0x55E JUMPI PUSH1 0x40 MLOAD PUSH3 0x461BCD PUSH1 0xE5 SHL DUP2 MSTORE PUSH1 0x20 PUSH1 0x4 DUP3 ADD MSTORE PUSH1 0x9 PUSH1 0x24 DUP3 ADD MSTORE PUSH9 0x1B9BC8185B5BDD5B9D PUSH1 0xBA SHL PUSH1 0x44 DUP3 ADD MSTORE PUSH1 0x64 ADD PUSH2 0x366 JUMP JUMPDEST PUSH1 0x0 SLOAD PUSH1 0x40 MLOAD PUSH4 0xA9059CBB PUSH1 0xE0 SHL DUP2 MSTORE PUSH1 0x1 PUSH1 0x1 PUSH1 0xA0 SHL SUB DUP5 DUP2 AND PUSH1 0x4 DUP4 ADD MSTORE PUSH1 0x24 DUP3 ADD DUP5 SWAP1 MSTORE SWAP1 SWAP2 AND SWAP1 PUSH4 0xA9059CBB SWAP1 PUSH1 0x44 ADD PUSH1 0x20 PUSH1 0x40 MLOAD DUP1 DUP4 SUB DUP2 PUSH1 0x0 DUP8 GAS CALL ISZERO DUP1 ISZERO PUSH2 0x5B1 JUMPI RETURNDATASIZE PUSH1 0x0 DUP1 RETURNDATACOPY RETURNDATASIZE PUSH1 0x0 REVERT JUMPDEST POP POP POP POP PUSH1 0x40 MLOAD RETURNDATASIZE PUSH1 0x1F NOT PUSH1 0x1F DUP3 ADD AND DUP3 ADD DUP1 PUSH1 0x40 MSTORE POP DUP2 ADD SWAP1 PUSH2 0x5D5 SWAP2 SWAP1 PUSH2 0x81C JUMP JUMPDEST POP POP POP JUMP JUMPDEST PUSH1 0x2 DUP2 DUP2 SLOAD DUP2 LT PUSH2 0x5EA JUMPI PUSH1 0x0 DUP1 REVERT JUMPDEST PUSH1 0x0 SWAP2 DUP3 MSTORE PUSH1 0x20 SWAP1 SWAP2 KECCAK256 ADD SLOAD SWAP1 POP DUP2 JUMP JUMPDEST PUSH1 0x0 JUMPDEST PUSH1 0x1 SLOAD DUP2 LT ISZERO PUSH2 0x6EC JUMPI PUSH1 0x0 SLOAD PUSH1 0x1 DUP1 SLOAD PUSH1 0x1 PUSH1 0x1 PUSH1 0xA0 SHL SUB SWAP1 SWAP3 AND SWAP2 PUSH4 0xA9059CBB SWAP2 SWAP1 DUP5 SWAP1 DUP2 LT PUSH2 0x632 JUMPI PUSH2 0x632 PUSH2 0x7ED JUMP JUMPDEST PUSH1 0x0 SWAP2 DUP3 MSTORE PUSH1 0x20 SWAP1 SWAP2 KECCAK256 ADD SLOAD PUSH1 0x2 DUP1 SLOAD PUSH1 0x1 PUSH1 0x1 PUSH1 0xA0 SHL SUB SWAP1 SWAP3 AND SWAP2 DUP6 SWAP1 DUP2 LT PUSH2 0x65E JUMPI PUSH2 0x65E PUSH2 0x7ED JUMP JUMPDEST PUSH1 0x0 SWAP2 DUP3 MSTORE PUSH1 0x20 SWAP1 SWAP2 KECCAK256 ADD SLOAD PUSH1 0x40 MLOAD PUSH1 0x1 PUSH1 0x1 PUSH1 0xE0 SHL SUB NOT PUSH1 0xE0 DUP6 SWAP1 SHL AND DUP2 MSTORE PUSH1 0x1 PUSH1 0x1 PUSH1 0xA0 SHL SUB SWAP1 SWAP3 AND PUSH1 0x4 DUP4 ADD MSTORE PUSH1 0x24 DUP3 ADD MSTORE PUSH1 0x44 ADD PUSH1 0x20 PUSH1 0x40 MLOAD DUP1 DUP4 SUB DUP2 PUSH1 0x0 DUP8 GAS CALL ISZERO DUP1 ISZERO PUSH2 0x6B5 JUMPI RETURNDATASIZE PUSH1 0x0 DUP1 RETURNDATACOPY RETURNDATASIZE PUSH1 0x0 REVERT JUMPDEST POP POP POP POP PUSH1 0x40 MLOAD RETURNDATASIZE PUSH1 0x1F NOT PUSH1 0x1F DUP3 ADD AND DUP3 ADD DUP1 PUSH1 0x40 MSTORE POP DUP2 ADD SWAP1 PUSH2 0x6D9 SWAP2 SWAP1 PUSH2 0x81C JUMP JUMPDEST POP DUP1 PUSH2 0x6E4 DUP2 PUSH2 0x83E JUMP JUMPDEST SWAP2 POP POP PUSH2 0x5FE JUMP JUMPDEST POP JUMP JUMPDEST PUSH1 0x0 PUSH1 0x20 DUP3 DUP5 SUB SLT ISZERO PUSH2 0x701 JUMPI PUSH1 0x0 DUP1 REVERT JUMPDEST POP CALLDATALOAD SWAP2 SWAP1 POP JUMP JUMPDEST PUSH1 0x1 PUSH1 0x1 PUSH1 0xA0 SHL SUB DUP2 AND DUP2 EQ PUSH2 0x6EC JUMPI PUSH1 0x0 DUP1 REVERT JUMPDEST PUSH1 0x0 PUSH1 0x20 DUP3 DUP5 SUB SLT ISZERO PUSH2 0x72F JUMPI PUSH1 0x0 DUP1 REVERT JUMPDEST DUP2 CALLDATALOAD PUSH2 0x73A DUP2 PUSH2 0x708 JUMP JUMPDEST SWAP4 SWAP3 POP POP POP JUMP JUMPDEST PUSH1 0x0 DUP1 PUSH1 0x40 DUP4 DUP6 SUB SLT ISZERO PUSH2 0x754 JUMPI PUSH1 0x0 DUP1 REVERT JUMPDEST DUP3 CALLDATALOAD PUSH2 0x75F DUP2 PUSH2 0x708 JUMP JUMPDEST SWAP2 POP PUSH1 0x20 DUP4 ADD CALLDATALOAD PUSH2 0x76F DUP2 PUSH2 0x708 JUMP JUMPDEST DUP1 SWAP2 POP POP SWAP3 POP SWAP3 SWAP1 POP JUMP JUMPDEST PUSH1 0x0 DUP1 PUSH1 0x40 DUP4 DUP6 SUB SLT ISZERO PUSH2 0x78D JUMPI PUSH1 0x0 DUP1 REVERT JUMPDEST POP POP DUP1 CALLDATALOAD SWAP3 PUSH1 0x20 SWAP1 SWAP2 ADD CALLDATALOAD SWAP2 POP JUMP JUMPDEST PUSH1 0x0 DUP1 PUSH1 0x40 DUP4 DUP6 SUB SLT ISZERO PUSH2 0x7AF JUMPI PUSH1 0x0 DUP1 REVERT JUMPDEST DUP3 CALLDATALOAD SWAP2 POP PUSH1 0x20 DUP4 ADD CALLDATALOAD PUSH2 0x76F DUP2 PUSH2 0x708 JUMP JUMPDEST PUSH1 0x0 DUP1 PUSH1 0x40 DUP4 DUP6 SUB SLT ISZERO PUSH2 0x7D4 JUMPI PUSH1 0x0 DUP1 REVERT JUMPDEST DUP3 CALLDATALOAD PUSH2 0x7DF DUP2 PUSH2 0x708 JUMP JUMPDEST SWAP5 PUSH1 0x20 SWAP4 SWAP1 SWAP4 ADD CALLDATALOAD SWAP4 POP POP POP JUMP JUMPDEST PUSH4 0x4E487B71 PUSH1 0xE0 SHL PUSH1 0x0 MSTORE PUSH1 0x32 PUSH1 0x4 MSTORE PUSH1 0x24 PUSH1 0x0 REVERT JUMPDEST PUSH1 0x0 PUSH1 0x20 DUP3 DUP5 SUB SLT ISZERO PUSH2 0x815 JUMPI PUSH1 0x0 DUP1 REVERT JUMPDEST POP MLOAD SWAP2 SWAP1 POP JUMP JUMPDEST PUSH1 0x0 PUSH1 0x20 DUP3 DUP5 SUB SLT ISZERO PUSH2 0x82E JUMPI PUSH1 0x0 DUP1 REVERT JUMPDEST DUP2 MLOAD DUP1 ISZERO ISZERO DUP2 EQ PUSH2 0x73A JUMPI PUSH1 0x0 DUP1 REVERT JUMPDEST PUSH1 0x0 PUSH1 0x1 DUP3 ADD PUSH2 0x85E JUMPI PUSH4 0x4E487B71 PUSH1 0xE0 SHL PUSH1 0x0 MSTORE PUSH1 0x11 PUSH1 0x4 MSTORE PUSH1 0x24 PUSH1 0x0 REVERT JUMPDEST POP PUSH1 0x1 ADD SWAP1 JUMP INVALID LOG2 PUSH5 0x6970667358 0x22 SLT KECCAK256 0xCD CALL DUP5 ISZERO MSTORE8 DUP3 PUSH20 0x333884173F95226F119BB1D1B6D9F7AEE243C037 LOG0 SHR SWAP13 PUSH32 0xB464736F6C63430008120033A26469706673582212204F02037E35A0A2082F84 0xBD 0xE0 0x2E PUSH31 0xEEE31AB1371F6057B6AF4635ECB243FCF0D64736F6C634300081200330000 "
		},
		"gasEstimates": {
			"creation": {
				"codeDepositCost": "4260400",
				"executionCost": "infinite",
				"totalCost": "infinite"
			},
			"external": {
				"Reputation()": "2471",
				"activationScore()": "2419",
				"backToken()": "infinite",
				"balanceOf(address,uint256)": "2768",
				"balanceOfBatch(address[],uint256[])": "infinite",
				"changeNodeAdmin(address)": "infinite",
				"checkCity(string)": "infinite",
				"checkCityNodeId()": "2483",
				"cityNodeAdmin(uint256)": "2568",
				"cityNodeCreater(address)": "2599",
				"cityNodeIncome(address,uint256)": "29161",
				"cityNodeIncomeAmount(uint256)": "2582",
				"cityNodeInfos(uint256)": "infinite",
				"cityNodeMember(uint256,uint256)": "4772",
				"cityNodeTreasuryAddr(address)": "9179",
				"cityNodeUserNum(address)": "2621",
				"contractStatus()": "2417",
				"createCityNode(string,string)": "infinite",
				"creationScore()": "2394",
				"ctiyNodeId()": "2351",
				"deleteCityNodeUser(address)": "infinite",
				"fdTokenAddress()": "2449",
				"fdtToken()": "2471",
				"fireSeed()": "2426",
				"fireSoul()": "2472",
				"getCityNodeAdmin(address)": "4829",
				"getCityNodeLength()": "2371",
				"getCityNodeMemberLength(uint256)": "2516",
				"getCityNodeReputation(uint256)": "infinite",
				"getIsCityNode(address,uint256)": "infinite",
				"getUserInNodeInfo(address)": "infinite",
				"idOfNodeInfo(uint256)": "infinite",
				"idToNodeTreasury(uint256)": "2567",
				"isApprovedForAll(address,address)": "infinite",
				"isNotCityNodeLight(address)": "4788",
				"isNotCityNodeUser(address)": "2664",
				"isNotCityNodeUsers(address)": "2684",
				"isNotLightCity(uint256)": "2519",
				"joinCityNode(uint256)": "infinite",
				"lightCityNode()": "infinite",
				"nodeIdInfo(uint256)": "infinite",
				"nodeInfo(string)": "infinite",
				"nodeTreasuryAdmin(address)": "2670",
				"owner()": "2400",
				"pauseAddress()": "2471",
				"proportion()": "2374",
				"quitCityNode(uint256)": "infinite",
				"renounceOwnership()": "infinite",
				"safeBatchTransferFrom(address,address,uint256[],uint256[],bytes)": "infinite",
				"safeTransferFrom(address,address,uint256,uint256,bytes)": "infinite",
				"setActivationScore(uint256)": "24601",
				"setApprovalForAll(address,bool)": "26780",
				"setCreationScore(uint256)": "24600",
				"setFdTokenAddress(address)": "26802",
				"setFireSeedAddress(address)": "26871",
				"setFireSoulAddress(address)": "26826",
				"setPause()": "26691",
				"setPause(address)": "26846",
				"setProportion(uint256)": "24558",
				"setReputationAddress(address)": "26825",
				"setWhiteUser(address,bool)": "26955",
				"setfdtTokenAddr(address)": "26868",
				"supportsInterface(bytes4)": "646",
				"transferOwnership(address)": "28424",
				"uri(uint256)": "infinite",
				"userInNodeInfo(address)": "infinite",
				"userTax(address)": "2641",
				"weth()": "2406",
				"whiteUser(address)": "2643"
			}
		},
		"methodIdentifiers": {
			"Reputation()": "9904ed8d",
			"activationScore()": "0dae30db",
			"backToken()": "861faf5f",
			"balanceOf(address,uint256)": "00fdd58e",
			"balanceOfBatch(address[],uint256[])": "4e1273f4",
			"changeNodeAdmin(address)": "8c063a02",
			"checkCity(string)": "913e1063",
			"checkCityNodeId()": "39a98804",
			"cityNodeAdmin(uint256)": "149a75d6",
			"cityNodeCreater(address)": "bb667474",
			"cityNodeIncome(address,uint256)": "f3e0fb38",
			"cityNodeIncomeAmount(uint256)": "b882a0bb",
			"cityNodeInfos(uint256)": "47834e0c",
			"cityNodeMember(uint256,uint256)": "de97c262",
			"cityNodeTreasuryAddr(address)": "4d64e73a",
			"cityNodeUserNum(address)": "0c40fdfd",
			"contractStatus()": "c6ee20d2",
			"createCityNode(string,string)": "e458a888",
			"creationScore()": "f3a2937e",
			"ctiyNodeId()": "b0005ff8",
			"deleteCityNodeUser(address)": "95482768",
			"fdTokenAddress()": "62f3ccba",
			"fdtToken()": "ad685950",
			"fireSeed()": "78cb7539",
			"fireSoul()": "1a5ef71c",
			"getCityNodeAdmin(address)": "53340dc3",
			"getCityNodeLength()": "a3f9c8cb",
			"getCityNodeMemberLength(uint256)": "b12c249c",
			"getCityNodeReputation(uint256)": "5803ad37",
			"getIsCityNode(address,uint256)": "3fc196d0",
			"getUserInNodeInfo(address)": "fa4c15e1",
			"idOfNodeInfo(uint256)": "0ba360a9",
			"idToNodeTreasury(uint256)": "97009f60",
			"isApprovedForAll(address,address)": "e985e9c5",
			"isNotCityNodeLight(address)": "721d9a00",
			"isNotCityNodeUser(address)": "e8fef15d",
			"isNotCityNodeUsers(address)": "932af1ef",
			"isNotLightCity(uint256)": "0a4af49c",
			"joinCityNode(uint256)": "b3169894",
			"lightCityNode()": "97209183",
			"nodeIdInfo(uint256)": "ef9d52f1",
			"nodeInfo(string)": "e8a0c74e",
			"nodeTreasuryAdmin(address)": "a7948184",
			"owner()": "8da5cb5b",
			"pauseAddress()": "57312481",
			"proportion()": "5b4246d4",
			"quitCityNode(uint256)": "4386b6ec",
			"renounceOwnership()": "715018a6",
			"safeBatchTransferFrom(address,address,uint256[],uint256[],bytes)": "2eb2c2d6",
			"safeTransferFrom(address,address,uint256,uint256,bytes)": "f242432a",
			"setActivationScore(uint256)": "15bb9108",
			"setApprovalForAll(address,bool)": "a22cb465",
			"setCreationScore(uint256)": "5636cfc8",
			"setFdTokenAddress(address)": "eb57e5d4",
			"setFireSeedAddress(address)": "06dd6060",
			"setFireSoulAddress(address)": "9090c0f2",
			"setPause()": "d431b1ac",
			"setPause(address)": "836f038f",
			"setProportion(uint256)": "006cd200",
			"setReputationAddress(address)": "29fd8201",
			"setWhiteUser(address,bool)": "1d20920c",
			"setfdtTokenAddr(address)": "b477f2c6",
			"supportsInterface(bytes4)": "01ffc9a7",
			"transferOwnership(address)": "f2fde38b",
			"uri(uint256)": "0e89341c",
			"userInNodeInfo(address)": "f056bac4",
			"userTax(address)": "f2242674",
			"weth()": "3fc8cef3",
			"whiteUser(address)": "c9344c33"
		}
	},
	"abi": [
		{
			"inputs": [
				{
					"internalType": "address",
					"name": "_weth",
					"type": "address"
				}
			],
			"stateMutability": "nonpayable",
			"type": "constructor"
		},
		{
			"anonymous": false,
			"inputs": [
				{
					"indexed": true,
					"internalType": "address",
					"name": "account",
					"type": "address"
				},
				{
					"indexed": true,
					"internalType": "address",
					"name": "operator",
					"type": "address"
				},
				{
					"indexed": false,
					"internalType": "bool",
					"name": "approved",
					"type": "bool"
				}
			],
			"name": "ApprovalForAll",
			"type": "event"
		},
		{
			"anonymous": false,
			"inputs": [
				{
					"indexed": true,
					"internalType": "address",
					"name": "previousOwner",
					"type": "address"
				},
				{
					"indexed": true,
					"internalType": "address",
					"name": "newOwner",
					"type": "address"
				}
			],
			"name": "OwnershipTransferred",
			"type": "event"
		},
		{
			"anonymous": false,
			"inputs": [
				{
					"indexed": true,
					"internalType": "address",
					"name": "operator",
					"type": "address"
				},
				{
					"indexed": true,
					"internalType": "address",
					"name": "from",
					"type": "address"
				},
				{
					"indexed": true,
					"internalType": "address",
					"name": "to",
					"type": "address"
				},
				{
					"indexed": false,
					"internalType": "uint256[]",
					"name": "ids",
					"type": "uint256[]"
				},
				{
					"indexed": false,
					"internalType": "uint256[]",
					"name": "values",
					"type": "uint256[]"
				}
			],
			"name": "TransferBatch",
			"type": "event"
		},
		{
			"anonymous": false,
			"inputs": [
				{
					"indexed": true,
					"internalType": "address",
					"name": "operator",
					"type": "address"
				},
				{
					"indexed": true,
					"internalType": "address",
					"name": "from",
					"type": "address"
				},
				{
					"indexed": true,
					"internalType": "address",
					"name": "to",
					"type": "address"
				},
				{
					"indexed": false,
					"internalType": "uint256",
					"name": "id",
					"type": "uint256"
				},
				{
					"indexed": false,
					"internalType": "uint256",
					"name": "value",
					"type": "uint256"
				}
			],
			"name": "TransferSingle",
			"type": "event"
		},
		{
			"anonymous": false,
			"inputs": [
				{
					"indexed": false,
					"internalType": "string",
					"name": "value",
					"type": "string"
				},
				{
					"indexed": true,
					"internalType": "uint256",
					"name": "id",
					"type": "uint256"
				}
			],
			"name": "URI",
			"type": "event"
		},
		{
			"inputs": [],
			"name": "Reputation",
			"outputs": [
				{
					"internalType": "address",
					"name": "",
					"type": "address"
				}
			],
			"stateMutability": "view",
			"type": "function"
		},
		{
			"inputs": [],
			"name": "activationScore",
			"outputs": [
				{
					"internalType": "uint256",
					"name": "",
					"type": "uint256"
				}
			],
			"stateMutability": "view",
			"type": "function"
		},
		{
			"inputs": [],
			"name": "backToken",
			"outputs": [],
			"stateMutability": "nonpayable",
			"type": "function"
		},
		{
			"inputs": [
				{
					"internalType": "address",
					"name": "account",
					"type": "address"
				},
				{
					"internalType": "uint256",
					"name": "id",
					"type": "uint256"
				}
			],
			"name": "balanceOf",
			"outputs": [
				{
					"internalType": "uint256",
					"name": "",
					"type": "uint256"
				}
			],
			"stateMutability": "view",
			"type": "function"
		},
		{
			"inputs": [
				{
					"internalType": "address[]",
					"name": "accounts",
					"type": "address[]"
				},
				{
					"internalType": "uint256[]",
					"name": "ids",
					"type": "uint256[]"
				}
			],
			"name": "balanceOfBatch",
			"outputs": [
				{
					"internalType": "uint256[]",
					"name": "",
					"type": "uint256[]"
				}
			],
			"stateMutability": "view",
			"type": "function"
		},
		{
			"inputs": [
				{
					"internalType": "address",
					"name": "newAdmin",
					"type": "address"
				}
			],
			"name": "changeNodeAdmin",
			"outputs": [],
			"stateMutability": "nonpayable",
			"type": "function"
		},
		{
			"inputs": [
				{
					"internalType": "string",
					"name": "",
					"type": "string"
				}
			],
			"name": "checkCity",
			"outputs": [
				{
					"internalType": "bool",
					"name": "",
					"type": "bool"
				}
			],
			"stateMutability": "view",
			"type": "function"
		},
		{
			"inputs": [],
			"name": "checkCityNodeId",
			"outputs": [
				{
					"internalType": "uint256",
					"name": "",
					"type": "uint256"
				}
			],
			"stateMutability": "view",
			"type": "function"
		},
		{
			"inputs": [
				{
					"internalType": "uint256",
					"name": "",
					"type": "uint256"
				}
			],
			"name": "cityNodeAdmin",
			"outputs": [
				{
					"internalType": "address",
					"name": "",
					"type": "address"
				}
			],
			"stateMutability": "view",
			"type": "function"
		},
		{
			"inputs": [
				{
					"internalType": "address",
					"name": "",
					"type": "address"
				}
			],
			"name": "cityNodeCreater",
			"outputs": [
				{
					"internalType": "bool",
					"name": "",
					"type": "bool"
				}
			],
			"stateMutability": "view",
			"type": "function"
		},
		{
			"inputs": [
				{
					"internalType": "address",
					"name": "_user",
					"type": "address"
				},
				{
					"internalType": "uint256",
					"name": "_income",
					"type": "uint256"
				}
			],
			"name": "cityNodeIncome",
			"outputs": [],
			"stateMutability": "nonpayable",
			"type": "function"
		},
		{
			"inputs": [
				{
					"internalType": "uint256",
					"name": "",
					"type": "uint256"
				}
			],
			"name": "cityNodeIncomeAmount",
			"outputs": [
				{
					"internalType": "uint256",
					"name": "",
					"type": "uint256"
				}
			],
			"stateMutability": "view",
			"type": "function"
		},
		{
			"inputs": [
				{
					"internalType": "uint256",
					"name": "",
					"type": "uint256"
				}
			],
			"name": "cityNodeInfos",
			"outputs": [
				{
					"internalType": "uint256",
					"name": "NodeId",
					"type": "uint256"
				},
				{
					"internalType": "string",
					"name": "NodeName",
					"type": "string"
				},
				{
					"internalType": "address",
					"name": "NodeOwner",
					"type": "address"
				},
				{
					"internalType": "uint256",
					"name": "createTime",
					"type": "uint256"
				},
				{
					"internalType": "uint256",
					"name": "joinCityNodeTime",
					"type": "uint256"
				},
				{
					"internalType": "address",
					"name": "Treasury",
					"type": "address"
				},
				{
					"internalType": "uint256",
					"name": "memberLength",
					"type": "uint256"
				},
				{
					"internalType": "string",
					"name": "hash",
					"type": "string"
				}
			],
			"stateMutability": "view",
			"type": "function"
		},
		{
			"inputs": [
				{
					"internalType": "uint256",
					"name": "",
					"type": "uint256"
				},
				{
					"internalType": "uint256",
					"name": "",
					"type": "uint256"
				}
			],
			"name": "cityNodeMember",
			"outputs": [
				{
					"internalType": "address",
					"name": "",
					"type": "address"
				}
			],
			"stateMutability": "view",
			"type": "function"
		},
		{
			"inputs": [
				{
					"internalType": "address",
					"name": "_user",
					"type": "address"
				}
			],
			"name": "cityNodeTreasuryAddr",
			"outputs": [
				{
					"internalType": "address",
					"name": "",
					"type": "address"
				}
			],
			"stateMutability": "view",
			"type": "function"
		},
		{
			"inputs": [
				{
					"internalType": "address",
					"name": "",
					"type": "address"
				}
			],
			"name": "cityNodeUserNum",
			"outputs": [
				{
					"internalType": "uint256",
					"name": "",
					"type": "uint256"
				}
			],
			"stateMutability": "view",
			"type": "function"
		},
		{
			"inputs": [],
			"name": "contractStatus",
			"outputs": [
				{
					"internalType": "bool",
					"name": "",
					"type": "bool"
				}
			],
			"stateMutability": "view",
			"type": "function"
		},
		{
			"inputs": [
				{
					"internalType": "string",
					"name": "cityNodeName",
					"type": "string"
				},
				{
					"internalType": "string",
					"name": "_info",
					"type": "string"
				}
			],
			"name": "createCityNode",
			"outputs": [],
			"stateMutability": "nonpayable",
			"type": "function"
		},
		{
			"inputs": [],
			"name": "creationScore",
			"outputs": [
				{
					"internalType": "uint256",
					"name": "",
					"type": "uint256"
				}
			],
			"stateMutability": "view",
			"type": "function"
		},
		{
			"inputs": [],
			"name": "ctiyNodeId",
			"outputs": [
				{
					"internalType": "uint256",
					"name": "",
					"type": "uint256"
				}
			],
			"stateMutability": "view",
			"type": "function"
		},
		{
			"inputs": [
				{
					"internalType": "address",
					"name": "_nodeUser",
					"type": "address"
				}
			],
			"name": "deleteCityNodeUser",
			"outputs": [],
			"stateMutability": "nonpayable",
			"type": "function"
		},
		{
			"inputs": [],
			"name": "fdTokenAddress",
			"outputs": [
				{
					"internalType": "address",
					"name": "",
					"type": "address"
				}
			],
			"stateMutability": "view",
			"type": "function"
		},
		{
			"inputs": [],
			"name": "fdtToken",
			"outputs": [
				{
					"internalType": "address",
					"name": "",
					"type": "address"
				}
			],
			"stateMutability": "view",
			"type": "function"
		},
		{
			"inputs": [],
			"name": "fireSeed",
			"outputs": [
				{
					"internalType": "address",
					"name": "",
					"type": "address"
				}
			],
			"stateMutability": "view",
			"type": "function"
		},
		{
			"inputs": [],
			"name": "fireSoul",
			"outputs": [
				{
					"internalType": "address",
					"name": "",
					"type": "address"
				}
			],
			"stateMutability": "view",
			"type": "function"
		},
		{
			"inputs": [
				{
					"internalType": "address",
					"name": "_user",
					"type": "address"
				}
			],
			"name": "getCityNodeAdmin",
			"outputs": [
				{
					"internalType": "address",
					"name": "",
					"type": "address"
				}
			],
			"stateMutability": "view",
			"type": "function"
		},
		{
			"inputs": [],
			"name": "getCityNodeLength",
			"outputs": [
				{
					"internalType": "uint256",
					"name": "",
					"type": "uint256"
				}
			],
			"stateMutability": "view",
			"type": "function"
		},
		{
			"inputs": [
				{
					"internalType": "uint256",
					"name": "_num",
					"type": "uint256"
				}
			],
			"name": "getCityNodeMemberLength",
			"outputs": [
				{
					"internalType": "uint256",
					"name": "",
					"type": "uint256"
				}
			],
			"stateMutability": "view",
			"type": "function"
		},
		{
			"inputs": [
				{
					"internalType": "uint256",
					"name": "cityNodeNum",
					"type": "uint256"
				}
			],
			"name": "getCityNodeReputation",
			"outputs": [
				{
					"internalType": "uint256",
					"name": "",
					"type": "uint256"
				}
			],
			"stateMutability": "view",
			"type": "function"
		},
		{
			"inputs": [
				{
					"internalType": "address",
					"name": "account",
					"type": "address"
				},
				{
					"internalType": "uint256",
					"name": "fee",
					"type": "uint256"
				}
			],
			"name": "getIsCityNode",
			"outputs": [],
			"stateMutability": "payable",
			"type": "function"
		},
		{
			"inputs": [
				{
					"internalType": "address",
					"name": "_nodeUser",
					"type": "address"
				}
			],
			"name": "getUserInNodeInfo",
			"outputs": [
				{
					"components": [
						{
							"internalType": "uint256",
							"name": "NodeId",
							"type": "uint256"
						},
						{
							"internalType": "string",
							"name": "NodeName",
							"type": "string"
						},
						{
							"internalType": "address",
							"name": "NodeOwner",
							"type": "address"
						},
						{
							"internalType": "uint256",
							"name": "createTime",
							"type": "uint256"
						},
						{
							"internalType": "uint256",
							"name": "joinCityNodeTime",
							"type": "uint256"
						},
						{
							"internalType": "address",
							"name": "Treasury",
							"type": "address"
						},
						{
							"internalType": "uint256",
							"name": "memberLength",
							"type": "uint256"
						},
						{
							"internalType": "string",
							"name": "hash",
							"type": "string"
						}
					],
					"internalType": "struct cityNode.cityNodeInfo",
					"name": "",
					"type": "tuple"
				}
			],
			"stateMutability": "view",
			"type": "function"
		},
		{
			"inputs": [
				{
					"internalType": "uint256",
					"name": "",
					"type": "uint256"
				}
			],
			"name": "idOfNodeInfo",
			"outputs": [
				{
					"internalType": "uint256",
					"name": "NodeId",
					"type": "uint256"
				},
				{
					"internalType": "string",
					"name": "NodeName",
					"type": "string"
				},
				{
					"internalType": "address",
					"name": "NodeOwner",
					"type": "address"
				},
				{
					"internalType": "uint256",
					"name": "createTime",
					"type": "uint256"
				},
				{
					"internalType": "uint256",
					"name": "joinCityNodeTime",
					"type": "uint256"
				},
				{
					"internalType": "address",
					"name": "Treasury",
					"type": "address"
				},
				{
					"internalType": "uint256",
					"name": "memberLength",
					"type": "uint256"
				},
				{
					"internalType": "string",
					"name": "hash",
					"type": "string"
				}
			],
			"stateMutability": "view",
			"type": "function"
		},
		{
			"inputs": [
				{
					"internalType": "uint256",
					"name": "",
					"type": "uint256"
				}
			],
			"name": "idToNodeTreasury",
			"outputs": [
				{
					"internalType": "address",
					"name": "",
					"type": "address"
				}
			],
			"stateMutability": "view",
			"type": "function"
		},
		{
			"inputs": [
				{
					"internalType": "address",
					"name": "account",
					"type": "address"
				},
				{
					"internalType": "address",
					"name": "operator",
					"type": "address"
				}
			],
			"name": "isApprovedForAll",
			"outputs": [
				{
					"internalType": "bool",
					"name": "",
					"type": "bool"
				}
			],
			"stateMutability": "view",
			"type": "function"
		},
		{
			"inputs": [
				{
					"internalType": "address",
					"name": "_user",
					"type": "address"
				}
			],
			"name": "isNotCityNodeLight",
			"outputs": [
				{
					"internalType": "bool",
					"name": "",
					"type": "bool"
				}
			],
			"stateMutability": "view",
			"type": "function"
		},
		{
			"inputs": [
				{
					"internalType": "address",
					"name": "",
					"type": "address"
				}
			],
			"name": "isNotCityNodeUser",
			"outputs": [
				{
					"internalType": "bool",
					"name": "",
					"type": "bool"
				}
			],
			"stateMutability": "view",
			"type": "function"
		},
		{
			"inputs": [
				{
					"internalType": "address",
					"name": "_user",
					"type": "address"
				}
			],
			"name": "isNotCityNodeUsers",
			"outputs": [
				{
					"internalType": "bool",
					"name": "",
					"type": "bool"
				}
			],
			"stateMutability": "view",
			"type": "function"
		},
		{
			"inputs": [
				{
					"internalType": "uint256",
					"name": "",
					"type": "uint256"
				}
			],
			"name": "isNotLightCity",
			"outputs": [
				{
					"internalType": "bool",
					"name": "",
					"type": "bool"
				}
			],
			"stateMutability": "view",
			"type": "function"
		},
		{
			"inputs": [
				{
					"internalType": "uint256",
					"name": "cityNodeNum",
					"type": "uint256"
				}
			],
			"name": "joinCityNode",
			"outputs": [],
			"stateMutability": "nonpayable",
			"type": "function"
		},
		{
			"inputs": [],
			"name": "lightCityNode",
			"outputs": [],
			"stateMutability": "nonpayable",
			"type": "function"
		},
		{
			"inputs": [
				{
					"internalType": "uint256",
					"name": "",
					"type": "uint256"
				}
			],
			"name": "nodeIdInfo",
			"outputs": [
				{
					"internalType": "string",
					"name": "",
					"type": "string"
				}
			],
			"stateMutability": "view",
			"type": "function"
		},
		{
			"inputs": [
				{
					"internalType": "string",
					"name": "",
					"type": "string"
				}
			],
			"name": "nodeInfo",
			"outputs": [
				{
					"internalType": "string",
					"name": "",
					"type": "string"
				}
			],
			"stateMutability": "view",
			"type": "function"
		},
		{
			"inputs": [
				{
					"internalType": "address",
					"name": "",
					"type": "address"
				}
			],
			"name": "nodeTreasuryAdmin",
			"outputs": [
				{
					"internalType": "address",
					"name": "",
					"type": "address"
				}
			],
			"stateMutability": "view",
			"type": "function"
		},
		{
			"inputs": [],
			"name": "owner",
			"outputs": [
				{
					"internalType": "address",
					"name": "",
					"type": "address"
				}
			],
			"stateMutability": "view",
			"type": "function"
		},
		{
			"inputs": [],
			"name": "pauseAddress",
			"outputs": [
				{
					"internalType": "address",
					"name": "",
					"type": "address"
				}
			],
			"stateMutability": "view",
			"type": "function"
		},
		{
			"inputs": [],
			"name": "proportion",
			"outputs": [
				{
					"internalType": "uint256",
					"name": "",
					"type": "uint256"
				}
			],
			"stateMutability": "view",
			"type": "function"
		},
		{
			"inputs": [
				{
					"internalType": "uint256",
					"name": "_num",
					"type": "uint256"
				}
			],
			"name": "quitCityNode",
			"outputs": [],
			"stateMutability": "nonpayable",
			"type": "function"
		},
		{
			"inputs": [],
			"name": "renounceOwnership",
			"outputs": [],
			"stateMutability": "nonpayable",
			"type": "function"
		},
		{
			"inputs": [
				{
					"internalType": "address",
					"name": "from",
					"type": "address"
				},
				{
					"internalType": "address",
					"name": "to",
					"type": "address"
				},
				{
					"internalType": "uint256[]",
					"name": "ids",
					"type": "uint256[]"
				},
				{
					"internalType": "uint256[]",
					"name": "amounts",
					"type": "uint256[]"
				},
				{
					"internalType": "bytes",
					"name": "data",
					"type": "bytes"
				}
			],
			"name": "safeBatchTransferFrom",
			"outputs": [],
			"stateMutability": "nonpayable",
			"type": "function"
		},
		{
			"inputs": [
				{
					"internalType": "address",
					"name": "from",
					"type": "address"
				},
				{
					"internalType": "address",
					"name": "to",
					"type": "address"
				},
				{
					"internalType": "uint256",
					"name": "id",
					"type": "uint256"
				},
				{
					"internalType": "uint256",
					"name": "amount",
					"type": "uint256"
				},
				{
					"internalType": "bytes",
					"name": "data",
					"type": "bytes"
				}
			],
			"name": "safeTransferFrom",
			"outputs": [],
			"stateMutability": "nonpayable",
			"type": "function"
		},
		{
			"inputs": [
				{
					"internalType": "uint256",
					"name": "_score",
					"type": "uint256"
				}
			],
			"name": "setActivationScore",
			"outputs": [],
			"stateMutability": "nonpayable",
			"type": "function"
		},
		{
			"inputs": [
				{
					"internalType": "address",
					"name": "operator",
					"type": "address"
				},
				{
					"internalType": "bool",
					"name": "approved",
					"type": "bool"
				}
			],
			"name": "setApprovalForAll",
			"outputs": [],
			"stateMutability": "nonpayable",
			"type": "function"
		},
		{
			"inputs": [
				{
					"internalType": "uint256",
					"name": "_score",
					"type": "uint256"
				}
			],
			"name": "setCreationScore",
			"outputs": [],
			"stateMutability": "nonpayable",
			"type": "function"
		},
		{
			"inputs": [
				{
					"internalType": "address",
					"name": "_fdTokenAddress",
					"type": "address"
				}
			],
			"name": "setFdTokenAddress",
			"outputs": [],
			"stateMutability": "nonpayable",
			"type": "function"
		},
		{
			"inputs": [
				{
					"internalType": "address",
					"name": "_addr",
					"type": "address"
				}
			],
			"name": "setFireSeedAddress",
			"outputs": [],
			"stateMutability": "nonpayable",
			"type": "function"
		},
		{
			"inputs": [
				{
					"internalType": "address",
					"name": "_fireSoul",
					"type": "address"
				}
			],
			"name": "setFireSoulAddress",
			"outputs": [],
			"stateMutability": "nonpayable",
			"type": "function"
		},
		{
			"inputs": [
				{
					"internalType": "address",
					"name": "_pauseAddress",
					"type": "address"
				}
			],
			"name": "setPause",
			"outputs": [],
			"stateMutability": "nonpayable",
			"type": "function"
		},
		{
			"inputs": [],
			"name": "setPause",
			"outputs": [],
			"stateMutability": "nonpayable",
			"type": "function"
		},
		{
			"inputs": [
				{
					"internalType": "uint256",
					"name": "_proportion",
					"type": "uint256"
				}
			],
			"name": "setProportion",
			"outputs": [],
			"stateMutability": "nonpayable",
			"type": "function"
		},
		{
			"inputs": [
				{
					"internalType": "address",
					"name": "_Reputation",
					"type": "address"
				}
			],
			"name": "setReputationAddress",
			"outputs": [],
			"stateMutability": "nonpayable",
			"type": "function"
		},
		{
			"inputs": [
				{
					"internalType": "address",
					"name": "_to",
					"type": "address"
				},
				{
					"internalType": "bool",
					"name": "_set",
					"type": "bool"
				}
			],
			"name": "setWhiteUser",
			"outputs": [],
			"stateMutability": "nonpayable",
			"type": "function"
		},
		{
			"inputs": [
				{
					"internalType": "address",
					"name": "_addr",
					"type": "address"
				}
			],
			"name": "setfdtTokenAddr",
			"outputs": [],
			"stateMutability": "nonpayable",
			"type": "function"
		},
		{
			"inputs": [
				{
					"internalType": "bytes4",
					"name": "interfaceId",
					"type": "bytes4"
				}
			],
			"name": "supportsInterface",
			"outputs": [
				{
					"internalType": "bool",
					"name": "",
					"type": "bool"
				}
			],
			"stateMutability": "view",
			"type": "function"
		},
		{
			"inputs": [
				{
					"internalType": "address",
					"name": "newOwner",
					"type": "address"
				}
			],
			"name": "transferOwnership",
			"outputs": [],
			"stateMutability": "nonpayable",
			"type": "function"
		},
		{
			"inputs": [
				{
					"internalType": "uint256",
					"name": "",
					"type": "uint256"
				}
			],
			"name": "uri",
			"outputs": [
				{
					"internalType": "string",
					"name": "",
					"type": "string"
				}
			],
			"stateMutability": "view",
			"type": "function"
		},
		{
			"inputs": [
				{
					"internalType": "address",
					"name": "",
					"type": "address"
				}
			],
			"name": "userInNodeInfo",
			"outputs": [
				{
					"internalType": "uint256",
					"name": "NodeId",
					"type": "uint256"
				},
				{
					"internalType": "string",
					"name": "NodeName",
					"type": "string"
				},
				{
					"internalType": "address",
					"name": "NodeOwner",
					"type": "address"
				},
				{
					"internalType": "uint256",
					"name": "createTime",
					"type": "uint256"
				},
				{
					"internalType": "uint256",
					"name": "joinCityNodeTime",
					"type": "uint256"
				},
				{
					"internalType": "address",
					"name": "Treasury",
					"type": "address"
				},
				{
					"internalType": "uint256",
					"name": "memberLength",
					"type": "uint256"
				},
				{
					"internalType": "string",
					"name": "hash",
					"type": "string"
				}
			],
			"stateMutability": "view",
			"type": "function"
		},
		{
			"inputs": [
				{
					"internalType": "address",
					"name": "",
					"type": "address"
				}
			],
			"name": "userTax",
			"outputs": [
				{
					"internalType": "uint256",
					"name": "",
					"type": "uint256"
				}
			],
			"stateMutability": "view",
			"type": "function"
		},
		{
			"inputs": [],
			"name": "weth",
			"outputs": [
				{
					"internalType": "address",
					"name": "",
					"type": "address"
				}
			],
			"stateMutability": "view",
			"type": "function"
		},
		{
			"inputs": [
				{
					"internalType": "address",
					"name": "",
					"type": "address"
				}
			],
			"name": "whiteUser",
			"outputs": [
				{
					"internalType": "bool",
					"name": "",
					"type": "bool"
				}
			],
			"stateMutability": "view",
			"type": "function"
		}
	]
}