{
	"data": {
		"bytecode": {
			"linkReferences": {},
			"object": "60806040526064600055601e60015560466002556228206f6004553480156200002757600080fd5b506040516200138b3803806200138b8339810160408190526200004a91620000b6565b600580546001600160a01b03199081166001600160a01b0394851617909155600680548216948416949094179093556007805484169183169190911790556003805490921692169190911790556200011e565b6001600160a01b0381168114620000b357600080fd5b50565b60008060008060808587031215620000cd57600080fd5b8451620000da816200009d565b6020860151909450620000ed816200009d565b604086015190935062000100816200009d565b606086015190925062000113816200009d565b939692955090935050565b61125d806200012e6000396000f3fe608060405234801561001057600080fd5b50600436106100cf5760003560e01c806365e69dd21161008c57806391c1494b1161006657806391c1494b146101a7578063c0191114146101af578063ebd5e7fa146101c2578063f69ffb46146101d557600080fd5b806365e69dd2146101795780637bb2b3c1146101815780638e010f421461019457600080fd5b806304384847146100d45780630e129f9014610104578063123483201461012957806322d392cb146101485780633e9604f21461015b5780635355655914610164575b600080fd5b6007546100e7906001600160a01b031681565b6040516001600160a01b0390911681526020015b60405180910390f35b610117610112366004610d5c565b6101f5565b6040516100fb96959493929190610dd8565b336000908152600960205260409020545b6040519081526020016100fb565b6005546100e7906001600160a01b031681565b61013a60045481565b610177610172366004610e1f565b6102e1565b005b60085461013a565b61017761018f366004610e1f565b61070d565b6006546100e7906001600160a01b031681565b61013a6108e5565b61013a6101bd366004610e38565b61092e565b6101176101d0366004610e1f565b6109b0565b6101e86101e3366004610e38565b6109e5565b6040516100fb9190610e5c565b6009602052816000526040600020818154811061021157600080fd5b90600052602060002090600602016000915091505080600001549080600101805461023b90610e6f565b80601f016020809104026020016040519081016040528092919081815260200182805461026790610e6f565b80156102b45780601f10610289576101008083540402835291602001916102b4565b820191906000526020600020905b81548152906001019060200180831161029757829003601f168201915b5050505060028301546003840154600485015460059095015493946001600160a01b039092169390925086565b6006546040516370a0823160e01b81523360048201526000916001600160a01b0316906370a0823190602401602060405180830381865afa15801561032a573d6000803e3d6000fd5b505050506040513d601f19601f8201168201806040525081019061034e9190610ea3565b9050600081116103a55760405162461bcd60e51b815260206004820152601e60248201527f796f75206e6f74206861766520746f6b656e20746f2065786368616e6765000060448201526064015b60405180910390fd5b6005546040516370a0823160e01b81523060048201526000916001600160a01b0316906370a0823190602401602060405180830381865afa1580156103ee573d6000803e3d6000fd5b505050506040513d601f19601f820116820180604052508101906104129190610ea3565b1161046b5760405162461bcd60e51b8152602060048201526024808201527f74686520636f6e747261637420616d6f756e74206d697373696e672062616c6160448201526303731b2960e51b606482015260840161039c565b6000805460015461047c9085610ed2565b6104869190610ee9565b9050600080546002548561049a9190610ed2565b6104a49190610ee9565b905060006040518060c001604052806104bc3361092e565b81526020016104ca336109e5565b815233602080830182905260408084018a90526060840187905243608090940193909352600091825260098152918120805460018181018355918352918390208451600690930201918255918301519293508392909182019061052d9082610f6c565b5060408201516002820180546001600160a01b0319166001600160a01b03909216919091179055606082015160038201556080820151600482015560a0909101516005909101556008805460018101825560009190915281517ff3f7a9fe364faab93b216da50a3214154f22a0a2b415b23a84c8169e8b636ee36006909202918201908155602083015183927ff3f7a9fe364faab93b216da50a3214154f22a0a2b415b23a84c8169e8b636ee401906105e69082610f6c565b5060408201516002820180546001600160a01b0319166001600160a01b03928316179055606083015160038301556080830151600483015560a09092015160059091015560065461063a9116333088610a68565b600554610651906001600160a01b03163385610b98565b6007546040516340c10f1960e01b8152336004820152602481018490526001600160a01b03909116906340c10f1990604401600060405180830381600087803b15801561069d57600080fd5b505af11580156106b1573d6000803e3d6000fd5b505050507f53542f8129f9d0cbfbf287bfa6e431489a3e06aaf519fa693c4f1d3f53fad1b46106df3361092e565b6106e8336109e5565b338886426040516106fe96959493929190610dd8565b60405180910390a15050505050565b6000805b336000908152600960205260409020548110156108915761073181610cb3565b1561087f5761073f81610cb3565b610749908361102c565b9150818311610877573360009081526009602052604090208054439190839081106107765761077661103f565b90600052602060002090600602016005018190555061079481610cb3565b3360009081526009602052604090208054839081106107b5576107b561103f565b906000526020600020906006020160040160008282546107d59190611055565b90915550506005546107f9906001600160a01b0316336107f484610cb3565b610b98565b6007546001600160a01b0316639dc29fac3361081484610cb3565b6040516001600160e01b031960e085901b1681526001600160a01b0390921660048301526024820152604401600060405180830381600087803b15801561085a57600080fd5b505af115801561086e573d6000803e3d6000fd5b5050505061087f565b61087f611068565b806108898161107e565b915050610711565b507f5f3780d7263820da6130e7ecc5ce6624110c9cf4b12979c90e321434286684966108bc3361092e565b6108c5336109e5565b3385426040516108d9959493929190611097565b60405180910390a15050565b600080805b336000908152600960205260409020548110156109285761090a81610cb3565b610914908361102c565b9150806109208161107e565b9150506108ea565b50919050565b600354604051630cacd00160e11b81526001600160a01b0383811660048301526000928392911690631959a00290602401600060405180830381865afa15801561097c573d6000803e3d6000fd5b505050506040513d6000823e601f3d908101601f191682016040526109a4919081019061115e565b50929695505050505050565b600881815481106109c057600080fd5b6000918252602090912060069091020180546001820180549193509061023b90610e6f565b600354604051630cacd00160e11b81526001600160a01b038381166004830152606092600092911690631959a00290602401600060405180830381865afa158015610a34573d6000803e3d6000fd5b505050506040513d6000823e601f3d908101601f19168201604052610a5c919081019061115e565b50909695505050505050565b604080516001600160a01b0385811660248301528481166044830152606480830185905283518084039091018152608490920183526020820180516001600160e01b03166323b872dd60e01b1790529151600092839290881691610acc91906111e9565b6000604051808303816000865af19150503d8060008114610b09576040519150601f19603f3d011682016040523d82523d6000602084013e610b0e565b606091505b5091509150818015610b38575080511580610b38575080806020019051810190610b389190611205565b610b905760405162461bcd60e51b8152602060048201526024808201527f5472616e7366657248656c7065723a205452414e534645525f46524f4d5f46416044820152631253115160e21b606482015260840161039c565b505050505050565b604080516001600160a01b038481166024830152604480830185905283518084039091018152606490920183526020820180516001600160e01b031663a9059cbb60e01b1790529151600092839290871691610bf491906111e9565b6000604051808303816000865af19150503d8060008114610c31576040519150601f19603f3d011682016040523d82523d6000602084013e610c36565b606091505b5091509150818015610c60575080511580610c60575080806020019051810190610c609190611205565b610cac5760405162461bcd60e51b815260206004820152601f60248201527f5472616e7366657248656c7065723a205452414e534645525f4641494c454400604482015260640161039c565b5050505050565b600454336000908152600960205260408120805491929184908110610cda57610cda61103f565b90600052602060002090600602016005015443610cf79190611055565b336000908152600960205260409020805485908110610d1857610d1861103f565b906000526020600020906006020160040154610d349190610ed2565b610d3e9190610ee9565b92915050565b6001600160a01b0381168114610d5957600080fd5b50565b60008060408385031215610d6f57600080fd5b8235610d7a81610d44565b946020939093013593505050565b60005b83811015610da3578181015183820152602001610d8b565b50506000910152565b60008151808452610dc4816020860160208601610d88565b601f01601f19169290920160200192915050565b86815260c060208201526000610df160c0830188610dac565b6001600160a01b03969096166040830152506060810193909352608083019190915260a09091015292915050565b600060208284031215610e3157600080fd5b5035919050565b600060208284031215610e4a57600080fd5b8135610e5581610d44565b9392505050565b602081526000610e556020830184610dac565b600181811c90821680610e8357607f821691505b60208210810361092857634e487b7160e01b600052602260045260246000fd5b600060208284031215610eb557600080fd5b5051919050565b634e487b7160e01b600052601160045260246000fd5b8082028115828204841417610d3e57610d3e610ebc565b600082610f0657634e487b7160e01b600052601260045260246000fd5b500490565b634e487b7160e01b600052604160045260246000fd5b601f821115610f6757600081815260208120601f850160051c81016020861015610f485750805b601f850160051c820191505b81811015610b9057828155600101610f54565b505050565b815167ffffffffffffffff811115610f8657610f86610f0b565b610f9a81610f948454610e6f565b84610f21565b602080601f831160018114610fcf5760008415610fb75750858301515b600019600386901b1c1916600185901b178555610b90565b600085815260208120601f198616915b82811015610ffe57888601518255948401946001909101908401610fdf565b508582101561101c5787850151600019600388901b60f8161c191681555b5050505050600190811b01905550565b80820180821115610d3e57610d3e610ebc565b634e487b7160e01b600052603260045260246000fd5b81810381811115610d3e57610d3e610ebc565b634e487b7160e01b600052600160045260246000fd5b60006001820161109057611090610ebc565b5060010190565b85815260a0602082015260006110b060a0830187610dac565b6001600160a01b0395909516604083015250606081019290925260809091015292915050565b600082601f8301126110e757600080fd5b815167ffffffffffffffff8082111561110257611102610f0b565b604051601f8301601f19908116603f0116810190828211818310171561112a5761112a610f0b565b8160405283815286602085880101111561114357600080fd5b611154846020830160208901610d88565b9695505050505050565b600080600080600060a0868803121561117657600080fd5b85519450602086015161118881610d44565b604087015190945067ffffffffffffffff808211156111a657600080fd5b6111b289838a016110d6565b945060608801519150808211156111c857600080fd5b506111d5888289016110d6565b925050608086015190509295509295909350565b600082516111fb818460208701610d88565b9190910192915050565b60006020828403121561121757600080fd5b81518015158114610e5557600080fdfea26469706673582212202b3b179eb433dd37a4811c20e76a9a2e0617c73e14bf79644bf43854d51d809064736f6c63430008120033",
			"opcodes": "PUSH1 0x80 PUSH1 0x40 MSTORE PUSH1 0x64 PUSH1 0x0 SSTORE PUSH1 0x1E PUSH1 0x1 SSTORE PUSH1 0x46 PUSH1 0x2 SSTORE PUSH3 0x28206F PUSH1 0x4 SSTORE CALLVALUE DUP1 ISZERO PUSH3 0x27 JUMPI PUSH1 0x0 DUP1 REVERT JUMPDEST POP PUSH1 0x40 MLOAD PUSH3 0x138B CODESIZE SUB DUP1 PUSH3 0x138B DUP4 CODECOPY DUP2 ADD PUSH1 0x40 DUP2 SWAP1 MSTORE PUSH3 0x4A SWAP2 PUSH3 0xB6 JUMP JUMPDEST PUSH1 0x5 DUP1 SLOAD PUSH1 0x1 PUSH1 0x1 PUSH1 0xA0 SHL SUB NOT SWAP1 DUP2 AND PUSH1 0x1 PUSH1 0x1 PUSH1 0xA0 SHL SUB SWAP5 DUP6 AND OR SWAP1 SWAP2 SSTORE PUSH1 0x6 DUP1 SLOAD DUP3 AND SWAP5 DUP5 AND SWAP5 SWAP1 SWAP5 OR SWAP1 SWAP4 SSTORE PUSH1 0x7 DUP1 SLOAD DUP5 AND SWAP2 DUP4 AND SWAP2 SWAP1 SWAP2 OR SWAP1 SSTORE PUSH1 0x3 DUP1 SLOAD SWAP1 SWAP3 AND SWAP3 AND SWAP2 SWAP1 SWAP2 OR SWAP1 SSTORE PUSH3 0x11E JUMP JUMPDEST PUSH1 0x1 PUSH1 0x1 PUSH1 0xA0 SHL SUB DUP2 AND DUP2 EQ PUSH3 0xB3 JUMPI PUSH1 0x0 DUP1 REVERT JUMPDEST POP JUMP JUMPDEST PUSH1 0x0 DUP1 PUSH1 0x0 DUP1 PUSH1 0x80 DUP6 DUP8 SUB SLT ISZERO PUSH3 0xCD JUMPI PUSH1 0x0 DUP1 REVERT JUMPDEST DUP5 MLOAD PUSH3 0xDA DUP2 PUSH3 0x9D JUMP JUMPDEST PUSH1 0x20 DUP7 ADD MLOAD SWAP1 SWAP5 POP PUSH3 0xED DUP2 PUSH3 0x9D JUMP JUMPDEST PUSH1 0x40 DUP7 ADD MLOAD SWAP1 SWAP4 POP PUSH3 0x100 DUP2 PUSH3 0x9D JUMP JUMPDEST PUSH1 0x60 DUP7 ADD MLOAD SWAP1 SWAP3 POP PUSH3 0x113 DUP2 PUSH3 0x9D JUMP JUMPDEST SWAP4 SWAP7 SWAP3 SWAP6 POP SWAP1 SWAP4 POP POP JUMP JUMPDEST PUSH2 0x125D DUP1 PUSH3 0x12E PUSH1 0x0 CODECOPY PUSH1 0x0 RETURN INVALID PUSH1 0x80 PUSH1 0x40 MSTORE CALLVALUE DUP1 ISZERO PUSH2 0x10 JUMPI PUSH1 0x0 DUP1 REVERT JUMPDEST POP PUSH1 0x4 CALLDATASIZE LT PUSH2 0xCF JUMPI PUSH1 0x0 CALLDATALOAD PUSH1 0xE0 SHR DUP1 PUSH4 0x65E69DD2 GT PUSH2 0x8C JUMPI DUP1 PUSH4 0x91C1494B GT PUSH2 0x66 JUMPI DUP1 PUSH4 0x91C1494B EQ PUSH2 0x1A7 JUMPI DUP1 PUSH4 0xC0191114 EQ PUSH2 0x1AF JUMPI DUP1 PUSH4 0xEBD5E7FA EQ PUSH2 0x1C2 JUMPI DUP1 PUSH4 0xF69FFB46 EQ PUSH2 0x1D5 JUMPI PUSH1 0x0 DUP1 REVERT JUMPDEST DUP1 PUSH4 0x65E69DD2 EQ PUSH2 0x179 JUMPI DUP1 PUSH4 0x7BB2B3C1 EQ PUSH2 0x181 JUMPI DUP1 PUSH4 0x8E010F42 EQ PUSH2 0x194 JUMPI PUSH1 0x0 DUP1 REVERT JUMPDEST DUP1 PUSH4 0x4384847 EQ PUSH2 0xD4 JUMPI DUP1 PUSH4 0xE129F90 EQ PUSH2 0x104 JUMPI DUP1 PUSH4 0x12348320 EQ PUSH2 0x129 JUMPI DUP1 PUSH4 0x22D392CB EQ PUSH2 0x148 JUMPI DUP1 PUSH4 0x3E9604F2 EQ PUSH2 0x15B JUMPI DUP1 PUSH4 0x53556559 EQ PUSH2 0x164 JUMPI JUMPDEST PUSH1 0x0 DUP1 REVERT JUMPDEST PUSH1 0x7 SLOAD PUSH2 0xE7 SWAP1 PUSH1 0x1 PUSH1 0x1 PUSH1 0xA0 SHL SUB AND DUP2 JUMP JUMPDEST PUSH1 0x40 MLOAD PUSH1 0x1 PUSH1 0x1 PUSH1 0xA0 SHL SUB SWAP1 SWAP2 AND DUP2 MSTORE PUSH1 0x20 ADD JUMPDEST PUSH1 0x40 MLOAD DUP1 SWAP2 SUB SWAP1 RETURN JUMPDEST PUSH2 0x117 PUSH2 0x112 CALLDATASIZE PUSH1 0x4 PUSH2 0xD5C JUMP JUMPDEST PUSH2 0x1F5 JUMP JUMPDEST PUSH1 0x40 MLOAD PUSH2 0xFB SWAP7 SWAP6 SWAP5 SWAP4 SWAP3 SWAP2 SWAP1 PUSH2 0xDD8 JUMP JUMPDEST CALLER PUSH1 0x0 SWAP1 DUP2 MSTORE PUSH1 0x9 PUSH1 0x20 MSTORE PUSH1 0x40 SWAP1 KECCAK256 SLOAD JUMPDEST PUSH1 0x40 MLOAD SWAP1 DUP2 MSTORE PUSH1 0x20 ADD PUSH2 0xFB JUMP JUMPDEST PUSH1 0x5 SLOAD PUSH2 0xE7 SWAP1 PUSH1 0x1 PUSH1 0x1 PUSH1 0xA0 SHL SUB AND DUP2 JUMP JUMPDEST PUSH2 0x13A PUSH1 0x4 SLOAD DUP2 JUMP JUMPDEST PUSH2 0x177 PUSH2 0x172 CALLDATASIZE PUSH1 0x4 PUSH2 0xE1F JUMP JUMPDEST PUSH2 0x2E1 JUMP JUMPDEST STOP JUMPDEST PUSH1 0x8 SLOAD PUSH2 0x13A JUMP JUMPDEST PUSH2 0x177 PUSH2 0x18F CALLDATASIZE PUSH1 0x4 PUSH2 0xE1F JUMP JUMPDEST PUSH2 0x70D JUMP JUMPDEST PUSH1 0x6 SLOAD PUSH2 0xE7 SWAP1 PUSH1 0x1 PUSH1 0x1 PUSH1 0xA0 SHL SUB AND DUP2 JUMP JUMPDEST PUSH2 0x13A PUSH2 0x8E5 JUMP JUMPDEST PUSH2 0x13A PUSH2 0x1BD CALLDATASIZE PUSH1 0x4 PUSH2 0xE38 JUMP JUMPDEST PUSH2 0x92E JUMP JUMPDEST PUSH2 0x117 PUSH2 0x1D0 CALLDATASIZE PUSH1 0x4 PUSH2 0xE1F JUMP JUMPDEST PUSH2 0x9B0 JUMP JUMPDEST PUSH2 0x1E8 PUSH2 0x1E3 CALLDATASIZE PUSH1 0x4 PUSH2 0xE38 JUMP JUMPDEST PUSH2 0x9E5 JUMP JUMPDEST PUSH1 0x40 MLOAD PUSH2 0xFB SWAP2 SWAP1 PUSH2 0xE5C JUMP JUMPDEST PUSH1 0x9 PUSH1 0x20 MSTORE DUP2 PUSH1 0x0 MSTORE PUSH1 0x40 PUSH1 0x0 KECCAK256 DUP2 DUP2 SLOAD DUP2 LT PUSH2 0x211 JUMPI PUSH1 0x0 DUP1 REVERT JUMPDEST SWAP1 PUSH1 0x0 MSTORE PUSH1 0x20 PUSH1 0x0 KECCAK256 SWAP1 PUSH1 0x6 MUL ADD PUSH1 0x0 SWAP2 POP SWAP2 POP POP DUP1 PUSH1 0x0 ADD SLOAD SWAP1 DUP1 PUSH1 0x1 ADD DUP1 SLOAD PUSH2 0x23B SWAP1 PUSH2 0xE6F JUMP JUMPDEST DUP1 PUSH1 0x1F ADD PUSH1 0x20 DUP1 SWAP2 DIV MUL PUSH1 0x20 ADD PUSH1 0x40 MLOAD SWAP1 DUP2 ADD PUSH1 0x40 MSTORE DUP1 SWAP3 SWAP2 SWAP1 DUP2 DUP2 MSTORE PUSH1 0x20 ADD DUP3 DUP1 SLOAD PUSH2 0x267 SWAP1 PUSH2 0xE6F JUMP JUMPDEST DUP1 ISZERO PUSH2 0x2B4 JUMPI DUP1 PUSH1 0x1F LT PUSH2 0x289 JUMPI PUSH2 0x100 DUP1 DUP4 SLOAD DIV MUL DUP4 MSTORE SWAP2 PUSH1 0x20 ADD SWAP2 PUSH2 0x2B4 JUMP JUMPDEST DUP3 ADD SWAP2 SWAP1 PUSH1 0x0 MSTORE PUSH1 0x20 PUSH1 0x0 KECCAK256 SWAP1 JUMPDEST DUP2 SLOAD DUP2 MSTORE SWAP1 PUSH1 0x1 ADD SWAP1 PUSH1 0x20 ADD DUP1 DUP4 GT PUSH2 0x297 JUMPI DUP3 SWAP1 SUB PUSH1 0x1F AND DUP3 ADD SWAP2 JUMPDEST POP POP POP POP PUSH1 0x2 DUP4 ADD SLOAD PUSH1 0x3 DUP5 ADD SLOAD PUSH1 0x4 DUP6 ADD SLOAD PUSH1 0x5 SWAP1 SWAP6 ADD SLOAD SWAP4 SWAP5 PUSH1 0x1 PUSH1 0x1 PUSH1 0xA0 SHL SUB SWAP1 SWAP3 AND SWAP4 SWAP1 SWAP3 POP DUP7 JUMP JUMPDEST PUSH1 0x6 SLOAD PUSH1 0x40 MLOAD PUSH4 0x70A08231 PUSH1 0xE0 SHL DUP2 MSTORE CALLER PUSH1 0x4 DUP3 ADD MSTORE PUSH1 0x0 SWAP2 PUSH1 0x1 PUSH1 0x1 PUSH1 0xA0 SHL SUB AND SWAP1 PUSH4 0x70A08231 SWAP1 PUSH1 0x24 ADD PUSH1 0x20 PUSH1 0x40 MLOAD DUP1 DUP4 SUB DUP2 DUP7 GAS STATICCALL ISZERO DUP1 ISZERO PUSH2 0x32A JUMPI RETURNDATASIZE PUSH1 0x0 DUP1 RETURNDATACOPY RETURNDATASIZE PUSH1 0x0 REVERT JUMPDEST POP POP POP POP PUSH1 0x40 MLOAD RETURNDATASIZE PUSH1 0x1F NOT PUSH1 0x1F DUP3 ADD AND DUP3 ADD DUP1 PUSH1 0x40 MSTORE POP DUP2 ADD SWAP1 PUSH2 0x34E SWAP2 SWAP1 PUSH2 0xEA3 JUMP JUMPDEST SWAP1 POP PUSH1 0x0 DUP2 GT PUSH2 0x3A5 JUMPI PUSH1 0x40 MLOAD PUSH3 0x461BCD PUSH1 0xE5 SHL DUP2 MSTORE PUSH1 0x20 PUSH1 0x4 DUP3 ADD MSTORE PUSH1 0x1E PUSH1 0x24 DUP3 ADD MSTORE PUSH32 0x796F75206E6F74206861766520746F6B656E20746F2065786368616E67650000 PUSH1 0x44 DUP3 ADD MSTORE PUSH1 0x64 ADD JUMPDEST PUSH1 0x40 MLOAD DUP1 SWAP2 SUB SWAP1 REVERT JUMPDEST PUSH1 0x5 SLOAD PUSH1 0x40 MLOAD PUSH4 0x70A08231 PUSH1 0xE0 SHL DUP2 MSTORE ADDRESS PUSH1 0x4 DUP3 ADD MSTORE PUSH1 0x0 SWAP2 PUSH1 0x1 PUSH1 0x1 PUSH1 0xA0 SHL SUB AND SWAP1 PUSH4 0x70A08231 SWAP1 PUSH1 0x24 ADD PUSH1 0x20 PUSH1 0x40 MLOAD DUP1 DUP4 SUB DUP2 DUP7 GAS STATICCALL ISZERO DUP1 ISZERO PUSH2 0x3EE JUMPI RETURNDATASIZE PUSH1 0x0 DUP1 RETURNDATACOPY RETURNDATASIZE PUSH1 0x0 REVERT JUMPDEST POP POP POP POP PUSH1 0x40 MLOAD RETURNDATASIZE PUSH1 0x1F NOT PUSH1 0x1F DUP3 ADD AND DUP3 ADD DUP1 PUSH1 0x40 MSTORE POP DUP2 ADD SWAP1 PUSH2 0x412 SWAP2 SWAP1 PUSH2 0xEA3 JUMP JUMPDEST GT PUSH2 0x46B JUMPI PUSH1 0x40 MLOAD PUSH3 0x461BCD PUSH1 0xE5 SHL DUP2 MSTORE PUSH1 0x20 PUSH1 0x4 DUP3 ADD MSTORE PUSH1 0x24 DUP1 DUP3 ADD MSTORE PUSH32 0x74686520636F6E747261637420616D6F756E74206D697373696E672062616C61 PUSH1 0x44 DUP3 ADD MSTORE PUSH4 0x3731B29 PUSH1 0xE5 SHL PUSH1 0x64 DUP3 ADD MSTORE PUSH1 0x84 ADD PUSH2 0x39C JUMP JUMPDEST PUSH1 0x0 DUP1 SLOAD PUSH1 0x1 SLOAD PUSH2 0x47C SWAP1 DUP6 PUSH2 0xED2 JUMP JUMPDEST PUSH2 0x486 SWAP2 SWAP1 PUSH2 0xEE9 JUMP JUMPDEST SWAP1 POP PUSH1 0x0 DUP1 SLOAD PUSH1 0x2 SLOAD DUP6 PUSH2 0x49A SWAP2 SWAP1 PUSH2 0xED2 JUMP JUMPDEST PUSH2 0x4A4 SWAP2 SWAP1 PUSH2 0xEE9 JUMP JUMPDEST SWAP1 POP PUSH1 0x0 PUSH1 0x40 MLOAD DUP1 PUSH1 0xC0 ADD PUSH1 0x40 MSTORE DUP1 PUSH2 0x4BC CALLER PUSH2 0x92E JUMP JUMPDEST DUP2 MSTORE PUSH1 0x20 ADD PUSH2 0x4CA CALLER PUSH2 0x9E5 JUMP JUMPDEST DUP2 MSTORE CALLER PUSH1 0x20 DUP1 DUP4 ADD DUP3 SWAP1 MSTORE PUSH1 0x40 DUP1 DUP5 ADD DUP11 SWAP1 MSTORE PUSH1 0x60 DUP5 ADD DUP8 SWAP1 MSTORE NUMBER PUSH1 0x80 SWAP1 SWAP5 ADD SWAP4 SWAP1 SWAP4 MSTORE PUSH1 0x0 SWAP2 DUP3 MSTORE PUSH1 0x9 DUP2 MSTORE SWAP2 DUP2 KECCAK256 DUP1 SLOAD PUSH1 0x1 DUP2 DUP2 ADD DUP4 SSTORE SWAP2 DUP4 MSTORE SWAP2 DUP4 SWAP1 KECCAK256 DUP5 MLOAD PUSH1 0x6 SWAP1 SWAP4 MUL ADD SWAP2 DUP3 SSTORE SWAP2 DUP4 ADD MLOAD SWAP3 SWAP4 POP DUP4 SWAP3 SWAP1 SWAP2 DUP3 ADD SWAP1 PUSH2 0x52D SWAP1 DUP3 PUSH2 0xF6C JUMP JUMPDEST POP PUSH1 0x40 DUP3 ADD MLOAD PUSH1 0x2 DUP3 ADD DUP1 SLOAD PUSH1 0x1 PUSH1 0x1 PUSH1 0xA0 SHL SUB NOT AND PUSH1 0x1 PUSH1 0x1 PUSH1 0xA0 SHL SUB SWAP1 SWAP3 AND SWAP2 SWAP1 SWAP2 OR SWAP1 SSTORE PUSH1 0x60 DUP3 ADD MLOAD PUSH1 0x3 DUP3 ADD SSTORE PUSH1 0x80 DUP3 ADD MLOAD PUSH1 0x4 DUP3 ADD SSTORE PUSH1 0xA0 SWAP1 SWAP2 ADD MLOAD PUSH1 0x5 SWAP1 SWAP2 ADD SSTORE PUSH1 0x8 DUP1 SLOAD PUSH1 0x1 DUP2 ADD DUP3 SSTORE PUSH1 0x0 SWAP2 SWAP1 SWAP2 MSTORE DUP2 MLOAD PUSH32 0xF3F7A9FE364FAAB93B216DA50A3214154F22A0A2B415B23A84C8169E8B636EE3 PUSH1 0x6 SWAP1 SWAP3 MUL SWAP2 DUP3 ADD SWAP1 DUP2 SSTORE PUSH1 0x20 DUP4 ADD MLOAD DUP4 SWAP3 PUSH32 0xF3F7A9FE364FAAB93B216DA50A3214154F22A0A2B415B23A84C8169E8B636EE4 ADD SWAP1 PUSH2 0x5E6 SWAP1 DUP3 PUSH2 0xF6C JUMP JUMPDEST POP PUSH1 0x40 DUP3 ADD MLOAD PUSH1 0x2 DUP3 ADD DUP1 SLOAD PUSH1 0x1 PUSH1 0x1 PUSH1 0xA0 SHL SUB NOT AND PUSH1 0x1 PUSH1 0x1 PUSH1 0xA0 SHL SUB SWAP3 DUP4 AND OR SWAP1 SSTORE PUSH1 0x60 DUP4 ADD MLOAD PUSH1 0x3 DUP4 ADD SSTORE PUSH1 0x80 DUP4 ADD MLOAD PUSH1 0x4 DUP4 ADD SSTORE PUSH1 0xA0 SWAP1 SWAP3 ADD MLOAD PUSH1 0x5 SWAP1 SWAP2 ADD SSTORE PUSH1 0x6 SLOAD PUSH2 0x63A SWAP2 AND CALLER ADDRESS DUP9 PUSH2 0xA68 JUMP JUMPDEST PUSH1 0x5 SLOAD PUSH2 0x651 SWAP1 PUSH1 0x1 PUSH1 0x1 PUSH1 0xA0 SHL SUB AND CALLER DUP6 PUSH2 0xB98 JUMP JUMPDEST PUSH1 0x7 SLOAD PUSH1 0x40 MLOAD PUSH4 0x40C10F19 PUSH1 0xE0 SHL DUP2 MSTORE CALLER PUSH1 0x4 DUP3 ADD MSTORE PUSH1 0x24 DUP2 ADD DUP5 SWAP1 MSTORE PUSH1 0x1 PUSH1 0x1 PUSH1 0xA0 SHL SUB SWAP1 SWAP2 AND SWAP1 PUSH4 0x40C10F19 SWAP1 PUSH1 0x44 ADD PUSH1 0x0 PUSH1 0x40 MLOAD DUP1 DUP4 SUB DUP2 PUSH1 0x0 DUP8 DUP1 EXTCODESIZE ISZERO DUP1 ISZERO PUSH2 0x69D JUMPI PUSH1 0x0 DUP1 REVERT JUMPDEST POP GAS CALL ISZERO DUP1 ISZERO PUSH2 0x6B1 JUMPI RETURNDATASIZE PUSH1 0x0 DUP1 RETURNDATACOPY RETURNDATASIZE PUSH1 0x0 REVERT JUMPDEST POP POP POP POP PUSH32 0x53542F8129F9D0CBFBF287BFA6E431489A3E06AAF519FA693C4F1D3F53FAD1B4 PUSH2 0x6DF CALLER PUSH2 0x92E JUMP JUMPDEST PUSH2 0x6E8 CALLER PUSH2 0x9E5 JUMP JUMPDEST CALLER DUP9 DUP7 TIMESTAMP PUSH1 0x40 MLOAD PUSH2 0x6FE SWAP7 SWAP6 SWAP5 SWAP4 SWAP3 SWAP2 SWAP1 PUSH2 0xDD8 JUMP JUMPDEST PUSH1 0x40 MLOAD DUP1 SWAP2 SUB SWAP1 LOG1 POP POP POP POP POP JUMP JUMPDEST PUSH1 0x0 DUP1 JUMPDEST CALLER PUSH1 0x0 SWAP1 DUP2 MSTORE PUSH1 0x9 PUSH1 0x20 MSTORE PUSH1 0x40 SWAP1 KECCAK256 SLOAD DUP2 LT ISZERO PUSH2 0x891 JUMPI PUSH2 0x731 DUP2 PUSH2 0xCB3 JUMP JUMPDEST ISZERO PUSH2 0x87F JUMPI PUSH2 0x73F DUP2 PUSH2 0xCB3 JUMP JUMPDEST PUSH2 0x749 SWAP1 DUP4 PUSH2 0x102C JUMP JUMPDEST SWAP2 POP DUP2 DUP4 GT PUSH2 0x877 JUMPI CALLER PUSH1 0x0 SWAP1 DUP2 MSTORE PUSH1 0x9 PUSH1 0x20 MSTORE PUSH1 0x40 SWAP1 KECCAK256 DUP1 SLOAD NUMBER SWAP2 SWAP1 DUP4 SWAP1 DUP2 LT PUSH2 0x776 JUMPI PUSH2 0x776 PUSH2 0x103F JUMP JUMPDEST SWAP1 PUSH1 0x0 MSTORE PUSH1 0x20 PUSH1 0x0 KECCAK256 SWAP1 PUSH1 0x6 MUL ADD PUSH1 0x5 ADD DUP2 SWAP1 SSTORE POP PUSH2 0x794 DUP2 PUSH2 0xCB3 JUMP JUMPDEST CALLER PUSH1 0x0 SWAP1 DUP2 MSTORE PUSH1 0x9 PUSH1 0x20 MSTORE PUSH1 0x40 SWAP1 KECCAK256 DUP1 SLOAD DUP4 SWAP1 DUP2 LT PUSH2 0x7B5 JUMPI PUSH2 0x7B5 PUSH2 0x103F JUMP JUMPDEST SWAP1 PUSH1 0x0 MSTORE PUSH1 0x20 PUSH1 0x0 KECCAK256 SWAP1 PUSH1 0x6 MUL ADD PUSH1 0x4 ADD PUSH1 0x0 DUP3 DUP3 SLOAD PUSH2 0x7D5 SWAP2 SWAP1 PUSH2 0x1055 JUMP JUMPDEST SWAP1 SWAP2 SSTORE POP POP PUSH1 0x5 SLOAD PUSH2 0x7F9 SWAP1 PUSH1 0x1 PUSH1 0x1 PUSH1 0xA0 SHL SUB AND CALLER PUSH2 0x7F4 DUP5 PUSH2 0xCB3 JUMP JUMPDEST PUSH2 0xB98 JUMP JUMPDEST PUSH1 0x7 SLOAD PUSH1 0x1 PUSH1 0x1 PUSH1 0xA0 SHL SUB AND PUSH4 0x9DC29FAC CALLER PUSH2 0x814 DUP5 PUSH2 0xCB3 JUMP JUMPDEST PUSH1 0x40 MLOAD PUSH1 0x1 PUSH1 0x1 PUSH1 0xE0 SHL SUB NOT PUSH1 0xE0 DUP6 SWAP1 SHL AND DUP2 MSTORE PUSH1 0x1 PUSH1 0x1 PUSH1 0xA0 SHL SUB SWAP1 SWAP3 AND PUSH1 0x4 DUP4 ADD MSTORE PUSH1 0x24 DUP3 ADD MSTORE PUSH1 0x44 ADD PUSH1 0x0 PUSH1 0x40 MLOAD DUP1 DUP4 SUB DUP2 PUSH1 0x0 DUP8 DUP1 EXTCODESIZE ISZERO DUP1 ISZERO PUSH2 0x85A JUMPI PUSH1 0x0 DUP1 REVERT JUMPDEST POP GAS CALL ISZERO DUP1 ISZERO PUSH2 0x86E JUMPI RETURNDATASIZE PUSH1 0x0 DUP1 RETURNDATACOPY RETURNDATASIZE PUSH1 0x0 REVERT JUMPDEST POP POP POP POP PUSH2 0x87F JUMP JUMPDEST PUSH2 0x87F PUSH2 0x1068 JUMP JUMPDEST DUP1 PUSH2 0x889 DUP2 PUSH2 0x107E JUMP JUMPDEST SWAP2 POP POP PUSH2 0x711 JUMP JUMPDEST POP PUSH32 0x5F3780D7263820DA6130E7ECC5CE6624110C9CF4B12979C90E32143428668496 PUSH2 0x8BC CALLER PUSH2 0x92E JUMP JUMPDEST PUSH2 0x8C5 CALLER PUSH2 0x9E5 JUMP JUMPDEST CALLER DUP6 TIMESTAMP PUSH1 0x40 MLOAD PUSH2 0x8D9 SWAP6 SWAP5 SWAP4 SWAP3 SWAP2 SWAP1 PUSH2 0x1097 JUMP JUMPDEST PUSH1 0x40 MLOAD DUP1 SWAP2 SUB SWAP1 LOG1 POP POP JUMP JUMPDEST PUSH1 0x0 DUP1 DUP1 JUMPDEST CALLER PUSH1 0x0 SWAP1 DUP2 MSTORE PUSH1 0x9 PUSH1 0x20 MSTORE PUSH1 0x40 SWAP1 KECCAK256 SLOAD DUP2 LT ISZERO PUSH2 0x928 JUMPI PUSH2 0x90A DUP2 PUSH2 0xCB3 JUMP JUMPDEST PUSH2 0x914 SWAP1 DUP4 PUSH2 0x102C JUMP JUMPDEST SWAP2 POP DUP1 PUSH2 0x920 DUP2 PUSH2 0x107E JUMP JUMPDEST SWAP2 POP POP PUSH2 0x8EA JUMP JUMPDEST POP SWAP2 SWAP1 POP JUMP JUMPDEST PUSH1 0x3 SLOAD PUSH1 0x40 MLOAD PUSH4 0xCACD001 PUSH1 0xE1 SHL DUP2 MSTORE PUSH1 0x1 PUSH1 0x1 PUSH1 0xA0 SHL SUB DUP4 DUP2 AND PUSH1 0x4 DUP4 ADD MSTORE PUSH1 0x0 SWAP3 DUP4 SWAP3 SWAP2 AND SWAP1 PUSH4 0x1959A002 SWAP1 PUSH1 0x24 ADD PUSH1 0x0 PUSH1 0x40 MLOAD DUP1 DUP4 SUB DUP2 DUP7 GAS STATICCALL ISZERO DUP1 ISZERO PUSH2 0x97C JUMPI RETURNDATASIZE PUSH1 0x0 DUP1 RETURNDATACOPY RETURNDATASIZE PUSH1 0x0 REVERT JUMPDEST POP POP POP POP PUSH1 0x40 MLOAD RETURNDATASIZE PUSH1 0x0 DUP3 RETURNDATACOPY PUSH1 0x1F RETURNDATASIZE SWAP1 DUP2 ADD PUSH1 0x1F NOT AND DUP3 ADD PUSH1 0x40 MSTORE PUSH2 0x9A4 SWAP2 SWAP1 DUP2 ADD SWAP1 PUSH2 0x115E JUMP JUMPDEST POP SWAP3 SWAP7 SWAP6 POP POP POP POP POP POP JUMP JUMPDEST PUSH1 0x8 DUP2 DUP2 SLOAD DUP2 LT PUSH2 0x9C0 JUMPI PUSH1 0x0 DUP1 REVERT JUMPDEST PUSH1 0x0 SWAP2 DUP3 MSTORE PUSH1 0x20 SWAP1 SWAP2 KECCAK256 PUSH1 0x6 SWAP1 SWAP2 MUL ADD DUP1 SLOAD PUSH1 0x1 DUP3 ADD DUP1 SLOAD SWAP2 SWAP4 POP SWAP1 PUSH2 0x23B SWAP1 PUSH2 0xE6F JUMP JUMPDEST PUSH1 0x3 SLOAD PUSH1 0x40 MLOAD PUSH4 0xCACD001 PUSH1 0xE1 SHL DUP2 MSTORE PUSH1 0x1 PUSH1 0x1 PUSH1 0xA0 SHL SUB DUP4 DUP2 AND PUSH1 0x4 DUP4 ADD MSTORE PUSH1 0x60 SWAP3 PUSH1 0x0 SWAP3 SWAP2 AND SWAP1 PUSH4 0x1959A002 SWAP1 PUSH1 0x24 ADD PUSH1 0x0 PUSH1 0x40 MLOAD DUP1 DUP4 SUB DUP2 DUP7 GAS STATICCALL ISZERO DUP1 ISZERO PUSH2 0xA34 JUMPI RETURNDATASIZE PUSH1 0x0 DUP1 RETURNDATACOPY RETURNDATASIZE PUSH1 0x0 REVERT JUMPDEST POP POP POP POP PUSH1 0x40 MLOAD RETURNDATASIZE PUSH1 0x0 DUP3 RETURNDATACOPY PUSH1 0x1F RETURNDATASIZE SWAP1 DUP2 ADD PUSH1 0x1F NOT AND DUP3 ADD PUSH1 0x40 MSTORE PUSH2 0xA5C SWAP2 SWAP1 DUP2 ADD SWAP1 PUSH2 0x115E JUMP JUMPDEST POP SWAP1 SWAP7 SWAP6 POP POP POP POP POP POP JUMP JUMPDEST PUSH1 0x40 DUP1 MLOAD PUSH1 0x1 PUSH1 0x1 PUSH1 0xA0 SHL SUB DUP6 DUP2 AND PUSH1 0x24 DUP4 ADD MSTORE DUP5 DUP2 AND PUSH1 0x44 DUP4 ADD MSTORE PUSH1 0x64 DUP1 DUP4 ADD DUP6 SWAP1 MSTORE DUP4 MLOAD DUP1 DUP5 SUB SWAP1 SWAP2 ADD DUP2 MSTORE PUSH1 0x84 SWAP1 SWAP3 ADD DUP4 MSTORE PUSH1 0x20 DUP3 ADD DUP1 MLOAD PUSH1 0x1 PUSH1 0x1 PUSH1 0xE0 SHL SUB AND PUSH4 0x23B872DD PUSH1 0xE0 SHL OR SWAP1 MSTORE SWAP2 MLOAD PUSH1 0x0 SWAP3 DUP4 SWAP3 SWAP1 DUP9 AND SWAP2 PUSH2 0xACC SWAP2 SWAP1 PUSH2 0x11E9 JUMP JUMPDEST PUSH1 0x0 PUSH1 0x40 MLOAD DUP1 DUP4 SUB DUP2 PUSH1 0x0 DUP7 GAS CALL SWAP2 POP POP RETURNDATASIZE DUP1 PUSH1 0x0 DUP2 EQ PUSH2 0xB09 JUMPI PUSH1 0x40 MLOAD SWAP2 POP PUSH1 0x1F NOT PUSH1 0x3F RETURNDATASIZE ADD AND DUP3 ADD PUSH1 0x40 MSTORE RETURNDATASIZE DUP3 MSTORE RETURNDATASIZE PUSH1 0x0 PUSH1 0x20 DUP5 ADD RETURNDATACOPY PUSH2 0xB0E JUMP JUMPDEST PUSH1 0x60 SWAP2 POP JUMPDEST POP SWAP2 POP SWAP2 POP DUP2 DUP1 ISZERO PUSH2 0xB38 JUMPI POP DUP1 MLOAD ISZERO DUP1 PUSH2 0xB38 JUMPI POP DUP1 DUP1 PUSH1 0x20 ADD SWAP1 MLOAD DUP2 ADD SWAP1 PUSH2 0xB38 SWAP2 SWAP1 PUSH2 0x1205 JUMP JUMPDEST PUSH2 0xB90 JUMPI PUSH1 0x40 MLOAD PUSH3 0x461BCD PUSH1 0xE5 SHL DUP2 MSTORE PUSH1 0x20 PUSH1 0x4 DUP3 ADD MSTORE PUSH1 0x24 DUP1 DUP3 ADD MSTORE PUSH32 0x5472616E7366657248656C7065723A205452414E534645525F46524F4D5F4641 PUSH1 0x44 DUP3 ADD MSTORE PUSH4 0x12531151 PUSH1 0xE2 SHL PUSH1 0x64 DUP3 ADD MSTORE PUSH1 0x84 ADD PUSH2 0x39C JUMP JUMPDEST POP POP POP POP POP POP JUMP JUMPDEST PUSH1 0x40 DUP1 MLOAD PUSH1 0x1 PUSH1 0x1 PUSH1 0xA0 SHL SUB DUP5 DUP2 AND PUSH1 0x24 DUP4 ADD MSTORE PUSH1 0x44 DUP1 DUP4 ADD DUP6 SWAP1 MSTORE DUP4 MLOAD DUP1 DUP5 SUB SWAP1 SWAP2 ADD DUP2 MSTORE PUSH1 0x64 SWAP1 SWAP3 ADD DUP4 MSTORE PUSH1 0x20 DUP3 ADD DUP1 MLOAD PUSH1 0x1 PUSH1 0x1 PUSH1 0xE0 SHL SUB AND PUSH4 0xA9059CBB PUSH1 0xE0 SHL OR SWAP1 MSTORE SWAP2 MLOAD PUSH1 0x0 SWAP3 DUP4 SWAP3 SWAP1 DUP8 AND SWAP2 PUSH2 0xBF4 SWAP2 SWAP1 PUSH2 0x11E9 JUMP JUMPDEST PUSH1 0x0 PUSH1 0x40 MLOAD DUP1 DUP4 SUB DUP2 PUSH1 0x0 DUP7 GAS CALL SWAP2 POP POP RETURNDATASIZE DUP1 PUSH1 0x0 DUP2 EQ PUSH2 0xC31 JUMPI PUSH1 0x40 MLOAD SWAP2 POP PUSH1 0x1F NOT PUSH1 0x3F RETURNDATASIZE ADD AND DUP3 ADD PUSH1 0x40 MSTORE RETURNDATASIZE DUP3 MSTORE RETURNDATASIZE PUSH1 0x0 PUSH1 0x20 DUP5 ADD RETURNDATACOPY PUSH2 0xC36 JUMP JUMPDEST PUSH1 0x60 SWAP2 POP JUMPDEST POP SWAP2 POP SWAP2 POP DUP2 DUP1 ISZERO PUSH2 0xC60 JUMPI POP DUP1 MLOAD ISZERO DUP1 PUSH2 0xC60 JUMPI POP DUP1 DUP1 PUSH1 0x20 ADD SWAP1 MLOAD DUP2 ADD SWAP1 PUSH2 0xC60 SWAP2 SWAP1 PUSH2 0x1205 JUMP JUMPDEST PUSH2 0xCAC JUMPI PUSH1 0x40 MLOAD PUSH3 0x461BCD PUSH1 0xE5 SHL DUP2 MSTORE PUSH1 0x20 PUSH1 0x4 DUP3 ADD MSTORE PUSH1 0x1F PUSH1 0x24 DUP3 ADD MSTORE PUSH32 0x5472616E7366657248656C7065723A205452414E534645525F4641494C454400 PUSH1 0x44 DUP3 ADD MSTORE PUSH1 0x64 ADD PUSH2 0x39C JUMP JUMPDEST POP POP POP POP POP JUMP JUMPDEST PUSH1 0x4 SLOAD CALLER PUSH1 0x0 SWAP1 DUP2 MSTORE PUSH1 0x9 PUSH1 0x20 MSTORE PUSH1 0x40 DUP2 KECCAK256 DUP1 SLOAD SWAP2 SWAP3 SWAP2 DUP5 SWAP1 DUP2 LT PUSH2 0xCDA JUMPI PUSH2 0xCDA PUSH2 0x103F JUMP JUMPDEST SWAP1 PUSH1 0x0 MSTORE PUSH1 0x20 PUSH1 0x0 KECCAK256 SWAP1 PUSH1 0x6 MUL ADD PUSH1 0x5 ADD SLOAD NUMBER PUSH2 0xCF7 SWAP2 SWAP1 PUSH2 0x1055 JUMP JUMPDEST CALLER PUSH1 0x0 SWAP1 DUP2 MSTORE PUSH1 0x9 PUSH1 0x20 MSTORE PUSH1 0x40 SWAP1 KECCAK256 DUP1 SLOAD DUP6 SWAP1 DUP2 LT PUSH2 0xD18 JUMPI PUSH2 0xD18 PUSH2 0x103F JUMP JUMPDEST SWAP1 PUSH1 0x0 MSTORE PUSH1 0x20 PUSH1 0x0 KECCAK256 SWAP1 PUSH1 0x6 MUL ADD PUSH1 0x4 ADD SLOAD PUSH2 0xD34 SWAP2 SWAP1 PUSH2 0xED2 JUMP JUMPDEST PUSH2 0xD3E SWAP2 SWAP1 PUSH2 0xEE9 JUMP JUMPDEST SWAP3 SWAP2 POP POP JUMP JUMPDEST PUSH1 0x1 PUSH1 0x1 PUSH1 0xA0 SHL SUB DUP2 AND DUP2 EQ PUSH2 0xD59 JUMPI PUSH1 0x0 DUP1 REVERT JUMPDEST POP JUMP JUMPDEST PUSH1 0x0 DUP1 PUSH1 0x40 DUP4 DUP6 SUB SLT ISZERO PUSH2 0xD6F JUMPI PUSH1 0x0 DUP1 REVERT JUMPDEST DUP3 CALLDATALOAD PUSH2 0xD7A DUP2 PUSH2 0xD44 JUMP JUMPDEST SWAP5 PUSH1 0x20 SWAP4 SWAP1 SWAP4 ADD CALLDATALOAD SWAP4 POP POP POP JUMP JUMPDEST PUSH1 0x0 JUMPDEST DUP4 DUP2 LT ISZERO PUSH2 0xDA3 JUMPI DUP2 DUP2 ADD MLOAD DUP4 DUP3 ADD MSTORE PUSH1 0x20 ADD PUSH2 0xD8B JUMP JUMPDEST POP POP PUSH1 0x0 SWAP2 ADD MSTORE JUMP JUMPDEST PUSH1 0x0 DUP2 MLOAD DUP1 DUP5 MSTORE PUSH2 0xDC4 DUP2 PUSH1 0x20 DUP7 ADD PUSH1 0x20 DUP7 ADD PUSH2 0xD88 JUMP JUMPDEST PUSH1 0x1F ADD PUSH1 0x1F NOT AND SWAP3 SWAP1 SWAP3 ADD PUSH1 0x20 ADD SWAP3 SWAP2 POP POP JUMP JUMPDEST DUP7 DUP2 MSTORE PUSH1 0xC0 PUSH1 0x20 DUP3 ADD MSTORE PUSH1 0x0 PUSH2 0xDF1 PUSH1 0xC0 DUP4 ADD DUP9 PUSH2 0xDAC JUMP JUMPDEST PUSH1 0x1 PUSH1 0x1 PUSH1 0xA0 SHL SUB SWAP7 SWAP1 SWAP7 AND PUSH1 0x40 DUP4 ADD MSTORE POP PUSH1 0x60 DUP2 ADD SWAP4 SWAP1 SWAP4 MSTORE PUSH1 0x80 DUP4 ADD SWAP2 SWAP1 SWAP2 MSTORE PUSH1 0xA0 SWAP1 SWAP2 ADD MSTORE SWAP3 SWAP2 POP POP JUMP JUMPDEST PUSH1 0x0 PUSH1 0x20 DUP3 DUP5 SUB SLT ISZERO PUSH2 0xE31 JUMPI PUSH1 0x0 DUP1 REVERT JUMPDEST POP CALLDATALOAD SWAP2 SWAP1 POP JUMP JUMPDEST PUSH1 0x0 PUSH1 0x20 DUP3 DUP5 SUB SLT ISZERO PUSH2 0xE4A JUMPI PUSH1 0x0 DUP1 REVERT JUMPDEST DUP2 CALLDATALOAD PUSH2 0xE55 DUP2 PUSH2 0xD44 JUMP JUMPDEST SWAP4 SWAP3 POP POP POP JUMP JUMPDEST PUSH1 0x20 DUP2 MSTORE PUSH1 0x0 PUSH2 0xE55 PUSH1 0x20 DUP4 ADD DUP5 PUSH2 0xDAC JUMP JUMPDEST PUSH1 0x1 DUP2 DUP2 SHR SWAP1 DUP3 AND DUP1 PUSH2 0xE83 JUMPI PUSH1 0x7F DUP3 AND SWAP2 POP JUMPDEST PUSH1 0x20 DUP3 LT DUP2 SUB PUSH2 0x928 JUMPI PUSH4 0x4E487B71 PUSH1 0xE0 SHL PUSH1 0x0 MSTORE PUSH1 0x22 PUSH1 0x4 MSTORE PUSH1 0x24 PUSH1 0x0 REVERT JUMPDEST PUSH1 0x0 PUSH1 0x20 DUP3 DUP5 SUB SLT ISZERO PUSH2 0xEB5 JUMPI PUSH1 0x0 DUP1 REVERT JUMPDEST POP MLOAD SWAP2 SWAP1 POP JUMP JUMPDEST PUSH4 0x4E487B71 PUSH1 0xE0 SHL PUSH1 0x0 MSTORE PUSH1 0x11 PUSH1 0x4 MSTORE PUSH1 0x24 PUSH1 0x0 REVERT JUMPDEST DUP1 DUP3 MUL DUP2 ISZERO DUP3 DUP3 DIV DUP5 EQ OR PUSH2 0xD3E JUMPI PUSH2 0xD3E PUSH2 0xEBC JUMP JUMPDEST PUSH1 0x0 DUP3 PUSH2 0xF06 JUMPI PUSH4 0x4E487B71 PUSH1 0xE0 SHL PUSH1 0x0 MSTORE PUSH1 0x12 PUSH1 0x4 MSTORE PUSH1 0x24 PUSH1 0x0 REVERT JUMPDEST POP DIV SWAP1 JUMP JUMPDEST PUSH4 0x4E487B71 PUSH1 0xE0 SHL PUSH1 0x0 MSTORE PUSH1 0x41 PUSH1 0x4 MSTORE PUSH1 0x24 PUSH1 0x0 REVERT JUMPDEST PUSH1 0x1F DUP3 GT ISZERO PUSH2 0xF67 JUMPI PUSH1 0x0 DUP2 DUP2 MSTORE PUSH1 0x20 DUP2 KECCAK256 PUSH1 0x1F DUP6 ADD PUSH1 0x5 SHR DUP2 ADD PUSH1 0x20 DUP7 LT ISZERO PUSH2 0xF48 JUMPI POP DUP1 JUMPDEST PUSH1 0x1F DUP6 ADD PUSH1 0x5 SHR DUP3 ADD SWAP2 POP JUMPDEST DUP2 DUP2 LT ISZERO PUSH2 0xB90 JUMPI DUP3 DUP2 SSTORE PUSH1 0x1 ADD PUSH2 0xF54 JUMP JUMPDEST POP POP POP JUMP JUMPDEST DUP2 MLOAD PUSH8 0xFFFFFFFFFFFFFFFF DUP2 GT ISZERO PUSH2 0xF86 JUMPI PUSH2 0xF86 PUSH2 0xF0B JUMP JUMPDEST PUSH2 0xF9A DUP2 PUSH2 0xF94 DUP5 SLOAD PUSH2 0xE6F JUMP JUMPDEST DUP5 PUSH2 0xF21 JUMP JUMPDEST PUSH1 0x20 DUP1 PUSH1 0x1F DUP4 GT PUSH1 0x1 DUP2 EQ PUSH2 0xFCF JUMPI PUSH1 0x0 DUP5 ISZERO PUSH2 0xFB7 JUMPI POP DUP6 DUP4 ADD MLOAD JUMPDEST PUSH1 0x0 NOT PUSH1 0x3 DUP7 SWAP1 SHL SHR NOT AND PUSH1 0x1 DUP6 SWAP1 SHL OR DUP6 SSTORE PUSH2 0xB90 JUMP JUMPDEST PUSH1 0x0 DUP6 DUP2 MSTORE PUSH1 0x20 DUP2 KECCAK256 PUSH1 0x1F NOT DUP7 AND SWAP2 JUMPDEST DUP3 DUP2 LT ISZERO PUSH2 0xFFE JUMPI DUP9 DUP7 ADD MLOAD DUP3 SSTORE SWAP5 DUP5 ADD SWAP5 PUSH1 0x1 SWAP1 SWAP2 ADD SWAP1 DUP5 ADD PUSH2 0xFDF JUMP JUMPDEST POP DUP6 DUP3 LT ISZERO PUSH2 0x101C JUMPI DUP8 DUP6 ADD MLOAD PUSH1 0x0 NOT PUSH1 0x3 DUP9 SWAP1 SHL PUSH1 0xF8 AND SHR NOT AND DUP2 SSTORE JUMPDEST POP POP POP POP POP PUSH1 0x1 SWAP1 DUP2 SHL ADD SWAP1 SSTORE POP JUMP JUMPDEST DUP1 DUP3 ADD DUP1 DUP3 GT ISZERO PUSH2 0xD3E JUMPI PUSH2 0xD3E PUSH2 0xEBC JUMP JUMPDEST PUSH4 0x4E487B71 PUSH1 0xE0 SHL PUSH1 0x0 MSTORE PUSH1 0x32 PUSH1 0x4 MSTORE PUSH1 0x24 PUSH1 0x0 REVERT JUMPDEST DUP2 DUP2 SUB DUP2 DUP2 GT ISZERO PUSH2 0xD3E JUMPI PUSH2 0xD3E PUSH2 0xEBC JUMP JUMPDEST PUSH4 0x4E487B71 PUSH1 0xE0 SHL PUSH1 0x0 MSTORE PUSH1 0x1 PUSH1 0x4 MSTORE PUSH1 0x24 PUSH1 0x0 REVERT JUMPDEST PUSH1 0x0 PUSH1 0x1 DUP3 ADD PUSH2 0x1090 JUMPI PUSH2 0x1090 PUSH2 0xEBC JUMP JUMPDEST POP PUSH1 0x1 ADD SWAP1 JUMP JUMPDEST DUP6 DUP2 MSTORE PUSH1 0xA0 PUSH1 0x20 DUP3 ADD MSTORE PUSH1 0x0 PUSH2 0x10B0 PUSH1 0xA0 DUP4 ADD DUP8 PUSH2 0xDAC JUMP JUMPDEST PUSH1 0x1 PUSH1 0x1 PUSH1 0xA0 SHL SUB SWAP6 SWAP1 SWAP6 AND PUSH1 0x40 DUP4 ADD MSTORE POP PUSH1 0x60 DUP2 ADD SWAP3 SWAP1 SWAP3 MSTORE PUSH1 0x80 SWAP1 SWAP2 ADD MSTORE SWAP3 SWAP2 POP POP JUMP JUMPDEST PUSH1 0x0 DUP3 PUSH1 0x1F DUP4 ADD SLT PUSH2 0x10E7 JUMPI PUSH1 0x0 DUP1 REVERT JUMPDEST DUP2 MLOAD PUSH8 0xFFFFFFFFFFFFFFFF DUP1 DUP3 GT ISZERO PUSH2 0x1102 JUMPI PUSH2 0x1102 PUSH2 0xF0B JUMP JUMPDEST PUSH1 0x40 MLOAD PUSH1 0x1F DUP4 ADD PUSH1 0x1F NOT SWAP1 DUP2 AND PUSH1 0x3F ADD AND DUP2 ADD SWAP1 DUP3 DUP3 GT DUP2 DUP4 LT OR ISZERO PUSH2 0x112A JUMPI PUSH2 0x112A PUSH2 0xF0B JUMP JUMPDEST DUP2 PUSH1 0x40 MSTORE DUP4 DUP2 MSTORE DUP7 PUSH1 0x20 DUP6 DUP9 ADD ADD GT ISZERO PUSH2 0x1143 JUMPI PUSH1 0x0 DUP1 REVERT JUMPDEST PUSH2 0x1154 DUP5 PUSH1 0x20 DUP4 ADD PUSH1 0x20 DUP10 ADD PUSH2 0xD88 JUMP JUMPDEST SWAP7 SWAP6 POP POP POP POP POP POP JUMP JUMPDEST PUSH1 0x0 DUP1 PUSH1 0x0 DUP1 PUSH1 0x0 PUSH1 0xA0 DUP7 DUP9 SUB SLT ISZERO PUSH2 0x1176 JUMPI PUSH1 0x0 DUP1 REVERT JUMPDEST DUP6 MLOAD SWAP5 POP PUSH1 0x20 DUP7 ADD MLOAD PUSH2 0x1188 DUP2 PUSH2 0xD44 JUMP JUMPDEST PUSH1 0x40 DUP8 ADD MLOAD SWAP1 SWAP5 POP PUSH8 0xFFFFFFFFFFFFFFFF DUP1 DUP3 GT ISZERO PUSH2 0x11A6 JUMPI PUSH1 0x0 DUP1 REVERT JUMPDEST PUSH2 0x11B2 DUP10 DUP4 DUP11 ADD PUSH2 0x10D6 JUMP JUMPDEST SWAP5 POP PUSH1 0x60 DUP9 ADD MLOAD SWAP2 POP DUP1 DUP3 GT ISZERO PUSH2 0x11C8 JUMPI PUSH1 0x0 DUP1 REVERT JUMPDEST POP PUSH2 0x11D5 DUP9 DUP3 DUP10 ADD PUSH2 0x10D6 JUMP JUMPDEST SWAP3 POP POP PUSH1 0x80 DUP7 ADD MLOAD SWAP1 POP SWAP3 SWAP6 POP SWAP3 SWAP6 SWAP1 SWAP4 POP JUMP JUMPDEST PUSH1 0x0 DUP3 MLOAD PUSH2 0x11FB DUP2 DUP5 PUSH1 0x20 DUP8 ADD PUSH2 0xD88 JUMP JUMPDEST SWAP2 SWAP1 SWAP2 ADD SWAP3 SWAP2 POP POP JUMP JUMPDEST PUSH1 0x0 PUSH1 0x20 DUP3 DUP5 SUB SLT ISZERO PUSH2 0x1217 JUMPI PUSH1 0x0 DUP1 REVERT JUMPDEST DUP2 MLOAD DUP1 ISZERO ISZERO DUP2 EQ PUSH2 0xE55 JUMPI PUSH1 0x0 DUP1 REVERT INVALID LOG2 PUSH5 0x6970667358 0x22 SLT KECCAK256 0x2B EXTCODESIZE OR SWAP15 0xB4 CALLER 0xDD CALLDATACOPY LOG4 DUP2 SHR KECCAK256 0xE7 PUSH11 0x9A2E0617C73E14BF79644B DELEGATECALL CODESIZE SLOAD 0xD5 SAR DUP1 SWAP1 PUSH5 0x736F6C6343 STOP ADDMOD SLT STOP CALLER "
		},
		"gasEstimates": {
			"creation": {
				"codeDepositCost": "940200",
				"executionCost": "infinite",
				"totalCost": "infinite"
			},
			"external": {
				"CanClaim()": "infinite",
				"Claim(uint256)": "infinite",
				"ONE_YEAR_BLOCK_NUM()": "2384",
				"checkPid(address)": "infinite",
				"checkUsername(address)": "infinite",
				"exchange(uint256)": "infinite",
				"exchangeRecords(uint256)": "infinite",
				"fdt()": "2393",
				"fdt_og()": "2393",
				"getexchangeRecordsLength()": "2315",
				"getuserexchangeRecordLength()": "2394",
				"sbt_001()": "2327",
				"userexchangeRecord(address,uint256)": "infinite"
			},
			"internal": {
				"checkCanClaim(uint256)": "infinite"
			}
		},
		"methodIdentifiers": {
			"CanClaim()": "91c1494b",
			"Claim(uint256)": "7bb2b3c1",
			"ONE_YEAR_BLOCK_NUM()": "3e9604f2",
			"checkPid(address)": "c0191114",
			"checkUsername(address)": "f69ffb46",
			"exchange(uint256)": "53556559",
			"exchangeRecords(uint256)": "ebd5e7fa",
			"fdt()": "22d392cb",
			"fdt_og()": "8e010f42",
			"getexchangeRecordsLength()": "65e69dd2",
			"getuserexchangeRecordLength()": "12348320",
			"sbt_001()": "04384847",
			"userexchangeRecord(address,uint256)": "0e129f90"
		}
	},
	"abi": [
		{
			"inputs": [
				{
					"internalType": "contract FirePassport",
					"name": "_fp",
					"type": "address"
				},
				{
					"internalType": "address",
					"name": "_fdt_og",
					"type": "address"
				},
				{
					"internalType": "address",
					"name": "_fdt",
					"type": "address"
				},
				{
					"internalType": "address",
					"name": "_sbt_001",
					"type": "address"
				}
			],
			"stateMutability": "nonpayable",
			"type": "constructor"
		},
		{
			"anonymous": false,
			"inputs": [
				{
					"indexed": false,
					"internalType": "uint256",
					"name": "pid",
					"type": "uint256"
				},
				{
					"indexed": false,
					"internalType": "string",
					"name": "name",
					"type": "string"
				},
				{
					"indexed": false,
					"internalType": "address",
					"name": "user",
					"type": "address"
				},
				{
					"indexed": false,
					"internalType": "uint256",
					"name": "amount",
					"type": "uint256"
				},
				{
					"indexed": false,
					"internalType": "uint256",
					"name": "time",
					"type": "uint256"
				}
			],
			"name": "allClaimRecord",
			"type": "event"
		},
		{
			"anonymous": false,
			"inputs": [
				{
					"indexed": false,
					"internalType": "uint256",
					"name": "pid",
					"type": "uint256"
				},
				{
					"indexed": false,
					"internalType": "string",
					"name": "name",
					"type": "string"
				},
				{
					"indexed": false,
					"internalType": "address",
					"name": "user",
					"type": "address"
				},
				{
					"indexed": false,
					"internalType": "uint256",
					"name": "amount",
					"type": "uint256"
				},
				{
					"indexed": false,
					"internalType": "uint256",
					"name": "lockedAmount",
					"type": "uint256"
				},
				{
					"indexed": false,
					"internalType": "uint256",
					"name": "time",
					"type": "uint256"
				}
			],
			"name": "allExchangeRecord",
			"type": "event"
		},
		{
			"inputs": [],
			"name": "CanClaim",
			"outputs": [
				{
					"internalType": "uint256",
					"name": "",
					"type": "uint256"
				}
			],
			"stateMutability": "view",
			"type": "function"
		},
		{
			"inputs": [
				{
					"internalType": "uint256",
					"name": "_amount",
					"type": "uint256"
				}
			],
			"name": "Claim",
			"outputs": [],
			"stateMutability": "nonpayable",
			"type": "function"
		},
		{
			"inputs": [],
			"name": "ONE_YEAR_BLOCK_NUM",
			"outputs": [
				{
					"internalType": "uint256",
					"name": "",
					"type": "uint256"
				}
			],
			"stateMutability": "view",
			"type": "function"
		},
		{
			"inputs": [
				{
					"internalType": "address",
					"name": "_user",
					"type": "address"
				}
			],
			"name": "checkPid",
			"outputs": [
				{
					"internalType": "uint256",
					"name": "",
					"type": "uint256"
				}
			],
			"stateMutability": "view",
			"type": "function"
		},
		{
			"inputs": [
				{
					"internalType": "address",
					"name": "_user",
					"type": "address"
				}
			],
			"name": "checkUsername",
			"outputs": [
				{
					"internalType": "string",
					"name": "",
					"type": "string"
				}
			],
			"stateMutability": "view",
			"type": "function"
		},
		{
			"inputs": [
				{
					"internalType": "uint256",
					"name": "_amount",
					"type": "uint256"
				}
			],
			"name": "exchange",
			"outputs": [],
			"stateMutability": "nonpayable",
			"type": "function"
		},
		{
			"inputs": [
				{
					"internalType": "uint256",
					"name": "",
					"type": "uint256"
				}
			],
			"name": "exchangeRecords",
			"outputs": [
				{
					"internalType": "uint256",
					"name": "pid",
					"type": "uint256"
				},
				{
					"internalType": "string",
					"name": "name",
					"type": "string"
				},
				{
					"internalType": "address",
					"name": "user",
					"type": "address"
				},
				{
					"internalType": "uint256",
					"name": "amount",
					"type": "uint256"
				},
				{
					"internalType": "uint256",
					"name": "lockedAmount",
					"type": "uint256"
				},
				{
					"internalType": "uint256",
					"name": "time",
					"type": "uint256"
				}
			],
			"stateMutability": "view",
			"type": "function"
		},
		{
			"inputs": [],
			"name": "fdt",
			"outputs": [
				{
					"internalType": "address",
					"name": "",
					"type": "address"
				}
			],
			"stateMutability": "view",
			"type": "function"
		},
		{
			"inputs": [],
			"name": "fdt_og",
			"outputs": [
				{
					"internalType": "address",
					"name": "",
					"type": "address"
				}
			],
			"stateMutability": "view",
			"type": "function"
		},
		{
			"inputs": [],
			"name": "getexchangeRecordsLength",
			"outputs": [
				{
					"internalType": "uint256",
					"name": "",
					"type": "uint256"
				}
			],
			"stateMutability": "view",
			"type": "function"
		},
		{
			"inputs": [],
			"name": "getuserexchangeRecordLength",
			"outputs": [
				{
					"internalType": "uint256",
					"name": "",
					"type": "uint256"
				}
			],
			"stateMutability": "view",
			"type": "function"
		},
		{
			"inputs": [],
			"name": "sbt_001",
			"outputs": [
				{
					"internalType": "address",
					"name": "",
					"type": "address"
				}
			],
			"stateMutability": "view",
			"type": "function"
		},
		{
			"inputs": [
				{
					"internalType": "address",
					"name": "",
					"type": "address"
				},
				{
					"internalType": "uint256",
					"name": "",
					"type": "uint256"
				}
			],
			"name": "userexchangeRecord",
			"outputs": [
				{
					"internalType": "uint256",
					"name": "pid",
					"type": "uint256"
				},
				{
					"internalType": "string",
					"name": "name",
					"type": "string"
				},
				{
					"internalType": "address",
					"name": "user",
					"type": "address"
				},
				{
					"internalType": "uint256",
					"name": "amount",
					"type": "uint256"
				},
				{
					"internalType": "uint256",
					"name": "lockedAmount",
					"type": "uint256"
				},
				{
					"internalType": "uint256",
					"name": "time",
					"type": "uint256"
				}
			],
			"stateMutability": "view",
			"type": "function"
		}
	]
}