{
	"data": {
		"bytecode": {
			"linkReferences": {},
			"object": "60806040526064600c55620f42406010553480156200001d57600080fd5b50604051620062f2380380620062f28339810160408190526200004091620005e4565b733cc6cdda760b79bafa08df41ecfa224f810dceb660016040518060800160405280605f81526020016200623a605f91396200007c8162000328565b506daaeb6d7670e522a718067333cd4e3b15620001c25780156200011057604051633e9f1edf60e11b81523060048201526001600160a01b03831660248201526daaeb6d7670e522a718067333cd4e90637d3e3dbe906044015b600060405180830381600087803b158015620000f157600080fd5b505af115801562000106573d6000803e3d6000fd5b50505050620001c2565b6001600160a01b03821615620001615760405163a0af290360e01b81523060048201526001600160a01b03831660248201526daaeb6d7670e522a718067333cd4e9063a0af290390604401620000d6565b604051632210724360e11b81523060048201526daaeb6d7670e522a718067333cd4e90634420e48690602401600060405180830381600087803b158015620001a857600080fd5b505af1158015620001bd573d6000803e3d6000fd5b505050505b50620001d09050336200033a565b6003805460ff60a01b19169055620001f5600d6200038c602090811b620038fa17901c565b601a80546001600160a01b0319166001600160a01b03831617905560408051608081019091526059808252620062996020830139600e90620002389082620006e6565b506103e86013556064601481905560006016556001601581905567011c37937e0800006011556200026c91600a9062000395565b6200027c600b6014605a62000395565b6200028c6015601e605062000395565b6200029c601f6028604662000395565b620002ac60296032603c62000395565b620002bc60336064603262000395565b506046600581905560146006819055600a60078190559182556008556009556064601755601880546001600160a01b039485166001600160a01b031991821617909155601c80549385169382169390931790925560198054919093169116179055605a600b55620007b2565b6002620003368282620006e6565b5050565b600380546001600160a01b038381166001600160a01b0319831681179093556040519116919082907f8be0079c531659141344cd1fd0a4f28419497f9722a3daafe3b4186f6b6457e090600090a35050565b80546001019055565b6200039f62000569565b818310620003f45760405162461bcd60e51b815260206004820152601760248201527f46697265536565643a20496e76616c69642072616e676500000000000000000060448201526064015b60405180910390fd5b60008281526024602052604090205415620004525760405162461bcd60e51b815260206004820152601960248201527f46697265536565643a20496e76616c69642073657474696e67000000000000006044820152606401620003eb565b60008381526024602052604090205415620004b05760405162461bcd60e51b815260206004820152601960248201527f46697265536565643a20496e76616c69642073657474696e67000000000000006044820152606401620003eb565b600083815260246020908152604080832084905584835280832084905580516060810182529586529085019384528401918252601e8054600181018255915292517f50bb669a95c7b50b7e8a6f09454034b2b14cf2b85c730dca9a539ca82cb6e35060039094029384015590517f50bb669a95c7b50b7e8a6f09454034b2b14cf2b85c730dca9a539ca82cb6e351830155517f50bb669a95c7b50b7e8a6f09454034b2b14cf2b85c730dca9a539ca82cb6e35290910155565b6003546001600160a01b03163314620005c55760405162461bcd60e51b815260206004820181905260248201527f4f776e61626c653a2063616c6c6572206973206e6f7420746865206f776e65726044820152606401620003eb565b565b80516001600160a01b0381168114620005df57600080fd5b919050565b60008060008060808587031215620005fb57600080fd5b6200060685620005c7565b93506200061660208601620005c7565b92506200062660408601620005c7565b91506200063660608601620005c7565b905092959194509250565b634e487b7160e01b600052604160045260246000fd5b600181811c908216806200066c57607f821691505b6020821081036200068d57634e487b7160e01b600052602260045260246000fd5b50919050565b601f821115620006e157600081815260208120601f850160051c81016020861015620006bc5750805b601f850160051c820191505b81811015620006dd57828155600101620006c8565b5050505b505050565b81516001600160401b0381111562000702576200070262000641565b6200071a8162000713845462000657565b8462000693565b602080601f831160018114620007525760008415620007395750858301515b600019600386901b1c1916600185901b178555620006dd565b600085815260208120601f198616915b82811015620007835788860151825594840194600190910190840162000762565b5085821015620007a25787850151600019600388901b60f8161c191681555b5050505050600190811b01905550565b615a7880620007c26000396000f3fe6080604052600436106104605760003560e01c80637a6b27791161023f578063b11560c511610139578063e23767e2116100b6578063e985e9c51161007a578063e985e9c514610db1578063f242432a14610dfa578063f2fde38b14610e1a578063fb7e946314610e3a578063fd4329f414610e5a57600080fd5b8063e23767e214610d22578063e24b4e7614610d38578063e2f49e3014610d65578063e3840bc114610d7b578063e910778614610d9b57600080fd5b8063cd07442e116100fd578063cd07442e14610c89578063d66961cd14610c9e578063d81d0a1514610cb4578063dcca375514610cd4578063ddca3f4314610d0c57600080fd5b8063b11560c514610bf4578063b33712c514610c14578063ba4cace814610c29578063c019111414610c49578063cc7ef80014610c6957600080fd5b8063942a330d116101c75780639ccceb111161018b5780639ccceb1114610b525780639d34591514610b72578063a22cb46514610b92578063a45f475314610bb2578063aa49c75d14610bd457600080fd5b8063942a330d14610a8957806395d89b4114610aa9578063976138c114610add5780639902de2a14610b1257806399c9220e14610b3257600080fd5b80638af668d51161020e5780638af668d5146109ff5780638c7b8d7714610a155780638d6eaf9414610a355780638da5cb5b14610a4b57806393e4bdba14610a6957600080fd5b80637a6b27791461096f5780637bc03cdf146109845780637ec90dac146109a45780638ad5aa2d146109df57600080fd5b806342f524d21161035b57806369fe0e2d116102d857806370ca09bc1161029c57806370ca09bc146108de578063715018a6146108fe578063719bea4814610913578063741c2974146109435780637501f7411461095957600080fd5b806369fe0e2d1461085d5780636a8244ad1461087d5780636b192629146108935780636b970684146108a95780636c0360eb146108c957600080fd5b806355f804b31161031f57806355f804b3146107c8578063598df747146107e85780635c475d42146107fe5780635c975abb1461081e5780635d5648031461083d57600080fd5b806342f524d214610731578063439766ce146107505780634e1273f414610765578063500c589714610792578063530ad63e146107a857600080fd5b80632c3b372e116103e957806335a4ea5d116103ad57806335a4ea5d146106a35780633989456c146106b95780633b98ceca146106d95780633fc8cef3146106ef57806341f434341461070f57600080fd5b80632c3b372e146105ea5780632d272ed8146105fd5780632eb2c2d614610633578063317152f3146106535780633222e7381461068357600080fd5b80630e01d8e2116104305780630e01d8e2146105325780630e89341c1461056a57806311637b0f1461058a5780631a5ef71c146105aa57806323ffed4f146105ca57600080fd5b8062fdd58e1461046c57806301ffc9a71461049f57806306fdde03146104cf57806309982e821461051057600080fd5b3661046757005b600080fd5b34801561047857600080fd5b5061048c610487366004614b4a565b610e7a565b6040519081526020015b60405180910390f35b3480156104ab57600080fd5b506104bf6104ba366004614b8c565b610f13565b6040519015158152602001610496565b3480156104db57600080fd5b5061050360405180604001604052806008815260200167119a5c9954d9595960c21b81525081565b6040516104969190614c00565b34801561051c57600080fd5b5061053061052b366004614cf2565b610f63565b005b34801561053e57600080fd5b5061055261054d366004614b4a565b6110e7565b6040516001600160a01b039091168152602001610496565b34801561057657600080fd5b50610503610585366004614d2e565b61111f565b34801561059657600080fd5b506105306105a5366004614d47565b611153565b3480156105b657600080fd5b50601b54610552906001600160a01b031681565b3480156105d657600080fd5b5061048c6105e5366004614b4a565b6111c9565b6105306105f8366004614d2e565b6111fa565b34801561060957600080fd5b5061048c610618366004614d73565b6001600160a01b031660009081526021602052604090205490565b34801561063f57600080fd5b5061053061064e366004614e83565b6126a9565b34801561065f57600080fd5b506104bf61066e366004614d73565b601f6020526000908152604090205460ff1681565b34801561068f57600080fd5b5061053061069e366004614d2e565b61280c565b3480156106af57600080fd5b5061048c600b5481565b3480156106c557600080fd5b506105306106d4366004614d2e565b612819565b3480156106e557600080fd5b5061048c60135481565b3480156106fb57600080fd5b50601a54610552906001600160a01b031681565b34801561071b57600080fd5b506105526daaeb6d7670e522a718067333cd4e81565b34801561073d57600080fd5b50600f546104bf90610100900460ff1681565b34801561075c57600080fd5b50610530612826565b34801561077157600080fd5b50610785610780366004614f30565b612860565b6040516104969190614fce565b34801561079e57600080fd5b5061048c600a5481565b3480156107b457600080fd5b506105306107c3366004614d47565b612989565b3480156107d457600080fd5b506105306107e3366004614fe1565b6129ff565b3480156107f457600080fd5b5061048c60095481565b34801561080a57600080fd5b50610552610819366004614d2e565b612a13565b34801561082a57600080fd5b50600354600160a01b900460ff166104bf565b34801561084957600080fd5b50610530610858366004614d73565b612a3d565b34801561086957600080fd5b50610530610878366004614d2e565b612a69565b34801561088957600080fd5b5061048c60085481565b34801561089f57600080fd5b5061048c60165481565b3480156108b557600080fd5b506105306108c4366004614d2e565b612a76565b3480156108d557600080fd5b50610503612a83565b3480156108ea57600080fd5b50601c54610552906001600160a01b031681565b34801561090a57600080fd5b50610530612b11565b34801561091f57600080fd5b506104bf61092e366004614d73565b60226020526000908152604090205460ff1681565b34801561094f57600080fd5b5061048c60175481565b34801561096557600080fd5b5061048c60105481565b34801561097b57600080fd5b50601e5461048c565b34801561099057600080fd5b5061053061099f366004614d2e565b612b23565b3480156109b057600080fd5b506109c46109bf366004614d2e565b612b80565b60408051938452602084019290925290820152606001610496565b3480156109eb57600080fd5b506105306109fa366004614d47565b612bb3565b348015610a0b57600080fd5b5061048c60065481565b348015610a2157600080fd5b50610530610a30366004615029565b612d73565b348015610a4157600080fd5b5061048c60055481565b348015610a5757600080fd5b506003546001600160a01b0316610552565b348015610a7557600080fd5b50610530610a84366004614d73565b612f42565b348015610a9557600080fd5b50610530610aa4366004614d2e565b612f6c565b348015610ab557600080fd5b50610503604051806040016040528060088152602001671192549154d1515160c21b81525081565b348015610ae957600080fd5b50610552610af8366004614d73565b60208052600090815260409020546001600160a01b031681565b348015610b1e57600080fd5b50610530610b2d36600461506c565b612f79565b348015610b3e57600080fd5b50610530610b4d366004614d73565b612f9b565b348015610b5e57600080fd5b50610530610b6d366004614d73565b61301b565b348015610b7e57600080fd5b50601954610552906001600160a01b031681565b348015610b9e57600080fd5b50610530610bad366004615089565b61304d565b348015610bbe57600080fd5b503360009081526023602052604090205461048c565b348015610be057600080fd5b50610530610bef366004614d2e565b613061565b348015610c0057600080fd5b50610530610c0f3660046150c2565b6130ad565b348015610c2057600080fd5b506105306132ba565b348015610c3557600080fd5b50610530610c44366004615136565b6132f2565b348015610c5557600080fd5b5061048c610c64366004614d73565b61342c565b348015610c7557600080fd5b50610530610c84366004614d73565b6134b0565b348015610c9557600080fd5b50601d5461048c565b348015610caa57600080fd5b5061048c60155481565b348015610cc057600080fd5b50610530610ccf366004615158565b6134da565b348015610ce057600080fd5b50610552610cef366004614d73565b6001600160a01b0390811660009081526020805260409020541690565b348015610d1857600080fd5b5061048c60115481565b348015610d2e57600080fd5b5061048c60075481565b348015610d4457600080fd5b5061048c610d53366004614d2e565b60246020526000908152604090205481565b348015610d7157600080fd5b5061048c60125481565b348015610d8757600080fd5b50601854610552906001600160a01b031681565b348015610da757600080fd5b5061048c60145481565b348015610dbd57600080fd5b506104bf610dcc3660046151cd565b6001600160a01b03918216600090815260016020908152604080832093909416825291909152205460ff1690565b348015610e0657600080fd5b50610530610e153660046151fb565b61352d565b348015610e2657600080fd5b50610530610e35366004614d73565b613830565b348015610e4657600080fd5b50610530610e55366004614d73565b6138a6565b348015610e6657600080fd5b50610530610e75366004614d73565b6138d0565b60006001600160a01b038316610eea5760405162461bcd60e51b815260206004820152602a60248201527f455243313135353a2061646472657373207a65726f206973206e6f742061207660448201526930b634b21037bbb732b960b11b60648201526084015b60405180910390fd5b506000818152602081815260408083206001600160a01b03861684529091529020545b92915050565b60006001600160e01b03198216636cdb3d1360e11b1480610f4457506001600160e01b031982166303a24d0760e21b145b80610f0d57506301ffc9a760e01b6001600160e01b0319831614610f0d565b610f6b613903565b60005b81518110156110e35760226000838381518110610f8d57610f8d615263565b6020908102919091018101516001600160a01b031682528101919091526040016000205460ff1661106357600160226000848481518110610fd057610fd0615263565b60200260200101516001600160a01b03166001600160a01b0316815260200190815260200160002060006101000a81548160ff021916908315150217905550601d82828151811061102357611023615263565b60209081029190910181015182546001810184556000938452919092200180546001600160a01b0319166001600160a01b039092169190911790556110d1565b60405162461bcd60e51b815260206004820152603860248201527f46697265536565643a20506c65617365206d616b65207375726520746865726560448201527f206973206e6f206475706c6963617465206164647265737300000000000000006064820152608401610ee1565b806110db8161528f565b915050610f6e565b5050565b6021602052816000526040600020818154811061110357600080fd5b6000918252602090912001546001600160a01b03169150829050565b6060600e61112c8361395d565b60405160200161113d9291906152e2565b6040516020818303038152906040529050919050565b61115b613903565b806111668385615379565b6111709190615379565b6064146111bb5760405162461bcd60e51b815260206004820152601960248201527846697265536565643a20696e76616c69642073657474696e6760381b6044820152606401610ee1565b600592909255600655600755565b602360205281600052604060002081815481106111e557600080fd5b90600052602060002001600091509150505481565b6112026139ef565b601054600d54106112725760405162461bcd60e51b815260206004820152603460248201527f46697265536565643a20546f20726561636820746865206d6178696d756d206e604482015273756d626572206f662063617374696e672069647360601b6064820152608401610ee1565b6015548110156112c45760405162461bcd60e51b815260206004820152601f60248201527f46697265536565643a2042656c6f77204d696e74696e67204d696e696d756d006044820152606401610ee1565b33600081815260208080526040808320546001600160a01b039081168085528285205482168086528386205496865260239094529190932090939192919091169061130e600d5490565b8154600181018355600092835260208084209091019190915533825260229052604090205460ff16801561134457506013548411155b156113ff57600060646016546011548761135e919061538c565b611368919061538c565b61137291906153a3565b9050806000036113b45761139f33611389600d5490565b8760405180602001604052806000815250613a3c565b6113ad600d80546001019055565b5050505050565b8034146113d35760405162461bcd60e51b8152600401610ee1906153c5565b601a546019546113f2916001600160a01b039081169133911684613b50565b61139f33611389600d5490565b6014548411156114705760405162461bcd60e51b815260206004820152603660248201527f46697265536565643a20596f75206861766520657863656564656420746865206044820152751b585e1a5b5d5b481c1d5c98da185cd9481b1a5b5a5d60521b6064820152608401610ee1565b600061147b85613c80565b90506000600c54600a5483611490919061538c565b61149a91906153a3565b90506000600c54600854846114af919061538c565b6114b991906153a3565b90506000600c54600954856114ce919061538c565b6114d891906153a3565b90508334146114f95760405162461bcd60e51b8152600401610ee1906153c5565b601a60009054906101000a90046001600160a01b03166001600160a01b031663d0e30db0856040518263ffffffff1660e01b81526004016000604051808303818588803b15801561154957600080fd5b505af115801561155d573d6000803e3d6000fd5b5050601a5460195460405163a9059cbb60e01b81526001600160a01b03928316955063a9059cbb94506115989350911690879060040161540a565b6020604051808303816000875af11580156115b7573d6000803e3d6000fd5b505050506040513d601f19601f820116820180604052508101906115db9190615423565b50601854604051635d413ce560e11b8152600480820152336024820152604481018590526001600160a01b039091169063ba8279ca90606401600060405180830381600087803b15801561162e57600080fd5b505af1158015611642573d6000803e3d6000fd5b5050601c5460405163932af1ef60e01b81523360048201526001600160a01b03909116925063932af1ef9150602401602060405180830381865afa15801561168e573d6000803e3d6000fd5b505050506040513d601f19601f820116820180604052508101906116b29190615423565b80156117245750601c5460405162390ecd60e91b81523360048201526001600160a01b039091169063721d9a0090602401602060405180830381865afa158015611700573d6000803e3d6000fd5b505050506040513d601f19601f820116820180604052508101906117249190615423565b1561198557601a54601c546040516326b2739d60e11b81523360048201526001600160a01b039283169263a9059cbb921690634d64e73a90602401602060405180830381865afa15801561177c573d6000803e3d6000fd5b505050506040513d601f19601f820116820180604052508101906117a09190615440565b600c54600b546117b0908661538c565b6117ba91906153a3565b6040518363ffffffff1660e01b81526004016117d792919061540a565b6020604051808303816000875af11580156117f6573d6000803e3d6000fd5b505050506040513d601f19601f8201168201806040525081019061181a9190615423565b50601a54601c546040516353340dc360e01b81523360048201526001600160a01b039283169263a9059cbb9216906353340dc3906024016020604051808303816000875af1158015611870573d6000803e3d6000fd5b505050506040513d601f19601f820116820180604052508101906118949190615440565b600c54600b546118a491906153a3565b600c546118b1908661538c565b6118bb919061545d565b6040518363ffffffff1660e01b81526004016118d892919061540a565b6020604051808303816000875af11580156118f7573d6000803e3d6000fd5b505050506040513d601f19601f8201168201806040525081019061191b9190615423565b50601c54604051631e7c1f6760e31b81526001600160a01b039091169063f3e0fb389061194e903390859060040161540a565b600060405180830381600087803b15801561196857600080fd5b505af115801561197c573d6000803e3d6000fd5b50505050611a00565b601a5460195460405163a9059cbb60e01b81526001600160a01b039283169263a9059cbb926119bb92911690859060040161540a565b6020604051808303816000875af11580156119da573d6000803e3d6000fd5b505050506040513d601f19601f820116820180604052508101906119fe9190615423565b505b6001600160a01b03871615801590611a2057506001600160a01b03861615155b8015611a3457506001600160a01b03851615155b1561225357601b54604051631238e33160e31b81526001600160a01b038981166004830152909116906391c7198890602401602060405180830381865afa158015611a83573d6000803e3d6000fd5b505050506040513d601f19601f82011682018060405250810190611aa79190615423565b8015611b1c5750601b54604051631238e33160e31b81526001600160a01b038881166004830152909116906391c7198890602401602060405180830381865afa158015611af8573d6000803e3d6000fd5b505050506040513d601f19601f82011682018060405250810190611b1c9190615423565b8015611b915750601b54604051631238e33160e31b81526001600160a01b038781166004830152909116906391c7198890602401602060405180830381865afa158015611b6d573d6000803e3d6000fd5b505050506040513d601f19601f82011682018060405250810190611b919190615423565b15611d5157601a54600c546005546001600160a01b039092169163a9059cbb918a91611bbd908761538c565b611bc791906153a3565b6040518363ffffffff1660e01b8152600401611be492919061540a565b6020604051808303816000875af1158015611c03573d6000803e3d6000fd5b505050506040513d601f19601f82011682018060405250810190611c279190615423565b50601a54600c546006546001600160a01b039092169163a9059cbb918991611c4f908761538c565b611c5991906153a3565b6040518363ffffffff1660e01b8152600401611c7692919061540a565b6020604051808303816000875af1158015611c95573d6000803e3d6000fd5b505050506040513d601f19601f82011682018060405250810190611cb99190615423565b50601a54600c546007546001600160a01b039092169163a9059cbb918891611ce1908761538c565b611ceb91906153a3565b6040518363ffffffff1660e01b8152600401611d0892919061540a565b6020604051808303816000875af1158015611d27573d6000803e3d6000fd5b505050506040513d601f19601f82011682018060405250810190611d4b9190615423565b5061266d565b601b54604051631238e33160e31b81526001600160a01b038981166004830152909116906391c7198890602401602060405180830381865afa158015611d9b573d6000803e3d6000fd5b505050506040513d601f19601f82011682018060405250810190611dbf9190615423565b8015611e345750601b54604051631238e33160e31b81526001600160a01b038881166004830152909116906391c7198890602401602060405180830381865afa158015611e10573d6000803e3d6000fd5b505050506040513d601f19601f82011682018060405250810190611e349190615423565b8015611eab5750601b54604051631238e33160e31b81526001600160a01b038781166004830152909116906391c7198890602401602060405180830381865afa158015611e85573d6000803e3d6000fd5b505050506040513d601f19601f82011682018060405250810190611ea99190615423565b155b15611fff57601a54600c546005546001600160a01b039092169163a9059cbb918a91611ed7908761538c565b611ee191906153a3565b6040518363ffffffff1660e01b8152600401611efe92919061540a565b6020604051808303816000875af1158015611f1d573d6000803e3d6000fd5b505050506040513d601f19601f82011682018060405250810190611f419190615423565b50601a54600c546006546001600160a01b039092169163a9059cbb918991611f69908761538c565b611f7391906153a3565b6040518363ffffffff1660e01b8152600401611f9092919061540a565b6020604051808303816000875af1158015611faf573d6000803e3d6000fd5b505050506040513d601f19601f82011682018060405250810190611fd39190615423565b50601a54601954600c546007546001600160a01b039384169363a9059cbb93169190611ce1908761538c565b601b54604051631238e33160e31b81526001600160a01b038981166004830152909116906391c7198890602401602060405180830381865afa158015612049573d6000803e3d6000fd5b505050506040513d601f19601f8201168201806040525081019061206d9190615423565b80156120e45750601b54604051631238e33160e31b81526001600160a01b038881166004830152909116906391c7198890602401602060405180830381865afa1580156120be573d6000803e3d6000fd5b505050506040513d601f19601f820116820180604052508101906120e29190615423565b155b801561215b5750601b54604051631238e33160e31b81526001600160a01b038781166004830152909116906391c7198890602401602060405180830381865afa158015612135573d6000803e3d6000fd5b505050506040513d601f19601f820116820180604052508101906121599190615423565b155b1561221d57601a54600c546005546001600160a01b039092169163a9059cbb918a91612187908761538c565b61219191906153a3565b6040518363ffffffff1660e01b81526004016121ae92919061540a565b6020604051808303816000875af11580156121cd573d6000803e3d6000fd5b505050506040513d601f19601f820116820180604052508101906121f19190615423565b50601a54601954600c546006546001600160a01b039384169363a9059cbb93169190611ce1908761538c565b601a5460195460405163a9059cbb60e01b81526001600160a01b039283169263a9059cbb92611d0892911690869060040161540a565b6001600160a01b0387161580159061227357506001600160a01b03861615155b801561228657506001600160a01b038516155b1561254d57601b54604051631238e33160e31b81526001600160a01b038981166004830152909116906391c7198890602401602060405180830381865afa1580156122d5573d6000803e3d6000fd5b505050506040513d601f19601f820116820180604052508101906122f99190615423565b801561236e5750601b54604051631238e33160e31b81526001600160a01b038881166004830152909116906391c7198890602401602060405180830381865afa15801561234a573d6000803e3d6000fd5b505050506040513d601f19601f8201168201806040525081019061236e9190615423565b1561239a57601a54600c546005546001600160a01b039092169163a9059cbb918a91611ed7908761538c565b601b54604051631238e33160e31b81526001600160a01b038981166004830152909116906391c7198890602401602060405180830381865afa1580156123e4573d6000803e3d6000fd5b505050506040513d601f19601f820116820180604052508101906124089190615423565b801561247f5750601b54604051631238e33160e31b81526001600160a01b038881166004830152909116906391c7198890602401602060405180830381865afa158015612459573d6000803e3d6000fd5b505050506040513d601f19601f8201168201806040525081019061247d9190615423565b155b1561221d57601a54600c546005546001600160a01b039092169163a9059cbb918a916124ab908761538c565b6124b591906153a3565b6040518363ffffffff1660e01b81526004016124d292919061540a565b6020604051808303816000875af11580156124f1573d6000803e3d6000fd5b505050506040513d601f19601f820116820180604052508101906125159190615423565b50601a54601954600c546007546006546001600160a01b039485169463a9059cbb9416929161254391615379565b611ce1908761538c565b6001600160a01b0387161580159061256c57506001600160a01b038616155b801561257f57506001600160a01b038516155b156125f257601b54604051631238e33160e31b81526001600160a01b038981166004830152909116906391c7198890602401602060405180830381865afa1580156125ce573d6000803e3d6000fd5b505050506040513d601f19601f8201168201806040525081019061247f9190615423565b601a5460195460405163a9059cbb60e01b81526001600160a01b039283169263a9059cbb9261262892911690869060040161540a565b6020604051808303816000875af1158015612647573d6000803e3d6000fd5b505050506040513d601f19601f8201168201806040525081019061266b9190615423565b505b6126903361267a600d5490565b8a60405180602001604052806000815250613a3c565b61269e600d80546001019055565b505050505050505b50565b846001600160a01b03811633146126c3576126c333613d61565b600f5460ff16156126e65760405162461bcd60e51b8152600401610ee190615470565b600f805460ff191660011790556126fd8686613e1a565b6127195760405162461bcd60e51b8152600401610ee1906154b9565b6001600160a01b0385811660009081526020805260409020541615801561275c57506001600160a01b038681166000908152602080526040902054811690861614155b801561278157506001600160a01b0385166000908152601f602052604090205460ff16155b156127ed576001600160a01b038086166000818152602080805260408083208054958c166001600160a01b031996871681179091558352602182528083208054600181810183559185528385200180549096168517909555928252601f905220805460ff191690911790555b6127fa8686868686613e52565b5050600f805460ff1916905550505050565b612814613903565b601655565b612821613903565b601455565b600f546201000090046001600160a01b031633146128565760405162461bcd60e51b8152600401610ee190615504565b61285e613e97565b565b606081518351146128c55760405162461bcd60e51b815260206004820152602960248201527f455243313135353a206163636f756e747320616e6420696473206c656e677468604482015268040dad2e6dac2e8c6d60bb1b6064820152608401610ee1565b600083516001600160401b038111156128e0576128e0614c13565b604051908082528060200260200182016040528015612909578160200160208202803683370190505b50905060005b84518110156129815761295485828151811061292d5761292d615263565b602002602001015185838151811061294757612947615263565b6020026020010151610e7a565b82828151811061296657612966615263565b602090810291909101015261297a8161528f565b905061290f565b509392505050565b612991613903565b8061299c8385615379565b6129a69190615379565b6064146129f15760405162461bcd60e51b815260206004820152601960248201527846697265536565643a20696e76616c69642073657474696e6760381b6044820152606401610ee1565b600892909255600955600a55565b612a07613903565b600e6110e382826155a7565b601d8181548110612a2357600080fd5b6000918252602090912001546001600160a01b0316905081565b612a45613903565b6001600160a01b03166000908152601f60205260409020805460ff19166001179055565b612a71613903565b601155565b612a7e613903565b601355565b600e8054612a90906152a8565b80601f0160208091040260200160405190810160405280929190818152602001828054612abc906152a8565b8015612b095780601f10612ade57610100808354040283529160200191612b09565b820191906000526020600020905b815481529060010190602001808311612aec57829003601f168201915b505050505081565b612b19613903565b61285e6000613ef7565b612b2b613903565b80600003612b7b5760405162461bcd60e51b815260206004820152601960248201527f46697265536565643a20696e76616c69642061646472657373000000000000006044820152606401610ee1565b601755565b601e8181548110612b9057600080fd5b600091825260209091206003909102018054600182015460029092015490925083565b612bbb613903565b818310612c0a5760405162461bcd60e51b815260206004820152601760248201527f46697265536565643a20496e76616c69642072616e67650000000000000000006044820152606401610ee1565b60008281526024602052604090205415612c625760405162461bcd60e51b815260206004820152601960248201527846697265536565643a20496e76616c69642073657474696e6760381b6044820152606401610ee1565b60008381526024602052604090205415612cba5760405162461bcd60e51b815260206004820152601960248201527846697265536565643a20496e76616c69642073657474696e6760381b6044820152606401610ee1565b600083815260246020908152604080832084905584835280832084905580516060810182529586529085019384528401918252601e8054600181018255915292517f50bb669a95c7b50b7e8a6f09454034b2b14cf2b85c730dca9a539ca82cb6e35060039094029384015590517f50bb669a95c7b50b7e8a6f09454034b2b14cf2b85c730dca9a539ca82cb6e351830155517f50bb669a95c7b50b7e8a6f09454034b2b14cf2b85c730dca9a539ca82cb6e35290910155565b601b546001600160a01b03163314612de15760405162461bcd60e51b815260206004820152602b60248201527f46697265536565643a204f6e6c7920746865206361756c64726f6e2063616e2060448201526a6275726e20746f6b656e7360a81b6064820152608401610ee1565b60005b6001600160a01b038416600090815260236020526040902054811015612f31576001600160a01b0384166000908152602360205260409020805482908110612e2e57612e2e615263565b906000526020600020015483148015612e4f5750612e4c8484610e7a565b82145b15612f1f576001600160a01b03841660009081526023602052604090208054829190612e7d9060019061545d565b81548110612e8d57612e8d615263565b906000526020600020015460236000876001600160a01b03166001600160a01b031681526020019081526020016000208281548110612ece57612ece615263565b60009182526020808320909101929092556001600160a01b0387168152602390915260409020805480612f0357612f03615666565b6001900381819060005260206000200160009055905550612f31565b80612f298161528f565b915050612de4565b50612f3d838383613f49565b505050565b612f4a613903565b601c80546001600160a01b0319166001600160a01b0392909216919091179055565b612f74613903565b601555565b612f81613903565b600f80549115156101000261ff0019909216919091179055565b612fa3613903565b6001600160a01b038116612ff95760405162461bcd60e51b815260206004820152601960248201527f46697265536565643a20496e76616c69642061646472657373000000000000006044820152606401610ee1565b601980546001600160a01b0319166001600160a01b0392909216919091179055565b613023613903565b600f80546001600160a01b03909216620100000262010000600160b01b0319909216919091179055565b8161305781613d61565b612f3d83836140c5565b613069613903565b60648111156130a85760405162461bcd60e51b815260206004820152600b60248201526a2fb930ba329032b93937b960a91b6044820152606401610ee1565b600b55565b6130b5613903565b60005b81811015612f3d57602260008484848181106130d6576130d6615263565b90506020020160208101906130eb9190614d73565b6001600160a01b0316815260208101919091526040016000205460ff1615156001146131595760405162461bcd60e51b815260206004820152601f60248201527f46697265536565643a2055736572206e6f7420696e2077686974656c697374006044820152606401610ee1565b60006131e5601d8054806020026020016040519081016040528092919081815260200182805480156131b457602002820191906000526020600020905b81546001600160a01b03168152600190910190602001808311613196575b50505050508585858181106131cb576131cb615263565b90506020020160208101906131e09190614d73565b6140d0565b601d5490915081106132475760405162461bcd60e51b815260206004820152602560248201527f46697265536565643a2055736572206e6f7420696e2077686974656c69737420604482015264617272617960d81b6064820152608401610ee1565b613252601d82614131565b60006022600086868681811061326a5761326a615263565b905060200201602081019061327f9190614d73565b6001600160a01b031681526020810191909152604001600020805460ff191691151591909117905550806132b28161528f565b9150506130b8565b600f546201000090046001600160a01b031633146132ea5760405162461bcd60e51b8152600401610ee190615504565b61285e61424c565b6132fa613903565b60008281526024602052604080822082905582825281208190555b601e54811015612f3d57601e818154811061333257613332615263565b906000526020600020906003020160000154831480156133755750601e818154811061336057613360615263565b90600052602060002090600302016001015482145b1561341a57601e805461338a9060019061545d565b8154811061339a5761339a615263565b9060005260206000209060030201601e82815481106133bb576133bb615263565b60009182526020909120825460039092020190815560018083015490820155600291820154910155601e8054806133f4576133f4615666565b600082815260208120600360001990930192830201818155600181018290556002015590555b806134248161528f565b915050613315565b60048054604051630cacd00160e11b81526001600160a01b038481169382019390935260009283921690631959a00290602401600060405180830381865afa15801561347c573d6000803e3d6000fd5b505050506040513d6000823e601f3d908101601f191682016040526134a491908101906156d4565b50929695505050505050565b6134b8613903565b601b80546001600160a01b0319166001600160a01b0392909216919091179055565b60405162461bcd60e51b815260206004820152602260248201527f46697265536565643a2042617463682063617374696e6720697320696e76616c6044820152611a5960f21b6064820152608401610ee1565b846001600160a01b03811633146135475761354733613d61565b600f5460ff161561356a5760405162461bcd60e51b8152600401610ee190615470565b600f805460ff191660011790556001600160a01b03808616908716036135d25760405162461bcd60e51b815260206004820152601a60248201527f46697265536565643a20696e76616c6964207472616e736665720000000000006044820152606401610ee1565b6135dc8686613e1a565b6135f85760405162461bcd60e51b8152600401610ee1906154b9565b6001600160a01b0385811660009081526020805260409020541615801561363b57506001600160a01b038681166000908152602080526040902054811690861614155b801561366057506001600160a01b0385166000908152601f602052604090205460ff16155b1561371c576001600160a01b0385811660008181526020808052604080832080546001600160a01b0319908116968d16968717909155858452602183528184208054600181810183559186528486200180549092168617909155848452601f835292819020805460ff191690931790925581519384528301919091528101859052606081018490524260808201527fcf9d579db6c84305ae8fade81b772116bcf73b6af9a5ba64db14df38abcf300f9060a00160405180910390a15b6001600160a01b0385166000908152602360209081526040822080546001810182559083529120018490556137548686868686614388565b7f4ed2c59ece11f943172a7eb28c1ec53df55c5b893827c9b0afe621c54eda6da442866137803361342c565b601b546040516373ab94f960e11b81523360048201526001600160a01b039091169063e75729f290602401602060405180830381865afa1580156137c8573d6000803e3d6000fd5b505050506040513d601f19601f820116820180604052508101906137ec919061575e565b604080519485526001600160a01b0390931660208501529183015260608201526080810185905260a00160405180910390a15050600f805460ff1916905550505050565b613838613903565b6001600160a01b03811661389d5760405162461bcd60e51b815260206004820152602660248201527f4f776e61626c653a206e6577206f776e657220697320746865207a65726f206160448201526564647265737360d01b6064820152608401610ee1565b6126a681613ef7565b6138ae613903565b600480546001600160a01b0319166001600160a01b0392909216919091179055565b6138d8613903565b601880546001600160a01b0319166001600160a01b0392909216919091179055565b80546001019055565b6003546001600160a01b0316331461285e5760405162461bcd60e51b815260206004820181905260248201527f4f776e61626c653a2063616c6c6572206973206e6f7420746865206f776e65726044820152606401610ee1565b6060600061396a836143cd565b60010190506000816001600160401b0381111561398957613989614c13565b6040519080825280601f01601f1916602001820160405280156139b3576020820181803683370190505b5090508181016020015b600019016f181899199a1a9b1b9c1cb0b131b232b360811b600a86061a8153600a85049450846139bd57509392505050565b600354600160a01b900460ff161561285e5760405162461bcd60e51b815260206004820152601060248201526f14185d5cd8589b194e881c185d5cd95960821b6044820152606401610ee1565b6001600160a01b038416613a9c5760405162461bcd60e51b815260206004820152602160248201527f455243313135353a206d696e7420746f20746865207a65726f206164647265736044820152607360f81b6064820152608401610ee1565b336000613aa8856144a5565b90506000613ab5856144a5565b90506000868152602081815260408083206001600160a01b038b16845290915281208054879290613ae7908490615379565b909155505060408051878152602081018790526001600160a01b03808a1692600092918716917fc3d58168c5ae7397731d063d5bbf3d657854427343f4c083240f7aacaa2d0f62910160405180910390a4613b47836000898989896144f0565b50505050505050565b604080516001600160a01b0385811660248301528481166044830152606480830185905283518084039091018152608490920183526020820180516001600160e01b03166323b872dd60e01b1790529151600092839290881691613bb49190615777565b6000604051808303816000865af19150503d8060008114613bf1576040519150601f19603f3d011682016040523d82523d6000602084013e613bf6565b606091505b5091509150818015613c20575080511580613c20575080806020019051810190613c209190615423565b613c785760405162461bcd60e51b8152602060048201526024808201527f5472616e7366657248656c7065723a205452414e534645525f46524f4d5f46416044820152631253115160e21b6064820152608401610ee1565b505050505050565b600080600c5460175460115485613c97919061538c565b613ca1919061538c565b613cab91906153a3565b9050606460005b84811015613cf25760008181526024602052604090205415613ce05760008181526024602052604090205491505b80613cea8161528f565b915050613cb2565b506064613cff828461538c565b613d0991906153a3565b9150813414613d5a5760405162461bcd60e51b815260206004820152601a60248201527f46697265536565643a2045544820616d6f756e74206572726f720000000000006044820152606401610ee1565b5092915050565b6daaeb6d7670e522a718067333cd4e3b156126a657604051633185c44d60e21b81523060048201526001600160a01b03821660248201526daaeb6d7670e522a718067333cd4e9063c617113490604401602060405180830381865afa158015613dce573d6000803e3d6000fd5b505050506040513d601f19601f82011682018060405250810190613df29190615423565b6126a657604051633b79c77360e21b81526001600160a01b0382166004820152602401610ee1565b60006001600160a01b03831615801590613e3c57506001600160a01b03821615155b15613e4957506001610f0d565b50600092915050565b6001600160a01b038516331480613e6e5750613e6e8533610dcc565b613e8a5760405162461bcd60e51b8152600401610ee190615793565b6113ad858585858561464b565b613e9f6139ef565b6003805460ff60a01b1916600160a01b1790557f62e78cea01bee320cd4e420270b5ea74000d11b0c9f74754ebdbfc544b05a258613eda3390565b6040516001600160a01b03909116815260200160405180910390a1565b600380546001600160a01b038381166001600160a01b0319831681179093556040519116919082907f8be0079c531659141344cd1fd0a4f28419497f9722a3daafe3b4186f6b6457e090600090a35050565b6001600160a01b038316613fab5760405162461bcd60e51b815260206004820152602360248201527f455243313135353a206275726e2066726f6d20746865207a65726f206164647260448201526265737360e81b6064820152608401610ee1565b336000613fb7846144a5565b90506000613fc4846144a5565b60408051602080820183526000918290528882528181528282206001600160a01b038b168352905220549091508481101561404d5760405162461bcd60e51b8152602060048201526024808201527f455243313135353a206275726e20616d6f756e7420657863656564732062616c604482015263616e636560e01b6064820152608401610ee1565b6000868152602081815260408083206001600160a01b038b81168086529184528285208a8703905582518b81529384018a90529092908816917fc3d58168c5ae7397731d063d5bbf3d657854427343f4c083240f7aacaa2d0f62910160405180910390a4604080516020810190915260009052613b47565b6110e3338383614820565b6000805b835181101561412857826001600160a01b03168482815181106140f9576140f9615263565b60200260200101516001600160a01b031603614116579050610f0d565b806141208161528f565b9150506140d4565b50509051919050565b815481106141775760405162461bcd60e51b8152602060048201526013602482015272496e646578206f7574206f6620626f756e647360681b6044820152606401610ee1565b805b82546141879060019061545d565b811015614215578261419a826001615379565b815481106141aa576141aa615263565b9060005260206000200160009054906101000a90046001600160a01b03168382815481106141da576141da615263565b600091825260209091200180546001600160a01b0319166001600160a01b03929092169190911790558061420d8161528f565b915050614179565b508180548061422657614226615666565b600082815260209020810160001990810180546001600160a01b03191690550190555050565b614254614900565b6003805460ff60a01b191690557f5db9ee0a495bf2e6ff9c91a7834c1ba4fdd244a5e8aa4e537bd38aeae4b073aa33613eda565b8451811015614320578381815181106142a3576142a3615263565b60200260200101516000808784815181106142c0576142c0615263565b602002602001015181526020019081526020016000206000886001600160a01b03166001600160a01b0316815260200190815260200160002060008282546143089190615379565b909155508190506143188161528f565b915050614288565b50846001600160a01b031660006001600160a01b0316826001600160a01b03167f4a39dc06d4c0dbc64b70af90fd698a233a518aa5d07e595d983b8c0526c8f7fb87876040516143719291906157e1565b60405180910390a46113ad81600087878787614950565b6001600160a01b0385163314806143a457506143a48533610dcc565b6143c05760405162461bcd60e51b8152600401610ee190615793565b6113ad8585858585614a0b565b60008072184f03e93ff9f4daa797ed6e38ed64bf6a1f0160401b831061440c5772184f03e93ff9f4daa797ed6e38ed64bf6a1f0160401b830492506040015b6d04ee2d6d415b85acef81000000008310614438576d04ee2d6d415b85acef8100000000830492506020015b662386f26fc10000831061445657662386f26fc10000830492506010015b6305f5e100831061446e576305f5e100830492506008015b612710831061448257612710830492506004015b60648310614494576064830492506002015b600a8310610f0d5760010192915050565b604080516001808252818301909252606091600091906020808301908036833701905050905082816000815181106144df576144df615263565b602090810291909101015292915050565b6001600160a01b0384163b15613c785760405163f23a6e6160e01b81526001600160a01b0385169063f23a6e61906145349089908990889088908890600401615806565b6020604051808303816000875af192505050801561456f575060408051601f3d908101601f1916820190925261456c9181019061584b565b60015b61461b5761457b615868565b806308c379a0036145b4575061458f615884565b8061459a57506145b6565b8060405162461bcd60e51b8152600401610ee19190614c00565b505b60405162461bcd60e51b815260206004820152603460248201527f455243313135353a207472616e7366657220746f206e6f6e2d455243313135356044820152732932b1b2b4bb32b91034b6b83632b6b2b73a32b960611b6064820152608401610ee1565b6001600160e01b0319811663f23a6e6160e01b14613b475760405162461bcd60e51b8152600401610ee19061590d565b81518351146146ad5760405162461bcd60e51b815260206004820152602860248201527f455243313135353a2069647320616e6420616d6f756e7473206c656e677468206044820152670dad2e6dac2e8c6d60c31b6064820152608401610ee1565b6001600160a01b0384166146d35760405162461bcd60e51b8152600401610ee190615955565b3360005b84518110156147ba5760008582815181106146f4576146f4615263565b60200260200101519050600085838151811061471257614712615263565b602090810291909101810151600084815280835260408082206001600160a01b038e1683529093529190912054909150818110156147625760405162461bcd60e51b8152600401610ee19061599a565b6000838152602081815260408083206001600160a01b038e8116855292528083208585039055908b1682528120805484929061479f908490615379565b92505081905550505050806147b39061528f565b90506146d7565b50846001600160a01b0316866001600160a01b0316826001600160a01b03167f4a39dc06d4c0dbc64b70af90fd698a233a518aa5d07e595d983b8c0526c8f7fb878760405161480a9291906157e1565b60405180910390a4613c78818787878787614950565b816001600160a01b0316836001600160a01b0316036148935760405162461bcd60e51b815260206004820152602960248201527f455243313135353a2073657474696e6720617070726f76616c20737461747573604482015268103337b91039b2b63360b91b6064820152608401610ee1565b6001600160a01b03838116600081815260016020908152604080832094871680845294825291829020805460ff191686151590811790915591519182527f17307eab39ab6107e8899845ad3d59bd9653f200f220920489ca2b5937696c31910160405180910390a3505050565b600354600160a01b900460ff1661285e5760405162461bcd60e51b815260206004820152601460248201527314185d5cd8589b194e881b9bdd081c185d5cd95960621b6044820152606401610ee1565b6001600160a01b0384163b15613c785760405163bc197c8160e01b81526001600160a01b0385169063bc197c819061499490899089908890889088906004016159e4565b6020604051808303816000875af19250505080156149cf575060408051601f3d908101601f191682019092526149cc9181019061584b565b60015b6149db5761457b615868565b6001600160e01b0319811663bc197c8160e01b14613b475760405162461bcd60e51b8152600401610ee19061590d565b6001600160a01b038416614a315760405162461bcd60e51b8152600401610ee190615955565b336000614a3d856144a5565b90506000614a4a856144a5565b90506000868152602081815260408083206001600160a01b038c16845290915290205485811015614a8d5760405162461bcd60e51b8152600401610ee19061599a565b6000878152602081815260408083206001600160a01b038d8116855292528083208985039055908a16825281208054889290614aca908490615379565b909155505060408051888152602081018890526001600160a01b03808b16928c821692918816917fc3d58168c5ae7397731d063d5bbf3d657854427343f4c083240f7aacaa2d0f62910160405180910390a4614b2a848a8a8a8a8a6144f0565b505050505050505050565b6001600160a01b03811681146126a657600080fd5b60008060408385031215614b5d57600080fd5b8235614b6881614b35565b946020939093013593505050565b6001600160e01b0319811681146126a657600080fd5b600060208284031215614b9e57600080fd5b8135614ba981614b76565b9392505050565b60005b83811015614bcb578181015183820152602001614bb3565b50506000910152565b60008151808452614bec816020860160208601614bb0565b601f01601f19169290920160200192915050565b602081526000614ba96020830184614bd4565b634e487b7160e01b600052604160045260246000fd5b601f8201601f191681016001600160401b0381118282101715614c4e57614c4e614c13565b6040525050565b60006001600160401b03821115614c6e57614c6e614c13565b5060051b60200190565b600082601f830112614c8957600080fd5b81356020614c9682614c55565b604051614ca38282614c29565b83815260059390931b8501820192828101915086841115614cc357600080fd5b8286015b84811015614ce7578035614cda81614b35565b8352918301918301614cc7565b509695505050505050565b600060208284031215614d0457600080fd5b81356001600160401b03811115614d1a57600080fd5b614d2684828501614c78565b949350505050565b600060208284031215614d4057600080fd5b5035919050565b600080600060608486031215614d5c57600080fd5b505081359360208301359350604090920135919050565b600060208284031215614d8557600080fd5b8135614ba981614b35565b600082601f830112614da157600080fd5b81356020614dae82614c55565b604051614dbb8282614c29565b83815260059390931b8501820192828101915086841115614ddb57600080fd5b8286015b84811015614ce75780358352918301918301614ddf565b60006001600160401b03821115614e0f57614e0f614c13565b50601f01601f191660200190565b6000614e2883614df6565b604051614e358282614c29565b809250848152858585011115614e4a57600080fd5b8484602083013760006020868301015250509392505050565b600082601f830112614e7457600080fd5b614ba983833560208501614e1d565b600080600080600060a08688031215614e9b57600080fd5b8535614ea681614b35565b94506020860135614eb681614b35565b935060408601356001600160401b0380821115614ed257600080fd5b614ede89838a01614d90565b94506060880135915080821115614ef457600080fd5b614f0089838a01614d90565b93506080880135915080821115614f1657600080fd5b50614f2388828901614e63565b9150509295509295909350565b60008060408385031215614f4357600080fd5b82356001600160401b0380821115614f5a57600080fd5b614f6686838701614c78565b93506020850135915080821115614f7c57600080fd5b50614f8985828601614d90565b9150509250929050565b600081518084526020808501945080840160005b83811015614fc357815187529582019590820190600101614fa7565b509495945050505050565b602081526000614ba96020830184614f93565b600060208284031215614ff357600080fd5b81356001600160401b0381111561500957600080fd5b8201601f8101841361501a57600080fd5b614d2684823560208401614e1d565b60008060006060848603121561503e57600080fd5b833561504981614b35565b95602085013595506040909401359392505050565b80151581146126a657600080fd5b60006020828403121561507e57600080fd5b8135614ba98161505e565b6000806040838503121561509c57600080fd5b82356150a781614b35565b915060208301356150b78161505e565b809150509250929050565b600080602083850312156150d557600080fd5b82356001600160401b03808211156150ec57600080fd5b818501915085601f83011261510057600080fd5b81358181111561510f57600080fd5b8660208260051b850101111561512457600080fd5b60209290920196919550909350505050565b6000806040838503121561514957600080fd5b50508035926020909101359150565b60008060006060848603121561516d57600080fd5b833561517881614b35565b925060208401356001600160401b038082111561519457600080fd5b6151a087838801614d90565b935060408601359150808211156151b657600080fd5b506151c386828701614d90565b9150509250925092565b600080604083850312156151e057600080fd5b82356151eb81614b35565b915060208301356150b781614b35565b600080600080600060a0868803121561521357600080fd5b853561521e81614b35565b9450602086013561522e81614b35565b9350604086013592506060860135915060808601356001600160401b0381111561525757600080fd5b614f2388828901614e63565b634e487b7160e01b600052603260045260246000fd5b634e487b7160e01b600052601160045260246000fd5b6000600182016152a1576152a1615279565b5060010190565b600181811c908216806152bc57607f821691505b6020821081036152dc57634e487b7160e01b600052602260045260246000fd5b50919050565b60008084546152f0816152a8565b60018281168015615308576001811461531d5761534c565b60ff198416875282151583028701945061534c565b8860005260208060002060005b858110156153435781548a82015290840190820161532a565b50505082870194505b505050508351615360818360208801614bb0565b64173539b7b760d91b9101908152600501949350505050565b80820180821115610f0d57610f0d615279565b8082028115828204841417610f0d57610f0d615279565b6000826153c057634e487b7160e01b600052601260045260246000fd5b500490565b60208082526025908201527f506c656173652073656e642074686520636f7272656374206e756d626572206f6040820152640cc408aa8960db1b606082015260800190565b6001600160a01b03929092168252602082015260400190565b60006020828403121561543557600080fd5b8151614ba98161505e565b60006020828403121561545257600080fd5b8151614ba981614b35565b81810381811115610f0d57610f0d615279565b60208082526029908201527f466972654c6f636b3a205265656e7472616e637947756172643a207265656e746040820152681c985b9d0818d85b1b60ba1b606082015260800190565b6020808252602b908201527f46697265536565643a205468652066726f6d206f7220746f206164647265737360408201526a081a5cc81a5b9d985b1a5960aa1b606082015260800190565b6020808252603d908201527f46697265536565643a204f6e6c792074686520677561726469616e20636f6e7460408201527f726163742063616e2073757370656e642074686520636f6e7472616374000000606082015260800190565b601f821115612f3d57600081815260208120601f850160051c810160208610156155885750805b601f850160051c820191505b81811015613c7857828155600101615594565b81516001600160401b038111156155c0576155c0614c13565b6155d4816155ce84546152a8565b84615561565b602080601f83116001811461560957600084156155f15750858301515b600019600386901b1c1916600185901b178555613c78565b600085815260208120601f198616915b8281101561563857888601518255948401946001909101908401615619565b50858210156156565787850151600019600388901b60f8161c191681555b5050505050600190811b01905550565b634e487b7160e01b600052603160045260246000fd5b600082601f83011261568d57600080fd5b815161569881614df6565b6040516156a58282614c29565b8281528560208487010111156156ba57600080fd5b6156cb836020830160208801614bb0565b95945050505050565b600080600080600060a086880312156156ec57600080fd5b8551945060208601516156fe81614b35565b60408701519094506001600160401b038082111561571b57600080fd5b61572789838a0161567c565b9450606088015191508082111561573d57600080fd5b5061574a8882890161567c565b925050608086015190509295509295909350565b60006020828403121561577057600080fd5b5051919050565b60008251615789818460208701614bb0565b9190910192915050565b6020808252602e908201527f455243313135353a2063616c6c6572206973206e6f7420746f6b656e206f776e60408201526d195c881bdc88185c1c1c9bdd995960921b606082015260800190565b6040815260006157f46040830185614f93565b82810360208401526156cb8185614f93565b6001600160a01b03868116825285166020820152604081018490526060810183905260a06080820181905260009061584090830184614bd4565b979650505050505050565b60006020828403121561585d57600080fd5b8151614ba981614b76565b600060033d11156158815760046000803e5060005160e01c5b90565b600060443d10156158925790565b6040516003193d81016004833e81513d6001600160401b0381602484011181841117156158c157505050505090565b82850191508151818111156158d95750505050505090565b843d87010160208285010111156158f35750505050505090565b61590260208286010187614c29565b509095945050505050565b60208082526028908201527f455243313135353a204552433131353552656365697665722072656a656374656040820152676420746f6b656e7360c01b606082015260800190565b60208082526025908201527f455243313135353a207472616e7366657220746f20746865207a65726f206164604082015264647265737360d81b606082015260800190565b6020808252602a908201527f455243313135353a20696e73756666696369656e742062616c616e636520666f60408201526939103a3930b739b332b960b11b606082015260800190565b6001600160a01b0386811682528516602082015260a060408201819052600090615a1090830186614f93565b8281036060840152615a228186614f93565b90508281036080840152615a368185614bd4565b9897505050505050505056fea264697066735822122044df9079a067ad8344b234a2887e942748b6f539eef08a8083468385b18baf1e64736f6c6343000812003368747470733a2f2f62616679626569626c68736264357837727735657a7a7236786f653675326a70797165786266626f7664616f32766a356933633235766d6d3764342e697066732e6e667473746f726167652e6c696e6b2f302e6a736f6e68747470733a2f2f62616679626569626c68736264357837727735657a7a7236786f653675326a70797165786266626f7664616f32766a356933633235766d6d3764342e697066732e6e667473746f726167652e6c696e6b2f",
			"opcodes": "PUSH1 0x80 PUSH1 0x40 MSTORE PUSH1 0x64 PUSH1 0xC SSTORE PUSH3 0xF4240 PUSH1 0x10 SSTORE CALLVALUE DUP1 ISZERO PUSH3 0x1D JUMPI PUSH1 0x0 DUP1 REVERT JUMPDEST POP PUSH1 0x40 MLOAD PUSH3 0x62F2 CODESIZE SUB DUP1 PUSH3 0x62F2 DUP4 CODECOPY DUP2 ADD PUSH1 0x40 DUP2 SWAP1 MSTORE PUSH3 0x40 SWAP2 PUSH3 0x5E4 JUMP JUMPDEST PUSH20 0x3CC6CDDA760B79BAFA08DF41ECFA224F810DCEB6 PUSH1 0x1 PUSH1 0x40 MLOAD DUP1 PUSH1 0x80 ADD PUSH1 0x40 MSTORE DUP1 PUSH1 0x5F DUP2 MSTORE PUSH1 0x20 ADD PUSH3 0x623A PUSH1 0x5F SWAP2 CODECOPY PUSH3 0x7C DUP2 PUSH3 0x328 JUMP JUMPDEST POP PUSH14 0xAAEB6D7670E522A718067333CD4E EXTCODESIZE ISZERO PUSH3 0x1C2 JUMPI DUP1 ISZERO PUSH3 0x110 JUMPI PUSH1 0x40 MLOAD PUSH4 0x3E9F1EDF PUSH1 0xE1 SHL DUP2 MSTORE ADDRESS PUSH1 0x4 DUP3 ADD MSTORE PUSH1 0x1 PUSH1 0x1 PUSH1 0xA0 SHL SUB DUP4 AND PUSH1 0x24 DUP3 ADD MSTORE PUSH14 0xAAEB6D7670E522A718067333CD4E SWAP1 PUSH4 0x7D3E3DBE SWAP1 PUSH1 0x44 ADD JUMPDEST PUSH1 0x0 PUSH1 0x40 MLOAD DUP1 DUP4 SUB DUP2 PUSH1 0x0 DUP8 DUP1 EXTCODESIZE ISZERO DUP1 ISZERO PUSH3 0xF1 JUMPI PUSH1 0x0 DUP1 REVERT JUMPDEST POP GAS CALL ISZERO DUP1 ISZERO PUSH3 0x106 JUMPI RETURNDATASIZE PUSH1 0x0 DUP1 RETURNDATACOPY RETURNDATASIZE PUSH1 0x0 REVERT JUMPDEST POP POP POP POP PUSH3 0x1C2 JUMP JUMPDEST PUSH1 0x1 PUSH1 0x1 PUSH1 0xA0 SHL SUB DUP3 AND ISZERO PUSH3 0x161 JUMPI PUSH1 0x40 MLOAD PUSH4 0xA0AF2903 PUSH1 0xE0 SHL DUP2 MSTORE ADDRESS PUSH1 0x4 DUP3 ADD MSTORE PUSH1 0x1 PUSH1 0x1 PUSH1 0xA0 SHL SUB DUP4 AND PUSH1 0x24 DUP3 ADD MSTORE PUSH14 0xAAEB6D7670E522A718067333CD4E SWAP1 PUSH4 0xA0AF2903 SWAP1 PUSH1 0x44 ADD PUSH3 0xD6 JUMP JUMPDEST PUSH1 0x40 MLOAD PUSH4 0x22107243 PUSH1 0xE1 SHL DUP2 MSTORE ADDRESS PUSH1 0x4 DUP3 ADD MSTORE PUSH14 0xAAEB6D7670E522A718067333CD4E SWAP1 PUSH4 0x4420E486 SWAP1 PUSH1 0x24 ADD PUSH1 0x0 PUSH1 0x40 MLOAD DUP1 DUP4 SUB DUP2 PUSH1 0x0 DUP8 DUP1 EXTCODESIZE ISZERO DUP1 ISZERO PUSH3 0x1A8 JUMPI PUSH1 0x0 DUP1 REVERT JUMPDEST POP GAS CALL ISZERO DUP1 ISZERO PUSH3 0x1BD JUMPI RETURNDATASIZE PUSH1 0x0 DUP1 RETURNDATACOPY RETURNDATASIZE PUSH1 0x0 REVERT JUMPDEST POP POP POP POP JUMPDEST POP PUSH3 0x1D0 SWAP1 POP CALLER PUSH3 0x33A JUMP JUMPDEST PUSH1 0x3 DUP1 SLOAD PUSH1 0xFF PUSH1 0xA0 SHL NOT AND SWAP1 SSTORE PUSH3 0x1F5 PUSH1 0xD PUSH3 0x38C PUSH1 0x20 SWAP1 DUP2 SHL PUSH3 0x38FA OR SWAP1 SHR JUMP JUMPDEST PUSH1 0x1A DUP1 SLOAD PUSH1 0x1 PUSH1 0x1 PUSH1 0xA0 SHL SUB NOT AND PUSH1 0x1 PUSH1 0x1 PUSH1 0xA0 SHL SUB DUP4 AND OR SWAP1 SSTORE PUSH1 0x40 DUP1 MLOAD PUSH1 0x80 DUP2 ADD SWAP1 SWAP2 MSTORE PUSH1 0x59 DUP1 DUP3 MSTORE PUSH3 0x6299 PUSH1 0x20 DUP4 ADD CODECOPY PUSH1 0xE SWAP1 PUSH3 0x238 SWAP1 DUP3 PUSH3 0x6E6 JUMP JUMPDEST POP PUSH2 0x3E8 PUSH1 0x13 SSTORE PUSH1 0x64 PUSH1 0x14 DUP2 SWAP1 SSTORE PUSH1 0x0 PUSH1 0x16 SSTORE PUSH1 0x1 PUSH1 0x15 DUP2 SWAP1 SSTORE PUSH8 0x11C37937E080000 PUSH1 0x11 SSTORE PUSH3 0x26C SWAP2 PUSH1 0xA SWAP1 PUSH3 0x395 JUMP JUMPDEST PUSH3 0x27C PUSH1 0xB PUSH1 0x14 PUSH1 0x5A PUSH3 0x395 JUMP JUMPDEST PUSH3 0x28C PUSH1 0x15 PUSH1 0x1E PUSH1 0x50 PUSH3 0x395 JUMP JUMPDEST PUSH3 0x29C PUSH1 0x1F PUSH1 0x28 PUSH1 0x46 PUSH3 0x395 JUMP JUMPDEST PUSH3 0x2AC PUSH1 0x29 PUSH1 0x32 PUSH1 0x3C PUSH3 0x395 JUMP JUMPDEST PUSH3 0x2BC PUSH1 0x33 PUSH1 0x64 PUSH1 0x32 PUSH3 0x395 JUMP JUMPDEST POP PUSH1 0x46 PUSH1 0x5 DUP2 SWAP1 SSTORE PUSH1 0x14 PUSH1 0x6 DUP2 SWAP1 SSTORE PUSH1 0xA PUSH1 0x7 DUP2 SWAP1 SSTORE SWAP2 DUP3 SSTORE PUSH1 0x8 SSTORE PUSH1 0x9 SSTORE PUSH1 0x64 PUSH1 0x17 SSTORE PUSH1 0x18 DUP1 SLOAD PUSH1 0x1 PUSH1 0x1 PUSH1 0xA0 SHL SUB SWAP5 DUP6 AND PUSH1 0x1 PUSH1 0x1 PUSH1 0xA0 SHL SUB NOT SWAP2 DUP3 AND OR SWAP1 SWAP2 SSTORE PUSH1 0x1C DUP1 SLOAD SWAP4 DUP6 AND SWAP4 DUP3 AND SWAP4 SWAP1 SWAP4 OR SWAP1 SWAP3 SSTORE PUSH1 0x19 DUP1 SLOAD SWAP2 SWAP1 SWAP4 AND SWAP2 AND OR SWAP1 SSTORE PUSH1 0x5A PUSH1 0xB SSTORE PUSH3 0x7B2 JUMP JUMPDEST PUSH1 0x2 PUSH3 0x336 DUP3 DUP3 PUSH3 0x6E6 JUMP JUMPDEST POP POP JUMP JUMPDEST PUSH1 0x3 DUP1 SLOAD PUSH1 0x1 PUSH1 0x1 PUSH1 0xA0 SHL SUB DUP4 DUP2 AND PUSH1 0x1 PUSH1 0x1 PUSH1 0xA0 SHL SUB NOT DUP4 AND DUP2 OR SWAP1 SWAP4 SSTORE PUSH1 0x40 MLOAD SWAP2 AND SWAP2 SWAP1 DUP3 SWAP1 PUSH32 0x8BE0079C531659141344CD1FD0A4F28419497F9722A3DAAFE3B4186F6B6457E0 SWAP1 PUSH1 0x0 SWAP1 LOG3 POP POP JUMP JUMPDEST DUP1 SLOAD PUSH1 0x1 ADD SWAP1 SSTORE JUMP JUMPDEST PUSH3 0x39F PUSH3 0x569 JUMP JUMPDEST DUP2 DUP4 LT PUSH3 0x3F4 JUMPI PUSH1 0x40 MLOAD PUSH3 0x461BCD PUSH1 0xE5 SHL DUP2 MSTORE PUSH1 0x20 PUSH1 0x4 DUP3 ADD MSTORE PUSH1 0x17 PUSH1 0x24 DUP3 ADD MSTORE PUSH32 0x46697265536565643A20496E76616C69642072616E6765000000000000000000 PUSH1 0x44 DUP3 ADD MSTORE PUSH1 0x64 ADD JUMPDEST PUSH1 0x40 MLOAD DUP1 SWAP2 SUB SWAP1 REVERT JUMPDEST PUSH1 0x0 DUP3 DUP2 MSTORE PUSH1 0x24 PUSH1 0x20 MSTORE PUSH1 0x40 SWAP1 KECCAK256 SLOAD ISZERO PUSH3 0x452 JUMPI PUSH1 0x40 MLOAD PUSH3 0x461BCD PUSH1 0xE5 SHL DUP2 MSTORE PUSH1 0x20 PUSH1 0x4 DUP3 ADD MSTORE PUSH1 0x19 PUSH1 0x24 DUP3 ADD MSTORE PUSH32 0x46697265536565643A20496E76616C69642073657474696E6700000000000000 PUSH1 0x44 DUP3 ADD MSTORE PUSH1 0x64 ADD PUSH3 0x3EB JUMP JUMPDEST PUSH1 0x0 DUP4 DUP2 MSTORE PUSH1 0x24 PUSH1 0x20 MSTORE PUSH1 0x40 SWAP1 KECCAK256 SLOAD ISZERO PUSH3 0x4B0 JUMPI PUSH1 0x40 MLOAD PUSH3 0x461BCD PUSH1 0xE5 SHL DUP2 MSTORE PUSH1 0x20 PUSH1 0x4 DUP3 ADD MSTORE PUSH1 0x19 PUSH1 0x24 DUP3 ADD MSTORE PUSH32 0x46697265536565643A20496E76616C69642073657474696E6700000000000000 PUSH1 0x44 DUP3 ADD MSTORE PUSH1 0x64 ADD PUSH3 0x3EB JUMP JUMPDEST PUSH1 0x0 DUP4 DUP2 MSTORE PUSH1 0x24 PUSH1 0x20 SWAP1 DUP2 MSTORE PUSH1 0x40 DUP1 DUP4 KECCAK256 DUP5 SWAP1 SSTORE DUP5 DUP4 MSTORE DUP1 DUP4 KECCAK256 DUP5 SWAP1 SSTORE DUP1 MLOAD PUSH1 0x60 DUP2 ADD DUP3 MSTORE SWAP6 DUP7 MSTORE SWAP1 DUP6 ADD SWAP4 DUP5 MSTORE DUP5 ADD SWAP2 DUP3 MSTORE PUSH1 0x1E DUP1 SLOAD PUSH1 0x1 DUP2 ADD DUP3 SSTORE SWAP2 MSTORE SWAP3 MLOAD PUSH32 0x50BB669A95C7B50B7E8A6F09454034B2B14CF2B85C730DCA9A539CA82CB6E350 PUSH1 0x3 SWAP1 SWAP5 MUL SWAP4 DUP5 ADD SSTORE SWAP1 MLOAD PUSH32 0x50BB669A95C7B50B7E8A6F09454034B2B14CF2B85C730DCA9A539CA82CB6E351 DUP4 ADD SSTORE MLOAD PUSH32 0x50BB669A95C7B50B7E8A6F09454034B2B14CF2B85C730DCA9A539CA82CB6E352 SWAP1 SWAP2 ADD SSTORE JUMP JUMPDEST PUSH1 0x3 SLOAD PUSH1 0x1 PUSH1 0x1 PUSH1 0xA0 SHL SUB AND CALLER EQ PUSH3 0x5C5 JUMPI PUSH1 0x40 MLOAD PUSH3 0x461BCD PUSH1 0xE5 SHL DUP2 MSTORE PUSH1 0x20 PUSH1 0x4 DUP3 ADD DUP2 SWAP1 MSTORE PUSH1 0x24 DUP3 ADD MSTORE PUSH32 0x4F776E61626C653A2063616C6C6572206973206E6F7420746865206F776E6572 PUSH1 0x44 DUP3 ADD MSTORE PUSH1 0x64 ADD PUSH3 0x3EB JUMP JUMPDEST JUMP JUMPDEST DUP1 MLOAD PUSH1 0x1 PUSH1 0x1 PUSH1 0xA0 SHL SUB DUP2 AND DUP2 EQ PUSH3 0x5DF JUMPI PUSH1 0x0 DUP1 REVERT JUMPDEST SWAP2 SWAP1 POP JUMP JUMPDEST PUSH1 0x0 DUP1 PUSH1 0x0 DUP1 PUSH1 0x80 DUP6 DUP8 SUB SLT ISZERO PUSH3 0x5FB JUMPI PUSH1 0x0 DUP1 REVERT JUMPDEST PUSH3 0x606 DUP6 PUSH3 0x5C7 JUMP JUMPDEST SWAP4 POP PUSH3 0x616 PUSH1 0x20 DUP7 ADD PUSH3 0x5C7 JUMP JUMPDEST SWAP3 POP PUSH3 0x626 PUSH1 0x40 DUP7 ADD PUSH3 0x5C7 JUMP JUMPDEST SWAP2 POP PUSH3 0x636 PUSH1 0x60 DUP7 ADD PUSH3 0x5C7 JUMP JUMPDEST SWAP1 POP SWAP3 SWAP6 SWAP2 SWAP5 POP SWAP3 POP JUMP JUMPDEST PUSH4 0x4E487B71 PUSH1 0xE0 SHL PUSH1 0x0 MSTORE PUSH1 0x41 PUSH1 0x4 MSTORE PUSH1 0x24 PUSH1 0x0 REVERT JUMPDEST PUSH1 0x1 DUP2 DUP2 SHR SWAP1 DUP3 AND DUP1 PUSH3 0x66C JUMPI PUSH1 0x7F DUP3 AND SWAP2 POP JUMPDEST PUSH1 0x20 DUP3 LT DUP2 SUB PUSH3 0x68D JUMPI PUSH4 0x4E487B71 PUSH1 0xE0 SHL PUSH1 0x0 MSTORE PUSH1 0x22 PUSH1 0x4 MSTORE PUSH1 0x24 PUSH1 0x0 REVERT JUMPDEST POP SWAP2 SWAP1 POP JUMP JUMPDEST PUSH1 0x1F DUP3 GT ISZERO PUSH3 0x6E1 JUMPI PUSH1 0x0 DUP2 DUP2 MSTORE PUSH1 0x20 DUP2 KECCAK256 PUSH1 0x1F DUP6 ADD PUSH1 0x5 SHR DUP2 ADD PUSH1 0x20 DUP7 LT ISZERO PUSH3 0x6BC JUMPI POP DUP1 JUMPDEST PUSH1 0x1F DUP6 ADD PUSH1 0x5 SHR DUP3 ADD SWAP2 POP JUMPDEST DUP2 DUP2 LT ISZERO PUSH3 0x6DD JUMPI DUP3 DUP2 SSTORE PUSH1 0x1 ADD PUSH3 0x6C8 JUMP JUMPDEST POP POP POP JUMPDEST POP POP POP JUMP JUMPDEST DUP2 MLOAD PUSH1 0x1 PUSH1 0x1 PUSH1 0x40 SHL SUB DUP2 GT ISZERO PUSH3 0x702 JUMPI PUSH3 0x702 PUSH3 0x641 JUMP JUMPDEST PUSH3 0x71A DUP2 PUSH3 0x713 DUP5 SLOAD PUSH3 0x657 JUMP JUMPDEST DUP5 PUSH3 0x693 JUMP JUMPDEST PUSH1 0x20 DUP1 PUSH1 0x1F DUP4 GT PUSH1 0x1 DUP2 EQ PUSH3 0x752 JUMPI PUSH1 0x0 DUP5 ISZERO PUSH3 0x739 JUMPI POP DUP6 DUP4 ADD MLOAD JUMPDEST PUSH1 0x0 NOT PUSH1 0x3 DUP7 SWAP1 SHL SHR NOT AND PUSH1 0x1 DUP6 SWAP1 SHL OR DUP6 SSTORE PUSH3 0x6DD JUMP JUMPDEST PUSH1 0x0 DUP6 DUP2 MSTORE PUSH1 0x20 DUP2 KECCAK256 PUSH1 0x1F NOT DUP7 AND SWAP2 JUMPDEST DUP3 DUP2 LT ISZERO PUSH3 0x783 JUMPI DUP9 DUP7 ADD MLOAD DUP3 SSTORE SWAP5 DUP5 ADD SWAP5 PUSH1 0x1 SWAP1 SWAP2 ADD SWAP1 DUP5 ADD PUSH3 0x762 JUMP JUMPDEST POP DUP6 DUP3 LT ISZERO PUSH3 0x7A2 JUMPI DUP8 DUP6 ADD MLOAD PUSH1 0x0 NOT PUSH1 0x3 DUP9 SWAP1 SHL PUSH1 0xF8 AND SHR NOT AND DUP2 SSTORE JUMPDEST POP POP POP POP POP PUSH1 0x1 SWAP1 DUP2 SHL ADD SWAP1 SSTORE POP JUMP JUMPDEST PUSH2 0x5A78 DUP1 PUSH3 0x7C2 PUSH1 0x0 CODECOPY PUSH1 0x0 RETURN INVALID PUSH1 0x80 PUSH1 0x40 MSTORE PUSH1 0x4 CALLDATASIZE LT PUSH2 0x460 JUMPI PUSH1 0x0 CALLDATALOAD PUSH1 0xE0 SHR DUP1 PUSH4 0x7A6B2779 GT PUSH2 0x23F JUMPI DUP1 PUSH4 0xB11560C5 GT PUSH2 0x139 JUMPI DUP1 PUSH4 0xE23767E2 GT PUSH2 0xB6 JUMPI DUP1 PUSH4 0xE985E9C5 GT PUSH2 0x7A JUMPI DUP1 PUSH4 0xE985E9C5 EQ PUSH2 0xDB1 JUMPI DUP1 PUSH4 0xF242432A EQ PUSH2 0xDFA JUMPI DUP1 PUSH4 0xF2FDE38B EQ PUSH2 0xE1A JUMPI DUP1 PUSH4 0xFB7E9463 EQ PUSH2 0xE3A JUMPI DUP1 PUSH4 0xFD4329F4 EQ PUSH2 0xE5A JUMPI PUSH1 0x0 DUP1 REVERT JUMPDEST DUP1 PUSH4 0xE23767E2 EQ PUSH2 0xD22 JUMPI DUP1 PUSH4 0xE24B4E76 EQ PUSH2 0xD38 JUMPI DUP1 PUSH4 0xE2F49E30 EQ PUSH2 0xD65 JUMPI DUP1 PUSH4 0xE3840BC1 EQ PUSH2 0xD7B JUMPI DUP1 PUSH4 0xE9107786 EQ PUSH2 0xD9B JUMPI PUSH1 0x0 DUP1 REVERT JUMPDEST DUP1 PUSH4 0xCD07442E GT PUSH2 0xFD JUMPI DUP1 PUSH4 0xCD07442E EQ PUSH2 0xC89 JUMPI DUP1 PUSH4 0xD66961CD EQ PUSH2 0xC9E JUMPI DUP1 PUSH4 0xD81D0A15 EQ PUSH2 0xCB4 JUMPI DUP1 PUSH4 0xDCCA3755 EQ PUSH2 0xCD4 JUMPI DUP1 PUSH4 0xDDCA3F43 EQ PUSH2 0xD0C JUMPI PUSH1 0x0 DUP1 REVERT JUMPDEST DUP1 PUSH4 0xB11560C5 EQ PUSH2 0xBF4 JUMPI DUP1 PUSH4 0xB33712C5 EQ PUSH2 0xC14 JUMPI DUP1 PUSH4 0xBA4CACE8 EQ PUSH2 0xC29 JUMPI DUP1 PUSH4 0xC0191114 EQ PUSH2 0xC49 JUMPI DUP1 PUSH4 0xCC7EF800 EQ PUSH2 0xC69 JUMPI PUSH1 0x0 DUP1 REVERT JUMPDEST DUP1 PUSH4 0x942A330D GT PUSH2 0x1C7 JUMPI DUP1 PUSH4 0x9CCCEB11 GT PUSH2 0x18B JUMPI DUP1 PUSH4 0x9CCCEB11 EQ PUSH2 0xB52 JUMPI DUP1 PUSH4 0x9D345915 EQ PUSH2 0xB72 JUMPI DUP1 PUSH4 0xA22CB465 EQ PUSH2 0xB92 JUMPI DUP1 PUSH4 0xA45F4753 EQ PUSH2 0xBB2 JUMPI DUP1 PUSH4 0xAA49C75D EQ PUSH2 0xBD4 JUMPI PUSH1 0x0 DUP1 REVERT JUMPDEST DUP1 PUSH4 0x942A330D EQ PUSH2 0xA89 JUMPI DUP1 PUSH4 0x95D89B41 EQ PUSH2 0xAA9 JUMPI DUP1 PUSH4 0x976138C1 EQ PUSH2 0xADD JUMPI DUP1 PUSH4 0x9902DE2A EQ PUSH2 0xB12 JUMPI DUP1 PUSH4 0x99C9220E EQ PUSH2 0xB32 JUMPI PUSH1 0x0 DUP1 REVERT JUMPDEST DUP1 PUSH4 0x8AF668D5 GT PUSH2 0x20E JUMPI DUP1 PUSH4 0x8AF668D5 EQ PUSH2 0x9FF JUMPI DUP1 PUSH4 0x8C7B8D77 EQ PUSH2 0xA15 JUMPI DUP1 PUSH4 0x8D6EAF94 EQ PUSH2 0xA35 JUMPI DUP1 PUSH4 0x8DA5CB5B EQ PUSH2 0xA4B JUMPI DUP1 PUSH4 0x93E4BDBA EQ PUSH2 0xA69 JUMPI PUSH1 0x0 DUP1 REVERT JUMPDEST DUP1 PUSH4 0x7A6B2779 EQ PUSH2 0x96F JUMPI DUP1 PUSH4 0x7BC03CDF EQ PUSH2 0x984 JUMPI DUP1 PUSH4 0x7EC90DAC EQ PUSH2 0x9A4 JUMPI DUP1 PUSH4 0x8AD5AA2D EQ PUSH2 0x9DF JUMPI PUSH1 0x0 DUP1 REVERT JUMPDEST DUP1 PUSH4 0x42F524D2 GT PUSH2 0x35B JUMPI DUP1 PUSH4 0x69FE0E2D GT PUSH2 0x2D8 JUMPI DUP1 PUSH4 0x70CA09BC GT PUSH2 0x29C JUMPI DUP1 PUSH4 0x70CA09BC EQ PUSH2 0x8DE JUMPI DUP1 PUSH4 0x715018A6 EQ PUSH2 0x8FE JUMPI DUP1 PUSH4 0x719BEA48 EQ PUSH2 0x913 JUMPI DUP1 PUSH4 0x741C2974 EQ PUSH2 0x943 JUMPI DUP1 PUSH4 0x7501F741 EQ PUSH2 0x959 JUMPI PUSH1 0x0 DUP1 REVERT JUMPDEST DUP1 PUSH4 0x69FE0E2D EQ PUSH2 0x85D JUMPI DUP1 PUSH4 0x6A8244AD EQ PUSH2 0x87D JUMPI DUP1 PUSH4 0x6B192629 EQ PUSH2 0x893 JUMPI DUP1 PUSH4 0x6B970684 EQ PUSH2 0x8A9 JUMPI DUP1 PUSH4 0x6C0360EB EQ PUSH2 0x8C9 JUMPI PUSH1 0x0 DUP1 REVERT JUMPDEST DUP1 PUSH4 0x55F804B3 GT PUSH2 0x31F JUMPI DUP1 PUSH4 0x55F804B3 EQ PUSH2 0x7C8 JUMPI DUP1 PUSH4 0x598DF747 EQ PUSH2 0x7E8 JUMPI DUP1 PUSH4 0x5C475D42 EQ PUSH2 0x7FE JUMPI DUP1 PUSH4 0x5C975ABB EQ PUSH2 0x81E JUMPI DUP1 PUSH4 0x5D564803 EQ PUSH2 0x83D JUMPI PUSH1 0x0 DUP1 REVERT JUMPDEST DUP1 PUSH4 0x42F524D2 EQ PUSH2 0x731 JUMPI DUP1 PUSH4 0x439766CE EQ PUSH2 0x750 JUMPI DUP1 PUSH4 0x4E1273F4 EQ PUSH2 0x765 JUMPI DUP1 PUSH4 0x500C5897 EQ PUSH2 0x792 JUMPI DUP1 PUSH4 0x530AD63E EQ PUSH2 0x7A8 JUMPI PUSH1 0x0 DUP1 REVERT JUMPDEST DUP1 PUSH4 0x2C3B372E GT PUSH2 0x3E9 JUMPI DUP1 PUSH4 0x35A4EA5D GT PUSH2 0x3AD JUMPI DUP1 PUSH4 0x35A4EA5D EQ PUSH2 0x6A3 JUMPI DUP1 PUSH4 0x3989456C EQ PUSH2 0x6B9 JUMPI DUP1 PUSH4 0x3B98CECA EQ PUSH2 0x6D9 JUMPI DUP1 PUSH4 0x3FC8CEF3 EQ PUSH2 0x6EF JUMPI DUP1 PUSH4 0x41F43434 EQ PUSH2 0x70F JUMPI PUSH1 0x0 DUP1 REVERT JUMPDEST DUP1 PUSH4 0x2C3B372E EQ PUSH2 0x5EA JUMPI DUP1 PUSH4 0x2D272ED8 EQ PUSH2 0x5FD JUMPI DUP1 PUSH4 0x2EB2C2D6 EQ PUSH2 0x633 JUMPI DUP1 PUSH4 0x317152F3 EQ PUSH2 0x653 JUMPI DUP1 PUSH4 0x3222E738 EQ PUSH2 0x683 JUMPI PUSH1 0x0 DUP1 REVERT JUMPDEST DUP1 PUSH4 0xE01D8E2 GT PUSH2 0x430 JUMPI DUP1 PUSH4 0xE01D8E2 EQ PUSH2 0x532 JUMPI DUP1 PUSH4 0xE89341C EQ PUSH2 0x56A JUMPI DUP1 PUSH4 0x11637B0F EQ PUSH2 0x58A JUMPI DUP1 PUSH4 0x1A5EF71C EQ PUSH2 0x5AA JUMPI DUP1 PUSH4 0x23FFED4F EQ PUSH2 0x5CA JUMPI PUSH1 0x0 DUP1 REVERT JUMPDEST DUP1 PUSH3 0xFDD58E EQ PUSH2 0x46C JUMPI DUP1 PUSH4 0x1FFC9A7 EQ PUSH2 0x49F JUMPI DUP1 PUSH4 0x6FDDE03 EQ PUSH2 0x4CF JUMPI DUP1 PUSH4 0x9982E82 EQ PUSH2 0x510 JUMPI PUSH1 0x0 DUP1 REVERT JUMPDEST CALLDATASIZE PUSH2 0x467 JUMPI STOP JUMPDEST PUSH1 0x0 DUP1 REVERT JUMPDEST CALLVALUE DUP1 ISZERO PUSH2 0x478 JUMPI PUSH1 0x0 DUP1 REVERT JUMPDEST POP PUSH2 0x48C PUSH2 0x487 CALLDATASIZE PUSH1 0x4 PUSH2 0x4B4A JUMP JUMPDEST PUSH2 0xE7A JUMP JUMPDEST PUSH1 0x40 MLOAD SWAP1 DUP2 MSTORE PUSH1 0x20 ADD JUMPDEST PUSH1 0x40 MLOAD DUP1 SWAP2 SUB SWAP1 RETURN JUMPDEST CALLVALUE DUP1 ISZERO PUSH2 0x4AB JUMPI PUSH1 0x0 DUP1 REVERT JUMPDEST POP PUSH2 0x4BF PUSH2 0x4BA CALLDATASIZE PUSH1 0x4 PUSH2 0x4B8C JUMP JUMPDEST PUSH2 0xF13 JUMP JUMPDEST PUSH1 0x40 MLOAD SWAP1 ISZERO ISZERO DUP2 MSTORE PUSH1 0x20 ADD PUSH2 0x496 JUMP JUMPDEST CALLVALUE DUP1 ISZERO PUSH2 0x4DB JUMPI PUSH1 0x0 DUP1 REVERT JUMPDEST POP PUSH2 0x503 PUSH1 0x40 MLOAD DUP1 PUSH1 0x40 ADD PUSH1 0x40 MSTORE DUP1 PUSH1 0x8 DUP2 MSTORE PUSH1 0x20 ADD PUSH8 0x119A5C9954D95959 PUSH1 0xC2 SHL DUP2 MSTORE POP DUP2 JUMP JUMPDEST PUSH1 0x40 MLOAD PUSH2 0x496 SWAP2 SWAP1 PUSH2 0x4C00 JUMP JUMPDEST CALLVALUE DUP1 ISZERO PUSH2 0x51C JUMPI PUSH1 0x0 DUP1 REVERT JUMPDEST POP PUSH2 0x530 PUSH2 0x52B CALLDATASIZE PUSH1 0x4 PUSH2 0x4CF2 JUMP JUMPDEST PUSH2 0xF63 JUMP JUMPDEST STOP JUMPDEST CALLVALUE DUP1 ISZERO PUSH2 0x53E JUMPI PUSH1 0x0 DUP1 REVERT JUMPDEST POP PUSH2 0x552 PUSH2 0x54D CALLDATASIZE PUSH1 0x4 PUSH2 0x4B4A JUMP JUMPDEST PUSH2 0x10E7 JUMP JUMPDEST PUSH1 0x40 MLOAD PUSH1 0x1 PUSH1 0x1 PUSH1 0xA0 SHL SUB SWAP1 SWAP2 AND DUP2 MSTORE PUSH1 0x20 ADD PUSH2 0x496 JUMP JUMPDEST CALLVALUE DUP1 ISZERO PUSH2 0x576 JUMPI PUSH1 0x0 DUP1 REVERT JUMPDEST POP PUSH2 0x503 PUSH2 0x585 CALLDATASIZE PUSH1 0x4 PUSH2 0x4D2E JUMP JUMPDEST PUSH2 0x111F JUMP JUMPDEST CALLVALUE DUP1 ISZERO PUSH2 0x596 JUMPI PUSH1 0x0 DUP1 REVERT JUMPDEST POP PUSH2 0x530 PUSH2 0x5A5 CALLDATASIZE PUSH1 0x4 PUSH2 0x4D47 JUMP JUMPDEST PUSH2 0x1153 JUMP JUMPDEST CALLVALUE DUP1 ISZERO PUSH2 0x5B6 JUMPI PUSH1 0x0 DUP1 REVERT JUMPDEST POP PUSH1 0x1B SLOAD PUSH2 0x552 SWAP1 PUSH1 0x1 PUSH1 0x1 PUSH1 0xA0 SHL SUB AND DUP2 JUMP JUMPDEST CALLVALUE DUP1 ISZERO PUSH2 0x5D6 JUMPI PUSH1 0x0 DUP1 REVERT JUMPDEST POP PUSH2 0x48C PUSH2 0x5E5 CALLDATASIZE PUSH1 0x4 PUSH2 0x4B4A JUMP JUMPDEST PUSH2 0x11C9 JUMP JUMPDEST PUSH2 0x530 PUSH2 0x5F8 CALLDATASIZE PUSH1 0x4 PUSH2 0x4D2E JUMP JUMPDEST PUSH2 0x11FA JUMP JUMPDEST CALLVALUE DUP1 ISZERO PUSH2 0x609 JUMPI PUSH1 0x0 DUP1 REVERT JUMPDEST POP PUSH2 0x48C PUSH2 0x618 CALLDATASIZE PUSH1 0x4 PUSH2 0x4D73 JUMP JUMPDEST PUSH1 0x1 PUSH1 0x1 PUSH1 0xA0 SHL SUB AND PUSH1 0x0 SWAP1 DUP2 MSTORE PUSH1 0x21 PUSH1 0x20 MSTORE PUSH1 0x40 SWAP1 KECCAK256 SLOAD SWAP1 JUMP JUMPDEST CALLVALUE DUP1 ISZERO PUSH2 0x63F JUMPI PUSH1 0x0 DUP1 REVERT JUMPDEST POP PUSH2 0x530 PUSH2 0x64E CALLDATASIZE PUSH1 0x4 PUSH2 0x4E83 JUMP JUMPDEST PUSH2 0x26A9 JUMP JUMPDEST CALLVALUE DUP1 ISZERO PUSH2 0x65F JUMPI PUSH1 0x0 DUP1 REVERT JUMPDEST POP PUSH2 0x4BF PUSH2 0x66E CALLDATASIZE PUSH1 0x4 PUSH2 0x4D73 JUMP JUMPDEST PUSH1 0x1F PUSH1 0x20 MSTORE PUSH1 0x0 SWAP1 DUP2 MSTORE PUSH1 0x40 SWAP1 KECCAK256 SLOAD PUSH1 0xFF AND DUP2 JUMP JUMPDEST CALLVALUE DUP1 ISZERO PUSH2 0x68F JUMPI PUSH1 0x0 DUP1 REVERT JUMPDEST POP PUSH2 0x530 PUSH2 0x69E CALLDATASIZE PUSH1 0x4 PUSH2 0x4D2E JUMP JUMPDEST PUSH2 0x280C JUMP JUMPDEST CALLVALUE DUP1 ISZERO PUSH2 0x6AF JUMPI PUSH1 0x0 DUP1 REVERT JUMPDEST POP PUSH2 0x48C PUSH1 0xB SLOAD DUP2 JUMP JUMPDEST CALLVALUE DUP1 ISZERO PUSH2 0x6C5 JUMPI PUSH1 0x0 DUP1 REVERT JUMPDEST POP PUSH2 0x530 PUSH2 0x6D4 CALLDATASIZE PUSH1 0x4 PUSH2 0x4D2E JUMP JUMPDEST PUSH2 0x2819 JUMP JUMPDEST CALLVALUE DUP1 ISZERO PUSH2 0x6E5 JUMPI PUSH1 0x0 DUP1 REVERT JUMPDEST POP PUSH2 0x48C PUSH1 0x13 SLOAD DUP2 JUMP JUMPDEST CALLVALUE DUP1 ISZERO PUSH2 0x6FB JUMPI PUSH1 0x0 DUP1 REVERT JUMPDEST POP PUSH1 0x1A SLOAD PUSH2 0x552 SWAP1 PUSH1 0x1 PUSH1 0x1 PUSH1 0xA0 SHL SUB AND DUP2 JUMP JUMPDEST CALLVALUE DUP1 ISZERO PUSH2 0x71B JUMPI PUSH1 0x0 DUP1 REVERT JUMPDEST POP PUSH2 0x552 PUSH14 0xAAEB6D7670E522A718067333CD4E DUP2 JUMP JUMPDEST CALLVALUE DUP1 ISZERO PUSH2 0x73D JUMPI PUSH1 0x0 DUP1 REVERT JUMPDEST POP PUSH1 0xF SLOAD PUSH2 0x4BF SWAP1 PUSH2 0x100 SWAP1 DIV PUSH1 0xFF AND DUP2 JUMP JUMPDEST CALLVALUE DUP1 ISZERO PUSH2 0x75C JUMPI PUSH1 0x0 DUP1 REVERT JUMPDEST POP PUSH2 0x530 PUSH2 0x2826 JUMP JUMPDEST CALLVALUE DUP1 ISZERO PUSH2 0x771 JUMPI PUSH1 0x0 DUP1 REVERT JUMPDEST POP PUSH2 0x785 PUSH2 0x780 CALLDATASIZE PUSH1 0x4 PUSH2 0x4F30 JUMP JUMPDEST PUSH2 0x2860 JUMP JUMPDEST PUSH1 0x40 MLOAD PUSH2 0x496 SWAP2 SWAP1 PUSH2 0x4FCE JUMP JUMPDEST CALLVALUE DUP1 ISZERO PUSH2 0x79E JUMPI PUSH1 0x0 DUP1 REVERT JUMPDEST POP PUSH2 0x48C PUSH1 0xA SLOAD DUP2 JUMP JUMPDEST CALLVALUE DUP1 ISZERO PUSH2 0x7B4 JUMPI PUSH1 0x0 DUP1 REVERT JUMPDEST POP PUSH2 0x530 PUSH2 0x7C3 CALLDATASIZE PUSH1 0x4 PUSH2 0x4D47 JUMP JUMPDEST PUSH2 0x2989 JUMP JUMPDEST CALLVALUE DUP1 ISZERO PUSH2 0x7D4 JUMPI PUSH1 0x0 DUP1 REVERT JUMPDEST POP PUSH2 0x530 PUSH2 0x7E3 CALLDATASIZE PUSH1 0x4 PUSH2 0x4FE1 JUMP JUMPDEST PUSH2 0x29FF JUMP JUMPDEST CALLVALUE DUP1 ISZERO PUSH2 0x7F4 JUMPI PUSH1 0x0 DUP1 REVERT JUMPDEST POP PUSH2 0x48C PUSH1 0x9 SLOAD DUP2 JUMP JUMPDEST CALLVALUE DUP1 ISZERO PUSH2 0x80A JUMPI PUSH1 0x0 DUP1 REVERT JUMPDEST POP PUSH2 0x552 PUSH2 0x819 CALLDATASIZE PUSH1 0x4 PUSH2 0x4D2E JUMP JUMPDEST PUSH2 0x2A13 JUMP JUMPDEST CALLVALUE DUP1 ISZERO PUSH2 0x82A JUMPI PUSH1 0x0 DUP1 REVERT JUMPDEST POP PUSH1 0x3 SLOAD PUSH1 0x1 PUSH1 0xA0 SHL SWAP1 DIV PUSH1 0xFF AND PUSH2 0x4BF JUMP JUMPDEST CALLVALUE DUP1 ISZERO PUSH2 0x849 JUMPI PUSH1 0x0 DUP1 REVERT JUMPDEST POP PUSH2 0x530 PUSH2 0x858 CALLDATASIZE PUSH1 0x4 PUSH2 0x4D73 JUMP JUMPDEST PUSH2 0x2A3D JUMP JUMPDEST CALLVALUE DUP1 ISZERO PUSH2 0x869 JUMPI PUSH1 0x0 DUP1 REVERT JUMPDEST POP PUSH2 0x530 PUSH2 0x878 CALLDATASIZE PUSH1 0x4 PUSH2 0x4D2E JUMP JUMPDEST PUSH2 0x2A69 JUMP JUMPDEST CALLVALUE DUP1 ISZERO PUSH2 0x889 JUMPI PUSH1 0x0 DUP1 REVERT JUMPDEST POP PUSH2 0x48C PUSH1 0x8 SLOAD DUP2 JUMP JUMPDEST CALLVALUE DUP1 ISZERO PUSH2 0x89F JUMPI PUSH1 0x0 DUP1 REVERT JUMPDEST POP PUSH2 0x48C PUSH1 0x16 SLOAD DUP2 JUMP JUMPDEST CALLVALUE DUP1 ISZERO PUSH2 0x8B5 JUMPI PUSH1 0x0 DUP1 REVERT JUMPDEST POP PUSH2 0x530 PUSH2 0x8C4 CALLDATASIZE PUSH1 0x4 PUSH2 0x4D2E JUMP JUMPDEST PUSH2 0x2A76 JUMP JUMPDEST CALLVALUE DUP1 ISZERO PUSH2 0x8D5 JUMPI PUSH1 0x0 DUP1 REVERT JUMPDEST POP PUSH2 0x503 PUSH2 0x2A83 JUMP JUMPDEST CALLVALUE DUP1 ISZERO PUSH2 0x8EA JUMPI PUSH1 0x0 DUP1 REVERT JUMPDEST POP PUSH1 0x1C SLOAD PUSH2 0x552 SWAP1 PUSH1 0x1 PUSH1 0x1 PUSH1 0xA0 SHL SUB AND DUP2 JUMP JUMPDEST CALLVALUE DUP1 ISZERO PUSH2 0x90A JUMPI PUSH1 0x0 DUP1 REVERT JUMPDEST POP PUSH2 0x530 PUSH2 0x2B11 JUMP JUMPDEST CALLVALUE DUP1 ISZERO PUSH2 0x91F JUMPI PUSH1 0x0 DUP1 REVERT JUMPDEST POP PUSH2 0x4BF PUSH2 0x92E CALLDATASIZE PUSH1 0x4 PUSH2 0x4D73 JUMP JUMPDEST PUSH1 0x22 PUSH1 0x20 MSTORE PUSH1 0x0 SWAP1 DUP2 MSTORE PUSH1 0x40 SWAP1 KECCAK256 SLOAD PUSH1 0xFF AND DUP2 JUMP JUMPDEST CALLVALUE DUP1 ISZERO PUSH2 0x94F JUMPI PUSH1 0x0 DUP1 REVERT JUMPDEST POP PUSH2 0x48C PUSH1 0x17 SLOAD DUP2 JUMP JUMPDEST CALLVALUE DUP1 ISZERO PUSH2 0x965 JUMPI PUSH1 0x0 DUP1 REVERT JUMPDEST POP PUSH2 0x48C PUSH1 0x10 SLOAD DUP2 JUMP JUMPDEST CALLVALUE DUP1 ISZERO PUSH2 0x97B JUMPI PUSH1 0x0 DUP1 REVERT JUMPDEST POP PUSH1 0x1E SLOAD PUSH2 0x48C JUMP JUMPDEST CALLVALUE DUP1 ISZERO PUSH2 0x990 JUMPI PUSH1 0x0 DUP1 REVERT JUMPDEST POP PUSH2 0x530 PUSH2 0x99F CALLDATASIZE PUSH1 0x4 PUSH2 0x4D2E JUMP JUMPDEST PUSH2 0x2B23 JUMP JUMPDEST CALLVALUE DUP1 ISZERO PUSH2 0x9B0 JUMPI PUSH1 0x0 DUP1 REVERT JUMPDEST POP PUSH2 0x9C4 PUSH2 0x9BF CALLDATASIZE PUSH1 0x4 PUSH2 0x4D2E JUMP JUMPDEST PUSH2 0x2B80 JUMP JUMPDEST PUSH1 0x40 DUP1 MLOAD SWAP4 DUP5 MSTORE PUSH1 0x20 DUP5 ADD SWAP3 SWAP1 SWAP3 MSTORE SWAP1 DUP3 ADD MSTORE PUSH1 0x60 ADD PUSH2 0x496 JUMP JUMPDEST CALLVALUE DUP1 ISZERO PUSH2 0x9EB JUMPI PUSH1 0x0 DUP1 REVERT JUMPDEST POP PUSH2 0x530 PUSH2 0x9FA CALLDATASIZE PUSH1 0x4 PUSH2 0x4D47 JUMP JUMPDEST PUSH2 0x2BB3 JUMP JUMPDEST CALLVALUE DUP1 ISZERO PUSH2 0xA0B JUMPI PUSH1 0x0 DUP1 REVERT JUMPDEST POP PUSH2 0x48C PUSH1 0x6 SLOAD DUP2 JUMP JUMPDEST CALLVALUE DUP1 ISZERO PUSH2 0xA21 JUMPI PUSH1 0x0 DUP1 REVERT JUMPDEST POP PUSH2 0x530 PUSH2 0xA30 CALLDATASIZE PUSH1 0x4 PUSH2 0x5029 JUMP JUMPDEST PUSH2 0x2D73 JUMP JUMPDEST CALLVALUE DUP1 ISZERO PUSH2 0xA41 JUMPI PUSH1 0x0 DUP1 REVERT JUMPDEST POP PUSH2 0x48C PUSH1 0x5 SLOAD DUP2 JUMP JUMPDEST CALLVALUE DUP1 ISZERO PUSH2 0xA57 JUMPI PUSH1 0x0 DUP1 REVERT JUMPDEST POP PUSH1 0x3 SLOAD PUSH1 0x1 PUSH1 0x1 PUSH1 0xA0 SHL SUB AND PUSH2 0x552 JUMP JUMPDEST CALLVALUE DUP1 ISZERO PUSH2 0xA75 JUMPI PUSH1 0x0 DUP1 REVERT JUMPDEST POP PUSH2 0x530 PUSH2 0xA84 CALLDATASIZE PUSH1 0x4 PUSH2 0x4D73 JUMP JUMPDEST PUSH2 0x2F42 JUMP JUMPDEST CALLVALUE DUP1 ISZERO PUSH2 0xA95 JUMPI PUSH1 0x0 DUP1 REVERT JUMPDEST POP PUSH2 0x530 PUSH2 0xAA4 CALLDATASIZE PUSH1 0x4 PUSH2 0x4D2E JUMP JUMPDEST PUSH2 0x2F6C JUMP JUMPDEST CALLVALUE DUP1 ISZERO PUSH2 0xAB5 JUMPI PUSH1 0x0 DUP1 REVERT JUMPDEST POP PUSH2 0x503 PUSH1 0x40 MLOAD DUP1 PUSH1 0x40 ADD PUSH1 0x40 MSTORE DUP1 PUSH1 0x8 DUP2 MSTORE PUSH1 0x20 ADD PUSH8 0x1192549154D15151 PUSH1 0xC2 SHL DUP2 MSTORE POP DUP2 JUMP JUMPDEST CALLVALUE DUP1 ISZERO PUSH2 0xAE9 JUMPI PUSH1 0x0 DUP1 REVERT JUMPDEST POP PUSH2 0x552 PUSH2 0xAF8 CALLDATASIZE PUSH1 0x4 PUSH2 0x4D73 JUMP JUMPDEST PUSH1 0x20 DUP1 MSTORE PUSH1 0x0 SWAP1 DUP2 MSTORE PUSH1 0x40 SWAP1 KECCAK256 SLOAD PUSH1 0x1 PUSH1 0x1 PUSH1 0xA0 SHL SUB AND DUP2 JUMP JUMPDEST CALLVALUE DUP1 ISZERO PUSH2 0xB1E JUMPI PUSH1 0x0 DUP1 REVERT JUMPDEST POP PUSH2 0x530 PUSH2 0xB2D CALLDATASIZE PUSH1 0x4 PUSH2 0x506C JUMP JUMPDEST PUSH2 0x2F79 JUMP JUMPDEST CALLVALUE DUP1 ISZERO PUSH2 0xB3E JUMPI PUSH1 0x0 DUP1 REVERT JUMPDEST POP PUSH2 0x530 PUSH2 0xB4D CALLDATASIZE PUSH1 0x4 PUSH2 0x4D73 JUMP JUMPDEST PUSH2 0x2F9B JUMP JUMPDEST CALLVALUE DUP1 ISZERO PUSH2 0xB5E JUMPI PUSH1 0x0 DUP1 REVERT JUMPDEST POP PUSH2 0x530 PUSH2 0xB6D CALLDATASIZE PUSH1 0x4 PUSH2 0x4D73 JUMP JUMPDEST PUSH2 0x301B JUMP JUMPDEST CALLVALUE DUP1 ISZERO PUSH2 0xB7E JUMPI PUSH1 0x0 DUP1 REVERT JUMPDEST POP PUSH1 0x19 SLOAD PUSH2 0x552 SWAP1 PUSH1 0x1 PUSH1 0x1 PUSH1 0xA0 SHL SUB AND DUP2 JUMP JUMPDEST CALLVALUE DUP1 ISZERO PUSH2 0xB9E JUMPI PUSH1 0x0 DUP1 REVERT JUMPDEST POP PUSH2 0x530 PUSH2 0xBAD CALLDATASIZE PUSH1 0x4 PUSH2 0x5089 JUMP JUMPDEST PUSH2 0x304D JUMP JUMPDEST CALLVALUE DUP1 ISZERO PUSH2 0xBBE JUMPI PUSH1 0x0 DUP1 REVERT JUMPDEST POP CALLER PUSH1 0x0 SWAP1 DUP2 MSTORE PUSH1 0x23 PUSH1 0x20 MSTORE PUSH1 0x40 SWAP1 KECCAK256 SLOAD PUSH2 0x48C JUMP JUMPDEST CALLVALUE DUP1 ISZERO PUSH2 0xBE0 JUMPI PUSH1 0x0 DUP1 REVERT JUMPDEST POP PUSH2 0x530 PUSH2 0xBEF CALLDATASIZE PUSH1 0x4 PUSH2 0x4D2E JUMP JUMPDEST PUSH2 0x3061 JUMP JUMPDEST CALLVALUE DUP1 ISZERO PUSH2 0xC00 JUMPI PUSH1 0x0 DUP1 REVERT JUMPDEST POP PUSH2 0x530 PUSH2 0xC0F CALLDATASIZE PUSH1 0x4 PUSH2 0x50C2 JUMP JUMPDEST PUSH2 0x30AD JUMP JUMPDEST CALLVALUE DUP1 ISZERO PUSH2 0xC20 JUMPI PUSH1 0x0 DUP1 REVERT JUMPDEST POP PUSH2 0x530 PUSH2 0x32BA JUMP JUMPDEST CALLVALUE DUP1 ISZERO PUSH2 0xC35 JUMPI PUSH1 0x0 DUP1 REVERT JUMPDEST POP PUSH2 0x530 PUSH2 0xC44 CALLDATASIZE PUSH1 0x4 PUSH2 0x5136 JUMP JUMPDEST PUSH2 0x32F2 JUMP JUMPDEST CALLVALUE DUP1 ISZERO PUSH2 0xC55 JUMPI PUSH1 0x0 DUP1 REVERT JUMPDEST POP PUSH2 0x48C PUSH2 0xC64 CALLDATASIZE PUSH1 0x4 PUSH2 0x4D73 JUMP JUMPDEST PUSH2 0x342C JUMP JUMPDEST CALLVALUE DUP1 ISZERO PUSH2 0xC75 JUMPI PUSH1 0x0 DUP1 REVERT JUMPDEST POP PUSH2 0x530 PUSH2 0xC84 CALLDATASIZE PUSH1 0x4 PUSH2 0x4D73 JUMP JUMPDEST PUSH2 0x34B0 JUMP JUMPDEST CALLVALUE DUP1 ISZERO PUSH2 0xC95 JUMPI PUSH1 0x0 DUP1 REVERT JUMPDEST POP PUSH1 0x1D SLOAD PUSH2 0x48C JUMP JUMPDEST CALLVALUE DUP1 ISZERO PUSH2 0xCAA JUMPI PUSH1 0x0 DUP1 REVERT JUMPDEST POP PUSH2 0x48C PUSH1 0x15 SLOAD DUP2 JUMP JUMPDEST CALLVALUE DUP1 ISZERO PUSH2 0xCC0 JUMPI PUSH1 0x0 DUP1 REVERT JUMPDEST POP PUSH2 0x530 PUSH2 0xCCF CALLDATASIZE PUSH1 0x4 PUSH2 0x5158 JUMP JUMPDEST PUSH2 0x34DA JUMP JUMPDEST CALLVALUE DUP1 ISZERO PUSH2 0xCE0 JUMPI PUSH1 0x0 DUP1 REVERT JUMPDEST POP PUSH2 0x552 PUSH2 0xCEF CALLDATASIZE PUSH1 0x4 PUSH2 0x4D73 JUMP JUMPDEST PUSH1 0x1 PUSH1 0x1 PUSH1 0xA0 SHL SUB SWAP1 DUP2 AND PUSH1 0x0 SWAP1 DUP2 MSTORE PUSH1 0x20 DUP1 MSTORE PUSH1 0x40 SWAP1 KECCAK256 SLOAD AND SWAP1 JUMP JUMPDEST CALLVALUE DUP1 ISZERO PUSH2 0xD18 JUMPI PUSH1 0x0 DUP1 REVERT JUMPDEST POP PUSH2 0x48C PUSH1 0x11 SLOAD DUP2 JUMP JUMPDEST CALLVALUE DUP1 ISZERO PUSH2 0xD2E JUMPI PUSH1 0x0 DUP1 REVERT JUMPDEST POP PUSH2 0x48C PUSH1 0x7 SLOAD DUP2 JUMP JUMPDEST CALLVALUE DUP1 ISZERO PUSH2 0xD44 JUMPI PUSH1 0x0 DUP1 REVERT JUMPDEST POP PUSH2 0x48C PUSH2 0xD53 CALLDATASIZE PUSH1 0x4 PUSH2 0x4D2E JUMP JUMPDEST PUSH1 0x24 PUSH1 0x20 MSTORE PUSH1 0x0 SWAP1 DUP2 MSTORE PUSH1 0x40 SWAP1 KECCAK256 SLOAD DUP2 JUMP JUMPDEST CALLVALUE DUP1 ISZERO PUSH2 0xD71 JUMPI PUSH1 0x0 DUP1 REVERT JUMPDEST POP PUSH2 0x48C PUSH1 0x12 SLOAD DUP2 JUMP JUMPDEST CALLVALUE DUP1 ISZERO PUSH2 0xD87 JUMPI PUSH1 0x0 DUP1 REVERT JUMPDEST POP PUSH1 0x18 SLOAD PUSH2 0x552 SWAP1 PUSH1 0x1 PUSH1 0x1 PUSH1 0xA0 SHL SUB AND DUP2 JUMP JUMPDEST CALLVALUE DUP1 ISZERO PUSH2 0xDA7 JUMPI PUSH1 0x0 DUP1 REVERT JUMPDEST POP PUSH2 0x48C PUSH1 0x14 SLOAD DUP2 JUMP JUMPDEST CALLVALUE DUP1 ISZERO PUSH2 0xDBD JUMPI PUSH1 0x0 DUP1 REVERT JUMPDEST POP PUSH2 0x4BF PUSH2 0xDCC CALLDATASIZE PUSH1 0x4 PUSH2 0x51CD JUMP JUMPDEST PUSH1 0x1 PUSH1 0x1 PUSH1 0xA0 SHL SUB SWAP2 DUP3 AND PUSH1 0x0 SWAP1 DUP2 MSTORE PUSH1 0x1 PUSH1 0x20 SWAP1 DUP2 MSTORE PUSH1 0x40 DUP1 DUP4 KECCAK256 SWAP4 SWAP1 SWAP5 AND DUP3 MSTORE SWAP2 SWAP1 SWAP2 MSTORE KECCAK256 SLOAD PUSH1 0xFF AND SWAP1 JUMP JUMPDEST CALLVALUE DUP1 ISZERO PUSH2 0xE06 JUMPI PUSH1 0x0 DUP1 REVERT JUMPDEST POP PUSH2 0x530 PUSH2 0xE15 CALLDATASIZE PUSH1 0x4 PUSH2 0x51FB JUMP JUMPDEST PUSH2 0x352D JUMP JUMPDEST CALLVALUE DUP1 ISZERO PUSH2 0xE26 JUMPI PUSH1 0x0 DUP1 REVERT JUMPDEST POP PUSH2 0x530 PUSH2 0xE35 CALLDATASIZE PUSH1 0x4 PUSH2 0x4D73 JUMP JUMPDEST PUSH2 0x3830 JUMP JUMPDEST CALLVALUE DUP1 ISZERO PUSH2 0xE46 JUMPI PUSH1 0x0 DUP1 REVERT JUMPDEST POP PUSH2 0x530 PUSH2 0xE55 CALLDATASIZE PUSH1 0x4 PUSH2 0x4D73 JUMP JUMPDEST PUSH2 0x38A6 JUMP JUMPDEST CALLVALUE DUP1 ISZERO PUSH2 0xE66 JUMPI PUSH1 0x0 DUP1 REVERT JUMPDEST POP PUSH2 0x530 PUSH2 0xE75 CALLDATASIZE PUSH1 0x4 PUSH2 0x4D73 JUMP JUMPDEST PUSH2 0x38D0 JUMP JUMPDEST PUSH1 0x0 PUSH1 0x1 PUSH1 0x1 PUSH1 0xA0 SHL SUB DUP4 AND PUSH2 0xEEA JUMPI PUSH1 0x40 MLOAD PUSH3 0x461BCD PUSH1 0xE5 SHL DUP2 MSTORE PUSH1 0x20 PUSH1 0x4 DUP3 ADD MSTORE PUSH1 0x2A PUSH1 0x24 DUP3 ADD MSTORE PUSH32 0x455243313135353A2061646472657373207A65726F206973206E6F7420612076 PUSH1 0x44 DUP3 ADD MSTORE PUSH10 0x30B634B21037BBB732B9 PUSH1 0xB1 SHL PUSH1 0x64 DUP3 ADD MSTORE PUSH1 0x84 ADD JUMPDEST PUSH1 0x40 MLOAD DUP1 SWAP2 SUB SWAP1 REVERT JUMPDEST POP PUSH1 0x0 DUP2 DUP2 MSTORE PUSH1 0x20 DUP2 DUP2 MSTORE PUSH1 0x40 DUP1 DUP4 KECCAK256 PUSH1 0x1 PUSH1 0x1 PUSH1 0xA0 SHL SUB DUP7 AND DUP5 MSTORE SWAP1 SWAP2 MSTORE SWAP1 KECCAK256 SLOAD JUMPDEST SWAP3 SWAP2 POP POP JUMP JUMPDEST PUSH1 0x0 PUSH1 0x1 PUSH1 0x1 PUSH1 0xE0 SHL SUB NOT DUP3 AND PUSH4 0x6CDB3D13 PUSH1 0xE1 SHL EQ DUP1 PUSH2 0xF44 JUMPI POP PUSH1 0x1 PUSH1 0x1 PUSH1 0xE0 SHL SUB NOT DUP3 AND PUSH4 0x3A24D07 PUSH1 0xE2 SHL EQ JUMPDEST DUP1 PUSH2 0xF0D JUMPI POP PUSH4 0x1FFC9A7 PUSH1 0xE0 SHL PUSH1 0x1 PUSH1 0x1 PUSH1 0xE0 SHL SUB NOT DUP4 AND EQ PUSH2 0xF0D JUMP JUMPDEST PUSH2 0xF6B PUSH2 0x3903 JUMP JUMPDEST PUSH1 0x0 JUMPDEST DUP2 MLOAD DUP2 LT ISZERO PUSH2 0x10E3 JUMPI PUSH1 0x22 PUSH1 0x0 DUP4 DUP4 DUP2 MLOAD DUP2 LT PUSH2 0xF8D JUMPI PUSH2 0xF8D PUSH2 0x5263 JUMP JUMPDEST PUSH1 0x20 SWAP1 DUP2 MUL SWAP2 SWAP1 SWAP2 ADD DUP2 ADD MLOAD PUSH1 0x1 PUSH1 0x1 PUSH1 0xA0 SHL SUB AND DUP3 MSTORE DUP2 ADD SWAP2 SWAP1 SWAP2 MSTORE PUSH1 0x40 ADD PUSH1 0x0 KECCAK256 SLOAD PUSH1 0xFF AND PUSH2 0x1063 JUMPI PUSH1 0x1 PUSH1 0x22 PUSH1 0x0 DUP5 DUP5 DUP2 MLOAD DUP2 LT PUSH2 0xFD0 JUMPI PUSH2 0xFD0 PUSH2 0x5263 JUMP JUMPDEST PUSH1 0x20 MUL PUSH1 0x20 ADD ADD MLOAD PUSH1 0x1 PUSH1 0x1 PUSH1 0xA0 SHL SUB AND PUSH1 0x1 PUSH1 0x1 PUSH1 0xA0 SHL SUB AND DUP2 MSTORE PUSH1 0x20 ADD SWAP1 DUP2 MSTORE PUSH1 0x20 ADD PUSH1 0x0 KECCAK256 PUSH1 0x0 PUSH2 0x100 EXP DUP2 SLOAD DUP2 PUSH1 0xFF MUL NOT AND SWAP1 DUP4 ISZERO ISZERO MUL OR SWAP1 SSTORE POP PUSH1 0x1D DUP3 DUP3 DUP2 MLOAD DUP2 LT PUSH2 0x1023 JUMPI PUSH2 0x1023 PUSH2 0x5263 JUMP JUMPDEST PUSH1 0x20 SWAP1 DUP2 MUL SWAP2 SWAP1 SWAP2 ADD DUP2 ADD MLOAD DUP3 SLOAD PUSH1 0x1 DUP2 ADD DUP5 SSTORE PUSH1 0x0 SWAP4 DUP5 MSTORE SWAP2 SWAP1 SWAP3 KECCAK256 ADD DUP1 SLOAD PUSH1 0x1 PUSH1 0x1 PUSH1 0xA0 SHL SUB NOT AND PUSH1 0x1 PUSH1 0x1 PUSH1 0xA0 SHL SUB SWAP1 SWAP3 AND SWAP2 SWAP1 SWAP2 OR SWAP1 SSTORE PUSH2 0x10D1 JUMP JUMPDEST PUSH1 0x40 MLOAD PUSH3 0x461BCD PUSH1 0xE5 SHL DUP2 MSTORE PUSH1 0x20 PUSH1 0x4 DUP3 ADD MSTORE PUSH1 0x38 PUSH1 0x24 DUP3 ADD MSTORE PUSH32 0x46697265536565643A20506C65617365206D616B652073757265207468657265 PUSH1 0x44 DUP3 ADD MSTORE PUSH32 0x206973206E6F206475706C696361746520616464726573730000000000000000 PUSH1 0x64 DUP3 ADD MSTORE PUSH1 0x84 ADD PUSH2 0xEE1 JUMP JUMPDEST DUP1 PUSH2 0x10DB DUP2 PUSH2 0x528F JUMP JUMPDEST SWAP2 POP POP PUSH2 0xF6E JUMP JUMPDEST POP POP JUMP JUMPDEST PUSH1 0x21 PUSH1 0x20 MSTORE DUP2 PUSH1 0x0 MSTORE PUSH1 0x40 PUSH1 0x0 KECCAK256 DUP2 DUP2 SLOAD DUP2 LT PUSH2 0x1103 JUMPI PUSH1 0x0 DUP1 REVERT JUMPDEST PUSH1 0x0 SWAP2 DUP3 MSTORE PUSH1 0x20 SWAP1 SWAP2 KECCAK256 ADD SLOAD PUSH1 0x1 PUSH1 0x1 PUSH1 0xA0 SHL SUB AND SWAP2 POP DUP3 SWAP1 POP JUMP JUMPDEST PUSH1 0x60 PUSH1 0xE PUSH2 0x112C DUP4 PUSH2 0x395D JUMP JUMPDEST PUSH1 0x40 MLOAD PUSH1 0x20 ADD PUSH2 0x113D SWAP3 SWAP2 SWAP1 PUSH2 0x52E2 JUMP JUMPDEST PUSH1 0x40 MLOAD PUSH1 0x20 DUP2 DUP4 SUB SUB DUP2 MSTORE SWAP1 PUSH1 0x40 MSTORE SWAP1 POP SWAP2 SWAP1 POP JUMP JUMPDEST PUSH2 0x115B PUSH2 0x3903 JUMP JUMPDEST DUP1 PUSH2 0x1166 DUP4 DUP6 PUSH2 0x5379 JUMP JUMPDEST PUSH2 0x1170 SWAP2 SWAP1 PUSH2 0x5379 JUMP JUMPDEST PUSH1 0x64 EQ PUSH2 0x11BB JUMPI PUSH1 0x40 MLOAD PUSH3 0x461BCD PUSH1 0xE5 SHL DUP2 MSTORE PUSH1 0x20 PUSH1 0x4 DUP3 ADD MSTORE PUSH1 0x19 PUSH1 0x24 DUP3 ADD MSTORE PUSH25 0x46697265536565643A20696E76616C69642073657474696E67 PUSH1 0x38 SHL PUSH1 0x44 DUP3 ADD MSTORE PUSH1 0x64 ADD PUSH2 0xEE1 JUMP JUMPDEST PUSH1 0x5 SWAP3 SWAP1 SWAP3 SSTORE PUSH1 0x6 SSTORE PUSH1 0x7 SSTORE JUMP JUMPDEST PUSH1 0x23 PUSH1 0x20 MSTORE DUP2 PUSH1 0x0 MSTORE PUSH1 0x40 PUSH1 0x0 KECCAK256 DUP2 DUP2 SLOAD DUP2 LT PUSH2 0x11E5 JUMPI PUSH1 0x0 DUP1 REVERT JUMPDEST SWAP1 PUSH1 0x0 MSTORE PUSH1 0x20 PUSH1 0x0 KECCAK256 ADD PUSH1 0x0 SWAP2 POP SWAP2 POP POP SLOAD DUP2 JUMP JUMPDEST PUSH2 0x1202 PUSH2 0x39EF JUMP JUMPDEST PUSH1 0x10 SLOAD PUSH1 0xD SLOAD LT PUSH2 0x1272 JUMPI PUSH1 0x40 MLOAD PUSH3 0x461BCD PUSH1 0xE5 SHL DUP2 MSTORE PUSH1 0x20 PUSH1 0x4 DUP3 ADD MSTORE PUSH1 0x34 PUSH1 0x24 DUP3 ADD MSTORE PUSH32 0x46697265536565643A20546F20726561636820746865206D6178696D756D206E PUSH1 0x44 DUP3 ADD MSTORE PUSH20 0x756D626572206F662063617374696E6720696473 PUSH1 0x60 SHL PUSH1 0x64 DUP3 ADD MSTORE PUSH1 0x84 ADD PUSH2 0xEE1 JUMP JUMPDEST PUSH1 0x15 SLOAD DUP2 LT ISZERO PUSH2 0x12C4 JUMPI PUSH1 0x40 MLOAD PUSH3 0x461BCD PUSH1 0xE5 SHL DUP2 MSTORE PUSH1 0x20 PUSH1 0x4 DUP3 ADD MSTORE PUSH1 0x1F PUSH1 0x24 DUP3 ADD MSTORE PUSH32 0x46697265536565643A2042656C6F77204D696E74696E67204D696E696D756D00 PUSH1 0x44 DUP3 ADD MSTORE PUSH1 0x64 ADD PUSH2 0xEE1 JUMP JUMPDEST CALLER PUSH1 0x0 DUP2 DUP2 MSTORE PUSH1 0x20 DUP1 DUP1 MSTORE PUSH1 0x40 DUP1 DUP4 KECCAK256 SLOAD PUSH1 0x1 PUSH1 0x1 PUSH1 0xA0 SHL SUB SWAP1 DUP2 AND DUP1 DUP6 MSTORE DUP3 DUP6 KECCAK256 SLOAD DUP3 AND DUP1 DUP7 MSTORE DUP4 DUP7 KECCAK256 SLOAD SWAP7 DUP7 MSTORE PUSH1 0x23 SWAP1 SWAP5 MSTORE SWAP2 SWAP1 SWAP4 KECCAK256 SWAP1 SWAP4 SWAP2 SWAP3 SWAP2 SWAP1 SWAP2 AND SWAP1 PUSH2 0x130E PUSH1 0xD SLOAD SWAP1 JUMP JUMPDEST DUP2 SLOAD PUSH1 0x1 DUP2 ADD DUP4 SSTORE PUSH1 0x0 SWAP3 DUP4 MSTORE PUSH1 0x20 DUP1 DUP5 KECCAK256 SWAP1 SWAP2 ADD SWAP2 SWAP1 SWAP2 SSTORE CALLER DUP3 MSTORE PUSH1 0x22 SWAP1 MSTORE PUSH1 0x40 SWAP1 KECCAK256 SLOAD PUSH1 0xFF AND DUP1 ISZERO PUSH2 0x1344 JUMPI POP PUSH1 0x13 SLOAD DUP5 GT ISZERO JUMPDEST ISZERO PUSH2 0x13FF JUMPI PUSH1 0x0 PUSH1 0x64 PUSH1 0x16 SLOAD PUSH1 0x11 SLOAD DUP8 PUSH2 0x135E SWAP2 SWAP1 PUSH2 0x538C JUMP JUMPDEST PUSH2 0x1368 SWAP2 SWAP1 PUSH2 0x538C JUMP JUMPDEST PUSH2 0x1372 SWAP2 SWAP1 PUSH2 0x53A3 JUMP JUMPDEST SWAP1 POP DUP1 PUSH1 0x0 SUB PUSH2 0x13B4 JUMPI PUSH2 0x139F CALLER PUSH2 0x1389 PUSH1 0xD SLOAD SWAP1 JUMP JUMPDEST DUP8 PUSH1 0x40 MLOAD DUP1 PUSH1 0x20 ADD PUSH1 0x40 MSTORE DUP1 PUSH1 0x0 DUP2 MSTORE POP PUSH2 0x3A3C JUMP JUMPDEST PUSH2 0x13AD PUSH1 0xD DUP1 SLOAD PUSH1 0x1 ADD SWAP1 SSTORE JUMP JUMPDEST POP POP POP POP POP JUMP JUMPDEST DUP1 CALLVALUE EQ PUSH2 0x13D3 JUMPI PUSH1 0x40 MLOAD PUSH3 0x461BCD PUSH1 0xE5 SHL DUP2 MSTORE PUSH1 0x4 ADD PUSH2 0xEE1 SWAP1 PUSH2 0x53C5 JUMP JUMPDEST PUSH1 0x1A SLOAD PUSH1 0x19 SLOAD PUSH2 0x13F2 SWAP2 PUSH1 0x1 PUSH1 0x1 PUSH1 0xA0 SHL SUB SWAP1 DUP2 AND SWAP2 CALLER SWAP2 AND DUP5 PUSH2 0x3B50 JUMP JUMPDEST PUSH2 0x139F CALLER PUSH2 0x1389 PUSH1 0xD SLOAD SWAP1 JUMP JUMPDEST PUSH1 0x14 SLOAD DUP5 GT ISZERO PUSH2 0x1470 JUMPI PUSH1 0x40 MLOAD PUSH3 0x461BCD PUSH1 0xE5 SHL DUP2 MSTORE PUSH1 0x20 PUSH1 0x4 DUP3 ADD MSTORE PUSH1 0x36 PUSH1 0x24 DUP3 ADD MSTORE PUSH32 0x46697265536565643A20596F7520686176652065786365656465642074686520 PUSH1 0x44 DUP3 ADD MSTORE PUSH22 0x1B585E1A5B5D5B481C1D5C98DA185CD9481B1A5B5A5D PUSH1 0x52 SHL PUSH1 0x64 DUP3 ADD MSTORE PUSH1 0x84 ADD PUSH2 0xEE1 JUMP JUMPDEST PUSH1 0x0 PUSH2 0x147B DUP6 PUSH2 0x3C80 JUMP JUMPDEST SWAP1 POP PUSH1 0x0 PUSH1 0xC SLOAD PUSH1 0xA SLOAD DUP4 PUSH2 0x1490 SWAP2 SWAP1 PUSH2 0x538C JUMP JUMPDEST PUSH2 0x149A SWAP2 SWAP1 PUSH2 0x53A3 JUMP JUMPDEST SWAP1 POP PUSH1 0x0 PUSH1 0xC SLOAD PUSH1 0x8 SLOAD DUP5 PUSH2 0x14AF SWAP2 SWAP1 PUSH2 0x538C JUMP JUMPDEST PUSH2 0x14B9 SWAP2 SWAP1 PUSH2 0x53A3 JUMP JUMPDEST SWAP1 POP PUSH1 0x0 PUSH1 0xC SLOAD PUSH1 0x9 SLOAD DUP6 PUSH2 0x14CE SWAP2 SWAP1 PUSH2 0x538C JUMP JUMPDEST PUSH2 0x14D8 SWAP2 SWAP1 PUSH2 0x53A3 JUMP JUMPDEST SWAP1 POP DUP4 CALLVALUE EQ PUSH2 0x14F9 JUMPI PUSH1 0x40 MLOAD PUSH3 0x461BCD PUSH1 0xE5 SHL DUP2 MSTORE PUSH1 0x4 ADD PUSH2 0xEE1 SWAP1 PUSH2 0x53C5 JUMP JUMPDEST PUSH1 0x1A PUSH1 0x0 SWAP1 SLOAD SWAP1 PUSH2 0x100 EXP SWAP1 DIV PUSH1 0x1 PUSH1 0x1 PUSH1 0xA0 SHL SUB AND PUSH1 0x1 PUSH1 0x1 PUSH1 0xA0 SHL SUB AND PUSH4 0xD0E30DB0 DUP6 PUSH1 0x40 MLOAD DUP3 PUSH4 0xFFFFFFFF AND PUSH1 0xE0 SHL DUP2 MSTORE PUSH1 0x4 ADD PUSH1 0x0 PUSH1 0x40 MLOAD DUP1 DUP4 SUB DUP2 DUP6 DUP9 DUP1 EXTCODESIZE ISZERO DUP1 ISZERO PUSH2 0x1549 JUMPI PUSH1 0x0 DUP1 REVERT JUMPDEST POP GAS CALL ISZERO DUP1 ISZERO PUSH2 0x155D JUMPI RETURNDATASIZE PUSH1 0x0 DUP1 RETURNDATACOPY RETURNDATASIZE PUSH1 0x0 REVERT JUMPDEST POP POP PUSH1 0x1A SLOAD PUSH1 0x19 SLOAD PUSH1 0x40 MLOAD PUSH4 0xA9059CBB PUSH1 0xE0 SHL DUP2 MSTORE PUSH1 0x1 PUSH1 0x1 PUSH1 0xA0 SHL SUB SWAP3 DUP4 AND SWAP6 POP PUSH4 0xA9059CBB SWAP5 POP PUSH2 0x1598 SWAP4 POP SWAP2 AND SWAP1 DUP8 SWAP1 PUSH1 0x4 ADD PUSH2 0x540A JUMP JUMPDEST PUSH1 0x20 PUSH1 0x40 MLOAD DUP1 DUP4 SUB DUP2 PUSH1 0x0 DUP8 GAS CALL ISZERO DUP1 ISZERO PUSH2 0x15B7 JUMPI RETURNDATASIZE PUSH1 0x0 DUP1 RETURNDATACOPY RETURNDATASIZE PUSH1 0x0 REVERT JUMPDEST POP POP POP POP PUSH1 0x40 MLOAD RETURNDATASIZE PUSH1 0x1F NOT PUSH1 0x1F DUP3 ADD AND DUP3 ADD DUP1 PUSH1 0x40 MSTORE POP DUP2 ADD SWAP1 PUSH2 0x15DB SWAP2 SWAP1 PUSH2 0x5423 JUMP JUMPDEST POP PUSH1 0x18 SLOAD PUSH1 0x40 MLOAD PUSH4 0x5D413CE5 PUSH1 0xE1 SHL DUP2 MSTORE PUSH1 0x4 DUP1 DUP3 ADD MSTORE CALLER PUSH1 0x24 DUP3 ADD MSTORE PUSH1 0x44 DUP2 ADD DUP6 SWAP1 MSTORE PUSH1 0x1 PUSH1 0x1 PUSH1 0xA0 SHL SUB SWAP1 SWAP2 AND SWAP1 PUSH4 0xBA8279CA SWAP1 PUSH1 0x64 ADD PUSH1 0x0 PUSH1 0x40 MLOAD DUP1 DUP4 SUB DUP2 PUSH1 0x0 DUP8 DUP1 EXTCODESIZE ISZERO DUP1 ISZERO PUSH2 0x162E JUMPI PUSH1 0x0 DUP1 REVERT JUMPDEST POP GAS CALL ISZERO DUP1 ISZERO PUSH2 0x1642 JUMPI RETURNDATASIZE PUSH1 0x0 DUP1 RETURNDATACOPY RETURNDATASIZE PUSH1 0x0 REVERT JUMPDEST POP POP PUSH1 0x1C SLOAD PUSH1 0x40 MLOAD PUSH4 0x932AF1EF PUSH1 0xE0 SHL DUP2 MSTORE CALLER PUSH1 0x4 DUP3 ADD MSTORE PUSH1 0x1 PUSH1 0x1 PUSH1 0xA0 SHL SUB SWAP1 SWAP2 AND SWAP3 POP PUSH4 0x932AF1EF SWAP2 POP PUSH1 0x24 ADD PUSH1 0x20 PUSH1 0x40 MLOAD DUP1 DUP4 SUB DUP2 DUP7 GAS STATICCALL ISZERO DUP1 ISZERO PUSH2 0x168E JUMPI RETURNDATASIZE PUSH1 0x0 DUP1 RETURNDATACOPY RETURNDATASIZE PUSH1 0x0 REVERT JUMPDEST POP POP POP POP PUSH1 0x40 MLOAD RETURNDATASIZE PUSH1 0x1F NOT PUSH1 0x1F DUP3 ADD AND DUP3 ADD DUP1 PUSH1 0x40 MSTORE POP DUP2 ADD SWAP1 PUSH2 0x16B2 SWAP2 SWAP1 PUSH2 0x5423 JUMP JUMPDEST DUP1 ISZERO PUSH2 0x1724 JUMPI POP PUSH1 0x1C SLOAD PUSH1 0x40 MLOAD PUSH3 0x390ECD PUSH1 0xE9 SHL DUP2 MSTORE CALLER PUSH1 0x4 DUP3 ADD MSTORE PUSH1 0x1 PUSH1 0x1 PUSH1 0xA0 SHL SUB SWAP1 SWAP2 AND SWAP1 PUSH4 0x721D9A00 SWAP1 PUSH1 0x24 ADD PUSH1 0x20 PUSH1 0x40 MLOAD DUP1 DUP4 SUB DUP2 DUP7 GAS STATICCALL ISZERO DUP1 ISZERO PUSH2 0x1700 JUMPI RETURNDATASIZE PUSH1 0x0 DUP1 RETURNDATACOPY RETURNDATASIZE PUSH1 0x0 REVERT JUMPDEST POP POP POP POP PUSH1 0x40 MLOAD RETURNDATASIZE PUSH1 0x1F NOT PUSH1 0x1F DUP3 ADD AND DUP3 ADD DUP1 PUSH1 0x40 MSTORE POP DUP2 ADD SWAP1 PUSH2 0x1724 SWAP2 SWAP1 PUSH2 0x5423 JUMP JUMPDEST ISZERO PUSH2 0x1985 JUMPI PUSH1 0x1A SLOAD PUSH1 0x1C SLOAD PUSH1 0x40 MLOAD PUSH4 0x26B2739D PUSH1 0xE1 SHL DUP2 MSTORE CALLER PUSH1 0x4 DUP3 ADD MSTORE PUSH1 0x1 PUSH1 0x1 PUSH1 0xA0 SHL SUB SWAP3 DUP4 AND SWAP3 PUSH4 0xA9059CBB SWAP3 AND SWAP1 PUSH4 0x4D64E73A SWAP1 PUSH1 0x24 ADD PUSH1 0x20 PUSH1 0x40 MLOAD DUP1 DUP4 SUB DUP2 DUP7 GAS STATICCALL ISZERO DUP1 ISZERO PUSH2 0x177C JUMPI RETURNDATASIZE PUSH1 0x0 DUP1 RETURNDATACOPY RETURNDATASIZE PUSH1 0x0 REVERT JUMPDEST POP POP POP POP PUSH1 0x40 MLOAD RETURNDATASIZE PUSH1 0x1F NOT PUSH1 0x1F DUP3 ADD AND DUP3 ADD DUP1 PUSH1 0x40 MSTORE POP DUP2 ADD SWAP1 PUSH2 0x17A0 SWAP2 SWAP1 PUSH2 0x5440 JUMP JUMPDEST PUSH1 0xC SLOAD PUSH1 0xB SLOAD PUSH2 0x17B0 SWAP1 DUP7 PUSH2 0x538C JUMP JUMPDEST PUSH2 0x17BA SWAP2 SWAP1 PUSH2 0x53A3 JUMP JUMPDEST PUSH1 0x40 MLOAD DUP4 PUSH4 0xFFFFFFFF AND PUSH1 0xE0 SHL DUP2 MSTORE PUSH1 0x4 ADD PUSH2 0x17D7 SWAP3 SWAP2 SWAP1 PUSH2 0x540A JUMP JUMPDEST PUSH1 0x20 PUSH1 0x40 MLOAD DUP1 DUP4 SUB DUP2 PUSH1 0x0 DUP8 GAS CALL ISZERO DUP1 ISZERO PUSH2 0x17F6 JUMPI RETURNDATASIZE PUSH1 0x0 DUP1 RETURNDATACOPY RETURNDATASIZE PUSH1 0x0 REVERT JUMPDEST POP POP POP POP PUSH1 0x40 MLOAD RETURNDATASIZE PUSH1 0x1F NOT PUSH1 0x1F DUP3 ADD AND DUP3 ADD DUP1 PUSH1 0x40 MSTORE POP DUP2 ADD SWAP1 PUSH2 0x181A SWAP2 SWAP1 PUSH2 0x5423 JUMP JUMPDEST POP PUSH1 0x1A SLOAD PUSH1 0x1C SLOAD PUSH1 0x40 MLOAD PUSH4 0x53340DC3 PUSH1 0xE0 SHL DUP2 MSTORE CALLER PUSH1 0x4 DUP3 ADD MSTORE PUSH1 0x1 PUSH1 0x1 PUSH1 0xA0 SHL SUB SWAP3 DUP4 AND SWAP3 PUSH4 0xA9059CBB SWAP3 AND SWAP1 PUSH4 0x53340DC3 SWAP1 PUSH1 0x24 ADD PUSH1 0x20 PUSH1 0x40 MLOAD DUP1 DUP4 SUB DUP2 PUSH1 0x0 DUP8 GAS CALL ISZERO DUP1 ISZERO PUSH2 0x1870 JUMPI RETURNDATASIZE PUSH1 0x0 DUP1 RETURNDATACOPY RETURNDATASIZE PUSH1 0x0 REVERT JUMPDEST POP POP POP POP PUSH1 0x40 MLOAD RETURNDATASIZE PUSH1 0x1F NOT PUSH1 0x1F DUP3 ADD AND DUP3 ADD DUP1 PUSH1 0x40 MSTORE POP DUP2 ADD SWAP1 PUSH2 0x1894 SWAP2 SWAP1 PUSH2 0x5440 JUMP JUMPDEST PUSH1 0xC SLOAD PUSH1 0xB SLOAD PUSH2 0x18A4 SWAP2 SWAP1 PUSH2 0x53A3 JUMP JUMPDEST PUSH1 0xC SLOAD PUSH2 0x18B1 SWAP1 DUP7 PUSH2 0x538C JUMP JUMPDEST PUSH2 0x18BB SWAP2 SWAP1 PUSH2 0x545D JUMP JUMPDEST PUSH1 0x40 MLOAD DUP4 PUSH4 0xFFFFFFFF AND PUSH1 0xE0 SHL DUP2 MSTORE PUSH1 0x4 ADD PUSH2 0x18D8 SWAP3 SWAP2 SWAP1 PUSH2 0x540A JUMP JUMPDEST PUSH1 0x20 PUSH1 0x40 MLOAD DUP1 DUP4 SUB DUP2 PUSH1 0x0 DUP8 GAS CALL ISZERO DUP1 ISZERO PUSH2 0x18F7 JUMPI RETURNDATASIZE PUSH1 0x0 DUP1 RETURNDATACOPY RETURNDATASIZE PUSH1 0x0 REVERT JUMPDEST POP POP POP POP PUSH1 0x40 MLOAD RETURNDATASIZE PUSH1 0x1F NOT PUSH1 0x1F DUP3 ADD AND DUP3 ADD DUP1 PUSH1 0x40 MSTORE POP DUP2 ADD SWAP1 PUSH2 0x191B SWAP2 SWAP1 PUSH2 0x5423 JUMP JUMPDEST POP PUSH1 0x1C SLOAD PUSH1 0x40 MLOAD PUSH4 0x1E7C1F67 PUSH1 0xE3 SHL DUP2 MSTORE PUSH1 0x1 PUSH1 0x1 PUSH1 0xA0 SHL SUB SWAP1 SWAP2 AND SWAP1 PUSH4 0xF3E0FB38 SWAP1 PUSH2 0x194E SWAP1 CALLER SWAP1 DUP6 SWAP1 PUSH1 0x4 ADD PUSH2 0x540A JUMP JUMPDEST PUSH1 0x0 PUSH1 0x40 MLOAD DUP1 DUP4 SUB DUP2 PUSH1 0x0 DUP8 DUP1 EXTCODESIZE ISZERO DUP1 ISZERO PUSH2 0x1968 JUMPI PUSH1 0x0 DUP1 REVERT JUMPDEST POP GAS CALL ISZERO DUP1 ISZERO PUSH2 0x197C JUMPI RETURNDATASIZE PUSH1 0x0 DUP1 RETURNDATACOPY RETURNDATASIZE PUSH1 0x0 REVERT JUMPDEST POP POP POP POP PUSH2 0x1A00 JUMP JUMPDEST PUSH1 0x1A SLOAD PUSH1 0x19 SLOAD PUSH1 0x40 MLOAD PUSH4 0xA9059CBB PUSH1 0xE0 SHL DUP2 MSTORE PUSH1 0x1 PUSH1 0x1 PUSH1 0xA0 SHL SUB SWAP3 DUP4 AND SWAP3 PUSH4 0xA9059CBB SWAP3 PUSH2 0x19BB SWAP3 SWAP2 AND SWAP1 DUP6 SWAP1 PUSH1 0x4 ADD PUSH2 0x540A JUMP JUMPDEST PUSH1 0x20 PUSH1 0x40 MLOAD DUP1 DUP4 SUB DUP2 PUSH1 0x0 DUP8 GAS CALL ISZERO DUP1 ISZERO PUSH2 0x19DA JUMPI RETURNDATASIZE PUSH1 0x0 DUP1 RETURNDATACOPY RETURNDATASIZE PUSH1 0x0 REVERT JUMPDEST POP POP POP POP PUSH1 0x40 MLOAD RETURNDATASIZE PUSH1 0x1F NOT PUSH1 0x1F DUP3 ADD AND DUP3 ADD DUP1 PUSH1 0x40 MSTORE POP DUP2 ADD SWAP1 PUSH2 0x19FE SWAP2 SWAP1 PUSH2 0x5423 JUMP JUMPDEST POP JUMPDEST PUSH1 0x1 PUSH1 0x1 PUSH1 0xA0 SHL SUB DUP8 AND ISZERO DUP1 ISZERO SWAP1 PUSH2 0x1A20 JUMPI POP PUSH1 0x1 PUSH1 0x1 PUSH1 0xA0 SHL SUB DUP7 AND ISZERO ISZERO JUMPDEST DUP1 ISZERO PUSH2 0x1A34 JUMPI POP PUSH1 0x1 PUSH1 0x1 PUSH1 0xA0 SHL SUB DUP6 AND ISZERO ISZERO JUMPDEST ISZERO PUSH2 0x2253 JUMPI PUSH1 0x1B SLOAD PUSH1 0x40 MLOAD PUSH4 0x1238E331 PUSH1 0xE3 SHL DUP2 MSTORE PUSH1 0x1 PUSH1 0x1 PUSH1 0xA0 SHL SUB DUP10 DUP2 AND PUSH1 0x4 DUP4 ADD MSTORE SWAP1 SWAP2 AND SWAP1 PUSH4 0x91C71988 SWAP1 PUSH1 0x24 ADD PUSH1 0x20 PUSH1 0x40 MLOAD DUP1 DUP4 SUB DUP2 DUP7 GAS STATICCALL ISZERO DUP1 ISZERO PUSH2 0x1A83 JUMPI RETURNDATASIZE PUSH1 0x0 DUP1 RETURNDATACOPY RETURNDATASIZE PUSH1 0x0 REVERT JUMPDEST POP POP POP POP PUSH1 0x40 MLOAD RETURNDATASIZE PUSH1 0x1F NOT PUSH1 0x1F DUP3 ADD AND DUP3 ADD DUP1 PUSH1 0x40 MSTORE POP DUP2 ADD SWAP1 PUSH2 0x1AA7 SWAP2 SWAP1 PUSH2 0x5423 JUMP JUMPDEST DUP1 ISZERO PUSH2 0x1B1C JUMPI POP PUSH1 0x1B SLOAD PUSH1 0x40 MLOAD PUSH4 0x1238E331 PUSH1 0xE3 SHL DUP2 MSTORE PUSH1 0x1 PUSH1 0x1 PUSH1 0xA0 SHL SUB DUP9 DUP2 AND PUSH1 0x4 DUP4 ADD MSTORE SWAP1 SWAP2 AND SWAP1 PUSH4 0x91C71988 SWAP1 PUSH1 0x24 ADD PUSH1 0x20 PUSH1 0x40 MLOAD DUP1 DUP4 SUB DUP2 DUP7 GAS STATICCALL ISZERO DUP1 ISZERO PUSH2 0x1AF8 JUMPI RETURNDATASIZE PUSH1 0x0 DUP1 RETURNDATACOPY RETURNDATASIZE PUSH1 0x0 REVERT JUMPDEST POP POP POP POP PUSH1 0x40 MLOAD RETURNDATASIZE PUSH1 0x1F NOT PUSH1 0x1F DUP3 ADD AND DUP3 ADD DUP1 PUSH1 0x40 MSTORE POP DUP2 ADD SWAP1 PUSH2 0x1B1C SWAP2 SWAP1 PUSH2 0x5423 JUMP JUMPDEST DUP1 ISZERO PUSH2 0x1B91 JUMPI POP PUSH1 0x1B SLOAD PUSH1 0x40 MLOAD PUSH4 0x1238E331 PUSH1 0xE3 SHL DUP2 MSTORE PUSH1 0x1 PUSH1 0x1 PUSH1 0xA0 SHL SUB DUP8 DUP2 AND PUSH1 0x4 DUP4 ADD MSTORE SWAP1 SWAP2 AND SWAP1 PUSH4 0x91C71988 SWAP1 PUSH1 0x24 ADD PUSH1 0x20 PUSH1 0x40 MLOAD DUP1 DUP4 SUB DUP2 DUP7 GAS STATICCALL ISZERO DUP1 ISZERO PUSH2 0x1B6D JUMPI RETURNDATASIZE PUSH1 0x0 DUP1 RETURNDATACOPY RETURNDATASIZE PUSH1 0x0 REVERT JUMPDEST POP POP POP POP PUSH1 0x40 MLOAD RETURNDATASIZE PUSH1 0x1F NOT PUSH1 0x1F DUP3 ADD AND DUP3 ADD DUP1 PUSH1 0x40 MSTORE POP DUP2 ADD SWAP1 PUSH2 0x1B91 SWAP2 SWAP1 PUSH2 0x5423 JUMP JUMPDEST ISZERO PUSH2 0x1D51 JUMPI PUSH1 0x1A SLOAD PUSH1 0xC SLOAD PUSH1 0x5 SLOAD PUSH1 0x1 PUSH1 0x1 PUSH1 0xA0 SHL SUB SWAP1 SWAP3 AND SWAP2 PUSH4 0xA9059CBB SWAP2 DUP11 SWAP2 PUSH2 0x1BBD SWAP1 DUP8 PUSH2 0x538C JUMP JUMPDEST PUSH2 0x1BC7 SWAP2 SWAP1 PUSH2 0x53A3 JUMP JUMPDEST PUSH1 0x40 MLOAD DUP4 PUSH4 0xFFFFFFFF AND PUSH1 0xE0 SHL DUP2 MSTORE PUSH1 0x4 ADD PUSH2 0x1BE4 SWAP3 SWAP2 SWAP1 PUSH2 0x540A JUMP JUMPDEST PUSH1 0x20 PUSH1 0x40 MLOAD DUP1 DUP4 SUB DUP2 PUSH1 0x0 DUP8 GAS CALL ISZERO DUP1 ISZERO PUSH2 0x1C03 JUMPI RETURNDATASIZE PUSH1 0x0 DUP1 RETURNDATACOPY RETURNDATASIZE PUSH1 0x0 REVERT JUMPDEST POP POP POP POP PUSH1 0x40 MLOAD RETURNDATASIZE PUSH1 0x1F NOT PUSH1 0x1F DUP3 ADD AND DUP3 ADD DUP1 PUSH1 0x40 MSTORE POP DUP2 ADD SWAP1 PUSH2 0x1C27 SWAP2 SWAP1 PUSH2 0x5423 JUMP JUMPDEST POP PUSH1 0x1A SLOAD PUSH1 0xC SLOAD PUSH1 0x6 SLOAD PUSH1 0x1 PUSH1 0x1 PUSH1 0xA0 SHL SUB SWAP1 SWAP3 AND SWAP2 PUSH4 0xA9059CBB SWAP2 DUP10 SWAP2 PUSH2 0x1C4F SWAP1 DUP8 PUSH2 0x538C JUMP JUMPDEST PUSH2 0x1C59 SWAP2 SWAP1 PUSH2 0x53A3 JUMP JUMPDEST PUSH1 0x40 MLOAD DUP4 PUSH4 0xFFFFFFFF AND PUSH1 0xE0 SHL DUP2 MSTORE PUSH1 0x4 ADD PUSH2 0x1C76 SWAP3 SWAP2 SWAP1 PUSH2 0x540A JUMP JUMPDEST PUSH1 0x20 PUSH1 0x40 MLOAD DUP1 DUP4 SUB DUP2 PUSH1 0x0 DUP8 GAS CALL ISZERO DUP1 ISZERO PUSH2 0x1C95 JUMPI RETURNDATASIZE PUSH1 0x0 DUP1 RETURNDATACOPY RETURNDATASIZE PUSH1 0x0 REVERT JUMPDEST POP POP POP POP PUSH1 0x40 MLOAD RETURNDATASIZE PUSH1 0x1F NOT PUSH1 0x1F DUP3 ADD AND DUP3 ADD DUP1 PUSH1 0x40 MSTORE POP DUP2 ADD SWAP1 PUSH2 0x1CB9 SWAP2 SWAP1 PUSH2 0x5423 JUMP JUMPDEST POP PUSH1 0x1A SLOAD PUSH1 0xC SLOAD PUSH1 0x7 SLOAD PUSH1 0x1 PUSH1 0x1 PUSH1 0xA0 SHL SUB SWAP1 SWAP3 AND SWAP2 PUSH4 0xA9059CBB SWAP2 DUP9 SWAP2 PUSH2 0x1CE1 SWAP1 DUP8 PUSH2 0x538C JUMP JUMPDEST PUSH2 0x1CEB SWAP2 SWAP1 PUSH2 0x53A3 JUMP JUMPDEST PUSH1 0x40 MLOAD DUP4 PUSH4 0xFFFFFFFF AND PUSH1 0xE0 SHL DUP2 MSTORE PUSH1 0x4 ADD PUSH2 0x1D08 SWAP3 SWAP2 SWAP1 PUSH2 0x540A JUMP JUMPDEST PUSH1 0x20 PUSH1 0x40 MLOAD DUP1 DUP4 SUB DUP2 PUSH1 0x0 DUP8 GAS CALL ISZERO DUP1 ISZERO PUSH2 0x1D27 JUMPI RETURNDATASIZE PUSH1 0x0 DUP1 RETURNDATACOPY RETURNDATASIZE PUSH1 0x0 REVERT JUMPDEST POP POP POP POP PUSH1 0x40 MLOAD RETURNDATASIZE PUSH1 0x1F NOT PUSH1 0x1F DUP3 ADD AND DUP3 ADD DUP1 PUSH1 0x40 MSTORE POP DUP2 ADD SWAP1 PUSH2 0x1D4B SWAP2 SWAP1 PUSH2 0x5423 JUMP JUMPDEST POP PUSH2 0x266D JUMP JUMPDEST PUSH1 0x1B SLOAD PUSH1 0x40 MLOAD PUSH4 0x1238E331 PUSH1 0xE3 SHL DUP2 MSTORE PUSH1 0x1 PUSH1 0x1 PUSH1 0xA0 SHL SUB DUP10 DUP2 AND PUSH1 0x4 DUP4 ADD MSTORE SWAP1 SWAP2 AND SWAP1 PUSH4 0x91C71988 SWAP1 PUSH1 0x24 ADD PUSH1 0x20 PUSH1 0x40 MLOAD DUP1 DUP4 SUB DUP2 DUP7 GAS STATICCALL ISZERO DUP1 ISZERO PUSH2 0x1D9B JUMPI RETURNDATASIZE PUSH1 0x0 DUP1 RETURNDATACOPY RETURNDATASIZE PUSH1 0x0 REVERT JUMPDEST POP POP POP POP PUSH1 0x40 MLOAD RETURNDATASIZE PUSH1 0x1F NOT PUSH1 0x1F DUP3 ADD AND DUP3 ADD DUP1 PUSH1 0x40 MSTORE POP DUP2 ADD SWAP1 PUSH2 0x1DBF SWAP2 SWAP1 PUSH2 0x5423 JUMP JUMPDEST DUP1 ISZERO PUSH2 0x1E34 JUMPI POP PUSH1 0x1B SLOAD PUSH1 0x40 MLOAD PUSH4 0x1238E331 PUSH1 0xE3 SHL DUP2 MSTORE PUSH1 0x1 PUSH1 0x1 PUSH1 0xA0 SHL SUB DUP9 DUP2 AND PUSH1 0x4 DUP4 ADD MSTORE SWAP1 SWAP2 AND SWAP1 PUSH4 0x91C71988 SWAP1 PUSH1 0x24 ADD PUSH1 0x20 PUSH1 0x40 MLOAD DUP1 DUP4 SUB DUP2 DUP7 GAS STATICCALL ISZERO DUP1 ISZERO PUSH2 0x1E10 JUMPI RETURNDATASIZE PUSH1 0x0 DUP1 RETURNDATACOPY RETURNDATASIZE PUSH1 0x0 REVERT JUMPDEST POP POP POP POP PUSH1 0x40 MLOAD RETURNDATASIZE PUSH1 0x1F NOT PUSH1 0x1F DUP3 ADD AND DUP3 ADD DUP1 PUSH1 0x40 MSTORE POP DUP2 ADD SWAP1 PUSH2 0x1E34 SWAP2 SWAP1 PUSH2 0x5423 JUMP JUMPDEST DUP1 ISZERO PUSH2 0x1EAB JUMPI POP PUSH1 0x1B SLOAD PUSH1 0x40 MLOAD PUSH4 0x1238E331 PUSH1 0xE3 SHL DUP2 MSTORE PUSH1 0x1 PUSH1 0x1 PUSH1 0xA0 SHL SUB DUP8 DUP2 AND PUSH1 0x4 DUP4 ADD MSTORE SWAP1 SWAP2 AND SWAP1 PUSH4 0x91C71988 SWAP1 PUSH1 0x24 ADD PUSH1 0x20 PUSH1 0x40 MLOAD DUP1 DUP4 SUB DUP2 DUP7 GAS STATICCALL ISZERO DUP1 ISZERO PUSH2 0x1E85 JUMPI RETURNDATASIZE PUSH1 0x0 DUP1 RETURNDATACOPY RETURNDATASIZE PUSH1 0x0 REVERT JUMPDEST POP POP POP POP PUSH1 0x40 MLOAD RETURNDATASIZE PUSH1 0x1F NOT PUSH1 0x1F DUP3 ADD AND DUP3 ADD DUP1 PUSH1 0x40 MSTORE POP DUP2 ADD SWAP1 PUSH2 0x1EA9 SWAP2 SWAP1 PUSH2 0x5423 JUMP JUMPDEST ISZERO JUMPDEST ISZERO PUSH2 0x1FFF JUMPI PUSH1 0x1A SLOAD PUSH1 0xC SLOAD PUSH1 0x5 SLOAD PUSH1 0x1 PUSH1 0x1 PUSH1 0xA0 SHL SUB SWAP1 SWAP3 AND SWAP2 PUSH4 0xA9059CBB SWAP2 DUP11 SWAP2 PUSH2 0x1ED7 SWAP1 DUP8 PUSH2 0x538C JUMP JUMPDEST PUSH2 0x1EE1 SWAP2 SWAP1 PUSH2 0x53A3 JUMP JUMPDEST PUSH1 0x40 MLOAD DUP4 PUSH4 0xFFFFFFFF AND PUSH1 0xE0 SHL DUP2 MSTORE PUSH1 0x4 ADD PUSH2 0x1EFE SWAP3 SWAP2 SWAP1 PUSH2 0x540A JUMP JUMPDEST PUSH1 0x20 PUSH1 0x40 MLOAD DUP1 DUP4 SUB DUP2 PUSH1 0x0 DUP8 GAS CALL ISZERO DUP1 ISZERO PUSH2 0x1F1D JUMPI RETURNDATASIZE PUSH1 0x0 DUP1 RETURNDATACOPY RETURNDATASIZE PUSH1 0x0 REVERT JUMPDEST POP POP POP POP PUSH1 0x40 MLOAD RETURNDATASIZE PUSH1 0x1F NOT PUSH1 0x1F DUP3 ADD AND DUP3 ADD DUP1 PUSH1 0x40 MSTORE POP DUP2 ADD SWAP1 PUSH2 0x1F41 SWAP2 SWAP1 PUSH2 0x5423 JUMP JUMPDEST POP PUSH1 0x1A SLOAD PUSH1 0xC SLOAD PUSH1 0x6 SLOAD PUSH1 0x1 PUSH1 0x1 PUSH1 0xA0 SHL SUB SWAP1 SWAP3 AND SWAP2 PUSH4 0xA9059CBB SWAP2 DUP10 SWAP2 PUSH2 0x1F69 SWAP1 DUP8 PUSH2 0x538C JUMP JUMPDEST PUSH2 0x1F73 SWAP2 SWAP1 PUSH2 0x53A3 JUMP JUMPDEST PUSH1 0x40 MLOAD DUP4 PUSH4 0xFFFFFFFF AND PUSH1 0xE0 SHL DUP2 MSTORE PUSH1 0x4 ADD PUSH2 0x1F90 SWAP3 SWAP2 SWAP1 PUSH2 0x540A JUMP JUMPDEST PUSH1 0x20 PUSH1 0x40 MLOAD DUP1 DUP4 SUB DUP2 PUSH1 0x0 DUP8 GAS CALL ISZERO DUP1 ISZERO PUSH2 0x1FAF JUMPI RETURNDATASIZE PUSH1 0x0 DUP1 RETURNDATACOPY RETURNDATASIZE PUSH1 0x0 REVERT JUMPDEST POP POP POP POP PUSH1 0x40 MLOAD RETURNDATASIZE PUSH1 0x1F NOT PUSH1 0x1F DUP3 ADD AND DUP3 ADD DUP1 PUSH1 0x40 MSTORE POP DUP2 ADD SWAP1 PUSH2 0x1FD3 SWAP2 SWAP1 PUSH2 0x5423 JUMP JUMPDEST POP PUSH1 0x1A SLOAD PUSH1 0x19 SLOAD PUSH1 0xC SLOAD PUSH1 0x7 SLOAD PUSH1 0x1 PUSH1 0x1 PUSH1 0xA0 SHL SUB SWAP4 DUP5 AND SWAP4 PUSH4 0xA9059CBB SWAP4 AND SWAP2 SWAP1 PUSH2 0x1CE1 SWAP1 DUP8 PUSH2 0x538C JUMP JUMPDEST PUSH1 0x1B SLOAD PUSH1 0x40 MLOAD PUSH4 0x1238E331 PUSH1 0xE3 SHL DUP2 MSTORE PUSH1 0x1 PUSH1 0x1 PUSH1 0xA0 SHL SUB DUP10 DUP2 AND PUSH1 0x4 DUP4 ADD MSTORE SWAP1 SWAP2 AND SWAP1 PUSH4 0x91C71988 SWAP1 PUSH1 0x24 ADD PUSH1 0x20 PUSH1 0x40 MLOAD DUP1 DUP4 SUB DUP2 DUP7 GAS STATICCALL ISZERO DUP1 ISZERO PUSH2 0x2049 JUMPI RETURNDATASIZE PUSH1 0x0 DUP1 RETURNDATACOPY RETURNDATASIZE PUSH1 0x0 REVERT JUMPDEST POP POP POP POP PUSH1 0x40 MLOAD RETURNDATASIZE PUSH1 0x1F NOT PUSH1 0x1F DUP3 ADD AND DUP3 ADD DUP1 PUSH1 0x40 MSTORE POP DUP2 ADD SWAP1 PUSH2 0x206D SWAP2 SWAP1 PUSH2 0x5423 JUMP JUMPDEST DUP1 ISZERO PUSH2 0x20E4 JUMPI POP PUSH1 0x1B SLOAD PUSH1 0x40 MLOAD PUSH4 0x1238E331 PUSH1 0xE3 SHL DUP2 MSTORE PUSH1 0x1 PUSH1 0x1 PUSH1 0xA0 SHL SUB DUP9 DUP2 AND PUSH1 0x4 DUP4 ADD MSTORE SWAP1 SWAP2 AND SWAP1 PUSH4 0x91C71988 SWAP1 PUSH1 0x24 ADD PUSH1 0x20 PUSH1 0x40 MLOAD DUP1 DUP4 SUB DUP2 DUP7 GAS STATICCALL ISZERO DUP1 ISZERO PUSH2 0x20BE JUMPI RETURNDATASIZE PUSH1 0x0 DUP1 RETURNDATACOPY RETURNDATASIZE PUSH1 0x0 REVERT JUMPDEST POP POP POP POP PUSH1 0x40 MLOAD RETURNDATASIZE PUSH1 0x1F NOT PUSH1 0x1F DUP3 ADD AND DUP3 ADD DUP1 PUSH1 0x40 MSTORE POP DUP2 ADD SWAP1 PUSH2 0x20E2 SWAP2 SWAP1 PUSH2 0x5423 JUMP JUMPDEST ISZERO JUMPDEST DUP1 ISZERO PUSH2 0x215B JUMPI POP PUSH1 0x1B SLOAD PUSH1 0x40 MLOAD PUSH4 0x1238E331 PUSH1 0xE3 SHL DUP2 MSTORE PUSH1 0x1 PUSH1 0x1 PUSH1 0xA0 SHL SUB DUP8 DUP2 AND PUSH1 0x4 DUP4 ADD MSTORE SWAP1 SWAP2 AND SWAP1 PUSH4 0x91C71988 SWAP1 PUSH1 0x24 ADD PUSH1 0x20 PUSH1 0x40 MLOAD DUP1 DUP4 SUB DUP2 DUP7 GAS STATICCALL ISZERO DUP1 ISZERO PUSH2 0x2135 JUMPI RETURNDATASIZE PUSH1 0x0 DUP1 RETURNDATACOPY RETURNDATASIZE PUSH1 0x0 REVERT JUMPDEST POP POP POP POP PUSH1 0x40 MLOAD RETURNDATASIZE PUSH1 0x1F NOT PUSH1 0x1F DUP3 ADD AND DUP3 ADD DUP1 PUSH1 0x40 MSTORE POP DUP2 ADD SWAP1 PUSH2 0x2159 SWAP2 SWAP1 PUSH2 0x5423 JUMP JUMPDEST ISZERO JUMPDEST ISZERO PUSH2 0x221D JUMPI PUSH1 0x1A SLOAD PUSH1 0xC SLOAD PUSH1 0x5 SLOAD PUSH1 0x1 PUSH1 0x1 PUSH1 0xA0 SHL SUB SWAP1 SWAP3 AND SWAP2 PUSH4 0xA9059CBB SWAP2 DUP11 SWAP2 PUSH2 0x2187 SWAP1 DUP8 PUSH2 0x538C JUMP JUMPDEST PUSH2 0x2191 SWAP2 SWAP1 PUSH2 0x53A3 JUMP JUMPDEST PUSH1 0x40 MLOAD DUP4 PUSH4 0xFFFFFFFF AND PUSH1 0xE0 SHL DUP2 MSTORE PUSH1 0x4 ADD PUSH2 0x21AE SWAP3 SWAP2 SWAP1 PUSH2 0x540A JUMP JUMPDEST PUSH1 0x20 PUSH1 0x40 MLOAD DUP1 DUP4 SUB DUP2 PUSH1 0x0 DUP8 GAS CALL ISZERO DUP1 ISZERO PUSH2 0x21CD JUMPI RETURNDATASIZE PUSH1 0x0 DUP1 RETURNDATACOPY RETURNDATASIZE PUSH1 0x0 REVERT JUMPDEST POP POP POP POP PUSH1 0x40 MLOAD RETURNDATASIZE PUSH1 0x1F NOT PUSH1 0x1F DUP3 ADD AND DUP3 ADD DUP1 PUSH1 0x40 MSTORE POP DUP2 ADD SWAP1 PUSH2 0x21F1 SWAP2 SWAP1 PUSH2 0x5423 JUMP JUMPDEST POP PUSH1 0x1A SLOAD PUSH1 0x19 SLOAD PUSH1 0xC SLOAD PUSH1 0x6 SLOAD PUSH1 0x1 PUSH1 0x1 PUSH1 0xA0 SHL SUB SWAP4 DUP5 AND SWAP4 PUSH4 0xA9059CBB SWAP4 AND SWAP2 SWAP1 PUSH2 0x1CE1 SWAP1 DUP8 PUSH2 0x538C JUMP JUMPDEST PUSH1 0x1A SLOAD PUSH1 0x19 SLOAD PUSH1 0x40 MLOAD PUSH4 0xA9059CBB PUSH1 0xE0 SHL DUP2 MSTORE PUSH1 0x1 PUSH1 0x1 PUSH1 0xA0 SHL SUB SWAP3 DUP4 AND SWAP3 PUSH4 0xA9059CBB SWAP3 PUSH2 0x1D08 SWAP3 SWAP2 AND SWAP1 DUP7 SWAP1 PUSH1 0x4 ADD PUSH2 0x540A JUMP JUMPDEST PUSH1 0x1 PUSH1 0x1 PUSH1 0xA0 SHL SUB DUP8 AND ISZERO DUP1 ISZERO SWAP1 PUSH2 0x2273 JUMPI POP PUSH1 0x1 PUSH1 0x1 PUSH1 0xA0 SHL SUB DUP7 AND ISZERO ISZERO JUMPDEST DUP1 ISZERO PUSH2 0x2286 JUMPI POP PUSH1 0x1 PUSH1 0x1 PUSH1 0xA0 SHL SUB DUP6 AND ISZERO JUMPDEST ISZERO PUSH2 0x254D JUMPI PUSH1 0x1B SLOAD PUSH1 0x40 MLOAD PUSH4 0x1238E331 PUSH1 0xE3 SHL DUP2 MSTORE PUSH1 0x1 PUSH1 0x1 PUSH1 0xA0 SHL SUB DUP10 DUP2 AND PUSH1 0x4 DUP4 ADD MSTORE SWAP1 SWAP2 AND SWAP1 PUSH4 0x91C71988 SWAP1 PUSH1 0x24 ADD PUSH1 0x20 PUSH1 0x40 MLOAD DUP1 DUP4 SUB DUP2 DUP7 GAS STATICCALL ISZERO DUP1 ISZERO PUSH2 0x22D5 JUMPI RETURNDATASIZE PUSH1 0x0 DUP1 RETURNDATACOPY RETURNDATASIZE PUSH1 0x0 REVERT JUMPDEST POP POP POP POP PUSH1 0x40 MLOAD RETURNDATASIZE PUSH1 0x1F NOT PUSH1 0x1F DUP3 ADD AND DUP3 ADD DUP1 PUSH1 0x40 MSTORE POP DUP2 ADD SWAP1 PUSH2 0x22F9 SWAP2 SWAP1 PUSH2 0x5423 JUMP JUMPDEST DUP1 ISZERO PUSH2 0x236E JUMPI POP PUSH1 0x1B SLOAD PUSH1 0x40 MLOAD PUSH4 0x1238E331 PUSH1 0xE3 SHL DUP2 MSTORE PUSH1 0x1 PUSH1 0x1 PUSH1 0xA0 SHL SUB DUP9 DUP2 AND PUSH1 0x4 DUP4 ADD MSTORE SWAP1 SWAP2 AND SWAP1 PUSH4 0x91C71988 SWAP1 PUSH1 0x24 ADD PUSH1 0x20 PUSH1 0x40 MLOAD DUP1 DUP4 SUB DUP2 DUP7 GAS STATICCALL ISZERO DUP1 ISZERO PUSH2 0x234A JUMPI RETURNDATASIZE PUSH1 0x0 DUP1 RETURNDATACOPY RETURNDATASIZE PUSH1 0x0 REVERT JUMPDEST POP POP POP POP PUSH1 0x40 MLOAD RETURNDATASIZE PUSH1 0x1F NOT PUSH1 0x1F DUP3 ADD AND DUP3 ADD DUP1 PUSH1 0x40 MSTORE POP DUP2 ADD SWAP1 PUSH2 0x236E SWAP2 SWAP1 PUSH2 0x5423 JUMP JUMPDEST ISZERO PUSH2 0x239A JUMPI PUSH1 0x1A SLOAD PUSH1 0xC SLOAD PUSH1 0x5 SLOAD PUSH1 0x1 PUSH1 0x1 PUSH1 0xA0 SHL SUB SWAP1 SWAP3 AND SWAP2 PUSH4 0xA9059CBB SWAP2 DUP11 SWAP2 PUSH2 0x1ED7 SWAP1 DUP8 PUSH2 0x538C JUMP JUMPDEST PUSH1 0x1B SLOAD PUSH1 0x40 MLOAD PUSH4 0x1238E331 PUSH1 0xE3 SHL DUP2 MSTORE PUSH1 0x1 PUSH1 0x1 PUSH1 0xA0 SHL SUB DUP10 DUP2 AND PUSH1 0x4 DUP4 ADD MSTORE SWAP1 SWAP2 AND SWAP1 PUSH4 0x91C71988 SWAP1 PUSH1 0x24 ADD PUSH1 0x20 PUSH1 0x40 MLOAD DUP1 DUP4 SUB DUP2 DUP7 GAS STATICCALL ISZERO DUP1 ISZERO PUSH2 0x23E4 JUMPI RETURNDATASIZE PUSH1 0x0 DUP1 RETURNDATACOPY RETURNDATASIZE PUSH1 0x0 REVERT JUMPDEST POP POP POP POP PUSH1 0x40 MLOAD RETURNDATASIZE PUSH1 0x1F NOT PUSH1 0x1F DUP3 ADD AND DUP3 ADD DUP1 PUSH1 0x40 MSTORE POP DUP2 ADD SWAP1 PUSH2 0x2408 SWAP2 SWAP1 PUSH2 0x5423 JUMP JUMPDEST DUP1 ISZERO PUSH2 0x247F JUMPI POP PUSH1 0x1B SLOAD PUSH1 0x40 MLOAD PUSH4 0x1238E331 PUSH1 0xE3 SHL DUP2 MSTORE PUSH1 0x1 PUSH1 0x1 PUSH1 0xA0 SHL SUB DUP9 DUP2 AND PUSH1 0x4 DUP4 ADD MSTORE SWAP1 SWAP2 AND SWAP1 PUSH4 0x91C71988 SWAP1 PUSH1 0x24 ADD PUSH1 0x20 PUSH1 0x40 MLOAD DUP1 DUP4 SUB DUP2 DUP7 GAS STATICCALL ISZERO DUP1 ISZERO PUSH2 0x2459 JUMPI RETURNDATASIZE PUSH1 0x0 DUP1 RETURNDATACOPY RETURNDATASIZE PUSH1 0x0 REVERT JUMPDEST POP POP POP POP PUSH1 0x40 MLOAD RETURNDATASIZE PUSH1 0x1F NOT PUSH1 0x1F DUP3 ADD AND DUP3 ADD DUP1 PUSH1 0x40 MSTORE POP DUP2 ADD SWAP1 PUSH2 0x247D SWAP2 SWAP1 PUSH2 0x5423 JUMP JUMPDEST ISZERO JUMPDEST ISZERO PUSH2 0x221D JUMPI PUSH1 0x1A SLOAD PUSH1 0xC SLOAD PUSH1 0x5 SLOAD PUSH1 0x1 PUSH1 0x1 PUSH1 0xA0 SHL SUB SWAP1 SWAP3 AND SWAP2 PUSH4 0xA9059CBB SWAP2 DUP11 SWAP2 PUSH2 0x24AB SWAP1 DUP8 PUSH2 0x538C JUMP JUMPDEST PUSH2 0x24B5 SWAP2 SWAP1 PUSH2 0x53A3 JUMP JUMPDEST PUSH1 0x40 MLOAD DUP4 PUSH4 0xFFFFFFFF AND PUSH1 0xE0 SHL DUP2 MSTORE PUSH1 0x4 ADD PUSH2 0x24D2 SWAP3 SWAP2 SWAP1 PUSH2 0x540A JUMP JUMPDEST PUSH1 0x20 PUSH1 0x40 MLOAD DUP1 DUP4 SUB DUP2 PUSH1 0x0 DUP8 GAS CALL ISZERO DUP1 ISZERO PUSH2 0x24F1 JUMPI RETURNDATASIZE PUSH1 0x0 DUP1 RETURNDATACOPY RETURNDATASIZE PUSH1 0x0 REVERT JUMPDEST POP POP POP POP PUSH1 0x40 MLOAD RETURNDATASIZE PUSH1 0x1F NOT PUSH1 0x1F DUP3 ADD AND DUP3 ADD DUP1 PUSH1 0x40 MSTORE POP DUP2 ADD SWAP1 PUSH2 0x2515 SWAP2 SWAP1 PUSH2 0x5423 JUMP JUMPDEST POP PUSH1 0x1A SLOAD PUSH1 0x19 SLOAD PUSH1 0xC SLOAD PUSH1 0x7 SLOAD PUSH1 0x6 SLOAD PUSH1 0x1 PUSH1 0x1 PUSH1 0xA0 SHL SUB SWAP5 DUP6 AND SWAP5 PUSH4 0xA9059CBB SWAP5 AND SWAP3 SWAP2 PUSH2 0x2543 SWAP2 PUSH2 0x5379 JUMP JUMPDEST PUSH2 0x1CE1 SWAP1 DUP8 PUSH2 0x538C JUMP JUMPDEST PUSH1 0x1 PUSH1 0x1 PUSH1 0xA0 SHL SUB DUP8 AND ISZERO DUP1 ISZERO SWAP1 PUSH2 0x256C JUMPI POP PUSH1 0x1 PUSH1 0x1 PUSH1 0xA0 SHL SUB DUP7 AND ISZERO JUMPDEST DUP1 ISZERO PUSH2 0x257F JUMPI POP PUSH1 0x1 PUSH1 0x1 PUSH1 0xA0 SHL SUB DUP6 AND ISZERO JUMPDEST ISZERO PUSH2 0x25F2 JUMPI PUSH1 0x1B SLOAD PUSH1 0x40 MLOAD PUSH4 0x1238E331 PUSH1 0xE3 SHL DUP2 MSTORE PUSH1 0x1 PUSH1 0x1 PUSH1 0xA0 SHL SUB DUP10 DUP2 AND PUSH1 0x4 DUP4 ADD MSTORE SWAP1 SWAP2 AND SWAP1 PUSH4 0x91C71988 SWAP1 PUSH1 0x24 ADD PUSH1 0x20 PUSH1 0x40 MLOAD DUP1 DUP4 SUB DUP2 DUP7 GAS STATICCALL ISZERO DUP1 ISZERO PUSH2 0x25CE JUMPI RETURNDATASIZE PUSH1 0x0 DUP1 RETURNDATACOPY RETURNDATASIZE PUSH1 0x0 REVERT JUMPDEST POP POP POP POP PUSH1 0x40 MLOAD RETURNDATASIZE PUSH1 0x1F NOT PUSH1 0x1F DUP3 ADD AND DUP3 ADD DUP1 PUSH1 0x40 MSTORE POP DUP2 ADD SWAP1 PUSH2 0x247F SWAP2 SWAP1 PUSH2 0x5423 JUMP JUMPDEST PUSH1 0x1A SLOAD PUSH1 0x19 SLOAD PUSH1 0x40 MLOAD PUSH4 0xA9059CBB PUSH1 0xE0 SHL DUP2 MSTORE PUSH1 0x1 PUSH1 0x1 PUSH1 0xA0 SHL SUB SWAP3 DUP4 AND SWAP3 PUSH4 0xA9059CBB SWAP3 PUSH2 0x2628 SWAP3 SWAP2 AND SWAP1 DUP7 SWAP1 PUSH1 0x4 ADD PUSH2 0x540A JUMP JUMPDEST PUSH1 0x20 PUSH1 0x40 MLOAD DUP1 DUP4 SUB DUP2 PUSH1 0x0 DUP8 GAS CALL ISZERO DUP1 ISZERO PUSH2 0x2647 JUMPI RETURNDATASIZE PUSH1 0x0 DUP1 RETURNDATACOPY RETURNDATASIZE PUSH1 0x0 REVERT JUMPDEST POP POP POP POP PUSH1 0x40 MLOAD RETURNDATASIZE PUSH1 0x1F NOT PUSH1 0x1F DUP3 ADD AND DUP3 ADD DUP1 PUSH1 0x40 MSTORE POP DUP2 ADD SWAP1 PUSH2 0x266B SWAP2 SWAP1 PUSH2 0x5423 JUMP JUMPDEST POP JUMPDEST PUSH2 0x2690 CALLER PUSH2 0x267A PUSH1 0xD SLOAD SWAP1 JUMP JUMPDEST DUP11 PUSH1 0x40 MLOAD DUP1 PUSH1 0x20 ADD PUSH1 0x40 MSTORE DUP1 PUSH1 0x0 DUP2 MSTORE POP PUSH2 0x3A3C JUMP JUMPDEST PUSH2 0x269E PUSH1 0xD DUP1 SLOAD PUSH1 0x1 ADD SWAP1 SSTORE JUMP JUMPDEST POP POP POP POP POP POP POP JUMPDEST POP JUMP JUMPDEST DUP5 PUSH1 0x1 PUSH1 0x1 PUSH1 0xA0 SHL SUB DUP2 AND CALLER EQ PUSH2 0x26C3 JUMPI PUSH2 0x26C3 CALLER PUSH2 0x3D61 JUMP JUMPDEST PUSH1 0xF SLOAD PUSH1 0xFF AND ISZERO PUSH2 0x26E6 JUMPI PUSH1 0x40 MLOAD PUSH3 0x461BCD PUSH1 0xE5 SHL DUP2 MSTORE PUSH1 0x4 ADD PUSH2 0xEE1 SWAP1 PUSH2 0x5470 JUMP JUMPDEST PUSH1 0xF DUP1 SLOAD PUSH1 0xFF NOT AND PUSH1 0x1 OR SWAP1 SSTORE PUSH2 0x26FD DUP7 DUP7 PUSH2 0x3E1A JUMP JUMPDEST PUSH2 0x2719 JUMPI PUSH1 0x40 MLOAD PUSH3 0x461BCD PUSH1 0xE5 SHL DUP2 MSTORE PUSH1 0x4 ADD PUSH2 0xEE1 SWAP1 PUSH2 0x54B9 JUMP JUMPDEST PUSH1 0x1 PUSH1 0x1 PUSH1 0xA0 SHL SUB DUP6 DUP2 AND PUSH1 0x0 SWAP1 DUP2 MSTORE PUSH1 0x20 DUP1 MSTORE PUSH1 0x40 SWAP1 KECCAK256 SLOAD AND ISZERO DUP1 ISZERO PUSH2 0x275C JUMPI POP PUSH1 0x1 PUSH1 0x1 PUSH1 0xA0 SHL SUB DUP7 DUP2 AND PUSH1 0x0 SWAP1 DUP2 MSTORE PUSH1 0x20 DUP1 MSTORE PUSH1 0x40 SWAP1 KECCAK256 SLOAD DUP2 AND SWAP1 DUP7 AND EQ ISZERO JUMPDEST DUP1 ISZERO PUSH2 0x2781 JUMPI POP PUSH1 0x1 PUSH1 0x1 PUSH1 0xA0 SHL SUB DUP6 AND PUSH1 0x0 SWAP1 DUP2 MSTORE PUSH1 0x1F PUSH1 0x20 MSTORE PUSH1 0x40 SWAP1 KECCAK256 SLOAD PUSH1 0xFF AND ISZERO JUMPDEST ISZERO PUSH2 0x27ED JUMPI PUSH1 0x1 PUSH1 0x1 PUSH1 0xA0 SHL SUB DUP1 DUP7 AND PUSH1 0x0 DUP2 DUP2 MSTORE PUSH1 0x20 DUP1 DUP1 MSTORE PUSH1 0x40 DUP1 DUP4 KECCAK256 DUP1 SLOAD SWAP6 DUP13 AND PUSH1 0x1 PUSH1 0x1 PUSH1 0xA0 SHL SUB NOT SWAP7 DUP8 AND DUP2 OR SWAP1 SWAP2 SSTORE DUP4 MSTORE PUSH1 0x21 DUP3 MSTORE DUP1 DUP4 KECCAK256 DUP1 SLOAD PUSH1 0x1 DUP2 DUP2 ADD DUP4 SSTORE SWAP2 DUP6 MSTORE DUP4 DUP6 KECCAK256 ADD DUP1 SLOAD SWAP1 SWAP7 AND DUP6 OR SWAP1 SWAP6 SSTORE SWAP3 DUP3 MSTORE PUSH1 0x1F SWAP1 MSTORE KECCAK256 DUP1 SLOAD PUSH1 0xFF NOT AND SWAP1 SWAP2 OR SWAP1 SSTORE JUMPDEST PUSH2 0x27FA DUP7 DUP7 DUP7 DUP7 DUP7 PUSH2 0x3E52 JUMP JUMPDEST POP POP PUSH1 0xF DUP1 SLOAD PUSH1 0xFF NOT AND SWAP1 SSTORE POP POP POP POP JUMP JUMPDEST PUSH2 0x2814 PUSH2 0x3903 JUMP JUMPDEST PUSH1 0x16 SSTORE JUMP JUMPDEST PUSH2 0x2821 PUSH2 0x3903 JUMP JUMPDEST PUSH1 0x14 SSTORE JUMP JUMPDEST PUSH1 0xF SLOAD PUSH3 0x10000 SWAP1 DIV PUSH1 0x1 PUSH1 0x1 PUSH1 0xA0 SHL SUB AND CALLER EQ PUSH2 0x2856 JUMPI PUSH1 0x40 MLOAD PUSH3 0x461BCD PUSH1 0xE5 SHL DUP2 MSTORE PUSH1 0x4 ADD PUSH2 0xEE1 SWAP1 PUSH2 0x5504 JUMP JUMPDEST PUSH2 0x285E PUSH2 0x3E97 JUMP JUMPDEST JUMP JUMPDEST PUSH1 0x60 DUP2 MLOAD DUP4 MLOAD EQ PUSH2 0x28C5 JUMPI PUSH1 0x40 MLOAD PUSH3 0x461BCD PUSH1 0xE5 SHL DUP2 MSTORE PUSH1 0x20 PUSH1 0x4 DUP3 ADD MSTORE PUSH1 0x29 PUSH1 0x24 DUP3 ADD MSTORE PUSH32 0x455243313135353A206163636F756E747320616E6420696473206C656E677468 PUSH1 0x44 DUP3 ADD MSTORE PUSH9 0x40DAD2E6DAC2E8C6D PUSH1 0xBB SHL PUSH1 0x64 DUP3 ADD MSTORE PUSH1 0x84 ADD PUSH2 0xEE1 JUMP JUMPDEST PUSH1 0x0 DUP4 MLOAD PUSH1 0x1 PUSH1 0x1 PUSH1 0x40 SHL SUB DUP2 GT ISZERO PUSH2 0x28E0 JUMPI PUSH2 0x28E0 PUSH2 0x4C13 JUMP JUMPDEST PUSH1 0x40 MLOAD SWAP1 DUP1 DUP3 MSTORE DUP1 PUSH1 0x20 MUL PUSH1 0x20 ADD DUP3 ADD PUSH1 0x40 MSTORE DUP1 ISZERO PUSH2 0x2909 JUMPI DUP2 PUSH1 0x20 ADD PUSH1 0x20 DUP3 MUL DUP1 CALLDATASIZE DUP4 CALLDATACOPY ADD SWAP1 POP JUMPDEST POP SWAP1 POP PUSH1 0x0 JUMPDEST DUP5 MLOAD DUP2 LT ISZERO PUSH2 0x2981 JUMPI PUSH2 0x2954 DUP6 DUP3 DUP2 MLOAD DUP2 LT PUSH2 0x292D JUMPI PUSH2 0x292D PUSH2 0x5263 JUMP JUMPDEST PUSH1 0x20 MUL PUSH1 0x20 ADD ADD MLOAD DUP6 DUP4 DUP2 MLOAD DUP2 LT PUSH2 0x2947 JUMPI PUSH2 0x2947 PUSH2 0x5263 JUMP JUMPDEST PUSH1 0x20 MUL PUSH1 0x20 ADD ADD MLOAD PUSH2 0xE7A JUMP JUMPDEST DUP3 DUP3 DUP2 MLOAD DUP2 LT PUSH2 0x2966 JUMPI PUSH2 0x2966 PUSH2 0x5263 JUMP JUMPDEST PUSH1 0x20 SWAP1 DUP2 MUL SWAP2 SWAP1 SWAP2 ADD ADD MSTORE PUSH2 0x297A DUP2 PUSH2 0x528F JUMP JUMPDEST SWAP1 POP PUSH2 0x290F JUMP JUMPDEST POP SWAP4 SWAP3 POP POP POP JUMP JUMPDEST PUSH2 0x2991 PUSH2 0x3903 JUMP JUMPDEST DUP1 PUSH2 0x299C DUP4 DUP6 PUSH2 0x5379 JUMP JUMPDEST PUSH2 0x29A6 SWAP2 SWAP1 PUSH2 0x5379 JUMP JUMPDEST PUSH1 0x64 EQ PUSH2 0x29F1 JUMPI PUSH1 0x40 MLOAD PUSH3 0x461BCD PUSH1 0xE5 SHL DUP2 MSTORE PUSH1 0x20 PUSH1 0x4 DUP3 ADD MSTORE PUSH1 0x19 PUSH1 0x24 DUP3 ADD MSTORE PUSH25 0x46697265536565643A20696E76616C69642073657474696E67 PUSH1 0x38 SHL PUSH1 0x44 DUP3 ADD MSTORE PUSH1 0x64 ADD PUSH2 0xEE1 JUMP JUMPDEST PUSH1 0x8 SWAP3 SWAP1 SWAP3 SSTORE PUSH1 0x9 SSTORE PUSH1 0xA SSTORE JUMP JUMPDEST PUSH2 0x2A07 PUSH2 0x3903 JUMP JUMPDEST PUSH1 0xE PUSH2 0x10E3 DUP3 DUP3 PUSH2 0x55A7 JUMP JUMPDEST PUSH1 0x1D DUP2 DUP2 SLOAD DUP2 LT PUSH2 0x2A23 JUMPI PUSH1 0x0 DUP1 REVERT JUMPDEST PUSH1 0x0 SWAP2 DUP3 MSTORE PUSH1 0x20 SWAP1 SWAP2 KECCAK256 ADD SLOAD PUSH1 0x1 PUSH1 0x1 PUSH1 0xA0 SHL SUB AND SWAP1 POP DUP2 JUMP JUMPDEST PUSH2 0x2A45 PUSH2 0x3903 JUMP JUMPDEST PUSH1 0x1 PUSH1 0x1 PUSH1 0xA0 SHL SUB AND PUSH1 0x0 SWAP1 DUP2 MSTORE PUSH1 0x1F PUSH1 0x20 MSTORE PUSH1 0x40 SWAP1 KECCAK256 DUP1 SLOAD PUSH1 0xFF NOT AND PUSH1 0x1 OR SWAP1 SSTORE JUMP JUMPDEST PUSH2 0x2A71 PUSH2 0x3903 JUMP JUMPDEST PUSH1 0x11 SSTORE JUMP JUMPDEST PUSH2 0x2A7E PUSH2 0x3903 JUMP JUMPDEST PUSH1 0x13 SSTORE JUMP JUMPDEST PUSH1 0xE DUP1 SLOAD PUSH2 0x2A90 SWAP1 PUSH2 0x52A8 JUMP JUMPDEST DUP1 PUSH1 0x1F ADD PUSH1 0x20 DUP1 SWAP2 DIV MUL PUSH1 0x20 ADD PUSH1 0x40 MLOAD SWAP1 DUP2 ADD PUSH1 0x40 MSTORE DUP1 SWAP3 SWAP2 SWAP1 DUP2 DUP2 MSTORE PUSH1 0x20 ADD DUP3 DUP1 SLOAD PUSH2 0x2ABC SWAP1 PUSH2 0x52A8 JUMP JUMPDEST DUP1 ISZERO PUSH2 0x2B09 JUMPI DUP1 PUSH1 0x1F LT PUSH2 0x2ADE JUMPI PUSH2 0x100 DUP1 DUP4 SLOAD DIV MUL DUP4 MSTORE SWAP2 PUSH1 0x20 ADD SWAP2 PUSH2 0x2B09 JUMP JUMPDEST DUP3 ADD SWAP2 SWAP1 PUSH1 0x0 MSTORE PUSH1 0x20 PUSH1 0x0 KECCAK256 SWAP1 JUMPDEST DUP2 SLOAD DUP2 MSTORE SWAP1 PUSH1 0x1 ADD SWAP1 PUSH1 0x20 ADD DUP1 DUP4 GT PUSH2 0x2AEC JUMPI DUP3 SWAP1 SUB PUSH1 0x1F AND DUP3 ADD SWAP2 JUMPDEST POP POP POP POP POP DUP2 JUMP JUMPDEST PUSH2 0x2B19 PUSH2 0x3903 JUMP JUMPDEST PUSH2 0x285E PUSH1 0x0 PUSH2 0x3EF7 JUMP JUMPDEST PUSH2 0x2B2B PUSH2 0x3903 JUMP JUMPDEST DUP1 PUSH1 0x0 SUB PUSH2 0x2B7B JUMPI PUSH1 0x40 MLOAD PUSH3 0x461BCD PUSH1 0xE5 SHL DUP2 MSTORE PUSH1 0x20 PUSH1 0x4 DUP3 ADD MSTORE PUSH1 0x19 PUSH1 0x24 DUP3 ADD MSTORE PUSH32 0x46697265536565643A20696E76616C6964206164647265737300000000000000 PUSH1 0x44 DUP3 ADD MSTORE PUSH1 0x64 ADD PUSH2 0xEE1 JUMP JUMPDEST PUSH1 0x17 SSTORE JUMP JUMPDEST PUSH1 0x1E DUP2 DUP2 SLOAD DUP2 LT PUSH2 0x2B90 JUMPI PUSH1 0x0 DUP1 REVERT JUMPDEST PUSH1 0x0 SWAP2 DUP3 MSTORE PUSH1 0x20 SWAP1 SWAP2 KECCAK256 PUSH1 0x3 SWAP1 SWAP2 MUL ADD DUP1 SLOAD PUSH1 0x1 DUP3 ADD SLOAD PUSH1 0x2 SWAP1 SWAP3 ADD SLOAD SWAP1 SWAP3 POP DUP4 JUMP JUMPDEST PUSH2 0x2BBB PUSH2 0x3903 JUMP JUMPDEST DUP2 DUP4 LT PUSH2 0x2C0A JUMPI PUSH1 0x40 MLOAD PUSH3 0x461BCD PUSH1 0xE5 SHL DUP2 MSTORE PUSH1 0x20 PUSH1 0x4 DUP3 ADD MSTORE PUSH1 0x17 PUSH1 0x24 DUP3 ADD MSTORE PUSH32 0x46697265536565643A20496E76616C69642072616E6765000000000000000000 PUSH1 0x44 DUP3 ADD MSTORE PUSH1 0x64 ADD PUSH2 0xEE1 JUMP JUMPDEST PUSH1 0x0 DUP3 DUP2 MSTORE PUSH1 0x24 PUSH1 0x20 MSTORE PUSH1 0x40 SWAP1 KECCAK256 SLOAD ISZERO PUSH2 0x2C62 JUMPI PUSH1 0x40 MLOAD PUSH3 0x461BCD PUSH1 0xE5 SHL DUP2 MSTORE PUSH1 0x20 PUSH1 0x4 DUP3 ADD MSTORE PUSH1 0x19 PUSH1 0x24 DUP3 ADD MSTORE PUSH25 0x46697265536565643A20496E76616C69642073657474696E67 PUSH1 0x38 SHL PUSH1 0x44 DUP3 ADD MSTORE PUSH1 0x64 ADD PUSH2 0xEE1 JUMP JUMPDEST PUSH1 0x0 DUP4 DUP2 MSTORE PUSH1 0x24 PUSH1 0x20 MSTORE PUSH1 0x40 SWAP1 KECCAK256 SLOAD ISZERO PUSH2 0x2CBA JUMPI PUSH1 0x40 MLOAD PUSH3 0x461BCD PUSH1 0xE5 SHL DUP2 MSTORE PUSH1 0x20 PUSH1 0x4 DUP3 ADD MSTORE PUSH1 0x19 PUSH1 0x24 DUP3 ADD MSTORE PUSH25 0x46697265536565643A20496E76616C69642073657474696E67 PUSH1 0x38 SHL PUSH1 0x44 DUP3 ADD MSTORE PUSH1 0x64 ADD PUSH2 0xEE1 JUMP JUMPDEST PUSH1 0x0 DUP4 DUP2 MSTORE PUSH1 0x24 PUSH1 0x20 SWAP1 DUP2 MSTORE PUSH1 0x40 DUP1 DUP4 KECCAK256 DUP5 SWAP1 SSTORE DUP5 DUP4 MSTORE DUP1 DUP4 KECCAK256 DUP5 SWAP1 SSTORE DUP1 MLOAD PUSH1 0x60 DUP2 ADD DUP3 MSTORE SWAP6 DUP7 MSTORE SWAP1 DUP6 ADD SWAP4 DUP5 MSTORE DUP5 ADD SWAP2 DUP3 MSTORE PUSH1 0x1E DUP1 SLOAD PUSH1 0x1 DUP2 ADD DUP3 SSTORE SWAP2 MSTORE SWAP3 MLOAD PUSH32 0x50BB669A95C7B50B7E8A6F09454034B2B14CF2B85C730DCA9A539CA82CB6E350 PUSH1 0x3 SWAP1 SWAP5 MUL SWAP4 DUP5 ADD SSTORE SWAP1 MLOAD PUSH32 0x50BB669A95C7B50B7E8A6F09454034B2B14CF2B85C730DCA9A539CA82CB6E351 DUP4 ADD SSTORE MLOAD PUSH32 0x50BB669A95C7B50B7E8A6F09454034B2B14CF2B85C730DCA9A539CA82CB6E352 SWAP1 SWAP2 ADD SSTORE JUMP JUMPDEST PUSH1 0x1B SLOAD PUSH1 0x1 PUSH1 0x1 PUSH1 0xA0 SHL SUB AND CALLER EQ PUSH2 0x2DE1 JUMPI PUSH1 0x40 MLOAD PUSH3 0x461BCD PUSH1 0xE5 SHL DUP2 MSTORE PUSH1 0x20 PUSH1 0x4 DUP3 ADD MSTORE PUSH1 0x2B PUSH1 0x24 DUP3 ADD MSTORE PUSH32 0x46697265536565643A204F6E6C7920746865206361756C64726F6E2063616E20 PUSH1 0x44 DUP3 ADD MSTORE PUSH11 0x6275726E20746F6B656E73 PUSH1 0xA8 SHL PUSH1 0x64 DUP3 ADD MSTORE PUSH1 0x84 ADD PUSH2 0xEE1 JUMP JUMPDEST PUSH1 0x0 JUMPDEST PUSH1 0x1 PUSH1 0x1 PUSH1 0xA0 SHL SUB DUP5 AND PUSH1 0x0 SWAP1 DUP2 MSTORE PUSH1 0x23 PUSH1 0x20 MSTORE PUSH1 0x40 SWAP1 KECCAK256 SLOAD DUP2 LT ISZERO PUSH2 0x2F31 JUMPI PUSH1 0x1 PUSH1 0x1 PUSH1 0xA0 SHL SUB DUP5 AND PUSH1 0x0 SWAP1 DUP2 MSTORE PUSH1 0x23 PUSH1 0x20 MSTORE PUSH1 0x40 SWAP1 KECCAK256 DUP1 SLOAD DUP3 SWAP1 DUP2 LT PUSH2 0x2E2E JUMPI PUSH2 0x2E2E PUSH2 0x5263 JUMP JUMPDEST SWAP1 PUSH1 0x0 MSTORE PUSH1 0x20 PUSH1 0x0 KECCAK256 ADD SLOAD DUP4 EQ DUP1 ISZERO PUSH2 0x2E4F JUMPI POP PUSH2 0x2E4C DUP5 DUP5 PUSH2 0xE7A JUMP JUMPDEST DUP3 EQ JUMPDEST ISZERO PUSH2 0x2F1F JUMPI PUSH1 0x1 PUSH1 0x1 PUSH1 0xA0 SHL SUB DUP5 AND PUSH1 0x0 SWAP1 DUP2 MSTORE PUSH1 0x23 PUSH1 0x20 MSTORE PUSH1 0x40 SWAP1 KECCAK256 DUP1 SLOAD DUP3 SWAP2 SWAP1 PUSH2 0x2E7D SWAP1 PUSH1 0x1 SWAP1 PUSH2 0x545D JUMP JUMPDEST DUP2 SLOAD DUP2 LT PUSH2 0x2E8D JUMPI PUSH2 0x2E8D PUSH2 0x5263 JUMP JUMPDEST SWAP1 PUSH1 0x0 MSTORE PUSH1 0x20 PUSH1 0x0 KECCAK256 ADD SLOAD PUSH1 0x23 PUSH1 0x0 DUP8 PUSH1 0x1 PUSH1 0x1 PUSH1 0xA0 SHL SUB AND PUSH1 0x1 PUSH1 0x1 PUSH1 0xA0 SHL SUB AND DUP2 MSTORE PUSH1 0x20 ADD SWAP1 DUP2 MSTORE PUSH1 0x20 ADD PUSH1 0x0 KECCAK256 DUP3 DUP2 SLOAD DUP2 LT PUSH2 0x2ECE JUMPI PUSH2 0x2ECE PUSH2 0x5263 JUMP JUMPDEST PUSH1 0x0 SWAP2 DUP3 MSTORE PUSH1 0x20 DUP1 DUP4 KECCAK256 SWAP1 SWAP2 ADD SWAP3 SWAP1 SWAP3 SSTORE PUSH1 0x1 PUSH1 0x1 PUSH1 0xA0 SHL SUB DUP8 AND DUP2 MSTORE PUSH1 0x23 SWAP1 SWAP2 MSTORE PUSH1 0x40 SWAP1 KECCAK256 DUP1 SLOAD DUP1 PUSH2 0x2F03 JUMPI PUSH2 0x2F03 PUSH2 0x5666 JUMP JUMPDEST PUSH1 0x1 SWAP1 SUB DUP2 DUP2 SWAP1 PUSH1 0x0 MSTORE PUSH1 0x20 PUSH1 0x0 KECCAK256 ADD PUSH1 0x0 SWAP1 SSTORE SWAP1 SSTORE POP PUSH2 0x2F31 JUMP JUMPDEST DUP1 PUSH2 0x2F29 DUP2 PUSH2 0x528F JUMP JUMPDEST SWAP2 POP POP PUSH2 0x2DE4 JUMP JUMPDEST POP PUSH2 0x2F3D DUP4 DUP4 DUP4 PUSH2 0x3F49 JUMP JUMPDEST POP POP POP JUMP JUMPDEST PUSH2 0x2F4A PUSH2 0x3903 JUMP JUMPDEST PUSH1 0x1C DUP1 SLOAD PUSH1 0x1 PUSH1 0x1 PUSH1 0xA0 SHL SUB NOT AND PUSH1 0x1 PUSH1 0x1 PUSH1 0xA0 SHL SUB SWAP3 SWAP1 SWAP3 AND SWAP2 SWAP1 SWAP2 OR SWAP1 SSTORE JUMP JUMPDEST PUSH2 0x2F74 PUSH2 0x3903 JUMP JUMPDEST PUSH1 0x15 SSTORE JUMP JUMPDEST PUSH2 0x2F81 PUSH2 0x3903 JUMP JUMPDEST PUSH1 0xF DUP1 SLOAD SWAP2 ISZERO ISZERO PUSH2 0x100 MUL PUSH2 0xFF00 NOT SWAP1 SWAP3 AND SWAP2 SWAP1 SWAP2 OR SWAP1 SSTORE JUMP JUMPDEST PUSH2 0x2FA3 PUSH2 0x3903 JUMP JUMPDEST PUSH1 0x1 PUSH1 0x1 PUSH1 0xA0 SHL SUB DUP2 AND PUSH2 0x2FF9 JUMPI PUSH1 0x40 MLOAD PUSH3 0x461BCD PUSH1 0xE5 SHL DUP2 MSTORE PUSH1 0x20 PUSH1 0x4 DUP3 ADD MSTORE PUSH1 0x19 PUSH1 0x24 DUP3 ADD MSTORE PUSH32 0x46697265536565643A20496E76616C6964206164647265737300000000000000 PUSH1 0x44 DUP3 ADD MSTORE PUSH1 0x64 ADD PUSH2 0xEE1 JUMP JUMPDEST PUSH1 0x19 DUP1 SLOAD PUSH1 0x1 PUSH1 0x1 PUSH1 0xA0 SHL SUB NOT AND PUSH1 0x1 PUSH1 0x1 PUSH1 0xA0 SHL SUB SWAP3 SWAP1 SWAP3 AND SWAP2 SWAP1 SWAP2 OR SWAP1 SSTORE JUMP JUMPDEST PUSH2 0x3023 PUSH2 0x3903 JUMP JUMPDEST PUSH1 0xF DUP1 SLOAD PUSH1 0x1 PUSH1 0x1 PUSH1 0xA0 SHL SUB SWAP1 SWAP3 AND PUSH3 0x10000 MUL PUSH3 0x10000 PUSH1 0x1 PUSH1 0xB0 SHL SUB NOT SWAP1 SWAP3 AND SWAP2 SWAP1 SWAP2 OR SWAP1 SSTORE JUMP JUMPDEST DUP2 PUSH2 0x3057 DUP2 PUSH2 0x3D61 JUMP JUMPDEST PUSH2 0x2F3D DUP4 DUP4 PUSH2 0x40C5 JUMP JUMPDEST PUSH2 0x3069 PUSH2 0x3903 JUMP JUMPDEST PUSH1 0x64 DUP2 GT ISZERO PUSH2 0x30A8 JUMPI PUSH1 0x40 MLOAD PUSH3 0x461BCD PUSH1 0xE5 SHL DUP2 MSTORE PUSH1 0x20 PUSH1 0x4 DUP3 ADD MSTORE PUSH1 0xB PUSH1 0x24 DUP3 ADD MSTORE PUSH11 0x2FB930BA329032B93937B9 PUSH1 0xA9 SHL PUSH1 0x44 DUP3 ADD MSTORE PUSH1 0x64 ADD PUSH2 0xEE1 JUMP JUMPDEST PUSH1 0xB SSTORE JUMP JUMPDEST PUSH2 0x30B5 PUSH2 0x3903 JUMP JUMPDEST PUSH1 0x0 JUMPDEST DUP2 DUP2 LT ISZERO PUSH2 0x2F3D JUMPI PUSH1 0x22 PUSH1 0x0 DUP5 DUP5 DUP5 DUP2 DUP2 LT PUSH2 0x30D6 JUMPI PUSH2 0x30D6 PUSH2 0x5263 JUMP JUMPDEST SWAP1 POP PUSH1 0x20 MUL ADD PUSH1 0x20 DUP2 ADD SWAP1 PUSH2 0x30EB SWAP2 SWAP1 PUSH2 0x4D73 JUMP JUMPDEST PUSH1 0x1 PUSH1 0x1 PUSH1 0xA0 SHL SUB AND DUP2 MSTORE PUSH1 0x20 DUP2 ADD SWAP2 SWAP1 SWAP2 MSTORE PUSH1 0x40 ADD PUSH1 0x0 KECCAK256 SLOAD PUSH1 0xFF AND ISZERO ISZERO PUSH1 0x1 EQ PUSH2 0x3159 JUMPI PUSH1 0x40 MLOAD PUSH3 0x461BCD PUSH1 0xE5 SHL DUP2 MSTORE PUSH1 0x20 PUSH1 0x4 DUP3 ADD MSTORE PUSH1 0x1F PUSH1 0x24 DUP3 ADD MSTORE PUSH32 0x46697265536565643A2055736572206E6F7420696E2077686974656C69737400 PUSH1 0x44 DUP3 ADD MSTORE PUSH1 0x64 ADD PUSH2 0xEE1 JUMP JUMPDEST PUSH1 0x0 PUSH2 0x31E5 PUSH1 0x1D DUP1 SLOAD DUP1 PUSH1 0x20 MUL PUSH1 0x20 ADD PUSH1 0x40 MLOAD SWAP1 DUP2 ADD PUSH1 0x40 MSTORE DUP1 SWAP3 SWAP2 SWAP1 DUP2 DUP2 MSTORE PUSH1 0x20 ADD DUP3 DUP1 SLOAD DUP1 ISZERO PUSH2 0x31B4 JUMPI PUSH1 0x20 MUL DUP3 ADD SWAP2 SWAP1 PUSH1 0x0 MSTORE PUSH1 0x20 PUSH1 0x0 KECCAK256 SWAP1 JUMPDEST DUP2 SLOAD PUSH1 0x1 PUSH1 0x1 PUSH1 0xA0 SHL SUB AND DUP2 MSTORE PUSH1 0x1 SWAP1 SWAP2 ADD SWAP1 PUSH1 0x20 ADD DUP1 DUP4 GT PUSH2 0x3196 JUMPI JUMPDEST POP POP POP POP POP DUP6 DUP6 DUP6 DUP2 DUP2 LT PUSH2 0x31CB JUMPI PUSH2 0x31CB PUSH2 0x5263 JUMP JUMPDEST SWAP1 POP PUSH1 0x20 MUL ADD PUSH1 0x20 DUP2 ADD SWAP1 PUSH2 0x31E0 SWAP2 SWAP1 PUSH2 0x4D73 JUMP JUMPDEST PUSH2 0x40D0 JUMP JUMPDEST PUSH1 0x1D SLOAD SWAP1 SWAP2 POP DUP2 LT PUSH2 0x3247 JUMPI PUSH1 0x40 MLOAD PUSH3 0x461BCD PUSH1 0xE5 SHL DUP2 MSTORE PUSH1 0x20 PUSH1 0x4 DUP3 ADD MSTORE PUSH1 0x25 PUSH1 0x24 DUP3 ADD MSTORE PUSH32 0x46697265536565643A2055736572206E6F7420696E2077686974656C69737420 PUSH1 0x44 DUP3 ADD MSTORE PUSH5 0x6172726179 PUSH1 0xD8 SHL PUSH1 0x64 DUP3 ADD MSTORE PUSH1 0x84 ADD PUSH2 0xEE1 JUMP JUMPDEST PUSH2 0x3252 PUSH1 0x1D DUP3 PUSH2 0x4131 JUMP JUMPDEST PUSH1 0x0 PUSH1 0x22 PUSH1 0x0 DUP7 DUP7 DUP7 DUP2 DUP2 LT PUSH2 0x326A JUMPI PUSH2 0x326A PUSH2 0x5263 JUMP JUMPDEST SWAP1 POP PUSH1 0x20 MUL ADD PUSH1 0x20 DUP2 ADD SWAP1 PUSH2 0x327F SWAP2 SWAP1 PUSH2 0x4D73 JUMP JUMPDEST PUSH1 0x1 PUSH1 0x1 PUSH1 0xA0 SHL SUB AND DUP2 MSTORE PUSH1 0x20 DUP2 ADD SWAP2 SWAP1 SWAP2 MSTORE PUSH1 0x40 ADD PUSH1 0x0 KECCAK256 DUP1 SLOAD PUSH1 0xFF NOT AND SWAP2 ISZERO ISZERO SWAP2 SWAP1 SWAP2 OR SWAP1 SSTORE POP DUP1 PUSH2 0x32B2 DUP2 PUSH2 0x528F JUMP JUMPDEST SWAP2 POP POP PUSH2 0x30B8 JUMP JUMPDEST PUSH1 0xF SLOAD PUSH3 0x10000 SWAP1 DIV PUSH1 0x1 PUSH1 0x1 PUSH1 0xA0 SHL SUB AND CALLER EQ PUSH2 0x32EA JUMPI PUSH1 0x40 MLOAD PUSH3 0x461BCD PUSH1 0xE5 SHL DUP2 MSTORE PUSH1 0x4 ADD PUSH2 0xEE1 SWAP1 PUSH2 0x5504 JUMP JUMPDEST PUSH2 0x285E PUSH2 0x424C JUMP JUMPDEST PUSH2 0x32FA PUSH2 0x3903 JUMP JUMPDEST PUSH1 0x0 DUP3 DUP2 MSTORE PUSH1 0x24 PUSH1 0x20 MSTORE PUSH1 0x40 DUP1 DUP3 KECCAK256 DUP3 SWAP1 SSTORE DUP3 DUP3 MSTORE DUP2 KECCAK256 DUP2 SWAP1 SSTORE JUMPDEST PUSH1 0x1E SLOAD DUP2 LT ISZERO PUSH2 0x2F3D JUMPI PUSH1 0x1E DUP2 DUP2 SLOAD DUP2 LT PUSH2 0x3332 JUMPI PUSH2 0x3332 PUSH2 0x5263 JUMP JUMPDEST SWAP1 PUSH1 0x0 MSTORE PUSH1 0x20 PUSH1 0x0 KECCAK256 SWAP1 PUSH1 0x3 MUL ADD PUSH1 0x0 ADD SLOAD DUP4 EQ DUP1 ISZERO PUSH2 0x3375 JUMPI POP PUSH1 0x1E DUP2 DUP2 SLOAD DUP2 LT PUSH2 0x3360 JUMPI PUSH2 0x3360 PUSH2 0x5263 JUMP JUMPDEST SWAP1 PUSH1 0x0 MSTORE PUSH1 0x20 PUSH1 0x0 KECCAK256 SWAP1 PUSH1 0x3 MUL ADD PUSH1 0x1 ADD SLOAD DUP3 EQ JUMPDEST ISZERO PUSH2 0x341A JUMPI PUSH1 0x1E DUP1 SLOAD PUSH2 0x338A SWAP1 PUSH1 0x1 SWAP1 PUSH2 0x545D JUMP JUMPDEST DUP2 SLOAD DUP2 LT PUSH2 0x339A JUMPI PUSH2 0x339A PUSH2 0x5263 JUMP JUMPDEST SWAP1 PUSH1 0x0 MSTORE PUSH1 0x20 PUSH1 0x0 KECCAK256 SWAP1 PUSH1 0x3 MUL ADD PUSH1 0x1E DUP3 DUP2 SLOAD DUP2 LT PUSH2 0x33BB JUMPI PUSH2 0x33BB PUSH2 0x5263 JUMP JUMPDEST PUSH1 0x0 SWAP2 DUP3 MSTORE PUSH1 0x20 SWAP1 SWAP2 KECCAK256 DUP3 SLOAD PUSH1 0x3 SWAP1 SWAP3 MUL ADD SWAP1 DUP2 SSTORE PUSH1 0x1 DUP1 DUP4 ADD SLOAD SWAP1 DUP3 ADD SSTORE PUSH1 0x2 SWAP2 DUP3 ADD SLOAD SWAP2 ADD SSTORE PUSH1 0x1E DUP1 SLOAD DUP1 PUSH2 0x33F4 JUMPI PUSH2 0x33F4 PUSH2 0x5666 JUMP JUMPDEST PUSH1 0x0 DUP3 DUP2 MSTORE PUSH1 0x20 DUP2 KECCAK256 PUSH1 0x3 PUSH1 0x0 NOT SWAP1 SWAP4 ADD SWAP3 DUP4 MUL ADD DUP2 DUP2 SSTORE PUSH1 0x1 DUP2 ADD DUP3 SWAP1 SSTORE PUSH1 0x2 ADD SSTORE SWAP1 SSTORE JUMPDEST DUP1 PUSH2 0x3424 DUP2 PUSH2 0x528F JUMP JUMPDEST SWAP2 POP POP PUSH2 0x3315 JUMP JUMPDEST PUSH1 0x4 DUP1 SLOAD PUSH1 0x40 MLOAD PUSH4 0xCACD001 PUSH1 0xE1 SHL DUP2 MSTORE PUSH1 0x1 PUSH1 0x1 PUSH1 0xA0 SHL SUB DUP5 DUP2 AND SWAP4 DUP3 ADD SWAP4 SWAP1 SWAP4 MSTORE PUSH1 0x0 SWAP3 DUP4 SWAP3 AND SWAP1 PUSH4 0x1959A002 SWAP1 PUSH1 0x24 ADD PUSH1 0x0 PUSH1 0x40 MLOAD DUP1 DUP4 SUB DUP2 DUP7 GAS STATICCALL ISZERO DUP1 ISZERO PUSH2 0x347C JUMPI RETURNDATASIZE PUSH1 0x0 DUP1 RETURNDATACOPY RETURNDATASIZE PUSH1 0x0 REVERT JUMPDEST POP POP POP POP PUSH1 0x40 MLOAD RETURNDATASIZE PUSH1 0x0 DUP3 RETURNDATACOPY PUSH1 0x1F RETURNDATASIZE SWAP1 DUP2 ADD PUSH1 0x1F NOT AND DUP3 ADD PUSH1 0x40 MSTORE PUSH2 0x34A4 SWAP2 SWAP1 DUP2 ADD SWAP1 PUSH2 0x56D4 JUMP JUMPDEST POP SWAP3 SWAP7 SWAP6 POP POP POP POP POP POP JUMP JUMPDEST PUSH2 0x34B8 PUSH2 0x3903 JUMP JUMPDEST PUSH1 0x1B DUP1 SLOAD PUSH1 0x1 PUSH1 0x1 PUSH1 0xA0 SHL SUB NOT AND PUSH1 0x1 PUSH1 0x1 PUSH1 0xA0 SHL SUB SWAP3 SWAP1 SWAP3 AND SWAP2 SWAP1 SWAP2 OR SWAP1 SSTORE JUMP JUMPDEST PUSH1 0x40 MLOAD PUSH3 0x461BCD PUSH1 0xE5 SHL DUP2 MSTORE PUSH1 0x20 PUSH1 0x4 DUP3 ADD MSTORE PUSH1 0x22 PUSH1 0x24 DUP3 ADD MSTORE PUSH32 0x46697265536565643A2042617463682063617374696E6720697320696E76616C PUSH1 0x44 DUP3 ADD MSTORE PUSH2 0x1A59 PUSH1 0xF2 SHL PUSH1 0x64 DUP3 ADD MSTORE PUSH1 0x84 ADD PUSH2 0xEE1 JUMP JUMPDEST DUP5 PUSH1 0x1 PUSH1 0x1 PUSH1 0xA0 SHL SUB DUP2 AND CALLER EQ PUSH2 0x3547 JUMPI PUSH2 0x3547 CALLER PUSH2 0x3D61 JUMP JUMPDEST PUSH1 0xF SLOAD PUSH1 0xFF AND ISZERO PUSH2 0x356A JUMPI PUSH1 0x40 MLOAD PUSH3 0x461BCD PUSH1 0xE5 SHL DUP2 MSTORE PUSH1 0x4 ADD PUSH2 0xEE1 SWAP1 PUSH2 0x5470 JUMP JUMPDEST PUSH1 0xF DUP1 SLOAD PUSH1 0xFF NOT AND PUSH1 0x1 OR SWAP1 SSTORE PUSH1 0x1 PUSH1 0x1 PUSH1 0xA0 SHL SUB DUP1 DUP7 AND SWAP1 DUP8 AND SUB PUSH2 0x35D2 JUMPI PUSH1 0x40 MLOAD PUSH3 0x461BCD PUSH1 0xE5 SHL DUP2 MSTORE PUSH1 0x20 PUSH1 0x4 DUP3 ADD MSTORE PUSH1 0x1A PUSH1 0x24 DUP3 ADD MSTORE PUSH32 0x46697265536565643A20696E76616C6964207472616E73666572000000000000 PUSH1 0x44 DUP3 ADD MSTORE PUSH1 0x64 ADD PUSH2 0xEE1 JUMP JUMPDEST PUSH2 0x35DC DUP7 DUP7 PUSH2 0x3E1A JUMP JUMPDEST PUSH2 0x35F8 JUMPI PUSH1 0x40 MLOAD PUSH3 0x461BCD PUSH1 0xE5 SHL DUP2 MSTORE PUSH1 0x4 ADD PUSH2 0xEE1 SWAP1 PUSH2 0x54B9 JUMP JUMPDEST PUSH1 0x1 PUSH1 0x1 PUSH1 0xA0 SHL SUB DUP6 DUP2 AND PUSH1 0x0 SWAP1 DUP2 MSTORE PUSH1 0x20 DUP1 MSTORE PUSH1 0x40 SWAP1 KECCAK256 SLOAD AND ISZERO DUP1 ISZERO PUSH2 0x363B JUMPI POP PUSH1 0x1 PUSH1 0x1 PUSH1 0xA0 SHL SUB DUP7 DUP2 AND PUSH1 0x0 SWAP1 DUP2 MSTORE PUSH1 0x20 DUP1 MSTORE PUSH1 0x40 SWAP1 KECCAK256 SLOAD DUP2 AND SWAP1 DUP7 AND EQ ISZERO JUMPDEST DUP1 ISZERO PUSH2 0x3660 JUMPI POP PUSH1 0x1 PUSH1 0x1 PUSH1 0xA0 SHL SUB DUP6 AND PUSH1 0x0 SWAP1 DUP2 MSTORE PUSH1 0x1F PUSH1 0x20 MSTORE PUSH1 0x40 SWAP1 KECCAK256 SLOAD PUSH1 0xFF AND ISZERO JUMPDEST ISZERO PUSH2 0x371C JUMPI PUSH1 0x1 PUSH1 0x1 PUSH1 0xA0 SHL SUB DUP6 DUP2 AND PUSH1 0x0 DUP2 DUP2 MSTORE PUSH1 0x20 DUP1 DUP1 MSTORE PUSH1 0x40 DUP1 DUP4 KECCAK256 DUP1 SLOAD PUSH1 0x1 PUSH1 0x1 PUSH1 0xA0 SHL SUB NOT SWAP1 DUP2 AND SWAP7 DUP14 AND SWAP7 DUP8 OR SWAP1 SWAP2 SSTORE DUP6 DUP5 MSTORE PUSH1 0x21 DUP4 MSTORE DUP2 DUP5 KECCAK256 DUP1 SLOAD PUSH1 0x1 DUP2 DUP2 ADD DUP4 SSTORE SWAP2 DUP7 MSTORE DUP5 DUP7 KECCAK256 ADD DUP1 SLOAD SWAP1 SWAP3 AND DUP7 OR SWAP1 SWAP2 SSTORE DUP5 DUP5 MSTORE PUSH1 0x1F DUP4 MSTORE SWAP3 DUP2 SWAP1 KECCAK256 DUP1 SLOAD PUSH1 0xFF NOT AND SWAP1 SWAP4 OR SWAP1 SWAP3 SSTORE DUP2 MLOAD SWAP4 DUP5 MSTORE DUP4 ADD SWAP2 SWAP1 SWAP2 MSTORE DUP2 ADD DUP6 SWAP1 MSTORE PUSH1 0x60 DUP2 ADD DUP5 SWAP1 MSTORE TIMESTAMP PUSH1 0x80 DUP3 ADD MSTORE PUSH32 0xCF9D579DB6C84305AE8FADE81B772116BCF73B6AF9A5BA64DB14DF38ABCF300F SWAP1 PUSH1 0xA0 ADD PUSH1 0x40 MLOAD DUP1 SWAP2 SUB SWAP1 LOG1 JUMPDEST PUSH1 0x1 PUSH1 0x1 PUSH1 0xA0 SHL SUB DUP6 AND PUSH1 0x0 SWAP1 DUP2 MSTORE PUSH1 0x23 PUSH1 0x20 SWAP1 DUP2 MSTORE PUSH1 0x40 DUP3 KECCAK256 DUP1 SLOAD PUSH1 0x1 DUP2 ADD DUP3 SSTORE SWAP1 DUP4 MSTORE SWAP2 KECCAK256 ADD DUP5 SWAP1 SSTORE PUSH2 0x3754 DUP7 DUP7 DUP7 DUP7 DUP7 PUSH2 0x4388 JUMP JUMPDEST PUSH32 0x4ED2C59ECE11F943172A7EB28C1EC53DF55C5B893827C9B0AFE621C54EDA6DA4 TIMESTAMP DUP7 PUSH2 0x3780 CALLER PUSH2 0x342C JUMP JUMPDEST PUSH1 0x1B SLOAD PUSH1 0x40 MLOAD PUSH4 0x73AB94F9 PUSH1 0xE1 SHL DUP2 MSTORE CALLER PUSH1 0x4 DUP3 ADD MSTORE PUSH1 0x1 PUSH1 0x1 PUSH1 0xA0 SHL SUB SWAP1 SWAP2 AND SWAP1 PUSH4 0xE75729F2 SWAP1 PUSH1 0x24 ADD PUSH1 0x20 PUSH1 0x40 MLOAD DUP1 DUP4 SUB DUP2 DUP7 GAS STATICCALL ISZERO DUP1 ISZERO PUSH2 0x37C8 JUMPI RETURNDATASIZE PUSH1 0x0 DUP1 RETURNDATACOPY RETURNDATASIZE PUSH1 0x0 REVERT JUMPDEST POP POP POP POP PUSH1 0x40 MLOAD RETURNDATASIZE PUSH1 0x1F NOT PUSH1 0x1F DUP3 ADD AND DUP3 ADD DUP1 PUSH1 0x40 MSTORE POP DUP2 ADD SWAP1 PUSH2 0x37EC SWAP2 SWAP1 PUSH2 0x575E JUMP JUMPDEST PUSH1 0x40 DUP1 MLOAD SWAP5 DUP6 MSTORE PUSH1 0x1 PUSH1 0x1 PUSH1 0xA0 SHL SUB SWAP1 SWAP4 AND PUSH1 0x20 DUP6 ADD MSTORE SWAP2 DUP4 ADD MSTORE PUSH1 0x60 DUP3 ADD MSTORE PUSH1 0x80 DUP2 ADD DUP6 SWAP1 MSTORE PUSH1 0xA0 ADD PUSH1 0x40 MLOAD DUP1 SWAP2 SUB SWAP1 LOG1 POP POP PUSH1 0xF DUP1 SLOAD PUSH1 0xFF NOT AND SWAP1 SSTORE POP POP POP POP JUMP JUMPDEST PUSH2 0x3838 PUSH2 0x3903 JUMP JUMPDEST PUSH1 0x1 PUSH1 0x1 PUSH1 0xA0 SHL SUB DUP2 AND PUSH2 0x389D JUMPI PUSH1 0x40 MLOAD PUSH3 0x461BCD PUSH1 0xE5 SHL DUP2 MSTORE PUSH1 0x20 PUSH1 0x4 DUP3 ADD MSTORE PUSH1 0x26 PUSH1 0x24 DUP3 ADD MSTORE PUSH32 0x4F776E61626C653A206E6577206F776E657220697320746865207A65726F2061 PUSH1 0x44 DUP3 ADD MSTORE PUSH6 0x646472657373 PUSH1 0xD0 SHL PUSH1 0x64 DUP3 ADD MSTORE PUSH1 0x84 ADD PUSH2 0xEE1 JUMP JUMPDEST PUSH2 0x26A6 DUP2 PUSH2 0x3EF7 JUMP JUMPDEST PUSH2 0x38AE PUSH2 0x3903 JUMP JUMPDEST PUSH1 0x4 DUP1 SLOAD PUSH1 0x1 PUSH1 0x1 PUSH1 0xA0 SHL SUB NOT AND PUSH1 0x1 PUSH1 0x1 PUSH1 0xA0 SHL SUB SWAP3 SWAP1 SWAP3 AND SWAP2 SWAP1 SWAP2 OR SWAP1 SSTORE JUMP JUMPDEST PUSH2 0x38D8 PUSH2 0x3903 JUMP JUMPDEST PUSH1 0x18 DUP1 SLOAD PUSH1 0x1 PUSH1 0x1 PUSH1 0xA0 SHL SUB NOT AND PUSH1 0x1 PUSH1 0x1 PUSH1 0xA0 SHL SUB SWAP3 SWAP1 SWAP3 AND SWAP2 SWAP1 SWAP2 OR SWAP1 SSTORE JUMP JUMPDEST DUP1 SLOAD PUSH1 0x1 ADD SWAP1 SSTORE JUMP JUMPDEST PUSH1 0x3 SLOAD PUSH1 0x1 PUSH1 0x1 PUSH1 0xA0 SHL SUB AND CALLER EQ PUSH2 0x285E JUMPI PUSH1 0x40 MLOAD PUSH3 0x461BCD PUSH1 0xE5 SHL DUP2 MSTORE PUSH1 0x20 PUSH1 0x4 DUP3 ADD DUP2 SWAP1 MSTORE PUSH1 0x24 DUP3 ADD MSTORE PUSH32 0x4F776E61626C653A2063616C6C6572206973206E6F7420746865206F776E6572 PUSH1 0x44 DUP3 ADD MSTORE PUSH1 0x64 ADD PUSH2 0xEE1 JUMP JUMPDEST PUSH1 0x60 PUSH1 0x0 PUSH2 0x396A DUP4 PUSH2 0x43CD JUMP JUMPDEST PUSH1 0x1 ADD SWAP1 POP PUSH1 0x0 DUP2 PUSH1 0x1 PUSH1 0x1 PUSH1 0x40 SHL SUB DUP2 GT ISZERO PUSH2 0x3989 JUMPI PUSH2 0x3989 PUSH2 0x4C13 JUMP JUMPDEST PUSH1 0x40 MLOAD SWAP1 DUP1 DUP3 MSTORE DUP1 PUSH1 0x1F ADD PUSH1 0x1F NOT AND PUSH1 0x20 ADD DUP3 ADD PUSH1 0x40 MSTORE DUP1 ISZERO PUSH2 0x39B3 JUMPI PUSH1 0x20 DUP3 ADD DUP2 DUP1 CALLDATASIZE DUP4 CALLDATACOPY ADD SWAP1 POP JUMPDEST POP SWAP1 POP DUP2 DUP2 ADD PUSH1 0x20 ADD JUMPDEST PUSH1 0x0 NOT ADD PUSH16 0x181899199A1A9B1B9C1CB0B131B232B3 PUSH1 0x81 SHL PUSH1 0xA DUP7 MOD BYTE DUP2 MSTORE8 PUSH1 0xA DUP6 DIV SWAP5 POP DUP5 PUSH2 0x39BD JUMPI POP SWAP4 SWAP3 POP POP POP JUMP JUMPDEST PUSH1 0x3 SLOAD PUSH1 0x1 PUSH1 0xA0 SHL SWAP1 DIV PUSH1 0xFF AND ISZERO PUSH2 0x285E JUMPI PUSH1 0x40 MLOAD PUSH3 0x461BCD PUSH1 0xE5 SHL DUP2 MSTORE PUSH1 0x20 PUSH1 0x4 DUP3 ADD MSTORE PUSH1 0x10 PUSH1 0x24 DUP3 ADD MSTORE PUSH16 0x14185D5CD8589B194E881C185D5CD959 PUSH1 0x82 SHL PUSH1 0x44 DUP3 ADD MSTORE PUSH1 0x64 ADD PUSH2 0xEE1 JUMP JUMPDEST PUSH1 0x1 PUSH1 0x1 PUSH1 0xA0 SHL SUB DUP5 AND PUSH2 0x3A9C JUMPI PUSH1 0x40 MLOAD PUSH3 0x461BCD PUSH1 0xE5 SHL DUP2 MSTORE PUSH1 0x20 PUSH1 0x4 DUP3 ADD MSTORE PUSH1 0x21 PUSH1 0x24 DUP3 ADD MSTORE PUSH32 0x455243313135353A206D696E7420746F20746865207A65726F20616464726573 PUSH1 0x44 DUP3 ADD MSTORE PUSH1 0x73 PUSH1 0xF8 SHL PUSH1 0x64 DUP3 ADD MSTORE PUSH1 0x84 ADD PUSH2 0xEE1 JUMP JUMPDEST CALLER PUSH1 0x0 PUSH2 0x3AA8 DUP6 PUSH2 0x44A5 JUMP JUMPDEST SWAP1 POP PUSH1 0x0 PUSH2 0x3AB5 DUP6 PUSH2 0x44A5 JUMP JUMPDEST SWAP1 POP PUSH1 0x0 DUP7 DUP2 MSTORE PUSH1 0x20 DUP2 DUP2 MSTORE PUSH1 0x40 DUP1 DUP4 KECCAK256 PUSH1 0x1 PUSH1 0x1 PUSH1 0xA0 SHL SUB DUP12 AND DUP5 MSTORE SWAP1 SWAP2 MSTORE DUP2 KECCAK256 DUP1 SLOAD DUP8 SWAP3 SWAP1 PUSH2 0x3AE7 SWAP1 DUP5 SWAP1 PUSH2 0x5379 JUMP JUMPDEST SWAP1 SWAP2 SSTORE POP POP PUSH1 0x40 DUP1 MLOAD DUP8 DUP2 MSTORE PUSH1 0x20 DUP2 ADD DUP8 SWAP1 MSTORE PUSH1 0x1 PUSH1 0x1 PUSH1 0xA0 SHL SUB DUP1 DUP11 AND SWAP3 PUSH1 0x0 SWAP3 SWAP2 DUP8 AND SWAP2 PUSH32 0xC3D58168C5AE7397731D063D5BBF3D657854427343F4C083240F7AACAA2D0F62 SWAP2 ADD PUSH1 0x40 MLOAD DUP1 SWAP2 SUB SWAP1 LOG4 PUSH2 0x3B47 DUP4 PUSH1 0x0 DUP10 DUP10 DUP10 DUP10 PUSH2 0x44F0 JUMP JUMPDEST POP POP POP POP POP POP POP JUMP JUMPDEST PUSH1 0x40 DUP1 MLOAD PUSH1 0x1 PUSH1 0x1 PUSH1 0xA0 SHL SUB DUP6 DUP2 AND PUSH1 0x24 DUP4 ADD MSTORE DUP5 DUP2 AND PUSH1 0x44 DUP4 ADD MSTORE PUSH1 0x64 DUP1 DUP4 ADD DUP6 SWAP1 MSTORE DUP4 MLOAD DUP1 DUP5 SUB SWAP1 SWAP2 ADD DUP2 MSTORE PUSH1 0x84 SWAP1 SWAP3 ADD DUP4 MSTORE PUSH1 0x20 DUP3 ADD DUP1 MLOAD PUSH1 0x1 PUSH1 0x1 PUSH1 0xE0 SHL SUB AND PUSH4 0x23B872DD PUSH1 0xE0 SHL OR SWAP1 MSTORE SWAP2 MLOAD PUSH1 0x0 SWAP3 DUP4 SWAP3 SWAP1 DUP9 AND SWAP2 PUSH2 0x3BB4 SWAP2 SWAP1 PUSH2 0x5777 JUMP JUMPDEST PUSH1 0x0 PUSH1 0x40 MLOAD DUP1 DUP4 SUB DUP2 PUSH1 0x0 DUP7 GAS CALL SWAP2 POP POP RETURNDATASIZE DUP1 PUSH1 0x0 DUP2 EQ PUSH2 0x3BF1 JUMPI PUSH1 0x40 MLOAD SWAP2 POP PUSH1 0x1F NOT PUSH1 0x3F RETURNDATASIZE ADD AND DUP3 ADD PUSH1 0x40 MSTORE RETURNDATASIZE DUP3 MSTORE RETURNDATASIZE PUSH1 0x0 PUSH1 0x20 DUP5 ADD RETURNDATACOPY PUSH2 0x3BF6 JUMP JUMPDEST PUSH1 0x60 SWAP2 POP JUMPDEST POP SWAP2 POP SWAP2 POP DUP2 DUP1 ISZERO PUSH2 0x3C20 JUMPI POP DUP1 MLOAD ISZERO DUP1 PUSH2 0x3C20 JUMPI POP DUP1 DUP1 PUSH1 0x20 ADD SWAP1 MLOAD DUP2 ADD SWAP1 PUSH2 0x3C20 SWAP2 SWAP1 PUSH2 0x5423 JUMP JUMPDEST PUSH2 0x3C78 JUMPI PUSH1 0x40 MLOAD PUSH3 0x461BCD PUSH1 0xE5 SHL DUP2 MSTORE PUSH1 0x20 PUSH1 0x4 DUP3 ADD MSTORE PUSH1 0x24 DUP1 DUP3 ADD MSTORE PUSH32 0x5472616E7366657248656C7065723A205452414E534645525F46524F4D5F4641 PUSH1 0x44 DUP3 ADD MSTORE PUSH4 0x12531151 PUSH1 0xE2 SHL PUSH1 0x64 DUP3 ADD MSTORE PUSH1 0x84 ADD PUSH2 0xEE1 JUMP JUMPDEST POP POP POP POP POP POP JUMP JUMPDEST PUSH1 0x0 DUP1 PUSH1 0xC SLOAD PUSH1 0x17 SLOAD PUSH1 0x11 SLOAD DUP6 PUSH2 0x3C97 SWAP2 SWAP1 PUSH2 0x538C JUMP JUMPDEST PUSH2 0x3CA1 SWAP2 SWAP1 PUSH2 0x538C JUMP JUMPDEST PUSH2 0x3CAB SWAP2 SWAP1 PUSH2 0x53A3 JUMP JUMPDEST SWAP1 POP PUSH1 0x64 PUSH1 0x0 JUMPDEST DUP5 DUP2 LT ISZERO PUSH2 0x3CF2 JUMPI PUSH1 0x0 DUP2 DUP2 MSTORE PUSH1 0x24 PUSH1 0x20 MSTORE PUSH1 0x40 SWAP1 KECCAK256 SLOAD ISZERO PUSH2 0x3CE0 JUMPI PUSH1 0x0 DUP2 DUP2 MSTORE PUSH1 0x24 PUSH1 0x20 MSTORE PUSH1 0x40 SWAP1 KECCAK256 SLOAD SWAP2 POP JUMPDEST DUP1 PUSH2 0x3CEA DUP2 PUSH2 0x528F JUMP JUMPDEST SWAP2 POP POP PUSH2 0x3CB2 JUMP JUMPDEST POP PUSH1 0x64 PUSH2 0x3CFF DUP3 DUP5 PUSH2 0x538C JUMP JUMPDEST PUSH2 0x3D09 SWAP2 SWAP1 PUSH2 0x53A3 JUMP JUMPDEST SWAP2 POP DUP2 CALLVALUE EQ PUSH2 0x3D5A JUMPI PUSH1 0x40 MLOAD PUSH3 0x461BCD PUSH1 0xE5 SHL DUP2 MSTORE PUSH1 0x20 PUSH1 0x4 DUP3 ADD MSTORE PUSH1 0x1A PUSH1 0x24 DUP3 ADD MSTORE PUSH32 0x46697265536565643A2045544820616D6F756E74206572726F72000000000000 PUSH1 0x44 DUP3 ADD MSTORE PUSH1 0x64 ADD PUSH2 0xEE1 JUMP JUMPDEST POP SWAP3 SWAP2 POP POP JUMP JUMPDEST PUSH14 0xAAEB6D7670E522A718067333CD4E EXTCODESIZE ISZERO PUSH2 0x26A6 JUMPI PUSH1 0x40 MLOAD PUSH4 0x3185C44D PUSH1 0xE2 SHL DUP2 MSTORE ADDRESS PUSH1 0x4 DUP3 ADD MSTORE PUSH1 0x1 PUSH1 0x1 PUSH1 0xA0 SHL SUB DUP3 AND PUSH1 0x24 DUP3 ADD MSTORE PUSH14 0xAAEB6D7670E522A718067333CD4E SWAP1 PUSH4 0xC6171134 SWAP1 PUSH1 0x44 ADD PUSH1 0x20 PUSH1 0x40 MLOAD DUP1 DUP4 SUB DUP2 DUP7 GAS STATICCALL ISZERO DUP1 ISZERO PUSH2 0x3DCE JUMPI RETURNDATASIZE PUSH1 0x0 DUP1 RETURNDATACOPY RETURNDATASIZE PUSH1 0x0 REVERT JUMPDEST POP POP POP POP PUSH1 0x40 MLOAD RETURNDATASIZE PUSH1 0x1F NOT PUSH1 0x1F DUP3 ADD AND DUP3 ADD DUP1 PUSH1 0x40 MSTORE POP DUP2 ADD SWAP1 PUSH2 0x3DF2 SWAP2 SWAP1 PUSH2 0x5423 JUMP JUMPDEST PUSH2 0x26A6 JUMPI PUSH1 0x40 MLOAD PUSH4 0x3B79C773 PUSH1 0xE2 SHL DUP2 MSTORE PUSH1 0x1 PUSH1 0x1 PUSH1 0xA0 SHL SUB DUP3 AND PUSH1 0x4 DUP3 ADD MSTORE PUSH1 0x24 ADD PUSH2 0xEE1 JUMP JUMPDEST PUSH1 0x0 PUSH1 0x1 PUSH1 0x1 PUSH1 0xA0 SHL SUB DUP4 AND ISZERO DUP1 ISZERO SWAP1 PUSH2 0x3E3C JUMPI POP PUSH1 0x1 PUSH1 0x1 PUSH1 0xA0 SHL SUB DUP3 AND ISZERO ISZERO JUMPDEST ISZERO PUSH2 0x3E49 JUMPI POP PUSH1 0x1 PUSH2 0xF0D JUMP JUMPDEST POP PUSH1 0x0 SWAP3 SWAP2 POP POP JUMP JUMPDEST PUSH1 0x1 PUSH1 0x1 PUSH1 0xA0 SHL SUB DUP6 AND CALLER EQ DUP1 PUSH2 0x3E6E JUMPI POP PUSH2 0x3E6E DUP6 CALLER PUSH2 0xDCC JUMP JUMPDEST PUSH2 0x3E8A JUMPI PUSH1 0x40 MLOAD PUSH3 0x461BCD PUSH1 0xE5 SHL DUP2 MSTORE PUSH1 0x4 ADD PUSH2 0xEE1 SWAP1 PUSH2 0x5793 JUMP JUMPDEST PUSH2 0x13AD DUP6 DUP6 DUP6 DUP6 DUP6 PUSH2 0x464B JUMP JUMPDEST PUSH2 0x3E9F PUSH2 0x39EF JUMP JUMPDEST PUSH1 0x3 DUP1 SLOAD PUSH1 0xFF PUSH1 0xA0 SHL NOT AND PUSH1 0x1 PUSH1 0xA0 SHL OR SWAP1 SSTORE PUSH32 0x62E78CEA01BEE320CD4E420270B5EA74000D11B0C9F74754EBDBFC544B05A258 PUSH2 0x3EDA CALLER SWAP1 JUMP JUMPDEST PUSH1 0x40 MLOAD PUSH1 0x1 PUSH1 0x1 PUSH1 0xA0 SHL SUB SWAP1 SWAP2 AND DUP2 MSTORE PUSH1 0x20 ADD PUSH1 0x40 MLOAD DUP1 SWAP2 SUB SWAP1 LOG1 JUMP JUMPDEST PUSH1 0x3 DUP1 SLOAD PUSH1 0x1 PUSH1 0x1 PUSH1 0xA0 SHL SUB DUP4 DUP2 AND PUSH1 0x1 PUSH1 0x1 PUSH1 0xA0 SHL SUB NOT DUP4 AND DUP2 OR SWAP1 SWAP4 SSTORE PUSH1 0x40 MLOAD SWAP2 AND SWAP2 SWAP1 DUP3 SWAP1 PUSH32 0x8BE0079C531659141344CD1FD0A4F28419497F9722A3DAAFE3B4186F6B6457E0 SWAP1 PUSH1 0x0 SWAP1 LOG3 POP POP JUMP JUMPDEST PUSH1 0x1 PUSH1 0x1 PUSH1 0xA0 SHL SUB DUP4 AND PUSH2 0x3FAB JUMPI PUSH1 0x40 MLOAD PUSH3 0x461BCD PUSH1 0xE5 SHL DUP2 MSTORE PUSH1 0x20 PUSH1 0x4 DUP3 ADD MSTORE PUSH1 0x23 PUSH1 0x24 DUP3 ADD MSTORE PUSH32 0x455243313135353A206275726E2066726F6D20746865207A65726F2061646472 PUSH1 0x44 DUP3 ADD MSTORE PUSH3 0x657373 PUSH1 0xE8 SHL PUSH1 0x64 DUP3 ADD MSTORE PUSH1 0x84 ADD PUSH2 0xEE1 JUMP JUMPDEST CALLER PUSH1 0x0 PUSH2 0x3FB7 DUP5 PUSH2 0x44A5 JUMP JUMPDEST SWAP1 POP PUSH1 0x0 PUSH2 0x3FC4 DUP5 PUSH2 0x44A5 JUMP JUMPDEST PUSH1 0x40 DUP1 MLOAD PUSH1 0x20 DUP1 DUP3 ADD DUP4 MSTORE PUSH1 0x0 SWAP2 DUP3 SWAP1 MSTORE DUP9 DUP3 MSTORE DUP2 DUP2 MSTORE DUP3 DUP3 KECCAK256 PUSH1 0x1 PUSH1 0x1 PUSH1 0xA0 SHL SUB DUP12 AND DUP4 MSTORE SWAP1 MSTORE KECCAK256 SLOAD SWAP1 SWAP2 POP DUP5 DUP2 LT ISZERO PUSH2 0x404D JUMPI PUSH1 0x40 MLOAD PUSH3 0x461BCD PUSH1 0xE5 SHL DUP2 MSTORE PUSH1 0x20 PUSH1 0x4 DUP3 ADD MSTORE PUSH1 0x24 DUP1 DUP3 ADD MSTORE PUSH32 0x455243313135353A206275726E20616D6F756E7420657863656564732062616C PUSH1 0x44 DUP3 ADD MSTORE PUSH4 0x616E6365 PUSH1 0xE0 SHL PUSH1 0x64 DUP3 ADD MSTORE PUSH1 0x84 ADD PUSH2 0xEE1 JUMP JUMPDEST PUSH1 0x0 DUP7 DUP2 MSTORE PUSH1 0x20 DUP2 DUP2 MSTORE PUSH1 0x40 DUP1 DUP4 KECCAK256 PUSH1 0x1 PUSH1 0x1 PUSH1 0xA0 SHL SUB DUP12 DUP2 AND DUP1 DUP7 MSTORE SWAP2 DUP5 MSTORE DUP3 DUP6 KECCAK256 DUP11 DUP8 SUB SWAP1 SSTORE DUP3 MLOAD DUP12 DUP2 MSTORE SWAP4 DUP5 ADD DUP11 SWAP1 MSTORE SWAP1 SWAP3 SWAP1 DUP9 AND SWAP2 PUSH32 0xC3D58168C5AE7397731D063D5BBF3D657854427343F4C083240F7AACAA2D0F62 SWAP2 ADD PUSH1 0x40 MLOAD DUP1 SWAP2 SUB SWAP1 LOG4 PUSH1 0x40 DUP1 MLOAD PUSH1 0x20 DUP2 ADD SWAP1 SWAP2 MSTORE PUSH1 0x0 SWAP1 MSTORE PUSH2 0x3B47 JUMP JUMPDEST PUSH2 0x10E3 CALLER DUP4 DUP4 PUSH2 0x4820 JUMP JUMPDEST PUSH1 0x0 DUP1 JUMPDEST DUP4 MLOAD DUP2 LT ISZERO PUSH2 0x4128 JUMPI DUP3 PUSH1 0x1 PUSH1 0x1 PUSH1 0xA0 SHL SUB AND DUP5 DUP3 DUP2 MLOAD DUP2 LT PUSH2 0x40F9 JUMPI PUSH2 0x40F9 PUSH2 0x5263 JUMP JUMPDEST PUSH1 0x20 MUL PUSH1 0x20 ADD ADD MLOAD PUSH1 0x1 PUSH1 0x1 PUSH1 0xA0 SHL SUB AND SUB PUSH2 0x4116 JUMPI SWAP1 POP PUSH2 0xF0D JUMP JUMPDEST DUP1 PUSH2 0x4120 DUP2 PUSH2 0x528F JUMP JUMPDEST SWAP2 POP POP PUSH2 0x40D4 JUMP JUMPDEST POP POP SWAP1 MLOAD SWAP2 SWAP1 POP JUMP JUMPDEST DUP2 SLOAD DUP2 LT PUSH2 0x4177 JUMPI PUSH1 0x40 MLOAD PUSH3 0x461BCD PUSH1 0xE5 SHL DUP2 MSTORE PUSH1 0x20 PUSH1 0x4 DUP3 ADD MSTORE PUSH1 0x13 PUSH1 0x24 DUP3 ADD MSTORE PUSH19 0x496E646578206F7574206F6620626F756E6473 PUSH1 0x68 SHL PUSH1 0x44 DUP3 ADD MSTORE PUSH1 0x64 ADD PUSH2 0xEE1 JUMP JUMPDEST DUP1 JUMPDEST DUP3 SLOAD PUSH2 0x4187 SWAP1 PUSH1 0x1 SWAP1 PUSH2 0x545D JUMP JUMPDEST DUP2 LT ISZERO PUSH2 0x4215 JUMPI DUP3 PUSH2 0x419A DUP3 PUSH1 0x1 PUSH2 0x5379 JUMP JUMPDEST DUP2 SLOAD DUP2 LT PUSH2 0x41AA JUMPI PUSH2 0x41AA PUSH2 0x5263 JUMP JUMPDEST SWAP1 PUSH1 0x0 MSTORE PUSH1 0x20 PUSH1 0x0 KECCAK256 ADD PUSH1 0x0 SWAP1 SLOAD SWAP1 PUSH2 0x100 EXP SWAP1 DIV PUSH1 0x1 PUSH1 0x1 PUSH1 0xA0 SHL SUB AND DUP4 DUP3 DUP2 SLOAD DUP2 LT PUSH2 0x41DA JUMPI PUSH2 0x41DA PUSH2 0x5263 JUMP JUMPDEST PUSH1 0x0 SWAP2 DUP3 MSTORE PUSH1 0x20 SWAP1 SWAP2 KECCAK256 ADD DUP1 SLOAD PUSH1 0x1 PUSH1 0x1 PUSH1 0xA0 SHL SUB NOT AND PUSH1 0x1 PUSH1 0x1 PUSH1 0xA0 SHL SUB SWAP3 SWAP1 SWAP3 AND SWAP2 SWAP1 SWAP2 OR SWAP1 SSTORE DUP1 PUSH2 0x420D DUP2 PUSH2 0x528F JUMP JUMPDEST SWAP2 POP POP PUSH2 0x4179 JUMP JUMPDEST POP DUP2 DUP1 SLOAD DUP1 PUSH2 0x4226 JUMPI PUSH2 0x4226 PUSH2 0x5666 JUMP JUMPDEST PUSH1 0x0 DUP3 DUP2 MSTORE PUSH1 0x20 SWAP1 KECCAK256 DUP2 ADD PUSH1 0x0 NOT SWAP1 DUP2 ADD DUP1 SLOAD PUSH1 0x1 PUSH1 0x1 PUSH1 0xA0 SHL SUB NOT AND SWAP1 SSTORE ADD SWAP1 SSTORE POP POP JUMP JUMPDEST PUSH2 0x4254 PUSH2 0x4900 JUMP JUMPDEST PUSH1 0x3 DUP1 SLOAD PUSH1 0xFF PUSH1 0xA0 SHL NOT AND SWAP1 SSTORE PUSH32 0x5DB9EE0A495BF2E6FF9C91A7834C1BA4FDD244A5E8AA4E537BD38AEAE4B073AA CALLER PUSH2 0x3EDA JUMP JUMPDEST DUP5 MLOAD DUP2 LT ISZERO PUSH2 0x4320 JUMPI DUP4 DUP2 DUP2 MLOAD DUP2 LT PUSH2 0x42A3 JUMPI PUSH2 0x42A3 PUSH2 0x5263 JUMP JUMPDEST PUSH1 0x20 MUL PUSH1 0x20 ADD ADD MLOAD PUSH1 0x0 DUP1 DUP8 DUP5 DUP2 MLOAD DUP2 LT PUSH2 0x42C0 JUMPI PUSH2 0x42C0 PUSH2 0x5263 JUMP JUMPDEST PUSH1 0x20 MUL PUSH1 0x20 ADD ADD MLOAD DUP2 MSTORE PUSH1 0x20 ADD SWAP1 DUP2 MSTORE PUSH1 0x20 ADD PUSH1 0x0 KECCAK256 PUSH1 0x0 DUP9 PUSH1 0x1 PUSH1 0x1 PUSH1 0xA0 SHL SUB AND PUSH1 0x1 PUSH1 0x1 PUSH1 0xA0 SHL SUB AND DUP2 MSTORE PUSH1 0x20 ADD SWAP1 DUP2 MSTORE PUSH1 0x20 ADD PUSH1 0x0 KECCAK256 PUSH1 0x0 DUP3 DUP3 SLOAD PUSH2 0x4308 SWAP2 SWAP1 PUSH2 0x5379 JUMP JUMPDEST SWAP1 SWAP2 SSTORE POP DUP2 SWAP1 POP PUSH2 0x4318 DUP2 PUSH2 0x528F JUMP JUMPDEST SWAP2 POP POP PUSH2 0x4288 JUMP JUMPDEST POP DUP5 PUSH1 0x1 PUSH1 0x1 PUSH1 0xA0 SHL SUB AND PUSH1 0x0 PUSH1 0x1 PUSH1 0x1 PUSH1 0xA0 SHL SUB AND DUP3 PUSH1 0x1 PUSH1 0x1 PUSH1 0xA0 SHL SUB AND PUSH32 0x4A39DC06D4C0DBC64B70AF90FD698A233A518AA5D07E595D983B8C0526C8F7FB DUP8 DUP8 PUSH1 0x40 MLOAD PUSH2 0x4371 SWAP3 SWAP2 SWAP1 PUSH2 0x57E1 JUMP JUMPDEST PUSH1 0x40 MLOAD DUP1 SWAP2 SUB SWAP1 LOG4 PUSH2 0x13AD DUP2 PUSH1 0x0 DUP8 DUP8 DUP8 DUP8 PUSH2 0x4950 JUMP JUMPDEST PUSH1 0x1 PUSH1 0x1 PUSH1 0xA0 SHL SUB DUP6 AND CALLER EQ DUP1 PUSH2 0x43A4 JUMPI POP PUSH2 0x43A4 DUP6 CALLER PUSH2 0xDCC JUMP JUMPDEST PUSH2 0x43C0 JUMPI PUSH1 0x40 MLOAD PUSH3 0x461BCD PUSH1 0xE5 SHL DUP2 MSTORE PUSH1 0x4 ADD PUSH2 0xEE1 SWAP1 PUSH2 0x5793 JUMP JUMPDEST PUSH2 0x13AD DUP6 DUP6 DUP6 DUP6 DUP6 PUSH2 0x4A0B JUMP JUMPDEST PUSH1 0x0 DUP1 PUSH19 0x184F03E93FF9F4DAA797ED6E38ED64BF6A1F01 PUSH1 0x40 SHL DUP4 LT PUSH2 0x440C JUMPI PUSH19 0x184F03E93FF9F4DAA797ED6E38ED64BF6A1F01 PUSH1 0x40 SHL DUP4 DIV SWAP3 POP PUSH1 0x40 ADD JUMPDEST PUSH14 0x4EE2D6D415B85ACEF8100000000 DUP4 LT PUSH2 0x4438 JUMPI PUSH14 0x4EE2D6D415B85ACEF8100000000 DUP4 DIV SWAP3 POP PUSH1 0x20 ADD JUMPDEST PUSH7 0x2386F26FC10000 DUP4 LT PUSH2 0x4456 JUMPI PUSH7 0x2386F26FC10000 DUP4 DIV SWAP3 POP PUSH1 0x10 ADD JUMPDEST PUSH4 0x5F5E100 DUP4 LT PUSH2 0x446E JUMPI PUSH4 0x5F5E100 DUP4 DIV SWAP3 POP PUSH1 0x8 ADD JUMPDEST PUSH2 0x2710 DUP4 LT PUSH2 0x4482 JUMPI PUSH2 0x2710 DUP4 DIV SWAP3 POP PUSH1 0x4 ADD JUMPDEST PUSH1 0x64 DUP4 LT PUSH2 0x4494 JUMPI PUSH1 0x64 DUP4 DIV SWAP3 POP PUSH1 0x2 ADD JUMPDEST PUSH1 0xA DUP4 LT PUSH2 0xF0D JUMPI PUSH1 0x1 ADD SWAP3 SWAP2 POP POP JUMP JUMPDEST PUSH1 0x40 DUP1 MLOAD PUSH1 0x1 DUP1 DUP3 MSTORE DUP2 DUP4 ADD SWAP1 SWAP3 MSTORE PUSH1 0x60 SWAP2 PUSH1 0x0 SWAP2 SWAP1 PUSH1 0x20 DUP1 DUP4 ADD SWAP1 DUP1 CALLDATASIZE DUP4 CALLDATACOPY ADD SWAP1 POP POP SWAP1 POP DUP3 DUP2 PUSH1 0x0 DUP2 MLOAD DUP2 LT PUSH2 0x44DF JUMPI PUSH2 0x44DF PUSH2 0x5263 JUMP JUMPDEST PUSH1 0x20 SWAP1 DUP2 MUL SWAP2 SWAP1 SWAP2 ADD ADD MSTORE SWAP3 SWAP2 POP POP JUMP JUMPDEST PUSH1 0x1 PUSH1 0x1 PUSH1 0xA0 SHL SUB DUP5 AND EXTCODESIZE ISZERO PUSH2 0x3C78 JUMPI PUSH1 0x40 MLOAD PUSH4 0xF23A6E61 PUSH1 0xE0 SHL DUP2 MSTORE PUSH1 0x1 PUSH1 0x1 PUSH1 0xA0 SHL SUB DUP6 AND SWAP1 PUSH4 0xF23A6E61 SWAP1 PUSH2 0x4534 SWAP1 DUP10 SWAP1 DUP10 SWAP1 DUP9 SWAP1 DUP9 SWAP1 DUP9 SWAP1 PUSH1 0x4 ADD PUSH2 0x5806 JUMP JUMPDEST PUSH1 0x20 PUSH1 0x40 MLOAD DUP1 DUP4 SUB DUP2 PUSH1 0x0 DUP8 GAS CALL SWAP3 POP POP POP DUP1 ISZERO PUSH2 0x456F JUMPI POP PUSH1 0x40 DUP1 MLOAD PUSH1 0x1F RETURNDATASIZE SWAP1 DUP2 ADD PUSH1 0x1F NOT AND DUP3 ADD SWAP1 SWAP3 MSTORE PUSH2 0x456C SWAP2 DUP2 ADD SWAP1 PUSH2 0x584B JUMP JUMPDEST PUSH1 0x1 JUMPDEST PUSH2 0x461B JUMPI PUSH2 0x457B PUSH2 0x5868 JUMP JUMPDEST DUP1 PUSH4 0x8C379A0 SUB PUSH2 0x45B4 JUMPI POP PUSH2 0x458F PUSH2 0x5884 JUMP JUMPDEST DUP1 PUSH2 0x459A JUMPI POP PUSH2 0x45B6 JUMP JUMPDEST DUP1 PUSH1 0x40 MLOAD PUSH3 0x461BCD PUSH1 0xE5 SHL DUP2 MSTORE PUSH1 0x4 ADD PUSH2 0xEE1 SWAP2 SWAP1 PUSH2 0x4C00 JUMP JUMPDEST POP JUMPDEST PUSH1 0x40 MLOAD PUSH3 0x461BCD PUSH1 0xE5 SHL DUP2 MSTORE PUSH1 0x20 PUSH1 0x4 DUP3 ADD MSTORE PUSH1 0x34 PUSH1 0x24 DUP3 ADD MSTORE PUSH32 0x455243313135353A207472616E7366657220746F206E6F6E2D45524331313535 PUSH1 0x44 DUP3 ADD MSTORE PUSH20 0x2932B1B2B4BB32B91034B6B83632B6B2B73A32B9 PUSH1 0x61 SHL PUSH1 0x64 DUP3 ADD MSTORE PUSH1 0x84 ADD PUSH2 0xEE1 JUMP JUMPDEST PUSH1 0x1 PUSH1 0x1 PUSH1 0xE0 SHL SUB NOT DUP2 AND PUSH4 0xF23A6E61 PUSH1 0xE0 SHL EQ PUSH2 0x3B47 JUMPI PUSH1 0x40 MLOAD PUSH3 0x461BCD PUSH1 0xE5 SHL DUP2 MSTORE PUSH1 0x4 ADD PUSH2 0xEE1 SWAP1 PUSH2 0x590D JUMP JUMPDEST DUP2 MLOAD DUP4 MLOAD EQ PUSH2 0x46AD JUMPI PUSH1 0x40 MLOAD PUSH3 0x461BCD PUSH1 0xE5 SHL DUP2 MSTORE PUSH1 0x20 PUSH1 0x4 DUP3 ADD MSTORE PUSH1 0x28 PUSH1 0x24 DUP3 ADD MSTORE PUSH32 0x455243313135353A2069647320616E6420616D6F756E7473206C656E67746820 PUSH1 0x44 DUP3 ADD MSTORE PUSH8 0xDAD2E6DAC2E8C6D PUSH1 0xC3 SHL PUSH1 0x64 DUP3 ADD MSTORE PUSH1 0x84 ADD PUSH2 0xEE1 JUMP JUMPDEST PUSH1 0x1 PUSH1 0x1 PUSH1 0xA0 SHL SUB DUP5 AND PUSH2 0x46D3 JUMPI PUSH1 0x40 MLOAD PUSH3 0x461BCD PUSH1 0xE5 SHL DUP2 MSTORE PUSH1 0x4 ADD PUSH2 0xEE1 SWAP1 PUSH2 0x5955 JUMP JUMPDEST CALLER PUSH1 0x0 JUMPDEST DUP5 MLOAD DUP2 LT ISZERO PUSH2 0x47BA JUMPI PUSH1 0x0 DUP6 DUP3 DUP2 MLOAD DUP2 LT PUSH2 0x46F4 JUMPI PUSH2 0x46F4 PUSH2 0x5263 JUMP JUMPDEST PUSH1 0x20 MUL PUSH1 0x20 ADD ADD MLOAD SWAP1 POP PUSH1 0x0 DUP6 DUP4 DUP2 MLOAD DUP2 LT PUSH2 0x4712 JUMPI PUSH2 0x4712 PUSH2 0x5263 JUMP JUMPDEST PUSH1 0x20 SWAP1 DUP2 MUL SWAP2 SWAP1 SWAP2 ADD DUP2 ADD MLOAD PUSH1 0x0 DUP5 DUP2 MSTORE DUP1 DUP4 MSTORE PUSH1 0x40 DUP1 DUP3 KECCAK256 PUSH1 0x1 PUSH1 0x1 PUSH1 0xA0 SHL SUB DUP15 AND DUP4 MSTORE SWAP1 SWAP4 MSTORE SWAP2 SWAP1 SWAP2 KECCAK256 SLOAD SWAP1 SWAP2 POP DUP2 DUP2 LT ISZERO PUSH2 0x4762 JUMPI PUSH1 0x40 MLOAD PUSH3 0x461BCD PUSH1 0xE5 SHL DUP2 MSTORE PUSH1 0x4 ADD PUSH2 0xEE1 SWAP1 PUSH2 0x599A JUMP JUMPDEST PUSH1 0x0 DUP4 DUP2 MSTORE PUSH1 0x20 DUP2 DUP2 MSTORE PUSH1 0x40 DUP1 DUP4 KECCAK256 PUSH1 0x1 PUSH1 0x1 PUSH1 0xA0 SHL SUB DUP15 DUP2 AND DUP6 MSTORE SWAP3 MSTORE DUP1 DUP4 KECCAK256 DUP6 DUP6 SUB SWAP1 SSTORE SWAP1 DUP12 AND DUP3 MSTORE DUP2 KECCAK256 DUP1 SLOAD DUP5 SWAP3 SWAP1 PUSH2 0x479F SWAP1 DUP5 SWAP1 PUSH2 0x5379 JUMP JUMPDEST SWAP3 POP POP DUP2 SWAP1 SSTORE POP POP POP POP DUP1 PUSH2 0x47B3 SWAP1 PUSH2 0x528F JUMP JUMPDEST SWAP1 POP PUSH2 0x46D7 JUMP JUMPDEST POP DUP5 PUSH1 0x1 PUSH1 0x1 PUSH1 0xA0 SHL SUB AND DUP7 PUSH1 0x1 PUSH1 0x1 PUSH1 0xA0 SHL SUB AND DUP3 PUSH1 0x1 PUSH1 0x1 PUSH1 0xA0 SHL SUB AND PUSH32 0x4A39DC06D4C0DBC64B70AF90FD698A233A518AA5D07E595D983B8C0526C8F7FB DUP8 DUP8 PUSH1 0x40 MLOAD PUSH2 0x480A SWAP3 SWAP2 SWAP1 PUSH2 0x57E1 JUMP JUMPDEST PUSH1 0x40 MLOAD DUP1 SWAP2 SUB SWAP1 LOG4 PUSH2 0x3C78 DUP2 DUP8 DUP8 DUP8 DUP8 DUP8 PUSH2 0x4950 JUMP JUMPDEST DUP2 PUSH1 0x1 PUSH1 0x1 PUSH1 0xA0 SHL SUB AND DUP4 PUSH1 0x1 PUSH1 0x1 PUSH1 0xA0 SHL SUB AND SUB PUSH2 0x4893 JUMPI PUSH1 0x40 MLOAD PUSH3 0x461BCD PUSH1 0xE5 SHL DUP2 MSTORE PUSH1 0x20 PUSH1 0x4 DUP3 ADD MSTORE PUSH1 0x29 PUSH1 0x24 DUP3 ADD MSTORE PUSH32 0x455243313135353A2073657474696E6720617070726F76616C20737461747573 PUSH1 0x44 DUP3 ADD MSTORE PUSH9 0x103337B91039B2B633 PUSH1 0xB9 SHL PUSH1 0x64 DUP3 ADD MSTORE PUSH1 0x84 ADD PUSH2 0xEE1 JUMP JUMPDEST PUSH1 0x1 PUSH1 0x1 PUSH1 0xA0 SHL SUB DUP4 DUP2 AND PUSH1 0x0 DUP2 DUP2 MSTORE PUSH1 0x1 PUSH1 0x20 SWAP1 DUP2 MSTORE PUSH1 0x40 DUP1 DUP4 KECCAK256 SWAP5 DUP8 AND DUP1 DUP5 MSTORE SWAP5 DUP3 MSTORE SWAP2 DUP3 SWAP1 KECCAK256 DUP1 SLOAD PUSH1 0xFF NOT AND DUP7 ISZERO ISZERO SWAP1 DUP2 OR SWAP1 SWAP2 SSTORE SWAP2 MLOAD SWAP2 DUP3 MSTORE PUSH32 0x17307EAB39AB6107E8899845AD3D59BD9653F200F220920489CA2B5937696C31 SWAP2 ADD PUSH1 0x40 MLOAD DUP1 SWAP2 SUB SWAP1 LOG3 POP POP POP JUMP JUMPDEST PUSH1 0x3 SLOAD PUSH1 0x1 PUSH1 0xA0 SHL SWAP1 DIV PUSH1 0xFF AND PUSH2 0x285E JUMPI PUSH1 0x40 MLOAD PUSH3 0x461BCD PUSH1 0xE5 SHL DUP2 MSTORE PUSH1 0x20 PUSH1 0x4 DUP3 ADD MSTORE PUSH1 0x14 PUSH1 0x24 DUP3 ADD MSTORE PUSH20 0x14185D5CD8589B194E881B9BDD081C185D5CD959 PUSH1 0x62 SHL PUSH1 0x44 DUP3 ADD MSTORE PUSH1 0x64 ADD PUSH2 0xEE1 JUMP JUMPDEST PUSH1 0x1 PUSH1 0x1 PUSH1 0xA0 SHL SUB DUP5 AND EXTCODESIZE ISZERO PUSH2 0x3C78 JUMPI PUSH1 0x40 MLOAD PUSH4 0xBC197C81 PUSH1 0xE0 SHL DUP2 MSTORE PUSH1 0x1 PUSH1 0x1 PUSH1 0xA0 SHL SUB DUP6 AND SWAP1 PUSH4 0xBC197C81 SWAP1 PUSH2 0x4994 SWAP1 DUP10 SWAP1 DUP10 SWAP1 DUP9 SWAP1 DUP9 SWAP1 DUP9 SWAP1 PUSH1 0x4 ADD PUSH2 0x59E4 JUMP JUMPDEST PUSH1 0x20 PUSH1 0x40 MLOAD DUP1 DUP4 SUB DUP2 PUSH1 0x0 DUP8 GAS CALL SWAP3 POP POP POP DUP1 ISZERO PUSH2 0x49CF JUMPI POP PUSH1 0x40 DUP1 MLOAD PUSH1 0x1F RETURNDATASIZE SWAP1 DUP2 ADD PUSH1 0x1F NOT AND DUP3 ADD SWAP1 SWAP3 MSTORE PUSH2 0x49CC SWAP2 DUP2 ADD SWAP1 PUSH2 0x584B JUMP JUMPDEST PUSH1 0x1 JUMPDEST PUSH2 0x49DB JUMPI PUSH2 0x457B PUSH2 0x5868 JUMP JUMPDEST PUSH1 0x1 PUSH1 0x1 PUSH1 0xE0 SHL SUB NOT DUP2 AND PUSH4 0xBC197C81 PUSH1 0xE0 SHL EQ PUSH2 0x3B47 JUMPI PUSH1 0x40 MLOAD PUSH3 0x461BCD PUSH1 0xE5 SHL DUP2 MSTORE PUSH1 0x4 ADD PUSH2 0xEE1 SWAP1 PUSH2 0x590D JUMP JUMPDEST PUSH1 0x1 PUSH1 0x1 PUSH1 0xA0 SHL SUB DUP5 AND PUSH2 0x4A31 JUMPI PUSH1 0x40 MLOAD PUSH3 0x461BCD PUSH1 0xE5 SHL DUP2 MSTORE PUSH1 0x4 ADD PUSH2 0xEE1 SWAP1 PUSH2 0x5955 JUMP JUMPDEST CALLER PUSH1 0x0 PUSH2 0x4A3D DUP6 PUSH2 0x44A5 JUMP JUMPDEST SWAP1 POP PUSH1 0x0 PUSH2 0x4A4A DUP6 PUSH2 0x44A5 JUMP JUMPDEST SWAP1 POP PUSH1 0x0 DUP7 DUP2 MSTORE PUSH1 0x20 DUP2 DUP2 MSTORE PUSH1 0x40 DUP1 DUP4 KECCAK256 PUSH1 0x1 PUSH1 0x1 PUSH1 0xA0 SHL SUB DUP13 AND DUP5 MSTORE SWAP1 SWAP2 MSTORE SWAP1 KECCAK256 SLOAD DUP6 DUP2 LT ISZERO PUSH2 0x4A8D JUMPI PUSH1 0x40 MLOAD PUSH3 0x461BCD PUSH1 0xE5 SHL DUP2 MSTORE PUSH1 0x4 ADD PUSH2 0xEE1 SWAP1 PUSH2 0x599A JUMP JUMPDEST PUSH1 0x0 DUP8 DUP2 MSTORE PUSH1 0x20 DUP2 DUP2 MSTORE PUSH1 0x40 DUP1 DUP4 KECCAK256 PUSH1 0x1 PUSH1 0x1 PUSH1 0xA0 SHL SUB DUP14 DUP2 AND DUP6 MSTORE SWAP3 MSTORE DUP1 DUP4 KECCAK256 DUP10 DUP6 SUB SWAP1 SSTORE SWAP1 DUP11 AND DUP3 MSTORE DUP2 KECCAK256 DUP1 SLOAD DUP9 SWAP3 SWAP1 PUSH2 0x4ACA SWAP1 DUP5 SWAP1 PUSH2 0x5379 JUMP JUMPDEST SWAP1 SWAP2 SSTORE POP POP PUSH1 0x40 DUP1 MLOAD DUP9 DUP2 MSTORE PUSH1 0x20 DUP2 ADD DUP9 SWAP1 MSTORE PUSH1 0x1 PUSH1 0x1 PUSH1 0xA0 SHL SUB DUP1 DUP12 AND SWAP3 DUP13 DUP3 AND SWAP3 SWAP2 DUP9 AND SWAP2 PUSH32 0xC3D58168C5AE7397731D063D5BBF3D657854427343F4C083240F7AACAA2D0F62 SWAP2 ADD PUSH1 0x40 MLOAD DUP1 SWAP2 SUB SWAP1 LOG4 PUSH2 0x4B2A DUP5 DUP11 DUP11 DUP11 DUP11 DUP11 PUSH2 0x44F0 JUMP JUMPDEST POP POP POP POP POP POP POP POP POP JUMP JUMPDEST PUSH1 0x1 PUSH1 0x1 PUSH1 0xA0 SHL SUB DUP2 AND DUP2 EQ PUSH2 0x26A6 JUMPI PUSH1 0x0 DUP1 REVERT JUMPDEST PUSH1 0x0 DUP1 PUSH1 0x40 DUP4 DUP6 SUB SLT ISZERO PUSH2 0x4B5D JUMPI PUSH1 0x0 DUP1 REVERT JUMPDEST DUP3 CALLDATALOAD PUSH2 0x4B68 DUP2 PUSH2 0x4B35 JUMP JUMPDEST SWAP5 PUSH1 0x20 SWAP4 SWAP1 SWAP4 ADD CALLDATALOAD SWAP4 POP POP POP JUMP JUMPDEST PUSH1 0x1 PUSH1 0x1 PUSH1 0xE0 SHL SUB NOT DUP2 AND DUP2 EQ PUSH2 0x26A6 JUMPI PUSH1 0x0 DUP1 REVERT JUMPDEST PUSH1 0x0 PUSH1 0x20 DUP3 DUP5 SUB SLT ISZERO PUSH2 0x4B9E JUMPI PUSH1 0x0 DUP1 REVERT JUMPDEST DUP2 CALLDATALOAD PUSH2 0x4BA9 DUP2 PUSH2 0x4B76 JUMP JUMPDEST SWAP4 SWAP3 POP POP POP JUMP JUMPDEST PUSH1 0x0 JUMPDEST DUP4 DUP2 LT ISZERO PUSH2 0x4BCB JUMPI DUP2 DUP2 ADD MLOAD DUP4 DUP3 ADD MSTORE PUSH1 0x20 ADD PUSH2 0x4BB3 JUMP JUMPDEST POP POP PUSH1 0x0 SWAP2 ADD MSTORE JUMP JUMPDEST PUSH1 0x0 DUP2 MLOAD DUP1 DUP5 MSTORE PUSH2 0x4BEC DUP2 PUSH1 0x20 DUP7 ADD PUSH1 0x20 DUP7 ADD PUSH2 0x4BB0 JUMP JUMPDEST PUSH1 0x1F ADD PUSH1 0x1F NOT AND SWAP3 SWAP1 SWAP3 ADD PUSH1 0x20 ADD SWAP3 SWAP2 POP POP JUMP JUMPDEST PUSH1 0x20 DUP2 MSTORE PUSH1 0x0 PUSH2 0x4BA9 PUSH1 0x20 DUP4 ADD DUP5 PUSH2 0x4BD4 JUMP JUMPDEST PUSH4 0x4E487B71 PUSH1 0xE0 SHL PUSH1 0x0 MSTORE PUSH1 0x41 PUSH1 0x4 MSTORE PUSH1 0x24 PUSH1 0x0 REVERT JUMPDEST PUSH1 0x1F DUP3 ADD PUSH1 0x1F NOT AND DUP2 ADD PUSH1 0x1 PUSH1 0x1 PUSH1 0x40 SHL SUB DUP2 GT DUP3 DUP3 LT OR ISZERO PUSH2 0x4C4E JUMPI PUSH2 0x4C4E PUSH2 0x4C13 JUMP JUMPDEST PUSH1 0x40 MSTORE POP POP JUMP JUMPDEST PUSH1 0x0 PUSH1 0x1 PUSH1 0x1 PUSH1 0x40 SHL SUB DUP3 GT ISZERO PUSH2 0x4C6E JUMPI PUSH2 0x4C6E PUSH2 0x4C13 JUMP JUMPDEST POP PUSH1 0x5 SHL PUSH1 0x20 ADD SWAP1 JUMP JUMPDEST PUSH1 0x0 DUP3 PUSH1 0x1F DUP4 ADD SLT PUSH2 0x4C89 JUMPI PUSH1 0x0 DUP1 REVERT JUMPDEST DUP2 CALLDATALOAD PUSH1 0x20 PUSH2 0x4C96 DUP3 PUSH2 0x4C55 JUMP JUMPDEST PUSH1 0x40 MLOAD PUSH2 0x4CA3 DUP3 DUP3 PUSH2 0x4C29 JUMP JUMPDEST DUP4 DUP2 MSTORE PUSH1 0x5 SWAP4 SWAP1 SWAP4 SHL DUP6 ADD DUP3 ADD SWAP3 DUP3 DUP2 ADD SWAP2 POP DUP7 DUP5 GT ISZERO PUSH2 0x4CC3 JUMPI PUSH1 0x0 DUP1 REVERT JUMPDEST DUP3 DUP7 ADD JUMPDEST DUP5 DUP2 LT ISZERO PUSH2 0x4CE7 JUMPI DUP1 CALLDATALOAD PUSH2 0x4CDA DUP2 PUSH2 0x4B35 JUMP JUMPDEST DUP4 MSTORE SWAP2 DUP4 ADD SWAP2 DUP4 ADD PUSH2 0x4CC7 JUMP JUMPDEST POP SWAP7 SWAP6 POP POP POP POP POP POP JUMP JUMPDEST PUSH1 0x0 PUSH1 0x20 DUP3 DUP5 SUB SLT ISZERO PUSH2 0x4D04 JUMPI PUSH1 0x0 DUP1 REVERT JUMPDEST DUP2 CALLDATALOAD PUSH1 0x1 PUSH1 0x1 PUSH1 0x40 SHL SUB DUP2 GT ISZERO PUSH2 0x4D1A JUMPI PUSH1 0x0 DUP1 REVERT JUMPDEST PUSH2 0x4D26 DUP5 DUP3 DUP6 ADD PUSH2 0x4C78 JUMP JUMPDEST SWAP5 SWAP4 POP POP POP POP JUMP JUMPDEST PUSH1 0x0 PUSH1 0x20 DUP3 DUP5 SUB SLT ISZERO PUSH2 0x4D40 JUMPI PUSH1 0x0 DUP1 REVERT JUMPDEST POP CALLDATALOAD SWAP2 SWAP1 POP JUMP JUMPDEST PUSH1 0x0 DUP1 PUSH1 0x0 PUSH1 0x60 DUP5 DUP7 SUB SLT ISZERO PUSH2 0x4D5C JUMPI PUSH1 0x0 DUP1 REVERT JUMPDEST POP POP DUP2 CALLDATALOAD SWAP4 PUSH1 0x20 DUP4 ADD CALLDATALOAD SWAP4 POP PUSH1 0x40 SWAP1 SWAP3 ADD CALLDATALOAD SWAP2 SWAP1 POP JUMP JUMPDEST PUSH1 0x0 PUSH1 0x20 DUP3 DUP5 SUB SLT ISZERO PUSH2 0x4D85 JUMPI PUSH1 0x0 DUP1 REVERT JUMPDEST DUP2 CALLDATALOAD PUSH2 0x4BA9 DUP2 PUSH2 0x4B35 JUMP JUMPDEST PUSH1 0x0 DUP3 PUSH1 0x1F DUP4 ADD SLT PUSH2 0x4DA1 JUMPI PUSH1 0x0 DUP1 REVERT JUMPDEST DUP2 CALLDATALOAD PUSH1 0x20 PUSH2 0x4DAE DUP3 PUSH2 0x4C55 JUMP JUMPDEST PUSH1 0x40 MLOAD PUSH2 0x4DBB DUP3 DUP3 PUSH2 0x4C29 JUMP JUMPDEST DUP4 DUP2 MSTORE PUSH1 0x5 SWAP4 SWAP1 SWAP4 SHL DUP6 ADD DUP3 ADD SWAP3 DUP3 DUP2 ADD SWAP2 POP DUP7 DUP5 GT ISZERO PUSH2 0x4DDB JUMPI PUSH1 0x0 DUP1 REVERT JUMPDEST DUP3 DUP7 ADD JUMPDEST DUP5 DUP2 LT ISZERO PUSH2 0x4CE7 JUMPI DUP1 CALLDATALOAD DUP4 MSTORE SWAP2 DUP4 ADD SWAP2 DUP4 ADD PUSH2 0x4DDF JUMP JUMPDEST PUSH1 0x0 PUSH1 0x1 PUSH1 0x1 PUSH1 0x40 SHL SUB DUP3 GT ISZERO PUSH2 0x4E0F JUMPI PUSH2 0x4E0F PUSH2 0x4C13 JUMP JUMPDEST POP PUSH1 0x1F ADD PUSH1 0x1F NOT AND PUSH1 0x20 ADD SWAP1 JUMP JUMPDEST PUSH1 0x0 PUSH2 0x4E28 DUP4 PUSH2 0x4DF6 JUMP JUMPDEST PUSH1 0x40 MLOAD PUSH2 0x4E35 DUP3 DUP3 PUSH2 0x4C29 JUMP JUMPDEST DUP1 SWAP3 POP DUP5 DUP2 MSTORE DUP6 DUP6 DUP6 ADD GT ISZERO PUSH2 0x4E4A JUMPI PUSH1 0x0 DUP1 REVERT JUMPDEST DUP5 DUP5 PUSH1 0x20 DUP4 ADD CALLDATACOPY PUSH1 0x0 PUSH1 0x20 DUP7 DUP4 ADD ADD MSTORE POP POP SWAP4 SWAP3 POP POP POP JUMP JUMPDEST PUSH1 0x0 DUP3 PUSH1 0x1F DUP4 ADD SLT PUSH2 0x4E74 JUMPI PUSH1 0x0 DUP1 REVERT JUMPDEST PUSH2 0x4BA9 DUP4 DUP4 CALLDATALOAD PUSH1 0x20 DUP6 ADD PUSH2 0x4E1D JUMP JUMPDEST PUSH1 0x0 DUP1 PUSH1 0x0 DUP1 PUSH1 0x0 PUSH1 0xA0 DUP7 DUP9 SUB SLT ISZERO PUSH2 0x4E9B JUMPI PUSH1 0x0 DUP1 REVERT JUMPDEST DUP6 CALLDATALOAD PUSH2 0x4EA6 DUP2 PUSH2 0x4B35 JUMP JUMPDEST SWAP5 POP PUSH1 0x20 DUP7 ADD CALLDATALOAD PUSH2 0x4EB6 DUP2 PUSH2 0x4B35 JUMP JUMPDEST SWAP4 POP PUSH1 0x40 DUP7 ADD CALLDATALOAD PUSH1 0x1 PUSH1 0x1 PUSH1 0x40 SHL SUB DUP1 DUP3 GT ISZERO PUSH2 0x4ED2 JUMPI PUSH1 0x0 DUP1 REVERT JUMPDEST PUSH2 0x4EDE DUP10 DUP4 DUP11 ADD PUSH2 0x4D90 JUMP JUMPDEST SWAP5 POP PUSH1 0x60 DUP9 ADD CALLDATALOAD SWAP2 POP DUP1 DUP3 GT ISZERO PUSH2 0x4EF4 JUMPI PUSH1 0x0 DUP1 REVERT JUMPDEST PUSH2 0x4F00 DUP10 DUP4 DUP11 ADD PUSH2 0x4D90 JUMP JUMPDEST SWAP4 POP PUSH1 0x80 DUP9 ADD CALLDATALOAD SWAP2 POP DUP1 DUP3 GT ISZERO PUSH2 0x4F16 JUMPI PUSH1 0x0 DUP1 REVERT JUMPDEST POP PUSH2 0x4F23 DUP9 DUP3 DUP10 ADD PUSH2 0x4E63 JUMP JUMPDEST SWAP2 POP POP SWAP3 SWAP6 POP SWAP3 SWAP6 SWAP1 SWAP4 POP JUMP JUMPDEST PUSH1 0x0 DUP1 PUSH1 0x40 DUP4 DUP6 SUB SLT ISZERO PUSH2 0x4F43 JUMPI PUSH1 0x0 DUP1 REVERT JUMPDEST DUP3 CALLDATALOAD PUSH1 0x1 PUSH1 0x1 PUSH1 0x40 SHL SUB DUP1 DUP3 GT ISZERO PUSH2 0x4F5A JUMPI PUSH1 0x0 DUP1 REVERT JUMPDEST PUSH2 0x4F66 DUP7 DUP4 DUP8 ADD PUSH2 0x4C78 JUMP JUMPDEST SWAP4 POP PUSH1 0x20 DUP6 ADD CALLDATALOAD SWAP2 POP DUP1 DUP3 GT ISZERO PUSH2 0x4F7C JUMPI PUSH1 0x0 DUP1 REVERT JUMPDEST POP PUSH2 0x4F89 DUP6 DUP3 DUP7 ADD PUSH2 0x4D90 JUMP JUMPDEST SWAP2 POP POP SWAP3 POP SWAP3 SWAP1 POP JUMP JUMPDEST PUSH1 0x0 DUP2 MLOAD DUP1 DUP5 MSTORE PUSH1 0x20 DUP1 DUP6 ADD SWAP5 POP DUP1 DUP5 ADD PUSH1 0x0 JUMPDEST DUP4 DUP2 LT ISZERO PUSH2 0x4FC3 JUMPI DUP2 MLOAD DUP8 MSTORE SWAP6 DUP3 ADD SWAP6 SWAP1 DUP3 ADD SWAP1 PUSH1 0x1 ADD PUSH2 0x4FA7 JUMP JUMPDEST POP SWAP5 SWAP6 SWAP5 POP POP POP POP POP JUMP JUMPDEST PUSH1 0x20 DUP2 MSTORE PUSH1 0x0 PUSH2 0x4BA9 PUSH1 0x20 DUP4 ADD DUP5 PUSH2 0x4F93 JUMP JUMPDEST PUSH1 0x0 PUSH1 0x20 DUP3 DUP5 SUB SLT ISZERO PUSH2 0x4FF3 JUMPI PUSH1 0x0 DUP1 REVERT JUMPDEST DUP2 CALLDATALOAD PUSH1 0x1 PUSH1 0x1 PUSH1 0x40 SHL SUB DUP2 GT ISZERO PUSH2 0x5009 JUMPI PUSH1 0x0 DUP1 REVERT JUMPDEST DUP3 ADD PUSH1 0x1F DUP2 ADD DUP5 SGT PUSH2 0x501A JUMPI PUSH1 0x0 DUP1 REVERT JUMPDEST PUSH2 0x4D26 DUP5 DUP3 CALLDATALOAD PUSH1 0x20 DUP5 ADD PUSH2 0x4E1D JUMP JUMPDEST PUSH1 0x0 DUP1 PUSH1 0x0 PUSH1 0x60 DUP5 DUP7 SUB SLT ISZERO PUSH2 0x503E JUMPI PUSH1 0x0 DUP1 REVERT JUMPDEST DUP4 CALLDATALOAD PUSH2 0x5049 DUP2 PUSH2 0x4B35 JUMP JUMPDEST SWAP6 PUSH1 0x20 DUP6 ADD CALLDATALOAD SWAP6 POP PUSH1 0x40 SWAP1 SWAP5 ADD CALLDATALOAD SWAP4 SWAP3 POP POP POP JUMP JUMPDEST DUP1 ISZERO ISZERO DUP2 EQ PUSH2 0x26A6 JUMPI PUSH1 0x0 DUP1 REVERT JUMPDEST PUSH1 0x0 PUSH1 0x20 DUP3 DUP5 SUB SLT ISZERO PUSH2 0x507E JUMPI PUSH1 0x0 DUP1 REVERT JUMPDEST DUP2 CALLDATALOAD PUSH2 0x4BA9 DUP2 PUSH2 0x505E JUMP JUMPDEST PUSH1 0x0 DUP1 PUSH1 0x40 DUP4 DUP6 SUB SLT ISZERO PUSH2 0x509C JUMPI PUSH1 0x0 DUP1 REVERT JUMPDEST DUP3 CALLDATALOAD PUSH2 0x50A7 DUP2 PUSH2 0x4B35 JUMP JUMPDEST SWAP2 POP PUSH1 0x20 DUP4 ADD CALLDATALOAD PUSH2 0x50B7 DUP2 PUSH2 0x505E JUMP JUMPDEST DUP1 SWAP2 POP POP SWAP3 POP SWAP3 SWAP1 POP JUMP JUMPDEST PUSH1 0x0 DUP1 PUSH1 0x20 DUP4 DUP6 SUB SLT ISZERO PUSH2 0x50D5 JUMPI PUSH1 0x0 DUP1 REVERT JUMPDEST DUP3 CALLDATALOAD PUSH1 0x1 PUSH1 0x1 PUSH1 0x40 SHL SUB DUP1 DUP3 GT ISZERO PUSH2 0x50EC JUMPI PUSH1 0x0 DUP1 REVERT JUMPDEST DUP2 DUP6 ADD SWAP2 POP DUP6 PUSH1 0x1F DUP4 ADD SLT PUSH2 0x5100 JUMPI PUSH1 0x0 DUP1 REVERT JUMPDEST DUP2 CALLDATALOAD DUP2 DUP2 GT ISZERO PUSH2 0x510F JUMPI PUSH1 0x0 DUP1 REVERT JUMPDEST DUP7 PUSH1 0x20 DUP3 PUSH1 0x5 SHL DUP6 ADD ADD GT ISZERO PUSH2 0x5124 JUMPI PUSH1 0x0 DUP1 REVERT JUMPDEST PUSH1 0x20 SWAP3 SWAP1 SWAP3 ADD SWAP7 SWAP2 SWAP6 POP SWAP1 SWAP4 POP POP POP POP JUMP JUMPDEST PUSH1 0x0 DUP1 PUSH1 0x40 DUP4 DUP6 SUB SLT ISZERO PUSH2 0x5149 JUMPI PUSH1 0x0 DUP1 REVERT JUMPDEST POP POP DUP1 CALLDATALOAD SWAP3 PUSH1 0x20 SWAP1 SWAP2 ADD CALLDATALOAD SWAP2 POP JUMP JUMPDEST PUSH1 0x0 DUP1 PUSH1 0x0 PUSH1 0x60 DUP5 DUP7 SUB SLT ISZERO PUSH2 0x516D JUMPI PUSH1 0x0 DUP1 REVERT JUMPDEST DUP4 CALLDATALOAD PUSH2 0x5178 DUP2 PUSH2 0x4B35 JUMP JUMPDEST SWAP3 POP PUSH1 0x20 DUP5 ADD CALLDATALOAD PUSH1 0x1 PUSH1 0x1 PUSH1 0x40 SHL SUB DUP1 DUP3 GT ISZERO PUSH2 0x5194 JUMPI PUSH1 0x0 DUP1 REVERT JUMPDEST PUSH2 0x51A0 DUP8 DUP4 DUP9 ADD PUSH2 0x4D90 JUMP JUMPDEST SWAP4 POP PUSH1 0x40 DUP7 ADD CALLDATALOAD SWAP2 POP DUP1 DUP3 GT ISZERO PUSH2 0x51B6 JUMPI PUSH1 0x0 DUP1 REVERT JUMPDEST POP PUSH2 0x51C3 DUP7 DUP3 DUP8 ADD PUSH2 0x4D90 JUMP JUMPDEST SWAP2 POP POP SWAP3 POP SWAP3 POP SWAP3 JUMP JUMPDEST PUSH1 0x0 DUP1 PUSH1 0x40 DUP4 DUP6 SUB SLT ISZERO PUSH2 0x51E0 JUMPI PUSH1 0x0 DUP1 REVERT JUMPDEST DUP3 CALLDATALOAD PUSH2 0x51EB DUP2 PUSH2 0x4B35 JUMP JUMPDEST SWAP2 POP PUSH1 0x20 DUP4 ADD CALLDATALOAD PUSH2 0x50B7 DUP2 PUSH2 0x4B35 JUMP JUMPDEST PUSH1 0x0 DUP1 PUSH1 0x0 DUP1 PUSH1 0x0 PUSH1 0xA0 DUP7 DUP9 SUB SLT ISZERO PUSH2 0x5213 JUMPI PUSH1 0x0 DUP1 REVERT JUMPDEST DUP6 CALLDATALOAD PUSH2 0x521E DUP2 PUSH2 0x4B35 JUMP JUMPDEST SWAP5 POP PUSH1 0x20 DUP7 ADD CALLDATALOAD PUSH2 0x522E DUP2 PUSH2 0x4B35 JUMP JUMPDEST SWAP4 POP PUSH1 0x40 DUP7 ADD CALLDATALOAD SWAP3 POP PUSH1 0x60 DUP7 ADD CALLDATALOAD SWAP2 POP PUSH1 0x80 DUP7 ADD CALLDATALOAD PUSH1 0x1 PUSH1 0x1 PUSH1 0x40 SHL SUB DUP2 GT ISZERO PUSH2 0x5257 JUMPI PUSH1 0x0 DUP1 REVERT JUMPDEST PUSH2 0x4F23 DUP9 DUP3 DUP10 ADD PUSH2 0x4E63 JUMP JUMPDEST PUSH4 0x4E487B71 PUSH1 0xE0 SHL PUSH1 0x0 MSTORE PUSH1 0x32 PUSH1 0x4 MSTORE PUSH1 0x24 PUSH1 0x0 REVERT JUMPDEST PUSH4 0x4E487B71 PUSH1 0xE0 SHL PUSH1 0x0 MSTORE PUSH1 0x11 PUSH1 0x4 MSTORE PUSH1 0x24 PUSH1 0x0 REVERT JUMPDEST PUSH1 0x0 PUSH1 0x1 DUP3 ADD PUSH2 0x52A1 JUMPI PUSH2 0x52A1 PUSH2 0x5279 JUMP JUMPDEST POP PUSH1 0x1 ADD SWAP1 JUMP JUMPDEST PUSH1 0x1 DUP2 DUP2 SHR SWAP1 DUP3 AND DUP1 PUSH2 0x52BC JUMPI PUSH1 0x7F DUP3 AND SWAP2 POP JUMPDEST PUSH1 0x20 DUP3 LT DUP2 SUB PUSH2 0x52DC JUMPI PUSH4 0x4E487B71 PUSH1 0xE0 SHL PUSH1 0x0 MSTORE PUSH1 0x22 PUSH1 0x4 MSTORE PUSH1 0x24 PUSH1 0x0 REVERT JUMPDEST POP SWAP2 SWAP1 POP JUMP JUMPDEST PUSH1 0x0 DUP1 DUP5 SLOAD PUSH2 0x52F0 DUP2 PUSH2 0x52A8 JUMP JUMPDEST PUSH1 0x1 DUP3 DUP2 AND DUP1 ISZERO PUSH2 0x5308 JUMPI PUSH1 0x1 DUP2 EQ PUSH2 0x531D JUMPI PUSH2 0x534C JUMP JUMPDEST PUSH1 0xFF NOT DUP5 AND DUP8 MSTORE DUP3 ISZERO ISZERO DUP4 MUL DUP8 ADD SWAP5 POP PUSH2 0x534C JUMP JUMPDEST DUP9 PUSH1 0x0 MSTORE PUSH1 0x20 DUP1 PUSH1 0x0 KECCAK256 PUSH1 0x0 JUMPDEST DUP6 DUP2 LT ISZERO PUSH2 0x5343 JUMPI DUP2 SLOAD DUP11 DUP3 ADD MSTORE SWAP1 DUP5 ADD SWAP1 DUP3 ADD PUSH2 0x532A JUMP JUMPDEST POP POP POP DUP3 DUP8 ADD SWAP5 POP JUMPDEST POP POP POP POP DUP4 MLOAD PUSH2 0x5360 DUP2 DUP4 PUSH1 0x20 DUP9 ADD PUSH2 0x4BB0 JUMP JUMPDEST PUSH5 0x173539B7B7 PUSH1 0xD9 SHL SWAP2 ADD SWAP1 DUP2 MSTORE PUSH1 0x5 ADD SWAP5 SWAP4 POP POP POP POP JUMP JUMPDEST DUP1 DUP3 ADD DUP1 DUP3 GT ISZERO PUSH2 0xF0D JUMPI PUSH2 0xF0D PUSH2 0x5279 JUMP JUMPDEST DUP1 DUP3 MUL DUP2 ISZERO DUP3 DUP3 DIV DUP5 EQ OR PUSH2 0xF0D JUMPI PUSH2 0xF0D PUSH2 0x5279 JUMP JUMPDEST PUSH1 0x0 DUP3 PUSH2 0x53C0 JUMPI PUSH4 0x4E487B71 PUSH1 0xE0 SHL PUSH1 0x0 MSTORE PUSH1 0x12 PUSH1 0x4 MSTORE PUSH1 0x24 PUSH1 0x0 REVERT JUMPDEST POP DIV SWAP1 JUMP JUMPDEST PUSH1 0x20 DUP1 DUP3 MSTORE PUSH1 0x25 SWAP1 DUP3 ADD MSTORE PUSH32 0x506C656173652073656E642074686520636F7272656374206E756D626572206F PUSH1 0x40 DUP3 ADD MSTORE PUSH5 0xCC408AA89 PUSH1 0xDB SHL PUSH1 0x60 DUP3 ADD MSTORE PUSH1 0x80 ADD SWAP1 JUMP JUMPDEST PUSH1 0x1 PUSH1 0x1 PUSH1 0xA0 SHL SUB SWAP3 SWAP1 SWAP3 AND DUP3 MSTORE PUSH1 0x20 DUP3 ADD MSTORE PUSH1 0x40 ADD SWAP1 JUMP JUMPDEST PUSH1 0x0 PUSH1 0x20 DUP3 DUP5 SUB SLT ISZERO PUSH2 0x5435 JUMPI PUSH1 0x0 DUP1 REVERT JUMPDEST DUP2 MLOAD PUSH2 0x4BA9 DUP2 PUSH2 0x505E JUMP JUMPDEST PUSH1 0x0 PUSH1 0x20 DUP3 DUP5 SUB SLT ISZERO PUSH2 0x5452 JUMPI PUSH1 0x0 DUP1 REVERT JUMPDEST DUP2 MLOAD PUSH2 0x4BA9 DUP2 PUSH2 0x4B35 JUMP JUMPDEST DUP2 DUP2 SUB DUP2 DUP2 GT ISZERO PUSH2 0xF0D JUMPI PUSH2 0xF0D PUSH2 0x5279 JUMP JUMPDEST PUSH1 0x20 DUP1 DUP3 MSTORE PUSH1 0x29 SWAP1 DUP3 ADD MSTORE PUSH32 0x466972654C6F636B3A205265656E7472616E637947756172643A207265656E74 PUSH1 0x40 DUP3 ADD MSTORE PUSH9 0x1C985B9D0818D85B1B PUSH1 0xBA SHL PUSH1 0x60 DUP3 ADD MSTORE PUSH1 0x80 ADD SWAP1 JUMP JUMPDEST PUSH1 0x20 DUP1 DUP3 MSTORE PUSH1 0x2B SWAP1 DUP3 ADD MSTORE PUSH32 0x46697265536565643A205468652066726F6D206F7220746F2061646472657373 PUSH1 0x40 DUP3 ADD MSTORE PUSH11 0x81A5CC81A5B9D985B1A59 PUSH1 0xAA SHL PUSH1 0x60 DUP3 ADD MSTORE PUSH1 0x80 ADD SWAP1 JUMP JUMPDEST PUSH1 0x20 DUP1 DUP3 MSTORE PUSH1 0x3D SWAP1 DUP3 ADD MSTORE PUSH32 0x46697265536565643A204F6E6C792074686520677561726469616E20636F6E74 PUSH1 0x40 DUP3 ADD MSTORE PUSH32 0x726163742063616E2073757370656E642074686520636F6E7472616374000000 PUSH1 0x60 DUP3 ADD MSTORE PUSH1 0x80 ADD SWAP1 JUMP JUMPDEST PUSH1 0x1F DUP3 GT ISZERO PUSH2 0x2F3D JUMPI PUSH1 0x0 DUP2 DUP2 MSTORE PUSH1 0x20 DUP2 KECCAK256 PUSH1 0x1F DUP6 ADD PUSH1 0x5 SHR DUP2 ADD PUSH1 0x20 DUP7 LT ISZERO PUSH2 0x5588 JUMPI POP DUP1 JUMPDEST PUSH1 0x1F DUP6 ADD PUSH1 0x5 SHR DUP3 ADD SWAP2 POP JUMPDEST DUP2 DUP2 LT ISZERO PUSH2 0x3C78 JUMPI DUP3 DUP2 SSTORE PUSH1 0x1 ADD PUSH2 0x5594 JUMP JUMPDEST DUP2 MLOAD PUSH1 0x1 PUSH1 0x1 PUSH1 0x40 SHL SUB DUP2 GT ISZERO PUSH2 0x55C0 JUMPI PUSH2 0x55C0 PUSH2 0x4C13 JUMP JUMPDEST PUSH2 0x55D4 DUP2 PUSH2 0x55CE DUP5 SLOAD PUSH2 0x52A8 JUMP JUMPDEST DUP5 PUSH2 0x5561 JUMP JUMPDEST PUSH1 0x20 DUP1 PUSH1 0x1F DUP4 GT PUSH1 0x1 DUP2 EQ PUSH2 0x5609 JUMPI PUSH1 0x0 DUP5 ISZERO PUSH2 0x55F1 JUMPI POP DUP6 DUP4 ADD MLOAD JUMPDEST PUSH1 0x0 NOT PUSH1 0x3 DUP7 SWAP1 SHL SHR NOT AND PUSH1 0x1 DUP6 SWAP1 SHL OR DUP6 SSTORE PUSH2 0x3C78 JUMP JUMPDEST PUSH1 0x0 DUP6 DUP2 MSTORE PUSH1 0x20 DUP2 KECCAK256 PUSH1 0x1F NOT DUP7 AND SWAP2 JUMPDEST DUP3 DUP2 LT ISZERO PUSH2 0x5638 JUMPI DUP9 DUP7 ADD MLOAD DUP3 SSTORE SWAP5 DUP5 ADD SWAP5 PUSH1 0x1 SWAP1 SWAP2 ADD SWAP1 DUP5 ADD PUSH2 0x5619 JUMP JUMPDEST POP DUP6 DUP3 LT ISZERO PUSH2 0x5656 JUMPI DUP8 DUP6 ADD MLOAD PUSH1 0x0 NOT PUSH1 0x3 DUP9 SWAP1 SHL PUSH1 0xF8 AND SHR NOT AND DUP2 SSTORE JUMPDEST POP POP POP POP POP PUSH1 0x1 SWAP1 DUP2 SHL ADD SWAP1 SSTORE POP JUMP JUMPDEST PUSH4 0x4E487B71 PUSH1 0xE0 SHL PUSH1 0x0 MSTORE PUSH1 0x31 PUSH1 0x4 MSTORE PUSH1 0x24 PUSH1 0x0 REVERT JUMPDEST PUSH1 0x0 DUP3 PUSH1 0x1F DUP4 ADD SLT PUSH2 0x568D JUMPI PUSH1 0x0 DUP1 REVERT JUMPDEST DUP2 MLOAD PUSH2 0x5698 DUP2 PUSH2 0x4DF6 JUMP JUMPDEST PUSH1 0x40 MLOAD PUSH2 0x56A5 DUP3 DUP3 PUSH2 0x4C29 JUMP JUMPDEST DUP3 DUP2 MSTORE DUP6 PUSH1 0x20 DUP5 DUP8 ADD ADD GT ISZERO PUSH2 0x56BA JUMPI PUSH1 0x0 DUP1 REVERT JUMPDEST PUSH2 0x56CB DUP4 PUSH1 0x20 DUP4 ADD PUSH1 0x20 DUP9 ADD PUSH2 0x4BB0 JUMP JUMPDEST SWAP6 SWAP5 POP POP POP POP POP JUMP JUMPDEST PUSH1 0x0 DUP1 PUSH1 0x0 DUP1 PUSH1 0x0 PUSH1 0xA0 DUP7 DUP9 SUB SLT ISZERO PUSH2 0x56EC JUMPI PUSH1 0x0 DUP1 REVERT JUMPDEST DUP6 MLOAD SWAP5 POP PUSH1 0x20 DUP7 ADD MLOAD PUSH2 0x56FE DUP2 PUSH2 0x4B35 JUMP JUMPDEST PUSH1 0x40 DUP8 ADD MLOAD SWAP1 SWAP5 POP PUSH1 0x1 PUSH1 0x1 PUSH1 0x40 SHL SUB DUP1 DUP3 GT ISZERO PUSH2 0x571B JUMPI PUSH1 0x0 DUP1 REVERT JUMPDEST PUSH2 0x5727 DUP10 DUP4 DUP11 ADD PUSH2 0x567C JUMP JUMPDEST SWAP5 POP PUSH1 0x60 DUP9 ADD MLOAD SWAP2 POP DUP1 DUP3 GT ISZERO PUSH2 0x573D JUMPI PUSH1 0x0 DUP1 REVERT JUMPDEST POP PUSH2 0x574A DUP9 DUP3 DUP10 ADD PUSH2 0x567C JUMP JUMPDEST SWAP3 POP POP PUSH1 0x80 DUP7 ADD MLOAD SWAP1 POP SWAP3 SWAP6 POP SWAP3 SWAP6 SWAP1 SWAP4 POP JUMP JUMPDEST PUSH1 0x0 PUSH1 0x20 DUP3 DUP5 SUB SLT ISZERO PUSH2 0x5770 JUMPI PUSH1 0x0 DUP1 REVERT JUMPDEST POP MLOAD SWAP2 SWAP1 POP JUMP JUMPDEST PUSH1 0x0 DUP3 MLOAD PUSH2 0x5789 DUP2 DUP5 PUSH1 0x20 DUP8 ADD PUSH2 0x4BB0 JUMP JUMPDEST SWAP2 SWAP1 SWAP2 ADD SWAP3 SWAP2 POP POP JUMP JUMPDEST PUSH1 0x20 DUP1 DUP3 MSTORE PUSH1 0x2E SWAP1 DUP3 ADD MSTORE PUSH32 0x455243313135353A2063616C6C6572206973206E6F7420746F6B656E206F776E PUSH1 0x40 DUP3 ADD MSTORE PUSH14 0x195C881BDC88185C1C1C9BDD9959 PUSH1 0x92 SHL PUSH1 0x60 DUP3 ADD MSTORE PUSH1 0x80 ADD SWAP1 JUMP JUMPDEST PUSH1 0x40 DUP2 MSTORE PUSH1 0x0 PUSH2 0x57F4 PUSH1 0x40 DUP4 ADD DUP6 PUSH2 0x4F93 JUMP JUMPDEST DUP3 DUP2 SUB PUSH1 0x20 DUP5 ADD MSTORE PUSH2 0x56CB DUP2 DUP6 PUSH2 0x4F93 JUMP JUMPDEST PUSH1 0x1 PUSH1 0x1 PUSH1 0xA0 SHL SUB DUP7 DUP2 AND DUP3 MSTORE DUP6 AND PUSH1 0x20 DUP3 ADD MSTORE PUSH1 0x40 DUP2 ADD DUP5 SWAP1 MSTORE PUSH1 0x60 DUP2 ADD DUP4 SWAP1 MSTORE PUSH1 0xA0 PUSH1 0x80 DUP3 ADD DUP2 SWAP1 MSTORE PUSH1 0x0 SWAP1 PUSH2 0x5840 SWAP1 DUP4 ADD DUP5 PUSH2 0x4BD4 JUMP JUMPDEST SWAP8 SWAP7 POP POP POP POP POP POP POP JUMP JUMPDEST PUSH1 0x0 PUSH1 0x20 DUP3 DUP5 SUB SLT ISZERO PUSH2 0x585D JUMPI PUSH1 0x0 DUP1 REVERT JUMPDEST DUP2 MLOAD PUSH2 0x4BA9 DUP2 PUSH2 0x4B76 JUMP JUMPDEST PUSH1 0x0 PUSH1 0x3 RETURNDATASIZE GT ISZERO PUSH2 0x5881 JUMPI PUSH1 0x4 PUSH1 0x0 DUP1 RETURNDATACOPY POP PUSH1 0x0 MLOAD PUSH1 0xE0 SHR JUMPDEST SWAP1 JUMP JUMPDEST PUSH1 0x0 PUSH1 0x44 RETURNDATASIZE LT ISZERO PUSH2 0x5892 JUMPI SWAP1 JUMP JUMPDEST PUSH1 0x40 MLOAD PUSH1 0x3 NOT RETURNDATASIZE DUP2 ADD PUSH1 0x4 DUP4 RETURNDATACOPY DUP2 MLOAD RETURNDATASIZE PUSH1 0x1 PUSH1 0x1 PUSH1 0x40 SHL SUB DUP2 PUSH1 0x24 DUP5 ADD GT DUP2 DUP5 GT OR ISZERO PUSH2 0x58C1 JUMPI POP POP POP POP POP SWAP1 JUMP JUMPDEST DUP3 DUP6 ADD SWAP2 POP DUP2 MLOAD DUP2 DUP2 GT ISZERO PUSH2 0x58D9 JUMPI POP POP POP POP POP POP SWAP1 JUMP JUMPDEST DUP5 RETURNDATASIZE DUP8 ADD ADD PUSH1 0x20 DUP3 DUP6 ADD ADD GT ISZERO PUSH2 0x58F3 JUMPI POP POP POP POP POP POP SWAP1 JUMP JUMPDEST PUSH2 0x5902 PUSH1 0x20 DUP3 DUP7 ADD ADD DUP8 PUSH2 0x4C29 JUMP JUMPDEST POP SWAP1 SWAP6 SWAP5 POP POP POP POP POP JUMP JUMPDEST PUSH1 0x20 DUP1 DUP3 MSTORE PUSH1 0x28 SWAP1 DUP3 ADD MSTORE PUSH32 0x455243313135353A204552433131353552656365697665722072656A65637465 PUSH1 0x40 DUP3 ADD MSTORE PUSH8 0x6420746F6B656E73 PUSH1 0xC0 SHL PUSH1 0x60 DUP3 ADD MSTORE PUSH1 0x80 ADD SWAP1 JUMP JUMPDEST PUSH1 0x20 DUP1 DUP3 MSTORE PUSH1 0x25 SWAP1 DUP3 ADD MSTORE PUSH32 0x455243313135353A207472616E7366657220746F20746865207A65726F206164 PUSH1 0x40 DUP3 ADD MSTORE PUSH5 0x6472657373 PUSH1 0xD8 SHL PUSH1 0x60 DUP3 ADD MSTORE PUSH1 0x80 ADD SWAP1 JUMP JUMPDEST PUSH1 0x20 DUP1 DUP3 MSTORE PUSH1 0x2A SWAP1 DUP3 ADD MSTORE PUSH32 0x455243313135353A20696E73756666696369656E742062616C616E636520666F PUSH1 0x40 DUP3 ADD MSTORE PUSH10 0x39103A3930B739B332B9 PUSH1 0xB1 SHL PUSH1 0x60 DUP3 ADD MSTORE PUSH1 0x80 ADD SWAP1 JUMP JUMPDEST PUSH1 0x1 PUSH1 0x1 PUSH1 0xA0 SHL SUB DUP7 DUP2 AND DUP3 MSTORE DUP6 AND PUSH1 0x20 DUP3 ADD MSTORE PUSH1 0xA0 PUSH1 0x40 DUP3 ADD DUP2 SWAP1 MSTORE PUSH1 0x0 SWAP1 PUSH2 0x5A10 SWAP1 DUP4 ADD DUP7 PUSH2 0x4F93 JUMP JUMPDEST DUP3 DUP2 SUB PUSH1 0x60 DUP5 ADD MSTORE PUSH2 0x5A22 DUP2 DUP7 PUSH2 0x4F93 JUMP JUMPDEST SWAP1 POP DUP3 DUP2 SUB PUSH1 0x80 DUP5 ADD MSTORE PUSH2 0x5A36 DUP2 DUP6 PUSH2 0x4BD4 JUMP JUMPDEST SWAP9 SWAP8 POP POP POP POP POP POP POP POP JUMP INVALID LOG2 PUSH5 0x6970667358 0x22 SLT KECCAK256 PREVRANDAO 0xDF SWAP1 PUSH26 0xA067AD8344B234A2887E942748B6F539EEF08A8083468385B18B 0xAF 0x1E PUSH5 0x736F6C6343 STOP ADDMOD SLT STOP CALLER PUSH9 0x747470733A2F2F6261 PUSH7 0x79626569626C68 PUSH20 0x6264357837727735657A7A7236786F653675326A PUSH17 0x797165786266626F7664616F32766A3569 CALLER PUSH4 0x3235766D PUSH14 0x3764342E697066732E6E66747374 PUSH16 0x726167652E6C696E6B2F302E6A736F6E PUSH9 0x747470733A2F2F6261 PUSH7 0x79626569626C68 PUSH20 0x6264357837727735657A7A7236786F653675326A PUSH17 0x797165786266626F7664616F32766A3569 CALLER PUSH4 0x3235766D PUSH14 0x3764342E697066732E6E66747374 PUSH16 0x726167652E6C696E6B2F000000000000 "
		},
		"gasEstimates": {
			"creation": {
				"codeDepositCost": "4632000",
				"executionCost": "infinite",
				"totalCost": "infinite"
			},
			"external": {
				"CITY_NODE_RATE()": "2352",
				"DOWN_FEE_RATIO()": "2351",
				"MIDDLE_FEE_RATIO()": "2352",
				"OPERATOR_FILTER_REGISTRY()": "372",
				"TOP_FEE_RATIO()": "2396",
				"TOTAL_MAIN_RATIO()": "2419",
				"TOTAL_REWARD_RATIO_ONE()": "2374",
				"TOTAL_REWARD_RATIO_TWO()": "2374",
				"addWhiteListUser(address[])": "infinite",
				"amountOfSbt007()": "2395",
				"balanceOf(address,uint256)": "2740",
				"balanceOfBatch(address[],uint256[])": "infinite",
				"baseURI()": "infinite",
				"burnFireSeed(address,uint256,uint256)": "infinite",
				"cancelAddressInvitation(address)": "26924",
				"checkPid(address)": "infinite",
				"cityNode()": "2404",
				"deleteDiscountFactor(uint256,uint256)": "infinite",
				"discountFactors(uint256)": "2516",
				"fee()": "2439",
				"fireSeedDiscount()": "2417",
				"fireSoul()": "2472",
				"getOwnerIdlength()": "2482",
				"isApprovedForAll(address,address)": "infinite",
				"isNotWhiteListUser(address)": "2636",
				"isRecommender(address)": "2660",
				"lowestMint()": "2373",
				"maxMint()": "2439",
				"mintBatch(address,uint256[],uint256[])": "infinite",
				"mintWithETH(uint256)": "infinite",
				"name()": "infinite",
				"owner()": "2465",
				"ownerOfId(address,uint256)": "4884",
				"pauseContract()": "infinite",
				"paused()": "2455",
				"rainbowTreasury()": "2426",
				"ratioDetails(uint256)": "8971",
				"ratioDetailsLength()": "2350",
				"recommender(address)": "2664",
				"recommenderInfo(address,uint256)": "4847",
				"recommenderNumber(address)": "2611",
				"removeFromWhiteList(address[])": "infinite",
				"renounceOwnership()": "infinite",
				"safeBatchTransferFrom(address,address,uint256[],uint256[],bytes)": "infinite",
				"safeTransferFrom(address,address,uint256,uint256,bytes)": "infinite",
				"setApprovalForAll(address,bool)": "infinite",
				"setBaseURI(string)": "infinite",
				"setCityNodeAddress(address)": "26885",
				"setCityNodeRate(uint256)": "24669",
				"setDiscountFactor(uint256,uint256,uint256)": "141969",
				"setFee(uint256)": "24556",
				"setFireSeedDiscount(uint256)": "24602",
				"setFireSoul(address)": "26885",
				"setFpAddr(address)": "26861",
				"setGuarding(address)": "26807",
				"setInviteFeeRatio(uint256,uint256,uint256)": "infinite",
				"setLowestMint(uint256)": "24556",
				"setRainbowTreasury(address)": "26920",
				"setTotalRewardRatioOne(uint256,uint256,uint256)": "infinite",
				"setTreasuryDistributionContract(address)": "26883",
				"setUseTreasuryDistributionContract(bool)": "26835",
				"setUserMintMax(uint256)": "24578",
				"setWListMax(uint256)": "24622",
				"setWhitelistDiscount(uint256)": "24645",
				"supportsInterface(bytes4)": "624",
				"symbol()": "infinite",
				"transferOwnership(address)": "infinite",
				"treasuryDistributionContract()": "2470",
				"unpauseContract()": "infinite",
				"upclass(address)": "2694",
				"uri(uint256)": "infinite",
				"useITreasuryDistributionContract()": "2390",
				"userMintMax()": "2439",
				"wListLength()": "2348",
				"wListMintMax()": "2396",
				"weth()": "2471",
				"whiteList(uint256)": "4726",
				"whitelistDiscount()": "2396"
			},
			"internal": {
				"calculateFee(uint256)": "infinite",
				"check(address,address)": "131",
				"findIndexOf(address[] memory,address)": "infinite",
				"removeAtIndex(address[] storage pointer,uint256)": "infinite"
			}
		},
		"methodIdentifiers": {
			"CITY_NODE_RATE()": "35a4ea5d",
			"DOWN_FEE_RATIO()": "e23767e2",
			"MIDDLE_FEE_RATIO()": "8af668d5",
			"OPERATOR_FILTER_REGISTRY()": "41f43434",
			"TOP_FEE_RATIO()": "8d6eaf94",
			"TOTAL_MAIN_RATIO()": "500c5897",
			"TOTAL_REWARD_RATIO_ONE()": "6a8244ad",
			"TOTAL_REWARD_RATIO_TWO()": "598df747",
			"addWhiteListUser(address[])": "09982e82",
			"amountOfSbt007()": "e2f49e30",
			"balanceOf(address,uint256)": "00fdd58e",
			"balanceOfBatch(address[],uint256[])": "4e1273f4",
			"baseURI()": "6c0360eb",
			"burnFireSeed(address,uint256,uint256)": "8c7b8d77",
			"cancelAddressInvitation(address)": "5d564803",
			"checkPid(address)": "c0191114",
			"cityNode()": "70ca09bc",
			"deleteDiscountFactor(uint256,uint256)": "ba4cace8",
			"discountFactors(uint256)": "e24b4e76",
			"fee()": "ddca3f43",
			"fireSeedDiscount()": "741c2974",
			"fireSoul()": "1a5ef71c",
			"getOwnerIdlength()": "a45f4753",
			"isApprovedForAll(address,address)": "e985e9c5",
			"isNotWhiteListUser(address)": "719bea48",
			"isRecommender(address)": "317152f3",
			"lowestMint()": "d66961cd",
			"maxMint()": "7501f741",
			"mintBatch(address,uint256[],uint256[])": "d81d0a15",
			"mintWithETH(uint256)": "2c3b372e",
			"name()": "06fdde03",
			"owner()": "8da5cb5b",
			"ownerOfId(address,uint256)": "23ffed4f",
			"pauseContract()": "439766ce",
			"paused()": "5c975abb",
			"rainbowTreasury()": "9d345915",
			"ratioDetails(uint256)": "7ec90dac",
			"ratioDetailsLength()": "7a6b2779",
			"recommender(address)": "976138c1",
			"recommenderInfo(address,uint256)": "0e01d8e2",
			"recommenderNumber(address)": "2d272ed8",
			"removeFromWhiteList(address[])": "b11560c5",
			"renounceOwnership()": "715018a6",
			"safeBatchTransferFrom(address,address,uint256[],uint256[],bytes)": "2eb2c2d6",
			"safeTransferFrom(address,address,uint256,uint256,bytes)": "f242432a",
			"setApprovalForAll(address,bool)": "a22cb465",
			"setBaseURI(string)": "55f804b3",
			"setCityNodeAddress(address)": "93e4bdba",
			"setCityNodeRate(uint256)": "aa49c75d",
			"setDiscountFactor(uint256,uint256,uint256)": "8ad5aa2d",
			"setFee(uint256)": "69fe0e2d",
			"setFireSeedDiscount(uint256)": "7bc03cdf",
			"setFireSoul(address)": "cc7ef800",
			"setFpAddr(address)": "fb7e9463",
			"setGuarding(address)": "9ccceb11",
			"setInviteFeeRatio(uint256,uint256,uint256)": "11637b0f",
			"setLowestMint(uint256)": "942a330d",
			"setRainbowTreasury(address)": "99c9220e",
			"setTotalRewardRatioOne(uint256,uint256,uint256)": "530ad63e",
			"setTreasuryDistributionContract(address)": "fd4329f4",
			"setUseTreasuryDistributionContract(bool)": "9902de2a",
			"setUserMintMax(uint256)": "3989456c",
			"setWListMax(uint256)": "6b970684",
			"setWhitelistDiscount(uint256)": "3222e738",
			"supportsInterface(bytes4)": "01ffc9a7",
			"symbol()": "95d89b41",
			"transferOwnership(address)": "f2fde38b",
			"treasuryDistributionContract()": "e3840bc1",
			"unpauseContract()": "b33712c5",
			"upclass(address)": "dcca3755",
			"uri(uint256)": "0e89341c",
			"useITreasuryDistributionContract()": "42f524d2",
			"userMintMax()": "e9107786",
			"wListLength()": "cd07442e",
			"wListMintMax()": "3b98ceca",
			"weth()": "3fc8cef3",
			"whiteList(uint256)": "5c475d42",
			"whitelistDiscount()": "6b192629"
		}
	},
	"abi": [
		{
			"inputs": [
				{
					"internalType": "address",
					"name": "_treasuryDistributionContract",
					"type": "address"
				},
				{
					"internalType": "address",
					"name": "_cityNode",
					"type": "address"
				},
				{
					"internalType": "address",
					"name": "_rainbowTreasury",
					"type": "address"
				},
				{
					"internalType": "address",
					"name": "_weth",
					"type": "address"
				}
			],
			"stateMutability": "nonpayable",
			"type": "constructor"
		},
		{
			"inputs": [
				{
					"internalType": "address",
					"name": "operator",
					"type": "address"
				}
			],
			"name": "OperatorNotAllowed",
			"type": "error"
		},
		{
			"anonymous": false,
			"inputs": [
				{
					"indexed": true,
					"internalType": "address",
					"name": "account",
					"type": "address"
				},
				{
					"indexed": true,
					"internalType": "address",
					"name": "operator",
					"type": "address"
				},
				{
					"indexed": false,
					"internalType": "bool",
					"name": "approved",
					"type": "bool"
				}
			],
			"name": "ApprovalForAll",
			"type": "event"
		},
		{
			"anonymous": false,
			"inputs": [
				{
					"indexed": true,
					"internalType": "address",
					"name": "previousOwner",
					"type": "address"
				},
				{
					"indexed": true,
					"internalType": "address",
					"name": "newOwner",
					"type": "address"
				}
			],
			"name": "OwnershipTransferred",
			"type": "event"
		},
		{
			"anonymous": false,
			"inputs": [
				{
					"indexed": false,
					"internalType": "address",
					"name": "account",
					"type": "address"
				}
			],
			"name": "Paused",
			"type": "event"
		},
		{
			"anonymous": false,
			"inputs": [
				{
					"indexed": true,
					"internalType": "address",
					"name": "operator",
					"type": "address"
				},
				{
					"indexed": true,
					"internalType": "address",
					"name": "from",
					"type": "address"
				},
				{
					"indexed": true,
					"internalType": "address",
					"name": "to",
					"type": "address"
				},
				{
					"indexed": false,
					"internalType": "uint256[]",
					"name": "ids",
					"type": "uint256[]"
				},
				{
					"indexed": false,
					"internalType": "uint256[]",
					"name": "values",
					"type": "uint256[]"
				}
			],
			"name": "TransferBatch",
			"type": "event"
		},
		{
			"anonymous": false,
			"inputs": [
				{
					"indexed": true,
					"internalType": "address",
					"name": "operator",
					"type": "address"
				},
				{
					"indexed": true,
					"internalType": "address",
					"name": "from",
					"type": "address"
				},
				{
					"indexed": true,
					"internalType": "address",
					"name": "to",
					"type": "address"
				},
				{
					"indexed": false,
					"internalType": "uint256",
					"name": "id",
					"type": "uint256"
				},
				{
					"indexed": false,
					"internalType": "uint256",
					"name": "value",
					"type": "uint256"
				}
			],
			"name": "TransferSingle",
			"type": "event"
		},
		{
			"anonymous": false,
			"inputs": [
				{
					"indexed": false,
					"internalType": "string",
					"name": "value",
					"type": "string"
				},
				{
					"indexed": true,
					"internalType": "uint256",
					"name": "id",
					"type": "uint256"
				}
			],
			"name": "URI",
			"type": "event"
		},
		{
			"anonymous": false,
			"inputs": [
				{
					"indexed": false,
					"internalType": "address",
					"name": "account",
					"type": "address"
				}
			],
			"name": "Unpaused",
			"type": "event"
		},
		{
			"anonymous": false,
			"inputs": [
				{
					"indexed": false,
					"internalType": "address",
					"name": "from",
					"type": "address"
				},
				{
					"indexed": false,
					"internalType": "address",
					"name": "to",
					"type": "address"
				},
				{
					"indexed": false,
					"internalType": "uint256",
					"name": "tokenId",
					"type": "uint256"
				},
				{
					"indexed": false,
					"internalType": "uint256",
					"name": "amount",
					"type": "uint256"
				},
				{
					"indexed": false,
					"internalType": "uint256",
					"name": "transferTime",
					"type": "uint256"
				}
			],
			"name": "passFireSeed",
			"type": "event"
		},
		{
			"anonymous": false,
			"inputs": [
				{
					"indexed": false,
					"internalType": "uint256",
					"name": "transferTime",
					"type": "uint256"
				},
				{
					"indexed": false,
					"internalType": "address",
					"name": "to",
					"type": "address"
				},
				{
					"indexed": false,
					"internalType": "uint256",
					"name": "pid",
					"type": "uint256"
				},
				{
					"indexed": false,
					"internalType": "uint256",
					"name": "fid",
					"type": "uint256"
				},
				{
					"indexed": false,
					"internalType": "uint256",
					"name": "amount",
					"type": "uint256"
				}
			],
			"name": "transferList",
			"type": "event"
		},
		{
			"inputs": [],
			"name": "CITY_NODE_RATE",
			"outputs": [
				{
					"internalType": "uint256",
					"name": "",
					"type": "uint256"
				}
			],
			"stateMutability": "view",
			"type": "function"
		},
		{
			"inputs": [],
			"name": "DOWN_FEE_RATIO",
			"outputs": [
				{
					"internalType": "uint256",
					"name": "",
					"type": "uint256"
				}
			],
			"stateMutability": "view",
			"type": "function"
		},
		{
			"inputs": [],
			"name": "MIDDLE_FEE_RATIO",
			"outputs": [
				{
					"internalType": "uint256",
					"name": "",
					"type": "uint256"
				}
			],
			"stateMutability": "view",
			"type": "function"
		},
		{
			"inputs": [],
			"name": "OPERATOR_FILTER_REGISTRY",
			"outputs": [
				{
					"internalType": "contract IOperatorFilterRegistry",
					"name": "",
					"type": "address"
				}
			],
			"stateMutability": "view",
			"type": "function"
		},
		{
			"inputs": [],
			"name": "TOP_FEE_RATIO",
			"outputs": [
				{
					"internalType": "uint256",
					"name": "",
					"type": "uint256"
				}
			],
			"stateMutability": "view",
			"type": "function"
		},
		{
			"inputs": [],
			"name": "TOTAL_MAIN_RATIO",
			"outputs": [
				{
					"internalType": "uint256",
					"name": "",
					"type": "uint256"
				}
			],
			"stateMutability": "view",
			"type": "function"
		},
		{
			"inputs": [],
			"name": "TOTAL_REWARD_RATIO_ONE",
			"outputs": [
				{
					"internalType": "uint256",
					"name": "",
					"type": "uint256"
				}
			],
			"stateMutability": "view",
			"type": "function"
		},
		{
			"inputs": [],
			"name": "TOTAL_REWARD_RATIO_TWO",
			"outputs": [
				{
					"internalType": "uint256",
					"name": "",
					"type": "uint256"
				}
			],
			"stateMutability": "view",
			"type": "function"
		},
		{
			"inputs": [
				{
					"internalType": "address[]",
					"name": "_users",
					"type": "address[]"
				}
			],
			"name": "addWhiteListUser",
			"outputs": [],
			"stateMutability": "nonpayable",
			"type": "function"
		},
		{
			"inputs": [],
			"name": "amountOfSbt007",
			"outputs": [
				{
					"internalType": "uint256",
					"name": "",
					"type": "uint256"
				}
			],
			"stateMutability": "view",
			"type": "function"
		},
		{
			"inputs": [
				{
					"internalType": "address",
					"name": "account",
					"type": "address"
				},
				{
					"internalType": "uint256",
					"name": "id",
					"type": "uint256"
				}
			],
			"name": "balanceOf",
			"outputs": [
				{
					"internalType": "uint256",
					"name": "",
					"type": "uint256"
				}
			],
			"stateMutability": "view",
			"type": "function"
		},
		{
			"inputs": [
				{
					"internalType": "address[]",
					"name": "accounts",
					"type": "address[]"
				},
				{
					"internalType": "uint256[]",
					"name": "ids",
					"type": "uint256[]"
				}
			],
			"name": "balanceOfBatch",
			"outputs": [
				{
					"internalType": "uint256[]",
					"name": "",
					"type": "uint256[]"
				}
			],
			"stateMutability": "view",
			"type": "function"
		},
		{
			"inputs": [],
			"name": "baseURI",
			"outputs": [
				{
					"internalType": "string",
					"name": "",
					"type": "string"
				}
			],
			"stateMutability": "view",
			"type": "function"
		},
		{
			"inputs": [
				{
					"internalType": "address",
					"name": "_account",
					"type": "address"
				},
				{
					"internalType": "uint256",
					"name": "_idOfUser",
					"type": "uint256"
				},
				{
					"internalType": "uint256",
					"name": "_value",
					"type": "uint256"
				}
			],
			"name": "burnFireSeed",
			"outputs": [],
			"stateMutability": "nonpayable",
			"type": "function"
		},
		{
			"inputs": [
				{
					"internalType": "address",
					"name": "_addr",
					"type": "address"
				}
			],
			"name": "cancelAddressInvitation",
			"outputs": [],
			"stateMutability": "nonpayable",
			"type": "function"
		},
		{
			"inputs": [
				{
					"internalType": "address",
					"name": "_user",
					"type": "address"
				}
			],
			"name": "checkPid",
			"outputs": [
				{
					"internalType": "uint256",
					"name": "",
					"type": "uint256"
				}
			],
			"stateMutability": "view",
			"type": "function"
		},
		{
			"inputs": [],
			"name": "cityNode",
			"outputs": [
				{
					"internalType": "address",
					"name": "",
					"type": "address"
				}
			],
			"stateMutability": "view",
			"type": "function"
		},
		{
			"inputs": [
				{
					"internalType": "uint256",
					"name": "_lowerBound",
					"type": "uint256"
				},
				{
					"internalType": "uint256",
					"name": "_upperBound",
					"type": "uint256"
				}
			],
			"name": "deleteDiscountFactor",
			"outputs": [],
			"stateMutability": "nonpayable",
			"type": "function"
		},
		{
			"inputs": [
				{
					"internalType": "uint256",
					"name": "",
					"type": "uint256"
				}
			],
			"name": "discountFactors",
			"outputs": [
				{
					"internalType": "uint256",
					"name": "",
					"type": "uint256"
				}
			],
			"stateMutability": "view",
			"type": "function"
		},
		{
			"inputs": [],
			"name": "fee",
			"outputs": [
				{
					"internalType": "uint256",
					"name": "",
					"type": "uint256"
				}
			],
			"stateMutability": "view",
			"type": "function"
		},
		{
			"inputs": [],
			"name": "fireSeedDiscount",
			"outputs": [
				{
					"internalType": "uint256",
					"name": "",
					"type": "uint256"
				}
			],
			"stateMutability": "view",
			"type": "function"
		},
		{
			"inputs": [],
			"name": "fireSoul",
			"outputs": [
				{
					"internalType": "address",
					"name": "",
					"type": "address"
				}
			],
			"stateMutability": "view",
			"type": "function"
		},
		{
			"inputs": [],
			"name": "getOwnerIdlength",
			"outputs": [
				{
					"internalType": "uint256",
					"name": "",
					"type": "uint256"
				}
			],
			"stateMutability": "view",
			"type": "function"
		},
		{
			"inputs": [
				{
					"internalType": "address",
					"name": "account",
					"type": "address"
				},
				{
					"internalType": "address",
					"name": "operator",
					"type": "address"
				}
			],
			"name": "isApprovedForAll",
			"outputs": [
				{
					"internalType": "bool",
					"name": "",
					"type": "bool"
				}
			],
			"stateMutability": "view",
			"type": "function"
		},
		{
			"inputs": [
				{
					"internalType": "address",
					"name": "",
					"type": "address"
				}
			],
			"name": "isNotWhiteListUser",
			"outputs": [
				{
					"internalType": "bool",
					"name": "",
					"type": "bool"
				}
			],
			"stateMutability": "view",
			"type": "function"
		},
		{
			"inputs": [
				{
					"internalType": "address",
					"name": "",
					"type": "address"
				}
			],
			"name": "isRecommender",
			"outputs": [
				{
					"internalType": "bool",
					"name": "",
					"type": "bool"
				}
			],
			"stateMutability": "view",
			"type": "function"
		},
		{
			"inputs": [],
			"name": "lowestMint",
			"outputs": [
				{
					"internalType": "uint256",
					"name": "",
					"type": "uint256"
				}
			],
			"stateMutability": "view",
			"type": "function"
		},
		{
			"inputs": [],
			"name": "maxMint",
			"outputs": [
				{
					"internalType": "uint256",
					"name": "",
					"type": "uint256"
				}
			],
			"stateMutability": "view",
			"type": "function"
		},
		{
			"inputs": [
				{
					"internalType": "address",
					"name": "to",
					"type": "address"
				},
				{
					"internalType": "uint256[]",
					"name": "ids",
					"type": "uint256[]"
				},
				{
					"internalType": "uint256[]",
					"name": "amounts",
					"type": "uint256[]"
				}
			],
			"name": "mintBatch",
			"outputs": [],
			"stateMutability": "nonpayable",
			"type": "function"
		},
		{
			"inputs": [
				{
					"internalType": "uint256",
					"name": "_amount",
					"type": "uint256"
				}
			],
			"name": "mintWithETH",
			"outputs": [],
			"stateMutability": "payable",
			"type": "function"
		},
		{
			"inputs": [],
			"name": "name",
			"outputs": [
				{
					"internalType": "string",
					"name": "",
					"type": "string"
				}
			],
			"stateMutability": "view",
			"type": "function"
		},
		{
			"inputs": [],
			"name": "owner",
			"outputs": [
				{
					"internalType": "address",
					"name": "",
					"type": "address"
				}
			],
			"stateMutability": "view",
			"type": "function"
		},
		{
			"inputs": [
				{
					"internalType": "address",
					"name": "",
					"type": "address"
				},
				{
					"internalType": "uint256",
					"name": "",
					"type": "uint256"
				}
			],
			"name": "ownerOfId",
			"outputs": [
				{
					"internalType": "uint256",
					"name": "",
					"type": "uint256"
				}
			],
			"stateMutability": "view",
			"type": "function"
		},
		{
			"inputs": [],
			"name": "pauseContract",
			"outputs": [],
			"stateMutability": "nonpayable",
			"type": "function"
		},
		{
			"inputs": [],
			"name": "paused",
			"outputs": [
				{
					"internalType": "bool",
					"name": "",
					"type": "bool"
				}
			],
			"stateMutability": "view",
			"type": "function"
		},
		{
			"inputs": [],
			"name": "rainbowTreasury",
			"outputs": [
				{
					"internalType": "address",
					"name": "",
					"type": "address"
				}
			],
			"stateMutability": "view",
			"type": "function"
		},
		{
			"inputs": [
				{
					"internalType": "uint256",
					"name": "",
					"type": "uint256"
				}
			],
			"name": "ratioDetails",
			"outputs": [
				{
					"internalType": "uint256",
					"name": "lower",
					"type": "uint256"
				},
				{
					"internalType": "uint256",
					"name": "upper",
					"type": "uint256"
				},
				{
					"internalType": "uint256",
					"name": "rate",
					"type": "uint256"
				}
			],
			"stateMutability": "view",
			"type": "function"
		},
		{
			"inputs": [],
			"name": "ratioDetailsLength",
			"outputs": [
				{
					"internalType": "uint256",
					"name": "",
					"type": "uint256"
				}
			],
			"stateMutability": "view",
			"type": "function"
		},
		{
			"inputs": [
				{
					"internalType": "address",
					"name": "",
					"type": "address"
				}
			],
			"name": "recommender",
			"outputs": [
				{
					"internalType": "address",
					"name": "",
					"type": "address"
				}
			],
			"stateMutability": "view",
			"type": "function"
		},
		{
			"inputs": [
				{
					"internalType": "address",
					"name": "",
					"type": "address"
				},
				{
					"internalType": "uint256",
					"name": "",
					"type": "uint256"
				}
			],
			"name": "recommenderInfo",
			"outputs": [
				{
					"internalType": "address",
					"name": "",
					"type": "address"
				}
			],
			"stateMutability": "view",
			"type": "function"
		},
		{
			"inputs": [
				{
					"internalType": "address",
					"name": "account",
					"type": "address"
				}
			],
			"name": "recommenderNumber",
			"outputs": [
				{
					"internalType": "uint256",
					"name": "",
					"type": "uint256"
				}
			],
			"stateMutability": "view",
			"type": "function"
		},
		{
			"inputs": [
				{
					"internalType": "address[]",
					"name": "users",
					"type": "address[]"
				}
			],
			"name": "removeFromWhiteList",
			"outputs": [],
			"stateMutability": "nonpayable",
			"type": "function"
		},
		{
			"inputs": [],
			"name": "renounceOwnership",
			"outputs": [],
			"stateMutability": "nonpayable",
			"type": "function"
		},
		{
			"inputs": [
				{
					"internalType": "address",
					"name": "from",
					"type": "address"
				},
				{
					"internalType": "address",
					"name": "to",
					"type": "address"
				},
				{
					"internalType": "uint256[]",
					"name": "ids",
					"type": "uint256[]"
				},
				{
					"internalType": "uint256[]",
					"name": "amounts",
					"type": "uint256[]"
				},
				{
					"internalType": "bytes",
					"name": "data",
					"type": "bytes"
				}
			],
			"name": "safeBatchTransferFrom",
			"outputs": [],
			"stateMutability": "nonpayable",
			"type": "function"
		},
		{
			"inputs": [
				{
					"internalType": "address",
					"name": "from",
					"type": "address"
				},
				{
					"internalType": "address",
					"name": "to",
					"type": "address"
				},
				{
					"internalType": "uint256",
					"name": "tokenId",
					"type": "uint256"
				},
				{
					"internalType": "uint256",
					"name": "amount",
					"type": "uint256"
				},
				{
					"internalType": "bytes",
					"name": "data",
					"type": "bytes"
				}
			],
			"name": "safeTransferFrom",
			"outputs": [],
			"stateMutability": "nonpayable",
			"type": "function"
		},
		{
			"inputs": [
				{
					"internalType": "address",
					"name": "operator",
					"type": "address"
				},
				{
					"internalType": "bool",
					"name": "approved",
					"type": "bool"
				}
			],
			"name": "setApprovalForAll",
			"outputs": [],
			"stateMutability": "nonpayable",
			"type": "function"
		},
		{
			"inputs": [
				{
					"internalType": "string",
					"name": "baseURI_",
					"type": "string"
				}
			],
			"name": "setBaseURI",
			"outputs": [],
			"stateMutability": "nonpayable",
			"type": "function"
		},
		{
			"inputs": [
				{
					"internalType": "address",
					"name": "_cityNode",
					"type": "address"
				}
			],
			"name": "setCityNodeAddress",
			"outputs": [],
			"stateMutability": "nonpayable",
			"type": "function"
		},
		{
			"inputs": [
				{
					"internalType": "uint256",
					"name": "_rate",
					"type": "uint256"
				}
			],
			"name": "setCityNodeRate",
			"outputs": [],
			"stateMutability": "nonpayable",
			"type": "function"
		},
		{
			"inputs": [
				{
					"internalType": "uint256",
					"name": "_lowerBound",
					"type": "uint256"
				},
				{
					"internalType": "uint256",
					"name": "_upperBound",
					"type": "uint256"
				},
				{
					"internalType": "uint256",
					"name": "_discountFactor",
					"type": "uint256"
				}
			],
			"name": "setDiscountFactor",
			"outputs": [],
			"stateMutability": "nonpayable",
			"type": "function"
		},
		{
			"inputs": [
				{
					"internalType": "uint256",
					"name": "_fee",
					"type": "uint256"
				}
			],
			"name": "setFee",
			"outputs": [],
			"stateMutability": "nonpayable",
			"type": "function"
		},
		{
			"inputs": [
				{
					"internalType": "uint256",
					"name": "_fireSeedDiscount",
					"type": "uint256"
				}
			],
			"name": "setFireSeedDiscount",
			"outputs": [],
			"stateMutability": "nonpayable",
			"type": "function"
		},
		{
			"inputs": [
				{
					"internalType": "address",
					"name": "_fireSoul",
					"type": "address"
				}
			],
			"name": "setFireSoul",
			"outputs": [],
			"stateMutability": "nonpayable",
			"type": "function"
		},
		{
			"inputs": [
				{
					"internalType": "address payable",
					"name": "_address",
					"type": "address"
				}
			],
			"name": "setFpAddr",
			"outputs": [],
			"stateMutability": "nonpayable",
			"type": "function"
		},
		{
			"inputs": [
				{
					"internalType": "address",
					"name": "_guarding",
					"type": "address"
				}
			],
			"name": "setGuarding",
			"outputs": [],
			"stateMutability": "nonpayable",
			"type": "function"
		},
		{
			"inputs": [
				{
					"internalType": "uint256",
					"name": "_top",
					"type": "uint256"
				},
				{
					"internalType": "uint256",
					"name": "_middle",
					"type": "uint256"
				},
				{
					"internalType": "uint256",
					"name": "_down",
					"type": "uint256"
				}
			],
			"name": "setInviteFeeRatio",
			"outputs": [],
			"stateMutability": "nonpayable",
			"type": "function"
		},
		{
			"inputs": [
				{
					"internalType": "uint256",
					"name": "_amount",
					"type": "uint256"
				}
			],
			"name": "setLowestMint",
			"outputs": [],
			"stateMutability": "nonpayable",
			"type": "function"
		},
		{
			"inputs": [
				{
					"internalType": "address",
					"name": "_rainbowTreasury",
					"type": "address"
				}
			],
			"name": "setRainbowTreasury",
			"outputs": [],
			"stateMutability": "nonpayable",
			"type": "function"
		},
		{
			"inputs": [
				{
					"internalType": "uint256",
					"name": "_one",
					"type": "uint256"
				},
				{
					"internalType": "uint256",
					"name": "_two",
					"type": "uint256"
				},
				{
					"internalType": "uint256",
					"name": "_rainbowTreasury",
					"type": "uint256"
				}
			],
			"name": "setTotalRewardRatioOne",
			"outputs": [],
			"stateMutability": "nonpayable",
			"type": "function"
		},
		{
			"inputs": [
				{
					"internalType": "address",
					"name": "_treasuryDistributionContract",
					"type": "address"
				}
			],
			"name": "setTreasuryDistributionContract",
			"outputs": [],
			"stateMutability": "nonpayable",
			"type": "function"
		},
		{
			"inputs": [
				{
					"internalType": "bool",
					"name": "_set",
					"type": "bool"
				}
			],
			"name": "setUseTreasuryDistributionContract",
			"outputs": [],
			"stateMutability": "nonpayable",
			"type": "function"
		},
		{
			"inputs": [
				{
					"internalType": "uint256",
					"name": "_amount",
					"type": "uint256"
				}
			],
			"name": "setUserMintMax",
			"outputs": [],
			"stateMutability": "nonpayable",
			"type": "function"
		},
		{
			"inputs": [
				{
					"internalType": "uint256",
					"name": "_amount",
					"type": "uint256"
				}
			],
			"name": "setWListMax",
			"outputs": [],
			"stateMutability": "nonpayable",
			"type": "function"
		},
		{
			"inputs": [
				{
					"internalType": "uint256",
					"name": "_whitelistDiscount",
					"type": "uint256"
				}
			],
			"name": "setWhitelistDiscount",
			"outputs": [],
			"stateMutability": "nonpayable",
			"type": "function"
		},
		{
			"inputs": [
				{
					"internalType": "bytes4",
					"name": "interfaceId",
					"type": "bytes4"
				}
			],
			"name": "supportsInterface",
			"outputs": [
				{
					"internalType": "bool",
					"name": "",
					"type": "bool"
				}
			],
			"stateMutability": "view",
			"type": "function"
		},
		{
			"inputs": [],
			"name": "symbol",
			"outputs": [
				{
					"internalType": "string",
					"name": "",
					"type": "string"
				}
			],
			"stateMutability": "view",
			"type": "function"
		},
		{
			"inputs": [
				{
					"internalType": "address",
					"name": "newOwner",
					"type": "address"
				}
			],
			"name": "transferOwnership",
			"outputs": [],
			"stateMutability": "nonpayable",
			"type": "function"
		},
		{
			"inputs": [],
			"name": "treasuryDistributionContract",
			"outputs": [
				{
					"internalType": "address",
					"name": "",
					"type": "address"
				}
			],
			"stateMutability": "view",
			"type": "function"
		},
		{
			"inputs": [],
			"name": "unpauseContract",
			"outputs": [],
			"stateMutability": "nonpayable",
			"type": "function"
		},
		{
			"inputs": [
				{
					"internalType": "address",
					"name": "usr",
					"type": "address"
				}
			],
			"name": "upclass",
			"outputs": [
				{
					"internalType": "address",
					"name": "",
					"type": "address"
				}
			],
			"stateMutability": "view",
			"type": "function"
		},
		{
			"inputs": [
				{
					"internalType": "uint256",
					"name": "_tokenId",
					"type": "uint256"
				}
			],
			"name": "uri",
			"outputs": [
				{
					"internalType": "string",
					"name": "",
					"type": "string"
				}
			],
			"stateMutability": "view",
			"type": "function"
		},
		{
			"inputs": [],
			"name": "useITreasuryDistributionContract",
			"outputs": [
				{
					"internalType": "bool",
					"name": "",
					"type": "bool"
				}
			],
			"stateMutability": "view",
			"type": "function"
		},
		{
			"inputs": [],
			"name": "userMintMax",
			"outputs": [
				{
					"internalType": "uint256",
					"name": "",
					"type": "uint256"
				}
			],
			"stateMutability": "view",
			"type": "function"
		},
		{
			"inputs": [],
			"name": "wListLength",
			"outputs": [
				{
					"internalType": "uint256",
					"name": "",
					"type": "uint256"
				}
			],
			"stateMutability": "view",
			"type": "function"
		},
		{
			"inputs": [],
			"name": "wListMintMax",
			"outputs": [
				{
					"internalType": "uint256",
					"name": "",
					"type": "uint256"
				}
			],
			"stateMutability": "view",
			"type": "function"
		},
		{
			"inputs": [],
			"name": "weth",
			"outputs": [
				{
					"internalType": "address",
					"name": "",
					"type": "address"
				}
			],
			"stateMutability": "view",
			"type": "function"
		},
		{
			"inputs": [
				{
					"internalType": "uint256",
					"name": "",
					"type": "uint256"
				}
			],
			"name": "whiteList",
			"outputs": [
				{
					"internalType": "address",
					"name": "",
					"type": "address"
				}
			],
			"stateMutability": "view",
			"type": "function"
		},
		{
			"inputs": [],
			"name": "whitelistDiscount",
			"outputs": [
				{
					"internalType": "uint256",
					"name": "",
					"type": "uint256"
				}
			],
			"stateMutability": "view",
			"type": "function"
		},
		{
			"stateMutability": "payable",
			"type": "receive"
		}
	]
}