{
	"data": {
		"bytecode": {
			"linkReferences": {},
			"object": "60c06040526005608090815264173539b7b760d91b60a05260099062000026908262000259565b503480156200003457600080fd5b50604051620044c9380380620044c9833981016040819052620000579162000342565b604080518082018252600880825267119a5c9954dbdd5b60c21b602080840182905284518086019095529184529083015290600062000097838262000259565b506001620000a6828262000259565b505050620000c3620000bd6200015e60201b60201c565b62000162565b601680546001600160a01b038085166001600160a01b031992831617909255600a8054868416908316178155601880549385169390921692909217905560646010556050600c55600e600d819055600490556002600f556011819055604660125560146013819055556040805160808101909152605980825262004470602083013960089062000154908262000259565b505050506200038c565b3390565b600680546001600160a01b038381166001600160a01b0319831681179093556040519116919082907f8be0079c531659141344cd1fd0a4f28419497f9722a3daafe3b4186f6b6457e090600090a35050565b634e487b7160e01b600052604160045260246000fd5b600181811c90821680620001df57607f821691505b6020821081036200020057634e487b7160e01b600052602260045260246000fd5b50919050565b601f8211156200025457600081815260208120601f850160051c810160208610156200022f5750805b601f850160051c820191505b8181101562000250578281556001016200023b565b5050505b505050565b81516001600160401b03811115620002755762000275620001b4565b6200028d81620002868454620001ca565b8462000206565b602080601f831160018114620002c55760008415620002ac5750858301515b600019600386901b1c1916600185901b17855562000250565b600085815260208120601f198616915b82811015620002f657888601518255948401946001909101908401620002d5565b5085821015620003155787850151600019600388901b60f8161c191681555b5050505050600190811b01905550565b80516001600160a01b03811681146200033d57600080fd5b919050565b6000806000606084860312156200035857600080fd5b620003638462000325565b9250620003736020850162000325565b9150620003836040850162000325565b90509250925092565b6140d4806200039c6000396000f3fe608060405260043610620004675760003560e01c80637ebaba90116200024b578063b8d1452f116200013b578063e15658c711620000b9578063e985e9c51162000084578063e985e9c51462000db9578063efdcd9741462000dde578063f2fde38b1462000e03578063fd4329f41462000e28578063ffb0e20d1462000e4d57600080fd5b8063e15658c71462000d0b578063e23767e21462000d45578063e3840bc11462000d5d578063e75729f21462000d7f57600080fd5b8063c56b71421162000106578063c56b71421462000c4c578063c66828621462000c91578063c87b56dd1462000ca9578063d9d518f31462000cce578063ddca3f431462000cf357600080fd5b8063b8d1452f1462000bad578063be5f0cc91462000bd2578063c01911141462000c0f578063c03366291462000c3457600080fd5b806398bad7e611620001c9578063abbb376c1162000194578063abbb376c1462000b07578063ac949c6f1462000b29578063b3f006741462000b4e578063b83282da1462000b70578063b88d4fde1462000b8857600080fd5b806398bad7e61462000a805780639bc8a9e41462000a98578063a22cb4651462000abd578063a269fbe51462000ae257600080fd5b80638af668d511620002165780638af668d514620009db5780638d6eaf9414620009f35780638da5cb5b1462000a0b57806391c719881462000a2b57806395d89b411462000a6857600080fd5b80637ebaba901462000953578063846218d9146200096a57806384ee66c0146200098f5780638af4b86a14620009a757600080fd5b80633c344ce1116200036757806364f0d7af11620002e557806370a0823111620002b057806370a0823114620008b7578063715018a614620008dc578063763d8c1614620008f4578063775b9c13146200090c5780637b4392cb146200093157600080fd5b806364f0d7af146200083d57806366b5baf6146200085557806369fe0e2d146200087a5780636c0360eb146200089f57600080fd5b806342842e0e116200033257806342842e0e1462000793578063444d57b114620007b85780634f335d0a14620007d057806355f804b314620007f35780636352211e146200081857600080fd5b80633c344ce114620007105780633d18651e14620007415780633d923b9e14620007595780633fc8cef3146200077157600080fd5b8063095ea7b311620003f557806323b872dd11620003c057806323b872dd14620006575780632d871b73146200067c5780632e082d5c14620006a15780632ff066be14620006c657806334b999d014620006eb57600080fd5b8063095ea7b314620005b95780630b6b9d7714620005de5780630bfc24f81462000612578063200d2ed2146200063457600080fd5b806306dd6060116200043657806306dd6060146200050a57806306fdde03146200052f578063081812fc1462000556578063088572cc146200059457600080fd5b806301af001d146200046c57806301ffc9a714620004a4578063026fe9f214620004da57806305737aae14620004f1575b600080fd5b3480156200047957600080fd5b50620004916200048b36600462003504565b62000e6f565b6040519081526020015b60405180910390f35b348015620004b157600080fd5b50620004c9620004c336600462003535565b62000e91565b60405190151581526020016200049b565b348015620004e757600080fd5b50601f5462000491565b620005086200050236600462003504565b62000ee5565b005b3480156200051757600080fd5b5062000508620005293660046200356b565b62001c1a565b3480156200053c57600080fd5b506200054762001c46565b6040516200049b9190620035df565b3480156200056357600080fd5b506200057b6200057536600462003504565b62001ce0565b6040516001600160a01b0390911681526020016200049b565b348015620005a157600080fd5b506200057b620005b336600462003504565b62001d09565b348015620005c657600080fd5b5062000508620005d8366004620035f4565b62001d34565b348015620005eb57600080fd5b50620004c9620005fd3660046200356b565b60236020526000908152604090205460ff1681565b3480156200061f57600080fd5b50601b546200057b906001600160a01b031681565b3480156200064157600080fd5b50601654620004c990600160a01b900460ff1681565b3480156200066457600080fd5b50620005086200067636600462003623565b62001e54565b3480156200068957600080fd5b50620005086200069b366004620036b3565b62001ecc565b348015620006ae57600080fd5b5062000491620006c0366004620035f4565b62001fd3565b348015620006d357600080fd5b5062000508620006e536600462003504565b62002005565b348015620006f857600080fd5b50620005086200070a3660046200356b565b62002014565b3480156200071d57600080fd5b50620004916200072f3660046200356b565b60226020526000908152604090205481565b3480156200074e57600080fd5b506200049160105481565b3480156200076657600080fd5b506200049160145481565b3480156200077e57600080fd5b506018546200057b906001600160a01b031681565b348015620007a057600080fd5b5062000508620007b236600462003623565b62002040565b348015620007c557600080fd5b506200049160135481565b348015620007dd57600080fd5b50601654620004c990600160a81b900460ff1681565b3480156200080057600080fd5b506200050862000812366004620037e0565b6200209d565b3480156200082557600080fd5b506200057b6200083736600462003504565b620020b5565b3480156200084a57600080fd5b506200049160115481565b3480156200086257600080fd5b5062000508620008743660046200382e565b62002117565b3480156200088757600080fd5b50620005086200089936600462003504565b6200216a565b348015620008ac57600080fd5b506200054762002179565b348015620008c457600080fd5b5062000491620008d63660046200356b565b6200220f565b348015620008e957600080fd5b506200050862002297565b3480156200090157600080fd5b5062000491600b5481565b3480156200091957600080fd5b50620005086200092b366004620036b3565b620022af565b3480156200093e57600080fd5b506016546200057b906001600160a01b031681565b3480156200096057600080fd5b5060205462000491565b3480156200097757600080fd5b5062000508620009893660046200382e565b62002465565b3480156200099c57600080fd5b506200049160125481565b348015620009b457600080fd5b50620004c9620009c63660046200356b565b60216020526000908152604090205460ff1681565b348015620009e857600080fd5b5062000491600e5481565b34801562000a0057600080fd5b5062000491600f5481565b34801562000a1857600080fd5b506006546001600160a01b03166200057b565b34801562000a3857600080fd5b50620004c962000a4a3660046200356b565b6001600160a01b031660009081526023602052604090205460ff1690565b34801562000a7557600080fd5b5062000547620024b8565b34801562000a8d57600080fd5b5062000508620024c9565b34801562000aa557600080fd5b506200050862000ab73660046200356b565b620024f4565b34801562000aca57600080fd5b506200050862000adc3660046200386a565b62002567565b34801562000aef57600080fd5b506200057b62000b0136600462003504565b62002574565b34801562000b1457600080fd5b50600a546200057b906001600160a01b031681565b34801562000b3657600080fd5b506200057b62000b4836600462003504565b62002585565b34801562000b5b57600080fd5b506019546200057b906001600160a01b031681565b34801562000b7d57600080fd5b5062000491600c5481565b34801562000b9557600080fd5b506200050862000ba7366004620038a8565b62002596565b34801562000bba57600080fd5b506200050862000bcc3660046200356b565b62002615565b34801562000bdf57600080fd5b506200057b62000bf13660046200356b565b6001600160a01b039081166000908152602560205260409020541690565b34801562000c1c57600080fd5b506200049162000c2e3660046200356b565b62002641565b34801562000c4157600080fd5b5062000508620026c6565b34801562000c5957600080fd5b5062000c7162000c6b36600462003504565b62002736565b604080516001600160a01b0390931683526020830191909152016200049b565b34801562000c9e57600080fd5b50620005476200276f565b34801562000cb657600080fd5b506200054762000cc836600462003504565b6200277e565b34801562000cdb57600080fd5b506200050862000ced3660046200356b565b62002866565b34801562000d0057600080fd5b506200049160175481565b34801562000d1857600080fd5b506200057b62000d2a3660046200356b565b6025602052600090815260409020546001600160a01b031681565b34801562000d5257600080fd5b5062000491600d5481565b34801562000d6a57600080fd5b50601a546200057b906001600160a01b031681565b34801562000d8c57600080fd5b506200049162000d9e3660046200356b565b6001600160a01b031660009081526022602052604090205490565b34801562000dc657600080fd5b50620004c962000dd836600462003931565b62002892565b34801562000deb57600080fd5b506200050862000dfd3660046200356b565b620028c0565b34801562000e1057600080fd5b506200050862000e223660046200356b565b620028ec565b34801562000e3557600080fd5b506200050862000e473660046200356b565b6200296b565b34801562000e5a57600080fd5b50601e546200057b906001600160a01b031681565b601d818154811062000e8057600080fd5b600091825260209091200154905081565b60006001600160e01b031982166380ac58cd60e01b148062000ec357506001600160e01b03198216635b5e139f60e01b145b8062000edf57506301ffc9a760e01b6001600160e01b03198316145b92915050565b601654600160a01b900460ff161562000f375760405162461bcd60e51b815260206004820152600f60248201526e39ba30ba3ab99034b99032b93937b960891b60448201526064015b60405180910390fd5b3360009081526023602052604090205460ff161562000f905760405162461bcd60e51b81526020600482015260146024820152731e5bdd48185b1c9958591e481a185d994811925160621b604482015260640162000f2e565b6016546040516370a0823160e01b81523360048201526001600160a01b03909116906370a0823190602401602060405180830381865afa15801562000fd9573d6000803e3d6000fd5b505050506040513d601f19601f8201168201806040525081019062000fff919062003964565b600003620010475760405162461bcd60e51b81526020600482015260146024820152731e5bdd481a185d995b89dd081c185cdcdc1bdc9d60621b604482015260640162000f2e565b600a5460405163dcca375560e01b81523360048201526000916001600160a01b03169063dcca375590602401602060405180830381865afa15801562001091573d6000803e3d6000fd5b505050506040513d601f19601f82011682018060405250810190620010b791906200397e565b600a5460405163dcca375560e01b81526001600160a01b0380841660048301529293506000929091169063dcca375590602401602060405180830381865afa15801562001108573d6000803e3d6000fd5b505050506040513d601f19601f820116820180604052508101906200112e91906200397e565b600a5460405163dcca375560e01b81526001600160a01b0380841660048301529293506000929091169063dcca375590602401602060405180830381865afa1580156200117f573d6000803e3d6000fd5b505050506040513d601f19601f82011682018060405250810190620011a591906200397e565b601654909150600160a81b900460ff161562001800576000601054600c54601754620011d29190620039b4565b620011de9190620039ce565b90506000601054600d54601754620011f79190620039b4565b620012039190620039ce565b90506000601054600e546017546200121c9190620039b4565b620012289190620039ce565b90506000601054600f54601754620012419190620039b4565b6200124d9190620039ce565b905034600003620013df576001600160a01b038716158015906200127957506001600160a01b03861615155b80156200128e57506001600160a01b03851615155b156200137757601854601954620012b5916001600160a01b03908116913391168762002997565b601854620012cf906001600160a01b031633898662002997565b601854620012e9906001600160a01b031633888562002997565b60185462001303906001600160a01b031633878462002997565b601a54604051635d413ce560e11b815260056004820152336024820152604481018690526001600160a01b039091169063ba8279ca906064015b600060405180830381600087803b1580156200135857600080fd5b505af11580156200136d573d6000803e3d6000fd5b50505050620017fb565b6018546019546017546200139c926001600160a01b0390811692339291169062002997565b601a54601754604051635d413ce560e11b81526005600482015233602482015260448101919091526001600160a01b039091169063ba8279ca906064016200133d565b6017543414620014325760405162461bcd60e51b815260206004820152601f60248201527f70726f7669646520746865206572726f72206e756d626572206f6e2045544800604482015260640162000f2e565b601860009054906101000a90046001600160a01b03166001600160a01b031663d0e30db06017546040518263ffffffff1660e01b81526004016000604051808303818588803b1580156200148557600080fd5b505af11580156200149a573d6000803e3d6000fd5b50505050506001600160a01b03871615801590620014c057506001600160a01b03861615155b8015620014d557506001600160a01b03851615155b15620017085760185460195460405163a9059cbb60e01b81526001600160a01b0391821660048201526024810187905291169063a9059cbb906044016020604051808303816000875af115801562001531573d6000803e3d6000fd5b505050506040513d601f19601f82011682018060405250810190620015579190620039f1565b5060185460405163a9059cbb60e01b81526001600160a01b038981166004830152602482018690529091169063a9059cbb906044016020604051808303816000875af1158015620015ac573d6000803e3d6000fd5b505050506040513d601f19601f82011682018060405250810190620015d29190620039f1565b5060185460405163a9059cbb60e01b81526001600160a01b038881166004830152602482018590529091169063a9059cbb906044016020604051808303816000875af115801562001627573d6000803e3d6000fd5b505050506040513d601f19601f820116820180604052508101906200164d9190620039f1565b5060185460405163a9059cbb60e01b81526001600160a01b038781166004830152602482018490529091169063a9059cbb906044016020604051808303816000875af1158015620016a2573d6000803e3d6000fd5b505050506040513d601f19601f82011682018060405250810190620016c89190620039f1565b50601a54604051635d413ce560e11b815260056004820152336024820152604481018690526001600160a01b039091169063ba8279ca906064016200133d565b60185460195460175460405163a9059cbb60e01b81526001600160a01b039283166004820152602481019190915291169063a9059cbb906044016020604051808303816000875af115801562001762573d6000803e3d6000fd5b505050506040513d601f19601f82011682018060405250810190620017889190620039f1565b50601a54601754604051635d413ce560e11b81526005600482015233602482015260448101919091526001600160a01b039091169063ba8279ca90606401600060405180830381600087803b158015620017e157600080fd5b505af1158015620017f6573d6000803e3d6000fd5b505050505b505050505b600a54604051638c7b8d7760e01b815233600482015260248101869052600160448201526001600160a01b0390911690638c7b8d7790606401600060405180830381600087803b1580156200185457600080fd5b505af115801562001869573d6000803e3d6000fd5b505050506200187b33600b5462002ad1565b601f805460018181019092557fa03837a25210ee280c2113ff4b77ca23440b19d4866cca721c801278fd08d8070180546001600160a01b03191633908117909155600b5460008281526022602090815260408083209390935560239052818120805460ff1916909417909355513090620018f590620034f6565b6001600160a01b03928316815291166020820152604001604051809103906000f08015801562001929573d6000803e3d6000fd5b503360009081526025602052604080822080546001600160a01b0319166001600160a01b0385811691909117909155858116835291205491925016158015906200198c57506001600160a01b038381166000908152602560205260409020541615155b8015620019b257506001600160a01b038481166000908152602560205260409020541615155b1562001bfc57601e546001600160a01b03858116600090815260256020526040902054601054601254601154948416946340c10f19949390931692620019f99190620039b4565b62001a059190620039ce565b62001a1990670de0b6b3a7640000620039b4565b6040516001600160e01b031960e085901b1681526001600160a01b0390921660048301526024820152604401600060405180830381600087803b15801562001a6057600080fd5b505af115801562001a75573d6000803e3d6000fd5b5050601e546001600160a01b0386811660009081526025602052604090205460105460135460115494841696506340c10f199550919092169262001aba9190620039b4565b62001ac69190620039ce565b62001ada90670de0b6b3a7640000620039b4565b6040516001600160e01b031960e085901b1681526001600160a01b0390921660048301526024820152604401600060405180830381600087803b15801562001b2157600080fd5b505af115801562001b36573d6000803e3d6000fd5b5050601e546001600160a01b0385811660009081526025602052604090205460105460145460115494841696506340c10f199550919092169262001b7b9190620039b4565b62001b879190620039ce565b62001b9b90670de0b6b3a7640000620039b4565b6040516001600160e01b031960e085901b1681526001600160a01b0390921660048301526024820152604401600060405180830381600087803b15801562001be257600080fd5b505af115801562001bf7573d6000803e3d6000fd5b505050505b600b805490600062001c0e8362003a11565b91905055505050505050565b62001c2462002c62565b600a80546001600160a01b0319166001600160a01b0392909216919091179055565b60606000805462001c579062003a2d565b80601f016020809104026020016040519081016040528092919081815260200182805462001c859062003a2d565b801562001cd65780601f1062001caa5761010080835404028352916020019162001cd6565b820191906000526020600020905b81548152906001019060200180831162001cb857829003601f168201915b5050505050905090565b600062001ced8262002cbe565b506000908152600460205260409020546001600160a01b031690565b6015818154811062001d1a57600080fd5b6000918252602090912001546001600160a01b0316905081565b600062001d4182620020b5565b9050806001600160a01b0316836001600160a01b03160362001db05760405162461bcd60e51b815260206004820152602160248201527f4552433732313a20617070726f76616c20746f2063757272656e74206f776e656044820152603960f91b606482015260840162000f2e565b336001600160a01b038216148062001dcf575062001dcf813362002892565b62001e435760405162461bcd60e51b815260206004820152603d60248201527f4552433732313a20617070726f76652063616c6c6572206973206e6f7420746f60448201527f6b656e206f776e6572206f7220617070726f76656420666f7220616c6c000000606482015260840162000f2e565b62001e4f838362002d1f565b505050565b6001600160a01b0383163314801562001e7557506001600160a01b03821633145b62001e945760405162461bcd60e51b815260040162000f2e9062003a69565b62001ea0338262002d8f565b62001ebf5760405162461bcd60e51b815260040162000f2e9062003aa0565b62001e4f83838362002df6565b62001ed662002c62565b60005b815181101562001fcf576021600083838151811062001efc5762001efc62003aee565b6020908102919091018101516001600160a01b031682528101919091526040016000205460ff1662001f425760405162461bcd60e51b815260040162000f2e9062003b04565b6021600083838151811062001f5b5762001f5b62003aee565b60200260200101516001600160a01b03166001600160a01b0316815260200190815260200160002060006101000a81549060ff021916905562001fba82828151811062001fac5762001fac62003aee565b602002602001015162002f66565b8062001fc68162003a11565b91505062001ed9565b5050565b6024602052816000526040600020818154811062001ff057600080fd5b90600052602060002001600091509150505481565b6200200f62002c62565b601155565b6200201e62002c62565b601b80546001600160a01b0319166001600160a01b0392909216919091179055565b6001600160a01b038316331480156200206157506001600160a01b03821633145b620020805760405162461bcd60e51b815260040162000f2e9062003a69565b62001e4f8383836040518060200160405280600081525062002596565b620020a762002c62565b600862001fcf828262003b85565b6000818152600260205260408120546001600160a01b03168062000edf5760405162461bcd60e51b8152602060048201526018602482015277115490cdcc8c4e881a5b9d985b1a59081d1bdad95b88125160421b604482015260640162000f2e565b6200212162002c62565b806200212e838562003c52565b6200213a919062003c52565b6064146200215c5760405162461bcd60e51b815260040162000f2e9062003b04565b600f92909255600e55600d55565b6200217462002c62565b601755565b60088054620021889062003a2d565b80601f0160208091040260200160405190810160405280929190818152602001828054620021b69062003a2d565b8015620022075780601f10620021db5761010080835404028352916020019162002207565b820191906000526020600020905b815481529060010190602001808311620021e957829003601f168201915b505050505081565b60006001600160a01b0382166200227b5760405162461bcd60e51b815260206004820152602960248201527f4552433732313a2061646472657373207a65726f206973206e6f7420612076616044820152683634b21037bbb732b960b91b606482015260840162000f2e565b506001600160a01b031660009081526003602052604090205490565b620022a162002c62565b620022ad60006200308a565b565b620022b962002c62565b60005b815181101562001fcf5760216000838381518110620022df57620022df62003aee565b6020908102919091018101516001600160a01b031682528101919091526040016000205460ff1615620023265760405162461bcd60e51b815260040162000f2e9062003b04565b6200234d8282815181106200233f576200233f62003aee565b6020026020010151620030dc565b60016021600084848151811062002368576200236862003aee565b60200260200101516001600160a01b03166001600160a01b0316815260200190815260200160002060006101000a81548160ff02191690831515021790555060006040518060400160405280336001600160a01b03168152602001620023ce3362002641565b905260208054600181018255600082905282517fc97bfaf2f8ee708c303a06d134f5ecd8389ae0432af62dc132a24118292866bb600290920291820180546001600160a01b0319166001600160a01b039092169190911790559101517fc97bfaf2f8ee708c303a06d134f5ecd8389ae0432af62dc132a24118292866bc9091015550806200245c8162003a11565b915050620022bc565b6200246f62002c62565b806200247c838562003c52565b62002488919062003c52565b606414620024aa5760405162461bcd60e51b815260040162000f2e9062003b04565b601292909255601355601455565b60606001805462001c579062003a2d565b620024d362002c62565b6016805460ff60a81b198116600160a81b9182900460ff1615909102179055565b620024fe62002c62565b6001600160a01b038116620025455760405162461bcd60e51b815260206004820152600c60248201526b6661696c2073657474696e6760a01b604482015260640162000f2e565b600780546001600160a01b0319166001600160a01b0392909216919091179055565b62001fcf33838362003154565b601c818154811062001d1a57600080fd5b601f818154811062001d1a57600080fd5b6001600160a01b03841633148015620025b757506001600160a01b03831633145b620025d65760405162461bcd60e51b815260040162000f2e9062003a69565b620025e2338362002d8f565b620026015760405162461bcd60e51b815260040162000f2e9062003aa0565b6200260f8484848462003224565b50505050565b6200261f62002c62565b601880546001600160a01b0319166001600160a01b0392909216919091179055565b600754604051630cacd00160e11b81526001600160a01b0383811660048301526000928392911690631959a00290602401600060405180830381865afa15801562002690573d6000803e3d6000fd5b505050506040513d6000823e601f3d908101601f19168201604052620026ba919081019062003cb4565b50929695505050505050565b601b546001600160a01b03163314620027155760405162461bcd60e51b815260206004820152601060248201526f30b2323932b9b99034b99032b93937b960811b604482015260640162000f2e565b6016805460ff60a01b198116600160a01b9182900460ff1615909102179055565b602081815481106200274757600080fd5b6000918252602090912060029091020180546001909101546001600160a01b03909116915082565b60098054620021889062003a2d565b6000818152600260205260409020546060906001600160a01b0316620027ff5760405162461bcd60e51b815260206004820152602f60248201527f4552433732314d657461646174613a2055524920717565727920666f72206e6f60448201526e3732bc34b9ba32b73a103a37b5b2b760891b606482015260840162000f2e565b60006200280b6200325e565b905060008151116200282d57604051806020016040528060008152506200285f565b8062002839846200326f565b60096040516020016200284f9392919062003d48565b6040516020818303038152906040525b9392505050565b6200287062002c62565b601e80546001600160a01b0319166001600160a01b0392909216919091179055565b6001600160a01b03918216600090815260056020908152604080832093909416825291909152205460ff1690565b620028ca62002c62565b601980546001600160a01b0319166001600160a01b0392909216919091179055565b620028f662002c62565b6001600160a01b0381166200295d5760405162461bcd60e51b815260206004820152602660248201527f4f776e61626c653a206e6577206f776e657220697320746865207a65726f206160448201526564647265737360d01b606482015260840162000f2e565b62002968816200308a565b50565b6200297562002c62565b601a80546001600160a01b0319166001600160a01b0392909216919091179055565b604080516001600160a01b0385811660248301528481166044830152606480830185905283518084039091018152608490920183526020820180516001600160e01b03166323b872dd60e01b1790529151600092839290881691620029fd919062003df4565b6000604051808303816000865af19150503d806000811462002a3c576040519150601f19603f3d011682016040523d82523d6000602084013e62002a41565b606091505b509150915081801562002a6f57508051158062002a6f57508080602001905181019062002a6f9190620039f1565b62002ac95760405162461bcd60e51b8152602060048201526024808201527f5472616e7366657248656c7065723a205452414e534645525f46524f4d5f46416044820152631253115160e21b606482015260840162000f2e565b505050505050565b6001600160a01b03821662002b295760405162461bcd60e51b815260206004820181905260248201527f4552433732313a206d696e7420746f20746865207a65726f2061646472657373604482015260640162000f2e565b6000818152600260205260409020546001600160a01b03161562002b905760405162461bcd60e51b815260206004820152601c60248201527f4552433732313a20746f6b656e20616c7265616479206d696e74656400000000604482015260640162000f2e565b6000818152600260205260409020546001600160a01b03161562002bf75760405162461bcd60e51b815260206004820152601c60248201527f4552433732313a20746f6b656e20616c7265616479206d696e74656400000000604482015260640162000f2e565b6001600160a01b038216600081815260036020908152604080832080546001019055848352600290915280822080546001600160a01b0319168417905551839291907fddf252ad1be2c89b69c2b068fc378daa952ba7f163c4a11628f55a4df523b3ef908290a45050565b6006546001600160a01b03163314620022ad5760405162461bcd60e51b815260206004820181905260248201527f4f776e61626c653a2063616c6c6572206973206e6f7420746865206f776e6572604482015260640162000f2e565b6000818152600260205260409020546001600160a01b0316620029685760405162461bcd60e51b8152602060048201526018602482015277115490cdcc8c4e881a5b9d985b1a59081d1bdad95b88125160421b604482015260640162000f2e565b600081815260046020526040902080546001600160a01b0319166001600160a01b038416908117909155819062002d5682620020b5565b6001600160a01b03167f8c5be1e5ebec7d5bd14f71427d1e84f3dd0314c0f7b2291e5b200ac8c7c3b92560405160405180910390a45050565b60008062002d9d83620020b5565b9050806001600160a01b0316846001600160a01b0316148062002dc7575062002dc7818562002892565b8062002dee5750836001600160a01b031662002de38462001ce0565b6001600160a01b0316145b949350505050565b826001600160a01b031662002e0b82620020b5565b6001600160a01b03161462002e345760405162461bcd60e51b815260040162000f2e9062003e12565b6001600160a01b03821662002e985760405162461bcd60e51b8152602060048201526024808201527f4552433732313a207472616e7366657220746f20746865207a65726f206164646044820152637265737360e01b606482015260840162000f2e565b826001600160a01b031662002ead82620020b5565b6001600160a01b03161462002ed65760405162461bcd60e51b815260040162000f2e9062003e12565b600081815260046020908152604080832080546001600160a01b03199081169091556001600160a01b0387811680865260038552838620805460001901905590871680865283862080546001019055868652600290945282852080549092168417909155905184937fddf252ad1be2c89b69c2b068fc378daa952ba7f163c4a11628f55a4df523b3ef91a4505050565b60005b60205481101562001fcf57816001600160a01b03166020828154811062002f945762002f9462003aee565b60009182526020909120600290910201546001600160a01b03160362003075576020805462002fc69060019062003e57565b8154811062002fd95762002fd962003aee565b90600052602060002090600202016020828154811062002ffd5762002ffd62003aee565b6000918252602091829020835460029092020180546001600160a01b0319166001600160a01b039092169190911781556001928301549201919091558054806200304b576200304b62003e6d565b60008281526020812060026000199093019283020180546001600160a01b03191681556001015590555b80620030818162003a11565b91505062002f69565b600680546001600160a01b038381166001600160a01b0319831681179093556040519116919082907f8be0079c531659141344cd1fd0a4f28419497f9722a3daafe3b4186f6b6457e090600090a35050565b60005b60205481101562001fcf576020818154811062003100576200310062003aee565b60009182526020909120600290910201546001600160a01b03908116908316036200313f5760405162461bcd60e51b815260040162000f2e9062003b04565b806200314b8162003a11565b915050620030df565b816001600160a01b0316836001600160a01b031603620031b75760405162461bcd60e51b815260206004820152601960248201527f4552433732313a20617070726f766520746f2063616c6c657200000000000000604482015260640162000f2e565b6001600160a01b03838116600081815260056020908152604080832094871680845294825291829020805460ff191686151590811790915591519182527f17307eab39ab6107e8899845ad3d59bd9653f200f220920489ca2b5937696c31910160405180910390a3505050565b6200323184848462002df6565b6200323f8484848462003309565b6200260f5760405162461bcd60e51b815260040162000f2e9062003e83565b60606008805462001c579062003a2d565b606060006200327e8362003417565b600101905060008167ffffffffffffffff811115620032a157620032a162003669565b6040519080825280601f01601f191660200182016040528015620032cc576020820181803683370190505b5090508181016020015b600019016f181899199a1a9b1b9c1cb0b131b232b360811b600a86061a8153600a8504945084620032d657509392505050565b60006001600160a01b0384163b156200340c57604051630a85bd0160e11b81526001600160a01b0385169063150b7a02906200335090339089908890889060040162003ed5565b6020604051808303816000875af19250505080156200338e575060408051601f3d908101601f191682019092526200338b9181019062003f14565b60015b620033f1573d808015620033bf576040519150601f19603f3d011682016040523d82523d6000602084013e620033c4565b606091505b508051600003620033e95760405162461bcd60e51b815260040162000f2e9062003e83565b805181602001fd5b6001600160e01b031916630a85bd0160e11b14905062002dee565b506001949350505050565b60008072184f03e93ff9f4daa797ed6e38ed64bf6a1f0160401b8310620034575772184f03e93ff9f4daa797ed6e38ed64bf6a1f0160401b830492506040015b6d04ee2d6d415b85acef8100000000831062003484576d04ee2d6d415b85acef8100000000830492506020015b662386f26fc100008310620034a357662386f26fc10000830492506010015b6305f5e1008310620034bc576305f5e100830492506008015b6127108310620034d157612710830492506004015b60648310620034e4576064830492506002015b600a831062000edf5760010192915050565b61016a8062003f3583390190565b6000602082840312156200351757600080fd5b5035919050565b6001600160e01b0319811681146200296857600080fd5b6000602082840312156200354857600080fd5b81356200285f816200351e565b6001600160a01b03811681146200296857600080fd5b6000602082840312156200357e57600080fd5b81356200285f8162003555565b60005b83811015620035a85781810151838201526020016200358e565b50506000910152565b60008151808452620035cb8160208601602086016200358b565b601f01601f19169290920160200192915050565b6020815260006200285f6020830184620035b1565b600080604083850312156200360857600080fd5b8235620036158162003555565b946020939093013593505050565b6000806000606084860312156200363957600080fd5b8335620036468162003555565b92506020840135620036588162003555565b929592945050506040919091013590565b634e487b7160e01b600052604160045260246000fd5b604051601f8201601f1916810167ffffffffffffffff81118282101715620036ab57620036ab62003669565b604052919050565b60006020808385031215620036c757600080fd5b823567ffffffffffffffff80821115620036e057600080fd5b818501915085601f830112620036f557600080fd5b8135818111156200370a576200370a62003669565b8060051b91506200371d8483016200367f565b81815291830184019184810190888411156200373857600080fd5b938501935b83851015620037665784359250620037558362003555565b82825293850193908501906200373d565b98975050505050505050565b600067ffffffffffffffff8211156200378f576200378f62003669565b50601f01601f191660200190565b6000620037b4620037ae8462003772565b6200367f565b9050828152838383011115620037c957600080fd5b828260208301376000602084830101529392505050565b600060208284031215620037f357600080fd5b813567ffffffffffffffff8111156200380b57600080fd5b8201601f810184136200381d57600080fd5b62002dee848235602084016200379d565b6000806000606084860312156200384457600080fd5b505081359360208301359350604090920135919050565b80151581146200296857600080fd5b600080604083850312156200387e57600080fd5b82356200388b8162003555565b915060208301356200389d816200385b565b809150509250929050565b60008060008060808587031215620038bf57600080fd5b8435620038cc8162003555565b93506020850135620038de8162003555565b925060408501359150606085013567ffffffffffffffff8111156200390257600080fd5b8501601f810187136200391457600080fd5b62003925878235602084016200379d565b91505092959194509250565b600080604083850312156200394557600080fd5b8235620039528162003555565b915060208301356200389d8162003555565b6000602082840312156200397757600080fd5b5051919050565b6000602082840312156200399157600080fd5b81516200285f8162003555565b634e487b7160e01b600052601160045260246000fd5b808202811582820484141762000edf5762000edf6200399e565b600082620039ec57634e487b7160e01b600052601260045260246000fd5b500490565b60006020828403121562003a0457600080fd5b81516200285f816200385b565b60006001820162003a265762003a266200399e565b5060010190565b600181811c9082168062003a4257607f821691505b60208210810362003a6357634e487b7160e01b600052602260045260246000fd5b50919050565b6020808252601e908201527f74686520464944206e6f7420746f207472616e73666572206f74686572730000604082015260600190565b6020808252602e908201527f4552433732313a2063616c6c6572206973206e6f7420746f6b656e206f776e6560408201526d1c881b9bdc88185c1c1c9bdd995960921b606082015260800190565b634e487b7160e01b600052603260045260246000fd5b60208082526019908201527f46697265536f756c3a20696e76616c69642073657474696e6700000000000000604082015260600190565b601f82111562001e4f57600081815260208120601f850160051c8101602086101562003b645750805b601f850160051c820191505b8181101562002ac95782815560010162003b70565b815167ffffffffffffffff81111562003ba25762003ba262003669565b62003bba8162003bb3845462003a2d565b8462003b3b565b602080601f83116001811462003bf2576000841562003bd95750858301515b600019600386901b1c1916600185901b17855562002ac9565b600085815260208120601f198616915b8281101562003c235788860151825594840194600190910190840162003c02565b508582101562003c425787850151600019600388901b60f8161c191681555b5050505050600190811b01905550565b8082018082111562000edf5762000edf6200399e565b600082601f83011262003c7a57600080fd5b815162003c8b620037ae8262003772565b81815284602083860101111562003ca157600080fd5b62002dee8260208301602087016200358b565b600080600080600060a0868803121562003ccd57600080fd5b85519450602086015162003ce18162003555565b604087015190945067ffffffffffffffff8082111562003d0057600080fd5b62003d0e89838a0162003c68565b9450606088015191508082111562003d2557600080fd5b5062003d348882890162003c68565b925050608086015190509295509295909350565b60008451602062003d5d8285838a016200358b565b85519184019162003d728184848a016200358b565b855492019160009062003d858162003a2d565b6001828116801562003da0576001811462003db65762003de4565b60ff198416875282151583028701945062003de4565b896000528560002060005b8481101562003ddc5781548982015290830190870162003dc1565b505082870194505b50929a9950505050505050505050565b6000825162003e088184602087016200358b565b9190910192915050565b60208082526025908201527f4552433732313a207472616e736665722066726f6d20696e636f72726563742060408201526437bbb732b960d91b606082015260800190565b8181038181111562000edf5762000edf6200399e565b634e487b7160e01b600052603160045260246000fd5b60208082526032908201527f4552433732313a207472616e7366657220746f206e6f6e20455243373231526560408201527131b2b4bb32b91034b6b83632b6b2b73a32b960711b606082015260800190565b6001600160a01b038581168252841660208201526040810183905260806060820181905260009062003f0a90830184620035b1565b9695505050505050565b60006020828403121562003f2757600080fd5b81516200285f816200351e56fe608060405234801561001057600080fd5b5060405161016a38038061016a83398101604081905261002f9161007c565b600080546001600160a01b039384166001600160a01b031991821617909155600180549290931691161790556100af565b80516001600160a01b038116811461007757600080fd5b919050565b6000806040838503121561008f57600080fd5b61009883610060565b91506100a660208401610060565b90509250929050565b60ad806100bd6000396000f3fe6080604052348015600f57600080fd5b506004361060325760003560e01c80638da5cb5b146037578063efc81a8c146065575b600080fd5b6000546049906001600160a01b031681565b6040516001600160a01b03909116815260200160405180910390f35b6001546049906001600160a01b03168156fea26469706673582212206c171182d747c8d0bd9c4e3654e58a56db1d2e309cf525671e2a6c9e562e7a5964736f6c63430008120033a2646970667358221220d71b8283717ff999a874b9565d3d4f6f177d441cf572af29a5919a56528c641164736f6c6343000812003368747470733a2f2f62616679626569646675356b6f747372327461703732706736757569707637796862343770636e7a6964637871737a67357a3276726577736463652e697066732e6e667473746f726167652e6c696e6b2f",
			"opcodes": "PUSH1 0xC0 PUSH1 0x40 MSTORE PUSH1 0x5 PUSH1 0x80 SWAP1 DUP2 MSTORE PUSH5 0x173539B7B7 PUSH1 0xD9 SHL PUSH1 0xA0 MSTORE PUSH1 0x9 SWAP1 PUSH3 0x26 SWAP1 DUP3 PUSH3 0x259 JUMP JUMPDEST POP CALLVALUE DUP1 ISZERO PUSH3 0x34 JUMPI PUSH1 0x0 DUP1 REVERT JUMPDEST POP PUSH1 0x40 MLOAD PUSH3 0x44C9 CODESIZE SUB DUP1 PUSH3 0x44C9 DUP4 CODECOPY DUP2 ADD PUSH1 0x40 DUP2 SWAP1 MSTORE PUSH3 0x57 SWAP2 PUSH3 0x342 JUMP JUMPDEST PUSH1 0x40 DUP1 MLOAD DUP1 DUP3 ADD DUP3 MSTORE PUSH1 0x8 DUP1 DUP3 MSTORE PUSH8 0x119A5C9954DBDD5B PUSH1 0xC2 SHL PUSH1 0x20 DUP1 DUP5 ADD DUP3 SWAP1 MSTORE DUP5 MLOAD DUP1 DUP7 ADD SWAP1 SWAP6 MSTORE SWAP2 DUP5 MSTORE SWAP1 DUP4 ADD MSTORE SWAP1 PUSH1 0x0 PUSH3 0x97 DUP4 DUP3 PUSH3 0x259 JUMP JUMPDEST POP PUSH1 0x1 PUSH3 0xA6 DUP3 DUP3 PUSH3 0x259 JUMP JUMPDEST POP POP POP PUSH3 0xC3 PUSH3 0xBD PUSH3 0x15E PUSH1 0x20 SHL PUSH1 0x20 SHR JUMP JUMPDEST PUSH3 0x162 JUMP JUMPDEST PUSH1 0x16 DUP1 SLOAD PUSH1 0x1 PUSH1 0x1 PUSH1 0xA0 SHL SUB DUP1 DUP6 AND PUSH1 0x1 PUSH1 0x1 PUSH1 0xA0 SHL SUB NOT SWAP3 DUP4 AND OR SWAP1 SWAP3 SSTORE PUSH1 0xA DUP1 SLOAD DUP7 DUP5 AND SWAP1 DUP4 AND OR DUP2 SSTORE PUSH1 0x18 DUP1 SLOAD SWAP4 DUP6 AND SWAP4 SWAP1 SWAP3 AND SWAP3 SWAP1 SWAP3 OR SWAP1 SSTORE PUSH1 0x64 PUSH1 0x10 SSTORE PUSH1 0x50 PUSH1 0xC SSTORE PUSH1 0xE PUSH1 0xD DUP2 SWAP1 SSTORE PUSH1 0x4 SWAP1 SSTORE PUSH1 0x2 PUSH1 0xF SSTORE PUSH1 0x11 DUP2 SWAP1 SSTORE PUSH1 0x46 PUSH1 0x12 SSTORE PUSH1 0x14 PUSH1 0x13 DUP2 SWAP1 SSTORE SSTORE PUSH1 0x40 DUP1 MLOAD PUSH1 0x80 DUP2 ADD SWAP1 SWAP2 MSTORE PUSH1 0x59 DUP1 DUP3 MSTORE PUSH3 0x4470 PUSH1 0x20 DUP4 ADD CODECOPY PUSH1 0x8 SWAP1 PUSH3 0x154 SWAP1 DUP3 PUSH3 0x259 JUMP JUMPDEST POP POP POP POP PUSH3 0x38C JUMP JUMPDEST CALLER SWAP1 JUMP JUMPDEST PUSH1 0x6 DUP1 SLOAD PUSH1 0x1 PUSH1 0x1 PUSH1 0xA0 SHL SUB DUP4 DUP2 AND PUSH1 0x1 PUSH1 0x1 PUSH1 0xA0 SHL SUB NOT DUP4 AND DUP2 OR SWAP1 SWAP4 SSTORE PUSH1 0x40 MLOAD SWAP2 AND SWAP2 SWAP1 DUP3 SWAP1 PUSH32 0x8BE0079C531659141344CD1FD0A4F28419497F9722A3DAAFE3B4186F6B6457E0 SWAP1 PUSH1 0x0 SWAP1 LOG3 POP POP JUMP JUMPDEST PUSH4 0x4E487B71 PUSH1 0xE0 SHL PUSH1 0x0 MSTORE PUSH1 0x41 PUSH1 0x4 MSTORE PUSH1 0x24 PUSH1 0x0 REVERT JUMPDEST PUSH1 0x1 DUP2 DUP2 SHR SWAP1 DUP3 AND DUP1 PUSH3 0x1DF JUMPI PUSH1 0x7F DUP3 AND SWAP2 POP JUMPDEST PUSH1 0x20 DUP3 LT DUP2 SUB PUSH3 0x200 JUMPI PUSH4 0x4E487B71 PUSH1 0xE0 SHL PUSH1 0x0 MSTORE PUSH1 0x22 PUSH1 0x4 MSTORE PUSH1 0x24 PUSH1 0x0 REVERT JUMPDEST POP SWAP2 SWAP1 POP JUMP JUMPDEST PUSH1 0x1F DUP3 GT ISZERO PUSH3 0x254 JUMPI PUSH1 0x0 DUP2 DUP2 MSTORE PUSH1 0x20 DUP2 KECCAK256 PUSH1 0x1F DUP6 ADD PUSH1 0x5 SHR DUP2 ADD PUSH1 0x20 DUP7 LT ISZERO PUSH3 0x22F JUMPI POP DUP1 JUMPDEST PUSH1 0x1F DUP6 ADD PUSH1 0x5 SHR DUP3 ADD SWAP2 POP JUMPDEST DUP2 DUP2 LT ISZERO PUSH3 0x250 JUMPI DUP3 DUP2 SSTORE PUSH1 0x1 ADD PUSH3 0x23B JUMP JUMPDEST POP POP POP JUMPDEST POP POP POP JUMP JUMPDEST DUP2 MLOAD PUSH1 0x1 PUSH1 0x1 PUSH1 0x40 SHL SUB DUP2 GT ISZERO PUSH3 0x275 JUMPI PUSH3 0x275 PUSH3 0x1B4 JUMP JUMPDEST PUSH3 0x28D DUP2 PUSH3 0x286 DUP5 SLOAD PUSH3 0x1CA JUMP JUMPDEST DUP5 PUSH3 0x206 JUMP JUMPDEST PUSH1 0x20 DUP1 PUSH1 0x1F DUP4 GT PUSH1 0x1 DUP2 EQ PUSH3 0x2C5 JUMPI PUSH1 0x0 DUP5 ISZERO PUSH3 0x2AC JUMPI POP DUP6 DUP4 ADD MLOAD JUMPDEST PUSH1 0x0 NOT PUSH1 0x3 DUP7 SWAP1 SHL SHR NOT AND PUSH1 0x1 DUP6 SWAP1 SHL OR DUP6 SSTORE PUSH3 0x250 JUMP JUMPDEST PUSH1 0x0 DUP6 DUP2 MSTORE PUSH1 0x20 DUP2 KECCAK256 PUSH1 0x1F NOT DUP7 AND SWAP2 JUMPDEST DUP3 DUP2 LT ISZERO PUSH3 0x2F6 JUMPI DUP9 DUP7 ADD MLOAD DUP3 SSTORE SWAP5 DUP5 ADD SWAP5 PUSH1 0x1 SWAP1 SWAP2 ADD SWAP1 DUP5 ADD PUSH3 0x2D5 JUMP JUMPDEST POP DUP6 DUP3 LT ISZERO PUSH3 0x315 JUMPI DUP8 DUP6 ADD MLOAD PUSH1 0x0 NOT PUSH1 0x3 DUP9 SWAP1 SHL PUSH1 0xF8 AND SHR NOT AND DUP2 SSTORE JUMPDEST POP POP POP POP POP PUSH1 0x1 SWAP1 DUP2 SHL ADD SWAP1 SSTORE POP JUMP JUMPDEST DUP1 MLOAD PUSH1 0x1 PUSH1 0x1 PUSH1 0xA0 SHL SUB DUP2 AND DUP2 EQ PUSH3 0x33D JUMPI PUSH1 0x0 DUP1 REVERT JUMPDEST SWAP2 SWAP1 POP JUMP JUMPDEST PUSH1 0x0 DUP1 PUSH1 0x0 PUSH1 0x60 DUP5 DUP7 SUB SLT ISZERO PUSH3 0x358 JUMPI PUSH1 0x0 DUP1 REVERT JUMPDEST PUSH3 0x363 DUP5 PUSH3 0x325 JUMP JUMPDEST SWAP3 POP PUSH3 0x373 PUSH1 0x20 DUP6 ADD PUSH3 0x325 JUMP JUMPDEST SWAP2 POP PUSH3 0x383 PUSH1 0x40 DUP6 ADD PUSH3 0x325 JUMP JUMPDEST SWAP1 POP SWAP3 POP SWAP3 POP SWAP3 JUMP JUMPDEST PUSH2 0x40D4 DUP1 PUSH3 0x39C PUSH1 0x0 CODECOPY PUSH1 0x0 RETURN INVALID PUSH1 0x80 PUSH1 0x40 MSTORE PUSH1 0x4 CALLDATASIZE LT PUSH3 0x467 JUMPI PUSH1 0x0 CALLDATALOAD PUSH1 0xE0 SHR DUP1 PUSH4 0x7EBABA90 GT PUSH3 0x24B JUMPI DUP1 PUSH4 0xB8D1452F GT PUSH3 0x13B JUMPI DUP1 PUSH4 0xE15658C7 GT PUSH3 0xB9 JUMPI DUP1 PUSH4 0xE985E9C5 GT PUSH3 0x84 JUMPI DUP1 PUSH4 0xE985E9C5 EQ PUSH3 0xDB9 JUMPI DUP1 PUSH4 0xEFDCD974 EQ PUSH3 0xDDE JUMPI DUP1 PUSH4 0xF2FDE38B EQ PUSH3 0xE03 JUMPI DUP1 PUSH4 0xFD4329F4 EQ PUSH3 0xE28 JUMPI DUP1 PUSH4 0xFFB0E20D EQ PUSH3 0xE4D JUMPI PUSH1 0x0 DUP1 REVERT JUMPDEST DUP1 PUSH4 0xE15658C7 EQ PUSH3 0xD0B JUMPI DUP1 PUSH4 0xE23767E2 EQ PUSH3 0xD45 JUMPI DUP1 PUSH4 0xE3840BC1 EQ PUSH3 0xD5D JUMPI DUP1 PUSH4 0xE75729F2 EQ PUSH3 0xD7F JUMPI PUSH1 0x0 DUP1 REVERT JUMPDEST DUP1 PUSH4 0xC56B7142 GT PUSH3 0x106 JUMPI DUP1 PUSH4 0xC56B7142 EQ PUSH3 0xC4C JUMPI DUP1 PUSH4 0xC6682862 EQ PUSH3 0xC91 JUMPI DUP1 PUSH4 0xC87B56DD EQ PUSH3 0xCA9 JUMPI DUP1 PUSH4 0xD9D518F3 EQ PUSH3 0xCCE JUMPI DUP1 PUSH4 0xDDCA3F43 EQ PUSH3 0xCF3 JUMPI PUSH1 0x0 DUP1 REVERT JUMPDEST DUP1 PUSH4 0xB8D1452F EQ PUSH3 0xBAD JUMPI DUP1 PUSH4 0xBE5F0CC9 EQ PUSH3 0xBD2 JUMPI DUP1 PUSH4 0xC0191114 EQ PUSH3 0xC0F JUMPI DUP1 PUSH4 0xC0336629 EQ PUSH3 0xC34 JUMPI PUSH1 0x0 DUP1 REVERT JUMPDEST DUP1 PUSH4 0x98BAD7E6 GT PUSH3 0x1C9 JUMPI DUP1 PUSH4 0xABBB376C GT PUSH3 0x194 JUMPI DUP1 PUSH4 0xABBB376C EQ PUSH3 0xB07 JUMPI DUP1 PUSH4 0xAC949C6F EQ PUSH3 0xB29 JUMPI DUP1 PUSH4 0xB3F00674 EQ PUSH3 0xB4E JUMPI DUP1 PUSH4 0xB83282DA EQ PUSH3 0xB70 JUMPI DUP1 PUSH4 0xB88D4FDE EQ PUSH3 0xB88 JUMPI PUSH1 0x0 DUP1 REVERT JUMPDEST DUP1 PUSH4 0x98BAD7E6 EQ PUSH3 0xA80 JUMPI DUP1 PUSH4 0x9BC8A9E4 EQ PUSH3 0xA98 JUMPI DUP1 PUSH4 0xA22CB465 EQ PUSH3 0xABD JUMPI DUP1 PUSH4 0xA269FBE5 EQ PUSH3 0xAE2 JUMPI PUSH1 0x0 DUP1 REVERT JUMPDEST DUP1 PUSH4 0x8AF668D5 GT PUSH3 0x216 JUMPI DUP1 PUSH4 0x8AF668D5 EQ PUSH3 0x9DB JUMPI DUP1 PUSH4 0x8D6EAF94 EQ PUSH3 0x9F3 JUMPI DUP1 PUSH4 0x8DA5CB5B EQ PUSH3 0xA0B JUMPI DUP1 PUSH4 0x91C71988 EQ PUSH3 0xA2B JUMPI DUP1 PUSH4 0x95D89B41 EQ PUSH3 0xA68 JUMPI PUSH1 0x0 DUP1 REVERT JUMPDEST DUP1 PUSH4 0x7EBABA90 EQ PUSH3 0x953 JUMPI DUP1 PUSH4 0x846218D9 EQ PUSH3 0x96A JUMPI DUP1 PUSH4 0x84EE66C0 EQ PUSH3 0x98F JUMPI DUP1 PUSH4 0x8AF4B86A EQ PUSH3 0x9A7 JUMPI PUSH1 0x0 DUP1 REVERT JUMPDEST DUP1 PUSH4 0x3C344CE1 GT PUSH3 0x367 JUMPI DUP1 PUSH4 0x64F0D7AF GT PUSH3 0x2E5 JUMPI DUP1 PUSH4 0x70A08231 GT PUSH3 0x2B0 JUMPI DUP1 PUSH4 0x70A08231 EQ PUSH3 0x8B7 JUMPI DUP1 PUSH4 0x715018A6 EQ PUSH3 0x8DC JUMPI DUP1 PUSH4 0x763D8C16 EQ PUSH3 0x8F4 JUMPI DUP1 PUSH4 0x775B9C13 EQ PUSH3 0x90C JUMPI DUP1 PUSH4 0x7B4392CB EQ PUSH3 0x931 JUMPI PUSH1 0x0 DUP1 REVERT JUMPDEST DUP1 PUSH4 0x64F0D7AF EQ PUSH3 0x83D JUMPI DUP1 PUSH4 0x66B5BAF6 EQ PUSH3 0x855 JUMPI DUP1 PUSH4 0x69FE0E2D EQ PUSH3 0x87A JUMPI DUP1 PUSH4 0x6C0360EB EQ PUSH3 0x89F JUMPI PUSH1 0x0 DUP1 REVERT JUMPDEST DUP1 PUSH4 0x42842E0E GT PUSH3 0x332 JUMPI DUP1 PUSH4 0x42842E0E EQ PUSH3 0x793 JUMPI DUP1 PUSH4 0x444D57B1 EQ PUSH3 0x7B8 JUMPI DUP1 PUSH4 0x4F335D0A EQ PUSH3 0x7D0 JUMPI DUP1 PUSH4 0x55F804B3 EQ PUSH3 0x7F3 JUMPI DUP1 PUSH4 0x6352211E EQ PUSH3 0x818 JUMPI PUSH1 0x0 DUP1 REVERT JUMPDEST DUP1 PUSH4 0x3C344CE1 EQ PUSH3 0x710 JUMPI DUP1 PUSH4 0x3D18651E EQ PUSH3 0x741 JUMPI DUP1 PUSH4 0x3D923B9E EQ PUSH3 0x759 JUMPI DUP1 PUSH4 0x3FC8CEF3 EQ PUSH3 0x771 JUMPI PUSH1 0x0 DUP1 REVERT JUMPDEST DUP1 PUSH4 0x95EA7B3 GT PUSH3 0x3F5 JUMPI DUP1 PUSH4 0x23B872DD GT PUSH3 0x3C0 JUMPI DUP1 PUSH4 0x23B872DD EQ PUSH3 0x657 JUMPI DUP1 PUSH4 0x2D871B73 EQ PUSH3 0x67C JUMPI DUP1 PUSH4 0x2E082D5C EQ PUSH3 0x6A1 JUMPI DUP1 PUSH4 0x2FF066BE EQ PUSH3 0x6C6 JUMPI DUP1 PUSH4 0x34B999D0 EQ PUSH3 0x6EB JUMPI PUSH1 0x0 DUP1 REVERT JUMPDEST DUP1 PUSH4 0x95EA7B3 EQ PUSH3 0x5B9 JUMPI DUP1 PUSH4 0xB6B9D77 EQ PUSH3 0x5DE JUMPI DUP1 PUSH4 0xBFC24F8 EQ PUSH3 0x612 JUMPI DUP1 PUSH4 0x200D2ED2 EQ PUSH3 0x634 JUMPI PUSH1 0x0 DUP1 REVERT JUMPDEST DUP1 PUSH4 0x6DD6060 GT PUSH3 0x436 JUMPI DUP1 PUSH4 0x6DD6060 EQ PUSH3 0x50A JUMPI DUP1 PUSH4 0x6FDDE03 EQ PUSH3 0x52F JUMPI DUP1 PUSH4 0x81812FC EQ PUSH3 0x556 JUMPI DUP1 PUSH4 0x88572CC EQ PUSH3 0x594 JUMPI PUSH1 0x0 DUP1 REVERT JUMPDEST DUP1 PUSH4 0x1AF001D EQ PUSH3 0x46C JUMPI DUP1 PUSH4 0x1FFC9A7 EQ PUSH3 0x4A4 JUMPI DUP1 PUSH4 0x26FE9F2 EQ PUSH3 0x4DA JUMPI DUP1 PUSH4 0x5737AAE EQ PUSH3 0x4F1 JUMPI JUMPDEST PUSH1 0x0 DUP1 REVERT JUMPDEST CALLVALUE DUP1 ISZERO PUSH3 0x479 JUMPI PUSH1 0x0 DUP1 REVERT JUMPDEST POP PUSH3 0x491 PUSH3 0x48B CALLDATASIZE PUSH1 0x4 PUSH3 0x3504 JUMP JUMPDEST PUSH3 0xE6F JUMP JUMPDEST PUSH1 0x40 MLOAD SWAP1 DUP2 MSTORE PUSH1 0x20 ADD JUMPDEST PUSH1 0x40 MLOAD DUP1 SWAP2 SUB SWAP1 RETURN JUMPDEST CALLVALUE DUP1 ISZERO PUSH3 0x4B1 JUMPI PUSH1 0x0 DUP1 REVERT JUMPDEST POP PUSH3 0x4C9 PUSH3 0x4C3 CALLDATASIZE PUSH1 0x4 PUSH3 0x3535 JUMP JUMPDEST PUSH3 0xE91 JUMP JUMPDEST PUSH1 0x40 MLOAD SWAP1 ISZERO ISZERO DUP2 MSTORE PUSH1 0x20 ADD PUSH3 0x49B JUMP JUMPDEST CALLVALUE DUP1 ISZERO PUSH3 0x4E7 JUMPI PUSH1 0x0 DUP1 REVERT JUMPDEST POP PUSH1 0x1F SLOAD PUSH3 0x491 JUMP JUMPDEST PUSH3 0x508 PUSH3 0x502 CALLDATASIZE PUSH1 0x4 PUSH3 0x3504 JUMP JUMPDEST PUSH3 0xEE5 JUMP JUMPDEST STOP JUMPDEST CALLVALUE DUP1 ISZERO PUSH3 0x517 JUMPI PUSH1 0x0 DUP1 REVERT JUMPDEST POP PUSH3 0x508 PUSH3 0x529 CALLDATASIZE PUSH1 0x4 PUSH3 0x356B JUMP JUMPDEST PUSH3 0x1C1A JUMP JUMPDEST CALLVALUE DUP1 ISZERO PUSH3 0x53C JUMPI PUSH1 0x0 DUP1 REVERT JUMPDEST POP PUSH3 0x547 PUSH3 0x1C46 JUMP JUMPDEST PUSH1 0x40 MLOAD PUSH3 0x49B SWAP2 SWAP1 PUSH3 0x35DF JUMP JUMPDEST CALLVALUE DUP1 ISZERO PUSH3 0x563 JUMPI PUSH1 0x0 DUP1 REVERT JUMPDEST POP PUSH3 0x57B PUSH3 0x575 CALLDATASIZE PUSH1 0x4 PUSH3 0x3504 JUMP JUMPDEST PUSH3 0x1CE0 JUMP JUMPDEST PUSH1 0x40 MLOAD PUSH1 0x1 PUSH1 0x1 PUSH1 0xA0 SHL SUB SWAP1 SWAP2 AND DUP2 MSTORE PUSH1 0x20 ADD PUSH3 0x49B JUMP JUMPDEST CALLVALUE DUP1 ISZERO PUSH3 0x5A1 JUMPI PUSH1 0x0 DUP1 REVERT JUMPDEST POP PUSH3 0x57B PUSH3 0x5B3 CALLDATASIZE PUSH1 0x4 PUSH3 0x3504 JUMP JUMPDEST PUSH3 0x1D09 JUMP JUMPDEST CALLVALUE DUP1 ISZERO PUSH3 0x5C6 JUMPI PUSH1 0x0 DUP1 REVERT JUMPDEST POP PUSH3 0x508 PUSH3 0x5D8 CALLDATASIZE PUSH1 0x4 PUSH3 0x35F4 JUMP JUMPDEST PUSH3 0x1D34 JUMP JUMPDEST CALLVALUE DUP1 ISZERO PUSH3 0x5EB JUMPI PUSH1 0x0 DUP1 REVERT JUMPDEST POP PUSH3 0x4C9 PUSH3 0x5FD CALLDATASIZE PUSH1 0x4 PUSH3 0x356B JUMP JUMPDEST PUSH1 0x23 PUSH1 0x20 MSTORE PUSH1 0x0 SWAP1 DUP2 MSTORE PUSH1 0x40 SWAP1 KECCAK256 SLOAD PUSH1 0xFF AND DUP2 JUMP JUMPDEST CALLVALUE DUP1 ISZERO PUSH3 0x61F JUMPI PUSH1 0x0 DUP1 REVERT JUMPDEST POP PUSH1 0x1B SLOAD PUSH3 0x57B SWAP1 PUSH1 0x1 PUSH1 0x1 PUSH1 0xA0 SHL SUB AND DUP2 JUMP JUMPDEST CALLVALUE DUP1 ISZERO PUSH3 0x641 JUMPI PUSH1 0x0 DUP1 REVERT JUMPDEST POP PUSH1 0x16 SLOAD PUSH3 0x4C9 SWAP1 PUSH1 0x1 PUSH1 0xA0 SHL SWAP1 DIV PUSH1 0xFF AND DUP2 JUMP JUMPDEST CALLVALUE DUP1 ISZERO PUSH3 0x664 JUMPI PUSH1 0x0 DUP1 REVERT JUMPDEST POP PUSH3 0x508 PUSH3 0x676 CALLDATASIZE PUSH1 0x4 PUSH3 0x3623 JUMP JUMPDEST PUSH3 0x1E54 JUMP JUMPDEST CALLVALUE DUP1 ISZERO PUSH3 0x689 JUMPI PUSH1 0x0 DUP1 REVERT JUMPDEST POP PUSH3 0x508 PUSH3 0x69B CALLDATASIZE PUSH1 0x4 PUSH3 0x36B3 JUMP JUMPDEST PUSH3 0x1ECC JUMP JUMPDEST CALLVALUE DUP1 ISZERO PUSH3 0x6AE JUMPI PUSH1 0x0 DUP1 REVERT JUMPDEST POP PUSH3 0x491 PUSH3 0x6C0 CALLDATASIZE PUSH1 0x4 PUSH3 0x35F4 JUMP JUMPDEST PUSH3 0x1FD3 JUMP JUMPDEST CALLVALUE DUP1 ISZERO PUSH3 0x6D3 JUMPI PUSH1 0x0 DUP1 REVERT JUMPDEST POP PUSH3 0x508 PUSH3 0x6E5 CALLDATASIZE PUSH1 0x4 PUSH3 0x3504 JUMP JUMPDEST PUSH3 0x2005 JUMP JUMPDEST CALLVALUE DUP1 ISZERO PUSH3 0x6F8 JUMPI PUSH1 0x0 DUP1 REVERT JUMPDEST POP PUSH3 0x508 PUSH3 0x70A CALLDATASIZE PUSH1 0x4 PUSH3 0x356B JUMP JUMPDEST PUSH3 0x2014 JUMP JUMPDEST CALLVALUE DUP1 ISZERO PUSH3 0x71D JUMPI PUSH1 0x0 DUP1 REVERT JUMPDEST POP PUSH3 0x491 PUSH3 0x72F CALLDATASIZE PUSH1 0x4 PUSH3 0x356B JUMP JUMPDEST PUSH1 0x22 PUSH1 0x20 MSTORE PUSH1 0x0 SWAP1 DUP2 MSTORE PUSH1 0x40 SWAP1 KECCAK256 SLOAD DUP2 JUMP JUMPDEST CALLVALUE DUP1 ISZERO PUSH3 0x74E JUMPI PUSH1 0x0 DUP1 REVERT JUMPDEST POP PUSH3 0x491 PUSH1 0x10 SLOAD DUP2 JUMP JUMPDEST CALLVALUE DUP1 ISZERO PUSH3 0x766 JUMPI PUSH1 0x0 DUP1 REVERT JUMPDEST POP PUSH3 0x491 PUSH1 0x14 SLOAD DUP2 JUMP JUMPDEST CALLVALUE DUP1 ISZERO PUSH3 0x77E JUMPI PUSH1 0x0 DUP1 REVERT JUMPDEST POP PUSH1 0x18 SLOAD PUSH3 0x57B SWAP1 PUSH1 0x1 PUSH1 0x1 PUSH1 0xA0 SHL SUB AND DUP2 JUMP JUMPDEST CALLVALUE DUP1 ISZERO PUSH3 0x7A0 JUMPI PUSH1 0x0 DUP1 REVERT JUMPDEST POP PUSH3 0x508 PUSH3 0x7B2 CALLDATASIZE PUSH1 0x4 PUSH3 0x3623 JUMP JUMPDEST PUSH3 0x2040 JUMP JUMPDEST CALLVALUE DUP1 ISZERO PUSH3 0x7C5 JUMPI PUSH1 0x0 DUP1 REVERT JUMPDEST POP PUSH3 0x491 PUSH1 0x13 SLOAD DUP2 JUMP JUMPDEST CALLVALUE DUP1 ISZERO PUSH3 0x7DD JUMPI PUSH1 0x0 DUP1 REVERT JUMPDEST POP PUSH1 0x16 SLOAD PUSH3 0x4C9 SWAP1 PUSH1 0x1 PUSH1 0xA8 SHL SWAP1 DIV PUSH1 0xFF AND DUP2 JUMP JUMPDEST CALLVALUE DUP1 ISZERO PUSH3 0x800 JUMPI PUSH1 0x0 DUP1 REVERT JUMPDEST POP PUSH3 0x508 PUSH3 0x812 CALLDATASIZE PUSH1 0x4 PUSH3 0x37E0 JUMP JUMPDEST PUSH3 0x209D JUMP JUMPDEST CALLVALUE DUP1 ISZERO PUSH3 0x825 JUMPI PUSH1 0x0 DUP1 REVERT JUMPDEST POP PUSH3 0x57B PUSH3 0x837 CALLDATASIZE PUSH1 0x4 PUSH3 0x3504 JUMP JUMPDEST PUSH3 0x20B5 JUMP JUMPDEST CALLVALUE DUP1 ISZERO PUSH3 0x84A JUMPI PUSH1 0x0 DUP1 REVERT JUMPDEST POP PUSH3 0x491 PUSH1 0x11 SLOAD DUP2 JUMP JUMPDEST CALLVALUE DUP1 ISZERO PUSH3 0x862 JUMPI PUSH1 0x0 DUP1 REVERT JUMPDEST POP PUSH3 0x508 PUSH3 0x874 CALLDATASIZE PUSH1 0x4 PUSH3 0x382E JUMP JUMPDEST PUSH3 0x2117 JUMP JUMPDEST CALLVALUE DUP1 ISZERO PUSH3 0x887 JUMPI PUSH1 0x0 DUP1 REVERT JUMPDEST POP PUSH3 0x508 PUSH3 0x899 CALLDATASIZE PUSH1 0x4 PUSH3 0x3504 JUMP JUMPDEST PUSH3 0x216A JUMP JUMPDEST CALLVALUE DUP1 ISZERO PUSH3 0x8AC JUMPI PUSH1 0x0 DUP1 REVERT JUMPDEST POP PUSH3 0x547 PUSH3 0x2179 JUMP JUMPDEST CALLVALUE DUP1 ISZERO PUSH3 0x8C4 JUMPI PUSH1 0x0 DUP1 REVERT JUMPDEST POP PUSH3 0x491 PUSH3 0x8D6 CALLDATASIZE PUSH1 0x4 PUSH3 0x356B JUMP JUMPDEST PUSH3 0x220F JUMP JUMPDEST CALLVALUE DUP1 ISZERO PUSH3 0x8E9 JUMPI PUSH1 0x0 DUP1 REVERT JUMPDEST POP PUSH3 0x508 PUSH3 0x2297 JUMP JUMPDEST CALLVALUE DUP1 ISZERO PUSH3 0x901 JUMPI PUSH1 0x0 DUP1 REVERT JUMPDEST POP PUSH3 0x491 PUSH1 0xB SLOAD DUP2 JUMP JUMPDEST CALLVALUE DUP1 ISZERO PUSH3 0x919 JUMPI PUSH1 0x0 DUP1 REVERT JUMPDEST POP PUSH3 0x508 PUSH3 0x92B CALLDATASIZE PUSH1 0x4 PUSH3 0x36B3 JUMP JUMPDEST PUSH3 0x22AF JUMP JUMPDEST CALLVALUE DUP1 ISZERO PUSH3 0x93E JUMPI PUSH1 0x0 DUP1 REVERT JUMPDEST POP PUSH1 0x16 SLOAD PUSH3 0x57B SWAP1 PUSH1 0x1 PUSH1 0x1 PUSH1 0xA0 SHL SUB AND DUP2 JUMP JUMPDEST CALLVALUE DUP1 ISZERO PUSH3 0x960 JUMPI PUSH1 0x0 DUP1 REVERT JUMPDEST POP PUSH1 0x20 SLOAD PUSH3 0x491 JUMP JUMPDEST CALLVALUE DUP1 ISZERO PUSH3 0x977 JUMPI PUSH1 0x0 DUP1 REVERT JUMPDEST POP PUSH3 0x508 PUSH3 0x989 CALLDATASIZE PUSH1 0x4 PUSH3 0x382E JUMP JUMPDEST PUSH3 0x2465 JUMP JUMPDEST CALLVALUE DUP1 ISZERO PUSH3 0x99C JUMPI PUSH1 0x0 DUP1 REVERT JUMPDEST POP PUSH3 0x491 PUSH1 0x12 SLOAD DUP2 JUMP JUMPDEST CALLVALUE DUP1 ISZERO PUSH3 0x9B4 JUMPI PUSH1 0x0 DUP1 REVERT JUMPDEST POP PUSH3 0x4C9 PUSH3 0x9C6 CALLDATASIZE PUSH1 0x4 PUSH3 0x356B JUMP JUMPDEST PUSH1 0x21 PUSH1 0x20 MSTORE PUSH1 0x0 SWAP1 DUP2 MSTORE PUSH1 0x40 SWAP1 KECCAK256 SLOAD PUSH1 0xFF AND DUP2 JUMP JUMPDEST CALLVALUE DUP1 ISZERO PUSH3 0x9E8 JUMPI PUSH1 0x0 DUP1 REVERT JUMPDEST POP PUSH3 0x491 PUSH1 0xE SLOAD DUP2 JUMP JUMPDEST CALLVALUE DUP1 ISZERO PUSH3 0xA00 JUMPI PUSH1 0x0 DUP1 REVERT JUMPDEST POP PUSH3 0x491 PUSH1 0xF SLOAD DUP2 JUMP JUMPDEST CALLVALUE DUP1 ISZERO PUSH3 0xA18 JUMPI PUSH1 0x0 DUP1 REVERT JUMPDEST POP PUSH1 0x6 SLOAD PUSH1 0x1 PUSH1 0x1 PUSH1 0xA0 SHL SUB AND PUSH3 0x57B JUMP JUMPDEST CALLVALUE DUP1 ISZERO PUSH3 0xA38 JUMPI PUSH1 0x0 DUP1 REVERT JUMPDEST POP PUSH3 0x4C9 PUSH3 0xA4A CALLDATASIZE PUSH1 0x4 PUSH3 0x356B JUMP JUMPDEST PUSH1 0x1 PUSH1 0x1 PUSH1 0xA0 SHL SUB AND PUSH1 0x0 SWAP1 DUP2 MSTORE PUSH1 0x23 PUSH1 0x20 MSTORE PUSH1 0x40 SWAP1 KECCAK256 SLOAD PUSH1 0xFF AND SWAP1 JUMP JUMPDEST CALLVALUE DUP1 ISZERO PUSH3 0xA75 JUMPI PUSH1 0x0 DUP1 REVERT JUMPDEST POP PUSH3 0x547 PUSH3 0x24B8 JUMP JUMPDEST CALLVALUE DUP1 ISZERO PUSH3 0xA8D JUMPI PUSH1 0x0 DUP1 REVERT JUMPDEST POP PUSH3 0x508 PUSH3 0x24C9 JUMP JUMPDEST CALLVALUE DUP1 ISZERO PUSH3 0xAA5 JUMPI PUSH1 0x0 DUP1 REVERT JUMPDEST POP PUSH3 0x508 PUSH3 0xAB7 CALLDATASIZE PUSH1 0x4 PUSH3 0x356B JUMP JUMPDEST PUSH3 0x24F4 JUMP JUMPDEST CALLVALUE DUP1 ISZERO PUSH3 0xACA JUMPI PUSH1 0x0 DUP1 REVERT JUMPDEST POP PUSH3 0x508 PUSH3 0xADC CALLDATASIZE PUSH1 0x4 PUSH3 0x386A JUMP JUMPDEST PUSH3 0x2567 JUMP JUMPDEST CALLVALUE DUP1 ISZERO PUSH3 0xAEF JUMPI PUSH1 0x0 DUP1 REVERT JUMPDEST POP PUSH3 0x57B PUSH3 0xB01 CALLDATASIZE PUSH1 0x4 PUSH3 0x3504 JUMP JUMPDEST PUSH3 0x2574 JUMP JUMPDEST CALLVALUE DUP1 ISZERO PUSH3 0xB14 JUMPI PUSH1 0x0 DUP1 REVERT JUMPDEST POP PUSH1 0xA SLOAD PUSH3 0x57B SWAP1 PUSH1 0x1 PUSH1 0x1 PUSH1 0xA0 SHL SUB AND DUP2 JUMP JUMPDEST CALLVALUE DUP1 ISZERO PUSH3 0xB36 JUMPI PUSH1 0x0 DUP1 REVERT JUMPDEST POP PUSH3 0x57B PUSH3 0xB48 CALLDATASIZE PUSH1 0x4 PUSH3 0x3504 JUMP JUMPDEST PUSH3 0x2585 JUMP JUMPDEST CALLVALUE DUP1 ISZERO PUSH3 0xB5B JUMPI PUSH1 0x0 DUP1 REVERT JUMPDEST POP PUSH1 0x19 SLOAD PUSH3 0x57B SWAP1 PUSH1 0x1 PUSH1 0x1 PUSH1 0xA0 SHL SUB AND DUP2 JUMP JUMPDEST CALLVALUE DUP1 ISZERO PUSH3 0xB7D JUMPI PUSH1 0x0 DUP1 REVERT JUMPDEST POP PUSH3 0x491 PUSH1 0xC SLOAD DUP2 JUMP JUMPDEST CALLVALUE DUP1 ISZERO PUSH3 0xB95 JUMPI PUSH1 0x0 DUP1 REVERT JUMPDEST POP PUSH3 0x508 PUSH3 0xBA7 CALLDATASIZE PUSH1 0x4 PUSH3 0x38A8 JUMP JUMPDEST PUSH3 0x2596 JUMP JUMPDEST CALLVALUE DUP1 ISZERO PUSH3 0xBBA JUMPI PUSH1 0x0 DUP1 REVERT JUMPDEST POP PUSH3 0x508 PUSH3 0xBCC CALLDATASIZE PUSH1 0x4 PUSH3 0x356B JUMP JUMPDEST PUSH3 0x2615 JUMP JUMPDEST CALLVALUE DUP1 ISZERO PUSH3 0xBDF JUMPI PUSH1 0x0 DUP1 REVERT JUMPDEST POP PUSH3 0x57B PUSH3 0xBF1 CALLDATASIZE PUSH1 0x4 PUSH3 0x356B JUMP JUMPDEST PUSH1 0x1 PUSH1 0x1 PUSH1 0xA0 SHL SUB SWAP1 DUP2 AND PUSH1 0x0 SWAP1 DUP2 MSTORE PUSH1 0x25 PUSH1 0x20 MSTORE PUSH1 0x40 SWAP1 KECCAK256 SLOAD AND SWAP1 JUMP JUMPDEST CALLVALUE DUP1 ISZERO PUSH3 0xC1C JUMPI PUSH1 0x0 DUP1 REVERT JUMPDEST POP PUSH3 0x491 PUSH3 0xC2E CALLDATASIZE PUSH1 0x4 PUSH3 0x356B JUMP JUMPDEST PUSH3 0x2641 JUMP JUMPDEST CALLVALUE DUP1 ISZERO PUSH3 0xC41 JUMPI PUSH1 0x0 DUP1 REVERT JUMPDEST POP PUSH3 0x508 PUSH3 0x26C6 JUMP JUMPDEST CALLVALUE DUP1 ISZERO PUSH3 0xC59 JUMPI PUSH1 0x0 DUP1 REVERT JUMPDEST POP PUSH3 0xC71 PUSH3 0xC6B CALLDATASIZE PUSH1 0x4 PUSH3 0x3504 JUMP JUMPDEST PUSH3 0x2736 JUMP JUMPDEST PUSH1 0x40 DUP1 MLOAD PUSH1 0x1 PUSH1 0x1 PUSH1 0xA0 SHL SUB SWAP1 SWAP4 AND DUP4 MSTORE PUSH1 0x20 DUP4 ADD SWAP2 SWAP1 SWAP2 MSTORE ADD PUSH3 0x49B JUMP JUMPDEST CALLVALUE DUP1 ISZERO PUSH3 0xC9E JUMPI PUSH1 0x0 DUP1 REVERT JUMPDEST POP PUSH3 0x547 PUSH3 0x276F JUMP JUMPDEST CALLVALUE DUP1 ISZERO PUSH3 0xCB6 JUMPI PUSH1 0x0 DUP1 REVERT JUMPDEST POP PUSH3 0x547 PUSH3 0xCC8 CALLDATASIZE PUSH1 0x4 PUSH3 0x3504 JUMP JUMPDEST PUSH3 0x277E JUMP JUMPDEST CALLVALUE DUP1 ISZERO PUSH3 0xCDB JUMPI PUSH1 0x0 DUP1 REVERT JUMPDEST POP PUSH3 0x508 PUSH3 0xCED CALLDATASIZE PUSH1 0x4 PUSH3 0x356B JUMP JUMPDEST PUSH3 0x2866 JUMP JUMPDEST CALLVALUE DUP1 ISZERO PUSH3 0xD00 JUMPI PUSH1 0x0 DUP1 REVERT JUMPDEST POP PUSH3 0x491 PUSH1 0x17 SLOAD DUP2 JUMP JUMPDEST CALLVALUE DUP1 ISZERO PUSH3 0xD18 JUMPI PUSH1 0x0 DUP1 REVERT JUMPDEST POP PUSH3 0x57B PUSH3 0xD2A CALLDATASIZE PUSH1 0x4 PUSH3 0x356B JUMP JUMPDEST PUSH1 0x25 PUSH1 0x20 MSTORE PUSH1 0x0 SWAP1 DUP2 MSTORE PUSH1 0x40 SWAP1 KECCAK256 SLOAD PUSH1 0x1 PUSH1 0x1 PUSH1 0xA0 SHL SUB AND DUP2 JUMP JUMPDEST CALLVALUE DUP1 ISZERO PUSH3 0xD52 JUMPI PUSH1 0x0 DUP1 REVERT JUMPDEST POP PUSH3 0x491 PUSH1 0xD SLOAD DUP2 JUMP JUMPDEST CALLVALUE DUP1 ISZERO PUSH3 0xD6A JUMPI PUSH1 0x0 DUP1 REVERT JUMPDEST POP PUSH1 0x1A SLOAD PUSH3 0x57B SWAP1 PUSH1 0x1 PUSH1 0x1 PUSH1 0xA0 SHL SUB AND DUP2 JUMP JUMPDEST CALLVALUE DUP1 ISZERO PUSH3 0xD8C JUMPI PUSH1 0x0 DUP1 REVERT JUMPDEST POP PUSH3 0x491 PUSH3 0xD9E CALLDATASIZE PUSH1 0x4 PUSH3 0x356B JUMP JUMPDEST PUSH1 0x1 PUSH1 0x1 PUSH1 0xA0 SHL SUB AND PUSH1 0x0 SWAP1 DUP2 MSTORE PUSH1 0x22 PUSH1 0x20 MSTORE PUSH1 0x40 SWAP1 KECCAK256 SLOAD SWAP1 JUMP JUMPDEST CALLVALUE DUP1 ISZERO PUSH3 0xDC6 JUMPI PUSH1 0x0 DUP1 REVERT JUMPDEST POP PUSH3 0x4C9 PUSH3 0xDD8 CALLDATASIZE PUSH1 0x4 PUSH3 0x3931 JUMP JUMPDEST PUSH3 0x2892 JUMP JUMPDEST CALLVALUE DUP1 ISZERO PUSH3 0xDEB JUMPI PUSH1 0x0 DUP1 REVERT JUMPDEST POP PUSH3 0x508 PUSH3 0xDFD CALLDATASIZE PUSH1 0x4 PUSH3 0x356B JUMP JUMPDEST PUSH3 0x28C0 JUMP JUMPDEST CALLVALUE DUP1 ISZERO PUSH3 0xE10 JUMPI PUSH1 0x0 DUP1 REVERT JUMPDEST POP PUSH3 0x508 PUSH3 0xE22 CALLDATASIZE PUSH1 0x4 PUSH3 0x356B JUMP JUMPDEST PUSH3 0x28EC JUMP JUMPDEST CALLVALUE DUP1 ISZERO PUSH3 0xE35 JUMPI PUSH1 0x0 DUP1 REVERT JUMPDEST POP PUSH3 0x508 PUSH3 0xE47 CALLDATASIZE PUSH1 0x4 PUSH3 0x356B JUMP JUMPDEST PUSH3 0x296B JUMP JUMPDEST CALLVALUE DUP1 ISZERO PUSH3 0xE5A JUMPI PUSH1 0x0 DUP1 REVERT JUMPDEST POP PUSH1 0x1E SLOAD PUSH3 0x57B SWAP1 PUSH1 0x1 PUSH1 0x1 PUSH1 0xA0 SHL SUB AND DUP2 JUMP JUMPDEST PUSH1 0x1D DUP2 DUP2 SLOAD DUP2 LT PUSH3 0xE80 JUMPI PUSH1 0x0 DUP1 REVERT JUMPDEST PUSH1 0x0 SWAP2 DUP3 MSTORE PUSH1 0x20 SWAP1 SWAP2 KECCAK256 ADD SLOAD SWAP1 POP DUP2 JUMP JUMPDEST PUSH1 0x0 PUSH1 0x1 PUSH1 0x1 PUSH1 0xE0 SHL SUB NOT DUP3 AND PUSH4 0x80AC58CD PUSH1 0xE0 SHL EQ DUP1 PUSH3 0xEC3 JUMPI POP PUSH1 0x1 PUSH1 0x1 PUSH1 0xE0 SHL SUB NOT DUP3 AND PUSH4 0x5B5E139F PUSH1 0xE0 SHL EQ JUMPDEST DUP1 PUSH3 0xEDF JUMPI POP PUSH4 0x1FFC9A7 PUSH1 0xE0 SHL PUSH1 0x1 PUSH1 0x1 PUSH1 0xE0 SHL SUB NOT DUP4 AND EQ JUMPDEST SWAP3 SWAP2 POP POP JUMP JUMPDEST PUSH1 0x16 SLOAD PUSH1 0x1 PUSH1 0xA0 SHL SWAP1 DIV PUSH1 0xFF AND ISZERO PUSH3 0xF37 JUMPI PUSH1 0x40 MLOAD PUSH3 0x461BCD PUSH1 0xE5 SHL DUP2 MSTORE PUSH1 0x20 PUSH1 0x4 DUP3 ADD MSTORE PUSH1 0xF PUSH1 0x24 DUP3 ADD MSTORE PUSH15 0x39BA30BA3AB99034B99032B93937B9 PUSH1 0x89 SHL PUSH1 0x44 DUP3 ADD MSTORE PUSH1 0x64 ADD JUMPDEST PUSH1 0x40 MLOAD DUP1 SWAP2 SUB SWAP1 REVERT JUMPDEST CALLER PUSH1 0x0 SWAP1 DUP2 MSTORE PUSH1 0x23 PUSH1 0x20 MSTORE PUSH1 0x40 SWAP1 KECCAK256 SLOAD PUSH1 0xFF AND ISZERO PUSH3 0xF90 JUMPI PUSH1 0x40 MLOAD PUSH3 0x461BCD PUSH1 0xE5 SHL DUP2 MSTORE PUSH1 0x20 PUSH1 0x4 DUP3 ADD MSTORE PUSH1 0x14 PUSH1 0x24 DUP3 ADD MSTORE PUSH20 0x1E5BDD48185B1C9958591E481A185D9948119251 PUSH1 0x62 SHL PUSH1 0x44 DUP3 ADD MSTORE PUSH1 0x64 ADD PUSH3 0xF2E JUMP JUMPDEST PUSH1 0x16 SLOAD PUSH1 0x40 MLOAD PUSH4 0x70A08231 PUSH1 0xE0 SHL DUP2 MSTORE CALLER PUSH1 0x4 DUP3 ADD MSTORE PUSH1 0x1 PUSH1 0x1 PUSH1 0xA0 SHL SUB SWAP1 SWAP2 AND SWAP1 PUSH4 0x70A08231 SWAP1 PUSH1 0x24 ADD PUSH1 0x20 PUSH1 0x40 MLOAD DUP1 DUP4 SUB DUP2 DUP7 GAS STATICCALL ISZERO DUP1 ISZERO PUSH3 0xFD9 JUMPI RETURNDATASIZE PUSH1 0x0 DUP1 RETURNDATACOPY RETURNDATASIZE PUSH1 0x0 REVERT JUMPDEST POP POP POP POP PUSH1 0x40 MLOAD RETURNDATASIZE PUSH1 0x1F NOT PUSH1 0x1F DUP3 ADD AND DUP3 ADD DUP1 PUSH1 0x40 MSTORE POP DUP2 ADD SWAP1 PUSH3 0xFFF SWAP2 SWAP1 PUSH3 0x3964 JUMP JUMPDEST PUSH1 0x0 SUB PUSH3 0x1047 JUMPI PUSH1 0x40 MLOAD PUSH3 0x461BCD PUSH1 0xE5 SHL DUP2 MSTORE PUSH1 0x20 PUSH1 0x4 DUP3 ADD MSTORE PUSH1 0x14 PUSH1 0x24 DUP3 ADD MSTORE PUSH20 0x1E5BDD481A185D995B89DD081C185CDCDC1BDC9D PUSH1 0x62 SHL PUSH1 0x44 DUP3 ADD MSTORE PUSH1 0x64 ADD PUSH3 0xF2E JUMP JUMPDEST PUSH1 0xA SLOAD PUSH1 0x40 MLOAD PUSH4 0xDCCA3755 PUSH1 0xE0 SHL DUP2 MSTORE CALLER PUSH1 0x4 DUP3 ADD MSTORE PUSH1 0x0 SWAP2 PUSH1 0x1 PUSH1 0x1 PUSH1 0xA0 SHL SUB AND SWAP1 PUSH4 0xDCCA3755 SWAP1 PUSH1 0x24 ADD PUSH1 0x20 PUSH1 0x40 MLOAD DUP1 DUP4 SUB DUP2 DUP7 GAS STATICCALL ISZERO DUP1 ISZERO PUSH3 0x1091 JUMPI RETURNDATASIZE PUSH1 0x0 DUP1 RETURNDATACOPY RETURNDATASIZE PUSH1 0x0 REVERT JUMPDEST POP POP POP POP PUSH1 0x40 MLOAD RETURNDATASIZE PUSH1 0x1F NOT PUSH1 0x1F DUP3 ADD AND DUP3 ADD DUP1 PUSH1 0x40 MSTORE POP DUP2 ADD SWAP1 PUSH3 0x10B7 SWAP2 SWAP1 PUSH3 0x397E JUMP JUMPDEST PUSH1 0xA SLOAD PUSH1 0x40 MLOAD PUSH4 0xDCCA3755 PUSH1 0xE0 SHL DUP2 MSTORE PUSH1 0x1 PUSH1 0x1 PUSH1 0xA0 SHL SUB DUP1 DUP5 AND PUSH1 0x4 DUP4 ADD MSTORE SWAP3 SWAP4 POP PUSH1 0x0 SWAP3 SWAP1 SWAP2 AND SWAP1 PUSH4 0xDCCA3755 SWAP1 PUSH1 0x24 ADD PUSH1 0x20 PUSH1 0x40 MLOAD DUP1 DUP4 SUB DUP2 DUP7 GAS STATICCALL ISZERO DUP1 ISZERO PUSH3 0x1108 JUMPI RETURNDATASIZE PUSH1 0x0 DUP1 RETURNDATACOPY RETURNDATASIZE PUSH1 0x0 REVERT JUMPDEST POP POP POP POP PUSH1 0x40 MLOAD RETURNDATASIZE PUSH1 0x1F NOT PUSH1 0x1F DUP3 ADD AND DUP3 ADD DUP1 PUSH1 0x40 MSTORE POP DUP2 ADD SWAP1 PUSH3 0x112E SWAP2 SWAP1 PUSH3 0x397E JUMP JUMPDEST PUSH1 0xA SLOAD PUSH1 0x40 MLOAD PUSH4 0xDCCA3755 PUSH1 0xE0 SHL DUP2 MSTORE PUSH1 0x1 PUSH1 0x1 PUSH1 0xA0 SHL SUB DUP1 DUP5 AND PUSH1 0x4 DUP4 ADD MSTORE SWAP3 SWAP4 POP PUSH1 0x0 SWAP3 SWAP1 SWAP2 AND SWAP1 PUSH4 0xDCCA3755 SWAP1 PUSH1 0x24 ADD PUSH1 0x20 PUSH1 0x40 MLOAD DUP1 DUP4 SUB DUP2 DUP7 GAS STATICCALL ISZERO DUP1 ISZERO PUSH3 0x117F JUMPI RETURNDATASIZE PUSH1 0x0 DUP1 RETURNDATACOPY RETURNDATASIZE PUSH1 0x0 REVERT JUMPDEST POP POP POP POP PUSH1 0x40 MLOAD RETURNDATASIZE PUSH1 0x1F NOT PUSH1 0x1F DUP3 ADD AND DUP3 ADD DUP1 PUSH1 0x40 MSTORE POP DUP2 ADD SWAP1 PUSH3 0x11A5 SWAP2 SWAP1 PUSH3 0x397E JUMP JUMPDEST PUSH1 0x16 SLOAD SWAP1 SWAP2 POP PUSH1 0x1 PUSH1 0xA8 SHL SWAP1 DIV PUSH1 0xFF AND ISZERO PUSH3 0x1800 JUMPI PUSH1 0x0 PUSH1 0x10 SLOAD PUSH1 0xC SLOAD PUSH1 0x17 SLOAD PUSH3 0x11D2 SWAP2 SWAP1 PUSH3 0x39B4 JUMP JUMPDEST PUSH3 0x11DE SWAP2 SWAP1 PUSH3 0x39CE JUMP JUMPDEST SWAP1 POP PUSH1 0x0 PUSH1 0x10 SLOAD PUSH1 0xD SLOAD PUSH1 0x17 SLOAD PUSH3 0x11F7 SWAP2 SWAP1 PUSH3 0x39B4 JUMP JUMPDEST PUSH3 0x1203 SWAP2 SWAP1 PUSH3 0x39CE JUMP JUMPDEST SWAP1 POP PUSH1 0x0 PUSH1 0x10 SLOAD PUSH1 0xE SLOAD PUSH1 0x17 SLOAD PUSH3 0x121C SWAP2 SWAP1 PUSH3 0x39B4 JUMP JUMPDEST PUSH3 0x1228 SWAP2 SWAP1 PUSH3 0x39CE JUMP JUMPDEST SWAP1 POP PUSH1 0x0 PUSH1 0x10 SLOAD PUSH1 0xF SLOAD PUSH1 0x17 SLOAD PUSH3 0x1241 SWAP2 SWAP1 PUSH3 0x39B4 JUMP JUMPDEST PUSH3 0x124D SWAP2 SWAP1 PUSH3 0x39CE JUMP JUMPDEST SWAP1 POP CALLVALUE PUSH1 0x0 SUB PUSH3 0x13DF JUMPI PUSH1 0x1 PUSH1 0x1 PUSH1 0xA0 SHL SUB DUP8 AND ISZERO DUP1 ISZERO SWAP1 PUSH3 0x1279 JUMPI POP PUSH1 0x1 PUSH1 0x1 PUSH1 0xA0 SHL SUB DUP7 AND ISZERO ISZERO JUMPDEST DUP1 ISZERO PUSH3 0x128E JUMPI POP PUSH1 0x1 PUSH1 0x1 PUSH1 0xA0 SHL SUB DUP6 AND ISZERO ISZERO JUMPDEST ISZERO PUSH3 0x1377 JUMPI PUSH1 0x18 SLOAD PUSH1 0x19 SLOAD PUSH3 0x12B5 SWAP2 PUSH1 0x1 PUSH1 0x1 PUSH1 0xA0 SHL SUB SWAP1 DUP2 AND SWAP2 CALLER SWAP2 AND DUP8 PUSH3 0x2997 JUMP JUMPDEST PUSH1 0x18 SLOAD PUSH3 0x12CF SWAP1 PUSH1 0x1 PUSH1 0x1 PUSH1 0xA0 SHL SUB AND CALLER DUP10 DUP7 PUSH3 0x2997 JUMP JUMPDEST PUSH1 0x18 SLOAD PUSH3 0x12E9 SWAP1 PUSH1 0x1 PUSH1 0x1 PUSH1 0xA0 SHL SUB AND CALLER DUP9 DUP6 PUSH3 0x2997 JUMP JUMPDEST PUSH1 0x18 SLOAD PUSH3 0x1303 SWAP1 PUSH1 0x1 PUSH1 0x1 PUSH1 0xA0 SHL SUB AND CALLER DUP8 DUP5 PUSH3 0x2997 JUMP JUMPDEST PUSH1 0x1A SLOAD PUSH1 0x40 MLOAD PUSH4 0x5D413CE5 PUSH1 0xE1 SHL DUP2 MSTORE PUSH1 0x5 PUSH1 0x4 DUP3 ADD MSTORE CALLER PUSH1 0x24 DUP3 ADD MSTORE PUSH1 0x44 DUP2 ADD DUP7 SWAP1 MSTORE PUSH1 0x1 PUSH1 0x1 PUSH1 0xA0 SHL SUB SWAP1 SWAP2 AND SWAP1 PUSH4 0xBA8279CA SWAP1 PUSH1 0x64 ADD JUMPDEST PUSH1 0x0 PUSH1 0x40 MLOAD DUP1 DUP4 SUB DUP2 PUSH1 0x0 DUP8 DUP1 EXTCODESIZE ISZERO DUP1 ISZERO PUSH3 0x1358 JUMPI PUSH1 0x0 DUP1 REVERT JUMPDEST POP GAS CALL ISZERO DUP1 ISZERO PUSH3 0x136D JUMPI RETURNDATASIZE PUSH1 0x0 DUP1 RETURNDATACOPY RETURNDATASIZE PUSH1 0x0 REVERT JUMPDEST POP POP POP POP PUSH3 0x17FB JUMP JUMPDEST PUSH1 0x18 SLOAD PUSH1 0x19 SLOAD PUSH1 0x17 SLOAD PUSH3 0x139C SWAP3 PUSH1 0x1 PUSH1 0x1 PUSH1 0xA0 SHL SUB SWAP1 DUP2 AND SWAP3 CALLER SWAP3 SWAP2 AND SWAP1 PUSH3 0x2997 JUMP JUMPDEST PUSH1 0x1A SLOAD PUSH1 0x17 SLOAD PUSH1 0x40 MLOAD PUSH4 0x5D413CE5 PUSH1 0xE1 SHL DUP2 MSTORE PUSH1 0x5 PUSH1 0x4 DUP3 ADD MSTORE CALLER PUSH1 0x24 DUP3 ADD MSTORE PUSH1 0x44 DUP2 ADD SWAP2 SWAP1 SWAP2 MSTORE PUSH1 0x1 PUSH1 0x1 PUSH1 0xA0 SHL SUB SWAP1 SWAP2 AND SWAP1 PUSH4 0xBA8279CA SWAP1 PUSH1 0x64 ADD PUSH3 0x133D JUMP JUMPDEST PUSH1 0x17 SLOAD CALLVALUE EQ PUSH3 0x1432 JUMPI PUSH1 0x40 MLOAD PUSH3 0x461BCD PUSH1 0xE5 SHL DUP2 MSTORE PUSH1 0x20 PUSH1 0x4 DUP3 ADD MSTORE PUSH1 0x1F PUSH1 0x24 DUP3 ADD MSTORE PUSH32 0x70726F7669646520746865206572726F72206E756D626572206F6E2045544800 PUSH1 0x44 DUP3 ADD MSTORE PUSH1 0x64 ADD PUSH3 0xF2E JUMP JUMPDEST PUSH1 0x18 PUSH1 0x0 SWAP1 SLOAD SWAP1 PUSH2 0x100 EXP SWAP1 DIV PUSH1 0x1 PUSH1 0x1 PUSH1 0xA0 SHL SUB AND PUSH1 0x1 PUSH1 0x1 PUSH1 0xA0 SHL SUB AND PUSH4 0xD0E30DB0 PUSH1 0x17 SLOAD PUSH1 0x40 MLOAD DUP3 PUSH4 0xFFFFFFFF AND PUSH1 0xE0 SHL DUP2 MSTORE PUSH1 0x4 ADD PUSH1 0x0 PUSH1 0x40 MLOAD DUP1 DUP4 SUB DUP2 DUP6 DUP9 DUP1 EXTCODESIZE ISZERO DUP1 ISZERO PUSH3 0x1485 JUMPI PUSH1 0x0 DUP1 REVERT JUMPDEST POP GAS CALL ISZERO DUP1 ISZERO PUSH3 0x149A JUMPI RETURNDATASIZE PUSH1 0x0 DUP1 RETURNDATACOPY RETURNDATASIZE PUSH1 0x0 REVERT JUMPDEST POP POP POP POP POP PUSH1 0x1 PUSH1 0x1 PUSH1 0xA0 SHL SUB DUP8 AND ISZERO DUP1 ISZERO SWAP1 PUSH3 0x14C0 JUMPI POP PUSH1 0x1 PUSH1 0x1 PUSH1 0xA0 SHL SUB DUP7 AND ISZERO ISZERO JUMPDEST DUP1 ISZERO PUSH3 0x14D5 JUMPI POP PUSH1 0x1 PUSH1 0x1 PUSH1 0xA0 SHL SUB DUP6 AND ISZERO ISZERO JUMPDEST ISZERO PUSH3 0x1708 JUMPI PUSH1 0x18 SLOAD PUSH1 0x19 SLOAD PUSH1 0x40 MLOAD PUSH4 0xA9059CBB PUSH1 0xE0 SHL DUP2 MSTORE PUSH1 0x1 PUSH1 0x1 PUSH1 0xA0 SHL SUB SWAP2 DUP3 AND PUSH1 0x4 DUP3 ADD MSTORE PUSH1 0x24 DUP2 ADD DUP8 SWAP1 MSTORE SWAP2 AND SWAP1 PUSH4 0xA9059CBB SWAP1 PUSH1 0x44 ADD PUSH1 0x20 PUSH1 0x40 MLOAD DUP1 DUP4 SUB DUP2 PUSH1 0x0 DUP8 GAS CALL ISZERO DUP1 ISZERO PUSH3 0x1531 JUMPI RETURNDATASIZE PUSH1 0x0 DUP1 RETURNDATACOPY RETURNDATASIZE PUSH1 0x0 REVERT JUMPDEST POP POP POP POP PUSH1 0x40 MLOAD RETURNDATASIZE PUSH1 0x1F NOT PUSH1 0x1F DUP3 ADD AND DUP3 ADD DUP1 PUSH1 0x40 MSTORE POP DUP2 ADD SWAP1 PUSH3 0x1557 SWAP2 SWAP1 PUSH3 0x39F1 JUMP JUMPDEST POP PUSH1 0x18 SLOAD PUSH1 0x40 MLOAD PUSH4 0xA9059CBB PUSH1 0xE0 SHL DUP2 MSTORE PUSH1 0x1 PUSH1 0x1 PUSH1 0xA0 SHL SUB DUP10 DUP2 AND PUSH1 0x4 DUP4 ADD MSTORE PUSH1 0x24 DUP3 ADD DUP7 SWAP1 MSTORE SWAP1 SWAP2 AND SWAP1 PUSH4 0xA9059CBB SWAP1 PUSH1 0x44 ADD PUSH1 0x20 PUSH1 0x40 MLOAD DUP1 DUP4 SUB DUP2 PUSH1 0x0 DUP8 GAS CALL ISZERO DUP1 ISZERO PUSH3 0x15AC JUMPI RETURNDATASIZE PUSH1 0x0 DUP1 RETURNDATACOPY RETURNDATASIZE PUSH1 0x0 REVERT JUMPDEST POP POP POP POP PUSH1 0x40 MLOAD RETURNDATASIZE PUSH1 0x1F NOT PUSH1 0x1F DUP3 ADD AND DUP3 ADD DUP1 PUSH1 0x40 MSTORE POP DUP2 ADD SWAP1 PUSH3 0x15D2 SWAP2 SWAP1 PUSH3 0x39F1 JUMP JUMPDEST POP PUSH1 0x18 SLOAD PUSH1 0x40 MLOAD PUSH4 0xA9059CBB PUSH1 0xE0 SHL DUP2 MSTORE PUSH1 0x1 PUSH1 0x1 PUSH1 0xA0 SHL SUB DUP9 DUP2 AND PUSH1 0x4 DUP4 ADD MSTORE PUSH1 0x24 DUP3 ADD DUP6 SWAP1 MSTORE SWAP1 SWAP2 AND SWAP1 PUSH4 0xA9059CBB SWAP1 PUSH1 0x44 ADD PUSH1 0x20 PUSH1 0x40 MLOAD DUP1 DUP4 SUB DUP2 PUSH1 0x0 DUP8 GAS CALL ISZERO DUP1 ISZERO PUSH3 0x1627 JUMPI RETURNDATASIZE PUSH1 0x0 DUP1 RETURNDATACOPY RETURNDATASIZE PUSH1 0x0 REVERT JUMPDEST POP POP POP POP PUSH1 0x40 MLOAD RETURNDATASIZE PUSH1 0x1F NOT PUSH1 0x1F DUP3 ADD AND DUP3 ADD DUP1 PUSH1 0x40 MSTORE POP DUP2 ADD SWAP1 PUSH3 0x164D SWAP2 SWAP1 PUSH3 0x39F1 JUMP JUMPDEST POP PUSH1 0x18 SLOAD PUSH1 0x40 MLOAD PUSH4 0xA9059CBB PUSH1 0xE0 SHL DUP2 MSTORE PUSH1 0x1 PUSH1 0x1 PUSH1 0xA0 SHL SUB DUP8 DUP2 AND PUSH1 0x4 DUP4 ADD MSTORE PUSH1 0x24 DUP3 ADD DUP5 SWAP1 MSTORE SWAP1 SWAP2 AND SWAP1 PUSH4 0xA9059CBB SWAP1 PUSH1 0x44 ADD PUSH1 0x20 PUSH1 0x40 MLOAD DUP1 DUP4 SUB DUP2 PUSH1 0x0 DUP8 GAS CALL ISZERO DUP1 ISZERO PUSH3 0x16A2 JUMPI RETURNDATASIZE PUSH1 0x0 DUP1 RETURNDATACOPY RETURNDATASIZE PUSH1 0x0 REVERT JUMPDEST POP POP POP POP PUSH1 0x40 MLOAD RETURNDATASIZE PUSH1 0x1F NOT PUSH1 0x1F DUP3 ADD AND DUP3 ADD DUP1 PUSH1 0x40 MSTORE POP DUP2 ADD SWAP1 PUSH3 0x16C8 SWAP2 SWAP1 PUSH3 0x39F1 JUMP JUMPDEST POP PUSH1 0x1A SLOAD PUSH1 0x40 MLOAD PUSH4 0x5D413CE5 PUSH1 0xE1 SHL DUP2 MSTORE PUSH1 0x5 PUSH1 0x4 DUP3 ADD MSTORE CALLER PUSH1 0x24 DUP3 ADD MSTORE PUSH1 0x44 DUP2 ADD DUP7 SWAP1 MSTORE PUSH1 0x1 PUSH1 0x1 PUSH1 0xA0 SHL SUB SWAP1 SWAP2 AND SWAP1 PUSH4 0xBA8279CA SWAP1 PUSH1 0x64 ADD PUSH3 0x133D JUMP JUMPDEST PUSH1 0x18 SLOAD PUSH1 0x19 SLOAD PUSH1 0x17 SLOAD PUSH1 0x40 MLOAD PUSH4 0xA9059CBB PUSH1 0xE0 SHL DUP2 MSTORE PUSH1 0x1 PUSH1 0x1 PUSH1 0xA0 SHL SUB SWAP3 DUP4 AND PUSH1 0x4 DUP3 ADD MSTORE PUSH1 0x24 DUP2 ADD SWAP2 SWAP1 SWAP2 MSTORE SWAP2 AND SWAP1 PUSH4 0xA9059CBB SWAP1 PUSH1 0x44 ADD PUSH1 0x20 PUSH1 0x40 MLOAD DUP1 DUP4 SUB DUP2 PUSH1 0x0 DUP8 GAS CALL ISZERO DUP1 ISZERO PUSH3 0x1762 JUMPI RETURNDATASIZE PUSH1 0x0 DUP1 RETURNDATACOPY RETURNDATASIZE PUSH1 0x0 REVERT JUMPDEST POP POP POP POP PUSH1 0x40 MLOAD RETURNDATASIZE PUSH1 0x1F NOT PUSH1 0x1F DUP3 ADD AND DUP3 ADD DUP1 PUSH1 0x40 MSTORE POP DUP2 ADD SWAP1 PUSH3 0x1788 SWAP2 SWAP1 PUSH3 0x39F1 JUMP JUMPDEST POP PUSH1 0x1A SLOAD PUSH1 0x17 SLOAD PUSH1 0x40 MLOAD PUSH4 0x5D413CE5 PUSH1 0xE1 SHL DUP2 MSTORE PUSH1 0x5 PUSH1 0x4 DUP3 ADD MSTORE CALLER PUSH1 0x24 DUP3 ADD MSTORE PUSH1 0x44 DUP2 ADD SWAP2 SWAP1 SWAP2 MSTORE PUSH1 0x1 PUSH1 0x1 PUSH1 0xA0 SHL SUB SWAP1 SWAP2 AND SWAP1 PUSH4 0xBA8279CA SWAP1 PUSH1 0x64 ADD PUSH1 0x0 PUSH1 0x40 MLOAD DUP1 DUP4 SUB DUP2 PUSH1 0x0 DUP8 DUP1 EXTCODESIZE ISZERO DUP1 ISZERO PUSH3 0x17E1 JUMPI PUSH1 0x0 DUP1 REVERT JUMPDEST POP GAS CALL ISZERO DUP1 ISZERO PUSH3 0x17F6 JUMPI RETURNDATASIZE PUSH1 0x0 DUP1 RETURNDATACOPY RETURNDATASIZE PUSH1 0x0 REVERT JUMPDEST POP POP POP POP JUMPDEST POP POP POP POP JUMPDEST PUSH1 0xA SLOAD PUSH1 0x40 MLOAD PUSH4 0x8C7B8D77 PUSH1 0xE0 SHL DUP2 MSTORE CALLER PUSH1 0x4 DUP3 ADD MSTORE PUSH1 0x24 DUP2 ADD DUP7 SWAP1 MSTORE PUSH1 0x1 PUSH1 0x44 DUP3 ADD MSTORE PUSH1 0x1 PUSH1 0x1 PUSH1 0xA0 SHL SUB SWAP1 SWAP2 AND SWAP1 PUSH4 0x8C7B8D77 SWAP1 PUSH1 0x64 ADD PUSH1 0x0 PUSH1 0x40 MLOAD DUP1 DUP4 SUB DUP2 PUSH1 0x0 DUP8 DUP1 EXTCODESIZE ISZERO DUP1 ISZERO PUSH3 0x1854 JUMPI PUSH1 0x0 DUP1 REVERT JUMPDEST POP GAS CALL ISZERO DUP1 ISZERO PUSH3 0x1869 JUMPI RETURNDATASIZE PUSH1 0x0 DUP1 RETURNDATACOPY RETURNDATASIZE PUSH1 0x0 REVERT JUMPDEST POP POP POP POP PUSH3 0x187B CALLER PUSH1 0xB SLOAD PUSH3 0x2AD1 JUMP JUMPDEST PUSH1 0x1F DUP1 SLOAD PUSH1 0x1 DUP2 DUP2 ADD SWAP1 SWAP3 SSTORE PUSH32 0xA03837A25210EE280C2113FF4B77CA23440B19D4866CCA721C801278FD08D807 ADD DUP1 SLOAD PUSH1 0x1 PUSH1 0x1 PUSH1 0xA0 SHL SUB NOT AND CALLER SWAP1 DUP2 OR SWAP1 SWAP2 SSTORE PUSH1 0xB SLOAD PUSH1 0x0 DUP3 DUP2 MSTORE PUSH1 0x22 PUSH1 0x20 SWAP1 DUP2 MSTORE PUSH1 0x40 DUP1 DUP4 KECCAK256 SWAP4 SWAP1 SWAP4 SSTORE PUSH1 0x23 SWAP1 MSTORE DUP2 DUP2 KECCAK256 DUP1 SLOAD PUSH1 0xFF NOT AND SWAP1 SWAP5 OR SWAP1 SWAP4 SSTORE MLOAD ADDRESS SWAP1 PUSH3 0x18F5 SWAP1 PUSH3 0x34F6 JUMP JUMPDEST PUSH1 0x1 PUSH1 0x1 PUSH1 0xA0 SHL SUB SWAP3 DUP4 AND DUP2 MSTORE SWAP2 AND PUSH1 0x20 DUP3 ADD MSTORE PUSH1 0x40 ADD PUSH1 0x40 MLOAD DUP1 SWAP2 SUB SWAP1 PUSH1 0x0 CREATE DUP1 ISZERO DUP1 ISZERO PUSH3 0x1929 JUMPI RETURNDATASIZE PUSH1 0x0 DUP1 RETURNDATACOPY RETURNDATASIZE PUSH1 0x0 REVERT JUMPDEST POP CALLER PUSH1 0x0 SWAP1 DUP2 MSTORE PUSH1 0x25 PUSH1 0x20 MSTORE PUSH1 0x40 DUP1 DUP3 KECCAK256 DUP1 SLOAD PUSH1 0x1 PUSH1 0x1 PUSH1 0xA0 SHL SUB NOT AND PUSH1 0x1 PUSH1 0x1 PUSH1 0xA0 SHL SUB DUP6 DUP2 AND SWAP2 SWAP1 SWAP2 OR SWAP1 SWAP2 SSTORE DUP6 DUP2 AND DUP4 MSTORE SWAP2 KECCAK256 SLOAD SWAP2 SWAP3 POP AND ISZERO DUP1 ISZERO SWAP1 PUSH3 0x198C JUMPI POP PUSH1 0x1 PUSH1 0x1 PUSH1 0xA0 SHL SUB DUP4 DUP2 AND PUSH1 0x0 SWAP1 DUP2 MSTORE PUSH1 0x25 PUSH1 0x20 MSTORE PUSH1 0x40 SWAP1 KECCAK256 SLOAD AND ISZERO ISZERO JUMPDEST DUP1 ISZERO PUSH3 0x19B2 JUMPI POP PUSH1 0x1 PUSH1 0x1 PUSH1 0xA0 SHL SUB DUP5 DUP2 AND PUSH1 0x0 SWAP1 DUP2 MSTORE PUSH1 0x25 PUSH1 0x20 MSTORE PUSH1 0x40 SWAP1 KECCAK256 SLOAD AND ISZERO ISZERO JUMPDEST ISZERO PUSH3 0x1BFC JUMPI PUSH1 0x1E SLOAD PUSH1 0x1 PUSH1 0x1 PUSH1 0xA0 SHL SUB DUP6 DUP2 AND PUSH1 0x0 SWAP1 DUP2 MSTORE PUSH1 0x25 PUSH1 0x20 MSTORE PUSH1 0x40 SWAP1 KECCAK256 SLOAD PUSH1 0x10 SLOAD PUSH1 0x12 SLOAD PUSH1 0x11 SLOAD SWAP5 DUP5 AND SWAP5 PUSH4 0x40C10F19 SWAP5 SWAP4 SWAP1 SWAP4 AND SWAP3 PUSH3 0x19F9 SWAP2 SWAP1 PUSH3 0x39B4 JUMP JUMPDEST PUSH3 0x1A05 SWAP2 SWAP1 PUSH3 0x39CE JUMP JUMPDEST PUSH3 0x1A19 SWAP1 PUSH8 0xDE0B6B3A7640000 PUSH3 0x39B4 JUMP JUMPDEST PUSH1 0x40 MLOAD PUSH1 0x1 PUSH1 0x1 PUSH1 0xE0 SHL SUB NOT PUSH1 0xE0 DUP6 SWAP1 SHL AND DUP2 MSTORE PUSH1 0x1 PUSH1 0x1 PUSH1 0xA0 SHL SUB SWAP1 SWAP3 AND PUSH1 0x4 DUP4 ADD MSTORE PUSH1 0x24 DUP3 ADD MSTORE PUSH1 0x44 ADD PUSH1 0x0 PUSH1 0x40 MLOAD DUP1 DUP4 SUB DUP2 PUSH1 0x0 DUP8 DUP1 EXTCODESIZE ISZERO DUP1 ISZERO PUSH3 0x1A60 JUMPI PUSH1 0x0 DUP1 REVERT JUMPDEST POP GAS CALL ISZERO DUP1 ISZERO PUSH3 0x1A75 JUMPI RETURNDATASIZE PUSH1 0x0 DUP1 RETURNDATACOPY RETURNDATASIZE PUSH1 0x0 REVERT JUMPDEST POP POP PUSH1 0x1E SLOAD PUSH1 0x1 PUSH1 0x1 PUSH1 0xA0 SHL SUB DUP7 DUP2 AND PUSH1 0x0 SWAP1 DUP2 MSTORE PUSH1 0x25 PUSH1 0x20 MSTORE PUSH1 0x40 SWAP1 KECCAK256 SLOAD PUSH1 0x10 SLOAD PUSH1 0x13 SLOAD PUSH1 0x11 SLOAD SWAP5 DUP5 AND SWAP7 POP PUSH4 0x40C10F19 SWAP6 POP SWAP2 SWAP1 SWAP3 AND SWAP3 PUSH3 0x1ABA SWAP2 SWAP1 PUSH3 0x39B4 JUMP JUMPDEST PUSH3 0x1AC6 SWAP2 SWAP1 PUSH3 0x39CE JUMP JUMPDEST PUSH3 0x1ADA SWAP1 PUSH8 0xDE0B6B3A7640000 PUSH3 0x39B4 JUMP JUMPDEST PUSH1 0x40 MLOAD PUSH1 0x1 PUSH1 0x1 PUSH1 0xE0 SHL SUB NOT PUSH1 0xE0 DUP6 SWAP1 SHL AND DUP2 MSTORE PUSH1 0x1 PUSH1 0x1 PUSH1 0xA0 SHL SUB SWAP1 SWAP3 AND PUSH1 0x4 DUP4 ADD MSTORE PUSH1 0x24 DUP3 ADD MSTORE PUSH1 0x44 ADD PUSH1 0x0 PUSH1 0x40 MLOAD DUP1 DUP4 SUB DUP2 PUSH1 0x0 DUP8 DUP1 EXTCODESIZE ISZERO DUP1 ISZERO PUSH3 0x1B21 JUMPI PUSH1 0x0 DUP1 REVERT JUMPDEST POP GAS CALL ISZERO DUP1 ISZERO PUSH3 0x1B36 JUMPI RETURNDATASIZE PUSH1 0x0 DUP1 RETURNDATACOPY RETURNDATASIZE PUSH1 0x0 REVERT JUMPDEST POP POP PUSH1 0x1E SLOAD PUSH1 0x1 PUSH1 0x1 PUSH1 0xA0 SHL SUB DUP6 DUP2 AND PUSH1 0x0 SWAP1 DUP2 MSTORE PUSH1 0x25 PUSH1 0x20 MSTORE PUSH1 0x40 SWAP1 KECCAK256 SLOAD PUSH1 0x10 SLOAD PUSH1 0x14 SLOAD PUSH1 0x11 SLOAD SWAP5 DUP5 AND SWAP7 POP PUSH4 0x40C10F19 SWAP6 POP SWAP2 SWAP1 SWAP3 AND SWAP3 PUSH3 0x1B7B SWAP2 SWAP1 PUSH3 0x39B4 JUMP JUMPDEST PUSH3 0x1B87 SWAP2 SWAP1 PUSH3 0x39CE JUMP JUMPDEST PUSH3 0x1B9B SWAP1 PUSH8 0xDE0B6B3A7640000 PUSH3 0x39B4 JUMP JUMPDEST PUSH1 0x40 MLOAD PUSH1 0x1 PUSH1 0x1 PUSH1 0xE0 SHL SUB NOT PUSH1 0xE0 DUP6 SWAP1 SHL AND DUP2 MSTORE PUSH1 0x1 PUSH1 0x1 PUSH1 0xA0 SHL SUB SWAP1 SWAP3 AND PUSH1 0x4 DUP4 ADD MSTORE PUSH1 0x24 DUP3 ADD MSTORE PUSH1 0x44 ADD PUSH1 0x0 PUSH1 0x40 MLOAD DUP1 DUP4 SUB DUP2 PUSH1 0x0 DUP8 DUP1 EXTCODESIZE ISZERO DUP1 ISZERO PUSH3 0x1BE2 JUMPI PUSH1 0x0 DUP1 REVERT JUMPDEST POP GAS CALL ISZERO DUP1 ISZERO PUSH3 0x1BF7 JUMPI RETURNDATASIZE PUSH1 0x0 DUP1 RETURNDATACOPY RETURNDATASIZE PUSH1 0x0 REVERT JUMPDEST POP POP POP POP JUMPDEST PUSH1 0xB DUP1 SLOAD SWAP1 PUSH1 0x0 PUSH3 0x1C0E DUP4 PUSH3 0x3A11 JUMP JUMPDEST SWAP2 SWAP1 POP SSTORE POP POP POP POP POP POP JUMP JUMPDEST PUSH3 0x1C24 PUSH3 0x2C62 JUMP JUMPDEST PUSH1 0xA DUP1 SLOAD PUSH1 0x1 PUSH1 0x1 PUSH1 0xA0 SHL SUB NOT AND PUSH1 0x1 PUSH1 0x1 PUSH1 0xA0 SHL SUB SWAP3 SWAP1 SWAP3 AND SWAP2 SWAP1 SWAP2 OR SWAP1 SSTORE JUMP JUMPDEST PUSH1 0x60 PUSH1 0x0 DUP1 SLOAD PUSH3 0x1C57 SWAP1 PUSH3 0x3A2D JUMP JUMPDEST DUP1 PUSH1 0x1F ADD PUSH1 0x20 DUP1 SWAP2 DIV MUL PUSH1 0x20 ADD PUSH1 0x40 MLOAD SWAP1 DUP2 ADD PUSH1 0x40 MSTORE DUP1 SWAP3 SWAP2 SWAP1 DUP2 DUP2 MSTORE PUSH1 0x20 ADD DUP3 DUP1 SLOAD PUSH3 0x1C85 SWAP1 PUSH3 0x3A2D JUMP JUMPDEST DUP1 ISZERO PUSH3 0x1CD6 JUMPI DUP1 PUSH1 0x1F LT PUSH3 0x1CAA JUMPI PUSH2 0x100 DUP1 DUP4 SLOAD DIV MUL DUP4 MSTORE SWAP2 PUSH1 0x20 ADD SWAP2 PUSH3 0x1CD6 JUMP JUMPDEST DUP3 ADD SWAP2 SWAP1 PUSH1 0x0 MSTORE PUSH1 0x20 PUSH1 0x0 KECCAK256 SWAP1 JUMPDEST DUP2 SLOAD DUP2 MSTORE SWAP1 PUSH1 0x1 ADD SWAP1 PUSH1 0x20 ADD DUP1 DUP4 GT PUSH3 0x1CB8 JUMPI DUP3 SWAP1 SUB PUSH1 0x1F AND DUP3 ADD SWAP2 JUMPDEST POP POP POP POP POP SWAP1 POP SWAP1 JUMP JUMPDEST PUSH1 0x0 PUSH3 0x1CED DUP3 PUSH3 0x2CBE JUMP JUMPDEST POP PUSH1 0x0 SWAP1 DUP2 MSTORE PUSH1 0x4 PUSH1 0x20 MSTORE PUSH1 0x40 SWAP1 KECCAK256 SLOAD PUSH1 0x1 PUSH1 0x1 PUSH1 0xA0 SHL SUB AND SWAP1 JUMP JUMPDEST PUSH1 0x15 DUP2 DUP2 SLOAD DUP2 LT PUSH3 0x1D1A JUMPI PUSH1 0x0 DUP1 REVERT JUMPDEST PUSH1 0x0 SWAP2 DUP3 MSTORE PUSH1 0x20 SWAP1 SWAP2 KECCAK256 ADD SLOAD PUSH1 0x1 PUSH1 0x1 PUSH1 0xA0 SHL SUB AND SWAP1 POP DUP2 JUMP JUMPDEST PUSH1 0x0 PUSH3 0x1D41 DUP3 PUSH3 0x20B5 JUMP JUMPDEST SWAP1 POP DUP1 PUSH1 0x1 PUSH1 0x1 PUSH1 0xA0 SHL SUB AND DUP4 PUSH1 0x1 PUSH1 0x1 PUSH1 0xA0 SHL SUB AND SUB PUSH3 0x1DB0 JUMPI PUSH1 0x40 MLOAD PUSH3 0x461BCD PUSH1 0xE5 SHL DUP2 MSTORE PUSH1 0x20 PUSH1 0x4 DUP3 ADD MSTORE PUSH1 0x21 PUSH1 0x24 DUP3 ADD MSTORE PUSH32 0x4552433732313A20617070726F76616C20746F2063757272656E74206F776E65 PUSH1 0x44 DUP3 ADD MSTORE PUSH1 0x39 PUSH1 0xF9 SHL PUSH1 0x64 DUP3 ADD MSTORE PUSH1 0x84 ADD PUSH3 0xF2E JUMP JUMPDEST CALLER PUSH1 0x1 PUSH1 0x1 PUSH1 0xA0 SHL SUB DUP3 AND EQ DUP1 PUSH3 0x1DCF JUMPI POP PUSH3 0x1DCF DUP2 CALLER PUSH3 0x2892 JUMP JUMPDEST PUSH3 0x1E43 JUMPI PUSH1 0x40 MLOAD PUSH3 0x461BCD PUSH1 0xE5 SHL DUP2 MSTORE PUSH1 0x20 PUSH1 0x4 DUP3 ADD MSTORE PUSH1 0x3D PUSH1 0x24 DUP3 ADD MSTORE PUSH32 0x4552433732313A20617070726F76652063616C6C6572206973206E6F7420746F PUSH1 0x44 DUP3 ADD MSTORE PUSH32 0x6B656E206F776E6572206F7220617070726F76656420666F7220616C6C000000 PUSH1 0x64 DUP3 ADD MSTORE PUSH1 0x84 ADD PUSH3 0xF2E JUMP JUMPDEST PUSH3 0x1E4F DUP4 DUP4 PUSH3 0x2D1F JUMP JUMPDEST POP POP POP JUMP JUMPDEST PUSH1 0x1 PUSH1 0x1 PUSH1 0xA0 SHL SUB DUP4 AND CALLER EQ DUP1 ISZERO PUSH3 0x1E75 JUMPI POP PUSH1 0x1 PUSH1 0x1 PUSH1 0xA0 SHL SUB DUP3 AND CALLER EQ JUMPDEST PUSH3 0x1E94 JUMPI PUSH1 0x40 MLOAD PUSH3 0x461BCD PUSH1 0xE5 SHL DUP2 MSTORE PUSH1 0x4 ADD PUSH3 0xF2E SWAP1 PUSH3 0x3A69 JUMP JUMPDEST PUSH3 0x1EA0 CALLER DUP3 PUSH3 0x2D8F JUMP JUMPDEST PUSH3 0x1EBF JUMPI PUSH1 0x40 MLOAD PUSH3 0x461BCD PUSH1 0xE5 SHL DUP2 MSTORE PUSH1 0x4 ADD PUSH3 0xF2E SWAP1 PUSH3 0x3AA0 JUMP JUMPDEST PUSH3 0x1E4F DUP4 DUP4 DUP4 PUSH3 0x2DF6 JUMP JUMPDEST PUSH3 0x1ED6 PUSH3 0x2C62 JUMP JUMPDEST PUSH1 0x0 JUMPDEST DUP2 MLOAD DUP2 LT ISZERO PUSH3 0x1FCF JUMPI PUSH1 0x21 PUSH1 0x0 DUP4 DUP4 DUP2 MLOAD DUP2 LT PUSH3 0x1EFC JUMPI PUSH3 0x1EFC PUSH3 0x3AEE JUMP JUMPDEST PUSH1 0x20 SWAP1 DUP2 MUL SWAP2 SWAP1 SWAP2 ADD DUP2 ADD MLOAD PUSH1 0x1 PUSH1 0x1 PUSH1 0xA0 SHL SUB AND DUP3 MSTORE DUP2 ADD SWAP2 SWAP1 SWAP2 MSTORE PUSH1 0x40 ADD PUSH1 0x0 KECCAK256 SLOAD PUSH1 0xFF AND PUSH3 0x1F42 JUMPI PUSH1 0x40 MLOAD PUSH3 0x461BCD PUSH1 0xE5 SHL DUP2 MSTORE PUSH1 0x4 ADD PUSH3 0xF2E SWAP1 PUSH3 0x3B04 JUMP JUMPDEST PUSH1 0x21 PUSH1 0x0 DUP4 DUP4 DUP2 MLOAD DUP2 LT PUSH3 0x1F5B JUMPI PUSH3 0x1F5B PUSH3 0x3AEE JUMP JUMPDEST PUSH1 0x20 MUL PUSH1 0x20 ADD ADD MLOAD PUSH1 0x1 PUSH1 0x1 PUSH1 0xA0 SHL SUB AND PUSH1 0x1 PUSH1 0x1 PUSH1 0xA0 SHL SUB AND DUP2 MSTORE PUSH1 0x20 ADD SWAP1 DUP2 MSTORE PUSH1 0x20 ADD PUSH1 0x0 KECCAK256 PUSH1 0x0 PUSH2 0x100 EXP DUP2 SLOAD SWAP1 PUSH1 0xFF MUL NOT AND SWAP1 SSTORE PUSH3 0x1FBA DUP3 DUP3 DUP2 MLOAD DUP2 LT PUSH3 0x1FAC JUMPI PUSH3 0x1FAC PUSH3 0x3AEE JUMP JUMPDEST PUSH1 0x20 MUL PUSH1 0x20 ADD ADD MLOAD PUSH3 0x2F66 JUMP JUMPDEST DUP1 PUSH3 0x1FC6 DUP2 PUSH3 0x3A11 JUMP JUMPDEST SWAP2 POP POP PUSH3 0x1ED9 JUMP JUMPDEST POP POP JUMP JUMPDEST PUSH1 0x24 PUSH1 0x20 MSTORE DUP2 PUSH1 0x0 MSTORE PUSH1 0x40 PUSH1 0x0 KECCAK256 DUP2 DUP2 SLOAD DUP2 LT PUSH3 0x1FF0 JUMPI PUSH1 0x0 DUP1 REVERT JUMPDEST SWAP1 PUSH1 0x0 MSTORE PUSH1 0x20 PUSH1 0x0 KECCAK256 ADD PUSH1 0x0 SWAP2 POP SWAP2 POP POP SLOAD DUP2 JUMP JUMPDEST PUSH3 0x200F PUSH3 0x2C62 JUMP JUMPDEST PUSH1 0x11 SSTORE JUMP JUMPDEST PUSH3 0x201E PUSH3 0x2C62 JUMP JUMPDEST PUSH1 0x1B DUP1 SLOAD PUSH1 0x1 PUSH1 0x1 PUSH1 0xA0 SHL SUB NOT AND PUSH1 0x1 PUSH1 0x1 PUSH1 0xA0 SHL SUB SWAP3 SWAP1 SWAP3 AND SWAP2 SWAP1 SWAP2 OR SWAP1 SSTORE JUMP JUMPDEST PUSH1 0x1 PUSH1 0x1 PUSH1 0xA0 SHL SUB DUP4 AND CALLER EQ DUP1 ISZERO PUSH3 0x2061 JUMPI POP PUSH1 0x1 PUSH1 0x1 PUSH1 0xA0 SHL SUB DUP3 AND CALLER EQ JUMPDEST PUSH3 0x2080 JUMPI PUSH1 0x40 MLOAD PUSH3 0x461BCD PUSH1 0xE5 SHL DUP2 MSTORE PUSH1 0x4 ADD PUSH3 0xF2E SWAP1 PUSH3 0x3A69 JUMP JUMPDEST PUSH3 0x1E4F DUP4 DUP4 DUP4 PUSH1 0x40 MLOAD DUP1 PUSH1 0x20 ADD PUSH1 0x40 MSTORE DUP1 PUSH1 0x0 DUP2 MSTORE POP PUSH3 0x2596 JUMP JUMPDEST PUSH3 0x20A7 PUSH3 0x2C62 JUMP JUMPDEST PUSH1 0x8 PUSH3 0x1FCF DUP3 DUP3 PUSH3 0x3B85 JUMP JUMPDEST PUSH1 0x0 DUP2 DUP2 MSTORE PUSH1 0x2 PUSH1 0x20 MSTORE PUSH1 0x40 DUP2 KECCAK256 SLOAD PUSH1 0x1 PUSH1 0x1 PUSH1 0xA0 SHL SUB AND DUP1 PUSH3 0xEDF JUMPI PUSH1 0x40 MLOAD PUSH3 0x461BCD PUSH1 0xE5 SHL DUP2 MSTORE PUSH1 0x20 PUSH1 0x4 DUP3 ADD MSTORE PUSH1 0x18 PUSH1 0x24 DUP3 ADD MSTORE PUSH24 0x115490CDCC8C4E881A5B9D985B1A59081D1BDAD95B881251 PUSH1 0x42 SHL PUSH1 0x44 DUP3 ADD MSTORE PUSH1 0x64 ADD PUSH3 0xF2E JUMP JUMPDEST PUSH3 0x2121 PUSH3 0x2C62 JUMP JUMPDEST DUP1 PUSH3 0x212E DUP4 DUP6 PUSH3 0x3C52 JUMP JUMPDEST PUSH3 0x213A SWAP2 SWAP1 PUSH3 0x3C52 JUMP JUMPDEST PUSH1 0x64 EQ PUSH3 0x215C JUMPI PUSH1 0x40 MLOAD PUSH3 0x461BCD PUSH1 0xE5 SHL DUP2 MSTORE PUSH1 0x4 ADD PUSH3 0xF2E SWAP1 PUSH3 0x3B04 JUMP JUMPDEST PUSH1 0xF SWAP3 SWAP1 SWAP3 SSTORE PUSH1 0xE SSTORE PUSH1 0xD SSTORE JUMP JUMPDEST PUSH3 0x2174 PUSH3 0x2C62 JUMP JUMPDEST PUSH1 0x17 SSTORE JUMP JUMPDEST PUSH1 0x8 DUP1 SLOAD PUSH3 0x2188 SWAP1 PUSH3 0x3A2D JUMP JUMPDEST DUP1 PUSH1 0x1F ADD PUSH1 0x20 DUP1 SWAP2 DIV MUL PUSH1 0x20 ADD PUSH1 0x40 MLOAD SWAP1 DUP2 ADD PUSH1 0x40 MSTORE DUP1 SWAP3 SWAP2 SWAP1 DUP2 DUP2 MSTORE PUSH1 0x20 ADD DUP3 DUP1 SLOAD PUSH3 0x21B6 SWAP1 PUSH3 0x3A2D JUMP JUMPDEST DUP1 ISZERO PUSH3 0x2207 JUMPI DUP1 PUSH1 0x1F LT PUSH3 0x21DB JUMPI PUSH2 0x100 DUP1 DUP4 SLOAD DIV MUL DUP4 MSTORE SWAP2 PUSH1 0x20 ADD SWAP2 PUSH3 0x2207 JUMP JUMPDEST DUP3 ADD SWAP2 SWAP1 PUSH1 0x0 MSTORE PUSH1 0x20 PUSH1 0x0 KECCAK256 SWAP1 JUMPDEST DUP2 SLOAD DUP2 MSTORE SWAP1 PUSH1 0x1 ADD SWAP1 PUSH1 0x20 ADD DUP1 DUP4 GT PUSH3 0x21E9 JUMPI DUP3 SWAP1 SUB PUSH1 0x1F AND DUP3 ADD SWAP2 JUMPDEST POP POP POP POP POP DUP2 JUMP JUMPDEST PUSH1 0x0 PUSH1 0x1 PUSH1 0x1 PUSH1 0xA0 SHL SUB DUP3 AND PUSH3 0x227B JUMPI PUSH1 0x40 MLOAD PUSH3 0x461BCD PUSH1 0xE5 SHL DUP2 MSTORE PUSH1 0x20 PUSH1 0x4 DUP3 ADD MSTORE PUSH1 0x29 PUSH1 0x24 DUP3 ADD MSTORE PUSH32 0x4552433732313A2061646472657373207A65726F206973206E6F742061207661 PUSH1 0x44 DUP3 ADD MSTORE PUSH9 0x3634B21037BBB732B9 PUSH1 0xB9 SHL PUSH1 0x64 DUP3 ADD MSTORE PUSH1 0x84 ADD PUSH3 0xF2E JUMP JUMPDEST POP PUSH1 0x1 PUSH1 0x1 PUSH1 0xA0 SHL SUB AND PUSH1 0x0 SWAP1 DUP2 MSTORE PUSH1 0x3 PUSH1 0x20 MSTORE PUSH1 0x40 SWAP1 KECCAK256 SLOAD SWAP1 JUMP JUMPDEST PUSH3 0x22A1 PUSH3 0x2C62 JUMP JUMPDEST PUSH3 0x22AD PUSH1 0x0 PUSH3 0x308A JUMP JUMPDEST JUMP JUMPDEST PUSH3 0x22B9 PUSH3 0x2C62 JUMP JUMPDEST PUSH1 0x0 JUMPDEST DUP2 MLOAD DUP2 LT ISZERO PUSH3 0x1FCF JUMPI PUSH1 0x21 PUSH1 0x0 DUP4 DUP4 DUP2 MLOAD DUP2 LT PUSH3 0x22DF JUMPI PUSH3 0x22DF PUSH3 0x3AEE JUMP JUMPDEST PUSH1 0x20 SWAP1 DUP2 MUL SWAP2 SWAP1 SWAP2 ADD DUP2 ADD MLOAD PUSH1 0x1 PUSH1 0x1 PUSH1 0xA0 SHL SUB AND DUP3 MSTORE DUP2 ADD SWAP2 SWAP1 SWAP2 MSTORE PUSH1 0x40 ADD PUSH1 0x0 KECCAK256 SLOAD PUSH1 0xFF AND ISZERO PUSH3 0x2326 JUMPI PUSH1 0x40 MLOAD PUSH3 0x461BCD PUSH1 0xE5 SHL DUP2 MSTORE PUSH1 0x4 ADD PUSH3 0xF2E SWAP1 PUSH3 0x3B04 JUMP JUMPDEST PUSH3 0x234D DUP3 DUP3 DUP2 MLOAD DUP2 LT PUSH3 0x233F JUMPI PUSH3 0x233F PUSH3 0x3AEE JUMP JUMPDEST PUSH1 0x20 MUL PUSH1 0x20 ADD ADD MLOAD PUSH3 0x30DC JUMP JUMPDEST PUSH1 0x1 PUSH1 0x21 PUSH1 0x0 DUP5 DUP5 DUP2 MLOAD DUP2 LT PUSH3 0x2368 JUMPI PUSH3 0x2368 PUSH3 0x3AEE JUMP JUMPDEST PUSH1 0x20 MUL PUSH1 0x20 ADD ADD MLOAD PUSH1 0x1 PUSH1 0x1 PUSH1 0xA0 SHL SUB AND PUSH1 0x1 PUSH1 0x1 PUSH1 0xA0 SHL SUB AND DUP2 MSTORE PUSH1 0x20 ADD SWAP1 DUP2 MSTORE PUSH1 0x20 ADD PUSH1 0x0 KECCAK256 PUSH1 0x0 PUSH2 0x100 EXP DUP2 SLOAD DUP2 PUSH1 0xFF MUL NOT AND SWAP1 DUP4 ISZERO ISZERO MUL OR SWAP1 SSTORE POP PUSH1 0x0 PUSH1 0x40 MLOAD DUP1 PUSH1 0x40 ADD PUSH1 0x40 MSTORE DUP1 CALLER PUSH1 0x1 PUSH1 0x1 PUSH1 0xA0 SHL SUB AND DUP2 MSTORE PUSH1 0x20 ADD PUSH3 0x23CE CALLER PUSH3 0x2641 JUMP JUMPDEST SWAP1 MSTORE PUSH1 0x20 DUP1 SLOAD PUSH1 0x1 DUP2 ADD DUP3 SSTORE PUSH1 0x0 DUP3 SWAP1 MSTORE DUP3 MLOAD PUSH32 0xC97BFAF2F8EE708C303A06D134F5ECD8389AE0432AF62DC132A24118292866BB PUSH1 0x2 SWAP1 SWAP3 MUL SWAP2 DUP3 ADD DUP1 SLOAD PUSH1 0x1 PUSH1 0x1 PUSH1 0xA0 SHL SUB NOT AND PUSH1 0x1 PUSH1 0x1 PUSH1 0xA0 SHL SUB SWAP1 SWAP3 AND SWAP2 SWAP1 SWAP2 OR SWAP1 SSTORE SWAP2 ADD MLOAD PUSH32 0xC97BFAF2F8EE708C303A06D134F5ECD8389AE0432AF62DC132A24118292866BC SWAP1 SWAP2 ADD SSTORE POP DUP1 PUSH3 0x245C DUP2 PUSH3 0x3A11 JUMP JUMPDEST SWAP2 POP POP PUSH3 0x22BC JUMP JUMPDEST PUSH3 0x246F PUSH3 0x2C62 JUMP JUMPDEST DUP1 PUSH3 0x247C DUP4 DUP6 PUSH3 0x3C52 JUMP JUMPDEST PUSH3 0x2488 SWAP2 SWAP1 PUSH3 0x3C52 JUMP JUMPDEST PUSH1 0x64 EQ PUSH3 0x24AA JUMPI PUSH1 0x40 MLOAD PUSH3 0x461BCD PUSH1 0xE5 SHL DUP2 MSTORE PUSH1 0x4 ADD PUSH3 0xF2E SWAP1 PUSH3 0x3B04 JUMP JUMPDEST PUSH1 0x12 SWAP3 SWAP1 SWAP3 SSTORE PUSH1 0x13 SSTORE PUSH1 0x14 SSTORE JUMP JUMPDEST PUSH1 0x60 PUSH1 0x1 DUP1 SLOAD PUSH3 0x1C57 SWAP1 PUSH3 0x3A2D JUMP JUMPDEST PUSH3 0x24D3 PUSH3 0x2C62 JUMP JUMPDEST PUSH1 0x16 DUP1 SLOAD PUSH1 0xFF PUSH1 0xA8 SHL NOT DUP2 AND PUSH1 0x1 PUSH1 0xA8 SHL SWAP2 DUP3 SWAP1 DIV PUSH1 0xFF AND ISZERO SWAP1 SWAP2 MUL OR SWAP1 SSTORE JUMP JUMPDEST PUSH3 0x24FE PUSH3 0x2C62 JUMP JUMPDEST PUSH1 0x1 PUSH1 0x1 PUSH1 0xA0 SHL SUB DUP2 AND PUSH3 0x2545 JUMPI PUSH1 0x40 MLOAD PUSH3 0x461BCD PUSH1 0xE5 SHL DUP2 MSTORE PUSH1 0x20 PUSH1 0x4 DUP3 ADD MSTORE PUSH1 0xC PUSH1 0x24 DUP3 ADD MSTORE PUSH12 0x6661696C2073657474696E67 PUSH1 0xA0 SHL PUSH1 0x44 DUP3 ADD MSTORE PUSH1 0x64 ADD PUSH3 0xF2E JUMP JUMPDEST PUSH1 0x7 DUP1 SLOAD PUSH1 0x1 PUSH1 0x1 PUSH1 0xA0 SHL SUB NOT AND PUSH1 0x1 PUSH1 0x1 PUSH1 0xA0 SHL SUB SWAP3 SWAP1 SWAP3 AND SWAP2 SWAP1 SWAP2 OR SWAP1 SSTORE JUMP JUMPDEST PUSH3 0x1FCF CALLER DUP4 DUP4 PUSH3 0x3154 JUMP JUMPDEST PUSH1 0x1C DUP2 DUP2 SLOAD DUP2 LT PUSH3 0x1D1A JUMPI PUSH1 0x0 DUP1 REVERT JUMPDEST PUSH1 0x1F DUP2 DUP2 SLOAD DUP2 LT PUSH3 0x1D1A JUMPI PUSH1 0x0 DUP1 REVERT JUMPDEST PUSH1 0x1 PUSH1 0x1 PUSH1 0xA0 SHL SUB DUP5 AND CALLER EQ DUP1 ISZERO PUSH3 0x25B7 JUMPI POP PUSH1 0x1 PUSH1 0x1 PUSH1 0xA0 SHL SUB DUP4 AND CALLER EQ JUMPDEST PUSH3 0x25D6 JUMPI PUSH1 0x40 MLOAD PUSH3 0x461BCD PUSH1 0xE5 SHL DUP2 MSTORE PUSH1 0x4 ADD PUSH3 0xF2E SWAP1 PUSH3 0x3A69 JUMP JUMPDEST PUSH3 0x25E2 CALLER DUP4 PUSH3 0x2D8F JUMP JUMPDEST PUSH3 0x2601 JUMPI PUSH1 0x40 MLOAD PUSH3 0x461BCD PUSH1 0xE5 SHL DUP2 MSTORE PUSH1 0x4 ADD PUSH3 0xF2E SWAP1 PUSH3 0x3AA0 JUMP JUMPDEST PUSH3 0x260F DUP5 DUP5 DUP5 DUP5 PUSH3 0x3224 JUMP JUMPDEST POP POP POP POP JUMP JUMPDEST PUSH3 0x261F PUSH3 0x2C62 JUMP JUMPDEST PUSH1 0x18 DUP1 SLOAD PUSH1 0x1 PUSH1 0x1 PUSH1 0xA0 SHL SUB NOT AND PUSH1 0x1 PUSH1 0x1 PUSH1 0xA0 SHL SUB SWAP3 SWAP1 SWAP3 AND SWAP2 SWAP1 SWAP2 OR SWAP1 SSTORE JUMP JUMPDEST PUSH1 0x7 SLOAD PUSH1 0x40 MLOAD PUSH4 0xCACD001 PUSH1 0xE1 SHL DUP2 MSTORE PUSH1 0x1 PUSH1 0x1 PUSH1 0xA0 SHL SUB DUP4 DUP2 AND PUSH1 0x4 DUP4 ADD MSTORE PUSH1 0x0 SWAP3 DUP4 SWAP3 SWAP2 AND SWAP1 PUSH4 0x1959A002 SWAP1 PUSH1 0x24 ADD PUSH1 0x0 PUSH1 0x40 MLOAD DUP1 DUP4 SUB DUP2 DUP7 GAS STATICCALL ISZERO DUP1 ISZERO PUSH3 0x2690 JUMPI RETURNDATASIZE PUSH1 0x0 DUP1 RETURNDATACOPY RETURNDATASIZE PUSH1 0x0 REVERT JUMPDEST POP POP POP POP PUSH1 0x40 MLOAD RETURNDATASIZE PUSH1 0x0 DUP3 RETURNDATACOPY PUSH1 0x1F RETURNDATASIZE SWAP1 DUP2 ADD PUSH1 0x1F NOT AND DUP3 ADD PUSH1 0x40 MSTORE PUSH3 0x26BA SWAP2 SWAP1 DUP2 ADD SWAP1 PUSH3 0x3CB4 JUMP JUMPDEST POP SWAP3 SWAP7 SWAP6 POP POP POP POP POP POP JUMP JUMPDEST PUSH1 0x1B SLOAD PUSH1 0x1 PUSH1 0x1 PUSH1 0xA0 SHL SUB AND CALLER EQ PUSH3 0x2715 JUMPI PUSH1 0x40 MLOAD PUSH3 0x461BCD PUSH1 0xE5 SHL DUP2 MSTORE PUSH1 0x20 PUSH1 0x4 DUP3 ADD MSTORE PUSH1 0x10 PUSH1 0x24 DUP3 ADD MSTORE PUSH16 0x30B2323932B9B99034B99032B93937B9 PUSH1 0x81 SHL PUSH1 0x44 DUP3 ADD MSTORE PUSH1 0x64 ADD PUSH3 0xF2E JUMP JUMPDEST PUSH1 0x16 DUP1 SLOAD PUSH1 0xFF PUSH1 0xA0 SHL NOT DUP2 AND PUSH1 0x1 PUSH1 0xA0 SHL SWAP2 DUP3 SWAP1 DIV PUSH1 0xFF AND ISZERO SWAP1 SWAP2 MUL OR SWAP1 SSTORE JUMP JUMPDEST PUSH1 0x20 DUP2 DUP2 SLOAD DUP2 LT PUSH3 0x2747 JUMPI PUSH1 0x0 DUP1 REVERT JUMPDEST PUSH1 0x0 SWAP2 DUP3 MSTORE PUSH1 0x20 SWAP1 SWAP2 KECCAK256 PUSH1 0x2 SWAP1 SWAP2 MUL ADD DUP1 SLOAD PUSH1 0x1 SWAP1 SWAP2 ADD SLOAD PUSH1 0x1 PUSH1 0x1 PUSH1 0xA0 SHL SUB SWAP1 SWAP2 AND SWAP2 POP DUP3 JUMP JUMPDEST PUSH1 0x9 DUP1 SLOAD PUSH3 0x2188 SWAP1 PUSH3 0x3A2D JUMP JUMPDEST PUSH1 0x0 DUP2 DUP2 MSTORE PUSH1 0x2 PUSH1 0x20 MSTORE PUSH1 0x40 SWAP1 KECCAK256 SLOAD PUSH1 0x60 SWAP1 PUSH1 0x1 PUSH1 0x1 PUSH1 0xA0 SHL SUB AND PUSH3 0x27FF JUMPI PUSH1 0x40 MLOAD PUSH3 0x461BCD PUSH1 0xE5 SHL DUP2 MSTORE PUSH1 0x20 PUSH1 0x4 DUP3 ADD MSTORE PUSH1 0x2F PUSH1 0x24 DUP3 ADD MSTORE PUSH32 0x4552433732314D657461646174613A2055524920717565727920666F72206E6F PUSH1 0x44 DUP3 ADD MSTORE PUSH15 0x3732BC34B9BA32B73A103A37B5B2B7 PUSH1 0x89 SHL PUSH1 0x64 DUP3 ADD MSTORE PUSH1 0x84 ADD PUSH3 0xF2E JUMP JUMPDEST PUSH1 0x0 PUSH3 0x280B PUSH3 0x325E JUMP JUMPDEST SWAP1 POP PUSH1 0x0 DUP2 MLOAD GT PUSH3 0x282D JUMPI PUSH1 0x40 MLOAD DUP1 PUSH1 0x20 ADD PUSH1 0x40 MSTORE DUP1 PUSH1 0x0 DUP2 MSTORE POP PUSH3 0x285F JUMP JUMPDEST DUP1 PUSH3 0x2839 DUP5 PUSH3 0x326F JUMP JUMPDEST PUSH1 0x9 PUSH1 0x40 MLOAD PUSH1 0x20 ADD PUSH3 0x284F SWAP4 SWAP3 SWAP2 SWAP1 PUSH3 0x3D48 JUMP JUMPDEST PUSH1 0x40 MLOAD PUSH1 0x20 DUP2 DUP4 SUB SUB DUP2 MSTORE SWAP1 PUSH1 0x40 MSTORE JUMPDEST SWAP4 SWAP3 POP POP POP JUMP JUMPDEST PUSH3 0x2870 PUSH3 0x2C62 JUMP JUMPDEST PUSH1 0x1E DUP1 SLOAD PUSH1 0x1 PUSH1 0x1 PUSH1 0xA0 SHL SUB NOT AND PUSH1 0x1 PUSH1 0x1 PUSH1 0xA0 SHL SUB SWAP3 SWAP1 SWAP3 AND SWAP2 SWAP1 SWAP2 OR SWAP1 SSTORE JUMP JUMPDEST PUSH1 0x1 PUSH1 0x1 PUSH1 0xA0 SHL SUB SWAP2 DUP3 AND PUSH1 0x0 SWAP1 DUP2 MSTORE PUSH1 0x5 PUSH1 0x20 SWAP1 DUP2 MSTORE PUSH1 0x40 DUP1 DUP4 KECCAK256 SWAP4 SWAP1 SWAP5 AND DUP3 MSTORE SWAP2 SWAP1 SWAP2 MSTORE KECCAK256 SLOAD PUSH1 0xFF AND SWAP1 JUMP JUMPDEST PUSH3 0x28CA PUSH3 0x2C62 JUMP JUMPDEST PUSH1 0x19 DUP1 SLOAD PUSH1 0x1 PUSH1 0x1 PUSH1 0xA0 SHL SUB NOT AND PUSH1 0x1 PUSH1 0x1 PUSH1 0xA0 SHL SUB SWAP3 SWAP1 SWAP3 AND SWAP2 SWAP1 SWAP2 OR SWAP1 SSTORE JUMP JUMPDEST PUSH3 0x28F6 PUSH3 0x2C62 JUMP JUMPDEST PUSH1 0x1 PUSH1 0x1 PUSH1 0xA0 SHL SUB DUP2 AND PUSH3 0x295D JUMPI PUSH1 0x40 MLOAD PUSH3 0x461BCD PUSH1 0xE5 SHL DUP2 MSTORE PUSH1 0x20 PUSH1 0x4 DUP3 ADD MSTORE PUSH1 0x26 PUSH1 0x24 DUP3 ADD MSTORE PUSH32 0x4F776E61626C653A206E6577206F776E657220697320746865207A65726F2061 PUSH1 0x44 DUP3 ADD MSTORE PUSH6 0x646472657373 PUSH1 0xD0 SHL PUSH1 0x64 DUP3 ADD MSTORE PUSH1 0x84 ADD PUSH3 0xF2E JUMP JUMPDEST PUSH3 0x2968 DUP2 PUSH3 0x308A JUMP JUMPDEST POP JUMP JUMPDEST PUSH3 0x2975 PUSH3 0x2C62 JUMP JUMPDEST PUSH1 0x1A DUP1 SLOAD PUSH1 0x1 PUSH1 0x1 PUSH1 0xA0 SHL SUB NOT AND PUSH1 0x1 PUSH1 0x1 PUSH1 0xA0 SHL SUB SWAP3 SWAP1 SWAP3 AND SWAP2 SWAP1 SWAP2 OR SWAP1 SSTORE JUMP JUMPDEST PUSH1 0x40 DUP1 MLOAD PUSH1 0x1 PUSH1 0x1 PUSH1 0xA0 SHL SUB DUP6 DUP2 AND PUSH1 0x24 DUP4 ADD MSTORE DUP5 DUP2 AND PUSH1 0x44 DUP4 ADD MSTORE PUSH1 0x64 DUP1 DUP4 ADD DUP6 SWAP1 MSTORE DUP4 MLOAD DUP1 DUP5 SUB SWAP1 SWAP2 ADD DUP2 MSTORE PUSH1 0x84 SWAP1 SWAP3 ADD DUP4 MSTORE PUSH1 0x20 DUP3 ADD DUP1 MLOAD PUSH1 0x1 PUSH1 0x1 PUSH1 0xE0 SHL SUB AND PUSH4 0x23B872DD PUSH1 0xE0 SHL OR SWAP1 MSTORE SWAP2 MLOAD PUSH1 0x0 SWAP3 DUP4 SWAP3 SWAP1 DUP9 AND SWAP2 PUSH3 0x29FD SWAP2 SWAP1 PUSH3 0x3DF4 JUMP JUMPDEST PUSH1 0x0 PUSH1 0x40 MLOAD DUP1 DUP4 SUB DUP2 PUSH1 0x0 DUP7 GAS CALL SWAP2 POP POP RETURNDATASIZE DUP1 PUSH1 0x0 DUP2 EQ PUSH3 0x2A3C JUMPI PUSH1 0x40 MLOAD SWAP2 POP PUSH1 0x1F NOT PUSH1 0x3F RETURNDATASIZE ADD AND DUP3 ADD PUSH1 0x40 MSTORE RETURNDATASIZE DUP3 MSTORE RETURNDATASIZE PUSH1 0x0 PUSH1 0x20 DUP5 ADD RETURNDATACOPY PUSH3 0x2A41 JUMP JUMPDEST PUSH1 0x60 SWAP2 POP JUMPDEST POP SWAP2 POP SWAP2 POP DUP2 DUP1 ISZERO PUSH3 0x2A6F JUMPI POP DUP1 MLOAD ISZERO DUP1 PUSH3 0x2A6F JUMPI POP DUP1 DUP1 PUSH1 0x20 ADD SWAP1 MLOAD DUP2 ADD SWAP1 PUSH3 0x2A6F SWAP2 SWAP1 PUSH3 0x39F1 JUMP JUMPDEST PUSH3 0x2AC9 JUMPI PUSH1 0x40 MLOAD PUSH3 0x461BCD PUSH1 0xE5 SHL DUP2 MSTORE PUSH1 0x20 PUSH1 0x4 DUP3 ADD MSTORE PUSH1 0x24 DUP1 DUP3 ADD MSTORE PUSH32 0x5472616E7366657248656C7065723A205452414E534645525F46524F4D5F4641 PUSH1 0x44 DUP3 ADD MSTORE PUSH4 0x12531151 PUSH1 0xE2 SHL PUSH1 0x64 DUP3 ADD MSTORE PUSH1 0x84 ADD PUSH3 0xF2E JUMP JUMPDEST POP POP POP POP POP POP JUMP JUMPDEST PUSH1 0x1 PUSH1 0x1 PUSH1 0xA0 SHL SUB DUP3 AND PUSH3 0x2B29 JUMPI PUSH1 0x40 MLOAD PUSH3 0x461BCD PUSH1 0xE5 SHL DUP2 MSTORE PUSH1 0x20 PUSH1 0x4 DUP3 ADD DUP2 SWAP1 MSTORE PUSH1 0x24 DUP3 ADD MSTORE PUSH32 0x4552433732313A206D696E7420746F20746865207A65726F2061646472657373 PUSH1 0x44 DUP3 ADD MSTORE PUSH1 0x64 ADD PUSH3 0xF2E JUMP JUMPDEST PUSH1 0x0 DUP2 DUP2 MSTORE PUSH1 0x2 PUSH1 0x20 MSTORE PUSH1 0x40 SWAP1 KECCAK256 SLOAD PUSH1 0x1 PUSH1 0x1 PUSH1 0xA0 SHL SUB AND ISZERO PUSH3 0x2B90 JUMPI PUSH1 0x40 MLOAD PUSH3 0x461BCD PUSH1 0xE5 SHL DUP2 MSTORE PUSH1 0x20 PUSH1 0x4 DUP3 ADD MSTORE PUSH1 0x1C PUSH1 0x24 DUP3 ADD MSTORE PUSH32 0x4552433732313A20746F6B656E20616C7265616479206D696E74656400000000 PUSH1 0x44 DUP3 ADD MSTORE PUSH1 0x64 ADD PUSH3 0xF2E JUMP JUMPDEST PUSH1 0x0 DUP2 DUP2 MSTORE PUSH1 0x2 PUSH1 0x20 MSTORE PUSH1 0x40 SWAP1 KECCAK256 SLOAD PUSH1 0x1 PUSH1 0x1 PUSH1 0xA0 SHL SUB AND ISZERO PUSH3 0x2BF7 JUMPI PUSH1 0x40 MLOAD PUSH3 0x461BCD PUSH1 0xE5 SHL DUP2 MSTORE PUSH1 0x20 PUSH1 0x4 DUP3 ADD MSTORE PUSH1 0x1C PUSH1 0x24 DUP3 ADD MSTORE PUSH32 0x4552433732313A20746F6B656E20616C7265616479206D696E74656400000000 PUSH1 0x44 DUP3 ADD MSTORE PUSH1 0x64 ADD PUSH3 0xF2E JUMP JUMPDEST PUSH1 0x1 PUSH1 0x1 PUSH1 0xA0 SHL SUB DUP3 AND PUSH1 0x0 DUP2 DUP2 MSTORE PUSH1 0x3 PUSH1 0x20 SWAP1 DUP2 MSTORE PUSH1 0x40 DUP1 DUP4 KECCAK256 DUP1 SLOAD PUSH1 0x1 ADD SWAP1 SSTORE DUP5 DUP4 MSTORE PUSH1 0x2 SWAP1 SWAP2 MSTORE DUP1 DUP3 KECCAK256 DUP1 SLOAD PUSH1 0x1 PUSH1 0x1 PUSH1 0xA0 SHL SUB NOT AND DUP5 OR SWAP1 SSTORE MLOAD DUP4 SWAP3 SWAP2 SWAP1 PUSH32 0xDDF252AD1BE2C89B69C2B068FC378DAA952BA7F163C4A11628F55A4DF523B3EF SWAP1 DUP3 SWAP1 LOG4 POP POP JUMP JUMPDEST PUSH1 0x6 SLOAD PUSH1 0x1 PUSH1 0x1 PUSH1 0xA0 SHL SUB AND CALLER EQ PUSH3 0x22AD JUMPI PUSH1 0x40 MLOAD PUSH3 0x461BCD PUSH1 0xE5 SHL DUP2 MSTORE PUSH1 0x20 PUSH1 0x4 DUP3 ADD DUP2 SWAP1 MSTORE PUSH1 0x24 DUP3 ADD MSTORE PUSH32 0x4F776E61626C653A2063616C6C6572206973206E6F7420746865206F776E6572 PUSH1 0x44 DUP3 ADD MSTORE PUSH1 0x64 ADD PUSH3 0xF2E JUMP JUMPDEST PUSH1 0x0 DUP2 DUP2 MSTORE PUSH1 0x2 PUSH1 0x20 MSTORE PUSH1 0x40 SWAP1 KECCAK256 SLOAD PUSH1 0x1 PUSH1 0x1 PUSH1 0xA0 SHL SUB AND PUSH3 0x2968 JUMPI PUSH1 0x40 MLOAD PUSH3 0x461BCD PUSH1 0xE5 SHL DUP2 MSTORE PUSH1 0x20 PUSH1 0x4 DUP3 ADD MSTORE PUSH1 0x18 PUSH1 0x24 DUP3 ADD MSTORE PUSH24 0x115490CDCC8C4E881A5B9D985B1A59081D1BDAD95B881251 PUSH1 0x42 SHL PUSH1 0x44 DUP3 ADD MSTORE PUSH1 0x64 ADD PUSH3 0xF2E JUMP JUMPDEST PUSH1 0x0 DUP2 DUP2 MSTORE PUSH1 0x4 PUSH1 0x20 MSTORE PUSH1 0x40 SWAP1 KECCAK256 DUP1 SLOAD PUSH1 0x1 PUSH1 0x1 PUSH1 0xA0 SHL SUB NOT AND PUSH1 0x1 PUSH1 0x1 PUSH1 0xA0 SHL SUB DUP5 AND SWAP1 DUP2 OR SWAP1 SWAP2 SSTORE DUP2 SWAP1 PUSH3 0x2D56 DUP3 PUSH3 0x20B5 JUMP JUMPDEST PUSH1 0x1 PUSH1 0x1 PUSH1 0xA0 SHL SUB AND PUSH32 0x8C5BE1E5EBEC7D5BD14F71427D1E84F3DD0314C0F7B2291E5B200AC8C7C3B925 PUSH1 0x40 MLOAD PUSH1 0x40 MLOAD DUP1 SWAP2 SUB SWAP1 LOG4 POP POP JUMP JUMPDEST PUSH1 0x0 DUP1 PUSH3 0x2D9D DUP4 PUSH3 0x20B5 JUMP JUMPDEST SWAP1 POP DUP1 PUSH1 0x1 PUSH1 0x1 PUSH1 0xA0 SHL SUB AND DUP5 PUSH1 0x1 PUSH1 0x1 PUSH1 0xA0 SHL SUB AND EQ DUP1 PUSH3 0x2DC7 JUMPI POP PUSH3 0x2DC7 DUP2 DUP6 PUSH3 0x2892 JUMP JUMPDEST DUP1 PUSH3 0x2DEE JUMPI POP DUP4 PUSH1 0x1 PUSH1 0x1 PUSH1 0xA0 SHL SUB AND PUSH3 0x2DE3 DUP5 PUSH3 0x1CE0 JUMP JUMPDEST PUSH1 0x1 PUSH1 0x1 PUSH1 0xA0 SHL SUB AND EQ JUMPDEST SWAP5 SWAP4 POP POP POP POP JUMP JUMPDEST DUP3 PUSH1 0x1 PUSH1 0x1 PUSH1 0xA0 SHL SUB AND PUSH3 0x2E0B DUP3 PUSH3 0x20B5 JUMP JUMPDEST PUSH1 0x1 PUSH1 0x1 PUSH1 0xA0 SHL SUB AND EQ PUSH3 0x2E34 JUMPI PUSH1 0x40 MLOAD PUSH3 0x461BCD PUSH1 0xE5 SHL DUP2 MSTORE PUSH1 0x4 ADD PUSH3 0xF2E SWAP1 PUSH3 0x3E12 JUMP JUMPDEST PUSH1 0x1 PUSH1 0x1 PUSH1 0xA0 SHL SUB DUP3 AND PUSH3 0x2E98 JUMPI PUSH1 0x40 MLOAD PUSH3 0x461BCD PUSH1 0xE5 SHL DUP2 MSTORE PUSH1 0x20 PUSH1 0x4 DUP3 ADD MSTORE PUSH1 0x24 DUP1 DUP3 ADD MSTORE PUSH32 0x4552433732313A207472616E7366657220746F20746865207A65726F20616464 PUSH1 0x44 DUP3 ADD MSTORE PUSH4 0x72657373 PUSH1 0xE0 SHL PUSH1 0x64 DUP3 ADD MSTORE PUSH1 0x84 ADD PUSH3 0xF2E JUMP JUMPDEST DUP3 PUSH1 0x1 PUSH1 0x1 PUSH1 0xA0 SHL SUB AND PUSH3 0x2EAD DUP3 PUSH3 0x20B5 JUMP JUMPDEST PUSH1 0x1 PUSH1 0x1 PUSH1 0xA0 SHL SUB AND EQ PUSH3 0x2ED6 JUMPI PUSH1 0x40 MLOAD PUSH3 0x461BCD PUSH1 0xE5 SHL DUP2 MSTORE PUSH1 0x4 ADD PUSH3 0xF2E SWAP1 PUSH3 0x3E12 JUMP JUMPDEST PUSH1 0x0 DUP2 DUP2 MSTORE PUSH1 0x4 PUSH1 0x20 SWAP1 DUP2 MSTORE PUSH1 0x40 DUP1 DUP4 KECCAK256 DUP1 SLOAD PUSH1 0x1 PUSH1 0x1 PUSH1 0xA0 SHL SUB NOT SWAP1 DUP2 AND SWAP1 SWAP2 SSTORE PUSH1 0x1 PUSH1 0x1 PUSH1 0xA0 SHL SUB DUP8 DUP2 AND DUP1 DUP7 MSTORE PUSH1 0x3 DUP6 MSTORE DUP4 DUP7 KECCAK256 DUP1 SLOAD PUSH1 0x0 NOT ADD SWAP1 SSTORE SWAP1 DUP8 AND DUP1 DUP7 MSTORE DUP4 DUP7 KECCAK256 DUP1 SLOAD PUSH1 0x1 ADD SWAP1 SSTORE DUP7 DUP7 MSTORE PUSH1 0x2 SWAP1 SWAP5 MSTORE DUP3 DUP6 KECCAK256 DUP1 SLOAD SWAP1 SWAP3 AND DUP5 OR SWAP1 SWAP2 SSTORE SWAP1 MLOAD DUP5 SWAP4 PUSH32 0xDDF252AD1BE2C89B69C2B068FC378DAA952BA7F163C4A11628F55A4DF523B3EF SWAP2 LOG4 POP POP POP JUMP JUMPDEST PUSH1 0x0 JUMPDEST PUSH1 0x20 SLOAD DUP2 LT ISZERO PUSH3 0x1FCF JUMPI DUP2 PUSH1 0x1 PUSH1 0x1 PUSH1 0xA0 SHL SUB AND PUSH1 0x20 DUP3 DUP2 SLOAD DUP2 LT PUSH3 0x2F94 JUMPI PUSH3 0x2F94 PUSH3 0x3AEE JUMP JUMPDEST PUSH1 0x0 SWAP2 DUP3 MSTORE PUSH1 0x20 SWAP1 SWAP2 KECCAK256 PUSH1 0x2 SWAP1 SWAP2 MUL ADD SLOAD PUSH1 0x1 PUSH1 0x1 PUSH1 0xA0 SHL SUB AND SUB PUSH3 0x3075 JUMPI PUSH1 0x20 DUP1 SLOAD PUSH3 0x2FC6 SWAP1 PUSH1 0x1 SWAP1 PUSH3 0x3E57 JUMP JUMPDEST DUP2 SLOAD DUP2 LT PUSH3 0x2FD9 JUMPI PUSH3 0x2FD9 PUSH3 0x3AEE JUMP JUMPDEST SWAP1 PUSH1 0x0 MSTORE PUSH1 0x20 PUSH1 0x0 KECCAK256 SWAP1 PUSH1 0x2 MUL ADD PUSH1 0x20 DUP3 DUP2 SLOAD DUP2 LT PUSH3 0x2FFD JUMPI PUSH3 0x2FFD PUSH3 0x3AEE JUMP JUMPDEST PUSH1 0x0 SWAP2 DUP3 MSTORE PUSH1 0x20 SWAP2 DUP3 SWAP1 KECCAK256 DUP4 SLOAD PUSH1 0x2 SWAP1 SWAP3 MUL ADD DUP1 SLOAD PUSH1 0x1 PUSH1 0x1 PUSH1 0xA0 SHL SUB NOT AND PUSH1 0x1 PUSH1 0x1 PUSH1 0xA0 SHL SUB SWAP1 SWAP3 AND SWAP2 SWAP1 SWAP2 OR DUP2 SSTORE PUSH1 0x1 SWAP3 DUP4 ADD SLOAD SWAP3 ADD SWAP2 SWAP1 SWAP2 SSTORE DUP1 SLOAD DUP1 PUSH3 0x304B JUMPI PUSH3 0x304B PUSH3 0x3E6D JUMP JUMPDEST PUSH1 0x0 DUP3 DUP2 MSTORE PUSH1 0x20 DUP2 KECCAK256 PUSH1 0x2 PUSH1 0x0 NOT SWAP1 SWAP4 ADD SWAP3 DUP4 MUL ADD DUP1 SLOAD PUSH1 0x1 PUSH1 0x1 PUSH1 0xA0 SHL SUB NOT AND DUP2 SSTORE PUSH1 0x1 ADD SSTORE SWAP1 SSTORE JUMPDEST DUP1 PUSH3 0x3081 DUP2 PUSH3 0x3A11 JUMP JUMPDEST SWAP2 POP POP PUSH3 0x2F69 JUMP JUMPDEST PUSH1 0x6 DUP1 SLOAD PUSH1 0x1 PUSH1 0x1 PUSH1 0xA0 SHL SUB DUP4 DUP2 AND PUSH1 0x1 PUSH1 0x1 PUSH1 0xA0 SHL SUB NOT DUP4 AND DUP2 OR SWAP1 SWAP4 SSTORE PUSH1 0x40 MLOAD SWAP2 AND SWAP2 SWAP1 DUP3 SWAP1 PUSH32 0x8BE0079C531659141344CD1FD0A4F28419497F9722A3DAAFE3B4186F6B6457E0 SWAP1 PUSH1 0x0 SWAP1 LOG3 POP POP JUMP JUMPDEST PUSH1 0x0 JUMPDEST PUSH1 0x20 SLOAD DUP2 LT ISZERO PUSH3 0x1FCF JUMPI PUSH1 0x20 DUP2 DUP2 SLOAD DUP2 LT PUSH3 0x3100 JUMPI PUSH3 0x3100 PUSH3 0x3AEE JUMP JUMPDEST PUSH1 0x0 SWAP2 DUP3 MSTORE PUSH1 0x20 SWAP1 SWAP2 KECCAK256 PUSH1 0x2 SWAP1 SWAP2 MUL ADD SLOAD PUSH1 0x1 PUSH1 0x1 PUSH1 0xA0 SHL SUB SWAP1 DUP2 AND SWAP1 DUP4 AND SUB PUSH3 0x313F JUMPI PUSH1 0x40 MLOAD PUSH3 0x461BCD PUSH1 0xE5 SHL DUP2 MSTORE PUSH1 0x4 ADD PUSH3 0xF2E SWAP1 PUSH3 0x3B04 JUMP JUMPDEST DUP1 PUSH3 0x314B DUP2 PUSH3 0x3A11 JUMP JUMPDEST SWAP2 POP POP PUSH3 0x30DF JUMP JUMPDEST DUP2 PUSH1 0x1 PUSH1 0x1 PUSH1 0xA0 SHL SUB AND DUP4 PUSH1 0x1 PUSH1 0x1 PUSH1 0xA0 SHL SUB AND SUB PUSH3 0x31B7 JUMPI PUSH1 0x40 MLOAD PUSH3 0x461BCD PUSH1 0xE5 SHL DUP2 MSTORE PUSH1 0x20 PUSH1 0x4 DUP3 ADD MSTORE PUSH1 0x19 PUSH1 0x24 DUP3 ADD MSTORE PUSH32 0x4552433732313A20617070726F766520746F2063616C6C657200000000000000 PUSH1 0x44 DUP3 ADD MSTORE PUSH1 0x64 ADD PUSH3 0xF2E JUMP JUMPDEST PUSH1 0x1 PUSH1 0x1 PUSH1 0xA0 SHL SUB DUP4 DUP2 AND PUSH1 0x0 DUP2 DUP2 MSTORE PUSH1 0x5 PUSH1 0x20 SWAP1 DUP2 MSTORE PUSH1 0x40 DUP1 DUP4 KECCAK256 SWAP5 DUP8 AND DUP1 DUP5 MSTORE SWAP5 DUP3 MSTORE SWAP2 DUP3 SWAP1 KECCAK256 DUP1 SLOAD PUSH1 0xFF NOT AND DUP7 ISZERO ISZERO SWAP1 DUP2 OR SWAP1 SWAP2 SSTORE SWAP2 MLOAD SWAP2 DUP3 MSTORE PUSH32 0x17307EAB39AB6107E8899845AD3D59BD9653F200F220920489CA2B5937696C31 SWAP2 ADD PUSH1 0x40 MLOAD DUP1 SWAP2 SUB SWAP1 LOG3 POP POP POP JUMP JUMPDEST PUSH3 0x3231 DUP5 DUP5 DUP5 PUSH3 0x2DF6 JUMP JUMPDEST PUSH3 0x323F DUP5 DUP5 DUP5 DUP5 PUSH3 0x3309 JUMP JUMPDEST PUSH3 0x260F JUMPI PUSH1 0x40 MLOAD PUSH3 0x461BCD PUSH1 0xE5 SHL DUP2 MSTORE PUSH1 0x4 ADD PUSH3 0xF2E SWAP1 PUSH3 0x3E83 JUMP JUMPDEST PUSH1 0x60 PUSH1 0x8 DUP1 SLOAD PUSH3 0x1C57 SWAP1 PUSH3 0x3A2D JUMP JUMPDEST PUSH1 0x60 PUSH1 0x0 PUSH3 0x327E DUP4 PUSH3 0x3417 JUMP JUMPDEST PUSH1 0x1 ADD SWAP1 POP PUSH1 0x0 DUP2 PUSH8 0xFFFFFFFFFFFFFFFF DUP2 GT ISZERO PUSH3 0x32A1 JUMPI PUSH3 0x32A1 PUSH3 0x3669 JUMP JUMPDEST PUSH1 0x40 MLOAD SWAP1 DUP1 DUP3 MSTORE DUP1 PUSH1 0x1F ADD PUSH1 0x1F NOT AND PUSH1 0x20 ADD DUP3 ADD PUSH1 0x40 MSTORE DUP1 ISZERO PUSH3 0x32CC JUMPI PUSH1 0x20 DUP3 ADD DUP2 DUP1 CALLDATASIZE DUP4 CALLDATACOPY ADD SWAP1 POP JUMPDEST POP SWAP1 POP DUP2 DUP2 ADD PUSH1 0x20 ADD JUMPDEST PUSH1 0x0 NOT ADD PUSH16 0x181899199A1A9B1B9C1CB0B131B232B3 PUSH1 0x81 SHL PUSH1 0xA DUP7 MOD BYTE DUP2 MSTORE8 PUSH1 0xA DUP6 DIV SWAP5 POP DUP5 PUSH3 0x32D6 JUMPI POP SWAP4 SWAP3 POP POP POP JUMP JUMPDEST PUSH1 0x0 PUSH1 0x1 PUSH1 0x1 PUSH1 0xA0 SHL SUB DUP5 AND EXTCODESIZE ISZERO PUSH3 0x340C JUMPI PUSH1 0x40 MLOAD PUSH4 0xA85BD01 PUSH1 0xE1 SHL DUP2 MSTORE PUSH1 0x1 PUSH1 0x1 PUSH1 0xA0 SHL SUB DUP6 AND SWAP1 PUSH4 0x150B7A02 SWAP1 PUSH3 0x3350 SWAP1 CALLER SWAP1 DUP10 SWAP1 DUP9 SWAP1 DUP9 SWAP1 PUSH1 0x4 ADD PUSH3 0x3ED5 JUMP JUMPDEST PUSH1 0x20 PUSH1 0x40 MLOAD DUP1 DUP4 SUB DUP2 PUSH1 0x0 DUP8 GAS CALL SWAP3 POP POP POP DUP1 ISZERO PUSH3 0x338E JUMPI POP PUSH1 0x40 DUP1 MLOAD PUSH1 0x1F RETURNDATASIZE SWAP1 DUP2 ADD PUSH1 0x1F NOT AND DUP3 ADD SWAP1 SWAP3 MSTORE PUSH3 0x338B SWAP2 DUP2 ADD SWAP1 PUSH3 0x3F14 JUMP JUMPDEST PUSH1 0x1 JUMPDEST PUSH3 0x33F1 JUMPI RETURNDATASIZE DUP1 DUP1 ISZERO PUSH3 0x33BF JUMPI PUSH1 0x40 MLOAD SWAP2 POP PUSH1 0x1F NOT PUSH1 0x3F RETURNDATASIZE ADD AND DUP3 ADD PUSH1 0x40 MSTORE RETURNDATASIZE DUP3 MSTORE RETURNDATASIZE PUSH1 0x0 PUSH1 0x20 DUP5 ADD RETURNDATACOPY PUSH3 0x33C4 JUMP JUMPDEST PUSH1 0x60 SWAP2 POP JUMPDEST POP DUP1 MLOAD PUSH1 0x0 SUB PUSH3 0x33E9 JUMPI PUSH1 0x40 MLOAD PUSH3 0x461BCD PUSH1 0xE5 SHL DUP2 MSTORE PUSH1 0x4 ADD PUSH3 0xF2E SWAP1 PUSH3 0x3E83 JUMP JUMPDEST DUP1 MLOAD DUP2 PUSH1 0x20 ADD REVERT JUMPDEST PUSH1 0x1 PUSH1 0x1 PUSH1 0xE0 SHL SUB NOT AND PUSH4 0xA85BD01 PUSH1 0xE1 SHL EQ SWAP1 POP PUSH3 0x2DEE JUMP JUMPDEST POP PUSH1 0x1 SWAP5 SWAP4 POP POP POP POP JUMP JUMPDEST PUSH1 0x0 DUP1 PUSH19 0x184F03E93FF9F4DAA797ED6E38ED64BF6A1F01 PUSH1 0x40 SHL DUP4 LT PUSH3 0x3457 JUMPI PUSH19 0x184F03E93FF9F4DAA797ED6E38ED64BF6A1F01 PUSH1 0x40 SHL DUP4 DIV SWAP3 POP PUSH1 0x40 ADD JUMPDEST PUSH14 0x4EE2D6D415B85ACEF8100000000 DUP4 LT PUSH3 0x3484 JUMPI PUSH14 0x4EE2D6D415B85ACEF8100000000 DUP4 DIV SWAP3 POP PUSH1 0x20 ADD JUMPDEST PUSH7 0x2386F26FC10000 DUP4 LT PUSH3 0x34A3 JUMPI PUSH7 0x2386F26FC10000 DUP4 DIV SWAP3 POP PUSH1 0x10 ADD JUMPDEST PUSH4 0x5F5E100 DUP4 LT PUSH3 0x34BC JUMPI PUSH4 0x5F5E100 DUP4 DIV SWAP3 POP PUSH1 0x8 ADD JUMPDEST PUSH2 0x2710 DUP4 LT PUSH3 0x34D1 JUMPI PUSH2 0x2710 DUP4 DIV SWAP3 POP PUSH1 0x4 ADD JUMPDEST PUSH1 0x64 DUP4 LT PUSH3 0x34E4 JUMPI PUSH1 0x64 DUP4 DIV SWAP3 POP PUSH1 0x2 ADD JUMPDEST PUSH1 0xA DUP4 LT PUSH3 0xEDF JUMPI PUSH1 0x1 ADD SWAP3 SWAP2 POP POP JUMP JUMPDEST PUSH2 0x16A DUP1 PUSH3 0x3F35 DUP4 CODECOPY ADD SWAP1 JUMP JUMPDEST PUSH1 0x0 PUSH1 0x20 DUP3 DUP5 SUB SLT ISZERO PUSH3 0x3517 JUMPI PUSH1 0x0 DUP1 REVERT JUMPDEST POP CALLDATALOAD SWAP2 SWAP1 POP JUMP JUMPDEST PUSH1 0x1 PUSH1 0x1 PUSH1 0xE0 SHL SUB NOT DUP2 AND DUP2 EQ PUSH3 0x2968 JUMPI PUSH1 0x0 DUP1 REVERT JUMPDEST PUSH1 0x0 PUSH1 0x20 DUP3 DUP5 SUB SLT ISZERO PUSH3 0x3548 JUMPI PUSH1 0x0 DUP1 REVERT JUMPDEST DUP2 CALLDATALOAD PUSH3 0x285F DUP2 PUSH3 0x351E JUMP JUMPDEST PUSH1 0x1 PUSH1 0x1 PUSH1 0xA0 SHL SUB DUP2 AND DUP2 EQ PUSH3 0x2968 JUMPI PUSH1 0x0 DUP1 REVERT JUMPDEST PUSH1 0x0 PUSH1 0x20 DUP3 DUP5 SUB SLT ISZERO PUSH3 0x357E JUMPI PUSH1 0x0 DUP1 REVERT JUMPDEST DUP2 CALLDATALOAD PUSH3 0x285F DUP2 PUSH3 0x3555 JUMP JUMPDEST PUSH1 0x0 JUMPDEST DUP4 DUP2 LT ISZERO PUSH3 0x35A8 JUMPI DUP2 DUP2 ADD MLOAD DUP4 DUP3 ADD MSTORE PUSH1 0x20 ADD PUSH3 0x358E JUMP JUMPDEST POP POP PUSH1 0x0 SWAP2 ADD MSTORE JUMP JUMPDEST PUSH1 0x0 DUP2 MLOAD DUP1 DUP5 MSTORE PUSH3 0x35CB DUP2 PUSH1 0x20 DUP7 ADD PUSH1 0x20 DUP7 ADD PUSH3 0x358B JUMP JUMPDEST PUSH1 0x1F ADD PUSH1 0x1F NOT AND SWAP3 SWAP1 SWAP3 ADD PUSH1 0x20 ADD SWAP3 SWAP2 POP POP JUMP JUMPDEST PUSH1 0x20 DUP2 MSTORE PUSH1 0x0 PUSH3 0x285F PUSH1 0x20 DUP4 ADD DUP5 PUSH3 0x35B1 JUMP JUMPDEST PUSH1 0x0 DUP1 PUSH1 0x40 DUP4 DUP6 SUB SLT ISZERO PUSH3 0x3608 JUMPI PUSH1 0x0 DUP1 REVERT JUMPDEST DUP3 CALLDATALOAD PUSH3 0x3615 DUP2 PUSH3 0x3555 JUMP JUMPDEST SWAP5 PUSH1 0x20 SWAP4 SWAP1 SWAP4 ADD CALLDATALOAD SWAP4 POP POP POP JUMP JUMPDEST PUSH1 0x0 DUP1 PUSH1 0x0 PUSH1 0x60 DUP5 DUP7 SUB SLT ISZERO PUSH3 0x3639 JUMPI PUSH1 0x0 DUP1 REVERT JUMPDEST DUP4 CALLDATALOAD PUSH3 0x3646 DUP2 PUSH3 0x3555 JUMP JUMPDEST SWAP3 POP PUSH1 0x20 DUP5 ADD CALLDATALOAD PUSH3 0x3658 DUP2 PUSH3 0x3555 JUMP JUMPDEST SWAP3 SWAP6 SWAP3 SWAP5 POP POP POP PUSH1 0x40 SWAP2 SWAP1 SWAP2 ADD CALLDATALOAD SWAP1 JUMP JUMPDEST PUSH4 0x4E487B71 PUSH1 0xE0 SHL PUSH1 0x0 MSTORE PUSH1 0x41 PUSH1 0x4 MSTORE PUSH1 0x24 PUSH1 0x0 REVERT JUMPDEST PUSH1 0x40 MLOAD PUSH1 0x1F DUP3 ADD PUSH1 0x1F NOT AND DUP2 ADD PUSH8 0xFFFFFFFFFFFFFFFF DUP2 GT DUP3 DUP3 LT OR ISZERO PUSH3 0x36AB JUMPI PUSH3 0x36AB PUSH3 0x3669 JUMP JUMPDEST PUSH1 0x40 MSTORE SWAP2 SWAP1 POP JUMP JUMPDEST PUSH1 0x0 PUSH1 0x20 DUP1 DUP4 DUP6 SUB SLT ISZERO PUSH3 0x36C7 JUMPI PUSH1 0x0 DUP1 REVERT JUMPDEST DUP3 CALLDATALOAD PUSH8 0xFFFFFFFFFFFFFFFF DUP1 DUP3 GT ISZERO PUSH3 0x36E0 JUMPI PUSH1 0x0 DUP1 REVERT JUMPDEST DUP2 DUP6 ADD SWAP2 POP DUP6 PUSH1 0x1F DUP4 ADD SLT PUSH3 0x36F5 JUMPI PUSH1 0x0 DUP1 REVERT JUMPDEST DUP2 CALLDATALOAD DUP2 DUP2 GT ISZERO PUSH3 0x370A JUMPI PUSH3 0x370A PUSH3 0x3669 JUMP JUMPDEST DUP1 PUSH1 0x5 SHL SWAP2 POP PUSH3 0x371D DUP5 DUP4 ADD PUSH3 0x367F JUMP JUMPDEST DUP2 DUP2 MSTORE SWAP2 DUP4 ADD DUP5 ADD SWAP2 DUP5 DUP2 ADD SWAP1 DUP9 DUP5 GT ISZERO PUSH3 0x3738 JUMPI PUSH1 0x0 DUP1 REVERT JUMPDEST SWAP4 DUP6 ADD SWAP4 JUMPDEST DUP4 DUP6 LT ISZERO PUSH3 0x3766 JUMPI DUP5 CALLDATALOAD SWAP3 POP PUSH3 0x3755 DUP4 PUSH3 0x3555 JUMP JUMPDEST DUP3 DUP3 MSTORE SWAP4 DUP6 ADD SWAP4 SWAP1 DUP6 ADD SWAP1 PUSH3 0x373D JUMP JUMPDEST SWAP9 SWAP8 POP POP POP POP POP POP POP POP JUMP JUMPDEST PUSH1 0x0 PUSH8 0xFFFFFFFFFFFFFFFF DUP3 GT ISZERO PUSH3 0x378F JUMPI PUSH3 0x378F PUSH3 0x3669 JUMP JUMPDEST POP PUSH1 0x1F ADD PUSH1 0x1F NOT AND PUSH1 0x20 ADD SWAP1 JUMP JUMPDEST PUSH1 0x0 PUSH3 0x37B4 PUSH3 0x37AE DUP5 PUSH3 0x3772 JUMP JUMPDEST PUSH3 0x367F JUMP JUMPDEST SWAP1 POP DUP3 DUP2 MSTORE DUP4 DUP4 DUP4 ADD GT ISZERO PUSH3 0x37C9 JUMPI PUSH1 0x0 DUP1 REVERT JUMPDEST DUP3 DUP3 PUSH1 0x20 DUP4 ADD CALLDATACOPY PUSH1 0x0 PUSH1 0x20 DUP5 DUP4 ADD ADD MSTORE SWAP4 SWAP3 POP POP POP JUMP JUMPDEST PUSH1 0x0 PUSH1 0x20 DUP3 DUP5 SUB SLT ISZERO PUSH3 0x37F3 JUMPI PUSH1 0x0 DUP1 REVERT JUMPDEST DUP2 CALLDATALOAD PUSH8 0xFFFFFFFFFFFFFFFF DUP2 GT ISZERO PUSH3 0x380B JUMPI PUSH1 0x0 DUP1 REVERT JUMPDEST DUP3 ADD PUSH1 0x1F DUP2 ADD DUP5 SGT PUSH3 0x381D JUMPI PUSH1 0x0 DUP1 REVERT JUMPDEST PUSH3 0x2DEE DUP5 DUP3 CALLDATALOAD PUSH1 0x20 DUP5 ADD PUSH3 0x379D JUMP JUMPDEST PUSH1 0x0 DUP1 PUSH1 0x0 PUSH1 0x60 DUP5 DUP7 SUB SLT ISZERO PUSH3 0x3844 JUMPI PUSH1 0x0 DUP1 REVERT JUMPDEST POP POP DUP2 CALLDATALOAD SWAP4 PUSH1 0x20 DUP4 ADD CALLDATALOAD SWAP4 POP PUSH1 0x40 SWAP1 SWAP3 ADD CALLDATALOAD SWAP2 SWAP1 POP JUMP JUMPDEST DUP1 ISZERO ISZERO DUP2 EQ PUSH3 0x2968 JUMPI PUSH1 0x0 DUP1 REVERT JUMPDEST PUSH1 0x0 DUP1 PUSH1 0x40 DUP4 DUP6 SUB SLT ISZERO PUSH3 0x387E JUMPI PUSH1 0x0 DUP1 REVERT JUMPDEST DUP3 CALLDATALOAD PUSH3 0x388B DUP2 PUSH3 0x3555 JUMP JUMPDEST SWAP2 POP PUSH1 0x20 DUP4 ADD CALLDATALOAD PUSH3 0x389D DUP2 PUSH3 0x385B JUMP JUMPDEST DUP1 SWAP2 POP POP SWAP3 POP SWAP3 SWAP1 POP JUMP JUMPDEST PUSH1 0x0 DUP1 PUSH1 0x0 DUP1 PUSH1 0x80 DUP6 DUP8 SUB SLT ISZERO PUSH3 0x38BF JUMPI PUSH1 0x0 DUP1 REVERT JUMPDEST DUP5 CALLDATALOAD PUSH3 0x38CC DUP2 PUSH3 0x3555 JUMP JUMPDEST SWAP4 POP PUSH1 0x20 DUP6 ADD CALLDATALOAD PUSH3 0x38DE DUP2 PUSH3 0x3555 JUMP JUMPDEST SWAP3 POP PUSH1 0x40 DUP6 ADD CALLDATALOAD SWAP2 POP PUSH1 0x60 DUP6 ADD CALLDATALOAD PUSH8 0xFFFFFFFFFFFFFFFF DUP2 GT ISZERO PUSH3 0x3902 JUMPI PUSH1 0x0 DUP1 REVERT JUMPDEST DUP6 ADD PUSH1 0x1F DUP2 ADD DUP8 SGT PUSH3 0x3914 JUMPI PUSH1 0x0 DUP1 REVERT JUMPDEST PUSH3 0x3925 DUP8 DUP3 CALLDATALOAD PUSH1 0x20 DUP5 ADD PUSH3 0x379D JUMP JUMPDEST SWAP2 POP POP SWAP3 SWAP6 SWAP2 SWAP5 POP SWAP3 POP JUMP JUMPDEST PUSH1 0x0 DUP1 PUSH1 0x40 DUP4 DUP6 SUB SLT ISZERO PUSH3 0x3945 JUMPI PUSH1 0x0 DUP1 REVERT JUMPDEST DUP3 CALLDATALOAD PUSH3 0x3952 DUP2 PUSH3 0x3555 JUMP JUMPDEST SWAP2 POP PUSH1 0x20 DUP4 ADD CALLDATALOAD PUSH3 0x389D DUP2 PUSH3 0x3555 JUMP JUMPDEST PUSH1 0x0 PUSH1 0x20 DUP3 DUP5 SUB SLT ISZERO PUSH3 0x3977 JUMPI PUSH1 0x0 DUP1 REVERT JUMPDEST POP MLOAD SWAP2 SWAP1 POP JUMP JUMPDEST PUSH1 0x0 PUSH1 0x20 DUP3 DUP5 SUB SLT ISZERO PUSH3 0x3991 JUMPI PUSH1 0x0 DUP1 REVERT JUMPDEST DUP2 MLOAD PUSH3 0x285F DUP2 PUSH3 0x3555 JUMP JUMPDEST PUSH4 0x4E487B71 PUSH1 0xE0 SHL PUSH1 0x0 MSTORE PUSH1 0x11 PUSH1 0x4 MSTORE PUSH1 0x24 PUSH1 0x0 REVERT JUMPDEST DUP1 DUP3 MUL DUP2 ISZERO DUP3 DUP3 DIV DUP5 EQ OR PUSH3 0xEDF JUMPI PUSH3 0xEDF PUSH3 0x399E JUMP JUMPDEST PUSH1 0x0 DUP3 PUSH3 0x39EC JUMPI PUSH4 0x4E487B71 PUSH1 0xE0 SHL PUSH1 0x0 MSTORE PUSH1 0x12 PUSH1 0x4 MSTORE PUSH1 0x24 PUSH1 0x0 REVERT JUMPDEST POP DIV SWAP1 JUMP JUMPDEST PUSH1 0x0 PUSH1 0x20 DUP3 DUP5 SUB SLT ISZERO PUSH3 0x3A04 JUMPI PUSH1 0x0 DUP1 REVERT JUMPDEST DUP2 MLOAD PUSH3 0x285F DUP2 PUSH3 0x385B JUMP JUMPDEST PUSH1 0x0 PUSH1 0x1 DUP3 ADD PUSH3 0x3A26 JUMPI PUSH3 0x3A26 PUSH3 0x399E JUMP JUMPDEST POP PUSH1 0x1 ADD SWAP1 JUMP JUMPDEST PUSH1 0x1 DUP2 DUP2 SHR SWAP1 DUP3 AND DUP1 PUSH3 0x3A42 JUMPI PUSH1 0x7F DUP3 AND SWAP2 POP JUMPDEST PUSH1 0x20 DUP3 LT DUP2 SUB PUSH3 0x3A63 JUMPI PUSH4 0x4E487B71 PUSH1 0xE0 SHL PUSH1 0x0 MSTORE PUSH1 0x22 PUSH1 0x4 MSTORE PUSH1 0x24 PUSH1 0x0 REVERT JUMPDEST POP SWAP2 SWAP1 POP JUMP JUMPDEST PUSH1 0x20 DUP1 DUP3 MSTORE PUSH1 0x1E SWAP1 DUP3 ADD MSTORE PUSH32 0x74686520464944206E6F7420746F207472616E73666572206F74686572730000 PUSH1 0x40 DUP3 ADD MSTORE PUSH1 0x60 ADD SWAP1 JUMP JUMPDEST PUSH1 0x20 DUP1 DUP3 MSTORE PUSH1 0x2E SWAP1 DUP3 ADD MSTORE PUSH32 0x4552433732313A2063616C6C6572206973206E6F7420746F6B656E206F776E65 PUSH1 0x40 DUP3 ADD MSTORE PUSH14 0x1C881B9BDC88185C1C1C9BDD9959 PUSH1 0x92 SHL PUSH1 0x60 DUP3 ADD MSTORE PUSH1 0x80 ADD SWAP1 JUMP JUMPDEST PUSH4 0x4E487B71 PUSH1 0xE0 SHL PUSH1 0x0 MSTORE PUSH1 0x32 PUSH1 0x4 MSTORE PUSH1 0x24 PUSH1 0x0 REVERT JUMPDEST PUSH1 0x20 DUP1 DUP3 MSTORE PUSH1 0x19 SWAP1 DUP3 ADD MSTORE PUSH32 0x46697265536F756C3A20696E76616C69642073657474696E6700000000000000 PUSH1 0x40 DUP3 ADD MSTORE PUSH1 0x60 ADD SWAP1 JUMP JUMPDEST PUSH1 0x1F DUP3 GT ISZERO PUSH3 0x1E4F JUMPI PUSH1 0x0 DUP2 DUP2 MSTORE PUSH1 0x20 DUP2 KECCAK256 PUSH1 0x1F DUP6 ADD PUSH1 0x5 SHR DUP2 ADD PUSH1 0x20 DUP7 LT ISZERO PUSH3 0x3B64 JUMPI POP DUP1 JUMPDEST PUSH1 0x1F DUP6 ADD PUSH1 0x5 SHR DUP3 ADD SWAP2 POP JUMPDEST DUP2 DUP2 LT ISZERO PUSH3 0x2AC9 JUMPI DUP3 DUP2 SSTORE PUSH1 0x1 ADD PUSH3 0x3B70 JUMP JUMPDEST DUP2 MLOAD PUSH8 0xFFFFFFFFFFFFFFFF DUP2 GT ISZERO PUSH3 0x3BA2 JUMPI PUSH3 0x3BA2 PUSH3 0x3669 JUMP JUMPDEST PUSH3 0x3BBA DUP2 PUSH3 0x3BB3 DUP5 SLOAD PUSH3 0x3A2D JUMP JUMPDEST DUP5 PUSH3 0x3B3B JUMP JUMPDEST PUSH1 0x20 DUP1 PUSH1 0x1F DUP4 GT PUSH1 0x1 DUP2 EQ PUSH3 0x3BF2 JUMPI PUSH1 0x0 DUP5 ISZERO PUSH3 0x3BD9 JUMPI POP DUP6 DUP4 ADD MLOAD JUMPDEST PUSH1 0x0 NOT PUSH1 0x3 DUP7 SWAP1 SHL SHR NOT AND PUSH1 0x1 DUP6 SWAP1 SHL OR DUP6 SSTORE PUSH3 0x2AC9 JUMP JUMPDEST PUSH1 0x0 DUP6 DUP2 MSTORE PUSH1 0x20 DUP2 KECCAK256 PUSH1 0x1F NOT DUP7 AND SWAP2 JUMPDEST DUP3 DUP2 LT ISZERO PUSH3 0x3C23 JUMPI DUP9 DUP7 ADD MLOAD DUP3 SSTORE SWAP5 DUP5 ADD SWAP5 PUSH1 0x1 SWAP1 SWAP2 ADD SWAP1 DUP5 ADD PUSH3 0x3C02 JUMP JUMPDEST POP DUP6 DUP3 LT ISZERO PUSH3 0x3C42 JUMPI DUP8 DUP6 ADD MLOAD PUSH1 0x0 NOT PUSH1 0x3 DUP9 SWAP1 SHL PUSH1 0xF8 AND SHR NOT AND DUP2 SSTORE JUMPDEST POP POP POP POP POP PUSH1 0x1 SWAP1 DUP2 SHL ADD SWAP1 SSTORE POP JUMP JUMPDEST DUP1 DUP3 ADD DUP1 DUP3 GT ISZERO PUSH3 0xEDF JUMPI PUSH3 0xEDF PUSH3 0x399E JUMP JUMPDEST PUSH1 0x0 DUP3 PUSH1 0x1F DUP4 ADD SLT PUSH3 0x3C7A JUMPI PUSH1 0x0 DUP1 REVERT JUMPDEST DUP2 MLOAD PUSH3 0x3C8B PUSH3 0x37AE DUP3 PUSH3 0x3772 JUMP JUMPDEST DUP2 DUP2 MSTORE DUP5 PUSH1 0x20 DUP4 DUP7 ADD ADD GT ISZERO PUSH3 0x3CA1 JUMPI PUSH1 0x0 DUP1 REVERT JUMPDEST PUSH3 0x2DEE DUP3 PUSH1 0x20 DUP4 ADD PUSH1 0x20 DUP8 ADD PUSH3 0x358B JUMP JUMPDEST PUSH1 0x0 DUP1 PUSH1 0x0 DUP1 PUSH1 0x0 PUSH1 0xA0 DUP7 DUP9 SUB SLT ISZERO PUSH3 0x3CCD JUMPI PUSH1 0x0 DUP1 REVERT JUMPDEST DUP6 MLOAD SWAP5 POP PUSH1 0x20 DUP7 ADD MLOAD PUSH3 0x3CE1 DUP2 PUSH3 0x3555 JUMP JUMPDEST PUSH1 0x40 DUP8 ADD MLOAD SWAP1 SWAP5 POP PUSH8 0xFFFFFFFFFFFFFFFF DUP1 DUP3 GT ISZERO PUSH3 0x3D00 JUMPI PUSH1 0x0 DUP1 REVERT JUMPDEST PUSH3 0x3D0E DUP10 DUP4 DUP11 ADD PUSH3 0x3C68 JUMP JUMPDEST SWAP5 POP PUSH1 0x60 DUP9 ADD MLOAD SWAP2 POP DUP1 DUP3 GT ISZERO PUSH3 0x3D25 JUMPI PUSH1 0x0 DUP1 REVERT JUMPDEST POP PUSH3 0x3D34 DUP9 DUP3 DUP10 ADD PUSH3 0x3C68 JUMP JUMPDEST SWAP3 POP POP PUSH1 0x80 DUP7 ADD MLOAD SWAP1 POP SWAP3 SWAP6 POP SWAP3 SWAP6 SWAP1 SWAP4 POP JUMP JUMPDEST PUSH1 0x0 DUP5 MLOAD PUSH1 0x20 PUSH3 0x3D5D DUP3 DUP6 DUP4 DUP11 ADD PUSH3 0x358B JUMP JUMPDEST DUP6 MLOAD SWAP2 DUP5 ADD SWAP2 PUSH3 0x3D72 DUP2 DUP5 DUP5 DUP11 ADD PUSH3 0x358B JUMP JUMPDEST DUP6 SLOAD SWAP3 ADD SWAP2 PUSH1 0x0 SWAP1 PUSH3 0x3D85 DUP2 PUSH3 0x3A2D JUMP JUMPDEST PUSH1 0x1 DUP3 DUP2 AND DUP1 ISZERO PUSH3 0x3DA0 JUMPI PUSH1 0x1 DUP2 EQ PUSH3 0x3DB6 JUMPI PUSH3 0x3DE4 JUMP JUMPDEST PUSH1 0xFF NOT DUP5 AND DUP8 MSTORE DUP3 ISZERO ISZERO DUP4 MUL DUP8 ADD SWAP5 POP PUSH3 0x3DE4 JUMP JUMPDEST DUP10 PUSH1 0x0 MSTORE DUP6 PUSH1 0x0 KECCAK256 PUSH1 0x0 JUMPDEST DUP5 DUP2 LT ISZERO PUSH3 0x3DDC JUMPI DUP2 SLOAD DUP10 DUP3 ADD MSTORE SWAP1 DUP4 ADD SWAP1 DUP8 ADD PUSH3 0x3DC1 JUMP JUMPDEST POP POP DUP3 DUP8 ADD SWAP5 POP JUMPDEST POP SWAP3 SWAP11 SWAP10 POP POP POP POP POP POP POP POP POP POP JUMP JUMPDEST PUSH1 0x0 DUP3 MLOAD PUSH3 0x3E08 DUP2 DUP5 PUSH1 0x20 DUP8 ADD PUSH3 0x358B JUMP JUMPDEST SWAP2 SWAP1 SWAP2 ADD SWAP3 SWAP2 POP POP JUMP JUMPDEST PUSH1 0x20 DUP1 DUP3 MSTORE PUSH1 0x25 SWAP1 DUP3 ADD MSTORE PUSH32 0x4552433732313A207472616E736665722066726F6D20696E636F727265637420 PUSH1 0x40 DUP3 ADD MSTORE PUSH5 0x37BBB732B9 PUSH1 0xD9 SHL PUSH1 0x60 DUP3 ADD MSTORE PUSH1 0x80 ADD SWAP1 JUMP JUMPDEST DUP2 DUP2 SUB DUP2 DUP2 GT ISZERO PUSH3 0xEDF JUMPI PUSH3 0xEDF PUSH3 0x399E JUMP JUMPDEST PUSH4 0x4E487B71 PUSH1 0xE0 SHL PUSH1 0x0 MSTORE PUSH1 0x31 PUSH1 0x4 MSTORE PUSH1 0x24 PUSH1 0x0 REVERT JUMPDEST PUSH1 0x20 DUP1 DUP3 MSTORE PUSH1 0x32 SWAP1 DUP3 ADD MSTORE PUSH32 0x4552433732313A207472616E7366657220746F206E6F6E204552433732315265 PUSH1 0x40 DUP3 ADD MSTORE PUSH18 0x31B2B4BB32B91034B6B83632B6B2B73A32B9 PUSH1 0x71 SHL PUSH1 0x60 DUP3 ADD MSTORE PUSH1 0x80 ADD SWAP1 JUMP JUMPDEST PUSH1 0x1 PUSH1 0x1 PUSH1 0xA0 SHL SUB DUP6 DUP2 AND DUP3 MSTORE DUP5 AND PUSH1 0x20 DUP3 ADD MSTORE PUSH1 0x40 DUP2 ADD DUP4 SWAP1 MSTORE PUSH1 0x80 PUSH1 0x60 DUP3 ADD DUP2 SWAP1 MSTORE PUSH1 0x0 SWAP1 PUSH3 0x3F0A SWAP1 DUP4 ADD DUP5 PUSH3 0x35B1 JUMP JUMPDEST SWAP7 SWAP6 POP POP POP POP POP POP JUMP JUMPDEST PUSH1 0x0 PUSH1 0x20 DUP3 DUP5 SUB SLT ISZERO PUSH3 0x3F27 JUMPI PUSH1 0x0 DUP1 REVERT JUMPDEST DUP2 MLOAD PUSH3 0x285F DUP2 PUSH3 0x351E JUMP INVALID PUSH1 0x80 PUSH1 0x40 MSTORE CALLVALUE DUP1 ISZERO PUSH2 0x10 JUMPI PUSH1 0x0 DUP1 REVERT JUMPDEST POP PUSH1 0x40 MLOAD PUSH2 0x16A CODESIZE SUB DUP1 PUSH2 0x16A DUP4 CODECOPY DUP2 ADD PUSH1 0x40 DUP2 SWAP1 MSTORE PUSH2 0x2F SWAP2 PUSH2 0x7C JUMP JUMPDEST PUSH1 0x0 DUP1 SLOAD PUSH1 0x1 PUSH1 0x1 PUSH1 0xA0 SHL SUB SWAP4 DUP5 AND PUSH1 0x1 PUSH1 0x1 PUSH1 0xA0 SHL SUB NOT SWAP2 DUP3 AND OR SWAP1 SWAP2 SSTORE PUSH1 0x1 DUP1 SLOAD SWAP3 SWAP1 SWAP4 AND SWAP2 AND OR SWAP1 SSTORE PUSH2 0xAF JUMP JUMPDEST DUP1 MLOAD PUSH1 0x1 PUSH1 0x1 PUSH1 0xA0 SHL SUB DUP2 AND DUP2 EQ PUSH2 0x77 JUMPI PUSH1 0x0 DUP1 REVERT JUMPDEST SWAP2 SWAP1 POP JUMP JUMPDEST PUSH1 0x0 DUP1 PUSH1 0x40 DUP4 DUP6 SUB SLT ISZERO PUSH2 0x8F JUMPI PUSH1 0x0 DUP1 REVERT JUMPDEST PUSH2 0x98 DUP4 PUSH2 0x60 JUMP JUMPDEST SWAP2 POP PUSH2 0xA6 PUSH1 0x20 DUP5 ADD PUSH2 0x60 JUMP JUMPDEST SWAP1 POP SWAP3 POP SWAP3 SWAP1 POP JUMP JUMPDEST PUSH1 0xAD DUP1 PUSH2 0xBD PUSH1 0x0 CODECOPY PUSH1 0x0 RETURN INVALID PUSH1 0x80 PUSH1 0x40 MSTORE CALLVALUE DUP1 ISZERO PUSH1 0xF JUMPI PUSH1 0x0 DUP1 REVERT JUMPDEST POP PUSH1 0x4 CALLDATASIZE LT PUSH1 0x32 JUMPI PUSH1 0x0 CALLDATALOAD PUSH1 0xE0 SHR DUP1 PUSH4 0x8DA5CB5B EQ PUSH1 0x37 JUMPI DUP1 PUSH4 0xEFC81A8C EQ PUSH1 0x65 JUMPI JUMPDEST PUSH1 0x0 DUP1 REVERT JUMPDEST PUSH1 0x0 SLOAD PUSH1 0x49 SWAP1 PUSH1 0x1 PUSH1 0x1 PUSH1 0xA0 SHL SUB AND DUP2 JUMP JUMPDEST PUSH1 0x40 MLOAD PUSH1 0x1 PUSH1 0x1 PUSH1 0xA0 SHL SUB SWAP1 SWAP2 AND DUP2 MSTORE PUSH1 0x20 ADD PUSH1 0x40 MLOAD DUP1 SWAP2 SUB SWAP1 RETURN JUMPDEST PUSH1 0x1 SLOAD PUSH1 0x49 SWAP1 PUSH1 0x1 PUSH1 0x1 PUSH1 0xA0 SHL SUB AND DUP2 JUMP INVALID LOG2 PUSH5 0x6970667358 0x22 SLT KECCAK256 PUSH13 0x171182D747C8D0BD9C4E3654E5 DUP11 JUMP 0xDB SAR 0x2E ADDRESS SWAP13 CREATE2 0x25 PUSH8 0x1E2A6C9E562E7A59 PUSH5 0x736F6C6343 STOP ADDMOD SLT STOP CALLER LOG2 PUSH5 0x6970667358 0x22 SLT KECCAK256 0xD7 SHL DUP3 DUP4 PUSH18 0x7FF999A874B9565D3D4F6F177D441CF572AF 0x29 0xA5 SWAP2 SWAP11 JUMP MSTORE DUP13 PUSH5 0x1164736F6C PUSH4 0x43000812 STOP CALLER PUSH9 0x747470733A2F2F6261 PUSH7 0x79626569646675 CALLDATALOAD PUSH12 0x6F7473723274617037327067 CALLDATASIZE PUSH22 0x7569707637796862343770636E7A6964637871737A67 CALLDATALOAD PUSH27 0x3276726577736463652E697066732E6E667473746F726167652E6C PUSH10 0x6E6B2F00000000000000 "
		},
		"gasEstimates": {
			"creation": {
				"codeDepositCost": "3319200",
				"executionCost": "infinite",
				"totalCost": "infinite"
			},
			"external": {
				"BASE_FEE()": "2375",
				"DOWN_FEE_RATIO()": "2373",
				"FEE_RATIO()": "2417",
				"FID()": "2395",
				"FireSeedAddress()": "2404",
				"MIDDLE_FEE_RATIO()": "2352",
				"SBT003_RATE_ONE()": "2397",
				"SBT003_RATE_THREE()": "2397",
				"SBT003_RATE_TWO()": "2374",
				"TOP_FEE_RATIO()": "2374",
				"TOTAL_SBT_003_AMOUNT()": "2352",
				"UserFID(address)": "2571",
				"UserHaveFID(uint256)": "4703",
				"UserToSoul(address)": "2619",
				"approve(address,uint256)": "infinite",
				"balanceOf(address)": "2639",
				"baseExtension()": "infinite",
				"baseURI()": "infinite",
				"burnToMint(uint256)": "infinite",
				"checkFID(address)": "2677",
				"checkFIDA(address)": "2653",
				"checkPid(address)": "infinite",
				"coefficient(uint256)": "4634",
				"deleteWhiteList(address[])": "infinite",
				"fee()": "2439",
				"feeOn()": "2439",
				"feeReceiver()": "2448",
				"firePassport()": "2492",
				"getApproved(uint256)": "4837",
				"getSoulAccount(address)": "2651",
				"getUserHaveFIDLength()": "2395",
				"getWListLength()": "2350",
				"haveFID(address)": "2616",
				"isApprovedForAll(address,address)": "infinite",
				"name()": "infinite",
				"owner()": "2443",
				"ownerOf(uint256)": "2694",
				"pauseControlAddress()": "2450",
				"renounceOwnership()": "infinite",
				"safeTransferFrom(address,address,uint256)": "infinite",
				"safeTransferFrom(address,address,uint256,bytes)": "infinite",
				"sbt(uint256)": "4748",
				"sbt003()": "2491",
				"sbtAddress(uint256)": "4749",
				"sbtTokenAmount(address,uint256)": "4839",
				"setApprovalForAll(address,bool)": "infinite",
				"setBaseURI(string)": "infinite",
				"setDistribute(uint256,uint256,uint256)": "infinite",
				"setFee(uint256)": "24600",
				"setFeeReceiver(address)": "26817",
				"setFeeStatus()": "26649",
				"setFireSeedAddress(address)": "26798",
				"setFp(address)": "26854",
				"setPauseControlAddress(address)": "26885",
				"setSBT003Amount(uint256)": "24622",
				"setSbt003Address(address)": "26862",
				"setSbt003AmountRate(uint256,uint256,uint256)": "infinite",
				"setStatus()": "26691",
				"setTreasuryDistributionContract(address)": "26861",
				"setWeth(address)": "26797",
				"setWhiteList(address[])": "infinite",
				"status()": "2462",
				"supportsInterface(bytes4)": "613",
				"symbol()": "infinite",
				"tokenURI(uint256)": "infinite",
				"transferFrom(address,address,uint256)": "infinite",
				"transferOwnership(address)": "infinite",
				"treasuryDistributionContract()": "2448",
				"weth()": "2472",
				"whiteLists(uint256)": "6840",
				"wlist(address)": "2660"
			},
			"internal": {
				"_baseURI()": "infinite",
				"checkRepeat(address)": "infinite",
				"deleteList(address)": "infinite"
			}
		},
		"methodIdentifiers": {
			"BASE_FEE()": "3d18651e",
			"DOWN_FEE_RATIO()": "e23767e2",
			"FEE_RATIO()": "b83282da",
			"FID()": "763d8c16",
			"FireSeedAddress()": "abbb376c",
			"MIDDLE_FEE_RATIO()": "8af668d5",
			"SBT003_RATE_ONE()": "84ee66c0",
			"SBT003_RATE_THREE()": "3d923b9e",
			"SBT003_RATE_TWO()": "444d57b1",
			"TOP_FEE_RATIO()": "8d6eaf94",
			"TOTAL_SBT_003_AMOUNT()": "64f0d7af",
			"UserFID(address)": "3c344ce1",
			"UserHaveFID(uint256)": "ac949c6f",
			"UserToSoul(address)": "e15658c7",
			"approve(address,uint256)": "095ea7b3",
			"balanceOf(address)": "70a08231",
			"baseExtension()": "c6682862",
			"baseURI()": "6c0360eb",
			"burnToMint(uint256)": "05737aae",
			"checkFID(address)": "91c71988",
			"checkFIDA(address)": "e75729f2",
			"checkPid(address)": "c0191114",
			"coefficient(uint256)": "01af001d",
			"deleteWhiteList(address[])": "2d871b73",
			"fee()": "ddca3f43",
			"feeOn()": "4f335d0a",
			"feeReceiver()": "b3f00674",
			"firePassport()": "7b4392cb",
			"getApproved(uint256)": "081812fc",
			"getSoulAccount(address)": "be5f0cc9",
			"getUserHaveFIDLength()": "026fe9f2",
			"getWListLength()": "7ebaba90",
			"haveFID(address)": "0b6b9d77",
			"isApprovedForAll(address,address)": "e985e9c5",
			"name()": "06fdde03",
			"owner()": "8da5cb5b",
			"ownerOf(uint256)": "6352211e",
			"pauseControlAddress()": "0bfc24f8",
			"renounceOwnership()": "715018a6",
			"safeTransferFrom(address,address,uint256)": "42842e0e",
			"safeTransferFrom(address,address,uint256,bytes)": "b88d4fde",
			"sbt(uint256)": "a269fbe5",
			"sbt003()": "ffb0e20d",
			"sbtAddress(uint256)": "088572cc",
			"sbtTokenAmount(address,uint256)": "2e082d5c",
			"setApprovalForAll(address,bool)": "a22cb465",
			"setBaseURI(string)": "55f804b3",
			"setDistribute(uint256,uint256,uint256)": "66b5baf6",
			"setFee(uint256)": "69fe0e2d",
			"setFeeReceiver(address)": "efdcd974",
			"setFeeStatus()": "98bad7e6",
			"setFireSeedAddress(address)": "06dd6060",
			"setFp(address)": "9bc8a9e4",
			"setPauseControlAddress(address)": "34b999d0",
			"setSBT003Amount(uint256)": "2ff066be",
			"setSbt003Address(address)": "d9d518f3",
			"setSbt003AmountRate(uint256,uint256,uint256)": "846218d9",
			"setStatus()": "c0336629",
			"setTreasuryDistributionContract(address)": "fd4329f4",
			"setWeth(address)": "b8d1452f",
			"setWhiteList(address[])": "775b9c13",
			"status()": "200d2ed2",
			"supportsInterface(bytes4)": "01ffc9a7",
			"symbol()": "95d89b41",
			"tokenURI(uint256)": "c87b56dd",
			"transferFrom(address,address,uint256)": "23b872dd",
			"transferOwnership(address)": "f2fde38b",
			"treasuryDistributionContract()": "e3840bc1",
			"weth()": "3fc8cef3",
			"whiteLists(uint256)": "c56b7142",
			"wlist(address)": "8af4b86a"
		}
	},
	"abi": [
		{
			"inputs": [
				{
					"internalType": "address",
					"name": "_fireseed",
					"type": "address"
				},
				{
					"internalType": "address",
					"name": "_firePassport",
					"type": "address"
				},
				{
					"internalType": "address",
					"name": "_weth",
					"type": "address"
				}
			],
			"stateMutability": "nonpayable",
			"type": "constructor"
		},
		{
			"anonymous": false,
			"inputs": [
				{
					"indexed": true,
					"internalType": "address",
					"name": "owner",
					"type": "address"
				},
				{
					"indexed": true,
					"internalType": "address",
					"name": "approved",
					"type": "address"
				},
				{
					"indexed": true,
					"internalType": "uint256",
					"name": "tokenId",
					"type": "uint256"
				}
			],
			"name": "Approval",
			"type": "event"
		},
		{
			"anonymous": false,
			"inputs": [
				{
					"indexed": true,
					"internalType": "address",
					"name": "owner",
					"type": "address"
				},
				{
					"indexed": true,
					"internalType": "address",
					"name": "operator",
					"type": "address"
				},
				{
					"indexed": false,
					"internalType": "bool",
					"name": "approved",
					"type": "bool"
				}
			],
			"name": "ApprovalForAll",
			"type": "event"
		},
		{
			"anonymous": false,
			"inputs": [
				{
					"indexed": true,
					"internalType": "address",
					"name": "previousOwner",
					"type": "address"
				},
				{
					"indexed": true,
					"internalType": "address",
					"name": "newOwner",
					"type": "address"
				}
			],
			"name": "OwnershipTransferred",
			"type": "event"
		},
		{
			"anonymous": false,
			"inputs": [
				{
					"indexed": true,
					"internalType": "address",
					"name": "from",
					"type": "address"
				},
				{
					"indexed": true,
					"internalType": "address",
					"name": "to",
					"type": "address"
				},
				{
					"indexed": true,
					"internalType": "uint256",
					"name": "tokenId",
					"type": "uint256"
				}
			],
			"name": "Transfer",
			"type": "event"
		},
		{
			"inputs": [],
			"name": "BASE_FEE",
			"outputs": [
				{
					"internalType": "uint256",
					"name": "",
					"type": "uint256"
				}
			],
			"stateMutability": "view",
			"type": "function"
		},
		{
			"inputs": [],
			"name": "DOWN_FEE_RATIO",
			"outputs": [
				{
					"internalType": "uint256",
					"name": "",
					"type": "uint256"
				}
			],
			"stateMutability": "view",
			"type": "function"
		},
		{
			"inputs": [],
			"name": "FEE_RATIO",
			"outputs": [
				{
					"internalType": "uint256",
					"name": "",
					"type": "uint256"
				}
			],
			"stateMutability": "view",
			"type": "function"
		},
		{
			"inputs": [],
			"name": "FID",
			"outputs": [
				{
					"internalType": "uint256",
					"name": "",
					"type": "uint256"
				}
			],
			"stateMutability": "view",
			"type": "function"
		},
		{
			"inputs": [],
			"name": "FireSeedAddress",
			"outputs": [
				{
					"internalType": "address",
					"name": "",
					"type": "address"
				}
			],
			"stateMutability": "view",
			"type": "function"
		},
		{
			"inputs": [],
			"name": "MIDDLE_FEE_RATIO",
			"outputs": [
				{
					"internalType": "uint256",
					"name": "",
					"type": "uint256"
				}
			],
			"stateMutability": "view",
			"type": "function"
		},
		{
			"inputs": [],
			"name": "SBT003_RATE_ONE",
			"outputs": [
				{
					"internalType": "uint256",
					"name": "",
					"type": "uint256"
				}
			],
			"stateMutability": "view",
			"type": "function"
		},
		{
			"inputs": [],
			"name": "SBT003_RATE_THREE",
			"outputs": [
				{
					"internalType": "uint256",
					"name": "",
					"type": "uint256"
				}
			],
			"stateMutability": "view",
			"type": "function"
		},
		{
			"inputs": [],
			"name": "SBT003_RATE_TWO",
			"outputs": [
				{
					"internalType": "uint256",
					"name": "",
					"type": "uint256"
				}
			],
			"stateMutability": "view",
			"type": "function"
		},
		{
			"inputs": [],
			"name": "TOP_FEE_RATIO",
			"outputs": [
				{
					"internalType": "uint256",
					"name": "",
					"type": "uint256"
				}
			],
			"stateMutability": "view",
			"type": "function"
		},
		{
			"inputs": [],
			"name": "TOTAL_SBT_003_AMOUNT",
			"outputs": [
				{
					"internalType": "uint256",
					"name": "",
					"type": "uint256"
				}
			],
			"stateMutability": "view",
			"type": "function"
		},
		{
			"inputs": [
				{
					"internalType": "address",
					"name": "",
					"type": "address"
				}
			],
			"name": "UserFID",
			"outputs": [
				{
					"internalType": "uint256",
					"name": "",
					"type": "uint256"
				}
			],
			"stateMutability": "view",
			"type": "function"
		},
		{
			"inputs": [
				{
					"internalType": "uint256",
					"name": "",
					"type": "uint256"
				}
			],
			"name": "UserHaveFID",
			"outputs": [
				{
					"internalType": "address",
					"name": "",
					"type": "address"
				}
			],
			"stateMutability": "view",
			"type": "function"
		},
		{
			"inputs": [
				{
					"internalType": "address",
					"name": "",
					"type": "address"
				}
			],
			"name": "UserToSoul",
			"outputs": [
				{
					"internalType": "address",
					"name": "",
					"type": "address"
				}
			],
			"stateMutability": "view",
			"type": "function"
		},
		{
			"inputs": [
				{
					"internalType": "address",
					"name": "to",
					"type": "address"
				},
				{
					"internalType": "uint256",
					"name": "tokenId",
					"type": "uint256"
				}
			],
			"name": "approve",
			"outputs": [],
			"stateMutability": "nonpayable",
			"type": "function"
		},
		{
			"inputs": [
				{
					"internalType": "address",
					"name": "owner",
					"type": "address"
				}
			],
			"name": "balanceOf",
			"outputs": [
				{
					"internalType": "uint256",
					"name": "",
					"type": "uint256"
				}
			],
			"stateMutability": "view",
			"type": "function"
		},
		{
			"inputs": [],
			"name": "baseExtension",
			"outputs": [
				{
					"internalType": "string",
					"name": "",
					"type": "string"
				}
			],
			"stateMutability": "view",
			"type": "function"
		},
		{
			"inputs": [],
			"name": "baseURI",
			"outputs": [
				{
					"internalType": "string",
					"name": "",
					"type": "string"
				}
			],
			"stateMutability": "view",
			"type": "function"
		},
		{
			"inputs": [
				{
					"internalType": "uint256",
					"name": "_tokenId",
					"type": "uint256"
				}
			],
			"name": "burnToMint",
			"outputs": [],
			"stateMutability": "payable",
			"type": "function"
		},
		{
			"inputs": [
				{
					"internalType": "address",
					"name": "user",
					"type": "address"
				}
			],
			"name": "checkFID",
			"outputs": [
				{
					"internalType": "bool",
					"name": "",
					"type": "bool"
				}
			],
			"stateMutability": "view",
			"type": "function"
		},
		{
			"inputs": [
				{
					"internalType": "address",
					"name": "_user",
					"type": "address"
				}
			],
			"name": "checkFIDA",
			"outputs": [
				{
					"internalType": "uint256",
					"name": "",
					"type": "uint256"
				}
			],
			"stateMutability": "view",
			"type": "function"
		},
		{
			"inputs": [
				{
					"internalType": "address",
					"name": "_user",
					"type": "address"
				}
			],
			"name": "checkPid",
			"outputs": [
				{
					"internalType": "uint256",
					"name": "",
					"type": "uint256"
				}
			],
			"stateMutability": "view",
			"type": "function"
		},
		{
			"inputs": [
				{
					"internalType": "uint256",
					"name": "",
					"type": "uint256"
				}
			],
			"name": "coefficient",
			"outputs": [
				{
					"internalType": "uint256",
					"name": "",
					"type": "uint256"
				}
			],
			"stateMutability": "view",
			"type": "function"
		},
		{
			"inputs": [
				{
					"internalType": "address[]",
					"name": "_user",
					"type": "address[]"
				}
			],
			"name": "deleteWhiteList",
			"outputs": [],
			"stateMutability": "nonpayable",
			"type": "function"
		},
		{
			"inputs": [],
			"name": "fee",
			"outputs": [
				{
					"internalType": "uint256",
					"name": "",
					"type": "uint256"
				}
			],
			"stateMutability": "view",
			"type": "function"
		},
		{
			"inputs": [],
			"name": "feeOn",
			"outputs": [
				{
					"internalType": "bool",
					"name": "",
					"type": "bool"
				}
			],
			"stateMutability": "view",
			"type": "function"
		},
		{
			"inputs": [],
			"name": "feeReceiver",
			"outputs": [
				{
					"internalType": "address",
					"name": "",
					"type": "address"
				}
			],
			"stateMutability": "view",
			"type": "function"
		},
		{
			"inputs": [],
			"name": "firePassport",
			"outputs": [
				{
					"internalType": "address",
					"name": "",
					"type": "address"
				}
			],
			"stateMutability": "view",
			"type": "function"
		},
		{
			"inputs": [
				{
					"internalType": "uint256",
					"name": "tokenId",
					"type": "uint256"
				}
			],
			"name": "getApproved",
			"outputs": [
				{
					"internalType": "address",
					"name": "",
					"type": "address"
				}
			],
			"stateMutability": "view",
			"type": "function"
		},
		{
			"inputs": [
				{
					"internalType": "address",
					"name": "_user",
					"type": "address"
				}
			],
			"name": "getSoulAccount",
			"outputs": [
				{
					"internalType": "address",
					"name": "",
					"type": "address"
				}
			],
			"stateMutability": "view",
			"type": "function"
		},
		{
			"inputs": [],
			"name": "getUserHaveFIDLength",
			"outputs": [
				{
					"internalType": "uint256",
					"name": "",
					"type": "uint256"
				}
			],
			"stateMutability": "view",
			"type": "function"
		},
		{
			"inputs": [],
			"name": "getWListLength",
			"outputs": [
				{
					"internalType": "uint256",
					"name": "",
					"type": "uint256"
				}
			],
			"stateMutability": "view",
			"type": "function"
		},
		{
			"inputs": [
				{
					"internalType": "address",
					"name": "",
					"type": "address"
				}
			],
			"name": "haveFID",
			"outputs": [
				{
					"internalType": "bool",
					"name": "",
					"type": "bool"
				}
			],
			"stateMutability": "view",
			"type": "function"
		},
		{
			"inputs": [
				{
					"internalType": "address",
					"name": "owner",
					"type": "address"
				},
				{
					"internalType": "address",
					"name": "operator",
					"type": "address"
				}
			],
			"name": "isApprovedForAll",
			"outputs": [
				{
					"internalType": "bool",
					"name": "",
					"type": "bool"
				}
			],
			"stateMutability": "view",
			"type": "function"
		},
		{
			"inputs": [],
			"name": "name",
			"outputs": [
				{
					"internalType": "string",
					"name": "",
					"type": "string"
				}
			],
			"stateMutability": "view",
			"type": "function"
		},
		{
			"inputs": [],
			"name": "owner",
			"outputs": [
				{
					"internalType": "address",
					"name": "",
					"type": "address"
				}
			],
			"stateMutability": "view",
			"type": "function"
		},
		{
			"inputs": [
				{
					"internalType": "uint256",
					"name": "tokenId",
					"type": "uint256"
				}
			],
			"name": "ownerOf",
			"outputs": [
				{
					"internalType": "address",
					"name": "",
					"type": "address"
				}
			],
			"stateMutability": "view",
			"type": "function"
		},
		{
			"inputs": [],
			"name": "pauseControlAddress",
			"outputs": [
				{
					"internalType": "address",
					"name": "",
					"type": "address"
				}
			],
			"stateMutability": "view",
			"type": "function"
		},
		{
			"inputs": [],
			"name": "renounceOwnership",
			"outputs": [],
			"stateMutability": "nonpayable",
			"type": "function"
		},
		{
			"inputs": [
				{
					"internalType": "address",
					"name": "from",
					"type": "address"
				},
				{
					"internalType": "address",
					"name": "to",
					"type": "address"
				},
				{
					"internalType": "uint256",
					"name": "tokenId",
					"type": "uint256"
				}
			],
			"name": "safeTransferFrom",
			"outputs": [],
			"stateMutability": "nonpayable",
			"type": "function"
		},
		{
			"inputs": [
				{
					"internalType": "address",
					"name": "from",
					"type": "address"
				},
				{
					"internalType": "address",
					"name": "to",
					"type": "address"
				},
				{
					"internalType": "uint256",
					"name": "tokenId",
					"type": "uint256"
				},
				{
					"internalType": "bytes",
					"name": "data",
					"type": "bytes"
				}
			],
			"name": "safeTransferFrom",
			"outputs": [],
			"stateMutability": "nonpayable",
			"type": "function"
		},
		{
			"inputs": [
				{
					"internalType": "uint256",
					"name": "",
					"type": "uint256"
				}
			],
			"name": "sbt",
			"outputs": [
				{
					"internalType": "address",
					"name": "",
					"type": "address"
				}
			],
			"stateMutability": "view",
			"type": "function"
		},
		{
			"inputs": [],
			"name": "sbt003",
			"outputs": [
				{
					"internalType": "address",
					"name": "",
					"type": "address"
				}
			],
			"stateMutability": "view",
			"type": "function"
		},
		{
			"inputs": [
				{
					"internalType": "uint256",
					"name": "",
					"type": "uint256"
				}
			],
			"name": "sbtAddress",
			"outputs": [
				{
					"internalType": "address",
					"name": "",
					"type": "address"
				}
			],
			"stateMutability": "view",
			"type": "function"
		},
		{
			"inputs": [
				{
					"internalType": "address",
					"name": "",
					"type": "address"
				},
				{
					"internalType": "uint256",
					"name": "",
					"type": "uint256"
				}
			],
			"name": "sbtTokenAmount",
			"outputs": [
				{
					"internalType": "uint256",
					"name": "",
					"type": "uint256"
				}
			],
			"stateMutability": "view",
			"type": "function"
		},
		{
			"inputs": [
				{
					"internalType": "address",
					"name": "operator",
					"type": "address"
				},
				{
					"internalType": "bool",
					"name": "approved",
					"type": "bool"
				}
			],
			"name": "setApprovalForAll",
			"outputs": [],
			"stateMutability": "nonpayable",
			"type": "function"
		},
		{
			"inputs": [
				{
					"internalType": "string",
					"name": "baseURI_",
					"type": "string"
				}
			],
			"name": "setBaseURI",
			"outputs": [],
			"stateMutability": "nonpayable",
			"type": "function"
		},
		{
			"inputs": [
				{
					"internalType": "uint256",
					"name": "top",
					"type": "uint256"
				},
				{
					"internalType": "uint256",
					"name": "middle",
					"type": "uint256"
				},
				{
					"internalType": "uint256",
					"name": "down",
					"type": "uint256"
				}
			],
			"name": "setDistribute",
			"outputs": [],
			"stateMutability": "nonpayable",
			"type": "function"
		},
		{
			"inputs": [
				{
					"internalType": "uint256",
					"name": "_fee",
					"type": "uint256"
				}
			],
			"name": "setFee",
			"outputs": [],
			"stateMutability": "nonpayable",
			"type": "function"
		},
		{
			"inputs": [
				{
					"internalType": "address",
					"name": "_to",
					"type": "address"
				}
			],
			"name": "setFeeReceiver",
			"outputs": [],
			"stateMutability": "nonpayable",
			"type": "function"
		},
		{
			"inputs": [],
			"name": "setFeeStatus",
			"outputs": [],
			"stateMutability": "nonpayable",
			"type": "function"
		},
		{
			"inputs": [
				{
					"internalType": "address",
					"name": "_FireSeedAddress",
					"type": "address"
				}
			],
			"name": "setFireSeedAddress",
			"outputs": [],
			"stateMutability": "nonpayable",
			"type": "function"
		},
		{
			"inputs": [
				{
					"internalType": "address payable",
					"name": "_fp",
					"type": "address"
				}
			],
			"name": "setFp",
			"outputs": [],
			"stateMutability": "nonpayable",
			"type": "function"
		},
		{
			"inputs": [
				{
					"internalType": "address",
					"name": "_pauseControlAddress",
					"type": "address"
				}
			],
			"name": "setPauseControlAddress",
			"outputs": [],
			"stateMutability": "nonpayable",
			"type": "function"
		},
		{
			"inputs": [
				{
					"internalType": "uint256",
					"name": "_amount",
					"type": "uint256"
				}
			],
			"name": "setSBT003Amount",
			"outputs": [],
			"stateMutability": "nonpayable",
			"type": "function"
		},
		{
			"inputs": [
				{
					"internalType": "address",
					"name": "_sbt003",
					"type": "address"
				}
			],
			"name": "setSbt003Address",
			"outputs": [],
			"stateMutability": "nonpayable",
			"type": "function"
		},
		{
			"inputs": [
				{
					"internalType": "uint256",
					"name": "top",
					"type": "uint256"
				},
				{
					"internalType": "uint256",
					"name": "middle",
					"type": "uint256"
				},
				{
					"internalType": "uint256",
					"name": "down",
					"type": "uint256"
				}
			],
			"name": "setSbt003AmountRate",
			"outputs": [],
			"stateMutability": "nonpayable",
			"type": "function"
		},
		{
			"inputs": [],
			"name": "setStatus",
			"outputs": [],
			"stateMutability": "nonpayable",
			"type": "function"
		},
		{
			"inputs": [
				{
					"internalType": "address",
					"name": "_addr",
					"type": "address"
				}
			],
			"name": "setTreasuryDistributionContract",
			"outputs": [],
			"stateMutability": "nonpayable",
			"type": "function"
		},
		{
			"inputs": [
				{
					"internalType": "address",
					"name": "_weth",
					"type": "address"
				}
			],
			"name": "setWeth",
			"outputs": [],
			"stateMutability": "nonpayable",
			"type": "function"
		},
		{
			"inputs": [
				{
					"internalType": "address[]",
					"name": "_user",
					"type": "address[]"
				}
			],
			"name": "setWhiteList",
			"outputs": [],
			"stateMutability": "nonpayable",
			"type": "function"
		},
		{
			"inputs": [],
			"name": "status",
			"outputs": [
				{
					"internalType": "bool",
					"name": "",
					"type": "bool"
				}
			],
			"stateMutability": "view",
			"type": "function"
		},
		{
			"inputs": [
				{
					"internalType": "bytes4",
					"name": "interfaceId",
					"type": "bytes4"
				}
			],
			"name": "supportsInterface",
			"outputs": [
				{
					"internalType": "bool",
					"name": "",
					"type": "bool"
				}
			],
			"stateMutability": "view",
			"type": "function"
		},
		{
			"inputs": [],
			"name": "symbol",
			"outputs": [
				{
					"internalType": "string",
					"name": "",
					"type": "string"
				}
			],
			"stateMutability": "view",
			"type": "function"
		},
		{
			"inputs": [
				{
					"internalType": "uint256",
					"name": "tokenId",
					"type": "uint256"
				}
			],
			"name": "tokenURI",
			"outputs": [
				{
					"internalType": "string",
					"name": "",
					"type": "string"
				}
			],
			"stateMutability": "view",
			"type": "function"
		},
		{
			"inputs": [
				{
					"internalType": "address",
					"name": "from",
					"type": "address"
				},
				{
					"internalType": "address",
					"name": "to",
					"type": "address"
				},
				{
					"internalType": "uint256",
					"name": "tokenId",
					"type": "uint256"
				}
			],
			"name": "transferFrom",
			"outputs": [],
			"stateMutability": "nonpayable",
			"type": "function"
		},
		{
			"inputs": [
				{
					"internalType": "address",
					"name": "newOwner",
					"type": "address"
				}
			],
			"name": "transferOwnership",
			"outputs": [],
			"stateMutability": "nonpayable",
			"type": "function"
		},
		{
			"inputs": [],
			"name": "treasuryDistributionContract",
			"outputs": [
				{
					"internalType": "address",
					"name": "",
					"type": "address"
				}
			],
			"stateMutability": "view",
			"type": "function"
		},
		{
			"inputs": [],
			"name": "weth",
			"outputs": [
				{
					"internalType": "address",
					"name": "",
					"type": "address"
				}
			],
			"stateMutability": "view",
			"type": "function"
		},
		{
			"inputs": [
				{
					"internalType": "uint256",
					"name": "",
					"type": "uint256"
				}
			],
			"name": "whiteLists",
			"outputs": [
				{
					"internalType": "address",
					"name": "user",
					"type": "address"
				},
				{
					"internalType": "uint256",
					"name": "pid",
					"type": "uint256"
				}
			],
			"stateMutability": "view",
			"type": "function"
		},
		{
			"inputs": [
				{
					"internalType": "address",
					"name": "",
					"type": "address"
				}
			],
			"name": "wlist",
			"outputs": [
				{
					"internalType": "bool",
					"name": "",
					"type": "bool"
				}
			],
			"stateMutability": "view",
			"type": "function"
		}
	]
}