{
	"data": {
		"bytecode": {
			"linkReferences": {},
			"object": "608060405234801561001057600080fd5b506040516104b13803806104b183398101604081905261002f916100b8565b61003833610068565b661c6bf526340000600155600280546001600160a01b0319166001600160a01b03929092169190911790556100e8565b600080546001600160a01b038381166001600160a01b0319831681178455604051919092169283917f8be0079c531659141344cd1fd0a4f28419497f9722a3daafe3b4186f6b6457e09190a35050565b6000602082840312156100ca57600080fd5b81516001600160a01b03811681146100e157600080fd5b9392505050565b6103ba806100f76000396000f3fe608060405234801561001057600080fd5b50600436106100b45760003560e01c80639b8be4ee116100715780639b8be4ee14610137578063ced72f871461014a578063ddca3f431461015c578063e30081a014610165578063f143d10214610178578063f2fde38b1461018c57600080fd5b806313fe5521146100b957806338cc4831146100c35780634ad2287f146100ed57806369fe0e2d1461010b578063715018a61461011e5780638da5cb5b14610126575b600080fd5b6100c161019f565b005b6002546001600160a01b03165b6040516001600160a01b0390911681526020015b60405180910390f35b600254600160a01b900460ff165b60405190151581526020016100e4565b6100c161011936600461033b565b6101c8565b6100c16101d5565b6000546001600160a01b03166100d0565b6002546100d0906001600160a01b031681565b6001545b6040519081526020016100e4565b61014e60015481565b6100c1610173366004610354565b6101e9565b6002546100fb90600160a01b900460ff1681565b6100c161019a366004610354565b610213565b6101a7610291565b6002805460ff60a01b198116600160a01b9182900460ff1615909102179055565b6101d0610291565b600155565b6101dd610291565b6101e760006102eb565b565b6101f1610291565b600280546001600160a01b0319166001600160a01b0392909216919091179055565b61021b610291565b6001600160a01b0381166102855760405162461bcd60e51b815260206004820152602660248201527f4f776e61626c653a206e6577206f776e657220697320746865207a65726f206160448201526564647265737360d01b60648201526084015b60405180910390fd5b61028e816102eb565b50565b6000546001600160a01b031633146101e75760405162461bcd60e51b815260206004820181905260248201527f4f776e61626c653a2063616c6c6572206973206e6f7420746865206f776e6572604482015260640161027c565b600080546001600160a01b038381166001600160a01b0319831681178455604051919092169283917f8be0079c531659141344cd1fd0a4f28419497f9722a3daafe3b4186f6b6457e09190a35050565b60006020828403121561034d57600080fd5b5035919050565b60006020828403121561036657600080fd5b81356001600160a01b038116811461037d57600080fd5b939250505056fea264697066735822122039eb16b26e4776ea614e8500c03de19bd0741d7b9ff89222b94e6d66cde89c7e64736f6c63430008120033",
			"opcodes": "PUSH1 0x80 PUSH1 0x40 MSTORE CALLVALUE DUP1 ISZERO PUSH2 0x10 JUMPI PUSH1 0x0 DUP1 REVERT JUMPDEST POP PUSH1 0x40 MLOAD PUSH2 0x4B1 CODESIZE SUB DUP1 PUSH2 0x4B1 DUP4 CODECOPY DUP2 ADD PUSH1 0x40 DUP2 SWAP1 MSTORE PUSH2 0x2F SWAP2 PUSH2 0xB8 JUMP JUMPDEST PUSH2 0x38 CALLER PUSH2 0x68 JUMP JUMPDEST PUSH7 0x1C6BF526340000 PUSH1 0x1 SSTORE PUSH1 0x2 DUP1 SLOAD PUSH1 0x1 PUSH1 0x1 PUSH1 0xA0 SHL SUB NOT AND PUSH1 0x1 PUSH1 0x1 PUSH1 0xA0 SHL SUB SWAP3 SWAP1 SWAP3 AND SWAP2 SWAP1 SWAP2 OR SWAP1 SSTORE PUSH2 0xE8 JUMP JUMPDEST PUSH1 0x0 DUP1 SLOAD PUSH1 0x1 PUSH1 0x1 PUSH1 0xA0 SHL SUB DUP4 DUP2 AND PUSH1 0x1 PUSH1 0x1 PUSH1 0xA0 SHL SUB NOT DUP4 AND DUP2 OR DUP5 SSTORE PUSH1 0x40 MLOAD SWAP2 SWAP1 SWAP3 AND SWAP3 DUP4 SWAP2 PUSH32 0x8BE0079C531659141344CD1FD0A4F28419497F9722A3DAAFE3B4186F6B6457E0 SWAP2 SWAP1 LOG3 POP POP JUMP JUMPDEST PUSH1 0x0 PUSH1 0x20 DUP3 DUP5 SUB SLT ISZERO PUSH2 0xCA JUMPI PUSH1 0x0 DUP1 REVERT JUMPDEST DUP2 MLOAD PUSH1 0x1 PUSH1 0x1 PUSH1 0xA0 SHL SUB DUP2 AND DUP2 EQ PUSH2 0xE1 JUMPI PUSH1 0x0 DUP1 REVERT JUMPDEST SWAP4 SWAP3 POP POP POP JUMP JUMPDEST PUSH2 0x3BA DUP1 PUSH2 0xF7 PUSH1 0x0 CODECOPY PUSH1 0x0 RETURN INVALID PUSH1 0x80 PUSH1 0x40 MSTORE CALLVALUE DUP1 ISZERO PUSH2 0x10 JUMPI PUSH1 0x0 DUP1 REVERT JUMPDEST POP PUSH1 0x4 CALLDATASIZE LT PUSH2 0xB4 JUMPI PUSH1 0x0 CALLDATALOAD PUSH1 0xE0 SHR DUP1 PUSH4 0x9B8BE4EE GT PUSH2 0x71 JUMPI DUP1 PUSH4 0x9B8BE4EE EQ PUSH2 0x137 JUMPI DUP1 PUSH4 0xCED72F87 EQ PUSH2 0x14A JUMPI DUP1 PUSH4 0xDDCA3F43 EQ PUSH2 0x15C JUMPI DUP1 PUSH4 0xE30081A0 EQ PUSH2 0x165 JUMPI DUP1 PUSH4 0xF143D102 EQ PUSH2 0x178 JUMPI DUP1 PUSH4 0xF2FDE38B EQ PUSH2 0x18C JUMPI PUSH1 0x0 DUP1 REVERT JUMPDEST DUP1 PUSH4 0x13FE5521 EQ PUSH2 0xB9 JUMPI DUP1 PUSH4 0x38CC4831 EQ PUSH2 0xC3 JUMPI DUP1 PUSH4 0x4AD2287F EQ PUSH2 0xED JUMPI DUP1 PUSH4 0x69FE0E2D EQ PUSH2 0x10B JUMPI DUP1 PUSH4 0x715018A6 EQ PUSH2 0x11E JUMPI DUP1 PUSH4 0x8DA5CB5B EQ PUSH2 0x126 JUMPI JUMPDEST PUSH1 0x0 DUP1 REVERT JUMPDEST PUSH2 0xC1 PUSH2 0x19F JUMP JUMPDEST STOP JUMPDEST PUSH1 0x2 SLOAD PUSH1 0x1 PUSH1 0x1 PUSH1 0xA0 SHL SUB AND JUMPDEST PUSH1 0x40 MLOAD PUSH1 0x1 PUSH1 0x1 PUSH1 0xA0 SHL SUB SWAP1 SWAP2 AND DUP2 MSTORE PUSH1 0x20 ADD JUMPDEST PUSH1 0x40 MLOAD DUP1 SWAP2 SUB SWAP1 RETURN JUMPDEST PUSH1 0x2 SLOAD PUSH1 0x1 PUSH1 0xA0 SHL SWAP1 DIV PUSH1 0xFF AND JUMPDEST PUSH1 0x40 MLOAD SWAP1 ISZERO ISZERO DUP2 MSTORE PUSH1 0x20 ADD PUSH2 0xE4 JUMP JUMPDEST PUSH2 0xC1 PUSH2 0x119 CALLDATASIZE PUSH1 0x4 PUSH2 0x33B JUMP JUMPDEST PUSH2 0x1C8 JUMP JUMPDEST PUSH2 0xC1 PUSH2 0x1D5 JUMP JUMPDEST PUSH1 0x0 SLOAD PUSH1 0x1 PUSH1 0x1 PUSH1 0xA0 SHL SUB AND PUSH2 0xD0 JUMP JUMPDEST PUSH1 0x2 SLOAD PUSH2 0xD0 SWAP1 PUSH1 0x1 PUSH1 0x1 PUSH1 0xA0 SHL SUB AND DUP2 JUMP JUMPDEST PUSH1 0x1 SLOAD JUMPDEST PUSH1 0x40 MLOAD SWAP1 DUP2 MSTORE PUSH1 0x20 ADD PUSH2 0xE4 JUMP JUMPDEST PUSH2 0x14E PUSH1 0x1 SLOAD DUP2 JUMP JUMPDEST PUSH2 0xC1 PUSH2 0x173 CALLDATASIZE PUSH1 0x4 PUSH2 0x354 JUMP JUMPDEST PUSH2 0x1E9 JUMP JUMPDEST PUSH1 0x2 SLOAD PUSH2 0xFB SWAP1 PUSH1 0x1 PUSH1 0xA0 SHL SWAP1 DIV PUSH1 0xFF AND DUP2 JUMP JUMPDEST PUSH2 0xC1 PUSH2 0x19A CALLDATASIZE PUSH1 0x4 PUSH2 0x354 JUMP JUMPDEST PUSH2 0x213 JUMP JUMPDEST PUSH2 0x1A7 PUSH2 0x291 JUMP JUMPDEST PUSH1 0x2 DUP1 SLOAD PUSH1 0xFF PUSH1 0xA0 SHL NOT DUP2 AND PUSH1 0x1 PUSH1 0xA0 SHL SWAP2 DUP3 SWAP1 DIV PUSH1 0xFF AND ISZERO SWAP1 SWAP2 MUL OR SWAP1 SSTORE JUMP JUMPDEST PUSH2 0x1D0 PUSH2 0x291 JUMP JUMPDEST PUSH1 0x1 SSTORE JUMP JUMPDEST PUSH2 0x1DD PUSH2 0x291 JUMP JUMPDEST PUSH2 0x1E7 PUSH1 0x0 PUSH2 0x2EB JUMP JUMPDEST JUMP JUMPDEST PUSH2 0x1F1 PUSH2 0x291 JUMP JUMPDEST PUSH1 0x2 DUP1 SLOAD PUSH1 0x1 PUSH1 0x1 PUSH1 0xA0 SHL SUB NOT AND PUSH1 0x1 PUSH1 0x1 PUSH1 0xA0 SHL SUB SWAP3 SWAP1 SWAP3 AND SWAP2 SWAP1 SWAP2 OR SWAP1 SSTORE JUMP JUMPDEST PUSH2 0x21B PUSH2 0x291 JUMP JUMPDEST PUSH1 0x1 PUSH1 0x1 PUSH1 0xA0 SHL SUB DUP2 AND PUSH2 0x285 JUMPI PUSH1 0x40 MLOAD PUSH3 0x461BCD PUSH1 0xE5 SHL DUP2 MSTORE PUSH1 0x20 PUSH1 0x4 DUP3 ADD MSTORE PUSH1 0x26 PUSH1 0x24 DUP3 ADD MSTORE PUSH32 0x4F776E61626C653A206E6577206F776E657220697320746865207A65726F2061 PUSH1 0x44 DUP3 ADD MSTORE PUSH6 0x646472657373 PUSH1 0xD0 SHL PUSH1 0x64 DUP3 ADD MSTORE PUSH1 0x84 ADD JUMPDEST PUSH1 0x40 MLOAD DUP1 SWAP2 SUB SWAP1 REVERT JUMPDEST PUSH2 0x28E DUP2 PUSH2 0x2EB JUMP JUMPDEST POP JUMP JUMPDEST PUSH1 0x0 SLOAD PUSH1 0x1 PUSH1 0x1 PUSH1 0xA0 SHL SUB AND CALLER EQ PUSH2 0x1E7 JUMPI PUSH1 0x40 MLOAD PUSH3 0x461BCD PUSH1 0xE5 SHL DUP2 MSTORE PUSH1 0x20 PUSH1 0x4 DUP3 ADD DUP2 SWAP1 MSTORE PUSH1 0x24 DUP3 ADD MSTORE PUSH32 0x4F776E61626C653A2063616C6C6572206973206E6F7420746865206F776E6572 PUSH1 0x44 DUP3 ADD MSTORE PUSH1 0x64 ADD PUSH2 0x27C JUMP JUMPDEST PUSH1 0x0 DUP1 SLOAD PUSH1 0x1 PUSH1 0x1 PUSH1 0xA0 SHL SUB DUP4 DUP2 AND PUSH1 0x1 PUSH1 0x1 PUSH1 0xA0 SHL SUB NOT DUP4 AND DUP2 OR DUP5 SSTORE PUSH1 0x40 MLOAD SWAP2 SWAP1 SWAP3 AND SWAP3 DUP4 SWAP2 PUSH32 0x8BE0079C531659141344CD1FD0A4F28419497F9722A3DAAFE3B4186F6B6457E0 SWAP2 SWAP1 LOG3 POP POP JUMP JUMPDEST PUSH1 0x0 PUSH1 0x20 DUP3 DUP5 SUB SLT ISZERO PUSH2 0x34D JUMPI PUSH1 0x0 DUP1 REVERT JUMPDEST POP CALLDATALOAD SWAP2 SWAP1 POP JUMP JUMPDEST PUSH1 0x0 PUSH1 0x20 DUP3 DUP5 SUB SLT ISZERO PUSH2 0x366 JUMPI PUSH1 0x0 DUP1 REVERT JUMPDEST DUP2 CALLDATALOAD PUSH1 0x1 PUSH1 0x1 PUSH1 0xA0 SHL SUB DUP2 AND DUP2 EQ PUSH2 0x37D JUMPI PUSH1 0x0 DUP1 REVERT JUMPDEST SWAP4 SWAP3 POP POP POP JUMP INVALID LOG2 PUSH5 0x6970667358 0x22 SLT KECCAK256 CODECOPY 0xEB AND 0xB2 PUSH15 0x4776EA614E8500C03DE19BD0741D7B SWAP16 0xF8 SWAP3 0x22 0xB9 0x4E PUSH14 0x66CDE89C7E64736F6C6343000812 STOP CALLER "
		},
		"gasEstimates": {
			"creation": {
				"codeDepositCost": "190800",
				"executionCost": "infinite",
				"totalCost": "infinite"
			},
			"external": {
				"fee()": "2339",
				"getAddress()": "2332",
				"getFee()": "2303",
				"getUseTreasuryDistributionContract()": "2355",
				"isUseTreasuryDistributionContract()": "26582",
				"owner()": "2431",
				"renounceOwnership()": "infinite",
				"setAddr()": "2326",
				"setAddress(address)": "26766",
				"setFee(uint256)": "24555",
				"transferOwnership(address)": "28408",
				"useTreasuryDistributionContract()": "2415"
			}
		},
		"methodIdentifiers": {
			"fee()": "ddca3f43",
			"getAddress()": "38cc4831",
			"getFee()": "ced72f87",
			"getUseTreasuryDistributionContract()": "4ad2287f",
			"isUseTreasuryDistributionContract()": "13fe5521",
			"owner()": "8da5cb5b",
			"renounceOwnership()": "715018a6",
			"setAddr()": "9b8be4ee",
			"setAddress(address)": "e30081a0",
			"setFee(uint256)": "69fe0e2d",
			"transferOwnership(address)": "f2fde38b",
			"useTreasuryDistributionContract()": "f143d102"
		}
	},
	"abi": [
		{
			"inputs": [
				{
					"internalType": "address",
					"name": "_setAddr",
					"type": "address"
				}
			],
			"stateMutability": "nonpayable",
			"type": "constructor"
		},
		{
			"anonymous": false,
			"inputs": [
				{
					"indexed": true,
					"internalType": "address",
					"name": "previousOwner",
					"type": "address"
				},
				{
					"indexed": true,
					"internalType": "address",
					"name": "newOwner",
					"type": "address"
				}
			],
			"name": "OwnershipTransferred",
			"type": "event"
		},
		{
			"inputs": [],
			"name": "fee",
			"outputs": [
				{
					"internalType": "uint256",
					"name": "",
					"type": "uint256"
				}
			],
			"stateMutability": "view",
			"type": "function"
		},
		{
			"inputs": [],
			"name": "getAddress",
			"outputs": [
				{
					"internalType": "address",
					"name": "",
					"type": "address"
				}
			],
			"stateMutability": "view",
			"type": "function"
		},
		{
			"inputs": [],
			"name": "getFee",
			"outputs": [
				{
					"internalType": "uint256",
					"name": "",
					"type": "uint256"
				}
			],
			"stateMutability": "view",
			"type": "function"
		},
		{
			"inputs": [],
			"name": "getUseTreasuryDistributionContract",
			"outputs": [
				{
					"internalType": "bool",
					"name": "",
					"type": "bool"
				}
			],
			"stateMutability": "view",
			"type": "function"
		},
		{
			"inputs": [],
			"name": "isUseTreasuryDistributionContract",
			"outputs": [],
			"stateMutability": "nonpayable",
			"type": "function"
		},
		{
			"inputs": [],
			"name": "owner",
			"outputs": [
				{
					"internalType": "address",
					"name": "",
					"type": "address"
				}
			],
			"stateMutability": "view",
			"type": "function"
		},
		{
			"inputs": [],
			"name": "renounceOwnership",
			"outputs": [],
			"stateMutability": "nonpayable",
			"type": "function"
		},
		{
			"inputs": [],
			"name": "setAddr",
			"outputs": [
				{
					"internalType": "address",
					"name": "",
					"type": "address"
				}
			],
			"stateMutability": "view",
			"type": "function"
		},
		{
			"inputs": [
				{
					"internalType": "address",
					"name": "_addr",
					"type": "address"
				}
			],
			"name": "setAddress",
			"outputs": [],
			"stateMutability": "nonpayable",
			"type": "function"
		},
		{
			"inputs": [
				{
					"internalType": "uint256",
					"name": "_fee",
					"type": "uint256"
				}
			],
			"name": "setFee",
			"outputs": [],
			"stateMutability": "nonpayable",
			"type": "function"
		},
		{
			"inputs": [
				{
					"internalType": "address",
					"name": "newOwner",
					"type": "address"
				}
			],
			"name": "transferOwnership",
			"outputs": [],
			"stateMutability": "nonpayable",
			"type": "function"
		},
		{
			"inputs": [],
			"name": "useTreasuryDistributionContract",
			"outputs": [
				{
					"internalType": "bool",
					"name": "",
					"type": "bool"
				}
			],
			"stateMutability": "view",
			"type": "function"
		}
	]
}