{
	"data": {
		"bytecode": {
			"linkReferences": {},
			"object": "60806040526040518060400160405280600581526020017f2e6a736f6e000000000000000000000000000000000000000000000000000000815250600990816200004a9190620005b7565b503480156200005857600080fd5b5060405162007fe338038062007fe383398181016040528101906200007e919062000708565b6040518060400160405280600881526020017f46697265536f756c0000000000000000000000000000000000000000000000008152506040518060400160405280600881526020017f46697265536f756c0000000000000000000000000000000000000000000000008152508160009081620000fb9190620005b7565b5080600190816200010d9190620005b7565b50505062000130620001246200026f60201b60201c565b6200027760201b60201c565b81601660006101000a81548173ffffffffffffffffffffffffffffffffffffffff021916908373ffffffffffffffffffffffffffffffffffffffff16021790555082600a60006101000a81548173ffffffffffffffffffffffffffffffffffffffff021916908373ffffffffffffffffffffffffffffffffffffffff16021790555080601860006101000a81548173ffffffffffffffffffffffffffffffffffffffff021916908373ffffffffffffffffffffffffffffffffffffffff16021790555060646010819055506050600c81905550600e600d819055506004600e819055506002600f81905550600a60118190555060466012819055506014601381905550600a60148190555060405180608001604052806059815260200162007f8a6059913960089081620002659190620005b7565b5050505062000764565b600033905090565b6000600660009054906101000a900473ffffffffffffffffffffffffffffffffffffffff16905081600660006101000a81548173ffffffffffffffffffffffffffffffffffffffff021916908373ffffffffffffffffffffffffffffffffffffffff1602179055508173ffffffffffffffffffffffffffffffffffffffff168173ffffffffffffffffffffffffffffffffffffffff167f8be0079c531659141344cd1fd0a4f28419497f9722a3daafe3b4186f6b6457e060405160405180910390a35050565b600081519050919050565b7f4e487b7100000000000000000000000000000000000000000000000000000000600052604160045260246000fd5b7f4e487b7100000000000000000000000000000000000000000000000000000000600052602260045260246000fd5b60006002820490506001821680620003bf57607f821691505b602082108103620003d557620003d462000377565b5b50919050565b60008190508160005260206000209050919050565b60006020601f8301049050919050565b600082821b905092915050565b6000600883026200043f7fffffffffffffffffffffffffffffffffffffffffffffffffffffffffffffffff8262000400565b6200044b868362000400565b95508019841693508086168417925050509392505050565b6000819050919050565b6000819050919050565b600062000498620004926200048c8462000463565b6200046d565b62000463565b9050919050565b6000819050919050565b620004b48362000477565b620004cc620004c3826200049f565b8484546200040d565b825550505050565b600090565b620004e3620004d4565b620004f0818484620004a9565b505050565b5b8181101562000518576200050c600082620004d9565b600181019050620004f6565b5050565b601f82111562000567576200053181620003db565b6200053c84620003f0565b810160208510156200054c578190505b620005646200055b85620003f0565b830182620004f5565b50505b505050565b600082821c905092915050565b60006200058c600019846008026200056c565b1980831691505092915050565b6000620005a7838362000579565b9150826002028217905092915050565b620005c2826200033d565b67ffffffffffffffff811115620005de57620005dd62000348565b5b620005ea8254620003a6565b620005f78282856200051c565b600060209050601f8311600181146200062f57600084156200061a578287015190505b62000626858262000599565b86555062000696565b601f1984166200063f86620003db565b60005b82811015620006695784890151825560018201915060208501945060208101905062000642565b8683101562000689578489015162000685601f89168262000579565b8355505b6001600288020188555050505b505050505050565b600080fd5b600073ffffffffffffffffffffffffffffffffffffffff82169050919050565b6000620006d082620006a3565b9050919050565b620006e281620006c3565b8114620006ee57600080fd5b50565b6000815190506200070281620006d7565b92915050565b6000806000606084860312156200072457620007236200069e565b5b60006200073486828701620006f1565b93505060206200074786828701620006f1565b92505060406200075a86828701620006f1565b9150509250925092565b61781680620007746000396000f3fe608060405260043610620004765760003560e01c80637ebaba901162000253578063b8d1452f116200013f578063e15658c711620000bb578063e985e9c51162000085578063e985e9c514620011e4578063efdcd9741462001228578063f2fde38b1462001256578063fd4329f41462001284578063ffb0e20d14620012b25762000476565b8063e15658c714620010fc578063e23767e21462001140578063e3840bc11462001170578063e75729f214620011a05762000476565b8063c56b71421162000109578063c56b71421462000fe5578063c6682862146200102a578063c87b56dd146200105a578063d9d518f3146200109e578063ddca3f4314620010cc5762000476565b8063b8d1452f1462000f15578063be5f0cc91462000f43578063c01911141462000f87578063c03366291462000fcb5762000476565b806398bad7e611620001cf578063abbb376c1162000199578063abbb376c1462000e13578063ac949c6f1462000e43578063b3f006741462000e87578063b83282da1462000eb7578063b88d4fde1462000ee75762000476565b806398bad7e61462000d595780639bc8a9e41462000d73578063a22cb4651462000da1578063a269fbe51462000dcf5762000476565b80638af668d5116200021d5780638af668d51462000c555780638d6eaf941462000c855780638da5cb5b1462000cb557806391c719881462000ce557806395d89b411462000d295762000476565b80637ebaba901462000b83578063846218d91462000bb357806384ee66c01462000be15780638af4b86a1462000c115762000476565b80633c344ce1116200037357806364f0d7af11620002ef57806370a0823111620002b957806370a082311462000a97578063715018a61462000adb578063763d8c161462000af5578063775b9c131462000b255780637b4392cb1462000b535762000476565b806364f0d7af14620009db57806366b5baf61462000a0b57806369fe0e2d1462000a395780636c0360eb1462000a675762000476565b806342842e0e116200033d57806342842e0e14620008db578063444d57b114620009095780634f335d0a146200093957806355f804b314620009695780636352211e14620009975762000476565b80633c344ce114620008075780633d18651e146200084b5780633d923b9e146200087b5780633fc8cef314620008ab5762000476565b8063095ea7b3116200040357806323b872dd11620003cd57806323b872dd146200070b5780632d871b7314620007395780632e082d5c14620007675780632ff066be14620007ab57806334b999d014620007d95762000476565b8063095ea7b314620006395780630b6b9d7714620006675780630bfc24f814620006ab578063200d2ed214620006db5762000476565b806306dd6060116200044557806306dd6060146200055357806306fdde031462000581578063081812fc14620005b1578063088572cc14620005f55762000476565b806301af001d146200047b57806301ffc9a714620004bf578063026fe9f2146200050357806305737aae1462000533575b600080fd5b3480156200048857600080fd5b50620004a76004803603810190620004a1919062005541565b620012e2565b604051620004b6919062005584565b60405180910390f35b348015620004cc57600080fd5b50620004eb6004803603810190620004e59190620055fe565b62001307565b604051620004fa91906200564d565b60405180910390f35b3480156200051057600080fd5b506200051b620013ed565b6040516200052a919062005584565b60405180910390f35b6200055160048036038101906200054b919062005541565b620013fa565b005b3480156200056057600080fd5b506200057f6004803603810190620005799190620056cf565b62002980565b005b3480156200058e57600080fd5b5062000599620029ce565b604051620005a891906200579b565b60405180910390f35b348015620005be57600080fd5b50620005dd6004803603810190620005d7919062005541565b62002a68565b604051620005ec9190620057d0565b60405180910390f35b3480156200060257600080fd5b506200062160048036038101906200061b919062005541565b62002ab0565b604051620006309190620057d0565b60405180910390f35b3480156200064657600080fd5b506200066560048036038101906200065f9190620057ed565b62002af0565b005b3480156200067457600080fd5b506200069360048036038101906200068d9190620056cf565b62002c18565b604051620006a291906200564d565b60405180910390f35b348015620006b857600080fd5b50620006c362002c38565b604051620006d29190620057d0565b60405180910390f35b348015620006e857600080fd5b50620006f362002c5e565b6040516200070291906200564d565b60405180910390f35b3480156200071857600080fd5b5062000737600480360381019062000731919062005834565b62002c71565b005b3480156200074657600080fd5b506200076560048036038101906200075f9190620059f4565b62002d83565b005b3480156200077457600080fd5b506200079360048036038101906200078d9190620057ed565b62002ef4565b604051620007a2919062005584565b60405180910390f35b348015620007b857600080fd5b50620007d76004803603810190620007d1919062005541565b62002f26565b005b348015620007e657600080fd5b50620008056004803603810190620007ff9190620056cf565b62002f3a565b005b3480156200081457600080fd5b506200083360048036038101906200082d9190620056cf565b62002f88565b60405162000842919062005584565b60405180910390f35b3480156200085857600080fd5b506200086362002fa0565b60405162000872919062005584565b60405180910390f35b3480156200088857600080fd5b506200089362002fa6565b604051620008a2919062005584565b60405180910390f35b348015620008b857600080fd5b50620008c362002fac565b604051620008d29190620057d0565b60405180910390f35b348015620008e857600080fd5b5062000907600480360381019062000901919062005834565b62002fd2565b005b3480156200091657600080fd5b50620009216200309d565b60405162000930919062005584565b60405180910390f35b3480156200094657600080fd5b5062000951620030a3565b6040516200096091906200564d565b60405180910390f35b3480156200097657600080fd5b506200099560048036038101906200098f919062005b0d565b620030b6565b005b348015620009a457600080fd5b50620009c36004803603810190620009bd919062005541565b620030d5565b604051620009d29190620057d0565b60405180910390f35b348015620009e857600080fd5b50620009f362003160565b60405162000a02919062005584565b60405180910390f35b34801562000a1857600080fd5b5062000a37600480360381019062000a31919062005b5e565b62003166565b005b34801562000a4657600080fd5b5062000a65600480360381019062000a5f919062005541565b620031ea565b005b34801562000a7457600080fd5b5062000a7f620031fe565b60405162000a8e91906200579b565b60405180910390f35b34801562000aa457600080fd5b5062000ac3600480360381019062000abd9190620056cf565b62003294565b60405162000ad2919062005584565b60405180910390f35b34801562000ae857600080fd5b5062000af36200334e565b005b34801562000b0257600080fd5b5062000b0d62003366565b60405162000b1c919062005584565b60405180910390f35b34801562000b3257600080fd5b5062000b51600480360381019062000b4b9190620059f4565b6200336c565b005b34801562000b6057600080fd5b5062000b6b620035a0565b60405162000b7a9190620057d0565b60405180910390f35b34801562000b9057600080fd5b5062000b9b620035c6565b60405162000baa919062005584565b60405180910390f35b34801562000bc057600080fd5b5062000bdf600480360381019062000bd9919062005b5e565b620035d3565b005b34801562000bee57600080fd5b5062000bf962003657565b60405162000c08919062005584565b60405180910390f35b34801562000c1e57600080fd5b5062000c3d600480360381019062000c379190620056cf565b6200365d565b60405162000c4c91906200564d565b60405180910390f35b34801562000c6257600080fd5b5062000c6d6200367d565b60405162000c7c919062005584565b60405180910390f35b34801562000c9257600080fd5b5062000c9d62003683565b60405162000cac919062005584565b60405180910390f35b34801562000cc257600080fd5b5062000ccd62003689565b60405162000cdc9190620057d0565b60405180910390f35b34801562000cf257600080fd5b5062000d11600480360381019062000d0b9190620056cf565b620036b3565b60405162000d2091906200564d565b60405180910390f35b34801562000d3657600080fd5b5062000d4162003709565b60405162000d5091906200579b565b60405180910390f35b34801562000d6657600080fd5b5062000d71620037a3565b005b34801562000d8057600080fd5b5062000d9f600480360381019062000d99919062005bff565b620037d9565b005b34801562000dae57600080fd5b5062000dcd600480360381019062000dc7919062005c62565b62003899565b005b34801562000ddc57600080fd5b5062000dfb600480360381019062000df5919062005541565b620038b3565b60405162000e0a9190620057d0565b60405180910390f35b34801562000e2057600080fd5b5062000e2b620038f3565b60405162000e3a9190620057d0565b60405180910390f35b34801562000e5057600080fd5b5062000e6f600480360381019062000e69919062005541565b62003919565b60405162000e7e9190620057d0565b60405180910390f35b34801562000e9457600080fd5b5062000e9f62003959565b60405162000eae9190620057d0565b60405180910390f35b34801562000ec457600080fd5b5062000ecf6200397f565b60405162000ede919062005584565b60405180910390f35b34801562000ef457600080fd5b5062000f13600480360381019062000f0d919062005d5d565b62003985565b005b34801562000f2257600080fd5b5062000f41600480360381019062000f3b9190620056cf565b62003a99565b005b34801562000f5057600080fd5b5062000f6f600480360381019062000f699190620056cf565b62003ae7565b60405162000f7e9190620057d0565b60405180910390f35b34801562000f9457600080fd5b5062000fb3600480360381019062000fad9190620056cf565b62003b50565b60405162000fc2919062005584565b60405180910390f35b34801562000fd857600080fd5b5062000fe362003c08565b005b34801562000ff257600080fd5b506200101160048036038101906200100b919062005541565b62003cc7565b6040516200102192919062005dee565b60405180910390f35b3480156200103757600080fd5b506200104262003d1c565b6040516200105191906200579b565b60405180910390f35b3480156200106757600080fd5b5062001086600480360381019062001080919062005541565b62003db2565b6040516200109591906200579b565b60405180910390f35b348015620010ab57600080fd5b50620010ca6004803603810190620010c49190620056cf565b62003e69565b005b348015620010d957600080fd5b50620010e462003eb7565b604051620010f3919062005584565b60405180910390f35b3480156200110957600080fd5b50620011286004803603810190620011229190620056cf565b62003ebd565b604051620011379190620057d0565b60405180910390f35b3480156200114d57600080fd5b506200115862003ef0565b60405162001167919062005584565b60405180910390f35b3480156200117d57600080fd5b506200118862003ef6565b604051620011979190620057d0565b60405180910390f35b348015620011ad57600080fd5b50620011cc6004803603810190620011c69190620056cf565b62003f1c565b604051620011db919062005584565b60405180910390f35b348015620011f157600080fd5b506200121060048036038101906200120a919062005e1b565b62003f65565b6040516200121f91906200564d565b60405180910390f35b3480156200123557600080fd5b506200125460048036038101906200124e9190620056cf565b62003ff9565b005b3480156200126357600080fd5b506200128260048036038101906200127c9190620056cf565b62004047565b005b3480156200129157600080fd5b50620012b06004803603810190620012aa9190620056cf565b620040d1565b005b348015620012bf57600080fd5b50620012ca6200411f565b604051620012d99190620057d0565b60405180910390f35b601d8181548110620012f357600080fd5b906000526020600020016000915090505481565b60007f80ac58cd000000000000000000000000000000000000000000000000000000007bffffffffffffffffffffffffffffffffffffffffffffffffffffffff1916827bffffffffffffffffffffffffffffffffffffffffffffffffffffffff19161480620013d357507f5b5e139f000000000000000000000000000000000000000000000000000000007bffffffffffffffffffffffffffffffffffffffffffffffffffffffff1916827bffffffffffffffffffffffffffffffffffffffffffffffffffffffff1916145b80620013e65750620013e58262004145565b5b9050919050565b6000601f80549050905090565b601660149054906101000a900460ff16156200144d576040517f08c379a0000000000000000000000000000000000000000000000000000000008152600401620014449062005eb2565b60405180910390fd5b60001515602360003373ffffffffffffffffffffffffffffffffffffffff1673ffffffffffffffffffffffffffffffffffffffff16815260200190815260200160002060009054906101000a900460ff16151514620014e3576040517f08c379a0000000000000000000000000000000000000000000000000000000008152600401620014da9062005f24565b60405180910390fd5b6000601660009054906101000a900473ffffffffffffffffffffffffffffffffffffffff1673ffffffffffffffffffffffffffffffffffffffff166370a08231336040518263ffffffff1660e01b8152600401620015429190620057d0565b602060405180830381865afa15801562001560573d6000803e3d6000fd5b505050506040513d601f19601f8201168201806040525081019062001586919062005f5d565b03620015c9576040517f08c379a0000000000000000000000000000000000000000000000000000000008152600401620015c09062005fdf565b60405180910390fd5b6000600a60009054906101000a900473ffffffffffffffffffffffffffffffffffffffff1673ffffffffffffffffffffffffffffffffffffffff1663dcca3755336040518263ffffffff1660e01b8152600401620016289190620057d0565b602060405180830381865afa15801562001646573d6000803e3d6000fd5b505050506040513d601f19601f820116820180604052508101906200166c919062006018565b90506000600a60009054906101000a900473ffffffffffffffffffffffffffffffffffffffff1673ffffffffffffffffffffffffffffffffffffffff1663dcca3755836040518263ffffffff1660e01b8152600401620016cd9190620057d0565b602060405180830381865afa158015620016eb573d6000803e3d6000fd5b505050506040513d601f19601f8201168201806040525081019062001711919062006018565b90506000600a60009054906101000a900473ffffffffffffffffffffffffffffffffffffffff1673ffffffffffffffffffffffffffffffffffffffff1663dcca3755836040518263ffffffff1660e01b8152600401620017729190620057d0565b602060405180830381865afa15801562001790573d6000803e3d6000fd5b505050506040513d601f19601f82011682018060405250810190620017b6919062006018565b9050601660159054906101000a900460ff1615620021bf576000601054600c54601754620017e5919062006079565b620017f19190620060f3565b90506000601054600d546017546200180a919062006079565b620018169190620060f3565b90506000601054600e546017546200182f919062006079565b6200183b9190620060f3565b90506000601054600f5460175462001854919062006079565b620018609190620060f3565b90506000340362001b8757600073ffffffffffffffffffffffffffffffffffffffff168773ffffffffffffffffffffffffffffffffffffffff1614158015620018d65750600073ffffffffffffffffffffffffffffffffffffffff168673ffffffffffffffffffffffffffffffffffffffff1614155b8015620019105750600073ffffffffffffffffffffffffffffffffffffffff168573ffffffffffffffffffffffffffffffffffffffff1614155b1562001a945762001968601860009054906101000a900473ffffffffffffffffffffffffffffffffffffffff1633601960009054906101000a900473ffffffffffffffffffffffffffffffffffffffff1687620041af565b62001998601860009054906101000a900473ffffffffffffffffffffffffffffffffffffffff16338986620041af565b620019c8601860009054906101000a900473ffffffffffffffffffffffffffffffffffffffff16338885620041af565b620019f8601860009054906101000a900473ffffffffffffffffffffffffffffffffffffffff16338784620041af565b601a60009054906101000a900473ffffffffffffffffffffffffffffffffffffffff1673ffffffffffffffffffffffffffffffffffffffff1663ba8279ca600533876040518463ffffffff1660e01b815260040162001a5a9392919062006178565b600060405180830381600087803b15801562001a7557600080fd5b505af115801562001a8a573d6000803e3d6000fd5b5050505062001b81565b62001ae8601860009054906101000a900473ffffffffffffffffffffffffffffffffffffffff1633601960009054906101000a900473ffffffffffffffffffffffffffffffffffffffff16601754620041af565b601a60009054906101000a900473ffffffffffffffffffffffffffffffffffffffff1673ffffffffffffffffffffffffffffffffffffffff1663ba8279ca6005336017546040518463ffffffff1660e01b815260040162001b4c9392919062006178565b600060405180830381600087803b15801562001b6757600080fd5b505af115801562001b7c573d6000803e3d6000fd5b505050505b620021ba565b601754341462001bce576040517f08c379a000000000000000000000000000000000000000000000000000000000815260040162001bc59062006205565b60405180910390fd5b601860009054906101000a900473ffffffffffffffffffffffffffffffffffffffff1673ffffffffffffffffffffffffffffffffffffffff1663d0e30db06017546040518263ffffffff1660e01b81526004016000604051808303818588803b15801562001c3b57600080fd5b505af115801562001c50573d6000803e3d6000fd5b5050505050600073ffffffffffffffffffffffffffffffffffffffff168773ffffffffffffffffffffffffffffffffffffffff161415801562001cc05750600073ffffffffffffffffffffffffffffffffffffffff168673ffffffffffffffffffffffffffffffffffffffff1614155b801562001cfa5750600073ffffffffffffffffffffffffffffffffffffffff168573ffffffffffffffffffffffffffffffffffffffff1614155b156200205657601860009054906101000a900473ffffffffffffffffffffffffffffffffffffffff1673ffffffffffffffffffffffffffffffffffffffff1663a9059cbb601960009054906101000a900473ffffffffffffffffffffffffffffffffffffffff16866040518363ffffffff1660e01b815260040162001d8192919062005dee565b6020604051808303816000875af115801562001da1573d6000803e3d6000fd5b505050506040513d601f19601f8201168201806040525081019062001dc791906200623e565b50601860009054906101000a900473ffffffffffffffffffffffffffffffffffffffff1673ffffffffffffffffffffffffffffffffffffffff1663a9059cbb88856040518363ffffffff1660e01b815260040162001e2792919062005dee565b6020604051808303816000875af115801562001e47573d6000803e3d6000fd5b505050506040513d601f19601f8201168201806040525081019062001e6d91906200623e565b50601860009054906101000a900473ffffffffffffffffffffffffffffffffffffffff1673ffffffffffffffffffffffffffffffffffffffff1663a9059cbb87846040518363ffffffff1660e01b815260040162001ecd92919062005dee565b6020604051808303816000875af115801562001eed573d6000803e3d6000fd5b505050506040513d601f19601f8201168201806040525081019062001f1391906200623e565b50601860009054906101000a900473ffffffffffffffffffffffffffffffffffffffff1673ffffffffffffffffffffffffffffffffffffffff1663a9059cbb86836040518363ffffffff1660e01b815260040162001f7392919062005dee565b6020604051808303816000875af115801562001f93573d6000803e3d6000fd5b505050506040513d601f19601f8201168201806040525081019062001fb991906200623e565b50601a60009054906101000a900473ffffffffffffffffffffffffffffffffffffffff1673ffffffffffffffffffffffffffffffffffffffff1663ba8279ca600533876040518463ffffffff1660e01b81526004016200201c9392919062006178565b600060405180830381600087803b1580156200203757600080fd5b505af11580156200204c573d6000803e3d6000fd5b50505050620021b9565b601860009054906101000a900473ffffffffffffffffffffffffffffffffffffffff1673ffffffffffffffffffffffffffffffffffffffff1663a9059cbb601960009054906101000a900473ffffffffffffffffffffffffffffffffffffffff166017546040518363ffffffff1660e01b8152600401620020d992919062005dee565b6020604051808303816000875af1158015620020f9573d6000803e3d6000fd5b505050506040513d601f19601f820116820180604052508101906200211f91906200623e565b50601a60009054906101000a900473ffffffffffffffffffffffffffffffffffffffff1673ffffffffffffffffffffffffffffffffffffffff1663ba8279ca6005336017546040518463ffffffff1660e01b8152600401620021849392919062006178565b600060405180830381600087803b1580156200219f57600080fd5b505af1158015620021b4573d6000803e3d6000fd5b505050505b5b505050505b600a60009054906101000a900473ffffffffffffffffffffffffffffffffffffffff1673ffffffffffffffffffffffffffffffffffffffff16638c7b8d77338660016040518463ffffffff1660e01b81526004016200222193929190620062b3565b600060405180830381600087803b1580156200223c57600080fd5b505af115801562002251573d6000803e3d6000fd5b505050506200226333600b54620042f5565b601f339080600181540180825580915050600190039060005260206000200160009091909190916101000a81548173ffffffffffffffffffffffffffffffffffffffff021916908373ffffffffffffffffffffffffffffffffffffffff160217905550600b54602260003373ffffffffffffffffffffffffffffffffffffffff1673ffffffffffffffffffffffffffffffffffffffff168152602001908152602001600020819055506001602360003373ffffffffffffffffffffffffffffffffffffffff1673ffffffffffffffffffffffffffffffffffffffff16815260200190815260200160002060006101000a81548160ff021916908315150217905550600033306040516200237690620054e4565b62002383929190620062f0565b604051809103906000f080158015620023a0573d6000803e3d6000fd5b50905080602560003373ffffffffffffffffffffffffffffffffffffffff1673ffffffffffffffffffffffffffffffffffffffff16815260200190815260200160002060006101000a81548173ffffffffffffffffffffffffffffffffffffffff021916908373ffffffffffffffffffffffffffffffffffffffff160217905550600073ffffffffffffffffffffffffffffffffffffffff16602560008473ffffffffffffffffffffffffffffffffffffffff1673ffffffffffffffffffffffffffffffffffffffff16815260200190815260200160002060009054906101000a900473ffffffffffffffffffffffffffffffffffffffff1673ffffffffffffffffffffffffffffffffffffffff16141580156200254a5750600073ffffffffffffffffffffffffffffffffffffffff16602560008573ffffffffffffffffffffffffffffffffffffffff1673ffffffffffffffffffffffffffffffffffffffff16815260200190815260200160002060009054906101000a900473ffffffffffffffffffffffffffffffffffffffff1673ffffffffffffffffffffffffffffffffffffffff1614155b8015620025e35750600073ffffffffffffffffffffffffffffffffffffffff16602560008673ffffffffffffffffffffffffffffffffffffffff1673ffffffffffffffffffffffffffffffffffffffff16815260200190815260200160002060009054906101000a900473ffffffffffffffffffffffffffffffffffffffff1673ffffffffffffffffffffffffffffffffffffffff1614155b156200295f57601e60009054906101000a900473ffffffffffffffffffffffffffffffffffffffff1673ffffffffffffffffffffffffffffffffffffffff166340c10f19602560008773ffffffffffffffffffffffffffffffffffffffff1673ffffffffffffffffffffffffffffffffffffffff16815260200190815260200160002060009054906101000a900473ffffffffffffffffffffffffffffffffffffffff16670de0b6b3a7640000601054601254601154620026a5919062006079565b620026b19190620060f3565b620026bd919062006079565b6040518363ffffffff1660e01b8152600401620026dc92919062005dee565b600060405180830381600087803b158015620026f757600080fd5b505af11580156200270c573d6000803e3d6000fd5b50505050601e60009054906101000a900473ffffffffffffffffffffffffffffffffffffffff1673ffffffffffffffffffffffffffffffffffffffff166340c10f19602560008673ffffffffffffffffffffffffffffffffffffffff1673ffffffffffffffffffffffffffffffffffffffff16815260200190815260200160002060009054906101000a900473ffffffffffffffffffffffffffffffffffffffff16670de0b6b3a7640000601054601354601154620027cc919062006079565b620027d89190620060f3565b620027e4919062006079565b6040518363ffffffff1660e01b81526004016200280392919062005dee565b600060405180830381600087803b1580156200281e57600080fd5b505af115801562002833573d6000803e3d6000fd5b50505050601e60009054906101000a900473ffffffffffffffffffffffffffffffffffffffff1673ffffffffffffffffffffffffffffffffffffffff166340c10f19602560008573ffffffffffffffffffffffffffffffffffffffff1673ffffffffffffffffffffffffffffffffffffffff16815260200190815260200160002060009054906101000a900473ffffffffffffffffffffffffffffffffffffffff16670de0b6b3a7640000601054601454601154620028f3919062006079565b620028ff9190620060f3565b6200290b919062006079565b6040518363ffffffff1660e01b81526004016200292a92919062005dee565b600060405180830381600087803b1580156200294557600080fd5b505af11580156200295a573d6000803e3d6000fd5b505050505b600b600081548092919062002974906200631d565b91905055505050505050565b6200298a62004523565b80600a60006101000a81548173ffffffffffffffffffffffffffffffffffffffff021916908373ffffffffffffffffffffffffffffffffffffffff16021790555050565b606060008054620029df9062006399565b80601f016020809104026020016040519081016040528092919081815260200182805462002a0d9062006399565b801562002a5e5780601f1062002a325761010080835404028352916020019162002a5e565b820191906000526020600020905b81548152906001019060200180831162002a4057829003601f168201915b5050505050905090565b600062002a7582620045a8565b6004600083815260200190815260200160002060009054906101000a900473ffffffffffffffffffffffffffffffffffffffff169050919050565b6015818154811062002ac157600080fd5b906000526020600020016000915054906101000a900473ffffffffffffffffffffffffffffffffffffffff1681565b600062002afd82620030d5565b90508073ffffffffffffffffffffffffffffffffffffffff168373ffffffffffffffffffffffffffffffffffffffff160362002b70576040517f08c379a000000000000000000000000000000000000000000000000000000000815260040162002b679062006444565b60405180910390fd5b8073ffffffffffffffffffffffffffffffffffffffff1662002b91620045f8565b73ffffffffffffffffffffffffffffffffffffffff16148062002bc5575062002bc48162002bbe620045f8565b62003f65565b5b62002c07576040517f08c379a000000000000000000000000000000000000000000000000000000000815260040162002bfe90620064dc565b60405180910390fd5b62002c13838362004600565b505050565b60236020528060005260406000206000915054906101000a900460ff1681565b601b60009054906101000a900473ffffffffffffffffffffffffffffffffffffffff1681565b601660149054906101000a900460ff1681565b3373ffffffffffffffffffffffffffffffffffffffff168373ffffffffffffffffffffffffffffffffffffffff1614801562002cd857503373ffffffffffffffffffffffffffffffffffffffff168273ffffffffffffffffffffffffffffffffffffffff16145b62002d1a576040517f08c379a000000000000000000000000000000000000000000000000000000000815260040162002d11906200654e565b60405180910390fd5b62002d2f62002d28620045f8565b82620046bb565b62002d71576040517f08c379a000000000000000000000000000000000000000000000000000000000815260040162002d6890620065e6565b60405180910390fd5b62002d7e83838362004758565b505050565b62002d8d62004523565b60005b815181101562002ef0576021600083838151811062002db45762002db362006608565b5b602002602001015173ffffffffffffffffffffffffffffffffffffffff1673ffffffffffffffffffffffffffffffffffffffff16815260200190815260200160002060009054906101000a900460ff1662002e46576040517f08c379a000000000000000000000000000000000000000000000000000000000815260040162002e3d9062006687565b60405180910390fd5b6021600083838151811062002e605762002e5f62006608565b5b602002602001015173ffffffffffffffffffffffffffffffffffffffff1673ffffffffffffffffffffffffffffffffffffffff16815260200190815260200160002060006101000a81549060ff021916905562002eda82828151811062002ecc5762002ecb62006608565b5b602002602001015162004a62565b808062002ee7906200631d565b91505062002d90565b5050565b6024602052816000526040600020818154811062002f1157600080fd5b90600052602060002001600091509150505481565b62002f3062004523565b8060118190555050565b62002f4462004523565b80601b60006101000a81548173ffffffffffffffffffffffffffffffffffffffff021916908373ffffffffffffffffffffffffffffffffffffffff16021790555050565b60226020528060005260406000206000915090505481565b60105481565b60145481565b601860009054906101000a900473ffffffffffffffffffffffffffffffffffffffff1681565b3373ffffffffffffffffffffffffffffffffffffffff168373ffffffffffffffffffffffffffffffffffffffff161480156200303957503373ffffffffffffffffffffffffffffffffffffffff168273ffffffffffffffffffffffffffffffffffffffff16145b6200307b576040517f08c379a000000000000000000000000000000000000000000000000000000000815260040162003072906200654e565b60405180910390fd5b620030988383836040518060200160405280600081525062003985565b505050565b60135481565b601660159054906101000a900460ff1681565b620030c062004523565b8060089081620030d1919062006871565b5050565b600080620030e38362004c38565b9050600073ffffffffffffffffffffffffffffffffffffffff168173ffffffffffffffffffffffffffffffffffffffff160362003157576040517f08c379a00000000000000000000000000000000000000000000000000000000081526004016200314e90620069a8565b60405180910390fd5b80915050919050565b60115481565b6200317062004523565b6064818385620031819190620069ca565b6200318d9190620069ca565b14620031d0576040517f08c379a0000000000000000000000000000000000000000000000000000000008152600401620031c79062006687565b60405180910390fd5b82600f8190555081600e8190555080600d81905550505050565b620031f462004523565b8060178190555050565b600880546200320d9062006399565b80601f01602080910402602001604051908101604052809291908181526020018280546200323b9062006399565b80156200328c5780601f1062003260576101008083540402835291602001916200328c565b820191906000526020600020905b8154815290600101906020018083116200326e57829003601f168201915b505050505081565b60008073ffffffffffffffffffffffffffffffffffffffff168273ffffffffffffffffffffffffffffffffffffffff160362003307576040517f08c379a0000000000000000000000000000000000000000000000000000000008152600401620032fe9062006a7b565b60405180910390fd5b600360008373ffffffffffffffffffffffffffffffffffffffff1673ffffffffffffffffffffffffffffffffffffffff168152602001908152602001600020549050919050565b6200335862004523565b62003364600062004c75565b565b600b5481565b6200337662004523565b60005b81518110156200359c57602160008383815181106200339d576200339c62006608565b5b602002602001015173ffffffffffffffffffffffffffffffffffffffff1673ffffffffffffffffffffffffffffffffffffffff16815260200190815260200160002060009054906101000a900460ff161562003430576040517f08c379a0000000000000000000000000000000000000000000000000000000008152600401620034279062006687565b60405180910390fd5b620034588282815181106200344a576200344962006608565b5b602002602001015162004d3b565b60016021600084848151811062003474576200347362006608565b5b602002602001015173ffffffffffffffffffffffffffffffffffffffff1673ffffffffffffffffffffffffffffffffffffffff16815260200190815260200160002060006101000a81548160ff021916908315150217905550600060405180604001604052803373ffffffffffffffffffffffffffffffffffffffff168152602001620035013362003b50565b8152509050602081908060018154018082558091505060019003906000526020600020906002020160009091909190915060008201518160000160006101000a81548173ffffffffffffffffffffffffffffffffffffffff021916908373ffffffffffffffffffffffffffffffffffffffff16021790555060208201518160010155505050808062003593906200631d565b91505062003379565b5050565b601660009054906101000a900473ffffffffffffffffffffffffffffffffffffffff1681565b6000602080549050905090565b620035dd62004523565b6064818385620035ee9190620069ca565b620035fa9190620069ca565b146200363d576040517f08c379a0000000000000000000000000000000000000000000000000000000008152600401620036349062006687565b60405180910390fd5b826012819055508160138190555080601481905550505050565b60125481565b60216020528060005260406000206000915054906101000a900460ff1681565b600e5481565b600f5481565b6000600660009054906101000a900473ffffffffffffffffffffffffffffffffffffffff16905090565b6000602360008373ffffffffffffffffffffffffffffffffffffffff1673ffffffffffffffffffffffffffffffffffffffff16815260200190815260200160002060009054906101000a900460ff169050919050565b6060600180546200371a9062006399565b80601f0160208091040260200160405190810160405280929190818152602001828054620037489062006399565b8015620037995780601f106200376d5761010080835404028352916020019162003799565b820191906000526020600020905b8154815290600101906020018083116200377b57829003601f168201915b5050505050905090565b620037ad62004523565b601660159054906101000a900460ff1615601660156101000a81548160ff021916908315150217905550565b620037e362004523565b600073ffffffffffffffffffffffffffffffffffffffff168173ffffffffffffffffffffffffffffffffffffffff160362003855576040517f08c379a00000000000000000000000000000000000000000000000000000000081526004016200384c9062006aed565b60405180910390fd5b80600760006101000a81548173ffffffffffffffffffffffffffffffffffffffff021916908373ffffffffffffffffffffffffffffffffffffffff16021790555050565b620038af620038a7620045f8565b838362004e27565b5050565b601c8181548110620038c457600080fd5b906000526020600020016000915054906101000a900473ffffffffffffffffffffffffffffffffffffffff1681565b600a60009054906101000a900473ffffffffffffffffffffffffffffffffffffffff1681565b601f81815481106200392a57600080fd5b906000526020600020016000915054906101000a900473ffffffffffffffffffffffffffffffffffffffff1681565b601960009054906101000a900473ffffffffffffffffffffffffffffffffffffffff1681565b600c5481565b3373ffffffffffffffffffffffffffffffffffffffff168473ffffffffffffffffffffffffffffffffffffffff16148015620039ec57503373ffffffffffffffffffffffffffffffffffffffff168373ffffffffffffffffffffffffffffffffffffffff16145b62003a2e576040517f08c379a000000000000000000000000000000000000000000000000000000000815260040162003a25906200654e565b60405180910390fd5b62003a4362003a3c620045f8565b83620046bb565b62003a85576040517f08c379a000000000000000000000000000000000000000000000000000000000815260040162003a7c90620065e6565b60405180910390fd5b62003a938484848462004f98565b50505050565b62003aa362004523565b80601860006101000a81548173ffffffffffffffffffffffffffffffffffffffff021916908373ffffffffffffffffffffffffffffffffffffffff16021790555050565b6000602560008373ffffffffffffffffffffffffffffffffffffffff1673ffffffffffffffffffffffffffffffffffffffff16815260200190815260200160002060009054906101000a900473ffffffffffffffffffffffffffffffffffffffff169050919050565b600080600760009054906101000a900473ffffffffffffffffffffffffffffffffffffffff1673ffffffffffffffffffffffffffffffffffffffff16631959a002846040518263ffffffff1660e01b815260040162003bb09190620057d0565b600060405180830381865afa15801562003bce573d6000803e3d6000fd5b505050506040513d6000823e3d601f19601f8201168201806040525081019062003bf9919062006b8d565b50505050905080915050919050565b601b60009054906101000a900473ffffffffffffffffffffffffffffffffffffffff1673ffffffffffffffffffffffffffffffffffffffff163373ffffffffffffffffffffffffffffffffffffffff161462003c9b576040517f08c379a000000000000000000000000000000000000000000000000000000000815260040162003c929062006ca3565b60405180910390fd5b601660149054906101000a900460ff1615601660146101000a81548160ff021916908315150217905550565b6020818154811062003cd857600080fd5b90600052602060002090600202016000915090508060000160009054906101000a900473ffffffffffffffffffffffffffffffffffffffff16908060010154905082565b6009805462003d2b9062006399565b80601f016020809104026020016040519081016040528092919081815260200182805462003d599062006399565b801562003daa5780601f1062003d7e5761010080835404028352916020019162003daa565b820191906000526020600020905b81548152906001019060200180831162003d8c57829003601f168201915b505050505081565b606062003dbf8262004ffb565b62003e01576040517f08c379a000000000000000000000000000000000000000000000000000000000815260040162003df89062006d3b565b60405180910390fd5b600062003e0d6200503e565b9050600081511162003e2f576040518060200160405280600081525062003e61565b8062003e3b84620050d8565b600960405160200162003e519392919062006e2e565b6040516020818303038152906040525b915050919050565b62003e7362004523565b80601e60006101000a81548173ffffffffffffffffffffffffffffffffffffffff021916908373ffffffffffffffffffffffffffffffffffffffff16021790555050565b60175481565b60256020528060005260406000206000915054906101000a900473ffffffffffffffffffffffffffffffffffffffff1681565b600d5481565b601a60009054906101000a900473ffffffffffffffffffffffffffffffffffffffff1681565b6000602260008373ffffffffffffffffffffffffffffffffffffffff1673ffffffffffffffffffffffffffffffffffffffff168152602001908152602001600020549050919050565b6000600560008473ffffffffffffffffffffffffffffffffffffffff1673ffffffffffffffffffffffffffffffffffffffff16815260200190815260200160002060008373ffffffffffffffffffffffffffffffffffffffff1673ffffffffffffffffffffffffffffffffffffffff16815260200190815260200160002060009054906101000a900460ff16905092915050565b6200400362004523565b80601960006101000a81548173ffffffffffffffffffffffffffffffffffffffff021916908373ffffffffffffffffffffffffffffffffffffffff16021790555050565b6200405162004523565b600073ffffffffffffffffffffffffffffffffffffffff168173ffffffffffffffffffffffffffffffffffffffff1603620040c3576040517f08c379a0000000000000000000000000000000000000000000000000000000008152600401620040ba9062006edb565b60405180910390fd5b620040ce8162004c75565b50565b620040db62004523565b80601a60006101000a81548173ffffffffffffffffffffffffffffffffffffffff021916908373ffffffffffffffffffffffffffffffffffffffff16021790555050565b601e60009054906101000a900473ffffffffffffffffffffffffffffffffffffffff1681565b60007f01ffc9a7000000000000000000000000000000000000000000000000000000007bffffffffffffffffffffffffffffffffffffffffffffffffffffffff1916827bffffffffffffffffffffffffffffffffffffffffffffffffffffffff1916149050919050565b6000808573ffffffffffffffffffffffffffffffffffffffff166323b872dd868686604051602401620041e59392919062006efd565b6040516020818303038152906040529060e01b6020820180517bffffffffffffffffffffffffffffffffffffffffffffffffffffffff838183161783525050505060405162004235919062006f87565b6000604051808303816000865af19150503d806000811462004274576040519150601f19603f3d011682016040523d82523d6000602084013e62004279565b606091505b5091509150818015620042ab5750600081511480620042aa575080806020019051810190620042a991906200623e565b5b5b620042ed576040517f08c379a0000000000000000000000000000000000000000000000000000000008152600401620042e49062007016565b60405180910390fd5b505050505050565b600073ffffffffffffffffffffffffffffffffffffffff168273ffffffffffffffffffffffffffffffffffffffff160362004367576040517f08c379a00000000000000000000000000000000000000000000000000000000081526004016200435e9062007088565b60405180910390fd5b620043728162004ffb565b15620043b5576040517f08c379a0000000000000000000000000000000000000000000000000000000008152600401620043ac90620070fa565b60405180910390fd5b620043c5600083836001620051b1565b620043d08162004ffb565b1562004413576040517f08c379a00000000000000000000000000000000000000000000000000000000081526004016200440a90620070fa565b60405180910390fd5b6001600360008473ffffffffffffffffffffffffffffffffffffffff1673ffffffffffffffffffffffffffffffffffffffff16815260200190815260200160002060008282540192505081905550816002600083815260200190815260200160002060006101000a81548173ffffffffffffffffffffffffffffffffffffffff021916908373ffffffffffffffffffffffffffffffffffffffff160217905550808273ffffffffffffffffffffffffffffffffffffffff16600073ffffffffffffffffffffffffffffffffffffffff167fddf252ad1be2c89b69c2b068fc378daa952ba7f163c4a11628f55a4df523b3ef60405160405180910390a46200451f600083836001620051b7565b5050565b6200452d620045f8565b73ffffffffffffffffffffffffffffffffffffffff166200454d62003689565b73ffffffffffffffffffffffffffffffffffffffff1614620045a6576040517f08c379a00000000000000000000000000000000000000000000000000000000081526004016200459d906200716c565b60405180910390fd5b565b620045b38162004ffb565b620045f5576040517f08c379a0000000000000000000000000000000000000000000000000000000008152600401620045ec90620069a8565b60405180910390fd5b50565b600033905090565b816004600083815260200190815260200160002060006101000a81548173ffffffffffffffffffffffffffffffffffffffff021916908373ffffffffffffffffffffffffffffffffffffffff160217905550808273ffffffffffffffffffffffffffffffffffffffff166200467583620030d5565b73ffffffffffffffffffffffffffffffffffffffff167f8c5be1e5ebec7d5bd14f71427d1e84f3dd0314c0f7b2291e5b200ac8c7c3b92560405160405180910390a45050565b600080620046c983620030d5565b90508073ffffffffffffffffffffffffffffffffffffffff168473ffffffffffffffffffffffffffffffffffffffff1614806200470e57506200470d818562003f65565b5b806200474f57508373ffffffffffffffffffffffffffffffffffffffff16620047378462002a68565b73ffffffffffffffffffffffffffffffffffffffff16145b91505092915050565b8273ffffffffffffffffffffffffffffffffffffffff166200477a82620030d5565b73ffffffffffffffffffffffffffffffffffffffff1614620047d3576040517f08c379a0000000000000000000000000000000000000000000000000000000008152600401620047ca9062007204565b60405180910390fd5b600073ffffffffffffffffffffffffffffffffffffffff168273ffffffffffffffffffffffffffffffffffffffff160362004845576040517f08c379a00000000000000000000000000000000000000000000000000000000081526004016200483c906200729c565b60405180910390fd5b620048548383836001620051b1565b8273ffffffffffffffffffffffffffffffffffffffff166200487682620030d5565b73ffffffffffffffffffffffffffffffffffffffff1614620048cf576040517f08c379a0000000000000000000000000000000000000000000000000000000008152600401620048c69062007204565b60405180910390fd5b6004600082815260200190815260200160002060006101000a81549073ffffffffffffffffffffffffffffffffffffffff02191690556001600360008573ffffffffffffffffffffffffffffffffffffffff1673ffffffffffffffffffffffffffffffffffffffff168152602001908152602001600020600082825403925050819055506001600360008473ffffffffffffffffffffffffffffffffffffffff1673ffffffffffffffffffffffffffffffffffffffff16815260200190815260200160002060008282540192505081905550816002600083815260200190815260200160002060006101000a81548173ffffffffffffffffffffffffffffffffffffffff021916908373ffffffffffffffffffffffffffffffffffffffff160217905550808273ffffffffffffffffffffffffffffffffffffffff168473ffffffffffffffffffffffffffffffffffffffff167fddf252ad1be2c89b69c2b068fc378daa952ba7f163c4a11628f55a4df523b3ef60405160405180910390a462004a5d8383836001620051b7565b505050565b60005b60208054905081101562004c34578173ffffffffffffffffffffffffffffffffffffffff166020828154811062004aa15762004aa062006608565b5b906000526020600020906002020160000160009054906101000a900473ffffffffffffffffffffffffffffffffffffffff1673ffffffffffffffffffffffffffffffffffffffff160362004c1e576020600160208054905062004b059190620072be565b8154811062004b195762004b1862006608565b5b90600052602060002090600202016020828154811062004b3e5762004b3d62006608565b5b90600052602060002090600202016000820160009054906101000a900473ffffffffffffffffffffffffffffffffffffffff168160000160006101000a81548173ffffffffffffffffffffffffffffffffffffffff021916908373ffffffffffffffffffffffffffffffffffffffff16021790555060018201548160010155905050602080548062004bd55762004bd4620072f9565b5b6001900381819060005260206000209060020201600080820160006101000a81549073ffffffffffffffffffffffffffffffffffffffff02191690556001820160009055505090555b808062004c2b906200631d565b91505062004a65565b5050565b60006002600083815260200190815260200160002060009054906101000a900473ffffffffffffffffffffffffffffffffffffffff169050919050565b6000600660009054906101000a900473ffffffffffffffffffffffffffffffffffffffff16905081600660006101000a81548173ffffffffffffffffffffffffffffffffffffffff021916908373ffffffffffffffffffffffffffffffffffffffff1602179055508173ffffffffffffffffffffffffffffffffffffffff168173ffffffffffffffffffffffffffffffffffffffff167f8be0079c531659141344cd1fd0a4f28419497f9722a3daafe3b4186f6b6457e060405160405180910390a35050565b60005b60208054905081101562004e23576020818154811062004d635762004d6262006608565b5b906000526020600020906002020160000160009054906101000a900473ffffffffffffffffffffffffffffffffffffffff1673ffffffffffffffffffffffffffffffffffffffff168273ffffffffffffffffffffffffffffffffffffffff160362004e0d57600062004e0c576040517f08c379a000000000000000000000000000000000000000000000000000000000815260040162004e039062006687565b60405180910390fd5b5b808062004e1a906200631d565b91505062004d3e565b5050565b8173ffffffffffffffffffffffffffffffffffffffff168373ffffffffffffffffffffffffffffffffffffffff160362004e98576040517f08c379a000000000000000000000000000000000000000000000000000000000815260040162004e8f9062007378565b60405180910390fd5b80600560008573ffffffffffffffffffffffffffffffffffffffff1673ffffffffffffffffffffffffffffffffffffffff16815260200190815260200160002060008473ffffffffffffffffffffffffffffffffffffffff1673ffffffffffffffffffffffffffffffffffffffff16815260200190815260200160002060006101000a81548160ff0219169083151502179055508173ffffffffffffffffffffffffffffffffffffffff168373ffffffffffffffffffffffffffffffffffffffff167f17307eab39ab6107e8899845ad3d59bd9653f200f220920489ca2b5937696c318360405162004f8b91906200564d565b60405180910390a3505050565b62004fa584848462004758565b62004fb384848484620051bd565b62004ff5576040517f08c379a000000000000000000000000000000000000000000000000000000000815260040162004fec9062007410565b60405180910390fd5b50505050565b60008073ffffffffffffffffffffffffffffffffffffffff166200501f8362004c38565b73ffffffffffffffffffffffffffffffffffffffff1614159050919050565b6060600880546200504f9062006399565b80601f01602080910402602001604051908101604052809291908181526020018280546200507d9062006399565b8015620050ce5780601f10620050a257610100808354040283529160200191620050ce565b820191906000526020600020905b815481529060010190602001808311620050b057829003601f168201915b5050505050905090565b606060006001620050e98462005355565b01905060008167ffffffffffffffff8111156200510b576200510a62005895565b5b6040519080825280601f01601f1916602001820160405280156200513e5781602001600182028036833780820191505090505b509050600082602001820190505b600115620051a6578080600190039150507f3031323334353637383961626364656600000000000000000000000000000000600a86061a8153600a8581620051995762005198620060c4565b5b049450600085036200514c575b819350505050919050565b50505050565b50505050565b6000620051e08473ffffffffffffffffffffffffffffffffffffffff16620054c1565b1562005348578373ffffffffffffffffffffffffffffffffffffffff1663150b7a026200520c620045f8565b8786866040518563ffffffff1660e01b815260040162005230949392919062007484565b6020604051808303816000875af19250505080156200526f57506040513d601f19601f820116820180604052508101906200526c9190620074ef565b60015b620052f7573d8060008114620052a2576040519150601f19603f3d011682016040523d82523d6000602084013e620052a7565b606091505b506000815103620052ef576040517f08c379a0000000000000000000000000000000000000000000000000000000008152600401620052e69062007410565b60405180910390fd5b805181602001fd5b63150b7a0260e01b7bffffffffffffffffffffffffffffffffffffffffffffffffffffffff1916817bffffffffffffffffffffffffffffffffffffffffffffffffffffffff1916149150506200534d565b600190505b949350505050565b600080600090507a184f03e93ff9f4daa797ed6e38ed64bf6a1f0100000000000000008310620053b7577a184f03e93ff9f4daa797ed6e38ed64bf6a1f0100000000000000008381620053ad57620053ac620060c4565b5b0492506040810190505b6d04ee2d6d415b85acef81000000008310620053f8576d04ee2d6d415b85acef81000000008381620053ee57620053ed620060c4565b5b0492506020810190505b662386f26fc1000083106200542b57662386f26fc100008381620054215762005420620060c4565b5b0492506010810190505b6305f5e100831062005458576305f5e10083816200544e576200544d620060c4565b5b0492506008810190505b612710831062005481576127108381620054775762005476620060c4565b5b0492506004810190505b60648310620054a857606483816200549e576200549d620060c4565b5b0492506002810190505b600a8310620054b8576001810190505b80915050919050565b6000808273ffffffffffffffffffffffffffffffffffffffff163b119050919050565b6102bf806200752283390190565b6000604051905090565b600080fd5b600080fd5b6000819050919050565b6200551b8162005506565b81146200552757600080fd5b50565b6000813590506200553b8162005510565b92915050565b6000602082840312156200555a5762005559620054fc565b5b60006200556a848285016200552a565b91505092915050565b6200557e8162005506565b82525050565b60006020820190506200559b600083018462005573565b92915050565b60007fffffffff0000000000000000000000000000000000000000000000000000000082169050919050565b620055d881620055a1565b8114620055e457600080fd5b50565b600081359050620055f881620055cd565b92915050565b600060208284031215620056175762005616620054fc565b5b60006200562784828501620055e7565b91505092915050565b60008115159050919050565b620056478162005630565b82525050565b60006020820190506200566460008301846200563c565b92915050565b600073ffffffffffffffffffffffffffffffffffffffff82169050919050565b600062005697826200566a565b9050919050565b620056a9816200568a565b8114620056b557600080fd5b50565b600081359050620056c9816200569e565b92915050565b600060208284031215620056e857620056e7620054fc565b5b6000620056f884828501620056b8565b91505092915050565b600081519050919050565b600082825260208201905092915050565b60005b838110156200573d57808201518184015260208101905062005720565b60008484015250505050565b6000601f19601f8301169050919050565b6000620057678262005701565b6200577381856200570c565b9350620057858185602086016200571d565b620057908162005749565b840191505092915050565b60006020820190508181036000830152620057b781846200575a565b905092915050565b620057ca816200568a565b82525050565b6000602082019050620057e76000830184620057bf565b92915050565b60008060408385031215620058075762005806620054fc565b5b60006200581785828601620056b8565b92505060206200582a858286016200552a565b9150509250929050565b60008060006060848603121562005850576200584f620054fc565b5b60006200586086828701620056b8565b93505060206200587386828701620056b8565b925050604062005886868287016200552a565b9150509250925092565b600080fd5b7f4e487b7100000000000000000000000000000000000000000000000000000000600052604160045260246000fd5b620058cf8262005749565b810181811067ffffffffffffffff82111715620058f157620058f062005895565b5b80604052505050565b600062005906620054f2565b9050620059148282620058c4565b919050565b600067ffffffffffffffff82111562005937576200593662005895565b5b602082029050602081019050919050565b600080fd5b6000620059646200595e8462005919565b620058fa565b905080838252602082019050602084028301858111156200598a576200598962005948565b5b835b81811015620059b75780620059a28882620056b8565b8452602084019350506020810190506200598c565b5050509392505050565b600082601f830112620059d957620059d862005890565b5b8135620059eb8482602086016200594d565b91505092915050565b60006020828403121562005a0d5762005a0c620054fc565b5b600082013567ffffffffffffffff81111562005a2e5762005a2d62005501565b5b62005a3c84828501620059c1565b91505092915050565b600080fd5b600067ffffffffffffffff82111562005a685762005a6762005895565b5b62005a738262005749565b9050602081019050919050565b82818337600083830152505050565b600062005aa662005aa08462005a4a565b620058fa565b90508281526020810184848401111562005ac55762005ac462005a45565b5b62005ad284828562005a80565b509392505050565b600082601f83011262005af25762005af162005890565b5b813562005b0484826020860162005a8f565b91505092915050565b60006020828403121562005b265762005b25620054fc565b5b600082013567ffffffffffffffff81111562005b475762005b4662005501565b5b62005b558482850162005ada565b91505092915050565b60008060006060848603121562005b7a5762005b79620054fc565b5b600062005b8a868287016200552a565b935050602062005b9d868287016200552a565b925050604062005bb0868287016200552a565b9150509250925092565b600062005bc7826200566a565b9050919050565b62005bd98162005bba565b811462005be557600080fd5b50565b60008135905062005bf98162005bce565b92915050565b60006020828403121562005c185762005c17620054fc565b5b600062005c288482850162005be8565b91505092915050565b62005c3c8162005630565b811462005c4857600080fd5b50565b60008135905062005c5c8162005c31565b92915050565b6000806040838503121562005c7c5762005c7b620054fc565b5b600062005c8c85828601620056b8565b925050602062005c9f8582860162005c4b565b9150509250929050565b600067ffffffffffffffff82111562005cc75762005cc662005895565b5b62005cd28262005749565b9050602081019050919050565b600062005cf662005cf08462005ca9565b620058fa565b90508281526020810184848401111562005d155762005d1462005a45565b5b62005d2284828562005a80565b509392505050565b600082601f83011262005d425762005d4162005890565b5b813562005d5484826020860162005cdf565b91505092915050565b6000806000806080858703121562005d7a5762005d79620054fc565b5b600062005d8a87828801620056b8565b945050602062005d9d87828801620056b8565b935050604062005db0878288016200552a565b925050606085013567ffffffffffffffff81111562005dd45762005dd362005501565b5b62005de28782880162005d2a565b91505092959194509250565b600060408201905062005e056000830185620057bf565b62005e14602083018462005573565b9392505050565b6000806040838503121562005e355762005e34620054fc565b5b600062005e4585828601620056b8565b925050602062005e5885828601620056b8565b9150509250929050565b7f737461747573206973206572726f720000000000000000000000000000000000600082015250565b600062005e9a600f836200570c565b915062005ea78262005e62565b602082019050919050565b6000602082019050818103600083015262005ecd8162005e8b565b9050919050565b7f796f7520616c7265616479206861766520464944000000000000000000000000600082015250565b600062005f0c6014836200570c565b915062005f198262005ed4565b602082019050919050565b6000602082019050818103600083015262005f3f8162005efd565b9050919050565b60008151905062005f578162005510565b92915050565b60006020828403121562005f765762005f75620054fc565b5b600062005f868482850162005f46565b91505092915050565b7f796f7520686176656e27742070617373706f7274000000000000000000000000600082015250565b600062005fc76014836200570c565b915062005fd48262005f8f565b602082019050919050565b6000602082019050818103600083015262005ffa8162005fb8565b9050919050565b60008151905062006012816200569e565b92915050565b600060208284031215620060315762006030620054fc565b5b6000620060418482850162006001565b91505092915050565b7f4e487b7100000000000000000000000000000000000000000000000000000000600052601160045260246000fd5b6000620060868262005506565b9150620060938362005506565b9250828202620060a38162005506565b91508282048414831517620060bd57620060bc6200604a565b5b5092915050565b7f4e487b7100000000000000000000000000000000000000000000000000000000600052601260045260246000fd5b6000620061008262005506565b91506200610d8362005506565b92508262006120576200611f620060c4565b5b828204905092915050565b6000819050919050565b6000819050919050565b6000620061606200615a62006154846200612b565b62006135565b62005506565b9050919050565b62006172816200613f565b82525050565b60006060820190506200618f600083018662006167565b6200619e6020830185620057bf565b620061ad604083018462005573565b949350505050565b7f70726f7669646520746865206572726f72206e756d626572206f6e2045544800600082015250565b6000620061ed601f836200570c565b9150620061fa82620061b5565b602082019050919050565b600060208201905081810360008301526200622081620061de565b9050919050565b600081519050620062388162005c31565b92915050565b600060208284031215620062575762006256620054fc565b5b6000620062678482850162006227565b91505092915050565b6000819050919050565b60006200629b620062956200628f8462006270565b62006135565b62005506565b9050919050565b620062ad816200627a565b82525050565b6000606082019050620062ca6000830186620057bf565b620062d9602083018562005573565b620062e86040830184620062a2565b949350505050565b6000604082019050620063076000830185620057bf565b620063166020830184620057bf565b9392505050565b60006200632a8262005506565b91507fffffffffffffffffffffffffffffffffffffffffffffffffffffffffffffffff82036200635f576200635e6200604a565b5b600182019050919050565b7f4e487b7100000000000000000000000000000000000000000000000000000000600052602260045260246000fd5b60006002820490506001821680620063b257607f821691505b602082108103620063c857620063c76200636a565b5b50919050565b7f4552433732313a20617070726f76616c20746f2063757272656e74206f776e6560008201527f7200000000000000000000000000000000000000000000000000000000000000602082015250565b60006200642c6021836200570c565b91506200643982620063ce565b604082019050919050565b600060208201905081810360008301526200645f816200641d565b9050919050565b7f4552433732313a20617070726f76652063616c6c6572206973206e6f7420746f60008201527f6b656e206f776e6572206f7220617070726f76656420666f7220616c6c000000602082015250565b6000620064c4603d836200570c565b9150620064d18262006466565b604082019050919050565b60006020820190508181036000830152620064f781620064b5565b9050919050565b7f74686520464944206e6f7420746f207472616e73666572206f74686572730000600082015250565b600062006536601e836200570c565b91506200654382620064fe565b602082019050919050565b60006020820190508181036000830152620065698162006527565b9050919050565b7f4552433732313a2063616c6c6572206973206e6f7420746f6b656e206f776e6560008201527f72206e6f7220617070726f766564000000000000000000000000000000000000602082015250565b6000620065ce602e836200570c565b9150620065db8262006570565b604082019050919050565b600060208201905081810360008301526200660181620065bf565b9050919050565b7f4e487b7100000000000000000000000000000000000000000000000000000000600052603260045260246000fd5b7f46697265536f756c3a20696e76616c69642073657474696e6700000000000000600082015250565b60006200666f6019836200570c565b91506200667c8262006637565b602082019050919050565b60006020820190508181036000830152620066a28162006660565b9050919050565b60008190508160005260206000209050919050565b60006020601f8301049050919050565b600082821b905092915050565b6000600883026200670d7fffffffffffffffffffffffffffffffffffffffffffffffffffffffffffffffff82620066ce565b620067198683620066ce565b95508019841693508086168417925050509392505050565b6000620067526200674c620067468462005506565b62006135565b62005506565b9050919050565b6000819050919050565b6200676e8362006731565b620067866200677d8262006759565b848454620066db565b825550505050565b600090565b6200679d6200678e565b620067aa81848462006763565b505050565b5b81811015620067d257620067c660008262006793565b600181019050620067b0565b5050565b601f8211156200682157620067eb81620066a9565b620067f684620066be565b8101602085101562006806578190505b6200681e6200681585620066be565b830182620067af565b50505b505050565b600082821c905092915050565b6000620068466000198460080262006826565b1980831691505092915050565b600062006861838362006833565b9150826002028217905092915050565b6200687c8262005701565b67ffffffffffffffff81111562006898576200689762005895565b5b620068a4825462006399565b620068b1828285620067d6565b600060209050601f831160018114620068e95760008415620068d4578287015190505b620068e0858262006853565b86555062006950565b601f198416620068f986620066a9565b60005b828110156200692357848901518255600182019150602085019450602081019050620068fc565b868310156200694357848901516200693f601f89168262006833565b8355505b6001600288020188555050505b505050505050565b7f4552433732313a20696e76616c696420746f6b656e2049440000000000000000600082015250565b6000620069906018836200570c565b91506200699d8262006958565b602082019050919050565b60006020820190508181036000830152620069c38162006981565b9050919050565b6000620069d78262005506565b9150620069e48362005506565b9250828201905080821115620069ff57620069fe6200604a565b5b92915050565b7f4552433732313a2061646472657373207a65726f206973206e6f74206120766160008201527f6c6964206f776e65720000000000000000000000000000000000000000000000602082015250565b600062006a636029836200570c565b915062006a708262006a05565b604082019050919050565b6000602082019050818103600083015262006a968162006a54565b9050919050565b7f6661696c2073657474696e670000000000000000000000000000000000000000600082015250565b600062006ad5600c836200570c565b915062006ae28262006a9d565b602082019050919050565b6000602082019050818103600083015262006b088162006ac6565b9050919050565b600062006b2662006b208462005a4a565b620058fa565b90508281526020810184848401111562006b455762006b4462005a45565b5b62006b528482856200571d565b509392505050565b600082601f83011262006b725762006b7162005890565b5b815162006b8484826020860162006b0f565b91505092915050565b600080600080600060a0868803121562006bac5762006bab620054fc565b5b600062006bbc8882890162005f46565b955050602062006bcf8882890162006001565b945050604086015167ffffffffffffffff81111562006bf35762006bf262005501565b5b62006c018882890162006b5a565b935050606086015167ffffffffffffffff81111562006c255762006c2462005501565b5b62006c338882890162006b5a565b925050608062006c468882890162005f46565b9150509295509295909350565b7f61646472657373206973206572726f7200000000000000000000000000000000600082015250565b600062006c8b6010836200570c565b915062006c988262006c53565b602082019050919050565b6000602082019050818103600083015262006cbe8162006c7c565b9050919050565b7f4552433732314d657461646174613a2055524920717565727920666f72206e6f60008201527f6e6578697374656e7420746f6b656e0000000000000000000000000000000000602082015250565b600062006d23602f836200570c565b915062006d308262006cc5565b604082019050919050565b6000602082019050818103600083015262006d568162006d14565b9050919050565b600081905092915050565b600062006d758262005701565b62006d81818562006d5d565b935062006d938185602086016200571d565b80840191505092915050565b6000815462006dae8162006399565b62006dba818662006d5d565b9450600182166000811462006dd8576001811462006dee5762006e25565b60ff198316865281151582028601935062006e25565b62006df985620066a9565b60005b8381101562006e1d5781548189015260018201915060208101905062006dfc565b838801955050505b50505092915050565b600062006e3c828662006d68565b915062006e4a828562006d68565b915062006e58828462006d9f565b9150819050949350505050565b7f4f776e61626c653a206e6577206f776e657220697320746865207a65726f206160008201527f6464726573730000000000000000000000000000000000000000000000000000602082015250565b600062006ec36026836200570c565b915062006ed08262006e65565b604082019050919050565b6000602082019050818103600083015262006ef68162006eb4565b9050919050565b600060608201905062006f146000830186620057bf565b62006f236020830185620057bf565b62006f32604083018462005573565b949350505050565b600081519050919050565b600081905092915050565b600062006f5d8262006f3a565b62006f69818562006f45565b935062006f7b8185602086016200571d565b80840191505092915050565b600062006f95828462006f50565b915081905092915050565b7f5472616e7366657248656c7065723a205452414e534645525f46524f4d5f464160008201527f494c454400000000000000000000000000000000000000000000000000000000602082015250565b600062006ffe6024836200570c565b91506200700b8262006fa0565b604082019050919050565b60006020820190508181036000830152620070318162006fef565b9050919050565b7f4552433732313a206d696e7420746f20746865207a65726f2061646472657373600082015250565b6000620070706020836200570c565b91506200707d8262007038565b602082019050919050565b60006020820190508181036000830152620070a38162007061565b9050919050565b7f4552433732313a20746f6b656e20616c7265616479206d696e74656400000000600082015250565b6000620070e2601c836200570c565b9150620070ef82620070aa565b602082019050919050565b600060208201905081810360008301526200711581620070d3565b9050919050565b7f4f776e61626c653a2063616c6c6572206973206e6f7420746865206f776e6572600082015250565b6000620071546020836200570c565b915062007161826200711c565b602082019050919050565b60006020820190508181036000830152620071878162007145565b9050919050565b7f4552433732313a207472616e736665722066726f6d20696e636f72726563742060008201527f6f776e6572000000000000000000000000000000000000000000000000000000602082015250565b6000620071ec6025836200570c565b9150620071f9826200718e565b604082019050919050565b600060208201905081810360008301526200721f81620071dd565b9050919050565b7f4552433732313a207472616e7366657220746f20746865207a65726f2061646460008201527f7265737300000000000000000000000000000000000000000000000000000000602082015250565b6000620072846024836200570c565b9150620072918262007226565b604082019050919050565b60006020820190508181036000830152620072b78162007275565b9050919050565b6000620072cb8262005506565b9150620072d88362005506565b9250828203905081811115620072f357620072f26200604a565b5b92915050565b7f4e487b7100000000000000000000000000000000000000000000000000000000600052603160045260246000fd5b7f4552433732313a20617070726f766520746f2063616c6c657200000000000000600082015250565b6000620073606019836200570c565b91506200736d8262007328565b602082019050919050565b60006020820190508181036000830152620073938162007351565b9050919050565b7f4552433732313a207472616e7366657220746f206e6f6e20455243373231526560008201527f63656976657220696d706c656d656e7465720000000000000000000000000000602082015250565b6000620073f86032836200570c565b915062007405826200739a565b604082019050919050565b600060208201905081810360008301526200742b81620073e9565b9050919050565b600082825260208201905092915050565b6000620074508262006f3a565b6200745c818562007432565b93506200746e8185602086016200571d565b620074798162005749565b840191505092915050565b60006080820190506200749b6000830187620057bf565b620074aa6020830186620057bf565b620074b9604083018562005573565b8181036060830152620074cd818462007443565b905095945050505050565b600081519050620074e981620055cd565b92915050565b600060208284031215620075085762007507620054fc565b5b60006200751884828501620074d8565b9150509291505056fe608060405234801561001057600080fd5b506040516102bf3803806102bf8339818101604052810190610032919061011d565b816000806101000a81548173ffffffffffffffffffffffffffffffffffffffff021916908373ffffffffffffffffffffffffffffffffffffffff16021790555080600160006101000a81548173ffffffffffffffffffffffffffffffffffffffff021916908373ffffffffffffffffffffffffffffffffffffffff160217905550505061015d565b600080fd5b600073ffffffffffffffffffffffffffffffffffffffff82169050919050565b60006100ea826100bf565b9050919050565b6100fa816100df565b811461010557600080fd5b50565b600081519050610117816100f1565b92915050565b60008060408385031215610134576101336100ba565b5b600061014285828601610108565b925050602061015385828601610108565b9150509250929050565b6101538061016c6000396000f3fe608060405234801561001057600080fd5b50600436106100365760003560e01c80638da5cb5b1461003b578063efc81a8c14610059575b600080fd5b610043610077565b6040516100509190610102565b60405180910390f35b61006161009b565b60405161006e9190610102565b60405180910390f35b60008054906101000a900473ffffffffffffffffffffffffffffffffffffffff1681565b600160009054906101000a900473ffffffffffffffffffffffffffffffffffffffff1681565b600073ffffffffffffffffffffffffffffffffffffffff82169050919050565b60006100ec826100c1565b9050919050565b6100fc816100e1565b82525050565b600060208201905061011760008301846100f3565b9291505056fea2646970667358221220f897e2253d693759ca50dd9e2b9395f1652c23228c0ed410cc01ee94c2d2433564736f6c63430008120033a26469706673582212209eea081e57cd32e8add8918966a4d2a0d63ba0b0b3887dc3719e287330f30ce464736f6c6343000812003368747470733a2f2f62616679626569646675356b6f747372327461703732706736757569707637796862343770636e7a6964637871737a67357a3276726577736463652e697066732e6e667473746f726167652e6c696e6b2f",
			"opcodes": "PUSH1 0x80 PUSH1 0x40 MSTORE PUSH1 0x40 MLOAD DUP1 PUSH1 0x40 ADD PUSH1 0x40 MSTORE DUP1 PUSH1 0x5 DUP2 MSTORE PUSH1 0x20 ADD PUSH32 0x2E6A736F6E000000000000000000000000000000000000000000000000000000 DUP2 MSTORE POP PUSH1 0x9 SWAP1 DUP2 PUSH3 0x4A SWAP2 SWAP1 PUSH3 0x5B7 JUMP JUMPDEST POP CALLVALUE DUP1 ISZERO PUSH3 0x58 JUMPI PUSH1 0x0 DUP1 REVERT JUMPDEST POP PUSH1 0x40 MLOAD PUSH3 0x7FE3 CODESIZE SUB DUP1 PUSH3 0x7FE3 DUP4 CODECOPY DUP2 DUP2 ADD PUSH1 0x40 MSTORE DUP2 ADD SWAP1 PUSH3 0x7E SWAP2 SWAP1 PUSH3 0x708 JUMP JUMPDEST PUSH1 0x40 MLOAD DUP1 PUSH1 0x40 ADD PUSH1 0x40 MSTORE DUP1 PUSH1 0x8 DUP2 MSTORE PUSH1 0x20 ADD PUSH32 0x46697265536F756C000000000000000000000000000000000000000000000000 DUP2 MSTORE POP PUSH1 0x40 MLOAD DUP1 PUSH1 0x40 ADD PUSH1 0x40 MSTORE DUP1 PUSH1 0x8 DUP2 MSTORE PUSH1 0x20 ADD PUSH32 0x46697265536F756C000000000000000000000000000000000000000000000000 DUP2 MSTORE POP DUP2 PUSH1 0x0 SWAP1 DUP2 PUSH3 0xFB SWAP2 SWAP1 PUSH3 0x5B7 JUMP JUMPDEST POP DUP1 PUSH1 0x1 SWAP1 DUP2 PUSH3 0x10D SWAP2 SWAP1 PUSH3 0x5B7 JUMP JUMPDEST POP POP POP PUSH3 0x130 PUSH3 0x124 PUSH3 0x26F PUSH1 0x20 SHL PUSH1 0x20 SHR JUMP JUMPDEST PUSH3 0x277 PUSH1 0x20 SHL PUSH1 0x20 SHR JUMP JUMPDEST DUP2 PUSH1 0x16 PUSH1 0x0 PUSH2 0x100 EXP DUP2 SLOAD DUP2 PUSH20 0xFFFFFFFFFFFFFFFFFFFFFFFFFFFFFFFFFFFFFFFF MUL NOT AND SWAP1 DUP4 PUSH20 0xFFFFFFFFFFFFFFFFFFFFFFFFFFFFFFFFFFFFFFFF AND MUL OR SWAP1 SSTORE POP DUP3 PUSH1 0xA PUSH1 0x0 PUSH2 0x100 EXP DUP2 SLOAD DUP2 PUSH20 0xFFFFFFFFFFFFFFFFFFFFFFFFFFFFFFFFFFFFFFFF MUL NOT AND SWAP1 DUP4 PUSH20 0xFFFFFFFFFFFFFFFFFFFFFFFFFFFFFFFFFFFFFFFF AND MUL OR SWAP1 SSTORE POP DUP1 PUSH1 0x18 PUSH1 0x0 PUSH2 0x100 EXP DUP2 SLOAD DUP2 PUSH20 0xFFFFFFFFFFFFFFFFFFFFFFFFFFFFFFFFFFFFFFFF MUL NOT AND SWAP1 DUP4 PUSH20 0xFFFFFFFFFFFFFFFFFFFFFFFFFFFFFFFFFFFFFFFF AND MUL OR SWAP1 SSTORE POP PUSH1 0x64 PUSH1 0x10 DUP2 SWAP1 SSTORE POP PUSH1 0x50 PUSH1 0xC DUP2 SWAP1 SSTORE POP PUSH1 0xE PUSH1 0xD DUP2 SWAP1 SSTORE POP PUSH1 0x4 PUSH1 0xE DUP2 SWAP1 SSTORE POP PUSH1 0x2 PUSH1 0xF DUP2 SWAP1 SSTORE POP PUSH1 0xA PUSH1 0x11 DUP2 SWAP1 SSTORE POP PUSH1 0x46 PUSH1 0x12 DUP2 SWAP1 SSTORE POP PUSH1 0x14 PUSH1 0x13 DUP2 SWAP1 SSTORE POP PUSH1 0xA PUSH1 0x14 DUP2 SWAP1 SSTORE POP PUSH1 0x40 MLOAD DUP1 PUSH1 0x80 ADD PUSH1 0x40 MSTORE DUP1 PUSH1 0x59 DUP2 MSTORE PUSH1 0x20 ADD PUSH3 0x7F8A PUSH1 0x59 SWAP2 CODECOPY PUSH1 0x8 SWAP1 DUP2 PUSH3 0x265 SWAP2 SWAP1 PUSH3 0x5B7 JUMP JUMPDEST POP POP POP POP PUSH3 0x764 JUMP JUMPDEST PUSH1 0x0 CALLER SWAP1 POP SWAP1 JUMP JUMPDEST PUSH1 0x0 PUSH1 0x6 PUSH1 0x0 SWAP1 SLOAD SWAP1 PUSH2 0x100 EXP SWAP1 DIV PUSH20 0xFFFFFFFFFFFFFFFFFFFFFFFFFFFFFFFFFFFFFFFF AND SWAP1 POP DUP2 PUSH1 0x6 PUSH1 0x0 PUSH2 0x100 EXP DUP2 SLOAD DUP2 PUSH20 0xFFFFFFFFFFFFFFFFFFFFFFFFFFFFFFFFFFFFFFFF MUL NOT AND SWAP1 DUP4 PUSH20 0xFFFFFFFFFFFFFFFFFFFFFFFFFFFFFFFFFFFFFFFF AND MUL OR SWAP1 SSTORE POP DUP2 PUSH20 0xFFFFFFFFFFFFFFFFFFFFFFFFFFFFFFFFFFFFFFFF AND DUP2 PUSH20 0xFFFFFFFFFFFFFFFFFFFFFFFFFFFFFFFFFFFFFFFF AND PUSH32 0x8BE0079C531659141344CD1FD0A4F28419497F9722A3DAAFE3B4186F6B6457E0 PUSH1 0x40 MLOAD PUSH1 0x40 MLOAD DUP1 SWAP2 SUB SWAP1 LOG3 POP POP JUMP JUMPDEST PUSH1 0x0 DUP2 MLOAD SWAP1 POP SWAP2 SWAP1 POP JUMP JUMPDEST PUSH32 0x4E487B7100000000000000000000000000000000000000000000000000000000 PUSH1 0x0 MSTORE PUSH1 0x41 PUSH1 0x4 MSTORE PUSH1 0x24 PUSH1 0x0 REVERT JUMPDEST PUSH32 0x4E487B7100000000000000000000000000000000000000000000000000000000 PUSH1 0x0 MSTORE PUSH1 0x22 PUSH1 0x4 MSTORE PUSH1 0x24 PUSH1 0x0 REVERT JUMPDEST PUSH1 0x0 PUSH1 0x2 DUP3 DIV SWAP1 POP PUSH1 0x1 DUP3 AND DUP1 PUSH3 0x3BF JUMPI PUSH1 0x7F DUP3 AND SWAP2 POP JUMPDEST PUSH1 0x20 DUP3 LT DUP2 SUB PUSH3 0x3D5 JUMPI PUSH3 0x3D4 PUSH3 0x377 JUMP JUMPDEST JUMPDEST POP SWAP2 SWAP1 POP JUMP JUMPDEST PUSH1 0x0 DUP2 SWAP1 POP DUP2 PUSH1 0x0 MSTORE PUSH1 0x20 PUSH1 0x0 KECCAK256 SWAP1 POP SWAP2 SWAP1 POP JUMP JUMPDEST PUSH1 0x0 PUSH1 0x20 PUSH1 0x1F DUP4 ADD DIV SWAP1 POP SWAP2 SWAP1 POP JUMP JUMPDEST PUSH1 0x0 DUP3 DUP3 SHL SWAP1 POP SWAP3 SWAP2 POP POP JUMP JUMPDEST PUSH1 0x0 PUSH1 0x8 DUP4 MUL PUSH3 0x43F PUSH32 0xFFFFFFFFFFFFFFFFFFFFFFFFFFFFFFFFFFFFFFFFFFFFFFFFFFFFFFFFFFFFFFFF DUP3 PUSH3 0x400 JUMP JUMPDEST PUSH3 0x44B DUP7 DUP4 PUSH3 0x400 JUMP JUMPDEST SWAP6 POP DUP1 NOT DUP5 AND SWAP4 POP DUP1 DUP7 AND DUP5 OR SWAP3 POP POP POP SWAP4 SWAP3 POP POP POP JUMP JUMPDEST PUSH1 0x0 DUP2 SWAP1 POP SWAP2 SWAP1 POP JUMP JUMPDEST PUSH1 0x0 DUP2 SWAP1 POP SWAP2 SWAP1 POP JUMP JUMPDEST PUSH1 0x0 PUSH3 0x498 PUSH3 0x492 PUSH3 0x48C DUP5 PUSH3 0x463 JUMP JUMPDEST PUSH3 0x46D JUMP JUMPDEST PUSH3 0x463 JUMP JUMPDEST SWAP1 POP SWAP2 SWAP1 POP JUMP JUMPDEST PUSH1 0x0 DUP2 SWAP1 POP SWAP2 SWAP1 POP JUMP JUMPDEST PUSH3 0x4B4 DUP4 PUSH3 0x477 JUMP JUMPDEST PUSH3 0x4CC PUSH3 0x4C3 DUP3 PUSH3 0x49F JUMP JUMPDEST DUP5 DUP5 SLOAD PUSH3 0x40D JUMP JUMPDEST DUP3 SSTORE POP POP POP POP JUMP JUMPDEST PUSH1 0x0 SWAP1 JUMP JUMPDEST PUSH3 0x4E3 PUSH3 0x4D4 JUMP JUMPDEST PUSH3 0x4F0 DUP2 DUP5 DUP5 PUSH3 0x4A9 JUMP JUMPDEST POP POP POP JUMP JUMPDEST JUMPDEST DUP2 DUP2 LT ISZERO PUSH3 0x518 JUMPI PUSH3 0x50C PUSH1 0x0 DUP3 PUSH3 0x4D9 JUMP JUMPDEST PUSH1 0x1 DUP2 ADD SWAP1 POP PUSH3 0x4F6 JUMP JUMPDEST POP POP JUMP JUMPDEST PUSH1 0x1F DUP3 GT ISZERO PUSH3 0x567 JUMPI PUSH3 0x531 DUP2 PUSH3 0x3DB JUMP JUMPDEST PUSH3 0x53C DUP5 PUSH3 0x3F0 JUMP JUMPDEST DUP2 ADD PUSH1 0x20 DUP6 LT ISZERO PUSH3 0x54C JUMPI DUP2 SWAP1 POP JUMPDEST PUSH3 0x564 PUSH3 0x55B DUP6 PUSH3 0x3F0 JUMP JUMPDEST DUP4 ADD DUP3 PUSH3 0x4F5 JUMP JUMPDEST POP POP JUMPDEST POP POP POP JUMP JUMPDEST PUSH1 0x0 DUP3 DUP3 SHR SWAP1 POP SWAP3 SWAP2 POP POP JUMP JUMPDEST PUSH1 0x0 PUSH3 0x58C PUSH1 0x0 NOT DUP5 PUSH1 0x8 MUL PUSH3 0x56C JUMP JUMPDEST NOT DUP1 DUP4 AND SWAP2 POP POP SWAP3 SWAP2 POP POP JUMP JUMPDEST PUSH1 0x0 PUSH3 0x5A7 DUP4 DUP4 PUSH3 0x579 JUMP JUMPDEST SWAP2 POP DUP3 PUSH1 0x2 MUL DUP3 OR SWAP1 POP SWAP3 SWAP2 POP POP JUMP JUMPDEST PUSH3 0x5C2 DUP3 PUSH3 0x33D JUMP JUMPDEST PUSH8 0xFFFFFFFFFFFFFFFF DUP2 GT ISZERO PUSH3 0x5DE JUMPI PUSH3 0x5DD PUSH3 0x348 JUMP JUMPDEST JUMPDEST PUSH3 0x5EA DUP3 SLOAD PUSH3 0x3A6 JUMP JUMPDEST PUSH3 0x5F7 DUP3 DUP3 DUP6 PUSH3 0x51C JUMP JUMPDEST PUSH1 0x0 PUSH1 0x20 SWAP1 POP PUSH1 0x1F DUP4 GT PUSH1 0x1 DUP2 EQ PUSH3 0x62F JUMPI PUSH1 0x0 DUP5 ISZERO PUSH3 0x61A JUMPI DUP3 DUP8 ADD MLOAD SWAP1 POP JUMPDEST PUSH3 0x626 DUP6 DUP3 PUSH3 0x599 JUMP JUMPDEST DUP7 SSTORE POP PUSH3 0x696 JUMP JUMPDEST PUSH1 0x1F NOT DUP5 AND PUSH3 0x63F DUP7 PUSH3 0x3DB JUMP JUMPDEST PUSH1 0x0 JUMPDEST DUP3 DUP2 LT ISZERO PUSH3 0x669 JUMPI DUP5 DUP10 ADD MLOAD DUP3 SSTORE PUSH1 0x1 DUP3 ADD SWAP2 POP PUSH1 0x20 DUP6 ADD SWAP5 POP PUSH1 0x20 DUP2 ADD SWAP1 POP PUSH3 0x642 JUMP JUMPDEST DUP7 DUP4 LT ISZERO PUSH3 0x689 JUMPI DUP5 DUP10 ADD MLOAD PUSH3 0x685 PUSH1 0x1F DUP10 AND DUP3 PUSH3 0x579 JUMP JUMPDEST DUP4 SSTORE POP JUMPDEST PUSH1 0x1 PUSH1 0x2 DUP9 MUL ADD DUP9 SSTORE POP POP POP JUMPDEST POP POP POP POP POP POP JUMP JUMPDEST PUSH1 0x0 DUP1 REVERT JUMPDEST PUSH1 0x0 PUSH20 0xFFFFFFFFFFFFFFFFFFFFFFFFFFFFFFFFFFFFFFFF DUP3 AND SWAP1 POP SWAP2 SWAP1 POP JUMP JUMPDEST PUSH1 0x0 PUSH3 0x6D0 DUP3 PUSH3 0x6A3 JUMP JUMPDEST SWAP1 POP SWAP2 SWAP1 POP JUMP JUMPDEST PUSH3 0x6E2 DUP2 PUSH3 0x6C3 JUMP JUMPDEST DUP2 EQ PUSH3 0x6EE JUMPI PUSH1 0x0 DUP1 REVERT JUMPDEST POP JUMP JUMPDEST PUSH1 0x0 DUP2 MLOAD SWAP1 POP PUSH3 0x702 DUP2 PUSH3 0x6D7 JUMP JUMPDEST SWAP3 SWAP2 POP POP JUMP JUMPDEST PUSH1 0x0 DUP1 PUSH1 0x0 PUSH1 0x60 DUP5 DUP7 SUB SLT ISZERO PUSH3 0x724 JUMPI PUSH3 0x723 PUSH3 0x69E JUMP JUMPDEST JUMPDEST PUSH1 0x0 PUSH3 0x734 DUP7 DUP3 DUP8 ADD PUSH3 0x6F1 JUMP JUMPDEST SWAP4 POP POP PUSH1 0x20 PUSH3 0x747 DUP7 DUP3 DUP8 ADD PUSH3 0x6F1 JUMP JUMPDEST SWAP3 POP POP PUSH1 0x40 PUSH3 0x75A DUP7 DUP3 DUP8 ADD PUSH3 0x6F1 JUMP JUMPDEST SWAP2 POP POP SWAP3 POP SWAP3 POP SWAP3 JUMP JUMPDEST PUSH2 0x7816 DUP1 PUSH3 0x774 PUSH1 0x0 CODECOPY PUSH1 0x0 RETURN INVALID PUSH1 0x80 PUSH1 0x40 MSTORE PUSH1 0x4 CALLDATASIZE LT PUSH3 0x476 JUMPI PUSH1 0x0 CALLDATALOAD PUSH1 0xE0 SHR DUP1 PUSH4 0x7EBABA90 GT PUSH3 0x253 JUMPI DUP1 PUSH4 0xB8D1452F GT PUSH3 0x13F JUMPI DUP1 PUSH4 0xE15658C7 GT PUSH3 0xBB JUMPI DUP1 PUSH4 0xE985E9C5 GT PUSH3 0x85 JUMPI DUP1 PUSH4 0xE985E9C5 EQ PUSH3 0x11E4 JUMPI DUP1 PUSH4 0xEFDCD974 EQ PUSH3 0x1228 JUMPI DUP1 PUSH4 0xF2FDE38B EQ PUSH3 0x1256 JUMPI DUP1 PUSH4 0xFD4329F4 EQ PUSH3 0x1284 JUMPI DUP1 PUSH4 0xFFB0E20D EQ PUSH3 0x12B2 JUMPI PUSH3 0x476 JUMP JUMPDEST DUP1 PUSH4 0xE15658C7 EQ PUSH3 0x10FC JUMPI DUP1 PUSH4 0xE23767E2 EQ PUSH3 0x1140 JUMPI DUP1 PUSH4 0xE3840BC1 EQ PUSH3 0x1170 JUMPI DUP1 PUSH4 0xE75729F2 EQ PUSH3 0x11A0 JUMPI PUSH3 0x476 JUMP JUMPDEST DUP1 PUSH4 0xC56B7142 GT PUSH3 0x109 JUMPI DUP1 PUSH4 0xC56B7142 EQ PUSH3 0xFE5 JUMPI DUP1 PUSH4 0xC6682862 EQ PUSH3 0x102A JUMPI DUP1 PUSH4 0xC87B56DD EQ PUSH3 0x105A JUMPI DUP1 PUSH4 0xD9D518F3 EQ PUSH3 0x109E JUMPI DUP1 PUSH4 0xDDCA3F43 EQ PUSH3 0x10CC JUMPI PUSH3 0x476 JUMP JUMPDEST DUP1 PUSH4 0xB8D1452F EQ PUSH3 0xF15 JUMPI DUP1 PUSH4 0xBE5F0CC9 EQ PUSH3 0xF43 JUMPI DUP1 PUSH4 0xC0191114 EQ PUSH3 0xF87 JUMPI DUP1 PUSH4 0xC0336629 EQ PUSH3 0xFCB JUMPI PUSH3 0x476 JUMP JUMPDEST DUP1 PUSH4 0x98BAD7E6 GT PUSH3 0x1CF JUMPI DUP1 PUSH4 0xABBB376C GT PUSH3 0x199 JUMPI DUP1 PUSH4 0xABBB376C EQ PUSH3 0xE13 JUMPI DUP1 PUSH4 0xAC949C6F EQ PUSH3 0xE43 JUMPI DUP1 PUSH4 0xB3F00674 EQ PUSH3 0xE87 JUMPI DUP1 PUSH4 0xB83282DA EQ PUSH3 0xEB7 JUMPI DUP1 PUSH4 0xB88D4FDE EQ PUSH3 0xEE7 JUMPI PUSH3 0x476 JUMP JUMPDEST DUP1 PUSH4 0x98BAD7E6 EQ PUSH3 0xD59 JUMPI DUP1 PUSH4 0x9BC8A9E4 EQ PUSH3 0xD73 JUMPI DUP1 PUSH4 0xA22CB465 EQ PUSH3 0xDA1 JUMPI DUP1 PUSH4 0xA269FBE5 EQ PUSH3 0xDCF JUMPI PUSH3 0x476 JUMP JUMPDEST DUP1 PUSH4 0x8AF668D5 GT PUSH3 0x21D JUMPI DUP1 PUSH4 0x8AF668D5 EQ PUSH3 0xC55 JUMPI DUP1 PUSH4 0x8D6EAF94 EQ PUSH3 0xC85 JUMPI DUP1 PUSH4 0x8DA5CB5B EQ PUSH3 0xCB5 JUMPI DUP1 PUSH4 0x91C71988 EQ PUSH3 0xCE5 JUMPI DUP1 PUSH4 0x95D89B41 EQ PUSH3 0xD29 JUMPI PUSH3 0x476 JUMP JUMPDEST DUP1 PUSH4 0x7EBABA90 EQ PUSH3 0xB83 JUMPI DUP1 PUSH4 0x846218D9 EQ PUSH3 0xBB3 JUMPI DUP1 PUSH4 0x84EE66C0 EQ PUSH3 0xBE1 JUMPI DUP1 PUSH4 0x8AF4B86A EQ PUSH3 0xC11 JUMPI PUSH3 0x476 JUMP JUMPDEST DUP1 PUSH4 0x3C344CE1 GT PUSH3 0x373 JUMPI DUP1 PUSH4 0x64F0D7AF GT PUSH3 0x2EF JUMPI DUP1 PUSH4 0x70A08231 GT PUSH3 0x2B9 JUMPI DUP1 PUSH4 0x70A08231 EQ PUSH3 0xA97 JUMPI DUP1 PUSH4 0x715018A6 EQ PUSH3 0xADB JUMPI DUP1 PUSH4 0x763D8C16 EQ PUSH3 0xAF5 JUMPI DUP1 PUSH4 0x775B9C13 EQ PUSH3 0xB25 JUMPI DUP1 PUSH4 0x7B4392CB EQ PUSH3 0xB53 JUMPI PUSH3 0x476 JUMP JUMPDEST DUP1 PUSH4 0x64F0D7AF EQ PUSH3 0x9DB JUMPI DUP1 PUSH4 0x66B5BAF6 EQ PUSH3 0xA0B JUMPI DUP1 PUSH4 0x69FE0E2D EQ PUSH3 0xA39 JUMPI DUP1 PUSH4 0x6C0360EB EQ PUSH3 0xA67 JUMPI PUSH3 0x476 JUMP JUMPDEST DUP1 PUSH4 0x42842E0E GT PUSH3 0x33D JUMPI DUP1 PUSH4 0x42842E0E EQ PUSH3 0x8DB JUMPI DUP1 PUSH4 0x444D57B1 EQ PUSH3 0x909 JUMPI DUP1 PUSH4 0x4F335D0A EQ PUSH3 0x939 JUMPI DUP1 PUSH4 0x55F804B3 EQ PUSH3 0x969 JUMPI DUP1 PUSH4 0x6352211E EQ PUSH3 0x997 JUMPI PUSH3 0x476 JUMP JUMPDEST DUP1 PUSH4 0x3C344CE1 EQ PUSH3 0x807 JUMPI DUP1 PUSH4 0x3D18651E EQ PUSH3 0x84B JUMPI DUP1 PUSH4 0x3D923B9E EQ PUSH3 0x87B JUMPI DUP1 PUSH4 0x3FC8CEF3 EQ PUSH3 0x8AB JUMPI PUSH3 0x476 JUMP JUMPDEST DUP1 PUSH4 0x95EA7B3 GT PUSH3 0x403 JUMPI DUP1 PUSH4 0x23B872DD GT PUSH3 0x3CD JUMPI DUP1 PUSH4 0x23B872DD EQ PUSH3 0x70B JUMPI DUP1 PUSH4 0x2D871B73 EQ PUSH3 0x739 JUMPI DUP1 PUSH4 0x2E082D5C EQ PUSH3 0x767 JUMPI DUP1 PUSH4 0x2FF066BE EQ PUSH3 0x7AB JUMPI DUP1 PUSH4 0x34B999D0 EQ PUSH3 0x7D9 JUMPI PUSH3 0x476 JUMP JUMPDEST DUP1 PUSH4 0x95EA7B3 EQ PUSH3 0x639 JUMPI DUP1 PUSH4 0xB6B9D77 EQ PUSH3 0x667 JUMPI DUP1 PUSH4 0xBFC24F8 EQ PUSH3 0x6AB JUMPI DUP1 PUSH4 0x200D2ED2 EQ PUSH3 0x6DB JUMPI PUSH3 0x476 JUMP JUMPDEST DUP1 PUSH4 0x6DD6060 GT PUSH3 0x445 JUMPI DUP1 PUSH4 0x6DD6060 EQ PUSH3 0x553 JUMPI DUP1 PUSH4 0x6FDDE03 EQ PUSH3 0x581 JUMPI DUP1 PUSH4 0x81812FC EQ PUSH3 0x5B1 JUMPI DUP1 PUSH4 0x88572CC EQ PUSH3 0x5F5 JUMPI PUSH3 0x476 JUMP JUMPDEST DUP1 PUSH4 0x1AF001D EQ PUSH3 0x47B JUMPI DUP1 PUSH4 0x1FFC9A7 EQ PUSH3 0x4BF JUMPI DUP1 PUSH4 0x26FE9F2 EQ PUSH3 0x503 JUMPI DUP1 PUSH4 0x5737AAE EQ PUSH3 0x533 JUMPI JUMPDEST PUSH1 0x0 DUP1 REVERT JUMPDEST CALLVALUE DUP1 ISZERO PUSH3 0x488 JUMPI PUSH1 0x0 DUP1 REVERT JUMPDEST POP PUSH3 0x4A7 PUSH1 0x4 DUP1 CALLDATASIZE SUB DUP2 ADD SWAP1 PUSH3 0x4A1 SWAP2 SWAP1 PUSH3 0x5541 JUMP JUMPDEST PUSH3 0x12E2 JUMP JUMPDEST PUSH1 0x40 MLOAD PUSH3 0x4B6 SWAP2 SWAP1 PUSH3 0x5584 JUMP JUMPDEST PUSH1 0x40 MLOAD DUP1 SWAP2 SUB SWAP1 RETURN JUMPDEST CALLVALUE DUP1 ISZERO PUSH3 0x4CC JUMPI PUSH1 0x0 DUP1 REVERT JUMPDEST POP PUSH3 0x4EB PUSH1 0x4 DUP1 CALLDATASIZE SUB DUP2 ADD SWAP1 PUSH3 0x4E5 SWAP2 SWAP1 PUSH3 0x55FE JUMP JUMPDEST PUSH3 0x1307 JUMP JUMPDEST PUSH1 0x40 MLOAD PUSH3 0x4FA SWAP2 SWAP1 PUSH3 0x564D JUMP JUMPDEST PUSH1 0x40 MLOAD DUP1 SWAP2 SUB SWAP1 RETURN JUMPDEST CALLVALUE DUP1 ISZERO PUSH3 0x510 JUMPI PUSH1 0x0 DUP1 REVERT JUMPDEST POP PUSH3 0x51B PUSH3 0x13ED JUMP JUMPDEST PUSH1 0x40 MLOAD PUSH3 0x52A SWAP2 SWAP1 PUSH3 0x5584 JUMP JUMPDEST PUSH1 0x40 MLOAD DUP1 SWAP2 SUB SWAP1 RETURN JUMPDEST PUSH3 0x551 PUSH1 0x4 DUP1 CALLDATASIZE SUB DUP2 ADD SWAP1 PUSH3 0x54B SWAP2 SWAP1 PUSH3 0x5541 JUMP JUMPDEST PUSH3 0x13FA JUMP JUMPDEST STOP JUMPDEST CALLVALUE DUP1 ISZERO PUSH3 0x560 JUMPI PUSH1 0x0 DUP1 REVERT JUMPDEST POP PUSH3 0x57F PUSH1 0x4 DUP1 CALLDATASIZE SUB DUP2 ADD SWAP1 PUSH3 0x579 SWAP2 SWAP1 PUSH3 0x56CF JUMP JUMPDEST PUSH3 0x2980 JUMP JUMPDEST STOP JUMPDEST CALLVALUE DUP1 ISZERO PUSH3 0x58E JUMPI PUSH1 0x0 DUP1 REVERT JUMPDEST POP PUSH3 0x599 PUSH3 0x29CE JUMP JUMPDEST PUSH1 0x40 MLOAD PUSH3 0x5A8 SWAP2 SWAP1 PUSH3 0x579B JUMP JUMPDEST PUSH1 0x40 MLOAD DUP1 SWAP2 SUB SWAP1 RETURN JUMPDEST CALLVALUE DUP1 ISZERO PUSH3 0x5BE JUMPI PUSH1 0x0 DUP1 REVERT JUMPDEST POP PUSH3 0x5DD PUSH1 0x4 DUP1 CALLDATASIZE SUB DUP2 ADD SWAP1 PUSH3 0x5D7 SWAP2 SWAP1 PUSH3 0x5541 JUMP JUMPDEST PUSH3 0x2A68 JUMP JUMPDEST PUSH1 0x40 MLOAD PUSH3 0x5EC SWAP2 SWAP1 PUSH3 0x57D0 JUMP JUMPDEST PUSH1 0x40 MLOAD DUP1 SWAP2 SUB SWAP1 RETURN JUMPDEST CALLVALUE DUP1 ISZERO PUSH3 0x602 JUMPI PUSH1 0x0 DUP1 REVERT JUMPDEST POP PUSH3 0x621 PUSH1 0x4 DUP1 CALLDATASIZE SUB DUP2 ADD SWAP1 PUSH3 0x61B SWAP2 SWAP1 PUSH3 0x5541 JUMP JUMPDEST PUSH3 0x2AB0 JUMP JUMPDEST PUSH1 0x40 MLOAD PUSH3 0x630 SWAP2 SWAP1 PUSH3 0x57D0 JUMP JUMPDEST PUSH1 0x40 MLOAD DUP1 SWAP2 SUB SWAP1 RETURN JUMPDEST CALLVALUE DUP1 ISZERO PUSH3 0x646 JUMPI PUSH1 0x0 DUP1 REVERT JUMPDEST POP PUSH3 0x665 PUSH1 0x4 DUP1 CALLDATASIZE SUB DUP2 ADD SWAP1 PUSH3 0x65F SWAP2 SWAP1 PUSH3 0x57ED JUMP JUMPDEST PUSH3 0x2AF0 JUMP JUMPDEST STOP JUMPDEST CALLVALUE DUP1 ISZERO PUSH3 0x674 JUMPI PUSH1 0x0 DUP1 REVERT JUMPDEST POP PUSH3 0x693 PUSH1 0x4 DUP1 CALLDATASIZE SUB DUP2 ADD SWAP1 PUSH3 0x68D SWAP2 SWAP1 PUSH3 0x56CF JUMP JUMPDEST PUSH3 0x2C18 JUMP JUMPDEST PUSH1 0x40 MLOAD PUSH3 0x6A2 SWAP2 SWAP1 PUSH3 0x564D JUMP JUMPDEST PUSH1 0x40 MLOAD DUP1 SWAP2 SUB SWAP1 RETURN JUMPDEST CALLVALUE DUP1 ISZERO PUSH3 0x6B8 JUMPI PUSH1 0x0 DUP1 REVERT JUMPDEST POP PUSH3 0x6C3 PUSH3 0x2C38 JUMP JUMPDEST PUSH1 0x40 MLOAD PUSH3 0x6D2 SWAP2 SWAP1 PUSH3 0x57D0 JUMP JUMPDEST PUSH1 0x40 MLOAD DUP1 SWAP2 SUB SWAP1 RETURN JUMPDEST CALLVALUE DUP1 ISZERO PUSH3 0x6E8 JUMPI PUSH1 0x0 DUP1 REVERT JUMPDEST POP PUSH3 0x6F3 PUSH3 0x2C5E JUMP JUMPDEST PUSH1 0x40 MLOAD PUSH3 0x702 SWAP2 SWAP1 PUSH3 0x564D JUMP JUMPDEST PUSH1 0x40 MLOAD DUP1 SWAP2 SUB SWAP1 RETURN JUMPDEST CALLVALUE DUP1 ISZERO PUSH3 0x718 JUMPI PUSH1 0x0 DUP1 REVERT JUMPDEST POP PUSH3 0x737 PUSH1 0x4 DUP1 CALLDATASIZE SUB DUP2 ADD SWAP1 PUSH3 0x731 SWAP2 SWAP1 PUSH3 0x5834 JUMP JUMPDEST PUSH3 0x2C71 JUMP JUMPDEST STOP JUMPDEST CALLVALUE DUP1 ISZERO PUSH3 0x746 JUMPI PUSH1 0x0 DUP1 REVERT JUMPDEST POP PUSH3 0x765 PUSH1 0x4 DUP1 CALLDATASIZE SUB DUP2 ADD SWAP1 PUSH3 0x75F SWAP2 SWAP1 PUSH3 0x59F4 JUMP JUMPDEST PUSH3 0x2D83 JUMP JUMPDEST STOP JUMPDEST CALLVALUE DUP1 ISZERO PUSH3 0x774 JUMPI PUSH1 0x0 DUP1 REVERT JUMPDEST POP PUSH3 0x793 PUSH1 0x4 DUP1 CALLDATASIZE SUB DUP2 ADD SWAP1 PUSH3 0x78D SWAP2 SWAP1 PUSH3 0x57ED JUMP JUMPDEST PUSH3 0x2EF4 JUMP JUMPDEST PUSH1 0x40 MLOAD PUSH3 0x7A2 SWAP2 SWAP1 PUSH3 0x5584 JUMP JUMPDEST PUSH1 0x40 MLOAD DUP1 SWAP2 SUB SWAP1 RETURN JUMPDEST CALLVALUE DUP1 ISZERO PUSH3 0x7B8 JUMPI PUSH1 0x0 DUP1 REVERT JUMPDEST POP PUSH3 0x7D7 PUSH1 0x4 DUP1 CALLDATASIZE SUB DUP2 ADD SWAP1 PUSH3 0x7D1 SWAP2 SWAP1 PUSH3 0x5541 JUMP JUMPDEST PUSH3 0x2F26 JUMP JUMPDEST STOP JUMPDEST CALLVALUE DUP1 ISZERO PUSH3 0x7E6 JUMPI PUSH1 0x0 DUP1 REVERT JUMPDEST POP PUSH3 0x805 PUSH1 0x4 DUP1 CALLDATASIZE SUB DUP2 ADD SWAP1 PUSH3 0x7FF SWAP2 SWAP1 PUSH3 0x56CF JUMP JUMPDEST PUSH3 0x2F3A JUMP JUMPDEST STOP JUMPDEST CALLVALUE DUP1 ISZERO PUSH3 0x814 JUMPI PUSH1 0x0 DUP1 REVERT JUMPDEST POP PUSH3 0x833 PUSH1 0x4 DUP1 CALLDATASIZE SUB DUP2 ADD SWAP1 PUSH3 0x82D SWAP2 SWAP1 PUSH3 0x56CF JUMP JUMPDEST PUSH3 0x2F88 JUMP JUMPDEST PUSH1 0x40 MLOAD PUSH3 0x842 SWAP2 SWAP1 PUSH3 0x5584 JUMP JUMPDEST PUSH1 0x40 MLOAD DUP1 SWAP2 SUB SWAP1 RETURN JUMPDEST CALLVALUE DUP1 ISZERO PUSH3 0x858 JUMPI PUSH1 0x0 DUP1 REVERT JUMPDEST POP PUSH3 0x863 PUSH3 0x2FA0 JUMP JUMPDEST PUSH1 0x40 MLOAD PUSH3 0x872 SWAP2 SWAP1 PUSH3 0x5584 JUMP JUMPDEST PUSH1 0x40 MLOAD DUP1 SWAP2 SUB SWAP1 RETURN JUMPDEST CALLVALUE DUP1 ISZERO PUSH3 0x888 JUMPI PUSH1 0x0 DUP1 REVERT JUMPDEST POP PUSH3 0x893 PUSH3 0x2FA6 JUMP JUMPDEST PUSH1 0x40 MLOAD PUSH3 0x8A2 SWAP2 SWAP1 PUSH3 0x5584 JUMP JUMPDEST PUSH1 0x40 MLOAD DUP1 SWAP2 SUB SWAP1 RETURN JUMPDEST CALLVALUE DUP1 ISZERO PUSH3 0x8B8 JUMPI PUSH1 0x0 DUP1 REVERT JUMPDEST POP PUSH3 0x8C3 PUSH3 0x2FAC JUMP JUMPDEST PUSH1 0x40 MLOAD PUSH3 0x8D2 SWAP2 SWAP1 PUSH3 0x57D0 JUMP JUMPDEST PUSH1 0x40 MLOAD DUP1 SWAP2 SUB SWAP1 RETURN JUMPDEST CALLVALUE DUP1 ISZERO PUSH3 0x8E8 JUMPI PUSH1 0x0 DUP1 REVERT JUMPDEST POP PUSH3 0x907 PUSH1 0x4 DUP1 CALLDATASIZE SUB DUP2 ADD SWAP1 PUSH3 0x901 SWAP2 SWAP1 PUSH3 0x5834 JUMP JUMPDEST PUSH3 0x2FD2 JUMP JUMPDEST STOP JUMPDEST CALLVALUE DUP1 ISZERO PUSH3 0x916 JUMPI PUSH1 0x0 DUP1 REVERT JUMPDEST POP PUSH3 0x921 PUSH3 0x309D JUMP JUMPDEST PUSH1 0x40 MLOAD PUSH3 0x930 SWAP2 SWAP1 PUSH3 0x5584 JUMP JUMPDEST PUSH1 0x40 MLOAD DUP1 SWAP2 SUB SWAP1 RETURN JUMPDEST CALLVALUE DUP1 ISZERO PUSH3 0x946 JUMPI PUSH1 0x0 DUP1 REVERT JUMPDEST POP PUSH3 0x951 PUSH3 0x30A3 JUMP JUMPDEST PUSH1 0x40 MLOAD PUSH3 0x960 SWAP2 SWAP1 PUSH3 0x564D JUMP JUMPDEST PUSH1 0x40 MLOAD DUP1 SWAP2 SUB SWAP1 RETURN JUMPDEST CALLVALUE DUP1 ISZERO PUSH3 0x976 JUMPI PUSH1 0x0 DUP1 REVERT JUMPDEST POP PUSH3 0x995 PUSH1 0x4 DUP1 CALLDATASIZE SUB DUP2 ADD SWAP1 PUSH3 0x98F SWAP2 SWAP1 PUSH3 0x5B0D JUMP JUMPDEST PUSH3 0x30B6 JUMP JUMPDEST STOP JUMPDEST CALLVALUE DUP1 ISZERO PUSH3 0x9A4 JUMPI PUSH1 0x0 DUP1 REVERT JUMPDEST POP PUSH3 0x9C3 PUSH1 0x4 DUP1 CALLDATASIZE SUB DUP2 ADD SWAP1 PUSH3 0x9BD SWAP2 SWAP1 PUSH3 0x5541 JUMP JUMPDEST PUSH3 0x30D5 JUMP JUMPDEST PUSH1 0x40 MLOAD PUSH3 0x9D2 SWAP2 SWAP1 PUSH3 0x57D0 JUMP JUMPDEST PUSH1 0x40 MLOAD DUP1 SWAP2 SUB SWAP1 RETURN JUMPDEST CALLVALUE DUP1 ISZERO PUSH3 0x9E8 JUMPI PUSH1 0x0 DUP1 REVERT JUMPDEST POP PUSH3 0x9F3 PUSH3 0x3160 JUMP JUMPDEST PUSH1 0x40 MLOAD PUSH3 0xA02 SWAP2 SWAP1 PUSH3 0x5584 JUMP JUMPDEST PUSH1 0x40 MLOAD DUP1 SWAP2 SUB SWAP1 RETURN JUMPDEST CALLVALUE DUP1 ISZERO PUSH3 0xA18 JUMPI PUSH1 0x0 DUP1 REVERT JUMPDEST POP PUSH3 0xA37 PUSH1 0x4 DUP1 CALLDATASIZE SUB DUP2 ADD SWAP1 PUSH3 0xA31 SWAP2 SWAP1 PUSH3 0x5B5E JUMP JUMPDEST PUSH3 0x3166 JUMP JUMPDEST STOP JUMPDEST CALLVALUE DUP1 ISZERO PUSH3 0xA46 JUMPI PUSH1 0x0 DUP1 REVERT JUMPDEST POP PUSH3 0xA65 PUSH1 0x4 DUP1 CALLDATASIZE SUB DUP2 ADD SWAP1 PUSH3 0xA5F SWAP2 SWAP1 PUSH3 0x5541 JUMP JUMPDEST PUSH3 0x31EA JUMP JUMPDEST STOP JUMPDEST CALLVALUE DUP1 ISZERO PUSH3 0xA74 JUMPI PUSH1 0x0 DUP1 REVERT JUMPDEST POP PUSH3 0xA7F PUSH3 0x31FE JUMP JUMPDEST PUSH1 0x40 MLOAD PUSH3 0xA8E SWAP2 SWAP1 PUSH3 0x579B JUMP JUMPDEST PUSH1 0x40 MLOAD DUP1 SWAP2 SUB SWAP1 RETURN JUMPDEST CALLVALUE DUP1 ISZERO PUSH3 0xAA4 JUMPI PUSH1 0x0 DUP1 REVERT JUMPDEST POP PUSH3 0xAC3 PUSH1 0x4 DUP1 CALLDATASIZE SUB DUP2 ADD SWAP1 PUSH3 0xABD SWAP2 SWAP1 PUSH3 0x56CF JUMP JUMPDEST PUSH3 0x3294 JUMP JUMPDEST PUSH1 0x40 MLOAD PUSH3 0xAD2 SWAP2 SWAP1 PUSH3 0x5584 JUMP JUMPDEST PUSH1 0x40 MLOAD DUP1 SWAP2 SUB SWAP1 RETURN JUMPDEST CALLVALUE DUP1 ISZERO PUSH3 0xAE8 JUMPI PUSH1 0x0 DUP1 REVERT JUMPDEST POP PUSH3 0xAF3 PUSH3 0x334E JUMP JUMPDEST STOP JUMPDEST CALLVALUE DUP1 ISZERO PUSH3 0xB02 JUMPI PUSH1 0x0 DUP1 REVERT JUMPDEST POP PUSH3 0xB0D PUSH3 0x3366 JUMP JUMPDEST PUSH1 0x40 MLOAD PUSH3 0xB1C SWAP2 SWAP1 PUSH3 0x5584 JUMP JUMPDEST PUSH1 0x40 MLOAD DUP1 SWAP2 SUB SWAP1 RETURN JUMPDEST CALLVALUE DUP1 ISZERO PUSH3 0xB32 JUMPI PUSH1 0x0 DUP1 REVERT JUMPDEST POP PUSH3 0xB51 PUSH1 0x4 DUP1 CALLDATASIZE SUB DUP2 ADD SWAP1 PUSH3 0xB4B SWAP2 SWAP1 PUSH3 0x59F4 JUMP JUMPDEST PUSH3 0x336C JUMP JUMPDEST STOP JUMPDEST CALLVALUE DUP1 ISZERO PUSH3 0xB60 JUMPI PUSH1 0x0 DUP1 REVERT JUMPDEST POP PUSH3 0xB6B PUSH3 0x35A0 JUMP JUMPDEST PUSH1 0x40 MLOAD PUSH3 0xB7A SWAP2 SWAP1 PUSH3 0x57D0 JUMP JUMPDEST PUSH1 0x40 MLOAD DUP1 SWAP2 SUB SWAP1 RETURN JUMPDEST CALLVALUE DUP1 ISZERO PUSH3 0xB90 JUMPI PUSH1 0x0 DUP1 REVERT JUMPDEST POP PUSH3 0xB9B PUSH3 0x35C6 JUMP JUMPDEST PUSH1 0x40 MLOAD PUSH3 0xBAA SWAP2 SWAP1 PUSH3 0x5584 JUMP JUMPDEST PUSH1 0x40 MLOAD DUP1 SWAP2 SUB SWAP1 RETURN JUMPDEST CALLVALUE DUP1 ISZERO PUSH3 0xBC0 JUMPI PUSH1 0x0 DUP1 REVERT JUMPDEST POP PUSH3 0xBDF PUSH1 0x4 DUP1 CALLDATASIZE SUB DUP2 ADD SWAP1 PUSH3 0xBD9 SWAP2 SWAP1 PUSH3 0x5B5E JUMP JUMPDEST PUSH3 0x35D3 JUMP JUMPDEST STOP JUMPDEST CALLVALUE DUP1 ISZERO PUSH3 0xBEE JUMPI PUSH1 0x0 DUP1 REVERT JUMPDEST POP PUSH3 0xBF9 PUSH3 0x3657 JUMP JUMPDEST PUSH1 0x40 MLOAD PUSH3 0xC08 SWAP2 SWAP1 PUSH3 0x5584 JUMP JUMPDEST PUSH1 0x40 MLOAD DUP1 SWAP2 SUB SWAP1 RETURN JUMPDEST CALLVALUE DUP1 ISZERO PUSH3 0xC1E JUMPI PUSH1 0x0 DUP1 REVERT JUMPDEST POP PUSH3 0xC3D PUSH1 0x4 DUP1 CALLDATASIZE SUB DUP2 ADD SWAP1 PUSH3 0xC37 SWAP2 SWAP1 PUSH3 0x56CF JUMP JUMPDEST PUSH3 0x365D JUMP JUMPDEST PUSH1 0x40 MLOAD PUSH3 0xC4C SWAP2 SWAP1 PUSH3 0x564D JUMP JUMPDEST PUSH1 0x40 MLOAD DUP1 SWAP2 SUB SWAP1 RETURN JUMPDEST CALLVALUE DUP1 ISZERO PUSH3 0xC62 JUMPI PUSH1 0x0 DUP1 REVERT JUMPDEST POP PUSH3 0xC6D PUSH3 0x367D JUMP JUMPDEST PUSH1 0x40 MLOAD PUSH3 0xC7C SWAP2 SWAP1 PUSH3 0x5584 JUMP JUMPDEST PUSH1 0x40 MLOAD DUP1 SWAP2 SUB SWAP1 RETURN JUMPDEST CALLVALUE DUP1 ISZERO PUSH3 0xC92 JUMPI PUSH1 0x0 DUP1 REVERT JUMPDEST POP PUSH3 0xC9D PUSH3 0x3683 JUMP JUMPDEST PUSH1 0x40 MLOAD PUSH3 0xCAC SWAP2 SWAP1 PUSH3 0x5584 JUMP JUMPDEST PUSH1 0x40 MLOAD DUP1 SWAP2 SUB SWAP1 RETURN JUMPDEST CALLVALUE DUP1 ISZERO PUSH3 0xCC2 JUMPI PUSH1 0x0 DUP1 REVERT JUMPDEST POP PUSH3 0xCCD PUSH3 0x3689 JUMP JUMPDEST PUSH1 0x40 MLOAD PUSH3 0xCDC SWAP2 SWAP1 PUSH3 0x57D0 JUMP JUMPDEST PUSH1 0x40 MLOAD DUP1 SWAP2 SUB SWAP1 RETURN JUMPDEST CALLVALUE DUP1 ISZERO PUSH3 0xCF2 JUMPI PUSH1 0x0 DUP1 REVERT JUMPDEST POP PUSH3 0xD11 PUSH1 0x4 DUP1 CALLDATASIZE SUB DUP2 ADD SWAP1 PUSH3 0xD0B SWAP2 SWAP1 PUSH3 0x56CF JUMP JUMPDEST PUSH3 0x36B3 JUMP JUMPDEST PUSH1 0x40 MLOAD PUSH3 0xD20 SWAP2 SWAP1 PUSH3 0x564D JUMP JUMPDEST PUSH1 0x40 MLOAD DUP1 SWAP2 SUB SWAP1 RETURN JUMPDEST CALLVALUE DUP1 ISZERO PUSH3 0xD36 JUMPI PUSH1 0x0 DUP1 REVERT JUMPDEST POP PUSH3 0xD41 PUSH3 0x3709 JUMP JUMPDEST PUSH1 0x40 MLOAD PUSH3 0xD50 SWAP2 SWAP1 PUSH3 0x579B JUMP JUMPDEST PUSH1 0x40 MLOAD DUP1 SWAP2 SUB SWAP1 RETURN JUMPDEST CALLVALUE DUP1 ISZERO PUSH3 0xD66 JUMPI PUSH1 0x0 DUP1 REVERT JUMPDEST POP PUSH3 0xD71 PUSH3 0x37A3 JUMP JUMPDEST STOP JUMPDEST CALLVALUE DUP1 ISZERO PUSH3 0xD80 JUMPI PUSH1 0x0 DUP1 REVERT JUMPDEST POP PUSH3 0xD9F PUSH1 0x4 DUP1 CALLDATASIZE SUB DUP2 ADD SWAP1 PUSH3 0xD99 SWAP2 SWAP1 PUSH3 0x5BFF JUMP JUMPDEST PUSH3 0x37D9 JUMP JUMPDEST STOP JUMPDEST CALLVALUE DUP1 ISZERO PUSH3 0xDAE JUMPI PUSH1 0x0 DUP1 REVERT JUMPDEST POP PUSH3 0xDCD PUSH1 0x4 DUP1 CALLDATASIZE SUB DUP2 ADD SWAP1 PUSH3 0xDC7 SWAP2 SWAP1 PUSH3 0x5C62 JUMP JUMPDEST PUSH3 0x3899 JUMP JUMPDEST STOP JUMPDEST CALLVALUE DUP1 ISZERO PUSH3 0xDDC JUMPI PUSH1 0x0 DUP1 REVERT JUMPDEST POP PUSH3 0xDFB PUSH1 0x4 DUP1 CALLDATASIZE SUB DUP2 ADD SWAP1 PUSH3 0xDF5 SWAP2 SWAP1 PUSH3 0x5541 JUMP JUMPDEST PUSH3 0x38B3 JUMP JUMPDEST PUSH1 0x40 MLOAD PUSH3 0xE0A SWAP2 SWAP1 PUSH3 0x57D0 JUMP JUMPDEST PUSH1 0x40 MLOAD DUP1 SWAP2 SUB SWAP1 RETURN JUMPDEST CALLVALUE DUP1 ISZERO PUSH3 0xE20 JUMPI PUSH1 0x0 DUP1 REVERT JUMPDEST POP PUSH3 0xE2B PUSH3 0x38F3 JUMP JUMPDEST PUSH1 0x40 MLOAD PUSH3 0xE3A SWAP2 SWAP1 PUSH3 0x57D0 JUMP JUMPDEST PUSH1 0x40 MLOAD DUP1 SWAP2 SUB SWAP1 RETURN JUMPDEST CALLVALUE DUP1 ISZERO PUSH3 0xE50 JUMPI PUSH1 0x0 DUP1 REVERT JUMPDEST POP PUSH3 0xE6F PUSH1 0x4 DUP1 CALLDATASIZE SUB DUP2 ADD SWAP1 PUSH3 0xE69 SWAP2 SWAP1 PUSH3 0x5541 JUMP JUMPDEST PUSH3 0x3919 JUMP JUMPDEST PUSH1 0x40 MLOAD PUSH3 0xE7E SWAP2 SWAP1 PUSH3 0x57D0 JUMP JUMPDEST PUSH1 0x40 MLOAD DUP1 SWAP2 SUB SWAP1 RETURN JUMPDEST CALLVALUE DUP1 ISZERO PUSH3 0xE94 JUMPI PUSH1 0x0 DUP1 REVERT JUMPDEST POP PUSH3 0xE9F PUSH3 0x3959 JUMP JUMPDEST PUSH1 0x40 MLOAD PUSH3 0xEAE SWAP2 SWAP1 PUSH3 0x57D0 JUMP JUMPDEST PUSH1 0x40 MLOAD DUP1 SWAP2 SUB SWAP1 RETURN JUMPDEST CALLVALUE DUP1 ISZERO PUSH3 0xEC4 JUMPI PUSH1 0x0 DUP1 REVERT JUMPDEST POP PUSH3 0xECF PUSH3 0x397F JUMP JUMPDEST PUSH1 0x40 MLOAD PUSH3 0xEDE SWAP2 SWAP1 PUSH3 0x5584 JUMP JUMPDEST PUSH1 0x40 MLOAD DUP1 SWAP2 SUB SWAP1 RETURN JUMPDEST CALLVALUE DUP1 ISZERO PUSH3 0xEF4 JUMPI PUSH1 0x0 DUP1 REVERT JUMPDEST POP PUSH3 0xF13 PUSH1 0x4 DUP1 CALLDATASIZE SUB DUP2 ADD SWAP1 PUSH3 0xF0D SWAP2 SWAP1 PUSH3 0x5D5D JUMP JUMPDEST PUSH3 0x3985 JUMP JUMPDEST STOP JUMPDEST CALLVALUE DUP1 ISZERO PUSH3 0xF22 JUMPI PUSH1 0x0 DUP1 REVERT JUMPDEST POP PUSH3 0xF41 PUSH1 0x4 DUP1 CALLDATASIZE SUB DUP2 ADD SWAP1 PUSH3 0xF3B SWAP2 SWAP1 PUSH3 0x56CF JUMP JUMPDEST PUSH3 0x3A99 JUMP JUMPDEST STOP JUMPDEST CALLVALUE DUP1 ISZERO PUSH3 0xF50 JUMPI PUSH1 0x0 DUP1 REVERT JUMPDEST POP PUSH3 0xF6F PUSH1 0x4 DUP1 CALLDATASIZE SUB DUP2 ADD SWAP1 PUSH3 0xF69 SWAP2 SWAP1 PUSH3 0x56CF JUMP JUMPDEST PUSH3 0x3AE7 JUMP JUMPDEST PUSH1 0x40 MLOAD PUSH3 0xF7E SWAP2 SWAP1 PUSH3 0x57D0 JUMP JUMPDEST PUSH1 0x40 MLOAD DUP1 SWAP2 SUB SWAP1 RETURN JUMPDEST CALLVALUE DUP1 ISZERO PUSH3 0xF94 JUMPI PUSH1 0x0 DUP1 REVERT JUMPDEST POP PUSH3 0xFB3 PUSH1 0x4 DUP1 CALLDATASIZE SUB DUP2 ADD SWAP1 PUSH3 0xFAD SWAP2 SWAP1 PUSH3 0x56CF JUMP JUMPDEST PUSH3 0x3B50 JUMP JUMPDEST PUSH1 0x40 MLOAD PUSH3 0xFC2 SWAP2 SWAP1 PUSH3 0x5584 JUMP JUMPDEST PUSH1 0x40 MLOAD DUP1 SWAP2 SUB SWAP1 RETURN JUMPDEST CALLVALUE DUP1 ISZERO PUSH3 0xFD8 JUMPI PUSH1 0x0 DUP1 REVERT JUMPDEST POP PUSH3 0xFE3 PUSH3 0x3C08 JUMP JUMPDEST STOP JUMPDEST CALLVALUE DUP1 ISZERO PUSH3 0xFF2 JUMPI PUSH1 0x0 DUP1 REVERT JUMPDEST POP PUSH3 0x1011 PUSH1 0x4 DUP1 CALLDATASIZE SUB DUP2 ADD SWAP1 PUSH3 0x100B SWAP2 SWAP1 PUSH3 0x5541 JUMP JUMPDEST PUSH3 0x3CC7 JUMP JUMPDEST PUSH1 0x40 MLOAD PUSH3 0x1021 SWAP3 SWAP2 SWAP1 PUSH3 0x5DEE JUMP JUMPDEST PUSH1 0x40 MLOAD DUP1 SWAP2 SUB SWAP1 RETURN JUMPDEST CALLVALUE DUP1 ISZERO PUSH3 0x1037 JUMPI PUSH1 0x0 DUP1 REVERT JUMPDEST POP PUSH3 0x1042 PUSH3 0x3D1C JUMP JUMPDEST PUSH1 0x40 MLOAD PUSH3 0x1051 SWAP2 SWAP1 PUSH3 0x579B JUMP JUMPDEST PUSH1 0x40 MLOAD DUP1 SWAP2 SUB SWAP1 RETURN JUMPDEST CALLVALUE DUP1 ISZERO PUSH3 0x1067 JUMPI PUSH1 0x0 DUP1 REVERT JUMPDEST POP PUSH3 0x1086 PUSH1 0x4 DUP1 CALLDATASIZE SUB DUP2 ADD SWAP1 PUSH3 0x1080 SWAP2 SWAP1 PUSH3 0x5541 JUMP JUMPDEST PUSH3 0x3DB2 JUMP JUMPDEST PUSH1 0x40 MLOAD PUSH3 0x1095 SWAP2 SWAP1 PUSH3 0x579B JUMP JUMPDEST PUSH1 0x40 MLOAD DUP1 SWAP2 SUB SWAP1 RETURN JUMPDEST CALLVALUE DUP1 ISZERO PUSH3 0x10AB JUMPI PUSH1 0x0 DUP1 REVERT JUMPDEST POP PUSH3 0x10CA PUSH1 0x4 DUP1 CALLDATASIZE SUB DUP2 ADD SWAP1 PUSH3 0x10C4 SWAP2 SWAP1 PUSH3 0x56CF JUMP JUMPDEST PUSH3 0x3E69 JUMP JUMPDEST STOP JUMPDEST CALLVALUE DUP1 ISZERO PUSH3 0x10D9 JUMPI PUSH1 0x0 DUP1 REVERT JUMPDEST POP PUSH3 0x10E4 PUSH3 0x3EB7 JUMP JUMPDEST PUSH1 0x40 MLOAD PUSH3 0x10F3 SWAP2 SWAP1 PUSH3 0x5584 JUMP JUMPDEST PUSH1 0x40 MLOAD DUP1 SWAP2 SUB SWAP1 RETURN JUMPDEST CALLVALUE DUP1 ISZERO PUSH3 0x1109 JUMPI PUSH1 0x0 DUP1 REVERT JUMPDEST POP PUSH3 0x1128 PUSH1 0x4 DUP1 CALLDATASIZE SUB DUP2 ADD SWAP1 PUSH3 0x1122 SWAP2 SWAP1 PUSH3 0x56CF JUMP JUMPDEST PUSH3 0x3EBD JUMP JUMPDEST PUSH1 0x40 MLOAD PUSH3 0x1137 SWAP2 SWAP1 PUSH3 0x57D0 JUMP JUMPDEST PUSH1 0x40 MLOAD DUP1 SWAP2 SUB SWAP1 RETURN JUMPDEST CALLVALUE DUP1 ISZERO PUSH3 0x114D JUMPI PUSH1 0x0 DUP1 REVERT JUMPDEST POP PUSH3 0x1158 PUSH3 0x3EF0 JUMP JUMPDEST PUSH1 0x40 MLOAD PUSH3 0x1167 SWAP2 SWAP1 PUSH3 0x5584 JUMP JUMPDEST PUSH1 0x40 MLOAD DUP1 SWAP2 SUB SWAP1 RETURN JUMPDEST CALLVALUE DUP1 ISZERO PUSH3 0x117D JUMPI PUSH1 0x0 DUP1 REVERT JUMPDEST POP PUSH3 0x1188 PUSH3 0x3EF6 JUMP JUMPDEST PUSH1 0x40 MLOAD PUSH3 0x1197 SWAP2 SWAP1 PUSH3 0x57D0 JUMP JUMPDEST PUSH1 0x40 MLOAD DUP1 SWAP2 SUB SWAP1 RETURN JUMPDEST CALLVALUE DUP1 ISZERO PUSH3 0x11AD JUMPI PUSH1 0x0 DUP1 REVERT JUMPDEST POP PUSH3 0x11CC PUSH1 0x4 DUP1 CALLDATASIZE SUB DUP2 ADD SWAP1 PUSH3 0x11C6 SWAP2 SWAP1 PUSH3 0x56CF JUMP JUMPDEST PUSH3 0x3F1C JUMP JUMPDEST PUSH1 0x40 MLOAD PUSH3 0x11DB SWAP2 SWAP1 PUSH3 0x5584 JUMP JUMPDEST PUSH1 0x40 MLOAD DUP1 SWAP2 SUB SWAP1 RETURN JUMPDEST CALLVALUE DUP1 ISZERO PUSH3 0x11F1 JUMPI PUSH1 0x0 DUP1 REVERT JUMPDEST POP PUSH3 0x1210 PUSH1 0x4 DUP1 CALLDATASIZE SUB DUP2 ADD SWAP1 PUSH3 0x120A SWAP2 SWAP1 PUSH3 0x5E1B JUMP JUMPDEST PUSH3 0x3F65 JUMP JUMPDEST PUSH1 0x40 MLOAD PUSH3 0x121F SWAP2 SWAP1 PUSH3 0x564D JUMP JUMPDEST PUSH1 0x40 MLOAD DUP1 SWAP2 SUB SWAP1 RETURN JUMPDEST CALLVALUE DUP1 ISZERO PUSH3 0x1235 JUMPI PUSH1 0x0 DUP1 REVERT JUMPDEST POP PUSH3 0x1254 PUSH1 0x4 DUP1 CALLDATASIZE SUB DUP2 ADD SWAP1 PUSH3 0x124E SWAP2 SWAP1 PUSH3 0x56CF JUMP JUMPDEST PUSH3 0x3FF9 JUMP JUMPDEST STOP JUMPDEST CALLVALUE DUP1 ISZERO PUSH3 0x1263 JUMPI PUSH1 0x0 DUP1 REVERT JUMPDEST POP PUSH3 0x1282 PUSH1 0x4 DUP1 CALLDATASIZE SUB DUP2 ADD SWAP1 PUSH3 0x127C SWAP2 SWAP1 PUSH3 0x56CF JUMP JUMPDEST PUSH3 0x4047 JUMP JUMPDEST STOP JUMPDEST CALLVALUE DUP1 ISZERO PUSH3 0x1291 JUMPI PUSH1 0x0 DUP1 REVERT JUMPDEST POP PUSH3 0x12B0 PUSH1 0x4 DUP1 CALLDATASIZE SUB DUP2 ADD SWAP1 PUSH3 0x12AA SWAP2 SWAP1 PUSH3 0x56CF JUMP JUMPDEST PUSH3 0x40D1 JUMP JUMPDEST STOP JUMPDEST CALLVALUE DUP1 ISZERO PUSH3 0x12BF JUMPI PUSH1 0x0 DUP1 REVERT JUMPDEST POP PUSH3 0x12CA PUSH3 0x411F JUMP JUMPDEST PUSH1 0x40 MLOAD PUSH3 0x12D9 SWAP2 SWAP1 PUSH3 0x57D0 JUMP JUMPDEST PUSH1 0x40 MLOAD DUP1 SWAP2 SUB SWAP1 RETURN JUMPDEST PUSH1 0x1D DUP2 DUP2 SLOAD DUP2 LT PUSH3 0x12F3 JUMPI PUSH1 0x0 DUP1 REVERT JUMPDEST SWAP1 PUSH1 0x0 MSTORE PUSH1 0x20 PUSH1 0x0 KECCAK256 ADD PUSH1 0x0 SWAP2 POP SWAP1 POP SLOAD DUP2 JUMP JUMPDEST PUSH1 0x0 PUSH32 0x80AC58CD00000000000000000000000000000000000000000000000000000000 PUSH28 0xFFFFFFFFFFFFFFFFFFFFFFFFFFFFFFFFFFFFFFFFFFFFFFFFFFFFFFFF NOT AND DUP3 PUSH28 0xFFFFFFFFFFFFFFFFFFFFFFFFFFFFFFFFFFFFFFFFFFFFFFFFFFFFFFFF NOT AND EQ DUP1 PUSH3 0x13D3 JUMPI POP PUSH32 0x5B5E139F00000000000000000000000000000000000000000000000000000000 PUSH28 0xFFFFFFFFFFFFFFFFFFFFFFFFFFFFFFFFFFFFFFFFFFFFFFFFFFFFFFFF NOT AND DUP3 PUSH28 0xFFFFFFFFFFFFFFFFFFFFFFFFFFFFFFFFFFFFFFFFFFFFFFFFFFFFFFFF NOT AND EQ JUMPDEST DUP1 PUSH3 0x13E6 JUMPI POP PUSH3 0x13E5 DUP3 PUSH3 0x4145 JUMP JUMPDEST JUMPDEST SWAP1 POP SWAP2 SWAP1 POP JUMP JUMPDEST PUSH1 0x0 PUSH1 0x1F DUP1 SLOAD SWAP1 POP SWAP1 POP SWAP1 JUMP JUMPDEST PUSH1 0x16 PUSH1 0x14 SWAP1 SLOAD SWAP1 PUSH2 0x100 EXP SWAP1 DIV PUSH1 0xFF AND ISZERO PUSH3 0x144D JUMPI PUSH1 0x40 MLOAD PUSH32 0x8C379A000000000000000000000000000000000000000000000000000000000 DUP2 MSTORE PUSH1 0x4 ADD PUSH3 0x1444 SWAP1 PUSH3 0x5EB2 JUMP JUMPDEST PUSH1 0x40 MLOAD DUP1 SWAP2 SUB SWAP1 REVERT JUMPDEST PUSH1 0x0 ISZERO ISZERO PUSH1 0x23 PUSH1 0x0 CALLER PUSH20 0xFFFFFFFFFFFFFFFFFFFFFFFFFFFFFFFFFFFFFFFF AND PUSH20 0xFFFFFFFFFFFFFFFFFFFFFFFFFFFFFFFFFFFFFFFF AND DUP2 MSTORE PUSH1 0x20 ADD SWAP1 DUP2 MSTORE PUSH1 0x20 ADD PUSH1 0x0 KECCAK256 PUSH1 0x0 SWAP1 SLOAD SWAP1 PUSH2 0x100 EXP SWAP1 DIV PUSH1 0xFF AND ISZERO ISZERO EQ PUSH3 0x14E3 JUMPI PUSH1 0x40 MLOAD PUSH32 0x8C379A000000000000000000000000000000000000000000000000000000000 DUP2 MSTORE PUSH1 0x4 ADD PUSH3 0x14DA SWAP1 PUSH3 0x5F24 JUMP JUMPDEST PUSH1 0x40 MLOAD DUP1 SWAP2 SUB SWAP1 REVERT JUMPDEST PUSH1 0x0 PUSH1 0x16 PUSH1 0x0 SWAP1 SLOAD SWAP1 PUSH2 0x100 EXP SWAP1 DIV PUSH20 0xFFFFFFFFFFFFFFFFFFFFFFFFFFFFFFFFFFFFFFFF AND PUSH20 0xFFFFFFFFFFFFFFFFFFFFFFFFFFFFFFFFFFFFFFFF AND PUSH4 0x70A08231 CALLER PUSH1 0x40 MLOAD DUP3 PUSH4 0xFFFFFFFF AND PUSH1 0xE0 SHL DUP2 MSTORE PUSH1 0x4 ADD PUSH3 0x1542 SWAP2 SWAP1 PUSH3 0x57D0 JUMP JUMPDEST PUSH1 0x20 PUSH1 0x40 MLOAD DUP1 DUP4 SUB DUP2 DUP7 GAS STATICCALL ISZERO DUP1 ISZERO PUSH3 0x1560 JUMPI RETURNDATASIZE PUSH1 0x0 DUP1 RETURNDATACOPY RETURNDATASIZE PUSH1 0x0 REVERT JUMPDEST POP POP POP POP PUSH1 0x40 MLOAD RETURNDATASIZE PUSH1 0x1F NOT PUSH1 0x1F DUP3 ADD AND DUP3 ADD DUP1 PUSH1 0x40 MSTORE POP DUP2 ADD SWAP1 PUSH3 0x1586 SWAP2 SWAP1 PUSH3 0x5F5D JUMP JUMPDEST SUB PUSH3 0x15C9 JUMPI PUSH1 0x40 MLOAD PUSH32 0x8C379A000000000000000000000000000000000000000000000000000000000 DUP2 MSTORE PUSH1 0x4 ADD PUSH3 0x15C0 SWAP1 PUSH3 0x5FDF JUMP JUMPDEST PUSH1 0x40 MLOAD DUP1 SWAP2 SUB SWAP1 REVERT JUMPDEST PUSH1 0x0 PUSH1 0xA PUSH1 0x0 SWAP1 SLOAD SWAP1 PUSH2 0x100 EXP SWAP1 DIV PUSH20 0xFFFFFFFFFFFFFFFFFFFFFFFFFFFFFFFFFFFFFFFF AND PUSH20 0xFFFFFFFFFFFFFFFFFFFFFFFFFFFFFFFFFFFFFFFF AND PUSH4 0xDCCA3755 CALLER PUSH1 0x40 MLOAD DUP3 PUSH4 0xFFFFFFFF AND PUSH1 0xE0 SHL DUP2 MSTORE PUSH1 0x4 ADD PUSH3 0x1628 SWAP2 SWAP1 PUSH3 0x57D0 JUMP JUMPDEST PUSH1 0x20 PUSH1 0x40 MLOAD DUP1 DUP4 SUB DUP2 DUP7 GAS STATICCALL ISZERO DUP1 ISZERO PUSH3 0x1646 JUMPI RETURNDATASIZE PUSH1 0x0 DUP1 RETURNDATACOPY RETURNDATASIZE PUSH1 0x0 REVERT JUMPDEST POP POP POP POP PUSH1 0x40 MLOAD RETURNDATASIZE PUSH1 0x1F NOT PUSH1 0x1F DUP3 ADD AND DUP3 ADD DUP1 PUSH1 0x40 MSTORE POP DUP2 ADD SWAP1 PUSH3 0x166C SWAP2 SWAP1 PUSH3 0x6018 JUMP JUMPDEST SWAP1 POP PUSH1 0x0 PUSH1 0xA PUSH1 0x0 SWAP1 SLOAD SWAP1 PUSH2 0x100 EXP SWAP1 DIV PUSH20 0xFFFFFFFFFFFFFFFFFFFFFFFFFFFFFFFFFFFFFFFF AND PUSH20 0xFFFFFFFFFFFFFFFFFFFFFFFFFFFFFFFFFFFFFFFF AND PUSH4 0xDCCA3755 DUP4 PUSH1 0x40 MLOAD DUP3 PUSH4 0xFFFFFFFF AND PUSH1 0xE0 SHL DUP2 MSTORE PUSH1 0x4 ADD PUSH3 0x16CD SWAP2 SWAP1 PUSH3 0x57D0 JUMP JUMPDEST PUSH1 0x20 PUSH1 0x40 MLOAD DUP1 DUP4 SUB DUP2 DUP7 GAS STATICCALL ISZERO DUP1 ISZERO PUSH3 0x16EB JUMPI RETURNDATASIZE PUSH1 0x0 DUP1 RETURNDATACOPY RETURNDATASIZE PUSH1 0x0 REVERT JUMPDEST POP POP POP POP PUSH1 0x40 MLOAD RETURNDATASIZE PUSH1 0x1F NOT PUSH1 0x1F DUP3 ADD AND DUP3 ADD DUP1 PUSH1 0x40 MSTORE POP DUP2 ADD SWAP1 PUSH3 0x1711 SWAP2 SWAP1 PUSH3 0x6018 JUMP JUMPDEST SWAP1 POP PUSH1 0x0 PUSH1 0xA PUSH1 0x0 SWAP1 SLOAD SWAP1 PUSH2 0x100 EXP SWAP1 DIV PUSH20 0xFFFFFFFFFFFFFFFFFFFFFFFFFFFFFFFFFFFFFFFF AND PUSH20 0xFFFFFFFFFFFFFFFFFFFFFFFFFFFFFFFFFFFFFFFF AND PUSH4 0xDCCA3755 DUP4 PUSH1 0x40 MLOAD DUP3 PUSH4 0xFFFFFFFF AND PUSH1 0xE0 SHL DUP2 MSTORE PUSH1 0x4 ADD PUSH3 0x1772 SWAP2 SWAP1 PUSH3 0x57D0 JUMP JUMPDEST PUSH1 0x20 PUSH1 0x40 MLOAD DUP1 DUP4 SUB DUP2 DUP7 GAS STATICCALL ISZERO DUP1 ISZERO PUSH3 0x1790 JUMPI RETURNDATASIZE PUSH1 0x0 DUP1 RETURNDATACOPY RETURNDATASIZE PUSH1 0x0 REVERT JUMPDEST POP POP POP POP PUSH1 0x40 MLOAD RETURNDATASIZE PUSH1 0x1F NOT PUSH1 0x1F DUP3 ADD AND DUP3 ADD DUP1 PUSH1 0x40 MSTORE POP DUP2 ADD SWAP1 PUSH3 0x17B6 SWAP2 SWAP1 PUSH3 0x6018 JUMP JUMPDEST SWAP1 POP PUSH1 0x16 PUSH1 0x15 SWAP1 SLOAD SWAP1 PUSH2 0x100 EXP SWAP1 DIV PUSH1 0xFF AND ISZERO PUSH3 0x21BF JUMPI PUSH1 0x0 PUSH1 0x10 SLOAD PUSH1 0xC SLOAD PUSH1 0x17 SLOAD PUSH3 0x17E5 SWAP2 SWAP1 PUSH3 0x6079 JUMP JUMPDEST PUSH3 0x17F1 SWAP2 SWAP1 PUSH3 0x60F3 JUMP JUMPDEST SWAP1 POP PUSH1 0x0 PUSH1 0x10 SLOAD PUSH1 0xD SLOAD PUSH1 0x17 SLOAD PUSH3 0x180A SWAP2 SWAP1 PUSH3 0x6079 JUMP JUMPDEST PUSH3 0x1816 SWAP2 SWAP1 PUSH3 0x60F3 JUMP JUMPDEST SWAP1 POP PUSH1 0x0 PUSH1 0x10 SLOAD PUSH1 0xE SLOAD PUSH1 0x17 SLOAD PUSH3 0x182F SWAP2 SWAP1 PUSH3 0x6079 JUMP JUMPDEST PUSH3 0x183B SWAP2 SWAP1 PUSH3 0x60F3 JUMP JUMPDEST SWAP1 POP PUSH1 0x0 PUSH1 0x10 SLOAD PUSH1 0xF SLOAD PUSH1 0x17 SLOAD PUSH3 0x1854 SWAP2 SWAP1 PUSH3 0x6079 JUMP JUMPDEST PUSH3 0x1860 SWAP2 SWAP1 PUSH3 0x60F3 JUMP JUMPDEST SWAP1 POP PUSH1 0x0 CALLVALUE SUB PUSH3 0x1B87 JUMPI PUSH1 0x0 PUSH20 0xFFFFFFFFFFFFFFFFFFFFFFFFFFFFFFFFFFFFFFFF AND DUP8 PUSH20 0xFFFFFFFFFFFFFFFFFFFFFFFFFFFFFFFFFFFFFFFF AND EQ ISZERO DUP1 ISZERO PUSH3 0x18D6 JUMPI POP PUSH1 0x0 PUSH20 0xFFFFFFFFFFFFFFFFFFFFFFFFFFFFFFFFFFFFFFFF AND DUP7 PUSH20 0xFFFFFFFFFFFFFFFFFFFFFFFFFFFFFFFFFFFFFFFF AND EQ ISZERO JUMPDEST DUP1 ISZERO PUSH3 0x1910 JUMPI POP PUSH1 0x0 PUSH20 0xFFFFFFFFFFFFFFFFFFFFFFFFFFFFFFFFFFFFFFFF AND DUP6 PUSH20 0xFFFFFFFFFFFFFFFFFFFFFFFFFFFFFFFFFFFFFFFF AND EQ ISZERO JUMPDEST ISZERO PUSH3 0x1A94 JUMPI PUSH3 0x1968 PUSH1 0x18 PUSH1 0x0 SWAP1 SLOAD SWAP1 PUSH2 0x100 EXP SWAP1 DIV PUSH20 0xFFFFFFFFFFFFFFFFFFFFFFFFFFFFFFFFFFFFFFFF AND CALLER PUSH1 0x19 PUSH1 0x0 SWAP1 SLOAD SWAP1 PUSH2 0x100 EXP SWAP1 DIV PUSH20 0xFFFFFFFFFFFFFFFFFFFFFFFFFFFFFFFFFFFFFFFF AND DUP8 PUSH3 0x41AF JUMP JUMPDEST PUSH3 0x1998 PUSH1 0x18 PUSH1 0x0 SWAP1 SLOAD SWAP1 PUSH2 0x100 EXP SWAP1 DIV PUSH20 0xFFFFFFFFFFFFFFFFFFFFFFFFFFFFFFFFFFFFFFFF AND CALLER DUP10 DUP7 PUSH3 0x41AF JUMP JUMPDEST PUSH3 0x19C8 PUSH1 0x18 PUSH1 0x0 SWAP1 SLOAD SWAP1 PUSH2 0x100 EXP SWAP1 DIV PUSH20 0xFFFFFFFFFFFFFFFFFFFFFFFFFFFFFFFFFFFFFFFF AND CALLER DUP9 DUP6 PUSH3 0x41AF JUMP JUMPDEST PUSH3 0x19F8 PUSH1 0x18 PUSH1 0x0 SWAP1 SLOAD SWAP1 PUSH2 0x100 EXP SWAP1 DIV PUSH20 0xFFFFFFFFFFFFFFFFFFFFFFFFFFFFFFFFFFFFFFFF AND CALLER DUP8 DUP5 PUSH3 0x41AF JUMP JUMPDEST PUSH1 0x1A PUSH1 0x0 SWAP1 SLOAD SWAP1 PUSH2 0x100 EXP SWAP1 DIV PUSH20 0xFFFFFFFFFFFFFFFFFFFFFFFFFFFFFFFFFFFFFFFF AND PUSH20 0xFFFFFFFFFFFFFFFFFFFFFFFFFFFFFFFFFFFFFFFF AND PUSH4 0xBA8279CA PUSH1 0x5 CALLER DUP8 PUSH1 0x40 MLOAD DUP5 PUSH4 0xFFFFFFFF AND PUSH1 0xE0 SHL DUP2 MSTORE PUSH1 0x4 ADD PUSH3 0x1A5A SWAP4 SWAP3 SWAP2 SWAP1 PUSH3 0x6178 JUMP JUMPDEST PUSH1 0x0 PUSH1 0x40 MLOAD DUP1 DUP4 SUB DUP2 PUSH1 0x0 DUP8 DUP1 EXTCODESIZE ISZERO DUP1 ISZERO PUSH3 0x1A75 JUMPI PUSH1 0x0 DUP1 REVERT JUMPDEST POP GAS CALL ISZERO DUP1 ISZERO PUSH3 0x1A8A JUMPI RETURNDATASIZE PUSH1 0x0 DUP1 RETURNDATACOPY RETURNDATASIZE PUSH1 0x0 REVERT JUMPDEST POP POP POP POP PUSH3 0x1B81 JUMP JUMPDEST PUSH3 0x1AE8 PUSH1 0x18 PUSH1 0x0 SWAP1 SLOAD SWAP1 PUSH2 0x100 EXP SWAP1 DIV PUSH20 0xFFFFFFFFFFFFFFFFFFFFFFFFFFFFFFFFFFFFFFFF AND CALLER PUSH1 0x19 PUSH1 0x0 SWAP1 SLOAD SWAP1 PUSH2 0x100 EXP SWAP1 DIV PUSH20 0xFFFFFFFFFFFFFFFFFFFFFFFFFFFFFFFFFFFFFFFF AND PUSH1 0x17 SLOAD PUSH3 0x41AF JUMP JUMPDEST PUSH1 0x1A PUSH1 0x0 SWAP1 SLOAD SWAP1 PUSH2 0x100 EXP SWAP1 DIV PUSH20 0xFFFFFFFFFFFFFFFFFFFFFFFFFFFFFFFFFFFFFFFF AND PUSH20 0xFFFFFFFFFFFFFFFFFFFFFFFFFFFFFFFFFFFFFFFF AND PUSH4 0xBA8279CA PUSH1 0x5 CALLER PUSH1 0x17 SLOAD PUSH1 0x40 MLOAD DUP5 PUSH4 0xFFFFFFFF AND PUSH1 0xE0 SHL DUP2 MSTORE PUSH1 0x4 ADD PUSH3 0x1B4C SWAP4 SWAP3 SWAP2 SWAP1 PUSH3 0x6178 JUMP JUMPDEST PUSH1 0x0 PUSH1 0x40 MLOAD DUP1 DUP4 SUB DUP2 PUSH1 0x0 DUP8 DUP1 EXTCODESIZE ISZERO DUP1 ISZERO PUSH3 0x1B67 JUMPI PUSH1 0x0 DUP1 REVERT JUMPDEST POP GAS CALL ISZERO DUP1 ISZERO PUSH3 0x1B7C JUMPI RETURNDATASIZE PUSH1 0x0 DUP1 RETURNDATACOPY RETURNDATASIZE PUSH1 0x0 REVERT JUMPDEST POP POP POP POP JUMPDEST PUSH3 0x21BA JUMP JUMPDEST PUSH1 0x17 SLOAD CALLVALUE EQ PUSH3 0x1BCE JUMPI PUSH1 0x40 MLOAD PUSH32 0x8C379A000000000000000000000000000000000000000000000000000000000 DUP2 MSTORE PUSH1 0x4 ADD PUSH3 0x1BC5 SWAP1 PUSH3 0x6205 JUMP JUMPDEST PUSH1 0x40 MLOAD DUP1 SWAP2 SUB SWAP1 REVERT JUMPDEST PUSH1 0x18 PUSH1 0x0 SWAP1 SLOAD SWAP1 PUSH2 0x100 EXP SWAP1 DIV PUSH20 0xFFFFFFFFFFFFFFFFFFFFFFFFFFFFFFFFFFFFFFFF AND PUSH20 0xFFFFFFFFFFFFFFFFFFFFFFFFFFFFFFFFFFFFFFFF AND PUSH4 0xD0E30DB0 PUSH1 0x17 SLOAD PUSH1 0x40 MLOAD DUP3 PUSH4 0xFFFFFFFF AND PUSH1 0xE0 SHL DUP2 MSTORE PUSH1 0x4 ADD PUSH1 0x0 PUSH1 0x40 MLOAD DUP1 DUP4 SUB DUP2 DUP6 DUP9 DUP1 EXTCODESIZE ISZERO DUP1 ISZERO PUSH3 0x1C3B JUMPI PUSH1 0x0 DUP1 REVERT JUMPDEST POP GAS CALL ISZERO DUP1 ISZERO PUSH3 0x1C50 JUMPI RETURNDATASIZE PUSH1 0x0 DUP1 RETURNDATACOPY RETURNDATASIZE PUSH1 0x0 REVERT JUMPDEST POP POP POP POP POP PUSH1 0x0 PUSH20 0xFFFFFFFFFFFFFFFFFFFFFFFFFFFFFFFFFFFFFFFF AND DUP8 PUSH20 0xFFFFFFFFFFFFFFFFFFFFFFFFFFFFFFFFFFFFFFFF AND EQ ISZERO DUP1 ISZERO PUSH3 0x1CC0 JUMPI POP PUSH1 0x0 PUSH20 0xFFFFFFFFFFFFFFFFFFFFFFFFFFFFFFFFFFFFFFFF AND DUP7 PUSH20 0xFFFFFFFFFFFFFFFFFFFFFFFFFFFFFFFFFFFFFFFF AND EQ ISZERO JUMPDEST DUP1 ISZERO PUSH3 0x1CFA JUMPI POP PUSH1 0x0 PUSH20 0xFFFFFFFFFFFFFFFFFFFFFFFFFFFFFFFFFFFFFFFF AND DUP6 PUSH20 0xFFFFFFFFFFFFFFFFFFFFFFFFFFFFFFFFFFFFFFFF AND EQ ISZERO JUMPDEST ISZERO PUSH3 0x2056 JUMPI PUSH1 0x18 PUSH1 0x0 SWAP1 SLOAD SWAP1 PUSH2 0x100 EXP SWAP1 DIV PUSH20 0xFFFFFFFFFFFFFFFFFFFFFFFFFFFFFFFFFFFFFFFF AND PUSH20 0xFFFFFFFFFFFFFFFFFFFFFFFFFFFFFFFFFFFFFFFF AND PUSH4 0xA9059CBB PUSH1 0x19 PUSH1 0x0 SWAP1 SLOAD SWAP1 PUSH2 0x100 EXP SWAP1 DIV PUSH20 0xFFFFFFFFFFFFFFFFFFFFFFFFFFFFFFFFFFFFFFFF AND DUP7 PUSH1 0x40 MLOAD DUP4 PUSH4 0xFFFFFFFF AND PUSH1 0xE0 SHL DUP2 MSTORE PUSH1 0x4 ADD PUSH3 0x1D81 SWAP3 SWAP2 SWAP1 PUSH3 0x5DEE JUMP JUMPDEST PUSH1 0x20 PUSH1 0x40 MLOAD DUP1 DUP4 SUB DUP2 PUSH1 0x0 DUP8 GAS CALL ISZERO DUP1 ISZERO PUSH3 0x1DA1 JUMPI RETURNDATASIZE PUSH1 0x0 DUP1 RETURNDATACOPY RETURNDATASIZE PUSH1 0x0 REVERT JUMPDEST POP POP POP POP PUSH1 0x40 MLOAD RETURNDATASIZE PUSH1 0x1F NOT PUSH1 0x1F DUP3 ADD AND DUP3 ADD DUP1 PUSH1 0x40 MSTORE POP DUP2 ADD SWAP1 PUSH3 0x1DC7 SWAP2 SWAP1 PUSH3 0x623E JUMP JUMPDEST POP PUSH1 0x18 PUSH1 0x0 SWAP1 SLOAD SWAP1 PUSH2 0x100 EXP SWAP1 DIV PUSH20 0xFFFFFFFFFFFFFFFFFFFFFFFFFFFFFFFFFFFFFFFF AND PUSH20 0xFFFFFFFFFFFFFFFFFFFFFFFFFFFFFFFFFFFFFFFF AND PUSH4 0xA9059CBB DUP9 DUP6 PUSH1 0x40 MLOAD DUP4 PUSH4 0xFFFFFFFF AND PUSH1 0xE0 SHL DUP2 MSTORE PUSH1 0x4 ADD PUSH3 0x1E27 SWAP3 SWAP2 SWAP1 PUSH3 0x5DEE JUMP JUMPDEST PUSH1 0x20 PUSH1 0x40 MLOAD DUP1 DUP4 SUB DUP2 PUSH1 0x0 DUP8 GAS CALL ISZERO DUP1 ISZERO PUSH3 0x1E47 JUMPI RETURNDATASIZE PUSH1 0x0 DUP1 RETURNDATACOPY RETURNDATASIZE PUSH1 0x0 REVERT JUMPDEST POP POP POP POP PUSH1 0x40 MLOAD RETURNDATASIZE PUSH1 0x1F NOT PUSH1 0x1F DUP3 ADD AND DUP3 ADD DUP1 PUSH1 0x40 MSTORE POP DUP2 ADD SWAP1 PUSH3 0x1E6D SWAP2 SWAP1 PUSH3 0x623E JUMP JUMPDEST POP PUSH1 0x18 PUSH1 0x0 SWAP1 SLOAD SWAP1 PUSH2 0x100 EXP SWAP1 DIV PUSH20 0xFFFFFFFFFFFFFFFFFFFFFFFFFFFFFFFFFFFFFFFF AND PUSH20 0xFFFFFFFFFFFFFFFFFFFFFFFFFFFFFFFFFFFFFFFF AND PUSH4 0xA9059CBB DUP8 DUP5 PUSH1 0x40 MLOAD DUP4 PUSH4 0xFFFFFFFF AND PUSH1 0xE0 SHL DUP2 MSTORE PUSH1 0x4 ADD PUSH3 0x1ECD SWAP3 SWAP2 SWAP1 PUSH3 0x5DEE JUMP JUMPDEST PUSH1 0x20 PUSH1 0x40 MLOAD DUP1 DUP4 SUB DUP2 PUSH1 0x0 DUP8 GAS CALL ISZERO DUP1 ISZERO PUSH3 0x1EED JUMPI RETURNDATASIZE PUSH1 0x0 DUP1 RETURNDATACOPY RETURNDATASIZE PUSH1 0x0 REVERT JUMPDEST POP POP POP POP PUSH1 0x40 MLOAD RETURNDATASIZE PUSH1 0x1F NOT PUSH1 0x1F DUP3 ADD AND DUP3 ADD DUP1 PUSH1 0x40 MSTORE POP DUP2 ADD SWAP1 PUSH3 0x1F13 SWAP2 SWAP1 PUSH3 0x623E JUMP JUMPDEST POP PUSH1 0x18 PUSH1 0x0 SWAP1 SLOAD SWAP1 PUSH2 0x100 EXP SWAP1 DIV PUSH20 0xFFFFFFFFFFFFFFFFFFFFFFFFFFFFFFFFFFFFFFFF AND PUSH20 0xFFFFFFFFFFFFFFFFFFFFFFFFFFFFFFFFFFFFFFFF AND PUSH4 0xA9059CBB DUP7 DUP4 PUSH1 0x40 MLOAD DUP4 PUSH4 0xFFFFFFFF AND PUSH1 0xE0 SHL DUP2 MSTORE PUSH1 0x4 ADD PUSH3 0x1F73 SWAP3 SWAP2 SWAP1 PUSH3 0x5DEE JUMP JUMPDEST PUSH1 0x20 PUSH1 0x40 MLOAD DUP1 DUP4 SUB DUP2 PUSH1 0x0 DUP8 GAS CALL ISZERO DUP1 ISZERO PUSH3 0x1F93 JUMPI RETURNDATASIZE PUSH1 0x0 DUP1 RETURNDATACOPY RETURNDATASIZE PUSH1 0x0 REVERT JUMPDEST POP POP POP POP PUSH1 0x40 MLOAD RETURNDATASIZE PUSH1 0x1F NOT PUSH1 0x1F DUP3 ADD AND DUP3 ADD DUP1 PUSH1 0x40 MSTORE POP DUP2 ADD SWAP1 PUSH3 0x1FB9 SWAP2 SWAP1 PUSH3 0x623E JUMP JUMPDEST POP PUSH1 0x1A PUSH1 0x0 SWAP1 SLOAD SWAP1 PUSH2 0x100 EXP SWAP1 DIV PUSH20 0xFFFFFFFFFFFFFFFFFFFFFFFFFFFFFFFFFFFFFFFF AND PUSH20 0xFFFFFFFFFFFFFFFFFFFFFFFFFFFFFFFFFFFFFFFF AND PUSH4 0xBA8279CA PUSH1 0x5 CALLER DUP8 PUSH1 0x40 MLOAD DUP5 PUSH4 0xFFFFFFFF AND PUSH1 0xE0 SHL DUP2 MSTORE PUSH1 0x4 ADD PUSH3 0x201C SWAP4 SWAP3 SWAP2 SWAP1 PUSH3 0x6178 JUMP JUMPDEST PUSH1 0x0 PUSH1 0x40 MLOAD DUP1 DUP4 SUB DUP2 PUSH1 0x0 DUP8 DUP1 EXTCODESIZE ISZERO DUP1 ISZERO PUSH3 0x2037 JUMPI PUSH1 0x0 DUP1 REVERT JUMPDEST POP GAS CALL ISZERO DUP1 ISZERO PUSH3 0x204C JUMPI RETURNDATASIZE PUSH1 0x0 DUP1 RETURNDATACOPY RETURNDATASIZE PUSH1 0x0 REVERT JUMPDEST POP POP POP POP PUSH3 0x21B9 JUMP JUMPDEST PUSH1 0x18 PUSH1 0x0 SWAP1 SLOAD SWAP1 PUSH2 0x100 EXP SWAP1 DIV PUSH20 0xFFFFFFFFFFFFFFFFFFFFFFFFFFFFFFFFFFFFFFFF AND PUSH20 0xFFFFFFFFFFFFFFFFFFFFFFFFFFFFFFFFFFFFFFFF AND PUSH4 0xA9059CBB PUSH1 0x19 PUSH1 0x0 SWAP1 SLOAD SWAP1 PUSH2 0x100 EXP SWAP1 DIV PUSH20 0xFFFFFFFFFFFFFFFFFFFFFFFFFFFFFFFFFFFFFFFF AND PUSH1 0x17 SLOAD PUSH1 0x40 MLOAD DUP4 PUSH4 0xFFFFFFFF AND PUSH1 0xE0 SHL DUP2 MSTORE PUSH1 0x4 ADD PUSH3 0x20D9 SWAP3 SWAP2 SWAP1 PUSH3 0x5DEE JUMP JUMPDEST PUSH1 0x20 PUSH1 0x40 MLOAD DUP1 DUP4 SUB DUP2 PUSH1 0x0 DUP8 GAS CALL ISZERO DUP1 ISZERO PUSH3 0x20F9 JUMPI RETURNDATASIZE PUSH1 0x0 DUP1 RETURNDATACOPY RETURNDATASIZE PUSH1 0x0 REVERT JUMPDEST POP POP POP POP PUSH1 0x40 MLOAD RETURNDATASIZE PUSH1 0x1F NOT PUSH1 0x1F DUP3 ADD AND DUP3 ADD DUP1 PUSH1 0x40 MSTORE POP DUP2 ADD SWAP1 PUSH3 0x211F SWAP2 SWAP1 PUSH3 0x623E JUMP JUMPDEST POP PUSH1 0x1A PUSH1 0x0 SWAP1 SLOAD SWAP1 PUSH2 0x100 EXP SWAP1 DIV PUSH20 0xFFFFFFFFFFFFFFFFFFFFFFFFFFFFFFFFFFFFFFFF AND PUSH20 0xFFFFFFFFFFFFFFFFFFFFFFFFFFFFFFFFFFFFFFFF AND PUSH4 0xBA8279CA PUSH1 0x5 CALLER PUSH1 0x17 SLOAD PUSH1 0x40 MLOAD DUP5 PUSH4 0xFFFFFFFF AND PUSH1 0xE0 SHL DUP2 MSTORE PUSH1 0x4 ADD PUSH3 0x2184 SWAP4 SWAP3 SWAP2 SWAP1 PUSH3 0x6178 JUMP JUMPDEST PUSH1 0x0 PUSH1 0x40 MLOAD DUP1 DUP4 SUB DUP2 PUSH1 0x0 DUP8 DUP1 EXTCODESIZE ISZERO DUP1 ISZERO PUSH3 0x219F JUMPI PUSH1 0x0 DUP1 REVERT JUMPDEST POP GAS CALL ISZERO DUP1 ISZERO PUSH3 0x21B4 JUMPI RETURNDATASIZE PUSH1 0x0 DUP1 RETURNDATACOPY RETURNDATASIZE PUSH1 0x0 REVERT JUMPDEST POP POP POP POP JUMPDEST JUMPDEST POP POP POP POP JUMPDEST PUSH1 0xA PUSH1 0x0 SWAP1 SLOAD SWAP1 PUSH2 0x100 EXP SWAP1 DIV PUSH20 0xFFFFFFFFFFFFFFFFFFFFFFFFFFFFFFFFFFFFFFFF AND PUSH20 0xFFFFFFFFFFFFFFFFFFFFFFFFFFFFFFFFFFFFFFFF AND PUSH4 0x8C7B8D77 CALLER DUP7 PUSH1 0x1 PUSH1 0x40 MLOAD DUP5 PUSH4 0xFFFFFFFF AND PUSH1 0xE0 SHL DUP2 MSTORE PUSH1 0x4 ADD PUSH3 0x2221 SWAP4 SWAP3 SWAP2 SWAP1 PUSH3 0x62B3 JUMP JUMPDEST PUSH1 0x0 PUSH1 0x40 MLOAD DUP1 DUP4 SUB DUP2 PUSH1 0x0 DUP8 DUP1 EXTCODESIZE ISZERO DUP1 ISZERO PUSH3 0x223C JUMPI PUSH1 0x0 DUP1 REVERT JUMPDEST POP GAS CALL ISZERO DUP1 ISZERO PUSH3 0x2251 JUMPI RETURNDATASIZE PUSH1 0x0 DUP1 RETURNDATACOPY RETURNDATASIZE PUSH1 0x0 REVERT JUMPDEST POP POP POP POP PUSH3 0x2263 CALLER PUSH1 0xB SLOAD PUSH3 0x42F5 JUMP JUMPDEST PUSH1 0x1F CALLER SWAP1 DUP1 PUSH1 0x1 DUP2 SLOAD ADD DUP1 DUP3 SSTORE DUP1 SWAP2 POP POP PUSH1 0x1 SWAP1 SUB SWAP1 PUSH1 0x0 MSTORE PUSH1 0x20 PUSH1 0x0 KECCAK256 ADD PUSH1 0x0 SWAP1 SWAP2 SWAP1 SWAP2 SWAP1 SWAP2 PUSH2 0x100 EXP DUP2 SLOAD DUP2 PUSH20 0xFFFFFFFFFFFFFFFFFFFFFFFFFFFFFFFFFFFFFFFF MUL NOT AND SWAP1 DUP4 PUSH20 0xFFFFFFFFFFFFFFFFFFFFFFFFFFFFFFFFFFFFFFFF AND MUL OR SWAP1 SSTORE POP PUSH1 0xB SLOAD PUSH1 0x22 PUSH1 0x0 CALLER PUSH20 0xFFFFFFFFFFFFFFFFFFFFFFFFFFFFFFFFFFFFFFFF AND PUSH20 0xFFFFFFFFFFFFFFFFFFFFFFFFFFFFFFFFFFFFFFFF AND DUP2 MSTORE PUSH1 0x20 ADD SWAP1 DUP2 MSTORE PUSH1 0x20 ADD PUSH1 0x0 KECCAK256 DUP2 SWAP1 SSTORE POP PUSH1 0x1 PUSH1 0x23 PUSH1 0x0 CALLER PUSH20 0xFFFFFFFFFFFFFFFFFFFFFFFFFFFFFFFFFFFFFFFF AND PUSH20 0xFFFFFFFFFFFFFFFFFFFFFFFFFFFFFFFFFFFFFFFF AND DUP2 MSTORE PUSH1 0x20 ADD SWAP1 DUP2 MSTORE PUSH1 0x20 ADD PUSH1 0x0 KECCAK256 PUSH1 0x0 PUSH2 0x100 EXP DUP2 SLOAD DUP2 PUSH1 0xFF MUL NOT AND SWAP1 DUP4 ISZERO ISZERO MUL OR SWAP1 SSTORE POP PUSH1 0x0 CALLER ADDRESS PUSH1 0x40 MLOAD PUSH3 0x2376 SWAP1 PUSH3 0x54E4 JUMP JUMPDEST PUSH3 0x2383 SWAP3 SWAP2 SWAP1 PUSH3 0x62F0 JUMP JUMPDEST PUSH1 0x40 MLOAD DUP1 SWAP2 SUB SWAP1 PUSH1 0x0 CREATE DUP1 ISZERO DUP1 ISZERO PUSH3 0x23A0 JUMPI RETURNDATASIZE PUSH1 0x0 DUP1 RETURNDATACOPY RETURNDATASIZE PUSH1 0x0 REVERT JUMPDEST POP SWAP1 POP DUP1 PUSH1 0x25 PUSH1 0x0 CALLER PUSH20 0xFFFFFFFFFFFFFFFFFFFFFFFFFFFFFFFFFFFFFFFF AND PUSH20 0xFFFFFFFFFFFFFFFFFFFFFFFFFFFFFFFFFFFFFFFF AND DUP2 MSTORE PUSH1 0x20 ADD SWAP1 DUP2 MSTORE PUSH1 0x20 ADD PUSH1 0x0 KECCAK256 PUSH1 0x0 PUSH2 0x100 EXP DUP2 SLOAD DUP2 PUSH20 0xFFFFFFFFFFFFFFFFFFFFFFFFFFFFFFFFFFFFFFFF MUL NOT AND SWAP1 DUP4 PUSH20 0xFFFFFFFFFFFFFFFFFFFFFFFFFFFFFFFFFFFFFFFF AND MUL OR SWAP1 SSTORE POP PUSH1 0x0 PUSH20 0xFFFFFFFFFFFFFFFFFFFFFFFFFFFFFFFFFFFFFFFF AND PUSH1 0x25 PUSH1 0x0 DUP5 PUSH20 0xFFFFFFFFFFFFFFFFFFFFFFFFFFFFFFFFFFFFFFFF AND PUSH20 0xFFFFFFFFFFFFFFFFFFFFFFFFFFFFFFFFFFFFFFFF AND DUP2 MSTORE PUSH1 0x20 ADD SWAP1 DUP2 MSTORE PUSH1 0x20 ADD PUSH1 0x0 KECCAK256 PUSH1 0x0 SWAP1 SLOAD SWAP1 PUSH2 0x100 EXP SWAP1 DIV PUSH20 0xFFFFFFFFFFFFFFFFFFFFFFFFFFFFFFFFFFFFFFFF AND PUSH20 0xFFFFFFFFFFFFFFFFFFFFFFFFFFFFFFFFFFFFFFFF AND EQ ISZERO DUP1 ISZERO PUSH3 0x254A JUMPI POP PUSH1 0x0 PUSH20 0xFFFFFFFFFFFFFFFFFFFFFFFFFFFFFFFFFFFFFFFF AND PUSH1 0x25 PUSH1 0x0 DUP6 PUSH20 0xFFFFFFFFFFFFFFFFFFFFFFFFFFFFFFFFFFFFFFFF AND PUSH20 0xFFFFFFFFFFFFFFFFFFFFFFFFFFFFFFFFFFFFFFFF AND DUP2 MSTORE PUSH1 0x20 ADD SWAP1 DUP2 MSTORE PUSH1 0x20 ADD PUSH1 0x0 KECCAK256 PUSH1 0x0 SWAP1 SLOAD SWAP1 PUSH2 0x100 EXP SWAP1 DIV PUSH20 0xFFFFFFFFFFFFFFFFFFFFFFFFFFFFFFFFFFFFFFFF AND PUSH20 0xFFFFFFFFFFFFFFFFFFFFFFFFFFFFFFFFFFFFFFFF AND EQ ISZERO JUMPDEST DUP1 ISZERO PUSH3 0x25E3 JUMPI POP PUSH1 0x0 PUSH20 0xFFFFFFFFFFFFFFFFFFFFFFFFFFFFFFFFFFFFFFFF AND PUSH1 0x25 PUSH1 0x0 DUP7 PUSH20 0xFFFFFFFFFFFFFFFFFFFFFFFFFFFFFFFFFFFFFFFF AND PUSH20 0xFFFFFFFFFFFFFFFFFFFFFFFFFFFFFFFFFFFFFFFF AND DUP2 MSTORE PUSH1 0x20 ADD SWAP1 DUP2 MSTORE PUSH1 0x20 ADD PUSH1 0x0 KECCAK256 PUSH1 0x0 SWAP1 SLOAD SWAP1 PUSH2 0x100 EXP SWAP1 DIV PUSH20 0xFFFFFFFFFFFFFFFFFFFFFFFFFFFFFFFFFFFFFFFF AND PUSH20 0xFFFFFFFFFFFFFFFFFFFFFFFFFFFFFFFFFFFFFFFF AND EQ ISZERO JUMPDEST ISZERO PUSH3 0x295F JUMPI PUSH1 0x1E PUSH1 0x0 SWAP1 SLOAD SWAP1 PUSH2 0x100 EXP SWAP1 DIV PUSH20 0xFFFFFFFFFFFFFFFFFFFFFFFFFFFFFFFFFFFFFFFF AND PUSH20 0xFFFFFFFFFFFFFFFFFFFFFFFFFFFFFFFFFFFFFFFF AND PUSH4 0x40C10F19 PUSH1 0x25 PUSH1 0x0 DUP8 PUSH20 0xFFFFFFFFFFFFFFFFFFFFFFFFFFFFFFFFFFFFFFFF AND PUSH20 0xFFFFFFFFFFFFFFFFFFFFFFFFFFFFFFFFFFFFFFFF AND DUP2 MSTORE PUSH1 0x20 ADD SWAP1 DUP2 MSTORE PUSH1 0x20 ADD PUSH1 0x0 KECCAK256 PUSH1 0x0 SWAP1 SLOAD SWAP1 PUSH2 0x100 EXP SWAP1 DIV PUSH20 0xFFFFFFFFFFFFFFFFFFFFFFFFFFFFFFFFFFFFFFFF AND PUSH8 0xDE0B6B3A7640000 PUSH1 0x10 SLOAD PUSH1 0x12 SLOAD PUSH1 0x11 SLOAD PUSH3 0x26A5 SWAP2 SWAP1 PUSH3 0x6079 JUMP JUMPDEST PUSH3 0x26B1 SWAP2 SWAP1 PUSH3 0x60F3 JUMP JUMPDEST PUSH3 0x26BD SWAP2 SWAP1 PUSH3 0x6079 JUMP JUMPDEST PUSH1 0x40 MLOAD DUP4 PUSH4 0xFFFFFFFF AND PUSH1 0xE0 SHL DUP2 MSTORE PUSH1 0x4 ADD PUSH3 0x26DC SWAP3 SWAP2 SWAP1 PUSH3 0x5DEE JUMP JUMPDEST PUSH1 0x0 PUSH1 0x40 MLOAD DUP1 DUP4 SUB DUP2 PUSH1 0x0 DUP8 DUP1 EXTCODESIZE ISZERO DUP1 ISZERO PUSH3 0x26F7 JUMPI PUSH1 0x0 DUP1 REVERT JUMPDEST POP GAS CALL ISZERO DUP1 ISZERO PUSH3 0x270C JUMPI RETURNDATASIZE PUSH1 0x0 DUP1 RETURNDATACOPY RETURNDATASIZE PUSH1 0x0 REVERT JUMPDEST POP POP POP POP PUSH1 0x1E PUSH1 0x0 SWAP1 SLOAD SWAP1 PUSH2 0x100 EXP SWAP1 DIV PUSH20 0xFFFFFFFFFFFFFFFFFFFFFFFFFFFFFFFFFFFFFFFF AND PUSH20 0xFFFFFFFFFFFFFFFFFFFFFFFFFFFFFFFFFFFFFFFF AND PUSH4 0x40C10F19 PUSH1 0x25 PUSH1 0x0 DUP7 PUSH20 0xFFFFFFFFFFFFFFFFFFFFFFFFFFFFFFFFFFFFFFFF AND PUSH20 0xFFFFFFFFFFFFFFFFFFFFFFFFFFFFFFFFFFFFFFFF AND DUP2 MSTORE PUSH1 0x20 ADD SWAP1 DUP2 MSTORE PUSH1 0x20 ADD PUSH1 0x0 KECCAK256 PUSH1 0x0 SWAP1 SLOAD SWAP1 PUSH2 0x100 EXP SWAP1 DIV PUSH20 0xFFFFFFFFFFFFFFFFFFFFFFFFFFFFFFFFFFFFFFFF AND PUSH8 0xDE0B6B3A7640000 PUSH1 0x10 SLOAD PUSH1 0x13 SLOAD PUSH1 0x11 SLOAD PUSH3 0x27CC SWAP2 SWAP1 PUSH3 0x6079 JUMP JUMPDEST PUSH3 0x27D8 SWAP2 SWAP1 PUSH3 0x60F3 JUMP JUMPDEST PUSH3 0x27E4 SWAP2 SWAP1 PUSH3 0x6079 JUMP JUMPDEST PUSH1 0x40 MLOAD DUP4 PUSH4 0xFFFFFFFF AND PUSH1 0xE0 SHL DUP2 MSTORE PUSH1 0x4 ADD PUSH3 0x2803 SWAP3 SWAP2 SWAP1 PUSH3 0x5DEE JUMP JUMPDEST PUSH1 0x0 PUSH1 0x40 MLOAD DUP1 DUP4 SUB DUP2 PUSH1 0x0 DUP8 DUP1 EXTCODESIZE ISZERO DUP1 ISZERO PUSH3 0x281E JUMPI PUSH1 0x0 DUP1 REVERT JUMPDEST POP GAS CALL ISZERO DUP1 ISZERO PUSH3 0x2833 JUMPI RETURNDATASIZE PUSH1 0x0 DUP1 RETURNDATACOPY RETURNDATASIZE PUSH1 0x0 REVERT JUMPDEST POP POP POP POP PUSH1 0x1E PUSH1 0x0 SWAP1 SLOAD SWAP1 PUSH2 0x100 EXP SWAP1 DIV PUSH20 0xFFFFFFFFFFFFFFFFFFFFFFFFFFFFFFFFFFFFFFFF AND PUSH20 0xFFFFFFFFFFFFFFFFFFFFFFFFFFFFFFFFFFFFFFFF AND PUSH4 0x40C10F19 PUSH1 0x25 PUSH1 0x0 DUP6 PUSH20 0xFFFFFFFFFFFFFFFFFFFFFFFFFFFFFFFFFFFFFFFF AND PUSH20 0xFFFFFFFFFFFFFFFFFFFFFFFFFFFFFFFFFFFFFFFF AND DUP2 MSTORE PUSH1 0x20 ADD SWAP1 DUP2 MSTORE PUSH1 0x20 ADD PUSH1 0x0 KECCAK256 PUSH1 0x0 SWAP1 SLOAD SWAP1 PUSH2 0x100 EXP SWAP1 DIV PUSH20 0xFFFFFFFFFFFFFFFFFFFFFFFFFFFFFFFFFFFFFFFF AND PUSH8 0xDE0B6B3A7640000 PUSH1 0x10 SLOAD PUSH1 0x14 SLOAD PUSH1 0x11 SLOAD PUSH3 0x28F3 SWAP2 SWAP1 PUSH3 0x6079 JUMP JUMPDEST PUSH3 0x28FF SWAP2 SWAP1 PUSH3 0x60F3 JUMP JUMPDEST PUSH3 0x290B SWAP2 SWAP1 PUSH3 0x6079 JUMP JUMPDEST PUSH1 0x40 MLOAD DUP4 PUSH4 0xFFFFFFFF AND PUSH1 0xE0 SHL DUP2 MSTORE PUSH1 0x4 ADD PUSH3 0x292A SWAP3 SWAP2 SWAP1 PUSH3 0x5DEE JUMP JUMPDEST PUSH1 0x0 PUSH1 0x40 MLOAD DUP1 DUP4 SUB DUP2 PUSH1 0x0 DUP8 DUP1 EXTCODESIZE ISZERO DUP1 ISZERO PUSH3 0x2945 JUMPI PUSH1 0x0 DUP1 REVERT JUMPDEST POP GAS CALL ISZERO DUP1 ISZERO PUSH3 0x295A JUMPI RETURNDATASIZE PUSH1 0x0 DUP1 RETURNDATACOPY RETURNDATASIZE PUSH1 0x0 REVERT JUMPDEST POP POP POP POP JUMPDEST PUSH1 0xB PUSH1 0x0 DUP2 SLOAD DUP1 SWAP3 SWAP2 SWAP1 PUSH3 0x2974 SWAP1 PUSH3 0x631D JUMP JUMPDEST SWAP2 SWAP1 POP SSTORE POP POP POP POP POP POP JUMP JUMPDEST PUSH3 0x298A PUSH3 0x4523 JUMP JUMPDEST DUP1 PUSH1 0xA PUSH1 0x0 PUSH2 0x100 EXP DUP2 SLOAD DUP2 PUSH20 0xFFFFFFFFFFFFFFFFFFFFFFFFFFFFFFFFFFFFFFFF MUL NOT AND SWAP1 DUP4 PUSH20 0xFFFFFFFFFFFFFFFFFFFFFFFFFFFFFFFFFFFFFFFF AND MUL OR SWAP1 SSTORE POP POP JUMP JUMPDEST PUSH1 0x60 PUSH1 0x0 DUP1 SLOAD PUSH3 0x29DF SWAP1 PUSH3 0x6399 JUMP JUMPDEST DUP1 PUSH1 0x1F ADD PUSH1 0x20 DUP1 SWAP2 DIV MUL PUSH1 0x20 ADD PUSH1 0x40 MLOAD SWAP1 DUP2 ADD PUSH1 0x40 MSTORE DUP1 SWAP3 SWAP2 SWAP1 DUP2 DUP2 MSTORE PUSH1 0x20 ADD DUP3 DUP1 SLOAD PUSH3 0x2A0D SWAP1 PUSH3 0x6399 JUMP JUMPDEST DUP1 ISZERO PUSH3 0x2A5E JUMPI DUP1 PUSH1 0x1F LT PUSH3 0x2A32 JUMPI PUSH2 0x100 DUP1 DUP4 SLOAD DIV MUL DUP4 MSTORE SWAP2 PUSH1 0x20 ADD SWAP2 PUSH3 0x2A5E JUMP JUMPDEST DUP3 ADD SWAP2 SWAP1 PUSH1 0x0 MSTORE PUSH1 0x20 PUSH1 0x0 KECCAK256 SWAP1 JUMPDEST DUP2 SLOAD DUP2 MSTORE SWAP1 PUSH1 0x1 ADD SWAP1 PUSH1 0x20 ADD DUP1 DUP4 GT PUSH3 0x2A40 JUMPI DUP3 SWAP1 SUB PUSH1 0x1F AND DUP3 ADD SWAP2 JUMPDEST POP POP POP POP POP SWAP1 POP SWAP1 JUMP JUMPDEST PUSH1 0x0 PUSH3 0x2A75 DUP3 PUSH3 0x45A8 JUMP JUMPDEST PUSH1 0x4 PUSH1 0x0 DUP4 DUP2 MSTORE PUSH1 0x20 ADD SWAP1 DUP2 MSTORE PUSH1 0x20 ADD PUSH1 0x0 KECCAK256 PUSH1 0x0 SWAP1 SLOAD SWAP1 PUSH2 0x100 EXP SWAP1 DIV PUSH20 0xFFFFFFFFFFFFFFFFFFFFFFFFFFFFFFFFFFFFFFFF AND SWAP1 POP SWAP2 SWAP1 POP JUMP JUMPDEST PUSH1 0x15 DUP2 DUP2 SLOAD DUP2 LT PUSH3 0x2AC1 JUMPI PUSH1 0x0 DUP1 REVERT JUMPDEST SWAP1 PUSH1 0x0 MSTORE PUSH1 0x20 PUSH1 0x0 KECCAK256 ADD PUSH1 0x0 SWAP2 POP SLOAD SWAP1 PUSH2 0x100 EXP SWAP1 DIV PUSH20 0xFFFFFFFFFFFFFFFFFFFFFFFFFFFFFFFFFFFFFFFF AND DUP2 JUMP JUMPDEST PUSH1 0x0 PUSH3 0x2AFD DUP3 PUSH3 0x30D5 JUMP JUMPDEST SWAP1 POP DUP1 PUSH20 0xFFFFFFFFFFFFFFFFFFFFFFFFFFFFFFFFFFFFFFFF AND DUP4 PUSH20 0xFFFFFFFFFFFFFFFFFFFFFFFFFFFFFFFFFFFFFFFF AND SUB PUSH3 0x2B70 JUMPI PUSH1 0x40 MLOAD PUSH32 0x8C379A000000000000000000000000000000000000000000000000000000000 DUP2 MSTORE PUSH1 0x4 ADD PUSH3 0x2B67 SWAP1 PUSH3 0x6444 JUMP JUMPDEST PUSH1 0x40 MLOAD DUP1 SWAP2 SUB SWAP1 REVERT JUMPDEST DUP1 PUSH20 0xFFFFFFFFFFFFFFFFFFFFFFFFFFFFFFFFFFFFFFFF AND PUSH3 0x2B91 PUSH3 0x45F8 JUMP JUMPDEST PUSH20 0xFFFFFFFFFFFFFFFFFFFFFFFFFFFFFFFFFFFFFFFF AND EQ DUP1 PUSH3 0x2BC5 JUMPI POP PUSH3 0x2BC4 DUP2 PUSH3 0x2BBE PUSH3 0x45F8 JUMP JUMPDEST PUSH3 0x3F65 JUMP JUMPDEST JUMPDEST PUSH3 0x2C07 JUMPI PUSH1 0x40 MLOAD PUSH32 0x8C379A000000000000000000000000000000000000000000000000000000000 DUP2 MSTORE PUSH1 0x4 ADD PUSH3 0x2BFE SWAP1 PUSH3 0x64DC JUMP JUMPDEST PUSH1 0x40 MLOAD DUP1 SWAP2 SUB SWAP1 REVERT JUMPDEST PUSH3 0x2C13 DUP4 DUP4 PUSH3 0x4600 JUMP JUMPDEST POP POP POP JUMP JUMPDEST PUSH1 0x23 PUSH1 0x20 MSTORE DUP1 PUSH1 0x0 MSTORE PUSH1 0x40 PUSH1 0x0 KECCAK256 PUSH1 0x0 SWAP2 POP SLOAD SWAP1 PUSH2 0x100 EXP SWAP1 DIV PUSH1 0xFF AND DUP2 JUMP JUMPDEST PUSH1 0x1B PUSH1 0x0 SWAP1 SLOAD SWAP1 PUSH2 0x100 EXP SWAP1 DIV PUSH20 0xFFFFFFFFFFFFFFFFFFFFFFFFFFFFFFFFFFFFFFFF AND DUP2 JUMP JUMPDEST PUSH1 0x16 PUSH1 0x14 SWAP1 SLOAD SWAP1 PUSH2 0x100 EXP SWAP1 DIV PUSH1 0xFF AND DUP2 JUMP JUMPDEST CALLER PUSH20 0xFFFFFFFFFFFFFFFFFFFFFFFFFFFFFFFFFFFFFFFF AND DUP4 PUSH20 0xFFFFFFFFFFFFFFFFFFFFFFFFFFFFFFFFFFFFFFFF AND EQ DUP1 ISZERO PUSH3 0x2CD8 JUMPI POP CALLER PUSH20 0xFFFFFFFFFFFFFFFFFFFFFFFFFFFFFFFFFFFFFFFF AND DUP3 PUSH20 0xFFFFFFFFFFFFFFFFFFFFFFFFFFFFFFFFFFFFFFFF AND EQ JUMPDEST PUSH3 0x2D1A JUMPI PUSH1 0x40 MLOAD PUSH32 0x8C379A000000000000000000000000000000000000000000000000000000000 DUP2 MSTORE PUSH1 0x4 ADD PUSH3 0x2D11 SWAP1 PUSH3 0x654E JUMP JUMPDEST PUSH1 0x40 MLOAD DUP1 SWAP2 SUB SWAP1 REVERT JUMPDEST PUSH3 0x2D2F PUSH3 0x2D28 PUSH3 0x45F8 JUMP JUMPDEST DUP3 PUSH3 0x46BB JUMP JUMPDEST PUSH3 0x2D71 JUMPI PUSH1 0x40 MLOAD PUSH32 0x8C379A000000000000000000000000000000000000000000000000000000000 DUP2 MSTORE PUSH1 0x4 ADD PUSH3 0x2D68 SWAP1 PUSH3 0x65E6 JUMP JUMPDEST PUSH1 0x40 MLOAD DUP1 SWAP2 SUB SWAP1 REVERT JUMPDEST PUSH3 0x2D7E DUP4 DUP4 DUP4 PUSH3 0x4758 JUMP JUMPDEST POP POP POP JUMP JUMPDEST PUSH3 0x2D8D PUSH3 0x4523 JUMP JUMPDEST PUSH1 0x0 JUMPDEST DUP2 MLOAD DUP2 LT ISZERO PUSH3 0x2EF0 JUMPI PUSH1 0x21 PUSH1 0x0 DUP4 DUP4 DUP2 MLOAD DUP2 LT PUSH3 0x2DB4 JUMPI PUSH3 0x2DB3 PUSH3 0x6608 JUMP JUMPDEST JUMPDEST PUSH1 0x20 MUL PUSH1 0x20 ADD ADD MLOAD PUSH20 0xFFFFFFFFFFFFFFFFFFFFFFFFFFFFFFFFFFFFFFFF AND PUSH20 0xFFFFFFFFFFFFFFFFFFFFFFFFFFFFFFFFFFFFFFFF AND DUP2 MSTORE PUSH1 0x20 ADD SWAP1 DUP2 MSTORE PUSH1 0x20 ADD PUSH1 0x0 KECCAK256 PUSH1 0x0 SWAP1 SLOAD SWAP1 PUSH2 0x100 EXP SWAP1 DIV PUSH1 0xFF AND PUSH3 0x2E46 JUMPI PUSH1 0x40 MLOAD PUSH32 0x8C379A000000000000000000000000000000000000000000000000000000000 DUP2 MSTORE PUSH1 0x4 ADD PUSH3 0x2E3D SWAP1 PUSH3 0x6687 JUMP JUMPDEST PUSH1 0x40 MLOAD DUP1 SWAP2 SUB SWAP1 REVERT JUMPDEST PUSH1 0x21 PUSH1 0x0 DUP4 DUP4 DUP2 MLOAD DUP2 LT PUSH3 0x2E60 JUMPI PUSH3 0x2E5F PUSH3 0x6608 JUMP JUMPDEST JUMPDEST PUSH1 0x20 MUL PUSH1 0x20 ADD ADD MLOAD PUSH20 0xFFFFFFFFFFFFFFFFFFFFFFFFFFFFFFFFFFFFFFFF AND PUSH20 0xFFFFFFFFFFFFFFFFFFFFFFFFFFFFFFFFFFFFFFFF AND DUP2 MSTORE PUSH1 0x20 ADD SWAP1 DUP2 MSTORE PUSH1 0x20 ADD PUSH1 0x0 KECCAK256 PUSH1 0x0 PUSH2 0x100 EXP DUP2 SLOAD SWAP1 PUSH1 0xFF MUL NOT AND SWAP1 SSTORE PUSH3 0x2EDA DUP3 DUP3 DUP2 MLOAD DUP2 LT PUSH3 0x2ECC JUMPI PUSH3 0x2ECB PUSH3 0x6608 JUMP JUMPDEST JUMPDEST PUSH1 0x20 MUL PUSH1 0x20 ADD ADD MLOAD PUSH3 0x4A62 JUMP JUMPDEST DUP1 DUP1 PUSH3 0x2EE7 SWAP1 PUSH3 0x631D JUMP JUMPDEST SWAP2 POP POP PUSH3 0x2D90 JUMP JUMPDEST POP POP JUMP JUMPDEST PUSH1 0x24 PUSH1 0x20 MSTORE DUP2 PUSH1 0x0 MSTORE PUSH1 0x40 PUSH1 0x0 KECCAK256 DUP2 DUP2 SLOAD DUP2 LT PUSH3 0x2F11 JUMPI PUSH1 0x0 DUP1 REVERT JUMPDEST SWAP1 PUSH1 0x0 MSTORE PUSH1 0x20 PUSH1 0x0 KECCAK256 ADD PUSH1 0x0 SWAP2 POP SWAP2 POP POP SLOAD DUP2 JUMP JUMPDEST PUSH3 0x2F30 PUSH3 0x4523 JUMP JUMPDEST DUP1 PUSH1 0x11 DUP2 SWAP1 SSTORE POP POP JUMP JUMPDEST PUSH3 0x2F44 PUSH3 0x4523 JUMP JUMPDEST DUP1 PUSH1 0x1B PUSH1 0x0 PUSH2 0x100 EXP DUP2 SLOAD DUP2 PUSH20 0xFFFFFFFFFFFFFFFFFFFFFFFFFFFFFFFFFFFFFFFF MUL NOT AND SWAP1 DUP4 PUSH20 0xFFFFFFFFFFFFFFFFFFFFFFFFFFFFFFFFFFFFFFFF AND MUL OR SWAP1 SSTORE POP POP JUMP JUMPDEST PUSH1 0x22 PUSH1 0x20 MSTORE DUP1 PUSH1 0x0 MSTORE PUSH1 0x40 PUSH1 0x0 KECCAK256 PUSH1 0x0 SWAP2 POP SWAP1 POP SLOAD DUP2 JUMP JUMPDEST PUSH1 0x10 SLOAD DUP2 JUMP JUMPDEST PUSH1 0x14 SLOAD DUP2 JUMP JUMPDEST PUSH1 0x18 PUSH1 0x0 SWAP1 SLOAD SWAP1 PUSH2 0x100 EXP SWAP1 DIV PUSH20 0xFFFFFFFFFFFFFFFFFFFFFFFFFFFFFFFFFFFFFFFF AND DUP2 JUMP JUMPDEST CALLER PUSH20 0xFFFFFFFFFFFFFFFFFFFFFFFFFFFFFFFFFFFFFFFF AND DUP4 PUSH20 0xFFFFFFFFFFFFFFFFFFFFFFFFFFFFFFFFFFFFFFFF AND EQ DUP1 ISZERO PUSH3 0x3039 JUMPI POP CALLER PUSH20 0xFFFFFFFFFFFFFFFFFFFFFFFFFFFFFFFFFFFFFFFF AND DUP3 PUSH20 0xFFFFFFFFFFFFFFFFFFFFFFFFFFFFFFFFFFFFFFFF AND EQ JUMPDEST PUSH3 0x307B JUMPI PUSH1 0x40 MLOAD PUSH32 0x8C379A000000000000000000000000000000000000000000000000000000000 DUP2 MSTORE PUSH1 0x4 ADD PUSH3 0x3072 SWAP1 PUSH3 0x654E JUMP JUMPDEST PUSH1 0x40 MLOAD DUP1 SWAP2 SUB SWAP1 REVERT JUMPDEST PUSH3 0x3098 DUP4 DUP4 DUP4 PUSH1 0x40 MLOAD DUP1 PUSH1 0x20 ADD PUSH1 0x40 MSTORE DUP1 PUSH1 0x0 DUP2 MSTORE POP PUSH3 0x3985 JUMP JUMPDEST POP POP POP JUMP JUMPDEST PUSH1 0x13 SLOAD DUP2 JUMP JUMPDEST PUSH1 0x16 PUSH1 0x15 SWAP1 SLOAD SWAP1 PUSH2 0x100 EXP SWAP1 DIV PUSH1 0xFF AND DUP2 JUMP JUMPDEST PUSH3 0x30C0 PUSH3 0x4523 JUMP JUMPDEST DUP1 PUSH1 0x8 SWAP1 DUP2 PUSH3 0x30D1 SWAP2 SWAP1 PUSH3 0x6871 JUMP JUMPDEST POP POP JUMP JUMPDEST PUSH1 0x0 DUP1 PUSH3 0x30E3 DUP4 PUSH3 0x4C38 JUMP JUMPDEST SWAP1 POP PUSH1 0x0 PUSH20 0xFFFFFFFFFFFFFFFFFFFFFFFFFFFFFFFFFFFFFFFF AND DUP2 PUSH20 0xFFFFFFFFFFFFFFFFFFFFFFFFFFFFFFFFFFFFFFFF AND SUB PUSH3 0x3157 JUMPI PUSH1 0x40 MLOAD PUSH32 0x8C379A000000000000000000000000000000000000000000000000000000000 DUP2 MSTORE PUSH1 0x4 ADD PUSH3 0x314E SWAP1 PUSH3 0x69A8 JUMP JUMPDEST PUSH1 0x40 MLOAD DUP1 SWAP2 SUB SWAP1 REVERT JUMPDEST DUP1 SWAP2 POP POP SWAP2 SWAP1 POP JUMP JUMPDEST PUSH1 0x11 SLOAD DUP2 JUMP JUMPDEST PUSH3 0x3170 PUSH3 0x4523 JUMP JUMPDEST PUSH1 0x64 DUP2 DUP4 DUP6 PUSH3 0x3181 SWAP2 SWAP1 PUSH3 0x69CA JUMP JUMPDEST PUSH3 0x318D SWAP2 SWAP1 PUSH3 0x69CA JUMP JUMPDEST EQ PUSH3 0x31D0 JUMPI PUSH1 0x40 MLOAD PUSH32 0x8C379A000000000000000000000000000000000000000000000000000000000 DUP2 MSTORE PUSH1 0x4 ADD PUSH3 0x31C7 SWAP1 PUSH3 0x6687 JUMP JUMPDEST PUSH1 0x40 MLOAD DUP1 SWAP2 SUB SWAP1 REVERT JUMPDEST DUP3 PUSH1 0xF DUP2 SWAP1 SSTORE POP DUP2 PUSH1 0xE DUP2 SWAP1 SSTORE POP DUP1 PUSH1 0xD DUP2 SWAP1 SSTORE POP POP POP POP JUMP JUMPDEST PUSH3 0x31F4 PUSH3 0x4523 JUMP JUMPDEST DUP1 PUSH1 0x17 DUP2 SWAP1 SSTORE POP POP JUMP JUMPDEST PUSH1 0x8 DUP1 SLOAD PUSH3 0x320D SWAP1 PUSH3 0x6399 JUMP JUMPDEST DUP1 PUSH1 0x1F ADD PUSH1 0x20 DUP1 SWAP2 DIV MUL PUSH1 0x20 ADD PUSH1 0x40 MLOAD SWAP1 DUP2 ADD PUSH1 0x40 MSTORE DUP1 SWAP3 SWAP2 SWAP1 DUP2 DUP2 MSTORE PUSH1 0x20 ADD DUP3 DUP1 SLOAD PUSH3 0x323B SWAP1 PUSH3 0x6399 JUMP JUMPDEST DUP1 ISZERO PUSH3 0x328C JUMPI DUP1 PUSH1 0x1F LT PUSH3 0x3260 JUMPI PUSH2 0x100 DUP1 DUP4 SLOAD DIV MUL DUP4 MSTORE SWAP2 PUSH1 0x20 ADD SWAP2 PUSH3 0x328C JUMP JUMPDEST DUP3 ADD SWAP2 SWAP1 PUSH1 0x0 MSTORE PUSH1 0x20 PUSH1 0x0 KECCAK256 SWAP1 JUMPDEST DUP2 SLOAD DUP2 MSTORE SWAP1 PUSH1 0x1 ADD SWAP1 PUSH1 0x20 ADD DUP1 DUP4 GT PUSH3 0x326E JUMPI DUP3 SWAP1 SUB PUSH1 0x1F AND DUP3 ADD SWAP2 JUMPDEST POP POP POP POP POP DUP2 JUMP JUMPDEST PUSH1 0x0 DUP1 PUSH20 0xFFFFFFFFFFFFFFFFFFFFFFFFFFFFFFFFFFFFFFFF AND DUP3 PUSH20 0xFFFFFFFFFFFFFFFFFFFFFFFFFFFFFFFFFFFFFFFF AND SUB PUSH3 0x3307 JUMPI PUSH1 0x40 MLOAD PUSH32 0x8C379A000000000000000000000000000000000000000000000000000000000 DUP2 MSTORE PUSH1 0x4 ADD PUSH3 0x32FE SWAP1 PUSH3 0x6A7B JUMP JUMPDEST PUSH1 0x40 MLOAD DUP1 SWAP2 SUB SWAP1 REVERT JUMPDEST PUSH1 0x3 PUSH1 0x0 DUP4 PUSH20 0xFFFFFFFFFFFFFFFFFFFFFFFFFFFFFFFFFFFFFFFF AND PUSH20 0xFFFFFFFFFFFFFFFFFFFFFFFFFFFFFFFFFFFFFFFF AND DUP2 MSTORE PUSH1 0x20 ADD SWAP1 DUP2 MSTORE PUSH1 0x20 ADD PUSH1 0x0 KECCAK256 SLOAD SWAP1 POP SWAP2 SWAP1 POP JUMP JUMPDEST PUSH3 0x3358 PUSH3 0x4523 JUMP JUMPDEST PUSH3 0x3364 PUSH1 0x0 PUSH3 0x4C75 JUMP JUMPDEST JUMP JUMPDEST PUSH1 0xB SLOAD DUP2 JUMP JUMPDEST PUSH3 0x3376 PUSH3 0x4523 JUMP JUMPDEST PUSH1 0x0 JUMPDEST DUP2 MLOAD DUP2 LT ISZERO PUSH3 0x359C JUMPI PUSH1 0x21 PUSH1 0x0 DUP4 DUP4 DUP2 MLOAD DUP2 LT PUSH3 0x339D JUMPI PUSH3 0x339C PUSH3 0x6608 JUMP JUMPDEST JUMPDEST PUSH1 0x20 MUL PUSH1 0x20 ADD ADD MLOAD PUSH20 0xFFFFFFFFFFFFFFFFFFFFFFFFFFFFFFFFFFFFFFFF AND PUSH20 0xFFFFFFFFFFFFFFFFFFFFFFFFFFFFFFFFFFFFFFFF AND DUP2 MSTORE PUSH1 0x20 ADD SWAP1 DUP2 MSTORE PUSH1 0x20 ADD PUSH1 0x0 KECCAK256 PUSH1 0x0 SWAP1 SLOAD SWAP1 PUSH2 0x100 EXP SWAP1 DIV PUSH1 0xFF AND ISZERO PUSH3 0x3430 JUMPI PUSH1 0x40 MLOAD PUSH32 0x8C379A000000000000000000000000000000000000000000000000000000000 DUP2 MSTORE PUSH1 0x4 ADD PUSH3 0x3427 SWAP1 PUSH3 0x6687 JUMP JUMPDEST PUSH1 0x40 MLOAD DUP1 SWAP2 SUB SWAP1 REVERT JUMPDEST PUSH3 0x3458 DUP3 DUP3 DUP2 MLOAD DUP2 LT PUSH3 0x344A JUMPI PUSH3 0x3449 PUSH3 0x6608 JUMP JUMPDEST JUMPDEST PUSH1 0x20 MUL PUSH1 0x20 ADD ADD MLOAD PUSH3 0x4D3B JUMP JUMPDEST PUSH1 0x1 PUSH1 0x21 PUSH1 0x0 DUP5 DUP5 DUP2 MLOAD DUP2 LT PUSH3 0x3474 JUMPI PUSH3 0x3473 PUSH3 0x6608 JUMP JUMPDEST JUMPDEST PUSH1 0x20 MUL PUSH1 0x20 ADD ADD MLOAD PUSH20 0xFFFFFFFFFFFFFFFFFFFFFFFFFFFFFFFFFFFFFFFF AND PUSH20 0xFFFFFFFFFFFFFFFFFFFFFFFFFFFFFFFFFFFFFFFF AND DUP2 MSTORE PUSH1 0x20 ADD SWAP1 DUP2 MSTORE PUSH1 0x20 ADD PUSH1 0x0 KECCAK256 PUSH1 0x0 PUSH2 0x100 EXP DUP2 SLOAD DUP2 PUSH1 0xFF MUL NOT AND SWAP1 DUP4 ISZERO ISZERO MUL OR SWAP1 SSTORE POP PUSH1 0x0 PUSH1 0x40 MLOAD DUP1 PUSH1 0x40 ADD PUSH1 0x40 MSTORE DUP1 CALLER PUSH20 0xFFFFFFFFFFFFFFFFFFFFFFFFFFFFFFFFFFFFFFFF AND DUP2 MSTORE PUSH1 0x20 ADD PUSH3 0x3501 CALLER PUSH3 0x3B50 JUMP JUMPDEST DUP2 MSTORE POP SWAP1 POP PUSH1 0x20 DUP2 SWAP1 DUP1 PUSH1 0x1 DUP2 SLOAD ADD DUP1 DUP3 SSTORE DUP1 SWAP2 POP POP PUSH1 0x1 SWAP1 SUB SWAP1 PUSH1 0x0 MSTORE PUSH1 0x20 PUSH1 0x0 KECCAK256 SWAP1 PUSH1 0x2 MUL ADD PUSH1 0x0 SWAP1 SWAP2 SWAP1 SWAP2 SWAP1 SWAP2 POP PUSH1 0x0 DUP3 ADD MLOAD DUP2 PUSH1 0x0 ADD PUSH1 0x0 PUSH2 0x100 EXP DUP2 SLOAD DUP2 PUSH20 0xFFFFFFFFFFFFFFFFFFFFFFFFFFFFFFFFFFFFFFFF MUL NOT AND SWAP1 DUP4 PUSH20 0xFFFFFFFFFFFFFFFFFFFFFFFFFFFFFFFFFFFFFFFF AND MUL OR SWAP1 SSTORE POP PUSH1 0x20 DUP3 ADD MLOAD DUP2 PUSH1 0x1 ADD SSTORE POP POP POP DUP1 DUP1 PUSH3 0x3593 SWAP1 PUSH3 0x631D JUMP JUMPDEST SWAP2 POP POP PUSH3 0x3379 JUMP JUMPDEST POP POP JUMP JUMPDEST PUSH1 0x16 PUSH1 0x0 SWAP1 SLOAD SWAP1 PUSH2 0x100 EXP SWAP1 DIV PUSH20 0xFFFFFFFFFFFFFFFFFFFFFFFFFFFFFFFFFFFFFFFF AND DUP2 JUMP JUMPDEST PUSH1 0x0 PUSH1 0x20 DUP1 SLOAD SWAP1 POP SWAP1 POP SWAP1 JUMP JUMPDEST PUSH3 0x35DD PUSH3 0x4523 JUMP JUMPDEST PUSH1 0x64 DUP2 DUP4 DUP6 PUSH3 0x35EE SWAP2 SWAP1 PUSH3 0x69CA JUMP JUMPDEST PUSH3 0x35FA SWAP2 SWAP1 PUSH3 0x69CA JUMP JUMPDEST EQ PUSH3 0x363D JUMPI PUSH1 0x40 MLOAD PUSH32 0x8C379A000000000000000000000000000000000000000000000000000000000 DUP2 MSTORE PUSH1 0x4 ADD PUSH3 0x3634 SWAP1 PUSH3 0x6687 JUMP JUMPDEST PUSH1 0x40 MLOAD DUP1 SWAP2 SUB SWAP1 REVERT JUMPDEST DUP3 PUSH1 0x12 DUP2 SWAP1 SSTORE POP DUP2 PUSH1 0x13 DUP2 SWAP1 SSTORE POP DUP1 PUSH1 0x14 DUP2 SWAP1 SSTORE POP POP POP POP JUMP JUMPDEST PUSH1 0x12 SLOAD DUP2 JUMP JUMPDEST PUSH1 0x21 PUSH1 0x20 MSTORE DUP1 PUSH1 0x0 MSTORE PUSH1 0x40 PUSH1 0x0 KECCAK256 PUSH1 0x0 SWAP2 POP SLOAD SWAP1 PUSH2 0x100 EXP SWAP1 DIV PUSH1 0xFF AND DUP2 JUMP JUMPDEST PUSH1 0xE SLOAD DUP2 JUMP JUMPDEST PUSH1 0xF SLOAD DUP2 JUMP JUMPDEST PUSH1 0x0 PUSH1 0x6 PUSH1 0x0 SWAP1 SLOAD SWAP1 PUSH2 0x100 EXP SWAP1 DIV PUSH20 0xFFFFFFFFFFFFFFFFFFFFFFFFFFFFFFFFFFFFFFFF AND SWAP1 POP SWAP1 JUMP JUMPDEST PUSH1 0x0 PUSH1 0x23 PUSH1 0x0 DUP4 PUSH20 0xFFFFFFFFFFFFFFFFFFFFFFFFFFFFFFFFFFFFFFFF AND PUSH20 0xFFFFFFFFFFFFFFFFFFFFFFFFFFFFFFFFFFFFFFFF AND DUP2 MSTORE PUSH1 0x20 ADD SWAP1 DUP2 MSTORE PUSH1 0x20 ADD PUSH1 0x0 KECCAK256 PUSH1 0x0 SWAP1 SLOAD SWAP1 PUSH2 0x100 EXP SWAP1 DIV PUSH1 0xFF AND SWAP1 POP SWAP2 SWAP1 POP JUMP JUMPDEST PUSH1 0x60 PUSH1 0x1 DUP1 SLOAD PUSH3 0x371A SWAP1 PUSH3 0x6399 JUMP JUMPDEST DUP1 PUSH1 0x1F ADD PUSH1 0x20 DUP1 SWAP2 DIV MUL PUSH1 0x20 ADD PUSH1 0x40 MLOAD SWAP1 DUP2 ADD PUSH1 0x40 MSTORE DUP1 SWAP3 SWAP2 SWAP1 DUP2 DUP2 MSTORE PUSH1 0x20 ADD DUP3 DUP1 SLOAD PUSH3 0x3748 SWAP1 PUSH3 0x6399 JUMP JUMPDEST DUP1 ISZERO PUSH3 0x3799 JUMPI DUP1 PUSH1 0x1F LT PUSH3 0x376D JUMPI PUSH2 0x100 DUP1 DUP4 SLOAD DIV MUL DUP4 MSTORE SWAP2 PUSH1 0x20 ADD SWAP2 PUSH3 0x3799 JUMP JUMPDEST DUP3 ADD SWAP2 SWAP1 PUSH1 0x0 MSTORE PUSH1 0x20 PUSH1 0x0 KECCAK256 SWAP1 JUMPDEST DUP2 SLOAD DUP2 MSTORE SWAP1 PUSH1 0x1 ADD SWAP1 PUSH1 0x20 ADD DUP1 DUP4 GT PUSH3 0x377B JUMPI DUP3 SWAP1 SUB PUSH1 0x1F AND DUP3 ADD SWAP2 JUMPDEST POP POP POP POP POP SWAP1 POP SWAP1 JUMP JUMPDEST PUSH3 0x37AD PUSH3 0x4523 JUMP JUMPDEST PUSH1 0x16 PUSH1 0x15 SWAP1 SLOAD SWAP1 PUSH2 0x100 EXP SWAP1 DIV PUSH1 0xFF AND ISZERO PUSH1 0x16 PUSH1 0x15 PUSH2 0x100 EXP DUP2 SLOAD DUP2 PUSH1 0xFF MUL NOT AND SWAP1 DUP4 ISZERO ISZERO MUL OR SWAP1 SSTORE POP JUMP JUMPDEST PUSH3 0x37E3 PUSH3 0x4523 JUMP JUMPDEST PUSH1 0x0 PUSH20 0xFFFFFFFFFFFFFFFFFFFFFFFFFFFFFFFFFFFFFFFF AND DUP2 PUSH20 0xFFFFFFFFFFFFFFFFFFFFFFFFFFFFFFFFFFFFFFFF AND SUB PUSH3 0x3855 JUMPI PUSH1 0x40 MLOAD PUSH32 0x8C379A000000000000000000000000000000000000000000000000000000000 DUP2 MSTORE PUSH1 0x4 ADD PUSH3 0x384C SWAP1 PUSH3 0x6AED JUMP JUMPDEST PUSH1 0x40 MLOAD DUP1 SWAP2 SUB SWAP1 REVERT JUMPDEST DUP1 PUSH1 0x7 PUSH1 0x0 PUSH2 0x100 EXP DUP2 SLOAD DUP2 PUSH20 0xFFFFFFFFFFFFFFFFFFFFFFFFFFFFFFFFFFFFFFFF MUL NOT AND SWAP1 DUP4 PUSH20 0xFFFFFFFFFFFFFFFFFFFFFFFFFFFFFFFFFFFFFFFF AND MUL OR SWAP1 SSTORE POP POP JUMP JUMPDEST PUSH3 0x38AF PUSH3 0x38A7 PUSH3 0x45F8 JUMP JUMPDEST DUP4 DUP4 PUSH3 0x4E27 JUMP JUMPDEST POP POP JUMP JUMPDEST PUSH1 0x1C DUP2 DUP2 SLOAD DUP2 LT PUSH3 0x38C4 JUMPI PUSH1 0x0 DUP1 REVERT JUMPDEST SWAP1 PUSH1 0x0 MSTORE PUSH1 0x20 PUSH1 0x0 KECCAK256 ADD PUSH1 0x0 SWAP2 POP SLOAD SWAP1 PUSH2 0x100 EXP SWAP1 DIV PUSH20 0xFFFFFFFFFFFFFFFFFFFFFFFFFFFFFFFFFFFFFFFF AND DUP2 JUMP JUMPDEST PUSH1 0xA PUSH1 0x0 SWAP1 SLOAD SWAP1 PUSH2 0x100 EXP SWAP1 DIV PUSH20 0xFFFFFFFFFFFFFFFFFFFFFFFFFFFFFFFFFFFFFFFF AND DUP2 JUMP JUMPDEST PUSH1 0x1F DUP2 DUP2 SLOAD DUP2 LT PUSH3 0x392A JUMPI PUSH1 0x0 DUP1 REVERT JUMPDEST SWAP1 PUSH1 0x0 MSTORE PUSH1 0x20 PUSH1 0x0 KECCAK256 ADD PUSH1 0x0 SWAP2 POP SLOAD SWAP1 PUSH2 0x100 EXP SWAP1 DIV PUSH20 0xFFFFFFFFFFFFFFFFFFFFFFFFFFFFFFFFFFFFFFFF AND DUP2 JUMP JUMPDEST PUSH1 0x19 PUSH1 0x0 SWAP1 SLOAD SWAP1 PUSH2 0x100 EXP SWAP1 DIV PUSH20 0xFFFFFFFFFFFFFFFFFFFFFFFFFFFFFFFFFFFFFFFF AND DUP2 JUMP JUMPDEST PUSH1 0xC SLOAD DUP2 JUMP JUMPDEST CALLER PUSH20 0xFFFFFFFFFFFFFFFFFFFFFFFFFFFFFFFFFFFFFFFF AND DUP5 PUSH20 0xFFFFFFFFFFFFFFFFFFFFFFFFFFFFFFFFFFFFFFFF AND EQ DUP1 ISZERO PUSH3 0x39EC JUMPI POP CALLER PUSH20 0xFFFFFFFFFFFFFFFFFFFFFFFFFFFFFFFFFFFFFFFF AND DUP4 PUSH20 0xFFFFFFFFFFFFFFFFFFFFFFFFFFFFFFFFFFFFFFFF AND EQ JUMPDEST PUSH3 0x3A2E JUMPI PUSH1 0x40 MLOAD PUSH32 0x8C379A000000000000000000000000000000000000000000000000000000000 DUP2 MSTORE PUSH1 0x4 ADD PUSH3 0x3A25 SWAP1 PUSH3 0x654E JUMP JUMPDEST PUSH1 0x40 MLOAD DUP1 SWAP2 SUB SWAP1 REVERT JUMPDEST PUSH3 0x3A43 PUSH3 0x3A3C PUSH3 0x45F8 JUMP JUMPDEST DUP4 PUSH3 0x46BB JUMP JUMPDEST PUSH3 0x3A85 JUMPI PUSH1 0x40 MLOAD PUSH32 0x8C379A000000000000000000000000000000000000000000000000000000000 DUP2 MSTORE PUSH1 0x4 ADD PUSH3 0x3A7C SWAP1 PUSH3 0x65E6 JUMP JUMPDEST PUSH1 0x40 MLOAD DUP1 SWAP2 SUB SWAP1 REVERT JUMPDEST PUSH3 0x3A93 DUP5 DUP5 DUP5 DUP5 PUSH3 0x4F98 JUMP JUMPDEST POP POP POP POP JUMP JUMPDEST PUSH3 0x3AA3 PUSH3 0x4523 JUMP JUMPDEST DUP1 PUSH1 0x18 PUSH1 0x0 PUSH2 0x100 EXP DUP2 SLOAD DUP2 PUSH20 0xFFFFFFFFFFFFFFFFFFFFFFFFFFFFFFFFFFFFFFFF MUL NOT AND SWAP1 DUP4 PUSH20 0xFFFFFFFFFFFFFFFFFFFFFFFFFFFFFFFFFFFFFFFF AND MUL OR SWAP1 SSTORE POP POP JUMP JUMPDEST PUSH1 0x0 PUSH1 0x25 PUSH1 0x0 DUP4 PUSH20 0xFFFFFFFFFFFFFFFFFFFFFFFFFFFFFFFFFFFFFFFF AND PUSH20 0xFFFFFFFFFFFFFFFFFFFFFFFFFFFFFFFFFFFFFFFF AND DUP2 MSTORE PUSH1 0x20 ADD SWAP1 DUP2 MSTORE PUSH1 0x20 ADD PUSH1 0x0 KECCAK256 PUSH1 0x0 SWAP1 SLOAD SWAP1 PUSH2 0x100 EXP SWAP1 DIV PUSH20 0xFFFFFFFFFFFFFFFFFFFFFFFFFFFFFFFFFFFFFFFF AND SWAP1 POP SWAP2 SWAP1 POP JUMP JUMPDEST PUSH1 0x0 DUP1 PUSH1 0x7 PUSH1 0x0 SWAP1 SLOAD SWAP1 PUSH2 0x100 EXP SWAP1 DIV PUSH20 0xFFFFFFFFFFFFFFFFFFFFFFFFFFFFFFFFFFFFFFFF AND PUSH20 0xFFFFFFFFFFFFFFFFFFFFFFFFFFFFFFFFFFFFFFFF AND PUSH4 0x1959A002 DUP5 PUSH1 0x40 MLOAD DUP3 PUSH4 0xFFFFFFFF AND PUSH1 0xE0 SHL DUP2 MSTORE PUSH1 0x4 ADD PUSH3 0x3BB0 SWAP2 SWAP1 PUSH3 0x57D0 JUMP JUMPDEST PUSH1 0x0 PUSH1 0x40 MLOAD DUP1 DUP4 SUB DUP2 DUP7 GAS STATICCALL ISZERO DUP1 ISZERO PUSH3 0x3BCE JUMPI RETURNDATASIZE PUSH1 0x0 DUP1 RETURNDATACOPY RETURNDATASIZE PUSH1 0x0 REVERT JUMPDEST POP POP POP POP PUSH1 0x40 MLOAD RETURNDATASIZE PUSH1 0x0 DUP3 RETURNDATACOPY RETURNDATASIZE PUSH1 0x1F NOT PUSH1 0x1F DUP3 ADD AND DUP3 ADD DUP1 PUSH1 0x40 MSTORE POP DUP2 ADD SWAP1 PUSH3 0x3BF9 SWAP2 SWAP1 PUSH3 0x6B8D JUMP JUMPDEST POP POP POP POP SWAP1 POP DUP1 SWAP2 POP POP SWAP2 SWAP1 POP JUMP JUMPDEST PUSH1 0x1B PUSH1 0x0 SWAP1 SLOAD SWAP1 PUSH2 0x100 EXP SWAP1 DIV PUSH20 0xFFFFFFFFFFFFFFFFFFFFFFFFFFFFFFFFFFFFFFFF AND PUSH20 0xFFFFFFFFFFFFFFFFFFFFFFFFFFFFFFFFFFFFFFFF AND CALLER PUSH20 0xFFFFFFFFFFFFFFFFFFFFFFFFFFFFFFFFFFFFFFFF AND EQ PUSH3 0x3C9B JUMPI PUSH1 0x40 MLOAD PUSH32 0x8C379A000000000000000000000000000000000000000000000000000000000 DUP2 MSTORE PUSH1 0x4 ADD PUSH3 0x3C92 SWAP1 PUSH3 0x6CA3 JUMP JUMPDEST PUSH1 0x40 MLOAD DUP1 SWAP2 SUB SWAP1 REVERT JUMPDEST PUSH1 0x16 PUSH1 0x14 SWAP1 SLOAD SWAP1 PUSH2 0x100 EXP SWAP1 DIV PUSH1 0xFF AND ISZERO PUSH1 0x16 PUSH1 0x14 PUSH2 0x100 EXP DUP2 SLOAD DUP2 PUSH1 0xFF MUL NOT AND SWAP1 DUP4 ISZERO ISZERO MUL OR SWAP1 SSTORE POP JUMP JUMPDEST PUSH1 0x20 DUP2 DUP2 SLOAD DUP2 LT PUSH3 0x3CD8 JUMPI PUSH1 0x0 DUP1 REVERT JUMPDEST SWAP1 PUSH1 0x0 MSTORE PUSH1 0x20 PUSH1 0x0 KECCAK256 SWAP1 PUSH1 0x2 MUL ADD PUSH1 0x0 SWAP2 POP SWAP1 POP DUP1 PUSH1 0x0 ADD PUSH1 0x0 SWAP1 SLOAD SWAP1 PUSH2 0x100 EXP SWAP1 DIV PUSH20 0xFFFFFFFFFFFFFFFFFFFFFFFFFFFFFFFFFFFFFFFF AND SWAP1 DUP1 PUSH1 0x1 ADD SLOAD SWAP1 POP DUP3 JUMP JUMPDEST PUSH1 0x9 DUP1 SLOAD PUSH3 0x3D2B SWAP1 PUSH3 0x6399 JUMP JUMPDEST DUP1 PUSH1 0x1F ADD PUSH1 0x20 DUP1 SWAP2 DIV MUL PUSH1 0x20 ADD PUSH1 0x40 MLOAD SWAP1 DUP2 ADD PUSH1 0x40 MSTORE DUP1 SWAP3 SWAP2 SWAP1 DUP2 DUP2 MSTORE PUSH1 0x20 ADD DUP3 DUP1 SLOAD PUSH3 0x3D59 SWAP1 PUSH3 0x6399 JUMP JUMPDEST DUP1 ISZERO PUSH3 0x3DAA JUMPI DUP1 PUSH1 0x1F LT PUSH3 0x3D7E JUMPI PUSH2 0x100 DUP1 DUP4 SLOAD DIV MUL DUP4 MSTORE SWAP2 PUSH1 0x20 ADD SWAP2 PUSH3 0x3DAA JUMP JUMPDEST DUP3 ADD SWAP2 SWAP1 PUSH1 0x0 MSTORE PUSH1 0x20 PUSH1 0x0 KECCAK256 SWAP1 JUMPDEST DUP2 SLOAD DUP2 MSTORE SWAP1 PUSH1 0x1 ADD SWAP1 PUSH1 0x20 ADD DUP1 DUP4 GT PUSH3 0x3D8C JUMPI DUP3 SWAP1 SUB PUSH1 0x1F AND DUP3 ADD SWAP2 JUMPDEST POP POP POP POP POP DUP2 JUMP JUMPDEST PUSH1 0x60 PUSH3 0x3DBF DUP3 PUSH3 0x4FFB JUMP JUMPDEST PUSH3 0x3E01 JUMPI PUSH1 0x40 MLOAD PUSH32 0x8C379A000000000000000000000000000000000000000000000000000000000 DUP2 MSTORE PUSH1 0x4 ADD PUSH3 0x3DF8 SWAP1 PUSH3 0x6D3B JUMP JUMPDEST PUSH1 0x40 MLOAD DUP1 SWAP2 SUB SWAP1 REVERT JUMPDEST PUSH1 0x0 PUSH3 0x3E0D PUSH3 0x503E JUMP JUMPDEST SWAP1 POP PUSH1 0x0 DUP2 MLOAD GT PUSH3 0x3E2F JUMPI PUSH1 0x40 MLOAD DUP1 PUSH1 0x20 ADD PUSH1 0x40 MSTORE DUP1 PUSH1 0x0 DUP2 MSTORE POP PUSH3 0x3E61 JUMP JUMPDEST DUP1 PUSH3 0x3E3B DUP5 PUSH3 0x50D8 JUMP JUMPDEST PUSH1 0x9 PUSH1 0x40 MLOAD PUSH1 0x20 ADD PUSH3 0x3E51 SWAP4 SWAP3 SWAP2 SWAP1 PUSH3 0x6E2E JUMP JUMPDEST PUSH1 0x40 MLOAD PUSH1 0x20 DUP2 DUP4 SUB SUB DUP2 MSTORE SWAP1 PUSH1 0x40 MSTORE JUMPDEST SWAP2 POP POP SWAP2 SWAP1 POP JUMP JUMPDEST PUSH3 0x3E73 PUSH3 0x4523 JUMP JUMPDEST DUP1 PUSH1 0x1E PUSH1 0x0 PUSH2 0x100 EXP DUP2 SLOAD DUP2 PUSH20 0xFFFFFFFFFFFFFFFFFFFFFFFFFFFFFFFFFFFFFFFF MUL NOT AND SWAP1 DUP4 PUSH20 0xFFFFFFFFFFFFFFFFFFFFFFFFFFFFFFFFFFFFFFFF AND MUL OR SWAP1 SSTORE POP POP JUMP JUMPDEST PUSH1 0x17 SLOAD DUP2 JUMP JUMPDEST PUSH1 0x25 PUSH1 0x20 MSTORE DUP1 PUSH1 0x0 MSTORE PUSH1 0x40 PUSH1 0x0 KECCAK256 PUSH1 0x0 SWAP2 POP SLOAD SWAP1 PUSH2 0x100 EXP SWAP1 DIV PUSH20 0xFFFFFFFFFFFFFFFFFFFFFFFFFFFFFFFFFFFFFFFF AND DUP2 JUMP JUMPDEST PUSH1 0xD SLOAD DUP2 JUMP JUMPDEST PUSH1 0x1A PUSH1 0x0 SWAP1 SLOAD SWAP1 PUSH2 0x100 EXP SWAP1 DIV PUSH20 0xFFFFFFFFFFFFFFFFFFFFFFFFFFFFFFFFFFFFFFFF AND DUP2 JUMP JUMPDEST PUSH1 0x0 PUSH1 0x22 PUSH1 0x0 DUP4 PUSH20 0xFFFFFFFFFFFFFFFFFFFFFFFFFFFFFFFFFFFFFFFF AND PUSH20 0xFFFFFFFFFFFFFFFFFFFFFFFFFFFFFFFFFFFFFFFF AND DUP2 MSTORE PUSH1 0x20 ADD SWAP1 DUP2 MSTORE PUSH1 0x20 ADD PUSH1 0x0 KECCAK256 SLOAD SWAP1 POP SWAP2 SWAP1 POP JUMP JUMPDEST PUSH1 0x0 PUSH1 0x5 PUSH1 0x0 DUP5 PUSH20 0xFFFFFFFFFFFFFFFFFFFFFFFFFFFFFFFFFFFFFFFF AND PUSH20 0xFFFFFFFFFFFFFFFFFFFFFFFFFFFFFFFFFFFFFFFF AND DUP2 MSTORE PUSH1 0x20 ADD SWAP1 DUP2 MSTORE PUSH1 0x20 ADD PUSH1 0x0 KECCAK256 PUSH1 0x0 DUP4 PUSH20 0xFFFFFFFFFFFFFFFFFFFFFFFFFFFFFFFFFFFFFFFF AND PUSH20 0xFFFFFFFFFFFFFFFFFFFFFFFFFFFFFFFFFFFFFFFF AND DUP2 MSTORE PUSH1 0x20 ADD SWAP1 DUP2 MSTORE PUSH1 0x20 ADD PUSH1 0x0 KECCAK256 PUSH1 0x0 SWAP1 SLOAD SWAP1 PUSH2 0x100 EXP SWAP1 DIV PUSH1 0xFF AND SWAP1 POP SWAP3 SWAP2 POP POP JUMP JUMPDEST PUSH3 0x4003 PUSH3 0x4523 JUMP JUMPDEST DUP1 PUSH1 0x19 PUSH1 0x0 PUSH2 0x100 EXP DUP2 SLOAD DUP2 PUSH20 0xFFFFFFFFFFFFFFFFFFFFFFFFFFFFFFFFFFFFFFFF MUL NOT AND SWAP1 DUP4 PUSH20 0xFFFFFFFFFFFFFFFFFFFFFFFFFFFFFFFFFFFFFFFF AND MUL OR SWAP1 SSTORE POP POP JUMP JUMPDEST PUSH3 0x4051 PUSH3 0x4523 JUMP JUMPDEST PUSH1 0x0 PUSH20 0xFFFFFFFFFFFFFFFFFFFFFFFFFFFFFFFFFFFFFFFF AND DUP2 PUSH20 0xFFFFFFFFFFFFFFFFFFFFFFFFFFFFFFFFFFFFFFFF AND SUB PUSH3 0x40C3 JUMPI PUSH1 0x40 MLOAD PUSH32 0x8C379A000000000000000000000000000000000000000000000000000000000 DUP2 MSTORE PUSH1 0x4 ADD PUSH3 0x40BA SWAP1 PUSH3 0x6EDB JUMP JUMPDEST PUSH1 0x40 MLOAD DUP1 SWAP2 SUB SWAP1 REVERT JUMPDEST PUSH3 0x40CE DUP2 PUSH3 0x4C75 JUMP JUMPDEST POP JUMP JUMPDEST PUSH3 0x40DB PUSH3 0x4523 JUMP JUMPDEST DUP1 PUSH1 0x1A PUSH1 0x0 PUSH2 0x100 EXP DUP2 SLOAD DUP2 PUSH20 0xFFFFFFFFFFFFFFFFFFFFFFFFFFFFFFFFFFFFFFFF MUL NOT AND SWAP1 DUP4 PUSH20 0xFFFFFFFFFFFFFFFFFFFFFFFFFFFFFFFFFFFFFFFF AND MUL OR SWAP1 SSTORE POP POP JUMP JUMPDEST PUSH1 0x1E PUSH1 0x0 SWAP1 SLOAD SWAP1 PUSH2 0x100 EXP SWAP1 DIV PUSH20 0xFFFFFFFFFFFFFFFFFFFFFFFFFFFFFFFFFFFFFFFF AND DUP2 JUMP JUMPDEST PUSH1 0x0 PUSH32 0x1FFC9A700000000000000000000000000000000000000000000000000000000 PUSH28 0xFFFFFFFFFFFFFFFFFFFFFFFFFFFFFFFFFFFFFFFFFFFFFFFFFFFFFFFF NOT AND DUP3 PUSH28 0xFFFFFFFFFFFFFFFFFFFFFFFFFFFFFFFFFFFFFFFFFFFFFFFFFFFFFFFF NOT AND EQ SWAP1 POP SWAP2 SWAP1 POP JUMP JUMPDEST PUSH1 0x0 DUP1 DUP6 PUSH20 0xFFFFFFFFFFFFFFFFFFFFFFFFFFFFFFFFFFFFFFFF AND PUSH4 0x23B872DD DUP7 DUP7 DUP7 PUSH1 0x40 MLOAD PUSH1 0x24 ADD PUSH3 0x41E5 SWAP4 SWAP3 SWAP2 SWAP1 PUSH3 0x6EFD JUMP JUMPDEST PUSH1 0x40 MLOAD PUSH1 0x20 DUP2 DUP4 SUB SUB DUP2 MSTORE SWAP1 PUSH1 0x40 MSTORE SWAP1 PUSH1 0xE0 SHL PUSH1 0x20 DUP3 ADD DUP1 MLOAD PUSH28 0xFFFFFFFFFFFFFFFFFFFFFFFFFFFFFFFFFFFFFFFFFFFFFFFFFFFFFFFF DUP4 DUP2 DUP4 AND OR DUP4 MSTORE POP POP POP POP PUSH1 0x40 MLOAD PUSH3 0x4235 SWAP2 SWAP1 PUSH3 0x6F87 JUMP JUMPDEST PUSH1 0x0 PUSH1 0x40 MLOAD DUP1 DUP4 SUB DUP2 PUSH1 0x0 DUP7 GAS CALL SWAP2 POP POP RETURNDATASIZE DUP1 PUSH1 0x0 DUP2 EQ PUSH3 0x4274 JUMPI PUSH1 0x40 MLOAD SWAP2 POP PUSH1 0x1F NOT PUSH1 0x3F RETURNDATASIZE ADD AND DUP3 ADD PUSH1 0x40 MSTORE RETURNDATASIZE DUP3 MSTORE RETURNDATASIZE PUSH1 0x0 PUSH1 0x20 DUP5 ADD RETURNDATACOPY PUSH3 0x4279 JUMP JUMPDEST PUSH1 0x60 SWAP2 POP JUMPDEST POP SWAP2 POP SWAP2 POP DUP2 DUP1 ISZERO PUSH3 0x42AB JUMPI POP PUSH1 0x0 DUP2 MLOAD EQ DUP1 PUSH3 0x42AA JUMPI POP DUP1 DUP1 PUSH1 0x20 ADD SWAP1 MLOAD DUP2 ADD SWAP1 PUSH3 0x42A9 SWAP2 SWAP1 PUSH3 0x623E JUMP JUMPDEST JUMPDEST JUMPDEST PUSH3 0x42ED JUMPI PUSH1 0x40 MLOAD PUSH32 0x8C379A000000000000000000000000000000000000000000000000000000000 DUP2 MSTORE PUSH1 0x4 ADD PUSH3 0x42E4 SWAP1 PUSH3 0x7016 JUMP JUMPDEST PUSH1 0x40 MLOAD DUP1 SWAP2 SUB SWAP1 REVERT JUMPDEST POP POP POP POP POP POP JUMP JUMPDEST PUSH1 0x0 PUSH20 0xFFFFFFFFFFFFFFFFFFFFFFFFFFFFFFFFFFFFFFFF AND DUP3 PUSH20 0xFFFFFFFFFFFFFFFFFFFFFFFFFFFFFFFFFFFFFFFF AND SUB PUSH3 0x4367 JUMPI PUSH1 0x40 MLOAD PUSH32 0x8C379A000000000000000000000000000000000000000000000000000000000 DUP2 MSTORE PUSH1 0x4 ADD PUSH3 0x435E SWAP1 PUSH3 0x7088 JUMP JUMPDEST PUSH1 0x40 MLOAD DUP1 SWAP2 SUB SWAP1 REVERT JUMPDEST PUSH3 0x4372 DUP2 PUSH3 0x4FFB JUMP JUMPDEST ISZERO PUSH3 0x43B5 JUMPI PUSH1 0x40 MLOAD PUSH32 0x8C379A000000000000000000000000000000000000000000000000000000000 DUP2 MSTORE PUSH1 0x4 ADD PUSH3 0x43AC SWAP1 PUSH3 0x70FA JUMP JUMPDEST PUSH1 0x40 MLOAD DUP1 SWAP2 SUB SWAP1 REVERT JUMPDEST PUSH3 0x43C5 PUSH1 0x0 DUP4 DUP4 PUSH1 0x1 PUSH3 0x51B1 JUMP JUMPDEST PUSH3 0x43D0 DUP2 PUSH3 0x4FFB JUMP JUMPDEST ISZERO PUSH3 0x4413 JUMPI PUSH1 0x40 MLOAD PUSH32 0x8C379A000000000000000000000000000000000000000000000000000000000 DUP2 MSTORE PUSH1 0x4 ADD PUSH3 0x440A SWAP1 PUSH3 0x70FA JUMP JUMPDEST PUSH1 0x40 MLOAD DUP1 SWAP2 SUB SWAP1 REVERT JUMPDEST PUSH1 0x1 PUSH1 0x3 PUSH1 0x0 DUP5 PUSH20 0xFFFFFFFFFFFFFFFFFFFFFFFFFFFFFFFFFFFFFFFF AND PUSH20 0xFFFFFFFFFFFFFFFFFFFFFFFFFFFFFFFFFFFFFFFF AND DUP2 MSTORE PUSH1 0x20 ADD SWAP1 DUP2 MSTORE PUSH1 0x20 ADD PUSH1 0x0 KECCAK256 PUSH1 0x0 DUP3 DUP3 SLOAD ADD SWAP3 POP POP DUP2 SWAP1 SSTORE POP DUP2 PUSH1 0x2 PUSH1 0x0 DUP4 DUP2 MSTORE PUSH1 0x20 ADD SWAP1 DUP2 MSTORE PUSH1 0x20 ADD PUSH1 0x0 KECCAK256 PUSH1 0x0 PUSH2 0x100 EXP DUP2 SLOAD DUP2 PUSH20 0xFFFFFFFFFFFFFFFFFFFFFFFFFFFFFFFFFFFFFFFF MUL NOT AND SWAP1 DUP4 PUSH20 0xFFFFFFFFFFFFFFFFFFFFFFFFFFFFFFFFFFFFFFFF AND MUL OR SWAP1 SSTORE POP DUP1 DUP3 PUSH20 0xFFFFFFFFFFFFFFFFFFFFFFFFFFFFFFFFFFFFFFFF AND PUSH1 0x0 PUSH20 0xFFFFFFFFFFFFFFFFFFFFFFFFFFFFFFFFFFFFFFFF AND PUSH32 0xDDF252AD1BE2C89B69C2B068FC378DAA952BA7F163C4A11628F55A4DF523B3EF PUSH1 0x40 MLOAD PUSH1 0x40 MLOAD DUP1 SWAP2 SUB SWAP1 LOG4 PUSH3 0x451F PUSH1 0x0 DUP4 DUP4 PUSH1 0x1 PUSH3 0x51B7 JUMP JUMPDEST POP POP JUMP JUMPDEST PUSH3 0x452D PUSH3 0x45F8 JUMP JUMPDEST PUSH20 0xFFFFFFFFFFFFFFFFFFFFFFFFFFFFFFFFFFFFFFFF AND PUSH3 0x454D PUSH3 0x3689 JUMP JUMPDEST PUSH20 0xFFFFFFFFFFFFFFFFFFFFFFFFFFFFFFFFFFFFFFFF AND EQ PUSH3 0x45A6 JUMPI PUSH1 0x40 MLOAD PUSH32 0x8C379A000000000000000000000000000000000000000000000000000000000 DUP2 MSTORE PUSH1 0x4 ADD PUSH3 0x459D SWAP1 PUSH3 0x716C JUMP JUMPDEST PUSH1 0x40 MLOAD DUP1 SWAP2 SUB SWAP1 REVERT JUMPDEST JUMP JUMPDEST PUSH3 0x45B3 DUP2 PUSH3 0x4FFB JUMP JUMPDEST PUSH3 0x45F5 JUMPI PUSH1 0x40 MLOAD PUSH32 0x8C379A000000000000000000000000000000000000000000000000000000000 DUP2 MSTORE PUSH1 0x4 ADD PUSH3 0x45EC SWAP1 PUSH3 0x69A8 JUMP JUMPDEST PUSH1 0x40 MLOAD DUP1 SWAP2 SUB SWAP1 REVERT JUMPDEST POP JUMP JUMPDEST PUSH1 0x0 CALLER SWAP1 POP SWAP1 JUMP JUMPDEST DUP2 PUSH1 0x4 PUSH1 0x0 DUP4 DUP2 MSTORE PUSH1 0x20 ADD SWAP1 DUP2 MSTORE PUSH1 0x20 ADD PUSH1 0x0 KECCAK256 PUSH1 0x0 PUSH2 0x100 EXP DUP2 SLOAD DUP2 PUSH20 0xFFFFFFFFFFFFFFFFFFFFFFFFFFFFFFFFFFFFFFFF MUL NOT AND SWAP1 DUP4 PUSH20 0xFFFFFFFFFFFFFFFFFFFFFFFFFFFFFFFFFFFFFFFF AND MUL OR SWAP1 SSTORE POP DUP1 DUP3 PUSH20 0xFFFFFFFFFFFFFFFFFFFFFFFFFFFFFFFFFFFFFFFF AND PUSH3 0x4675 DUP4 PUSH3 0x30D5 JUMP JUMPDEST PUSH20 0xFFFFFFFFFFFFFFFFFFFFFFFFFFFFFFFFFFFFFFFF AND PUSH32 0x8C5BE1E5EBEC7D5BD14F71427D1E84F3DD0314C0F7B2291E5B200AC8C7C3B925 PUSH1 0x40 MLOAD PUSH1 0x40 MLOAD DUP1 SWAP2 SUB SWAP1 LOG4 POP POP JUMP JUMPDEST PUSH1 0x0 DUP1 PUSH3 0x46C9 DUP4 PUSH3 0x30D5 JUMP JUMPDEST SWAP1 POP DUP1 PUSH20 0xFFFFFFFFFFFFFFFFFFFFFFFFFFFFFFFFFFFFFFFF AND DUP5 PUSH20 0xFFFFFFFFFFFFFFFFFFFFFFFFFFFFFFFFFFFFFFFF AND EQ DUP1 PUSH3 0x470E JUMPI POP PUSH3 0x470D DUP2 DUP6 PUSH3 0x3F65 JUMP JUMPDEST JUMPDEST DUP1 PUSH3 0x474F JUMPI POP DUP4 PUSH20 0xFFFFFFFFFFFFFFFFFFFFFFFFFFFFFFFFFFFFFFFF AND PUSH3 0x4737 DUP5 PUSH3 0x2A68 JUMP JUMPDEST PUSH20 0xFFFFFFFFFFFFFFFFFFFFFFFFFFFFFFFFFFFFFFFF AND EQ JUMPDEST SWAP2 POP POP SWAP3 SWAP2 POP POP JUMP JUMPDEST DUP3 PUSH20 0xFFFFFFFFFFFFFFFFFFFFFFFFFFFFFFFFFFFFFFFF AND PUSH3 0x477A DUP3 PUSH3 0x30D5 JUMP JUMPDEST PUSH20 0xFFFFFFFFFFFFFFFFFFFFFFFFFFFFFFFFFFFFFFFF AND EQ PUSH3 0x47D3 JUMPI PUSH1 0x40 MLOAD PUSH32 0x8C379A000000000000000000000000000000000000000000000000000000000 DUP2 MSTORE PUSH1 0x4 ADD PUSH3 0x47CA SWAP1 PUSH3 0x7204 JUMP JUMPDEST PUSH1 0x40 MLOAD DUP1 SWAP2 SUB SWAP1 REVERT JUMPDEST PUSH1 0x0 PUSH20 0xFFFFFFFFFFFFFFFFFFFFFFFFFFFFFFFFFFFFFFFF AND DUP3 PUSH20 0xFFFFFFFFFFFFFFFFFFFFFFFFFFFFFFFFFFFFFFFF AND SUB PUSH3 0x4845 JUMPI PUSH1 0x40 MLOAD PUSH32 0x8C379A000000000000000000000000000000000000000000000000000000000 DUP2 MSTORE PUSH1 0x4 ADD PUSH3 0x483C SWAP1 PUSH3 0x729C JUMP JUMPDEST PUSH1 0x40 MLOAD DUP1 SWAP2 SUB SWAP1 REVERT JUMPDEST PUSH3 0x4854 DUP4 DUP4 DUP4 PUSH1 0x1 PUSH3 0x51B1 JUMP JUMPDEST DUP3 PUSH20 0xFFFFFFFFFFFFFFFFFFFFFFFFFFFFFFFFFFFFFFFF AND PUSH3 0x4876 DUP3 PUSH3 0x30D5 JUMP JUMPDEST PUSH20 0xFFFFFFFFFFFFFFFFFFFFFFFFFFFFFFFFFFFFFFFF AND EQ PUSH3 0x48CF JUMPI PUSH1 0x40 MLOAD PUSH32 0x8C379A000000000000000000000000000000000000000000000000000000000 DUP2 MSTORE PUSH1 0x4 ADD PUSH3 0x48C6 SWAP1 PUSH3 0x7204 JUMP JUMPDEST PUSH1 0x40 MLOAD DUP1 SWAP2 SUB SWAP1 REVERT JUMPDEST PUSH1 0x4 PUSH1 0x0 DUP3 DUP2 MSTORE PUSH1 0x20 ADD SWAP1 DUP2 MSTORE PUSH1 0x20 ADD PUSH1 0x0 KECCAK256 PUSH1 0x0 PUSH2 0x100 EXP DUP2 SLOAD SWAP1 PUSH20 0xFFFFFFFFFFFFFFFFFFFFFFFFFFFFFFFFFFFFFFFF MUL NOT AND SWAP1 SSTORE PUSH1 0x1 PUSH1 0x3 PUSH1 0x0 DUP6 PUSH20 0xFFFFFFFFFFFFFFFFFFFFFFFFFFFFFFFFFFFFFFFF AND PUSH20 0xFFFFFFFFFFFFFFFFFFFFFFFFFFFFFFFFFFFFFFFF AND DUP2 MSTORE PUSH1 0x20 ADD SWAP1 DUP2 MSTORE PUSH1 0x20 ADD PUSH1 0x0 KECCAK256 PUSH1 0x0 DUP3 DUP3 SLOAD SUB SWAP3 POP POP DUP2 SWAP1 SSTORE POP PUSH1 0x1 PUSH1 0x3 PUSH1 0x0 DUP5 PUSH20 0xFFFFFFFFFFFFFFFFFFFFFFFFFFFFFFFFFFFFFFFF AND PUSH20 0xFFFFFFFFFFFFFFFFFFFFFFFFFFFFFFFFFFFFFFFF AND DUP2 MSTORE PUSH1 0x20 ADD SWAP1 DUP2 MSTORE PUSH1 0x20 ADD PUSH1 0x0 KECCAK256 PUSH1 0x0 DUP3 DUP3 SLOAD ADD SWAP3 POP POP DUP2 SWAP1 SSTORE POP DUP2 PUSH1 0x2 PUSH1 0x0 DUP4 DUP2 MSTORE PUSH1 0x20 ADD SWAP1 DUP2 MSTORE PUSH1 0x20 ADD PUSH1 0x0 KECCAK256 PUSH1 0x0 PUSH2 0x100 EXP DUP2 SLOAD DUP2 PUSH20 0xFFFFFFFFFFFFFFFFFFFFFFFFFFFFFFFFFFFFFFFF MUL NOT AND SWAP1 DUP4 PUSH20 0xFFFFFFFFFFFFFFFFFFFFFFFFFFFFFFFFFFFFFFFF AND MUL OR SWAP1 SSTORE POP DUP1 DUP3 PUSH20 0xFFFFFFFFFFFFFFFFFFFFFFFFFFFFFFFFFFFFFFFF AND DUP5 PUSH20 0xFFFFFFFFFFFFFFFFFFFFFFFFFFFFFFFFFFFFFFFF AND PUSH32 0xDDF252AD1BE2C89B69C2B068FC378DAA952BA7F163C4A11628F55A4DF523B3EF PUSH1 0x40 MLOAD PUSH1 0x40 MLOAD DUP1 SWAP2 SUB SWAP1 LOG4 PUSH3 0x4A5D DUP4 DUP4 DUP4 PUSH1 0x1 PUSH3 0x51B7 JUMP JUMPDEST POP POP POP JUMP JUMPDEST PUSH1 0x0 JUMPDEST PUSH1 0x20 DUP1 SLOAD SWAP1 POP DUP2 LT ISZERO PUSH3 0x4C34 JUMPI DUP2 PUSH20 0xFFFFFFFFFFFFFFFFFFFFFFFFFFFFFFFFFFFFFFFF AND PUSH1 0x20 DUP3 DUP2 SLOAD DUP2 LT PUSH3 0x4AA1 JUMPI PUSH3 0x4AA0 PUSH3 0x6608 JUMP JUMPDEST JUMPDEST SWAP1 PUSH1 0x0 MSTORE PUSH1 0x20 PUSH1 0x0 KECCAK256 SWAP1 PUSH1 0x2 MUL ADD PUSH1 0x0 ADD PUSH1 0x0 SWAP1 SLOAD SWAP1 PUSH2 0x100 EXP SWAP1 DIV PUSH20 0xFFFFFFFFFFFFFFFFFFFFFFFFFFFFFFFFFFFFFFFF AND PUSH20 0xFFFFFFFFFFFFFFFFFFFFFFFFFFFFFFFFFFFFFFFF AND SUB PUSH3 0x4C1E JUMPI PUSH1 0x20 PUSH1 0x1 PUSH1 0x20 DUP1 SLOAD SWAP1 POP PUSH3 0x4B05 SWAP2 SWAP1 PUSH3 0x72BE JUMP JUMPDEST DUP2 SLOAD DUP2 LT PUSH3 0x4B19 JUMPI PUSH3 0x4B18 PUSH3 0x6608 JUMP JUMPDEST JUMPDEST SWAP1 PUSH1 0x0 MSTORE PUSH1 0x20 PUSH1 0x0 KECCAK256 SWAP1 PUSH1 0x2 MUL ADD PUSH1 0x20 DUP3 DUP2 SLOAD DUP2 LT PUSH3 0x4B3E JUMPI PUSH3 0x4B3D PUSH3 0x6608 JUMP JUMPDEST JUMPDEST SWAP1 PUSH1 0x0 MSTORE PUSH1 0x20 PUSH1 0x0 KECCAK256 SWAP1 PUSH1 0x2 MUL ADD PUSH1 0x0 DUP3 ADD PUSH1 0x0 SWAP1 SLOAD SWAP1 PUSH2 0x100 EXP SWAP1 DIV PUSH20 0xFFFFFFFFFFFFFFFFFFFFFFFFFFFFFFFFFFFFFFFF AND DUP2 PUSH1 0x0 ADD PUSH1 0x0 PUSH2 0x100 EXP DUP2 SLOAD DUP2 PUSH20 0xFFFFFFFFFFFFFFFFFFFFFFFFFFFFFFFFFFFFFFFF MUL NOT AND SWAP1 DUP4 PUSH20 0xFFFFFFFFFFFFFFFFFFFFFFFFFFFFFFFFFFFFFFFF AND MUL OR SWAP1 SSTORE POP PUSH1 0x1 DUP3 ADD SLOAD DUP2 PUSH1 0x1 ADD SSTORE SWAP1 POP POP PUSH1 0x20 DUP1 SLOAD DUP1 PUSH3 0x4BD5 JUMPI PUSH3 0x4BD4 PUSH3 0x72F9 JUMP JUMPDEST JUMPDEST PUSH1 0x1 SWAP1 SUB DUP2 DUP2 SWAP1 PUSH1 0x0 MSTORE PUSH1 0x20 PUSH1 0x0 KECCAK256 SWAP1 PUSH1 0x2 MUL ADD PUSH1 0x0 DUP1 DUP3 ADD PUSH1 0x0 PUSH2 0x100 EXP DUP2 SLOAD SWAP1 PUSH20 0xFFFFFFFFFFFFFFFFFFFFFFFFFFFFFFFFFFFFFFFF MUL NOT AND SWAP1 SSTORE PUSH1 0x1 DUP3 ADD PUSH1 0x0 SWAP1 SSTORE POP POP SWAP1 SSTORE JUMPDEST DUP1 DUP1 PUSH3 0x4C2B SWAP1 PUSH3 0x631D JUMP JUMPDEST SWAP2 POP POP PUSH3 0x4A65 JUMP JUMPDEST POP POP JUMP JUMPDEST PUSH1 0x0 PUSH1 0x2 PUSH1 0x0 DUP4 DUP2 MSTORE PUSH1 0x20 ADD SWAP1 DUP2 MSTORE PUSH1 0x20 ADD PUSH1 0x0 KECCAK256 PUSH1 0x0 SWAP1 SLOAD SWAP1 PUSH2 0x100 EXP SWAP1 DIV PUSH20 0xFFFFFFFFFFFFFFFFFFFFFFFFFFFFFFFFFFFFFFFF AND SWAP1 POP SWAP2 SWAP1 POP JUMP JUMPDEST PUSH1 0x0 PUSH1 0x6 PUSH1 0x0 SWAP1 SLOAD SWAP1 PUSH2 0x100 EXP SWAP1 DIV PUSH20 0xFFFFFFFFFFFFFFFFFFFFFFFFFFFFFFFFFFFFFFFF AND SWAP1 POP DUP2 PUSH1 0x6 PUSH1 0x0 PUSH2 0x100 EXP DUP2 SLOAD DUP2 PUSH20 0xFFFFFFFFFFFFFFFFFFFFFFFFFFFFFFFFFFFFFFFF MUL NOT AND SWAP1 DUP4 PUSH20 0xFFFFFFFFFFFFFFFFFFFFFFFFFFFFFFFFFFFFFFFF AND MUL OR SWAP1 SSTORE POP DUP2 PUSH20 0xFFFFFFFFFFFFFFFFFFFFFFFFFFFFFFFFFFFFFFFF AND DUP2 PUSH20 0xFFFFFFFFFFFFFFFFFFFFFFFFFFFFFFFFFFFFFFFF AND PUSH32 0x8BE0079C531659141344CD1FD0A4F28419497F9722A3DAAFE3B4186F6B6457E0 PUSH1 0x40 MLOAD PUSH1 0x40 MLOAD DUP1 SWAP2 SUB SWAP1 LOG3 POP POP JUMP JUMPDEST PUSH1 0x0 JUMPDEST PUSH1 0x20 DUP1 SLOAD SWAP1 POP DUP2 LT ISZERO PUSH3 0x4E23 JUMPI PUSH1 0x20 DUP2 DUP2 SLOAD DUP2 LT PUSH3 0x4D63 JUMPI PUSH3 0x4D62 PUSH3 0x6608 JUMP JUMPDEST JUMPDEST SWAP1 PUSH1 0x0 MSTORE PUSH1 0x20 PUSH1 0x0 KECCAK256 SWAP1 PUSH1 0x2 MUL ADD PUSH1 0x0 ADD PUSH1 0x0 SWAP1 SLOAD SWAP1 PUSH2 0x100 EXP SWAP1 DIV PUSH20 0xFFFFFFFFFFFFFFFFFFFFFFFFFFFFFFFFFFFFFFFF AND PUSH20 0xFFFFFFFFFFFFFFFFFFFFFFFFFFFFFFFFFFFFFFFF AND DUP3 PUSH20 0xFFFFFFFFFFFFFFFFFFFFFFFFFFFFFFFFFFFFFFFF AND SUB PUSH3 0x4E0D JUMPI PUSH1 0x0 PUSH3 0x4E0C JUMPI PUSH1 0x40 MLOAD PUSH32 0x8C379A000000000000000000000000000000000000000000000000000000000 DUP2 MSTORE PUSH1 0x4 ADD PUSH3 0x4E03 SWAP1 PUSH3 0x6687 JUMP JUMPDEST PUSH1 0x40 MLOAD DUP1 SWAP2 SUB SWAP1 REVERT JUMPDEST JUMPDEST DUP1 DUP1 PUSH3 0x4E1A SWAP1 PUSH3 0x631D JUMP JUMPDEST SWAP2 POP POP PUSH3 0x4D3E JUMP JUMPDEST POP POP JUMP JUMPDEST DUP2 PUSH20 0xFFFFFFFFFFFFFFFFFFFFFFFFFFFFFFFFFFFFFFFF AND DUP4 PUSH20 0xFFFFFFFFFFFFFFFFFFFFFFFFFFFFFFFFFFFFFFFF AND SUB PUSH3 0x4E98 JUMPI PUSH1 0x40 MLOAD PUSH32 0x8C379A000000000000000000000000000000000000000000000000000000000 DUP2 MSTORE PUSH1 0x4 ADD PUSH3 0x4E8F SWAP1 PUSH3 0x7378 JUMP JUMPDEST PUSH1 0x40 MLOAD DUP1 SWAP2 SUB SWAP1 REVERT JUMPDEST DUP1 PUSH1 0x5 PUSH1 0x0 DUP6 PUSH20 0xFFFFFFFFFFFFFFFFFFFFFFFFFFFFFFFFFFFFFFFF AND PUSH20 0xFFFFFFFFFFFFFFFFFFFFFFFFFFFFFFFFFFFFFFFF AND DUP2 MSTORE PUSH1 0x20 ADD SWAP1 DUP2 MSTORE PUSH1 0x20 ADD PUSH1 0x0 KECCAK256 PUSH1 0x0 DUP5 PUSH20 0xFFFFFFFFFFFFFFFFFFFFFFFFFFFFFFFFFFFFFFFF AND PUSH20 0xFFFFFFFFFFFFFFFFFFFFFFFFFFFFFFFFFFFFFFFF AND DUP2 MSTORE PUSH1 0x20 ADD SWAP1 DUP2 MSTORE PUSH1 0x20 ADD PUSH1 0x0 KECCAK256 PUSH1 0x0 PUSH2 0x100 EXP DUP2 SLOAD DUP2 PUSH1 0xFF MUL NOT AND SWAP1 DUP4 ISZERO ISZERO MUL OR SWAP1 SSTORE POP DUP2 PUSH20 0xFFFFFFFFFFFFFFFFFFFFFFFFFFFFFFFFFFFFFFFF AND DUP4 PUSH20 0xFFFFFFFFFFFFFFFFFFFFFFFFFFFFFFFFFFFFFFFF AND PUSH32 0x17307EAB39AB6107E8899845AD3D59BD9653F200F220920489CA2B5937696C31 DUP4 PUSH1 0x40 MLOAD PUSH3 0x4F8B SWAP2 SWAP1 PUSH3 0x564D JUMP JUMPDEST PUSH1 0x40 MLOAD DUP1 SWAP2 SUB SWAP1 LOG3 POP POP POP JUMP JUMPDEST PUSH3 0x4FA5 DUP5 DUP5 DUP5 PUSH3 0x4758 JUMP JUMPDEST PUSH3 0x4FB3 DUP5 DUP5 DUP5 DUP5 PUSH3 0x51BD JUMP JUMPDEST PUSH3 0x4FF5 JUMPI PUSH1 0x40 MLOAD PUSH32 0x8C379A000000000000000000000000000000000000000000000000000000000 DUP2 MSTORE PUSH1 0x4 ADD PUSH3 0x4FEC SWAP1 PUSH3 0x7410 JUMP JUMPDEST PUSH1 0x40 MLOAD DUP1 SWAP2 SUB SWAP1 REVERT JUMPDEST POP POP POP POP JUMP JUMPDEST PUSH1 0x0 DUP1 PUSH20 0xFFFFFFFFFFFFFFFFFFFFFFFFFFFFFFFFFFFFFFFF AND PUSH3 0x501F DUP4 PUSH3 0x4C38 JUMP JUMPDEST PUSH20 0xFFFFFFFFFFFFFFFFFFFFFFFFFFFFFFFFFFFFFFFF AND EQ ISZERO SWAP1 POP SWAP2 SWAP1 POP JUMP JUMPDEST PUSH1 0x60 PUSH1 0x8 DUP1 SLOAD PUSH3 0x504F SWAP1 PUSH3 0x6399 JUMP JUMPDEST DUP1 PUSH1 0x1F ADD PUSH1 0x20 DUP1 SWAP2 DIV MUL PUSH1 0x20 ADD PUSH1 0x40 MLOAD SWAP1 DUP2 ADD PUSH1 0x40 MSTORE DUP1 SWAP3 SWAP2 SWAP1 DUP2 DUP2 MSTORE PUSH1 0x20 ADD DUP3 DUP1 SLOAD PUSH3 0x507D SWAP1 PUSH3 0x6399 JUMP JUMPDEST DUP1 ISZERO PUSH3 0x50CE JUMPI DUP1 PUSH1 0x1F LT PUSH3 0x50A2 JUMPI PUSH2 0x100 DUP1 DUP4 SLOAD DIV MUL DUP4 MSTORE SWAP2 PUSH1 0x20 ADD SWAP2 PUSH3 0x50CE JUMP JUMPDEST DUP3 ADD SWAP2 SWAP1 PUSH1 0x0 MSTORE PUSH1 0x20 PUSH1 0x0 KECCAK256 SWAP1 JUMPDEST DUP2 SLOAD DUP2 MSTORE SWAP1 PUSH1 0x1 ADD SWAP1 PUSH1 0x20 ADD DUP1 DUP4 GT PUSH3 0x50B0 JUMPI DUP3 SWAP1 SUB PUSH1 0x1F AND DUP3 ADD SWAP2 JUMPDEST POP POP POP POP POP SWAP1 POP SWAP1 JUMP JUMPDEST PUSH1 0x60 PUSH1 0x0 PUSH1 0x1 PUSH3 0x50E9 DUP5 PUSH3 0x5355 JUMP JUMPDEST ADD SWAP1 POP PUSH1 0x0 DUP2 PUSH8 0xFFFFFFFFFFFFFFFF DUP2 GT ISZERO PUSH3 0x510B JUMPI PUSH3 0x510A PUSH3 0x5895 JUMP JUMPDEST JUMPDEST PUSH1 0x40 MLOAD SWAP1 DUP1 DUP3 MSTORE DUP1 PUSH1 0x1F ADD PUSH1 0x1F NOT AND PUSH1 0x20 ADD DUP3 ADD PUSH1 0x40 MSTORE DUP1 ISZERO PUSH3 0x513E JUMPI DUP2 PUSH1 0x20 ADD PUSH1 0x1 DUP3 MUL DUP1 CALLDATASIZE DUP4 CALLDATACOPY DUP1 DUP3 ADD SWAP2 POP POP SWAP1 POP JUMPDEST POP SWAP1 POP PUSH1 0x0 DUP3 PUSH1 0x20 ADD DUP3 ADD SWAP1 POP JUMPDEST PUSH1 0x1 ISZERO PUSH3 0x51A6 JUMPI DUP1 DUP1 PUSH1 0x1 SWAP1 SUB SWAP2 POP POP PUSH32 0x3031323334353637383961626364656600000000000000000000000000000000 PUSH1 0xA DUP7 MOD BYTE DUP2 MSTORE8 PUSH1 0xA DUP6 DUP2 PUSH3 0x5199 JUMPI PUSH3 0x5198 PUSH3 0x60C4 JUMP JUMPDEST JUMPDEST DIV SWAP5 POP PUSH1 0x0 DUP6 SUB PUSH3 0x514C JUMPI JUMPDEST DUP2 SWAP4 POP POP POP POP SWAP2 SWAP1 POP JUMP JUMPDEST POP POP POP POP JUMP JUMPDEST POP POP POP POP JUMP JUMPDEST PUSH1 0x0 PUSH3 0x51E0 DUP5 PUSH20 0xFFFFFFFFFFFFFFFFFFFFFFFFFFFFFFFFFFFFFFFF AND PUSH3 0x54C1 JUMP JUMPDEST ISZERO PUSH3 0x5348 JUMPI DUP4 PUSH20 0xFFFFFFFFFFFFFFFFFFFFFFFFFFFFFFFFFFFFFFFF AND PUSH4 0x150B7A02 PUSH3 0x520C PUSH3 0x45F8 JUMP JUMPDEST DUP8 DUP7 DUP7 PUSH1 0x40 MLOAD DUP6 PUSH4 0xFFFFFFFF AND PUSH1 0xE0 SHL DUP2 MSTORE PUSH1 0x4 ADD PUSH3 0x5230 SWAP5 SWAP4 SWAP3 SWAP2 SWAP1 PUSH3 0x7484 JUMP JUMPDEST PUSH1 0x20 PUSH1 0x40 MLOAD DUP1 DUP4 SUB DUP2 PUSH1 0x0 DUP8 GAS CALL SWAP3 POP POP POP DUP1 ISZERO PUSH3 0x526F JUMPI POP PUSH1 0x40 MLOAD RETURNDATASIZE PUSH1 0x1F NOT PUSH1 0x1F DUP3 ADD AND DUP3 ADD DUP1 PUSH1 0x40 MSTORE POP DUP2 ADD SWAP1 PUSH3 0x526C SWAP2 SWAP1 PUSH3 0x74EF JUMP JUMPDEST PUSH1 0x1 JUMPDEST PUSH3 0x52F7 JUMPI RETURNDATASIZE DUP1 PUSH1 0x0 DUP2 EQ PUSH3 0x52A2 JUMPI PUSH1 0x40 MLOAD SWAP2 POP PUSH1 0x1F NOT PUSH1 0x3F RETURNDATASIZE ADD AND DUP3 ADD PUSH1 0x40 MSTORE RETURNDATASIZE DUP3 MSTORE RETURNDATASIZE PUSH1 0x0 PUSH1 0x20 DUP5 ADD RETURNDATACOPY PUSH3 0x52A7 JUMP JUMPDEST PUSH1 0x60 SWAP2 POP JUMPDEST POP PUSH1 0x0 DUP2 MLOAD SUB PUSH3 0x52EF JUMPI PUSH1 0x40 MLOAD PUSH32 0x8C379A000000000000000000000000000000000000000000000000000000000 DUP2 MSTORE PUSH1 0x4 ADD PUSH3 0x52E6 SWAP1 PUSH3 0x7410 JUMP JUMPDEST PUSH1 0x40 MLOAD DUP1 SWAP2 SUB SWAP1 REVERT JUMPDEST DUP1 MLOAD DUP2 PUSH1 0x20 ADD REVERT JUMPDEST PUSH4 0x150B7A02 PUSH1 0xE0 SHL PUSH28 0xFFFFFFFFFFFFFFFFFFFFFFFFFFFFFFFFFFFFFFFFFFFFFFFFFFFFFFFF NOT AND DUP2 PUSH28 0xFFFFFFFFFFFFFFFFFFFFFFFFFFFFFFFFFFFFFFFFFFFFFFFFFFFFFFFF NOT AND EQ SWAP2 POP POP PUSH3 0x534D JUMP JUMPDEST PUSH1 0x1 SWAP1 POP JUMPDEST SWAP5 SWAP4 POP POP POP POP JUMP JUMPDEST PUSH1 0x0 DUP1 PUSH1 0x0 SWAP1 POP PUSH27 0x184F03E93FF9F4DAA797ED6E38ED64BF6A1F010000000000000000 DUP4 LT PUSH3 0x53B7 JUMPI PUSH27 0x184F03E93FF9F4DAA797ED6E38ED64BF6A1F010000000000000000 DUP4 DUP2 PUSH3 0x53AD JUMPI PUSH3 0x53AC PUSH3 0x60C4 JUMP JUMPDEST JUMPDEST DIV SWAP3 POP PUSH1 0x40 DUP2 ADD SWAP1 POP JUMPDEST PUSH14 0x4EE2D6D415B85ACEF8100000000 DUP4 LT PUSH3 0x53F8 JUMPI PUSH14 0x4EE2D6D415B85ACEF8100000000 DUP4 DUP2 PUSH3 0x53EE JUMPI PUSH3 0x53ED PUSH3 0x60C4 JUMP JUMPDEST JUMPDEST DIV SWAP3 POP PUSH1 0x20 DUP2 ADD SWAP1 POP JUMPDEST PUSH7 0x2386F26FC10000 DUP4 LT PUSH3 0x542B JUMPI PUSH7 0x2386F26FC10000 DUP4 DUP2 PUSH3 0x5421 JUMPI PUSH3 0x5420 PUSH3 0x60C4 JUMP JUMPDEST JUMPDEST DIV SWAP3 POP PUSH1 0x10 DUP2 ADD SWAP1 POP JUMPDEST PUSH4 0x5F5E100 DUP4 LT PUSH3 0x5458 JUMPI PUSH4 0x5F5E100 DUP4 DUP2 PUSH3 0x544E JUMPI PUSH3 0x544D PUSH3 0x60C4 JUMP JUMPDEST JUMPDEST DIV SWAP3 POP PUSH1 0x8 DUP2 ADD SWAP1 POP JUMPDEST PUSH2 0x2710 DUP4 LT PUSH3 0x5481 JUMPI PUSH2 0x2710 DUP4 DUP2 PUSH3 0x5477 JUMPI PUSH3 0x5476 PUSH3 0x60C4 JUMP JUMPDEST JUMPDEST DIV SWAP3 POP PUSH1 0x4 DUP2 ADD SWAP1 POP JUMPDEST PUSH1 0x64 DUP4 LT PUSH3 0x54A8 JUMPI PUSH1 0x64 DUP4 DUP2 PUSH3 0x549E JUMPI PUSH3 0x549D PUSH3 0x60C4 JUMP JUMPDEST JUMPDEST DIV SWAP3 POP PUSH1 0x2 DUP2 ADD SWAP1 POP JUMPDEST PUSH1 0xA DUP4 LT PUSH3 0x54B8 JUMPI PUSH1 0x1 DUP2 ADD SWAP1 POP JUMPDEST DUP1 SWAP2 POP POP SWAP2 SWAP1 POP JUMP JUMPDEST PUSH1 0x0 DUP1 DUP3 PUSH20 0xFFFFFFFFFFFFFFFFFFFFFFFFFFFFFFFFFFFFFFFF AND EXTCODESIZE GT SWAP1 POP SWAP2 SWAP1 POP JUMP JUMPDEST PUSH2 0x2BF DUP1 PUSH3 0x7522 DUP4 CODECOPY ADD SWAP1 JUMP JUMPDEST PUSH1 0x0 PUSH1 0x40 MLOAD SWAP1 POP SWAP1 JUMP JUMPDEST PUSH1 0x0 DUP1 REVERT JUMPDEST PUSH1 0x0 DUP1 REVERT JUMPDEST PUSH1 0x0 DUP2 SWAP1 POP SWAP2 SWAP1 POP JUMP JUMPDEST PUSH3 0x551B DUP2 PUSH3 0x5506 JUMP JUMPDEST DUP2 EQ PUSH3 0x5527 JUMPI PUSH1 0x0 DUP1 REVERT JUMPDEST POP JUMP JUMPDEST PUSH1 0x0 DUP2 CALLDATALOAD SWAP1 POP PUSH3 0x553B DUP2 PUSH3 0x5510 JUMP JUMPDEST SWAP3 SWAP2 POP POP JUMP JUMPDEST PUSH1 0x0 PUSH1 0x20 DUP3 DUP5 SUB SLT ISZERO PUSH3 0x555A JUMPI PUSH3 0x5559 PUSH3 0x54FC JUMP JUMPDEST JUMPDEST PUSH1 0x0 PUSH3 0x556A DUP5 DUP3 DUP6 ADD PUSH3 0x552A JUMP JUMPDEST SWAP2 POP POP SWAP3 SWAP2 POP POP JUMP JUMPDEST PUSH3 0x557E DUP2 PUSH3 0x5506 JUMP JUMPDEST DUP3 MSTORE POP POP JUMP JUMPDEST PUSH1 0x0 PUSH1 0x20 DUP3 ADD SWAP1 POP PUSH3 0x559B PUSH1 0x0 DUP4 ADD DUP5 PUSH3 0x5573 JUMP JUMPDEST SWAP3 SWAP2 POP POP JUMP JUMPDEST PUSH1 0x0 PUSH32 0xFFFFFFFF00000000000000000000000000000000000000000000000000000000 DUP3 AND SWAP1 POP SWAP2 SWAP1 POP JUMP JUMPDEST PUSH3 0x55D8 DUP2 PUSH3 0x55A1 JUMP JUMPDEST DUP2 EQ PUSH3 0x55E4 JUMPI PUSH1 0x0 DUP1 REVERT JUMPDEST POP JUMP JUMPDEST PUSH1 0x0 DUP2 CALLDATALOAD SWAP1 POP PUSH3 0x55F8 DUP2 PUSH3 0x55CD JUMP JUMPDEST SWAP3 SWAP2 POP POP JUMP JUMPDEST PUSH1 0x0 PUSH1 0x20 DUP3 DUP5 SUB SLT ISZERO PUSH3 0x5617 JUMPI PUSH3 0x5616 PUSH3 0x54FC JUMP JUMPDEST JUMPDEST PUSH1 0x0 PUSH3 0x5627 DUP5 DUP3 DUP6 ADD PUSH3 0x55E7 JUMP JUMPDEST SWAP2 POP POP SWAP3 SWAP2 POP POP JUMP JUMPDEST PUSH1 0x0 DUP2 ISZERO ISZERO SWAP1 POP SWAP2 SWAP1 POP JUMP JUMPDEST PUSH3 0x5647 DUP2 PUSH3 0x5630 JUMP JUMPDEST DUP3 MSTORE POP POP JUMP JUMPDEST PUSH1 0x0 PUSH1 0x20 DUP3 ADD SWAP1 POP PUSH3 0x5664 PUSH1 0x0 DUP4 ADD DUP5 PUSH3 0x563C JUMP JUMPDEST SWAP3 SWAP2 POP POP JUMP JUMPDEST PUSH1 0x0 PUSH20 0xFFFFFFFFFFFFFFFFFFFFFFFFFFFFFFFFFFFFFFFF DUP3 AND SWAP1 POP SWAP2 SWAP1 POP JUMP JUMPDEST PUSH1 0x0 PUSH3 0x5697 DUP3 PUSH3 0x566A JUMP JUMPDEST SWAP1 POP SWAP2 SWAP1 POP JUMP JUMPDEST PUSH3 0x56A9 DUP2 PUSH3 0x568A JUMP JUMPDEST DUP2 EQ PUSH3 0x56B5 JUMPI PUSH1 0x0 DUP1 REVERT JUMPDEST POP JUMP JUMPDEST PUSH1 0x0 DUP2 CALLDATALOAD SWAP1 POP PUSH3 0x56C9 DUP2 PUSH3 0x569E JUMP JUMPDEST SWAP3 SWAP2 POP POP JUMP JUMPDEST PUSH1 0x0 PUSH1 0x20 DUP3 DUP5 SUB SLT ISZERO PUSH3 0x56E8 JUMPI PUSH3 0x56E7 PUSH3 0x54FC JUMP JUMPDEST JUMPDEST PUSH1 0x0 PUSH3 0x56F8 DUP5 DUP3 DUP6 ADD PUSH3 0x56B8 JUMP JUMPDEST SWAP2 POP POP SWAP3 SWAP2 POP POP JUMP JUMPDEST PUSH1 0x0 DUP2 MLOAD SWAP1 POP SWAP2 SWAP1 POP JUMP JUMPDEST PUSH1 0x0 DUP3 DUP3 MSTORE PUSH1 0x20 DUP3 ADD SWAP1 POP SWAP3 SWAP2 POP POP JUMP JUMPDEST PUSH1 0x0 JUMPDEST DUP4 DUP2 LT ISZERO PUSH3 0x573D JUMPI DUP1 DUP3 ADD MLOAD DUP2 DUP5 ADD MSTORE PUSH1 0x20 DUP2 ADD SWAP1 POP PUSH3 0x5720 JUMP JUMPDEST PUSH1 0x0 DUP5 DUP5 ADD MSTORE POP POP POP POP JUMP JUMPDEST PUSH1 0x0 PUSH1 0x1F NOT PUSH1 0x1F DUP4 ADD AND SWAP1 POP SWAP2 SWAP1 POP JUMP JUMPDEST PUSH1 0x0 PUSH3 0x5767 DUP3 PUSH3 0x5701 JUMP JUMPDEST PUSH3 0x5773 DUP2 DUP6 PUSH3 0x570C JUMP JUMPDEST SWAP4 POP PUSH3 0x5785 DUP2 DUP6 PUSH1 0x20 DUP7 ADD PUSH3 0x571D JUMP JUMPDEST PUSH3 0x5790 DUP2 PUSH3 0x5749 JUMP JUMPDEST DUP5 ADD SWAP2 POP POP SWAP3 SWAP2 POP POP JUMP JUMPDEST PUSH1 0x0 PUSH1 0x20 DUP3 ADD SWAP1 POP DUP2 DUP2 SUB PUSH1 0x0 DUP4 ADD MSTORE PUSH3 0x57B7 DUP2 DUP5 PUSH3 0x575A JUMP JUMPDEST SWAP1 POP SWAP3 SWAP2 POP POP JUMP JUMPDEST PUSH3 0x57CA DUP2 PUSH3 0x568A JUMP JUMPDEST DUP3 MSTORE POP POP JUMP JUMPDEST PUSH1 0x0 PUSH1 0x20 DUP3 ADD SWAP1 POP PUSH3 0x57E7 PUSH1 0x0 DUP4 ADD DUP5 PUSH3 0x57BF JUMP JUMPDEST SWAP3 SWAP2 POP POP JUMP JUMPDEST PUSH1 0x0 DUP1 PUSH1 0x40 DUP4 DUP6 SUB SLT ISZERO PUSH3 0x5807 JUMPI PUSH3 0x5806 PUSH3 0x54FC JUMP JUMPDEST JUMPDEST PUSH1 0x0 PUSH3 0x5817 DUP6 DUP3 DUP7 ADD PUSH3 0x56B8 JUMP JUMPDEST SWAP3 POP POP PUSH1 0x20 PUSH3 0x582A DUP6 DUP3 DUP7 ADD PUSH3 0x552A JUMP JUMPDEST SWAP2 POP POP SWAP3 POP SWAP3 SWAP1 POP JUMP JUMPDEST PUSH1 0x0 DUP1 PUSH1 0x0 PUSH1 0x60 DUP5 DUP7 SUB SLT ISZERO PUSH3 0x5850 JUMPI PUSH3 0x584F PUSH3 0x54FC JUMP JUMPDEST JUMPDEST PUSH1 0x0 PUSH3 0x5860 DUP7 DUP3 DUP8 ADD PUSH3 0x56B8 JUMP JUMPDEST SWAP4 POP POP PUSH1 0x20 PUSH3 0x5873 DUP7 DUP3 DUP8 ADD PUSH3 0x56B8 JUMP JUMPDEST SWAP3 POP POP PUSH1 0x40 PUSH3 0x5886 DUP7 DUP3 DUP8 ADD PUSH3 0x552A JUMP JUMPDEST SWAP2 POP POP SWAP3 POP SWAP3 POP SWAP3 JUMP JUMPDEST PUSH1 0x0 DUP1 REVERT JUMPDEST PUSH32 0x4E487B7100000000000000000000000000000000000000000000000000000000 PUSH1 0x0 MSTORE PUSH1 0x41 PUSH1 0x4 MSTORE PUSH1 0x24 PUSH1 0x0 REVERT JUMPDEST PUSH3 0x58CF DUP3 PUSH3 0x5749 JUMP JUMPDEST DUP2 ADD DUP2 DUP2 LT PUSH8 0xFFFFFFFFFFFFFFFF DUP3 GT OR ISZERO PUSH3 0x58F1 JUMPI PUSH3 0x58F0 PUSH3 0x5895 JUMP JUMPDEST JUMPDEST DUP1 PUSH1 0x40 MSTORE POP POP POP JUMP JUMPDEST PUSH1 0x0 PUSH3 0x5906 PUSH3 0x54F2 JUMP JUMPDEST SWAP1 POP PUSH3 0x5914 DUP3 DUP3 PUSH3 0x58C4 JUMP JUMPDEST SWAP2 SWAP1 POP JUMP JUMPDEST PUSH1 0x0 PUSH8 0xFFFFFFFFFFFFFFFF DUP3 GT ISZERO PUSH3 0x5937 JUMPI PUSH3 0x5936 PUSH3 0x5895 JUMP JUMPDEST JUMPDEST PUSH1 0x20 DUP3 MUL SWAP1 POP PUSH1 0x20 DUP2 ADD SWAP1 POP SWAP2 SWAP1 POP JUMP JUMPDEST PUSH1 0x0 DUP1 REVERT JUMPDEST PUSH1 0x0 PUSH3 0x5964 PUSH3 0x595E DUP5 PUSH3 0x5919 JUMP JUMPDEST PUSH3 0x58FA JUMP JUMPDEST SWAP1 POP DUP1 DUP4 DUP3 MSTORE PUSH1 0x20 DUP3 ADD SWAP1 POP PUSH1 0x20 DUP5 MUL DUP4 ADD DUP6 DUP2 GT ISZERO PUSH3 0x598A JUMPI PUSH3 0x5989 PUSH3 0x5948 JUMP JUMPDEST JUMPDEST DUP4 JUMPDEST DUP2 DUP2 LT ISZERO PUSH3 0x59B7 JUMPI DUP1 PUSH3 0x59A2 DUP9 DUP3 PUSH3 0x56B8 JUMP JUMPDEST DUP5 MSTORE PUSH1 0x20 DUP5 ADD SWAP4 POP POP PUSH1 0x20 DUP2 ADD SWAP1 POP PUSH3 0x598C JUMP JUMPDEST POP POP POP SWAP4 SWAP3 POP POP POP JUMP JUMPDEST PUSH1 0x0 DUP3 PUSH1 0x1F DUP4 ADD SLT PUSH3 0x59D9 JUMPI PUSH3 0x59D8 PUSH3 0x5890 JUMP JUMPDEST JUMPDEST DUP2 CALLDATALOAD PUSH3 0x59EB DUP5 DUP3 PUSH1 0x20 DUP7 ADD PUSH3 0x594D JUMP JUMPDEST SWAP2 POP POP SWAP3 SWAP2 POP POP JUMP JUMPDEST PUSH1 0x0 PUSH1 0x20 DUP3 DUP5 SUB SLT ISZERO PUSH3 0x5A0D JUMPI PUSH3 0x5A0C PUSH3 0x54FC JUMP JUMPDEST JUMPDEST PUSH1 0x0 DUP3 ADD CALLDATALOAD PUSH8 0xFFFFFFFFFFFFFFFF DUP2 GT ISZERO PUSH3 0x5A2E JUMPI PUSH3 0x5A2D PUSH3 0x5501 JUMP JUMPDEST JUMPDEST PUSH3 0x5A3C DUP5 DUP3 DUP6 ADD PUSH3 0x59C1 JUMP JUMPDEST SWAP2 POP POP SWAP3 SWAP2 POP POP JUMP JUMPDEST PUSH1 0x0 DUP1 REVERT JUMPDEST PUSH1 0x0 PUSH8 0xFFFFFFFFFFFFFFFF DUP3 GT ISZERO PUSH3 0x5A68 JUMPI PUSH3 0x5A67 PUSH3 0x5895 JUMP JUMPDEST JUMPDEST PUSH3 0x5A73 DUP3 PUSH3 0x5749 JUMP JUMPDEST SWAP1 POP PUSH1 0x20 DUP2 ADD SWAP1 POP SWAP2 SWAP1 POP JUMP JUMPDEST DUP3 DUP2 DUP4 CALLDATACOPY PUSH1 0x0 DUP4 DUP4 ADD MSTORE POP POP POP JUMP JUMPDEST PUSH1 0x0 PUSH3 0x5AA6 PUSH3 0x5AA0 DUP5 PUSH3 0x5A4A JUMP JUMPDEST PUSH3 0x58FA JUMP JUMPDEST SWAP1 POP DUP3 DUP2 MSTORE PUSH1 0x20 DUP2 ADD DUP5 DUP5 DUP5 ADD GT ISZERO PUSH3 0x5AC5 JUMPI PUSH3 0x5AC4 PUSH3 0x5A45 JUMP JUMPDEST JUMPDEST PUSH3 0x5AD2 DUP5 DUP3 DUP6 PUSH3 0x5A80 JUMP JUMPDEST POP SWAP4 SWAP3 POP POP POP JUMP JUMPDEST PUSH1 0x0 DUP3 PUSH1 0x1F DUP4 ADD SLT PUSH3 0x5AF2 JUMPI PUSH3 0x5AF1 PUSH3 0x5890 JUMP JUMPDEST JUMPDEST DUP2 CALLDATALOAD PUSH3 0x5B04 DUP5 DUP3 PUSH1 0x20 DUP7 ADD PUSH3 0x5A8F JUMP JUMPDEST SWAP2 POP POP SWAP3 SWAP2 POP POP JUMP JUMPDEST PUSH1 0x0 PUSH1 0x20 DUP3 DUP5 SUB SLT ISZERO PUSH3 0x5B26 JUMPI PUSH3 0x5B25 PUSH3 0x54FC JUMP JUMPDEST JUMPDEST PUSH1 0x0 DUP3 ADD CALLDATALOAD PUSH8 0xFFFFFFFFFFFFFFFF DUP2 GT ISZERO PUSH3 0x5B47 JUMPI PUSH3 0x5B46 PUSH3 0x5501 JUMP JUMPDEST JUMPDEST PUSH3 0x5B55 DUP5 DUP3 DUP6 ADD PUSH3 0x5ADA JUMP JUMPDEST SWAP2 POP POP SWAP3 SWAP2 POP POP JUMP JUMPDEST PUSH1 0x0 DUP1 PUSH1 0x0 PUSH1 0x60 DUP5 DUP7 SUB SLT ISZERO PUSH3 0x5B7A JUMPI PUSH3 0x5B79 PUSH3 0x54FC JUMP JUMPDEST JUMPDEST PUSH1 0x0 PUSH3 0x5B8A DUP7 DUP3 DUP8 ADD PUSH3 0x552A JUMP JUMPDEST SWAP4 POP POP PUSH1 0x20 PUSH3 0x5B9D DUP7 DUP3 DUP8 ADD PUSH3 0x552A JUMP JUMPDEST SWAP3 POP POP PUSH1 0x40 PUSH3 0x5BB0 DUP7 DUP3 DUP8 ADD PUSH3 0x552A JUMP JUMPDEST SWAP2 POP POP SWAP3 POP SWAP3 POP SWAP3 JUMP JUMPDEST PUSH1 0x0 PUSH3 0x5BC7 DUP3 PUSH3 0x566A JUMP JUMPDEST SWAP1 POP SWAP2 SWAP1 POP JUMP JUMPDEST PUSH3 0x5BD9 DUP2 PUSH3 0x5BBA JUMP JUMPDEST DUP2 EQ PUSH3 0x5BE5 JUMPI PUSH1 0x0 DUP1 REVERT JUMPDEST POP JUMP JUMPDEST PUSH1 0x0 DUP2 CALLDATALOAD SWAP1 POP PUSH3 0x5BF9 DUP2 PUSH3 0x5BCE JUMP JUMPDEST SWAP3 SWAP2 POP POP JUMP JUMPDEST PUSH1 0x0 PUSH1 0x20 DUP3 DUP5 SUB SLT ISZERO PUSH3 0x5C18 JUMPI PUSH3 0x5C17 PUSH3 0x54FC JUMP JUMPDEST JUMPDEST PUSH1 0x0 PUSH3 0x5C28 DUP5 DUP3 DUP6 ADD PUSH3 0x5BE8 JUMP JUMPDEST SWAP2 POP POP SWAP3 SWAP2 POP POP JUMP JUMPDEST PUSH3 0x5C3C DUP2 PUSH3 0x5630 JUMP JUMPDEST DUP2 EQ PUSH3 0x5C48 JUMPI PUSH1 0x0 DUP1 REVERT JUMPDEST POP JUMP JUMPDEST PUSH1 0x0 DUP2 CALLDATALOAD SWAP1 POP PUSH3 0x5C5C DUP2 PUSH3 0x5C31 JUMP JUMPDEST SWAP3 SWAP2 POP POP JUMP JUMPDEST PUSH1 0x0 DUP1 PUSH1 0x40 DUP4 DUP6 SUB SLT ISZERO PUSH3 0x5C7C JUMPI PUSH3 0x5C7B PUSH3 0x54FC JUMP JUMPDEST JUMPDEST PUSH1 0x0 PUSH3 0x5C8C DUP6 DUP3 DUP7 ADD PUSH3 0x56B8 JUMP JUMPDEST SWAP3 POP POP PUSH1 0x20 PUSH3 0x5C9F DUP6 DUP3 DUP7 ADD PUSH3 0x5C4B JUMP JUMPDEST SWAP2 POP POP SWAP3 POP SWAP3 SWAP1 POP JUMP JUMPDEST PUSH1 0x0 PUSH8 0xFFFFFFFFFFFFFFFF DUP3 GT ISZERO PUSH3 0x5CC7 JUMPI PUSH3 0x5CC6 PUSH3 0x5895 JUMP JUMPDEST JUMPDEST PUSH3 0x5CD2 DUP3 PUSH3 0x5749 JUMP JUMPDEST SWAP1 POP PUSH1 0x20 DUP2 ADD SWAP1 POP SWAP2 SWAP1 POP JUMP JUMPDEST PUSH1 0x0 PUSH3 0x5CF6 PUSH3 0x5CF0 DUP5 PUSH3 0x5CA9 JUMP JUMPDEST PUSH3 0x58FA JUMP JUMPDEST SWAP1 POP DUP3 DUP2 MSTORE PUSH1 0x20 DUP2 ADD DUP5 DUP5 DUP5 ADD GT ISZERO PUSH3 0x5D15 JUMPI PUSH3 0x5D14 PUSH3 0x5A45 JUMP JUMPDEST JUMPDEST PUSH3 0x5D22 DUP5 DUP3 DUP6 PUSH3 0x5A80 JUMP JUMPDEST POP SWAP4 SWAP3 POP POP POP JUMP JUMPDEST PUSH1 0x0 DUP3 PUSH1 0x1F DUP4 ADD SLT PUSH3 0x5D42 JUMPI PUSH3 0x5D41 PUSH3 0x5890 JUMP JUMPDEST JUMPDEST DUP2 CALLDATALOAD PUSH3 0x5D54 DUP5 DUP3 PUSH1 0x20 DUP7 ADD PUSH3 0x5CDF JUMP JUMPDEST SWAP2 POP POP SWAP3 SWAP2 POP POP JUMP JUMPDEST PUSH1 0x0 DUP1 PUSH1 0x0 DUP1 PUSH1 0x80 DUP6 DUP8 SUB SLT ISZERO PUSH3 0x5D7A JUMPI PUSH3 0x5D79 PUSH3 0x54FC JUMP JUMPDEST JUMPDEST PUSH1 0x0 PUSH3 0x5D8A DUP8 DUP3 DUP9 ADD PUSH3 0x56B8 JUMP JUMPDEST SWAP5 POP POP PUSH1 0x20 PUSH3 0x5D9D DUP8 DUP3 DUP9 ADD PUSH3 0x56B8 JUMP JUMPDEST SWAP4 POP POP PUSH1 0x40 PUSH3 0x5DB0 DUP8 DUP3 DUP9 ADD PUSH3 0x552A JUMP JUMPDEST SWAP3 POP POP PUSH1 0x60 DUP6 ADD CALLDATALOAD PUSH8 0xFFFFFFFFFFFFFFFF DUP2 GT ISZERO PUSH3 0x5DD4 JUMPI PUSH3 0x5DD3 PUSH3 0x5501 JUMP JUMPDEST JUMPDEST PUSH3 0x5DE2 DUP8 DUP3 DUP9 ADD PUSH3 0x5D2A JUMP JUMPDEST SWAP2 POP POP SWAP3 SWAP6 SWAP2 SWAP5 POP SWAP3 POP JUMP JUMPDEST PUSH1 0x0 PUSH1 0x40 DUP3 ADD SWAP1 POP PUSH3 0x5E05 PUSH1 0x0 DUP4 ADD DUP6 PUSH3 0x57BF JUMP JUMPDEST PUSH3 0x5E14 PUSH1 0x20 DUP4 ADD DUP5 PUSH3 0x5573 JUMP JUMPDEST SWAP4 SWAP3 POP POP POP JUMP JUMPDEST PUSH1 0x0 DUP1 PUSH1 0x40 DUP4 DUP6 SUB SLT ISZERO PUSH3 0x5E35 JUMPI PUSH3 0x5E34 PUSH3 0x54FC JUMP JUMPDEST JUMPDEST PUSH1 0x0 PUSH3 0x5E45 DUP6 DUP3 DUP7 ADD PUSH3 0x56B8 JUMP JUMPDEST SWAP3 POP POP PUSH1 0x20 PUSH3 0x5E58 DUP6 DUP3 DUP7 ADD PUSH3 0x56B8 JUMP JUMPDEST SWAP2 POP POP SWAP3 POP SWAP3 SWAP1 POP JUMP JUMPDEST PUSH32 0x737461747573206973206572726F720000000000000000000000000000000000 PUSH1 0x0 DUP3 ADD MSTORE POP JUMP JUMPDEST PUSH1 0x0 PUSH3 0x5E9A PUSH1 0xF DUP4 PUSH3 0x570C JUMP JUMPDEST SWAP2 POP PUSH3 0x5EA7 DUP3 PUSH3 0x5E62 JUMP JUMPDEST PUSH1 0x20 DUP3 ADD SWAP1 POP SWAP2 SWAP1 POP JUMP JUMPDEST PUSH1 0x0 PUSH1 0x20 DUP3 ADD SWAP1 POP DUP2 DUP2 SUB PUSH1 0x0 DUP4 ADD MSTORE PUSH3 0x5ECD DUP2 PUSH3 0x5E8B JUMP JUMPDEST SWAP1 POP SWAP2 SWAP1 POP JUMP JUMPDEST PUSH32 0x796F7520616C7265616479206861766520464944000000000000000000000000 PUSH1 0x0 DUP3 ADD MSTORE POP JUMP JUMPDEST PUSH1 0x0 PUSH3 0x5F0C PUSH1 0x14 DUP4 PUSH3 0x570C JUMP JUMPDEST SWAP2 POP PUSH3 0x5F19 DUP3 PUSH3 0x5ED4 JUMP JUMPDEST PUSH1 0x20 DUP3 ADD SWAP1 POP SWAP2 SWAP1 POP JUMP JUMPDEST PUSH1 0x0 PUSH1 0x20 DUP3 ADD SWAP1 POP DUP2 DUP2 SUB PUSH1 0x0 DUP4 ADD MSTORE PUSH3 0x5F3F DUP2 PUSH3 0x5EFD JUMP JUMPDEST SWAP1 POP SWAP2 SWAP1 POP JUMP JUMPDEST PUSH1 0x0 DUP2 MLOAD SWAP1 POP PUSH3 0x5F57 DUP2 PUSH3 0x5510 JUMP JUMPDEST SWAP3 SWAP2 POP POP JUMP JUMPDEST PUSH1 0x0 PUSH1 0x20 DUP3 DUP5 SUB SLT ISZERO PUSH3 0x5F76 JUMPI PUSH3 0x5F75 PUSH3 0x54FC JUMP JUMPDEST JUMPDEST PUSH1 0x0 PUSH3 0x5F86 DUP5 DUP3 DUP6 ADD PUSH3 0x5F46 JUMP JUMPDEST SWAP2 POP POP SWAP3 SWAP2 POP POP JUMP JUMPDEST PUSH32 0x796F7520686176656E27742070617373706F7274000000000000000000000000 PUSH1 0x0 DUP3 ADD MSTORE POP JUMP JUMPDEST PUSH1 0x0 PUSH3 0x5FC7 PUSH1 0x14 DUP4 PUSH3 0x570C JUMP JUMPDEST SWAP2 POP PUSH3 0x5FD4 DUP3 PUSH3 0x5F8F JUMP JUMPDEST PUSH1 0x20 DUP3 ADD SWAP1 POP SWAP2 SWAP1 POP JUMP JUMPDEST PUSH1 0x0 PUSH1 0x20 DUP3 ADD SWAP1 POP DUP2 DUP2 SUB PUSH1 0x0 DUP4 ADD MSTORE PUSH3 0x5FFA DUP2 PUSH3 0x5FB8 JUMP JUMPDEST SWAP1 POP SWAP2 SWAP1 POP JUMP JUMPDEST PUSH1 0x0 DUP2 MLOAD SWAP1 POP PUSH3 0x6012 DUP2 PUSH3 0x569E JUMP JUMPDEST SWAP3 SWAP2 POP POP JUMP JUMPDEST PUSH1 0x0 PUSH1 0x20 DUP3 DUP5 SUB SLT ISZERO PUSH3 0x6031 JUMPI PUSH3 0x6030 PUSH3 0x54FC JUMP JUMPDEST JUMPDEST PUSH1 0x0 PUSH3 0x6041 DUP5 DUP3 DUP6 ADD PUSH3 0x6001 JUMP JUMPDEST SWAP2 POP POP SWAP3 SWAP2 POP POP JUMP JUMPDEST PUSH32 0x4E487B7100000000000000000000000000000000000000000000000000000000 PUSH1 0x0 MSTORE PUSH1 0x11 PUSH1 0x4 MSTORE PUSH1 0x24 PUSH1 0x0 REVERT JUMPDEST PUSH1 0x0 PUSH3 0x6086 DUP3 PUSH3 0x5506 JUMP JUMPDEST SWAP2 POP PUSH3 0x6093 DUP4 PUSH3 0x5506 JUMP JUMPDEST SWAP3 POP DUP3 DUP3 MUL PUSH3 0x60A3 DUP2 PUSH3 0x5506 JUMP JUMPDEST SWAP2 POP DUP3 DUP3 DIV DUP5 EQ DUP4 ISZERO OR PUSH3 0x60BD JUMPI PUSH3 0x60BC PUSH3 0x604A JUMP JUMPDEST JUMPDEST POP SWAP3 SWAP2 POP POP JUMP JUMPDEST PUSH32 0x4E487B7100000000000000000000000000000000000000000000000000000000 PUSH1 0x0 MSTORE PUSH1 0x12 PUSH1 0x4 MSTORE PUSH1 0x24 PUSH1 0x0 REVERT JUMPDEST PUSH1 0x0 PUSH3 0x6100 DUP3 PUSH3 0x5506 JUMP JUMPDEST SWAP2 POP PUSH3 0x610D DUP4 PUSH3 0x5506 JUMP JUMPDEST SWAP3 POP DUP3 PUSH3 0x6120 JUMPI PUSH3 0x611F PUSH3 0x60C4 JUMP JUMPDEST JUMPDEST DUP3 DUP3 DIV SWAP1 POP SWAP3 SWAP2 POP POP JUMP JUMPDEST PUSH1 0x0 DUP2 SWAP1 POP SWAP2 SWAP1 POP JUMP JUMPDEST PUSH1 0x0 DUP2 SWAP1 POP SWAP2 SWAP1 POP JUMP JUMPDEST PUSH1 0x0 PUSH3 0x6160 PUSH3 0x615A PUSH3 0x6154 DUP5 PUSH3 0x612B JUMP JUMPDEST PUSH3 0x6135 JUMP JUMPDEST PUSH3 0x5506 JUMP JUMPDEST SWAP1 POP SWAP2 SWAP1 POP JUMP JUMPDEST PUSH3 0x6172 DUP2 PUSH3 0x613F JUMP JUMPDEST DUP3 MSTORE POP POP JUMP JUMPDEST PUSH1 0x0 PUSH1 0x60 DUP3 ADD SWAP1 POP PUSH3 0x618F PUSH1 0x0 DUP4 ADD DUP7 PUSH3 0x6167 JUMP JUMPDEST PUSH3 0x619E PUSH1 0x20 DUP4 ADD DUP6 PUSH3 0x57BF JUMP JUMPDEST PUSH3 0x61AD PUSH1 0x40 DUP4 ADD DUP5 PUSH3 0x5573 JUMP JUMPDEST SWAP5 SWAP4 POP POP POP POP JUMP JUMPDEST PUSH32 0x70726F7669646520746865206572726F72206E756D626572206F6E2045544800 PUSH1 0x0 DUP3 ADD MSTORE POP JUMP JUMPDEST PUSH1 0x0 PUSH3 0x61ED PUSH1 0x1F DUP4 PUSH3 0x570C JUMP JUMPDEST SWAP2 POP PUSH3 0x61FA DUP3 PUSH3 0x61B5 JUMP JUMPDEST PUSH1 0x20 DUP3 ADD SWAP1 POP SWAP2 SWAP1 POP JUMP JUMPDEST PUSH1 0x0 PUSH1 0x20 DUP3 ADD SWAP1 POP DUP2 DUP2 SUB PUSH1 0x0 DUP4 ADD MSTORE PUSH3 0x6220 DUP2 PUSH3 0x61DE JUMP JUMPDEST SWAP1 POP SWAP2 SWAP1 POP JUMP JUMPDEST PUSH1 0x0 DUP2 MLOAD SWAP1 POP PUSH3 0x6238 DUP2 PUSH3 0x5C31 JUMP JUMPDEST SWAP3 SWAP2 POP POP JUMP JUMPDEST PUSH1 0x0 PUSH1 0x20 DUP3 DUP5 SUB SLT ISZERO PUSH3 0x6257 JUMPI PUSH3 0x6256 PUSH3 0x54FC JUMP JUMPDEST JUMPDEST PUSH1 0x0 PUSH3 0x6267 DUP5 DUP3 DUP6 ADD PUSH3 0x6227 JUMP JUMPDEST SWAP2 POP POP SWAP3 SWAP2 POP POP JUMP JUMPDEST PUSH1 0x0 DUP2 SWAP1 POP SWAP2 SWAP1 POP JUMP JUMPDEST PUSH1 0x0 PUSH3 0x629B PUSH3 0x6295 PUSH3 0x628F DUP5 PUSH3 0x6270 JUMP JUMPDEST PUSH3 0x6135 JUMP JUMPDEST PUSH3 0x5506 JUMP JUMPDEST SWAP1 POP SWAP2 SWAP1 POP JUMP JUMPDEST PUSH3 0x62AD DUP2 PUSH3 0x627A JUMP JUMPDEST DUP3 MSTORE POP POP JUMP JUMPDEST PUSH1 0x0 PUSH1 0x60 DUP3 ADD SWAP1 POP PUSH3 0x62CA PUSH1 0x0 DUP4 ADD DUP7 PUSH3 0x57BF JUMP JUMPDEST PUSH3 0x62D9 PUSH1 0x20 DUP4 ADD DUP6 PUSH3 0x5573 JUMP JUMPDEST PUSH3 0x62E8 PUSH1 0x40 DUP4 ADD DUP5 PUSH3 0x62A2 JUMP JUMPDEST SWAP5 SWAP4 POP POP POP POP JUMP JUMPDEST PUSH1 0x0 PUSH1 0x40 DUP3 ADD SWAP1 POP PUSH3 0x6307 PUSH1 0x0 DUP4 ADD DUP6 PUSH3 0x57BF JUMP JUMPDEST PUSH3 0x6316 PUSH1 0x20 DUP4 ADD DUP5 PUSH3 0x57BF JUMP JUMPDEST SWAP4 SWAP3 POP POP POP JUMP JUMPDEST PUSH1 0x0 PUSH3 0x632A DUP3 PUSH3 0x5506 JUMP JUMPDEST SWAP2 POP PUSH32 0xFFFFFFFFFFFFFFFFFFFFFFFFFFFFFFFFFFFFFFFFFFFFFFFFFFFFFFFFFFFFFFFF DUP3 SUB PUSH3 0x635F JUMPI PUSH3 0x635E PUSH3 0x604A JUMP JUMPDEST JUMPDEST PUSH1 0x1 DUP3 ADD SWAP1 POP SWAP2 SWAP1 POP JUMP JUMPDEST PUSH32 0x4E487B7100000000000000000000000000000000000000000000000000000000 PUSH1 0x0 MSTORE PUSH1 0x22 PUSH1 0x4 MSTORE PUSH1 0x24 PUSH1 0x0 REVERT JUMPDEST PUSH1 0x0 PUSH1 0x2 DUP3 DIV SWAP1 POP PUSH1 0x1 DUP3 AND DUP1 PUSH3 0x63B2 JUMPI PUSH1 0x7F DUP3 AND SWAP2 POP JUMPDEST PUSH1 0x20 DUP3 LT DUP2 SUB PUSH3 0x63C8 JUMPI PUSH3 0x63C7 PUSH3 0x636A JUMP JUMPDEST JUMPDEST POP SWAP2 SWAP1 POP JUMP JUMPDEST PUSH32 0x4552433732313A20617070726F76616C20746F2063757272656E74206F776E65 PUSH1 0x0 DUP3 ADD MSTORE PUSH32 0x7200000000000000000000000000000000000000000000000000000000000000 PUSH1 0x20 DUP3 ADD MSTORE POP JUMP JUMPDEST PUSH1 0x0 PUSH3 0x642C PUSH1 0x21 DUP4 PUSH3 0x570C JUMP JUMPDEST SWAP2 POP PUSH3 0x6439 DUP3 PUSH3 0x63CE JUMP JUMPDEST PUSH1 0x40 DUP3 ADD SWAP1 POP SWAP2 SWAP1 POP JUMP JUMPDEST PUSH1 0x0 PUSH1 0x20 DUP3 ADD SWAP1 POP DUP2 DUP2 SUB PUSH1 0x0 DUP4 ADD MSTORE PUSH3 0x645F DUP2 PUSH3 0x641D JUMP JUMPDEST SWAP1 POP SWAP2 SWAP1 POP JUMP JUMPDEST PUSH32 0x4552433732313A20617070726F76652063616C6C6572206973206E6F7420746F PUSH1 0x0 DUP3 ADD MSTORE PUSH32 0x6B656E206F776E6572206F7220617070726F76656420666F7220616C6C000000 PUSH1 0x20 DUP3 ADD MSTORE POP JUMP JUMPDEST PUSH1 0x0 PUSH3 0x64C4 PUSH1 0x3D DUP4 PUSH3 0x570C JUMP JUMPDEST SWAP2 POP PUSH3 0x64D1 DUP3 PUSH3 0x6466 JUMP JUMPDEST PUSH1 0x40 DUP3 ADD SWAP1 POP SWAP2 SWAP1 POP JUMP JUMPDEST PUSH1 0x0 PUSH1 0x20 DUP3 ADD SWAP1 POP DUP2 DUP2 SUB PUSH1 0x0 DUP4 ADD MSTORE PUSH3 0x64F7 DUP2 PUSH3 0x64B5 JUMP JUMPDEST SWAP1 POP SWAP2 SWAP1 POP JUMP JUMPDEST PUSH32 0x74686520464944206E6F7420746F207472616E73666572206F74686572730000 PUSH1 0x0 DUP3 ADD MSTORE POP JUMP JUMPDEST PUSH1 0x0 PUSH3 0x6536 PUSH1 0x1E DUP4 PUSH3 0x570C JUMP JUMPDEST SWAP2 POP PUSH3 0x6543 DUP3 PUSH3 0x64FE JUMP JUMPDEST PUSH1 0x20 DUP3 ADD SWAP1 POP SWAP2 SWAP1 POP JUMP JUMPDEST PUSH1 0x0 PUSH1 0x20 DUP3 ADD SWAP1 POP DUP2 DUP2 SUB PUSH1 0x0 DUP4 ADD MSTORE PUSH3 0x6569 DUP2 PUSH3 0x6527 JUMP JUMPDEST SWAP1 POP SWAP2 SWAP1 POP JUMP JUMPDEST PUSH32 0x4552433732313A2063616C6C6572206973206E6F7420746F6B656E206F776E65 PUSH1 0x0 DUP3 ADD MSTORE PUSH32 0x72206E6F7220617070726F766564000000000000000000000000000000000000 PUSH1 0x20 DUP3 ADD MSTORE POP JUMP JUMPDEST PUSH1 0x0 PUSH3 0x65CE PUSH1 0x2E DUP4 PUSH3 0x570C JUMP JUMPDEST SWAP2 POP PUSH3 0x65DB DUP3 PUSH3 0x6570 JUMP JUMPDEST PUSH1 0x40 DUP3 ADD SWAP1 POP SWAP2 SWAP1 POP JUMP JUMPDEST PUSH1 0x0 PUSH1 0x20 DUP3 ADD SWAP1 POP DUP2 DUP2 SUB PUSH1 0x0 DUP4 ADD MSTORE PUSH3 0x6601 DUP2 PUSH3 0x65BF JUMP JUMPDEST SWAP1 POP SWAP2 SWAP1 POP JUMP JUMPDEST PUSH32 0x4E487B7100000000000000000000000000000000000000000000000000000000 PUSH1 0x0 MSTORE PUSH1 0x32 PUSH1 0x4 MSTORE PUSH1 0x24 PUSH1 0x0 REVERT JUMPDEST PUSH32 0x46697265536F756C3A20696E76616C69642073657474696E6700000000000000 PUSH1 0x0 DUP3 ADD MSTORE POP JUMP JUMPDEST PUSH1 0x0 PUSH3 0x666F PUSH1 0x19 DUP4 PUSH3 0x570C JUMP JUMPDEST SWAP2 POP PUSH3 0x667C DUP3 PUSH3 0x6637 JUMP JUMPDEST PUSH1 0x20 DUP3 ADD SWAP1 POP SWAP2 SWAP1 POP JUMP JUMPDEST PUSH1 0x0 PUSH1 0x20 DUP3 ADD SWAP1 POP DUP2 DUP2 SUB PUSH1 0x0 DUP4 ADD MSTORE PUSH3 0x66A2 DUP2 PUSH3 0x6660 JUMP JUMPDEST SWAP1 POP SWAP2 SWAP1 POP JUMP JUMPDEST PUSH1 0x0 DUP2 SWAP1 POP DUP2 PUSH1 0x0 MSTORE PUSH1 0x20 PUSH1 0x0 KECCAK256 SWAP1 POP SWAP2 SWAP1 POP JUMP JUMPDEST PUSH1 0x0 PUSH1 0x20 PUSH1 0x1F DUP4 ADD DIV SWAP1 POP SWAP2 SWAP1 POP JUMP JUMPDEST PUSH1 0x0 DUP3 DUP3 SHL SWAP1 POP SWAP3 SWAP2 POP POP JUMP JUMPDEST PUSH1 0x0 PUSH1 0x8 DUP4 MUL PUSH3 0x670D PUSH32 0xFFFFFFFFFFFFFFFFFFFFFFFFFFFFFFFFFFFFFFFFFFFFFFFFFFFFFFFFFFFFFFFF DUP3 PUSH3 0x66CE JUMP JUMPDEST PUSH3 0x6719 DUP7 DUP4 PUSH3 0x66CE JUMP JUMPDEST SWAP6 POP DUP1 NOT DUP5 AND SWAP4 POP DUP1 DUP7 AND DUP5 OR SWAP3 POP POP POP SWAP4 SWAP3 POP POP POP JUMP JUMPDEST PUSH1 0x0 PUSH3 0x6752 PUSH3 0x674C PUSH3 0x6746 DUP5 PUSH3 0x5506 JUMP JUMPDEST PUSH3 0x6135 JUMP JUMPDEST PUSH3 0x5506 JUMP JUMPDEST SWAP1 POP SWAP2 SWAP1 POP JUMP JUMPDEST PUSH1 0x0 DUP2 SWAP1 POP SWAP2 SWAP1 POP JUMP JUMPDEST PUSH3 0x676E DUP4 PUSH3 0x6731 JUMP JUMPDEST PUSH3 0x6786 PUSH3 0x677D DUP3 PUSH3 0x6759 JUMP JUMPDEST DUP5 DUP5 SLOAD PUSH3 0x66DB JUMP JUMPDEST DUP3 SSTORE POP POP POP POP JUMP JUMPDEST PUSH1 0x0 SWAP1 JUMP JUMPDEST PUSH3 0x679D PUSH3 0x678E JUMP JUMPDEST PUSH3 0x67AA DUP2 DUP5 DUP5 PUSH3 0x6763 JUMP JUMPDEST POP POP POP JUMP JUMPDEST JUMPDEST DUP2 DUP2 LT ISZERO PUSH3 0x67D2 JUMPI PUSH3 0x67C6 PUSH1 0x0 DUP3 PUSH3 0x6793 JUMP JUMPDEST PUSH1 0x1 DUP2 ADD SWAP1 POP PUSH3 0x67B0 JUMP JUMPDEST POP POP JUMP JUMPDEST PUSH1 0x1F DUP3 GT ISZERO PUSH3 0x6821 JUMPI PUSH3 0x67EB DUP2 PUSH3 0x66A9 JUMP JUMPDEST PUSH3 0x67F6 DUP5 PUSH3 0x66BE JUMP JUMPDEST DUP2 ADD PUSH1 0x20 DUP6 LT ISZERO PUSH3 0x6806 JUMPI DUP2 SWAP1 POP JUMPDEST PUSH3 0x681E PUSH3 0x6815 DUP6 PUSH3 0x66BE JUMP JUMPDEST DUP4 ADD DUP3 PUSH3 0x67AF JUMP JUMPDEST POP POP JUMPDEST POP POP POP JUMP JUMPDEST PUSH1 0x0 DUP3 DUP3 SHR SWAP1 POP SWAP3 SWAP2 POP POP JUMP JUMPDEST PUSH1 0x0 PUSH3 0x6846 PUSH1 0x0 NOT DUP5 PUSH1 0x8 MUL PUSH3 0x6826 JUMP JUMPDEST NOT DUP1 DUP4 AND SWAP2 POP POP SWAP3 SWAP2 POP POP JUMP JUMPDEST PUSH1 0x0 PUSH3 0x6861 DUP4 DUP4 PUSH3 0x6833 JUMP JUMPDEST SWAP2 POP DUP3 PUSH1 0x2 MUL DUP3 OR SWAP1 POP SWAP3 SWAP2 POP POP JUMP JUMPDEST PUSH3 0x687C DUP3 PUSH3 0x5701 JUMP JUMPDEST PUSH8 0xFFFFFFFFFFFFFFFF DUP2 GT ISZERO PUSH3 0x6898 JUMPI PUSH3 0x6897 PUSH3 0x5895 JUMP JUMPDEST JUMPDEST PUSH3 0x68A4 DUP3 SLOAD PUSH3 0x6399 JUMP JUMPDEST PUSH3 0x68B1 DUP3 DUP3 DUP6 PUSH3 0x67D6 JUMP JUMPDEST PUSH1 0x0 PUSH1 0x20 SWAP1 POP PUSH1 0x1F DUP4 GT PUSH1 0x1 DUP2 EQ PUSH3 0x68E9 JUMPI PUSH1 0x0 DUP5 ISZERO PUSH3 0x68D4 JUMPI DUP3 DUP8 ADD MLOAD SWAP1 POP JUMPDEST PUSH3 0x68E0 DUP6 DUP3 PUSH3 0x6853 JUMP JUMPDEST DUP7 SSTORE POP PUSH3 0x6950 JUMP JUMPDEST PUSH1 0x1F NOT DUP5 AND PUSH3 0x68F9 DUP7 PUSH3 0x66A9 JUMP JUMPDEST PUSH1 0x0 JUMPDEST DUP3 DUP2 LT ISZERO PUSH3 0x6923 JUMPI DUP5 DUP10 ADD MLOAD DUP3 SSTORE PUSH1 0x1 DUP3 ADD SWAP2 POP PUSH1 0x20 DUP6 ADD SWAP5 POP PUSH1 0x20 DUP2 ADD SWAP1 POP PUSH3 0x68FC JUMP JUMPDEST DUP7 DUP4 LT ISZERO PUSH3 0x6943 JUMPI DUP5 DUP10 ADD MLOAD PUSH3 0x693F PUSH1 0x1F DUP10 AND DUP3 PUSH3 0x6833 JUMP JUMPDEST DUP4 SSTORE POP JUMPDEST PUSH1 0x1 PUSH1 0x2 DUP9 MUL ADD DUP9 SSTORE POP POP POP JUMPDEST POP POP POP POP POP POP JUMP JUMPDEST PUSH32 0x4552433732313A20696E76616C696420746F6B656E2049440000000000000000 PUSH1 0x0 DUP3 ADD MSTORE POP JUMP JUMPDEST PUSH1 0x0 PUSH3 0x6990 PUSH1 0x18 DUP4 PUSH3 0x570C JUMP JUMPDEST SWAP2 POP PUSH3 0x699D DUP3 PUSH3 0x6958 JUMP JUMPDEST PUSH1 0x20 DUP3 ADD SWAP1 POP SWAP2 SWAP1 POP JUMP JUMPDEST PUSH1 0x0 PUSH1 0x20 DUP3 ADD SWAP1 POP DUP2 DUP2 SUB PUSH1 0x0 DUP4 ADD MSTORE PUSH3 0x69C3 DUP2 PUSH3 0x6981 JUMP JUMPDEST SWAP1 POP SWAP2 SWAP1 POP JUMP JUMPDEST PUSH1 0x0 PUSH3 0x69D7 DUP3 PUSH3 0x5506 JUMP JUMPDEST SWAP2 POP PUSH3 0x69E4 DUP4 PUSH3 0x5506 JUMP JUMPDEST SWAP3 POP DUP3 DUP3 ADD SWAP1 POP DUP1 DUP3 GT ISZERO PUSH3 0x69FF JUMPI PUSH3 0x69FE PUSH3 0x604A JUMP JUMPDEST JUMPDEST SWAP3 SWAP2 POP POP JUMP JUMPDEST PUSH32 0x4552433732313A2061646472657373207A65726F206973206E6F742061207661 PUSH1 0x0 DUP3 ADD MSTORE PUSH32 0x6C6964206F776E65720000000000000000000000000000000000000000000000 PUSH1 0x20 DUP3 ADD MSTORE POP JUMP JUMPDEST PUSH1 0x0 PUSH3 0x6A63 PUSH1 0x29 DUP4 PUSH3 0x570C JUMP JUMPDEST SWAP2 POP PUSH3 0x6A70 DUP3 PUSH3 0x6A05 JUMP JUMPDEST PUSH1 0x40 DUP3 ADD SWAP1 POP SWAP2 SWAP1 POP JUMP JUMPDEST PUSH1 0x0 PUSH1 0x20 DUP3 ADD SWAP1 POP DUP2 DUP2 SUB PUSH1 0x0 DUP4 ADD MSTORE PUSH3 0x6A96 DUP2 PUSH3 0x6A54 JUMP JUMPDEST SWAP1 POP SWAP2 SWAP1 POP JUMP JUMPDEST PUSH32 0x6661696C2073657474696E670000000000000000000000000000000000000000 PUSH1 0x0 DUP3 ADD MSTORE POP JUMP JUMPDEST PUSH1 0x0 PUSH3 0x6AD5 PUSH1 0xC DUP4 PUSH3 0x570C JUMP JUMPDEST SWAP2 POP PUSH3 0x6AE2 DUP3 PUSH3 0x6A9D JUMP JUMPDEST PUSH1 0x20 DUP3 ADD SWAP1 POP SWAP2 SWAP1 POP JUMP JUMPDEST PUSH1 0x0 PUSH1 0x20 DUP3 ADD SWAP1 POP DUP2 DUP2 SUB PUSH1 0x0 DUP4 ADD MSTORE PUSH3 0x6B08 DUP2 PUSH3 0x6AC6 JUMP JUMPDEST SWAP1 POP SWAP2 SWAP1 POP JUMP JUMPDEST PUSH1 0x0 PUSH3 0x6B26 PUSH3 0x6B20 DUP5 PUSH3 0x5A4A JUMP JUMPDEST PUSH3 0x58FA JUMP JUMPDEST SWAP1 POP DUP3 DUP2 MSTORE PUSH1 0x20 DUP2 ADD DUP5 DUP5 DUP5 ADD GT ISZERO PUSH3 0x6B45 JUMPI PUSH3 0x6B44 PUSH3 0x5A45 JUMP JUMPDEST JUMPDEST PUSH3 0x6B52 DUP5 DUP3 DUP6 PUSH3 0x571D JUMP JUMPDEST POP SWAP4 SWAP3 POP POP POP JUMP JUMPDEST PUSH1 0x0 DUP3 PUSH1 0x1F DUP4 ADD SLT PUSH3 0x6B72 JUMPI PUSH3 0x6B71 PUSH3 0x5890 JUMP JUMPDEST JUMPDEST DUP2 MLOAD PUSH3 0x6B84 DUP5 DUP3 PUSH1 0x20 DUP7 ADD PUSH3 0x6B0F JUMP JUMPDEST SWAP2 POP POP SWAP3 SWAP2 POP POP JUMP JUMPDEST PUSH1 0x0 DUP1 PUSH1 0x0 DUP1 PUSH1 0x0 PUSH1 0xA0 DUP7 DUP9 SUB SLT ISZERO PUSH3 0x6BAC JUMPI PUSH3 0x6BAB PUSH3 0x54FC JUMP JUMPDEST JUMPDEST PUSH1 0x0 PUSH3 0x6BBC DUP9 DUP3 DUP10 ADD PUSH3 0x5F46 JUMP JUMPDEST SWAP6 POP POP PUSH1 0x20 PUSH3 0x6BCF DUP9 DUP3 DUP10 ADD PUSH3 0x6001 JUMP JUMPDEST SWAP5 POP POP PUSH1 0x40 DUP7 ADD MLOAD PUSH8 0xFFFFFFFFFFFFFFFF DUP2 GT ISZERO PUSH3 0x6BF3 JUMPI PUSH3 0x6BF2 PUSH3 0x5501 JUMP JUMPDEST JUMPDEST PUSH3 0x6C01 DUP9 DUP3 DUP10 ADD PUSH3 0x6B5A JUMP JUMPDEST SWAP4 POP POP PUSH1 0x60 DUP7 ADD MLOAD PUSH8 0xFFFFFFFFFFFFFFFF DUP2 GT ISZERO PUSH3 0x6C25 JUMPI PUSH3 0x6C24 PUSH3 0x5501 JUMP JUMPDEST JUMPDEST PUSH3 0x6C33 DUP9 DUP3 DUP10 ADD PUSH3 0x6B5A JUMP JUMPDEST SWAP3 POP POP PUSH1 0x80 PUSH3 0x6C46 DUP9 DUP3 DUP10 ADD PUSH3 0x5F46 JUMP JUMPDEST SWAP2 POP POP SWAP3 SWAP6 POP SWAP3 SWAP6 SWAP1 SWAP4 POP JUMP JUMPDEST PUSH32 0x61646472657373206973206572726F7200000000000000000000000000000000 PUSH1 0x0 DUP3 ADD MSTORE POP JUMP JUMPDEST PUSH1 0x0 PUSH3 0x6C8B PUSH1 0x10 DUP4 PUSH3 0x570C JUMP JUMPDEST SWAP2 POP PUSH3 0x6C98 DUP3 PUSH3 0x6C53 JUMP JUMPDEST PUSH1 0x20 DUP3 ADD SWAP1 POP SWAP2 SWAP1 POP JUMP JUMPDEST PUSH1 0x0 PUSH1 0x20 DUP3 ADD SWAP1 POP DUP2 DUP2 SUB PUSH1 0x0 DUP4 ADD MSTORE PUSH3 0x6CBE DUP2 PUSH3 0x6C7C JUMP JUMPDEST SWAP1 POP SWAP2 SWAP1 POP JUMP JUMPDEST PUSH32 0x4552433732314D657461646174613A2055524920717565727920666F72206E6F PUSH1 0x0 DUP3 ADD MSTORE PUSH32 0x6E6578697374656E7420746F6B656E0000000000000000000000000000000000 PUSH1 0x20 DUP3 ADD MSTORE POP JUMP JUMPDEST PUSH1 0x0 PUSH3 0x6D23 PUSH1 0x2F DUP4 PUSH3 0x570C JUMP JUMPDEST SWAP2 POP PUSH3 0x6D30 DUP3 PUSH3 0x6CC5 JUMP JUMPDEST PUSH1 0x40 DUP3 ADD SWAP1 POP SWAP2 SWAP1 POP JUMP JUMPDEST PUSH1 0x0 PUSH1 0x20 DUP3 ADD SWAP1 POP DUP2 DUP2 SUB PUSH1 0x0 DUP4 ADD MSTORE PUSH3 0x6D56 DUP2 PUSH3 0x6D14 JUMP JUMPDEST SWAP1 POP SWAP2 SWAP1 POP JUMP JUMPDEST PUSH1 0x0 DUP2 SWAP1 POP SWAP3 SWAP2 POP POP JUMP JUMPDEST PUSH1 0x0 PUSH3 0x6D75 DUP3 PUSH3 0x5701 JUMP JUMPDEST PUSH3 0x6D81 DUP2 DUP6 PUSH3 0x6D5D JUMP JUMPDEST SWAP4 POP PUSH3 0x6D93 DUP2 DUP6 PUSH1 0x20 DUP7 ADD PUSH3 0x571D JUMP JUMPDEST DUP1 DUP5 ADD SWAP2 POP POP SWAP3 SWAP2 POP POP JUMP JUMPDEST PUSH1 0x0 DUP2 SLOAD PUSH3 0x6DAE DUP2 PUSH3 0x6399 JUMP JUMPDEST PUSH3 0x6DBA DUP2 DUP7 PUSH3 0x6D5D JUMP JUMPDEST SWAP5 POP PUSH1 0x1 DUP3 AND PUSH1 0x0 DUP2 EQ PUSH3 0x6DD8 JUMPI PUSH1 0x1 DUP2 EQ PUSH3 0x6DEE JUMPI PUSH3 0x6E25 JUMP JUMPDEST PUSH1 0xFF NOT DUP4 AND DUP7 MSTORE DUP2 ISZERO ISZERO DUP3 MUL DUP7 ADD SWAP4 POP PUSH3 0x6E25 JUMP JUMPDEST PUSH3 0x6DF9 DUP6 PUSH3 0x66A9 JUMP JUMPDEST PUSH1 0x0 JUMPDEST DUP4 DUP2 LT ISZERO PUSH3 0x6E1D JUMPI DUP2 SLOAD DUP2 DUP10 ADD MSTORE PUSH1 0x1 DUP3 ADD SWAP2 POP PUSH1 0x20 DUP2 ADD SWAP1 POP PUSH3 0x6DFC JUMP JUMPDEST DUP4 DUP9 ADD SWAP6 POP POP POP JUMPDEST POP POP POP SWAP3 SWAP2 POP POP JUMP JUMPDEST PUSH1 0x0 PUSH3 0x6E3C DUP3 DUP7 PUSH3 0x6D68 JUMP JUMPDEST SWAP2 POP PUSH3 0x6E4A DUP3 DUP6 PUSH3 0x6D68 JUMP JUMPDEST SWAP2 POP PUSH3 0x6E58 DUP3 DUP5 PUSH3 0x6D9F JUMP JUMPDEST SWAP2 POP DUP2 SWAP1 POP SWAP5 SWAP4 POP POP POP POP JUMP JUMPDEST PUSH32 0x4F776E61626C653A206E6577206F776E657220697320746865207A65726F2061 PUSH1 0x0 DUP3 ADD MSTORE PUSH32 0x6464726573730000000000000000000000000000000000000000000000000000 PUSH1 0x20 DUP3 ADD MSTORE POP JUMP JUMPDEST PUSH1 0x0 PUSH3 0x6EC3 PUSH1 0x26 DUP4 PUSH3 0x570C JUMP JUMPDEST SWAP2 POP PUSH3 0x6ED0 DUP3 PUSH3 0x6E65 JUMP JUMPDEST PUSH1 0x40 DUP3 ADD SWAP1 POP SWAP2 SWAP1 POP JUMP JUMPDEST PUSH1 0x0 PUSH1 0x20 DUP3 ADD SWAP1 POP DUP2 DUP2 SUB PUSH1 0x0 DUP4 ADD MSTORE PUSH3 0x6EF6 DUP2 PUSH3 0x6EB4 JUMP JUMPDEST SWAP1 POP SWAP2 SWAP1 POP JUMP JUMPDEST PUSH1 0x0 PUSH1 0x60 DUP3 ADD SWAP1 POP PUSH3 0x6F14 PUSH1 0x0 DUP4 ADD DUP7 PUSH3 0x57BF JUMP JUMPDEST PUSH3 0x6F23 PUSH1 0x20 DUP4 ADD DUP6 PUSH3 0x57BF JUMP JUMPDEST PUSH3 0x6F32 PUSH1 0x40 DUP4 ADD DUP5 PUSH3 0x5573 JUMP JUMPDEST SWAP5 SWAP4 POP POP POP POP JUMP JUMPDEST PUSH1 0x0 DUP2 MLOAD SWAP1 POP SWAP2 SWAP1 POP JUMP JUMPDEST PUSH1 0x0 DUP2 SWAP1 POP SWAP3 SWAP2 POP POP JUMP JUMPDEST PUSH1 0x0 PUSH3 0x6F5D DUP3 PUSH3 0x6F3A JUMP JUMPDEST PUSH3 0x6F69 DUP2 DUP6 PUSH3 0x6F45 JUMP JUMPDEST SWAP4 POP PUSH3 0x6F7B DUP2 DUP6 PUSH1 0x20 DUP7 ADD PUSH3 0x571D JUMP JUMPDEST DUP1 DUP5 ADD SWAP2 POP POP SWAP3 SWAP2 POP POP JUMP JUMPDEST PUSH1 0x0 PUSH3 0x6F95 DUP3 DUP5 PUSH3 0x6F50 JUMP JUMPDEST SWAP2 POP DUP2 SWAP1 POP SWAP3 SWAP2 POP POP JUMP JUMPDEST PUSH32 0x5472616E7366657248656C7065723A205452414E534645525F46524F4D5F4641 PUSH1 0x0 DUP3 ADD MSTORE PUSH32 0x494C454400000000000000000000000000000000000000000000000000000000 PUSH1 0x20 DUP3 ADD MSTORE POP JUMP JUMPDEST PUSH1 0x0 PUSH3 0x6FFE PUSH1 0x24 DUP4 PUSH3 0x570C JUMP JUMPDEST SWAP2 POP PUSH3 0x700B DUP3 PUSH3 0x6FA0 JUMP JUMPDEST PUSH1 0x40 DUP3 ADD SWAP1 POP SWAP2 SWAP1 POP JUMP JUMPDEST PUSH1 0x0 PUSH1 0x20 DUP3 ADD SWAP1 POP DUP2 DUP2 SUB PUSH1 0x0 DUP4 ADD MSTORE PUSH3 0x7031 DUP2 PUSH3 0x6FEF JUMP JUMPDEST SWAP1 POP SWAP2 SWAP1 POP JUMP JUMPDEST PUSH32 0x4552433732313A206D696E7420746F20746865207A65726F2061646472657373 PUSH1 0x0 DUP3 ADD MSTORE POP JUMP JUMPDEST PUSH1 0x0 PUSH3 0x7070 PUSH1 0x20 DUP4 PUSH3 0x570C JUMP JUMPDEST SWAP2 POP PUSH3 0x707D DUP3 PUSH3 0x7038 JUMP JUMPDEST PUSH1 0x20 DUP3 ADD SWAP1 POP SWAP2 SWAP1 POP JUMP JUMPDEST PUSH1 0x0 PUSH1 0x20 DUP3 ADD SWAP1 POP DUP2 DUP2 SUB PUSH1 0x0 DUP4 ADD MSTORE PUSH3 0x70A3 DUP2 PUSH3 0x7061 JUMP JUMPDEST SWAP1 POP SWAP2 SWAP1 POP JUMP JUMPDEST PUSH32 0x4552433732313A20746F6B656E20616C7265616479206D696E74656400000000 PUSH1 0x0 DUP3 ADD MSTORE POP JUMP JUMPDEST PUSH1 0x0 PUSH3 0x70E2 PUSH1 0x1C DUP4 PUSH3 0x570C JUMP JUMPDEST SWAP2 POP PUSH3 0x70EF DUP3 PUSH3 0x70AA JUMP JUMPDEST PUSH1 0x20 DUP3 ADD SWAP1 POP SWAP2 SWAP1 POP JUMP JUMPDEST PUSH1 0x0 PUSH1 0x20 DUP3 ADD SWAP1 POP DUP2 DUP2 SUB PUSH1 0x0 DUP4 ADD MSTORE PUSH3 0x7115 DUP2 PUSH3 0x70D3 JUMP JUMPDEST SWAP1 POP SWAP2 SWAP1 POP JUMP JUMPDEST PUSH32 0x4F776E61626C653A2063616C6C6572206973206E6F7420746865206F776E6572 PUSH1 0x0 DUP3 ADD MSTORE POP JUMP JUMPDEST PUSH1 0x0 PUSH3 0x7154 PUSH1 0x20 DUP4 PUSH3 0x570C JUMP JUMPDEST SWAP2 POP PUSH3 0x7161 DUP3 PUSH3 0x711C JUMP JUMPDEST PUSH1 0x20 DUP3 ADD SWAP1 POP SWAP2 SWAP1 POP JUMP JUMPDEST PUSH1 0x0 PUSH1 0x20 DUP3 ADD SWAP1 POP DUP2 DUP2 SUB PUSH1 0x0 DUP4 ADD MSTORE PUSH3 0x7187 DUP2 PUSH3 0x7145 JUMP JUMPDEST SWAP1 POP SWAP2 SWAP1 POP JUMP JUMPDEST PUSH32 0x4552433732313A207472616E736665722066726F6D20696E636F727265637420 PUSH1 0x0 DUP3 ADD MSTORE PUSH32 0x6F776E6572000000000000000000000000000000000000000000000000000000 PUSH1 0x20 DUP3 ADD MSTORE POP JUMP JUMPDEST PUSH1 0x0 PUSH3 0x71EC PUSH1 0x25 DUP4 PUSH3 0x570C JUMP JUMPDEST SWAP2 POP PUSH3 0x71F9 DUP3 PUSH3 0x718E JUMP JUMPDEST PUSH1 0x40 DUP3 ADD SWAP1 POP SWAP2 SWAP1 POP JUMP JUMPDEST PUSH1 0x0 PUSH1 0x20 DUP3 ADD SWAP1 POP DUP2 DUP2 SUB PUSH1 0x0 DUP4 ADD MSTORE PUSH3 0x721F DUP2 PUSH3 0x71DD JUMP JUMPDEST SWAP1 POP SWAP2 SWAP1 POP JUMP JUMPDEST PUSH32 0x4552433732313A207472616E7366657220746F20746865207A65726F20616464 PUSH1 0x0 DUP3 ADD MSTORE PUSH32 0x7265737300000000000000000000000000000000000000000000000000000000 PUSH1 0x20 DUP3 ADD MSTORE POP JUMP JUMPDEST PUSH1 0x0 PUSH3 0x7284 PUSH1 0x24 DUP4 PUSH3 0x570C JUMP JUMPDEST SWAP2 POP PUSH3 0x7291 DUP3 PUSH3 0x7226 JUMP JUMPDEST PUSH1 0x40 DUP3 ADD SWAP1 POP SWAP2 SWAP1 POP JUMP JUMPDEST PUSH1 0x0 PUSH1 0x20 DUP3 ADD SWAP1 POP DUP2 DUP2 SUB PUSH1 0x0 DUP4 ADD MSTORE PUSH3 0x72B7 DUP2 PUSH3 0x7275 JUMP JUMPDEST SWAP1 POP SWAP2 SWAP1 POP JUMP JUMPDEST PUSH1 0x0 PUSH3 0x72CB DUP3 PUSH3 0x5506 JUMP JUMPDEST SWAP2 POP PUSH3 0x72D8 DUP4 PUSH3 0x5506 JUMP JUMPDEST SWAP3 POP DUP3 DUP3 SUB SWAP1 POP DUP2 DUP2 GT ISZERO PUSH3 0x72F3 JUMPI PUSH3 0x72F2 PUSH3 0x604A JUMP JUMPDEST JUMPDEST SWAP3 SWAP2 POP POP JUMP JUMPDEST PUSH32 0x4E487B7100000000000000000000000000000000000000000000000000000000 PUSH1 0x0 MSTORE PUSH1 0x31 PUSH1 0x4 MSTORE PUSH1 0x24 PUSH1 0x0 REVERT JUMPDEST PUSH32 0x4552433732313A20617070726F766520746F2063616C6C657200000000000000 PUSH1 0x0 DUP3 ADD MSTORE POP JUMP JUMPDEST PUSH1 0x0 PUSH3 0x7360 PUSH1 0x19 DUP4 PUSH3 0x570C JUMP JUMPDEST SWAP2 POP PUSH3 0x736D DUP3 PUSH3 0x7328 JUMP JUMPDEST PUSH1 0x20 DUP3 ADD SWAP1 POP SWAP2 SWAP1 POP JUMP JUMPDEST PUSH1 0x0 PUSH1 0x20 DUP3 ADD SWAP1 POP DUP2 DUP2 SUB PUSH1 0x0 DUP4 ADD MSTORE PUSH3 0x7393 DUP2 PUSH3 0x7351 JUMP JUMPDEST SWAP1 POP SWAP2 SWAP1 POP JUMP JUMPDEST PUSH32 0x4552433732313A207472616E7366657220746F206E6F6E204552433732315265 PUSH1 0x0 DUP3 ADD MSTORE PUSH32 0x63656976657220696D706C656D656E7465720000000000000000000000000000 PUSH1 0x20 DUP3 ADD MSTORE POP JUMP JUMPDEST PUSH1 0x0 PUSH3 0x73F8 PUSH1 0x32 DUP4 PUSH3 0x570C JUMP JUMPDEST SWAP2 POP PUSH3 0x7405 DUP3 PUSH3 0x739A JUMP JUMPDEST PUSH1 0x40 DUP3 ADD SWAP1 POP SWAP2 SWAP1 POP JUMP JUMPDEST PUSH1 0x0 PUSH1 0x20 DUP3 ADD SWAP1 POP DUP2 DUP2 SUB PUSH1 0x0 DUP4 ADD MSTORE PUSH3 0x742B DUP2 PUSH3 0x73E9 JUMP JUMPDEST SWAP1 POP SWAP2 SWAP1 POP JUMP JUMPDEST PUSH1 0x0 DUP3 DUP3 MSTORE PUSH1 0x20 DUP3 ADD SWAP1 POP SWAP3 SWAP2 POP POP JUMP JUMPDEST PUSH1 0x0 PUSH3 0x7450 DUP3 PUSH3 0x6F3A JUMP JUMPDEST PUSH3 0x745C DUP2 DUP6 PUSH3 0x7432 JUMP JUMPDEST SWAP4 POP PUSH3 0x746E DUP2 DUP6 PUSH1 0x20 DUP7 ADD PUSH3 0x571D JUMP JUMPDEST PUSH3 0x7479 DUP2 PUSH3 0x5749 JUMP JUMPDEST DUP5 ADD SWAP2 POP POP SWAP3 SWAP2 POP POP JUMP JUMPDEST PUSH1 0x0 PUSH1 0x80 DUP3 ADD SWAP1 POP PUSH3 0x749B PUSH1 0x0 DUP4 ADD DUP8 PUSH3 0x57BF JUMP JUMPDEST PUSH3 0x74AA PUSH1 0x20 DUP4 ADD DUP7 PUSH3 0x57BF JUMP JUMPDEST PUSH3 0x74B9 PUSH1 0x40 DUP4 ADD DUP6 PUSH3 0x5573 JUMP JUMPDEST DUP2 DUP2 SUB PUSH1 0x60 DUP4 ADD MSTORE PUSH3 0x74CD DUP2 DUP5 PUSH3 0x7443 JUMP JUMPDEST SWAP1 POP SWAP6 SWAP5 POP POP POP POP POP JUMP JUMPDEST PUSH1 0x0 DUP2 MLOAD SWAP1 POP PUSH3 0x74E9 DUP2 PUSH3 0x55CD JUMP JUMPDEST SWAP3 SWAP2 POP POP JUMP JUMPDEST PUSH1 0x0 PUSH1 0x20 DUP3 DUP5 SUB SLT ISZERO PUSH3 0x7508 JUMPI PUSH3 0x7507 PUSH3 0x54FC JUMP JUMPDEST JUMPDEST PUSH1 0x0 PUSH3 0x7518 DUP5 DUP3 DUP6 ADD PUSH3 0x74D8 JUMP JUMPDEST SWAP2 POP POP SWAP3 SWAP2 POP POP JUMP INVALID PUSH1 0x80 PUSH1 0x40 MSTORE CALLVALUE DUP1 ISZERO PUSH2 0x10 JUMPI PUSH1 0x0 DUP1 REVERT JUMPDEST POP PUSH1 0x40 MLOAD PUSH2 0x2BF CODESIZE SUB DUP1 PUSH2 0x2BF DUP4 CODECOPY DUP2 DUP2 ADD PUSH1 0x40 MSTORE DUP2 ADD SWAP1 PUSH2 0x32 SWAP2 SWAP1 PUSH2 0x11D JUMP JUMPDEST DUP2 PUSH1 0x0 DUP1 PUSH2 0x100 EXP DUP2 SLOAD DUP2 PUSH20 0xFFFFFFFFFFFFFFFFFFFFFFFFFFFFFFFFFFFFFFFF MUL NOT AND SWAP1 DUP4 PUSH20 0xFFFFFFFFFFFFFFFFFFFFFFFFFFFFFFFFFFFFFFFF AND MUL OR SWAP1 SSTORE POP DUP1 PUSH1 0x1 PUSH1 0x0 PUSH2 0x100 EXP DUP2 SLOAD DUP2 PUSH20 0xFFFFFFFFFFFFFFFFFFFFFFFFFFFFFFFFFFFFFFFF MUL NOT AND SWAP1 DUP4 PUSH20 0xFFFFFFFFFFFFFFFFFFFFFFFFFFFFFFFFFFFFFFFF AND MUL OR SWAP1 SSTORE POP POP POP PUSH2 0x15D JUMP JUMPDEST PUSH1 0x0 DUP1 REVERT JUMPDEST PUSH1 0x0 PUSH20 0xFFFFFFFFFFFFFFFFFFFFFFFFFFFFFFFFFFFFFFFF DUP3 AND SWAP1 POP SWAP2 SWAP1 POP JUMP JUMPDEST PUSH1 0x0 PUSH2 0xEA DUP3 PUSH2 0xBF JUMP JUMPDEST SWAP1 POP SWAP2 SWAP1 POP JUMP JUMPDEST PUSH2 0xFA DUP2 PUSH2 0xDF JUMP JUMPDEST DUP2 EQ PUSH2 0x105 JUMPI PUSH1 0x0 DUP1 REVERT JUMPDEST POP JUMP JUMPDEST PUSH1 0x0 DUP2 MLOAD SWAP1 POP PUSH2 0x117 DUP2 PUSH2 0xF1 JUMP JUMPDEST SWAP3 SWAP2 POP POP JUMP JUMPDEST PUSH1 0x0 DUP1 PUSH1 0x40 DUP4 DUP6 SUB SLT ISZERO PUSH2 0x134 JUMPI PUSH2 0x133 PUSH2 0xBA JUMP JUMPDEST JUMPDEST PUSH1 0x0 PUSH2 0x142 DUP6 DUP3 DUP7 ADD PUSH2 0x108 JUMP JUMPDEST SWAP3 POP POP PUSH1 0x20 PUSH2 0x153 DUP6 DUP3 DUP7 ADD PUSH2 0x108 JUMP JUMPDEST SWAP2 POP POP SWAP3 POP SWAP3 SWAP1 POP JUMP JUMPDEST PUSH2 0x153 DUP1 PUSH2 0x16C PUSH1 0x0 CODECOPY PUSH1 0x0 RETURN INVALID PUSH1 0x80 PUSH1 0x40 MSTORE CALLVALUE DUP1 ISZERO PUSH2 0x10 JUMPI PUSH1 0x0 DUP1 REVERT JUMPDEST POP PUSH1 0x4 CALLDATASIZE LT PUSH2 0x36 JUMPI PUSH1 0x0 CALLDATALOAD PUSH1 0xE0 SHR DUP1 PUSH4 0x8DA5CB5B EQ PUSH2 0x3B JUMPI DUP1 PUSH4 0xEFC81A8C EQ PUSH2 0x59 JUMPI JUMPDEST PUSH1 0x0 DUP1 REVERT JUMPDEST PUSH2 0x43 PUSH2 0x77 JUMP JUMPDEST PUSH1 0x40 MLOAD PUSH2 0x50 SWAP2 SWAP1 PUSH2 0x102 JUMP JUMPDEST PUSH1 0x40 MLOAD DUP1 SWAP2 SUB SWAP1 RETURN JUMPDEST PUSH2 0x61 PUSH2 0x9B JUMP JUMPDEST PUSH1 0x40 MLOAD PUSH2 0x6E SWAP2 SWAP1 PUSH2 0x102 JUMP JUMPDEST PUSH1 0x40 MLOAD DUP1 SWAP2 SUB SWAP1 RETURN JUMPDEST PUSH1 0x0 DUP1 SLOAD SWAP1 PUSH2 0x100 EXP SWAP1 DIV PUSH20 0xFFFFFFFFFFFFFFFFFFFFFFFFFFFFFFFFFFFFFFFF AND DUP2 JUMP JUMPDEST PUSH1 0x1 PUSH1 0x0 SWAP1 SLOAD SWAP1 PUSH2 0x100 EXP SWAP1 DIV PUSH20 0xFFFFFFFFFFFFFFFFFFFFFFFFFFFFFFFFFFFFFFFF AND DUP2 JUMP JUMPDEST PUSH1 0x0 PUSH20 0xFFFFFFFFFFFFFFFFFFFFFFFFFFFFFFFFFFFFFFFF DUP3 AND SWAP1 POP SWAP2 SWAP1 POP JUMP JUMPDEST PUSH1 0x0 PUSH2 0xEC DUP3 PUSH2 0xC1 JUMP JUMPDEST SWAP1 POP SWAP2 SWAP1 POP JUMP JUMPDEST PUSH2 0xFC DUP2 PUSH2 0xE1 JUMP JUMPDEST DUP3 MSTORE POP POP JUMP JUMPDEST PUSH1 0x0 PUSH1 0x20 DUP3 ADD SWAP1 POP PUSH2 0x117 PUSH1 0x0 DUP4 ADD DUP5 PUSH2 0xF3 JUMP JUMPDEST SWAP3 SWAP2 POP POP JUMP INVALID LOG2 PUSH5 0x6970667358 0x22 SLT KECCAK256 0xF8 SWAP8 0xE2 0x25 RETURNDATASIZE PUSH10 0x3759CA50DD9E2B9395F1 PUSH6 0x2C23228C0ED4 LT 0xCC ADD 0xEE SWAP5 0xC2 0xD2 NUMBER CALLDATALOAD PUSH5 0x736F6C6343 STOP ADDMOD SLT STOP CALLER LOG2 PUSH5 0x6970667358 0x22 SLT KECCAK256 SWAP15 0xEA ADDMOD 0x1E JUMPI 0xCD ORIGIN 0xE8 0xAD 0xD8 SWAP2 DUP10 PUSH7 0xA4D2A0D63BA0B0 0xB3 DUP9 PUSH30 0xC3719E287330F30CE464736F6C6343000812003368747470733A2F2F6261 PUSH7 0x79626569646675 CALLDATALOAD PUSH12 0x6F7473723274617037327067 CALLDATASIZE PUSH22 0x7569707637796862343770636E7A6964637871737A67 CALLDATALOAD PUSH27 0x3276726577736463652E697066732E6E667473746F726167652E6C PUSH10 0x6E6B2F00000000000000 "
		},
		"gasEstimates": {
			"creation": {
				"codeDepositCost": "6148400",
				"executionCost": "infinite",
				"totalCost": "infinite"
			},
			"external": {
				"BASE_FEE()": "2520",
				"DOWN_FEE_RATIO()": "2518",
				"FEE_RATIO()": "2562",
				"FID()": "2540",
				"FireSeedAddress()": "2581",
				"MIDDLE_FEE_RATIO()": "2497",
				"SBT003_RATE_ONE()": "2542",
				"SBT003_RATE_THREE()": "2542",
				"SBT003_RATE_TWO()": "2519",
				"TOP_FEE_RATIO()": "2519",
				"TOTAL_SBT_003_AMOUNT()": "2497",
				"UserFID(address)": "2883",
				"UserHaveFID(uint256)": "5045",
				"UserToSoul(address)": "infinite",
				"approve(address,uint256)": "infinite",
				"balanceOf(address)": "2943",
				"baseExtension()": "infinite",
				"baseURI()": "infinite",
				"burnToMint(uint256)": "infinite",
				"checkFID(address)": "3017",
				"checkFIDA(address)": "2974",
				"checkPid(address)": "infinite",
				"coefficient(uint256)": "infinite",
				"deleteWhiteList(address[])": "infinite",
				"fee()": "2584",
				"feeOn()": "2633",
				"feeReceiver()": "2625",
				"firePassport()": "2669",
				"getApproved(uint256)": "5345",
				"getSoulAccount(address)": "infinite",
				"getUserHaveFIDLength()": "2559",
				"getWListLength()": "2514",
				"haveFID(address)": "2936",
				"isApprovedForAll(address,address)": "infinite",
				"name()": "infinite",
				"owner()": "2634",
				"ownerOf(uint256)": "3155",
				"pauseControlAddress()": "2627",
				"renounceOwnership()": "30487",
				"safeTransferFrom(address,address,uint256)": "infinite",
				"safeTransferFrom(address,address,uint256,bytes)": "infinite",
				"sbt(uint256)": "5090",
				"sbt003()": "2668",
				"sbtAddress(uint256)": "5091",
				"sbtTokenAmount(address,uint256)": "infinite",
				"setApprovalForAll(address,bool)": "infinite",
				"setBaseURI(string)": "infinite",
				"setDistribute(uint256,uint256,uint256)": "infinite",
				"setFee(uint256)": "24896",
				"setFeeReceiver(address)": "27074",
				"setFeeStatus()": "28982",
				"setFireSeedAddress(address)": "27055",
				"setFp(address)": "27111",
				"setPauseControlAddress(address)": "27142",
				"setSBT003Amount(uint256)": "24918",
				"setSbt003Address(address)": "27119",
				"setSbt003AmountRate(uint256,uint256,uint256)": "infinite",
				"setStatus()": "28954",
				"setTreasuryDistributionContract(address)": "27118",
				"setWeth(address)": "27054",
				"setWhiteList(address[])": "infinite",
				"status()": "2656",
				"supportsInterface(bytes4)": "865",
				"symbol()": "infinite",
				"tokenURI(uint256)": "infinite",
				"transferFrom(address,address,uint256)": "infinite",
				"transferOwnership(address)": "30854",
				"treasuryDistributionContract()": "2625",
				"weth()": "2649",
				"whiteLists(uint256)": "infinite",
				"wlist(address)": "2980"
			},
			"internal": {
				"_baseURI()": "infinite",
				"checkRepeat(address)": "infinite",
				"deleteList(address)": "infinite"
			}
		},
		"methodIdentifiers": {
			"BASE_FEE()": "3d18651e",
			"DOWN_FEE_RATIO()": "e23767e2",
			"FEE_RATIO()": "b83282da",
			"FID()": "763d8c16",
			"FireSeedAddress()": "abbb376c",
			"MIDDLE_FEE_RATIO()": "8af668d5",
			"SBT003_RATE_ONE()": "84ee66c0",
			"SBT003_RATE_THREE()": "3d923b9e",
			"SBT003_RATE_TWO()": "444d57b1",
			"TOP_FEE_RATIO()": "8d6eaf94",
			"TOTAL_SBT_003_AMOUNT()": "64f0d7af",
			"UserFID(address)": "3c344ce1",
			"UserHaveFID(uint256)": "ac949c6f",
			"UserToSoul(address)": "e15658c7",
			"approve(address,uint256)": "095ea7b3",
			"balanceOf(address)": "70a08231",
			"baseExtension()": "c6682862",
			"baseURI()": "6c0360eb",
			"burnToMint(uint256)": "05737aae",
			"checkFID(address)": "91c71988",
			"checkFIDA(address)": "e75729f2",
			"checkPid(address)": "c0191114",
			"coefficient(uint256)": "01af001d",
			"deleteWhiteList(address[])": "2d871b73",
			"fee()": "ddca3f43",
			"feeOn()": "4f335d0a",
			"feeReceiver()": "b3f00674",
			"firePassport()": "7b4392cb",
			"getApproved(uint256)": "081812fc",
			"getSoulAccount(address)": "be5f0cc9",
			"getUserHaveFIDLength()": "026fe9f2",
			"getWListLength()": "7ebaba90",
			"haveFID(address)": "0b6b9d77",
			"isApprovedForAll(address,address)": "e985e9c5",
			"name()": "06fdde03",
			"owner()": "8da5cb5b",
			"ownerOf(uint256)": "6352211e",
			"pauseControlAddress()": "0bfc24f8",
			"renounceOwnership()": "715018a6",
			"safeTransferFrom(address,address,uint256)": "42842e0e",
			"safeTransferFrom(address,address,uint256,bytes)": "b88d4fde",
			"sbt(uint256)": "a269fbe5",
			"sbt003()": "ffb0e20d",
			"sbtAddress(uint256)": "088572cc",
			"sbtTokenAmount(address,uint256)": "2e082d5c",
			"setApprovalForAll(address,bool)": "a22cb465",
			"setBaseURI(string)": "55f804b3",
			"setDistribute(uint256,uint256,uint256)": "66b5baf6",
			"setFee(uint256)": "69fe0e2d",
			"setFeeReceiver(address)": "efdcd974",
			"setFeeStatus()": "98bad7e6",
			"setFireSeedAddress(address)": "06dd6060",
			"setFp(address)": "9bc8a9e4",
			"setPauseControlAddress(address)": "34b999d0",
			"setSBT003Amount(uint256)": "2ff066be",
			"setSbt003Address(address)": "d9d518f3",
			"setSbt003AmountRate(uint256,uint256,uint256)": "846218d9",
			"setStatus()": "c0336629",
			"setTreasuryDistributionContract(address)": "fd4329f4",
			"setWeth(address)": "b8d1452f",
			"setWhiteList(address[])": "775b9c13",
			"status()": "200d2ed2",
			"supportsInterface(bytes4)": "01ffc9a7",
			"symbol()": "95d89b41",
			"tokenURI(uint256)": "c87b56dd",
			"transferFrom(address,address,uint256)": "23b872dd",
			"transferOwnership(address)": "f2fde38b",
			"treasuryDistributionContract()": "e3840bc1",
			"weth()": "3fc8cef3",
			"whiteLists(uint256)": "c56b7142",
			"wlist(address)": "8af4b86a"
		}
	},
	"abi": [
		{
			"inputs": [
				{
					"internalType": "address",
					"name": "_fireseed",
					"type": "address"
				},
				{
					"internalType": "address",
					"name": "_firePassport",
					"type": "address"
				},
				{
					"internalType": "address",
					"name": "_weth",
					"type": "address"
				}
			],
			"stateMutability": "nonpayable",
			"type": "constructor"
		},
		{
			"anonymous": false,
			"inputs": [
				{
					"indexed": true,
					"internalType": "address",
					"name": "owner",
					"type": "address"
				},
				{
					"indexed": true,
					"internalType": "address",
					"name": "approved",
					"type": "address"
				},
				{
					"indexed": true,
					"internalType": "uint256",
					"name": "tokenId",
					"type": "uint256"
				}
			],
			"name": "Approval",
			"type": "event"
		},
		{
			"anonymous": false,
			"inputs": [
				{
					"indexed": true,
					"internalType": "address",
					"name": "owner",
					"type": "address"
				},
				{
					"indexed": true,
					"internalType": "address",
					"name": "operator",
					"type": "address"
				},
				{
					"indexed": false,
					"internalType": "bool",
					"name": "approved",
					"type": "bool"
				}
			],
			"name": "ApprovalForAll",
			"type": "event"
		},
		{
			"anonymous": false,
			"inputs": [
				{
					"indexed": true,
					"internalType": "address",
					"name": "previousOwner",
					"type": "address"
				},
				{
					"indexed": true,
					"internalType": "address",
					"name": "newOwner",
					"type": "address"
				}
			],
			"name": "OwnershipTransferred",
			"type": "event"
		},
		{
			"anonymous": false,
			"inputs": [
				{
					"indexed": true,
					"internalType": "address",
					"name": "from",
					"type": "address"
				},
				{
					"indexed": true,
					"internalType": "address",
					"name": "to",
					"type": "address"
				},
				{
					"indexed": true,
					"internalType": "uint256",
					"name": "tokenId",
					"type": "uint256"
				}
			],
			"name": "Transfer",
			"type": "event"
		},
		{
			"inputs": [],
			"name": "BASE_FEE",
			"outputs": [
				{
					"internalType": "uint256",
					"name": "",
					"type": "uint256"
				}
			],
			"stateMutability": "view",
			"type": "function"
		},
		{
			"inputs": [],
			"name": "DOWN_FEE_RATIO",
			"outputs": [
				{
					"internalType": "uint256",
					"name": "",
					"type": "uint256"
				}
			],
			"stateMutability": "view",
			"type": "function"
		},
		{
			"inputs": [],
			"name": "FEE_RATIO",
			"outputs": [
				{
					"internalType": "uint256",
					"name": "",
					"type": "uint256"
				}
			],
			"stateMutability": "view",
			"type": "function"
		},
		{
			"inputs": [],
			"name": "FID",
			"outputs": [
				{
					"internalType": "uint256",
					"name": "",
					"type": "uint256"
				}
			],
			"stateMutability": "view",
			"type": "function"
		},
		{
			"inputs": [],
			"name": "FireSeedAddress",
			"outputs": [
				{
					"internalType": "address",
					"name": "",
					"type": "address"
				}
			],
			"stateMutability": "view",
			"type": "function"
		},
		{
			"inputs": [],
			"name": "MIDDLE_FEE_RATIO",
			"outputs": [
				{
					"internalType": "uint256",
					"name": "",
					"type": "uint256"
				}
			],
			"stateMutability": "view",
			"type": "function"
		},
		{
			"inputs": [],
			"name": "SBT003_RATE_ONE",
			"outputs": [
				{
					"internalType": "uint256",
					"name": "",
					"type": "uint256"
				}
			],
			"stateMutability": "view",
			"type": "function"
		},
		{
			"inputs": [],
			"name": "SBT003_RATE_THREE",
			"outputs": [
				{
					"internalType": "uint256",
					"name": "",
					"type": "uint256"
				}
			],
			"stateMutability": "view",
			"type": "function"
		},
		{
			"inputs": [],
			"name": "SBT003_RATE_TWO",
			"outputs": [
				{
					"internalType": "uint256",
					"name": "",
					"type": "uint256"
				}
			],
			"stateMutability": "view",
			"type": "function"
		},
		{
			"inputs": [],
			"name": "TOP_FEE_RATIO",
			"outputs": [
				{
					"internalType": "uint256",
					"name": "",
					"type": "uint256"
				}
			],
			"stateMutability": "view",
			"type": "function"
		},
		{
			"inputs": [],
			"name": "TOTAL_SBT_003_AMOUNT",
			"outputs": [
				{
					"internalType": "uint256",
					"name": "",
					"type": "uint256"
				}
			],
			"stateMutability": "view",
			"type": "function"
		},
		{
			"inputs": [
				{
					"internalType": "address",
					"name": "",
					"type": "address"
				}
			],
			"name": "UserFID",
			"outputs": [
				{
					"internalType": "uint256",
					"name": "",
					"type": "uint256"
				}
			],
			"stateMutability": "view",
			"type": "function"
		},
		{
			"inputs": [
				{
					"internalType": "uint256",
					"name": "",
					"type": "uint256"
				}
			],
			"name": "UserHaveFID",
			"outputs": [
				{
					"internalType": "address",
					"name": "",
					"type": "address"
				}
			],
			"stateMutability": "view",
			"type": "function"
		},
		{
			"inputs": [
				{
					"internalType": "address",
					"name": "",
					"type": "address"
				}
			],
			"name": "UserToSoul",
			"outputs": [
				{
					"internalType": "address",
					"name": "",
					"type": "address"
				}
			],
			"stateMutability": "view",
			"type": "function"
		},
		{
			"inputs": [
				{
					"internalType": "address",
					"name": "to",
					"type": "address"
				},
				{
					"internalType": "uint256",
					"name": "tokenId",
					"type": "uint256"
				}
			],
			"name": "approve",
			"outputs": [],
			"stateMutability": "nonpayable",
			"type": "function"
		},
		{
			"inputs": [
				{
					"internalType": "address",
					"name": "owner",
					"type": "address"
				}
			],
			"name": "balanceOf",
			"outputs": [
				{
					"internalType": "uint256",
					"name": "",
					"type": "uint256"
				}
			],
			"stateMutability": "view",
			"type": "function"
		},
		{
			"inputs": [],
			"name": "baseExtension",
			"outputs": [
				{
					"internalType": "string",
					"name": "",
					"type": "string"
				}
			],
			"stateMutability": "view",
			"type": "function"
		},
		{
			"inputs": [],
			"name": "baseURI",
			"outputs": [
				{
					"internalType": "string",
					"name": "",
					"type": "string"
				}
			],
			"stateMutability": "view",
			"type": "function"
		},
		{
			"inputs": [
				{
					"internalType": "uint256",
					"name": "_tokenId",
					"type": "uint256"
				}
			],
			"name": "burnToMint",
			"outputs": [],
			"stateMutability": "payable",
			"type": "function"
		},
		{
			"inputs": [
				{
					"internalType": "address",
					"name": "user",
					"type": "address"
				}
			],
			"name": "checkFID",
			"outputs": [
				{
					"internalType": "bool",
					"name": "",
					"type": "bool"
				}
			],
			"stateMutability": "view",
			"type": "function"
		},
		{
			"inputs": [
				{
					"internalType": "address",
					"name": "_user",
					"type": "address"
				}
			],
			"name": "checkFIDA",
			"outputs": [
				{
					"internalType": "uint256",
					"name": "",
					"type": "uint256"
				}
			],
			"stateMutability": "view",
			"type": "function"
		},
		{
			"inputs": [
				{
					"internalType": "address",
					"name": "_user",
					"type": "address"
				}
			],
			"name": "checkPid",
			"outputs": [
				{
					"internalType": "uint256",
					"name": "",
					"type": "uint256"
				}
			],
			"stateMutability": "view",
			"type": "function"
		},
		{
			"inputs": [
				{
					"internalType": "uint256",
					"name": "",
					"type": "uint256"
				}
			],
			"name": "coefficient",
			"outputs": [
				{
					"internalType": "uint256",
					"name": "",
					"type": "uint256"
				}
			],
			"stateMutability": "view",
			"type": "function"
		},
		{
			"inputs": [
				{
					"internalType": "address[]",
					"name": "_user",
					"type": "address[]"
				}
			],
			"name": "deleteWhiteList",
			"outputs": [],
			"stateMutability": "nonpayable",
			"type": "function"
		},
		{
			"inputs": [],
			"name": "fee",
			"outputs": [
				{
					"internalType": "uint256",
					"name": "",
					"type": "uint256"
				}
			],
			"stateMutability": "view",
			"type": "function"
		},
		{
			"inputs": [],
			"name": "feeOn",
			"outputs": [
				{
					"internalType": "bool",
					"name": "",
					"type": "bool"
				}
			],
			"stateMutability": "view",
			"type": "function"
		},
		{
			"inputs": [],
			"name": "feeReceiver",
			"outputs": [
				{
					"internalType": "address",
					"name": "",
					"type": "address"
				}
			],
			"stateMutability": "view",
			"type": "function"
		},
		{
			"inputs": [],
			"name": "firePassport",
			"outputs": [
				{
					"internalType": "address",
					"name": "",
					"type": "address"
				}
			],
			"stateMutability": "view",
			"type": "function"
		},
		{
			"inputs": [
				{
					"internalType": "uint256",
					"name": "tokenId",
					"type": "uint256"
				}
			],
			"name": "getApproved",
			"outputs": [
				{
					"internalType": "address",
					"name": "",
					"type": "address"
				}
			],
			"stateMutability": "view",
			"type": "function"
		},
		{
			"inputs": [
				{
					"internalType": "address",
					"name": "_user",
					"type": "address"
				}
			],
			"name": "getSoulAccount",
			"outputs": [
				{
					"internalType": "address",
					"name": "",
					"type": "address"
				}
			],
			"stateMutability": "view",
			"type": "function"
		},
		{
			"inputs": [],
			"name": "getUserHaveFIDLength",
			"outputs": [
				{
					"internalType": "uint256",
					"name": "",
					"type": "uint256"
				}
			],
			"stateMutability": "view",
			"type": "function"
		},
		{
			"inputs": [],
			"name": "getWListLength",
			"outputs": [
				{
					"internalType": "uint256",
					"name": "",
					"type": "uint256"
				}
			],
			"stateMutability": "view",
			"type": "function"
		},
		{
			"inputs": [
				{
					"internalType": "address",
					"name": "",
					"type": "address"
				}
			],
			"name": "haveFID",
			"outputs": [
				{
					"internalType": "bool",
					"name": "",
					"type": "bool"
				}
			],
			"stateMutability": "view",
			"type": "function"
		},
		{
			"inputs": [
				{
					"internalType": "address",
					"name": "owner",
					"type": "address"
				},
				{
					"internalType": "address",
					"name": "operator",
					"type": "address"
				}
			],
			"name": "isApprovedForAll",
			"outputs": [
				{
					"internalType": "bool",
					"name": "",
					"type": "bool"
				}
			],
			"stateMutability": "view",
			"type": "function"
		},
		{
			"inputs": [],
			"name": "name",
			"outputs": [
				{
					"internalType": "string",
					"name": "",
					"type": "string"
				}
			],
			"stateMutability": "view",
			"type": "function"
		},
		{
			"inputs": [],
			"name": "owner",
			"outputs": [
				{
					"internalType": "address",
					"name": "",
					"type": "address"
				}
			],
			"stateMutability": "view",
			"type": "function"
		},
		{
			"inputs": [
				{
					"internalType": "uint256",
					"name": "tokenId",
					"type": "uint256"
				}
			],
			"name": "ownerOf",
			"outputs": [
				{
					"internalType": "address",
					"name": "",
					"type": "address"
				}
			],
			"stateMutability": "view",
			"type": "function"
		},
		{
			"inputs": [],
			"name": "pauseControlAddress",
			"outputs": [
				{
					"internalType": "address",
					"name": "",
					"type": "address"
				}
			],
			"stateMutability": "view",
			"type": "function"
		},
		{
			"inputs": [],
			"name": "renounceOwnership",
			"outputs": [],
			"stateMutability": "nonpayable",
			"type": "function"
		},
		{
			"inputs": [
				{
					"internalType": "address",
					"name": "from",
					"type": "address"
				},
				{
					"internalType": "address",
					"name": "to",
					"type": "address"
				},
				{
					"internalType": "uint256",
					"name": "tokenId",
					"type": "uint256"
				}
			],
			"name": "safeTransferFrom",
			"outputs": [],
			"stateMutability": "nonpayable",
			"type": "function"
		},
		{
			"inputs": [
				{
					"internalType": "address",
					"name": "from",
					"type": "address"
				},
				{
					"internalType": "address",
					"name": "to",
					"type": "address"
				},
				{
					"internalType": "uint256",
					"name": "tokenId",
					"type": "uint256"
				},
				{
					"internalType": "bytes",
					"name": "data",
					"type": "bytes"
				}
			],
			"name": "safeTransferFrom",
			"outputs": [],
			"stateMutability": "nonpayable",
			"type": "function"
		},
		{
			"inputs": [
				{
					"internalType": "uint256",
					"name": "",
					"type": "uint256"
				}
			],
			"name": "sbt",
			"outputs": [
				{
					"internalType": "address",
					"name": "",
					"type": "address"
				}
			],
			"stateMutability": "view",
			"type": "function"
		},
		{
			"inputs": [],
			"name": "sbt003",
			"outputs": [
				{
					"internalType": "address",
					"name": "",
					"type": "address"
				}
			],
			"stateMutability": "view",
			"type": "function"
		},
		{
			"inputs": [
				{
					"internalType": "uint256",
					"name": "",
					"type": "uint256"
				}
			],
			"name": "sbtAddress",
			"outputs": [
				{
					"internalType": "address",
					"name": "",
					"type": "address"
				}
			],
			"stateMutability": "view",
			"type": "function"
		},
		{
			"inputs": [
				{
					"internalType": "address",
					"name": "",
					"type": "address"
				},
				{
					"internalType": "uint256",
					"name": "",
					"type": "uint256"
				}
			],
			"name": "sbtTokenAmount",
			"outputs": [
				{
					"internalType": "uint256",
					"name": "",
					"type": "uint256"
				}
			],
			"stateMutability": "view",
			"type": "function"
		},
		{
			"inputs": [
				{
					"internalType": "address",
					"name": "operator",
					"type": "address"
				},
				{
					"internalType": "bool",
					"name": "approved",
					"type": "bool"
				}
			],
			"name": "setApprovalForAll",
			"outputs": [],
			"stateMutability": "nonpayable",
			"type": "function"
		},
		{
			"inputs": [
				{
					"internalType": "string",
					"name": "baseURI_",
					"type": "string"
				}
			],
			"name": "setBaseURI",
			"outputs": [],
			"stateMutability": "nonpayable",
			"type": "function"
		},
		{
			"inputs": [
				{
					"internalType": "uint256",
					"name": "top",
					"type": "uint256"
				},
				{
					"internalType": "uint256",
					"name": "middle",
					"type": "uint256"
				},
				{
					"internalType": "uint256",
					"name": "down",
					"type": "uint256"
				}
			],
			"name": "setDistribute",
			"outputs": [],
			"stateMutability": "nonpayable",
			"type": "function"
		},
		{
			"inputs": [
				{
					"internalType": "uint256",
					"name": "_fee",
					"type": "uint256"
				}
			],
			"name": "setFee",
			"outputs": [],
			"stateMutability": "nonpayable",
			"type": "function"
		},
		{
			"inputs": [
				{
					"internalType": "address",
					"name": "_to",
					"type": "address"
				}
			],
			"name": "setFeeReceiver",
			"outputs": [],
			"stateMutability": "nonpayable",
			"type": "function"
		},
		{
			"inputs": [],
			"name": "setFeeStatus",
			"outputs": [],
			"stateMutability": "nonpayable",
			"type": "function"
		},
		{
			"inputs": [
				{
					"internalType": "address",
					"name": "_FireSeedAddress",
					"type": "address"
				}
			],
			"name": "setFireSeedAddress",
			"outputs": [],
			"stateMutability": "nonpayable",
			"type": "function"
		},
		{
			"inputs": [
				{
					"internalType": "address payable",
					"name": "_fp",
					"type": "address"
				}
			],
			"name": "setFp",
			"outputs": [],
			"stateMutability": "nonpayable",
			"type": "function"
		},
		{
			"inputs": [
				{
					"internalType": "address",
					"name": "_pauseControlAddress",
					"type": "address"
				}
			],
			"name": "setPauseControlAddress",
			"outputs": [],
			"stateMutability": "nonpayable",
			"type": "function"
		},
		{
			"inputs": [
				{
					"internalType": "uint256",
					"name": "_amount",
					"type": "uint256"
				}
			],
			"name": "setSBT003Amount",
			"outputs": [],
			"stateMutability": "nonpayable",
			"type": "function"
		},
		{
			"inputs": [
				{
					"internalType": "address",
					"name": "_sbt003",
					"type": "address"
				}
			],
			"name": "setSbt003Address",
			"outputs": [],
			"stateMutability": "nonpayable",
			"type": "function"
		},
		{
			"inputs": [
				{
					"internalType": "uint256",
					"name": "top",
					"type": "uint256"
				},
				{
					"internalType": "uint256",
					"name": "middle",
					"type": "uint256"
				},
				{
					"internalType": "uint256",
					"name": "down",
					"type": "uint256"
				}
			],
			"name": "setSbt003AmountRate",
			"outputs": [],
			"stateMutability": "nonpayable",
			"type": "function"
		},
		{
			"inputs": [],
			"name": "setStatus",
			"outputs": [],
			"stateMutability": "nonpayable",
			"type": "function"
		},
		{
			"inputs": [
				{
					"internalType": "address",
					"name": "_addr",
					"type": "address"
				}
			],
			"name": "setTreasuryDistributionContract",
			"outputs": [],
			"stateMutability": "nonpayable",
			"type": "function"
		},
		{
			"inputs": [
				{
					"internalType": "address",
					"name": "_weth",
					"type": "address"
				}
			],
			"name": "setWeth",
			"outputs": [],
			"stateMutability": "nonpayable",
			"type": "function"
		},
		{
			"inputs": [
				{
					"internalType": "address[]",
					"name": "_user",
					"type": "address[]"
				}
			],
			"name": "setWhiteList",
			"outputs": [],
			"stateMutability": "nonpayable",
			"type": "function"
		},
		{
			"inputs": [],
			"name": "status",
			"outputs": [
				{
					"internalType": "bool",
					"name": "",
					"type": "bool"
				}
			],
			"stateMutability": "view",
			"type": "function"
		},
		{
			"inputs": [
				{
					"internalType": "bytes4",
					"name": "interfaceId",
					"type": "bytes4"
				}
			],
			"name": "supportsInterface",
			"outputs": [
				{
					"internalType": "bool",
					"name": "",
					"type": "bool"
				}
			],
			"stateMutability": "view",
			"type": "function"
		},
		{
			"inputs": [],
			"name": "symbol",
			"outputs": [
				{
					"internalType": "string",
					"name": "",
					"type": "string"
				}
			],
			"stateMutability": "view",
			"type": "function"
		},
		{
			"inputs": [
				{
					"internalType": "uint256",
					"name": "tokenId",
					"type": "uint256"
				}
			],
			"name": "tokenURI",
			"outputs": [
				{
					"internalType": "string",
					"name": "",
					"type": "string"
				}
			],
			"stateMutability": "view",
			"type": "function"
		},
		{
			"inputs": [
				{
					"internalType": "address",
					"name": "from",
					"type": "address"
				},
				{
					"internalType": "address",
					"name": "to",
					"type": "address"
				},
				{
					"internalType": "uint256",
					"name": "tokenId",
					"type": "uint256"
				}
			],
			"name": "transferFrom",
			"outputs": [],
			"stateMutability": "nonpayable",
			"type": "function"
		},
		{
			"inputs": [
				{
					"internalType": "address",
					"name": "newOwner",
					"type": "address"
				}
			],
			"name": "transferOwnership",
			"outputs": [],
			"stateMutability": "nonpayable",
			"type": "function"
		},
		{
			"inputs": [],
			"name": "treasuryDistributionContract",
			"outputs": [
				{
					"internalType": "address",
					"name": "",
					"type": "address"
				}
			],
			"stateMutability": "view",
			"type": "function"
		},
		{
			"inputs": [],
			"name": "weth",
			"outputs": [
				{
					"internalType": "address",
					"name": "",
					"type": "address"
				}
			],
			"stateMutability": "view",
			"type": "function"
		},
		{
			"inputs": [
				{
					"internalType": "uint256",
					"name": "",
					"type": "uint256"
				}
			],
			"name": "whiteLists",
			"outputs": [
				{
					"internalType": "address",
					"name": "user",
					"type": "address"
				},
				{
					"internalType": "uint256",
					"name": "pid",
					"type": "uint256"
				}
			],
			"stateMutability": "view",
			"type": "function"
		},
		{
			"inputs": [
				{
					"internalType": "address",
					"name": "",
					"type": "address"
				}
			],
			"name": "wlist",
			"outputs": [
				{
					"internalType": "bool",
					"name": "",
					"type": "bool"
				}
			],
			"stateMutability": "view",
			"type": "function"
		}
	]
}