{
	"data": {
		"bytecode": {
			"linkReferences": {},
			"object": "60806040523480156200001157600080fd5b5060405162002fa038038062002fa08339810160408190526200003491620000e6565b60008054600380546001600160a01b039788166001600160a01b0319918216179091556002805496881696821696909617909555600180549487169486169490941790935560058054928616929094169190911790925562ff00001961ff0019939094166301000000029290921662ff0100600160b81b03199092169190911761010017919091166201000017905562000156565b80516001600160a01b0381168114620000e157600080fd5b919050565b600080600080600060a08688031215620000ff57600080fd5b6200010a86620000c9565b94506200011a60208701620000c9565b93506200012a60408701620000c9565b92506200013a60608701620000c9565b91506200014a60808701620000c9565b90509295509295909350565b612e3a80620001666000396000f3fe6080604052600436106101d85760003560e01c80636197d88511610102578063b3f0067411610095578063cd84cbff11610064578063cd84cbff14610566578063e3840bc114610586578063e70efbfd146105a6578063f32f3678146105c657600080fd5b8063b3f0067414610504578063bbd99dbc14610519578063be241531146101dd578063c884ef831461053957600080fd5b806388576cfa116100d157806388576cfa146104755780638c6abbee14610497578063963671be146104b7578063b399b0bc146104d757600080fd5b80636197d8851461040b57806369e154041461042d57806377fd034814610442578063822d2ef71461045557600080fd5b80632fa9083a1161017a5780633fc8cef3116101495780633fc8cef31461039957806342a66f68146103c057806346be42fa146103d65780635ca04266146103f657600080fd5b80632fa9083a146103155780632fb9e41f1461032a578063379607f51461035a5780633e89340f1461037a57600080fd5b806325ad91ce116101b657806325ad91ce1461025657806327b2a9e61461028e5780632c16cd8a146102ae5780632e468b7e146102f357600080fd5b80630274c094146101dd57806307802414146102085780631a39d8ef14610232575b600080fd5b3480156101e957600080fd5b506101f26105e6565b6040516101ff9190612643565b60405180910390f35b34801561021457600080fd5b5061021d61064b565b6040516101ff999897969594939291906126e0565b34801561023e57600080fd5b5061024860065481565b6040519081526020016101ff565b34801561026257600080fd5b50600554610276906001600160a01b031681565b6040516001600160a01b0390911681526020016101ff565b34801561029a57600080fd5b50600454610276906001600160a01b031681565b3480156102ba57600080fd5b506102ce6102c936600461273f565b61071e565b604080516001600160a01b0390941684526020840192909252908201526060016101ff565b3480156102ff57600080fd5b5061031361030e36600461277d565b61075b565b005b34801561032157600080fd5b50601154610248565b34801561033657600080fd5b5060005461034a9062010000900460ff1681565b60405190151581526020016101ff565b34801561036657600080fd5b5061031361037536600461273f565b6109cc565b34801561038657600080fd5b5060005461034a90610100900460ff1681565b3480156103a557600080fd5b5060005461027690630100000090046001600160a01b031681565b3480156103cc57600080fd5b5061024860075481565b3480156103e257600080fd5b506102486103f136600461273f565b610f9e565b34801561040257600080fd5b50601354610248565b34801561041757600080fd5b50610420611158565b6040516101ff91906127ad565b34801561043957600080fd5b506102486111b2565b61031361045036600461298f565b611225565b34801561046157600080fd5b50610313610470366004612a60565b611b44565b34801561048157600080fd5b5061048a611ca9565b6040516101ff9190612a95565b3480156104a357600080fd5b5061034a6104b2366004612aa8565b611d35565b3480156104c357600080fd5b50600154610276906001600160a01b031681565b3480156104e357600080fd5b506102486104f2366004612add565b60166020526000908152604090205481565b34801561051057600080fd5b50610276611de1565b34801561052557600080fd5b50610248610534366004612add565b611e4f565b34801561054557600080fd5b50610248610554366004612add565b60146020526000908152604090205481565b34801561057257600080fd5b5061034a610581366004612a60565b611f0e565b34801561059257600080fd5b50600254610276906001600160a01b031681565b3480156105b257600080fd5b506103136105c1366004612add565b611f72565b3480156105d257600080fd5b50600354610276906001600160a01b031681565b6060600860090180548060200260200160405190810160405280929190818152602001828054801561064157602002820191906000526020600020905b81546001600160a01b03168152600190910190602001808311610623575b5050505050905090565b60088054819061065a90612afa565b80601f016020809104026020016040519081016040528092919081815260200182805461068690612afa565b80156106d35780601f106106a8576101008083540402835291602001916106d3565b820191906000526020600020905b8154815290600101906020018083116106b657829003601f168201915b50505060018401546002850154600386015460048701546005880154600689015460088a0154600a909a0154989995989497506001600160a01b039384169650919490939192169089565b6013818154811061072e57600080fd5b60009182526020909120600390910201805460018201546002909201546001600160a01b03909116925083565b60005462010000900460ff1661078c5760405162461bcd60e51b815260040161078390612b34565b60405180910390fd5b61079581612117565b6107e15760405162461bcd60e51b815260206004820152601e60248201527f466972654c6f636b3a20746865206164647265737320697320657869737400006044820152606401610783565b6001600160a01b0381166108475760405162461bcd60e51b815260206004820152602760248201527f466972654c6f636b3a207468652061646472657373207a65726f206973206e6f6044820152667420616c6c6f7760c81b6064820152608401610783565b6011546108965760405162461bcd60e51b815260206004820152601b60248201527f466972654c6f636b3a207573657220616d6f756e74206572726f7200000000006044820152606401610783565b600b546001600160a01b031633146108ad57600080fd5b60115482106108fe5760405162461bcd60e51b815260206004820152601b60248201527f466972654c6f636b3a20496e76616c6964206d656d62657220494400000000006044820152606401610783565b60006008600901838154811061091657610916612b81565b60009182526020808320909101546001600160a01b039081168084526014835260408085208054938816808752828720949094558286528590556016845280852080548487528287205582865285905560159093528284208054928552928420919091558083529190556011805491925083918590811061099957610999612b81565b9060005260206000200160006101000a8154816001600160a01b0302191690836001600160a01b03160217905550505050565b60005460ff1615610a315760405162461bcd60e51b815260206004820152602960248201527f466972654c6f636b3a205265656e7472616e637947756172643a207265656e746044820152681c985b9d0818d85b1b60ba1b6064820152608401610783565b6000805460ff19166001179081905562010000900460ff16610a655760405162461bcd60e51b815260040161078390612b34565b600754606414610ab75760405162461bcd60e51b815260206004820152601760248201527f466972654c6f636b3a2072617465206973206572726f720000000000000000006044820152606401610783565b6012544211610b085760405162461bcd60e51b815260206004820152601b60248201527f466972654c6f636b3a207374696c6c20636c696666506572696f6400000000006044820152606401610783565b6000610b1333611e4f565b6006546010543360009081526015602052604081205493945091926001600160a01b03909116919015610b605733600090815260156020526040902054610b5b90429061217c565b610b6e565b601254610b6e90429061217c565b600e54600d54919250600091610b92916201518091610b8c91612191565b90612191565b90506000610bd46064610bce60086007018981548110610bb457610bb4612b81565b90600052602060002001548861219190919063ffffffff16565b9061219d565b90506000610be683610bce8487612191565b336000908152601460205260409020549091508211610c615760405162461bcd60e51b815260206004820152603160248201527f466972654c6f636b3a20596f7520646f206e6f74206861766520656e6f7567686044820152702062616c616e636520746f20636c61696d60781b6064820152608401610783565b81881115610cb15760405162461bcd60e51b815260206004820152601c60248201527f466972654c6f636b3a20496e73756666696369656e742071756f7461000000006044820152606401610783565b33600090815260166020526040902054610ccc9082906121a9565b881115610d325760405162461bcd60e51b815260206004820152602e60248201527f466972654c6f636b3a20436c61696d20616d6f756e742065786365656473206160448201526d6c6c6f776564206d6178696d756d60901b6064820152608401610783565b336000908152601460205260409020548290610d4e908a6121a9565b1115610dba5760405162461bcd60e51b815260206004820152603560248201527f466972654c6f636b3a20436c61696d20616d6f756e7420657863656564732075604482015274736572277320616c6c6f776564206d6178696d756d60581b6064820152608401610783565b610dce6001600160a01b038616338a6121b5565b600c54610ddb908961217c565b600c553360009081526015602090815260408083204290556016909152902054610e12908990610e0c9084906121a9565b9061217c565b3360008181526016602090815260408083209490945583516060810185528381528082018d8152428287019081526013805460018101825590865283517f66de8ffda797e3de9c05e8fc57b3bf0ec28a930d40b0d285d93c06501cf6a090600390920291820180546001600160a01b0319166001600160a01b0390921691909117905591517f66de8ffda797e3de9c05e8fc57b3bf0ec28a930d40b0d285d93c06501cf6a091830155517f66de8ffda797e3de9c05e8fc57b3bf0ec28a930d40b0d285d93c06501cf6a09290910155928252601490529190912054610ef7908a6121a9565b336000908152601460205260409081902091909155600154905163162d870b60e31b8152306004820152602481018b90526001600160a01b039091169063b16c385890604401600060405180830381600087803b158015610f5757600080fd5b505af1158015610f6b573d6000803e3d6000fd5b50505050600860040154600003610f89576000805462ff0000191690555b50506000805460ff1916905550505050505050565b60008060086009018381548110610fb757610fb7612b81565b6000918252602090912001546011546001600160a01b03909116915083106110215760405162461bcd60e51b815260206004820152601d60248201527f466972654c6f636b3a205573657220646f6573206e6f742065786973740000006044820152606401610783565b6001600160a01b0381166110775760405162461bcd60e51b815260206004820152601d60248201527f466972654c6f636b3a205573657220646f6573206e6f742065786973740000006044820152606401610783565b6001600160a01b038116600090815260156020526040812054810361110b5761110462015180610b8c600860050154610bce600860060154610bce6064610bce6110cf6008600201544261217c90919063ffffffff16565b610b8c60086007018f815481106110e8576110e8612b81565b906000526020600020015460065461219190919063ffffffff16565b9050611151565b600d54600e546001600160a01b03841660009081526015602052604090205461114e926201518092610b8c92610bce9190829060649082906110cf90429061217c565b90505b9392505050565b6060600860070180548060200260200160405190810160405280929190818152602001828054801561064157602002820191906000526020600020905b815481526020019060010190808311611195575050505050905090565b6003546040805163ced72f8760e01b815290516000926001600160a01b03169163ced72f879160048083019260209291908290030181865afa1580156111fc573d6000803e3d6000fd5b505050506040513d601f19601f820116820180604052508101906112209190612b97565b905090565b600054610100900460ff166112935760405162461bcd60e51b815260206004820152602e60248201527f466972654c6f636b3a20596f75206861766520616c7265616479206c6f636b6560448201526d32103a3432903837b9b4ba34b7b760911b6064820152608401610783565b61129c84611d35565b6112e85760405162461bcd60e51b815260206004820152601f60248201527f466972654c6f636b3a2061646472657373206973206e6f7420756e69717565006044820152606401610783565b600084511180156112fa575060008351115b61135a5760405162461bcd60e51b815260206004820152602b60248201527f466972654c6f636b3a204164647265737320616e64207363616c652063616e6e60448201526a6f7420626520656d70747960a81b6064820152608401610783565b82518451146113ab5760405162461bcd60e51b815260206004820152601b60248201527f466972654c6f636b3a207573657220616d6f756e74206572726f7200000000006044820152606401610783565b60005b8451811015611462576113ec8582815181106113cc576113cc612b81565b60200260200101516001600160a01b03166001600160a01b03163b151590565b156114505760405162461bcd60e51b815260206004820152602e60248201527f466972654c6f636b3a20436f6e7472616374206164647265737320666f756e6460448201526d1034b7102fba379030b93930bc9760911b6064820152608401610783565b8061145a81612bc6565b9150506113ae565b506005546001600160a01b031633146114bd5760405162461bcd60e51b815260206004820181905260248201527f466972654c6f636b3a20796f7520617265206e6f7420637265617420757365726044820152606401610783565b426114d96114d262015180610b8c8b8b612191565b42906121a9565b1161154c5760405162461bcd60e51b815260206004820152603d60248201527f466972654c6f636b3a20446561646c696e652073686f756c642062652062696760448201527f676572207468616e2063757272656e7420626c6f636b206e756d6265720000006064820152608401610783565b600085116115b65760405162461bcd60e51b815260206004820152603160248201527f466972654c6f636b3a20546f6b656e20616d6f756e742073686f756c6420626560448201527020626967676572207468616e207a65726f60781b6064820152608401610783565b6115bf83611f0e565b6116025760405162461bcd60e51b81526020600482015260146024820152732334b932a637b1b59d103930ba329032b93937b960611b6044820152606401610783565b6000871180156116125750600086115b61166e5760405162461bcd60e51b815260206004820152602760248201527f466972654c6f636b3a20506572696f6420616e6420726f756e6420696e707574604482015266206572726f727360c81b6064820152608401610783565b60008251116116cb5760405162461bcd60e51b815260206004820152602360248201527f466972654c6f636b3a20537472696e67206d757374206e6f7420626520656d706044820152623a3c9760e91b6064820152608401610783565b3360006116de6114d28462015180612191565b905060006116fd6116f662015180610b8c8d8d6121a9565b83906121a9565b9050346000036117395760005461173490630100000090046001600160a01b031633611727611de1565b61172f6111b2565b61220c565b61187e565b6117416111b2565b341461177e5760405162461bcd60e51b815260206004820152600c60248201526b20b6b7bab73a1032b93937b960a11b6044820152606401610783565b600054630100000090046001600160a01b031663d0e30db061179e6111b2565b6040518263ffffffff1660e01b81526004016000604051808303818588803b1580156117c957600080fd5b505af11580156117dd573d6000803e3d6000fd5b5050600054630100000090046001600160a01b0316925063a9059cbb91506118059050611de1565b61180d6111b2565b6040516001600160e01b031960e085901b1681526001600160a01b03909216600483015260248201526044016020604051808303816000875af1158015611858573d6000803e3d6000fd5b505050506040513d601f19601f8201168201806040525081019061187c9190612bdf565b505b6040805161016081018252868152602081018390529081018390526001600160a01b03808d166060830152608082018a905260a082018c905260c082018b905260e082018890528d1661010082015261012081018890526101408101839052806008806118eb8982612c47565b5060208281015160018301556040830151600283015560608301516003830180546001600160a01b0319166001600160a01b039092169190911790556080830151600483015560a0830151600583015560c0830151600683015560e0830151805161195c926007850192019061258e565b506101008201516008820180546001600160a01b0319166001600160a01b0390921691909117905561012082015180516119a09160098401916020909101906125d9565b506101409190910151600a909101556040516323b872dd60e01b81526001600160a01b038581166004830152306024830152604482018b90528e16906323b872dd906064016020604051808303816000875af1158015611a04573d6000803e3d6000fd5b505050506040513d601f19601f82011682018060405250810190611a289190612bdf565b506000805461ff00191690556001548151608083015160408085015160a086015160c0870151602088015160608901519451635d78589b60e11b81526001600160a01b039098169763baf0b13697611a929730979196909542959194909391929091600401612d07565b600060405180830381600087803b158015611aac57600080fd5b505af1158015611ac0573d6000803e3d6000fd5b50505060068a905550611ad161233c565b6001805460405163ebdcc19b60e01b815230600482015260248101929092526001600160a01b03169063ebdcc19b90604401600060405180830381600087803b158015611b1d57600080fd5b505af1158015611b31573d6000803e3d6000fd5b5050505050505050505050505050505050565b600b546001600160a01b03163314611b9e5760405162461bcd60e51b815260206004820152601b60248201527f466972654c6f636b3a20796f7520617265206e6f742061646d696e00000000006044820152606401610783565b600f54815114611bf05760405162461bcd60e51b815260206004820152601b60248201527f466972654c6f636b3a2072617465206973206e6f74206d6174636800000000006044820152606401610783565b601154815114611c425760405162461bcd60e51b815260206004820152601b60248201527f466972654c6f636b3a2072617465206973206e6f74206d6174636800000000006044820152606401610783565b60005b600f54811015611c9d57818181518110611c6157611c61612b81565b602002602001015160086007018281548110611c7f57611c7f612b81565b60009182526020909120015580611c9581612bc6565b915050611c45565b50611ca661233c565b50565b606060086000018054611cbb90612afa565b80601f0160208091040260200160405190810160405280929190818152602001828054611ce790612afa565b80156106415780601f10611d0957610100808354040283529160200191610641565b820191906000526020600020905b815481529060010190602001808311611d1757509395945050505050565b8051600090815b81811015611dd7576000611d51826001612d6c565b90505b82811015611dc457848181518110611d6e57611d6e612b81565b60200260200101516001600160a01b0316858381518110611d9157611d91612b81565b60200260200101516001600160a01b031603611db257506000949350505050565b80611dbc81612bc6565b915050611d54565b5080611dcf81612bc6565b915050611d3c565b5060019392505050565b600354604080516338cc483160e01b815290516000926001600160a01b0316916338cc48319160048083019260209291908290030181865afa158015611e2b573d6000803e3d6000fd5b505050506040513d601f19601f820116820180604052508101906112209190612d7f565b601154600090815b81811015611eab576011805482908110611e7357611e73612b81565b6000918252602090912001546001600160a01b0390811690851603611e99579392505050565b80611ea381612bc6565b915050611e57565b5060405162461bcd60e51b815260206004820152603160248201527f466972654c6f636b3a20596f7520617265206e6f7420612075736572206f662060448201527074686973206c6f636b206164647265737360781b6064820152608401610783565b600080805b8351811015611f6857838181518110611f2e57611f2e612b81565b602002602001015182611f419190612d6c565b91506064821115611f56575060009392505050565b80611f6081612bc6565b915050611f13565b5060641492915050565b600b5433906001600160a01b031680611fcd5760405162461bcd60e51b815260206004820152601f60248201527f466972654c6f636b3a204c6f636b2061646d696e206d757374206578697374006044820152606401610783565b816001600160a01b0316816001600160a01b03161461202e5760405162461bcd60e51b815260206004820152601e60248201527f466972654c6f636b3a2053656e646572206d7573742062652061646d696e00006044820152606401610783565b6001600160a01b0383166120965760405162461bcd60e51b815260206004820152602960248201527f466972654c6f636b3a207472616e73666572206164647265737320646f6573206044820152681b9bdd08195e1a5cdd60ba1b6064820152608401610783565b600b80546001600160a01b0319166001600160a01b0385811691821790925560015460405163751971b760e11b815230600482015260248101929092529091169063ea32e36e90604401600060405180830381600087803b1580156120fa57600080fd5b505af115801561210e573d6000803e3d6000fd5b50505050505050565b6000805b60115481101561217357601180548290811061213957612139612b81565b6000918252602090912001546001600160a01b03908116908416036121615750600092915050565b8061216b81612bc6565b91505061211b565b50600192915050565b60006121888284612d9c565b90505b92915050565b60006121888284612daf565b60006121888284612dc6565b60006121888284612d6c565b604080516001600160a01b038416602482015260448082018490528251808303909101815260649091019091526020810180516001600160e01b031663a9059cbb60e01b179052612207908490612397565b505050565b604080516001600160a01b0385811660248301528481166044830152606480830185905283518084039091018152608490920183526020820180516001600160e01b03166323b872dd60e01b17905291516000928392908816916122709190612de8565b6000604051808303816000865af19150503d80600081146122ad576040519150601f19603f3d011682016040523d82523d6000602084013e6122b2565b606091505b50915091508180156122dc5750805115806122dc5750808060200190518101906122dc9190612bdf565b6123345760405162461bcd60e51b8152602060048201526024808201527f5472616e7366657248656c7065723a205452414e534645525f46524f4d5f46416044820152631253115160e21b6064820152608401610783565b505050505050565b6000805b600f548110156123915761237d6008600701828154811061236357612363612b81565b9060005260206000200154836121a990919063ffffffff16565b91508061238981612bc6565b915050612340565b50600755565b60006123ec826040518060400160405280602081526020017f5361666545524332303a206c6f772d6c6576656c2063616c6c206661696c6564815250856001600160a01b03166124699092919063ffffffff16565b805190915015612207578080602001905181019061240a9190612bdf565b6122075760405162461bcd60e51b815260206004820152602a60248201527f5361666545524332303a204552433230206f7065726174696f6e20646964206e6044820152691bdd081cdd58d8d9595960b21b6064820152608401610783565b606061114e848460008585600080866001600160a01b031685876040516124909190612de8565b60006040518083038185875af1925050503d80600081146124cd576040519150601f19603f3d011682016040523d82523d6000602084013e6124d2565b606091505b50915091506124e3878383876124f0565b925050505b949350505050565b6060831561255f578251600003612558576001600160a01b0385163b6125585760405162461bcd60e51b815260206004820152601d60248201527f416464726573733a2063616c6c20746f206e6f6e2d636f6e74726163740000006044820152606401610783565b50816124e8565b6124e883838151156125745781518083602001fd5b8060405162461bcd60e51b81526004016107839190612a95565b8280548282559060005260206000209081019282156125c9579160200282015b828111156125c95782518255916020019190600101906125ae565b506125d592915061262e565b5090565b8280548282559060005260206000209081019282156125c9579160200282015b828111156125c957825182546001600160a01b0319166001600160a01b039091161782556020909201916001909101906125f9565b5b808211156125d5576000815560010161262f565b6020808252825182820181905260009190848201906040850190845b818110156126845783516001600160a01b03168352928401929184019160010161265f565b50909695505050505050565b60005b838110156126ab578181015183820152602001612693565b50506000910152565b600081518084526126cc816020860160208601612690565b601f01601f19169290920160200192915050565b60006101208083526126f48184018d6126b4565b602084019b909b52505060408101979097526001600160a01b039586166060880152608087019490945260a086019290925260c085015290911660e083015261010090910152919050565b60006020828403121561275157600080fd5b5035919050565b6001600160a01b0381168114611ca657600080fd5b803561277881612758565b919050565b6000806040838503121561279057600080fd5b8235915060208301356127a281612758565b809150509250929050565b6020808252825182820181905260009190848201906040850190845b81811015612684578351835292840192918401916001016127c9565b634e487b7160e01b600052604160045260246000fd5b604051601f8201601f1916810167ffffffffffffffff81118282101715612824576128246127e5565b604052919050565b600067ffffffffffffffff821115612846576128466127e5565b5060051b60200190565b600082601f83011261286157600080fd5b813560206128766128718361282c565b6127fb565b82815260059290921b8401810191818101908684111561289557600080fd5b8286015b848110156128b95780356128ac81612758565b8352918301918301612899565b509695505050505050565b600082601f8301126128d557600080fd5b813560206128e56128718361282c565b82815260059290921b8401810191818101908684111561290457600080fd5b8286015b848110156128b95780358352918301918301612908565b600082601f83011261293057600080fd5b813567ffffffffffffffff81111561294a5761294a6127e5565b61295d601f8201601f19166020016127fb565b81815284602083860101111561297257600080fd5b816020850160208301376000918101602001919091529392505050565b60008060008060008060008060006101208a8c0312156129ae57600080fd5b6129b78a61276d565b98506129c560208b0161276d565b975060408a0135965060608a0135955060808a0135945060a08a013567ffffffffffffffff808211156129f757600080fd5b612a038d838e01612850565b955060c08c0135915080821115612a1957600080fd5b612a258d838e016128c4565b945060e08c0135915080821115612a3b57600080fd5b50612a488c828d0161291f565b9250506101008a013590509295985092959850929598565b600060208284031215612a7257600080fd5b813567ffffffffffffffff811115612a8957600080fd5b6124e8848285016128c4565b60208152600061218860208301846126b4565b600060208284031215612aba57600080fd5b813567ffffffffffffffff811115612ad157600080fd5b6124e884828501612850565b600060208284031215612aef57600080fd5b813561115181612758565b600181811c90821680612b0e57607f821691505b602082108103612b2e57634e487b7160e01b600052602260045260246000fd5b50919050565b6020808252602d908201527f466972654c6f636b3a2054686520636f6e74726163742068617320616c72656160408201526c191e481d195c9b5a5b985d1959609a1b606082015260800190565b634e487b7160e01b600052603260045260246000fd5b600060208284031215612ba957600080fd5b5051919050565b634e487b7160e01b600052601160045260246000fd5b600060018201612bd857612bd8612bb0565b5060010190565b600060208284031215612bf157600080fd5b8151801515811461115157600080fd5b601f82111561220757600081815260208120601f850160051c81016020861015612c285750805b601f850160051c820191505b8181101561233457828155600101612c34565b815167ffffffffffffffff811115612c6157612c616127e5565b612c7581612c6f8454612afa565b84612c01565b602080601f831160018114612caa5760008415612c925750858301515b600019600386901b1c1916600185901b178555612334565b600085815260208120601f198616915b82811015612cd957888601518255948401946001909101908401612cba565b5085821015612cf75787850151600019600388901b60f8161c191681555b5050505050600190811b01905550565b6001600160a01b038a8116825261012060208301819052600091612d2d8483018d6126b4565b92508a60408501528960608501528860808501528760a08501528660c08501528560e085015280851661010085015250509a9950505050505050505050565b8082018082111561218b5761218b612bb0565b600060208284031215612d9157600080fd5b815161115181612758565b8181038181111561218b5761218b612bb0565b808202811582820484141761218b5761218b612bb0565b600082612de357634e487b7160e01b600052601260045260246000fd5b500490565b60008251612dfa818460208701612690565b919091019291505056fea2646970667358221220fa069ddc1505e5a6ce24d6e11c933e0210775e43ef6d0535a4395f95ad41ca5964736f6c63430008120033",
			"opcodes": "PUSH1 0x80 PUSH1 0x40 MSTORE CALLVALUE DUP1 ISZERO PUSH3 0x11 JUMPI PUSH1 0x0 DUP1 REVERT JUMPDEST POP PUSH1 0x40 MLOAD PUSH3 0x2FA0 CODESIZE SUB DUP1 PUSH3 0x2FA0 DUP4 CODECOPY DUP2 ADD PUSH1 0x40 DUP2 SWAP1 MSTORE PUSH3 0x34 SWAP2 PUSH3 0xE6 JUMP JUMPDEST PUSH1 0x0 DUP1 SLOAD PUSH1 0x3 DUP1 SLOAD PUSH1 0x1 PUSH1 0x1 PUSH1 0xA0 SHL SUB SWAP8 DUP9 AND PUSH1 0x1 PUSH1 0x1 PUSH1 0xA0 SHL SUB NOT SWAP2 DUP3 AND OR SWAP1 SWAP2 SSTORE PUSH1 0x2 DUP1 SLOAD SWAP7 DUP9 AND SWAP7 DUP3 AND SWAP7 SWAP1 SWAP7 OR SWAP1 SWAP6 SSTORE PUSH1 0x1 DUP1 SLOAD SWAP5 DUP8 AND SWAP5 DUP7 AND SWAP5 SWAP1 SWAP5 OR SWAP1 SWAP4 SSTORE PUSH1 0x5 DUP1 SLOAD SWAP3 DUP7 AND SWAP3 SWAP1 SWAP5 AND SWAP2 SWAP1 SWAP2 OR SWAP1 SWAP3 SSTORE PUSH3 0xFF0000 NOT PUSH2 0xFF00 NOT SWAP4 SWAP1 SWAP5 AND PUSH4 0x1000000 MUL SWAP3 SWAP1 SWAP3 AND PUSH3 0xFF0100 PUSH1 0x1 PUSH1 0xB8 SHL SUB NOT SWAP1 SWAP3 AND SWAP2 SWAP1 SWAP2 OR PUSH2 0x100 OR SWAP2 SWAP1 SWAP2 AND PUSH3 0x10000 OR SWAP1 SSTORE PUSH3 0x156 JUMP JUMPDEST DUP1 MLOAD PUSH1 0x1 PUSH1 0x1 PUSH1 0xA0 SHL SUB DUP2 AND DUP2 EQ PUSH3 0xE1 JUMPI PUSH1 0x0 DUP1 REVERT JUMPDEST SWAP2 SWAP1 POP JUMP JUMPDEST PUSH1 0x0 DUP1 PUSH1 0x0 DUP1 PUSH1 0x0 PUSH1 0xA0 DUP7 DUP9 SUB SLT ISZERO PUSH3 0xFF JUMPI PUSH1 0x0 DUP1 REVERT JUMPDEST PUSH3 0x10A DUP7 PUSH3 0xC9 JUMP JUMPDEST SWAP5 POP PUSH3 0x11A PUSH1 0x20 DUP8 ADD PUSH3 0xC9 JUMP JUMPDEST SWAP4 POP PUSH3 0x12A PUSH1 0x40 DUP8 ADD PUSH3 0xC9 JUMP JUMPDEST SWAP3 POP PUSH3 0x13A PUSH1 0x60 DUP8 ADD PUSH3 0xC9 JUMP JUMPDEST SWAP2 POP PUSH3 0x14A PUSH1 0x80 DUP8 ADD PUSH3 0xC9 JUMP JUMPDEST SWAP1 POP SWAP3 SWAP6 POP SWAP3 SWAP6 SWAP1 SWAP4 POP JUMP JUMPDEST PUSH2 0x2E3A DUP1 PUSH3 0x166 PUSH1 0x0 CODECOPY PUSH1 0x0 RETURN INVALID PUSH1 0x80 PUSH1 0x40 MSTORE PUSH1 0x4 CALLDATASIZE LT PUSH2 0x1D8 JUMPI PUSH1 0x0 CALLDATALOAD PUSH1 0xE0 SHR DUP1 PUSH4 0x6197D885 GT PUSH2 0x102 JUMPI DUP1 PUSH4 0xB3F00674 GT PUSH2 0x95 JUMPI DUP1 PUSH4 0xCD84CBFF GT PUSH2 0x64 JUMPI DUP1 PUSH4 0xCD84CBFF EQ PUSH2 0x566 JUMPI DUP1 PUSH4 0xE3840BC1 EQ PUSH2 0x586 JUMPI DUP1 PUSH4 0xE70EFBFD EQ PUSH2 0x5A6 JUMPI DUP1 PUSH4 0xF32F3678 EQ PUSH2 0x5C6 JUMPI PUSH1 0x0 DUP1 REVERT JUMPDEST DUP1 PUSH4 0xB3F00674 EQ PUSH2 0x504 JUMPI DUP1 PUSH4 0xBBD99DBC EQ PUSH2 0x519 JUMPI DUP1 PUSH4 0xBE241531 EQ PUSH2 0x1DD JUMPI DUP1 PUSH4 0xC884EF83 EQ PUSH2 0x539 JUMPI PUSH1 0x0 DUP1 REVERT JUMPDEST DUP1 PUSH4 0x88576CFA GT PUSH2 0xD1 JUMPI DUP1 PUSH4 0x88576CFA EQ PUSH2 0x475 JUMPI DUP1 PUSH4 0x8C6ABBEE EQ PUSH2 0x497 JUMPI DUP1 PUSH4 0x963671BE EQ PUSH2 0x4B7 JUMPI DUP1 PUSH4 0xB399B0BC EQ PUSH2 0x4D7 JUMPI PUSH1 0x0 DUP1 REVERT JUMPDEST DUP1 PUSH4 0x6197D885 EQ PUSH2 0x40B JUMPI DUP1 PUSH4 0x69E15404 EQ PUSH2 0x42D JUMPI DUP1 PUSH4 0x77FD0348 EQ PUSH2 0x442 JUMPI DUP1 PUSH4 0x822D2EF7 EQ PUSH2 0x455 JUMPI PUSH1 0x0 DUP1 REVERT JUMPDEST DUP1 PUSH4 0x2FA9083A GT PUSH2 0x17A JUMPI DUP1 PUSH4 0x3FC8CEF3 GT PUSH2 0x149 JUMPI DUP1 PUSH4 0x3FC8CEF3 EQ PUSH2 0x399 JUMPI DUP1 PUSH4 0x42A66F68 EQ PUSH2 0x3C0 JUMPI DUP1 PUSH4 0x46BE42FA EQ PUSH2 0x3D6 JUMPI DUP1 PUSH4 0x5CA04266 EQ PUSH2 0x3F6 JUMPI PUSH1 0x0 DUP1 REVERT JUMPDEST DUP1 PUSH4 0x2FA9083A EQ PUSH2 0x315 JUMPI DUP1 PUSH4 0x2FB9E41F EQ PUSH2 0x32A JUMPI DUP1 PUSH4 0x379607F5 EQ PUSH2 0x35A JUMPI DUP1 PUSH4 0x3E89340F EQ PUSH2 0x37A JUMPI PUSH1 0x0 DUP1 REVERT JUMPDEST DUP1 PUSH4 0x25AD91CE GT PUSH2 0x1B6 JUMPI DUP1 PUSH4 0x25AD91CE EQ PUSH2 0x256 JUMPI DUP1 PUSH4 0x27B2A9E6 EQ PUSH2 0x28E JUMPI DUP1 PUSH4 0x2C16CD8A EQ PUSH2 0x2AE JUMPI DUP1 PUSH4 0x2E468B7E EQ PUSH2 0x2F3 JUMPI PUSH1 0x0 DUP1 REVERT JUMPDEST DUP1 PUSH4 0x274C094 EQ PUSH2 0x1DD JUMPI DUP1 PUSH4 0x7802414 EQ PUSH2 0x208 JUMPI DUP1 PUSH4 0x1A39D8EF EQ PUSH2 0x232 JUMPI JUMPDEST PUSH1 0x0 DUP1 REVERT JUMPDEST CALLVALUE DUP1 ISZERO PUSH2 0x1E9 JUMPI PUSH1 0x0 DUP1 REVERT JUMPDEST POP PUSH2 0x1F2 PUSH2 0x5E6 JUMP JUMPDEST PUSH1 0x40 MLOAD PUSH2 0x1FF SWAP2 SWAP1 PUSH2 0x2643 JUMP JUMPDEST PUSH1 0x40 MLOAD DUP1 SWAP2 SUB SWAP1 RETURN JUMPDEST CALLVALUE DUP1 ISZERO PUSH2 0x214 JUMPI PUSH1 0x0 DUP1 REVERT JUMPDEST POP PUSH2 0x21D PUSH2 0x64B JUMP JUMPDEST PUSH1 0x40 MLOAD PUSH2 0x1FF SWAP10 SWAP9 SWAP8 SWAP7 SWAP6 SWAP5 SWAP4 SWAP3 SWAP2 SWAP1 PUSH2 0x26E0 JUMP JUMPDEST CALLVALUE DUP1 ISZERO PUSH2 0x23E JUMPI PUSH1 0x0 DUP1 REVERT JUMPDEST POP PUSH2 0x248 PUSH1 0x6 SLOAD DUP2 JUMP JUMPDEST PUSH1 0x40 MLOAD SWAP1 DUP2 MSTORE PUSH1 0x20 ADD PUSH2 0x1FF JUMP JUMPDEST CALLVALUE DUP1 ISZERO PUSH2 0x262 JUMPI PUSH1 0x0 DUP1 REVERT JUMPDEST POP PUSH1 0x5 SLOAD PUSH2 0x276 SWAP1 PUSH1 0x1 PUSH1 0x1 PUSH1 0xA0 SHL SUB AND DUP2 JUMP JUMPDEST PUSH1 0x40 MLOAD PUSH1 0x1 PUSH1 0x1 PUSH1 0xA0 SHL SUB SWAP1 SWAP2 AND DUP2 MSTORE PUSH1 0x20 ADD PUSH2 0x1FF JUMP JUMPDEST CALLVALUE DUP1 ISZERO PUSH2 0x29A JUMPI PUSH1 0x0 DUP1 REVERT JUMPDEST POP PUSH1 0x4 SLOAD PUSH2 0x276 SWAP1 PUSH1 0x1 PUSH1 0x1 PUSH1 0xA0 SHL SUB AND DUP2 JUMP JUMPDEST CALLVALUE DUP1 ISZERO PUSH2 0x2BA JUMPI PUSH1 0x0 DUP1 REVERT JUMPDEST POP PUSH2 0x2CE PUSH2 0x2C9 CALLDATASIZE PUSH1 0x4 PUSH2 0x273F JUMP JUMPDEST PUSH2 0x71E JUMP JUMPDEST PUSH1 0x40 DUP1 MLOAD PUSH1 0x1 PUSH1 0x1 PUSH1 0xA0 SHL SUB SWAP1 SWAP5 AND DUP5 MSTORE PUSH1 0x20 DUP5 ADD SWAP3 SWAP1 SWAP3 MSTORE SWAP1 DUP3 ADD MSTORE PUSH1 0x60 ADD PUSH2 0x1FF JUMP JUMPDEST CALLVALUE DUP1 ISZERO PUSH2 0x2FF JUMPI PUSH1 0x0 DUP1 REVERT JUMPDEST POP PUSH2 0x313 PUSH2 0x30E CALLDATASIZE PUSH1 0x4 PUSH2 0x277D JUMP JUMPDEST PUSH2 0x75B JUMP JUMPDEST STOP JUMPDEST CALLVALUE DUP1 ISZERO PUSH2 0x321 JUMPI PUSH1 0x0 DUP1 REVERT JUMPDEST POP PUSH1 0x11 SLOAD PUSH2 0x248 JUMP JUMPDEST CALLVALUE DUP1 ISZERO PUSH2 0x336 JUMPI PUSH1 0x0 DUP1 REVERT JUMPDEST POP PUSH1 0x0 SLOAD PUSH2 0x34A SWAP1 PUSH3 0x10000 SWAP1 DIV PUSH1 0xFF AND DUP2 JUMP JUMPDEST PUSH1 0x40 MLOAD SWAP1 ISZERO ISZERO DUP2 MSTORE PUSH1 0x20 ADD PUSH2 0x1FF JUMP JUMPDEST CALLVALUE DUP1 ISZERO PUSH2 0x366 JUMPI PUSH1 0x0 DUP1 REVERT JUMPDEST POP PUSH2 0x313 PUSH2 0x375 CALLDATASIZE PUSH1 0x4 PUSH2 0x273F JUMP JUMPDEST PUSH2 0x9CC JUMP JUMPDEST CALLVALUE DUP1 ISZERO PUSH2 0x386 JUMPI PUSH1 0x0 DUP1 REVERT JUMPDEST POP PUSH1 0x0 SLOAD PUSH2 0x34A SWAP1 PUSH2 0x100 SWAP1 DIV PUSH1 0xFF AND DUP2 JUMP JUMPDEST CALLVALUE DUP1 ISZERO PUSH2 0x3A5 JUMPI PUSH1 0x0 DUP1 REVERT JUMPDEST POP PUSH1 0x0 SLOAD PUSH2 0x276 SWAP1 PUSH4 0x1000000 SWAP1 DIV PUSH1 0x1 PUSH1 0x1 PUSH1 0xA0 SHL SUB AND DUP2 JUMP JUMPDEST CALLVALUE DUP1 ISZERO PUSH2 0x3CC JUMPI PUSH1 0x0 DUP1 REVERT JUMPDEST POP PUSH2 0x248 PUSH1 0x7 SLOAD DUP2 JUMP JUMPDEST CALLVALUE DUP1 ISZERO PUSH2 0x3E2 JUMPI PUSH1 0x0 DUP1 REVERT JUMPDEST POP PUSH2 0x248 PUSH2 0x3F1 CALLDATASIZE PUSH1 0x4 PUSH2 0x273F JUMP JUMPDEST PUSH2 0xF9E JUMP JUMPDEST CALLVALUE DUP1 ISZERO PUSH2 0x402 JUMPI PUSH1 0x0 DUP1 REVERT JUMPDEST POP PUSH1 0x13 SLOAD PUSH2 0x248 JUMP JUMPDEST CALLVALUE DUP1 ISZERO PUSH2 0x417 JUMPI PUSH1 0x0 DUP1 REVERT JUMPDEST POP PUSH2 0x420 PUSH2 0x1158 JUMP JUMPDEST PUSH1 0x40 MLOAD PUSH2 0x1FF SWAP2 SWAP1 PUSH2 0x27AD JUMP JUMPDEST CALLVALUE DUP1 ISZERO PUSH2 0x439 JUMPI PUSH1 0x0 DUP1 REVERT JUMPDEST POP PUSH2 0x248 PUSH2 0x11B2 JUMP JUMPDEST PUSH2 0x313 PUSH2 0x450 CALLDATASIZE PUSH1 0x4 PUSH2 0x298F JUMP JUMPDEST PUSH2 0x1225 JUMP JUMPDEST CALLVALUE DUP1 ISZERO PUSH2 0x461 JUMPI PUSH1 0x0 DUP1 REVERT JUMPDEST POP PUSH2 0x313 PUSH2 0x470 CALLDATASIZE PUSH1 0x4 PUSH2 0x2A60 JUMP JUMPDEST PUSH2 0x1B44 JUMP JUMPDEST CALLVALUE DUP1 ISZERO PUSH2 0x481 JUMPI PUSH1 0x0 DUP1 REVERT JUMPDEST POP PUSH2 0x48A PUSH2 0x1CA9 JUMP JUMPDEST PUSH1 0x40 MLOAD PUSH2 0x1FF SWAP2 SWAP1 PUSH2 0x2A95 JUMP JUMPDEST CALLVALUE DUP1 ISZERO PUSH2 0x4A3 JUMPI PUSH1 0x0 DUP1 REVERT JUMPDEST POP PUSH2 0x34A PUSH2 0x4B2 CALLDATASIZE PUSH1 0x4 PUSH2 0x2AA8 JUMP JUMPDEST PUSH2 0x1D35 JUMP JUMPDEST CALLVALUE DUP1 ISZERO PUSH2 0x4C3 JUMPI PUSH1 0x0 DUP1 REVERT JUMPDEST POP PUSH1 0x1 SLOAD PUSH2 0x276 SWAP1 PUSH1 0x1 PUSH1 0x1 PUSH1 0xA0 SHL SUB AND DUP2 JUMP JUMPDEST CALLVALUE DUP1 ISZERO PUSH2 0x4E3 JUMPI PUSH1 0x0 DUP1 REVERT JUMPDEST POP PUSH2 0x248 PUSH2 0x4F2 CALLDATASIZE PUSH1 0x4 PUSH2 0x2ADD JUMP JUMPDEST PUSH1 0x16 PUSH1 0x20 MSTORE PUSH1 0x0 SWAP1 DUP2 MSTORE PUSH1 0x40 SWAP1 KECCAK256 SLOAD DUP2 JUMP JUMPDEST CALLVALUE DUP1 ISZERO PUSH2 0x510 JUMPI PUSH1 0x0 DUP1 REVERT JUMPDEST POP PUSH2 0x276 PUSH2 0x1DE1 JUMP JUMPDEST CALLVALUE DUP1 ISZERO PUSH2 0x525 JUMPI PUSH1 0x0 DUP1 REVERT JUMPDEST POP PUSH2 0x248 PUSH2 0x534 CALLDATASIZE PUSH1 0x4 PUSH2 0x2ADD JUMP JUMPDEST PUSH2 0x1E4F JUMP JUMPDEST CALLVALUE DUP1 ISZERO PUSH2 0x545 JUMPI PUSH1 0x0 DUP1 REVERT JUMPDEST POP PUSH2 0x248 PUSH2 0x554 CALLDATASIZE PUSH1 0x4 PUSH2 0x2ADD JUMP JUMPDEST PUSH1 0x14 PUSH1 0x20 MSTORE PUSH1 0x0 SWAP1 DUP2 MSTORE PUSH1 0x40 SWAP1 KECCAK256 SLOAD DUP2 JUMP JUMPDEST CALLVALUE DUP1 ISZERO PUSH2 0x572 JUMPI PUSH1 0x0 DUP1 REVERT JUMPDEST POP PUSH2 0x34A PUSH2 0x581 CALLDATASIZE PUSH1 0x4 PUSH2 0x2A60 JUMP JUMPDEST PUSH2 0x1F0E JUMP JUMPDEST CALLVALUE DUP1 ISZERO PUSH2 0x592 JUMPI PUSH1 0x0 DUP1 REVERT JUMPDEST POP PUSH1 0x2 SLOAD PUSH2 0x276 SWAP1 PUSH1 0x1 PUSH1 0x1 PUSH1 0xA0 SHL SUB AND DUP2 JUMP JUMPDEST CALLVALUE DUP1 ISZERO PUSH2 0x5B2 JUMPI PUSH1 0x0 DUP1 REVERT JUMPDEST POP PUSH2 0x313 PUSH2 0x5C1 CALLDATASIZE PUSH1 0x4 PUSH2 0x2ADD JUMP JUMPDEST PUSH2 0x1F72 JUMP JUMPDEST CALLVALUE DUP1 ISZERO PUSH2 0x5D2 JUMPI PUSH1 0x0 DUP1 REVERT JUMPDEST POP PUSH1 0x3 SLOAD PUSH2 0x276 SWAP1 PUSH1 0x1 PUSH1 0x1 PUSH1 0xA0 SHL SUB AND DUP2 JUMP JUMPDEST PUSH1 0x60 PUSH1 0x8 PUSH1 0x9 ADD DUP1 SLOAD DUP1 PUSH1 0x20 MUL PUSH1 0x20 ADD PUSH1 0x40 MLOAD SWAP1 DUP2 ADD PUSH1 0x40 MSTORE DUP1 SWAP3 SWAP2 SWAP1 DUP2 DUP2 MSTORE PUSH1 0x20 ADD DUP3 DUP1 SLOAD DUP1 ISZERO PUSH2 0x641 JUMPI PUSH1 0x20 MUL DUP3 ADD SWAP2 SWAP1 PUSH1 0x0 MSTORE PUSH1 0x20 PUSH1 0x0 KECCAK256 SWAP1 JUMPDEST DUP2 SLOAD PUSH1 0x1 PUSH1 0x1 PUSH1 0xA0 SHL SUB AND DUP2 MSTORE PUSH1 0x1 SWAP1 SWAP2 ADD SWAP1 PUSH1 0x20 ADD DUP1 DUP4 GT PUSH2 0x623 JUMPI JUMPDEST POP POP POP POP POP SWAP1 POP SWAP1 JUMP JUMPDEST PUSH1 0x8 DUP1 SLOAD DUP2 SWAP1 PUSH2 0x65A SWAP1 PUSH2 0x2AFA JUMP JUMPDEST DUP1 PUSH1 0x1F ADD PUSH1 0x20 DUP1 SWAP2 DIV MUL PUSH1 0x20 ADD PUSH1 0x40 MLOAD SWAP1 DUP2 ADD PUSH1 0x40 MSTORE DUP1 SWAP3 SWAP2 SWAP1 DUP2 DUP2 MSTORE PUSH1 0x20 ADD DUP3 DUP1 SLOAD PUSH2 0x686 SWAP1 PUSH2 0x2AFA JUMP JUMPDEST DUP1 ISZERO PUSH2 0x6D3 JUMPI DUP1 PUSH1 0x1F LT PUSH2 0x6A8 JUMPI PUSH2 0x100 DUP1 DUP4 SLOAD DIV MUL DUP4 MSTORE SWAP2 PUSH1 0x20 ADD SWAP2 PUSH2 0x6D3 JUMP JUMPDEST DUP3 ADD SWAP2 SWAP1 PUSH1 0x0 MSTORE PUSH1 0x20 PUSH1 0x0 KECCAK256 SWAP1 JUMPDEST DUP2 SLOAD DUP2 MSTORE SWAP1 PUSH1 0x1 ADD SWAP1 PUSH1 0x20 ADD DUP1 DUP4 GT PUSH2 0x6B6 JUMPI DUP3 SWAP1 SUB PUSH1 0x1F AND DUP3 ADD SWAP2 JUMPDEST POP POP POP PUSH1 0x1 DUP5 ADD SLOAD PUSH1 0x2 DUP6 ADD SLOAD PUSH1 0x3 DUP7 ADD SLOAD PUSH1 0x4 DUP8 ADD SLOAD PUSH1 0x5 DUP9 ADD SLOAD PUSH1 0x6 DUP10 ADD SLOAD PUSH1 0x8 DUP11 ADD SLOAD PUSH1 0xA SWAP1 SWAP11 ADD SLOAD SWAP9 SWAP10 SWAP6 SWAP9 SWAP5 SWAP8 POP PUSH1 0x1 PUSH1 0x1 PUSH1 0xA0 SHL SUB SWAP4 DUP5 AND SWAP7 POP SWAP2 SWAP5 SWAP1 SWAP4 SWAP2 SWAP3 AND SWAP1 DUP10 JUMP JUMPDEST PUSH1 0x13 DUP2 DUP2 SLOAD DUP2 LT PUSH2 0x72E JUMPI PUSH1 0x0 DUP1 REVERT JUMPDEST PUSH1 0x0 SWAP2 DUP3 MSTORE PUSH1 0x20 SWAP1 SWAP2 KECCAK256 PUSH1 0x3 SWAP1 SWAP2 MUL ADD DUP1 SLOAD PUSH1 0x1 DUP3 ADD SLOAD PUSH1 0x2 SWAP1 SWAP3 ADD SLOAD PUSH1 0x1 PUSH1 0x1 PUSH1 0xA0 SHL SUB SWAP1 SWAP2 AND SWAP3 POP DUP4 JUMP JUMPDEST PUSH1 0x0 SLOAD PUSH3 0x10000 SWAP1 DIV PUSH1 0xFF AND PUSH2 0x78C JUMPI PUSH1 0x40 MLOAD PUSH3 0x461BCD PUSH1 0xE5 SHL DUP2 MSTORE PUSH1 0x4 ADD PUSH2 0x783 SWAP1 PUSH2 0x2B34 JUMP JUMPDEST PUSH1 0x40 MLOAD DUP1 SWAP2 SUB SWAP1 REVERT JUMPDEST PUSH2 0x795 DUP2 PUSH2 0x2117 JUMP JUMPDEST PUSH2 0x7E1 JUMPI PUSH1 0x40 MLOAD PUSH3 0x461BCD PUSH1 0xE5 SHL DUP2 MSTORE PUSH1 0x20 PUSH1 0x4 DUP3 ADD MSTORE PUSH1 0x1E PUSH1 0x24 DUP3 ADD MSTORE PUSH32 0x466972654C6F636B3A2074686520616464726573732069732065786973740000 PUSH1 0x44 DUP3 ADD MSTORE PUSH1 0x64 ADD PUSH2 0x783 JUMP JUMPDEST PUSH1 0x1 PUSH1 0x1 PUSH1 0xA0 SHL SUB DUP2 AND PUSH2 0x847 JUMPI PUSH1 0x40 MLOAD PUSH3 0x461BCD PUSH1 0xE5 SHL DUP2 MSTORE PUSH1 0x20 PUSH1 0x4 DUP3 ADD MSTORE PUSH1 0x27 PUSH1 0x24 DUP3 ADD MSTORE PUSH32 0x466972654C6F636B3A207468652061646472657373207A65726F206973206E6F PUSH1 0x44 DUP3 ADD MSTORE PUSH7 0x7420616C6C6F77 PUSH1 0xC8 SHL PUSH1 0x64 DUP3 ADD MSTORE PUSH1 0x84 ADD PUSH2 0x783 JUMP JUMPDEST PUSH1 0x11 SLOAD PUSH2 0x896 JUMPI PUSH1 0x40 MLOAD PUSH3 0x461BCD PUSH1 0xE5 SHL DUP2 MSTORE PUSH1 0x20 PUSH1 0x4 DUP3 ADD MSTORE PUSH1 0x1B PUSH1 0x24 DUP3 ADD MSTORE PUSH32 0x466972654C6F636B3A207573657220616D6F756E74206572726F720000000000 PUSH1 0x44 DUP3 ADD MSTORE PUSH1 0x64 ADD PUSH2 0x783 JUMP JUMPDEST PUSH1 0xB SLOAD PUSH1 0x1 PUSH1 0x1 PUSH1 0xA0 SHL SUB AND CALLER EQ PUSH2 0x8AD JUMPI PUSH1 0x0 DUP1 REVERT JUMPDEST PUSH1 0x11 SLOAD DUP3 LT PUSH2 0x8FE JUMPI PUSH1 0x40 MLOAD PUSH3 0x461BCD PUSH1 0xE5 SHL DUP2 MSTORE PUSH1 0x20 PUSH1 0x4 DUP3 ADD MSTORE PUSH1 0x1B PUSH1 0x24 DUP3 ADD MSTORE PUSH32 0x466972654C6F636B3A20496E76616C6964206D656D6265722049440000000000 PUSH1 0x44 DUP3 ADD MSTORE PUSH1 0x64 ADD PUSH2 0x783 JUMP JUMPDEST PUSH1 0x0 PUSH1 0x8 PUSH1 0x9 ADD DUP4 DUP2 SLOAD DUP2 LT PUSH2 0x916 JUMPI PUSH2 0x916 PUSH2 0x2B81 JUMP JUMPDEST PUSH1 0x0 SWAP2 DUP3 MSTORE PUSH1 0x20 DUP1 DUP4 KECCAK256 SWAP1 SWAP2 ADD SLOAD PUSH1 0x1 PUSH1 0x1 PUSH1 0xA0 SHL SUB SWAP1 DUP2 AND DUP1 DUP5 MSTORE PUSH1 0x14 DUP4 MSTORE PUSH1 0x40 DUP1 DUP6 KECCAK256 DUP1 SLOAD SWAP4 DUP9 AND DUP1 DUP8 MSTORE DUP3 DUP8 KECCAK256 SWAP5 SWAP1 SWAP5 SSTORE DUP3 DUP7 MSTORE DUP6 SWAP1 SSTORE PUSH1 0x16 DUP5 MSTORE DUP1 DUP6 KECCAK256 DUP1 SLOAD DUP5 DUP8 MSTORE DUP3 DUP8 KECCAK256 SSTORE DUP3 DUP7 MSTORE DUP6 SWAP1 SSTORE PUSH1 0x15 SWAP1 SWAP4 MSTORE DUP3 DUP5 KECCAK256 DUP1 SLOAD SWAP3 DUP6 MSTORE SWAP3 DUP5 KECCAK256 SWAP2 SWAP1 SWAP2 SSTORE DUP1 DUP4 MSTORE SWAP2 SWAP1 SSTORE PUSH1 0x11 DUP1 SLOAD SWAP2 SWAP3 POP DUP4 SWAP2 DUP6 SWAP1 DUP2 LT PUSH2 0x999 JUMPI PUSH2 0x999 PUSH2 0x2B81 JUMP JUMPDEST SWAP1 PUSH1 0x0 MSTORE PUSH1 0x20 PUSH1 0x0 KECCAK256 ADD PUSH1 0x0 PUSH2 0x100 EXP DUP2 SLOAD DUP2 PUSH1 0x1 PUSH1 0x1 PUSH1 0xA0 SHL SUB MUL NOT AND SWAP1 DUP4 PUSH1 0x1 PUSH1 0x1 PUSH1 0xA0 SHL SUB AND MUL OR SWAP1 SSTORE POP POP POP POP JUMP JUMPDEST PUSH1 0x0 SLOAD PUSH1 0xFF AND ISZERO PUSH2 0xA31 JUMPI PUSH1 0x40 MLOAD PUSH3 0x461BCD PUSH1 0xE5 SHL DUP2 MSTORE PUSH1 0x20 PUSH1 0x4 DUP3 ADD MSTORE PUSH1 0x29 PUSH1 0x24 DUP3 ADD MSTORE PUSH32 0x466972654C6F636B3A205265656E7472616E637947756172643A207265656E74 PUSH1 0x44 DUP3 ADD MSTORE PUSH9 0x1C985B9D0818D85B1B PUSH1 0xBA SHL PUSH1 0x64 DUP3 ADD MSTORE PUSH1 0x84 ADD PUSH2 0x783 JUMP JUMPDEST PUSH1 0x0 DUP1 SLOAD PUSH1 0xFF NOT AND PUSH1 0x1 OR SWAP1 DUP2 SWAP1 SSTORE PUSH3 0x10000 SWAP1 DIV PUSH1 0xFF AND PUSH2 0xA65 JUMPI PUSH1 0x40 MLOAD PUSH3 0x461BCD PUSH1 0xE5 SHL DUP2 MSTORE PUSH1 0x4 ADD PUSH2 0x783 SWAP1 PUSH2 0x2B34 JUMP JUMPDEST PUSH1 0x7 SLOAD PUSH1 0x64 EQ PUSH2 0xAB7 JUMPI PUSH1 0x40 MLOAD PUSH3 0x461BCD PUSH1 0xE5 SHL DUP2 MSTORE PUSH1 0x20 PUSH1 0x4 DUP3 ADD MSTORE PUSH1 0x17 PUSH1 0x24 DUP3 ADD MSTORE PUSH32 0x466972654C6F636B3A2072617465206973206572726F72000000000000000000 PUSH1 0x44 DUP3 ADD MSTORE PUSH1 0x64 ADD PUSH2 0x783 JUMP JUMPDEST PUSH1 0x12 SLOAD TIMESTAMP GT PUSH2 0xB08 JUMPI PUSH1 0x40 MLOAD PUSH3 0x461BCD PUSH1 0xE5 SHL DUP2 MSTORE PUSH1 0x20 PUSH1 0x4 DUP3 ADD MSTORE PUSH1 0x1B PUSH1 0x24 DUP3 ADD MSTORE PUSH32 0x466972654C6F636B3A207374696C6C20636C696666506572696F640000000000 PUSH1 0x44 DUP3 ADD MSTORE PUSH1 0x64 ADD PUSH2 0x783 JUMP JUMPDEST PUSH1 0x0 PUSH2 0xB13 CALLER PUSH2 0x1E4F JUMP JUMPDEST PUSH1 0x6 SLOAD PUSH1 0x10 SLOAD CALLER PUSH1 0x0 SWAP1 DUP2 MSTORE PUSH1 0x15 PUSH1 0x20 MSTORE PUSH1 0x40 DUP2 KECCAK256 SLOAD SWAP4 SWAP5 POP SWAP2 SWAP3 PUSH1 0x1 PUSH1 0x1 PUSH1 0xA0 SHL SUB SWAP1 SWAP2 AND SWAP2 SWAP1 ISZERO PUSH2 0xB60 JUMPI CALLER PUSH1 0x0 SWAP1 DUP2 MSTORE PUSH1 0x15 PUSH1 0x20 MSTORE PUSH1 0x40 SWAP1 KECCAK256 SLOAD PUSH2 0xB5B SWAP1 TIMESTAMP SWAP1 PUSH2 0x217C JUMP JUMPDEST PUSH2 0xB6E JUMP JUMPDEST PUSH1 0x12 SLOAD PUSH2 0xB6E SWAP1 TIMESTAMP SWAP1 PUSH2 0x217C JUMP JUMPDEST PUSH1 0xE SLOAD PUSH1 0xD SLOAD SWAP2 SWAP3 POP PUSH1 0x0 SWAP2 PUSH2 0xB92 SWAP2 PUSH3 0x15180 SWAP2 PUSH2 0xB8C SWAP2 PUSH2 0x2191 JUMP JUMPDEST SWAP1 PUSH2 0x2191 JUMP JUMPDEST SWAP1 POP PUSH1 0x0 PUSH2 0xBD4 PUSH1 0x64 PUSH2 0xBCE PUSH1 0x8 PUSH1 0x7 ADD DUP10 DUP2 SLOAD DUP2 LT PUSH2 0xBB4 JUMPI PUSH2 0xBB4 PUSH2 0x2B81 JUMP JUMPDEST SWAP1 PUSH1 0x0 MSTORE PUSH1 0x20 PUSH1 0x0 KECCAK256 ADD SLOAD DUP9 PUSH2 0x2191 SWAP1 SWAP2 SWAP1 PUSH4 0xFFFFFFFF AND JUMP JUMPDEST SWAP1 PUSH2 0x219D JUMP JUMPDEST SWAP1 POP PUSH1 0x0 PUSH2 0xBE6 DUP4 PUSH2 0xBCE DUP5 DUP8 PUSH2 0x2191 JUMP JUMPDEST CALLER PUSH1 0x0 SWAP1 DUP2 MSTORE PUSH1 0x14 PUSH1 0x20 MSTORE PUSH1 0x40 SWAP1 KECCAK256 SLOAD SWAP1 SWAP2 POP DUP3 GT PUSH2 0xC61 JUMPI PUSH1 0x40 MLOAD PUSH3 0x461BCD PUSH1 0xE5 SHL DUP2 MSTORE PUSH1 0x20 PUSH1 0x4 DUP3 ADD MSTORE PUSH1 0x31 PUSH1 0x24 DUP3 ADD MSTORE PUSH32 0x466972654C6F636B3A20596F7520646F206E6F74206861766520656E6F756768 PUSH1 0x44 DUP3 ADD MSTORE PUSH17 0x2062616C616E636520746F20636C61696D PUSH1 0x78 SHL PUSH1 0x64 DUP3 ADD MSTORE PUSH1 0x84 ADD PUSH2 0x783 JUMP JUMPDEST DUP2 DUP9 GT ISZERO PUSH2 0xCB1 JUMPI PUSH1 0x40 MLOAD PUSH3 0x461BCD PUSH1 0xE5 SHL DUP2 MSTORE PUSH1 0x20 PUSH1 0x4 DUP3 ADD MSTORE PUSH1 0x1C PUSH1 0x24 DUP3 ADD MSTORE PUSH32 0x466972654C6F636B3A20496E73756666696369656E742071756F746100000000 PUSH1 0x44 DUP3 ADD MSTORE PUSH1 0x64 ADD PUSH2 0x783 JUMP JUMPDEST CALLER PUSH1 0x0 SWAP1 DUP2 MSTORE PUSH1 0x16 PUSH1 0x20 MSTORE PUSH1 0x40 SWAP1 KECCAK256 SLOAD PUSH2 0xCCC SWAP1 DUP3 SWAP1 PUSH2 0x21A9 JUMP JUMPDEST DUP9 GT ISZERO PUSH2 0xD32 JUMPI PUSH1 0x40 MLOAD PUSH3 0x461BCD PUSH1 0xE5 SHL DUP2 MSTORE PUSH1 0x20 PUSH1 0x4 DUP3 ADD MSTORE PUSH1 0x2E PUSH1 0x24 DUP3 ADD MSTORE PUSH32 0x466972654C6F636B3A20436C61696D20616D6F756E7420657863656564732061 PUSH1 0x44 DUP3 ADD MSTORE PUSH14 0x6C6C6F776564206D6178696D756D PUSH1 0x90 SHL PUSH1 0x64 DUP3 ADD MSTORE PUSH1 0x84 ADD PUSH2 0x783 JUMP JUMPDEST CALLER PUSH1 0x0 SWAP1 DUP2 MSTORE PUSH1 0x14 PUSH1 0x20 MSTORE PUSH1 0x40 SWAP1 KECCAK256 SLOAD DUP3 SWAP1 PUSH2 0xD4E SWAP1 DUP11 PUSH2 0x21A9 JUMP JUMPDEST GT ISZERO PUSH2 0xDBA JUMPI PUSH1 0x40 MLOAD PUSH3 0x461BCD PUSH1 0xE5 SHL DUP2 MSTORE PUSH1 0x20 PUSH1 0x4 DUP3 ADD MSTORE PUSH1 0x35 PUSH1 0x24 DUP3 ADD MSTORE PUSH32 0x466972654C6F636B3A20436C61696D20616D6F756E7420657863656564732075 PUSH1 0x44 DUP3 ADD MSTORE PUSH21 0x736572277320616C6C6F776564206D6178696D756D PUSH1 0x58 SHL PUSH1 0x64 DUP3 ADD MSTORE PUSH1 0x84 ADD PUSH2 0x783 JUMP JUMPDEST PUSH2 0xDCE PUSH1 0x1 PUSH1 0x1 PUSH1 0xA0 SHL SUB DUP7 AND CALLER DUP11 PUSH2 0x21B5 JUMP JUMPDEST PUSH1 0xC SLOAD PUSH2 0xDDB SWAP1 DUP10 PUSH2 0x217C JUMP JUMPDEST PUSH1 0xC SSTORE CALLER PUSH1 0x0 SWAP1 DUP2 MSTORE PUSH1 0x15 PUSH1 0x20 SWAP1 DUP2 MSTORE PUSH1 0x40 DUP1 DUP4 KECCAK256 TIMESTAMP SWAP1 SSTORE PUSH1 0x16 SWAP1 SWAP2 MSTORE SWAP1 KECCAK256 SLOAD PUSH2 0xE12 SWAP1 DUP10 SWAP1 PUSH2 0xE0C SWAP1 DUP5 SWAP1 PUSH2 0x21A9 JUMP JUMPDEST SWAP1 PUSH2 0x217C JUMP JUMPDEST CALLER PUSH1 0x0 DUP2 DUP2 MSTORE PUSH1 0x16 PUSH1 0x20 SWAP1 DUP2 MSTORE PUSH1 0x40 DUP1 DUP4 KECCAK256 SWAP5 SWAP1 SWAP5 SSTORE DUP4 MLOAD PUSH1 0x60 DUP2 ADD DUP6 MSTORE DUP4 DUP2 MSTORE DUP1 DUP3 ADD DUP14 DUP2 MSTORE TIMESTAMP DUP3 DUP8 ADD SWAP1 DUP2 MSTORE PUSH1 0x13 DUP1 SLOAD PUSH1 0x1 DUP2 ADD DUP3 SSTORE SWAP1 DUP7 MSTORE DUP4 MLOAD PUSH32 0x66DE8FFDA797E3DE9C05E8FC57B3BF0EC28A930D40B0D285D93C06501CF6A090 PUSH1 0x3 SWAP1 SWAP3 MUL SWAP2 DUP3 ADD DUP1 SLOAD PUSH1 0x1 PUSH1 0x1 PUSH1 0xA0 SHL SUB NOT AND PUSH1 0x1 PUSH1 0x1 PUSH1 0xA0 SHL SUB SWAP1 SWAP3 AND SWAP2 SWAP1 SWAP2 OR SWAP1 SSTORE SWAP2 MLOAD PUSH32 0x66DE8FFDA797E3DE9C05E8FC57B3BF0EC28A930D40B0D285D93C06501CF6A091 DUP4 ADD SSTORE MLOAD PUSH32 0x66DE8FFDA797E3DE9C05E8FC57B3BF0EC28A930D40B0D285D93C06501CF6A092 SWAP1 SWAP2 ADD SSTORE SWAP3 DUP3 MSTORE PUSH1 0x14 SWAP1 MSTORE SWAP2 SWAP1 SWAP2 KECCAK256 SLOAD PUSH2 0xEF7 SWAP1 DUP11 PUSH2 0x21A9 JUMP JUMPDEST CALLER PUSH1 0x0 SWAP1 DUP2 MSTORE PUSH1 0x14 PUSH1 0x20 MSTORE PUSH1 0x40 SWAP1 DUP2 SWAP1 KECCAK256 SWAP2 SWAP1 SWAP2 SSTORE PUSH1 0x1 SLOAD SWAP1 MLOAD PUSH4 0x162D870B PUSH1 0xE3 SHL DUP2 MSTORE ADDRESS PUSH1 0x4 DUP3 ADD MSTORE PUSH1 0x24 DUP2 ADD DUP12 SWAP1 MSTORE PUSH1 0x1 PUSH1 0x1 PUSH1 0xA0 SHL SUB SWAP1 SWAP2 AND SWAP1 PUSH4 0xB16C3858 SWAP1 PUSH1 0x44 ADD PUSH1 0x0 PUSH1 0x40 MLOAD DUP1 DUP4 SUB DUP2 PUSH1 0x0 DUP8 DUP1 EXTCODESIZE ISZERO DUP1 ISZERO PUSH2 0xF57 JUMPI PUSH1 0x0 DUP1 REVERT JUMPDEST POP GAS CALL ISZERO DUP1 ISZERO PUSH2 0xF6B JUMPI RETURNDATASIZE PUSH1 0x0 DUP1 RETURNDATACOPY RETURNDATASIZE PUSH1 0x0 REVERT JUMPDEST POP POP POP POP PUSH1 0x8 PUSH1 0x4 ADD SLOAD PUSH1 0x0 SUB PUSH2 0xF89 JUMPI PUSH1 0x0 DUP1 SLOAD PUSH3 0xFF0000 NOT AND SWAP1 SSTORE JUMPDEST POP POP PUSH1 0x0 DUP1 SLOAD PUSH1 0xFF NOT AND SWAP1 SSTORE POP POP POP POP POP POP POP JUMP JUMPDEST PUSH1 0x0 DUP1 PUSH1 0x8 PUSH1 0x9 ADD DUP4 DUP2 SLOAD DUP2 LT PUSH2 0xFB7 JUMPI PUSH2 0xFB7 PUSH2 0x2B81 JUMP JUMPDEST PUSH1 0x0 SWAP2 DUP3 MSTORE PUSH1 0x20 SWAP1 SWAP2 KECCAK256 ADD SLOAD PUSH1 0x11 SLOAD PUSH1 0x1 PUSH1 0x1 PUSH1 0xA0 SHL SUB SWAP1 SWAP2 AND SWAP2 POP DUP4 LT PUSH2 0x1021 JUMPI PUSH1 0x40 MLOAD PUSH3 0x461BCD PUSH1 0xE5 SHL DUP2 MSTORE PUSH1 0x20 PUSH1 0x4 DUP3 ADD MSTORE PUSH1 0x1D PUSH1 0x24 DUP3 ADD MSTORE PUSH32 0x466972654C6F636B3A205573657220646F6573206E6F74206578697374000000 PUSH1 0x44 DUP3 ADD MSTORE PUSH1 0x64 ADD PUSH2 0x783 JUMP JUMPDEST PUSH1 0x1 PUSH1 0x1 PUSH1 0xA0 SHL SUB DUP2 AND PUSH2 0x1077 JUMPI PUSH1 0x40 MLOAD PUSH3 0x461BCD PUSH1 0xE5 SHL DUP2 MSTORE PUSH1 0x20 PUSH1 0x4 DUP3 ADD MSTORE PUSH1 0x1D PUSH1 0x24 DUP3 ADD MSTORE PUSH32 0x466972654C6F636B3A205573657220646F6573206E6F74206578697374000000 PUSH1 0x44 DUP3 ADD MSTORE PUSH1 0x64 ADD PUSH2 0x783 JUMP JUMPDEST PUSH1 0x1 PUSH1 0x1 PUSH1 0xA0 SHL SUB DUP2 AND PUSH1 0x0 SWAP1 DUP2 MSTORE PUSH1 0x15 PUSH1 0x20 MSTORE PUSH1 0x40 DUP2 KECCAK256 SLOAD DUP2 SUB PUSH2 0x110B JUMPI PUSH2 0x1104 PUSH3 0x15180 PUSH2 0xB8C PUSH1 0x8 PUSH1 0x5 ADD SLOAD PUSH2 0xBCE PUSH1 0x8 PUSH1 0x6 ADD SLOAD PUSH2 0xBCE PUSH1 0x64 PUSH2 0xBCE PUSH2 0x10CF PUSH1 0x8 PUSH1 0x2 ADD SLOAD TIMESTAMP PUSH2 0x217C SWAP1 SWAP2 SWAP1 PUSH4 0xFFFFFFFF AND JUMP JUMPDEST PUSH2 0xB8C PUSH1 0x8 PUSH1 0x7 ADD DUP16 DUP2 SLOAD DUP2 LT PUSH2 0x10E8 JUMPI PUSH2 0x10E8 PUSH2 0x2B81 JUMP JUMPDEST SWAP1 PUSH1 0x0 MSTORE PUSH1 0x20 PUSH1 0x0 KECCAK256 ADD SLOAD PUSH1 0x6 SLOAD PUSH2 0x2191 SWAP1 SWAP2 SWAP1 PUSH4 0xFFFFFFFF AND JUMP JUMPDEST SWAP1 POP PUSH2 0x1151 JUMP JUMPDEST PUSH1 0xD SLOAD PUSH1 0xE SLOAD PUSH1 0x1 PUSH1 0x1 PUSH1 0xA0 SHL SUB DUP5 AND PUSH1 0x0 SWAP1 DUP2 MSTORE PUSH1 0x15 PUSH1 0x20 MSTORE PUSH1 0x40 SWAP1 KECCAK256 SLOAD PUSH2 0x114E SWAP3 PUSH3 0x15180 SWAP3 PUSH2 0xB8C SWAP3 PUSH2 0xBCE SWAP2 SWAP1 DUP3 SWAP1 PUSH1 0x64 SWAP1 DUP3 SWAP1 PUSH2 0x10CF SWAP1 TIMESTAMP SWAP1 PUSH2 0x217C JUMP JUMPDEST SWAP1 POP JUMPDEST SWAP4 SWAP3 POP POP POP JUMP JUMPDEST PUSH1 0x60 PUSH1 0x8 PUSH1 0x7 ADD DUP1 SLOAD DUP1 PUSH1 0x20 MUL PUSH1 0x20 ADD PUSH1 0x40 MLOAD SWAP1 DUP2 ADD PUSH1 0x40 MSTORE DUP1 SWAP3 SWAP2 SWAP1 DUP2 DUP2 MSTORE PUSH1 0x20 ADD DUP3 DUP1 SLOAD DUP1 ISZERO PUSH2 0x641 JUMPI PUSH1 0x20 MUL DUP3 ADD SWAP2 SWAP1 PUSH1 0x0 MSTORE PUSH1 0x20 PUSH1 0x0 KECCAK256 SWAP1 JUMPDEST DUP2 SLOAD DUP2 MSTORE PUSH1 0x20 ADD SWAP1 PUSH1 0x1 ADD SWAP1 DUP1 DUP4 GT PUSH2 0x1195 JUMPI POP POP POP POP POP SWAP1 POP SWAP1 JUMP JUMPDEST PUSH1 0x3 SLOAD PUSH1 0x40 DUP1 MLOAD PUSH4 0xCED72F87 PUSH1 0xE0 SHL DUP2 MSTORE SWAP1 MLOAD PUSH1 0x0 SWAP3 PUSH1 0x1 PUSH1 0x1 PUSH1 0xA0 SHL SUB AND SWAP2 PUSH4 0xCED72F87 SWAP2 PUSH1 0x4 DUP1 DUP4 ADD SWAP3 PUSH1 0x20 SWAP3 SWAP2 SWAP1 DUP3 SWAP1 SUB ADD DUP2 DUP7 GAS STATICCALL ISZERO DUP1 ISZERO PUSH2 0x11FC JUMPI RETURNDATASIZE PUSH1 0x0 DUP1 RETURNDATACOPY RETURNDATASIZE PUSH1 0x0 REVERT JUMPDEST POP POP POP POP PUSH1 0x40 MLOAD RETURNDATASIZE PUSH1 0x1F NOT PUSH1 0x1F DUP3 ADD AND DUP3 ADD DUP1 PUSH1 0x40 MSTORE POP DUP2 ADD SWAP1 PUSH2 0x1220 SWAP2 SWAP1 PUSH2 0x2B97 JUMP JUMPDEST SWAP1 POP SWAP1 JUMP JUMPDEST PUSH1 0x0 SLOAD PUSH2 0x100 SWAP1 DIV PUSH1 0xFF AND PUSH2 0x1293 JUMPI PUSH1 0x40 MLOAD PUSH3 0x461BCD PUSH1 0xE5 SHL DUP2 MSTORE PUSH1 0x20 PUSH1 0x4 DUP3 ADD MSTORE PUSH1 0x2E PUSH1 0x24 DUP3 ADD MSTORE PUSH32 0x466972654C6F636B3A20596F75206861766520616C7265616479206C6F636B65 PUSH1 0x44 DUP3 ADD MSTORE PUSH14 0x32103A3432903837B9B4BA34B7B7 PUSH1 0x91 SHL PUSH1 0x64 DUP3 ADD MSTORE PUSH1 0x84 ADD PUSH2 0x783 JUMP JUMPDEST PUSH2 0x129C DUP5 PUSH2 0x1D35 JUMP JUMPDEST PUSH2 0x12E8 JUMPI PUSH1 0x40 MLOAD PUSH3 0x461BCD PUSH1 0xE5 SHL DUP2 MSTORE PUSH1 0x20 PUSH1 0x4 DUP3 ADD MSTORE PUSH1 0x1F PUSH1 0x24 DUP3 ADD MSTORE PUSH32 0x466972654C6F636B3A2061646472657373206973206E6F7420756E6971756500 PUSH1 0x44 DUP3 ADD MSTORE PUSH1 0x64 ADD PUSH2 0x783 JUMP JUMPDEST PUSH1 0x0 DUP5 MLOAD GT DUP1 ISZERO PUSH2 0x12FA JUMPI POP PUSH1 0x0 DUP4 MLOAD GT JUMPDEST PUSH2 0x135A JUMPI PUSH1 0x40 MLOAD PUSH3 0x461BCD PUSH1 0xE5 SHL DUP2 MSTORE PUSH1 0x20 PUSH1 0x4 DUP3 ADD MSTORE PUSH1 0x2B PUSH1 0x24 DUP3 ADD MSTORE PUSH32 0x466972654C6F636B3A204164647265737320616E64207363616C652063616E6E PUSH1 0x44 DUP3 ADD MSTORE PUSH11 0x6F7420626520656D707479 PUSH1 0xA8 SHL PUSH1 0x64 DUP3 ADD MSTORE PUSH1 0x84 ADD PUSH2 0x783 JUMP JUMPDEST DUP3 MLOAD DUP5 MLOAD EQ PUSH2 0x13AB JUMPI PUSH1 0x40 MLOAD PUSH3 0x461BCD PUSH1 0xE5 SHL DUP2 MSTORE PUSH1 0x20 PUSH1 0x4 DUP3 ADD MSTORE PUSH1 0x1B PUSH1 0x24 DUP3 ADD MSTORE PUSH32 0x466972654C6F636B3A207573657220616D6F756E74206572726F720000000000 PUSH1 0x44 DUP3 ADD MSTORE PUSH1 0x64 ADD PUSH2 0x783 JUMP JUMPDEST PUSH1 0x0 JUMPDEST DUP5 MLOAD DUP2 LT ISZERO PUSH2 0x1462 JUMPI PUSH2 0x13EC DUP6 DUP3 DUP2 MLOAD DUP2 LT PUSH2 0x13CC JUMPI PUSH2 0x13CC PUSH2 0x2B81 JUMP JUMPDEST PUSH1 0x20 MUL PUSH1 0x20 ADD ADD MLOAD PUSH1 0x1 PUSH1 0x1 PUSH1 0xA0 SHL SUB AND PUSH1 0x1 PUSH1 0x1 PUSH1 0xA0 SHL SUB AND EXTCODESIZE ISZERO ISZERO SWAP1 JUMP JUMPDEST ISZERO PUSH2 0x1450 JUMPI PUSH1 0x40 MLOAD PUSH3 0x461BCD PUSH1 0xE5 SHL DUP2 MSTORE PUSH1 0x20 PUSH1 0x4 DUP3 ADD MSTORE PUSH1 0x2E PUSH1 0x24 DUP3 ADD MSTORE PUSH32 0x466972654C6F636B3A20436F6E7472616374206164647265737320666F756E64 PUSH1 0x44 DUP3 ADD MSTORE PUSH14 0x1034B7102FBA379030B93930BC97 PUSH1 0x91 SHL PUSH1 0x64 DUP3 ADD MSTORE PUSH1 0x84 ADD PUSH2 0x783 JUMP JUMPDEST DUP1 PUSH2 0x145A DUP2 PUSH2 0x2BC6 JUMP JUMPDEST SWAP2 POP POP PUSH2 0x13AE JUMP JUMPDEST POP PUSH1 0x5 SLOAD PUSH1 0x1 PUSH1 0x1 PUSH1 0xA0 SHL SUB AND CALLER EQ PUSH2 0x14BD JUMPI PUSH1 0x40 MLOAD PUSH3 0x461BCD PUSH1 0xE5 SHL DUP2 MSTORE PUSH1 0x20 PUSH1 0x4 DUP3 ADD DUP2 SWAP1 MSTORE PUSH1 0x24 DUP3 ADD MSTORE PUSH32 0x466972654C6F636B3A20796F7520617265206E6F742063726561742075736572 PUSH1 0x44 DUP3 ADD MSTORE PUSH1 0x64 ADD PUSH2 0x783 JUMP JUMPDEST TIMESTAMP PUSH2 0x14D9 PUSH2 0x14D2 PUSH3 0x15180 PUSH2 0xB8C DUP12 DUP12 PUSH2 0x2191 JUMP JUMPDEST TIMESTAMP SWAP1 PUSH2 0x21A9 JUMP JUMPDEST GT PUSH2 0x154C JUMPI PUSH1 0x40 MLOAD PUSH3 0x461BCD PUSH1 0xE5 SHL DUP2 MSTORE PUSH1 0x20 PUSH1 0x4 DUP3 ADD MSTORE PUSH1 0x3D PUSH1 0x24 DUP3 ADD MSTORE PUSH32 0x466972654C6F636B3A20446561646C696E652073686F756C6420626520626967 PUSH1 0x44 DUP3 ADD MSTORE PUSH32 0x676572207468616E2063757272656E7420626C6F636B206E756D626572000000 PUSH1 0x64 DUP3 ADD MSTORE PUSH1 0x84 ADD PUSH2 0x783 JUMP JUMPDEST PUSH1 0x0 DUP6 GT PUSH2 0x15B6 JUMPI PUSH1 0x40 MLOAD PUSH3 0x461BCD PUSH1 0xE5 SHL DUP2 MSTORE PUSH1 0x20 PUSH1 0x4 DUP3 ADD MSTORE PUSH1 0x31 PUSH1 0x24 DUP3 ADD MSTORE PUSH32 0x466972654C6F636B3A20546F6B656E20616D6F756E742073686F756C64206265 PUSH1 0x44 DUP3 ADD MSTORE PUSH17 0x20626967676572207468616E207A65726F PUSH1 0x78 SHL PUSH1 0x64 DUP3 ADD MSTORE PUSH1 0x84 ADD PUSH2 0x783 JUMP JUMPDEST PUSH2 0x15BF DUP4 PUSH2 0x1F0E JUMP JUMPDEST PUSH2 0x1602 JUMPI PUSH1 0x40 MLOAD PUSH3 0x461BCD PUSH1 0xE5 SHL DUP2 MSTORE PUSH1 0x20 PUSH1 0x4 DUP3 ADD MSTORE PUSH1 0x14 PUSH1 0x24 DUP3 ADD MSTORE PUSH20 0x2334B932A637B1B59D103930BA329032B93937B9 PUSH1 0x61 SHL PUSH1 0x44 DUP3 ADD MSTORE PUSH1 0x64 ADD PUSH2 0x783 JUMP JUMPDEST PUSH1 0x0 DUP8 GT DUP1 ISZERO PUSH2 0x1612 JUMPI POP PUSH1 0x0 DUP7 GT JUMPDEST PUSH2 0x166E JUMPI PUSH1 0x40 MLOAD PUSH3 0x461BCD PUSH1 0xE5 SHL DUP2 MSTORE PUSH1 0x20 PUSH1 0x4 DUP3 ADD MSTORE PUSH1 0x27 PUSH1 0x24 DUP3 ADD MSTORE PUSH32 0x466972654C6F636B3A20506572696F6420616E6420726F756E6420696E707574 PUSH1 0x44 DUP3 ADD MSTORE PUSH7 0x206572726F7273 PUSH1 0xC8 SHL PUSH1 0x64 DUP3 ADD MSTORE PUSH1 0x84 ADD PUSH2 0x783 JUMP JUMPDEST PUSH1 0x0 DUP3 MLOAD GT PUSH2 0x16CB JUMPI PUSH1 0x40 MLOAD PUSH3 0x461BCD PUSH1 0xE5 SHL DUP2 MSTORE PUSH1 0x20 PUSH1 0x4 DUP3 ADD MSTORE PUSH1 0x23 PUSH1 0x24 DUP3 ADD MSTORE PUSH32 0x466972654C6F636B3A20537472696E67206D757374206E6F7420626520656D70 PUSH1 0x44 DUP3 ADD MSTORE PUSH3 0x3A3C97 PUSH1 0xE9 SHL PUSH1 0x64 DUP3 ADD MSTORE PUSH1 0x84 ADD PUSH2 0x783 JUMP JUMPDEST CALLER PUSH1 0x0 PUSH2 0x16DE PUSH2 0x14D2 DUP5 PUSH3 0x15180 PUSH2 0x2191 JUMP JUMPDEST SWAP1 POP PUSH1 0x0 PUSH2 0x16FD PUSH2 0x16F6 PUSH3 0x15180 PUSH2 0xB8C DUP14 DUP14 PUSH2 0x21A9 JUMP JUMPDEST DUP4 SWAP1 PUSH2 0x21A9 JUMP JUMPDEST SWAP1 POP CALLVALUE PUSH1 0x0 SUB PUSH2 0x1739 JUMPI PUSH1 0x0 SLOAD PUSH2 0x1734 SWAP1 PUSH4 0x1000000 SWAP1 DIV PUSH1 0x1 PUSH1 0x1 PUSH1 0xA0 SHL SUB AND CALLER PUSH2 0x1727 PUSH2 0x1DE1 JUMP JUMPDEST PUSH2 0x172F PUSH2 0x11B2 JUMP JUMPDEST PUSH2 0x220C JUMP JUMPDEST PUSH2 0x187E JUMP JUMPDEST PUSH2 0x1741 PUSH2 0x11B2 JUMP JUMPDEST CALLVALUE EQ PUSH2 0x177E JUMPI PUSH1 0x40 MLOAD PUSH3 0x461BCD PUSH1 0xE5 SHL DUP2 MSTORE PUSH1 0x20 PUSH1 0x4 DUP3 ADD MSTORE PUSH1 0xC PUSH1 0x24 DUP3 ADD MSTORE PUSH12 0x20B6B7BAB73A1032B93937B9 PUSH1 0xA1 SHL PUSH1 0x44 DUP3 ADD MSTORE PUSH1 0x64 ADD PUSH2 0x783 JUMP JUMPDEST PUSH1 0x0 SLOAD PUSH4 0x1000000 SWAP1 DIV PUSH1 0x1 PUSH1 0x1 PUSH1 0xA0 SHL SUB AND PUSH4 0xD0E30DB0 PUSH2 0x179E PUSH2 0x11B2 JUMP JUMPDEST PUSH1 0x40 MLOAD DUP3 PUSH4 0xFFFFFFFF AND PUSH1 0xE0 SHL DUP2 MSTORE PUSH1 0x4 ADD PUSH1 0x0 PUSH1 0x40 MLOAD DUP1 DUP4 SUB DUP2 DUP6 DUP9 DUP1 EXTCODESIZE ISZERO DUP1 ISZERO PUSH2 0x17C9 JUMPI PUSH1 0x0 DUP1 REVERT JUMPDEST POP GAS CALL ISZERO DUP1 ISZERO PUSH2 0x17DD JUMPI RETURNDATASIZE PUSH1 0x0 DUP1 RETURNDATACOPY RETURNDATASIZE PUSH1 0x0 REVERT JUMPDEST POP POP PUSH1 0x0 SLOAD PUSH4 0x1000000 SWAP1 DIV PUSH1 0x1 PUSH1 0x1 PUSH1 0xA0 SHL SUB AND SWAP3 POP PUSH4 0xA9059CBB SWAP2 POP PUSH2 0x1805 SWAP1 POP PUSH2 0x1DE1 JUMP JUMPDEST PUSH2 0x180D PUSH2 0x11B2 JUMP JUMPDEST PUSH1 0x40 MLOAD PUSH1 0x1 PUSH1 0x1 PUSH1 0xE0 SHL SUB NOT PUSH1 0xE0 DUP6 SWAP1 SHL AND DUP2 MSTORE PUSH1 0x1 PUSH1 0x1 PUSH1 0xA0 SHL SUB SWAP1 SWAP3 AND PUSH1 0x4 DUP4 ADD MSTORE PUSH1 0x24 DUP3 ADD MSTORE PUSH1 0x44 ADD PUSH1 0x20 PUSH1 0x40 MLOAD DUP1 DUP4 SUB DUP2 PUSH1 0x0 DUP8 GAS CALL ISZERO DUP1 ISZERO PUSH2 0x1858 JUMPI RETURNDATASIZE PUSH1 0x0 DUP1 RETURNDATACOPY RETURNDATASIZE PUSH1 0x0 REVERT JUMPDEST POP POP POP POP PUSH1 0x40 MLOAD RETURNDATASIZE PUSH1 0x1F NOT PUSH1 0x1F DUP3 ADD AND DUP3 ADD DUP1 PUSH1 0x40 MSTORE POP DUP2 ADD SWAP1 PUSH2 0x187C SWAP2 SWAP1 PUSH2 0x2BDF JUMP JUMPDEST POP JUMPDEST PUSH1 0x40 DUP1 MLOAD PUSH2 0x160 DUP2 ADD DUP3 MSTORE DUP7 DUP2 MSTORE PUSH1 0x20 DUP2 ADD DUP4 SWAP1 MSTORE SWAP1 DUP2 ADD DUP4 SWAP1 MSTORE PUSH1 0x1 PUSH1 0x1 PUSH1 0xA0 SHL SUB DUP1 DUP14 AND PUSH1 0x60 DUP4 ADD MSTORE PUSH1 0x80 DUP3 ADD DUP11 SWAP1 MSTORE PUSH1 0xA0 DUP3 ADD DUP13 SWAP1 MSTORE PUSH1 0xC0 DUP3 ADD DUP12 SWAP1 MSTORE PUSH1 0xE0 DUP3 ADD DUP9 SWAP1 MSTORE DUP14 AND PUSH2 0x100 DUP3 ADD MSTORE PUSH2 0x120 DUP2 ADD DUP9 SWAP1 MSTORE PUSH2 0x140 DUP2 ADD DUP4 SWAP1 MSTORE DUP1 PUSH1 0x8 DUP1 PUSH2 0x18EB DUP10 DUP3 PUSH2 0x2C47 JUMP JUMPDEST POP PUSH1 0x20 DUP3 DUP2 ADD MLOAD PUSH1 0x1 DUP4 ADD SSTORE PUSH1 0x40 DUP4 ADD MLOAD PUSH1 0x2 DUP4 ADD SSTORE PUSH1 0x60 DUP4 ADD MLOAD PUSH1 0x3 DUP4 ADD DUP1 SLOAD PUSH1 0x1 PUSH1 0x1 PUSH1 0xA0 SHL SUB NOT AND PUSH1 0x1 PUSH1 0x1 PUSH1 0xA0 SHL SUB SWAP1 SWAP3 AND SWAP2 SWAP1 SWAP2 OR SWAP1 SSTORE PUSH1 0x80 DUP4 ADD MLOAD PUSH1 0x4 DUP4 ADD SSTORE PUSH1 0xA0 DUP4 ADD MLOAD PUSH1 0x5 DUP4 ADD SSTORE PUSH1 0xC0 DUP4 ADD MLOAD PUSH1 0x6 DUP4 ADD SSTORE PUSH1 0xE0 DUP4 ADD MLOAD DUP1 MLOAD PUSH2 0x195C SWAP3 PUSH1 0x7 DUP6 ADD SWAP3 ADD SWAP1 PUSH2 0x258E JUMP JUMPDEST POP PUSH2 0x100 DUP3 ADD MLOAD PUSH1 0x8 DUP3 ADD DUP1 SLOAD PUSH1 0x1 PUSH1 0x1 PUSH1 0xA0 SHL SUB NOT AND PUSH1 0x1 PUSH1 0x1 PUSH1 0xA0 SHL SUB SWAP1 SWAP3 AND SWAP2 SWAP1 SWAP2 OR SWAP1 SSTORE PUSH2 0x120 DUP3 ADD MLOAD DUP1 MLOAD PUSH2 0x19A0 SWAP2 PUSH1 0x9 DUP5 ADD SWAP2 PUSH1 0x20 SWAP1 SWAP2 ADD SWAP1 PUSH2 0x25D9 JUMP JUMPDEST POP PUSH2 0x140 SWAP2 SWAP1 SWAP2 ADD MLOAD PUSH1 0xA SWAP1 SWAP2 ADD SSTORE PUSH1 0x40 MLOAD PUSH4 0x23B872DD PUSH1 0xE0 SHL DUP2 MSTORE PUSH1 0x1 PUSH1 0x1 PUSH1 0xA0 SHL SUB DUP6 DUP2 AND PUSH1 0x4 DUP4 ADD MSTORE ADDRESS PUSH1 0x24 DUP4 ADD MSTORE PUSH1 0x44 DUP3 ADD DUP12 SWAP1 MSTORE DUP15 AND SWAP1 PUSH4 0x23B872DD SWAP1 PUSH1 0x64 ADD PUSH1 0x20 PUSH1 0x40 MLOAD DUP1 DUP4 SUB DUP2 PUSH1 0x0 DUP8 GAS CALL ISZERO DUP1 ISZERO PUSH2 0x1A04 JUMPI RETURNDATASIZE PUSH1 0x0 DUP1 RETURNDATACOPY RETURNDATASIZE PUSH1 0x0 REVERT JUMPDEST POP POP POP POP PUSH1 0x40 MLOAD RETURNDATASIZE PUSH1 0x1F NOT PUSH1 0x1F DUP3 ADD AND DUP3 ADD DUP1 PUSH1 0x40 MSTORE POP DUP2 ADD SWAP1 PUSH2 0x1A28 SWAP2 SWAP1 PUSH2 0x2BDF JUMP JUMPDEST POP PUSH1 0x0 DUP1 SLOAD PUSH2 0xFF00 NOT AND SWAP1 SSTORE PUSH1 0x1 SLOAD DUP2 MLOAD PUSH1 0x80 DUP4 ADD MLOAD PUSH1 0x40 DUP1 DUP6 ADD MLOAD PUSH1 0xA0 DUP7 ADD MLOAD PUSH1 0xC0 DUP8 ADD MLOAD PUSH1 0x20 DUP9 ADD MLOAD PUSH1 0x60 DUP10 ADD MLOAD SWAP5 MLOAD PUSH4 0x5D78589B PUSH1 0xE1 SHL DUP2 MSTORE PUSH1 0x1 PUSH1 0x1 PUSH1 0xA0 SHL SUB SWAP1 SWAP9 AND SWAP8 PUSH4 0xBAF0B136 SWAP8 PUSH2 0x1A92 SWAP8 ADDRESS SWAP8 SWAP2 SWAP7 SWAP1 SWAP6 TIMESTAMP SWAP6 SWAP2 SWAP5 SWAP1 SWAP4 SWAP2 SWAP3 SWAP1 SWAP2 PUSH1 0x4 ADD PUSH2 0x2D07 JUMP JUMPDEST PUSH1 0x0 PUSH1 0x40 MLOAD DUP1 DUP4 SUB DUP2 PUSH1 0x0 DUP8 DUP1 EXTCODESIZE ISZERO DUP1 ISZERO PUSH2 0x1AAC JUMPI PUSH1 0x0 DUP1 REVERT JUMPDEST POP GAS CALL ISZERO DUP1 ISZERO PUSH2 0x1AC0 JUMPI RETURNDATASIZE PUSH1 0x0 DUP1 RETURNDATACOPY RETURNDATASIZE PUSH1 0x0 REVERT JUMPDEST POP POP POP PUSH1 0x6 DUP11 SWAP1 SSTORE POP PUSH2 0x1AD1 PUSH2 0x233C JUMP JUMPDEST PUSH1 0x1 DUP1 SLOAD PUSH1 0x40 MLOAD PUSH4 0xEBDCC19B PUSH1 0xE0 SHL DUP2 MSTORE ADDRESS PUSH1 0x4 DUP3 ADD MSTORE PUSH1 0x24 DUP2 ADD SWAP3 SWAP1 SWAP3 MSTORE PUSH1 0x1 PUSH1 0x1 PUSH1 0xA0 SHL SUB AND SWAP1 PUSH4 0xEBDCC19B SWAP1 PUSH1 0x44 ADD PUSH1 0x0 PUSH1 0x40 MLOAD DUP1 DUP4 SUB DUP2 PUSH1 0x0 DUP8 DUP1 EXTCODESIZE ISZERO DUP1 ISZERO PUSH2 0x1B1D JUMPI PUSH1 0x0 DUP1 REVERT JUMPDEST POP GAS CALL ISZERO DUP1 ISZERO PUSH2 0x1B31 JUMPI RETURNDATASIZE PUSH1 0x0 DUP1 RETURNDATACOPY RETURNDATASIZE PUSH1 0x0 REVERT JUMPDEST POP POP POP POP POP POP POP POP POP POP POP POP POP POP POP POP POP JUMP JUMPDEST PUSH1 0xB SLOAD PUSH1 0x1 PUSH1 0x1 PUSH1 0xA0 SHL SUB AND CALLER EQ PUSH2 0x1B9E JUMPI PUSH1 0x40 MLOAD PUSH3 0x461BCD PUSH1 0xE5 SHL DUP2 MSTORE PUSH1 0x20 PUSH1 0x4 DUP3 ADD MSTORE PUSH1 0x1B PUSH1 0x24 DUP3 ADD MSTORE PUSH32 0x466972654C6F636B3A20796F7520617265206E6F742061646D696E0000000000 PUSH1 0x44 DUP3 ADD MSTORE PUSH1 0x64 ADD PUSH2 0x783 JUMP JUMPDEST PUSH1 0xF SLOAD DUP2 MLOAD EQ PUSH2 0x1BF0 JUMPI PUSH1 0x40 MLOAD PUSH3 0x461BCD PUSH1 0xE5 SHL DUP2 MSTORE PUSH1 0x20 PUSH1 0x4 DUP3 ADD MSTORE PUSH1 0x1B PUSH1 0x24 DUP3 ADD MSTORE PUSH32 0x466972654C6F636B3A2072617465206973206E6F74206D617463680000000000 PUSH1 0x44 DUP3 ADD MSTORE PUSH1 0x64 ADD PUSH2 0x783 JUMP JUMPDEST PUSH1 0x11 SLOAD DUP2 MLOAD EQ PUSH2 0x1C42 JUMPI PUSH1 0x40 MLOAD PUSH3 0x461BCD PUSH1 0xE5 SHL DUP2 MSTORE PUSH1 0x20 PUSH1 0x4 DUP3 ADD MSTORE PUSH1 0x1B PUSH1 0x24 DUP3 ADD MSTORE PUSH32 0x466972654C6F636B3A2072617465206973206E6F74206D617463680000000000 PUSH1 0x44 DUP3 ADD MSTORE PUSH1 0x64 ADD PUSH2 0x783 JUMP JUMPDEST PUSH1 0x0 JUMPDEST PUSH1 0xF SLOAD DUP2 LT ISZERO PUSH2 0x1C9D JUMPI DUP2 DUP2 DUP2 MLOAD DUP2 LT PUSH2 0x1C61 JUMPI PUSH2 0x1C61 PUSH2 0x2B81 JUMP JUMPDEST PUSH1 0x20 MUL PUSH1 0x20 ADD ADD MLOAD PUSH1 0x8 PUSH1 0x7 ADD DUP3 DUP2 SLOAD DUP2 LT PUSH2 0x1C7F JUMPI PUSH2 0x1C7F PUSH2 0x2B81 JUMP JUMPDEST PUSH1 0x0 SWAP2 DUP3 MSTORE PUSH1 0x20 SWAP1 SWAP2 KECCAK256 ADD SSTORE DUP1 PUSH2 0x1C95 DUP2 PUSH2 0x2BC6 JUMP JUMPDEST SWAP2 POP POP PUSH2 0x1C45 JUMP JUMPDEST POP PUSH2 0x1CA6 PUSH2 0x233C JUMP JUMPDEST POP JUMP JUMPDEST PUSH1 0x60 PUSH1 0x8 PUSH1 0x0 ADD DUP1 SLOAD PUSH2 0x1CBB SWAP1 PUSH2 0x2AFA JUMP JUMPDEST DUP1 PUSH1 0x1F ADD PUSH1 0x20 DUP1 SWAP2 DIV MUL PUSH1 0x20 ADD PUSH1 0x40 MLOAD SWAP1 DUP2 ADD PUSH1 0x40 MSTORE DUP1 SWAP3 SWAP2 SWAP1 DUP2 DUP2 MSTORE PUSH1 0x20 ADD DUP3 DUP1 SLOAD PUSH2 0x1CE7 SWAP1 PUSH2 0x2AFA JUMP JUMPDEST DUP1 ISZERO PUSH2 0x641 JUMPI DUP1 PUSH1 0x1F LT PUSH2 0x1D09 JUMPI PUSH2 0x100 DUP1 DUP4 SLOAD DIV MUL DUP4 MSTORE SWAP2 PUSH1 0x20 ADD SWAP2 PUSH2 0x641 JUMP JUMPDEST DUP3 ADD SWAP2 SWAP1 PUSH1 0x0 MSTORE PUSH1 0x20 PUSH1 0x0 KECCAK256 SWAP1 JUMPDEST DUP2 SLOAD DUP2 MSTORE SWAP1 PUSH1 0x1 ADD SWAP1 PUSH1 0x20 ADD DUP1 DUP4 GT PUSH2 0x1D17 JUMPI POP SWAP4 SWAP6 SWAP5 POP POP POP POP POP JUMP JUMPDEST DUP1 MLOAD PUSH1 0x0 SWAP1 DUP2 JUMPDEST DUP2 DUP2 LT ISZERO PUSH2 0x1DD7 JUMPI PUSH1 0x0 PUSH2 0x1D51 DUP3 PUSH1 0x1 PUSH2 0x2D6C JUMP JUMPDEST SWAP1 POP JUMPDEST DUP3 DUP2 LT ISZERO PUSH2 0x1DC4 JUMPI DUP5 DUP2 DUP2 MLOAD DUP2 LT PUSH2 0x1D6E JUMPI PUSH2 0x1D6E PUSH2 0x2B81 JUMP JUMPDEST PUSH1 0x20 MUL PUSH1 0x20 ADD ADD MLOAD PUSH1 0x1 PUSH1 0x1 PUSH1 0xA0 SHL SUB AND DUP6 DUP4 DUP2 MLOAD DUP2 LT PUSH2 0x1D91 JUMPI PUSH2 0x1D91 PUSH2 0x2B81 JUMP JUMPDEST PUSH1 0x20 MUL PUSH1 0x20 ADD ADD MLOAD PUSH1 0x1 PUSH1 0x1 PUSH1 0xA0 SHL SUB AND SUB PUSH2 0x1DB2 JUMPI POP PUSH1 0x0 SWAP5 SWAP4 POP POP POP POP JUMP JUMPDEST DUP1 PUSH2 0x1DBC DUP2 PUSH2 0x2BC6 JUMP JUMPDEST SWAP2 POP POP PUSH2 0x1D54 JUMP JUMPDEST POP DUP1 PUSH2 0x1DCF DUP2 PUSH2 0x2BC6 JUMP JUMPDEST SWAP2 POP POP PUSH2 0x1D3C JUMP JUMPDEST POP PUSH1 0x1 SWAP4 SWAP3 POP POP POP JUMP JUMPDEST PUSH1 0x3 SLOAD PUSH1 0x40 DUP1 MLOAD PUSH4 0x38CC4831 PUSH1 0xE0 SHL DUP2 MSTORE SWAP1 MLOAD PUSH1 0x0 SWAP3 PUSH1 0x1 PUSH1 0x1 PUSH1 0xA0 SHL SUB AND SWAP2 PUSH4 0x38CC4831 SWAP2 PUSH1 0x4 DUP1 DUP4 ADD SWAP3 PUSH1 0x20 SWAP3 SWAP2 SWAP1 DUP3 SWAP1 SUB ADD DUP2 DUP7 GAS STATICCALL ISZERO DUP1 ISZERO PUSH2 0x1E2B JUMPI RETURNDATASIZE PUSH1 0x0 DUP1 RETURNDATACOPY RETURNDATASIZE PUSH1 0x0 REVERT JUMPDEST POP POP POP POP PUSH1 0x40 MLOAD RETURNDATASIZE PUSH1 0x1F NOT PUSH1 0x1F DUP3 ADD AND DUP3 ADD DUP1 PUSH1 0x40 MSTORE POP DUP2 ADD SWAP1 PUSH2 0x1220 SWAP2 SWAP1 PUSH2 0x2D7F JUMP JUMPDEST PUSH1 0x11 SLOAD PUSH1 0x0 SWAP1 DUP2 JUMPDEST DUP2 DUP2 LT ISZERO PUSH2 0x1EAB JUMPI PUSH1 0x11 DUP1 SLOAD DUP3 SWAP1 DUP2 LT PUSH2 0x1E73 JUMPI PUSH2 0x1E73 PUSH2 0x2B81 JUMP JUMPDEST PUSH1 0x0 SWAP2 DUP3 MSTORE PUSH1 0x20 SWAP1 SWAP2 KECCAK256 ADD SLOAD PUSH1 0x1 PUSH1 0x1 PUSH1 0xA0 SHL SUB SWAP1 DUP2 AND SWAP1 DUP6 AND SUB PUSH2 0x1E99 JUMPI SWAP4 SWAP3 POP POP POP JUMP JUMPDEST DUP1 PUSH2 0x1EA3 DUP2 PUSH2 0x2BC6 JUMP JUMPDEST SWAP2 POP POP PUSH2 0x1E57 JUMP JUMPDEST POP PUSH1 0x40 MLOAD PUSH3 0x461BCD PUSH1 0xE5 SHL DUP2 MSTORE PUSH1 0x20 PUSH1 0x4 DUP3 ADD MSTORE PUSH1 0x31 PUSH1 0x24 DUP3 ADD MSTORE PUSH32 0x466972654C6F636B3A20596F7520617265206E6F7420612075736572206F6620 PUSH1 0x44 DUP3 ADD MSTORE PUSH17 0x74686973206C6F636B2061646472657373 PUSH1 0x78 SHL PUSH1 0x64 DUP3 ADD MSTORE PUSH1 0x84 ADD PUSH2 0x783 JUMP JUMPDEST PUSH1 0x0 DUP1 DUP1 JUMPDEST DUP4 MLOAD DUP2 LT ISZERO PUSH2 0x1F68 JUMPI DUP4 DUP2 DUP2 MLOAD DUP2 LT PUSH2 0x1F2E JUMPI PUSH2 0x1F2E PUSH2 0x2B81 JUMP JUMPDEST PUSH1 0x20 MUL PUSH1 0x20 ADD ADD MLOAD DUP3 PUSH2 0x1F41 SWAP2 SWAP1 PUSH2 0x2D6C JUMP JUMPDEST SWAP2 POP PUSH1 0x64 DUP3 GT ISZERO PUSH2 0x1F56 JUMPI POP PUSH1 0x0 SWAP4 SWAP3 POP POP POP JUMP JUMPDEST DUP1 PUSH2 0x1F60 DUP2 PUSH2 0x2BC6 JUMP JUMPDEST SWAP2 POP POP PUSH2 0x1F13 JUMP JUMPDEST POP PUSH1 0x64 EQ SWAP3 SWAP2 POP POP JUMP JUMPDEST PUSH1 0xB SLOAD CALLER SWAP1 PUSH1 0x1 PUSH1 0x1 PUSH1 0xA0 SHL SUB AND DUP1 PUSH2 0x1FCD JUMPI PUSH1 0x40 MLOAD PUSH3 0x461BCD PUSH1 0xE5 SHL DUP2 MSTORE PUSH1 0x20 PUSH1 0x4 DUP3 ADD MSTORE PUSH1 0x1F PUSH1 0x24 DUP3 ADD MSTORE PUSH32 0x466972654C6F636B3A204C6F636B2061646D696E206D75737420657869737400 PUSH1 0x44 DUP3 ADD MSTORE PUSH1 0x64 ADD PUSH2 0x783 JUMP JUMPDEST DUP2 PUSH1 0x1 PUSH1 0x1 PUSH1 0xA0 SHL SUB AND DUP2 PUSH1 0x1 PUSH1 0x1 PUSH1 0xA0 SHL SUB AND EQ PUSH2 0x202E JUMPI PUSH1 0x40 MLOAD PUSH3 0x461BCD PUSH1 0xE5 SHL DUP2 MSTORE PUSH1 0x20 PUSH1 0x4 DUP3 ADD MSTORE PUSH1 0x1E PUSH1 0x24 DUP3 ADD MSTORE PUSH32 0x466972654C6F636B3A2053656E646572206D7573742062652061646D696E0000 PUSH1 0x44 DUP3 ADD MSTORE PUSH1 0x64 ADD PUSH2 0x783 JUMP JUMPDEST PUSH1 0x1 PUSH1 0x1 PUSH1 0xA0 SHL SUB DUP4 AND PUSH2 0x2096 JUMPI PUSH1 0x40 MLOAD PUSH3 0x461BCD PUSH1 0xE5 SHL DUP2 MSTORE PUSH1 0x20 PUSH1 0x4 DUP3 ADD MSTORE PUSH1 0x29 PUSH1 0x24 DUP3 ADD MSTORE PUSH32 0x466972654C6F636B3A207472616E73666572206164647265737320646F657320 PUSH1 0x44 DUP3 ADD MSTORE PUSH9 0x1B9BDD08195E1A5CDD PUSH1 0xBA SHL PUSH1 0x64 DUP3 ADD MSTORE PUSH1 0x84 ADD PUSH2 0x783 JUMP JUMPDEST PUSH1 0xB DUP1 SLOAD PUSH1 0x1 PUSH1 0x1 PUSH1 0xA0 SHL SUB NOT AND PUSH1 0x1 PUSH1 0x1 PUSH1 0xA0 SHL SUB DUP6 DUP2 AND SWAP2 DUP3 OR SWAP1 SWAP3 SSTORE PUSH1 0x1 SLOAD PUSH1 0x40 MLOAD PUSH4 0x751971B7 PUSH1 0xE1 SHL DUP2 MSTORE ADDRESS PUSH1 0x4 DUP3 ADD MSTORE PUSH1 0x24 DUP2 ADD SWAP3 SWAP1 SWAP3 MSTORE SWAP1 SWAP2 AND SWAP1 PUSH4 0xEA32E36E SWAP1 PUSH1 0x44 ADD PUSH1 0x0 PUSH1 0x40 MLOAD DUP1 DUP4 SUB DUP2 PUSH1 0x0 DUP8 DUP1 EXTCODESIZE ISZERO DUP1 ISZERO PUSH2 0x20FA JUMPI PUSH1 0x0 DUP1 REVERT JUMPDEST POP GAS CALL ISZERO DUP1 ISZERO PUSH2 0x210E JUMPI RETURNDATASIZE PUSH1 0x0 DUP1 RETURNDATACOPY RETURNDATASIZE PUSH1 0x0 REVERT JUMPDEST POP POP POP POP POP POP POP JUMP JUMPDEST PUSH1 0x0 DUP1 JUMPDEST PUSH1 0x11 SLOAD DUP2 LT ISZERO PUSH2 0x2173 JUMPI PUSH1 0x11 DUP1 SLOAD DUP3 SWAP1 DUP2 LT PUSH2 0x2139 JUMPI PUSH2 0x2139 PUSH2 0x2B81 JUMP JUMPDEST PUSH1 0x0 SWAP2 DUP3 MSTORE PUSH1 0x20 SWAP1 SWAP2 KECCAK256 ADD SLOAD PUSH1 0x1 PUSH1 0x1 PUSH1 0xA0 SHL SUB SWAP1 DUP2 AND SWAP1 DUP5 AND SUB PUSH2 0x2161 JUMPI POP PUSH1 0x0 SWAP3 SWAP2 POP POP JUMP JUMPDEST DUP1 PUSH2 0x216B DUP2 PUSH2 0x2BC6 JUMP JUMPDEST SWAP2 POP POP PUSH2 0x211B JUMP JUMPDEST POP PUSH1 0x1 SWAP3 SWAP2 POP POP JUMP JUMPDEST PUSH1 0x0 PUSH2 0x2188 DUP3 DUP5 PUSH2 0x2D9C JUMP JUMPDEST SWAP1 POP JUMPDEST SWAP3 SWAP2 POP POP JUMP JUMPDEST PUSH1 0x0 PUSH2 0x2188 DUP3 DUP5 PUSH2 0x2DAF JUMP JUMPDEST PUSH1 0x0 PUSH2 0x2188 DUP3 DUP5 PUSH2 0x2DC6 JUMP JUMPDEST PUSH1 0x0 PUSH2 0x2188 DUP3 DUP5 PUSH2 0x2D6C JUMP JUMPDEST PUSH1 0x40 DUP1 MLOAD PUSH1 0x1 PUSH1 0x1 PUSH1 0xA0 SHL SUB DUP5 AND PUSH1 0x24 DUP3 ADD MSTORE PUSH1 0x44 DUP1 DUP3 ADD DUP5 SWAP1 MSTORE DUP3 MLOAD DUP1 DUP4 SUB SWAP1 SWAP2 ADD DUP2 MSTORE PUSH1 0x64 SWAP1 SWAP2 ADD SWAP1 SWAP2 MSTORE PUSH1 0x20 DUP2 ADD DUP1 MLOAD PUSH1 0x1 PUSH1 0x1 PUSH1 0xE0 SHL SUB AND PUSH4 0xA9059CBB PUSH1 0xE0 SHL OR SWAP1 MSTORE PUSH2 0x2207 SWAP1 DUP5 SWAP1 PUSH2 0x2397 JUMP JUMPDEST POP POP POP JUMP JUMPDEST PUSH1 0x40 DUP1 MLOAD PUSH1 0x1 PUSH1 0x1 PUSH1 0xA0 SHL SUB DUP6 DUP2 AND PUSH1 0x24 DUP4 ADD MSTORE DUP5 DUP2 AND PUSH1 0x44 DUP4 ADD MSTORE PUSH1 0x64 DUP1 DUP4 ADD DUP6 SWAP1 MSTORE DUP4 MLOAD DUP1 DUP5 SUB SWAP1 SWAP2 ADD DUP2 MSTORE PUSH1 0x84 SWAP1 SWAP3 ADD DUP4 MSTORE PUSH1 0x20 DUP3 ADD DUP1 MLOAD PUSH1 0x1 PUSH1 0x1 PUSH1 0xE0 SHL SUB AND PUSH4 0x23B872DD PUSH1 0xE0 SHL OR SWAP1 MSTORE SWAP2 MLOAD PUSH1 0x0 SWAP3 DUP4 SWAP3 SWAP1 DUP9 AND SWAP2 PUSH2 0x2270 SWAP2 SWAP1 PUSH2 0x2DE8 JUMP JUMPDEST PUSH1 0x0 PUSH1 0x40 MLOAD DUP1 DUP4 SUB DUP2 PUSH1 0x0 DUP7 GAS CALL SWAP2 POP POP RETURNDATASIZE DUP1 PUSH1 0x0 DUP2 EQ PUSH2 0x22AD JUMPI PUSH1 0x40 MLOAD SWAP2 POP PUSH1 0x1F NOT PUSH1 0x3F RETURNDATASIZE ADD AND DUP3 ADD PUSH1 0x40 MSTORE RETURNDATASIZE DUP3 MSTORE RETURNDATASIZE PUSH1 0x0 PUSH1 0x20 DUP5 ADD RETURNDATACOPY PUSH2 0x22B2 JUMP JUMPDEST PUSH1 0x60 SWAP2 POP JUMPDEST POP SWAP2 POP SWAP2 POP DUP2 DUP1 ISZERO PUSH2 0x22DC JUMPI POP DUP1 MLOAD ISZERO DUP1 PUSH2 0x22DC JUMPI POP DUP1 DUP1 PUSH1 0x20 ADD SWAP1 MLOAD DUP2 ADD SWAP1 PUSH2 0x22DC SWAP2 SWAP1 PUSH2 0x2BDF JUMP JUMPDEST PUSH2 0x2334 JUMPI PUSH1 0x40 MLOAD PUSH3 0x461BCD PUSH1 0xE5 SHL DUP2 MSTORE PUSH1 0x20 PUSH1 0x4 DUP3 ADD MSTORE PUSH1 0x24 DUP1 DUP3 ADD MSTORE PUSH32 0x5472616E7366657248656C7065723A205452414E534645525F46524F4D5F4641 PUSH1 0x44 DUP3 ADD MSTORE PUSH4 0x12531151 PUSH1 0xE2 SHL PUSH1 0x64 DUP3 ADD MSTORE PUSH1 0x84 ADD PUSH2 0x783 JUMP JUMPDEST POP POP POP POP POP POP JUMP JUMPDEST PUSH1 0x0 DUP1 JUMPDEST PUSH1 0xF SLOAD DUP2 LT ISZERO PUSH2 0x2391 JUMPI PUSH2 0x237D PUSH1 0x8 PUSH1 0x7 ADD DUP3 DUP2 SLOAD DUP2 LT PUSH2 0x2363 JUMPI PUSH2 0x2363 PUSH2 0x2B81 JUMP JUMPDEST SWAP1 PUSH1 0x0 MSTORE PUSH1 0x20 PUSH1 0x0 KECCAK256 ADD SLOAD DUP4 PUSH2 0x21A9 SWAP1 SWAP2 SWAP1 PUSH4 0xFFFFFFFF AND JUMP JUMPDEST SWAP2 POP DUP1 PUSH2 0x2389 DUP2 PUSH2 0x2BC6 JUMP JUMPDEST SWAP2 POP POP PUSH2 0x2340 JUMP JUMPDEST POP PUSH1 0x7 SSTORE JUMP JUMPDEST PUSH1 0x0 PUSH2 0x23EC DUP3 PUSH1 0x40 MLOAD DUP1 PUSH1 0x40 ADD PUSH1 0x40 MSTORE DUP1 PUSH1 0x20 DUP2 MSTORE PUSH1 0x20 ADD PUSH32 0x5361666545524332303A206C6F772D6C6576656C2063616C6C206661696C6564 DUP2 MSTORE POP DUP6 PUSH1 0x1 PUSH1 0x1 PUSH1 0xA0 SHL SUB AND PUSH2 0x2469 SWAP1 SWAP3 SWAP2 SWAP1 PUSH4 0xFFFFFFFF AND JUMP JUMPDEST DUP1 MLOAD SWAP1 SWAP2 POP ISZERO PUSH2 0x2207 JUMPI DUP1 DUP1 PUSH1 0x20 ADD SWAP1 MLOAD DUP2 ADD SWAP1 PUSH2 0x240A SWAP2 SWAP1 PUSH2 0x2BDF JUMP JUMPDEST PUSH2 0x2207 JUMPI PUSH1 0x40 MLOAD PUSH3 0x461BCD PUSH1 0xE5 SHL DUP2 MSTORE PUSH1 0x20 PUSH1 0x4 DUP3 ADD MSTORE PUSH1 0x2A PUSH1 0x24 DUP3 ADD MSTORE PUSH32 0x5361666545524332303A204552433230206F7065726174696F6E20646964206E PUSH1 0x44 DUP3 ADD MSTORE PUSH10 0x1BDD081CDD58D8D95959 PUSH1 0xB2 SHL PUSH1 0x64 DUP3 ADD MSTORE PUSH1 0x84 ADD PUSH2 0x783 JUMP JUMPDEST PUSH1 0x60 PUSH2 0x114E DUP5 DUP5 PUSH1 0x0 DUP6 DUP6 PUSH1 0x0 DUP1 DUP7 PUSH1 0x1 PUSH1 0x1 PUSH1 0xA0 SHL SUB AND DUP6 DUP8 PUSH1 0x40 MLOAD PUSH2 0x2490 SWAP2 SWAP1 PUSH2 0x2DE8 JUMP JUMPDEST PUSH1 0x0 PUSH1 0x40 MLOAD DUP1 DUP4 SUB DUP2 DUP6 DUP8 GAS CALL SWAP3 POP POP POP RETURNDATASIZE DUP1 PUSH1 0x0 DUP2 EQ PUSH2 0x24CD JUMPI PUSH1 0x40 MLOAD SWAP2 POP PUSH1 0x1F NOT PUSH1 0x3F RETURNDATASIZE ADD AND DUP3 ADD PUSH1 0x40 MSTORE RETURNDATASIZE DUP3 MSTORE RETURNDATASIZE PUSH1 0x0 PUSH1 0x20 DUP5 ADD RETURNDATACOPY PUSH2 0x24D2 JUMP JUMPDEST PUSH1 0x60 SWAP2 POP JUMPDEST POP SWAP2 POP SWAP2 POP PUSH2 0x24E3 DUP8 DUP4 DUP4 DUP8 PUSH2 0x24F0 JUMP JUMPDEST SWAP3 POP POP POP JUMPDEST SWAP5 SWAP4 POP POP POP POP JUMP JUMPDEST PUSH1 0x60 DUP4 ISZERO PUSH2 0x255F JUMPI DUP3 MLOAD PUSH1 0x0 SUB PUSH2 0x2558 JUMPI PUSH1 0x1 PUSH1 0x1 PUSH1 0xA0 SHL SUB DUP6 AND EXTCODESIZE PUSH2 0x2558 JUMPI PUSH1 0x40 MLOAD PUSH3 0x461BCD PUSH1 0xE5 SHL DUP2 MSTORE PUSH1 0x20 PUSH1 0x4 DUP3 ADD MSTORE PUSH1 0x1D PUSH1 0x24 DUP3 ADD MSTORE PUSH32 0x416464726573733A2063616C6C20746F206E6F6E2D636F6E7472616374000000 PUSH1 0x44 DUP3 ADD MSTORE PUSH1 0x64 ADD PUSH2 0x783 JUMP JUMPDEST POP DUP2 PUSH2 0x24E8 JUMP JUMPDEST PUSH2 0x24E8 DUP4 DUP4 DUP2 MLOAD ISZERO PUSH2 0x2574 JUMPI DUP2 MLOAD DUP1 DUP4 PUSH1 0x20 ADD REVERT JUMPDEST DUP1 PUSH1 0x40 MLOAD PUSH3 0x461BCD PUSH1 0xE5 SHL DUP2 MSTORE PUSH1 0x4 ADD PUSH2 0x783 SWAP2 SWAP1 PUSH2 0x2A95 JUMP JUMPDEST DUP3 DUP1 SLOAD DUP3 DUP3 SSTORE SWAP1 PUSH1 0x0 MSTORE PUSH1 0x20 PUSH1 0x0 KECCAK256 SWAP1 DUP2 ADD SWAP3 DUP3 ISZERO PUSH2 0x25C9 JUMPI SWAP2 PUSH1 0x20 MUL DUP3 ADD JUMPDEST DUP3 DUP2 GT ISZERO PUSH2 0x25C9 JUMPI DUP3 MLOAD DUP3 SSTORE SWAP2 PUSH1 0x20 ADD SWAP2 SWAP1 PUSH1 0x1 ADD SWAP1 PUSH2 0x25AE JUMP JUMPDEST POP PUSH2 0x25D5 SWAP3 SWAP2 POP PUSH2 0x262E JUMP JUMPDEST POP SWAP1 JUMP JUMPDEST DUP3 DUP1 SLOAD DUP3 DUP3 SSTORE SWAP1 PUSH1 0x0 MSTORE PUSH1 0x20 PUSH1 0x0 KECCAK256 SWAP1 DUP2 ADD SWAP3 DUP3 ISZERO PUSH2 0x25C9 JUMPI SWAP2 PUSH1 0x20 MUL DUP3 ADD JUMPDEST DUP3 DUP2 GT ISZERO PUSH2 0x25C9 JUMPI DUP3 MLOAD DUP3 SLOAD PUSH1 0x1 PUSH1 0x1 PUSH1 0xA0 SHL SUB NOT AND PUSH1 0x1 PUSH1 0x1 PUSH1 0xA0 SHL SUB SWAP1 SWAP2 AND OR DUP3 SSTORE PUSH1 0x20 SWAP1 SWAP3 ADD SWAP2 PUSH1 0x1 SWAP1 SWAP2 ADD SWAP1 PUSH2 0x25F9 JUMP JUMPDEST JUMPDEST DUP1 DUP3 GT ISZERO PUSH2 0x25D5 JUMPI PUSH1 0x0 DUP2 SSTORE PUSH1 0x1 ADD PUSH2 0x262F JUMP JUMPDEST PUSH1 0x20 DUP1 DUP3 MSTORE DUP3 MLOAD DUP3 DUP3 ADD DUP2 SWAP1 MSTORE PUSH1 0x0 SWAP2 SWAP1 DUP5 DUP3 ADD SWAP1 PUSH1 0x40 DUP6 ADD SWAP1 DUP5 JUMPDEST DUP2 DUP2 LT ISZERO PUSH2 0x2684 JUMPI DUP4 MLOAD PUSH1 0x1 PUSH1 0x1 PUSH1 0xA0 SHL SUB AND DUP4 MSTORE SWAP3 DUP5 ADD SWAP3 SWAP2 DUP5 ADD SWAP2 PUSH1 0x1 ADD PUSH2 0x265F JUMP JUMPDEST POP SWAP1 SWAP7 SWAP6 POP POP POP POP POP POP JUMP JUMPDEST PUSH1 0x0 JUMPDEST DUP4 DUP2 LT ISZERO PUSH2 0x26AB JUMPI DUP2 DUP2 ADD MLOAD DUP4 DUP3 ADD MSTORE PUSH1 0x20 ADD PUSH2 0x2693 JUMP JUMPDEST POP POP PUSH1 0x0 SWAP2 ADD MSTORE JUMP JUMPDEST PUSH1 0x0 DUP2 MLOAD DUP1 DUP5 MSTORE PUSH2 0x26CC DUP2 PUSH1 0x20 DUP7 ADD PUSH1 0x20 DUP7 ADD PUSH2 0x2690 JUMP JUMPDEST PUSH1 0x1F ADD PUSH1 0x1F NOT AND SWAP3 SWAP1 SWAP3 ADD PUSH1 0x20 ADD SWAP3 SWAP2 POP POP JUMP JUMPDEST PUSH1 0x0 PUSH2 0x120 DUP1 DUP4 MSTORE PUSH2 0x26F4 DUP2 DUP5 ADD DUP14 PUSH2 0x26B4 JUMP JUMPDEST PUSH1 0x20 DUP5 ADD SWAP12 SWAP1 SWAP12 MSTORE POP POP PUSH1 0x40 DUP2 ADD SWAP8 SWAP1 SWAP8 MSTORE PUSH1 0x1 PUSH1 0x1 PUSH1 0xA0 SHL SUB SWAP6 DUP7 AND PUSH1 0x60 DUP9 ADD MSTORE PUSH1 0x80 DUP8 ADD SWAP5 SWAP1 SWAP5 MSTORE PUSH1 0xA0 DUP7 ADD SWAP3 SWAP1 SWAP3 MSTORE PUSH1 0xC0 DUP6 ADD MSTORE SWAP1 SWAP2 AND PUSH1 0xE0 DUP4 ADD MSTORE PUSH2 0x100 SWAP1 SWAP2 ADD MSTORE SWAP2 SWAP1 POP JUMP JUMPDEST PUSH1 0x0 PUSH1 0x20 DUP3 DUP5 SUB SLT ISZERO PUSH2 0x2751 JUMPI PUSH1 0x0 DUP1 REVERT JUMPDEST POP CALLDATALOAD SWAP2 SWAP1 POP JUMP JUMPDEST PUSH1 0x1 PUSH1 0x1 PUSH1 0xA0 SHL SUB DUP2 AND DUP2 EQ PUSH2 0x1CA6 JUMPI PUSH1 0x0 DUP1 REVERT JUMPDEST DUP1 CALLDATALOAD PUSH2 0x2778 DUP2 PUSH2 0x2758 JUMP JUMPDEST SWAP2 SWAP1 POP JUMP JUMPDEST PUSH1 0x0 DUP1 PUSH1 0x40 DUP4 DUP6 SUB SLT ISZERO PUSH2 0x2790 JUMPI PUSH1 0x0 DUP1 REVERT JUMPDEST DUP3 CALLDATALOAD SWAP2 POP PUSH1 0x20 DUP4 ADD CALLDATALOAD PUSH2 0x27A2 DUP2 PUSH2 0x2758 JUMP JUMPDEST DUP1 SWAP2 POP POP SWAP3 POP SWAP3 SWAP1 POP JUMP JUMPDEST PUSH1 0x20 DUP1 DUP3 MSTORE DUP3 MLOAD DUP3 DUP3 ADD DUP2 SWAP1 MSTORE PUSH1 0x0 SWAP2 SWAP1 DUP5 DUP3 ADD SWAP1 PUSH1 0x40 DUP6 ADD SWAP1 DUP5 JUMPDEST DUP2 DUP2 LT ISZERO PUSH2 0x2684 JUMPI DUP4 MLOAD DUP4 MSTORE SWAP3 DUP5 ADD SWAP3 SWAP2 DUP5 ADD SWAP2 PUSH1 0x1 ADD PUSH2 0x27C9 JUMP JUMPDEST PUSH4 0x4E487B71 PUSH1 0xE0 SHL PUSH1 0x0 MSTORE PUSH1 0x41 PUSH1 0x4 MSTORE PUSH1 0x24 PUSH1 0x0 REVERT JUMPDEST PUSH1 0x40 MLOAD PUSH1 0x1F DUP3 ADD PUSH1 0x1F NOT AND DUP2 ADD PUSH8 0xFFFFFFFFFFFFFFFF DUP2 GT DUP3 DUP3 LT OR ISZERO PUSH2 0x2824 JUMPI PUSH2 0x2824 PUSH2 0x27E5 JUMP JUMPDEST PUSH1 0x40 MSTORE SWAP2 SWAP1 POP JUMP JUMPDEST PUSH1 0x0 PUSH8 0xFFFFFFFFFFFFFFFF DUP3 GT ISZERO PUSH2 0x2846 JUMPI PUSH2 0x2846 PUSH2 0x27E5 JUMP JUMPDEST POP PUSH1 0x5 SHL PUSH1 0x20 ADD SWAP1 JUMP JUMPDEST PUSH1 0x0 DUP3 PUSH1 0x1F DUP4 ADD SLT PUSH2 0x2861 JUMPI PUSH1 0x0 DUP1 REVERT JUMPDEST DUP2 CALLDATALOAD PUSH1 0x20 PUSH2 0x2876 PUSH2 0x2871 DUP4 PUSH2 0x282C JUMP JUMPDEST PUSH2 0x27FB JUMP JUMPDEST DUP3 DUP2 MSTORE PUSH1 0x5 SWAP3 SWAP1 SWAP3 SHL DUP5 ADD DUP2 ADD SWAP2 DUP2 DUP2 ADD SWAP1 DUP7 DUP5 GT ISZERO PUSH2 0x2895 JUMPI PUSH1 0x0 DUP1 REVERT JUMPDEST DUP3 DUP7 ADD JUMPDEST DUP5 DUP2 LT ISZERO PUSH2 0x28B9 JUMPI DUP1 CALLDATALOAD PUSH2 0x28AC DUP2 PUSH2 0x2758 JUMP JUMPDEST DUP4 MSTORE SWAP2 DUP4 ADD SWAP2 DUP4 ADD PUSH2 0x2899 JUMP JUMPDEST POP SWAP7 SWAP6 POP POP POP POP POP POP JUMP JUMPDEST PUSH1 0x0 DUP3 PUSH1 0x1F DUP4 ADD SLT PUSH2 0x28D5 JUMPI PUSH1 0x0 DUP1 REVERT JUMPDEST DUP2 CALLDATALOAD PUSH1 0x20 PUSH2 0x28E5 PUSH2 0x2871 DUP4 PUSH2 0x282C JUMP JUMPDEST DUP3 DUP2 MSTORE PUSH1 0x5 SWAP3 SWAP1 SWAP3 SHL DUP5 ADD DUP2 ADD SWAP2 DUP2 DUP2 ADD SWAP1 DUP7 DUP5 GT ISZERO PUSH2 0x2904 JUMPI PUSH1 0x0 DUP1 REVERT JUMPDEST DUP3 DUP7 ADD JUMPDEST DUP5 DUP2 LT ISZERO PUSH2 0x28B9 JUMPI DUP1 CALLDATALOAD DUP4 MSTORE SWAP2 DUP4 ADD SWAP2 DUP4 ADD PUSH2 0x2908 JUMP JUMPDEST PUSH1 0x0 DUP3 PUSH1 0x1F DUP4 ADD SLT PUSH2 0x2930 JUMPI PUSH1 0x0 DUP1 REVERT JUMPDEST DUP2 CALLDATALOAD PUSH8 0xFFFFFFFFFFFFFFFF DUP2 GT ISZERO PUSH2 0x294A JUMPI PUSH2 0x294A PUSH2 0x27E5 JUMP JUMPDEST PUSH2 0x295D PUSH1 0x1F DUP3 ADD PUSH1 0x1F NOT AND PUSH1 0x20 ADD PUSH2 0x27FB JUMP JUMPDEST DUP2 DUP2 MSTORE DUP5 PUSH1 0x20 DUP4 DUP7 ADD ADD GT ISZERO PUSH2 0x2972 JUMPI PUSH1 0x0 DUP1 REVERT JUMPDEST DUP2 PUSH1 0x20 DUP6 ADD PUSH1 0x20 DUP4 ADD CALLDATACOPY PUSH1 0x0 SWAP2 DUP2 ADD PUSH1 0x20 ADD SWAP2 SWAP1 SWAP2 MSTORE SWAP4 SWAP3 POP POP POP JUMP JUMPDEST PUSH1 0x0 DUP1 PUSH1 0x0 DUP1 PUSH1 0x0 DUP1 PUSH1 0x0 DUP1 PUSH1 0x0 PUSH2 0x120 DUP11 DUP13 SUB SLT ISZERO PUSH2 0x29AE JUMPI PUSH1 0x0 DUP1 REVERT JUMPDEST PUSH2 0x29B7 DUP11 PUSH2 0x276D JUMP JUMPDEST SWAP9 POP PUSH2 0x29C5 PUSH1 0x20 DUP12 ADD PUSH2 0x276D JUMP JUMPDEST SWAP8 POP PUSH1 0x40 DUP11 ADD CALLDATALOAD SWAP7 POP PUSH1 0x60 DUP11 ADD CALLDATALOAD SWAP6 POP PUSH1 0x80 DUP11 ADD CALLDATALOAD SWAP5 POP PUSH1 0xA0 DUP11 ADD CALLDATALOAD PUSH8 0xFFFFFFFFFFFFFFFF DUP1 DUP3 GT ISZERO PUSH2 0x29F7 JUMPI PUSH1 0x0 DUP1 REVERT JUMPDEST PUSH2 0x2A03 DUP14 DUP4 DUP15 ADD PUSH2 0x2850 JUMP JUMPDEST SWAP6 POP PUSH1 0xC0 DUP13 ADD CALLDATALOAD SWAP2 POP DUP1 DUP3 GT ISZERO PUSH2 0x2A19 JUMPI PUSH1 0x0 DUP1 REVERT JUMPDEST PUSH2 0x2A25 DUP14 DUP4 DUP15 ADD PUSH2 0x28C4 JUMP JUMPDEST SWAP5 POP PUSH1 0xE0 DUP13 ADD CALLDATALOAD SWAP2 POP DUP1 DUP3 GT ISZERO PUSH2 0x2A3B JUMPI PUSH1 0x0 DUP1 REVERT JUMPDEST POP PUSH2 0x2A48 DUP13 DUP3 DUP14 ADD PUSH2 0x291F JUMP JUMPDEST SWAP3 POP POP PUSH2 0x100 DUP11 ADD CALLDATALOAD SWAP1 POP SWAP3 SWAP6 SWAP9 POP SWAP3 SWAP6 SWAP9 POP SWAP3 SWAP6 SWAP9 JUMP JUMPDEST PUSH1 0x0 PUSH1 0x20 DUP3 DUP5 SUB SLT ISZERO PUSH2 0x2A72 JUMPI PUSH1 0x0 DUP1 REVERT JUMPDEST DUP2 CALLDATALOAD PUSH8 0xFFFFFFFFFFFFFFFF DUP2 GT ISZERO PUSH2 0x2A89 JUMPI PUSH1 0x0 DUP1 REVERT JUMPDEST PUSH2 0x24E8 DUP5 DUP3 DUP6 ADD PUSH2 0x28C4 JUMP JUMPDEST PUSH1 0x20 DUP2 MSTORE PUSH1 0x0 PUSH2 0x2188 PUSH1 0x20 DUP4 ADD DUP5 PUSH2 0x26B4 JUMP JUMPDEST PUSH1 0x0 PUSH1 0x20 DUP3 DUP5 SUB SLT ISZERO PUSH2 0x2ABA JUMPI PUSH1 0x0 DUP1 REVERT JUMPDEST DUP2 CALLDATALOAD PUSH8 0xFFFFFFFFFFFFFFFF DUP2 GT ISZERO PUSH2 0x2AD1 JUMPI PUSH1 0x0 DUP1 REVERT JUMPDEST PUSH2 0x24E8 DUP5 DUP3 DUP6 ADD PUSH2 0x2850 JUMP JUMPDEST PUSH1 0x0 PUSH1 0x20 DUP3 DUP5 SUB SLT ISZERO PUSH2 0x2AEF JUMPI PUSH1 0x0 DUP1 REVERT JUMPDEST DUP2 CALLDATALOAD PUSH2 0x1151 DUP2 PUSH2 0x2758 JUMP JUMPDEST PUSH1 0x1 DUP2 DUP2 SHR SWAP1 DUP3 AND DUP1 PUSH2 0x2B0E JUMPI PUSH1 0x7F DUP3 AND SWAP2 POP JUMPDEST PUSH1 0x20 DUP3 LT DUP2 SUB PUSH2 0x2B2E JUMPI PUSH4 0x4E487B71 PUSH1 0xE0 SHL PUSH1 0x0 MSTORE PUSH1 0x22 PUSH1 0x4 MSTORE PUSH1 0x24 PUSH1 0x0 REVERT JUMPDEST POP SWAP2 SWAP1 POP JUMP JUMPDEST PUSH1 0x20 DUP1 DUP3 MSTORE PUSH1 0x2D SWAP1 DUP3 ADD MSTORE PUSH32 0x466972654C6F636B3A2054686520636F6E74726163742068617320616C726561 PUSH1 0x40 DUP3 ADD MSTORE PUSH13 0x191E481D195C9B5A5B985D1959 PUSH1 0x9A SHL PUSH1 0x60 DUP3 ADD MSTORE PUSH1 0x80 ADD SWAP1 JUMP JUMPDEST PUSH4 0x4E487B71 PUSH1 0xE0 SHL PUSH1 0x0 MSTORE PUSH1 0x32 PUSH1 0x4 MSTORE PUSH1 0x24 PUSH1 0x0 REVERT JUMPDEST PUSH1 0x0 PUSH1 0x20 DUP3 DUP5 SUB SLT ISZERO PUSH2 0x2BA9 JUMPI PUSH1 0x0 DUP1 REVERT JUMPDEST POP MLOAD SWAP2 SWAP1 POP JUMP JUMPDEST PUSH4 0x4E487B71 PUSH1 0xE0 SHL PUSH1 0x0 MSTORE PUSH1 0x11 PUSH1 0x4 MSTORE PUSH1 0x24 PUSH1 0x0 REVERT JUMPDEST PUSH1 0x0 PUSH1 0x1 DUP3 ADD PUSH2 0x2BD8 JUMPI PUSH2 0x2BD8 PUSH2 0x2BB0 JUMP JUMPDEST POP PUSH1 0x1 ADD SWAP1 JUMP JUMPDEST PUSH1 0x0 PUSH1 0x20 DUP3 DUP5 SUB SLT ISZERO PUSH2 0x2BF1 JUMPI PUSH1 0x0 DUP1 REVERT JUMPDEST DUP2 MLOAD DUP1 ISZERO ISZERO DUP2 EQ PUSH2 0x1151 JUMPI PUSH1 0x0 DUP1 REVERT JUMPDEST PUSH1 0x1F DUP3 GT ISZERO PUSH2 0x2207 JUMPI PUSH1 0x0 DUP2 DUP2 MSTORE PUSH1 0x20 DUP2 KECCAK256 PUSH1 0x1F DUP6 ADD PUSH1 0x5 SHR DUP2 ADD PUSH1 0x20 DUP7 LT ISZERO PUSH2 0x2C28 JUMPI POP DUP1 JUMPDEST PUSH1 0x1F DUP6 ADD PUSH1 0x5 SHR DUP3 ADD SWAP2 POP JUMPDEST DUP2 DUP2 LT ISZERO PUSH2 0x2334 JUMPI DUP3 DUP2 SSTORE PUSH1 0x1 ADD PUSH2 0x2C34 JUMP JUMPDEST DUP2 MLOAD PUSH8 0xFFFFFFFFFFFFFFFF DUP2 GT ISZERO PUSH2 0x2C61 JUMPI PUSH2 0x2C61 PUSH2 0x27E5 JUMP JUMPDEST PUSH2 0x2C75 DUP2 PUSH2 0x2C6F DUP5 SLOAD PUSH2 0x2AFA JUMP JUMPDEST DUP5 PUSH2 0x2C01 JUMP JUMPDEST PUSH1 0x20 DUP1 PUSH1 0x1F DUP4 GT PUSH1 0x1 DUP2 EQ PUSH2 0x2CAA JUMPI PUSH1 0x0 DUP5 ISZERO PUSH2 0x2C92 JUMPI POP DUP6 DUP4 ADD MLOAD JUMPDEST PUSH1 0x0 NOT PUSH1 0x3 DUP7 SWAP1 SHL SHR NOT AND PUSH1 0x1 DUP6 SWAP1 SHL OR DUP6 SSTORE PUSH2 0x2334 JUMP JUMPDEST PUSH1 0x0 DUP6 DUP2 MSTORE PUSH1 0x20 DUP2 KECCAK256 PUSH1 0x1F NOT DUP7 AND SWAP2 JUMPDEST DUP3 DUP2 LT ISZERO PUSH2 0x2CD9 JUMPI DUP9 DUP7 ADD MLOAD DUP3 SSTORE SWAP5 DUP5 ADD SWAP5 PUSH1 0x1 SWAP1 SWAP2 ADD SWAP1 DUP5 ADD PUSH2 0x2CBA JUMP JUMPDEST POP DUP6 DUP3 LT ISZERO PUSH2 0x2CF7 JUMPI DUP8 DUP6 ADD MLOAD PUSH1 0x0 NOT PUSH1 0x3 DUP9 SWAP1 SHL PUSH1 0xF8 AND SHR NOT AND DUP2 SSTORE JUMPDEST POP POP POP POP POP PUSH1 0x1 SWAP1 DUP2 SHL ADD SWAP1 SSTORE POP JUMP JUMPDEST PUSH1 0x1 PUSH1 0x1 PUSH1 0xA0 SHL SUB DUP11 DUP2 AND DUP3 MSTORE PUSH2 0x120 PUSH1 0x20 DUP4 ADD DUP2 SWAP1 MSTORE PUSH1 0x0 SWAP2 PUSH2 0x2D2D DUP5 DUP4 ADD DUP14 PUSH2 0x26B4 JUMP JUMPDEST SWAP3 POP DUP11 PUSH1 0x40 DUP6 ADD MSTORE DUP10 PUSH1 0x60 DUP6 ADD MSTORE DUP9 PUSH1 0x80 DUP6 ADD MSTORE DUP8 PUSH1 0xA0 DUP6 ADD MSTORE DUP7 PUSH1 0xC0 DUP6 ADD MSTORE DUP6 PUSH1 0xE0 DUP6 ADD MSTORE DUP1 DUP6 AND PUSH2 0x100 DUP6 ADD MSTORE POP POP SWAP11 SWAP10 POP POP POP POP POP POP POP POP POP POP JUMP JUMPDEST DUP1 DUP3 ADD DUP1 DUP3 GT ISZERO PUSH2 0x218B JUMPI PUSH2 0x218B PUSH2 0x2BB0 JUMP JUMPDEST PUSH1 0x0 PUSH1 0x20 DUP3 DUP5 SUB SLT ISZERO PUSH2 0x2D91 JUMPI PUSH1 0x0 DUP1 REVERT JUMPDEST DUP2 MLOAD PUSH2 0x1151 DUP2 PUSH2 0x2758 JUMP JUMPDEST DUP2 DUP2 SUB DUP2 DUP2 GT ISZERO PUSH2 0x218B JUMPI PUSH2 0x218B PUSH2 0x2BB0 JUMP JUMPDEST DUP1 DUP3 MUL DUP2 ISZERO DUP3 DUP3 DIV DUP5 EQ OR PUSH2 0x218B JUMPI PUSH2 0x218B PUSH2 0x2BB0 JUMP JUMPDEST PUSH1 0x0 DUP3 PUSH2 0x2DE3 JUMPI PUSH4 0x4E487B71 PUSH1 0xE0 SHL PUSH1 0x0 MSTORE PUSH1 0x12 PUSH1 0x4 MSTORE PUSH1 0x24 PUSH1 0x0 REVERT JUMPDEST POP DIV SWAP1 JUMP JUMPDEST PUSH1 0x0 DUP3 MLOAD PUSH2 0x2DFA DUP2 DUP5 PUSH1 0x20 DUP8 ADD PUSH2 0x2690 JUMP JUMPDEST SWAP2 SWAP1 SWAP2 ADD SWAP3 SWAP2 POP POP JUMP INVALID LOG2 PUSH5 0x6970667358 0x22 SLT KECCAK256 STATICCALL MOD SWAP14 0xDC ISZERO SDIV 0xE5 0xA6 0xCE 0x24 0xD6 0xE1 SHR SWAP4 RETURNDATACOPY MUL LT PUSH24 0x5E43EF6D0535A4395F95AD41CA5964736F6C634300081200 CALLER "
		},
		"gasEstimates": {
			"creation": {
				"codeDepositCost": "2366800",
				"executionCost": "infinite",
				"totalCost": "infinite"
			},
			"external": {
				"Lock(address,address,uint256,uint256,uint256,address[],uint256[],string,uint256)": "infinite",
				"adminForLock()": "2405",
				"adminLockDetail()": "infinite",
				"calculateClaimableAmount(uint256)": "infinite",
				"changeLockAdmin(address)": "infinite",
				"checkGroupMember()": "infinite",
				"claim(uint256)": "infinite",
				"claimed(address)": "2624",
				"createUser()": "2383",
				"factoryAddr()": "2426",
				"feeAmount()": "infinite",
				"feeReceiver()": "infinite",
				"fireLockFeeTransfer()": "2447",
				"getLockTitle()": "infinite",
				"getMember()": "infinite",
				"getMemberAmount()": "2338",
				"getMemberRate()": "infinite",
				"getRecordLength()": "2403",
				"isUnique(address[])": "infinite",
				"isUserUnlock(address)": "infinite",
				"lockStatus()": "2433",
				"record(uint256)": "8990",
				"remaining(address)": "2624",
				"setLockMemberAddr(uint256,address)": "infinite",
				"setMemberRate(uint256[])": "infinite",
				"totalAmount()": "2386",
				"totalRate()": "2362",
				"treasuryDistributionContract()": "2403",
				"unlockStatus()": "2389",
				"validateSum(uint256[])": "infinite",
				"weth()": "2393"
			},
			"internal": {
				"checkRate()": "infinite",
				"isContractAddress(address)": "infinite",
				"isNotExist(address)": "infinite"
			}
		},
		"methodIdentifiers": {
			"Lock(address,address,uint256,uint256,uint256,address[],uint256[],string,uint256)": "77fd0348",
			"adminForLock()": "27b2a9e6",
			"adminLockDetail()": "07802414",
			"calculateClaimableAmount(uint256)": "46be42fa",
			"changeLockAdmin(address)": "e70efbfd",
			"checkGroupMember()": "be241531",
			"claim(uint256)": "379607f5",
			"claimed(address)": "c884ef83",
			"createUser()": "25ad91ce",
			"factoryAddr()": "963671be",
			"feeAmount()": "69e15404",
			"feeReceiver()": "b3f00674",
			"fireLockFeeTransfer()": "f32f3678",
			"getLockTitle()": "88576cfa",
			"getMember()": "0274c094",
			"getMemberAmount()": "2fa9083a",
			"getMemberRate()": "6197d885",
			"getRecordLength()": "5ca04266",
			"isUnique(address[])": "8c6abbee",
			"isUserUnlock(address)": "bbd99dbc",
			"lockStatus()": "3e89340f",
			"record(uint256)": "2c16cd8a",
			"remaining(address)": "b399b0bc",
			"setLockMemberAddr(uint256,address)": "2e468b7e",
			"setMemberRate(uint256[])": "822d2ef7",
			"totalAmount()": "1a39d8ef",
			"totalRate()": "42a66f68",
			"treasuryDistributionContract()": "e3840bc1",
			"unlockStatus()": "2fb9e41f",
			"validateSum(uint256[])": "cd84cbff",
			"weth()": "3fc8cef3"
		}
	},
	"abi": [
		{
			"inputs": [
				{
					"internalType": "address",
					"name": "_weth",
					"type": "address"
				},
				{
					"internalType": "address",
					"name": "_fireLockFeeTransfer",
					"type": "address"
				},
				{
					"internalType": "address",
					"name": "_treasuryDistributionContract",
					"type": "address"
				},
				{
					"internalType": "address",
					"name": "_factoryAddr",
					"type": "address"
				},
				{
					"internalType": "address",
					"name": "_createUser",
					"type": "address"
				}
			],
			"stateMutability": "nonpayable",
			"type": "constructor"
		},
		{
			"inputs": [
				{
					"internalType": "address",
					"name": "_token",
					"type": "address"
				},
				{
					"internalType": "address",
					"name": "_admin",
					"type": "address"
				},
				{
					"internalType": "uint256",
					"name": "_unlockCycle",
					"type": "uint256"
				},
				{
					"internalType": "uint256",
					"name": "_unlockRound",
					"type": "uint256"
				},
				{
					"internalType": "uint256",
					"name": "_amount",
					"type": "uint256"
				},
				{
					"internalType": "address[]",
					"name": "_to",
					"type": "address[]"
				},
				{
					"internalType": "uint256[]",
					"name": "_rate",
					"type": "uint256[]"
				},
				{
					"internalType": "string",
					"name": "_title",
					"type": "string"
				},
				{
					"internalType": "uint256",
					"name": "_cliffPeriod",
					"type": "uint256"
				}
			],
			"name": "Lock",
			"outputs": [],
			"stateMutability": "payable",
			"type": "function"
		},
		{
			"inputs": [],
			"name": "adminForLock",
			"outputs": [
				{
					"internalType": "address",
					"name": "",
					"type": "address"
				}
			],
			"stateMutability": "view",
			"type": "function"
		},
		{
			"inputs": [],
			"name": "adminLockDetail",
			"outputs": [
				{
					"internalType": "string",
					"name": "LockTitle",
					"type": "string"
				},
				{
					"internalType": "uint256",
					"name": "ddl",
					"type": "uint256"
				},
				{
					"internalType": "uint256",
					"name": "startTime",
					"type": "uint256"
				},
				{
					"internalType": "address",
					"name": "admin",
					"type": "address"
				},
				{
					"internalType": "uint256",
					"name": "amount",
					"type": "uint256"
				},
				{
					"internalType": "uint256",
					"name": "unlockCycle",
					"type": "uint256"
				},
				{
					"internalType": "uint256",
					"name": "unlockRound",
					"type": "uint256"
				},
				{
					"internalType": "address",
					"name": "token",
					"type": "address"
				},
				{
					"internalType": "uint256",
					"name": "cliffPeriod",
					"type": "uint256"
				}
			],
			"stateMutability": "view",
			"type": "function"
		},
		{
			"inputs": [
				{
					"internalType": "uint256",
					"name": "userId",
					"type": "uint256"
				}
			],
			"name": "calculateClaimableAmount",
			"outputs": [
				{
					"internalType": "uint256",
					"name": "",
					"type": "uint256"
				}
			],
			"stateMutability": "view",
			"type": "function"
		},
		{
			"inputs": [
				{
					"internalType": "address",
					"name": "_to",
					"type": "address"
				}
			],
			"name": "changeLockAdmin",
			"outputs": [],
			"stateMutability": "nonpayable",
			"type": "function"
		},
		{
			"inputs": [],
			"name": "checkGroupMember",
			"outputs": [
				{
					"internalType": "address[]",
					"name": "",
					"type": "address[]"
				}
			],
			"stateMutability": "view",
			"type": "function"
		},
		{
			"inputs": [
				{
					"internalType": "uint256",
					"name": "_amount",
					"type": "uint256"
				}
			],
			"name": "claim",
			"outputs": [],
			"stateMutability": "nonpayable",
			"type": "function"
		},
		{
			"inputs": [
				{
					"internalType": "address",
					"name": "",
					"type": "address"
				}
			],
			"name": "claimed",
			"outputs": [
				{
					"internalType": "uint256",
					"name": "",
					"type": "uint256"
				}
			],
			"stateMutability": "view",
			"type": "function"
		},
		{
			"inputs": [],
			"name": "createUser",
			"outputs": [
				{
					"internalType": "address",
					"name": "",
					"type": "address"
				}
			],
			"stateMutability": "view",
			"type": "function"
		},
		{
			"inputs": [],
			"name": "factoryAddr",
			"outputs": [
				{
					"internalType": "address",
					"name": "",
					"type": "address"
				}
			],
			"stateMutability": "view",
			"type": "function"
		},
		{
			"inputs": [],
			"name": "feeAmount",
			"outputs": [
				{
					"internalType": "uint256",
					"name": "",
					"type": "uint256"
				}
			],
			"stateMutability": "view",
			"type": "function"
		},
		{
			"inputs": [],
			"name": "feeReceiver",
			"outputs": [
				{
					"internalType": "address",
					"name": "",
					"type": "address"
				}
			],
			"stateMutability": "view",
			"type": "function"
		},
		{
			"inputs": [],
			"name": "fireLockFeeTransfer",
			"outputs": [
				{
					"internalType": "address",
					"name": "",
					"type": "address"
				}
			],
			"stateMutability": "view",
			"type": "function"
		},
		{
			"inputs": [],
			"name": "getLockTitle",
			"outputs": [
				{
					"internalType": "string",
					"name": "",
					"type": "string"
				}
			],
			"stateMutability": "view",
			"type": "function"
		},
		{
			"inputs": [],
			"name": "getMember",
			"outputs": [
				{
					"internalType": "address[]",
					"name": "",
					"type": "address[]"
				}
			],
			"stateMutability": "view",
			"type": "function"
		},
		{
			"inputs": [],
			"name": "getMemberAmount",
			"outputs": [
				{
					"internalType": "uint256",
					"name": "",
					"type": "uint256"
				}
			],
			"stateMutability": "view",
			"type": "function"
		},
		{
			"inputs": [],
			"name": "getMemberRate",
			"outputs": [
				{
					"internalType": "uint256[]",
					"name": "",
					"type": "uint256[]"
				}
			],
			"stateMutability": "view",
			"type": "function"
		},
		{
			"inputs": [],
			"name": "getRecordLength",
			"outputs": [
				{
					"internalType": "uint256",
					"name": "",
					"type": "uint256"
				}
			],
			"stateMutability": "view",
			"type": "function"
		},
		{
			"inputs": [
				{
					"internalType": "address[]",
					"name": "addresses",
					"type": "address[]"
				}
			],
			"name": "isUnique",
			"outputs": [
				{
					"internalType": "bool",
					"name": "",
					"type": "bool"
				}
			],
			"stateMutability": "pure",
			"type": "function"
		},
		{
			"inputs": [
				{
					"internalType": "address",
					"name": "_user",
					"type": "address"
				}
			],
			"name": "isUserUnlock",
			"outputs": [
				{
					"internalType": "uint256",
					"name": "_userId",
					"type": "uint256"
				}
			],
			"stateMutability": "view",
			"type": "function"
		},
		{
			"inputs": [],
			"name": "lockStatus",
			"outputs": [
				{
					"internalType": "bool",
					"name": "",
					"type": "bool"
				}
			],
			"stateMutability": "view",
			"type": "function"
		},
		{
			"inputs": [
				{
					"internalType": "uint256",
					"name": "",
					"type": "uint256"
				}
			],
			"name": "record",
			"outputs": [
				{
					"internalType": "address",
					"name": "user",
					"type": "address"
				},
				{
					"internalType": "uint256",
					"name": "amount",
					"type": "uint256"
				},
				{
					"internalType": "uint256",
					"name": "time",
					"type": "uint256"
				}
			],
			"stateMutability": "view",
			"type": "function"
		},
		{
			"inputs": [
				{
					"internalType": "address",
					"name": "",
					"type": "address"
				}
			],
			"name": "remaining",
			"outputs": [
				{
					"internalType": "uint256",
					"name": "",
					"type": "uint256"
				}
			],
			"stateMutability": "view",
			"type": "function"
		},
		{
			"inputs": [
				{
					"internalType": "uint256",
					"name": "_id",
					"type": "uint256"
				},
				{
					"internalType": "address",
					"name": "_to",
					"type": "address"
				}
			],
			"name": "setLockMemberAddr",
			"outputs": [],
			"stateMutability": "nonpayable",
			"type": "function"
		},
		{
			"inputs": [
				{
					"internalType": "uint256[]",
					"name": "_rate",
					"type": "uint256[]"
				}
			],
			"name": "setMemberRate",
			"outputs": [],
			"stateMutability": "nonpayable",
			"type": "function"
		},
		{
			"inputs": [],
			"name": "totalAmount",
			"outputs": [
				{
					"internalType": "uint256",
					"name": "",
					"type": "uint256"
				}
			],
			"stateMutability": "view",
			"type": "function"
		},
		{
			"inputs": [],
			"name": "totalRate",
			"outputs": [
				{
					"internalType": "uint256",
					"name": "",
					"type": "uint256"
				}
			],
			"stateMutability": "view",
			"type": "function"
		},
		{
			"inputs": [],
			"name": "treasuryDistributionContract",
			"outputs": [
				{
					"internalType": "address",
					"name": "",
					"type": "address"
				}
			],
			"stateMutability": "view",
			"type": "function"
		},
		{
			"inputs": [],
			"name": "unlockStatus",
			"outputs": [
				{
					"internalType": "bool",
					"name": "",
					"type": "bool"
				}
			],
			"stateMutability": "view",
			"type": "function"
		},
		{
			"inputs": [
				{
					"internalType": "uint256[]",
					"name": "nums",
					"type": "uint256[]"
				}
			],
			"name": "validateSum",
			"outputs": [
				{
					"internalType": "bool",
					"name": "",
					"type": "bool"
				}
			],
			"stateMutability": "pure",
			"type": "function"
		},
		{
			"inputs": [],
			"name": "weth",
			"outputs": [
				{
					"internalType": "address",
					"name": "",
					"type": "address"
				}
			],
			"stateMutability": "view",
			"type": "function"
		}
	]
}