{
	"data": {
		"bytecode": {
			"linkReferences": {},
			"object": "60806040523480156200001157600080fd5b5060405162004bdd38038062004bdd8339810160408190526200003491620002d4565b60408051808201909152600381526275726960e81b60208201526200005981620000f0565b50620000653362000102565b678ac7230489e80000600855600980546001600160a01b0319166001600160a01b038316179055620000ab73efb981c48870fe757850e993b77810a887c37b1462000154565b620000ca7387a0941bbde86cf5c5b3dc68da4a2018a49bfaab620001d4565b620000e973a8fcf03cdec12cf19767d12ac4c627ff6e5d1c216200024a565b5062000477565b6002620000fe8282620003ab565b5050565b600380546001600160a01b038381166001600160a01b0319831681179093556040519116919082907f8be0079c531659141344cd1fd0a4f28419497f9722a3daafe3b4186f6b6457e090600090a35050565b6200015e62000276565b600f54600160a01b900460ff1615620001b25760405162461bcd60e51b8152602060048201526011602482015270636f6e747261637420697320706175736560781b60448201526064015b60405180910390fd5b600580546001600160a01b0319166001600160a01b0392909216919091179055565b620001de62000276565b6001600160a01b038116620002285760405162461bcd60e51b815260206004820152600f60248201526e696e76616c69642073657474696e6760881b6044820152606401620001a9565b600e80546001600160a01b0319166001600160a01b0392909216919091179055565b6200025462000276565b600f80546001600160a01b0319166001600160a01b0392909216919091179055565b6003546001600160a01b03163314620002d25760405162461bcd60e51b815260206004820181905260248201527f4f776e61626c653a2063616c6c6572206973206e6f7420746865206f776e65726044820152606401620001a9565b565b600060208284031215620002e757600080fd5b81516001600160a01b0381168114620002ff57600080fd5b9392505050565b634e487b7160e01b600052604160045260246000fd5b600181811c908216806200033157607f821691505b6020821081036200035257634e487b7160e01b600052602260045260246000fd5b50919050565b601f821115620003a657600081815260208120601f850160051c81016020861015620003815750805b601f850160051c820191505b81811015620003a2578281556001016200038d565b5050505b505050565b81516001600160401b03811115620003c757620003c762000306565b620003df81620003d884546200031c565b8462000358565b602080601f831160018114620004175760008415620003fe5750858301515b600019600386901b1c1916600185901b178555620003a2565b600085815260208120601f198616915b82811015620004485788860151825594840194600190910190840162000427565b5085821015620004675787850151600019600388901b60f8161c191681555b5050505050600190811b01905550565b61475680620004876000396000f3fe608060405234801561001057600080fd5b50600436106103f05760003560e01c80638de8a92511610215578063d49d518111610125578063e985e9c5116100b8578063f607693611610087578063f6076936146109f7578063f7d0e04b14610a0a578063fb7e946314610a1d578063fc0c917a14610a30578063fd4329f414610a5c57600080fd5b8063e985e9c514610982578063f1127c2a146109be578063f242432a146109d1578063f2fde38b146109e457600080fd5b8063de4f65ef116100f4578063de4f65ef14610936578063df9d19f714610949578063e8cfc3f11461095c578063e9112e9d1461096f57600080fd5b8063d49d5181146108a2578063d5d4031e146108ab578063d6c6111e146108e8578063dc2ae3211461092357600080fd5b8063b3ec59a7116101a8578063c2f386f911610177578063c2f386f914610822578063c52164c61461082b578063c78952681461083e578063cc7ef80014610861578063ccc9660c1461087457600080fd5b8063b3ec59a7146107e1578063b8d1452f146107e9578063c0191114146107fc578063c1ca12551461080f57600080fd5b8063a27d38da116101e4578063a27d38da14610754578063a711a8e614610767578063b12eb5ad146107ae578063b3d3f7f6146107ce57600080fd5b80638de8a92514610702578063990db1fc14610725578063a168c2ef1461072e578063a22cb4651461074157600080fd5b80632eb2c2d6116103105780634f769cf6116102a3578063715018a611610272578063715018a614610692578063717cf8e71461069a57806378acff69146106a25780637bbd6e60146106c55780638da5cb5b146106f157600080fd5b80634f769cf614610646578063540aaacf14610659578063578247391461066c5780636044c2161461067f57600080fd5b8063439766ce116102df578063439766ce1461060e57806347832103146106165780634e1273f41461061e5780634f4474641461063e57600080fd5b80632eb2c2d6146105cd57806331775870146105e057806335434bd0146105e85780633fc8cef3146105fb57600080fd5b80631d403171116103885780632862b986116103575780632862b986146105625780632b865618146105755780632d45fcd1146105955780632e4b7b36146105a857600080fd5b80631d403171146104f8578063200d2ed214610518578063225d29a11461052c57806327cad2ef1461054f57600080fd5b80630e89341c116103c45780630e89341c146104665780631408a58314610486578063186c8058146104a95780631a5ef71c146104cd57600080fd5b8062fdd58e146103f557806301ffc9a71461041b57806309fd8d301461043e5780630cfc198b14610453575b600080fd5b610408610403366004613955565b610a6f565b6040519081526020015b60405180910390f35b61042e610429366004613997565b610b08565b6040519015158152602001610412565b61045161044c366004613a80565b610b58565b005b610451610461366004613ac6565b610dec565b610479610474366004613ae8565b610f2b565b6040516104129190613b51565b61042e610494366004613b64565b601b6020526000908152604090205460ff1681565b6104bc6104b7366004613b81565b610fbf565b604051610412959493929190613bb6565b6005546104e0906001600160a01b031681565b6040516001600160a01b039091168152602001610412565b610408610506366004613ae8565b60009081526019602052604090205490565b600f5461042e90600160a01b900460ff1681565b61042e61053a366004613b64565b60176020526000908152604090205460ff1681565b61045161055d366004613caa565b6111c1565b610451610570366004613ce6565b61137a565b610408610583366004613ae8565b60009081526018602052604090205490565b6104516105a3366004613ce6565b611401565b6105bb6105b6366004613b64565b6114d4565b60405161041296959493929190613d16565b6104516105db366004613dbf565b61159d565b600b54610408565b6104e06105f6366004613ac6565b611647565b6009546104e0906001600160a01b031681565b61045161167f565b601c54610408565b61063161062c366004613e6c565b6116a8565b6040516104129190613f00565b600a54610408565b6104e0610654366004613ae8565b6117d1565b610451610667366004613ae8565b6117fb565b61045161067a366004613ce6565b611808565b61045161068d366004613ce6565b611a22565b610451611c09565b600c54610408565b61042e6106b0366004613b64565b60116020526000908152604090205460ff1681565b61042e6106d3366004613b64565b6001600160a01b03166000908152601b602052604090205460ff1690565b6003546001600160a01b03166104e0565b61042e610710366004613b64565b60106020526000908152604090205460ff1681565b61040860065481565b600f546104e0906001600160a01b031681565b61045161074f366004613f21565b611c1d565b610451610762366004613ce6565b611c28565b61077a610775366004613ae8565b611e01565b604080519586526001600160a01b03948516602087015292909316918401919091526060830152608082015260a001610412565b6104086107bc366004613b64565b60136020526000908152604090205481565b6104bc6107dc366004613ae8565b611e4d565b600d54610408565b6104516107f7366004613b64565b611e68565b61040861080a366004613b64565b611e92565b61045161081d366004613f4f565b611f16565b61040860075481565b600e546104e0906001600160a01b031681565b61042e61084c366004613b64565b601a6020526000908152604090205460ff1681565b61045161086f366004613b64565b612278565b61042e610882366004613ce6565b601260209081526000928352604080842090915290825290205460ff1681565b61040860085481565b6108be6108b9366004613ac6565b6122f0565b604080516001600160a01b0390951685526020850193909352918301526060820152608001610412565b6108fb6108f6366004613ae8565b612340565b604080519485526001600160a01b039093166020850152918301526060820152608001610412565b6104e0610931366004613ae8565b612383565b6104bc610944366004613ae8565b612393565b610451610957366004613ae8565b6123c6565b61045161096a366004613b64565b6123d3565b61045161097d366004613ae8565b6124ce565b61042e610990366004613fd6565b6001600160a01b03918216600090815260016020908152604080832093909416825291909152205460ff1690565b6104516109cc366004613caa565b612699565b6104516109df366004614004565b6127c1565b6104516109f2366004613b64565b612864565b610451610a05366004613955565b6128da565b610451610a18366004613b64565b612c37565b610451610a2b366004613b64565b612ca9565b61042e610a3e366004613b64565b6001600160a01b03166000908152601a602052604090205460ff1690565b610451610a6a366004613b64565b612cd3565b60006001600160a01b038316610adf5760405162461bcd60e51b815260206004820152602a60248201527f455243313135353a2061646472657373207a65726f206973206e6f742061207660448201526930b634b21037bbb732b960b11b60648201526084015b60405180910390fd5b506000818152602081815260408083206001600160a01b03861684529091529020545b92915050565b60006001600160e01b03198216636cdb3d1360e11b1480610b3957506001600160e01b031982166303a24d0760e21b145b80610b0257506301ffc9a760e01b6001600160e01b0319831614610b02565b600754600e5460405163014ab31360e01b81523360048201526001600160a01b039091169063014ab31390602401602060405180830381865afa158015610ba3573d6000803e3d6000fd5b505050506040513d601f19601f82011682018060405250810190610bc7919061406c565b1015610c1f5760405162461bcd60e51b815260206004820152602160248201527f796f752063616e6e6f74207375626d697420746865206170706c69636174696f6044820152603760f91b6064820152608401610ad6565b3360009081526017602052604090205460ff1615610c7f5760405162461bcd60e51b815260206004820152601860248201527f796f75206172652071756575696e6720746f206170706c7900000000000000006044820152606401610ad6565b60006040518060c00160405280848152602001610c9b33611e92565b81526005546040516373ab94f960e11b81523360048201526020909201916001600160a01b039091169063e75729f290602401602060405180830381865afa158015610ceb573d6000803e3d6000fd5b505050506040513d601f19601f82011682018060405250810190610d0f919061406c565b8152602080820185905233604080840182905242606094850152600091825260178352808220805460ff19166001908117909155601684529181902085518155928501519183019190915583015160028201559082015191925082916003820190610d7a9082614105565b5060808201516004820180546001600160a01b039092166001600160a01b031992831617905560a090920151600590910155600b80546001810182556000919091527f0175b7a638427703f0dbe7bb9bbf987a2551717b34e79f33b5b1008d1fa01db901805490911633179055505050565b600f546001600160a01b03163314610e165760405162461bcd60e51b8152600401610ad6906141c4565b60008281526015602052604081206004018054839290610e379084906141fd565b90915550506040805160808101825292835233602084019081529083019182524260608401908152600c805460018101825560009190915293517fdf6966c971051c3d54ec59162606531493a51404a002842f56009d7e5cf4a8c760049095029485015590517fdf6966c971051c3d54ec59162606531493a51404a002842f56009d7e5cf4a8c8840180546001600160a01b0319166001600160a01b0390921691909117905590517fdf6966c971051c3d54ec59162606531493a51404a002842f56009d7e5cf4a8c9830155517fdf6966c971051c3d54ec59162606531493a51404a002842f56009d7e5cf4a8ca90910155565b606060028054610f3a90614085565b80601f0160208091040260200160405190810160405280929190818152602001828054610f6690614085565b8015610fb35780601f10610f8857610100808354040283529160200191610fb3565b820191906000526020600020905b815481529060010190602001808311610f9657829003601f168201915b50505050509050919050565b60146020528260005260406000206020528160005260406000208181548110610fe757600080fd5b9060005260206000209060050201600092509250505080600001805461100c90614085565b80601f016020809104026020016040519081016040528092919081815260200182805461103890614085565b80156110855780601f1061105a57610100808354040283529160200191611085565b820191906000526020600020905b81548152906001019060200180831161106857829003601f168201915b50505050509080600101805461109a90614085565b80601f01602080910402602001604051908101604052809291908181526020018280546110c690614085565b80156111135780601f106110e857610100808354040283529160200191611113565b820191906000526020600020905b8154815290600101906020018083116110f657829003601f168201915b50505050509080600201805461112890614085565b80601f016020809104026020016040519081016040528092919081815260200182805461115490614085565b80156111a15780601f10611176576101008083540402835291602001916111a1565b820191906000526020600020905b81548152906001019060200180831161118457829003601f168201915b50505050600383015460049093015491926001600160a01b031691905085565b6111c9612cfd565b60005b815181101561137657601160008383815181106111eb576111eb614210565b6020908102919091018101516001600160a01b031682528101919091526040016000205460ff161561125f5760405162461bcd60e51b815260206004820152601a60248201527f57686974654c6973742061646465642072657065617465646c790000000000006044820152606401610ad6565b61128182828151811061127457611274614210565b6020026020010151612d57565b6112be5760405162461bcd60e51b815260206004820152600e60248201526d726570656174206164647265737360901b6044820152606401610ad6565b6001601160008484815181106112d6576112d6614210565b60200260200101516001600160a01b03166001600160a01b0316815260200190815260200160002060006101000a81548160ff021916908315150217905550600a82828151811061132957611329614210565b60209081029190910181015182546001810184556000938452919092200180546001600160a01b0319166001600160a01b039092169190911790558061136e81614226565b9150506111cc565b5050565b611382612cfd565b6001600160a01b0381166113a85760405162461bcd60e51b8152600401610ad69061423f565b600091825260156020908152604080842060030180546001600160a01b039094166001600160a01b031990941684179055338452601a909152808320805460ff1990811690915591835290912080549091166001179055565b6003546001600160a01b0316331480611440575033600081815260136020908152604080832054835260159091529020600301546001600160a01b0316145b61145c5760405162461bcd60e51b8152600401610ad6906141c4565b6001600160a01b0381166114825760405162461bcd60e51b8152600401610ad69061423f565b6001600160a01b03166000818152601b60209081526040808320805460ff19166001908117909155948352601882528220805494850181558252902090910180546001600160a01b0319169091179055565b60166020526000908152604090208054600182015460028301546003840180549394929391929161150490614085565b80601f016020809104026020016040519081016040528092919081815260200182805461153090614085565b801561157d5780601f106115525761010080835404028352916020019161157d565b820191906000526020600020905b81548152906001019060200180831161156057829003601f168201915b50505050600483015460059093015491926001600160a01b031691905086565b6001600160a01b038516331480156115bd57506001600160a01b03841633145b6115fb5760405162461bcd60e51b815260206004820152600f60248201526e3737ba103a37903a3930b739b332b960891b6044820152606401610ad6565b6001600160a01b03851633148061161757506116178533610990565b6116335760405162461bcd60e51b8152600401610ad690614276565b6116408585858585612dc0565b5050505050565b6018602052816000526040600020818154811061166357600080fd5b6000918252602090912001546001600160a01b03169150829050565b611687612cfd565b600f805460ff60a01b198116600160a01b9182900460ff1615909102179055565b6060815183511461170d5760405162461bcd60e51b815260206004820152602960248201527f455243313135353a206163636f756e747320616e6420696473206c656e677468604482015268040dad2e6dac2e8c6d60bb1b6064820152608401610ad6565b600083516001600160401b03811115611728576117286139bb565b604051908082528060200260200182016040528015611751578160200160208202803683370190505b50905060005b84518110156117c95761179c85828151811061177557611775614210565b602002602001015185838151811061178f5761178f614210565b6020026020010151610a6f565b8282815181106117ae576117ae614210565b60209081029190910101526117c281614226565b9050611757565b509392505050565b600a81815481106117e157600080fd5b6000918252602090912001546001600160a01b0316905081565b611803612cfd565b600755565b6000828152601560205260409020600301546001600160a01b031633148061183f5750336000908152601b602052604090205460ff165b61188b5760405162461bcd60e51b815260206004820152601b60248201527f796f7520617265206e6f74206120756e696f6e2061756469746f7200000000006044820152606401610ad6565b6118953383610a6f565b6001146118db5760405162461bcd60e51b81526020600482015260146024820152731d1a19481859191c995cdcc81a5cc8195e1a5cdd60621b6044820152606401610ad6565b61190481836001604051806040016040528060048152602001631d195cdd60e21b815250612f9d565b6001600160a01b0381166000818152601360209081526040808320869055805160808101909152928352909190810161193c84611e92565b81526005546040516373ab94f960e11b81526001600160a01b0386811660048301526020909301929091169063e75729f290602401602060405180830381865afa15801561198e573d6000803e3d6000fd5b505050506040513d601f19601f820116820180604052508101906119b2919061406c565b815242602091820152600094855260198152604080862080546001808201835591885296839020845160049098020180546001600160a01b0319166001600160a01b0390981697909717875591830151918601919091558101516002850155606001516003909301929092555050565b6000828152601560205260409020600301546001600160a01b0316331480611a595750336000908152601b602052604090205460ff165b611aa55760405162461bcd60e51b815260206004820152601b60248201527f796f7520617265206e6f74206120756e696f6e2061756469746f7200000000006044820152606401610ad6565b336000908152601760209081526040808320805460ff1916905560169091528120818155600181018290556002810182905590611ae560038301826137e9565b506004810180546001600160a01b0319169055600060059091018190555b600b54811015611c0457816001600160a01b0316600b8281548110611b2a57611b2a614210565b6000918252602090912001546001600160a01b031603611bf257600b8054611b54906001906142c5565b81548110611b6457611b64614210565b600091825260209091200154600b80546001600160a01b039092169183908110611b9057611b90614210565b9060005260206000200160006101000a8154816001600160a01b0302191690836001600160a01b03160217905550600b805480611bcf57611bcf6142d8565b600082815260209020810160001990810180546001600160a01b03191690550190555b80611bfc81614226565b915050611b03565b505050565b611c11612cfd565b611c1b60006130b1565b565b611376338383613103565b6003546001600160a01b0316331480611c67575033600081815260136020908152604080832054835260159091529020600301546001600160a01b0316145b611c835760405162461bcd60e51b8152600401610ad6906141c4565b6001600160a01b038116611ca95760405162461bcd60e51b8152600401610ad69061423f565b6001600160a01b0381166000908152601b60205260408120805460ff191690555b600083815260186020526040902054811015611c04576000838152601860205260409020805482908110611d0057611d00614210565b6000918252602090912001546001600160a01b0390811690831603611def5760008381526018602052604090208054611d3b906001906142c5565b81548110611d4b57611d4b614210565b60009182526020808320909101548583526018909152604090912080546001600160a01b039092169183908110611d8457611d84614210565b600091825260208083209190910180546001600160a01b0319166001600160a01b039490941693909317909255848152601890915260409020805480611dcc57611dcc6142d8565b600082815260209020810160001990810180546001600160a01b03191690550190555b80611df981614226565b915050611cca565b600d8181548110611e1157600080fd5b6000918252602090912060059091020180546001820154600283015460038401546004909401549294506001600160a01b039182169391169185565b60156020526000908152604090208054819061100c90614085565b611e70612cfd565b600980546001600160a01b0319166001600160a01b0392909216919091179055565b60048054604051630cacd00160e11b81526001600160a01b038481169382019390935260009283921690631959a00290602401600060405180830381865afa158015611ee2573d6000803e3d6000fd5b505050506040513d6000823e601f3d908101601f19168201604052611f0a9190810190614346565b50929695505050505050565b3360009081526011602052604090205460ff161515600114611f6b5760405162461bcd60e51b815260206004820152600e60248201526d796f75206e6f74206170726f766560901b6044820152606401610ad6565b611f96336006546001604051806040016040528060048152602001631d195cdd60e21b815250612f9d565b60006040518060a00160405280858152602001848152602001838152602001336001600160a01b031681526020016000815250905060006040518060800160405280336001600160a01b03168152602001611ff033611e92565b81526005546040516373ab94f960e11b81523360048201526020909201916001600160a01b039091169063e75729f290602401602060405180830381865afa158015612040573d6000803e3d6000fd5b505050506040513d601f19601f82011682018060405250810190612064919061406c565b815242602090910152601c80546001810182556000919091528351919250839160059091027f0e4562a10381dec21b205ed72637e6b1b523bdd0e4d4d50af5cd23dd4500a211019081906120b89082614105565b50602082015160018201906120cd9082614105565b50604082015160028201906120e29082614105565b5060608201516003820180546001600160a01b0319166001600160a01b0390921691909117905560809091015160049091015533600090815260146020908152604080832060065484529091529020601c8054612140929190613823565b506006546000908152601560205260409020825183919081906121639082614105565b50602082015160018201906121789082614105565b506040820151600282019061218d9082614105565b50606082810151600383810180546001600160a01b03199081166001600160a01b039485161790915560809095015160049485015560068054336000818152601360209081526040808320859055938252601281528382208383528152838220805460ff1990811660019081179092558654845260198352858420805480840182559085528385208e5191909c02909b018054909c169a909816999099178a558a8101518a8a01558a84015160028b0155968a01519890940197909755958252601a909352938420805490911690921790915580549161226c83614226565b91905055505050505050565b612280612cfd565b600f54600160a01b900460ff16156122ce5760405162461bcd60e51b8152602060048201526011602482015270636f6e747261637420697320706175736560781b6044820152606401610ad6565b600580546001600160a01b0319166001600160a01b0392909216919091179055565b6019602052816000526040600020818154811061230c57600080fd5b600091825260209091206004909102018054600182015460028301546003909301546001600160a01b039092169450925084565b600c818154811061235057600080fd5b600091825260209091206004909102018054600182015460028301546003909301549193506001600160a01b0316919084565b600b81815481106117e157600080fd5b601c81815481106123a357600080fd5b906000526020600020906005020160009150905080600001805461100c90614085565b6123ce612cfd565b600855565b33600081815260136020908152604080832054835260128252808320938352929052205460ff1615156001146124415760405162461bcd60e51b81526020600482015260136024820152723cb7ba9030b932903737ba1036b0b730b3b2b960691b6044820152606401610ad6565b336000818152601460209081526040808320601380845282852054808652918452918420949093529052815483929190811061247f5761247f614210565b6000918252602080832060059290920290910160030180546001600160a01b0319166001600160a01b039490941693909317909255338152601a90915260409020805460ff1916600117905550565b60005b60008281526019602052604090205481101561264d57600082815260196020526040902080548290811061250757612507614210565b60009182526020909120600490910201546001600160a01b0316330361263b5760008281526019602052604090208054612543906001906142c5565b8154811061255357612553614210565b906000526020600020906004020160196000848152602001908152602001600020828154811061258557612585614210565b60009182526020808320845460049093020180546001600160a01b0319166001600160a01b03909316929092178255600180850154908301556002808501549083015560039384015493909101929092558381526019909152604090208054806125f1576125f16142d8565b60008281526020812060046000199093019283020180546001600160a01b0319168155600181810183905560028201839055600390910191909155915561263b90339084906131e3565b8061264581614226565b9150506124d1565b5060405162461bcd60e51b815260206004820152601960248201527f796f752068617665206e6f74206a6f696e2061206775696c64000000000000006044820152606401610ad6565b50565b6126a1612cfd565b60005b815181101561137657601160008383815181106126c3576126c3614210565b6020908102919091018101516001600160a01b031682528101919091526040016000205460ff166127365760405162461bcd60e51b815260206004820152601a60248201527f57686974654c6973742061646465642072657065617465646c790000000000006044820152606401610ad6565b60006011600084848151811061274e5761274e614210565b60200260200101516001600160a01b03166001600160a01b0316815260200190815260200160002060006101000a81548160ff0219169083151502179055506127af8282815181106127a2576127a2614210565b602002602001015161335f565b806127b981614226565b9150506126a4565b6001600160a01b038516331480156127e157506001600160a01b03841633145b61281f5760405162461bcd60e51b815260206004820152600f60248201526e3737ba103a37903a3930b739b332b960891b6044820152606401610ad6565b6001600160a01b03851633148061283b575061283b8533610990565b6128575760405162461bcd60e51b8152600401610ad690614276565b611640858585858561345e565b61286c612cfd565b6001600160a01b0381166128d15760405162461bcd60e51b815260206004820152602660248201527f4f776e61626c653a206e6577206f776e657220697320746865207a65726f206160448201526564647265737360d01b6064820152608401610ad6565b612696816130b1565b6003546001600160a01b0316331480612919575033600081815260136020908152604080832054835260159091529020600301546001600160a01b0316145b6129355760405162461bcd60e51b8152600401610ad6906141c4565b6008548111156129935760405162461bcd60e51b8152602060048201526024808201527f457863656564656420746865206d6178696d756d207472616e7366657220616d6044820152631bdd5b9d60e21b6064820152608401610ad6565b6009546040516370a0823160e01b81523060048201526000916001600160a01b0316906370a08231906024016020604051808303816000875af11580156129de573d6000803e3d6000fd5b505050506040513d601f19601f82011682018060405250810190612a02919061406c565b11612a4f5760405162461bcd60e51b815260206004820152601960248201527f62616c616e6365206f662074686973206e6f20616d6f756e74000000000000006044820152606401610ad6565b600f54600160a01b900460ff1615612a8b576003546001600160a01b03163314612a8b5760405162461bcd60e51b8152600401610ad6906141c4565b6040805160a0810182523360008181526013602090815284822054845283019182526001600160a01b03868116848601818152606086018881524260808801908152600d8054600181018255965287517fd7b6990105719101dabeb77144f2a3385c8033acd3af97e9423a695e81ad1eb560059097029687015595517fd7b6990105719101dabeb77144f2a3385c8033acd3af97e9423a695e81ad1eb6860180546001600160a01b031990811692871692909217905591517fd7b6990105719101dabeb77144f2a3385c8033acd3af97e9423a695e81ad1eb78601805490931690851617909155517fd7b6990105719101dabeb77144f2a3385c8033acd3af97e9423a695e81ad1eb884015592517fd7b6990105719101dabeb77144f2a3385c8033acd3af97e9423a695e81ad1eb990920191909155600954935163a9059cbb60e01b815260048101929092526024820185905291929091169063a9059cbb906044016020604051808303816000875af1158015612c0d573d6000803e3d6000fd5b505050506040513d601f19601f82011682018060405250810190612c3191906143d0565b50505050565b612c3f612cfd565b6001600160a01b038116612c875760405162461bcd60e51b815260206004820152600f60248201526e696e76616c69642073657474696e6760881b6044820152606401610ad6565b600e80546001600160a01b0319166001600160a01b0392909216919091179055565b612cb1612cfd565b600480546001600160a01b0319166001600160a01b0392909216919091179055565b612cdb612cfd565b600f80546001600160a01b0319166001600160a01b0392909216919091179055565b6003546001600160a01b03163314611c1b5760405162461bcd60e51b815260206004820181905260248201527f4f776e61626c653a2063616c6c6572206973206e6f7420746865206f776e65726044820152606401610ad6565b6000805b600a54811015612db757826001600160a01b0316600a8281548110612d8257612d82614210565b6000918252602090912001546001600160a01b031603612da55750600092915050565b80612daf81614226565b915050612d5b565b50600192915050565b8151835114612e225760405162461bcd60e51b815260206004820152602860248201527f455243313135353a2069647320616e6420616d6f756e7473206c656e677468206044820152670dad2e6dac2e8c6d60c31b6064820152608401610ad6565b6001600160a01b038416612e485760405162461bcd60e51b8152600401610ad6906143ed565b3360005b8451811015612f2f576000858281518110612e6957612e69614210565b602002602001015190506000858381518110612e8757612e87614210565b602090810291909101810151600084815280835260408082206001600160a01b038e168352909352919091205490915081811015612ed75760405162461bcd60e51b8152600401610ad690614432565b6000838152602081815260408083206001600160a01b038e8116855292528083208585039055908b16825281208054849290612f149084906141fd565b9250508190555050505080612f2890614226565b9050612e4c565b50846001600160a01b0316866001600160a01b0316826001600160a01b03167f4a39dc06d4c0dbc64b70af90fd698a233a518aa5d07e595d983b8c0526c8f7fb8787604051612f7f92919061447c565b60405180910390a4612f95818787878787613588565b505050505050565b6001600160a01b038416612ffd5760405162461bcd60e51b815260206004820152602160248201527f455243313135353a206d696e7420746f20746865207a65726f206164647265736044820152607360f81b6064820152608401610ad6565b336000613009856136e3565b90506000613016856136e3565b90506000868152602081815260408083206001600160a01b038b168452909152812080548792906130489084906141fd565b909155505060408051878152602081018790526001600160a01b03808a1692600092918716917fc3d58168c5ae7397731d063d5bbf3d657854427343f4c083240f7aacaa2d0f62910160405180910390a46130a88360008989898961372e565b50505050505050565b600380546001600160a01b038381166001600160a01b0319831681179093556040519116919082907f8be0079c531659141344cd1fd0a4f28419497f9722a3daafe3b4186f6b6457e090600090a35050565b816001600160a01b0316836001600160a01b0316036131765760405162461bcd60e51b815260206004820152602960248201527f455243313135353a2073657474696e6720617070726f76616c20737461747573604482015268103337b91039b2b63360b91b6064820152608401610ad6565b6001600160a01b03838116600081815260016020908152604080832094871680845294825291829020805460ff191686151590811790915591519182527f17307eab39ab6107e8899845ad3d59bd9653f200f220920489ca2b5937696c31910160405180910390a3505050565b6001600160a01b0383166132455760405162461bcd60e51b815260206004820152602360248201527f455243313135353a206275726e2066726f6d20746865207a65726f206164647260448201526265737360e81b6064820152608401610ad6565b336000613251846136e3565b9050600061325e846136e3565b60408051602080820183526000918290528882528181528282206001600160a01b038b16835290522054909150848110156132e75760405162461bcd60e51b8152602060048201526024808201527f455243313135353a206275726e20616d6f756e7420657863656564732062616c604482015263616e636560e01b6064820152608401610ad6565b6000868152602081815260408083206001600160a01b038b81168086529184528285208a8703905582518b81529384018a90529092908816917fc3d58168c5ae7397731d063d5bbf3d657854427343f4c083240f7aacaa2d0f62910160405180910390a46040805160208101909152600090526130a8565b60005b600a5481101561137657600a818154811061337f5761337f614210565b6000918252602090912001546001600160a01b039081169083160361344c57600a80546133ae906001906142c5565b815481106133be576133be614210565b600091825260209091200154600a80546001600160a01b0390921691839081106133ea576133ea614210565b9060005260206000200160006101000a8154816001600160a01b0302191690836001600160a01b03160217905550600a805480613429576134296142d8565b600082815260209020810160001990810180546001600160a01b03191690550190555b8061345681614226565b915050613362565b6001600160a01b0384166134845760405162461bcd60e51b8152600401610ad6906143ed565b336000613490856136e3565b9050600061349d856136e3565b90506000868152602081815260408083206001600160a01b038c168452909152902054858110156134e05760405162461bcd60e51b8152600401610ad690614432565b6000878152602081815260408083206001600160a01b038d8116855292528083208985039055908a1682528120805488929061351d9084906141fd565b909155505060408051888152602081018890526001600160a01b03808b16928c821692918816917fc3d58168c5ae7397731d063d5bbf3d657854427343f4c083240f7aacaa2d0f62910160405180910390a461357d848a8a8a8a8a61372e565b505050505050505050565b6001600160a01b0384163b15612f955760405163bc197c8160e01b81526001600160a01b0385169063bc197c81906135cc90899089908890889088906004016144a1565b6020604051808303816000875af1925050508015613607575060408051601f3d908101601f19168201909252613604918101906144ff565b60015b6136b35761361361451c565b806308c379a00361364c5750613627614538565b80613632575061364e565b8060405162461bcd60e51b8152600401610ad69190613b51565b505b60405162461bcd60e51b815260206004820152603460248201527f455243313135353a207472616e7366657220746f206e6f6e2d455243313135356044820152732932b1b2b4bb32b91034b6b83632b6b2b73a32b960611b6064820152608401610ad6565b6001600160e01b0319811663bc197c8160e01b146130a85760405162461bcd60e51b8152600401610ad6906145c1565b6040805160018082528183019092526060916000919060208083019080368337019050509050828160008151811061371d5761371d614210565b602090810291909101015292915050565b6001600160a01b0384163b15612f955760405163f23a6e6160e01b81526001600160a01b0385169063f23a6e61906137729089908990889088908890600401614609565b6020604051808303816000875af19250505080156137ad575060408051601f3d908101601f191682019092526137aa918101906144ff565b60015b6137b95761361361451c565b6001600160e01b0319811663f23a6e6160e01b146130a85760405162461bcd60e51b8152600401610ad6906145c1565b5080546137f590614085565b6000825580601f10613805575050565b601f01602090049060005260206000209081019061269691906138d9565b8280548282559060005260206000209060050281019282156138c95760005260206000209160050282015b828111156138c957828280613863838261464e565b506001818101906138769084018261464e565b506002818101906138899084018261464e565b5060038281015490820180546001600160a01b0319166001600160a01b03909216919091179055600491820154910155600592830192919091019061384e565b506138d59291506138ee565b5090565b5b808211156138d557600081556001016138da565b808211156138d557600061390282826137e9565b6139106001830160006137e9565b61391e6002830160006137e9565b506003810180546001600160a01b0319169055600060048201556005016138ee565b6001600160a01b038116811461269657600080fd5b6000806040838503121561396857600080fd5b823561397381613940565b946020939093013593505050565b6001600160e01b03198116811461269657600080fd5b6000602082840312156139a957600080fd5b81356139b481613981565b9392505050565b634e487b7160e01b600052604160045260246000fd5b601f8201601f191681016001600160401b03811182821017156139f6576139f66139bb565b6040525050565b60006001600160401b03821115613a1657613a166139bb565b50601f01601f191660200190565b600082601f830112613a3557600080fd5b8135613a40816139fd565b604051613a4d82826139d1565b828152856020848701011115613a6257600080fd5b82602086016020830137600092810160200192909252509392505050565b60008060408385031215613a9357600080fd5b8235915060208301356001600160401b03811115613ab057600080fd5b613abc85828601613a24565b9150509250929050565b60008060408385031215613ad957600080fd5b50508035926020909101359150565b600060208284031215613afa57600080fd5b5035919050565b60005b83811015613b1c578181015183820152602001613b04565b50506000910152565b60008151808452613b3d816020860160208601613b01565b601f01601f19169290920160200192915050565b6020815260006139b46020830184613b25565b600060208284031215613b7657600080fd5b81356139b481613940565b600080600060608486031215613b9657600080fd5b8335613ba181613940565b95602085013595506040909401359392505050565b60a081526000613bc960a0830188613b25565b8281036020840152613bdb8188613b25565b90508281036040840152613bef8187613b25565b6001600160a01b039590951660608401525050608001529392505050565b60006001600160401b03821115613c2657613c266139bb565b5060051b60200190565b600082601f830112613c4157600080fd5b81356020613c4e82613c0d565b604051613c5b82826139d1565b83815260059390931b8501820192828101915086841115613c7b57600080fd5b8286015b84811015613c9f578035613c9281613940565b8352918301918301613c7f565b509695505050505050565b600060208284031215613cbc57600080fd5b81356001600160401b03811115613cd257600080fd5b613cde84828501613c30565b949350505050565b60008060408385031215613cf957600080fd5b823591506020830135613d0b81613940565b809150509250929050565b86815285602082015284604082015260c060608201526000613d3b60c0830186613b25565b6001600160a01b039490941660808301525060a00152949350505050565b600082601f830112613d6a57600080fd5b81356020613d7782613c0d565b604051613d8482826139d1565b83815260059390931b8501820192828101915086841115613da457600080fd5b8286015b84811015613c9f5780358352918301918301613da8565b600080600080600060a08688031215613dd757600080fd5b8535613de281613940565b94506020860135613df281613940565b935060408601356001600160401b0380821115613e0e57600080fd5b613e1a89838a01613d59565b94506060880135915080821115613e3057600080fd5b613e3c89838a01613d59565b93506080880135915080821115613e5257600080fd5b50613e5f88828901613a24565b9150509295509295909350565b60008060408385031215613e7f57600080fd5b82356001600160401b0380821115613e9657600080fd5b613ea286838701613c30565b93506020850135915080821115613eb857600080fd5b50613abc85828601613d59565b600081518084526020808501945080840160005b83811015613ef557815187529582019590820190600101613ed9565b509495945050505050565b6020815260006139b46020830184613ec5565b801515811461269657600080fd5b60008060408385031215613f3457600080fd5b8235613f3f81613940565b91506020830135613d0b81613f13565b600080600060608486031215613f6457600080fd5b83356001600160401b0380821115613f7b57600080fd5b613f8787838801613a24565b94506020860135915080821115613f9d57600080fd5b613fa987838801613a24565b93506040860135915080821115613fbf57600080fd5b50613fcc86828701613a24565b9150509250925092565b60008060408385031215613fe957600080fd5b8235613ff481613940565b91506020830135613d0b81613940565b600080600080600060a0868803121561401c57600080fd5b853561402781613940565b9450602086013561403781613940565b9350604086013592506060860135915060808601356001600160401b0381111561406057600080fd5b613e5f88828901613a24565b60006020828403121561407e57600080fd5b5051919050565b600181811c9082168061409957607f821691505b6020821081036140b957634e487b7160e01b600052602260045260246000fd5b50919050565b601f821115611c0457600081815260208120601f850160051c810160208610156140e65750805b601f850160051c820191505b81811015612f95578281556001016140f2565b81516001600160401b0381111561411e5761411e6139bb565b6141328161412c8454614085565b846140bf565b602080601f831160018114614167576000841561414f5750858301515b600019600386901b1c1916600185901b178555612f95565b600085815260208120601f198616915b8281101561419657888601518255948401946001909101908401614177565b50858210156141b45787850151600019600388901b60f8161c191681555b5050505050600190811b01905550565b6020808252600990820152686e6f2061636365737360b81b604082015260600190565b634e487b7160e01b600052601160045260246000fd5b80820180821115610b0257610b026141e7565b634e487b7160e01b600052603260045260246000fd5b600060018201614238576142386141e7565b5060010190565b60208082526017908201527f43616e6e6f7420736574207a65726f2061646472657373000000000000000000604082015260600190565b6020808252602f908201527f455243313135353a2063616c6c6572206973206e6f7420746f6b656e206f776e60408201526e195c881b9bdc88185c1c1c9bdd9959608a1b606082015260800190565b81810381811115610b0257610b026141e7565b634e487b7160e01b600052603160045260246000fd5b600082601f8301126142ff57600080fd5b815161430a816139fd565b60405161431782826139d1565b82815285602084870101111561432c57600080fd5b61433d836020830160208801613b01565b95945050505050565b600080600080600060a0868803121561435e57600080fd5b85519450602086015161437081613940565b60408701519094506001600160401b038082111561438d57600080fd5b61439989838a016142ee565b945060608801519150808211156143af57600080fd5b506143bc888289016142ee565b925050608086015190509295509295909350565b6000602082840312156143e257600080fd5b81516139b481613f13565b60208082526025908201527f455243313135353a207472616e7366657220746f20746865207a65726f206164604082015264647265737360d81b606082015260800190565b6020808252602a908201527f455243313135353a20696e73756666696369656e742062616c616e636520666f60408201526939103a3930b739b332b960b11b606082015260800190565b60408152600061448f6040830185613ec5565b828103602084015261433d8185613ec5565b6001600160a01b0386811682528516602082015260a0604082018190526000906144cd90830186613ec5565b82810360608401526144df8186613ec5565b905082810360808401526144f38185613b25565b98975050505050505050565b60006020828403121561451157600080fd5b81516139b481613981565b600060033d11156145355760046000803e5060005160e01c5b90565b600060443d10156145465790565b6040516003193d81016004833e81513d6001600160401b03816024840111818411171561457557505050505090565b828501915081518181111561458d5750505050505090565b843d87010160208285010111156145a75750505050505090565b6145b6602082860101876139d1565b509095945050505050565b60208082526028908201527f455243313135353a204552433131353552656365697665722072656a656374656040820152676420746f6b656e7360c01b606082015260800190565b6001600160a01b03868116825285166020820152604081018490526060810183905260a06080820181905260009061464390830184613b25565b979650505050505050565b818103614659575050565b6146638254614085565b6001600160401b0381111561467a5761467a6139bb565b6146888161412c8454614085565b6000601f8211600181146146bc57600083156146a45750848201545b600019600385901b1c1916600184901b178455611640565b600085815260209020601f19841690600086815260209020845b838110156146f657828601548255600195860195909101906020016146d6565b50858310156141b45793015460001960f8600387901b161c19169092555050600190811b0190555056fea26469706673582212204d203906e84ea541662d4c245e1d84f31e240e840c6ed9b231fc64e73e09eade64736f6c63430008120033",
			"opcodes": "PUSH1 0x80 PUSH1 0x40 MSTORE CALLVALUE DUP1 ISZERO PUSH3 0x11 JUMPI PUSH1 0x0 DUP1 REVERT JUMPDEST POP PUSH1 0x40 MLOAD PUSH3 0x4BDD CODESIZE SUB DUP1 PUSH3 0x4BDD DUP4 CODECOPY DUP2 ADD PUSH1 0x40 DUP2 SWAP1 MSTORE PUSH3 0x34 SWAP2 PUSH3 0x2D4 JUMP JUMPDEST PUSH1 0x40 DUP1 MLOAD DUP1 DUP3 ADD SWAP1 SWAP2 MSTORE PUSH1 0x3 DUP2 MSTORE PUSH3 0x757269 PUSH1 0xE8 SHL PUSH1 0x20 DUP3 ADD MSTORE PUSH3 0x59 DUP2 PUSH3 0xF0 JUMP JUMPDEST POP PUSH3 0x65 CALLER PUSH3 0x102 JUMP JUMPDEST PUSH8 0x8AC7230489E80000 PUSH1 0x8 SSTORE PUSH1 0x9 DUP1 SLOAD PUSH1 0x1 PUSH1 0x1 PUSH1 0xA0 SHL SUB NOT AND PUSH1 0x1 PUSH1 0x1 PUSH1 0xA0 SHL SUB DUP4 AND OR SWAP1 SSTORE PUSH3 0xAB PUSH20 0xEFB981C48870FE757850E993B77810A887C37B14 PUSH3 0x154 JUMP JUMPDEST PUSH3 0xCA PUSH20 0x87A0941BBDE86CF5C5B3DC68DA4A2018A49BFAAB PUSH3 0x1D4 JUMP JUMPDEST PUSH3 0xE9 PUSH20 0xA8FCF03CDEC12CF19767D12AC4C627FF6E5D1C21 PUSH3 0x24A JUMP JUMPDEST POP PUSH3 0x477 JUMP JUMPDEST PUSH1 0x2 PUSH3 0xFE DUP3 DUP3 PUSH3 0x3AB JUMP JUMPDEST POP POP JUMP JUMPDEST PUSH1 0x3 DUP1 SLOAD PUSH1 0x1 PUSH1 0x1 PUSH1 0xA0 SHL SUB DUP4 DUP2 AND PUSH1 0x1 PUSH1 0x1 PUSH1 0xA0 SHL SUB NOT DUP4 AND DUP2 OR SWAP1 SWAP4 SSTORE PUSH1 0x40 MLOAD SWAP2 AND SWAP2 SWAP1 DUP3 SWAP1 PUSH32 0x8BE0079C531659141344CD1FD0A4F28419497F9722A3DAAFE3B4186F6B6457E0 SWAP1 PUSH1 0x0 SWAP1 LOG3 POP POP JUMP JUMPDEST PUSH3 0x15E PUSH3 0x276 JUMP JUMPDEST PUSH1 0xF SLOAD PUSH1 0x1 PUSH1 0xA0 SHL SWAP1 DIV PUSH1 0xFF AND ISZERO PUSH3 0x1B2 JUMPI PUSH1 0x40 MLOAD PUSH3 0x461BCD PUSH1 0xE5 SHL DUP2 MSTORE PUSH1 0x20 PUSH1 0x4 DUP3 ADD MSTORE PUSH1 0x11 PUSH1 0x24 DUP3 ADD MSTORE PUSH17 0x636F6E7472616374206973207061757365 PUSH1 0x78 SHL PUSH1 0x44 DUP3 ADD MSTORE PUSH1 0x64 ADD JUMPDEST PUSH1 0x40 MLOAD DUP1 SWAP2 SUB SWAP1 REVERT JUMPDEST PUSH1 0x5 DUP1 SLOAD PUSH1 0x1 PUSH1 0x1 PUSH1 0xA0 SHL SUB NOT AND PUSH1 0x1 PUSH1 0x1 PUSH1 0xA0 SHL SUB SWAP3 SWAP1 SWAP3 AND SWAP2 SWAP1 SWAP2 OR SWAP1 SSTORE JUMP JUMPDEST PUSH3 0x1DE PUSH3 0x276 JUMP JUMPDEST PUSH1 0x1 PUSH1 0x1 PUSH1 0xA0 SHL SUB DUP2 AND PUSH3 0x228 JUMPI PUSH1 0x40 MLOAD PUSH3 0x461BCD PUSH1 0xE5 SHL DUP2 MSTORE PUSH1 0x20 PUSH1 0x4 DUP3 ADD MSTORE PUSH1 0xF PUSH1 0x24 DUP3 ADD MSTORE PUSH15 0x696E76616C69642073657474696E67 PUSH1 0x88 SHL PUSH1 0x44 DUP3 ADD MSTORE PUSH1 0x64 ADD PUSH3 0x1A9 JUMP JUMPDEST PUSH1 0xE DUP1 SLOAD PUSH1 0x1 PUSH1 0x1 PUSH1 0xA0 SHL SUB NOT AND PUSH1 0x1 PUSH1 0x1 PUSH1 0xA0 SHL SUB SWAP3 SWAP1 SWAP3 AND SWAP2 SWAP1 SWAP2 OR SWAP1 SSTORE JUMP JUMPDEST PUSH3 0x254 PUSH3 0x276 JUMP JUMPDEST PUSH1 0xF DUP1 SLOAD PUSH1 0x1 PUSH1 0x1 PUSH1 0xA0 SHL SUB NOT AND PUSH1 0x1 PUSH1 0x1 PUSH1 0xA0 SHL SUB SWAP3 SWAP1 SWAP3 AND SWAP2 SWAP1 SWAP2 OR SWAP1 SSTORE JUMP JUMPDEST PUSH1 0x3 SLOAD PUSH1 0x1 PUSH1 0x1 PUSH1 0xA0 SHL SUB AND CALLER EQ PUSH3 0x2D2 JUMPI PUSH1 0x40 MLOAD PUSH3 0x461BCD PUSH1 0xE5 SHL DUP2 MSTORE PUSH1 0x20 PUSH1 0x4 DUP3 ADD DUP2 SWAP1 MSTORE PUSH1 0x24 DUP3 ADD MSTORE PUSH32 0x4F776E61626C653A2063616C6C6572206973206E6F7420746865206F776E6572 PUSH1 0x44 DUP3 ADD MSTORE PUSH1 0x64 ADD PUSH3 0x1A9 JUMP JUMPDEST JUMP JUMPDEST PUSH1 0x0 PUSH1 0x20 DUP3 DUP5 SUB SLT ISZERO PUSH3 0x2E7 JUMPI PUSH1 0x0 DUP1 REVERT JUMPDEST DUP2 MLOAD PUSH1 0x1 PUSH1 0x1 PUSH1 0xA0 SHL SUB DUP2 AND DUP2 EQ PUSH3 0x2FF JUMPI PUSH1 0x0 DUP1 REVERT JUMPDEST SWAP4 SWAP3 POP POP POP JUMP JUMPDEST PUSH4 0x4E487B71 PUSH1 0xE0 SHL PUSH1 0x0 MSTORE PUSH1 0x41 PUSH1 0x4 MSTORE PUSH1 0x24 PUSH1 0x0 REVERT JUMPDEST PUSH1 0x1 DUP2 DUP2 SHR SWAP1 DUP3 AND DUP1 PUSH3 0x331 JUMPI PUSH1 0x7F DUP3 AND SWAP2 POP JUMPDEST PUSH1 0x20 DUP3 LT DUP2 SUB PUSH3 0x352 JUMPI PUSH4 0x4E487B71 PUSH1 0xE0 SHL PUSH1 0x0 MSTORE PUSH1 0x22 PUSH1 0x4 MSTORE PUSH1 0x24 PUSH1 0x0 REVERT JUMPDEST POP SWAP2 SWAP1 POP JUMP JUMPDEST PUSH1 0x1F DUP3 GT ISZERO PUSH3 0x3A6 JUMPI PUSH1 0x0 DUP2 DUP2 MSTORE PUSH1 0x20 DUP2 KECCAK256 PUSH1 0x1F DUP6 ADD PUSH1 0x5 SHR DUP2 ADD PUSH1 0x20 DUP7 LT ISZERO PUSH3 0x381 JUMPI POP DUP1 JUMPDEST PUSH1 0x1F DUP6 ADD PUSH1 0x5 SHR DUP3 ADD SWAP2 POP JUMPDEST DUP2 DUP2 LT ISZERO PUSH3 0x3A2 JUMPI DUP3 DUP2 SSTORE PUSH1 0x1 ADD PUSH3 0x38D JUMP JUMPDEST POP POP POP JUMPDEST POP POP POP JUMP JUMPDEST DUP2 MLOAD PUSH1 0x1 PUSH1 0x1 PUSH1 0x40 SHL SUB DUP2 GT ISZERO PUSH3 0x3C7 JUMPI PUSH3 0x3C7 PUSH3 0x306 JUMP JUMPDEST PUSH3 0x3DF DUP2 PUSH3 0x3D8 DUP5 SLOAD PUSH3 0x31C JUMP JUMPDEST DUP5 PUSH3 0x358 JUMP JUMPDEST PUSH1 0x20 DUP1 PUSH1 0x1F DUP4 GT PUSH1 0x1 DUP2 EQ PUSH3 0x417 JUMPI PUSH1 0x0 DUP5 ISZERO PUSH3 0x3FE JUMPI POP DUP6 DUP4 ADD MLOAD JUMPDEST PUSH1 0x0 NOT PUSH1 0x3 DUP7 SWAP1 SHL SHR NOT AND PUSH1 0x1 DUP6 SWAP1 SHL OR DUP6 SSTORE PUSH3 0x3A2 JUMP JUMPDEST PUSH1 0x0 DUP6 DUP2 MSTORE PUSH1 0x20 DUP2 KECCAK256 PUSH1 0x1F NOT DUP7 AND SWAP2 JUMPDEST DUP3 DUP2 LT ISZERO PUSH3 0x448 JUMPI DUP9 DUP7 ADD MLOAD DUP3 SSTORE SWAP5 DUP5 ADD SWAP5 PUSH1 0x1 SWAP1 SWAP2 ADD SWAP1 DUP5 ADD PUSH3 0x427 JUMP JUMPDEST POP DUP6 DUP3 LT ISZERO PUSH3 0x467 JUMPI DUP8 DUP6 ADD MLOAD PUSH1 0x0 NOT PUSH1 0x3 DUP9 SWAP1 SHL PUSH1 0xF8 AND SHR NOT AND DUP2 SSTORE JUMPDEST POP POP POP POP POP PUSH1 0x1 SWAP1 DUP2 SHL ADD SWAP1 SSTORE POP JUMP JUMPDEST PUSH2 0x4756 DUP1 PUSH3 0x487 PUSH1 0x0 CODECOPY PUSH1 0x0 RETURN INVALID PUSH1 0x80 PUSH1 0x40 MSTORE CALLVALUE DUP1 ISZERO PUSH2 0x10 JUMPI PUSH1 0x0 DUP1 REVERT JUMPDEST POP PUSH1 0x4 CALLDATASIZE LT PUSH2 0x3F0 JUMPI PUSH1 0x0 CALLDATALOAD PUSH1 0xE0 SHR DUP1 PUSH4 0x8DE8A925 GT PUSH2 0x215 JUMPI DUP1 PUSH4 0xD49D5181 GT PUSH2 0x125 JUMPI DUP1 PUSH4 0xE985E9C5 GT PUSH2 0xB8 JUMPI DUP1 PUSH4 0xF6076936 GT PUSH2 0x87 JUMPI DUP1 PUSH4 0xF6076936 EQ PUSH2 0x9F7 JUMPI DUP1 PUSH4 0xF7D0E04B EQ PUSH2 0xA0A JUMPI DUP1 PUSH4 0xFB7E9463 EQ PUSH2 0xA1D JUMPI DUP1 PUSH4 0xFC0C917A EQ PUSH2 0xA30 JUMPI DUP1 PUSH4 0xFD4329F4 EQ PUSH2 0xA5C JUMPI PUSH1 0x0 DUP1 REVERT JUMPDEST DUP1 PUSH4 0xE985E9C5 EQ PUSH2 0x982 JUMPI DUP1 PUSH4 0xF1127C2A EQ PUSH2 0x9BE JUMPI DUP1 PUSH4 0xF242432A EQ PUSH2 0x9D1 JUMPI DUP1 PUSH4 0xF2FDE38B EQ PUSH2 0x9E4 JUMPI PUSH1 0x0 DUP1 REVERT JUMPDEST DUP1 PUSH4 0xDE4F65EF GT PUSH2 0xF4 JUMPI DUP1 PUSH4 0xDE4F65EF EQ PUSH2 0x936 JUMPI DUP1 PUSH4 0xDF9D19F7 EQ PUSH2 0x949 JUMPI DUP1 PUSH4 0xE8CFC3F1 EQ PUSH2 0x95C JUMPI DUP1 PUSH4 0xE9112E9D EQ PUSH2 0x96F JUMPI PUSH1 0x0 DUP1 REVERT JUMPDEST DUP1 PUSH4 0xD49D5181 EQ PUSH2 0x8A2 JUMPI DUP1 PUSH4 0xD5D4031E EQ PUSH2 0x8AB JUMPI DUP1 PUSH4 0xD6C6111E EQ PUSH2 0x8E8 JUMPI DUP1 PUSH4 0xDC2AE321 EQ PUSH2 0x923 JUMPI PUSH1 0x0 DUP1 REVERT JUMPDEST DUP1 PUSH4 0xB3EC59A7 GT PUSH2 0x1A8 JUMPI DUP1 PUSH4 0xC2F386F9 GT PUSH2 0x177 JUMPI DUP1 PUSH4 0xC2F386F9 EQ PUSH2 0x822 JUMPI DUP1 PUSH4 0xC52164C6 EQ PUSH2 0x82B JUMPI DUP1 PUSH4 0xC7895268 EQ PUSH2 0x83E JUMPI DUP1 PUSH4 0xCC7EF800 EQ PUSH2 0x861 JUMPI DUP1 PUSH4 0xCCC9660C EQ PUSH2 0x874 JUMPI PUSH1 0x0 DUP1 REVERT JUMPDEST DUP1 PUSH4 0xB3EC59A7 EQ PUSH2 0x7E1 JUMPI DUP1 PUSH4 0xB8D1452F EQ PUSH2 0x7E9 JUMPI DUP1 PUSH4 0xC0191114 EQ PUSH2 0x7FC JUMPI DUP1 PUSH4 0xC1CA1255 EQ PUSH2 0x80F JUMPI PUSH1 0x0 DUP1 REVERT JUMPDEST DUP1 PUSH4 0xA27D38DA GT PUSH2 0x1E4 JUMPI DUP1 PUSH4 0xA27D38DA EQ PUSH2 0x754 JUMPI DUP1 PUSH4 0xA711A8E6 EQ PUSH2 0x767 JUMPI DUP1 PUSH4 0xB12EB5AD EQ PUSH2 0x7AE JUMPI DUP1 PUSH4 0xB3D3F7F6 EQ PUSH2 0x7CE JUMPI PUSH1 0x0 DUP1 REVERT JUMPDEST DUP1 PUSH4 0x8DE8A925 EQ PUSH2 0x702 JUMPI DUP1 PUSH4 0x990DB1FC EQ PUSH2 0x725 JUMPI DUP1 PUSH4 0xA168C2EF EQ PUSH2 0x72E JUMPI DUP1 PUSH4 0xA22CB465 EQ PUSH2 0x741 JUMPI PUSH1 0x0 DUP1 REVERT JUMPDEST DUP1 PUSH4 0x2EB2C2D6 GT PUSH2 0x310 JUMPI DUP1 PUSH4 0x4F769CF6 GT PUSH2 0x2A3 JUMPI DUP1 PUSH4 0x715018A6 GT PUSH2 0x272 JUMPI DUP1 PUSH4 0x715018A6 EQ PUSH2 0x692 JUMPI DUP1 PUSH4 0x717CF8E7 EQ PUSH2 0x69A JUMPI DUP1 PUSH4 0x78ACFF69 EQ PUSH2 0x6A2 JUMPI DUP1 PUSH4 0x7BBD6E60 EQ PUSH2 0x6C5 JUMPI DUP1 PUSH4 0x8DA5CB5B EQ PUSH2 0x6F1 JUMPI PUSH1 0x0 DUP1 REVERT JUMPDEST DUP1 PUSH4 0x4F769CF6 EQ PUSH2 0x646 JUMPI DUP1 PUSH4 0x540AAACF EQ PUSH2 0x659 JUMPI DUP1 PUSH4 0x57824739 EQ PUSH2 0x66C JUMPI DUP1 PUSH4 0x6044C216 EQ PUSH2 0x67F JUMPI PUSH1 0x0 DUP1 REVERT JUMPDEST DUP1 PUSH4 0x439766CE GT PUSH2 0x2DF JUMPI DUP1 PUSH4 0x439766CE EQ PUSH2 0x60E JUMPI DUP1 PUSH4 0x47832103 EQ PUSH2 0x616 JUMPI DUP1 PUSH4 0x4E1273F4 EQ PUSH2 0x61E JUMPI DUP1 PUSH4 0x4F447464 EQ PUSH2 0x63E JUMPI PUSH1 0x0 DUP1 REVERT JUMPDEST DUP1 PUSH4 0x2EB2C2D6 EQ PUSH2 0x5CD JUMPI DUP1 PUSH4 0x31775870 EQ PUSH2 0x5E0 JUMPI DUP1 PUSH4 0x35434BD0 EQ PUSH2 0x5E8 JUMPI DUP1 PUSH4 0x3FC8CEF3 EQ PUSH2 0x5FB JUMPI PUSH1 0x0 DUP1 REVERT JUMPDEST DUP1 PUSH4 0x1D403171 GT PUSH2 0x388 JUMPI DUP1 PUSH4 0x2862B986 GT PUSH2 0x357 JUMPI DUP1 PUSH4 0x2862B986 EQ PUSH2 0x562 JUMPI DUP1 PUSH4 0x2B865618 EQ PUSH2 0x575 JUMPI DUP1 PUSH4 0x2D45FCD1 EQ PUSH2 0x595 JUMPI DUP1 PUSH4 0x2E4B7B36 EQ PUSH2 0x5A8 JUMPI PUSH1 0x0 DUP1 REVERT JUMPDEST DUP1 PUSH4 0x1D403171 EQ PUSH2 0x4F8 JUMPI DUP1 PUSH4 0x200D2ED2 EQ PUSH2 0x518 JUMPI DUP1 PUSH4 0x225D29A1 EQ PUSH2 0x52C JUMPI DUP1 PUSH4 0x27CAD2EF EQ PUSH2 0x54F JUMPI PUSH1 0x0 DUP1 REVERT JUMPDEST DUP1 PUSH4 0xE89341C GT PUSH2 0x3C4 JUMPI DUP1 PUSH4 0xE89341C EQ PUSH2 0x466 JUMPI DUP1 PUSH4 0x1408A583 EQ PUSH2 0x486 JUMPI DUP1 PUSH4 0x186C8058 EQ PUSH2 0x4A9 JUMPI DUP1 PUSH4 0x1A5EF71C EQ PUSH2 0x4CD JUMPI PUSH1 0x0 DUP1 REVERT JUMPDEST DUP1 PUSH3 0xFDD58E EQ PUSH2 0x3F5 JUMPI DUP1 PUSH4 0x1FFC9A7 EQ PUSH2 0x41B JUMPI DUP1 PUSH4 0x9FD8D30 EQ PUSH2 0x43E JUMPI DUP1 PUSH4 0xCFC198B EQ PUSH2 0x453 JUMPI JUMPDEST PUSH1 0x0 DUP1 REVERT JUMPDEST PUSH2 0x408 PUSH2 0x403 CALLDATASIZE PUSH1 0x4 PUSH2 0x3955 JUMP JUMPDEST PUSH2 0xA6F JUMP JUMPDEST PUSH1 0x40 MLOAD SWAP1 DUP2 MSTORE PUSH1 0x20 ADD JUMPDEST PUSH1 0x40 MLOAD DUP1 SWAP2 SUB SWAP1 RETURN JUMPDEST PUSH2 0x42E PUSH2 0x429 CALLDATASIZE PUSH1 0x4 PUSH2 0x3997 JUMP JUMPDEST PUSH2 0xB08 JUMP JUMPDEST PUSH1 0x40 MLOAD SWAP1 ISZERO ISZERO DUP2 MSTORE PUSH1 0x20 ADD PUSH2 0x412 JUMP JUMPDEST PUSH2 0x451 PUSH2 0x44C CALLDATASIZE PUSH1 0x4 PUSH2 0x3A80 JUMP JUMPDEST PUSH2 0xB58 JUMP JUMPDEST STOP JUMPDEST PUSH2 0x451 PUSH2 0x461 CALLDATASIZE PUSH1 0x4 PUSH2 0x3AC6 JUMP JUMPDEST PUSH2 0xDEC JUMP JUMPDEST PUSH2 0x479 PUSH2 0x474 CALLDATASIZE PUSH1 0x4 PUSH2 0x3AE8 JUMP JUMPDEST PUSH2 0xF2B JUMP JUMPDEST PUSH1 0x40 MLOAD PUSH2 0x412 SWAP2 SWAP1 PUSH2 0x3B51 JUMP JUMPDEST PUSH2 0x42E PUSH2 0x494 CALLDATASIZE PUSH1 0x4 PUSH2 0x3B64 JUMP JUMPDEST PUSH1 0x1B PUSH1 0x20 MSTORE PUSH1 0x0 SWAP1 DUP2 MSTORE PUSH1 0x40 SWAP1 KECCAK256 SLOAD PUSH1 0xFF AND DUP2 JUMP JUMPDEST PUSH2 0x4BC PUSH2 0x4B7 CALLDATASIZE PUSH1 0x4 PUSH2 0x3B81 JUMP JUMPDEST PUSH2 0xFBF JUMP JUMPDEST PUSH1 0x40 MLOAD PUSH2 0x412 SWAP6 SWAP5 SWAP4 SWAP3 SWAP2 SWAP1 PUSH2 0x3BB6 JUMP JUMPDEST PUSH1 0x5 SLOAD PUSH2 0x4E0 SWAP1 PUSH1 0x1 PUSH1 0x1 PUSH1 0xA0 SHL SUB AND DUP2 JUMP JUMPDEST PUSH1 0x40 MLOAD PUSH1 0x1 PUSH1 0x1 PUSH1 0xA0 SHL SUB SWAP1 SWAP2 AND DUP2 MSTORE PUSH1 0x20 ADD PUSH2 0x412 JUMP JUMPDEST PUSH2 0x408 PUSH2 0x506 CALLDATASIZE PUSH1 0x4 PUSH2 0x3AE8 JUMP JUMPDEST PUSH1 0x0 SWAP1 DUP2 MSTORE PUSH1 0x19 PUSH1 0x20 MSTORE PUSH1 0x40 SWAP1 KECCAK256 SLOAD SWAP1 JUMP JUMPDEST PUSH1 0xF SLOAD PUSH2 0x42E SWAP1 PUSH1 0x1 PUSH1 0xA0 SHL SWAP1 DIV PUSH1 0xFF AND DUP2 JUMP JUMPDEST PUSH2 0x42E PUSH2 0x53A CALLDATASIZE PUSH1 0x4 PUSH2 0x3B64 JUMP JUMPDEST PUSH1 0x17 PUSH1 0x20 MSTORE PUSH1 0x0 SWAP1 DUP2 MSTORE PUSH1 0x40 SWAP1 KECCAK256 SLOAD PUSH1 0xFF AND DUP2 JUMP JUMPDEST PUSH2 0x451 PUSH2 0x55D CALLDATASIZE PUSH1 0x4 PUSH2 0x3CAA JUMP JUMPDEST PUSH2 0x11C1 JUMP JUMPDEST PUSH2 0x451 PUSH2 0x570 CALLDATASIZE PUSH1 0x4 PUSH2 0x3CE6 JUMP JUMPDEST PUSH2 0x137A JUMP JUMPDEST PUSH2 0x408 PUSH2 0x583 CALLDATASIZE PUSH1 0x4 PUSH2 0x3AE8 JUMP JUMPDEST PUSH1 0x0 SWAP1 DUP2 MSTORE PUSH1 0x18 PUSH1 0x20 MSTORE PUSH1 0x40 SWAP1 KECCAK256 SLOAD SWAP1 JUMP JUMPDEST PUSH2 0x451 PUSH2 0x5A3 CALLDATASIZE PUSH1 0x4 PUSH2 0x3CE6 JUMP JUMPDEST PUSH2 0x1401 JUMP JUMPDEST PUSH2 0x5BB PUSH2 0x5B6 CALLDATASIZE PUSH1 0x4 PUSH2 0x3B64 JUMP JUMPDEST PUSH2 0x14D4 JUMP JUMPDEST PUSH1 0x40 MLOAD PUSH2 0x412 SWAP7 SWAP6 SWAP5 SWAP4 SWAP3 SWAP2 SWAP1 PUSH2 0x3D16 JUMP JUMPDEST PUSH2 0x451 PUSH2 0x5DB CALLDATASIZE PUSH1 0x4 PUSH2 0x3DBF JUMP JUMPDEST PUSH2 0x159D JUMP JUMPDEST PUSH1 0xB SLOAD PUSH2 0x408 JUMP JUMPDEST PUSH2 0x4E0 PUSH2 0x5F6 CALLDATASIZE PUSH1 0x4 PUSH2 0x3AC6 JUMP JUMPDEST PUSH2 0x1647 JUMP JUMPDEST PUSH1 0x9 SLOAD PUSH2 0x4E0 SWAP1 PUSH1 0x1 PUSH1 0x1 PUSH1 0xA0 SHL SUB AND DUP2 JUMP JUMPDEST PUSH2 0x451 PUSH2 0x167F JUMP JUMPDEST PUSH1 0x1C SLOAD PUSH2 0x408 JUMP JUMPDEST PUSH2 0x631 PUSH2 0x62C CALLDATASIZE PUSH1 0x4 PUSH2 0x3E6C JUMP JUMPDEST PUSH2 0x16A8 JUMP JUMPDEST PUSH1 0x40 MLOAD PUSH2 0x412 SWAP2 SWAP1 PUSH2 0x3F00 JUMP JUMPDEST PUSH1 0xA SLOAD PUSH2 0x408 JUMP JUMPDEST PUSH2 0x4E0 PUSH2 0x654 CALLDATASIZE PUSH1 0x4 PUSH2 0x3AE8 JUMP JUMPDEST PUSH2 0x17D1 JUMP JUMPDEST PUSH2 0x451 PUSH2 0x667 CALLDATASIZE PUSH1 0x4 PUSH2 0x3AE8 JUMP JUMPDEST PUSH2 0x17FB JUMP JUMPDEST PUSH2 0x451 PUSH2 0x67A CALLDATASIZE PUSH1 0x4 PUSH2 0x3CE6 JUMP JUMPDEST PUSH2 0x1808 JUMP JUMPDEST PUSH2 0x451 PUSH2 0x68D CALLDATASIZE PUSH1 0x4 PUSH2 0x3CE6 JUMP JUMPDEST PUSH2 0x1A22 JUMP JUMPDEST PUSH2 0x451 PUSH2 0x1C09 JUMP JUMPDEST PUSH1 0xC SLOAD PUSH2 0x408 JUMP JUMPDEST PUSH2 0x42E PUSH2 0x6B0 CALLDATASIZE PUSH1 0x4 PUSH2 0x3B64 JUMP JUMPDEST PUSH1 0x11 PUSH1 0x20 MSTORE PUSH1 0x0 SWAP1 DUP2 MSTORE PUSH1 0x40 SWAP1 KECCAK256 SLOAD PUSH1 0xFF AND DUP2 JUMP JUMPDEST PUSH2 0x42E PUSH2 0x6D3 CALLDATASIZE PUSH1 0x4 PUSH2 0x3B64 JUMP JUMPDEST PUSH1 0x1 PUSH1 0x1 PUSH1 0xA0 SHL SUB AND PUSH1 0x0 SWAP1 DUP2 MSTORE PUSH1 0x1B PUSH1 0x20 MSTORE PUSH1 0x40 SWAP1 KECCAK256 SLOAD PUSH1 0xFF AND SWAP1 JUMP JUMPDEST PUSH1 0x3 SLOAD PUSH1 0x1 PUSH1 0x1 PUSH1 0xA0 SHL SUB AND PUSH2 0x4E0 JUMP JUMPDEST PUSH2 0x42E PUSH2 0x710 CALLDATASIZE PUSH1 0x4 PUSH2 0x3B64 JUMP JUMPDEST PUSH1 0x10 PUSH1 0x20 MSTORE PUSH1 0x0 SWAP1 DUP2 MSTORE PUSH1 0x40 SWAP1 KECCAK256 SLOAD PUSH1 0xFF AND DUP2 JUMP JUMPDEST PUSH2 0x408 PUSH1 0x6 SLOAD DUP2 JUMP JUMPDEST PUSH1 0xF SLOAD PUSH2 0x4E0 SWAP1 PUSH1 0x1 PUSH1 0x1 PUSH1 0xA0 SHL SUB AND DUP2 JUMP JUMPDEST PUSH2 0x451 PUSH2 0x74F CALLDATASIZE PUSH1 0x4 PUSH2 0x3F21 JUMP JUMPDEST PUSH2 0x1C1D JUMP JUMPDEST PUSH2 0x451 PUSH2 0x762 CALLDATASIZE PUSH1 0x4 PUSH2 0x3CE6 JUMP JUMPDEST PUSH2 0x1C28 JUMP JUMPDEST PUSH2 0x77A PUSH2 0x775 CALLDATASIZE PUSH1 0x4 PUSH2 0x3AE8 JUMP JUMPDEST PUSH2 0x1E01 JUMP JUMPDEST PUSH1 0x40 DUP1 MLOAD SWAP6 DUP7 MSTORE PUSH1 0x1 PUSH1 0x1 PUSH1 0xA0 SHL SUB SWAP5 DUP6 AND PUSH1 0x20 DUP8 ADD MSTORE SWAP3 SWAP1 SWAP4 AND SWAP2 DUP5 ADD SWAP2 SWAP1 SWAP2 MSTORE PUSH1 0x60 DUP4 ADD MSTORE PUSH1 0x80 DUP3 ADD MSTORE PUSH1 0xA0 ADD PUSH2 0x412 JUMP JUMPDEST PUSH2 0x408 PUSH2 0x7BC CALLDATASIZE PUSH1 0x4 PUSH2 0x3B64 JUMP JUMPDEST PUSH1 0x13 PUSH1 0x20 MSTORE PUSH1 0x0 SWAP1 DUP2 MSTORE PUSH1 0x40 SWAP1 KECCAK256 SLOAD DUP2 JUMP JUMPDEST PUSH2 0x4BC PUSH2 0x7DC CALLDATASIZE PUSH1 0x4 PUSH2 0x3AE8 JUMP JUMPDEST PUSH2 0x1E4D JUMP JUMPDEST PUSH1 0xD SLOAD PUSH2 0x408 JUMP JUMPDEST PUSH2 0x451 PUSH2 0x7F7 CALLDATASIZE PUSH1 0x4 PUSH2 0x3B64 JUMP JUMPDEST PUSH2 0x1E68 JUMP JUMPDEST PUSH2 0x408 PUSH2 0x80A CALLDATASIZE PUSH1 0x4 PUSH2 0x3B64 JUMP JUMPDEST PUSH2 0x1E92 JUMP JUMPDEST PUSH2 0x451 PUSH2 0x81D CALLDATASIZE PUSH1 0x4 PUSH2 0x3F4F JUMP JUMPDEST PUSH2 0x1F16 JUMP JUMPDEST PUSH2 0x408 PUSH1 0x7 SLOAD DUP2 JUMP JUMPDEST PUSH1 0xE SLOAD PUSH2 0x4E0 SWAP1 PUSH1 0x1 PUSH1 0x1 PUSH1 0xA0 SHL SUB AND DUP2 JUMP JUMPDEST PUSH2 0x42E PUSH2 0x84C CALLDATASIZE PUSH1 0x4 PUSH2 0x3B64 JUMP JUMPDEST PUSH1 0x1A PUSH1 0x20 MSTORE PUSH1 0x0 SWAP1 DUP2 MSTORE PUSH1 0x40 SWAP1 KECCAK256 SLOAD PUSH1 0xFF AND DUP2 JUMP JUMPDEST PUSH2 0x451 PUSH2 0x86F CALLDATASIZE PUSH1 0x4 PUSH2 0x3B64 JUMP JUMPDEST PUSH2 0x2278 JUMP JUMPDEST PUSH2 0x42E PUSH2 0x882 CALLDATASIZE PUSH1 0x4 PUSH2 0x3CE6 JUMP JUMPDEST PUSH1 0x12 PUSH1 0x20 SWAP1 DUP2 MSTORE PUSH1 0x0 SWAP3 DUP4 MSTORE PUSH1 0x40 DUP1 DUP5 KECCAK256 SWAP1 SWAP2 MSTORE SWAP1 DUP3 MSTORE SWAP1 KECCAK256 SLOAD PUSH1 0xFF AND DUP2 JUMP JUMPDEST PUSH2 0x408 PUSH1 0x8 SLOAD DUP2 JUMP JUMPDEST PUSH2 0x8BE PUSH2 0x8B9 CALLDATASIZE PUSH1 0x4 PUSH2 0x3AC6 JUMP JUMPDEST PUSH2 0x22F0 JUMP JUMPDEST PUSH1 0x40 DUP1 MLOAD PUSH1 0x1 PUSH1 0x1 PUSH1 0xA0 SHL SUB SWAP1 SWAP6 AND DUP6 MSTORE PUSH1 0x20 DUP6 ADD SWAP4 SWAP1 SWAP4 MSTORE SWAP2 DUP4 ADD MSTORE PUSH1 0x60 DUP3 ADD MSTORE PUSH1 0x80 ADD PUSH2 0x412 JUMP JUMPDEST PUSH2 0x8FB PUSH2 0x8F6 CALLDATASIZE PUSH1 0x4 PUSH2 0x3AE8 JUMP JUMPDEST PUSH2 0x2340 JUMP JUMPDEST PUSH1 0x40 DUP1 MLOAD SWAP5 DUP6 MSTORE PUSH1 0x1 PUSH1 0x1 PUSH1 0xA0 SHL SUB SWAP1 SWAP4 AND PUSH1 0x20 DUP6 ADD MSTORE SWAP2 DUP4 ADD MSTORE PUSH1 0x60 DUP3 ADD MSTORE PUSH1 0x80 ADD PUSH2 0x412 JUMP JUMPDEST PUSH2 0x4E0 PUSH2 0x931 CALLDATASIZE PUSH1 0x4 PUSH2 0x3AE8 JUMP JUMPDEST PUSH2 0x2383 JUMP JUMPDEST PUSH2 0x4BC PUSH2 0x944 CALLDATASIZE PUSH1 0x4 PUSH2 0x3AE8 JUMP JUMPDEST PUSH2 0x2393 JUMP JUMPDEST PUSH2 0x451 PUSH2 0x957 CALLDATASIZE PUSH1 0x4 PUSH2 0x3AE8 JUMP JUMPDEST PUSH2 0x23C6 JUMP JUMPDEST PUSH2 0x451 PUSH2 0x96A CALLDATASIZE PUSH1 0x4 PUSH2 0x3B64 JUMP JUMPDEST PUSH2 0x23D3 JUMP JUMPDEST PUSH2 0x451 PUSH2 0x97D CALLDATASIZE PUSH1 0x4 PUSH2 0x3AE8 JUMP JUMPDEST PUSH2 0x24CE JUMP JUMPDEST PUSH2 0x42E PUSH2 0x990 CALLDATASIZE PUSH1 0x4 PUSH2 0x3FD6 JUMP JUMPDEST PUSH1 0x1 PUSH1 0x1 PUSH1 0xA0 SHL SUB SWAP2 DUP3 AND PUSH1 0x0 SWAP1 DUP2 MSTORE PUSH1 0x1 PUSH1 0x20 SWAP1 DUP2 MSTORE PUSH1 0x40 DUP1 DUP4 KECCAK256 SWAP4 SWAP1 SWAP5 AND DUP3 MSTORE SWAP2 SWAP1 SWAP2 MSTORE KECCAK256 SLOAD PUSH1 0xFF AND SWAP1 JUMP JUMPDEST PUSH2 0x451 PUSH2 0x9CC CALLDATASIZE PUSH1 0x4 PUSH2 0x3CAA JUMP JUMPDEST PUSH2 0x2699 JUMP JUMPDEST PUSH2 0x451 PUSH2 0x9DF CALLDATASIZE PUSH1 0x4 PUSH2 0x4004 JUMP JUMPDEST PUSH2 0x27C1 JUMP JUMPDEST PUSH2 0x451 PUSH2 0x9F2 CALLDATASIZE PUSH1 0x4 PUSH2 0x3B64 JUMP JUMPDEST PUSH2 0x2864 JUMP JUMPDEST PUSH2 0x451 PUSH2 0xA05 CALLDATASIZE PUSH1 0x4 PUSH2 0x3955 JUMP JUMPDEST PUSH2 0x28DA JUMP JUMPDEST PUSH2 0x451 PUSH2 0xA18 CALLDATASIZE PUSH1 0x4 PUSH2 0x3B64 JUMP JUMPDEST PUSH2 0x2C37 JUMP JUMPDEST PUSH2 0x451 PUSH2 0xA2B CALLDATASIZE PUSH1 0x4 PUSH2 0x3B64 JUMP JUMPDEST PUSH2 0x2CA9 JUMP JUMPDEST PUSH2 0x42E PUSH2 0xA3E CALLDATASIZE PUSH1 0x4 PUSH2 0x3B64 JUMP JUMPDEST PUSH1 0x1 PUSH1 0x1 PUSH1 0xA0 SHL SUB AND PUSH1 0x0 SWAP1 DUP2 MSTORE PUSH1 0x1A PUSH1 0x20 MSTORE PUSH1 0x40 SWAP1 KECCAK256 SLOAD PUSH1 0xFF AND SWAP1 JUMP JUMPDEST PUSH2 0x451 PUSH2 0xA6A CALLDATASIZE PUSH1 0x4 PUSH2 0x3B64 JUMP JUMPDEST PUSH2 0x2CD3 JUMP JUMPDEST PUSH1 0x0 PUSH1 0x1 PUSH1 0x1 PUSH1 0xA0 SHL SUB DUP4 AND PUSH2 0xADF JUMPI PUSH1 0x40 MLOAD PUSH3 0x461BCD PUSH1 0xE5 SHL DUP2 MSTORE PUSH1 0x20 PUSH1 0x4 DUP3 ADD MSTORE PUSH1 0x2A PUSH1 0x24 DUP3 ADD MSTORE PUSH32 0x455243313135353A2061646472657373207A65726F206973206E6F7420612076 PUSH1 0x44 DUP3 ADD MSTORE PUSH10 0x30B634B21037BBB732B9 PUSH1 0xB1 SHL PUSH1 0x64 DUP3 ADD MSTORE PUSH1 0x84 ADD JUMPDEST PUSH1 0x40 MLOAD DUP1 SWAP2 SUB SWAP1 REVERT JUMPDEST POP PUSH1 0x0 DUP2 DUP2 MSTORE PUSH1 0x20 DUP2 DUP2 MSTORE PUSH1 0x40 DUP1 DUP4 KECCAK256 PUSH1 0x1 PUSH1 0x1 PUSH1 0xA0 SHL SUB DUP7 AND DUP5 MSTORE SWAP1 SWAP2 MSTORE SWAP1 KECCAK256 SLOAD JUMPDEST SWAP3 SWAP2 POP POP JUMP JUMPDEST PUSH1 0x0 PUSH1 0x1 PUSH1 0x1 PUSH1 0xE0 SHL SUB NOT DUP3 AND PUSH4 0x6CDB3D13 PUSH1 0xE1 SHL EQ DUP1 PUSH2 0xB39 JUMPI POP PUSH1 0x1 PUSH1 0x1 PUSH1 0xE0 SHL SUB NOT DUP3 AND PUSH4 0x3A24D07 PUSH1 0xE2 SHL EQ JUMPDEST DUP1 PUSH2 0xB02 JUMPI POP PUSH4 0x1FFC9A7 PUSH1 0xE0 SHL PUSH1 0x1 PUSH1 0x1 PUSH1 0xE0 SHL SUB NOT DUP4 AND EQ PUSH2 0xB02 JUMP JUMPDEST PUSH1 0x7 SLOAD PUSH1 0xE SLOAD PUSH1 0x40 MLOAD PUSH4 0x14AB313 PUSH1 0xE0 SHL DUP2 MSTORE CALLER PUSH1 0x4 DUP3 ADD MSTORE PUSH1 0x1 PUSH1 0x1 PUSH1 0xA0 SHL SUB SWAP1 SWAP2 AND SWAP1 PUSH4 0x14AB313 SWAP1 PUSH1 0x24 ADD PUSH1 0x20 PUSH1 0x40 MLOAD DUP1 DUP4 SUB DUP2 DUP7 GAS STATICCALL ISZERO DUP1 ISZERO PUSH2 0xBA3 JUMPI RETURNDATASIZE PUSH1 0x0 DUP1 RETURNDATACOPY RETURNDATASIZE PUSH1 0x0 REVERT JUMPDEST POP POP POP POP PUSH1 0x40 MLOAD RETURNDATASIZE PUSH1 0x1F NOT PUSH1 0x1F DUP3 ADD AND DUP3 ADD DUP1 PUSH1 0x40 MSTORE POP DUP2 ADD SWAP1 PUSH2 0xBC7 SWAP2 SWAP1 PUSH2 0x406C JUMP JUMPDEST LT ISZERO PUSH2 0xC1F JUMPI PUSH1 0x40 MLOAD PUSH3 0x461BCD PUSH1 0xE5 SHL DUP2 MSTORE PUSH1 0x20 PUSH1 0x4 DUP3 ADD MSTORE PUSH1 0x21 PUSH1 0x24 DUP3 ADD MSTORE PUSH32 0x796F752063616E6E6F74207375626D697420746865206170706C69636174696F PUSH1 0x44 DUP3 ADD MSTORE PUSH1 0x37 PUSH1 0xF9 SHL PUSH1 0x64 DUP3 ADD MSTORE PUSH1 0x84 ADD PUSH2 0xAD6 JUMP JUMPDEST CALLER PUSH1 0x0 SWAP1 DUP2 MSTORE PUSH1 0x17 PUSH1 0x20 MSTORE PUSH1 0x40 SWAP1 KECCAK256 SLOAD PUSH1 0xFF AND ISZERO PUSH2 0xC7F JUMPI PUSH1 0x40 MLOAD PUSH3 0x461BCD PUSH1 0xE5 SHL DUP2 MSTORE PUSH1 0x20 PUSH1 0x4 DUP3 ADD MSTORE PUSH1 0x18 PUSH1 0x24 DUP3 ADD MSTORE PUSH32 0x796F75206172652071756575696E6720746F206170706C790000000000000000 PUSH1 0x44 DUP3 ADD MSTORE PUSH1 0x64 ADD PUSH2 0xAD6 JUMP JUMPDEST PUSH1 0x0 PUSH1 0x40 MLOAD DUP1 PUSH1 0xC0 ADD PUSH1 0x40 MSTORE DUP1 DUP5 DUP2 MSTORE PUSH1 0x20 ADD PUSH2 0xC9B CALLER PUSH2 0x1E92 JUMP JUMPDEST DUP2 MSTORE PUSH1 0x5 SLOAD PUSH1 0x40 MLOAD PUSH4 0x73AB94F9 PUSH1 0xE1 SHL DUP2 MSTORE CALLER PUSH1 0x4 DUP3 ADD MSTORE PUSH1 0x20 SWAP1 SWAP3 ADD SWAP2 PUSH1 0x1 PUSH1 0x1 PUSH1 0xA0 SHL SUB SWAP1 SWAP2 AND SWAP1 PUSH4 0xE75729F2 SWAP1 PUSH1 0x24 ADD PUSH1 0x20 PUSH1 0x40 MLOAD DUP1 DUP4 SUB DUP2 DUP7 GAS STATICCALL ISZERO DUP1 ISZERO PUSH2 0xCEB JUMPI RETURNDATASIZE PUSH1 0x0 DUP1 RETURNDATACOPY RETURNDATASIZE PUSH1 0x0 REVERT JUMPDEST POP POP POP POP PUSH1 0x40 MLOAD RETURNDATASIZE PUSH1 0x1F NOT PUSH1 0x1F DUP3 ADD AND DUP3 ADD DUP1 PUSH1 0x40 MSTORE POP DUP2 ADD SWAP1 PUSH2 0xD0F SWAP2 SWAP1 PUSH2 0x406C JUMP JUMPDEST DUP2 MSTORE PUSH1 0x20 DUP1 DUP3 ADD DUP6 SWAP1 MSTORE CALLER PUSH1 0x40 DUP1 DUP5 ADD DUP3 SWAP1 MSTORE TIMESTAMP PUSH1 0x60 SWAP5 DUP6 ADD MSTORE PUSH1 0x0 SWAP2 DUP3 MSTORE PUSH1 0x17 DUP4 MSTORE DUP1 DUP3 KECCAK256 DUP1 SLOAD PUSH1 0xFF NOT AND PUSH1 0x1 SWAP1 DUP2 OR SWAP1 SWAP2 SSTORE PUSH1 0x16 DUP5 MSTORE SWAP2 DUP2 SWAP1 KECCAK256 DUP6 MLOAD DUP2 SSTORE SWAP3 DUP6 ADD MLOAD SWAP2 DUP4 ADD SWAP2 SWAP1 SWAP2 SSTORE DUP4 ADD MLOAD PUSH1 0x2 DUP3 ADD SSTORE SWAP1 DUP3 ADD MLOAD SWAP2 SWAP3 POP DUP3 SWAP2 PUSH1 0x3 DUP3 ADD SWAP1 PUSH2 0xD7A SWAP1 DUP3 PUSH2 0x4105 JUMP JUMPDEST POP PUSH1 0x80 DUP3 ADD MLOAD PUSH1 0x4 DUP3 ADD DUP1 SLOAD PUSH1 0x1 PUSH1 0x1 PUSH1 0xA0 SHL SUB SWAP1 SWAP3 AND PUSH1 0x1 PUSH1 0x1 PUSH1 0xA0 SHL SUB NOT SWAP3 DUP4 AND OR SWAP1 SSTORE PUSH1 0xA0 SWAP1 SWAP3 ADD MLOAD PUSH1 0x5 SWAP1 SWAP2 ADD SSTORE PUSH1 0xB DUP1 SLOAD PUSH1 0x1 DUP2 ADD DUP3 SSTORE PUSH1 0x0 SWAP2 SWAP1 SWAP2 MSTORE PUSH32 0x175B7A638427703F0DBE7BB9BBF987A2551717B34E79F33B5B1008D1FA01DB9 ADD DUP1 SLOAD SWAP1 SWAP2 AND CALLER OR SWAP1 SSTORE POP POP POP JUMP JUMPDEST PUSH1 0xF SLOAD PUSH1 0x1 PUSH1 0x1 PUSH1 0xA0 SHL SUB AND CALLER EQ PUSH2 0xE16 JUMPI PUSH1 0x40 MLOAD PUSH3 0x461BCD PUSH1 0xE5 SHL DUP2 MSTORE PUSH1 0x4 ADD PUSH2 0xAD6 SWAP1 PUSH2 0x41C4 JUMP JUMPDEST PUSH1 0x0 DUP3 DUP2 MSTORE PUSH1 0x15 PUSH1 0x20 MSTORE PUSH1 0x40 DUP2 KECCAK256 PUSH1 0x4 ADD DUP1 SLOAD DUP4 SWAP3 SWAP1 PUSH2 0xE37 SWAP1 DUP5 SWAP1 PUSH2 0x41FD JUMP JUMPDEST SWAP1 SWAP2 SSTORE POP POP PUSH1 0x40 DUP1 MLOAD PUSH1 0x80 DUP2 ADD DUP3 MSTORE SWAP3 DUP4 MSTORE CALLER PUSH1 0x20 DUP5 ADD SWAP1 DUP2 MSTORE SWAP1 DUP4 ADD SWAP2 DUP3 MSTORE TIMESTAMP PUSH1 0x60 DUP5 ADD SWAP1 DUP2 MSTORE PUSH1 0xC DUP1 SLOAD PUSH1 0x1 DUP2 ADD DUP3 SSTORE PUSH1 0x0 SWAP2 SWAP1 SWAP2 MSTORE SWAP4 MLOAD PUSH32 0xDF6966C971051C3D54EC59162606531493A51404A002842F56009D7E5CF4A8C7 PUSH1 0x4 SWAP1 SWAP6 MUL SWAP5 DUP6 ADD SSTORE SWAP1 MLOAD PUSH32 0xDF6966C971051C3D54EC59162606531493A51404A002842F56009D7E5CF4A8C8 DUP5 ADD DUP1 SLOAD PUSH1 0x1 PUSH1 0x1 PUSH1 0xA0 SHL SUB NOT AND PUSH1 0x1 PUSH1 0x1 PUSH1 0xA0 SHL SUB SWAP1 SWAP3 AND SWAP2 SWAP1 SWAP2 OR SWAP1 SSTORE SWAP1 MLOAD PUSH32 0xDF6966C971051C3D54EC59162606531493A51404A002842F56009D7E5CF4A8C9 DUP4 ADD SSTORE MLOAD PUSH32 0xDF6966C971051C3D54EC59162606531493A51404A002842F56009D7E5CF4A8CA SWAP1 SWAP2 ADD SSTORE JUMP JUMPDEST PUSH1 0x60 PUSH1 0x2 DUP1 SLOAD PUSH2 0xF3A SWAP1 PUSH2 0x4085 JUMP JUMPDEST DUP1 PUSH1 0x1F ADD PUSH1 0x20 DUP1 SWAP2 DIV MUL PUSH1 0x20 ADD PUSH1 0x40 MLOAD SWAP1 DUP2 ADD PUSH1 0x40 MSTORE DUP1 SWAP3 SWAP2 SWAP1 DUP2 DUP2 MSTORE PUSH1 0x20 ADD DUP3 DUP1 SLOAD PUSH2 0xF66 SWAP1 PUSH2 0x4085 JUMP JUMPDEST DUP1 ISZERO PUSH2 0xFB3 JUMPI DUP1 PUSH1 0x1F LT PUSH2 0xF88 JUMPI PUSH2 0x100 DUP1 DUP4 SLOAD DIV MUL DUP4 MSTORE SWAP2 PUSH1 0x20 ADD SWAP2 PUSH2 0xFB3 JUMP JUMPDEST DUP3 ADD SWAP2 SWAP1 PUSH1 0x0 MSTORE PUSH1 0x20 PUSH1 0x0 KECCAK256 SWAP1 JUMPDEST DUP2 SLOAD DUP2 MSTORE SWAP1 PUSH1 0x1 ADD SWAP1 PUSH1 0x20 ADD DUP1 DUP4 GT PUSH2 0xF96 JUMPI DUP3 SWAP1 SUB PUSH1 0x1F AND DUP3 ADD SWAP2 JUMPDEST POP POP POP POP POP SWAP1 POP SWAP2 SWAP1 POP JUMP JUMPDEST PUSH1 0x14 PUSH1 0x20 MSTORE DUP3 PUSH1 0x0 MSTORE PUSH1 0x40 PUSH1 0x0 KECCAK256 PUSH1 0x20 MSTORE DUP2 PUSH1 0x0 MSTORE PUSH1 0x40 PUSH1 0x0 KECCAK256 DUP2 DUP2 SLOAD DUP2 LT PUSH2 0xFE7 JUMPI PUSH1 0x0 DUP1 REVERT JUMPDEST SWAP1 PUSH1 0x0 MSTORE PUSH1 0x20 PUSH1 0x0 KECCAK256 SWAP1 PUSH1 0x5 MUL ADD PUSH1 0x0 SWAP3 POP SWAP3 POP POP POP DUP1 PUSH1 0x0 ADD DUP1 SLOAD PUSH2 0x100C SWAP1 PUSH2 0x4085 JUMP JUMPDEST DUP1 PUSH1 0x1F ADD PUSH1 0x20 DUP1 SWAP2 DIV MUL PUSH1 0x20 ADD PUSH1 0x40 MLOAD SWAP1 DUP2 ADD PUSH1 0x40 MSTORE DUP1 SWAP3 SWAP2 SWAP1 DUP2 DUP2 MSTORE PUSH1 0x20 ADD DUP3 DUP1 SLOAD PUSH2 0x1038 SWAP1 PUSH2 0x4085 JUMP JUMPDEST DUP1 ISZERO PUSH2 0x1085 JUMPI DUP1 PUSH1 0x1F LT PUSH2 0x105A JUMPI PUSH2 0x100 DUP1 DUP4 SLOAD DIV MUL DUP4 MSTORE SWAP2 PUSH1 0x20 ADD SWAP2 PUSH2 0x1085 JUMP JUMPDEST DUP3 ADD SWAP2 SWAP1 PUSH1 0x0 MSTORE PUSH1 0x20 PUSH1 0x0 KECCAK256 SWAP1 JUMPDEST DUP2 SLOAD DUP2 MSTORE SWAP1 PUSH1 0x1 ADD SWAP1 PUSH1 0x20 ADD DUP1 DUP4 GT PUSH2 0x1068 JUMPI DUP3 SWAP1 SUB PUSH1 0x1F AND DUP3 ADD SWAP2 JUMPDEST POP POP POP POP POP SWAP1 DUP1 PUSH1 0x1 ADD DUP1 SLOAD PUSH2 0x109A SWAP1 PUSH2 0x4085 JUMP JUMPDEST DUP1 PUSH1 0x1F ADD PUSH1 0x20 DUP1 SWAP2 DIV MUL PUSH1 0x20 ADD PUSH1 0x40 MLOAD SWAP1 DUP2 ADD PUSH1 0x40 MSTORE DUP1 SWAP3 SWAP2 SWAP1 DUP2 DUP2 MSTORE PUSH1 0x20 ADD DUP3 DUP1 SLOAD PUSH2 0x10C6 SWAP1 PUSH2 0x4085 JUMP JUMPDEST DUP1 ISZERO PUSH2 0x1113 JUMPI DUP1 PUSH1 0x1F LT PUSH2 0x10E8 JUMPI PUSH2 0x100 DUP1 DUP4 SLOAD DIV MUL DUP4 MSTORE SWAP2 PUSH1 0x20 ADD SWAP2 PUSH2 0x1113 JUMP JUMPDEST DUP3 ADD SWAP2 SWAP1 PUSH1 0x0 MSTORE PUSH1 0x20 PUSH1 0x0 KECCAK256 SWAP1 JUMPDEST DUP2 SLOAD DUP2 MSTORE SWAP1 PUSH1 0x1 ADD SWAP1 PUSH1 0x20 ADD DUP1 DUP4 GT PUSH2 0x10F6 JUMPI DUP3 SWAP1 SUB PUSH1 0x1F AND DUP3 ADD SWAP2 JUMPDEST POP POP POP POP POP SWAP1 DUP1 PUSH1 0x2 ADD DUP1 SLOAD PUSH2 0x1128 SWAP1 PUSH2 0x4085 JUMP JUMPDEST DUP1 PUSH1 0x1F ADD PUSH1 0x20 DUP1 SWAP2 DIV MUL PUSH1 0x20 ADD PUSH1 0x40 MLOAD SWAP1 DUP2 ADD PUSH1 0x40 MSTORE DUP1 SWAP3 SWAP2 SWAP1 DUP2 DUP2 MSTORE PUSH1 0x20 ADD DUP3 DUP1 SLOAD PUSH2 0x1154 SWAP1 PUSH2 0x4085 JUMP JUMPDEST DUP1 ISZERO PUSH2 0x11A1 JUMPI DUP1 PUSH1 0x1F LT PUSH2 0x1176 JUMPI PUSH2 0x100 DUP1 DUP4 SLOAD DIV MUL DUP4 MSTORE SWAP2 PUSH1 0x20 ADD SWAP2 PUSH2 0x11A1 JUMP JUMPDEST DUP3 ADD SWAP2 SWAP1 PUSH1 0x0 MSTORE PUSH1 0x20 PUSH1 0x0 KECCAK256 SWAP1 JUMPDEST DUP2 SLOAD DUP2 MSTORE SWAP1 PUSH1 0x1 ADD SWAP1 PUSH1 0x20 ADD DUP1 DUP4 GT PUSH2 0x1184 JUMPI DUP3 SWAP1 SUB PUSH1 0x1F AND DUP3 ADD SWAP2 JUMPDEST POP POP POP POP PUSH1 0x3 DUP4 ADD SLOAD PUSH1 0x4 SWAP1 SWAP4 ADD SLOAD SWAP2 SWAP3 PUSH1 0x1 PUSH1 0x1 PUSH1 0xA0 SHL SUB AND SWAP2 SWAP1 POP DUP6 JUMP JUMPDEST PUSH2 0x11C9 PUSH2 0x2CFD JUMP JUMPDEST PUSH1 0x0 JUMPDEST DUP2 MLOAD DUP2 LT ISZERO PUSH2 0x1376 JUMPI PUSH1 0x11 PUSH1 0x0 DUP4 DUP4 DUP2 MLOAD DUP2 LT PUSH2 0x11EB JUMPI PUSH2 0x11EB PUSH2 0x4210 JUMP JUMPDEST PUSH1 0x20 SWAP1 DUP2 MUL SWAP2 SWAP1 SWAP2 ADD DUP2 ADD MLOAD PUSH1 0x1 PUSH1 0x1 PUSH1 0xA0 SHL SUB AND DUP3 MSTORE DUP2 ADD SWAP2 SWAP1 SWAP2 MSTORE PUSH1 0x40 ADD PUSH1 0x0 KECCAK256 SLOAD PUSH1 0xFF AND ISZERO PUSH2 0x125F JUMPI PUSH1 0x40 MLOAD PUSH3 0x461BCD PUSH1 0xE5 SHL DUP2 MSTORE PUSH1 0x20 PUSH1 0x4 DUP3 ADD MSTORE PUSH1 0x1A PUSH1 0x24 DUP3 ADD MSTORE PUSH32 0x57686974654C6973742061646465642072657065617465646C79000000000000 PUSH1 0x44 DUP3 ADD MSTORE PUSH1 0x64 ADD PUSH2 0xAD6 JUMP JUMPDEST PUSH2 0x1281 DUP3 DUP3 DUP2 MLOAD DUP2 LT PUSH2 0x1274 JUMPI PUSH2 0x1274 PUSH2 0x4210 JUMP JUMPDEST PUSH1 0x20 MUL PUSH1 0x20 ADD ADD MLOAD PUSH2 0x2D57 JUMP JUMPDEST PUSH2 0x12BE JUMPI PUSH1 0x40 MLOAD PUSH3 0x461BCD PUSH1 0xE5 SHL DUP2 MSTORE PUSH1 0x20 PUSH1 0x4 DUP3 ADD MSTORE PUSH1 0xE PUSH1 0x24 DUP3 ADD MSTORE PUSH14 0x7265706561742061646472657373 PUSH1 0x90 SHL PUSH1 0x44 DUP3 ADD MSTORE PUSH1 0x64 ADD PUSH2 0xAD6 JUMP JUMPDEST PUSH1 0x1 PUSH1 0x11 PUSH1 0x0 DUP5 DUP5 DUP2 MLOAD DUP2 LT PUSH2 0x12D6 JUMPI PUSH2 0x12D6 PUSH2 0x4210 JUMP JUMPDEST PUSH1 0x20 MUL PUSH1 0x20 ADD ADD MLOAD PUSH1 0x1 PUSH1 0x1 PUSH1 0xA0 SHL SUB AND PUSH1 0x1 PUSH1 0x1 PUSH1 0xA0 SHL SUB AND DUP2 MSTORE PUSH1 0x20 ADD SWAP1 DUP2 MSTORE PUSH1 0x20 ADD PUSH1 0x0 KECCAK256 PUSH1 0x0 PUSH2 0x100 EXP DUP2 SLOAD DUP2 PUSH1 0xFF MUL NOT AND SWAP1 DUP4 ISZERO ISZERO MUL OR SWAP1 SSTORE POP PUSH1 0xA DUP3 DUP3 DUP2 MLOAD DUP2 LT PUSH2 0x1329 JUMPI PUSH2 0x1329 PUSH2 0x4210 JUMP JUMPDEST PUSH1 0x20 SWAP1 DUP2 MUL SWAP2 SWAP1 SWAP2 ADD DUP2 ADD MLOAD DUP3 SLOAD PUSH1 0x1 DUP2 ADD DUP5 SSTORE PUSH1 0x0 SWAP4 DUP5 MSTORE SWAP2 SWAP1 SWAP3 KECCAK256 ADD DUP1 SLOAD PUSH1 0x1 PUSH1 0x1 PUSH1 0xA0 SHL SUB NOT AND PUSH1 0x1 PUSH1 0x1 PUSH1 0xA0 SHL SUB SWAP1 SWAP3 AND SWAP2 SWAP1 SWAP2 OR SWAP1 SSTORE DUP1 PUSH2 0x136E DUP2 PUSH2 0x4226 JUMP JUMPDEST SWAP2 POP POP PUSH2 0x11CC JUMP JUMPDEST POP POP JUMP JUMPDEST PUSH2 0x1382 PUSH2 0x2CFD JUMP JUMPDEST PUSH1 0x1 PUSH1 0x1 PUSH1 0xA0 SHL SUB DUP2 AND PUSH2 0x13A8 JUMPI PUSH1 0x40 MLOAD PUSH3 0x461BCD PUSH1 0xE5 SHL DUP2 MSTORE PUSH1 0x4 ADD PUSH2 0xAD6 SWAP1 PUSH2 0x423F JUMP JUMPDEST PUSH1 0x0 SWAP2 DUP3 MSTORE PUSH1 0x15 PUSH1 0x20 SWAP1 DUP2 MSTORE PUSH1 0x40 DUP1 DUP5 KECCAK256 PUSH1 0x3 ADD DUP1 SLOAD PUSH1 0x1 PUSH1 0x1 PUSH1 0xA0 SHL SUB SWAP1 SWAP5 AND PUSH1 0x1 PUSH1 0x1 PUSH1 0xA0 SHL SUB NOT SWAP1 SWAP5 AND DUP5 OR SWAP1 SSTORE CALLER DUP5 MSTORE PUSH1 0x1A SWAP1 SWAP2 MSTORE DUP1 DUP4 KECCAK256 DUP1 SLOAD PUSH1 0xFF NOT SWAP1 DUP2 AND SWAP1 SWAP2 SSTORE SWAP2 DUP4 MSTORE SWAP1 SWAP2 KECCAK256 DUP1 SLOAD SWAP1 SWAP2 AND PUSH1 0x1 OR SWAP1 SSTORE JUMP JUMPDEST PUSH1 0x3 SLOAD PUSH1 0x1 PUSH1 0x1 PUSH1 0xA0 SHL SUB AND CALLER EQ DUP1 PUSH2 0x1440 JUMPI POP CALLER PUSH1 0x0 DUP2 DUP2 MSTORE PUSH1 0x13 PUSH1 0x20 SWAP1 DUP2 MSTORE PUSH1 0x40 DUP1 DUP4 KECCAK256 SLOAD DUP4 MSTORE PUSH1 0x15 SWAP1 SWAP2 MSTORE SWAP1 KECCAK256 PUSH1 0x3 ADD SLOAD PUSH1 0x1 PUSH1 0x1 PUSH1 0xA0 SHL SUB AND EQ JUMPDEST PUSH2 0x145C JUMPI PUSH1 0x40 MLOAD PUSH3 0x461BCD PUSH1 0xE5 SHL DUP2 MSTORE PUSH1 0x4 ADD PUSH2 0xAD6 SWAP1 PUSH2 0x41C4 JUMP JUMPDEST PUSH1 0x1 PUSH1 0x1 PUSH1 0xA0 SHL SUB DUP2 AND PUSH2 0x1482 JUMPI PUSH1 0x40 MLOAD PUSH3 0x461BCD PUSH1 0xE5 SHL DUP2 MSTORE PUSH1 0x4 ADD PUSH2 0xAD6 SWAP1 PUSH2 0x423F JUMP JUMPDEST PUSH1 0x1 PUSH1 0x1 PUSH1 0xA0 SHL SUB AND PUSH1 0x0 DUP2 DUP2 MSTORE PUSH1 0x1B PUSH1 0x20 SWAP1 DUP2 MSTORE PUSH1 0x40 DUP1 DUP4 KECCAK256 DUP1 SLOAD PUSH1 0xFF NOT AND PUSH1 0x1 SWAP1 DUP2 OR SWAP1 SWAP2 SSTORE SWAP5 DUP4 MSTORE PUSH1 0x18 DUP3 MSTORE DUP3 KECCAK256 DUP1 SLOAD SWAP5 DUP6 ADD DUP2 SSTORE DUP3 MSTORE SWAP1 KECCAK256 SWAP1 SWAP2 ADD DUP1 SLOAD PUSH1 0x1 PUSH1 0x1 PUSH1 0xA0 SHL SUB NOT AND SWAP1 SWAP2 OR SWAP1 SSTORE JUMP JUMPDEST PUSH1 0x16 PUSH1 0x20 MSTORE PUSH1 0x0 SWAP1 DUP2 MSTORE PUSH1 0x40 SWAP1 KECCAK256 DUP1 SLOAD PUSH1 0x1 DUP3 ADD SLOAD PUSH1 0x2 DUP4 ADD SLOAD PUSH1 0x3 DUP5 ADD DUP1 SLOAD SWAP4 SWAP5 SWAP3 SWAP4 SWAP2 SWAP3 SWAP2 PUSH2 0x1504 SWAP1 PUSH2 0x4085 JUMP JUMPDEST DUP1 PUSH1 0x1F ADD PUSH1 0x20 DUP1 SWAP2 DIV MUL PUSH1 0x20 ADD PUSH1 0x40 MLOAD SWAP1 DUP2 ADD PUSH1 0x40 MSTORE DUP1 SWAP3 SWAP2 SWAP1 DUP2 DUP2 MSTORE PUSH1 0x20 ADD DUP3 DUP1 SLOAD PUSH2 0x1530 SWAP1 PUSH2 0x4085 JUMP JUMPDEST DUP1 ISZERO PUSH2 0x157D JUMPI DUP1 PUSH1 0x1F LT PUSH2 0x1552 JUMPI PUSH2 0x100 DUP1 DUP4 SLOAD DIV MUL DUP4 MSTORE SWAP2 PUSH1 0x20 ADD SWAP2 PUSH2 0x157D JUMP JUMPDEST DUP3 ADD SWAP2 SWAP1 PUSH1 0x0 MSTORE PUSH1 0x20 PUSH1 0x0 KECCAK256 SWAP1 JUMPDEST DUP2 SLOAD DUP2 MSTORE SWAP1 PUSH1 0x1 ADD SWAP1 PUSH1 0x20 ADD DUP1 DUP4 GT PUSH2 0x1560 JUMPI DUP3 SWAP1 SUB PUSH1 0x1F AND DUP3 ADD SWAP2 JUMPDEST POP POP POP POP PUSH1 0x4 DUP4 ADD SLOAD PUSH1 0x5 SWAP1 SWAP4 ADD SLOAD SWAP2 SWAP3 PUSH1 0x1 PUSH1 0x1 PUSH1 0xA0 SHL SUB AND SWAP2 SWAP1 POP DUP7 JUMP JUMPDEST PUSH1 0x1 PUSH1 0x1 PUSH1 0xA0 SHL SUB DUP6 AND CALLER EQ DUP1 ISZERO PUSH2 0x15BD JUMPI POP PUSH1 0x1 PUSH1 0x1 PUSH1 0xA0 SHL SUB DUP5 AND CALLER EQ JUMPDEST PUSH2 0x15FB JUMPI PUSH1 0x40 MLOAD PUSH3 0x461BCD PUSH1 0xE5 SHL DUP2 MSTORE PUSH1 0x20 PUSH1 0x4 DUP3 ADD MSTORE PUSH1 0xF PUSH1 0x24 DUP3 ADD MSTORE PUSH15 0x3737BA103A37903A3930B739B332B9 PUSH1 0x89 SHL PUSH1 0x44 DUP3 ADD MSTORE PUSH1 0x64 ADD PUSH2 0xAD6 JUMP JUMPDEST PUSH1 0x1 PUSH1 0x1 PUSH1 0xA0 SHL SUB DUP6 AND CALLER EQ DUP1 PUSH2 0x1617 JUMPI POP PUSH2 0x1617 DUP6 CALLER PUSH2 0x990 JUMP JUMPDEST PUSH2 0x1633 JUMPI PUSH1 0x40 MLOAD PUSH3 0x461BCD PUSH1 0xE5 SHL DUP2 MSTORE PUSH1 0x4 ADD PUSH2 0xAD6 SWAP1 PUSH2 0x4276 JUMP JUMPDEST PUSH2 0x1640 DUP6 DUP6 DUP6 DUP6 DUP6 PUSH2 0x2DC0 JUMP JUMPDEST POP POP POP POP POP JUMP JUMPDEST PUSH1 0x18 PUSH1 0x20 MSTORE DUP2 PUSH1 0x0 MSTORE PUSH1 0x40 PUSH1 0x0 KECCAK256 DUP2 DUP2 SLOAD DUP2 LT PUSH2 0x1663 JUMPI PUSH1 0x0 DUP1 REVERT JUMPDEST PUSH1 0x0 SWAP2 DUP3 MSTORE PUSH1 0x20 SWAP1 SWAP2 KECCAK256 ADD SLOAD PUSH1 0x1 PUSH1 0x1 PUSH1 0xA0 SHL SUB AND SWAP2 POP DUP3 SWAP1 POP JUMP JUMPDEST PUSH2 0x1687 PUSH2 0x2CFD JUMP JUMPDEST PUSH1 0xF DUP1 SLOAD PUSH1 0xFF PUSH1 0xA0 SHL NOT DUP2 AND PUSH1 0x1 PUSH1 0xA0 SHL SWAP2 DUP3 SWAP1 DIV PUSH1 0xFF AND ISZERO SWAP1 SWAP2 MUL OR SWAP1 SSTORE JUMP JUMPDEST PUSH1 0x60 DUP2 MLOAD DUP4 MLOAD EQ PUSH2 0x170D JUMPI PUSH1 0x40 MLOAD PUSH3 0x461BCD PUSH1 0xE5 SHL DUP2 MSTORE PUSH1 0x20 PUSH1 0x4 DUP3 ADD MSTORE PUSH1 0x29 PUSH1 0x24 DUP3 ADD MSTORE PUSH32 0x455243313135353A206163636F756E747320616E6420696473206C656E677468 PUSH1 0x44 DUP3 ADD MSTORE PUSH9 0x40DAD2E6DAC2E8C6D PUSH1 0xBB SHL PUSH1 0x64 DUP3 ADD MSTORE PUSH1 0x84 ADD PUSH2 0xAD6 JUMP JUMPDEST PUSH1 0x0 DUP4 MLOAD PUSH1 0x1 PUSH1 0x1 PUSH1 0x40 SHL SUB DUP2 GT ISZERO PUSH2 0x1728 JUMPI PUSH2 0x1728 PUSH2 0x39BB JUMP JUMPDEST PUSH1 0x40 MLOAD SWAP1 DUP1 DUP3 MSTORE DUP1 PUSH1 0x20 MUL PUSH1 0x20 ADD DUP3 ADD PUSH1 0x40 MSTORE DUP1 ISZERO PUSH2 0x1751 JUMPI DUP2 PUSH1 0x20 ADD PUSH1 0x20 DUP3 MUL DUP1 CALLDATASIZE DUP4 CALLDATACOPY ADD SWAP1 POP JUMPDEST POP SWAP1 POP PUSH1 0x0 JUMPDEST DUP5 MLOAD DUP2 LT ISZERO PUSH2 0x17C9 JUMPI PUSH2 0x179C DUP6 DUP3 DUP2 MLOAD DUP2 LT PUSH2 0x1775 JUMPI PUSH2 0x1775 PUSH2 0x4210 JUMP JUMPDEST PUSH1 0x20 MUL PUSH1 0x20 ADD ADD MLOAD DUP6 DUP4 DUP2 MLOAD DUP2 LT PUSH2 0x178F JUMPI PUSH2 0x178F PUSH2 0x4210 JUMP JUMPDEST PUSH1 0x20 MUL PUSH1 0x20 ADD ADD MLOAD PUSH2 0xA6F JUMP JUMPDEST DUP3 DUP3 DUP2 MLOAD DUP2 LT PUSH2 0x17AE JUMPI PUSH2 0x17AE PUSH2 0x4210 JUMP JUMPDEST PUSH1 0x20 SWAP1 DUP2 MUL SWAP2 SWAP1 SWAP2 ADD ADD MSTORE PUSH2 0x17C2 DUP2 PUSH2 0x4226 JUMP JUMPDEST SWAP1 POP PUSH2 0x1757 JUMP JUMPDEST POP SWAP4 SWAP3 POP POP POP JUMP JUMPDEST PUSH1 0xA DUP2 DUP2 SLOAD DUP2 LT PUSH2 0x17E1 JUMPI PUSH1 0x0 DUP1 REVERT JUMPDEST PUSH1 0x0 SWAP2 DUP3 MSTORE PUSH1 0x20 SWAP1 SWAP2 KECCAK256 ADD SLOAD PUSH1 0x1 PUSH1 0x1 PUSH1 0xA0 SHL SUB AND SWAP1 POP DUP2 JUMP JUMPDEST PUSH2 0x1803 PUSH2 0x2CFD JUMP JUMPDEST PUSH1 0x7 SSTORE JUMP JUMPDEST PUSH1 0x0 DUP3 DUP2 MSTORE PUSH1 0x15 PUSH1 0x20 MSTORE PUSH1 0x40 SWAP1 KECCAK256 PUSH1 0x3 ADD SLOAD PUSH1 0x1 PUSH1 0x1 PUSH1 0xA0 SHL SUB AND CALLER EQ DUP1 PUSH2 0x183F JUMPI POP CALLER PUSH1 0x0 SWAP1 DUP2 MSTORE PUSH1 0x1B PUSH1 0x20 MSTORE PUSH1 0x40 SWAP1 KECCAK256 SLOAD PUSH1 0xFF AND JUMPDEST PUSH2 0x188B JUMPI PUSH1 0x40 MLOAD PUSH3 0x461BCD PUSH1 0xE5 SHL DUP2 MSTORE PUSH1 0x20 PUSH1 0x4 DUP3 ADD MSTORE PUSH1 0x1B PUSH1 0x24 DUP3 ADD MSTORE PUSH32 0x796F7520617265206E6F74206120756E696F6E2061756469746F720000000000 PUSH1 0x44 DUP3 ADD MSTORE PUSH1 0x64 ADD PUSH2 0xAD6 JUMP JUMPDEST PUSH2 0x1895 CALLER DUP4 PUSH2 0xA6F JUMP JUMPDEST PUSH1 0x1 EQ PUSH2 0x18DB JUMPI PUSH1 0x40 MLOAD PUSH3 0x461BCD PUSH1 0xE5 SHL DUP2 MSTORE PUSH1 0x20 PUSH1 0x4 DUP3 ADD MSTORE PUSH1 0x14 PUSH1 0x24 DUP3 ADD MSTORE PUSH20 0x1D1A19481859191C995CDCC81A5CC8195E1A5CDD PUSH1 0x62 SHL PUSH1 0x44 DUP3 ADD MSTORE PUSH1 0x64 ADD PUSH2 0xAD6 JUMP JUMPDEST PUSH2 0x1904 DUP2 DUP4 PUSH1 0x1 PUSH1 0x40 MLOAD DUP1 PUSH1 0x40 ADD PUSH1 0x40 MSTORE DUP1 PUSH1 0x4 DUP2 MSTORE PUSH1 0x20 ADD PUSH4 0x1D195CDD PUSH1 0xE2 SHL DUP2 MSTORE POP PUSH2 0x2F9D JUMP JUMPDEST PUSH1 0x1 PUSH1 0x1 PUSH1 0xA0 SHL SUB DUP2 AND PUSH1 0x0 DUP2 DUP2 MSTORE PUSH1 0x13 PUSH1 0x20 SWAP1 DUP2 MSTORE PUSH1 0x40 DUP1 DUP4 KECCAK256 DUP7 SWAP1 SSTORE DUP1 MLOAD PUSH1 0x80 DUP2 ADD SWAP1 SWAP2 MSTORE SWAP3 DUP4 MSTORE SWAP1 SWAP2 SWAP1 DUP2 ADD PUSH2 0x193C DUP5 PUSH2 0x1E92 JUMP JUMPDEST DUP2 MSTORE PUSH1 0x5 SLOAD PUSH1 0x40 MLOAD PUSH4 0x73AB94F9 PUSH1 0xE1 SHL DUP2 MSTORE PUSH1 0x1 PUSH1 0x1 PUSH1 0xA0 SHL SUB DUP7 DUP2 AND PUSH1 0x4 DUP4 ADD MSTORE PUSH1 0x20 SWAP1 SWAP4 ADD SWAP3 SWAP1 SWAP2 AND SWAP1 PUSH4 0xE75729F2 SWAP1 PUSH1 0x24 ADD PUSH1 0x20 PUSH1 0x40 MLOAD DUP1 DUP4 SUB DUP2 DUP7 GAS STATICCALL ISZERO DUP1 ISZERO PUSH2 0x198E JUMPI RETURNDATASIZE PUSH1 0x0 DUP1 RETURNDATACOPY RETURNDATASIZE PUSH1 0x0 REVERT JUMPDEST POP POP POP POP PUSH1 0x40 MLOAD RETURNDATASIZE PUSH1 0x1F NOT PUSH1 0x1F DUP3 ADD AND DUP3 ADD DUP1 PUSH1 0x40 MSTORE POP DUP2 ADD SWAP1 PUSH2 0x19B2 SWAP2 SWAP1 PUSH2 0x406C JUMP JUMPDEST DUP2 MSTORE TIMESTAMP PUSH1 0x20 SWAP2 DUP3 ADD MSTORE PUSH1 0x0 SWAP5 DUP6 MSTORE PUSH1 0x19 DUP2 MSTORE PUSH1 0x40 DUP1 DUP7 KECCAK256 DUP1 SLOAD PUSH1 0x1 DUP1 DUP3 ADD DUP4 SSTORE SWAP2 DUP9 MSTORE SWAP7 DUP4 SWAP1 KECCAK256 DUP5 MLOAD PUSH1 0x4 SWAP1 SWAP9 MUL ADD DUP1 SLOAD PUSH1 0x1 PUSH1 0x1 PUSH1 0xA0 SHL SUB NOT AND PUSH1 0x1 PUSH1 0x1 PUSH1 0xA0 SHL SUB SWAP1 SWAP9 AND SWAP8 SWAP1 SWAP8 OR DUP8 SSTORE SWAP2 DUP4 ADD MLOAD SWAP2 DUP7 ADD SWAP2 SWAP1 SWAP2 SSTORE DUP2 ADD MLOAD PUSH1 0x2 DUP6 ADD SSTORE PUSH1 0x60 ADD MLOAD PUSH1 0x3 SWAP1 SWAP4 ADD SWAP3 SWAP1 SWAP3 SSTORE POP POP JUMP JUMPDEST PUSH1 0x0 DUP3 DUP2 MSTORE PUSH1 0x15 PUSH1 0x20 MSTORE PUSH1 0x40 SWAP1 KECCAK256 PUSH1 0x3 ADD SLOAD PUSH1 0x1 PUSH1 0x1 PUSH1 0xA0 SHL SUB AND CALLER EQ DUP1 PUSH2 0x1A59 JUMPI POP CALLER PUSH1 0x0 SWAP1 DUP2 MSTORE PUSH1 0x1B PUSH1 0x20 MSTORE PUSH1 0x40 SWAP1 KECCAK256 SLOAD PUSH1 0xFF AND JUMPDEST PUSH2 0x1AA5 JUMPI PUSH1 0x40 MLOAD PUSH3 0x461BCD PUSH1 0xE5 SHL DUP2 MSTORE PUSH1 0x20 PUSH1 0x4 DUP3 ADD MSTORE PUSH1 0x1B PUSH1 0x24 DUP3 ADD MSTORE PUSH32 0x796F7520617265206E6F74206120756E696F6E2061756469746F720000000000 PUSH1 0x44 DUP3 ADD MSTORE PUSH1 0x64 ADD PUSH2 0xAD6 JUMP JUMPDEST CALLER PUSH1 0x0 SWAP1 DUP2 MSTORE PUSH1 0x17 PUSH1 0x20 SWAP1 DUP2 MSTORE PUSH1 0x40 DUP1 DUP4 KECCAK256 DUP1 SLOAD PUSH1 0xFF NOT AND SWAP1 SSTORE PUSH1 0x16 SWAP1 SWAP2 MSTORE DUP2 KECCAK256 DUP2 DUP2 SSTORE PUSH1 0x1 DUP2 ADD DUP3 SWAP1 SSTORE PUSH1 0x2 DUP2 ADD DUP3 SWAP1 SSTORE SWAP1 PUSH2 0x1AE5 PUSH1 0x3 DUP4 ADD DUP3 PUSH2 0x37E9 JUMP JUMPDEST POP PUSH1 0x4 DUP2 ADD DUP1 SLOAD PUSH1 0x1 PUSH1 0x1 PUSH1 0xA0 SHL SUB NOT AND SWAP1 SSTORE PUSH1 0x0 PUSH1 0x5 SWAP1 SWAP2 ADD DUP2 SWAP1 SSTORE JUMPDEST PUSH1 0xB SLOAD DUP2 LT ISZERO PUSH2 0x1C04 JUMPI DUP2 PUSH1 0x1 PUSH1 0x1 PUSH1 0xA0 SHL SUB AND PUSH1 0xB DUP3 DUP2 SLOAD DUP2 LT PUSH2 0x1B2A JUMPI PUSH2 0x1B2A PUSH2 0x4210 JUMP JUMPDEST PUSH1 0x0 SWAP2 DUP3 MSTORE PUSH1 0x20 SWAP1 SWAP2 KECCAK256 ADD SLOAD PUSH1 0x1 PUSH1 0x1 PUSH1 0xA0 SHL SUB AND SUB PUSH2 0x1BF2 JUMPI PUSH1 0xB DUP1 SLOAD PUSH2 0x1B54 SWAP1 PUSH1 0x1 SWAP1 PUSH2 0x42C5 JUMP JUMPDEST DUP2 SLOAD DUP2 LT PUSH2 0x1B64 JUMPI PUSH2 0x1B64 PUSH2 0x4210 JUMP JUMPDEST PUSH1 0x0 SWAP2 DUP3 MSTORE PUSH1 0x20 SWAP1 SWAP2 KECCAK256 ADD SLOAD PUSH1 0xB DUP1 SLOAD PUSH1 0x1 PUSH1 0x1 PUSH1 0xA0 SHL SUB SWAP1 SWAP3 AND SWAP2 DUP4 SWAP1 DUP2 LT PUSH2 0x1B90 JUMPI PUSH2 0x1B90 PUSH2 0x4210 JUMP JUMPDEST SWAP1 PUSH1 0x0 MSTORE PUSH1 0x20 PUSH1 0x0 KECCAK256 ADD PUSH1 0x0 PUSH2 0x100 EXP DUP2 SLOAD DUP2 PUSH1 0x1 PUSH1 0x1 PUSH1 0xA0 SHL SUB MUL NOT AND SWAP1 DUP4 PUSH1 0x1 PUSH1 0x1 PUSH1 0xA0 SHL SUB AND MUL OR SWAP1 SSTORE POP PUSH1 0xB DUP1 SLOAD DUP1 PUSH2 0x1BCF JUMPI PUSH2 0x1BCF PUSH2 0x42D8 JUMP JUMPDEST PUSH1 0x0 DUP3 DUP2 MSTORE PUSH1 0x20 SWAP1 KECCAK256 DUP2 ADD PUSH1 0x0 NOT SWAP1 DUP2 ADD DUP1 SLOAD PUSH1 0x1 PUSH1 0x1 PUSH1 0xA0 SHL SUB NOT AND SWAP1 SSTORE ADD SWAP1 SSTORE JUMPDEST DUP1 PUSH2 0x1BFC DUP2 PUSH2 0x4226 JUMP JUMPDEST SWAP2 POP POP PUSH2 0x1B03 JUMP JUMPDEST POP POP POP JUMP JUMPDEST PUSH2 0x1C11 PUSH2 0x2CFD JUMP JUMPDEST PUSH2 0x1C1B PUSH1 0x0 PUSH2 0x30B1 JUMP JUMPDEST JUMP JUMPDEST PUSH2 0x1376 CALLER DUP4 DUP4 PUSH2 0x3103 JUMP JUMPDEST PUSH1 0x3 SLOAD PUSH1 0x1 PUSH1 0x1 PUSH1 0xA0 SHL SUB AND CALLER EQ DUP1 PUSH2 0x1C67 JUMPI POP CALLER PUSH1 0x0 DUP2 DUP2 MSTORE PUSH1 0x13 PUSH1 0x20 SWAP1 DUP2 MSTORE PUSH1 0x40 DUP1 DUP4 KECCAK256 SLOAD DUP4 MSTORE PUSH1 0x15 SWAP1 SWAP2 MSTORE SWAP1 KECCAK256 PUSH1 0x3 ADD SLOAD PUSH1 0x1 PUSH1 0x1 PUSH1 0xA0 SHL SUB AND EQ JUMPDEST PUSH2 0x1C83 JUMPI PUSH1 0x40 MLOAD PUSH3 0x461BCD PUSH1 0xE5 SHL DUP2 MSTORE PUSH1 0x4 ADD PUSH2 0xAD6 SWAP1 PUSH2 0x41C4 JUMP JUMPDEST PUSH1 0x1 PUSH1 0x1 PUSH1 0xA0 SHL SUB DUP2 AND PUSH2 0x1CA9 JUMPI PUSH1 0x40 MLOAD PUSH3 0x461BCD PUSH1 0xE5 SHL DUP2 MSTORE PUSH1 0x4 ADD PUSH2 0xAD6 SWAP1 PUSH2 0x423F JUMP JUMPDEST PUSH1 0x1 PUSH1 0x1 PUSH1 0xA0 SHL SUB DUP2 AND PUSH1 0x0 SWAP1 DUP2 MSTORE PUSH1 0x1B PUSH1 0x20 MSTORE PUSH1 0x40 DUP2 KECCAK256 DUP1 SLOAD PUSH1 0xFF NOT AND SWAP1 SSTORE JUMPDEST PUSH1 0x0 DUP4 DUP2 MSTORE PUSH1 0x18 PUSH1 0x20 MSTORE PUSH1 0x40 SWAP1 KECCAK256 SLOAD DUP2 LT ISZERO PUSH2 0x1C04 JUMPI PUSH1 0x0 DUP4 DUP2 MSTORE PUSH1 0x18 PUSH1 0x20 MSTORE PUSH1 0x40 SWAP1 KECCAK256 DUP1 SLOAD DUP3 SWAP1 DUP2 LT PUSH2 0x1D00 JUMPI PUSH2 0x1D00 PUSH2 0x4210 JUMP JUMPDEST PUSH1 0x0 SWAP2 DUP3 MSTORE PUSH1 0x20 SWAP1 SWAP2 KECCAK256 ADD SLOAD PUSH1 0x1 PUSH1 0x1 PUSH1 0xA0 SHL SUB SWAP1 DUP2 AND SWAP1 DUP4 AND SUB PUSH2 0x1DEF JUMPI PUSH1 0x0 DUP4 DUP2 MSTORE PUSH1 0x18 PUSH1 0x20 MSTORE PUSH1 0x40 SWAP1 KECCAK256 DUP1 SLOAD PUSH2 0x1D3B SWAP1 PUSH1 0x1 SWAP1 PUSH2 0x42C5 JUMP JUMPDEST DUP2 SLOAD DUP2 LT PUSH2 0x1D4B JUMPI PUSH2 0x1D4B PUSH2 0x4210 JUMP JUMPDEST PUSH1 0x0 SWAP2 DUP3 MSTORE PUSH1 0x20 DUP1 DUP4 KECCAK256 SWAP1 SWAP2 ADD SLOAD DUP6 DUP4 MSTORE PUSH1 0x18 SWAP1 SWAP2 MSTORE PUSH1 0x40 SWAP1 SWAP2 KECCAK256 DUP1 SLOAD PUSH1 0x1 PUSH1 0x1 PUSH1 0xA0 SHL SUB SWAP1 SWAP3 AND SWAP2 DUP4 SWAP1 DUP2 LT PUSH2 0x1D84 JUMPI PUSH2 0x1D84 PUSH2 0x4210 JUMP JUMPDEST PUSH1 0x0 SWAP2 DUP3 MSTORE PUSH1 0x20 DUP1 DUP4 KECCAK256 SWAP2 SWAP1 SWAP2 ADD DUP1 SLOAD PUSH1 0x1 PUSH1 0x1 PUSH1 0xA0 SHL SUB NOT AND PUSH1 0x1 PUSH1 0x1 PUSH1 0xA0 SHL SUB SWAP5 SWAP1 SWAP5 AND SWAP4 SWAP1 SWAP4 OR SWAP1 SWAP3 SSTORE DUP5 DUP2 MSTORE PUSH1 0x18 SWAP1 SWAP2 MSTORE PUSH1 0x40 SWAP1 KECCAK256 DUP1 SLOAD DUP1 PUSH2 0x1DCC JUMPI PUSH2 0x1DCC PUSH2 0x42D8 JUMP JUMPDEST PUSH1 0x0 DUP3 DUP2 MSTORE PUSH1 0x20 SWAP1 KECCAK256 DUP2 ADD PUSH1 0x0 NOT SWAP1 DUP2 ADD DUP1 SLOAD PUSH1 0x1 PUSH1 0x1 PUSH1 0xA0 SHL SUB NOT AND SWAP1 SSTORE ADD SWAP1 SSTORE JUMPDEST DUP1 PUSH2 0x1DF9 DUP2 PUSH2 0x4226 JUMP JUMPDEST SWAP2 POP POP PUSH2 0x1CCA JUMP JUMPDEST PUSH1 0xD DUP2 DUP2 SLOAD DUP2 LT PUSH2 0x1E11 JUMPI PUSH1 0x0 DUP1 REVERT JUMPDEST PUSH1 0x0 SWAP2 DUP3 MSTORE PUSH1 0x20 SWAP1 SWAP2 KECCAK256 PUSH1 0x5 SWAP1 SWAP2 MUL ADD DUP1 SLOAD PUSH1 0x1 DUP3 ADD SLOAD PUSH1 0x2 DUP4 ADD SLOAD PUSH1 0x3 DUP5 ADD SLOAD PUSH1 0x4 SWAP1 SWAP5 ADD SLOAD SWAP3 SWAP5 POP PUSH1 0x1 PUSH1 0x1 PUSH1 0xA0 SHL SUB SWAP2 DUP3 AND SWAP4 SWAP2 AND SWAP2 DUP6 JUMP JUMPDEST PUSH1 0x15 PUSH1 0x20 MSTORE PUSH1 0x0 SWAP1 DUP2 MSTORE PUSH1 0x40 SWAP1 KECCAK256 DUP1 SLOAD DUP2 SWAP1 PUSH2 0x100C SWAP1 PUSH2 0x4085 JUMP JUMPDEST PUSH2 0x1E70 PUSH2 0x2CFD JUMP JUMPDEST PUSH1 0x9 DUP1 SLOAD PUSH1 0x1 PUSH1 0x1 PUSH1 0xA0 SHL SUB NOT AND PUSH1 0x1 PUSH1 0x1 PUSH1 0xA0 SHL SUB SWAP3 SWAP1 SWAP3 AND SWAP2 SWAP1 SWAP2 OR SWAP1 SSTORE JUMP JUMPDEST PUSH1 0x4 DUP1 SLOAD PUSH1 0x40 MLOAD PUSH4 0xCACD001 PUSH1 0xE1 SHL DUP2 MSTORE PUSH1 0x1 PUSH1 0x1 PUSH1 0xA0 SHL SUB DUP5 DUP2 AND SWAP4 DUP3 ADD SWAP4 SWAP1 SWAP4 MSTORE PUSH1 0x0 SWAP3 DUP4 SWAP3 AND SWAP1 PUSH4 0x1959A002 SWAP1 PUSH1 0x24 ADD PUSH1 0x0 PUSH1 0x40 MLOAD DUP1 DUP4 SUB DUP2 DUP7 GAS STATICCALL ISZERO DUP1 ISZERO PUSH2 0x1EE2 JUMPI RETURNDATASIZE PUSH1 0x0 DUP1 RETURNDATACOPY RETURNDATASIZE PUSH1 0x0 REVERT JUMPDEST POP POP POP POP PUSH1 0x40 MLOAD RETURNDATASIZE PUSH1 0x0 DUP3 RETURNDATACOPY PUSH1 0x1F RETURNDATASIZE SWAP1 DUP2 ADD PUSH1 0x1F NOT AND DUP3 ADD PUSH1 0x40 MSTORE PUSH2 0x1F0A SWAP2 SWAP1 DUP2 ADD SWAP1 PUSH2 0x4346 JUMP JUMPDEST POP SWAP3 SWAP7 SWAP6 POP POP POP POP POP POP JUMP JUMPDEST CALLER PUSH1 0x0 SWAP1 DUP2 MSTORE PUSH1 0x11 PUSH1 0x20 MSTORE PUSH1 0x40 SWAP1 KECCAK256 SLOAD PUSH1 0xFF AND ISZERO ISZERO PUSH1 0x1 EQ PUSH2 0x1F6B JUMPI PUSH1 0x40 MLOAD PUSH3 0x461BCD PUSH1 0xE5 SHL DUP2 MSTORE PUSH1 0x20 PUSH1 0x4 DUP3 ADD MSTORE PUSH1 0xE PUSH1 0x24 DUP3 ADD MSTORE PUSH14 0x796F75206E6F74206170726F7665 PUSH1 0x90 SHL PUSH1 0x44 DUP3 ADD MSTORE PUSH1 0x64 ADD PUSH2 0xAD6 JUMP JUMPDEST PUSH2 0x1F96 CALLER PUSH1 0x6 SLOAD PUSH1 0x1 PUSH1 0x40 MLOAD DUP1 PUSH1 0x40 ADD PUSH1 0x40 MSTORE DUP1 PUSH1 0x4 DUP2 MSTORE PUSH1 0x20 ADD PUSH4 0x1D195CDD PUSH1 0xE2 SHL DUP2 MSTORE POP PUSH2 0x2F9D JUMP JUMPDEST PUSH1 0x0 PUSH1 0x40 MLOAD DUP1 PUSH1 0xA0 ADD PUSH1 0x40 MSTORE DUP1 DUP6 DUP2 MSTORE PUSH1 0x20 ADD DUP5 DUP2 MSTORE PUSH1 0x20 ADD DUP4 DUP2 MSTORE PUSH1 0x20 ADD CALLER PUSH1 0x1 PUSH1 0x1 PUSH1 0xA0 SHL SUB AND DUP2 MSTORE PUSH1 0x20 ADD PUSH1 0x0 DUP2 MSTORE POP SWAP1 POP PUSH1 0x0 PUSH1 0x40 MLOAD DUP1 PUSH1 0x80 ADD PUSH1 0x40 MSTORE DUP1 CALLER PUSH1 0x1 PUSH1 0x1 PUSH1 0xA0 SHL SUB AND DUP2 MSTORE PUSH1 0x20 ADD PUSH2 0x1FF0 CALLER PUSH2 0x1E92 JUMP JUMPDEST DUP2 MSTORE PUSH1 0x5 SLOAD PUSH1 0x40 MLOAD PUSH4 0x73AB94F9 PUSH1 0xE1 SHL DUP2 MSTORE CALLER PUSH1 0x4 DUP3 ADD MSTORE PUSH1 0x20 SWAP1 SWAP3 ADD SWAP2 PUSH1 0x1 PUSH1 0x1 PUSH1 0xA0 SHL SUB SWAP1 SWAP2 AND SWAP1 PUSH4 0xE75729F2 SWAP1 PUSH1 0x24 ADD PUSH1 0x20 PUSH1 0x40 MLOAD DUP1 DUP4 SUB DUP2 DUP7 GAS STATICCALL ISZERO DUP1 ISZERO PUSH2 0x2040 JUMPI RETURNDATASIZE PUSH1 0x0 DUP1 RETURNDATACOPY RETURNDATASIZE PUSH1 0x0 REVERT JUMPDEST POP POP POP POP PUSH1 0x40 MLOAD RETURNDATASIZE PUSH1 0x1F NOT PUSH1 0x1F DUP3 ADD AND DUP3 ADD DUP1 PUSH1 0x40 MSTORE POP DUP2 ADD SWAP1 PUSH2 0x2064 SWAP2 SWAP1 PUSH2 0x406C JUMP JUMPDEST DUP2 MSTORE TIMESTAMP PUSH1 0x20 SWAP1 SWAP2 ADD MSTORE PUSH1 0x1C DUP1 SLOAD PUSH1 0x1 DUP2 ADD DUP3 SSTORE PUSH1 0x0 SWAP2 SWAP1 SWAP2 MSTORE DUP4 MLOAD SWAP2 SWAP3 POP DUP4 SWAP2 PUSH1 0x5 SWAP1 SWAP2 MUL PUSH32 0xE4562A10381DEC21B205ED72637E6B1B523BDD0E4D4D50AF5CD23DD4500A211 ADD SWAP1 DUP2 SWAP1 PUSH2 0x20B8 SWAP1 DUP3 PUSH2 0x4105 JUMP JUMPDEST POP PUSH1 0x20 DUP3 ADD MLOAD PUSH1 0x1 DUP3 ADD SWAP1 PUSH2 0x20CD SWAP1 DUP3 PUSH2 0x4105 JUMP JUMPDEST POP PUSH1 0x40 DUP3 ADD MLOAD PUSH1 0x2 DUP3 ADD SWAP1 PUSH2 0x20E2 SWAP1 DUP3 PUSH2 0x4105 JUMP JUMPDEST POP PUSH1 0x60 DUP3 ADD MLOAD PUSH1 0x3 DUP3 ADD DUP1 SLOAD PUSH1 0x1 PUSH1 0x1 PUSH1 0xA0 SHL SUB NOT AND PUSH1 0x1 PUSH1 0x1 PUSH1 0xA0 SHL SUB SWAP1 SWAP3 AND SWAP2 SWAP1 SWAP2 OR SWAP1 SSTORE PUSH1 0x80 SWAP1 SWAP2 ADD MLOAD PUSH1 0x4 SWAP1 SWAP2 ADD SSTORE CALLER PUSH1 0x0 SWAP1 DUP2 MSTORE PUSH1 0x14 PUSH1 0x20 SWAP1 DUP2 MSTORE PUSH1 0x40 DUP1 DUP4 KECCAK256 PUSH1 0x6 SLOAD DUP5 MSTORE SWAP1 SWAP2 MSTORE SWAP1 KECCAK256 PUSH1 0x1C DUP1 SLOAD PUSH2 0x2140 SWAP3 SWAP2 SWAP1 PUSH2 0x3823 JUMP JUMPDEST POP PUSH1 0x6 SLOAD PUSH1 0x0 SWAP1 DUP2 MSTORE PUSH1 0x15 PUSH1 0x20 MSTORE PUSH1 0x40 SWAP1 KECCAK256 DUP3 MLOAD DUP4 SWAP2 SWAP1 DUP2 SWAP1 PUSH2 0x2163 SWAP1 DUP3 PUSH2 0x4105 JUMP JUMPDEST POP PUSH1 0x20 DUP3 ADD MLOAD PUSH1 0x1 DUP3 ADD SWAP1 PUSH2 0x2178 SWAP1 DUP3 PUSH2 0x4105 JUMP JUMPDEST POP PUSH1 0x40 DUP3 ADD MLOAD PUSH1 0x2 DUP3 ADD SWAP1 PUSH2 0x218D SWAP1 DUP3 PUSH2 0x4105 JUMP JUMPDEST POP PUSH1 0x60 DUP3 DUP2 ADD MLOAD PUSH1 0x3 DUP4 DUP2 ADD DUP1 SLOAD PUSH1 0x1 PUSH1 0x1 PUSH1 0xA0 SHL SUB NOT SWAP1 DUP2 AND PUSH1 0x1 PUSH1 0x1 PUSH1 0xA0 SHL SUB SWAP5 DUP6 AND OR SWAP1 SWAP2 SSTORE PUSH1 0x80 SWAP1 SWAP6 ADD MLOAD PUSH1 0x4 SWAP5 DUP6 ADD SSTORE PUSH1 0x6 DUP1 SLOAD CALLER PUSH1 0x0 DUP2 DUP2 MSTORE PUSH1 0x13 PUSH1 0x20 SWAP1 DUP2 MSTORE PUSH1 0x40 DUP1 DUP4 KECCAK256 DUP6 SWAP1 SSTORE SWAP4 DUP3 MSTORE PUSH1 0x12 DUP2 MSTORE DUP4 DUP3 KECCAK256 DUP4 DUP4 MSTORE DUP2 MSTORE DUP4 DUP3 KECCAK256 DUP1 SLOAD PUSH1 0xFF NOT SWAP1 DUP2 AND PUSH1 0x1 SWAP1 DUP2 OR SWAP1 SWAP3 SSTORE DUP7 SLOAD DUP5 MSTORE PUSH1 0x19 DUP4 MSTORE DUP6 DUP5 KECCAK256 DUP1 SLOAD DUP1 DUP5 ADD DUP3 SSTORE SWAP1 DUP6 MSTORE DUP4 DUP6 KECCAK256 DUP15 MLOAD SWAP2 SWAP1 SWAP13 MUL SWAP1 SWAP12 ADD DUP1 SLOAD SWAP1 SWAP13 AND SWAP11 SWAP1 SWAP9 AND SWAP10 SWAP1 SWAP10 OR DUP11 SSTORE DUP11 DUP2 ADD MLOAD DUP11 DUP11 ADD SSTORE DUP11 DUP5 ADD MLOAD PUSH1 0x2 DUP12 ADD SSTORE SWAP7 DUP11 ADD MLOAD SWAP9 SWAP1 SWAP5 ADD SWAP8 SWAP1 SWAP8 SSTORE SWAP6 DUP3 MSTORE PUSH1 0x1A SWAP1 SWAP4 MSTORE SWAP4 DUP5 KECCAK256 DUP1 SLOAD SWAP1 SWAP2 AND SWAP1 SWAP3 OR SWAP1 SWAP2 SSTORE DUP1 SLOAD SWAP2 PUSH2 0x226C DUP4 PUSH2 0x4226 JUMP JUMPDEST SWAP2 SWAP1 POP SSTORE POP POP POP POP POP POP JUMP JUMPDEST PUSH2 0x2280 PUSH2 0x2CFD JUMP JUMPDEST PUSH1 0xF SLOAD PUSH1 0x1 PUSH1 0xA0 SHL SWAP1 DIV PUSH1 0xFF AND ISZERO PUSH2 0x22CE JUMPI PUSH1 0x40 MLOAD PUSH3 0x461BCD PUSH1 0xE5 SHL DUP2 MSTORE PUSH1 0x20 PUSH1 0x4 DUP3 ADD MSTORE PUSH1 0x11 PUSH1 0x24 DUP3 ADD MSTORE PUSH17 0x636F6E7472616374206973207061757365 PUSH1 0x78 SHL PUSH1 0x44 DUP3 ADD MSTORE PUSH1 0x64 ADD PUSH2 0xAD6 JUMP JUMPDEST PUSH1 0x5 DUP1 SLOAD PUSH1 0x1 PUSH1 0x1 PUSH1 0xA0 SHL SUB NOT AND PUSH1 0x1 PUSH1 0x1 PUSH1 0xA0 SHL SUB SWAP3 SWAP1 SWAP3 AND SWAP2 SWAP1 SWAP2 OR SWAP1 SSTORE JUMP JUMPDEST PUSH1 0x19 PUSH1 0x20 MSTORE DUP2 PUSH1 0x0 MSTORE PUSH1 0x40 PUSH1 0x0 KECCAK256 DUP2 DUP2 SLOAD DUP2 LT PUSH2 0x230C JUMPI PUSH1 0x0 DUP1 REVERT JUMPDEST PUSH1 0x0 SWAP2 DUP3 MSTORE PUSH1 0x20 SWAP1 SWAP2 KECCAK256 PUSH1 0x4 SWAP1 SWAP2 MUL ADD DUP1 SLOAD PUSH1 0x1 DUP3 ADD SLOAD PUSH1 0x2 DUP4 ADD SLOAD PUSH1 0x3 SWAP1 SWAP4 ADD SLOAD PUSH1 0x1 PUSH1 0x1 PUSH1 0xA0 SHL SUB SWAP1 SWAP3 AND SWAP5 POP SWAP3 POP DUP5 JUMP JUMPDEST PUSH1 0xC DUP2 DUP2 SLOAD DUP2 LT PUSH2 0x2350 JUMPI PUSH1 0x0 DUP1 REVERT JUMPDEST PUSH1 0x0 SWAP2 DUP3 MSTORE PUSH1 0x20 SWAP1 SWAP2 KECCAK256 PUSH1 0x4 SWAP1 SWAP2 MUL ADD DUP1 SLOAD PUSH1 0x1 DUP3 ADD SLOAD PUSH1 0x2 DUP4 ADD SLOAD PUSH1 0x3 SWAP1 SWAP4 ADD SLOAD SWAP2 SWAP4 POP PUSH1 0x1 PUSH1 0x1 PUSH1 0xA0 SHL SUB AND SWAP2 SWAP1 DUP5 JUMP JUMPDEST PUSH1 0xB DUP2 DUP2 SLOAD DUP2 LT PUSH2 0x17E1 JUMPI PUSH1 0x0 DUP1 REVERT JUMPDEST PUSH1 0x1C DUP2 DUP2 SLOAD DUP2 LT PUSH2 0x23A3 JUMPI PUSH1 0x0 DUP1 REVERT JUMPDEST SWAP1 PUSH1 0x0 MSTORE PUSH1 0x20 PUSH1 0x0 KECCAK256 SWAP1 PUSH1 0x5 MUL ADD PUSH1 0x0 SWAP2 POP SWAP1 POP DUP1 PUSH1 0x0 ADD DUP1 SLOAD PUSH2 0x100C SWAP1 PUSH2 0x4085 JUMP JUMPDEST PUSH2 0x23CE PUSH2 0x2CFD JUMP JUMPDEST PUSH1 0x8 SSTORE JUMP JUMPDEST CALLER PUSH1 0x0 DUP2 DUP2 MSTORE PUSH1 0x13 PUSH1 0x20 SWAP1 DUP2 MSTORE PUSH1 0x40 DUP1 DUP4 KECCAK256 SLOAD DUP4 MSTORE PUSH1 0x12 DUP3 MSTORE DUP1 DUP4 KECCAK256 SWAP4 DUP4 MSTORE SWAP3 SWAP1 MSTORE KECCAK256 SLOAD PUSH1 0xFF AND ISZERO ISZERO PUSH1 0x1 EQ PUSH2 0x2441 JUMPI PUSH1 0x40 MLOAD PUSH3 0x461BCD PUSH1 0xE5 SHL DUP2 MSTORE PUSH1 0x20 PUSH1 0x4 DUP3 ADD MSTORE PUSH1 0x13 PUSH1 0x24 DUP3 ADD MSTORE PUSH19 0x3CB7BA9030B932903737BA1036B0B730B3B2B9 PUSH1 0x69 SHL PUSH1 0x44 DUP3 ADD MSTORE PUSH1 0x64 ADD PUSH2 0xAD6 JUMP JUMPDEST CALLER PUSH1 0x0 DUP2 DUP2 MSTORE PUSH1 0x14 PUSH1 0x20 SWAP1 DUP2 MSTORE PUSH1 0x40 DUP1 DUP4 KECCAK256 PUSH1 0x13 DUP1 DUP5 MSTORE DUP3 DUP6 KECCAK256 SLOAD DUP1 DUP7 MSTORE SWAP2 DUP5 MSTORE SWAP2 DUP5 KECCAK256 SWAP5 SWAP1 SWAP4 MSTORE SWAP1 MSTORE DUP2 SLOAD DUP4 SWAP3 SWAP2 SWAP1 DUP2 LT PUSH2 0x247F JUMPI PUSH2 0x247F PUSH2 0x4210 JUMP JUMPDEST PUSH1 0x0 SWAP2 DUP3 MSTORE PUSH1 0x20 DUP1 DUP4 KECCAK256 PUSH1 0x5 SWAP3 SWAP1 SWAP3 MUL SWAP1 SWAP2 ADD PUSH1 0x3 ADD DUP1 SLOAD PUSH1 0x1 PUSH1 0x1 PUSH1 0xA0 SHL SUB NOT AND PUSH1 0x1 PUSH1 0x1 PUSH1 0xA0 SHL SUB SWAP5 SWAP1 SWAP5 AND SWAP4 SWAP1 SWAP4 OR SWAP1 SWAP3 SSTORE CALLER DUP2 MSTORE PUSH1 0x1A SWAP1 SWAP2 MSTORE PUSH1 0x40 SWAP1 KECCAK256 DUP1 SLOAD PUSH1 0xFF NOT AND PUSH1 0x1 OR SWAP1 SSTORE POP JUMP JUMPDEST PUSH1 0x0 JUMPDEST PUSH1 0x0 DUP3 DUP2 MSTORE PUSH1 0x19 PUSH1 0x20 MSTORE PUSH1 0x40 SWAP1 KECCAK256 SLOAD DUP2 LT ISZERO PUSH2 0x264D JUMPI PUSH1 0x0 DUP3 DUP2 MSTORE PUSH1 0x19 PUSH1 0x20 MSTORE PUSH1 0x40 SWAP1 KECCAK256 DUP1 SLOAD DUP3 SWAP1 DUP2 LT PUSH2 0x2507 JUMPI PUSH2 0x2507 PUSH2 0x4210 JUMP JUMPDEST PUSH1 0x0 SWAP2 DUP3 MSTORE PUSH1 0x20 SWAP1 SWAP2 KECCAK256 PUSH1 0x4 SWAP1 SWAP2 MUL ADD SLOAD PUSH1 0x1 PUSH1 0x1 PUSH1 0xA0 SHL SUB AND CALLER SUB PUSH2 0x263B JUMPI PUSH1 0x0 DUP3 DUP2 MSTORE PUSH1 0x19 PUSH1 0x20 MSTORE PUSH1 0x40 SWAP1 KECCAK256 DUP1 SLOAD PUSH2 0x2543 SWAP1 PUSH1 0x1 SWAP1 PUSH2 0x42C5 JUMP JUMPDEST DUP2 SLOAD DUP2 LT PUSH2 0x2553 JUMPI PUSH2 0x2553 PUSH2 0x4210 JUMP JUMPDEST SWAP1 PUSH1 0x0 MSTORE PUSH1 0x20 PUSH1 0x0 KECCAK256 SWAP1 PUSH1 0x4 MUL ADD PUSH1 0x19 PUSH1 0x0 DUP5 DUP2 MSTORE PUSH1 0x20 ADD SWAP1 DUP2 MSTORE PUSH1 0x20 ADD PUSH1 0x0 KECCAK256 DUP3 DUP2 SLOAD DUP2 LT PUSH2 0x2585 JUMPI PUSH2 0x2585 PUSH2 0x4210 JUMP JUMPDEST PUSH1 0x0 SWAP2 DUP3 MSTORE PUSH1 0x20 DUP1 DUP4 KECCAK256 DUP5 SLOAD PUSH1 0x4 SWAP1 SWAP4 MUL ADD DUP1 SLOAD PUSH1 0x1 PUSH1 0x1 PUSH1 0xA0 SHL SUB NOT AND PUSH1 0x1 PUSH1 0x1 PUSH1 0xA0 SHL SUB SWAP1 SWAP4 AND SWAP3 SWAP1 SWAP3 OR DUP3 SSTORE PUSH1 0x1 DUP1 DUP6 ADD SLOAD SWAP1 DUP4 ADD SSTORE PUSH1 0x2 DUP1 DUP6 ADD SLOAD SWAP1 DUP4 ADD SSTORE PUSH1 0x3 SWAP4 DUP5 ADD SLOAD SWAP4 SWAP1 SWAP2 ADD SWAP3 SWAP1 SWAP3 SSTORE DUP4 DUP2 MSTORE PUSH1 0x19 SWAP1 SWAP2 MSTORE PUSH1 0x40 SWAP1 KECCAK256 DUP1 SLOAD DUP1 PUSH2 0x25F1 JUMPI PUSH2 0x25F1 PUSH2 0x42D8 JUMP JUMPDEST PUSH1 0x0 DUP3 DUP2 MSTORE PUSH1 0x20 DUP2 KECCAK256 PUSH1 0x4 PUSH1 0x0 NOT SWAP1 SWAP4 ADD SWAP3 DUP4 MUL ADD DUP1 SLOAD PUSH1 0x1 PUSH1 0x1 PUSH1 0xA0 SHL SUB NOT AND DUP2 SSTORE PUSH1 0x1 DUP2 DUP2 ADD DUP4 SWAP1 SSTORE PUSH1 0x2 DUP3 ADD DUP4 SWAP1 SSTORE PUSH1 0x3 SWAP1 SWAP2 ADD SWAP2 SWAP1 SWAP2 SSTORE SWAP2 SSTORE PUSH2 0x263B SWAP1 CALLER SWAP1 DUP5 SWAP1 PUSH2 0x31E3 JUMP JUMPDEST DUP1 PUSH2 0x2645 DUP2 PUSH2 0x4226 JUMP JUMPDEST SWAP2 POP POP PUSH2 0x24D1 JUMP JUMPDEST POP PUSH1 0x40 MLOAD PUSH3 0x461BCD PUSH1 0xE5 SHL DUP2 MSTORE PUSH1 0x20 PUSH1 0x4 DUP3 ADD MSTORE PUSH1 0x19 PUSH1 0x24 DUP3 ADD MSTORE PUSH32 0x796F752068617665206E6F74206A6F696E2061206775696C6400000000000000 PUSH1 0x44 DUP3 ADD MSTORE PUSH1 0x64 ADD PUSH2 0xAD6 JUMP JUMPDEST POP JUMP JUMPDEST PUSH2 0x26A1 PUSH2 0x2CFD JUMP JUMPDEST PUSH1 0x0 JUMPDEST DUP2 MLOAD DUP2 LT ISZERO PUSH2 0x1376 JUMPI PUSH1 0x11 PUSH1 0x0 DUP4 DUP4 DUP2 MLOAD DUP2 LT PUSH2 0x26C3 JUMPI PUSH2 0x26C3 PUSH2 0x4210 JUMP JUMPDEST PUSH1 0x20 SWAP1 DUP2 MUL SWAP2 SWAP1 SWAP2 ADD DUP2 ADD MLOAD PUSH1 0x1 PUSH1 0x1 PUSH1 0xA0 SHL SUB AND DUP3 MSTORE DUP2 ADD SWAP2 SWAP1 SWAP2 MSTORE PUSH1 0x40 ADD PUSH1 0x0 KECCAK256 SLOAD PUSH1 0xFF AND PUSH2 0x2736 JUMPI PUSH1 0x40 MLOAD PUSH3 0x461BCD PUSH1 0xE5 SHL DUP2 MSTORE PUSH1 0x20 PUSH1 0x4 DUP3 ADD MSTORE PUSH1 0x1A PUSH1 0x24 DUP3 ADD MSTORE PUSH32 0x57686974654C6973742061646465642072657065617465646C79000000000000 PUSH1 0x44 DUP3 ADD MSTORE PUSH1 0x64 ADD PUSH2 0xAD6 JUMP JUMPDEST PUSH1 0x0 PUSH1 0x11 PUSH1 0x0 DUP5 DUP5 DUP2 MLOAD DUP2 LT PUSH2 0x274E JUMPI PUSH2 0x274E PUSH2 0x4210 JUMP JUMPDEST PUSH1 0x20 MUL PUSH1 0x20 ADD ADD MLOAD PUSH1 0x1 PUSH1 0x1 PUSH1 0xA0 SHL SUB AND PUSH1 0x1 PUSH1 0x1 PUSH1 0xA0 SHL SUB AND DUP2 MSTORE PUSH1 0x20 ADD SWAP1 DUP2 MSTORE PUSH1 0x20 ADD PUSH1 0x0 KECCAK256 PUSH1 0x0 PUSH2 0x100 EXP DUP2 SLOAD DUP2 PUSH1 0xFF MUL NOT AND SWAP1 DUP4 ISZERO ISZERO MUL OR SWAP1 SSTORE POP PUSH2 0x27AF DUP3 DUP3 DUP2 MLOAD DUP2 LT PUSH2 0x27A2 JUMPI PUSH2 0x27A2 PUSH2 0x4210 JUMP JUMPDEST PUSH1 0x20 MUL PUSH1 0x20 ADD ADD MLOAD PUSH2 0x335F JUMP JUMPDEST DUP1 PUSH2 0x27B9 DUP2 PUSH2 0x4226 JUMP JUMPDEST SWAP2 POP POP PUSH2 0x26A4 JUMP JUMPDEST PUSH1 0x1 PUSH1 0x1 PUSH1 0xA0 SHL SUB DUP6 AND CALLER EQ DUP1 ISZERO PUSH2 0x27E1 JUMPI POP PUSH1 0x1 PUSH1 0x1 PUSH1 0xA0 SHL SUB DUP5 AND CALLER EQ JUMPDEST PUSH2 0x281F JUMPI PUSH1 0x40 MLOAD PUSH3 0x461BCD PUSH1 0xE5 SHL DUP2 MSTORE PUSH1 0x20 PUSH1 0x4 DUP3 ADD MSTORE PUSH1 0xF PUSH1 0x24 DUP3 ADD MSTORE PUSH15 0x3737BA103A37903A3930B739B332B9 PUSH1 0x89 SHL PUSH1 0x44 DUP3 ADD MSTORE PUSH1 0x64 ADD PUSH2 0xAD6 JUMP JUMPDEST PUSH1 0x1 PUSH1 0x1 PUSH1 0xA0 SHL SUB DUP6 AND CALLER EQ DUP1 PUSH2 0x283B JUMPI POP PUSH2 0x283B DUP6 CALLER PUSH2 0x990 JUMP JUMPDEST PUSH2 0x2857 JUMPI PUSH1 0x40 MLOAD PUSH3 0x461BCD PUSH1 0xE5 SHL DUP2 MSTORE PUSH1 0x4 ADD PUSH2 0xAD6 SWAP1 PUSH2 0x4276 JUMP JUMPDEST PUSH2 0x1640 DUP6 DUP6 DUP6 DUP6 DUP6 PUSH2 0x345E JUMP JUMPDEST PUSH2 0x286C PUSH2 0x2CFD JUMP JUMPDEST PUSH1 0x1 PUSH1 0x1 PUSH1 0xA0 SHL SUB DUP2 AND PUSH2 0x28D1 JUMPI PUSH1 0x40 MLOAD PUSH3 0x461BCD PUSH1 0xE5 SHL DUP2 MSTORE PUSH1 0x20 PUSH1 0x4 DUP3 ADD MSTORE PUSH1 0x26 PUSH1 0x24 DUP3 ADD MSTORE PUSH32 0x4F776E61626C653A206E6577206F776E657220697320746865207A65726F2061 PUSH1 0x44 DUP3 ADD MSTORE PUSH6 0x646472657373 PUSH1 0xD0 SHL PUSH1 0x64 DUP3 ADD MSTORE PUSH1 0x84 ADD PUSH2 0xAD6 JUMP JUMPDEST PUSH2 0x2696 DUP2 PUSH2 0x30B1 JUMP JUMPDEST PUSH1 0x3 SLOAD PUSH1 0x1 PUSH1 0x1 PUSH1 0xA0 SHL SUB AND CALLER EQ DUP1 PUSH2 0x2919 JUMPI POP CALLER PUSH1 0x0 DUP2 DUP2 MSTORE PUSH1 0x13 PUSH1 0x20 SWAP1 DUP2 MSTORE PUSH1 0x40 DUP1 DUP4 KECCAK256 SLOAD DUP4 MSTORE PUSH1 0x15 SWAP1 SWAP2 MSTORE SWAP1 KECCAK256 PUSH1 0x3 ADD SLOAD PUSH1 0x1 PUSH1 0x1 PUSH1 0xA0 SHL SUB AND EQ JUMPDEST PUSH2 0x2935 JUMPI PUSH1 0x40 MLOAD PUSH3 0x461BCD PUSH1 0xE5 SHL DUP2 MSTORE PUSH1 0x4 ADD PUSH2 0xAD6 SWAP1 PUSH2 0x41C4 JUMP JUMPDEST PUSH1 0x8 SLOAD DUP2 GT ISZERO PUSH2 0x2993 JUMPI PUSH1 0x40 MLOAD PUSH3 0x461BCD PUSH1 0xE5 SHL DUP2 MSTORE PUSH1 0x20 PUSH1 0x4 DUP3 ADD MSTORE PUSH1 0x24 DUP1 DUP3 ADD MSTORE PUSH32 0x457863656564656420746865206D6178696D756D207472616E7366657220616D PUSH1 0x44 DUP3 ADD MSTORE PUSH4 0x1BDD5B9D PUSH1 0xE2 SHL PUSH1 0x64 DUP3 ADD MSTORE PUSH1 0x84 ADD PUSH2 0xAD6 JUMP JUMPDEST PUSH1 0x9 SLOAD PUSH1 0x40 MLOAD PUSH4 0x70A08231 PUSH1 0xE0 SHL DUP2 MSTORE ADDRESS PUSH1 0x4 DUP3 ADD MSTORE PUSH1 0x0 SWAP2 PUSH1 0x1 PUSH1 0x1 PUSH1 0xA0 SHL SUB AND SWAP1 PUSH4 0x70A08231 SWAP1 PUSH1 0x24 ADD PUSH1 0x20 PUSH1 0x40 MLOAD DUP1 DUP4 SUB DUP2 PUSH1 0x0 DUP8 GAS CALL ISZERO DUP1 ISZERO PUSH2 0x29DE JUMPI RETURNDATASIZE PUSH1 0x0 DUP1 RETURNDATACOPY RETURNDATASIZE PUSH1 0x0 REVERT JUMPDEST POP POP POP POP PUSH1 0x40 MLOAD RETURNDATASIZE PUSH1 0x1F NOT PUSH1 0x1F DUP3 ADD AND DUP3 ADD DUP1 PUSH1 0x40 MSTORE POP DUP2 ADD SWAP1 PUSH2 0x2A02 SWAP2 SWAP1 PUSH2 0x406C JUMP JUMPDEST GT PUSH2 0x2A4F JUMPI PUSH1 0x40 MLOAD PUSH3 0x461BCD PUSH1 0xE5 SHL DUP2 MSTORE PUSH1 0x20 PUSH1 0x4 DUP3 ADD MSTORE PUSH1 0x19 PUSH1 0x24 DUP3 ADD MSTORE PUSH32 0x62616C616E6365206F662074686973206E6F20616D6F756E7400000000000000 PUSH1 0x44 DUP3 ADD MSTORE PUSH1 0x64 ADD PUSH2 0xAD6 JUMP JUMPDEST PUSH1 0xF SLOAD PUSH1 0x1 PUSH1 0xA0 SHL SWAP1 DIV PUSH1 0xFF AND ISZERO PUSH2 0x2A8B JUMPI PUSH1 0x3 SLOAD PUSH1 0x1 PUSH1 0x1 PUSH1 0xA0 SHL SUB AND CALLER EQ PUSH2 0x2A8B JUMPI PUSH1 0x40 MLOAD PUSH3 0x461BCD PUSH1 0xE5 SHL DUP2 MSTORE PUSH1 0x4 ADD PUSH2 0xAD6 SWAP1 PUSH2 0x41C4 JUMP JUMPDEST PUSH1 0x40 DUP1 MLOAD PUSH1 0xA0 DUP2 ADD DUP3 MSTORE CALLER PUSH1 0x0 DUP2 DUP2 MSTORE PUSH1 0x13 PUSH1 0x20 SWAP1 DUP2 MSTORE DUP5 DUP3 KECCAK256 SLOAD DUP5 MSTORE DUP4 ADD SWAP2 DUP3 MSTORE PUSH1 0x1 PUSH1 0x1 PUSH1 0xA0 SHL SUB DUP7 DUP2 AND DUP5 DUP7 ADD DUP2 DUP2 MSTORE PUSH1 0x60 DUP7 ADD DUP9 DUP2 MSTORE TIMESTAMP PUSH1 0x80 DUP9 ADD SWAP1 DUP2 MSTORE PUSH1 0xD DUP1 SLOAD PUSH1 0x1 DUP2 ADD DUP3 SSTORE SWAP7 MSTORE DUP8 MLOAD PUSH32 0xD7B6990105719101DABEB77144F2A3385C8033ACD3AF97E9423A695E81AD1EB5 PUSH1 0x5 SWAP1 SWAP8 MUL SWAP7 DUP8 ADD SSTORE SWAP6 MLOAD PUSH32 0xD7B6990105719101DABEB77144F2A3385C8033ACD3AF97E9423A695E81AD1EB6 DUP7 ADD DUP1 SLOAD PUSH1 0x1 PUSH1 0x1 PUSH1 0xA0 SHL SUB NOT SWAP1 DUP2 AND SWAP3 DUP8 AND SWAP3 SWAP1 SWAP3 OR SWAP1 SSTORE SWAP2 MLOAD PUSH32 0xD7B6990105719101DABEB77144F2A3385C8033ACD3AF97E9423A695E81AD1EB7 DUP7 ADD DUP1 SLOAD SWAP1 SWAP4 AND SWAP1 DUP6 AND OR SWAP1 SWAP2 SSTORE MLOAD PUSH32 0xD7B6990105719101DABEB77144F2A3385C8033ACD3AF97E9423A695E81AD1EB8 DUP5 ADD SSTORE SWAP3 MLOAD PUSH32 0xD7B6990105719101DABEB77144F2A3385C8033ACD3AF97E9423A695E81AD1EB9 SWAP1 SWAP3 ADD SWAP2 SWAP1 SWAP2 SSTORE PUSH1 0x9 SLOAD SWAP4 MLOAD PUSH4 0xA9059CBB PUSH1 0xE0 SHL DUP2 MSTORE PUSH1 0x4 DUP2 ADD SWAP3 SWAP1 SWAP3 MSTORE PUSH1 0x24 DUP3 ADD DUP6 SWAP1 MSTORE SWAP2 SWAP3 SWAP1 SWAP2 AND SWAP1 PUSH4 0xA9059CBB SWAP1 PUSH1 0x44 ADD PUSH1 0x20 PUSH1 0x40 MLOAD DUP1 DUP4 SUB DUP2 PUSH1 0x0 DUP8 GAS CALL ISZERO DUP1 ISZERO PUSH2 0x2C0D JUMPI RETURNDATASIZE PUSH1 0x0 DUP1 RETURNDATACOPY RETURNDATASIZE PUSH1 0x0 REVERT JUMPDEST POP POP POP POP PUSH1 0x40 MLOAD RETURNDATASIZE PUSH1 0x1F NOT PUSH1 0x1F DUP3 ADD AND DUP3 ADD DUP1 PUSH1 0x40 MSTORE POP DUP2 ADD SWAP1 PUSH2 0x2C31 SWAP2 SWAP1 PUSH2 0x43D0 JUMP JUMPDEST POP POP POP POP JUMP JUMPDEST PUSH2 0x2C3F PUSH2 0x2CFD JUMP JUMPDEST PUSH1 0x1 PUSH1 0x1 PUSH1 0xA0 SHL SUB DUP2 AND PUSH2 0x2C87 JUMPI PUSH1 0x40 MLOAD PUSH3 0x461BCD PUSH1 0xE5 SHL DUP2 MSTORE PUSH1 0x20 PUSH1 0x4 DUP3 ADD MSTORE PUSH1 0xF PUSH1 0x24 DUP3 ADD MSTORE PUSH15 0x696E76616C69642073657474696E67 PUSH1 0x88 SHL PUSH1 0x44 DUP3 ADD MSTORE PUSH1 0x64 ADD PUSH2 0xAD6 JUMP JUMPDEST PUSH1 0xE DUP1 SLOAD PUSH1 0x1 PUSH1 0x1 PUSH1 0xA0 SHL SUB NOT AND PUSH1 0x1 PUSH1 0x1 PUSH1 0xA0 SHL SUB SWAP3 SWAP1 SWAP3 AND SWAP2 SWAP1 SWAP2 OR SWAP1 SSTORE JUMP JUMPDEST PUSH2 0x2CB1 PUSH2 0x2CFD JUMP JUMPDEST PUSH1 0x4 DUP1 SLOAD PUSH1 0x1 PUSH1 0x1 PUSH1 0xA0 SHL SUB NOT AND PUSH1 0x1 PUSH1 0x1 PUSH1 0xA0 SHL SUB SWAP3 SWAP1 SWAP3 AND SWAP2 SWAP1 SWAP2 OR SWAP1 SSTORE JUMP JUMPDEST PUSH2 0x2CDB PUSH2 0x2CFD JUMP JUMPDEST PUSH1 0xF DUP1 SLOAD PUSH1 0x1 PUSH1 0x1 PUSH1 0xA0 SHL SUB NOT AND PUSH1 0x1 PUSH1 0x1 PUSH1 0xA0 SHL SUB SWAP3 SWAP1 SWAP3 AND SWAP2 SWAP1 SWAP2 OR SWAP1 SSTORE JUMP JUMPDEST PUSH1 0x3 SLOAD PUSH1 0x1 PUSH1 0x1 PUSH1 0xA0 SHL SUB AND CALLER EQ PUSH2 0x1C1B JUMPI PUSH1 0x40 MLOAD PUSH3 0x461BCD PUSH1 0xE5 SHL DUP2 MSTORE PUSH1 0x20 PUSH1 0x4 DUP3 ADD DUP2 SWAP1 MSTORE PUSH1 0x24 DUP3 ADD MSTORE PUSH32 0x4F776E61626C653A2063616C6C6572206973206E6F7420746865206F776E6572 PUSH1 0x44 DUP3 ADD MSTORE PUSH1 0x64 ADD PUSH2 0xAD6 JUMP JUMPDEST PUSH1 0x0 DUP1 JUMPDEST PUSH1 0xA SLOAD DUP2 LT ISZERO PUSH2 0x2DB7 JUMPI DUP3 PUSH1 0x1 PUSH1 0x1 PUSH1 0xA0 SHL SUB AND PUSH1 0xA DUP3 DUP2 SLOAD DUP2 LT PUSH2 0x2D82 JUMPI PUSH2 0x2D82 PUSH2 0x4210 JUMP JUMPDEST PUSH1 0x0 SWAP2 DUP3 MSTORE PUSH1 0x20 SWAP1 SWAP2 KECCAK256 ADD SLOAD PUSH1 0x1 PUSH1 0x1 PUSH1 0xA0 SHL SUB AND SUB PUSH2 0x2DA5 JUMPI POP PUSH1 0x0 SWAP3 SWAP2 POP POP JUMP JUMPDEST DUP1 PUSH2 0x2DAF DUP2 PUSH2 0x4226 JUMP JUMPDEST SWAP2 POP POP PUSH2 0x2D5B JUMP JUMPDEST POP PUSH1 0x1 SWAP3 SWAP2 POP POP JUMP JUMPDEST DUP2 MLOAD DUP4 MLOAD EQ PUSH2 0x2E22 JUMPI PUSH1 0x40 MLOAD PUSH3 0x461BCD PUSH1 0xE5 SHL DUP2 MSTORE PUSH1 0x20 PUSH1 0x4 DUP3 ADD MSTORE PUSH1 0x28 PUSH1 0x24 DUP3 ADD MSTORE PUSH32 0x455243313135353A2069647320616E6420616D6F756E7473206C656E67746820 PUSH1 0x44 DUP3 ADD MSTORE PUSH8 0xDAD2E6DAC2E8C6D PUSH1 0xC3 SHL PUSH1 0x64 DUP3 ADD MSTORE PUSH1 0x84 ADD PUSH2 0xAD6 JUMP JUMPDEST PUSH1 0x1 PUSH1 0x1 PUSH1 0xA0 SHL SUB DUP5 AND PUSH2 0x2E48 JUMPI PUSH1 0x40 MLOAD PUSH3 0x461BCD PUSH1 0xE5 SHL DUP2 MSTORE PUSH1 0x4 ADD PUSH2 0xAD6 SWAP1 PUSH2 0x43ED JUMP JUMPDEST CALLER PUSH1 0x0 JUMPDEST DUP5 MLOAD DUP2 LT ISZERO PUSH2 0x2F2F JUMPI PUSH1 0x0 DUP6 DUP3 DUP2 MLOAD DUP2 LT PUSH2 0x2E69 JUMPI PUSH2 0x2E69 PUSH2 0x4210 JUMP JUMPDEST PUSH1 0x20 MUL PUSH1 0x20 ADD ADD MLOAD SWAP1 POP PUSH1 0x0 DUP6 DUP4 DUP2 MLOAD DUP2 LT PUSH2 0x2E87 JUMPI PUSH2 0x2E87 PUSH2 0x4210 JUMP JUMPDEST PUSH1 0x20 SWAP1 DUP2 MUL SWAP2 SWAP1 SWAP2 ADD DUP2 ADD MLOAD PUSH1 0x0 DUP5 DUP2 MSTORE DUP1 DUP4 MSTORE PUSH1 0x40 DUP1 DUP3 KECCAK256 PUSH1 0x1 PUSH1 0x1 PUSH1 0xA0 SHL SUB DUP15 AND DUP4 MSTORE SWAP1 SWAP4 MSTORE SWAP2 SWAP1 SWAP2 KECCAK256 SLOAD SWAP1 SWAP2 POP DUP2 DUP2 LT ISZERO PUSH2 0x2ED7 JUMPI PUSH1 0x40 MLOAD PUSH3 0x461BCD PUSH1 0xE5 SHL DUP2 MSTORE PUSH1 0x4 ADD PUSH2 0xAD6 SWAP1 PUSH2 0x4432 JUMP JUMPDEST PUSH1 0x0 DUP4 DUP2 MSTORE PUSH1 0x20 DUP2 DUP2 MSTORE PUSH1 0x40 DUP1 DUP4 KECCAK256 PUSH1 0x1 PUSH1 0x1 PUSH1 0xA0 SHL SUB DUP15 DUP2 AND DUP6 MSTORE SWAP3 MSTORE DUP1 DUP4 KECCAK256 DUP6 DUP6 SUB SWAP1 SSTORE SWAP1 DUP12 AND DUP3 MSTORE DUP2 KECCAK256 DUP1 SLOAD DUP5 SWAP3 SWAP1 PUSH2 0x2F14 SWAP1 DUP5 SWAP1 PUSH2 0x41FD JUMP JUMPDEST SWAP3 POP POP DUP2 SWAP1 SSTORE POP POP POP POP DUP1 PUSH2 0x2F28 SWAP1 PUSH2 0x4226 JUMP JUMPDEST SWAP1 POP PUSH2 0x2E4C JUMP JUMPDEST POP DUP5 PUSH1 0x1 PUSH1 0x1 PUSH1 0xA0 SHL SUB AND DUP7 PUSH1 0x1 PUSH1 0x1 PUSH1 0xA0 SHL SUB AND DUP3 PUSH1 0x1 PUSH1 0x1 PUSH1 0xA0 SHL SUB AND PUSH32 0x4A39DC06D4C0DBC64B70AF90FD698A233A518AA5D07E595D983B8C0526C8F7FB DUP8 DUP8 PUSH1 0x40 MLOAD PUSH2 0x2F7F SWAP3 SWAP2 SWAP1 PUSH2 0x447C JUMP JUMPDEST PUSH1 0x40 MLOAD DUP1 SWAP2 SUB SWAP1 LOG4 PUSH2 0x2F95 DUP2 DUP8 DUP8 DUP8 DUP8 DUP8 PUSH2 0x3588 JUMP JUMPDEST POP POP POP POP POP POP JUMP JUMPDEST PUSH1 0x1 PUSH1 0x1 PUSH1 0xA0 SHL SUB DUP5 AND PUSH2 0x2FFD JUMPI PUSH1 0x40 MLOAD PUSH3 0x461BCD PUSH1 0xE5 SHL DUP2 MSTORE PUSH1 0x20 PUSH1 0x4 DUP3 ADD MSTORE PUSH1 0x21 PUSH1 0x24 DUP3 ADD MSTORE PUSH32 0x455243313135353A206D696E7420746F20746865207A65726F20616464726573 PUSH1 0x44 DUP3 ADD MSTORE PUSH1 0x73 PUSH1 0xF8 SHL PUSH1 0x64 DUP3 ADD MSTORE PUSH1 0x84 ADD PUSH2 0xAD6 JUMP JUMPDEST CALLER PUSH1 0x0 PUSH2 0x3009 DUP6 PUSH2 0x36E3 JUMP JUMPDEST SWAP1 POP PUSH1 0x0 PUSH2 0x3016 DUP6 PUSH2 0x36E3 JUMP JUMPDEST SWAP1 POP PUSH1 0x0 DUP7 DUP2 MSTORE PUSH1 0x20 DUP2 DUP2 MSTORE PUSH1 0x40 DUP1 DUP4 KECCAK256 PUSH1 0x1 PUSH1 0x1 PUSH1 0xA0 SHL SUB DUP12 AND DUP5 MSTORE SWAP1 SWAP2 MSTORE DUP2 KECCAK256 DUP1 SLOAD DUP8 SWAP3 SWAP1 PUSH2 0x3048 SWAP1 DUP5 SWAP1 PUSH2 0x41FD JUMP JUMPDEST SWAP1 SWAP2 SSTORE POP POP PUSH1 0x40 DUP1 MLOAD DUP8 DUP2 MSTORE PUSH1 0x20 DUP2 ADD DUP8 SWAP1 MSTORE PUSH1 0x1 PUSH1 0x1 PUSH1 0xA0 SHL SUB DUP1 DUP11 AND SWAP3 PUSH1 0x0 SWAP3 SWAP2 DUP8 AND SWAP2 PUSH32 0xC3D58168C5AE7397731D063D5BBF3D657854427343F4C083240F7AACAA2D0F62 SWAP2 ADD PUSH1 0x40 MLOAD DUP1 SWAP2 SUB SWAP1 LOG4 PUSH2 0x30A8 DUP4 PUSH1 0x0 DUP10 DUP10 DUP10 DUP10 PUSH2 0x372E JUMP JUMPDEST POP POP POP POP POP POP POP JUMP JUMPDEST PUSH1 0x3 DUP1 SLOAD PUSH1 0x1 PUSH1 0x1 PUSH1 0xA0 SHL SUB DUP4 DUP2 AND PUSH1 0x1 PUSH1 0x1 PUSH1 0xA0 SHL SUB NOT DUP4 AND DUP2 OR SWAP1 SWAP4 SSTORE PUSH1 0x40 MLOAD SWAP2 AND SWAP2 SWAP1 DUP3 SWAP1 PUSH32 0x8BE0079C531659141344CD1FD0A4F28419497F9722A3DAAFE3B4186F6B6457E0 SWAP1 PUSH1 0x0 SWAP1 LOG3 POP POP JUMP JUMPDEST DUP2 PUSH1 0x1 PUSH1 0x1 PUSH1 0xA0 SHL SUB AND DUP4 PUSH1 0x1 PUSH1 0x1 PUSH1 0xA0 SHL SUB AND SUB PUSH2 0x3176 JUMPI PUSH1 0x40 MLOAD PUSH3 0x461BCD PUSH1 0xE5 SHL DUP2 MSTORE PUSH1 0x20 PUSH1 0x4 DUP3 ADD MSTORE PUSH1 0x29 PUSH1 0x24 DUP3 ADD MSTORE PUSH32 0x455243313135353A2073657474696E6720617070726F76616C20737461747573 PUSH1 0x44 DUP3 ADD MSTORE PUSH9 0x103337B91039B2B633 PUSH1 0xB9 SHL PUSH1 0x64 DUP3 ADD MSTORE PUSH1 0x84 ADD PUSH2 0xAD6 JUMP JUMPDEST PUSH1 0x1 PUSH1 0x1 PUSH1 0xA0 SHL SUB DUP4 DUP2 AND PUSH1 0x0 DUP2 DUP2 MSTORE PUSH1 0x1 PUSH1 0x20 SWAP1 DUP2 MSTORE PUSH1 0x40 DUP1 DUP4 KECCAK256 SWAP5 DUP8 AND DUP1 DUP5 MSTORE SWAP5 DUP3 MSTORE SWAP2 DUP3 SWAP1 KECCAK256 DUP1 SLOAD PUSH1 0xFF NOT AND DUP7 ISZERO ISZERO SWAP1 DUP2 OR SWAP1 SWAP2 SSTORE SWAP2 MLOAD SWAP2 DUP3 MSTORE PUSH32 0x17307EAB39AB6107E8899845AD3D59BD9653F200F220920489CA2B5937696C31 SWAP2 ADD PUSH1 0x40 MLOAD DUP1 SWAP2 SUB SWAP1 LOG3 POP POP POP JUMP JUMPDEST PUSH1 0x1 PUSH1 0x1 PUSH1 0xA0 SHL SUB DUP4 AND PUSH2 0x3245 JUMPI PUSH1 0x40 MLOAD PUSH3 0x461BCD PUSH1 0xE5 SHL DUP2 MSTORE PUSH1 0x20 PUSH1 0x4 DUP3 ADD MSTORE PUSH1 0x23 PUSH1 0x24 DUP3 ADD MSTORE PUSH32 0x455243313135353A206275726E2066726F6D20746865207A65726F2061646472 PUSH1 0x44 DUP3 ADD MSTORE PUSH3 0x657373 PUSH1 0xE8 SHL PUSH1 0x64 DUP3 ADD MSTORE PUSH1 0x84 ADD PUSH2 0xAD6 JUMP JUMPDEST CALLER PUSH1 0x0 PUSH2 0x3251 DUP5 PUSH2 0x36E3 JUMP JUMPDEST SWAP1 POP PUSH1 0x0 PUSH2 0x325E DUP5 PUSH2 0x36E3 JUMP JUMPDEST PUSH1 0x40 DUP1 MLOAD PUSH1 0x20 DUP1 DUP3 ADD DUP4 MSTORE PUSH1 0x0 SWAP2 DUP3 SWAP1 MSTORE DUP9 DUP3 MSTORE DUP2 DUP2 MSTORE DUP3 DUP3 KECCAK256 PUSH1 0x1 PUSH1 0x1 PUSH1 0xA0 SHL SUB DUP12 AND DUP4 MSTORE SWAP1 MSTORE KECCAK256 SLOAD SWAP1 SWAP2 POP DUP5 DUP2 LT ISZERO PUSH2 0x32E7 JUMPI PUSH1 0x40 MLOAD PUSH3 0x461BCD PUSH1 0xE5 SHL DUP2 MSTORE PUSH1 0x20 PUSH1 0x4 DUP3 ADD MSTORE PUSH1 0x24 DUP1 DUP3 ADD MSTORE PUSH32 0x455243313135353A206275726E20616D6F756E7420657863656564732062616C PUSH1 0x44 DUP3 ADD MSTORE PUSH4 0x616E6365 PUSH1 0xE0 SHL PUSH1 0x64 DUP3 ADD MSTORE PUSH1 0x84 ADD PUSH2 0xAD6 JUMP JUMPDEST PUSH1 0x0 DUP7 DUP2 MSTORE PUSH1 0x20 DUP2 DUP2 MSTORE PUSH1 0x40 DUP1 DUP4 KECCAK256 PUSH1 0x1 PUSH1 0x1 PUSH1 0xA0 SHL SUB DUP12 DUP2 AND DUP1 DUP7 MSTORE SWAP2 DUP5 MSTORE DUP3 DUP6 KECCAK256 DUP11 DUP8 SUB SWAP1 SSTORE DUP3 MLOAD DUP12 DUP2 MSTORE SWAP4 DUP5 ADD DUP11 SWAP1 MSTORE SWAP1 SWAP3 SWAP1 DUP9 AND SWAP2 PUSH32 0xC3D58168C5AE7397731D063D5BBF3D657854427343F4C083240F7AACAA2D0F62 SWAP2 ADD PUSH1 0x40 MLOAD DUP1 SWAP2 SUB SWAP1 LOG4 PUSH1 0x40 DUP1 MLOAD PUSH1 0x20 DUP2 ADD SWAP1 SWAP2 MSTORE PUSH1 0x0 SWAP1 MSTORE PUSH2 0x30A8 JUMP JUMPDEST PUSH1 0x0 JUMPDEST PUSH1 0xA SLOAD DUP2 LT ISZERO PUSH2 0x1376 JUMPI PUSH1 0xA DUP2 DUP2 SLOAD DUP2 LT PUSH2 0x337F JUMPI PUSH2 0x337F PUSH2 0x4210 JUMP JUMPDEST PUSH1 0x0 SWAP2 DUP3 MSTORE PUSH1 0x20 SWAP1 SWAP2 KECCAK256 ADD SLOAD PUSH1 0x1 PUSH1 0x1 PUSH1 0xA0 SHL SUB SWAP1 DUP2 AND SWAP1 DUP4 AND SUB PUSH2 0x344C JUMPI PUSH1 0xA DUP1 SLOAD PUSH2 0x33AE SWAP1 PUSH1 0x1 SWAP1 PUSH2 0x42C5 JUMP JUMPDEST DUP2 SLOAD DUP2 LT PUSH2 0x33BE JUMPI PUSH2 0x33BE PUSH2 0x4210 JUMP JUMPDEST PUSH1 0x0 SWAP2 DUP3 MSTORE PUSH1 0x20 SWAP1 SWAP2 KECCAK256 ADD SLOAD PUSH1 0xA DUP1 SLOAD PUSH1 0x1 PUSH1 0x1 PUSH1 0xA0 SHL SUB SWAP1 SWAP3 AND SWAP2 DUP4 SWAP1 DUP2 LT PUSH2 0x33EA JUMPI PUSH2 0x33EA PUSH2 0x4210 JUMP JUMPDEST SWAP1 PUSH1 0x0 MSTORE PUSH1 0x20 PUSH1 0x0 KECCAK256 ADD PUSH1 0x0 PUSH2 0x100 EXP DUP2 SLOAD DUP2 PUSH1 0x1 PUSH1 0x1 PUSH1 0xA0 SHL SUB MUL NOT AND SWAP1 DUP4 PUSH1 0x1 PUSH1 0x1 PUSH1 0xA0 SHL SUB AND MUL OR SWAP1 SSTORE POP PUSH1 0xA DUP1 SLOAD DUP1 PUSH2 0x3429 JUMPI PUSH2 0x3429 PUSH2 0x42D8 JUMP JUMPDEST PUSH1 0x0 DUP3 DUP2 MSTORE PUSH1 0x20 SWAP1 KECCAK256 DUP2 ADD PUSH1 0x0 NOT SWAP1 DUP2 ADD DUP1 SLOAD PUSH1 0x1 PUSH1 0x1 PUSH1 0xA0 SHL SUB NOT AND SWAP1 SSTORE ADD SWAP1 SSTORE JUMPDEST DUP1 PUSH2 0x3456 DUP2 PUSH2 0x4226 JUMP JUMPDEST SWAP2 POP POP PUSH2 0x3362 JUMP JUMPDEST PUSH1 0x1 PUSH1 0x1 PUSH1 0xA0 SHL SUB DUP5 AND PUSH2 0x3484 JUMPI PUSH1 0x40 MLOAD PUSH3 0x461BCD PUSH1 0xE5 SHL DUP2 MSTORE PUSH1 0x4 ADD PUSH2 0xAD6 SWAP1 PUSH2 0x43ED JUMP JUMPDEST CALLER PUSH1 0x0 PUSH2 0x3490 DUP6 PUSH2 0x36E3 JUMP JUMPDEST SWAP1 POP PUSH1 0x0 PUSH2 0x349D DUP6 PUSH2 0x36E3 JUMP JUMPDEST SWAP1 POP PUSH1 0x0 DUP7 DUP2 MSTORE PUSH1 0x20 DUP2 DUP2 MSTORE PUSH1 0x40 DUP1 DUP4 KECCAK256 PUSH1 0x1 PUSH1 0x1 PUSH1 0xA0 SHL SUB DUP13 AND DUP5 MSTORE SWAP1 SWAP2 MSTORE SWAP1 KECCAK256 SLOAD DUP6 DUP2 LT ISZERO PUSH2 0x34E0 JUMPI PUSH1 0x40 MLOAD PUSH3 0x461BCD PUSH1 0xE5 SHL DUP2 MSTORE PUSH1 0x4 ADD PUSH2 0xAD6 SWAP1 PUSH2 0x4432 JUMP JUMPDEST PUSH1 0x0 DUP8 DUP2 MSTORE PUSH1 0x20 DUP2 DUP2 MSTORE PUSH1 0x40 DUP1 DUP4 KECCAK256 PUSH1 0x1 PUSH1 0x1 PUSH1 0xA0 SHL SUB DUP14 DUP2 AND DUP6 MSTORE SWAP3 MSTORE DUP1 DUP4 KECCAK256 DUP10 DUP6 SUB SWAP1 SSTORE SWAP1 DUP11 AND DUP3 MSTORE DUP2 KECCAK256 DUP1 SLOAD DUP9 SWAP3 SWAP1 PUSH2 0x351D SWAP1 DUP5 SWAP1 PUSH2 0x41FD JUMP JUMPDEST SWAP1 SWAP2 SSTORE POP POP PUSH1 0x40 DUP1 MLOAD DUP9 DUP2 MSTORE PUSH1 0x20 DUP2 ADD DUP9 SWAP1 MSTORE PUSH1 0x1 PUSH1 0x1 PUSH1 0xA0 SHL SUB DUP1 DUP12 AND SWAP3 DUP13 DUP3 AND SWAP3 SWAP2 DUP9 AND SWAP2 PUSH32 0xC3D58168C5AE7397731D063D5BBF3D657854427343F4C083240F7AACAA2D0F62 SWAP2 ADD PUSH1 0x40 MLOAD DUP1 SWAP2 SUB SWAP1 LOG4 PUSH2 0x357D DUP5 DUP11 DUP11 DUP11 DUP11 DUP11 PUSH2 0x372E JUMP JUMPDEST POP POP POP POP POP POP POP POP POP JUMP JUMPDEST PUSH1 0x1 PUSH1 0x1 PUSH1 0xA0 SHL SUB DUP5 AND EXTCODESIZE ISZERO PUSH2 0x2F95 JUMPI PUSH1 0x40 MLOAD PUSH4 0xBC197C81 PUSH1 0xE0 SHL DUP2 MSTORE PUSH1 0x1 PUSH1 0x1 PUSH1 0xA0 SHL SUB DUP6 AND SWAP1 PUSH4 0xBC197C81 SWAP1 PUSH2 0x35CC SWAP1 DUP10 SWAP1 DUP10 SWAP1 DUP9 SWAP1 DUP9 SWAP1 DUP9 SWAP1 PUSH1 0x4 ADD PUSH2 0x44A1 JUMP JUMPDEST PUSH1 0x20 PUSH1 0x40 MLOAD DUP1 DUP4 SUB DUP2 PUSH1 0x0 DUP8 GAS CALL SWAP3 POP POP POP DUP1 ISZERO PUSH2 0x3607 JUMPI POP PUSH1 0x40 DUP1 MLOAD PUSH1 0x1F RETURNDATASIZE SWAP1 DUP2 ADD PUSH1 0x1F NOT AND DUP3 ADD SWAP1 SWAP3 MSTORE PUSH2 0x3604 SWAP2 DUP2 ADD SWAP1 PUSH2 0x44FF JUMP JUMPDEST PUSH1 0x1 JUMPDEST PUSH2 0x36B3 JUMPI PUSH2 0x3613 PUSH2 0x451C JUMP JUMPDEST DUP1 PUSH4 0x8C379A0 SUB PUSH2 0x364C JUMPI POP PUSH2 0x3627 PUSH2 0x4538 JUMP JUMPDEST DUP1 PUSH2 0x3632 JUMPI POP PUSH2 0x364E JUMP JUMPDEST DUP1 PUSH1 0x40 MLOAD PUSH3 0x461BCD PUSH1 0xE5 SHL DUP2 MSTORE PUSH1 0x4 ADD PUSH2 0xAD6 SWAP2 SWAP1 PUSH2 0x3B51 JUMP JUMPDEST POP JUMPDEST PUSH1 0x40 MLOAD PUSH3 0x461BCD PUSH1 0xE5 SHL DUP2 MSTORE PUSH1 0x20 PUSH1 0x4 DUP3 ADD MSTORE PUSH1 0x34 PUSH1 0x24 DUP3 ADD MSTORE PUSH32 0x455243313135353A207472616E7366657220746F206E6F6E2D45524331313535 PUSH1 0x44 DUP3 ADD MSTORE PUSH20 0x2932B1B2B4BB32B91034B6B83632B6B2B73A32B9 PUSH1 0x61 SHL PUSH1 0x64 DUP3 ADD MSTORE PUSH1 0x84 ADD PUSH2 0xAD6 JUMP JUMPDEST PUSH1 0x1 PUSH1 0x1 PUSH1 0xE0 SHL SUB NOT DUP2 AND PUSH4 0xBC197C81 PUSH1 0xE0 SHL EQ PUSH2 0x30A8 JUMPI PUSH1 0x40 MLOAD PUSH3 0x461BCD PUSH1 0xE5 SHL DUP2 MSTORE PUSH1 0x4 ADD PUSH2 0xAD6 SWAP1 PUSH2 0x45C1 JUMP JUMPDEST PUSH1 0x40 DUP1 MLOAD PUSH1 0x1 DUP1 DUP3 MSTORE DUP2 DUP4 ADD SWAP1 SWAP3 MSTORE PUSH1 0x60 SWAP2 PUSH1 0x0 SWAP2 SWAP1 PUSH1 0x20 DUP1 DUP4 ADD SWAP1 DUP1 CALLDATASIZE DUP4 CALLDATACOPY ADD SWAP1 POP POP SWAP1 POP DUP3 DUP2 PUSH1 0x0 DUP2 MLOAD DUP2 LT PUSH2 0x371D JUMPI PUSH2 0x371D PUSH2 0x4210 JUMP JUMPDEST PUSH1 0x20 SWAP1 DUP2 MUL SWAP2 SWAP1 SWAP2 ADD ADD MSTORE SWAP3 SWAP2 POP POP JUMP JUMPDEST PUSH1 0x1 PUSH1 0x1 PUSH1 0xA0 SHL SUB DUP5 AND EXTCODESIZE ISZERO PUSH2 0x2F95 JUMPI PUSH1 0x40 MLOAD PUSH4 0xF23A6E61 PUSH1 0xE0 SHL DUP2 MSTORE PUSH1 0x1 PUSH1 0x1 PUSH1 0xA0 SHL SUB DUP6 AND SWAP1 PUSH4 0xF23A6E61 SWAP1 PUSH2 0x3772 SWAP1 DUP10 SWAP1 DUP10 SWAP1 DUP9 SWAP1 DUP9 SWAP1 DUP9 SWAP1 PUSH1 0x4 ADD PUSH2 0x4609 JUMP JUMPDEST PUSH1 0x20 PUSH1 0x40 MLOAD DUP1 DUP4 SUB DUP2 PUSH1 0x0 DUP8 GAS CALL SWAP3 POP POP POP DUP1 ISZERO PUSH2 0x37AD JUMPI POP PUSH1 0x40 DUP1 MLOAD PUSH1 0x1F RETURNDATASIZE SWAP1 DUP2 ADD PUSH1 0x1F NOT AND DUP3 ADD SWAP1 SWAP3 MSTORE PUSH2 0x37AA SWAP2 DUP2 ADD SWAP1 PUSH2 0x44FF JUMP JUMPDEST PUSH1 0x1 JUMPDEST PUSH2 0x37B9 JUMPI PUSH2 0x3613 PUSH2 0x451C JUMP JUMPDEST PUSH1 0x1 PUSH1 0x1 PUSH1 0xE0 SHL SUB NOT DUP2 AND PUSH4 0xF23A6E61 PUSH1 0xE0 SHL EQ PUSH2 0x30A8 JUMPI PUSH1 0x40 MLOAD PUSH3 0x461BCD PUSH1 0xE5 SHL DUP2 MSTORE PUSH1 0x4 ADD PUSH2 0xAD6 SWAP1 PUSH2 0x45C1 JUMP JUMPDEST POP DUP1 SLOAD PUSH2 0x37F5 SWAP1 PUSH2 0x4085 JUMP JUMPDEST PUSH1 0x0 DUP3 SSTORE DUP1 PUSH1 0x1F LT PUSH2 0x3805 JUMPI POP POP JUMP JUMPDEST PUSH1 0x1F ADD PUSH1 0x20 SWAP1 DIV SWAP1 PUSH1 0x0 MSTORE PUSH1 0x20 PUSH1 0x0 KECCAK256 SWAP1 DUP2 ADD SWAP1 PUSH2 0x2696 SWAP2 SWAP1 PUSH2 0x38D9 JUMP JUMPDEST DUP3 DUP1 SLOAD DUP3 DUP3 SSTORE SWAP1 PUSH1 0x0 MSTORE PUSH1 0x20 PUSH1 0x0 KECCAK256 SWAP1 PUSH1 0x5 MUL DUP2 ADD SWAP3 DUP3 ISZERO PUSH2 0x38C9 JUMPI PUSH1 0x0 MSTORE PUSH1 0x20 PUSH1 0x0 KECCAK256 SWAP2 PUSH1 0x5 MUL DUP3 ADD JUMPDEST DUP3 DUP2 GT ISZERO PUSH2 0x38C9 JUMPI DUP3 DUP3 DUP1 PUSH2 0x3863 DUP4 DUP3 PUSH2 0x464E JUMP JUMPDEST POP PUSH1 0x1 DUP2 DUP2 ADD SWAP1 PUSH2 0x3876 SWAP1 DUP5 ADD DUP3 PUSH2 0x464E JUMP JUMPDEST POP PUSH1 0x2 DUP2 DUP2 ADD SWAP1 PUSH2 0x3889 SWAP1 DUP5 ADD DUP3 PUSH2 0x464E JUMP JUMPDEST POP PUSH1 0x3 DUP3 DUP2 ADD SLOAD SWAP1 DUP3 ADD DUP1 SLOAD PUSH1 0x1 PUSH1 0x1 PUSH1 0xA0 SHL SUB NOT AND PUSH1 0x1 PUSH1 0x1 PUSH1 0xA0 SHL SUB SWAP1 SWAP3 AND SWAP2 SWAP1 SWAP2 OR SWAP1 SSTORE PUSH1 0x4 SWAP2 DUP3 ADD SLOAD SWAP2 ADD SSTORE PUSH1 0x5 SWAP3 DUP4 ADD SWAP3 SWAP2 SWAP1 SWAP2 ADD SWAP1 PUSH2 0x384E JUMP JUMPDEST POP PUSH2 0x38D5 SWAP3 SWAP2 POP PUSH2 0x38EE JUMP JUMPDEST POP SWAP1 JUMP JUMPDEST JUMPDEST DUP1 DUP3 GT ISZERO PUSH2 0x38D5 JUMPI PUSH1 0x0 DUP2 SSTORE PUSH1 0x1 ADD PUSH2 0x38DA JUMP JUMPDEST DUP1 DUP3 GT ISZERO PUSH2 0x38D5 JUMPI PUSH1 0x0 PUSH2 0x3902 DUP3 DUP3 PUSH2 0x37E9 JUMP JUMPDEST PUSH2 0x3910 PUSH1 0x1 DUP4 ADD PUSH1 0x0 PUSH2 0x37E9 JUMP JUMPDEST PUSH2 0x391E PUSH1 0x2 DUP4 ADD PUSH1 0x0 PUSH2 0x37E9 JUMP JUMPDEST POP PUSH1 0x3 DUP2 ADD DUP1 SLOAD PUSH1 0x1 PUSH1 0x1 PUSH1 0xA0 SHL SUB NOT AND SWAP1 SSTORE PUSH1 0x0 PUSH1 0x4 DUP3 ADD SSTORE PUSH1 0x5 ADD PUSH2 0x38EE JUMP JUMPDEST PUSH1 0x1 PUSH1 0x1 PUSH1 0xA0 SHL SUB DUP2 AND DUP2 EQ PUSH2 0x2696 JUMPI PUSH1 0x0 DUP1 REVERT JUMPDEST PUSH1 0x0 DUP1 PUSH1 0x40 DUP4 DUP6 SUB SLT ISZERO PUSH2 0x3968 JUMPI PUSH1 0x0 DUP1 REVERT JUMPDEST DUP3 CALLDATALOAD PUSH2 0x3973 DUP2 PUSH2 0x3940 JUMP JUMPDEST SWAP5 PUSH1 0x20 SWAP4 SWAP1 SWAP4 ADD CALLDATALOAD SWAP4 POP POP POP JUMP JUMPDEST PUSH1 0x1 PUSH1 0x1 PUSH1 0xE0 SHL SUB NOT DUP2 AND DUP2 EQ PUSH2 0x2696 JUMPI PUSH1 0x0 DUP1 REVERT JUMPDEST PUSH1 0x0 PUSH1 0x20 DUP3 DUP5 SUB SLT ISZERO PUSH2 0x39A9 JUMPI PUSH1 0x0 DUP1 REVERT JUMPDEST DUP2 CALLDATALOAD PUSH2 0x39B4 DUP2 PUSH2 0x3981 JUMP JUMPDEST SWAP4 SWAP3 POP POP POP JUMP JUMPDEST PUSH4 0x4E487B71 PUSH1 0xE0 SHL PUSH1 0x0 MSTORE PUSH1 0x41 PUSH1 0x4 MSTORE PUSH1 0x24 PUSH1 0x0 REVERT JUMPDEST PUSH1 0x1F DUP3 ADD PUSH1 0x1F NOT AND DUP2 ADD PUSH1 0x1 PUSH1 0x1 PUSH1 0x40 SHL SUB DUP2 GT DUP3 DUP3 LT OR ISZERO PUSH2 0x39F6 JUMPI PUSH2 0x39F6 PUSH2 0x39BB JUMP JUMPDEST PUSH1 0x40 MSTORE POP POP JUMP JUMPDEST PUSH1 0x0 PUSH1 0x1 PUSH1 0x1 PUSH1 0x40 SHL SUB DUP3 GT ISZERO PUSH2 0x3A16 JUMPI PUSH2 0x3A16 PUSH2 0x39BB JUMP JUMPDEST POP PUSH1 0x1F ADD PUSH1 0x1F NOT AND PUSH1 0x20 ADD SWAP1 JUMP JUMPDEST PUSH1 0x0 DUP3 PUSH1 0x1F DUP4 ADD SLT PUSH2 0x3A35 JUMPI PUSH1 0x0 DUP1 REVERT JUMPDEST DUP2 CALLDATALOAD PUSH2 0x3A40 DUP2 PUSH2 0x39FD JUMP JUMPDEST PUSH1 0x40 MLOAD PUSH2 0x3A4D DUP3 DUP3 PUSH2 0x39D1 JUMP JUMPDEST DUP3 DUP2 MSTORE DUP6 PUSH1 0x20 DUP5 DUP8 ADD ADD GT ISZERO PUSH2 0x3A62 JUMPI PUSH1 0x0 DUP1 REVERT JUMPDEST DUP3 PUSH1 0x20 DUP7 ADD PUSH1 0x20 DUP4 ADD CALLDATACOPY PUSH1 0x0 SWAP3 DUP2 ADD PUSH1 0x20 ADD SWAP3 SWAP1 SWAP3 MSTORE POP SWAP4 SWAP3 POP POP POP JUMP JUMPDEST PUSH1 0x0 DUP1 PUSH1 0x40 DUP4 DUP6 SUB SLT ISZERO PUSH2 0x3A93 JUMPI PUSH1 0x0 DUP1 REVERT JUMPDEST DUP3 CALLDATALOAD SWAP2 POP PUSH1 0x20 DUP4 ADD CALLDATALOAD PUSH1 0x1 PUSH1 0x1 PUSH1 0x40 SHL SUB DUP2 GT ISZERO PUSH2 0x3AB0 JUMPI PUSH1 0x0 DUP1 REVERT JUMPDEST PUSH2 0x3ABC DUP6 DUP3 DUP7 ADD PUSH2 0x3A24 JUMP JUMPDEST SWAP2 POP POP SWAP3 POP SWAP3 SWAP1 POP JUMP JUMPDEST PUSH1 0x0 DUP1 PUSH1 0x40 DUP4 DUP6 SUB SLT ISZERO PUSH2 0x3AD9 JUMPI PUSH1 0x0 DUP1 REVERT JUMPDEST POP POP DUP1 CALLDATALOAD SWAP3 PUSH1 0x20 SWAP1 SWAP2 ADD CALLDATALOAD SWAP2 POP JUMP JUMPDEST PUSH1 0x0 PUSH1 0x20 DUP3 DUP5 SUB SLT ISZERO PUSH2 0x3AFA JUMPI PUSH1 0x0 DUP1 REVERT JUMPDEST POP CALLDATALOAD SWAP2 SWAP1 POP JUMP JUMPDEST PUSH1 0x0 JUMPDEST DUP4 DUP2 LT ISZERO PUSH2 0x3B1C JUMPI DUP2 DUP2 ADD MLOAD DUP4 DUP3 ADD MSTORE PUSH1 0x20 ADD PUSH2 0x3B04 JUMP JUMPDEST POP POP PUSH1 0x0 SWAP2 ADD MSTORE JUMP JUMPDEST PUSH1 0x0 DUP2 MLOAD DUP1 DUP5 MSTORE PUSH2 0x3B3D DUP2 PUSH1 0x20 DUP7 ADD PUSH1 0x20 DUP7 ADD PUSH2 0x3B01 JUMP JUMPDEST PUSH1 0x1F ADD PUSH1 0x1F NOT AND SWAP3 SWAP1 SWAP3 ADD PUSH1 0x20 ADD SWAP3 SWAP2 POP POP JUMP JUMPDEST PUSH1 0x20 DUP2 MSTORE PUSH1 0x0 PUSH2 0x39B4 PUSH1 0x20 DUP4 ADD DUP5 PUSH2 0x3B25 JUMP JUMPDEST PUSH1 0x0 PUSH1 0x20 DUP3 DUP5 SUB SLT ISZERO PUSH2 0x3B76 JUMPI PUSH1 0x0 DUP1 REVERT JUMPDEST DUP2 CALLDATALOAD PUSH2 0x39B4 DUP2 PUSH2 0x3940 JUMP JUMPDEST PUSH1 0x0 DUP1 PUSH1 0x0 PUSH1 0x60 DUP5 DUP7 SUB SLT ISZERO PUSH2 0x3B96 JUMPI PUSH1 0x0 DUP1 REVERT JUMPDEST DUP4 CALLDATALOAD PUSH2 0x3BA1 DUP2 PUSH2 0x3940 JUMP JUMPDEST SWAP6 PUSH1 0x20 DUP6 ADD CALLDATALOAD SWAP6 POP PUSH1 0x40 SWAP1 SWAP5 ADD CALLDATALOAD SWAP4 SWAP3 POP POP POP JUMP JUMPDEST PUSH1 0xA0 DUP2 MSTORE PUSH1 0x0 PUSH2 0x3BC9 PUSH1 0xA0 DUP4 ADD DUP9 PUSH2 0x3B25 JUMP JUMPDEST DUP3 DUP2 SUB PUSH1 0x20 DUP5 ADD MSTORE PUSH2 0x3BDB DUP2 DUP9 PUSH2 0x3B25 JUMP JUMPDEST SWAP1 POP DUP3 DUP2 SUB PUSH1 0x40 DUP5 ADD MSTORE PUSH2 0x3BEF DUP2 DUP8 PUSH2 0x3B25 JUMP JUMPDEST PUSH1 0x1 PUSH1 0x1 PUSH1 0xA0 SHL SUB SWAP6 SWAP1 SWAP6 AND PUSH1 0x60 DUP5 ADD MSTORE POP POP PUSH1 0x80 ADD MSTORE SWAP4 SWAP3 POP POP POP JUMP JUMPDEST PUSH1 0x0 PUSH1 0x1 PUSH1 0x1 PUSH1 0x40 SHL SUB DUP3 GT ISZERO PUSH2 0x3C26 JUMPI PUSH2 0x3C26 PUSH2 0x39BB JUMP JUMPDEST POP PUSH1 0x5 SHL PUSH1 0x20 ADD SWAP1 JUMP JUMPDEST PUSH1 0x0 DUP3 PUSH1 0x1F DUP4 ADD SLT PUSH2 0x3C41 JUMPI PUSH1 0x0 DUP1 REVERT JUMPDEST DUP2 CALLDATALOAD PUSH1 0x20 PUSH2 0x3C4E DUP3 PUSH2 0x3C0D JUMP JUMPDEST PUSH1 0x40 MLOAD PUSH2 0x3C5B DUP3 DUP3 PUSH2 0x39D1 JUMP JUMPDEST DUP4 DUP2 MSTORE PUSH1 0x5 SWAP4 SWAP1 SWAP4 SHL DUP6 ADD DUP3 ADD SWAP3 DUP3 DUP2 ADD SWAP2 POP DUP7 DUP5 GT ISZERO PUSH2 0x3C7B JUMPI PUSH1 0x0 DUP1 REVERT JUMPDEST DUP3 DUP7 ADD JUMPDEST DUP5 DUP2 LT ISZERO PUSH2 0x3C9F JUMPI DUP1 CALLDATALOAD PUSH2 0x3C92 DUP2 PUSH2 0x3940 JUMP JUMPDEST DUP4 MSTORE SWAP2 DUP4 ADD SWAP2 DUP4 ADD PUSH2 0x3C7F JUMP JUMPDEST POP SWAP7 SWAP6 POP POP POP POP POP POP JUMP JUMPDEST PUSH1 0x0 PUSH1 0x20 DUP3 DUP5 SUB SLT ISZERO PUSH2 0x3CBC JUMPI PUSH1 0x0 DUP1 REVERT JUMPDEST DUP2 CALLDATALOAD PUSH1 0x1 PUSH1 0x1 PUSH1 0x40 SHL SUB DUP2 GT ISZERO PUSH2 0x3CD2 JUMPI PUSH1 0x0 DUP1 REVERT JUMPDEST PUSH2 0x3CDE DUP5 DUP3 DUP6 ADD PUSH2 0x3C30 JUMP JUMPDEST SWAP5 SWAP4 POP POP POP POP JUMP JUMPDEST PUSH1 0x0 DUP1 PUSH1 0x40 DUP4 DUP6 SUB SLT ISZERO PUSH2 0x3CF9 JUMPI PUSH1 0x0 DUP1 REVERT JUMPDEST DUP3 CALLDATALOAD SWAP2 POP PUSH1 0x20 DUP4 ADD CALLDATALOAD PUSH2 0x3D0B DUP2 PUSH2 0x3940 JUMP JUMPDEST DUP1 SWAP2 POP POP SWAP3 POP SWAP3 SWAP1 POP JUMP JUMPDEST DUP7 DUP2 MSTORE DUP6 PUSH1 0x20 DUP3 ADD MSTORE DUP5 PUSH1 0x40 DUP3 ADD MSTORE PUSH1 0xC0 PUSH1 0x60 DUP3 ADD MSTORE PUSH1 0x0 PUSH2 0x3D3B PUSH1 0xC0 DUP4 ADD DUP7 PUSH2 0x3B25 JUMP JUMPDEST PUSH1 0x1 PUSH1 0x1 PUSH1 0xA0 SHL SUB SWAP5 SWAP1 SWAP5 AND PUSH1 0x80 DUP4 ADD MSTORE POP PUSH1 0xA0 ADD MSTORE SWAP5 SWAP4 POP POP POP POP JUMP JUMPDEST PUSH1 0x0 DUP3 PUSH1 0x1F DUP4 ADD SLT PUSH2 0x3D6A JUMPI PUSH1 0x0 DUP1 REVERT JUMPDEST DUP2 CALLDATALOAD PUSH1 0x20 PUSH2 0x3D77 DUP3 PUSH2 0x3C0D JUMP JUMPDEST PUSH1 0x40 MLOAD PUSH2 0x3D84 DUP3 DUP3 PUSH2 0x39D1 JUMP JUMPDEST DUP4 DUP2 MSTORE PUSH1 0x5 SWAP4 SWAP1 SWAP4 SHL DUP6 ADD DUP3 ADD SWAP3 DUP3 DUP2 ADD SWAP2 POP DUP7 DUP5 GT ISZERO PUSH2 0x3DA4 JUMPI PUSH1 0x0 DUP1 REVERT JUMPDEST DUP3 DUP7 ADD JUMPDEST DUP5 DUP2 LT ISZERO PUSH2 0x3C9F JUMPI DUP1 CALLDATALOAD DUP4 MSTORE SWAP2 DUP4 ADD SWAP2 DUP4 ADD PUSH2 0x3DA8 JUMP JUMPDEST PUSH1 0x0 DUP1 PUSH1 0x0 DUP1 PUSH1 0x0 PUSH1 0xA0 DUP7 DUP9 SUB SLT ISZERO PUSH2 0x3DD7 JUMPI PUSH1 0x0 DUP1 REVERT JUMPDEST DUP6 CALLDATALOAD PUSH2 0x3DE2 DUP2 PUSH2 0x3940 JUMP JUMPDEST SWAP5 POP PUSH1 0x20 DUP7 ADD CALLDATALOAD PUSH2 0x3DF2 DUP2 PUSH2 0x3940 JUMP JUMPDEST SWAP4 POP PUSH1 0x40 DUP7 ADD CALLDATALOAD PUSH1 0x1 PUSH1 0x1 PUSH1 0x40 SHL SUB DUP1 DUP3 GT ISZERO PUSH2 0x3E0E JUMPI PUSH1 0x0 DUP1 REVERT JUMPDEST PUSH2 0x3E1A DUP10 DUP4 DUP11 ADD PUSH2 0x3D59 JUMP JUMPDEST SWAP5 POP PUSH1 0x60 DUP9 ADD CALLDATALOAD SWAP2 POP DUP1 DUP3 GT ISZERO PUSH2 0x3E30 JUMPI PUSH1 0x0 DUP1 REVERT JUMPDEST PUSH2 0x3E3C DUP10 DUP4 DUP11 ADD PUSH2 0x3D59 JUMP JUMPDEST SWAP4 POP PUSH1 0x80 DUP9 ADD CALLDATALOAD SWAP2 POP DUP1 DUP3 GT ISZERO PUSH2 0x3E52 JUMPI PUSH1 0x0 DUP1 REVERT JUMPDEST POP PUSH2 0x3E5F DUP9 DUP3 DUP10 ADD PUSH2 0x3A24 JUMP JUMPDEST SWAP2 POP POP SWAP3 SWAP6 POP SWAP3 SWAP6 SWAP1 SWAP4 POP JUMP JUMPDEST PUSH1 0x0 DUP1 PUSH1 0x40 DUP4 DUP6 SUB SLT ISZERO PUSH2 0x3E7F JUMPI PUSH1 0x0 DUP1 REVERT JUMPDEST DUP3 CALLDATALOAD PUSH1 0x1 PUSH1 0x1 PUSH1 0x40 SHL SUB DUP1 DUP3 GT ISZERO PUSH2 0x3E96 JUMPI PUSH1 0x0 DUP1 REVERT JUMPDEST PUSH2 0x3EA2 DUP7 DUP4 DUP8 ADD PUSH2 0x3C30 JUMP JUMPDEST SWAP4 POP PUSH1 0x20 DUP6 ADD CALLDATALOAD SWAP2 POP DUP1 DUP3 GT ISZERO PUSH2 0x3EB8 JUMPI PUSH1 0x0 DUP1 REVERT JUMPDEST POP PUSH2 0x3ABC DUP6 DUP3 DUP7 ADD PUSH2 0x3D59 JUMP JUMPDEST PUSH1 0x0 DUP2 MLOAD DUP1 DUP5 MSTORE PUSH1 0x20 DUP1 DUP6 ADD SWAP5 POP DUP1 DUP5 ADD PUSH1 0x0 JUMPDEST DUP4 DUP2 LT ISZERO PUSH2 0x3EF5 JUMPI DUP2 MLOAD DUP8 MSTORE SWAP6 DUP3 ADD SWAP6 SWAP1 DUP3 ADD SWAP1 PUSH1 0x1 ADD PUSH2 0x3ED9 JUMP JUMPDEST POP SWAP5 SWAP6 SWAP5 POP POP POP POP POP JUMP JUMPDEST PUSH1 0x20 DUP2 MSTORE PUSH1 0x0 PUSH2 0x39B4 PUSH1 0x20 DUP4 ADD DUP5 PUSH2 0x3EC5 JUMP JUMPDEST DUP1 ISZERO ISZERO DUP2 EQ PUSH2 0x2696 JUMPI PUSH1 0x0 DUP1 REVERT JUMPDEST PUSH1 0x0 DUP1 PUSH1 0x40 DUP4 DUP6 SUB SLT ISZERO PUSH2 0x3F34 JUMPI PUSH1 0x0 DUP1 REVERT JUMPDEST DUP3 CALLDATALOAD PUSH2 0x3F3F DUP2 PUSH2 0x3940 JUMP JUMPDEST SWAP2 POP PUSH1 0x20 DUP4 ADD CALLDATALOAD PUSH2 0x3D0B DUP2 PUSH2 0x3F13 JUMP JUMPDEST PUSH1 0x0 DUP1 PUSH1 0x0 PUSH1 0x60 DUP5 DUP7 SUB SLT ISZERO PUSH2 0x3F64 JUMPI PUSH1 0x0 DUP1 REVERT JUMPDEST DUP4 CALLDATALOAD PUSH1 0x1 PUSH1 0x1 PUSH1 0x40 SHL SUB DUP1 DUP3 GT ISZERO PUSH2 0x3F7B JUMPI PUSH1 0x0 DUP1 REVERT JUMPDEST PUSH2 0x3F87 DUP8 DUP4 DUP9 ADD PUSH2 0x3A24 JUMP JUMPDEST SWAP5 POP PUSH1 0x20 DUP7 ADD CALLDATALOAD SWAP2 POP DUP1 DUP3 GT ISZERO PUSH2 0x3F9D JUMPI PUSH1 0x0 DUP1 REVERT JUMPDEST PUSH2 0x3FA9 DUP8 DUP4 DUP9 ADD PUSH2 0x3A24 JUMP JUMPDEST SWAP4 POP PUSH1 0x40 DUP7 ADD CALLDATALOAD SWAP2 POP DUP1 DUP3 GT ISZERO PUSH2 0x3FBF JUMPI PUSH1 0x0 DUP1 REVERT JUMPDEST POP PUSH2 0x3FCC DUP7 DUP3 DUP8 ADD PUSH2 0x3A24 JUMP JUMPDEST SWAP2 POP POP SWAP3 POP SWAP3 POP SWAP3 JUMP JUMPDEST PUSH1 0x0 DUP1 PUSH1 0x40 DUP4 DUP6 SUB SLT ISZERO PUSH2 0x3FE9 JUMPI PUSH1 0x0 DUP1 REVERT JUMPDEST DUP3 CALLDATALOAD PUSH2 0x3FF4 DUP2 PUSH2 0x3940 JUMP JUMPDEST SWAP2 POP PUSH1 0x20 DUP4 ADD CALLDATALOAD PUSH2 0x3D0B DUP2 PUSH2 0x3940 JUMP JUMPDEST PUSH1 0x0 DUP1 PUSH1 0x0 DUP1 PUSH1 0x0 PUSH1 0xA0 DUP7 DUP9 SUB SLT ISZERO PUSH2 0x401C JUMPI PUSH1 0x0 DUP1 REVERT JUMPDEST DUP6 CALLDATALOAD PUSH2 0x4027 DUP2 PUSH2 0x3940 JUMP JUMPDEST SWAP5 POP PUSH1 0x20 DUP7 ADD CALLDATALOAD PUSH2 0x4037 DUP2 PUSH2 0x3940 JUMP JUMPDEST SWAP4 POP PUSH1 0x40 DUP7 ADD CALLDATALOAD SWAP3 POP PUSH1 0x60 DUP7 ADD CALLDATALOAD SWAP2 POP PUSH1 0x80 DUP7 ADD CALLDATALOAD PUSH1 0x1 PUSH1 0x1 PUSH1 0x40 SHL SUB DUP2 GT ISZERO PUSH2 0x4060 JUMPI PUSH1 0x0 DUP1 REVERT JUMPDEST PUSH2 0x3E5F DUP9 DUP3 DUP10 ADD PUSH2 0x3A24 JUMP JUMPDEST PUSH1 0x0 PUSH1 0x20 DUP3 DUP5 SUB SLT ISZERO PUSH2 0x407E JUMPI PUSH1 0x0 DUP1 REVERT JUMPDEST POP MLOAD SWAP2 SWAP1 POP JUMP JUMPDEST PUSH1 0x1 DUP2 DUP2 SHR SWAP1 DUP3 AND DUP1 PUSH2 0x4099 JUMPI PUSH1 0x7F DUP3 AND SWAP2 POP JUMPDEST PUSH1 0x20 DUP3 LT DUP2 SUB PUSH2 0x40B9 JUMPI PUSH4 0x4E487B71 PUSH1 0xE0 SHL PUSH1 0x0 MSTORE PUSH1 0x22 PUSH1 0x4 MSTORE PUSH1 0x24 PUSH1 0x0 REVERT JUMPDEST POP SWAP2 SWAP1 POP JUMP JUMPDEST PUSH1 0x1F DUP3 GT ISZERO PUSH2 0x1C04 JUMPI PUSH1 0x0 DUP2 DUP2 MSTORE PUSH1 0x20 DUP2 KECCAK256 PUSH1 0x1F DUP6 ADD PUSH1 0x5 SHR DUP2 ADD PUSH1 0x20 DUP7 LT ISZERO PUSH2 0x40E6 JUMPI POP DUP1 JUMPDEST PUSH1 0x1F DUP6 ADD PUSH1 0x5 SHR DUP3 ADD SWAP2 POP JUMPDEST DUP2 DUP2 LT ISZERO PUSH2 0x2F95 JUMPI DUP3 DUP2 SSTORE PUSH1 0x1 ADD PUSH2 0x40F2 JUMP JUMPDEST DUP2 MLOAD PUSH1 0x1 PUSH1 0x1 PUSH1 0x40 SHL SUB DUP2 GT ISZERO PUSH2 0x411E JUMPI PUSH2 0x411E PUSH2 0x39BB JUMP JUMPDEST PUSH2 0x4132 DUP2 PUSH2 0x412C DUP5 SLOAD PUSH2 0x4085 JUMP JUMPDEST DUP5 PUSH2 0x40BF JUMP JUMPDEST PUSH1 0x20 DUP1 PUSH1 0x1F DUP4 GT PUSH1 0x1 DUP2 EQ PUSH2 0x4167 JUMPI PUSH1 0x0 DUP5 ISZERO PUSH2 0x414F JUMPI POP DUP6 DUP4 ADD MLOAD JUMPDEST PUSH1 0x0 NOT PUSH1 0x3 DUP7 SWAP1 SHL SHR NOT AND PUSH1 0x1 DUP6 SWAP1 SHL OR DUP6 SSTORE PUSH2 0x2F95 JUMP JUMPDEST PUSH1 0x0 DUP6 DUP2 MSTORE PUSH1 0x20 DUP2 KECCAK256 PUSH1 0x1F NOT DUP7 AND SWAP2 JUMPDEST DUP3 DUP2 LT ISZERO PUSH2 0x4196 JUMPI DUP9 DUP7 ADD MLOAD DUP3 SSTORE SWAP5 DUP5 ADD SWAP5 PUSH1 0x1 SWAP1 SWAP2 ADD SWAP1 DUP5 ADD PUSH2 0x4177 JUMP JUMPDEST POP DUP6 DUP3 LT ISZERO PUSH2 0x41B4 JUMPI DUP8 DUP6 ADD MLOAD PUSH1 0x0 NOT PUSH1 0x3 DUP9 SWAP1 SHL PUSH1 0xF8 AND SHR NOT AND DUP2 SSTORE JUMPDEST POP POP POP POP POP PUSH1 0x1 SWAP1 DUP2 SHL ADD SWAP1 SSTORE POP JUMP JUMPDEST PUSH1 0x20 DUP1 DUP3 MSTORE PUSH1 0x9 SWAP1 DUP3 ADD MSTORE PUSH9 0x6E6F20616363657373 PUSH1 0xB8 SHL PUSH1 0x40 DUP3 ADD MSTORE PUSH1 0x60 ADD SWAP1 JUMP JUMPDEST PUSH4 0x4E487B71 PUSH1 0xE0 SHL PUSH1 0x0 MSTORE PUSH1 0x11 PUSH1 0x4 MSTORE PUSH1 0x24 PUSH1 0x0 REVERT JUMPDEST DUP1 DUP3 ADD DUP1 DUP3 GT ISZERO PUSH2 0xB02 JUMPI PUSH2 0xB02 PUSH2 0x41E7 JUMP JUMPDEST PUSH4 0x4E487B71 PUSH1 0xE0 SHL PUSH1 0x0 MSTORE PUSH1 0x32 PUSH1 0x4 MSTORE PUSH1 0x24 PUSH1 0x0 REVERT JUMPDEST PUSH1 0x0 PUSH1 0x1 DUP3 ADD PUSH2 0x4238 JUMPI PUSH2 0x4238 PUSH2 0x41E7 JUMP JUMPDEST POP PUSH1 0x1 ADD SWAP1 JUMP JUMPDEST PUSH1 0x20 DUP1 DUP3 MSTORE PUSH1 0x17 SWAP1 DUP3 ADD MSTORE PUSH32 0x43616E6E6F7420736574207A65726F2061646472657373000000000000000000 PUSH1 0x40 DUP3 ADD MSTORE PUSH1 0x60 ADD SWAP1 JUMP JUMPDEST PUSH1 0x20 DUP1 DUP3 MSTORE PUSH1 0x2F SWAP1 DUP3 ADD MSTORE PUSH32 0x455243313135353A2063616C6C6572206973206E6F7420746F6B656E206F776E PUSH1 0x40 DUP3 ADD MSTORE PUSH15 0x195C881B9BDC88185C1C1C9BDD9959 PUSH1 0x8A SHL PUSH1 0x60 DUP3 ADD MSTORE PUSH1 0x80 ADD SWAP1 JUMP JUMPDEST DUP2 DUP2 SUB DUP2 DUP2 GT ISZERO PUSH2 0xB02 JUMPI PUSH2 0xB02 PUSH2 0x41E7 JUMP JUMPDEST PUSH4 0x4E487B71 PUSH1 0xE0 SHL PUSH1 0x0 MSTORE PUSH1 0x31 PUSH1 0x4 MSTORE PUSH1 0x24 PUSH1 0x0 REVERT JUMPDEST PUSH1 0x0 DUP3 PUSH1 0x1F DUP4 ADD SLT PUSH2 0x42FF JUMPI PUSH1 0x0 DUP1 REVERT JUMPDEST DUP2 MLOAD PUSH2 0x430A DUP2 PUSH2 0x39FD JUMP JUMPDEST PUSH1 0x40 MLOAD PUSH2 0x4317 DUP3 DUP3 PUSH2 0x39D1 JUMP JUMPDEST DUP3 DUP2 MSTORE DUP6 PUSH1 0x20 DUP5 DUP8 ADD ADD GT ISZERO PUSH2 0x432C JUMPI PUSH1 0x0 DUP1 REVERT JUMPDEST PUSH2 0x433D DUP4 PUSH1 0x20 DUP4 ADD PUSH1 0x20 DUP9 ADD PUSH2 0x3B01 JUMP JUMPDEST SWAP6 SWAP5 POP POP POP POP POP JUMP JUMPDEST PUSH1 0x0 DUP1 PUSH1 0x0 DUP1 PUSH1 0x0 PUSH1 0xA0 DUP7 DUP9 SUB SLT ISZERO PUSH2 0x435E JUMPI PUSH1 0x0 DUP1 REVERT JUMPDEST DUP6 MLOAD SWAP5 POP PUSH1 0x20 DUP7 ADD MLOAD PUSH2 0x4370 DUP2 PUSH2 0x3940 JUMP JUMPDEST PUSH1 0x40 DUP8 ADD MLOAD SWAP1 SWAP5 POP PUSH1 0x1 PUSH1 0x1 PUSH1 0x40 SHL SUB DUP1 DUP3 GT ISZERO PUSH2 0x438D JUMPI PUSH1 0x0 DUP1 REVERT JUMPDEST PUSH2 0x4399 DUP10 DUP4 DUP11 ADD PUSH2 0x42EE JUMP JUMPDEST SWAP5 POP PUSH1 0x60 DUP9 ADD MLOAD SWAP2 POP DUP1 DUP3 GT ISZERO PUSH2 0x43AF JUMPI PUSH1 0x0 DUP1 REVERT JUMPDEST POP PUSH2 0x43BC DUP9 DUP3 DUP10 ADD PUSH2 0x42EE JUMP JUMPDEST SWAP3 POP POP PUSH1 0x80 DUP7 ADD MLOAD SWAP1 POP SWAP3 SWAP6 POP SWAP3 SWAP6 SWAP1 SWAP4 POP JUMP JUMPDEST PUSH1 0x0 PUSH1 0x20 DUP3 DUP5 SUB SLT ISZERO PUSH2 0x43E2 JUMPI PUSH1 0x0 DUP1 REVERT JUMPDEST DUP2 MLOAD PUSH2 0x39B4 DUP2 PUSH2 0x3F13 JUMP JUMPDEST PUSH1 0x20 DUP1 DUP3 MSTORE PUSH1 0x25 SWAP1 DUP3 ADD MSTORE PUSH32 0x455243313135353A207472616E7366657220746F20746865207A65726F206164 PUSH1 0x40 DUP3 ADD MSTORE PUSH5 0x6472657373 PUSH1 0xD8 SHL PUSH1 0x60 DUP3 ADD MSTORE PUSH1 0x80 ADD SWAP1 JUMP JUMPDEST PUSH1 0x20 DUP1 DUP3 MSTORE PUSH1 0x2A SWAP1 DUP3 ADD MSTORE PUSH32 0x455243313135353A20696E73756666696369656E742062616C616E636520666F PUSH1 0x40 DUP3 ADD MSTORE PUSH10 0x39103A3930B739B332B9 PUSH1 0xB1 SHL PUSH1 0x60 DUP3 ADD MSTORE PUSH1 0x80 ADD SWAP1 JUMP JUMPDEST PUSH1 0x40 DUP2 MSTORE PUSH1 0x0 PUSH2 0x448F PUSH1 0x40 DUP4 ADD DUP6 PUSH2 0x3EC5 JUMP JUMPDEST DUP3 DUP2 SUB PUSH1 0x20 DUP5 ADD MSTORE PUSH2 0x433D DUP2 DUP6 PUSH2 0x3EC5 JUMP JUMPDEST PUSH1 0x1 PUSH1 0x1 PUSH1 0xA0 SHL SUB DUP7 DUP2 AND DUP3 MSTORE DUP6 AND PUSH1 0x20 DUP3 ADD MSTORE PUSH1 0xA0 PUSH1 0x40 DUP3 ADD DUP2 SWAP1 MSTORE PUSH1 0x0 SWAP1 PUSH2 0x44CD SWAP1 DUP4 ADD DUP7 PUSH2 0x3EC5 JUMP JUMPDEST DUP3 DUP2 SUB PUSH1 0x60 DUP5 ADD MSTORE PUSH2 0x44DF DUP2 DUP7 PUSH2 0x3EC5 JUMP JUMPDEST SWAP1 POP DUP3 DUP2 SUB PUSH1 0x80 DUP5 ADD MSTORE PUSH2 0x44F3 DUP2 DUP6 PUSH2 0x3B25 JUMP JUMPDEST SWAP9 SWAP8 POP POP POP POP POP POP POP POP JUMP JUMPDEST PUSH1 0x0 PUSH1 0x20 DUP3 DUP5 SUB SLT ISZERO PUSH2 0x4511 JUMPI PUSH1 0x0 DUP1 REVERT JUMPDEST DUP2 MLOAD PUSH2 0x39B4 DUP2 PUSH2 0x3981 JUMP JUMPDEST PUSH1 0x0 PUSH1 0x3 RETURNDATASIZE GT ISZERO PUSH2 0x4535 JUMPI PUSH1 0x4 PUSH1 0x0 DUP1 RETURNDATACOPY POP PUSH1 0x0 MLOAD PUSH1 0xE0 SHR JUMPDEST SWAP1 JUMP JUMPDEST PUSH1 0x0 PUSH1 0x44 RETURNDATASIZE LT ISZERO PUSH2 0x4546 JUMPI SWAP1 JUMP JUMPDEST PUSH1 0x40 MLOAD PUSH1 0x3 NOT RETURNDATASIZE DUP2 ADD PUSH1 0x4 DUP4 RETURNDATACOPY DUP2 MLOAD RETURNDATASIZE PUSH1 0x1 PUSH1 0x1 PUSH1 0x40 SHL SUB DUP2 PUSH1 0x24 DUP5 ADD GT DUP2 DUP5 GT OR ISZERO PUSH2 0x4575 JUMPI POP POP POP POP POP SWAP1 JUMP JUMPDEST DUP3 DUP6 ADD SWAP2 POP DUP2 MLOAD DUP2 DUP2 GT ISZERO PUSH2 0x458D JUMPI POP POP POP POP POP POP SWAP1 JUMP JUMPDEST DUP5 RETURNDATASIZE DUP8 ADD ADD PUSH1 0x20 DUP3 DUP6 ADD ADD GT ISZERO PUSH2 0x45A7 JUMPI POP POP POP POP POP POP SWAP1 JUMP JUMPDEST PUSH2 0x45B6 PUSH1 0x20 DUP3 DUP7 ADD ADD DUP8 PUSH2 0x39D1 JUMP JUMPDEST POP SWAP1 SWAP6 SWAP5 POP POP POP POP POP JUMP JUMPDEST PUSH1 0x20 DUP1 DUP3 MSTORE PUSH1 0x28 SWAP1 DUP3 ADD MSTORE PUSH32 0x455243313135353A204552433131353552656365697665722072656A65637465 PUSH1 0x40 DUP3 ADD MSTORE PUSH8 0x6420746F6B656E73 PUSH1 0xC0 SHL PUSH1 0x60 DUP3 ADD MSTORE PUSH1 0x80 ADD SWAP1 JUMP JUMPDEST PUSH1 0x1 PUSH1 0x1 PUSH1 0xA0 SHL SUB DUP7 DUP2 AND DUP3 MSTORE DUP6 AND PUSH1 0x20 DUP3 ADD MSTORE PUSH1 0x40 DUP2 ADD DUP5 SWAP1 MSTORE PUSH1 0x60 DUP2 ADD DUP4 SWAP1 MSTORE PUSH1 0xA0 PUSH1 0x80 DUP3 ADD DUP2 SWAP1 MSTORE PUSH1 0x0 SWAP1 PUSH2 0x4643 SWAP1 DUP4 ADD DUP5 PUSH2 0x3B25 JUMP JUMPDEST SWAP8 SWAP7 POP POP POP POP POP POP POP JUMP JUMPDEST DUP2 DUP2 SUB PUSH2 0x4659 JUMPI POP POP JUMP JUMPDEST PUSH2 0x4663 DUP3 SLOAD PUSH2 0x4085 JUMP JUMPDEST PUSH1 0x1 PUSH1 0x1 PUSH1 0x40 SHL SUB DUP2 GT ISZERO PUSH2 0x467A JUMPI PUSH2 0x467A PUSH2 0x39BB JUMP JUMPDEST PUSH2 0x4688 DUP2 PUSH2 0x412C DUP5 SLOAD PUSH2 0x4085 JUMP JUMPDEST PUSH1 0x0 PUSH1 0x1F DUP3 GT PUSH1 0x1 DUP2 EQ PUSH2 0x46BC JUMPI PUSH1 0x0 DUP4 ISZERO PUSH2 0x46A4 JUMPI POP DUP5 DUP3 ADD SLOAD JUMPDEST PUSH1 0x0 NOT PUSH1 0x3 DUP6 SWAP1 SHL SHR NOT AND PUSH1 0x1 DUP5 SWAP1 SHL OR DUP5 SSTORE PUSH2 0x1640 JUMP JUMPDEST PUSH1 0x0 DUP6 DUP2 MSTORE PUSH1 0x20 SWAP1 KECCAK256 PUSH1 0x1F NOT DUP5 AND SWAP1 PUSH1 0x0 DUP7 DUP2 MSTORE PUSH1 0x20 SWAP1 KECCAK256 DUP5 JUMPDEST DUP4 DUP2 LT ISZERO PUSH2 0x46F6 JUMPI DUP3 DUP7 ADD SLOAD DUP3 SSTORE PUSH1 0x1 SWAP6 DUP7 ADD SWAP6 SWAP1 SWAP2 ADD SWAP1 PUSH1 0x20 ADD PUSH2 0x46D6 JUMP JUMPDEST POP DUP6 DUP4 LT ISZERO PUSH2 0x41B4 JUMPI SWAP4 ADD SLOAD PUSH1 0x0 NOT PUSH1 0xF8 PUSH1 0x3 DUP8 SWAP1 SHL AND SHR NOT AND SWAP1 SWAP3 SSTORE POP POP PUSH1 0x1 SWAP1 DUP2 SHL ADD SWAP1 SSTORE POP JUMP INVALID LOG2 PUSH5 0x6970667358 0x22 SLT KECCAK256 0x4D KECCAK256 CODECOPY MOD 0xE8 0x4E 0xA5 COINBASE PUSH7 0x2D4C245E1D84F3 0x1E 0x24 0xE DUP5 0xC PUSH15 0xD9B231FC64E73E09EADE64736F6C63 NUMBER STOP ADDMOD SLT STOP CALLER "
		},
		"gasEstimates": {
			"creation": {
				"codeDepositCost": "3652400",
				"executionCost": "infinite",
				"totalCost": "infinite"
			},
			"external": {
				"MAX()": "2352",
				"TreasuryDistributionContract()": "2450",
				"allowJoinGuild(uint256,address)": "infinite",
				"balanceOf(address,uint256)": "2740",
				"balanceOfBatch(address[],uint256[])": "infinite",
				"checkPid(address)": "infinite",
				"createGuild(string,string,string)": "infinite",
				"deleteBatchSecondaryAdministrator(address[])": "infinite",
				"deleteDeputyGuildManager(uint256,address)": "infinite",
				"fireSoul()": "2472",
				"getSecondaryAdministratorsLength()": "2415",
				"getdeputyGuildManagerLength(uint256)": "2517",
				"getguildInFosLength()": "2371",
				"getinComeInfosLength()": "2370",
				"getisNotdeputyGuildManager(address)": "2676",
				"getisNotguildManager(address)": "2675",
				"getmemberLength(uint256)": "2496",
				"gettoBeAdded()": "2372",
				"gettransferOperatesLength()": "2349",
				"guildId()": "2375",
				"guildInFoOWner(address,uint256,uint256)": "infinite",
				"guildInFos(uint256)": "infinite",
				"guildIncome(uint256,uint256)": "141874",
				"idDeputyGuildManager(uint256,uint256)": "4818",
				"inComeInfos(uint256)": "11133",
				"isApprovedForAll(address,address)": "infinite",
				"isNotdeputyGuildManager(address)": "2616",
				"isNotguildManager(address)": "2636",
				"isnotWhitelistUser(address)": "2636",
				"isnotcreater(uint256,address)": "2783",
				"joinRestrictions()": "2351",
				"joinStatus(address)": "2594",
				"member(uint256,uint256)": "11205",
				"owner()": "2486",
				"pauseContract()": "26649",
				"quitGuild(uint256)": "infinite",
				"rejectedApp(uint256,address)": "infinite",
				"renounceOwnership()": "infinite",
				"reputation()": "2426",
				"safeBatchTransferFrom(address,address,uint256[],uint256[],bytes)": "infinite",
				"safeTransferFrom(address,address,uint256,uint256,bytes)": "infinite",
				"secondaryAdministrators(uint256)": "4682",
				"setApprovalForAll(address,bool)": "infinite",
				"setBatchSecondaryAdministrator(address[])": "infinite",
				"setDeputyGuildManager(uint256,address)": "79897",
				"setFireSoul(address)": "29005",
				"setFpAddr(address)": "26839",
				"setGuildManager(uint256,address)": "75511",
				"setGuildManagers(address)": "57950",
				"setJoinRestrictions(uint256)": "24578",
				"setMAX(uint256)": "24577",
				"setReputation(address)": "26852",
				"setTreasuryDistributionContract(address)": "26883",
				"setWeth(address)": "26819",
				"status()": "2418",
				"submitApplication(uint256,string)": "infinite",
				"supportsInterface(bytes4)": "624",
				"toBeAdded(uint256)": "4748",
				"transferOperates(uint256)": "13268",
				"transferOwnership(address)": "infinite",
				"transferWeth(address,uint256)": "infinite",
				"uri(uint256)": "infinite",
				"userApplication(address)": "infinite",
				"userGuildInFo(uint256)": "infinite",
				"userGuildNum(address)": "2614",
				"userStatus(address)": "2638",
				"weth()": "2472"
			},
			"internal": {
				"checkRepeat(address)": "infinite",
				"deleteWlistArray(address)": "infinite"
			}
		},
		"methodIdentifiers": {
			"MAX()": "d49d5181",
			"TreasuryDistributionContract()": "a168c2ef",
			"allowJoinGuild(uint256,address)": "57824739",
			"balanceOf(address,uint256)": "00fdd58e",
			"balanceOfBatch(address[],uint256[])": "4e1273f4",
			"checkPid(address)": "c0191114",
			"createGuild(string,string,string)": "c1ca1255",
			"deleteBatchSecondaryAdministrator(address[])": "f1127c2a",
			"deleteDeputyGuildManager(uint256,address)": "a27d38da",
			"fireSoul()": "1a5ef71c",
			"getSecondaryAdministratorsLength()": "4f447464",
			"getdeputyGuildManagerLength(uint256)": "2b865618",
			"getguildInFosLength()": "47832103",
			"getinComeInfosLength()": "717cf8e7",
			"getisNotdeputyGuildManager(address)": "7bbd6e60",
			"getisNotguildManager(address)": "fc0c917a",
			"getmemberLength(uint256)": "1d403171",
			"gettoBeAdded()": "31775870",
			"gettransferOperatesLength()": "b3ec59a7",
			"guildId()": "990db1fc",
			"guildInFoOWner(address,uint256,uint256)": "186c8058",
			"guildInFos(uint256)": "de4f65ef",
			"guildIncome(uint256,uint256)": "0cfc198b",
			"idDeputyGuildManager(uint256,uint256)": "35434bd0",
			"inComeInfos(uint256)": "d6c6111e",
			"isApprovedForAll(address,address)": "e985e9c5",
			"isNotdeputyGuildManager(address)": "1408a583",
			"isNotguildManager(address)": "c7895268",
			"isnotWhitelistUser(address)": "78acff69",
			"isnotcreater(uint256,address)": "ccc9660c",
			"joinRestrictions()": "c2f386f9",
			"joinStatus(address)": "8de8a925",
			"member(uint256,uint256)": "d5d4031e",
			"owner()": "8da5cb5b",
			"pauseContract()": "439766ce",
			"quitGuild(uint256)": "e9112e9d",
			"rejectedApp(uint256,address)": "6044c216",
			"renounceOwnership()": "715018a6",
			"reputation()": "c52164c6",
			"safeBatchTransferFrom(address,address,uint256[],uint256[],bytes)": "2eb2c2d6",
			"safeTransferFrom(address,address,uint256,uint256,bytes)": "f242432a",
			"secondaryAdministrators(uint256)": "4f769cf6",
			"setApprovalForAll(address,bool)": "a22cb465",
			"setBatchSecondaryAdministrator(address[])": "27cad2ef",
			"setDeputyGuildManager(uint256,address)": "2d45fcd1",
			"setFireSoul(address)": "cc7ef800",
			"setFpAddr(address)": "fb7e9463",
			"setGuildManager(uint256,address)": "2862b986",
			"setGuildManagers(address)": "e8cfc3f1",
			"setJoinRestrictions(uint256)": "540aaacf",
			"setMAX(uint256)": "df9d19f7",
			"setReputation(address)": "f7d0e04b",
			"setTreasuryDistributionContract(address)": "fd4329f4",
			"setWeth(address)": "b8d1452f",
			"status()": "200d2ed2",
			"submitApplication(uint256,string)": "09fd8d30",
			"supportsInterface(bytes4)": "01ffc9a7",
			"toBeAdded(uint256)": "dc2ae321",
			"transferOperates(uint256)": "a711a8e6",
			"transferOwnership(address)": "f2fde38b",
			"transferWeth(address,uint256)": "f6076936",
			"uri(uint256)": "0e89341c",
			"userApplication(address)": "2e4b7b36",
			"userGuildInFo(uint256)": "b3d3f7f6",
			"userGuildNum(address)": "b12eb5ad",
			"userStatus(address)": "225d29a1",
			"weth()": "3fc8cef3"
		}
	},
	"abi": [
		{
			"inputs": [
				{
					"internalType": "address",
					"name": "_weth",
					"type": "address"
				}
			],
			"stateMutability": "nonpayable",
			"type": "constructor"
		},
		{
			"anonymous": false,
			"inputs": [
				{
					"indexed": true,
					"internalType": "address",
					"name": "account",
					"type": "address"
				},
				{
					"indexed": true,
					"internalType": "address",
					"name": "operator",
					"type": "address"
				},
				{
					"indexed": false,
					"internalType": "bool",
					"name": "approved",
					"type": "bool"
				}
			],
			"name": "ApprovalForAll",
			"type": "event"
		},
		{
			"anonymous": false,
			"inputs": [
				{
					"indexed": true,
					"internalType": "address",
					"name": "previousOwner",
					"type": "address"
				},
				{
					"indexed": true,
					"internalType": "address",
					"name": "newOwner",
					"type": "address"
				}
			],
			"name": "OwnershipTransferred",
			"type": "event"
		},
		{
			"anonymous": false,
			"inputs": [
				{
					"indexed": true,
					"internalType": "address",
					"name": "operator",
					"type": "address"
				},
				{
					"indexed": true,
					"internalType": "address",
					"name": "from",
					"type": "address"
				},
				{
					"indexed": true,
					"internalType": "address",
					"name": "to",
					"type": "address"
				},
				{
					"indexed": false,
					"internalType": "uint256[]",
					"name": "ids",
					"type": "uint256[]"
				},
				{
					"indexed": false,
					"internalType": "uint256[]",
					"name": "values",
					"type": "uint256[]"
				}
			],
			"name": "TransferBatch",
			"type": "event"
		},
		{
			"anonymous": false,
			"inputs": [
				{
					"indexed": true,
					"internalType": "address",
					"name": "operator",
					"type": "address"
				},
				{
					"indexed": true,
					"internalType": "address",
					"name": "from",
					"type": "address"
				},
				{
					"indexed": true,
					"internalType": "address",
					"name": "to",
					"type": "address"
				},
				{
					"indexed": false,
					"internalType": "uint256",
					"name": "id",
					"type": "uint256"
				},
				{
					"indexed": false,
					"internalType": "uint256",
					"name": "value",
					"type": "uint256"
				}
			],
			"name": "TransferSingle",
			"type": "event"
		},
		{
			"anonymous": false,
			"inputs": [
				{
					"indexed": false,
					"internalType": "string",
					"name": "value",
					"type": "string"
				},
				{
					"indexed": true,
					"internalType": "uint256",
					"name": "id",
					"type": "uint256"
				}
			],
			"name": "URI",
			"type": "event"
		},
		{
			"inputs": [],
			"name": "MAX",
			"outputs": [
				{
					"internalType": "uint256",
					"name": "",
					"type": "uint256"
				}
			],
			"stateMutability": "view",
			"type": "function"
		},
		{
			"inputs": [],
			"name": "TreasuryDistributionContract",
			"outputs": [
				{
					"internalType": "address",
					"name": "",
					"type": "address"
				}
			],
			"stateMutability": "view",
			"type": "function"
		},
		{
			"inputs": [
				{
					"internalType": "uint256",
					"name": "_userGuildNum",
					"type": "uint256"
				},
				{
					"internalType": "address",
					"name": "_user",
					"type": "address"
				}
			],
			"name": "allowJoinGuild",
			"outputs": [],
			"stateMutability": "nonpayable",
			"type": "function"
		},
		{
			"inputs": [
				{
					"internalType": "address",
					"name": "account",
					"type": "address"
				},
				{
					"internalType": "uint256",
					"name": "id",
					"type": "uint256"
				}
			],
			"name": "balanceOf",
			"outputs": [
				{
					"internalType": "uint256",
					"name": "",
					"type": "uint256"
				}
			],
			"stateMutability": "view",
			"type": "function"
		},
		{
			"inputs": [
				{
					"internalType": "address[]",
					"name": "accounts",
					"type": "address[]"
				},
				{
					"internalType": "uint256[]",
					"name": "ids",
					"type": "uint256[]"
				}
			],
			"name": "balanceOfBatch",
			"outputs": [
				{
					"internalType": "uint256[]",
					"name": "",
					"type": "uint256[]"
				}
			],
			"stateMutability": "view",
			"type": "function"
		},
		{
			"inputs": [
				{
					"internalType": "address",
					"name": "_user",
					"type": "address"
				}
			],
			"name": "checkPid",
			"outputs": [
				{
					"internalType": "uint256",
					"name": "",
					"type": "uint256"
				}
			],
			"stateMutability": "view",
			"type": "function"
		},
		{
			"inputs": [
				{
					"internalType": "string",
					"name": "_guildName",
					"type": "string"
				},
				{
					"internalType": "string",
					"name": "_logo",
					"type": "string"
				},
				{
					"internalType": "string",
					"name": "_guildDescribe",
					"type": "string"
				}
			],
			"name": "createGuild",
			"outputs": [],
			"stateMutability": "nonpayable",
			"type": "function"
		},
		{
			"inputs": [
				{
					"internalType": "address[]",
					"name": "users",
					"type": "address[]"
				}
			],
			"name": "deleteBatchSecondaryAdministrator",
			"outputs": [],
			"stateMutability": "nonpayable",
			"type": "function"
		},
		{
			"inputs": [
				{
					"internalType": "uint256",
					"name": "_GuildNum",
					"type": "uint256"
				},
				{
					"internalType": "address",
					"name": "_to",
					"type": "address"
				}
			],
			"name": "deleteDeputyGuildManager",
			"outputs": [],
			"stateMutability": "nonpayable",
			"type": "function"
		},
		{
			"inputs": [],
			"name": "fireSoul",
			"outputs": [
				{
					"internalType": "address",
					"name": "",
					"type": "address"
				}
			],
			"stateMutability": "view",
			"type": "function"
		},
		{
			"inputs": [],
			"name": "getSecondaryAdministratorsLength",
			"outputs": [
				{
					"internalType": "uint256",
					"name": "",
					"type": "uint256"
				}
			],
			"stateMutability": "view",
			"type": "function"
		},
		{
			"inputs": [
				{
					"internalType": "uint256",
					"name": "_guildNum",
					"type": "uint256"
				}
			],
			"name": "getdeputyGuildManagerLength",
			"outputs": [
				{
					"internalType": "uint256",
					"name": "",
					"type": "uint256"
				}
			],
			"stateMutability": "view",
			"type": "function"
		},
		{
			"inputs": [],
			"name": "getguildInFosLength",
			"outputs": [
				{
					"internalType": "uint256",
					"name": "",
					"type": "uint256"
				}
			],
			"stateMutability": "view",
			"type": "function"
		},
		{
			"inputs": [],
			"name": "getinComeInfosLength",
			"outputs": [
				{
					"internalType": "uint256",
					"name": "",
					"type": "uint256"
				}
			],
			"stateMutability": "view",
			"type": "function"
		},
		{
			"inputs": [
				{
					"internalType": "address",
					"name": "_user",
					"type": "address"
				}
			],
			"name": "getisNotdeputyGuildManager",
			"outputs": [
				{
					"internalType": "bool",
					"name": "",
					"type": "bool"
				}
			],
			"stateMutability": "view",
			"type": "function"
		},
		{
			"inputs": [
				{
					"internalType": "address",
					"name": "_user",
					"type": "address"
				}
			],
			"name": "getisNotguildManager",
			"outputs": [
				{
					"internalType": "bool",
					"name": "",
					"type": "bool"
				}
			],
			"stateMutability": "view",
			"type": "function"
		},
		{
			"inputs": [
				{
					"internalType": "uint256",
					"name": "_guildNum",
					"type": "uint256"
				}
			],
			"name": "getmemberLength",
			"outputs": [
				{
					"internalType": "uint256",
					"name": "",
					"type": "uint256"
				}
			],
			"stateMutability": "view",
			"type": "function"
		},
		{
			"inputs": [],
			"name": "gettoBeAdded",
			"outputs": [
				{
					"internalType": "uint256",
					"name": "",
					"type": "uint256"
				}
			],
			"stateMutability": "view",
			"type": "function"
		},
		{
			"inputs": [],
			"name": "gettransferOperatesLength",
			"outputs": [
				{
					"internalType": "uint256",
					"name": "",
					"type": "uint256"
				}
			],
			"stateMutability": "view",
			"type": "function"
		},
		{
			"inputs": [],
			"name": "guildId",
			"outputs": [
				{
					"internalType": "uint256",
					"name": "",
					"type": "uint256"
				}
			],
			"stateMutability": "view",
			"type": "function"
		},
		{
			"inputs": [
				{
					"internalType": "address",
					"name": "",
					"type": "address"
				},
				{
					"internalType": "uint256",
					"name": "",
					"type": "uint256"
				},
				{
					"internalType": "uint256",
					"name": "",
					"type": "uint256"
				}
			],
			"name": "guildInFoOWner",
			"outputs": [
				{
					"internalType": "string",
					"name": "guildName",
					"type": "string"
				},
				{
					"internalType": "string",
					"name": "logo",
					"type": "string"
				},
				{
					"internalType": "string",
					"name": "guildDescribe",
					"type": "string"
				},
				{
					"internalType": "address",
					"name": "guildManager",
					"type": "address"
				},
				{
					"internalType": "uint256",
					"name": "asset",
					"type": "uint256"
				}
			],
			"stateMutability": "view",
			"type": "function"
		},
		{
			"inputs": [
				{
					"internalType": "uint256",
					"name": "",
					"type": "uint256"
				}
			],
			"name": "guildInFos",
			"outputs": [
				{
					"internalType": "string",
					"name": "guildName",
					"type": "string"
				},
				{
					"internalType": "string",
					"name": "logo",
					"type": "string"
				},
				{
					"internalType": "string",
					"name": "guildDescribe",
					"type": "string"
				},
				{
					"internalType": "address",
					"name": "guildManager",
					"type": "address"
				},
				{
					"internalType": "uint256",
					"name": "asset",
					"type": "uint256"
				}
			],
			"stateMutability": "view",
			"type": "function"
		},
		{
			"inputs": [
				{
					"internalType": "uint256",
					"name": "_id",
					"type": "uint256"
				},
				{
					"internalType": "uint256",
					"name": "_amount",
					"type": "uint256"
				}
			],
			"name": "guildIncome",
			"outputs": [],
			"stateMutability": "nonpayable",
			"type": "function"
		},
		{
			"inputs": [
				{
					"internalType": "uint256",
					"name": "",
					"type": "uint256"
				},
				{
					"internalType": "uint256",
					"name": "",
					"type": "uint256"
				}
			],
			"name": "idDeputyGuildManager",
			"outputs": [
				{
					"internalType": "address",
					"name": "",
					"type": "address"
				}
			],
			"stateMutability": "view",
			"type": "function"
		},
		{
			"inputs": [
				{
					"internalType": "uint256",
					"name": "",
					"type": "uint256"
				}
			],
			"name": "inComeInfos",
			"outputs": [
				{
					"internalType": "uint256",
					"name": "id",
					"type": "uint256"
				},
				{
					"internalType": "address",
					"name": "transfer",
					"type": "address"
				},
				{
					"internalType": "uint256",
					"name": "amount",
					"type": "uint256"
				},
				{
					"internalType": "uint256",
					"name": "time",
					"type": "uint256"
				}
			],
			"stateMutability": "view",
			"type": "function"
		},
		{
			"inputs": [
				{
					"internalType": "address",
					"name": "account",
					"type": "address"
				},
				{
					"internalType": "address",
					"name": "operator",
					"type": "address"
				}
			],
			"name": "isApprovedForAll",
			"outputs": [
				{
					"internalType": "bool",
					"name": "",
					"type": "bool"
				}
			],
			"stateMutability": "view",
			"type": "function"
		},
		{
			"inputs": [
				{
					"internalType": "address",
					"name": "",
					"type": "address"
				}
			],
			"name": "isNotdeputyGuildManager",
			"outputs": [
				{
					"internalType": "bool",
					"name": "",
					"type": "bool"
				}
			],
			"stateMutability": "view",
			"type": "function"
		},
		{
			"inputs": [
				{
					"internalType": "address",
					"name": "",
					"type": "address"
				}
			],
			"name": "isNotguildManager",
			"outputs": [
				{
					"internalType": "bool",
					"name": "",
					"type": "bool"
				}
			],
			"stateMutability": "view",
			"type": "function"
		},
		{
			"inputs": [
				{
					"internalType": "address",
					"name": "",
					"type": "address"
				}
			],
			"name": "isnotWhitelistUser",
			"outputs": [
				{
					"internalType": "bool",
					"name": "",
					"type": "bool"
				}
			],
			"stateMutability": "view",
			"type": "function"
		},
		{
			"inputs": [
				{
					"internalType": "uint256",
					"name": "",
					"type": "uint256"
				},
				{
					"internalType": "address",
					"name": "",
					"type": "address"
				}
			],
			"name": "isnotcreater",
			"outputs": [
				{
					"internalType": "bool",
					"name": "",
					"type": "bool"
				}
			],
			"stateMutability": "view",
			"type": "function"
		},
		{
			"inputs": [],
			"name": "joinRestrictions",
			"outputs": [
				{
					"internalType": "uint256",
					"name": "",
					"type": "uint256"
				}
			],
			"stateMutability": "view",
			"type": "function"
		},
		{
			"inputs": [
				{
					"internalType": "address",
					"name": "",
					"type": "address"
				}
			],
			"name": "joinStatus",
			"outputs": [
				{
					"internalType": "bool",
					"name": "",
					"type": "bool"
				}
			],
			"stateMutability": "view",
			"type": "function"
		},
		{
			"inputs": [
				{
					"internalType": "uint256",
					"name": "",
					"type": "uint256"
				},
				{
					"internalType": "uint256",
					"name": "",
					"type": "uint256"
				}
			],
			"name": "member",
			"outputs": [
				{
					"internalType": "address",
					"name": "member",
					"type": "address"
				},
				{
					"internalType": "uint256",
					"name": "PID",
					"type": "uint256"
				},
				{
					"internalType": "uint256",
					"name": "FID",
					"type": "uint256"
				},
				{
					"internalType": "uint256",
					"name": "DATE",
					"type": "uint256"
				}
			],
			"stateMutability": "view",
			"type": "function"
		},
		{
			"inputs": [],
			"name": "owner",
			"outputs": [
				{
					"internalType": "address",
					"name": "",
					"type": "address"
				}
			],
			"stateMutability": "view",
			"type": "function"
		},
		{
			"inputs": [],
			"name": "pauseContract",
			"outputs": [],
			"stateMutability": "nonpayable",
			"type": "function"
		},
		{
			"inputs": [
				{
					"internalType": "uint256",
					"name": "_GuildNum",
					"type": "uint256"
				}
			],
			"name": "quitGuild",
			"outputs": [],
			"stateMutability": "nonpayable",
			"type": "function"
		},
		{
			"inputs": [
				{
					"internalType": "uint256",
					"name": "_userGuildNum",
					"type": "uint256"
				},
				{
					"internalType": "address",
					"name": "_user",
					"type": "address"
				}
			],
			"name": "rejectedApp",
			"outputs": [],
			"stateMutability": "nonpayable",
			"type": "function"
		},
		{
			"inputs": [],
			"name": "renounceOwnership",
			"outputs": [],
			"stateMutability": "nonpayable",
			"type": "function"
		},
		{
			"inputs": [],
			"name": "reputation",
			"outputs": [
				{
					"internalType": "address",
					"name": "",
					"type": "address"
				}
			],
			"stateMutability": "view",
			"type": "function"
		},
		{
			"inputs": [
				{
					"internalType": "address",
					"name": "from",
					"type": "address"
				},
				{
					"internalType": "address",
					"name": "to",
					"type": "address"
				},
				{
					"internalType": "uint256[]",
					"name": "ids",
					"type": "uint256[]"
				},
				{
					"internalType": "uint256[]",
					"name": "amounts",
					"type": "uint256[]"
				},
				{
					"internalType": "bytes",
					"name": "data",
					"type": "bytes"
				}
			],
			"name": "safeBatchTransferFrom",
			"outputs": [],
			"stateMutability": "nonpayable",
			"type": "function"
		},
		{
			"inputs": [
				{
					"internalType": "address",
					"name": "from",
					"type": "address"
				},
				{
					"internalType": "address",
					"name": "to",
					"type": "address"
				},
				{
					"internalType": "uint256",
					"name": "id",
					"type": "uint256"
				},
				{
					"internalType": "uint256",
					"name": "amount",
					"type": "uint256"
				},
				{
					"internalType": "bytes",
					"name": "data",
					"type": "bytes"
				}
			],
			"name": "safeTransferFrom",
			"outputs": [],
			"stateMutability": "nonpayable",
			"type": "function"
		},
		{
			"inputs": [
				{
					"internalType": "uint256",
					"name": "",
					"type": "uint256"
				}
			],
			"name": "secondaryAdministrators",
			"outputs": [
				{
					"internalType": "address",
					"name": "",
					"type": "address"
				}
			],
			"stateMutability": "view",
			"type": "function"
		},
		{
			"inputs": [
				{
					"internalType": "address",
					"name": "operator",
					"type": "address"
				},
				{
					"internalType": "bool",
					"name": "approved",
					"type": "bool"
				}
			],
			"name": "setApprovalForAll",
			"outputs": [],
			"stateMutability": "nonpayable",
			"type": "function"
		},
		{
			"inputs": [
				{
					"internalType": "address[]",
					"name": "users",
					"type": "address[]"
				}
			],
			"name": "setBatchSecondaryAdministrator",
			"outputs": [],
			"stateMutability": "nonpayable",
			"type": "function"
		},
		{
			"inputs": [
				{
					"internalType": "uint256",
					"name": "_GuildNum",
					"type": "uint256"
				},
				{
					"internalType": "address",
					"name": "_to",
					"type": "address"
				}
			],
			"name": "setDeputyGuildManager",
			"outputs": [],
			"stateMutability": "nonpayable",
			"type": "function"
		},
		{
			"inputs": [
				{
					"internalType": "address",
					"name": "_addr",
					"type": "address"
				}
			],
			"name": "setFireSoul",
			"outputs": [],
			"stateMutability": "nonpayable",
			"type": "function"
		},
		{
			"inputs": [
				{
					"internalType": "address payable",
					"name": "_address",
					"type": "address"
				}
			],
			"name": "setFpAddr",
			"outputs": [],
			"stateMutability": "nonpayable",
			"type": "function"
		},
		{
			"inputs": [
				{
					"internalType": "uint256",
					"name": "_GuildNum",
					"type": "uint256"
				},
				{
					"internalType": "address",
					"name": "_to",
					"type": "address"
				}
			],
			"name": "setGuildManager",
			"outputs": [],
			"stateMutability": "nonpayable",
			"type": "function"
		},
		{
			"inputs": [
				{
					"internalType": "address",
					"name": "manager",
					"type": "address"
				}
			],
			"name": "setGuildManagers",
			"outputs": [],
			"stateMutability": "nonpayable",
			"type": "function"
		},
		{
			"inputs": [
				{
					"internalType": "uint256",
					"name": "_amount",
					"type": "uint256"
				}
			],
			"name": "setJoinRestrictions",
			"outputs": [],
			"stateMutability": "nonpayable",
			"type": "function"
		},
		{
			"inputs": [
				{
					"internalType": "uint256",
					"name": "_max",
					"type": "uint256"
				}
			],
			"name": "setMAX",
			"outputs": [],
			"stateMutability": "nonpayable",
			"type": "function"
		},
		{
			"inputs": [
				{
					"internalType": "address",
					"name": "_addr",
					"type": "address"
				}
			],
			"name": "setReputation",
			"outputs": [],
			"stateMutability": "nonpayable",
			"type": "function"
		},
		{
			"inputs": [
				{
					"internalType": "address",
					"name": "_addr",
					"type": "address"
				}
			],
			"name": "setTreasuryDistributionContract",
			"outputs": [],
			"stateMutability": "nonpayable",
			"type": "function"
		},
		{
			"inputs": [
				{
					"internalType": "address",
					"name": "_weth",
					"type": "address"
				}
			],
			"name": "setWeth",
			"outputs": [],
			"stateMutability": "nonpayable",
			"type": "function"
		},
		{
			"inputs": [],
			"name": "status",
			"outputs": [
				{
					"internalType": "bool",
					"name": "",
					"type": "bool"
				}
			],
			"stateMutability": "view",
			"type": "function"
		},
		{
			"inputs": [
				{
					"internalType": "uint256",
					"name": "num",
					"type": "uint256"
				},
				{
					"internalType": "string",
					"name": "_applicationLink",
					"type": "string"
				}
			],
			"name": "submitApplication",
			"outputs": [],
			"stateMutability": "nonpayable",
			"type": "function"
		},
		{
			"inputs": [
				{
					"internalType": "bytes4",
					"name": "interfaceId",
					"type": "bytes4"
				}
			],
			"name": "supportsInterface",
			"outputs": [
				{
					"internalType": "bool",
					"name": "",
					"type": "bool"
				}
			],
			"stateMutability": "view",
			"type": "function"
		},
		{
			"inputs": [
				{
					"internalType": "uint256",
					"name": "",
					"type": "uint256"
				}
			],
			"name": "toBeAdded",
			"outputs": [
				{
					"internalType": "address",
					"name": "",
					"type": "address"
				}
			],
			"stateMutability": "view",
			"type": "function"
		},
		{
			"inputs": [
				{
					"internalType": "uint256",
					"name": "",
					"type": "uint256"
				}
			],
			"name": "transferOperates",
			"outputs": [
				{
					"internalType": "uint256",
					"name": "id",
					"type": "uint256"
				},
				{
					"internalType": "address",
					"name": "operate",
					"type": "address"
				},
				{
					"internalType": "address",
					"name": "_to",
					"type": "address"
				},
				{
					"internalType": "uint256",
					"name": "amount",
					"type": "uint256"
				},
				{
					"internalType": "uint256",
					"name": "time",
					"type": "uint256"
				}
			],
			"stateMutability": "view",
			"type": "function"
		},
		{
			"inputs": [
				{
					"internalType": "address",
					"name": "newOwner",
					"type": "address"
				}
			],
			"name": "transferOwnership",
			"outputs": [],
			"stateMutability": "nonpayable",
			"type": "function"
		},
		{
			"inputs": [
				{
					"internalType": "address",
					"name": "_to",
					"type": "address"
				},
				{
					"internalType": "uint256",
					"name": "_amount",
					"type": "uint256"
				}
			],
			"name": "transferWeth",
			"outputs": [],
			"stateMutability": "nonpayable",
			"type": "function"
		},
		{
			"inputs": [
				{
					"internalType": "uint256",
					"name": "",
					"type": "uint256"
				}
			],
			"name": "uri",
			"outputs": [
				{
					"internalType": "string",
					"name": "",
					"type": "string"
				}
			],
			"stateMutability": "view",
			"type": "function"
		},
		{
			"inputs": [
				{
					"internalType": "address",
					"name": "",
					"type": "address"
				}
			],
			"name": "userApplication",
			"outputs": [
				{
					"internalType": "uint256",
					"name": "GuildNum",
					"type": "uint256"
				},
				{
					"internalType": "uint256",
					"name": "PID",
					"type": "uint256"
				},
				{
					"internalType": "uint256",
					"name": "FID",
					"type": "uint256"
				},
				{
					"internalType": "string",
					"name": "applicationLink",
					"type": "string"
				},
				{
					"internalType": "address",
					"name": "applicationer",
					"type": "address"
				},
				{
					"internalType": "uint256",
					"name": "time",
					"type": "uint256"
				}
			],
			"stateMutability": "view",
			"type": "function"
		},
		{
			"inputs": [
				{
					"internalType": "uint256",
					"name": "",
					"type": "uint256"
				}
			],
			"name": "userGuildInFo",
			"outputs": [
				{
					"internalType": "string",
					"name": "guildName",
					"type": "string"
				},
				{
					"internalType": "string",
					"name": "logo",
					"type": "string"
				},
				{
					"internalType": "string",
					"name": "guildDescribe",
					"type": "string"
				},
				{
					"internalType": "address",
					"name": "guildManager",
					"type": "address"
				},
				{
					"internalType": "uint256",
					"name": "asset",
					"type": "uint256"
				}
			],
			"stateMutability": "view",
			"type": "function"
		},
		{
			"inputs": [
				{
					"internalType": "address",
					"name": "",
					"type": "address"
				}
			],
			"name": "userGuildNum",
			"outputs": [
				{
					"internalType": "uint256",
					"name": "",
					"type": "uint256"
				}
			],
			"stateMutability": "view",
			"type": "function"
		},
		{
			"inputs": [
				{
					"internalType": "address",
					"name": "",
					"type": "address"
				}
			],
			"name": "userStatus",
			"outputs": [
				{
					"internalType": "bool",
					"name": "",
					"type": "bool"
				}
			],
			"stateMutability": "view",
			"type": "function"
		},
		{
			"inputs": [],
			"name": "weth",
			"outputs": [
				{
					"internalType": "address",
					"name": "",
					"type": "address"
				}
			],
			"stateMutability": "view",
			"type": "function"
		}
	]
}