{
	"data": {
		"bytecode": {
			"linkReferences": {},
			"object": "6080604052600c80546001600160a01b03191661dead1790553480156200002557600080fd5b5060405162001193380380620011938339810160408190526200004891620000e9565b600a80546001600160a01b03199081166001600160a01b0396871617909155600980548216948616949094179093556008805484169285169290921790915567016345785d8a000060075560056003819055605f600455610e109055603c60065560008054831694841694909417909355600b80549091169290911691909117905562000169565b6001600160a01b0381168114620000e657600080fd5b50565b600080600080600060a086880312156200010257600080fd5b85516200010f81620000d0565b60208701519095506200012281620000d0565b60408701519094506200013581620000d0565b60608701519093506200014881620000d0565b60808701519092506200015b81620000d0565b809150509295509295909350565b61101a80620001796000396000f3fe608060405234801561001057600080fd5b50600436106101c45760003560e01c80636ff90c5a116100f9578063c52164c611610097578063dd22828411610071578063dd2282841461038f578063e5ad552314610397578063eec7faa1146103aa578063f69ffb46146103b357600080fd5b8063c52164c614610356578063d71afb6e14610369578063dc4c90d31461037c57600080fd5b80639137aa93116100d35780639137aa931461031f578063c019111414610328578063c03366291461033b578063c19e49481461034357600080fd5b80636ff90c5a146102ee5780637f894a60146102f65780638efdc40b1461031657600080fd5b806322d392cb11610166578063422a946811610140578063422a9468146102c157806342e21959146102ca57806345163acf146102dd5780634da03ae5146102e557600080fd5b806322d392cb1461027857806322f07ea01461028b5780633fc8cef3146102ae57600080fd5b80631419841d116101a25780631419841d146102255780631694505e146102385780631e105ec11461024b578063200d2ed21461025457600080fd5b806303fd2a45146101c95780630749469f146101f95780630ec09d0f1461020e575b600080fd5b600c546101dc906001600160a01b031681565b6040516001600160a01b0390911681526020015b60405180910390f35b61020c610207366004610c57565b6103d3565b005b61021760035481565b6040519081526020016101f0565b61020c610233366004610c88565b61040b565b600f546101dc906001600160a01b031681565b61021760025481565b60005461026890600160a01b900460ff1681565b60405190151581526020016101f0565b6009546101dc906001600160a01b031681565b610268610299366004610c88565b600e6020526000908152604090205460ff1681565b6008546101dc906001600160a01b031681565b61021760015481565b61020c6102d8366004610c57565b610457565b61020c610486565b61021760065481565b6102176109ca565b610217610304366004610c88565b600d6020526000908152604090205481565b61021760045481565b61021760055481565b610217610336366004610c88565b610a3d565b61020c610abc565b61020c610351366004610c57565b610b07565b600a546101dc906001600160a01b031681565b61020c610377366004610c57565b610b36565b600b546101dc906001600160a01b031681565b610217610b65565b61020c6103a5366004610c57565b610b96565b61021760075481565b6103c66103c1366004610c88565b610bd6565b6040516101f09190610cfc565b600b546001600160a01b031633146104065760405162461bcd60e51b81526004016103fd90610d0f565b60405180910390fd5b600755565b600b546001600160a01b031633146104355760405162461bcd60e51b81526004016103fd90610d0f565b600f80546001600160a01b0319166001600160a01b0392909216919091179055565b600b546001600160a01b031633146104815760405162461bcd60e51b81526004016103fd90610d0f565b600655565b600054600160a01b900460ff16156104e05760405162461bcd60e51b815260206004820181905260248201527f54686520636f6e7472616374206973206265696e67206d61696e7461696e656460448201526064016103fd565b6007546104eb6109ca565b116105385760405162461bcd60e51b815260206004820152601d60248201527f496e73756666696369656e7420636f6e74726163742062616c616e636500000060448201526064016103fd565b426006546002546105499190610d48565b1080156105715750600554336000908152600d6020526040902054429161056f91610d48565b105b6105bd5760405162461bcd60e51b815260206004820152601c60248201527f636f6e7472616374206f722077616c6c6574206e6f742072656164790000000060448201526064016103fd565b600154600a5460405163014ab31360e01b81523360048201526001600160a01b039091169063014ab31390602401602060405180830381865afa158015610608573d6000803e3d6000fd5b505050506040513d601f19601f8201168201806040525081019061062c9190610d61565b1015806106485750336000908152600e602052604090205460ff165b6106a45760405162461bcd60e51b815260206004820152602760248201527f596f7520646f6e2774206861766520656e6f7567682072657075746174696f6e60448201526620706f696e747360c81b60648201526084016103fd565b336000908152600d602052604080822042908190556002908155815181815260608101909252816020016020820280368337505060085482519293506001600160a01b0316918391506000906106fc576106fc610d90565b6001600160a01b03928316602091820292909201015260095482519116908290600190811061072d5761072d610d90565b6001600160a01b039283166020918202929092010152600f546004546007549190921691635c11d7959161076390606490610da6565b61076d9190610dc8565b60008430426040518663ffffffff1660e01b8152600401610792959493929190610ddf565b600060405180830381600087803b1580156107ac57600080fd5b505af11580156107c0573d6000803e3d6000fd5b5050505060006107ce610b65565b600954600c5460405163a9059cbb60e01b81526001600160a01b03918216600482015260248101849052929350169063a9059cbb906044016020604051808303816000875af1158015610825573d6000803e3d6000fd5b505050506040513d601f19601f820116820180604052508101906108499190610e50565b506008546003546007546001600160a01b039092169163a9059cbb91339161087390606490610da6565b61087d9190610dc8565b6040516001600160e01b031960e085901b1681526001600160a01b03909216600483015260248201526044016020604051808303816000875af11580156108c8573d6000803e3d6000fd5b505050506040513d601f19601f820116820180604052508101906108ec9190610e50565b507f0cfaf24d483ac93274eb1e462dc3f27221857c17b818184b7782e4a97df3857661091733610a3d565b61092033610bd6565b600a5460405163014ab31360e01b81523360048201526001600160a01b039091169063014ab31390602401602060405180830381865afa158015610968573d6000803e3d6000fd5b505050506040513d601f19601f8201168201806040525081019061098c9190610d61565b338560035460646007546109a09190610da6565b6109aa9190610dc8565b426040516109be9796959493929190610e72565b60405180910390a15050565b6008546040516370a0823160e01b81523060048201526000916001600160a01b0316906370a08231906024015b602060405180830381865afa158015610a14573d6000803e3d6000fd5b505050506040513d601f19601f82011682018060405250810190610a389190610d61565b905090565b60008054604051630cacd00160e11b81526001600160a01b03848116600483015283921690631959a00290602401600060405180830381865afa158015610a88573d6000803e3d6000fd5b505050506040513d6000823e601f3d908101601f19168201604052610ab09190810190610f46565b50929695505050505050565b600b546001600160a01b03163314610ae65760405162461bcd60e51b81526004016103fd90610d0f565b6000805460ff60a01b198116600160a01b9182900460ff1615909102179055565b600b546001600160a01b03163314610b315760405162461bcd60e51b81526004016103fd90610d0f565b600155565b600b546001600160a01b03163314610b605760405162461bcd60e51b81526004016103fd90610d0f565b600555565b6009546040516370a0823160e01b81523060048201526000916001600160a01b0316906370a08231906024016109f7565b600b546001600160a01b03163314610bc05760405162461bcd60e51b81526004016103fd90610d0f565b6003819055610bd0816064610fd1565b60045550565b60008054604051630cacd00160e11b81526001600160a01b038481166004830152606093921690631959a00290602401600060405180830381865afa158015610c23573d6000803e3d6000fd5b505050506040513d6000823e601f3d908101601f19168201604052610c4b9190810190610f46565b50909695505050505050565b600060208284031215610c6957600080fd5b5035919050565b6001600160a01b0381168114610c8557600080fd5b50565b600060208284031215610c9a57600080fd5b8135610ca581610c70565b9392505050565b60005b83811015610cc7578181015183820152602001610caf565b50506000910152565b60008151808452610ce8816020860160208601610cac565b601f01601f19169290920160200192915050565b602081526000610ca56020830184610cd0565b6020808252600990820152686e6f2061636365737360b81b604082015260600190565b634e487b7160e01b600052601160045260246000fd5b80820180821115610d5b57610d5b610d32565b92915050565b600060208284031215610d7357600080fd5b5051919050565b634e487b7160e01b600052604160045260246000fd5b634e487b7160e01b600052603260045260246000fd5b600082610dc357634e487b7160e01b600052601260045260246000fd5b500490565b8082028115828204841417610d5b57610d5b610d32565b600060a082018783526020878185015260a0604085015281875180845260c086019150828901935060005b81811015610e2f5784516001600160a01b031683529383019391830191600101610e0a565b50506001600160a01b03969096166060850152505050608001529392505050565b600060208284031215610e6257600080fd5b81518015158114610ca557600080fd5b87815260e060208201526000610e8b60e0830189610cd0565b6040830197909752506001600160a01b03949094166060850152608084019290925260a083015260c09091015292915050565b600082601f830112610ecf57600080fd5b815167ffffffffffffffff80821115610eea57610eea610d7a565b604051601f8301601f19908116603f01168101908282118183101715610f1257610f12610d7a565b81604052838152866020858801011115610f2b57600080fd5b610f3c846020830160208901610cac565b9695505050505050565b600080600080600060a08688031215610f5e57600080fd5b855194506020860151610f7081610c70565b604087015190945067ffffffffffffffff80821115610f8e57600080fd5b610f9a89838a01610ebe565b94506060880151915080821115610fb057600080fd5b50610fbd88828901610ebe565b925050608086015190509295509295909350565b81810381811115610d5b57610d5b610d3256fea264697066735822122085650c1040248265b22d682028fafe63f0a84cd29f17f63144ef9f63dfff65be64736f6c63430008120033",
			"opcodes": "PUSH1 0x80 PUSH1 0x40 MSTORE PUSH1 0xC DUP1 SLOAD PUSH1 0x1 PUSH1 0x1 PUSH1 0xA0 SHL SUB NOT AND PUSH2 0xDEAD OR SWAP1 SSTORE CALLVALUE DUP1 ISZERO PUSH3 0x25 JUMPI PUSH1 0x0 DUP1 REVERT JUMPDEST POP PUSH1 0x40 MLOAD PUSH3 0x1193 CODESIZE SUB DUP1 PUSH3 0x1193 DUP4 CODECOPY DUP2 ADD PUSH1 0x40 DUP2 SWAP1 MSTORE PUSH3 0x48 SWAP2 PUSH3 0xE9 JUMP JUMPDEST PUSH1 0xA DUP1 SLOAD PUSH1 0x1 PUSH1 0x1 PUSH1 0xA0 SHL SUB NOT SWAP1 DUP2 AND PUSH1 0x1 PUSH1 0x1 PUSH1 0xA0 SHL SUB SWAP7 DUP8 AND OR SWAP1 SWAP2 SSTORE PUSH1 0x9 DUP1 SLOAD DUP3 AND SWAP5 DUP7 AND SWAP5 SWAP1 SWAP5 OR SWAP1 SWAP4 SSTORE PUSH1 0x8 DUP1 SLOAD DUP5 AND SWAP3 DUP6 AND SWAP3 SWAP1 SWAP3 OR SWAP1 SWAP2 SSTORE PUSH8 0x16345785D8A0000 PUSH1 0x7 SSTORE PUSH1 0x5 PUSH1 0x3 DUP2 SWAP1 SSTORE PUSH1 0x5F PUSH1 0x4 SSTORE PUSH2 0xE10 SWAP1 SSTORE PUSH1 0x3C PUSH1 0x6 SSTORE PUSH1 0x0 DUP1 SLOAD DUP4 AND SWAP5 DUP5 AND SWAP5 SWAP1 SWAP5 OR SWAP1 SWAP4 SSTORE PUSH1 0xB DUP1 SLOAD SWAP1 SWAP2 AND SWAP3 SWAP1 SWAP2 AND SWAP2 SWAP1 SWAP2 OR SWAP1 SSTORE PUSH3 0x169 JUMP JUMPDEST PUSH1 0x1 PUSH1 0x1 PUSH1 0xA0 SHL SUB DUP2 AND DUP2 EQ PUSH3 0xE6 JUMPI PUSH1 0x0 DUP1 REVERT JUMPDEST POP JUMP JUMPDEST PUSH1 0x0 DUP1 PUSH1 0x0 DUP1 PUSH1 0x0 PUSH1 0xA0 DUP7 DUP9 SUB SLT ISZERO PUSH3 0x102 JUMPI PUSH1 0x0 DUP1 REVERT JUMPDEST DUP6 MLOAD PUSH3 0x10F DUP2 PUSH3 0xD0 JUMP JUMPDEST PUSH1 0x20 DUP8 ADD MLOAD SWAP1 SWAP6 POP PUSH3 0x122 DUP2 PUSH3 0xD0 JUMP JUMPDEST PUSH1 0x40 DUP8 ADD MLOAD SWAP1 SWAP5 POP PUSH3 0x135 DUP2 PUSH3 0xD0 JUMP JUMPDEST PUSH1 0x60 DUP8 ADD MLOAD SWAP1 SWAP4 POP PUSH3 0x148 DUP2 PUSH3 0xD0 JUMP JUMPDEST PUSH1 0x80 DUP8 ADD MLOAD SWAP1 SWAP3 POP PUSH3 0x15B DUP2 PUSH3 0xD0 JUMP JUMPDEST DUP1 SWAP2 POP POP SWAP3 SWAP6 POP SWAP3 SWAP6 SWAP1 SWAP4 POP JUMP JUMPDEST PUSH2 0x101A DUP1 PUSH3 0x179 PUSH1 0x0 CODECOPY PUSH1 0x0 RETURN INVALID PUSH1 0x80 PUSH1 0x40 MSTORE CALLVALUE DUP1 ISZERO PUSH2 0x10 JUMPI PUSH1 0x0 DUP1 REVERT JUMPDEST POP PUSH1 0x4 CALLDATASIZE LT PUSH2 0x1C4 JUMPI PUSH1 0x0 CALLDATALOAD PUSH1 0xE0 SHR DUP1 PUSH4 0x6FF90C5A GT PUSH2 0xF9 JUMPI DUP1 PUSH4 0xC52164C6 GT PUSH2 0x97 JUMPI DUP1 PUSH4 0xDD228284 GT PUSH2 0x71 JUMPI DUP1 PUSH4 0xDD228284 EQ PUSH2 0x38F JUMPI DUP1 PUSH4 0xE5AD5523 EQ PUSH2 0x397 JUMPI DUP1 PUSH4 0xEEC7FAA1 EQ PUSH2 0x3AA JUMPI DUP1 PUSH4 0xF69FFB46 EQ PUSH2 0x3B3 JUMPI PUSH1 0x0 DUP1 REVERT JUMPDEST DUP1 PUSH4 0xC52164C6 EQ PUSH2 0x356 JUMPI DUP1 PUSH4 0xD71AFB6E EQ PUSH2 0x369 JUMPI DUP1 PUSH4 0xDC4C90D3 EQ PUSH2 0x37C JUMPI PUSH1 0x0 DUP1 REVERT JUMPDEST DUP1 PUSH4 0x9137AA93 GT PUSH2 0xD3 JUMPI DUP1 PUSH4 0x9137AA93 EQ PUSH2 0x31F JUMPI DUP1 PUSH4 0xC0191114 EQ PUSH2 0x328 JUMPI DUP1 PUSH4 0xC0336629 EQ PUSH2 0x33B JUMPI DUP1 PUSH4 0xC19E4948 EQ PUSH2 0x343 JUMPI PUSH1 0x0 DUP1 REVERT JUMPDEST DUP1 PUSH4 0x6FF90C5A EQ PUSH2 0x2EE JUMPI DUP1 PUSH4 0x7F894A60 EQ PUSH2 0x2F6 JUMPI DUP1 PUSH4 0x8EFDC40B EQ PUSH2 0x316 JUMPI PUSH1 0x0 DUP1 REVERT JUMPDEST DUP1 PUSH4 0x22D392CB GT PUSH2 0x166 JUMPI DUP1 PUSH4 0x422A9468 GT PUSH2 0x140 JUMPI DUP1 PUSH4 0x422A9468 EQ PUSH2 0x2C1 JUMPI DUP1 PUSH4 0x42E21959 EQ PUSH2 0x2CA JUMPI DUP1 PUSH4 0x45163ACF EQ PUSH2 0x2DD JUMPI DUP1 PUSH4 0x4DA03AE5 EQ PUSH2 0x2E5 JUMPI PUSH1 0x0 DUP1 REVERT JUMPDEST DUP1 PUSH4 0x22D392CB EQ PUSH2 0x278 JUMPI DUP1 PUSH4 0x22F07EA0 EQ PUSH2 0x28B JUMPI DUP1 PUSH4 0x3FC8CEF3 EQ PUSH2 0x2AE JUMPI PUSH1 0x0 DUP1 REVERT JUMPDEST DUP1 PUSH4 0x1419841D GT PUSH2 0x1A2 JUMPI DUP1 PUSH4 0x1419841D EQ PUSH2 0x225 JUMPI DUP1 PUSH4 0x1694505E EQ PUSH2 0x238 JUMPI DUP1 PUSH4 0x1E105EC1 EQ PUSH2 0x24B JUMPI DUP1 PUSH4 0x200D2ED2 EQ PUSH2 0x254 JUMPI PUSH1 0x0 DUP1 REVERT JUMPDEST DUP1 PUSH4 0x3FD2A45 EQ PUSH2 0x1C9 JUMPI DUP1 PUSH4 0x749469F EQ PUSH2 0x1F9 JUMPI DUP1 PUSH4 0xEC09D0F EQ PUSH2 0x20E JUMPI JUMPDEST PUSH1 0x0 DUP1 REVERT JUMPDEST PUSH1 0xC SLOAD PUSH2 0x1DC SWAP1 PUSH1 0x1 PUSH1 0x1 PUSH1 0xA0 SHL SUB AND DUP2 JUMP JUMPDEST PUSH1 0x40 MLOAD PUSH1 0x1 PUSH1 0x1 PUSH1 0xA0 SHL SUB SWAP1 SWAP2 AND DUP2 MSTORE PUSH1 0x20 ADD JUMPDEST PUSH1 0x40 MLOAD DUP1 SWAP2 SUB SWAP1 RETURN JUMPDEST PUSH2 0x20C PUSH2 0x207 CALLDATASIZE PUSH1 0x4 PUSH2 0xC57 JUMP JUMPDEST PUSH2 0x3D3 JUMP JUMPDEST STOP JUMPDEST PUSH2 0x217 PUSH1 0x3 SLOAD DUP2 JUMP JUMPDEST PUSH1 0x40 MLOAD SWAP1 DUP2 MSTORE PUSH1 0x20 ADD PUSH2 0x1F0 JUMP JUMPDEST PUSH2 0x20C PUSH2 0x233 CALLDATASIZE PUSH1 0x4 PUSH2 0xC88 JUMP JUMPDEST PUSH2 0x40B JUMP JUMPDEST PUSH1 0xF SLOAD PUSH2 0x1DC SWAP1 PUSH1 0x1 PUSH1 0x1 PUSH1 0xA0 SHL SUB AND DUP2 JUMP JUMPDEST PUSH2 0x217 PUSH1 0x2 SLOAD DUP2 JUMP JUMPDEST PUSH1 0x0 SLOAD PUSH2 0x268 SWAP1 PUSH1 0x1 PUSH1 0xA0 SHL SWAP1 DIV PUSH1 0xFF AND DUP2 JUMP JUMPDEST PUSH1 0x40 MLOAD SWAP1 ISZERO ISZERO DUP2 MSTORE PUSH1 0x20 ADD PUSH2 0x1F0 JUMP JUMPDEST PUSH1 0x9 SLOAD PUSH2 0x1DC SWAP1 PUSH1 0x1 PUSH1 0x1 PUSH1 0xA0 SHL SUB AND DUP2 JUMP JUMPDEST PUSH2 0x268 PUSH2 0x299 CALLDATASIZE PUSH1 0x4 PUSH2 0xC88 JUMP JUMPDEST PUSH1 0xE PUSH1 0x20 MSTORE PUSH1 0x0 SWAP1 DUP2 MSTORE PUSH1 0x40 SWAP1 KECCAK256 SLOAD PUSH1 0xFF AND DUP2 JUMP JUMPDEST PUSH1 0x8 SLOAD PUSH2 0x1DC SWAP1 PUSH1 0x1 PUSH1 0x1 PUSH1 0xA0 SHL SUB AND DUP2 JUMP JUMPDEST PUSH2 0x217 PUSH1 0x1 SLOAD DUP2 JUMP JUMPDEST PUSH2 0x20C PUSH2 0x2D8 CALLDATASIZE PUSH1 0x4 PUSH2 0xC57 JUMP JUMPDEST PUSH2 0x457 JUMP JUMPDEST PUSH2 0x20C PUSH2 0x486 JUMP JUMPDEST PUSH2 0x217 PUSH1 0x6 SLOAD DUP2 JUMP JUMPDEST PUSH2 0x217 PUSH2 0x9CA JUMP JUMPDEST PUSH2 0x217 PUSH2 0x304 CALLDATASIZE PUSH1 0x4 PUSH2 0xC88 JUMP JUMPDEST PUSH1 0xD PUSH1 0x20 MSTORE PUSH1 0x0 SWAP1 DUP2 MSTORE PUSH1 0x40 SWAP1 KECCAK256 SLOAD DUP2 JUMP JUMPDEST PUSH2 0x217 PUSH1 0x4 SLOAD DUP2 JUMP JUMPDEST PUSH2 0x217 PUSH1 0x5 SLOAD DUP2 JUMP JUMPDEST PUSH2 0x217 PUSH2 0x336 CALLDATASIZE PUSH1 0x4 PUSH2 0xC88 JUMP JUMPDEST PUSH2 0xA3D JUMP JUMPDEST PUSH2 0x20C PUSH2 0xABC JUMP JUMPDEST PUSH2 0x20C PUSH2 0x351 CALLDATASIZE PUSH1 0x4 PUSH2 0xC57 JUMP JUMPDEST PUSH2 0xB07 JUMP JUMPDEST PUSH1 0xA SLOAD PUSH2 0x1DC SWAP1 PUSH1 0x1 PUSH1 0x1 PUSH1 0xA0 SHL SUB AND DUP2 JUMP JUMPDEST PUSH2 0x20C PUSH2 0x377 CALLDATASIZE PUSH1 0x4 PUSH2 0xC57 JUMP JUMPDEST PUSH2 0xB36 JUMP JUMPDEST PUSH1 0xB SLOAD PUSH2 0x1DC SWAP1 PUSH1 0x1 PUSH1 0x1 PUSH1 0xA0 SHL SUB AND DUP2 JUMP JUMPDEST PUSH2 0x217 PUSH2 0xB65 JUMP JUMPDEST PUSH2 0x20C PUSH2 0x3A5 CALLDATASIZE PUSH1 0x4 PUSH2 0xC57 JUMP JUMPDEST PUSH2 0xB96 JUMP JUMPDEST PUSH2 0x217 PUSH1 0x7 SLOAD DUP2 JUMP JUMPDEST PUSH2 0x3C6 PUSH2 0x3C1 CALLDATASIZE PUSH1 0x4 PUSH2 0xC88 JUMP JUMPDEST PUSH2 0xBD6 JUMP JUMPDEST PUSH1 0x40 MLOAD PUSH2 0x1F0 SWAP2 SWAP1 PUSH2 0xCFC JUMP JUMPDEST PUSH1 0xB SLOAD PUSH1 0x1 PUSH1 0x1 PUSH1 0xA0 SHL SUB AND CALLER EQ PUSH2 0x406 JUMPI PUSH1 0x40 MLOAD PUSH3 0x461BCD PUSH1 0xE5 SHL DUP2 MSTORE PUSH1 0x4 ADD PUSH2 0x3FD SWAP1 PUSH2 0xD0F JUMP JUMPDEST PUSH1 0x40 MLOAD DUP1 SWAP2 SUB SWAP1 REVERT JUMPDEST PUSH1 0x7 SSTORE JUMP JUMPDEST PUSH1 0xB SLOAD PUSH1 0x1 PUSH1 0x1 PUSH1 0xA0 SHL SUB AND CALLER EQ PUSH2 0x435 JUMPI PUSH1 0x40 MLOAD PUSH3 0x461BCD PUSH1 0xE5 SHL DUP2 MSTORE PUSH1 0x4 ADD PUSH2 0x3FD SWAP1 PUSH2 0xD0F JUMP JUMPDEST PUSH1 0xF DUP1 SLOAD PUSH1 0x1 PUSH1 0x1 PUSH1 0xA0 SHL SUB NOT AND PUSH1 0x1 PUSH1 0x1 PUSH1 0xA0 SHL SUB SWAP3 SWAP1 SWAP3 AND SWAP2 SWAP1 SWAP2 OR SWAP1 SSTORE JUMP JUMPDEST PUSH1 0xB SLOAD PUSH1 0x1 PUSH1 0x1 PUSH1 0xA0 SHL SUB AND CALLER EQ PUSH2 0x481 JUMPI PUSH1 0x40 MLOAD PUSH3 0x461BCD PUSH1 0xE5 SHL DUP2 MSTORE PUSH1 0x4 ADD PUSH2 0x3FD SWAP1 PUSH2 0xD0F JUMP JUMPDEST PUSH1 0x6 SSTORE JUMP JUMPDEST PUSH1 0x0 SLOAD PUSH1 0x1 PUSH1 0xA0 SHL SWAP1 DIV PUSH1 0xFF AND ISZERO PUSH2 0x4E0 JUMPI PUSH1 0x40 MLOAD PUSH3 0x461BCD PUSH1 0xE5 SHL DUP2 MSTORE PUSH1 0x20 PUSH1 0x4 DUP3 ADD DUP2 SWAP1 MSTORE PUSH1 0x24 DUP3 ADD MSTORE PUSH32 0x54686520636F6E7472616374206973206265696E67206D61696E7461696E6564 PUSH1 0x44 DUP3 ADD MSTORE PUSH1 0x64 ADD PUSH2 0x3FD JUMP JUMPDEST PUSH1 0x7 SLOAD PUSH2 0x4EB PUSH2 0x9CA JUMP JUMPDEST GT PUSH2 0x538 JUMPI PUSH1 0x40 MLOAD PUSH3 0x461BCD PUSH1 0xE5 SHL DUP2 MSTORE PUSH1 0x20 PUSH1 0x4 DUP3 ADD MSTORE PUSH1 0x1D PUSH1 0x24 DUP3 ADD MSTORE PUSH32 0x496E73756666696369656E7420636F6E74726163742062616C616E6365000000 PUSH1 0x44 DUP3 ADD MSTORE PUSH1 0x64 ADD PUSH2 0x3FD JUMP JUMPDEST TIMESTAMP PUSH1 0x6 SLOAD PUSH1 0x2 SLOAD PUSH2 0x549 SWAP2 SWAP1 PUSH2 0xD48 JUMP JUMPDEST LT DUP1 ISZERO PUSH2 0x571 JUMPI POP PUSH1 0x5 SLOAD CALLER PUSH1 0x0 SWAP1 DUP2 MSTORE PUSH1 0xD PUSH1 0x20 MSTORE PUSH1 0x40 SWAP1 KECCAK256 SLOAD TIMESTAMP SWAP2 PUSH2 0x56F SWAP2 PUSH2 0xD48 JUMP JUMPDEST LT JUMPDEST PUSH2 0x5BD JUMPI PUSH1 0x40 MLOAD PUSH3 0x461BCD PUSH1 0xE5 SHL DUP2 MSTORE PUSH1 0x20 PUSH1 0x4 DUP3 ADD MSTORE PUSH1 0x1C PUSH1 0x24 DUP3 ADD MSTORE PUSH32 0x636F6E7472616374206F722077616C6C6574206E6F7420726561647900000000 PUSH1 0x44 DUP3 ADD MSTORE PUSH1 0x64 ADD PUSH2 0x3FD JUMP JUMPDEST PUSH1 0x1 SLOAD PUSH1 0xA SLOAD PUSH1 0x40 MLOAD PUSH4 0x14AB313 PUSH1 0xE0 SHL DUP2 MSTORE CALLER PUSH1 0x4 DUP3 ADD MSTORE PUSH1 0x1 PUSH1 0x1 PUSH1 0xA0 SHL SUB SWAP1 SWAP2 AND SWAP1 PUSH4 0x14AB313 SWAP1 PUSH1 0x24 ADD PUSH1 0x20 PUSH1 0x40 MLOAD DUP1 DUP4 SUB DUP2 DUP7 GAS STATICCALL ISZERO DUP1 ISZERO PUSH2 0x608 JUMPI RETURNDATASIZE PUSH1 0x0 DUP1 RETURNDATACOPY RETURNDATASIZE PUSH1 0x0 REVERT JUMPDEST POP POP POP POP PUSH1 0x40 MLOAD RETURNDATASIZE PUSH1 0x1F NOT PUSH1 0x1F DUP3 ADD AND DUP3 ADD DUP1 PUSH1 0x40 MSTORE POP DUP2 ADD SWAP1 PUSH2 0x62C SWAP2 SWAP1 PUSH2 0xD61 JUMP JUMPDEST LT ISZERO DUP1 PUSH2 0x648 JUMPI POP CALLER PUSH1 0x0 SWAP1 DUP2 MSTORE PUSH1 0xE PUSH1 0x20 MSTORE PUSH1 0x40 SWAP1 KECCAK256 SLOAD PUSH1 0xFF AND JUMPDEST PUSH2 0x6A4 JUMPI PUSH1 0x40 MLOAD PUSH3 0x461BCD PUSH1 0xE5 SHL DUP2 MSTORE PUSH1 0x20 PUSH1 0x4 DUP3 ADD MSTORE PUSH1 0x27 PUSH1 0x24 DUP3 ADD MSTORE PUSH32 0x596F7520646F6E2774206861766520656E6F7567682072657075746174696F6E PUSH1 0x44 DUP3 ADD MSTORE PUSH7 0x20706F696E7473 PUSH1 0xC8 SHL PUSH1 0x64 DUP3 ADD MSTORE PUSH1 0x84 ADD PUSH2 0x3FD JUMP JUMPDEST CALLER PUSH1 0x0 SWAP1 DUP2 MSTORE PUSH1 0xD PUSH1 0x20 MSTORE PUSH1 0x40 DUP1 DUP3 KECCAK256 TIMESTAMP SWAP1 DUP2 SWAP1 SSTORE PUSH1 0x2 SWAP1 DUP2 SSTORE DUP2 MLOAD DUP2 DUP2 MSTORE PUSH1 0x60 DUP2 ADD SWAP1 SWAP3 MSTORE DUP2 PUSH1 0x20 ADD PUSH1 0x20 DUP3 MUL DUP1 CALLDATASIZE DUP4 CALLDATACOPY POP POP PUSH1 0x8 SLOAD DUP3 MLOAD SWAP3 SWAP4 POP PUSH1 0x1 PUSH1 0x1 PUSH1 0xA0 SHL SUB AND SWAP2 DUP4 SWAP2 POP PUSH1 0x0 SWAP1 PUSH2 0x6FC JUMPI PUSH2 0x6FC PUSH2 0xD90 JUMP JUMPDEST PUSH1 0x1 PUSH1 0x1 PUSH1 0xA0 SHL SUB SWAP3 DUP4 AND PUSH1 0x20 SWAP2 DUP3 MUL SWAP3 SWAP1 SWAP3 ADD ADD MSTORE PUSH1 0x9 SLOAD DUP3 MLOAD SWAP2 AND SWAP1 DUP3 SWAP1 PUSH1 0x1 SWAP1 DUP2 LT PUSH2 0x72D JUMPI PUSH2 0x72D PUSH2 0xD90 JUMP JUMPDEST PUSH1 0x1 PUSH1 0x1 PUSH1 0xA0 SHL SUB SWAP3 DUP4 AND PUSH1 0x20 SWAP2 DUP3 MUL SWAP3 SWAP1 SWAP3 ADD ADD MSTORE PUSH1 0xF SLOAD PUSH1 0x4 SLOAD PUSH1 0x7 SLOAD SWAP2 SWAP1 SWAP3 AND SWAP2 PUSH4 0x5C11D795 SWAP2 PUSH2 0x763 SWAP1 PUSH1 0x64 SWAP1 PUSH2 0xDA6 JUMP JUMPDEST PUSH2 0x76D SWAP2 SWAP1 PUSH2 0xDC8 JUMP JUMPDEST PUSH1 0x0 DUP5 ADDRESS TIMESTAMP PUSH1 0x40 MLOAD DUP7 PUSH4 0xFFFFFFFF AND PUSH1 0xE0 SHL DUP2 MSTORE PUSH1 0x4 ADD PUSH2 0x792 SWAP6 SWAP5 SWAP4 SWAP3 SWAP2 SWAP1 PUSH2 0xDDF JUMP JUMPDEST PUSH1 0x0 PUSH1 0x40 MLOAD DUP1 DUP4 SUB DUP2 PUSH1 0x0 DUP8 DUP1 EXTCODESIZE ISZERO DUP1 ISZERO PUSH2 0x7AC JUMPI PUSH1 0x0 DUP1 REVERT JUMPDEST POP GAS CALL ISZERO DUP1 ISZERO PUSH2 0x7C0 JUMPI RETURNDATASIZE PUSH1 0x0 DUP1 RETURNDATACOPY RETURNDATASIZE PUSH1 0x0 REVERT JUMPDEST POP POP POP POP PUSH1 0x0 PUSH2 0x7CE PUSH2 0xB65 JUMP JUMPDEST PUSH1 0x9 SLOAD PUSH1 0xC SLOAD PUSH1 0x40 MLOAD PUSH4 0xA9059CBB PUSH1 0xE0 SHL DUP2 MSTORE PUSH1 0x1 PUSH1 0x1 PUSH1 0xA0 SHL SUB SWAP2 DUP3 AND PUSH1 0x4 DUP3 ADD MSTORE PUSH1 0x24 DUP2 ADD DUP5 SWAP1 MSTORE SWAP3 SWAP4 POP AND SWAP1 PUSH4 0xA9059CBB SWAP1 PUSH1 0x44 ADD PUSH1 0x20 PUSH1 0x40 MLOAD DUP1 DUP4 SUB DUP2 PUSH1 0x0 DUP8 GAS CALL ISZERO DUP1 ISZERO PUSH2 0x825 JUMPI RETURNDATASIZE PUSH1 0x0 DUP1 RETURNDATACOPY RETURNDATASIZE PUSH1 0x0 REVERT JUMPDEST POP POP POP POP PUSH1 0x40 MLOAD RETURNDATASIZE PUSH1 0x1F NOT PUSH1 0x1F DUP3 ADD AND DUP3 ADD DUP1 PUSH1 0x40 MSTORE POP DUP2 ADD SWAP1 PUSH2 0x849 SWAP2 SWAP1 PUSH2 0xE50 JUMP JUMPDEST POP PUSH1 0x8 SLOAD PUSH1 0x3 SLOAD PUSH1 0x7 SLOAD PUSH1 0x1 PUSH1 0x1 PUSH1 0xA0 SHL SUB SWAP1 SWAP3 AND SWAP2 PUSH4 0xA9059CBB SWAP2 CALLER SWAP2 PUSH2 0x873 SWAP1 PUSH1 0x64 SWAP1 PUSH2 0xDA6 JUMP JUMPDEST PUSH2 0x87D SWAP2 SWAP1 PUSH2 0xDC8 JUMP JUMPDEST PUSH1 0x40 MLOAD PUSH1 0x1 PUSH1 0x1 PUSH1 0xE0 SHL SUB NOT PUSH1 0xE0 DUP6 SWAP1 SHL AND DUP2 MSTORE PUSH1 0x1 PUSH1 0x1 PUSH1 0xA0 SHL SUB SWAP1 SWAP3 AND PUSH1 0x4 DUP4 ADD MSTORE PUSH1 0x24 DUP3 ADD MSTORE PUSH1 0x44 ADD PUSH1 0x20 PUSH1 0x40 MLOAD DUP1 DUP4 SUB DUP2 PUSH1 0x0 DUP8 GAS CALL ISZERO DUP1 ISZERO PUSH2 0x8C8 JUMPI RETURNDATASIZE PUSH1 0x0 DUP1 RETURNDATACOPY RETURNDATASIZE PUSH1 0x0 REVERT JUMPDEST POP POP POP POP PUSH1 0x40 MLOAD RETURNDATASIZE PUSH1 0x1F NOT PUSH1 0x1F DUP3 ADD AND DUP3 ADD DUP1 PUSH1 0x40 MSTORE POP DUP2 ADD SWAP1 PUSH2 0x8EC SWAP2 SWAP1 PUSH2 0xE50 JUMP JUMPDEST POP PUSH32 0xCFAF24D483AC93274EB1E462DC3F27221857C17B818184B7782E4A97DF38576 PUSH2 0x917 CALLER PUSH2 0xA3D JUMP JUMPDEST PUSH2 0x920 CALLER PUSH2 0xBD6 JUMP JUMPDEST PUSH1 0xA SLOAD PUSH1 0x40 MLOAD PUSH4 0x14AB313 PUSH1 0xE0 SHL DUP2 MSTORE CALLER PUSH1 0x4 DUP3 ADD MSTORE PUSH1 0x1 PUSH1 0x1 PUSH1 0xA0 SHL SUB SWAP1 SWAP2 AND SWAP1 PUSH4 0x14AB313 SWAP1 PUSH1 0x24 ADD PUSH1 0x20 PUSH1 0x40 MLOAD DUP1 DUP4 SUB DUP2 DUP7 GAS STATICCALL ISZERO DUP1 ISZERO PUSH2 0x968 JUMPI RETURNDATASIZE PUSH1 0x0 DUP1 RETURNDATACOPY RETURNDATASIZE PUSH1 0x0 REVERT JUMPDEST POP POP POP POP PUSH1 0x40 MLOAD RETURNDATASIZE PUSH1 0x1F NOT PUSH1 0x1F DUP3 ADD AND DUP3 ADD DUP1 PUSH1 0x40 MSTORE POP DUP2 ADD SWAP1 PUSH2 0x98C SWAP2 SWAP1 PUSH2 0xD61 JUMP JUMPDEST CALLER DUP6 PUSH1 0x3 SLOAD PUSH1 0x64 PUSH1 0x7 SLOAD PUSH2 0x9A0 SWAP2 SWAP1 PUSH2 0xDA6 JUMP JUMPDEST PUSH2 0x9AA SWAP2 SWAP1 PUSH2 0xDC8 JUMP JUMPDEST TIMESTAMP PUSH1 0x40 MLOAD PUSH2 0x9BE SWAP8 SWAP7 SWAP6 SWAP5 SWAP4 SWAP3 SWAP2 SWAP1 PUSH2 0xE72 JUMP JUMPDEST PUSH1 0x40 MLOAD DUP1 SWAP2 SUB SWAP1 LOG1 POP POP JUMP JUMPDEST PUSH1 0x8 SLOAD PUSH1 0x40 MLOAD PUSH4 0x70A08231 PUSH1 0xE0 SHL DUP2 MSTORE ADDRESS PUSH1 0x4 DUP3 ADD MSTORE PUSH1 0x0 SWAP2 PUSH1 0x1 PUSH1 0x1 PUSH1 0xA0 SHL SUB AND SWAP1 PUSH4 0x70A08231 SWAP1 PUSH1 0x24 ADD JUMPDEST PUSH1 0x20 PUSH1 0x40 MLOAD DUP1 DUP4 SUB DUP2 DUP7 GAS STATICCALL ISZERO DUP1 ISZERO PUSH2 0xA14 JUMPI RETURNDATASIZE PUSH1 0x0 DUP1 RETURNDATACOPY RETURNDATASIZE PUSH1 0x0 REVERT JUMPDEST POP POP POP POP PUSH1 0x40 MLOAD RETURNDATASIZE PUSH1 0x1F NOT PUSH1 0x1F DUP3 ADD AND DUP3 ADD DUP1 PUSH1 0x40 MSTORE POP DUP2 ADD SWAP1 PUSH2 0xA38 SWAP2 SWAP1 PUSH2 0xD61 JUMP JUMPDEST SWAP1 POP SWAP1 JUMP JUMPDEST PUSH1 0x0 DUP1 SLOAD PUSH1 0x40 MLOAD PUSH4 0xCACD001 PUSH1 0xE1 SHL DUP2 MSTORE PUSH1 0x1 PUSH1 0x1 PUSH1 0xA0 SHL SUB DUP5 DUP2 AND PUSH1 0x4 DUP4 ADD MSTORE DUP4 SWAP3 AND SWAP1 PUSH4 0x1959A002 SWAP1 PUSH1 0x24 ADD PUSH1 0x0 PUSH1 0x40 MLOAD DUP1 DUP4 SUB DUP2 DUP7 GAS STATICCALL ISZERO DUP1 ISZERO PUSH2 0xA88 JUMPI RETURNDATASIZE PUSH1 0x0 DUP1 RETURNDATACOPY RETURNDATASIZE PUSH1 0x0 REVERT JUMPDEST POP POP POP POP PUSH1 0x40 MLOAD RETURNDATASIZE PUSH1 0x0 DUP3 RETURNDATACOPY PUSH1 0x1F RETURNDATASIZE SWAP1 DUP2 ADD PUSH1 0x1F NOT AND DUP3 ADD PUSH1 0x40 MSTORE PUSH2 0xAB0 SWAP2 SWAP1 DUP2 ADD SWAP1 PUSH2 0xF46 JUMP JUMPDEST POP SWAP3 SWAP7 SWAP6 POP POP POP POP POP POP JUMP JUMPDEST PUSH1 0xB SLOAD PUSH1 0x1 PUSH1 0x1 PUSH1 0xA0 SHL SUB AND CALLER EQ PUSH2 0xAE6 JUMPI PUSH1 0x40 MLOAD PUSH3 0x461BCD PUSH1 0xE5 SHL DUP2 MSTORE PUSH1 0x4 ADD PUSH2 0x3FD SWAP1 PUSH2 0xD0F JUMP JUMPDEST PUSH1 0x0 DUP1 SLOAD PUSH1 0xFF PUSH1 0xA0 SHL NOT DUP2 AND PUSH1 0x1 PUSH1 0xA0 SHL SWAP2 DUP3 SWAP1 DIV PUSH1 0xFF AND ISZERO SWAP1 SWAP2 MUL OR SWAP1 SSTORE JUMP JUMPDEST PUSH1 0xB SLOAD PUSH1 0x1 PUSH1 0x1 PUSH1 0xA0 SHL SUB AND CALLER EQ PUSH2 0xB31 JUMPI PUSH1 0x40 MLOAD PUSH3 0x461BCD PUSH1 0xE5 SHL DUP2 MSTORE PUSH1 0x4 ADD PUSH2 0x3FD SWAP1 PUSH2 0xD0F JUMP JUMPDEST PUSH1 0x1 SSTORE JUMP JUMPDEST PUSH1 0xB SLOAD PUSH1 0x1 PUSH1 0x1 PUSH1 0xA0 SHL SUB AND CALLER EQ PUSH2 0xB60 JUMPI PUSH1 0x40 MLOAD PUSH3 0x461BCD PUSH1 0xE5 SHL DUP2 MSTORE PUSH1 0x4 ADD PUSH2 0x3FD SWAP1 PUSH2 0xD0F JUMP JUMPDEST PUSH1 0x5 SSTORE JUMP JUMPDEST PUSH1 0x9 SLOAD PUSH1 0x40 MLOAD PUSH4 0x70A08231 PUSH1 0xE0 SHL DUP2 MSTORE ADDRESS PUSH1 0x4 DUP3 ADD MSTORE PUSH1 0x0 SWAP2 PUSH1 0x1 PUSH1 0x1 PUSH1 0xA0 SHL SUB AND SWAP1 PUSH4 0x70A08231 SWAP1 PUSH1 0x24 ADD PUSH2 0x9F7 JUMP JUMPDEST PUSH1 0xB SLOAD PUSH1 0x1 PUSH1 0x1 PUSH1 0xA0 SHL SUB AND CALLER EQ PUSH2 0xBC0 JUMPI PUSH1 0x40 MLOAD PUSH3 0x461BCD PUSH1 0xE5 SHL DUP2 MSTORE PUSH1 0x4 ADD PUSH2 0x3FD SWAP1 PUSH2 0xD0F JUMP JUMPDEST PUSH1 0x3 DUP2 SWAP1 SSTORE PUSH2 0xBD0 DUP2 PUSH1 0x64 PUSH2 0xFD1 JUMP JUMPDEST PUSH1 0x4 SSTORE POP JUMP JUMPDEST PUSH1 0x0 DUP1 SLOAD PUSH1 0x40 MLOAD PUSH4 0xCACD001 PUSH1 0xE1 SHL DUP2 MSTORE PUSH1 0x1 PUSH1 0x1 PUSH1 0xA0 SHL SUB DUP5 DUP2 AND PUSH1 0x4 DUP4 ADD MSTORE PUSH1 0x60 SWAP4 SWAP3 AND SWAP1 PUSH4 0x1959A002 SWAP1 PUSH1 0x24 ADD PUSH1 0x0 PUSH1 0x40 MLOAD DUP1 DUP4 SUB DUP2 DUP7 GAS STATICCALL ISZERO DUP1 ISZERO PUSH2 0xC23 JUMPI RETURNDATASIZE PUSH1 0x0 DUP1 RETURNDATACOPY RETURNDATASIZE PUSH1 0x0 REVERT JUMPDEST POP POP POP POP PUSH1 0x40 MLOAD RETURNDATASIZE PUSH1 0x0 DUP3 RETURNDATACOPY PUSH1 0x1F RETURNDATASIZE SWAP1 DUP2 ADD PUSH1 0x1F NOT AND DUP3 ADD PUSH1 0x40 MSTORE PUSH2 0xC4B SWAP2 SWAP1 DUP2 ADD SWAP1 PUSH2 0xF46 JUMP JUMPDEST POP SWAP1 SWAP7 SWAP6 POP POP POP POP POP POP JUMP JUMPDEST PUSH1 0x0 PUSH1 0x20 DUP3 DUP5 SUB SLT ISZERO PUSH2 0xC69 JUMPI PUSH1 0x0 DUP1 REVERT JUMPDEST POP CALLDATALOAD SWAP2 SWAP1 POP JUMP JUMPDEST PUSH1 0x1 PUSH1 0x1 PUSH1 0xA0 SHL SUB DUP2 AND DUP2 EQ PUSH2 0xC85 JUMPI PUSH1 0x0 DUP1 REVERT JUMPDEST POP JUMP JUMPDEST PUSH1 0x0 PUSH1 0x20 DUP3 DUP5 SUB SLT ISZERO PUSH2 0xC9A JUMPI PUSH1 0x0 DUP1 REVERT JUMPDEST DUP2 CALLDATALOAD PUSH2 0xCA5 DUP2 PUSH2 0xC70 JUMP JUMPDEST SWAP4 SWAP3 POP POP POP JUMP JUMPDEST PUSH1 0x0 JUMPDEST DUP4 DUP2 LT ISZERO PUSH2 0xCC7 JUMPI DUP2 DUP2 ADD MLOAD DUP4 DUP3 ADD MSTORE PUSH1 0x20 ADD PUSH2 0xCAF JUMP JUMPDEST POP POP PUSH1 0x0 SWAP2 ADD MSTORE JUMP JUMPDEST PUSH1 0x0 DUP2 MLOAD DUP1 DUP5 MSTORE PUSH2 0xCE8 DUP2 PUSH1 0x20 DUP7 ADD PUSH1 0x20 DUP7 ADD PUSH2 0xCAC JUMP JUMPDEST PUSH1 0x1F ADD PUSH1 0x1F NOT AND SWAP3 SWAP1 SWAP3 ADD PUSH1 0x20 ADD SWAP3 SWAP2 POP POP JUMP JUMPDEST PUSH1 0x20 DUP2 MSTORE PUSH1 0x0 PUSH2 0xCA5 PUSH1 0x20 DUP4 ADD DUP5 PUSH2 0xCD0 JUMP JUMPDEST PUSH1 0x20 DUP1 DUP3 MSTORE PUSH1 0x9 SWAP1 DUP3 ADD MSTORE PUSH9 0x6E6F20616363657373 PUSH1 0xB8 SHL PUSH1 0x40 DUP3 ADD MSTORE PUSH1 0x60 ADD SWAP1 JUMP JUMPDEST PUSH4 0x4E487B71 PUSH1 0xE0 SHL PUSH1 0x0 MSTORE PUSH1 0x11 PUSH1 0x4 MSTORE PUSH1 0x24 PUSH1 0x0 REVERT JUMPDEST DUP1 DUP3 ADD DUP1 DUP3 GT ISZERO PUSH2 0xD5B JUMPI PUSH2 0xD5B PUSH2 0xD32 JUMP JUMPDEST SWAP3 SWAP2 POP POP JUMP JUMPDEST PUSH1 0x0 PUSH1 0x20 DUP3 DUP5 SUB SLT ISZERO PUSH2 0xD73 JUMPI PUSH1 0x0 DUP1 REVERT JUMPDEST POP MLOAD SWAP2 SWAP1 POP JUMP JUMPDEST PUSH4 0x4E487B71 PUSH1 0xE0 SHL PUSH1 0x0 MSTORE PUSH1 0x41 PUSH1 0x4 MSTORE PUSH1 0x24 PUSH1 0x0 REVERT JUMPDEST PUSH4 0x4E487B71 PUSH1 0xE0 SHL PUSH1 0x0 MSTORE PUSH1 0x32 PUSH1 0x4 MSTORE PUSH1 0x24 PUSH1 0x0 REVERT JUMPDEST PUSH1 0x0 DUP3 PUSH2 0xDC3 JUMPI PUSH4 0x4E487B71 PUSH1 0xE0 SHL PUSH1 0x0 MSTORE PUSH1 0x12 PUSH1 0x4 MSTORE PUSH1 0x24 PUSH1 0x0 REVERT JUMPDEST POP DIV SWAP1 JUMP JUMPDEST DUP1 DUP3 MUL DUP2 ISZERO DUP3 DUP3 DIV DUP5 EQ OR PUSH2 0xD5B JUMPI PUSH2 0xD5B PUSH2 0xD32 JUMP JUMPDEST PUSH1 0x0 PUSH1 0xA0 DUP3 ADD DUP8 DUP4 MSTORE PUSH1 0x20 DUP8 DUP2 DUP6 ADD MSTORE PUSH1 0xA0 PUSH1 0x40 DUP6 ADD MSTORE DUP2 DUP8 MLOAD DUP1 DUP5 MSTORE PUSH1 0xC0 DUP7 ADD SWAP2 POP DUP3 DUP10 ADD SWAP4 POP PUSH1 0x0 JUMPDEST DUP2 DUP2 LT ISZERO PUSH2 0xE2F JUMPI DUP5 MLOAD PUSH1 0x1 PUSH1 0x1 PUSH1 0xA0 SHL SUB AND DUP4 MSTORE SWAP4 DUP4 ADD SWAP4 SWAP2 DUP4 ADD SWAP2 PUSH1 0x1 ADD PUSH2 0xE0A JUMP JUMPDEST POP POP PUSH1 0x1 PUSH1 0x1 PUSH1 0xA0 SHL SUB SWAP7 SWAP1 SWAP7 AND PUSH1 0x60 DUP6 ADD MSTORE POP POP POP PUSH1 0x80 ADD MSTORE SWAP4 SWAP3 POP POP POP JUMP JUMPDEST PUSH1 0x0 PUSH1 0x20 DUP3 DUP5 SUB SLT ISZERO PUSH2 0xE62 JUMPI PUSH1 0x0 DUP1 REVERT JUMPDEST DUP2 MLOAD DUP1 ISZERO ISZERO DUP2 EQ PUSH2 0xCA5 JUMPI PUSH1 0x0 DUP1 REVERT JUMPDEST DUP8 DUP2 MSTORE PUSH1 0xE0 PUSH1 0x20 DUP3 ADD MSTORE PUSH1 0x0 PUSH2 0xE8B PUSH1 0xE0 DUP4 ADD DUP10 PUSH2 0xCD0 JUMP JUMPDEST PUSH1 0x40 DUP4 ADD SWAP8 SWAP1 SWAP8 MSTORE POP PUSH1 0x1 PUSH1 0x1 PUSH1 0xA0 SHL SUB SWAP5 SWAP1 SWAP5 AND PUSH1 0x60 DUP6 ADD MSTORE PUSH1 0x80 DUP5 ADD SWAP3 SWAP1 SWAP3 MSTORE PUSH1 0xA0 DUP4 ADD MSTORE PUSH1 0xC0 SWAP1 SWAP2 ADD MSTORE SWAP3 SWAP2 POP POP JUMP JUMPDEST PUSH1 0x0 DUP3 PUSH1 0x1F DUP4 ADD SLT PUSH2 0xECF JUMPI PUSH1 0x0 DUP1 REVERT JUMPDEST DUP2 MLOAD PUSH8 0xFFFFFFFFFFFFFFFF DUP1 DUP3 GT ISZERO PUSH2 0xEEA JUMPI PUSH2 0xEEA PUSH2 0xD7A JUMP JUMPDEST PUSH1 0x40 MLOAD PUSH1 0x1F DUP4 ADD PUSH1 0x1F NOT SWAP1 DUP2 AND PUSH1 0x3F ADD AND DUP2 ADD SWAP1 DUP3 DUP3 GT DUP2 DUP4 LT OR ISZERO PUSH2 0xF12 JUMPI PUSH2 0xF12 PUSH2 0xD7A JUMP JUMPDEST DUP2 PUSH1 0x40 MSTORE DUP4 DUP2 MSTORE DUP7 PUSH1 0x20 DUP6 DUP9 ADD ADD GT ISZERO PUSH2 0xF2B JUMPI PUSH1 0x0 DUP1 REVERT JUMPDEST PUSH2 0xF3C DUP5 PUSH1 0x20 DUP4 ADD PUSH1 0x20 DUP10 ADD PUSH2 0xCAC JUMP JUMPDEST SWAP7 SWAP6 POP POP POP POP POP POP JUMP JUMPDEST PUSH1 0x0 DUP1 PUSH1 0x0 DUP1 PUSH1 0x0 PUSH1 0xA0 DUP7 DUP9 SUB SLT ISZERO PUSH2 0xF5E JUMPI PUSH1 0x0 DUP1 REVERT JUMPDEST DUP6 MLOAD SWAP5 POP PUSH1 0x20 DUP7 ADD MLOAD PUSH2 0xF70 DUP2 PUSH2 0xC70 JUMP JUMPDEST PUSH1 0x40 DUP8 ADD MLOAD SWAP1 SWAP5 POP PUSH8 0xFFFFFFFFFFFFFFFF DUP1 DUP3 GT ISZERO PUSH2 0xF8E JUMPI PUSH1 0x0 DUP1 REVERT JUMPDEST PUSH2 0xF9A DUP10 DUP4 DUP11 ADD PUSH2 0xEBE JUMP JUMPDEST SWAP5 POP PUSH1 0x60 DUP9 ADD MLOAD SWAP2 POP DUP1 DUP3 GT ISZERO PUSH2 0xFB0 JUMPI PUSH1 0x0 DUP1 REVERT JUMPDEST POP PUSH2 0xFBD DUP9 DUP3 DUP10 ADD PUSH2 0xEBE JUMP JUMPDEST SWAP3 POP POP PUSH1 0x80 DUP7 ADD MLOAD SWAP1 POP SWAP3 SWAP6 POP SWAP3 SWAP6 SWAP1 SWAP4 POP JUMP JUMPDEST DUP2 DUP2 SUB DUP2 DUP2 GT ISZERO PUSH2 0xD5B JUMPI PUSH2 0xD5B PUSH2 0xD32 JUMP INVALID LOG2 PUSH5 0x6970667358 0x22 SLT KECCAK256 DUP6 PUSH6 0xC1040248265 0xB2 0x2D PUSH9 0x2028FAFE63F0A84CD2 SWAP16 OR 0xF6 BALANCE PREVRANDAO 0xEF SWAP16 PUSH4 0xDFFF65BE PUSH5 0x736F6C6343 STOP ADDMOD SLT STOP CALLER "
		},
		"gasEstimates": {
			"creation": {
				"codeDepositCost": "824400",
				"executionCost": "infinite",
				"totalCost": "infinite"
			},
			"external": {
				"AWARD_RATIO()": "2386",
				"DEAD()": "2373",
				"PURCHASE_RATIO()": "2385",
				"checkBalanceOfETH()": "infinite",
				"checkBalanceOfFDT()": "infinite",
				"checkPid(address)": "infinite",
				"checkUsername(address)": "infinite",
				"contractCall()": "2385",
				"contractIntervals()": "2406",
				"fdt()": "2372",
				"intervals()": "2340",
				"poolManager()": "2415",
				"reputation()": "2371",
				"reputationAmount()": "2340",
				"setAwardRatio(uint256)": "46716",
				"setContractIntervals(uint256)": "24531",
				"setIntervals(uint256)": "24531",
				"setReputationAmount(uint256)": "24575",
				"setStatus()": "26646",
				"setTokenAmount(uint256)": "24533",
				"setUniswapV2Router(address)": "26751",
				"status()": "2439",
				"swapTokensForOther()": "infinite",
				"tokenAmount()": "2383",
				"uniswapV2Router()": "2394",
				"userCall(address)": "2581",
				"userPass(address)": "2593",
				"weth()": "2416"
			}
		},
		"methodIdentifiers": {
			"AWARD_RATIO()": "0ec09d0f",
			"DEAD()": "03fd2a45",
			"PURCHASE_RATIO()": "8efdc40b",
			"checkBalanceOfETH()": "6ff90c5a",
			"checkBalanceOfFDT()": "dd228284",
			"checkPid(address)": "c0191114",
			"checkUsername(address)": "f69ffb46",
			"contractCall()": "1e105ec1",
			"contractIntervals()": "4da03ae5",
			"fdt()": "22d392cb",
			"intervals()": "9137aa93",
			"poolManager()": "dc4c90d3",
			"reputation()": "c52164c6",
			"reputationAmount()": "422a9468",
			"setAwardRatio(uint256)": "e5ad5523",
			"setContractIntervals(uint256)": "42e21959",
			"setIntervals(uint256)": "d71afb6e",
			"setReputationAmount(uint256)": "c19e4948",
			"setStatus()": "c0336629",
			"setTokenAmount(uint256)": "0749469f",
			"setUniswapV2Router(address)": "1419841d",
			"status()": "200d2ed2",
			"swapTokensForOther()": "45163acf",
			"tokenAmount()": "eec7faa1",
			"uniswapV2Router()": "1694505e",
			"userCall(address)": "7f894a60",
			"userPass(address)": "22f07ea0",
			"weth()": "3fc8cef3"
		}
	},
	"abi": [
		{
			"inputs": [
				{
					"internalType": "contract FirePassport",
					"name": "_fp",
					"type": "address"
				},
				{
					"internalType": "address",
					"name": "_reputation",
					"type": "address"
				},
				{
					"internalType": "address",
					"name": "_fdt",
					"type": "address"
				},
				{
					"internalType": "address",
					"name": "_weth",
					"type": "address"
				},
				{
					"internalType": "address",
					"name": "_poolManager",
					"type": "address"
				}
			],
			"stateMutability": "nonpayable",
			"type": "constructor"
		},
		{
			"anonymous": false,
			"inputs": [
				{
					"indexed": false,
					"internalType": "uint256",
					"name": "pid",
					"type": "uint256"
				},
				{
					"indexed": false,
					"internalType": "string",
					"name": "username",
					"type": "string"
				},
				{
					"indexed": false,
					"internalType": "uint256",
					"name": "fidScore",
					"type": "uint256"
				},
				{
					"indexed": false,
					"internalType": "address",
					"name": "user",
					"type": "address"
				},
				{
					"indexed": false,
					"internalType": "uint256",
					"name": "burn",
					"type": "uint256"
				},
				{
					"indexed": false,
					"internalType": "uint256",
					"name": "rewards",
					"type": "uint256"
				},
				{
					"indexed": false,
					"internalType": "uint256",
					"name": "time",
					"type": "uint256"
				}
			],
			"name": "record",
			"type": "event"
		},
		{
			"inputs": [],
			"name": "AWARD_RATIO",
			"outputs": [
				{
					"internalType": "uint256",
					"name": "",
					"type": "uint256"
				}
			],
			"stateMutability": "view",
			"type": "function"
		},
		{
			"inputs": [],
			"name": "DEAD",
			"outputs": [
				{
					"internalType": "address",
					"name": "",
					"type": "address"
				}
			],
			"stateMutability": "view",
			"type": "function"
		},
		{
			"inputs": [],
			"name": "PURCHASE_RATIO",
			"outputs": [
				{
					"internalType": "uint256",
					"name": "",
					"type": "uint256"
				}
			],
			"stateMutability": "view",
			"type": "function"
		},
		{
			"inputs": [],
			"name": "checkBalanceOfETH",
			"outputs": [
				{
					"internalType": "uint256",
					"name": "",
					"type": "uint256"
				}
			],
			"stateMutability": "view",
			"type": "function"
		},
		{
			"inputs": [],
			"name": "checkBalanceOfFDT",
			"outputs": [
				{
					"internalType": "uint256",
					"name": "",
					"type": "uint256"
				}
			],
			"stateMutability": "view",
			"type": "function"
		},
		{
			"inputs": [
				{
					"internalType": "address",
					"name": "_user",
					"type": "address"
				}
			],
			"name": "checkPid",
			"outputs": [
				{
					"internalType": "uint256",
					"name": "",
					"type": "uint256"
				}
			],
			"stateMutability": "view",
			"type": "function"
		},
		{
			"inputs": [
				{
					"internalType": "address",
					"name": "_user",
					"type": "address"
				}
			],
			"name": "checkUsername",
			"outputs": [
				{
					"internalType": "string",
					"name": "",
					"type": "string"
				}
			],
			"stateMutability": "view",
			"type": "function"
		},
		{
			"inputs": [],
			"name": "contractCall",
			"outputs": [
				{
					"internalType": "uint256",
					"name": "",
					"type": "uint256"
				}
			],
			"stateMutability": "view",
			"type": "function"
		},
		{
			"inputs": [],
			"name": "contractIntervals",
			"outputs": [
				{
					"internalType": "uint256",
					"name": "",
					"type": "uint256"
				}
			],
			"stateMutability": "view",
			"type": "function"
		},
		{
			"inputs": [],
			"name": "fdt",
			"outputs": [
				{
					"internalType": "address",
					"name": "",
					"type": "address"
				}
			],
			"stateMutability": "view",
			"type": "function"
		},
		{
			"inputs": [],
			"name": "intervals",
			"outputs": [
				{
					"internalType": "uint256",
					"name": "",
					"type": "uint256"
				}
			],
			"stateMutability": "view",
			"type": "function"
		},
		{
			"inputs": [],
			"name": "poolManager",
			"outputs": [
				{
					"internalType": "address",
					"name": "",
					"type": "address"
				}
			],
			"stateMutability": "view",
			"type": "function"
		},
		{
			"inputs": [],
			"name": "reputation",
			"outputs": [
				{
					"internalType": "address",
					"name": "",
					"type": "address"
				}
			],
			"stateMutability": "view",
			"type": "function"
		},
		{
			"inputs": [],
			"name": "reputationAmount",
			"outputs": [
				{
					"internalType": "uint256",
					"name": "",
					"type": "uint256"
				}
			],
			"stateMutability": "view",
			"type": "function"
		},
		{
			"inputs": [
				{
					"internalType": "uint256",
					"name": "_ratio",
					"type": "uint256"
				}
			],
			"name": "setAwardRatio",
			"outputs": [],
			"stateMutability": "nonpayable",
			"type": "function"
		},
		{
			"inputs": [
				{
					"internalType": "uint256",
					"name": "_time",
					"type": "uint256"
				}
			],
			"name": "setContractIntervals",
			"outputs": [],
			"stateMutability": "nonpayable",
			"type": "function"
		},
		{
			"inputs": [
				{
					"internalType": "uint256",
					"name": "_time",
					"type": "uint256"
				}
			],
			"name": "setIntervals",
			"outputs": [],
			"stateMutability": "nonpayable",
			"type": "function"
		},
		{
			"inputs": [
				{
					"internalType": "uint256",
					"name": "_amount",
					"type": "uint256"
				}
			],
			"name": "setReputationAmount",
			"outputs": [],
			"stateMutability": "nonpayable",
			"type": "function"
		},
		{
			"inputs": [],
			"name": "setStatus",
			"outputs": [],
			"stateMutability": "nonpayable",
			"type": "function"
		},
		{
			"inputs": [
				{
					"internalType": "uint256",
					"name": "_amount",
					"type": "uint256"
				}
			],
			"name": "setTokenAmount",
			"outputs": [],
			"stateMutability": "nonpayable",
			"type": "function"
		},
		{
			"inputs": [
				{
					"internalType": "contract IUniswapV2Router02",
					"name": "_uniswapV2Router",
					"type": "address"
				}
			],
			"name": "setUniswapV2Router",
			"outputs": [],
			"stateMutability": "nonpayable",
			"type": "function"
		},
		{
			"inputs": [],
			"name": "status",
			"outputs": [
				{
					"internalType": "bool",
					"name": "",
					"type": "bool"
				}
			],
			"stateMutability": "view",
			"type": "function"
		},
		{
			"inputs": [],
			"name": "swapTokensForOther",
			"outputs": [],
			"stateMutability": "nonpayable",
			"type": "function"
		},
		{
			"inputs": [],
			"name": "tokenAmount",
			"outputs": [
				{
					"internalType": "uint256",
					"name": "",
					"type": "uint256"
				}
			],
			"stateMutability": "view",
			"type": "function"
		},
		{
			"inputs": [],
			"name": "uniswapV2Router",
			"outputs": [
				{
					"internalType": "contract IUniswapV2Router02",
					"name": "",
					"type": "address"
				}
			],
			"stateMutability": "view",
			"type": "function"
		},
		{
			"inputs": [
				{
					"internalType": "address",
					"name": "",
					"type": "address"
				}
			],
			"name": "userCall",
			"outputs": [
				{
					"internalType": "uint256",
					"name": "",
					"type": "uint256"
				}
			],
			"stateMutability": "view",
			"type": "function"
		},
		{
			"inputs": [
				{
					"internalType": "address",
					"name": "",
					"type": "address"
				}
			],
			"name": "userPass",
			"outputs": [
				{
					"internalType": "bool",
					"name": "",
					"type": "bool"
				}
			],
			"stateMutability": "view",
			"type": "function"
		},
		{
			"inputs": [],
			"name": "weth",
			"outputs": [
				{
					"internalType": "address",
					"name": "",
					"type": "address"
				}
			],
			"stateMutability": "view",
			"type": "function"
		}
	]
}