{
	"data": {
		"bytecode": {
			"linkReferences": {},
			"object": "6101806040526703782dace9d9000060809081526706f05b59d3b2000060a052670a688906bd8b000060c052670de0b6b3a764000060e052671158e460913d0000610100526714d1120d7b160000610120526718493fba64ef000061014052671bc16d674ec80000610160526200007b90600d906008620001a8565b503480156200008957600080fd5b506040516200520338038062005203833981016040819052620000ac9162000233565b620000b73362000158565b6000805460ff60a01b19169055601d805473639fe6ab55c921f74e7fac1ee960c0b6293ba6126001600160a01b031991821617909155600180546002805484166001600160a01b03968716179055600a6004819055600581905560065560326007819055600855600160a01b9585166001600160a81b03199091161794909417909355671bc16d674ec8000060095560038054909316911617905562000287565b600080546001600160a01b038381166001600160a01b0319831681178455604051919092169283917f8be0079c531659141344cd1fd0a4f28419497f9722a3daafe3b4186f6b6457e09190a35050565b828054828255906000526020600020908101928215620001f1579160200282015b82811115620001f157825182906001600160401b0316905591602001919060010190620001c9565b50620001ff92915062000203565b5090565b5b80821115620001ff576000815560010162000204565b6001600160a01b03811681146200023057600080fd5b50565b6000806000606084860312156200024957600080fd5b835162000256816200021a565b602085015190935062000269816200021a565b60408501519092506200027c816200021a565b809150509250925092565b614f6c80620002976000396000f3fe6080604052600436106104ae5760003560e01c80635c975abb1161026b578063af302c671161014f578063e7ee6ad6116100c1578063f2fde38b11610085578063f2fde38b14610e62578063f51f96dd14610e82578063f6659d7714610e98578063f7ea1d6614610eae578063f96b4cfe14610ec3578063fae25e0e14610ee357600080fd5b8063e7ee6ad614610dcf578063e8d98a9a14610def578063ed68e3ca14610e0f578063f14faf6f14610e2f578063f182f2fc14610e4257600080fd5b8063bb72ce4211610113578063bb72ce4214610d14578063bc15b07014610d29578063bfc8faee14610d59578063c47d0f5814610d79578063d0b5618e14610d99578063e0507ada14610daf57600080fd5b8063af302c6714610c88578063b4c060da14610c9e578063b5b8f60c14610cbe578063b8d1452f14610cd3578063b8e808e714610cf357600080fd5b8063869ac956116101e857806396430ad5116101ac57806396430ad514610bd2578063976138c114610bf257806398bad7e614610c28578063a3fbd27314610c3d578063a8c25ea214610c53578063abb09a4614610c6857600080fd5b8063869ac95614610b325780638b4147e314610b525780638da5cb5b14610b72578063911fdb9a14610b905780639285154714610bb257600080fd5b80636c03cd491161022f5780636c03cd4914610aa35780636c38550514610ab8578063703a382c14610ad8578063715018a614610b085780638456cb5914610b1d57600080fd5b80635c975abb14610a025780635e1045ec14610a215780635fd4b08a14610a415780636655e0ca14610a6e578063679aefce14610a8e57600080fd5b8063283f261d116103925780633f4ba83a1161030f57806347cee97c116102d357806347cee97c1461094c5780634d8b27a41461096c5780634dce68471461098c5780634f335d0a146109a157806356120122146109c25780635b4cc869146109e257600080fd5b80633f4ba83a146108c25780633fc8cef3146108d757806342ffae0f146108f757806343b55f351461090c57806346df2ccb1461092c57600080fd5b8063304ab62511610356578063304ab6251461081d578063317152f314610832578063328a756114610862578063376eb069146108825780633c7d6ad1146108a257600080fd5b8063283f261d146107795780632d32f0b9146107a85780632da67ace146107c85780632dfae796146107dd5780632e1a7d4d146107fd57600080fd5b80631639d2f71161042b5780632039eeff116103ef5780632039eeff146106c957806320965255146106df578063220cd383146106f457806322d392cb1461072457806323574695146107445780632399c4531461075957600080fd5b80631639d2f7146106325780631919fed7146106525780631bd8a455146106725780631c50402f146106925780631ee585b2146106b457600080fd5b80630e01d8e2116104725780630e01d8e21461058e57806312d00e1c146105ae57806313c160df146105ce57806313dfadd3146105f057806314d0be5d1461061d57600080fd5b806303987f41146104ba57806304aea439146104dc5780630542caec146104fc5780630a16a638146105325780630af8a1211461056a57600080fd5b366104b557005b600080fd5b3480156104c657600080fd5b506104da6104d53660046145d2565b610ef9565b005b3480156104e857600080fd5b506104da6104f73660046145f6565b610f23565b34801561050857600080fd5b5060015461051d90600160b01b900460ff1681565b60405190151581526020015b60405180910390f35b34801561053e57600080fd5b5061055261054d3660046145f6565b610f30565b6040516001600160a01b039091168152602001610529565b34801561057657600080fd5b5061058060055481565b604051908152602001610529565b34801561059a57600080fd5b506105526105a936600461460f565b610f5a565b3480156105ba57600080fd5b506104da6105c93660046146cf565b610f92565b3480156105da57600080fd5b50336000908152601a6020526040902054610580565b3480156105fc57600080fd5b5061058061060b3660046145d2565b60176020526000908152604090205481565b34801561062957600080fd5b50600e54610580565b34801561063e57600080fd5b50600354610552906001600160a01b031681565b34801561065e57600080fd5b506104da61066d3660046145f6565b611577565b34801561067e57600080fd5b506104da61068d36600461476e565b6115e7565b34801561069e57600080fd5b5033600090815260136020526040902054610580565b3480156106c057600080fd5b506104da611668565b3480156106d557600080fd5b50610580600b5481565b3480156106eb57600080fd5b50610580611699565b34801561070057600080fd5b5061051d61070f3660046145d2565b60156020526000908152604090205460ff1681565b34801561073057600080fd5b50600154610552906001600160a01b031681565b34801561075057600080fd5b506104da6116c2565b34801561076557600080fd5b506104da6107743660046145d2565b6116eb565b34801561078557600080fd5b506107996107943660046145f6565b6118f9565b60405161052993929190614844565b3480156107b457600080fd5b506105526107c336600461460f565b6119c0565b3480156107d457600080fd5b506105806119dc565b3480156107e957600080fd5b506104da6107f83660046145f6565b611a61565b34801561080957600080fd5b506104da6108183660046145f6565b611a6e565b34801561082957600080fd5b50601154610580565b34801561083e57600080fd5b5061051d61084d3660046145d2565b60186020526000908152604090205460ff1681565b34801561086e57600080fd5b506104da61087d36600461476e565b611aeb565b34801561088e57600080fd5b506104da61089d3660046145f6565b611bb8565b3480156108ae57600080fd5b506105526108bd36600461460f565b611bc5565b3480156108ce57600080fd5b506104da611be1565b3480156108e357600080fd5b50600254610552906001600160a01b031681565b34801561090357600080fd5b50610580611bf3565b34801561091857600080fd5b506105806109273660046145d2565b611c60565b34801561093857600080fd5b506104da610947366004614875565b611d55565b34801561095857600080fd5b5061051d61096736600461460f565b611dcb565b34801561097857600080fd5b5061079961098736600461460f565b611e4f565b34801561099857600080fd5b506104da611e95565b3480156109ad57600080fd5b5060015461051d90600160a01b900460ff1681565b3480156109ce57600080fd5b506104da6109dd3660046145d2565b611ebe565b3480156109ee57600080fd5b506105806109fd3660046145f6565b612028565b348015610a0e57600080fd5b50600054600160a01b900460ff1661051d565b348015610a2d57600080fd5b506104da610a3c3660046146cf565b612049565b348015610a4d57600080fd5b50610a61610a5c3660046145d2565b6126e1565b6040516105299190614897565b348015610a7a57600080fd5b50610552610a893660046145f6565b6127f6565b348015610a9a57600080fd5b50610580612806565b348015610aaf57600080fd5b50600a54610580565b348015610ac457600080fd5b50610552610ad33660046145f6565b6128b0565b348015610ae457600080fd5b5061051d610af33660046145d2565b60146020526000908152604090205460ff1681565b348015610b1457600080fd5b506104da6128c0565b348015610b2957600080fd5b506104da6128d2565b348015610b3e57600080fd5b50610580610b4d3660046145f6565b6128e2565b348015610b5e57600080fd5b50610580610b6d3660046145f6565b6128f2565b348015610b7e57600080fd5b506000546001600160a01b0316610552565b348015610b9c57600080fd5b50336000908152601c6020526040902054610580565b348015610bbe57600080fd5b506104da610bcd3660046145f6565b612921565b348015610bde57600080fd5b506104da610bed366004614875565b61292e565b348015610bfe57600080fd5b50610552610c0d3660046145d2565b6019602052600090815260409020546001600160a01b031681565b348015610c3457600080fd5b506104da61294a565b348015610c4957600080fd5b5061058060085481565b348015610c5f57600080fd5b50600d54610580565b348015610c7457600080fd5b506104da610c833660046146cf565b612973565b348015610c9457600080fd5b5061058060095481565b348015610caa57600080fd5b506104da610cb93660046145f6565b612f41565b348015610cca57600080fd5b50600f54610580565b348015610cdf57600080fd5b506104da610cee3660046145d2565b612f4e565b348015610cff57600080fd5b5060015461051d90600160a81b900460ff1681565b348015610d2057600080fd5b50601254610580565b348015610d3557600080fd5b5061051d610d443660046145d2565b60166020526000908152604090205460ff1681565b348015610d6557600080fd5b506104da610d743660046146cf565b612f78565b348015610d8557600080fd5b506104da610d943660046145f6565b612fed565b348015610da557600080fd5b5061058060075481565b348015610dbb57600080fd5b506104da610dca3660046145f6565b61302a565b348015610ddb57600080fd5b50610580610dea3660046145f6565b6130a6565b348015610dfb57600080fd5b506104da610e0a3660046145d2565b6130b6565b348015610e1b57600080fd5b506104da610e2a3660046148aa565b61324d565b6104da610e3d3660046145f6565b6132e8565b348015610e4e57600080fd5b506104da610e5d366004614875565b613b4a565b348015610e6e57600080fd5b506104da610e7d3660046145d2565b613ba5565b348015610e8e57600080fd5b5061058060045481565b348015610ea457600080fd5b5061058060065481565b348015610eba57600080fd5b50601054610580565b348015610ecf57600080fd5b506104da610ede3660046146cf565b613c1b565b348015610eef57600080fd5b50610580600c5481565b610f01613cd0565b600180546001600160a01b0319166001600160a01b0392909216919091179055565b610f2b613cd0565b600555565b600f8181548110610f4057600080fd5b6000918252602090912001546001600160a01b0316905081565b601a6020528160005260406000208181548110610f7657600080fd5b6000918252602090912001546001600160a01b03169150829050565b3360009081526014602052604090205460ff16610fca5760405162461bcd60e51b8152600401610fc1906148da565b60405180910390fd5b600654336000908152601c602052604090205410610ffa5760405162461bcd60e51b8152600401610fc190614924565b60005b815181101561157357600154600160a81b900460ff16156110d15760035482516001600160a01b039091169063a483f5619084908490811061104157611041614967565b60200260200101516040518263ffffffff1660e01b815260040161107491906001600160a01b0391909116815260200190565b602060405180830381865afa158015611091573d6000803e3d6000fd5b505050506040513d601f19601f820116820180604052508101906110b5919061497d565b6110d15760405162461bcd60e51b8152600401610fc19061499f565b6110f38282815181106110e6576110e6614967565b6020026020010151613d2a565b6111655760405162461bcd60e51b815260206004820152603860248201527f54686973206164647265737320697320616c726561647920616e2061646d696e60448201527f6973747261746f7220666f72206c6576656c20746872656500000000000000006064820152608401610fc1565b6018600083838151811061117b5761117b614967565b6020908102919091018101516001600160a01b031682528101919091526040016000205460ff16156111bf5760405162461bcd60e51b8152600401610fc1906149cb565b60006001600160a01b0316601960008484815181106111e0576111e0614967565b6020908102919091018101516001600160a01b03908116835290820192909252604001600020541614801561124f575081818151811061122257611222614967565b60209081029190910181015133600090815260199092526040909120546001600160a01b03908116911614155b801561129557506018600083838151811061126c5761126c614967565b6020908102919091018101516001600160a01b031682528101919091526040016000205460ff16155b156113c85733601960008484815181106112b1576112b1614967565b60200260200101516001600160a01b03166001600160a01b0316815260200190815260200160002060006101000a8154816001600160a01b0302191690836001600160a01b03160217905550601a6000336001600160a01b03166001600160a01b0316815260200190815260200160002082828151811061133457611334614967565b60209081029190910181015182546001808201855560009485529284200180546001600160a01b0319166001600160a01b039092169190911790558351909160189185908590811061138857611388614967565b60200260200101516001600160a01b03166001600160a01b0316815260200190815260200160002060006101000a81548160ff0219169083151502179055505b6001601560008484815181106113e0576113e0614967565b60200260200101516001600160a01b03166001600160a01b0316815260200190815260200160002060006101000a81548160ff021916908315150217905550601082828151811061143357611433614967565b602090810291909101810151825460018101845560009384528284200180546001600160a01b0319166001600160a01b03909216919091179055338252601c905260409020825183908390811061148c5761148c614967565b60209081029190910181015182546001810184556000938452919092200180546001600160a01b0319166001600160a01b0390921691909117905581517fc483e4ca9c68442e18fb58ae60fa77a43d62f4dc04478cc492190c683347d8a09061150e9084908490811061150157611501614967565b6020026020010151611c60565b61153084848151811061152357611523614967565b60200260200101516126e1565b84848151811061154257611542614967565b602002602001015160405161155993929190614844565b60405180910390a18061156b81614a24565b915050610ffd565b5050565b61157f613cd0565b60018110156115e25760405162461bcd60e51b815260206004820152602960248201527f546865206d696e696d756d2073657420636f6e76657273696f6e20726174696f60448201526820697320302e30303160b81b6064820152608401610fc1565b600455565b6115ef613cd0565b60646115f9612806565b11156116175760405162461bcd60e51b8152600401610fc190614a3d565b60005b815181101561157357601182828151811061163757611637614967565b602090810291909101810151825460018101845560009384529190922001558061166081614a24565b91505061161a565b611670613cd0565b600d80548061168157611681614a80565b60019003818190600052602060002001600090559055565b60006103e86004546116ab9190614a96565b6116b3611bf3565b6116bd9190614ab8565b905090565b6116ca613cd0565b6001805460ff60a81b198116600160a81b9182900460ff1615909102179055565b3360009081526014602052604090205460ff16801561172257506001600160a01b03811660009081526015602052604090205460ff165b61177d5760405162461bcd60e51b815260206004820152602660248201527f796f7520617265206e6f7420616e206c6576656c2074776f2061646d696e69736044820152653a3930ba37b960d11b6064820152608401610fc1565b6000805b6010548110156117dc57826001600160a01b0316601082815481106117a8576117a8614967565b6000918252602090912001546001600160a01b0316036117ca578091506117dc565b806117d481614a24565b915050611781565b50601080546117ed90600190614acf565b815481106117fd576117fd614967565b600091825260209091200154601080546001600160a01b03909216918390811061182957611829614967565b9060005260206000200160006101000a8154816001600160a01b0302191690836001600160a01b03160217905550601080548061186857611868614a80565b60008281526020808220830160001990810180546001600160a01b03191690559092019092556001600160a01b03841682526015905260409020805460ff191690557f0cbb3112caefded199a3949f9990e2d4bd671f2845010ae73ddeb2aecd14aa2c6118d483611c60565b6118dd846126e1565b846040516118ed93929190614844565b60405180910390a15050565b6012818154811061190957600080fd5b6000918252602090912060039091020180546001820180549193509061192e90614ae2565b80601f016020809104026020016040519081016040528092919081815260200182805461195a90614ae2565b80156119a75780601f1061197c576101008083540402835291602001916119a7565b820191906000526020600020905b81548152906001019060200180831161198a57829003601f168201915b505050600290930154919250506001600160a01b031683565b601c6020528160005260406000208181548110610f7657600080fd5b600080601d60009054906101000a90046001600160a01b03166001600160a01b031663feaf968c6040518163ffffffff1660e01b815260040160a060405180830381865afa158015611a32573d6000803e3d6000fd5b505050506040513d601f19601f82011682018060405250810190611a569190614b3b565b509195945050505050565b611a69613cd0565b600755565b611a76613cd0565b60015460405163a9059cbb60e01b8152336004820152602481018390526001600160a01b039091169063a9059cbb906044016020604051808303816000875af1158015611ac7573d6000803e3d6000fd5b505050506040513d601f19601f82011682018060405250810190611573919061497d565b611af3613cd0565b6064611afd612806565b1115611b1b5760405162461bcd60e51b8152600401610fc190614a3d565b805160021480611b2d5750600a546002145b611b675760405162461bcd60e51b815260206004820152600b60248201526a34b7383aba1032b93937b960a91b6044820152606401610fc1565b60005b815181101561157357600a828281518110611b8757611b87614967565b6020908102919091018101518254600181018455600093845291909220015580611bb081614a24565b915050611b6a565b611bc0613cd0565b600655565b601b6020528160005260406000208181548110610f7657600080fd5b611be9613cd0565b611bf1613d8e565b565b6001546040516370a0823160e01b81523060048201526000916001600160a01b0316906370a0823190602401602060405180830381865afa158015611c3c573d6000803e3d6000fd5b505050506040513d601f19601f820116820180604052508101906116bd9190614b8b565b60035460405163a483f56160e01b81526001600160a01b038381166004830152600092169063a483f56190602401602060405180830381865afa158015611cab573d6000803e3d6000fd5b505050506040513d601f19601f82011682018060405250810190611ccf919061497d565b15611d4d57600354604051636386c1c760e01b81526001600160a01b03848116600483015290911690636386c1c790602401600060405180830381865afa158015611d1e573d6000803e3d6000fd5b505050506040513d6000823e601f3d908101601f19168201604052611d469190810190614c10565b5192915050565b506000919050565b611d5d613cd0565b6011548210611da75760405162461bcd60e51b8152602060048201526016602482015275151a19481c985d1948191bd95cdb89dd08195e1a5cdd60521b6044820152606401610fc1565b8060118381548110611dbb57611dbb614967565b6000918252602090912001555050565b6000611dd5613cd0565b60405163a9059cbb60e01b8152336004820152602481018390526001600160a01b0384169063a9059cbb906044016020604051808303816000875af1158015611e22573d6000803e3d6000fd5b505050506040513d601f19601f82011682018060405250810190611e46919061497d565b90505b92915050565b60136020528160005260406000208181548110611e6b57600080fd5b90600052602060002090600302016000915091505080600001549080600101805461192e90614ae2565b611e9d613cd0565b6001805460ff60b01b198116600160b01b9182900460ff1615909102179055565b611ec6613cd0565b60005b600e54811015611fcd57816001600160a01b0316600e8281548110611ef057611ef0614967565b6000918252602090912001546001600160a01b031603611fbb57600e8054611f1a90600190614acf565b81548110611f2a57611f2a614967565b600091825260209091200154600e80546001600160a01b039092169183908110611f5657611f56614967565b9060005260206000200160006101000a8154816001600160a01b0302191690836001600160a01b03160217905550600e805480611f9557611f95614a80565b600082815260209020810160001990810180546001600160a01b03191690550190555050565b80611fc581614a24565b915050611ec9565b5060405162461bcd60e51b815260206004820152602660248201527f546865206164647265737320796f752072656d6f76656420646f6573206e6f7460448201526508195e1a5cdd60d21b6064820152608401610fc1565b50565b600d818154811061203857600080fd5b600091825260209091200154905081565b3360009081526014602052604090205460ff168061207657503360009081526015602052604090205460ff165b6120be5760405162461bcd60e51b81526020600482015260196024820152783cb7ba903237b713ba103430bb32903832b936b4b9b9b4b7b760391b6044820152606401610fc1565b6120c733613de3565b33600090815260136020526040902054111561211e5760405162461bcd60e51b8152602060048201526016602482015275115e18d959591959081d1a19481cd95d081d1bdd185b60521b6044820152606401610fc1565b60005b815181101561157357600154600160b01b900460ff16156121f55760035482516001600160a01b039091169063a483f5619084908490811061216557612165614967565b60200260200101516040518263ffffffff1660e01b815260040161219891906001600160a01b0391909116815260200190565b602060405180830381865afa1580156121b5573d6000803e3d6000fd5b505050506040513d601f19601f820116820180604052508101906121d9919061497d565b6121f55760405162461bcd60e51b8152600401610fc19061499f565b61221882828151811061220a5761220a614967565b602002602001015133613e35565b801561225e57506018600083838151811061223557612235614967565b6020908102919091018101516001600160a01b031682528101919091526040016000205460ff16155b61227a5760405162461bcd60e51b8152600401610fc1906149cb565b60006001600160a01b03166019600084848151811061229b5761229b614967565b6020908102919091018101516001600160a01b03908116835290820192909252604001600020541614801561230a57508181815181106122dd576122dd614967565b60209081029190910181015133600090815260199092526040909120546001600160a01b03908116911614155b801561235057506018600083838151811061232757612327614967565b6020908102919091018101516001600160a01b031682528101919091526040016000205460ff16155b1561248357336019600084848151811061236c5761236c614967565b60200260200101516001600160a01b03166001600160a01b0316815260200190815260200160002060006101000a8154816001600160a01b0302191690836001600160a01b03160217905550601a6000336001600160a01b03166001600160a01b031681526020019081526020016000208282815181106123ef576123ef614967565b60209081029190910181015182546001808201855560009485529284200180546001600160a01b0319166001600160a01b039092169190911790558351909160189185908590811061244357612443614967565b60200260200101516001600160a01b03166001600160a01b0316815260200190815260200160002060006101000a81548160ff0219169083151502179055505b600060405180606001604052806124a585858151811061150157611501614967565b81526020016124bf85858151811061152357611523614967565b81526020018484815181106124d6576124d6614967565b6020908102919091018101516001600160a01b03169091523360009081526013825260408120805460018181018355918352918390208451600390930201918255918301519293508392909182019061252f9082614d16565b5060409190910151600290910180546001600160a01b0319166001600160a01b039092169190911790556012805460018101825560009190915281517fbb8a6a4669ba250d26cd7a459eca9d215f8307e33aebe50379bc5a3617ec34446003909202918201908155602083015183927fbb8a6a4669ba250d26cd7a459eca9d215f8307e33aebe50379bc5a3617ec344501906125cb9082614d16565b5060408201518160020160006101000a8154816001600160a01b0302191690836001600160a01b03160217905550505060016016600085858151811061261357612613614967565b60200260200101516001600160a01b03166001600160a01b0316815260200190815260200160002060006101000a81548160ff0219169083151502179055507fea80f1d34e95eee6184bf5595be0f970afbea2d7e34337dc6fba2cc19c65b9cf61268884848151811061150157611501614967565b61269d85858151811061152357611523614967565b8585815181106126af576126af614967565b60200260200101516040516126c693929190614844565b60405180910390a150806126d981614a24565b915050612121565b60035460405163a483f56160e01b81526001600160a01b038381166004830152606092169063a483f56190602401602060405180830381865afa15801561272c573d6000803e3d6000fd5b505050506040513d601f19601f82011682018060405250810190612750919061497d565b156127d157600354604051636386c1c760e01b81526001600160a01b03848116600483015290911690636386c1c790602401600060405180830381865afa15801561279f573d6000803e3d6000fd5b505050506040513d6000823e601f3d908101601f191682016040526127c79190810190614c10565b6040015192915050565b5050604080518082019091526009815268616e6f6e796d6f757360b81b602082015290565b600e8181548110610f4057600080fd5b60008080805b601154811015612853576011818154811061282957612829614967565b90600052602060002001548361283f9190614dd6565b92508061284b81614a24565b91505061280c565b5060005b600a5481101561289e57600a818154811061287457612874614967565b90600052602060002001548261288a9190614dd6565b91508061289681614a24565b915050612857565b506128a98183614dd6565b9250505090565b60108181548110610f4057600080fd5b6128c8613cd0565b611bf16000613ed0565b6128da613cd0565b611bf1613f20565b600a818154811061203857600080fd5b6000600454620186a06129036119dc565b61290d9085614ab8565b6129179190614a96565b611e499190614a96565b612929613cd0565b600855565b612936613cd0565b80600a8381548110611dbb57611dbb614967565b612952613cd0565b6001805460ff60a01b198116600160a01b9182900460ff1615909102179055565b61297b613cd0565b600554336000908152601b6020526040902054106129ab5760405162461bcd60e51b8152600401610fc190614924565b60005b815181101561157357600154600160a81b900460ff1615612a825760035482516001600160a01b039091169063a483f561908490849081106129f2576129f2614967565b60200260200101516040518263ffffffff1660e01b8152600401612a2591906001600160a01b0391909116815260200190565b602060405180830381865afa158015612a42573d6000803e3d6000fd5b505050506040513d601f19601f82011682018060405250810190612a66919061497d565b612a825760405162461bcd60e51b8152600401610fc19061499f565b612aa4828281518110612a9757612a97614967565b6020026020010151613f63565b612b0f5760405162461bcd60e51b815260206004820152603660248201527f54686973206164647265737320697320616c726561647920616e2061646d696e6044820152756973747261746f7220666f72206c6576656c2074776f60501b6064820152608401610fc1565b60186000838381518110612b2557612b25614967565b6020908102919091018101516001600160a01b031682528101919091526040016000205460ff1615612ba75760405162461bcd60e51b815260206004820152602560248201527f5468697320616464726573732068617320616c7265616479206265656e20696e6044820152641d9a5d195960da1b6064820152608401610fc1565b60006001600160a01b031660196000848481518110612bc857612bc8614967565b6020908102919091018101516001600160a01b039081168352908201929092526040016000205416148015612c375750818181518110612c0a57612c0a614967565b60209081029190910181015133600090815260199092526040909120546001600160a01b03908116911614155b8015612c7d575060186000838381518110612c5457612c54614967565b6020908102919091018101516001600160a01b031682528101919091526040016000205460ff16155b15612db0573360196000848481518110612c9957612c99614967565b60200260200101516001600160a01b03166001600160a01b0316815260200190815260200160002060006101000a8154816001600160a01b0302191690836001600160a01b03160217905550601a6000336001600160a01b03166001600160a01b03168152602001908152602001600020828281518110612d1c57612d1c614967565b60209081029190910181015182546001808201855560009485529284200180546001600160a01b0319166001600160a01b0390921691909117905583519091601891859085908110612d7057612d70614967565b60200260200101516001600160a01b03166001600160a01b0316815260200190815260200160002060006101000a81548160ff0219169083151502179055505b600160146000848481518110612dc857612dc8614967565b60200260200101516001600160a01b03166001600160a01b0316815260200190815260200160002060006101000a81548160ff021916908315150217905550600f828281518110612e1b57612e1b614967565b602090810291909101810151825460018101845560009384528284200180546001600160a01b0319166001600160a01b03909216919091179055338252601b9052604090208251839083908110612e7457612e74614967565b60209081029190910181015182546001810184556000938452919092200180546001600160a01b0319166001600160a01b0390921691909117905581517f9bd08799798adb11c5abd5773af5f9ffee372070d77d5a9c9b76bce04819fb1890612ee99084908490811061150157611501614967565b612efe84848151811061152357611523614967565b848481518110612f1057612f10614967565b6020026020010151604051612f2793929190614844565b60405180910390a180612f3981614a24565b9150506129ae565b612f49613cd0565b600955565b612f56613cd0565b600280546001600160a01b0319166001600160a01b0392909216919091179055565b612f80613cd0565b60005b815181101561157357600e828281518110612fa057612fa0614967565b60209081029190910181015182546001810184556000938452919092200180546001600160a01b0319166001600160a01b0390921691909117905580612fe581614a24565b915050612f83565b612ff5613cd0565b600d80546001810182556000919091527fd7b6990105719101dabeb77144f2a3385c8033acd3af97e9423a695e81ad1eb50155565b613032613cd0565b6011805461304290600190614acf565b8154811061305257613052614967565b90600052602060002001546011828154811061307057613070614967565b600091825260209091200155601180548061308d5761308d614a80565b6001900381819060005260206000200160009055905550565b6011818154811061203857600080fd5b6130be613cd0565b6001600160a01b03811660009081526014602052604090205460ff166130f65760405162461bcd60e51b8152600401610fc1906148da565b6000805b600f5481101561315557826001600160a01b0316600f828154811061312157613121614967565b6000918252602090912001546001600160a01b03160361314357809150613155565b8061314d81614a24565b9150506130fa565b50600f805461316690600190614acf565b8154811061317657613176614967565b600091825260209091200154600f80546001600160a01b0390921691839081106131a2576131a2614967565b9060005260206000200160006101000a8154816001600160a01b0302191690836001600160a01b03160217905550600f8054806131e1576131e1614a80565b60008281526020808220830160001990810180546001600160a01b03191690559092019092556001600160a01b03841682526014905260409020805460ff191690557f980416557521c68ac667e8fb0fdc2f42fc3ff4df03421a939f8bd930716d29f36118d483611c60565b613255613cd0565b600e5482106132a25760405162461bcd60e51b8152602060048201526019602482015278151a19481859191c995cdcc8191bd95cdb89dd08195e1a5cdd603a1b6044820152606401610fc1565b80600e83815481106132b6576132b6614967565b9060005260206000200160006101000a8154816001600160a01b0302191690836001600160a01b031602179055505050565b6132f0613fbe565b3360009081526016602052604090205460ff166133465760405162461bcd60e51b81526020600482015260146024820152732737ba1030903bb434ba32b634b9ba103ab9b2b960611b6044820152606401610fc1565b61334e612806565b60641461338a5760405162461bcd60e51b815260206004820152600a6024820152693930ba329032b93937b960b11b6044820152606401610fc1565b600154600160b01b900460ff16156134245760035460405163a483f56160e01b81523360048201526001600160a01b039091169063a483f56190602401602060405180830381865afa1580156133e4573d6000803e3d6000fd5b505050506040513d601f19601f82011682018060405250810190613408919061497d565b6134245760405162461bcd60e51b8152600401610fc19061499f565b6000600454620186a06134379190614ab8565b61343f6119dc565b6134499084614ab8565b6134539190614a96565b905060006305f5e1006134646119dc565b61346e9085614ab8565b6134789190614a96565b33600090815260196020526040808220546001600160a01b03908116808452919092205492935091166134a9611bf3565b8411156135075760405162461bcd60e51b815260206004820152602660248201527f74686520636f6e7472616374204644542062616c616e6365206973206e6f74206044820152650cadcdeeaced60d31b6064820152608401610fc1565b60095433600090815260176020526040902054613525908790614dd6565b11156135605760405162461bcd60e51b815260206004820152600a6024820152691bdd995c881b1a5b5a5d60b21b6044820152606401610fc1565b6135698561400b565b6135a55760405162461bcd60e51b815260206004820152600d60248201526c1a5b9d985b1a59081a5b9c1d5d609a1b6044820152606401610fc1565b600154600160a01b900460ff1615613b4357346000036136d15760005b600e5481101561365d57600254600e805461364b926001600160a01b0316913391859081106135f3576135f3614967565b9060005260206000200160009054906101000a90046001600160a01b031660646011868154811061362657613626614967565b90600052602060002001548b61363c9190614ab8565b6136469190614a96565b614061565b8061365581614a24565b9150506135c2565b50600254600a805461369f926001600160a01b0316913391869160649160009061368957613689614967565b90600052602060002001548a61363c9190614ab8565b600254600a80546136cc926001600160a01b03169133918591606491600190811061368957613689614967565b613a1f565b84341461372a5760405162461bcd60e51b815260206004820152602160248201527f70726f766964652074686520636f727265637420616d6f756e74206f662045546044820152600960fb1b6064820152608401610fc1565b600260009054906101000a90046001600160a01b03166001600160a01b031663d0e30db0866040518263ffffffff1660e01b81526004016000604051808303818588803b15801561377a57600080fd5b505af115801561378e573d6000803e3d6000fd5b505050505060005b600e5481101561389f57600254600e80546001600160a01b039092169163a9059cbb9190849081106137ca576137ca614967565b9060005260206000200160009054906101000a90046001600160a01b03166064601185815481106137fd576137fd614967565b90600052602060002001548a6138139190614ab8565b61381d9190614a96565b6040516001600160e01b031960e085901b1681526001600160a01b03909216600483015260248201526044016020604051808303816000875af1158015613868573d6000803e3d6000fd5b505050506040513d601f19601f8201168201806040525081019061388c919061497d565b508061389781614a24565b915050613796565b50600254600a80546001600160a01b039092169163a9059cbb918591606491906000906138ce576138ce614967565b9060005260206000200154896138e49190614ab8565b6138ee9190614a96565b6040516001600160e01b031960e085901b1681526001600160a01b03909216600483015260248201526044016020604051808303816000875af1158015613939573d6000803e3d6000fd5b505050506040513d601f19601f8201168201806040525081019061395d919061497d565b50600254600a80546001600160a01b039092169163a9059cbb91849160649190600190811061398e5761398e614967565b9060005260206000200154896139a49190614ab8565b6139ae9190614a96565b6040516001600160e01b031960e085901b1681526001600160a01b03909216600483015260248201526044016020604051808303816000875af11580156139f9573d6000803e3d6000fd5b505050506040513d601f19601f82011682018060405250810190613a1d919061497d565b505b60015460405163a9059cbb60e01b8152336004820152602481018690526001600160a01b039091169063a9059cbb906044016020604051808303816000875af1158015613a70573d6000803e3d6000fd5b505050506040513d601f19601f82011682018060405250810190613a94919061497d565b503360009081526017602052604081208054879290613ab4908490614dd6565b9250508190555084600c6000828254613acd9190614dd6565b9091555050600b547f9fdef2379f5e06016c879941be5e57aa52f70221555830db21e6fde5546a2c7290613b0033611c60565b613b09336126e1565b600454604051613b259493929133918c918b918d904290614de9565b60405180910390a1600b8054906000613b3d83614a24565b91905055505b5050505050565b613b52613cd0565b600d548210613b915760405162461bcd60e51b815260206004820152600b60248201526a34b7383aba1032b93937b960a91b6044820152606401610fc1565b80600d8381548110611dbb57611dbb614967565b613bad613cd0565b6001600160a01b038116613c125760405162461bcd60e51b815260206004820152602660248201527f4f776e61626c653a206e6577206f776e657220697320746865207a65726f206160448201526564647265737360d01b6064820152608401610fc1565b61202581613ed0565b3360009081526014602052604090205460ff1680613c4857503360009081526015602052604090205460ff165b613c905760405162461bcd60e51b81526020600482015260196024820152783cb7ba903237b713ba103430bb32903832b936b4b9b9b4b7b760391b6044820152606401610fc1565b60005b815181101561157357613cbe828281518110613cb157613cb1614967565b6020026020010151614191565b80613cc881614a24565b915050613c93565b6000546001600160a01b03163314611bf15760405162461bcd60e51b815260206004820181905260248201527f4f776e61626c653a2063616c6c6572206973206e6f7420746865206f776e65726044820152606401610fc1565b6000805b601054811015613d855760108181548110613d4b57613d4b614967565b6000918252602090912001546001600160a01b0390811690841603613d735750600092915050565b80613d7d81614a24565b915050613d2e565b50600192915050565b613d966143da565b6000805460ff60a01b191690557f5db9ee0a495bf2e6ff9c91a7834c1ba4fdd244a5e8aa4e537bd38aeae4b073aa335b6040516001600160a01b03909116815260200160405180910390a1565b6001600160a01b03811660009081526014602052604081205460ff1615613e0c57505060075490565b6001600160a01b03821660009081526015602052604090205460ff1615611d4d57505060085490565b6000805b6001600160a01b038316600090815260136020526040902054811015613ec6576001600160a01b0383166000908152601360205260409020805482908110613e8357613e83614967565b60009182526020909120600260039092020101546001600160a01b0390811690851603613eb4576000915050611e49565b80613ebe81614a24565b915050613e39565b5060019392505050565b600080546001600160a01b038381166001600160a01b0319831681178455604051919092169283917f8be0079c531659141344cd1fd0a4f28419497f9722a3daafe3b4186f6b6457e09190a35050565b613f28613fbe565b6000805460ff60a01b1916600160a01b1790557f62e78cea01bee320cd4e420270b5ea74000d11b0c9f74754ebdbfc544b05a258613dc63390565b6000805b600f54811015613d8557600f8181548110613f8457613f84614967565b6000918252602090912001546001600160a01b0390811690841603613fac5750600092915050565b80613fb681614a24565b915050613f67565b600054600160a01b900460ff1615611bf15760405162461bcd60e51b815260206004820152601060248201526f14185d5cd8589b194e881c185d5cd95960821b6044820152606401610fc1565b6000805b600d548110156140585782600d828154811061402d5761402d614967565b9060005260206000200154036140465750600192915050565b8061405081614a24565b91505061400f565b50600092915050565b604080516001600160a01b0385811660248301528481166044830152606480830185905283518084039091018152608490920183526020820180516001600160e01b03166323b872dd60e01b17905291516000928392908816916140c59190614e47565b6000604051808303816000865af19150503d8060008114614102576040519150601f19603f3d011682016040523d82523d6000602084013e614107565b606091505b5091509150818015614131575080511580614131575080806020019051810190614131919061497d565b6141895760405162461bcd60e51b8152602060048201526024808201527f5472616e7366657248656c7065723a205452414e534645525f46524f4d5f46416044820152631253115160e21b6064820152608401610fc1565b505050505050565b60005b336000908152601360205260409020548110156143955733600090815260136020526040902080546001600160a01b0384169190839081106141d8576141d8614967565b60009182526020909120600260039092020101546001600160a01b03160361438357336000908152601360205260409020805461421790600190614acf565b8154811061422757614227614967565b906000526020600020906003020160136000336001600160a01b03166001600160a01b03168152602001908152602001600020828154811061426b5761426b614967565b60009182526020909120825460039092020190815560018082019061429290840182614e63565b50600291820154910180546001600160a01b0319166001600160a01b039092169190911790553360009081526013602052604090208054806142d6576142d6614a80565b600082815260208120600360001990930192830201818155906142fc600183018261456f565b5060020180546001600160a01b031916905590556001600160a01b0382166000908152601660205260409020805460ff191690556143398261442a565b6001600160a01b0382166000908152601860205260409020805460ff191690557f64a3ec859cb013014c2d0dee54610916fe4efae49ba9b617defaecd77e5333e86118d483611c60565b8061438d81614a24565b915050614194565b5060405162461bcd60e51b8152602060048201526019602482015278151a19481859191c995cdcc8191bd95cdb89dd08195e1a5cdd603a1b6044820152606401610fc1565b600054600160a01b900460ff16611bf15760405162461bcd60e51b815260206004820152601460248201527314185d5cd8589b194e881b9bdd081c185d5cd95960621b6044820152606401610fc1565b6000805b60125481101561449157826001600160a01b03166012828154811061445557614455614967565b60009182526020909120600260039092020101546001600160a01b03160361447f57809150614491565b8061448981614a24565b91505061442e565b50601280546144a290600190614acf565b815481106144b2576144b2614967565b9060005260206000209060030201601282815481106144d3576144d3614967565b6000918252602090912082546003909202019081556001808201906144fa90840182614e63565b50600291820154910180546001600160a01b0319166001600160a01b03909216919091179055601280548061453157614531614a80565b60008281526020812060036000199093019283020181815590614557600183018261456f565b5060020180546001600160a01b031916905590555050565b50805461457b90614ae2565b6000825580601f1061458b575050565b601f01602090049060005260206000209081019061202591905b808211156145b957600081556001016145a5565b5090565b6001600160a01b038116811461202557600080fd5b6000602082840312156145e457600080fd5b81356145ef816145bd565b9392505050565b60006020828403121561460857600080fd5b5035919050565b6000806040838503121561462257600080fd5b823561462d816145bd565b946020939093013593505050565b634e487b7160e01b600052604160045260246000fd5b60405160a0810167ffffffffffffffff811182821017156146745761467461463b565b60405290565b604051601f8201601f1916810167ffffffffffffffff811182821017156146a3576146a361463b565b604052919050565b600067ffffffffffffffff8211156146c5576146c561463b565b5060051b60200190565b600060208083850312156146e257600080fd5b823567ffffffffffffffff8111156146f957600080fd5b8301601f8101851361470a57600080fd5b803561471d614718826146ab565b61467a565b81815260059190911b8201830190838101908783111561473c57600080fd5b928401925b82841015614763578335614754816145bd565b82529284019290840190614741565b979650505050505050565b6000602080838503121561478157600080fd5b823567ffffffffffffffff81111561479857600080fd5b8301601f810185136147a957600080fd5b80356147b7614718826146ab565b81815260059190911b820183019083810190878311156147d657600080fd5b928401925b82841015614763578335825292840192908401906147db565b60005b8381101561480f5781810151838201526020016147f7565b50506000910152565b600081518084526148308160208601602086016147f4565b601f01601f19169290920160200192915050565b83815260606020820152600061485d6060830185614818565b905060018060a01b0383166040830152949350505050565b6000806040838503121561488857600080fd5b50508035926020909101359150565b602081526000611e466020830184614818565b600080604083850312156148bd57600080fd5b8235915060208301356148cf816145bd565b809150509250929050565b6020808252602a908201527f41646472657373206973206e6f7420616e20206c6576656c2074776f2061646d60408201526934b734b9ba3930ba37b960b11b606082015260800190565b60208082526023908201527f596f752063616e6e6f742065786365656420746865206d6178696d756d206c696040820152621b5a5d60ea1b606082015260800190565b634e487b7160e01b600052603260045260246000fd5b60006020828403121561498f57600080fd5b815180151581146145ef57600080fd5b6020808252601290820152711859191c995cdcc81a185cc81b9bc81c1a5960721b604082015260600190565b60208082526023908201527f5468697320616464726573732068617320616c7265616479206265656e20616460408201526219195960ea1b606082015260800190565b634e487b7160e01b600052601160045260246000fd5b600060018201614a3657614a36614a0e565b5060010190565b60208082526023908201527f5468652072617465206d7573742062652077697468696e206f6e652068756e646040820152621c995960ea1b606082015260800190565b634e487b7160e01b600052603160045260246000fd5b600082614ab357634e487b7160e01b600052601260045260246000fd5b500490565b8082028115828204841417611e4957611e49614a0e565b81810381811115611e4957611e49614a0e565b600181811c90821680614af657607f821691505b602082108103614b1657634e487b7160e01b600052602260045260246000fd5b50919050565b805169ffffffffffffffffffff81168114614b3657600080fd5b919050565b600080600080600060a08688031215614b5357600080fd5b614b5c86614b1c565b9450602086015193506040860151925060608601519150614b7f60808701614b1c565b90509295509295909350565b600060208284031215614b9d57600080fd5b5051919050565b600082601f830112614bb557600080fd5b815167ffffffffffffffff811115614bcf57614bcf61463b565b614be2601f8201601f191660200161467a565b818152846020838601011115614bf757600080fd5b614c088260208301602087016147f4565b949350505050565b600060208284031215614c2257600080fd5b815167ffffffffffffffff80821115614c3a57600080fd5b9083019060a08286031215614c4e57600080fd5b614c56614651565b825181526020830151614c68816145bd565b6020820152604083015182811115614c7f57600080fd5b614c8b87828601614ba4565b604083015250606083015182811115614ca357600080fd5b614caf87828601614ba4565b6060830152506080830151608082015280935050505092915050565b601f821115614d1157600081815260208120601f850160051c81016020861015614cf25750805b601f850160051c820191505b8181101561418957828155600101614cfe565b505050565b815167ffffffffffffffff811115614d3057614d3061463b565b614d4481614d3e8454614ae2565b84614ccb565b602080601f831160018114614d795760008415614d615750858301515b600019600386901b1c1916600185901b178555614189565b600085815260208120601f198616915b82811015614da857888601518255948401946001909101908401614d89565b5085821015614dc65787850151600019600388901b60f8161c191681555b5050505050600190811b01905550565b80820180821115611e4957611e49614a0e565b60006101208b83528a6020840152806040840152614e098184018b614818565b6001600160a01b039990991660608401525050608081019590955260a085019390935260c084019190915260e0830152610100909101529392505050565b60008251614e598184602087016147f4565b9190910192915050565b818103614e6e575050565b614e788254614ae2565b67ffffffffffffffff811115614e9057614e9061463b565b614e9e81614d3e8454614ae2565b6000601f821160018114614ed25760008315614eba5750848201545b600019600385901b1c1916600184901b178455613b43565b600085815260209020601f19841690600086815260209020845b83811015614f0c5782860154825560019586019590910190602001614eec565b5085831015614dc65793015460001960f8600387901b161c19169092555050600190811b0190555056fea26469706673582212203d26d94987ad1b2b7a9b439a06906513fa104822fb8e1402d2bf28213136204f64736f6c63430008110033",
			"opcodes": "PUSH2 0x180 PUSH1 0x40 MSTORE PUSH8 0x3782DACE9D90000 PUSH1 0x80 SWAP1 DUP2 MSTORE PUSH8 0x6F05B59D3B20000 PUSH1 0xA0 MSTORE PUSH8 0xA688906BD8B0000 PUSH1 0xC0 MSTORE PUSH8 0xDE0B6B3A7640000 PUSH1 0xE0 MSTORE PUSH8 0x1158E460913D0000 PUSH2 0x100 MSTORE PUSH8 0x14D1120D7B160000 PUSH2 0x120 MSTORE PUSH8 0x18493FBA64EF0000 PUSH2 0x140 MSTORE PUSH8 0x1BC16D674EC80000 PUSH2 0x160 MSTORE PUSH3 0x7B SWAP1 PUSH1 0xD SWAP1 PUSH1 0x8 PUSH3 0x1A8 JUMP JUMPDEST POP CALLVALUE DUP1 ISZERO PUSH3 0x89 JUMPI PUSH1 0x0 DUP1 REVERT JUMPDEST POP PUSH1 0x40 MLOAD PUSH3 0x5203 CODESIZE SUB DUP1 PUSH3 0x5203 DUP4 CODECOPY DUP2 ADD PUSH1 0x40 DUP2 SWAP1 MSTORE PUSH3 0xAC SWAP2 PUSH3 0x233 JUMP JUMPDEST PUSH3 0xB7 CALLER PUSH3 0x158 JUMP JUMPDEST PUSH1 0x0 DUP1 SLOAD PUSH1 0xFF PUSH1 0xA0 SHL NOT AND SWAP1 SSTORE PUSH1 0x1D DUP1 SLOAD PUSH20 0x639FE6AB55C921F74E7FAC1EE960C0B6293BA612 PUSH1 0x1 PUSH1 0x1 PUSH1 0xA0 SHL SUB NOT SWAP2 DUP3 AND OR SWAP1 SWAP2 SSTORE PUSH1 0x1 DUP1 SLOAD PUSH1 0x2 DUP1 SLOAD DUP5 AND PUSH1 0x1 PUSH1 0x1 PUSH1 0xA0 SHL SUB SWAP7 DUP8 AND OR SWAP1 SSTORE PUSH1 0xA PUSH1 0x4 DUP2 SWAP1 SSTORE PUSH1 0x5 DUP2 SWAP1 SSTORE PUSH1 0x6 SSTORE PUSH1 0x32 PUSH1 0x7 DUP2 SWAP1 SSTORE PUSH1 0x8 SSTORE PUSH1 0x1 PUSH1 0xA0 SHL SWAP6 DUP6 AND PUSH1 0x1 PUSH1 0x1 PUSH1 0xA8 SHL SUB NOT SWAP1 SWAP2 AND OR SWAP5 SWAP1 SWAP5 OR SWAP1 SWAP4 SSTORE PUSH8 0x1BC16D674EC80000 PUSH1 0x9 SSTORE PUSH1 0x3 DUP1 SLOAD SWAP1 SWAP4 AND SWAP2 AND OR SWAP1 SSTORE PUSH3 0x287 JUMP JUMPDEST PUSH1 0x0 DUP1 SLOAD PUSH1 0x1 PUSH1 0x1 PUSH1 0xA0 SHL SUB DUP4 DUP2 AND PUSH1 0x1 PUSH1 0x1 PUSH1 0xA0 SHL SUB NOT DUP4 AND DUP2 OR DUP5 SSTORE PUSH1 0x40 MLOAD SWAP2 SWAP1 SWAP3 AND SWAP3 DUP4 SWAP2 PUSH32 0x8BE0079C531659141344CD1FD0A4F28419497F9722A3DAAFE3B4186F6B6457E0 SWAP2 SWAP1 LOG3 POP POP JUMP JUMPDEST DUP3 DUP1 SLOAD DUP3 DUP3 SSTORE SWAP1 PUSH1 0x0 MSTORE PUSH1 0x20 PUSH1 0x0 KECCAK256 SWAP1 DUP2 ADD SWAP3 DUP3 ISZERO PUSH3 0x1F1 JUMPI SWAP2 PUSH1 0x20 MUL DUP3 ADD JUMPDEST DUP3 DUP2 GT ISZERO PUSH3 0x1F1 JUMPI DUP3 MLOAD DUP3 SWAP1 PUSH1 0x1 PUSH1 0x1 PUSH1 0x40 SHL SUB AND SWAP1 SSTORE SWAP2 PUSH1 0x20 ADD SWAP2 SWAP1 PUSH1 0x1 ADD SWAP1 PUSH3 0x1C9 JUMP JUMPDEST POP PUSH3 0x1FF SWAP3 SWAP2 POP PUSH3 0x203 JUMP JUMPDEST POP SWAP1 JUMP JUMPDEST JUMPDEST DUP1 DUP3 GT ISZERO PUSH3 0x1FF JUMPI PUSH1 0x0 DUP2 SSTORE PUSH1 0x1 ADD PUSH3 0x204 JUMP JUMPDEST PUSH1 0x1 PUSH1 0x1 PUSH1 0xA0 SHL SUB DUP2 AND DUP2 EQ PUSH3 0x230 JUMPI PUSH1 0x0 DUP1 REVERT JUMPDEST POP JUMP JUMPDEST PUSH1 0x0 DUP1 PUSH1 0x0 PUSH1 0x60 DUP5 DUP7 SUB SLT ISZERO PUSH3 0x249 JUMPI PUSH1 0x0 DUP1 REVERT JUMPDEST DUP4 MLOAD PUSH3 0x256 DUP2 PUSH3 0x21A JUMP JUMPDEST PUSH1 0x20 DUP6 ADD MLOAD SWAP1 SWAP4 POP PUSH3 0x269 DUP2 PUSH3 0x21A JUMP JUMPDEST PUSH1 0x40 DUP6 ADD MLOAD SWAP1 SWAP3 POP PUSH3 0x27C DUP2 PUSH3 0x21A JUMP JUMPDEST DUP1 SWAP2 POP POP SWAP3 POP SWAP3 POP SWAP3 JUMP JUMPDEST PUSH2 0x4F6C DUP1 PUSH3 0x297 PUSH1 0x0 CODECOPY PUSH1 0x0 RETURN INVALID PUSH1 0x80 PUSH1 0x40 MSTORE PUSH1 0x4 CALLDATASIZE LT PUSH2 0x4AE JUMPI PUSH1 0x0 CALLDATALOAD PUSH1 0xE0 SHR DUP1 PUSH4 0x5C975ABB GT PUSH2 0x26B JUMPI DUP1 PUSH4 0xAF302C67 GT PUSH2 0x14F JUMPI DUP1 PUSH4 0xE7EE6AD6 GT PUSH2 0xC1 JUMPI DUP1 PUSH4 0xF2FDE38B GT PUSH2 0x85 JUMPI DUP1 PUSH4 0xF2FDE38B EQ PUSH2 0xE62 JUMPI DUP1 PUSH4 0xF51F96DD EQ PUSH2 0xE82 JUMPI DUP1 PUSH4 0xF6659D77 EQ PUSH2 0xE98 JUMPI DUP1 PUSH4 0xF7EA1D66 EQ PUSH2 0xEAE JUMPI DUP1 PUSH4 0xF96B4CFE EQ PUSH2 0xEC3 JUMPI DUP1 PUSH4 0xFAE25E0E EQ PUSH2 0xEE3 JUMPI PUSH1 0x0 DUP1 REVERT JUMPDEST DUP1 PUSH4 0xE7EE6AD6 EQ PUSH2 0xDCF JUMPI DUP1 PUSH4 0xE8D98A9A EQ PUSH2 0xDEF JUMPI DUP1 PUSH4 0xED68E3CA EQ PUSH2 0xE0F JUMPI DUP1 PUSH4 0xF14FAF6F EQ PUSH2 0xE2F JUMPI DUP1 PUSH4 0xF182F2FC EQ PUSH2 0xE42 JUMPI PUSH1 0x0 DUP1 REVERT JUMPDEST DUP1 PUSH4 0xBB72CE42 GT PUSH2 0x113 JUMPI DUP1 PUSH4 0xBB72CE42 EQ PUSH2 0xD14 JUMPI DUP1 PUSH4 0xBC15B070 EQ PUSH2 0xD29 JUMPI DUP1 PUSH4 0xBFC8FAEE EQ PUSH2 0xD59 JUMPI DUP1 PUSH4 0xC47D0F58 EQ PUSH2 0xD79 JUMPI DUP1 PUSH4 0xD0B5618E EQ PUSH2 0xD99 JUMPI DUP1 PUSH4 0xE0507ADA EQ PUSH2 0xDAF JUMPI PUSH1 0x0 DUP1 REVERT JUMPDEST DUP1 PUSH4 0xAF302C67 EQ PUSH2 0xC88 JUMPI DUP1 PUSH4 0xB4C060DA EQ PUSH2 0xC9E JUMPI DUP1 PUSH4 0xB5B8F60C EQ PUSH2 0xCBE JUMPI DUP1 PUSH4 0xB8D1452F EQ PUSH2 0xCD3 JUMPI DUP1 PUSH4 0xB8E808E7 EQ PUSH2 0xCF3 JUMPI PUSH1 0x0 DUP1 REVERT JUMPDEST DUP1 PUSH4 0x869AC956 GT PUSH2 0x1E8 JUMPI DUP1 PUSH4 0x96430AD5 GT PUSH2 0x1AC JUMPI DUP1 PUSH4 0x96430AD5 EQ PUSH2 0xBD2 JUMPI DUP1 PUSH4 0x976138C1 EQ PUSH2 0xBF2 JUMPI DUP1 PUSH4 0x98BAD7E6 EQ PUSH2 0xC28 JUMPI DUP1 PUSH4 0xA3FBD273 EQ PUSH2 0xC3D JUMPI DUP1 PUSH4 0xA8C25EA2 EQ PUSH2 0xC53 JUMPI DUP1 PUSH4 0xABB09A46 EQ PUSH2 0xC68 JUMPI PUSH1 0x0 DUP1 REVERT JUMPDEST DUP1 PUSH4 0x869AC956 EQ PUSH2 0xB32 JUMPI DUP1 PUSH4 0x8B4147E3 EQ PUSH2 0xB52 JUMPI DUP1 PUSH4 0x8DA5CB5B EQ PUSH2 0xB72 JUMPI DUP1 PUSH4 0x911FDB9A EQ PUSH2 0xB90 JUMPI DUP1 PUSH4 0x92851547 EQ PUSH2 0xBB2 JUMPI PUSH1 0x0 DUP1 REVERT JUMPDEST DUP1 PUSH4 0x6C03CD49 GT PUSH2 0x22F JUMPI DUP1 PUSH4 0x6C03CD49 EQ PUSH2 0xAA3 JUMPI DUP1 PUSH4 0x6C385505 EQ PUSH2 0xAB8 JUMPI DUP1 PUSH4 0x703A382C EQ PUSH2 0xAD8 JUMPI DUP1 PUSH4 0x715018A6 EQ PUSH2 0xB08 JUMPI DUP1 PUSH4 0x8456CB59 EQ PUSH2 0xB1D JUMPI PUSH1 0x0 DUP1 REVERT JUMPDEST DUP1 PUSH4 0x5C975ABB EQ PUSH2 0xA02 JUMPI DUP1 PUSH4 0x5E1045EC EQ PUSH2 0xA21 JUMPI DUP1 PUSH4 0x5FD4B08A EQ PUSH2 0xA41 JUMPI DUP1 PUSH4 0x6655E0CA EQ PUSH2 0xA6E JUMPI DUP1 PUSH4 0x679AEFCE EQ PUSH2 0xA8E JUMPI PUSH1 0x0 DUP1 REVERT JUMPDEST DUP1 PUSH4 0x283F261D GT PUSH2 0x392 JUMPI DUP1 PUSH4 0x3F4BA83A GT PUSH2 0x30F JUMPI DUP1 PUSH4 0x47CEE97C GT PUSH2 0x2D3 JUMPI DUP1 PUSH4 0x47CEE97C EQ PUSH2 0x94C JUMPI DUP1 PUSH4 0x4D8B27A4 EQ PUSH2 0x96C JUMPI DUP1 PUSH4 0x4DCE6847 EQ PUSH2 0x98C JUMPI DUP1 PUSH4 0x4F335D0A EQ PUSH2 0x9A1 JUMPI DUP1 PUSH4 0x56120122 EQ PUSH2 0x9C2 JUMPI DUP1 PUSH4 0x5B4CC869 EQ PUSH2 0x9E2 JUMPI PUSH1 0x0 DUP1 REVERT JUMPDEST DUP1 PUSH4 0x3F4BA83A EQ PUSH2 0x8C2 JUMPI DUP1 PUSH4 0x3FC8CEF3 EQ PUSH2 0x8D7 JUMPI DUP1 PUSH4 0x42FFAE0F EQ PUSH2 0x8F7 JUMPI DUP1 PUSH4 0x43B55F35 EQ PUSH2 0x90C JUMPI DUP1 PUSH4 0x46DF2CCB EQ PUSH2 0x92C JUMPI PUSH1 0x0 DUP1 REVERT JUMPDEST DUP1 PUSH4 0x304AB625 GT PUSH2 0x356 JUMPI DUP1 PUSH4 0x304AB625 EQ PUSH2 0x81D JUMPI DUP1 PUSH4 0x317152F3 EQ PUSH2 0x832 JUMPI DUP1 PUSH4 0x328A7561 EQ PUSH2 0x862 JUMPI DUP1 PUSH4 0x376EB069 EQ PUSH2 0x882 JUMPI DUP1 PUSH4 0x3C7D6AD1 EQ PUSH2 0x8A2 JUMPI PUSH1 0x0 DUP1 REVERT JUMPDEST DUP1 PUSH4 0x283F261D EQ PUSH2 0x779 JUMPI DUP1 PUSH4 0x2D32F0B9 EQ PUSH2 0x7A8 JUMPI DUP1 PUSH4 0x2DA67ACE EQ PUSH2 0x7C8 JUMPI DUP1 PUSH4 0x2DFAE796 EQ PUSH2 0x7DD JUMPI DUP1 PUSH4 0x2E1A7D4D EQ PUSH2 0x7FD JUMPI PUSH1 0x0 DUP1 REVERT JUMPDEST DUP1 PUSH4 0x1639D2F7 GT PUSH2 0x42B JUMPI DUP1 PUSH4 0x2039EEFF GT PUSH2 0x3EF JUMPI DUP1 PUSH4 0x2039EEFF EQ PUSH2 0x6C9 JUMPI DUP1 PUSH4 0x20965255 EQ PUSH2 0x6DF JUMPI DUP1 PUSH4 0x220CD383 EQ PUSH2 0x6F4 JUMPI DUP1 PUSH4 0x22D392CB EQ PUSH2 0x724 JUMPI DUP1 PUSH4 0x23574695 EQ PUSH2 0x744 JUMPI DUP1 PUSH4 0x2399C453 EQ PUSH2 0x759 JUMPI PUSH1 0x0 DUP1 REVERT JUMPDEST DUP1 PUSH4 0x1639D2F7 EQ PUSH2 0x632 JUMPI DUP1 PUSH4 0x1919FED7 EQ PUSH2 0x652 JUMPI DUP1 PUSH4 0x1BD8A455 EQ PUSH2 0x672 JUMPI DUP1 PUSH4 0x1C50402F EQ PUSH2 0x692 JUMPI DUP1 PUSH4 0x1EE585B2 EQ PUSH2 0x6B4 JUMPI PUSH1 0x0 DUP1 REVERT JUMPDEST DUP1 PUSH4 0xE01D8E2 GT PUSH2 0x472 JUMPI DUP1 PUSH4 0xE01D8E2 EQ PUSH2 0x58E JUMPI DUP1 PUSH4 0x12D00E1C EQ PUSH2 0x5AE JUMPI DUP1 PUSH4 0x13C160DF EQ PUSH2 0x5CE JUMPI DUP1 PUSH4 0x13DFADD3 EQ PUSH2 0x5F0 JUMPI DUP1 PUSH4 0x14D0BE5D EQ PUSH2 0x61D JUMPI PUSH1 0x0 DUP1 REVERT JUMPDEST DUP1 PUSH4 0x3987F41 EQ PUSH2 0x4BA JUMPI DUP1 PUSH4 0x4AEA439 EQ PUSH2 0x4DC JUMPI DUP1 PUSH4 0x542CAEC EQ PUSH2 0x4FC JUMPI DUP1 PUSH4 0xA16A638 EQ PUSH2 0x532 JUMPI DUP1 PUSH4 0xAF8A121 EQ PUSH2 0x56A JUMPI PUSH1 0x0 DUP1 REVERT JUMPDEST CALLDATASIZE PUSH2 0x4B5 JUMPI STOP JUMPDEST PUSH1 0x0 DUP1 REVERT JUMPDEST CALLVALUE DUP1 ISZERO PUSH2 0x4C6 JUMPI PUSH1 0x0 DUP1 REVERT JUMPDEST POP PUSH2 0x4DA PUSH2 0x4D5 CALLDATASIZE PUSH1 0x4 PUSH2 0x45D2 JUMP JUMPDEST PUSH2 0xEF9 JUMP JUMPDEST STOP JUMPDEST CALLVALUE DUP1 ISZERO PUSH2 0x4E8 JUMPI PUSH1 0x0 DUP1 REVERT JUMPDEST POP PUSH2 0x4DA PUSH2 0x4F7 CALLDATASIZE PUSH1 0x4 PUSH2 0x45F6 JUMP JUMPDEST PUSH2 0xF23 JUMP JUMPDEST CALLVALUE DUP1 ISZERO PUSH2 0x508 JUMPI PUSH1 0x0 DUP1 REVERT JUMPDEST POP PUSH1 0x1 SLOAD PUSH2 0x51D SWAP1 PUSH1 0x1 PUSH1 0xB0 SHL SWAP1 DIV PUSH1 0xFF AND DUP2 JUMP JUMPDEST PUSH1 0x40 MLOAD SWAP1 ISZERO ISZERO DUP2 MSTORE PUSH1 0x20 ADD JUMPDEST PUSH1 0x40 MLOAD DUP1 SWAP2 SUB SWAP1 RETURN JUMPDEST CALLVALUE DUP1 ISZERO PUSH2 0x53E JUMPI PUSH1 0x0 DUP1 REVERT JUMPDEST POP PUSH2 0x552 PUSH2 0x54D CALLDATASIZE PUSH1 0x4 PUSH2 0x45F6 JUMP JUMPDEST PUSH2 0xF30 JUMP JUMPDEST PUSH1 0x40 MLOAD PUSH1 0x1 PUSH1 0x1 PUSH1 0xA0 SHL SUB SWAP1 SWAP2 AND DUP2 MSTORE PUSH1 0x20 ADD PUSH2 0x529 JUMP JUMPDEST CALLVALUE DUP1 ISZERO PUSH2 0x576 JUMPI PUSH1 0x0 DUP1 REVERT JUMPDEST POP PUSH2 0x580 PUSH1 0x5 SLOAD DUP2 JUMP JUMPDEST PUSH1 0x40 MLOAD SWAP1 DUP2 MSTORE PUSH1 0x20 ADD PUSH2 0x529 JUMP JUMPDEST CALLVALUE DUP1 ISZERO PUSH2 0x59A JUMPI PUSH1 0x0 DUP1 REVERT JUMPDEST POP PUSH2 0x552 PUSH2 0x5A9 CALLDATASIZE PUSH1 0x4 PUSH2 0x460F JUMP JUMPDEST PUSH2 0xF5A JUMP JUMPDEST CALLVALUE DUP1 ISZERO PUSH2 0x5BA JUMPI PUSH1 0x0 DUP1 REVERT JUMPDEST POP PUSH2 0x4DA PUSH2 0x5C9 CALLDATASIZE PUSH1 0x4 PUSH2 0x46CF JUMP JUMPDEST PUSH2 0xF92 JUMP JUMPDEST CALLVALUE DUP1 ISZERO PUSH2 0x5DA JUMPI PUSH1 0x0 DUP1 REVERT JUMPDEST POP CALLER PUSH1 0x0 SWAP1 DUP2 MSTORE PUSH1 0x1A PUSH1 0x20 MSTORE PUSH1 0x40 SWAP1 KECCAK256 SLOAD PUSH2 0x580 JUMP JUMPDEST CALLVALUE DUP1 ISZERO PUSH2 0x5FC JUMPI PUSH1 0x0 DUP1 REVERT JUMPDEST POP PUSH2 0x580 PUSH2 0x60B CALLDATASIZE PUSH1 0x4 PUSH2 0x45D2 JUMP JUMPDEST PUSH1 0x17 PUSH1 0x20 MSTORE PUSH1 0x0 SWAP1 DUP2 MSTORE PUSH1 0x40 SWAP1 KECCAK256 SLOAD DUP2 JUMP JUMPDEST CALLVALUE DUP1 ISZERO PUSH2 0x629 JUMPI PUSH1 0x0 DUP1 REVERT JUMPDEST POP PUSH1 0xE SLOAD PUSH2 0x580 JUMP JUMPDEST CALLVALUE DUP1 ISZERO PUSH2 0x63E JUMPI PUSH1 0x0 DUP1 REVERT JUMPDEST POP PUSH1 0x3 SLOAD PUSH2 0x552 SWAP1 PUSH1 0x1 PUSH1 0x1 PUSH1 0xA0 SHL SUB AND DUP2 JUMP JUMPDEST CALLVALUE DUP1 ISZERO PUSH2 0x65E JUMPI PUSH1 0x0 DUP1 REVERT JUMPDEST POP PUSH2 0x4DA PUSH2 0x66D CALLDATASIZE PUSH1 0x4 PUSH2 0x45F6 JUMP JUMPDEST PUSH2 0x1577 JUMP JUMPDEST CALLVALUE DUP1 ISZERO PUSH2 0x67E JUMPI PUSH1 0x0 DUP1 REVERT JUMPDEST POP PUSH2 0x4DA PUSH2 0x68D CALLDATASIZE PUSH1 0x4 PUSH2 0x476E JUMP JUMPDEST PUSH2 0x15E7 JUMP JUMPDEST CALLVALUE DUP1 ISZERO PUSH2 0x69E JUMPI PUSH1 0x0 DUP1 REVERT JUMPDEST POP CALLER PUSH1 0x0 SWAP1 DUP2 MSTORE PUSH1 0x13 PUSH1 0x20 MSTORE PUSH1 0x40 SWAP1 KECCAK256 SLOAD PUSH2 0x580 JUMP JUMPDEST CALLVALUE DUP1 ISZERO PUSH2 0x6C0 JUMPI PUSH1 0x0 DUP1 REVERT JUMPDEST POP PUSH2 0x4DA PUSH2 0x1668 JUMP JUMPDEST CALLVALUE DUP1 ISZERO PUSH2 0x6D5 JUMPI PUSH1 0x0 DUP1 REVERT JUMPDEST POP PUSH2 0x580 PUSH1 0xB SLOAD DUP2 JUMP JUMPDEST CALLVALUE DUP1 ISZERO PUSH2 0x6EB JUMPI PUSH1 0x0 DUP1 REVERT JUMPDEST POP PUSH2 0x580 PUSH2 0x1699 JUMP JUMPDEST CALLVALUE DUP1 ISZERO PUSH2 0x700 JUMPI PUSH1 0x0 DUP1 REVERT JUMPDEST POP PUSH2 0x51D PUSH2 0x70F CALLDATASIZE PUSH1 0x4 PUSH2 0x45D2 JUMP JUMPDEST PUSH1 0x15 PUSH1 0x20 MSTORE PUSH1 0x0 SWAP1 DUP2 MSTORE PUSH1 0x40 SWAP1 KECCAK256 SLOAD PUSH1 0xFF AND DUP2 JUMP JUMPDEST CALLVALUE DUP1 ISZERO PUSH2 0x730 JUMPI PUSH1 0x0 DUP1 REVERT JUMPDEST POP PUSH1 0x1 SLOAD PUSH2 0x552 SWAP1 PUSH1 0x1 PUSH1 0x1 PUSH1 0xA0 SHL SUB AND DUP2 JUMP JUMPDEST CALLVALUE DUP1 ISZERO PUSH2 0x750 JUMPI PUSH1 0x0 DUP1 REVERT JUMPDEST POP PUSH2 0x4DA PUSH2 0x16C2 JUMP JUMPDEST CALLVALUE DUP1 ISZERO PUSH2 0x765 JUMPI PUSH1 0x0 DUP1 REVERT JUMPDEST POP PUSH2 0x4DA PUSH2 0x774 CALLDATASIZE PUSH1 0x4 PUSH2 0x45D2 JUMP JUMPDEST PUSH2 0x16EB JUMP JUMPDEST CALLVALUE DUP1 ISZERO PUSH2 0x785 JUMPI PUSH1 0x0 DUP1 REVERT JUMPDEST POP PUSH2 0x799 PUSH2 0x794 CALLDATASIZE PUSH1 0x4 PUSH2 0x45F6 JUMP JUMPDEST PUSH2 0x18F9 JUMP JUMPDEST PUSH1 0x40 MLOAD PUSH2 0x529 SWAP4 SWAP3 SWAP2 SWAP1 PUSH2 0x4844 JUMP JUMPDEST CALLVALUE DUP1 ISZERO PUSH2 0x7B4 JUMPI PUSH1 0x0 DUP1 REVERT JUMPDEST POP PUSH2 0x552 PUSH2 0x7C3 CALLDATASIZE PUSH1 0x4 PUSH2 0x460F JUMP JUMPDEST PUSH2 0x19C0 JUMP JUMPDEST CALLVALUE DUP1 ISZERO PUSH2 0x7D4 JUMPI PUSH1 0x0 DUP1 REVERT JUMPDEST POP PUSH2 0x580 PUSH2 0x19DC JUMP JUMPDEST CALLVALUE DUP1 ISZERO PUSH2 0x7E9 JUMPI PUSH1 0x0 DUP1 REVERT JUMPDEST POP PUSH2 0x4DA PUSH2 0x7F8 CALLDATASIZE PUSH1 0x4 PUSH2 0x45F6 JUMP JUMPDEST PUSH2 0x1A61 JUMP JUMPDEST CALLVALUE DUP1 ISZERO PUSH2 0x809 JUMPI PUSH1 0x0 DUP1 REVERT JUMPDEST POP PUSH2 0x4DA PUSH2 0x818 CALLDATASIZE PUSH1 0x4 PUSH2 0x45F6 JUMP JUMPDEST PUSH2 0x1A6E JUMP JUMPDEST CALLVALUE DUP1 ISZERO PUSH2 0x829 JUMPI PUSH1 0x0 DUP1 REVERT JUMPDEST POP PUSH1 0x11 SLOAD PUSH2 0x580 JUMP JUMPDEST CALLVALUE DUP1 ISZERO PUSH2 0x83E JUMPI PUSH1 0x0 DUP1 REVERT JUMPDEST POP PUSH2 0x51D PUSH2 0x84D CALLDATASIZE PUSH1 0x4 PUSH2 0x45D2 JUMP JUMPDEST PUSH1 0x18 PUSH1 0x20 MSTORE PUSH1 0x0 SWAP1 DUP2 MSTORE PUSH1 0x40 SWAP1 KECCAK256 SLOAD PUSH1 0xFF AND DUP2 JUMP JUMPDEST CALLVALUE DUP1 ISZERO PUSH2 0x86E JUMPI PUSH1 0x0 DUP1 REVERT JUMPDEST POP PUSH2 0x4DA PUSH2 0x87D CALLDATASIZE PUSH1 0x4 PUSH2 0x476E JUMP JUMPDEST PUSH2 0x1AEB JUMP JUMPDEST CALLVALUE DUP1 ISZERO PUSH2 0x88E JUMPI PUSH1 0x0 DUP1 REVERT JUMPDEST POP PUSH2 0x4DA PUSH2 0x89D CALLDATASIZE PUSH1 0x4 PUSH2 0x45F6 JUMP JUMPDEST PUSH2 0x1BB8 JUMP JUMPDEST CALLVALUE DUP1 ISZERO PUSH2 0x8AE JUMPI PUSH1 0x0 DUP1 REVERT JUMPDEST POP PUSH2 0x552 PUSH2 0x8BD CALLDATASIZE PUSH1 0x4 PUSH2 0x460F JUMP JUMPDEST PUSH2 0x1BC5 JUMP JUMPDEST CALLVALUE DUP1 ISZERO PUSH2 0x8CE JUMPI PUSH1 0x0 DUP1 REVERT JUMPDEST POP PUSH2 0x4DA PUSH2 0x1BE1 JUMP JUMPDEST CALLVALUE DUP1 ISZERO PUSH2 0x8E3 JUMPI PUSH1 0x0 DUP1 REVERT JUMPDEST POP PUSH1 0x2 SLOAD PUSH2 0x552 SWAP1 PUSH1 0x1 PUSH1 0x1 PUSH1 0xA0 SHL SUB AND DUP2 JUMP JUMPDEST CALLVALUE DUP1 ISZERO PUSH2 0x903 JUMPI PUSH1 0x0 DUP1 REVERT JUMPDEST POP PUSH2 0x580 PUSH2 0x1BF3 JUMP JUMPDEST CALLVALUE DUP1 ISZERO PUSH2 0x918 JUMPI PUSH1 0x0 DUP1 REVERT JUMPDEST POP PUSH2 0x580 PUSH2 0x927 CALLDATASIZE PUSH1 0x4 PUSH2 0x45D2 JUMP JUMPDEST PUSH2 0x1C60 JUMP JUMPDEST CALLVALUE DUP1 ISZERO PUSH2 0x938 JUMPI PUSH1 0x0 DUP1 REVERT JUMPDEST POP PUSH2 0x4DA PUSH2 0x947 CALLDATASIZE PUSH1 0x4 PUSH2 0x4875 JUMP JUMPDEST PUSH2 0x1D55 JUMP JUMPDEST CALLVALUE DUP1 ISZERO PUSH2 0x958 JUMPI PUSH1 0x0 DUP1 REVERT JUMPDEST POP PUSH2 0x51D PUSH2 0x967 CALLDATASIZE PUSH1 0x4 PUSH2 0x460F JUMP JUMPDEST PUSH2 0x1DCB JUMP JUMPDEST CALLVALUE DUP1 ISZERO PUSH2 0x978 JUMPI PUSH1 0x0 DUP1 REVERT JUMPDEST POP PUSH2 0x799 PUSH2 0x987 CALLDATASIZE PUSH1 0x4 PUSH2 0x460F JUMP JUMPDEST PUSH2 0x1E4F JUMP JUMPDEST CALLVALUE DUP1 ISZERO PUSH2 0x998 JUMPI PUSH1 0x0 DUP1 REVERT JUMPDEST POP PUSH2 0x4DA PUSH2 0x1E95 JUMP JUMPDEST CALLVALUE DUP1 ISZERO PUSH2 0x9AD JUMPI PUSH1 0x0 DUP1 REVERT JUMPDEST POP PUSH1 0x1 SLOAD PUSH2 0x51D SWAP1 PUSH1 0x1 PUSH1 0xA0 SHL SWAP1 DIV PUSH1 0xFF AND DUP2 JUMP JUMPDEST CALLVALUE DUP1 ISZERO PUSH2 0x9CE JUMPI PUSH1 0x0 DUP1 REVERT JUMPDEST POP PUSH2 0x4DA PUSH2 0x9DD CALLDATASIZE PUSH1 0x4 PUSH2 0x45D2 JUMP JUMPDEST PUSH2 0x1EBE JUMP JUMPDEST CALLVALUE DUP1 ISZERO PUSH2 0x9EE JUMPI PUSH1 0x0 DUP1 REVERT JUMPDEST POP PUSH2 0x580 PUSH2 0x9FD CALLDATASIZE PUSH1 0x4 PUSH2 0x45F6 JUMP JUMPDEST PUSH2 0x2028 JUMP JUMPDEST CALLVALUE DUP1 ISZERO PUSH2 0xA0E JUMPI PUSH1 0x0 DUP1 REVERT JUMPDEST POP PUSH1 0x0 SLOAD PUSH1 0x1 PUSH1 0xA0 SHL SWAP1 DIV PUSH1 0xFF AND PUSH2 0x51D JUMP JUMPDEST CALLVALUE DUP1 ISZERO PUSH2 0xA2D JUMPI PUSH1 0x0 DUP1 REVERT JUMPDEST POP PUSH2 0x4DA PUSH2 0xA3C CALLDATASIZE PUSH1 0x4 PUSH2 0x46CF JUMP JUMPDEST PUSH2 0x2049 JUMP JUMPDEST CALLVALUE DUP1 ISZERO PUSH2 0xA4D JUMPI PUSH1 0x0 DUP1 REVERT JUMPDEST POP PUSH2 0xA61 PUSH2 0xA5C CALLDATASIZE PUSH1 0x4 PUSH2 0x45D2 JUMP JUMPDEST PUSH2 0x26E1 JUMP JUMPDEST PUSH1 0x40 MLOAD PUSH2 0x529 SWAP2 SWAP1 PUSH2 0x4897 JUMP JUMPDEST CALLVALUE DUP1 ISZERO PUSH2 0xA7A JUMPI PUSH1 0x0 DUP1 REVERT JUMPDEST POP PUSH2 0x552 PUSH2 0xA89 CALLDATASIZE PUSH1 0x4 PUSH2 0x45F6 JUMP JUMPDEST PUSH2 0x27F6 JUMP JUMPDEST CALLVALUE DUP1 ISZERO PUSH2 0xA9A JUMPI PUSH1 0x0 DUP1 REVERT JUMPDEST POP PUSH2 0x580 PUSH2 0x2806 JUMP JUMPDEST CALLVALUE DUP1 ISZERO PUSH2 0xAAF JUMPI PUSH1 0x0 DUP1 REVERT JUMPDEST POP PUSH1 0xA SLOAD PUSH2 0x580 JUMP JUMPDEST CALLVALUE DUP1 ISZERO PUSH2 0xAC4 JUMPI PUSH1 0x0 DUP1 REVERT JUMPDEST POP PUSH2 0x552 PUSH2 0xAD3 CALLDATASIZE PUSH1 0x4 PUSH2 0x45F6 JUMP JUMPDEST PUSH2 0x28B0 JUMP JUMPDEST CALLVALUE DUP1 ISZERO PUSH2 0xAE4 JUMPI PUSH1 0x0 DUP1 REVERT JUMPDEST POP PUSH2 0x51D PUSH2 0xAF3 CALLDATASIZE PUSH1 0x4 PUSH2 0x45D2 JUMP JUMPDEST PUSH1 0x14 PUSH1 0x20 MSTORE PUSH1 0x0 SWAP1 DUP2 MSTORE PUSH1 0x40 SWAP1 KECCAK256 SLOAD PUSH1 0xFF AND DUP2 JUMP JUMPDEST CALLVALUE DUP1 ISZERO PUSH2 0xB14 JUMPI PUSH1 0x0 DUP1 REVERT JUMPDEST POP PUSH2 0x4DA PUSH2 0x28C0 JUMP JUMPDEST CALLVALUE DUP1 ISZERO PUSH2 0xB29 JUMPI PUSH1 0x0 DUP1 REVERT JUMPDEST POP PUSH2 0x4DA PUSH2 0x28D2 JUMP JUMPDEST CALLVALUE DUP1 ISZERO PUSH2 0xB3E JUMPI PUSH1 0x0 DUP1 REVERT JUMPDEST POP PUSH2 0x580 PUSH2 0xB4D CALLDATASIZE PUSH1 0x4 PUSH2 0x45F6 JUMP JUMPDEST PUSH2 0x28E2 JUMP JUMPDEST CALLVALUE DUP1 ISZERO PUSH2 0xB5E JUMPI PUSH1 0x0 DUP1 REVERT JUMPDEST POP PUSH2 0x580 PUSH2 0xB6D CALLDATASIZE PUSH1 0x4 PUSH2 0x45F6 JUMP JUMPDEST PUSH2 0x28F2 JUMP JUMPDEST CALLVALUE DUP1 ISZERO PUSH2 0xB7E JUMPI PUSH1 0x0 DUP1 REVERT JUMPDEST POP PUSH1 0x0 SLOAD PUSH1 0x1 PUSH1 0x1 PUSH1 0xA0 SHL SUB AND PUSH2 0x552 JUMP JUMPDEST CALLVALUE DUP1 ISZERO PUSH2 0xB9C JUMPI PUSH1 0x0 DUP1 REVERT JUMPDEST POP CALLER PUSH1 0x0 SWAP1 DUP2 MSTORE PUSH1 0x1C PUSH1 0x20 MSTORE PUSH1 0x40 SWAP1 KECCAK256 SLOAD PUSH2 0x580 JUMP JUMPDEST CALLVALUE DUP1 ISZERO PUSH2 0xBBE JUMPI PUSH1 0x0 DUP1 REVERT JUMPDEST POP PUSH2 0x4DA PUSH2 0xBCD CALLDATASIZE PUSH1 0x4 PUSH2 0x45F6 JUMP JUMPDEST PUSH2 0x2921 JUMP JUMPDEST CALLVALUE DUP1 ISZERO PUSH2 0xBDE JUMPI PUSH1 0x0 DUP1 REVERT JUMPDEST POP PUSH2 0x4DA PUSH2 0xBED CALLDATASIZE PUSH1 0x4 PUSH2 0x4875 JUMP JUMPDEST PUSH2 0x292E JUMP JUMPDEST CALLVALUE DUP1 ISZERO PUSH2 0xBFE JUMPI PUSH1 0x0 DUP1 REVERT JUMPDEST POP PUSH2 0x552 PUSH2 0xC0D CALLDATASIZE PUSH1 0x4 PUSH2 0x45D2 JUMP JUMPDEST PUSH1 0x19 PUSH1 0x20 MSTORE PUSH1 0x0 SWAP1 DUP2 MSTORE PUSH1 0x40 SWAP1 KECCAK256 SLOAD PUSH1 0x1 PUSH1 0x1 PUSH1 0xA0 SHL SUB AND DUP2 JUMP JUMPDEST CALLVALUE DUP1 ISZERO PUSH2 0xC34 JUMPI PUSH1 0x0 DUP1 REVERT JUMPDEST POP PUSH2 0x4DA PUSH2 0x294A JUMP JUMPDEST CALLVALUE DUP1 ISZERO PUSH2 0xC49 JUMPI PUSH1 0x0 DUP1 REVERT JUMPDEST POP PUSH2 0x580 PUSH1 0x8 SLOAD DUP2 JUMP JUMPDEST CALLVALUE DUP1 ISZERO PUSH2 0xC5F JUMPI PUSH1 0x0 DUP1 REVERT JUMPDEST POP PUSH1 0xD SLOAD PUSH2 0x580 JUMP JUMPDEST CALLVALUE DUP1 ISZERO PUSH2 0xC74 JUMPI PUSH1 0x0 DUP1 REVERT JUMPDEST POP PUSH2 0x4DA PUSH2 0xC83 CALLDATASIZE PUSH1 0x4 PUSH2 0x46CF JUMP JUMPDEST PUSH2 0x2973 JUMP JUMPDEST CALLVALUE DUP1 ISZERO PUSH2 0xC94 JUMPI PUSH1 0x0 DUP1 REVERT JUMPDEST POP PUSH2 0x580 PUSH1 0x9 SLOAD DUP2 JUMP JUMPDEST CALLVALUE DUP1 ISZERO PUSH2 0xCAA JUMPI PUSH1 0x0 DUP1 REVERT JUMPDEST POP PUSH2 0x4DA PUSH2 0xCB9 CALLDATASIZE PUSH1 0x4 PUSH2 0x45F6 JUMP JUMPDEST PUSH2 0x2F41 JUMP JUMPDEST CALLVALUE DUP1 ISZERO PUSH2 0xCCA JUMPI PUSH1 0x0 DUP1 REVERT JUMPDEST POP PUSH1 0xF SLOAD PUSH2 0x580 JUMP JUMPDEST CALLVALUE DUP1 ISZERO PUSH2 0xCDF JUMPI PUSH1 0x0 DUP1 REVERT JUMPDEST POP PUSH2 0x4DA PUSH2 0xCEE CALLDATASIZE PUSH1 0x4 PUSH2 0x45D2 JUMP JUMPDEST PUSH2 0x2F4E JUMP JUMPDEST CALLVALUE DUP1 ISZERO PUSH2 0xCFF JUMPI PUSH1 0x0 DUP1 REVERT JUMPDEST POP PUSH1 0x1 SLOAD PUSH2 0x51D SWAP1 PUSH1 0x1 PUSH1 0xA8 SHL SWAP1 DIV PUSH1 0xFF AND DUP2 JUMP JUMPDEST CALLVALUE DUP1 ISZERO PUSH2 0xD20 JUMPI PUSH1 0x0 DUP1 REVERT JUMPDEST POP PUSH1 0x12 SLOAD PUSH2 0x580 JUMP JUMPDEST CALLVALUE DUP1 ISZERO PUSH2 0xD35 JUMPI PUSH1 0x0 DUP1 REVERT JUMPDEST POP PUSH2 0x51D PUSH2 0xD44 CALLDATASIZE PUSH1 0x4 PUSH2 0x45D2 JUMP JUMPDEST PUSH1 0x16 PUSH1 0x20 MSTORE PUSH1 0x0 SWAP1 DUP2 MSTORE PUSH1 0x40 SWAP1 KECCAK256 SLOAD PUSH1 0xFF AND DUP2 JUMP JUMPDEST CALLVALUE DUP1 ISZERO PUSH2 0xD65 JUMPI PUSH1 0x0 DUP1 REVERT JUMPDEST POP PUSH2 0x4DA PUSH2 0xD74 CALLDATASIZE PUSH1 0x4 PUSH2 0x46CF JUMP JUMPDEST PUSH2 0x2F78 JUMP JUMPDEST CALLVALUE DUP1 ISZERO PUSH2 0xD85 JUMPI PUSH1 0x0 DUP1 REVERT JUMPDEST POP PUSH2 0x4DA PUSH2 0xD94 CALLDATASIZE PUSH1 0x4 PUSH2 0x45F6 JUMP JUMPDEST PUSH2 0x2FED JUMP JUMPDEST CALLVALUE DUP1 ISZERO PUSH2 0xDA5 JUMPI PUSH1 0x0 DUP1 REVERT JUMPDEST POP PUSH2 0x580 PUSH1 0x7 SLOAD DUP2 JUMP JUMPDEST CALLVALUE DUP1 ISZERO PUSH2 0xDBB JUMPI PUSH1 0x0 DUP1 REVERT JUMPDEST POP PUSH2 0x4DA PUSH2 0xDCA CALLDATASIZE PUSH1 0x4 PUSH2 0x45F6 JUMP JUMPDEST PUSH2 0x302A JUMP JUMPDEST CALLVALUE DUP1 ISZERO PUSH2 0xDDB JUMPI PUSH1 0x0 DUP1 REVERT JUMPDEST POP PUSH2 0x580 PUSH2 0xDEA CALLDATASIZE PUSH1 0x4 PUSH2 0x45F6 JUMP JUMPDEST PUSH2 0x30A6 JUMP JUMPDEST CALLVALUE DUP1 ISZERO PUSH2 0xDFB JUMPI PUSH1 0x0 DUP1 REVERT JUMPDEST POP PUSH2 0x4DA PUSH2 0xE0A CALLDATASIZE PUSH1 0x4 PUSH2 0x45D2 JUMP JUMPDEST PUSH2 0x30B6 JUMP JUMPDEST CALLVALUE DUP1 ISZERO PUSH2 0xE1B JUMPI PUSH1 0x0 DUP1 REVERT JUMPDEST POP PUSH2 0x4DA PUSH2 0xE2A CALLDATASIZE PUSH1 0x4 PUSH2 0x48AA JUMP JUMPDEST PUSH2 0x324D JUMP JUMPDEST PUSH2 0x4DA PUSH2 0xE3D CALLDATASIZE PUSH1 0x4 PUSH2 0x45F6 JUMP JUMPDEST PUSH2 0x32E8 JUMP JUMPDEST CALLVALUE DUP1 ISZERO PUSH2 0xE4E JUMPI PUSH1 0x0 DUP1 REVERT JUMPDEST POP PUSH2 0x4DA PUSH2 0xE5D CALLDATASIZE PUSH1 0x4 PUSH2 0x4875 JUMP JUMPDEST PUSH2 0x3B4A JUMP JUMPDEST CALLVALUE DUP1 ISZERO PUSH2 0xE6E JUMPI PUSH1 0x0 DUP1 REVERT JUMPDEST POP PUSH2 0x4DA PUSH2 0xE7D CALLDATASIZE PUSH1 0x4 PUSH2 0x45D2 JUMP JUMPDEST PUSH2 0x3BA5 JUMP JUMPDEST CALLVALUE DUP1 ISZERO PUSH2 0xE8E JUMPI PUSH1 0x0 DUP1 REVERT JUMPDEST POP PUSH2 0x580 PUSH1 0x4 SLOAD DUP2 JUMP JUMPDEST CALLVALUE DUP1 ISZERO PUSH2 0xEA4 JUMPI PUSH1 0x0 DUP1 REVERT JUMPDEST POP PUSH2 0x580 PUSH1 0x6 SLOAD DUP2 JUMP JUMPDEST CALLVALUE DUP1 ISZERO PUSH2 0xEBA JUMPI PUSH1 0x0 DUP1 REVERT JUMPDEST POP PUSH1 0x10 SLOAD PUSH2 0x580 JUMP JUMPDEST CALLVALUE DUP1 ISZERO PUSH2 0xECF JUMPI PUSH1 0x0 DUP1 REVERT JUMPDEST POP PUSH2 0x4DA PUSH2 0xEDE CALLDATASIZE PUSH1 0x4 PUSH2 0x46CF JUMP JUMPDEST PUSH2 0x3C1B JUMP JUMPDEST CALLVALUE DUP1 ISZERO PUSH2 0xEEF JUMPI PUSH1 0x0 DUP1 REVERT JUMPDEST POP PUSH2 0x580 PUSH1 0xC SLOAD DUP2 JUMP JUMPDEST PUSH2 0xF01 PUSH2 0x3CD0 JUMP JUMPDEST PUSH1 0x1 DUP1 SLOAD PUSH1 0x1 PUSH1 0x1 PUSH1 0xA0 SHL SUB NOT AND PUSH1 0x1 PUSH1 0x1 PUSH1 0xA0 SHL SUB SWAP3 SWAP1 SWAP3 AND SWAP2 SWAP1 SWAP2 OR SWAP1 SSTORE JUMP JUMPDEST PUSH2 0xF2B PUSH2 0x3CD0 JUMP JUMPDEST PUSH1 0x5 SSTORE JUMP JUMPDEST PUSH1 0xF DUP2 DUP2 SLOAD DUP2 LT PUSH2 0xF40 JUMPI PUSH1 0x0 DUP1 REVERT JUMPDEST PUSH1 0x0 SWAP2 DUP3 MSTORE PUSH1 0x20 SWAP1 SWAP2 KECCAK256 ADD SLOAD PUSH1 0x1 PUSH1 0x1 PUSH1 0xA0 SHL SUB AND SWAP1 POP DUP2 JUMP JUMPDEST PUSH1 0x1A PUSH1 0x20 MSTORE DUP2 PUSH1 0x0 MSTORE PUSH1 0x40 PUSH1 0x0 KECCAK256 DUP2 DUP2 SLOAD DUP2 LT PUSH2 0xF76 JUMPI PUSH1 0x0 DUP1 REVERT JUMPDEST PUSH1 0x0 SWAP2 DUP3 MSTORE PUSH1 0x20 SWAP1 SWAP2 KECCAK256 ADD SLOAD PUSH1 0x1 PUSH1 0x1 PUSH1 0xA0 SHL SUB AND SWAP2 POP DUP3 SWAP1 POP JUMP JUMPDEST CALLER PUSH1 0x0 SWAP1 DUP2 MSTORE PUSH1 0x14 PUSH1 0x20 MSTORE PUSH1 0x40 SWAP1 KECCAK256 SLOAD PUSH1 0xFF AND PUSH2 0xFCA JUMPI PUSH1 0x40 MLOAD PUSH3 0x461BCD PUSH1 0xE5 SHL DUP2 MSTORE PUSH1 0x4 ADD PUSH2 0xFC1 SWAP1 PUSH2 0x48DA JUMP JUMPDEST PUSH1 0x40 MLOAD DUP1 SWAP2 SUB SWAP1 REVERT JUMPDEST PUSH1 0x6 SLOAD CALLER PUSH1 0x0 SWAP1 DUP2 MSTORE PUSH1 0x1C PUSH1 0x20 MSTORE PUSH1 0x40 SWAP1 KECCAK256 SLOAD LT PUSH2 0xFFA JUMPI PUSH1 0x40 MLOAD PUSH3 0x461BCD PUSH1 0xE5 SHL DUP2 MSTORE PUSH1 0x4 ADD PUSH2 0xFC1 SWAP1 PUSH2 0x4924 JUMP JUMPDEST PUSH1 0x0 JUMPDEST DUP2 MLOAD DUP2 LT ISZERO PUSH2 0x1573 JUMPI PUSH1 0x1 SLOAD PUSH1 0x1 PUSH1 0xA8 SHL SWAP1 DIV PUSH1 0xFF AND ISZERO PUSH2 0x10D1 JUMPI PUSH1 0x3 SLOAD DUP3 MLOAD PUSH1 0x1 PUSH1 0x1 PUSH1 0xA0 SHL SUB SWAP1 SWAP2 AND SWAP1 PUSH4 0xA483F561 SWAP1 DUP5 SWAP1 DUP5 SWAP1 DUP2 LT PUSH2 0x1041 JUMPI PUSH2 0x1041 PUSH2 0x4967 JUMP JUMPDEST PUSH1 0x20 MUL PUSH1 0x20 ADD ADD MLOAD PUSH1 0x40 MLOAD DUP3 PUSH4 0xFFFFFFFF AND PUSH1 0xE0 SHL DUP2 MSTORE PUSH1 0x4 ADD PUSH2 0x1074 SWAP2 SWAP1 PUSH1 0x1 PUSH1 0x1 PUSH1 0xA0 SHL SUB SWAP2 SWAP1 SWAP2 AND DUP2 MSTORE PUSH1 0x20 ADD SWAP1 JUMP JUMPDEST PUSH1 0x20 PUSH1 0x40 MLOAD DUP1 DUP4 SUB DUP2 DUP7 GAS STATICCALL ISZERO DUP1 ISZERO PUSH2 0x1091 JUMPI RETURNDATASIZE PUSH1 0x0 DUP1 RETURNDATACOPY RETURNDATASIZE PUSH1 0x0 REVERT JUMPDEST POP POP POP POP PUSH1 0x40 MLOAD RETURNDATASIZE PUSH1 0x1F NOT PUSH1 0x1F DUP3 ADD AND DUP3 ADD DUP1 PUSH1 0x40 MSTORE POP DUP2 ADD SWAP1 PUSH2 0x10B5 SWAP2 SWAP1 PUSH2 0x497D JUMP JUMPDEST PUSH2 0x10D1 JUMPI PUSH1 0x40 MLOAD PUSH3 0x461BCD PUSH1 0xE5 SHL DUP2 MSTORE PUSH1 0x4 ADD PUSH2 0xFC1 SWAP1 PUSH2 0x499F JUMP JUMPDEST PUSH2 0x10F3 DUP3 DUP3 DUP2 MLOAD DUP2 LT PUSH2 0x10E6 JUMPI PUSH2 0x10E6 PUSH2 0x4967 JUMP JUMPDEST PUSH1 0x20 MUL PUSH1 0x20 ADD ADD MLOAD PUSH2 0x3D2A JUMP JUMPDEST PUSH2 0x1165 JUMPI PUSH1 0x40 MLOAD PUSH3 0x461BCD PUSH1 0xE5 SHL DUP2 MSTORE PUSH1 0x20 PUSH1 0x4 DUP3 ADD MSTORE PUSH1 0x38 PUSH1 0x24 DUP3 ADD MSTORE PUSH32 0x54686973206164647265737320697320616C726561647920616E2061646D696E PUSH1 0x44 DUP3 ADD MSTORE PUSH32 0x6973747261746F7220666F72206C6576656C2074687265650000000000000000 PUSH1 0x64 DUP3 ADD MSTORE PUSH1 0x84 ADD PUSH2 0xFC1 JUMP JUMPDEST PUSH1 0x18 PUSH1 0x0 DUP4 DUP4 DUP2 MLOAD DUP2 LT PUSH2 0x117B JUMPI PUSH2 0x117B PUSH2 0x4967 JUMP JUMPDEST PUSH1 0x20 SWAP1 DUP2 MUL SWAP2 SWAP1 SWAP2 ADD DUP2 ADD MLOAD PUSH1 0x1 PUSH1 0x1 PUSH1 0xA0 SHL SUB AND DUP3 MSTORE DUP2 ADD SWAP2 SWAP1 SWAP2 MSTORE PUSH1 0x40 ADD PUSH1 0x0 KECCAK256 SLOAD PUSH1 0xFF AND ISZERO PUSH2 0x11BF JUMPI PUSH1 0x40 MLOAD PUSH3 0x461BCD PUSH1 0xE5 SHL DUP2 MSTORE PUSH1 0x4 ADD PUSH2 0xFC1 SWAP1 PUSH2 0x49CB JUMP JUMPDEST PUSH1 0x0 PUSH1 0x1 PUSH1 0x1 PUSH1 0xA0 SHL SUB AND PUSH1 0x19 PUSH1 0x0 DUP5 DUP5 DUP2 MLOAD DUP2 LT PUSH2 0x11E0 JUMPI PUSH2 0x11E0 PUSH2 0x4967 JUMP JUMPDEST PUSH1 0x20 SWAP1 DUP2 MUL SWAP2 SWAP1 SWAP2 ADD DUP2 ADD MLOAD PUSH1 0x1 PUSH1 0x1 PUSH1 0xA0 SHL SUB SWAP1 DUP2 AND DUP4 MSTORE SWAP1 DUP3 ADD SWAP3 SWAP1 SWAP3 MSTORE PUSH1 0x40 ADD PUSH1 0x0 KECCAK256 SLOAD AND EQ DUP1 ISZERO PUSH2 0x124F JUMPI POP DUP2 DUP2 DUP2 MLOAD DUP2 LT PUSH2 0x1222 JUMPI PUSH2 0x1222 PUSH2 0x4967 JUMP JUMPDEST PUSH1 0x20 SWAP1 DUP2 MUL SWAP2 SWAP1 SWAP2 ADD DUP2 ADD MLOAD CALLER PUSH1 0x0 SWAP1 DUP2 MSTORE PUSH1 0x19 SWAP1 SWAP3 MSTORE PUSH1 0x40 SWAP1 SWAP2 KECCAK256 SLOAD PUSH1 0x1 PUSH1 0x1 PUSH1 0xA0 SHL SUB SWAP1 DUP2 AND SWAP2 AND EQ ISZERO JUMPDEST DUP1 ISZERO PUSH2 0x1295 JUMPI POP PUSH1 0x18 PUSH1 0x0 DUP4 DUP4 DUP2 MLOAD DUP2 LT PUSH2 0x126C JUMPI PUSH2 0x126C PUSH2 0x4967 JUMP JUMPDEST PUSH1 0x20 SWAP1 DUP2 MUL SWAP2 SWAP1 SWAP2 ADD DUP2 ADD MLOAD PUSH1 0x1 PUSH1 0x1 PUSH1 0xA0 SHL SUB AND DUP3 MSTORE DUP2 ADD SWAP2 SWAP1 SWAP2 MSTORE PUSH1 0x40 ADD PUSH1 0x0 KECCAK256 SLOAD PUSH1 0xFF AND ISZERO JUMPDEST ISZERO PUSH2 0x13C8 JUMPI CALLER PUSH1 0x19 PUSH1 0x0 DUP5 DUP5 DUP2 MLOAD DUP2 LT PUSH2 0x12B1 JUMPI PUSH2 0x12B1 PUSH2 0x4967 JUMP JUMPDEST PUSH1 0x20 MUL PUSH1 0x20 ADD ADD MLOAD PUSH1 0x1 PUSH1 0x1 PUSH1 0xA0 SHL SUB AND PUSH1 0x1 PUSH1 0x1 PUSH1 0xA0 SHL SUB AND DUP2 MSTORE PUSH1 0x20 ADD SWAP1 DUP2 MSTORE PUSH1 0x20 ADD PUSH1 0x0 KECCAK256 PUSH1 0x0 PUSH2 0x100 EXP DUP2 SLOAD DUP2 PUSH1 0x1 PUSH1 0x1 PUSH1 0xA0 SHL SUB MUL NOT AND SWAP1 DUP4 PUSH1 0x1 PUSH1 0x1 PUSH1 0xA0 SHL SUB AND MUL OR SWAP1 SSTORE POP PUSH1 0x1A PUSH1 0x0 CALLER PUSH1 0x1 PUSH1 0x1 PUSH1 0xA0 SHL SUB AND PUSH1 0x1 PUSH1 0x1 PUSH1 0xA0 SHL SUB AND DUP2 MSTORE PUSH1 0x20 ADD SWAP1 DUP2 MSTORE PUSH1 0x20 ADD PUSH1 0x0 KECCAK256 DUP3 DUP3 DUP2 MLOAD DUP2 LT PUSH2 0x1334 JUMPI PUSH2 0x1334 PUSH2 0x4967 JUMP JUMPDEST PUSH1 0x20 SWAP1 DUP2 MUL SWAP2 SWAP1 SWAP2 ADD DUP2 ADD MLOAD DUP3 SLOAD PUSH1 0x1 DUP1 DUP3 ADD DUP6 SSTORE PUSH1 0x0 SWAP5 DUP6 MSTORE SWAP3 DUP5 KECCAK256 ADD DUP1 SLOAD PUSH1 0x1 PUSH1 0x1 PUSH1 0xA0 SHL SUB NOT AND PUSH1 0x1 PUSH1 0x1 PUSH1 0xA0 SHL SUB SWAP1 SWAP3 AND SWAP2 SWAP1 SWAP2 OR SWAP1 SSTORE DUP4 MLOAD SWAP1 SWAP2 PUSH1 0x18 SWAP2 DUP6 SWAP1 DUP6 SWAP1 DUP2 LT PUSH2 0x1388 JUMPI PUSH2 0x1388 PUSH2 0x4967 JUMP JUMPDEST PUSH1 0x20 MUL PUSH1 0x20 ADD ADD MLOAD PUSH1 0x1 PUSH1 0x1 PUSH1 0xA0 SHL SUB AND PUSH1 0x1 PUSH1 0x1 PUSH1 0xA0 SHL SUB AND DUP2 MSTORE PUSH1 0x20 ADD SWAP1 DUP2 MSTORE PUSH1 0x20 ADD PUSH1 0x0 KECCAK256 PUSH1 0x0 PUSH2 0x100 EXP DUP2 SLOAD DUP2 PUSH1 0xFF MUL NOT AND SWAP1 DUP4 ISZERO ISZERO MUL OR SWAP1 SSTORE POP JUMPDEST PUSH1 0x1 PUSH1 0x15 PUSH1 0x0 DUP5 DUP5 DUP2 MLOAD DUP2 LT PUSH2 0x13E0 JUMPI PUSH2 0x13E0 PUSH2 0x4967 JUMP JUMPDEST PUSH1 0x20 MUL PUSH1 0x20 ADD ADD MLOAD PUSH1 0x1 PUSH1 0x1 PUSH1 0xA0 SHL SUB AND PUSH1 0x1 PUSH1 0x1 PUSH1 0xA0 SHL SUB AND DUP2 MSTORE PUSH1 0x20 ADD SWAP1 DUP2 MSTORE PUSH1 0x20 ADD PUSH1 0x0 KECCAK256 PUSH1 0x0 PUSH2 0x100 EXP DUP2 SLOAD DUP2 PUSH1 0xFF MUL NOT AND SWAP1 DUP4 ISZERO ISZERO MUL OR SWAP1 SSTORE POP PUSH1 0x10 DUP3 DUP3 DUP2 MLOAD DUP2 LT PUSH2 0x1433 JUMPI PUSH2 0x1433 PUSH2 0x4967 JUMP JUMPDEST PUSH1 0x20 SWAP1 DUP2 MUL SWAP2 SWAP1 SWAP2 ADD DUP2 ADD MLOAD DUP3 SLOAD PUSH1 0x1 DUP2 ADD DUP5 SSTORE PUSH1 0x0 SWAP4 DUP5 MSTORE DUP3 DUP5 KECCAK256 ADD DUP1 SLOAD PUSH1 0x1 PUSH1 0x1 PUSH1 0xA0 SHL SUB NOT AND PUSH1 0x1 PUSH1 0x1 PUSH1 0xA0 SHL SUB SWAP1 SWAP3 AND SWAP2 SWAP1 SWAP2 OR SWAP1 SSTORE CALLER DUP3 MSTORE PUSH1 0x1C SWAP1 MSTORE PUSH1 0x40 SWAP1 KECCAK256 DUP3 MLOAD DUP4 SWAP1 DUP4 SWAP1 DUP2 LT PUSH2 0x148C JUMPI PUSH2 0x148C PUSH2 0x4967 JUMP JUMPDEST PUSH1 0x20 SWAP1 DUP2 MUL SWAP2 SWAP1 SWAP2 ADD DUP2 ADD MLOAD DUP3 SLOAD PUSH1 0x1 DUP2 ADD DUP5 SSTORE PUSH1 0x0 SWAP4 DUP5 MSTORE SWAP2 SWAP1 SWAP3 KECCAK256 ADD DUP1 SLOAD PUSH1 0x1 PUSH1 0x1 PUSH1 0xA0 SHL SUB NOT AND PUSH1 0x1 PUSH1 0x1 PUSH1 0xA0 SHL SUB SWAP1 SWAP3 AND SWAP2 SWAP1 SWAP2 OR SWAP1 SSTORE DUP2 MLOAD PUSH32 0xC483E4CA9C68442E18FB58AE60FA77A43D62F4DC04478CC492190C683347D8A0 SWAP1 PUSH2 0x150E SWAP1 DUP5 SWAP1 DUP5 SWAP1 DUP2 LT PUSH2 0x1501 JUMPI PUSH2 0x1501 PUSH2 0x4967 JUMP JUMPDEST PUSH1 0x20 MUL PUSH1 0x20 ADD ADD MLOAD PUSH2 0x1C60 JUMP JUMPDEST PUSH2 0x1530 DUP5 DUP5 DUP2 MLOAD DUP2 LT PUSH2 0x1523 JUMPI PUSH2 0x1523 PUSH2 0x4967 JUMP JUMPDEST PUSH1 0x20 MUL PUSH1 0x20 ADD ADD MLOAD PUSH2 0x26E1 JUMP JUMPDEST DUP5 DUP5 DUP2 MLOAD DUP2 LT PUSH2 0x1542 JUMPI PUSH2 0x1542 PUSH2 0x4967 JUMP JUMPDEST PUSH1 0x20 MUL PUSH1 0x20 ADD ADD MLOAD PUSH1 0x40 MLOAD PUSH2 0x1559 SWAP4 SWAP3 SWAP2 SWAP1 PUSH2 0x4844 JUMP JUMPDEST PUSH1 0x40 MLOAD DUP1 SWAP2 SUB SWAP1 LOG1 DUP1 PUSH2 0x156B DUP2 PUSH2 0x4A24 JUMP JUMPDEST SWAP2 POP POP PUSH2 0xFFD JUMP JUMPDEST POP POP JUMP JUMPDEST PUSH2 0x157F PUSH2 0x3CD0 JUMP JUMPDEST PUSH1 0x1 DUP2 LT ISZERO PUSH2 0x15E2 JUMPI PUSH1 0x40 MLOAD PUSH3 0x461BCD PUSH1 0xE5 SHL DUP2 MSTORE PUSH1 0x20 PUSH1 0x4 DUP3 ADD MSTORE PUSH1 0x29 PUSH1 0x24 DUP3 ADD MSTORE PUSH32 0x546865206D696E696D756D2073657420636F6E76657273696F6E20726174696F PUSH1 0x44 DUP3 ADD MSTORE PUSH9 0x20697320302E303031 PUSH1 0xB8 SHL PUSH1 0x64 DUP3 ADD MSTORE PUSH1 0x84 ADD PUSH2 0xFC1 JUMP JUMPDEST PUSH1 0x4 SSTORE JUMP JUMPDEST PUSH2 0x15EF PUSH2 0x3CD0 JUMP JUMPDEST PUSH1 0x64 PUSH2 0x15F9 PUSH2 0x2806 JUMP JUMPDEST GT ISZERO PUSH2 0x1617 JUMPI PUSH1 0x40 MLOAD PUSH3 0x461BCD PUSH1 0xE5 SHL DUP2 MSTORE PUSH1 0x4 ADD PUSH2 0xFC1 SWAP1 PUSH2 0x4A3D JUMP JUMPDEST PUSH1 0x0 JUMPDEST DUP2 MLOAD DUP2 LT ISZERO PUSH2 0x1573 JUMPI PUSH1 0x11 DUP3 DUP3 DUP2 MLOAD DUP2 LT PUSH2 0x1637 JUMPI PUSH2 0x1637 PUSH2 0x4967 JUMP JUMPDEST PUSH1 0x20 SWAP1 DUP2 MUL SWAP2 SWAP1 SWAP2 ADD DUP2 ADD MLOAD DUP3 SLOAD PUSH1 0x1 DUP2 ADD DUP5 SSTORE PUSH1 0x0 SWAP4 DUP5 MSTORE SWAP2 SWAP1 SWAP3 KECCAK256 ADD SSTORE DUP1 PUSH2 0x1660 DUP2 PUSH2 0x4A24 JUMP JUMPDEST SWAP2 POP POP PUSH2 0x161A JUMP JUMPDEST PUSH2 0x1670 PUSH2 0x3CD0 JUMP JUMPDEST PUSH1 0xD DUP1 SLOAD DUP1 PUSH2 0x1681 JUMPI PUSH2 0x1681 PUSH2 0x4A80 JUMP JUMPDEST PUSH1 0x1 SWAP1 SUB DUP2 DUP2 SWAP1 PUSH1 0x0 MSTORE PUSH1 0x20 PUSH1 0x0 KECCAK256 ADD PUSH1 0x0 SWAP1 SSTORE SWAP1 SSTORE JUMP JUMPDEST PUSH1 0x0 PUSH2 0x3E8 PUSH1 0x4 SLOAD PUSH2 0x16AB SWAP2 SWAP1 PUSH2 0x4A96 JUMP JUMPDEST PUSH2 0x16B3 PUSH2 0x1BF3 JUMP JUMPDEST PUSH2 0x16BD SWAP2 SWAP1 PUSH2 0x4AB8 JUMP JUMPDEST SWAP1 POP SWAP1 JUMP JUMPDEST PUSH2 0x16CA PUSH2 0x3CD0 JUMP JUMPDEST PUSH1 0x1 DUP1 SLOAD PUSH1 0xFF PUSH1 0xA8 SHL NOT DUP2 AND PUSH1 0x1 PUSH1 0xA8 SHL SWAP2 DUP3 SWAP1 DIV PUSH1 0xFF AND ISZERO SWAP1 SWAP2 MUL OR SWAP1 SSTORE JUMP JUMPDEST CALLER PUSH1 0x0 SWAP1 DUP2 MSTORE PUSH1 0x14 PUSH1 0x20 MSTORE PUSH1 0x40 SWAP1 KECCAK256 SLOAD PUSH1 0xFF AND DUP1 ISZERO PUSH2 0x1722 JUMPI POP PUSH1 0x1 PUSH1 0x1 PUSH1 0xA0 SHL SUB DUP2 AND PUSH1 0x0 SWAP1 DUP2 MSTORE PUSH1 0x15 PUSH1 0x20 MSTORE PUSH1 0x40 SWAP1 KECCAK256 SLOAD PUSH1 0xFF AND JUMPDEST PUSH2 0x177D JUMPI PUSH1 0x40 MLOAD PUSH3 0x461BCD PUSH1 0xE5 SHL DUP2 MSTORE PUSH1 0x20 PUSH1 0x4 DUP3 ADD MSTORE PUSH1 0x26 PUSH1 0x24 DUP3 ADD MSTORE PUSH32 0x796F7520617265206E6F7420616E206C6576656C2074776F2061646D696E6973 PUSH1 0x44 DUP3 ADD MSTORE PUSH6 0x3A3930BA37B9 PUSH1 0xD1 SHL PUSH1 0x64 DUP3 ADD MSTORE PUSH1 0x84 ADD PUSH2 0xFC1 JUMP JUMPDEST PUSH1 0x0 DUP1 JUMPDEST PUSH1 0x10 SLOAD DUP2 LT ISZERO PUSH2 0x17DC JUMPI DUP3 PUSH1 0x1 PUSH1 0x1 PUSH1 0xA0 SHL SUB AND PUSH1 0x10 DUP3 DUP2 SLOAD DUP2 LT PUSH2 0x17A8 JUMPI PUSH2 0x17A8 PUSH2 0x4967 JUMP JUMPDEST PUSH1 0x0 SWAP2 DUP3 MSTORE PUSH1 0x20 SWAP1 SWAP2 KECCAK256 ADD SLOAD PUSH1 0x1 PUSH1 0x1 PUSH1 0xA0 SHL SUB AND SUB PUSH2 0x17CA JUMPI DUP1 SWAP2 POP PUSH2 0x17DC JUMP JUMPDEST DUP1 PUSH2 0x17D4 DUP2 PUSH2 0x4A24 JUMP JUMPDEST SWAP2 POP POP PUSH2 0x1781 JUMP JUMPDEST POP PUSH1 0x10 DUP1 SLOAD PUSH2 0x17ED SWAP1 PUSH1 0x1 SWAP1 PUSH2 0x4ACF JUMP JUMPDEST DUP2 SLOAD DUP2 LT PUSH2 0x17FD JUMPI PUSH2 0x17FD PUSH2 0x4967 JUMP JUMPDEST PUSH1 0x0 SWAP2 DUP3 MSTORE PUSH1 0x20 SWAP1 SWAP2 KECCAK256 ADD SLOAD PUSH1 0x10 DUP1 SLOAD PUSH1 0x1 PUSH1 0x1 PUSH1 0xA0 SHL SUB SWAP1 SWAP3 AND SWAP2 DUP4 SWAP1 DUP2 LT PUSH2 0x1829 JUMPI PUSH2 0x1829 PUSH2 0x4967 JUMP JUMPDEST SWAP1 PUSH1 0x0 MSTORE PUSH1 0x20 PUSH1 0x0 KECCAK256 ADD PUSH1 0x0 PUSH2 0x100 EXP DUP2 SLOAD DUP2 PUSH1 0x1 PUSH1 0x1 PUSH1 0xA0 SHL SUB MUL NOT AND SWAP1 DUP4 PUSH1 0x1 PUSH1 0x1 PUSH1 0xA0 SHL SUB AND MUL OR SWAP1 SSTORE POP PUSH1 0x10 DUP1 SLOAD DUP1 PUSH2 0x1868 JUMPI PUSH2 0x1868 PUSH2 0x4A80 JUMP JUMPDEST PUSH1 0x0 DUP3 DUP2 MSTORE PUSH1 0x20 DUP1 DUP3 KECCAK256 DUP4 ADD PUSH1 0x0 NOT SWAP1 DUP2 ADD DUP1 SLOAD PUSH1 0x1 PUSH1 0x1 PUSH1 0xA0 SHL SUB NOT AND SWAP1 SSTORE SWAP1 SWAP3 ADD SWAP1 SWAP3 SSTORE PUSH1 0x1 PUSH1 0x1 PUSH1 0xA0 SHL SUB DUP5 AND DUP3 MSTORE PUSH1 0x15 SWAP1 MSTORE PUSH1 0x40 SWAP1 KECCAK256 DUP1 SLOAD PUSH1 0xFF NOT AND SWAP1 SSTORE PUSH32 0xCBB3112CAEFDED199A3949F9990E2D4BD671F2845010AE73DDEB2AECD14AA2C PUSH2 0x18D4 DUP4 PUSH2 0x1C60 JUMP JUMPDEST PUSH2 0x18DD DUP5 PUSH2 0x26E1 JUMP JUMPDEST DUP5 PUSH1 0x40 MLOAD PUSH2 0x18ED SWAP4 SWAP3 SWAP2 SWAP1 PUSH2 0x4844 JUMP JUMPDEST PUSH1 0x40 MLOAD DUP1 SWAP2 SUB SWAP1 LOG1 POP POP JUMP JUMPDEST PUSH1 0x12 DUP2 DUP2 SLOAD DUP2 LT PUSH2 0x1909 JUMPI PUSH1 0x0 DUP1 REVERT JUMPDEST PUSH1 0x0 SWAP2 DUP3 MSTORE PUSH1 0x20 SWAP1 SWAP2 KECCAK256 PUSH1 0x3 SWAP1 SWAP2 MUL ADD DUP1 SLOAD PUSH1 0x1 DUP3 ADD DUP1 SLOAD SWAP2 SWAP4 POP SWAP1 PUSH2 0x192E SWAP1 PUSH2 0x4AE2 JUMP JUMPDEST DUP1 PUSH1 0x1F ADD PUSH1 0x20 DUP1 SWAP2 DIV MUL PUSH1 0x20 ADD PUSH1 0x40 MLOAD SWAP1 DUP2 ADD PUSH1 0x40 MSTORE DUP1 SWAP3 SWAP2 SWAP1 DUP2 DUP2 MSTORE PUSH1 0x20 ADD DUP3 DUP1 SLOAD PUSH2 0x195A SWAP1 PUSH2 0x4AE2 JUMP JUMPDEST DUP1 ISZERO PUSH2 0x19A7 JUMPI DUP1 PUSH1 0x1F LT PUSH2 0x197C JUMPI PUSH2 0x100 DUP1 DUP4 SLOAD DIV MUL DUP4 MSTORE SWAP2 PUSH1 0x20 ADD SWAP2 PUSH2 0x19A7 JUMP JUMPDEST DUP3 ADD SWAP2 SWAP1 PUSH1 0x0 MSTORE PUSH1 0x20 PUSH1 0x0 KECCAK256 SWAP1 JUMPDEST DUP2 SLOAD DUP2 MSTORE SWAP1 PUSH1 0x1 ADD SWAP1 PUSH1 0x20 ADD DUP1 DUP4 GT PUSH2 0x198A JUMPI DUP3 SWAP1 SUB PUSH1 0x1F AND DUP3 ADD SWAP2 JUMPDEST POP POP POP PUSH1 0x2 SWAP1 SWAP4 ADD SLOAD SWAP2 SWAP3 POP POP PUSH1 0x1 PUSH1 0x1 PUSH1 0xA0 SHL SUB AND DUP4 JUMP JUMPDEST PUSH1 0x1C PUSH1 0x20 MSTORE DUP2 PUSH1 0x0 MSTORE PUSH1 0x40 PUSH1 0x0 KECCAK256 DUP2 DUP2 SLOAD DUP2 LT PUSH2 0xF76 JUMPI PUSH1 0x0 DUP1 REVERT JUMPDEST PUSH1 0x0 DUP1 PUSH1 0x1D PUSH1 0x0 SWAP1 SLOAD SWAP1 PUSH2 0x100 EXP SWAP1 DIV PUSH1 0x1 PUSH1 0x1 PUSH1 0xA0 SHL SUB AND PUSH1 0x1 PUSH1 0x1 PUSH1 0xA0 SHL SUB AND PUSH4 0xFEAF968C PUSH1 0x40 MLOAD DUP2 PUSH4 0xFFFFFFFF AND PUSH1 0xE0 SHL DUP2 MSTORE PUSH1 0x4 ADD PUSH1 0xA0 PUSH1 0x40 MLOAD DUP1 DUP4 SUB DUP2 DUP7 GAS STATICCALL ISZERO DUP1 ISZERO PUSH2 0x1A32 JUMPI RETURNDATASIZE PUSH1 0x0 DUP1 RETURNDATACOPY RETURNDATASIZE PUSH1 0x0 REVERT JUMPDEST POP POP POP POP PUSH1 0x40 MLOAD RETURNDATASIZE PUSH1 0x1F NOT PUSH1 0x1F DUP3 ADD AND DUP3 ADD DUP1 PUSH1 0x40 MSTORE POP DUP2 ADD SWAP1 PUSH2 0x1A56 SWAP2 SWAP1 PUSH2 0x4B3B JUMP JUMPDEST POP SWAP2 SWAP6 SWAP5 POP POP POP POP POP JUMP JUMPDEST PUSH2 0x1A69 PUSH2 0x3CD0 JUMP JUMPDEST PUSH1 0x7 SSTORE JUMP JUMPDEST PUSH2 0x1A76 PUSH2 0x3CD0 JUMP JUMPDEST PUSH1 0x1 SLOAD PUSH1 0x40 MLOAD PUSH4 0xA9059CBB PUSH1 0xE0 SHL DUP2 MSTORE CALLER PUSH1 0x4 DUP3 ADD MSTORE PUSH1 0x24 DUP2 ADD DUP4 SWAP1 MSTORE PUSH1 0x1 PUSH1 0x1 PUSH1 0xA0 SHL SUB SWAP1 SWAP2 AND SWAP1 PUSH4 0xA9059CBB SWAP1 PUSH1 0x44 ADD PUSH1 0x20 PUSH1 0x40 MLOAD DUP1 DUP4 SUB DUP2 PUSH1 0x0 DUP8 GAS CALL ISZERO DUP1 ISZERO PUSH2 0x1AC7 JUMPI RETURNDATASIZE PUSH1 0x0 DUP1 RETURNDATACOPY RETURNDATASIZE PUSH1 0x0 REVERT JUMPDEST POP POP POP POP PUSH1 0x40 MLOAD RETURNDATASIZE PUSH1 0x1F NOT PUSH1 0x1F DUP3 ADD AND DUP3 ADD DUP1 PUSH1 0x40 MSTORE POP DUP2 ADD SWAP1 PUSH2 0x1573 SWAP2 SWAP1 PUSH2 0x497D JUMP JUMPDEST PUSH2 0x1AF3 PUSH2 0x3CD0 JUMP JUMPDEST PUSH1 0x64 PUSH2 0x1AFD PUSH2 0x2806 JUMP JUMPDEST GT ISZERO PUSH2 0x1B1B JUMPI PUSH1 0x40 MLOAD PUSH3 0x461BCD PUSH1 0xE5 SHL DUP2 MSTORE PUSH1 0x4 ADD PUSH2 0xFC1 SWAP1 PUSH2 0x4A3D JUMP JUMPDEST DUP1 MLOAD PUSH1 0x2 EQ DUP1 PUSH2 0x1B2D JUMPI POP PUSH1 0xA SLOAD PUSH1 0x2 EQ JUMPDEST PUSH2 0x1B67 JUMPI PUSH1 0x40 MLOAD PUSH3 0x461BCD PUSH1 0xE5 SHL DUP2 MSTORE PUSH1 0x20 PUSH1 0x4 DUP3 ADD MSTORE PUSH1 0xB PUSH1 0x24 DUP3 ADD MSTORE PUSH11 0x34B7383ABA1032B93937B9 PUSH1 0xA9 SHL PUSH1 0x44 DUP3 ADD MSTORE PUSH1 0x64 ADD PUSH2 0xFC1 JUMP JUMPDEST PUSH1 0x0 JUMPDEST DUP2 MLOAD DUP2 LT ISZERO PUSH2 0x1573 JUMPI PUSH1 0xA DUP3 DUP3 DUP2 MLOAD DUP2 LT PUSH2 0x1B87 JUMPI PUSH2 0x1B87 PUSH2 0x4967 JUMP JUMPDEST PUSH1 0x20 SWAP1 DUP2 MUL SWAP2 SWAP1 SWAP2 ADD DUP2 ADD MLOAD DUP3 SLOAD PUSH1 0x1 DUP2 ADD DUP5 SSTORE PUSH1 0x0 SWAP4 DUP5 MSTORE SWAP2 SWAP1 SWAP3 KECCAK256 ADD SSTORE DUP1 PUSH2 0x1BB0 DUP2 PUSH2 0x4A24 JUMP JUMPDEST SWAP2 POP POP PUSH2 0x1B6A JUMP JUMPDEST PUSH2 0x1BC0 PUSH2 0x3CD0 JUMP JUMPDEST PUSH1 0x6 SSTORE JUMP JUMPDEST PUSH1 0x1B PUSH1 0x20 MSTORE DUP2 PUSH1 0x0 MSTORE PUSH1 0x40 PUSH1 0x0 KECCAK256 DUP2 DUP2 SLOAD DUP2 LT PUSH2 0xF76 JUMPI PUSH1 0x0 DUP1 REVERT JUMPDEST PUSH2 0x1BE9 PUSH2 0x3CD0 JUMP JUMPDEST PUSH2 0x1BF1 PUSH2 0x3D8E JUMP JUMPDEST JUMP JUMPDEST PUSH1 0x1 SLOAD PUSH1 0x40 MLOAD PUSH4 0x70A08231 PUSH1 0xE0 SHL DUP2 MSTORE ADDRESS PUSH1 0x4 DUP3 ADD MSTORE PUSH1 0x0 SWAP2 PUSH1 0x1 PUSH1 0x1 PUSH1 0xA0 SHL SUB AND SWAP1 PUSH4 0x70A08231 SWAP1 PUSH1 0x24 ADD PUSH1 0x20 PUSH1 0x40 MLOAD DUP1 DUP4 SUB DUP2 DUP7 GAS STATICCALL ISZERO DUP1 ISZERO PUSH2 0x1C3C JUMPI RETURNDATASIZE PUSH1 0x0 DUP1 RETURNDATACOPY RETURNDATASIZE PUSH1 0x0 REVERT JUMPDEST POP POP POP POP PUSH1 0x40 MLOAD RETURNDATASIZE PUSH1 0x1F NOT PUSH1 0x1F DUP3 ADD AND DUP3 ADD DUP1 PUSH1 0x40 MSTORE POP DUP2 ADD SWAP1 PUSH2 0x16BD SWAP2 SWAP1 PUSH2 0x4B8B JUMP JUMPDEST PUSH1 0x3 SLOAD PUSH1 0x40 MLOAD PUSH4 0xA483F561 PUSH1 0xE0 SHL DUP2 MSTORE PUSH1 0x1 PUSH1 0x1 PUSH1 0xA0 SHL SUB DUP4 DUP2 AND PUSH1 0x4 DUP4 ADD MSTORE PUSH1 0x0 SWAP3 AND SWAP1 PUSH4 0xA483F561 SWAP1 PUSH1 0x24 ADD PUSH1 0x20 PUSH1 0x40 MLOAD DUP1 DUP4 SUB DUP2 DUP7 GAS STATICCALL ISZERO DUP1 ISZERO PUSH2 0x1CAB JUMPI RETURNDATASIZE PUSH1 0x0 DUP1 RETURNDATACOPY RETURNDATASIZE PUSH1 0x0 REVERT JUMPDEST POP POP POP POP PUSH1 0x40 MLOAD RETURNDATASIZE PUSH1 0x1F NOT PUSH1 0x1F DUP3 ADD AND DUP3 ADD DUP1 PUSH1 0x40 MSTORE POP DUP2 ADD SWAP1 PUSH2 0x1CCF SWAP2 SWAP1 PUSH2 0x497D JUMP JUMPDEST ISZERO PUSH2 0x1D4D JUMPI PUSH1 0x3 SLOAD PUSH1 0x40 MLOAD PUSH4 0x6386C1C7 PUSH1 0xE0 SHL DUP2 MSTORE PUSH1 0x1 PUSH1 0x1 PUSH1 0xA0 SHL SUB DUP5 DUP2 AND PUSH1 0x4 DUP4 ADD MSTORE SWAP1 SWAP2 AND SWAP1 PUSH4 0x6386C1C7 SWAP1 PUSH1 0x24 ADD PUSH1 0x0 PUSH1 0x40 MLOAD DUP1 DUP4 SUB DUP2 DUP7 GAS STATICCALL ISZERO DUP1 ISZERO PUSH2 0x1D1E JUMPI RETURNDATASIZE PUSH1 0x0 DUP1 RETURNDATACOPY RETURNDATASIZE PUSH1 0x0 REVERT JUMPDEST POP POP POP POP PUSH1 0x40 MLOAD RETURNDATASIZE PUSH1 0x0 DUP3 RETURNDATACOPY PUSH1 0x1F RETURNDATASIZE SWAP1 DUP2 ADD PUSH1 0x1F NOT AND DUP3 ADD PUSH1 0x40 MSTORE PUSH2 0x1D46 SWAP2 SWAP1 DUP2 ADD SWAP1 PUSH2 0x4C10 JUMP JUMPDEST MLOAD SWAP3 SWAP2 POP POP JUMP JUMPDEST POP PUSH1 0x0 SWAP2 SWAP1 POP JUMP JUMPDEST PUSH2 0x1D5D PUSH2 0x3CD0 JUMP JUMPDEST PUSH1 0x11 SLOAD DUP3 LT PUSH2 0x1DA7 JUMPI PUSH1 0x40 MLOAD PUSH3 0x461BCD PUSH1 0xE5 SHL DUP2 MSTORE PUSH1 0x20 PUSH1 0x4 DUP3 ADD MSTORE PUSH1 0x16 PUSH1 0x24 DUP3 ADD MSTORE PUSH22 0x151A19481C985D1948191BD95CDB89DD08195E1A5CDD PUSH1 0x52 SHL PUSH1 0x44 DUP3 ADD MSTORE PUSH1 0x64 ADD PUSH2 0xFC1 JUMP JUMPDEST DUP1 PUSH1 0x11 DUP4 DUP2 SLOAD DUP2 LT PUSH2 0x1DBB JUMPI PUSH2 0x1DBB PUSH2 0x4967 JUMP JUMPDEST PUSH1 0x0 SWAP2 DUP3 MSTORE PUSH1 0x20 SWAP1 SWAP2 KECCAK256 ADD SSTORE POP POP JUMP JUMPDEST PUSH1 0x0 PUSH2 0x1DD5 PUSH2 0x3CD0 JUMP JUMPDEST PUSH1 0x40 MLOAD PUSH4 0xA9059CBB PUSH1 0xE0 SHL DUP2 MSTORE CALLER PUSH1 0x4 DUP3 ADD MSTORE PUSH1 0x24 DUP2 ADD DUP4 SWAP1 MSTORE PUSH1 0x1 PUSH1 0x1 PUSH1 0xA0 SHL SUB DUP5 AND SWAP1 PUSH4 0xA9059CBB SWAP1 PUSH1 0x44 ADD PUSH1 0x20 PUSH1 0x40 MLOAD DUP1 DUP4 SUB DUP2 PUSH1 0x0 DUP8 GAS CALL ISZERO DUP1 ISZERO PUSH2 0x1E22 JUMPI RETURNDATASIZE PUSH1 0x0 DUP1 RETURNDATACOPY RETURNDATASIZE PUSH1 0x0 REVERT JUMPDEST POP POP POP POP PUSH1 0x40 MLOAD RETURNDATASIZE PUSH1 0x1F NOT PUSH1 0x1F DUP3 ADD AND DUP3 ADD DUP1 PUSH1 0x40 MSTORE POP DUP2 ADD SWAP1 PUSH2 0x1E46 SWAP2 SWAP1 PUSH2 0x497D JUMP JUMPDEST SWAP1 POP JUMPDEST SWAP3 SWAP2 POP POP JUMP JUMPDEST PUSH1 0x13 PUSH1 0x20 MSTORE DUP2 PUSH1 0x0 MSTORE PUSH1 0x40 PUSH1 0x0 KECCAK256 DUP2 DUP2 SLOAD DUP2 LT PUSH2 0x1E6B JUMPI PUSH1 0x0 DUP1 REVERT JUMPDEST SWAP1 PUSH1 0x0 MSTORE PUSH1 0x20 PUSH1 0x0 KECCAK256 SWAP1 PUSH1 0x3 MUL ADD PUSH1 0x0 SWAP2 POP SWAP2 POP POP DUP1 PUSH1 0x0 ADD SLOAD SWAP1 DUP1 PUSH1 0x1 ADD DUP1 SLOAD PUSH2 0x192E SWAP1 PUSH2 0x4AE2 JUMP JUMPDEST PUSH2 0x1E9D PUSH2 0x3CD0 JUMP JUMPDEST PUSH1 0x1 DUP1 SLOAD PUSH1 0xFF PUSH1 0xB0 SHL NOT DUP2 AND PUSH1 0x1 PUSH1 0xB0 SHL SWAP2 DUP3 SWAP1 DIV PUSH1 0xFF AND ISZERO SWAP1 SWAP2 MUL OR SWAP1 SSTORE JUMP JUMPDEST PUSH2 0x1EC6 PUSH2 0x3CD0 JUMP JUMPDEST PUSH1 0x0 JUMPDEST PUSH1 0xE SLOAD DUP2 LT ISZERO PUSH2 0x1FCD JUMPI DUP2 PUSH1 0x1 PUSH1 0x1 PUSH1 0xA0 SHL SUB AND PUSH1 0xE DUP3 DUP2 SLOAD DUP2 LT PUSH2 0x1EF0 JUMPI PUSH2 0x1EF0 PUSH2 0x4967 JUMP JUMPDEST PUSH1 0x0 SWAP2 DUP3 MSTORE PUSH1 0x20 SWAP1 SWAP2 KECCAK256 ADD SLOAD PUSH1 0x1 PUSH1 0x1 PUSH1 0xA0 SHL SUB AND SUB PUSH2 0x1FBB JUMPI PUSH1 0xE DUP1 SLOAD PUSH2 0x1F1A SWAP1 PUSH1 0x1 SWAP1 PUSH2 0x4ACF JUMP JUMPDEST DUP2 SLOAD DUP2 LT PUSH2 0x1F2A JUMPI PUSH2 0x1F2A PUSH2 0x4967 JUMP JUMPDEST PUSH1 0x0 SWAP2 DUP3 MSTORE PUSH1 0x20 SWAP1 SWAP2 KECCAK256 ADD SLOAD PUSH1 0xE DUP1 SLOAD PUSH1 0x1 PUSH1 0x1 PUSH1 0xA0 SHL SUB SWAP1 SWAP3 AND SWAP2 DUP4 SWAP1 DUP2 LT PUSH2 0x1F56 JUMPI PUSH2 0x1F56 PUSH2 0x4967 JUMP JUMPDEST SWAP1 PUSH1 0x0 MSTORE PUSH1 0x20 PUSH1 0x0 KECCAK256 ADD PUSH1 0x0 PUSH2 0x100 EXP DUP2 SLOAD DUP2 PUSH1 0x1 PUSH1 0x1 PUSH1 0xA0 SHL SUB MUL NOT AND SWAP1 DUP4 PUSH1 0x1 PUSH1 0x1 PUSH1 0xA0 SHL SUB AND MUL OR SWAP1 SSTORE POP PUSH1 0xE DUP1 SLOAD DUP1 PUSH2 0x1F95 JUMPI PUSH2 0x1F95 PUSH2 0x4A80 JUMP JUMPDEST PUSH1 0x0 DUP3 DUP2 MSTORE PUSH1 0x20 SWAP1 KECCAK256 DUP2 ADD PUSH1 0x0 NOT SWAP1 DUP2 ADD DUP1 SLOAD PUSH1 0x1 PUSH1 0x1 PUSH1 0xA0 SHL SUB NOT AND SWAP1 SSTORE ADD SWAP1 SSTORE POP POP JUMP JUMPDEST DUP1 PUSH2 0x1FC5 DUP2 PUSH2 0x4A24 JUMP JUMPDEST SWAP2 POP POP PUSH2 0x1EC9 JUMP JUMPDEST POP PUSH1 0x40 MLOAD PUSH3 0x461BCD PUSH1 0xE5 SHL DUP2 MSTORE PUSH1 0x20 PUSH1 0x4 DUP3 ADD MSTORE PUSH1 0x26 PUSH1 0x24 DUP3 ADD MSTORE PUSH32 0x546865206164647265737320796F752072656D6F76656420646F6573206E6F74 PUSH1 0x44 DUP3 ADD MSTORE PUSH6 0x8195E1A5CDD PUSH1 0xD2 SHL PUSH1 0x64 DUP3 ADD MSTORE PUSH1 0x84 ADD PUSH2 0xFC1 JUMP JUMPDEST POP JUMP JUMPDEST PUSH1 0xD DUP2 DUP2 SLOAD DUP2 LT PUSH2 0x2038 JUMPI PUSH1 0x0 DUP1 REVERT JUMPDEST PUSH1 0x0 SWAP2 DUP3 MSTORE PUSH1 0x20 SWAP1 SWAP2 KECCAK256 ADD SLOAD SWAP1 POP DUP2 JUMP JUMPDEST CALLER PUSH1 0x0 SWAP1 DUP2 MSTORE PUSH1 0x14 PUSH1 0x20 MSTORE PUSH1 0x40 SWAP1 KECCAK256 SLOAD PUSH1 0xFF AND DUP1 PUSH2 0x2076 JUMPI POP CALLER PUSH1 0x0 SWAP1 DUP2 MSTORE PUSH1 0x15 PUSH1 0x20 MSTORE PUSH1 0x40 SWAP1 KECCAK256 SLOAD PUSH1 0xFF AND JUMPDEST PUSH2 0x20BE JUMPI PUSH1 0x40 MLOAD PUSH3 0x461BCD PUSH1 0xE5 SHL DUP2 MSTORE PUSH1 0x20 PUSH1 0x4 DUP3 ADD MSTORE PUSH1 0x19 PUSH1 0x24 DUP3 ADD MSTORE PUSH25 0x3CB7BA903237B713BA103430BB32903832B936B4B9B9B4B7B7 PUSH1 0x39 SHL PUSH1 0x44 DUP3 ADD MSTORE PUSH1 0x64 ADD PUSH2 0xFC1 JUMP JUMPDEST PUSH2 0x20C7 CALLER PUSH2 0x3DE3 JUMP JUMPDEST CALLER PUSH1 0x0 SWAP1 DUP2 MSTORE PUSH1 0x13 PUSH1 0x20 MSTORE PUSH1 0x40 SWAP1 KECCAK256 SLOAD GT ISZERO PUSH2 0x211E JUMPI PUSH1 0x40 MLOAD PUSH3 0x461BCD PUSH1 0xE5 SHL DUP2 MSTORE PUSH1 0x20 PUSH1 0x4 DUP3 ADD MSTORE PUSH1 0x16 PUSH1 0x24 DUP3 ADD MSTORE PUSH22 0x115E18D959591959081D1A19481CD95D081D1BDD185B PUSH1 0x52 SHL PUSH1 0x44 DUP3 ADD MSTORE PUSH1 0x64 ADD PUSH2 0xFC1 JUMP JUMPDEST PUSH1 0x0 JUMPDEST DUP2 MLOAD DUP2 LT ISZERO PUSH2 0x1573 JUMPI PUSH1 0x1 SLOAD PUSH1 0x1 PUSH1 0xB0 SHL SWAP1 DIV PUSH1 0xFF AND ISZERO PUSH2 0x21F5 JUMPI PUSH1 0x3 SLOAD DUP3 MLOAD PUSH1 0x1 PUSH1 0x1 PUSH1 0xA0 SHL SUB SWAP1 SWAP2 AND SWAP1 PUSH4 0xA483F561 SWAP1 DUP5 SWAP1 DUP5 SWAP1 DUP2 LT PUSH2 0x2165 JUMPI PUSH2 0x2165 PUSH2 0x4967 JUMP JUMPDEST PUSH1 0x20 MUL PUSH1 0x20 ADD ADD MLOAD PUSH1 0x40 MLOAD DUP3 PUSH4 0xFFFFFFFF AND PUSH1 0xE0 SHL DUP2 MSTORE PUSH1 0x4 ADD PUSH2 0x2198 SWAP2 SWAP1 PUSH1 0x1 PUSH1 0x1 PUSH1 0xA0 SHL SUB SWAP2 SWAP1 SWAP2 AND DUP2 MSTORE PUSH1 0x20 ADD SWAP1 JUMP JUMPDEST PUSH1 0x20 PUSH1 0x40 MLOAD DUP1 DUP4 SUB DUP2 DUP7 GAS STATICCALL ISZERO DUP1 ISZERO PUSH2 0x21B5 JUMPI RETURNDATASIZE PUSH1 0x0 DUP1 RETURNDATACOPY RETURNDATASIZE PUSH1 0x0 REVERT JUMPDEST POP POP POP POP PUSH1 0x40 MLOAD RETURNDATASIZE PUSH1 0x1F NOT PUSH1 0x1F DUP3 ADD AND DUP3 ADD DUP1 PUSH1 0x40 MSTORE POP DUP2 ADD SWAP1 PUSH2 0x21D9 SWAP2 SWAP1 PUSH2 0x497D JUMP JUMPDEST PUSH2 0x21F5 JUMPI PUSH1 0x40 MLOAD PUSH3 0x461BCD PUSH1 0xE5 SHL DUP2 MSTORE PUSH1 0x4 ADD PUSH2 0xFC1 SWAP1 PUSH2 0x499F JUMP JUMPDEST PUSH2 0x2218 DUP3 DUP3 DUP2 MLOAD DUP2 LT PUSH2 0x220A JUMPI PUSH2 0x220A PUSH2 0x4967 JUMP JUMPDEST PUSH1 0x20 MUL PUSH1 0x20 ADD ADD MLOAD CALLER PUSH2 0x3E35 JUMP JUMPDEST DUP1 ISZERO PUSH2 0x225E JUMPI POP PUSH1 0x18 PUSH1 0x0 DUP4 DUP4 DUP2 MLOAD DUP2 LT PUSH2 0x2235 JUMPI PUSH2 0x2235 PUSH2 0x4967 JUMP JUMPDEST PUSH1 0x20 SWAP1 DUP2 MUL SWAP2 SWAP1 SWAP2 ADD DUP2 ADD MLOAD PUSH1 0x1 PUSH1 0x1 PUSH1 0xA0 SHL SUB AND DUP3 MSTORE DUP2 ADD SWAP2 SWAP1 SWAP2 MSTORE PUSH1 0x40 ADD PUSH1 0x0 KECCAK256 SLOAD PUSH1 0xFF AND ISZERO JUMPDEST PUSH2 0x227A JUMPI PUSH1 0x40 MLOAD PUSH3 0x461BCD PUSH1 0xE5 SHL DUP2 MSTORE PUSH1 0x4 ADD PUSH2 0xFC1 SWAP1 PUSH2 0x49CB JUMP JUMPDEST PUSH1 0x0 PUSH1 0x1 PUSH1 0x1 PUSH1 0xA0 SHL SUB AND PUSH1 0x19 PUSH1 0x0 DUP5 DUP5 DUP2 MLOAD DUP2 LT PUSH2 0x229B JUMPI PUSH2 0x229B PUSH2 0x4967 JUMP JUMPDEST PUSH1 0x20 SWAP1 DUP2 MUL SWAP2 SWAP1 SWAP2 ADD DUP2 ADD MLOAD PUSH1 0x1 PUSH1 0x1 PUSH1 0xA0 SHL SUB SWAP1 DUP2 AND DUP4 MSTORE SWAP1 DUP3 ADD SWAP3 SWAP1 SWAP3 MSTORE PUSH1 0x40 ADD PUSH1 0x0 KECCAK256 SLOAD AND EQ DUP1 ISZERO PUSH2 0x230A JUMPI POP DUP2 DUP2 DUP2 MLOAD DUP2 LT PUSH2 0x22DD JUMPI PUSH2 0x22DD PUSH2 0x4967 JUMP JUMPDEST PUSH1 0x20 SWAP1 DUP2 MUL SWAP2 SWAP1 SWAP2 ADD DUP2 ADD MLOAD CALLER PUSH1 0x0 SWAP1 DUP2 MSTORE PUSH1 0x19 SWAP1 SWAP3 MSTORE PUSH1 0x40 SWAP1 SWAP2 KECCAK256 SLOAD PUSH1 0x1 PUSH1 0x1 PUSH1 0xA0 SHL SUB SWAP1 DUP2 AND SWAP2 AND EQ ISZERO JUMPDEST DUP1 ISZERO PUSH2 0x2350 JUMPI POP PUSH1 0x18 PUSH1 0x0 DUP4 DUP4 DUP2 MLOAD DUP2 LT PUSH2 0x2327 JUMPI PUSH2 0x2327 PUSH2 0x4967 JUMP JUMPDEST PUSH1 0x20 SWAP1 DUP2 MUL SWAP2 SWAP1 SWAP2 ADD DUP2 ADD MLOAD PUSH1 0x1 PUSH1 0x1 PUSH1 0xA0 SHL SUB AND DUP3 MSTORE DUP2 ADD SWAP2 SWAP1 SWAP2 MSTORE PUSH1 0x40 ADD PUSH1 0x0 KECCAK256 SLOAD PUSH1 0xFF AND ISZERO JUMPDEST ISZERO PUSH2 0x2483 JUMPI CALLER PUSH1 0x19 PUSH1 0x0 DUP5 DUP5 DUP2 MLOAD DUP2 LT PUSH2 0x236C JUMPI PUSH2 0x236C PUSH2 0x4967 JUMP JUMPDEST PUSH1 0x20 MUL PUSH1 0x20 ADD ADD MLOAD PUSH1 0x1 PUSH1 0x1 PUSH1 0xA0 SHL SUB AND PUSH1 0x1 PUSH1 0x1 PUSH1 0xA0 SHL SUB AND DUP2 MSTORE PUSH1 0x20 ADD SWAP1 DUP2 MSTORE PUSH1 0x20 ADD PUSH1 0x0 KECCAK256 PUSH1 0x0 PUSH2 0x100 EXP DUP2 SLOAD DUP2 PUSH1 0x1 PUSH1 0x1 PUSH1 0xA0 SHL SUB MUL NOT AND SWAP1 DUP4 PUSH1 0x1 PUSH1 0x1 PUSH1 0xA0 SHL SUB AND MUL OR SWAP1 SSTORE POP PUSH1 0x1A PUSH1 0x0 CALLER PUSH1 0x1 PUSH1 0x1 PUSH1 0xA0 SHL SUB AND PUSH1 0x1 PUSH1 0x1 PUSH1 0xA0 SHL SUB AND DUP2 MSTORE PUSH1 0x20 ADD SWAP1 DUP2 MSTORE PUSH1 0x20 ADD PUSH1 0x0 KECCAK256 DUP3 DUP3 DUP2 MLOAD DUP2 LT PUSH2 0x23EF JUMPI PUSH2 0x23EF PUSH2 0x4967 JUMP JUMPDEST PUSH1 0x20 SWAP1 DUP2 MUL SWAP2 SWAP1 SWAP2 ADD DUP2 ADD MLOAD DUP3 SLOAD PUSH1 0x1 DUP1 DUP3 ADD DUP6 SSTORE PUSH1 0x0 SWAP5 DUP6 MSTORE SWAP3 DUP5 KECCAK256 ADD DUP1 SLOAD PUSH1 0x1 PUSH1 0x1 PUSH1 0xA0 SHL SUB NOT AND PUSH1 0x1 PUSH1 0x1 PUSH1 0xA0 SHL SUB SWAP1 SWAP3 AND SWAP2 SWAP1 SWAP2 OR SWAP1 SSTORE DUP4 MLOAD SWAP1 SWAP2 PUSH1 0x18 SWAP2 DUP6 SWAP1 DUP6 SWAP1 DUP2 LT PUSH2 0x2443 JUMPI PUSH2 0x2443 PUSH2 0x4967 JUMP JUMPDEST PUSH1 0x20 MUL PUSH1 0x20 ADD ADD MLOAD PUSH1 0x1 PUSH1 0x1 PUSH1 0xA0 SHL SUB AND PUSH1 0x1 PUSH1 0x1 PUSH1 0xA0 SHL SUB AND DUP2 MSTORE PUSH1 0x20 ADD SWAP1 DUP2 MSTORE PUSH1 0x20 ADD PUSH1 0x0 KECCAK256 PUSH1 0x0 PUSH2 0x100 EXP DUP2 SLOAD DUP2 PUSH1 0xFF MUL NOT AND SWAP1 DUP4 ISZERO ISZERO MUL OR SWAP1 SSTORE POP JUMPDEST PUSH1 0x0 PUSH1 0x40 MLOAD DUP1 PUSH1 0x60 ADD PUSH1 0x40 MSTORE DUP1 PUSH2 0x24A5 DUP6 DUP6 DUP2 MLOAD DUP2 LT PUSH2 0x1501 JUMPI PUSH2 0x1501 PUSH2 0x4967 JUMP JUMPDEST DUP2 MSTORE PUSH1 0x20 ADD PUSH2 0x24BF DUP6 DUP6 DUP2 MLOAD DUP2 LT PUSH2 0x1523 JUMPI PUSH2 0x1523 PUSH2 0x4967 JUMP JUMPDEST DUP2 MSTORE PUSH1 0x20 ADD DUP5 DUP5 DUP2 MLOAD DUP2 LT PUSH2 0x24D6 JUMPI PUSH2 0x24D6 PUSH2 0x4967 JUMP JUMPDEST PUSH1 0x20 SWAP1 DUP2 MUL SWAP2 SWAP1 SWAP2 ADD DUP2 ADD MLOAD PUSH1 0x1 PUSH1 0x1 PUSH1 0xA0 SHL SUB AND SWAP1 SWAP2 MSTORE CALLER PUSH1 0x0 SWAP1 DUP2 MSTORE PUSH1 0x13 DUP3 MSTORE PUSH1 0x40 DUP2 KECCAK256 DUP1 SLOAD PUSH1 0x1 DUP2 DUP2 ADD DUP4 SSTORE SWAP2 DUP4 MSTORE SWAP2 DUP4 SWAP1 KECCAK256 DUP5 MLOAD PUSH1 0x3 SWAP1 SWAP4 MUL ADD SWAP2 DUP3 SSTORE SWAP2 DUP4 ADD MLOAD SWAP3 SWAP4 POP DUP4 SWAP3 SWAP1 SWAP2 DUP3 ADD SWAP1 PUSH2 0x252F SWAP1 DUP3 PUSH2 0x4D16 JUMP JUMPDEST POP PUSH1 0x40 SWAP2 SWAP1 SWAP2 ADD MLOAD PUSH1 0x2 SWAP1 SWAP2 ADD DUP1 SLOAD PUSH1 0x1 PUSH1 0x1 PUSH1 0xA0 SHL SUB NOT AND PUSH1 0x1 PUSH1 0x1 PUSH1 0xA0 SHL SUB SWAP1 SWAP3 AND SWAP2 SWAP1 SWAP2 OR SWAP1 SSTORE PUSH1 0x12 DUP1 SLOAD PUSH1 0x1 DUP2 ADD DUP3 SSTORE PUSH1 0x0 SWAP2 SWAP1 SWAP2 MSTORE DUP2 MLOAD PUSH32 0xBB8A6A4669BA250D26CD7A459ECA9D215F8307E33AEBE50379BC5A3617EC3444 PUSH1 0x3 SWAP1 SWAP3 MUL SWAP2 DUP3 ADD SWAP1 DUP2 SSTORE PUSH1 0x20 DUP4 ADD MLOAD DUP4 SWAP3 PUSH32 0xBB8A6A4669BA250D26CD7A459ECA9D215F8307E33AEBE50379BC5A3617EC3445 ADD SWAP1 PUSH2 0x25CB SWAP1 DUP3 PUSH2 0x4D16 JUMP JUMPDEST POP PUSH1 0x40 DUP3 ADD MLOAD DUP2 PUSH1 0x2 ADD PUSH1 0x0 PUSH2 0x100 EXP DUP2 SLOAD DUP2 PUSH1 0x1 PUSH1 0x1 PUSH1 0xA0 SHL SUB MUL NOT AND SWAP1 DUP4 PUSH1 0x1 PUSH1 0x1 PUSH1 0xA0 SHL SUB AND MUL OR SWAP1 SSTORE POP POP POP PUSH1 0x1 PUSH1 0x16 PUSH1 0x0 DUP6 DUP6 DUP2 MLOAD DUP2 LT PUSH2 0x2613 JUMPI PUSH2 0x2613 PUSH2 0x4967 JUMP JUMPDEST PUSH1 0x20 MUL PUSH1 0x20 ADD ADD MLOAD PUSH1 0x1 PUSH1 0x1 PUSH1 0xA0 SHL SUB AND PUSH1 0x1 PUSH1 0x1 PUSH1 0xA0 SHL SUB AND DUP2 MSTORE PUSH1 0x20 ADD SWAP1 DUP2 MSTORE PUSH1 0x20 ADD PUSH1 0x0 KECCAK256 PUSH1 0x0 PUSH2 0x100 EXP DUP2 SLOAD DUP2 PUSH1 0xFF MUL NOT AND SWAP1 DUP4 ISZERO ISZERO MUL OR SWAP1 SSTORE POP PUSH32 0xEA80F1D34E95EEE6184BF5595BE0F970AFBEA2D7E34337DC6FBA2CC19C65B9CF PUSH2 0x2688 DUP5 DUP5 DUP2 MLOAD DUP2 LT PUSH2 0x1501 JUMPI PUSH2 0x1501 PUSH2 0x4967 JUMP JUMPDEST PUSH2 0x269D DUP6 DUP6 DUP2 MLOAD DUP2 LT PUSH2 0x1523 JUMPI PUSH2 0x1523 PUSH2 0x4967 JUMP JUMPDEST DUP6 DUP6 DUP2 MLOAD DUP2 LT PUSH2 0x26AF JUMPI PUSH2 0x26AF PUSH2 0x4967 JUMP JUMPDEST PUSH1 0x20 MUL PUSH1 0x20 ADD ADD MLOAD PUSH1 0x40 MLOAD PUSH2 0x26C6 SWAP4 SWAP3 SWAP2 SWAP1 PUSH2 0x4844 JUMP JUMPDEST PUSH1 0x40 MLOAD DUP1 SWAP2 SUB SWAP1 LOG1 POP DUP1 PUSH2 0x26D9 DUP2 PUSH2 0x4A24 JUMP JUMPDEST SWAP2 POP POP PUSH2 0x2121 JUMP JUMPDEST PUSH1 0x3 SLOAD PUSH1 0x40 MLOAD PUSH4 0xA483F561 PUSH1 0xE0 SHL DUP2 MSTORE PUSH1 0x1 PUSH1 0x1 PUSH1 0xA0 SHL SUB DUP4 DUP2 AND PUSH1 0x4 DUP4 ADD MSTORE PUSH1 0x60 SWAP3 AND SWAP1 PUSH4 0xA483F561 SWAP1 PUSH1 0x24 ADD PUSH1 0x20 PUSH1 0x40 MLOAD DUP1 DUP4 SUB DUP2 DUP7 GAS STATICCALL ISZERO DUP1 ISZERO PUSH2 0x272C JUMPI RETURNDATASIZE PUSH1 0x0 DUP1 RETURNDATACOPY RETURNDATASIZE PUSH1 0x0 REVERT JUMPDEST POP POP POP POP PUSH1 0x40 MLOAD RETURNDATASIZE PUSH1 0x1F NOT PUSH1 0x1F DUP3 ADD AND DUP3 ADD DUP1 PUSH1 0x40 MSTORE POP DUP2 ADD SWAP1 PUSH2 0x2750 SWAP2 SWAP1 PUSH2 0x497D JUMP JUMPDEST ISZERO PUSH2 0x27D1 JUMPI PUSH1 0x3 SLOAD PUSH1 0x40 MLOAD PUSH4 0x6386C1C7 PUSH1 0xE0 SHL DUP2 MSTORE PUSH1 0x1 PUSH1 0x1 PUSH1 0xA0 SHL SUB DUP5 DUP2 AND PUSH1 0x4 DUP4 ADD MSTORE SWAP1 SWAP2 AND SWAP1 PUSH4 0x6386C1C7 SWAP1 PUSH1 0x24 ADD PUSH1 0x0 PUSH1 0x40 MLOAD DUP1 DUP4 SUB DUP2 DUP7 GAS STATICCALL ISZERO DUP1 ISZERO PUSH2 0x279F JUMPI RETURNDATASIZE PUSH1 0x0 DUP1 RETURNDATACOPY RETURNDATASIZE PUSH1 0x0 REVERT JUMPDEST POP POP POP POP PUSH1 0x40 MLOAD RETURNDATASIZE PUSH1 0x0 DUP3 RETURNDATACOPY PUSH1 0x1F RETURNDATASIZE SWAP1 DUP2 ADD PUSH1 0x1F NOT AND DUP3 ADD PUSH1 0x40 MSTORE PUSH2 0x27C7 SWAP2 SWAP1 DUP2 ADD SWAP1 PUSH2 0x4C10 JUMP JUMPDEST PUSH1 0x40 ADD MLOAD SWAP3 SWAP2 POP POP JUMP JUMPDEST POP POP PUSH1 0x40 DUP1 MLOAD DUP1 DUP3 ADD SWAP1 SWAP2 MSTORE PUSH1 0x9 DUP2 MSTORE PUSH9 0x616E6F6E796D6F7573 PUSH1 0xB8 SHL PUSH1 0x20 DUP3 ADD MSTORE SWAP1 JUMP JUMPDEST PUSH1 0xE DUP2 DUP2 SLOAD DUP2 LT PUSH2 0xF40 JUMPI PUSH1 0x0 DUP1 REVERT JUMPDEST PUSH1 0x0 DUP1 DUP1 DUP1 JUMPDEST PUSH1 0x11 SLOAD DUP2 LT ISZERO PUSH2 0x2853 JUMPI PUSH1 0x11 DUP2 DUP2 SLOAD DUP2 LT PUSH2 0x2829 JUMPI PUSH2 0x2829 PUSH2 0x4967 JUMP JUMPDEST SWAP1 PUSH1 0x0 MSTORE PUSH1 0x20 PUSH1 0x0 KECCAK256 ADD SLOAD DUP4 PUSH2 0x283F SWAP2 SWAP1 PUSH2 0x4DD6 JUMP JUMPDEST SWAP3 POP DUP1 PUSH2 0x284B DUP2 PUSH2 0x4A24 JUMP JUMPDEST SWAP2 POP POP PUSH2 0x280C JUMP JUMPDEST POP PUSH1 0x0 JUMPDEST PUSH1 0xA SLOAD DUP2 LT ISZERO PUSH2 0x289E JUMPI PUSH1 0xA DUP2 DUP2 SLOAD DUP2 LT PUSH2 0x2874 JUMPI PUSH2 0x2874 PUSH2 0x4967 JUMP JUMPDEST SWAP1 PUSH1 0x0 MSTORE PUSH1 0x20 PUSH1 0x0 KECCAK256 ADD SLOAD DUP3 PUSH2 0x288A SWAP2 SWAP1 PUSH2 0x4DD6 JUMP JUMPDEST SWAP2 POP DUP1 PUSH2 0x2896 DUP2 PUSH2 0x4A24 JUMP JUMPDEST SWAP2 POP POP PUSH2 0x2857 JUMP JUMPDEST POP PUSH2 0x28A9 DUP2 DUP4 PUSH2 0x4DD6 JUMP JUMPDEST SWAP3 POP POP POP SWAP1 JUMP JUMPDEST PUSH1 0x10 DUP2 DUP2 SLOAD DUP2 LT PUSH2 0xF40 JUMPI PUSH1 0x0 DUP1 REVERT JUMPDEST PUSH2 0x28C8 PUSH2 0x3CD0 JUMP JUMPDEST PUSH2 0x1BF1 PUSH1 0x0 PUSH2 0x3ED0 JUMP JUMPDEST PUSH2 0x28DA PUSH2 0x3CD0 JUMP JUMPDEST PUSH2 0x1BF1 PUSH2 0x3F20 JUMP JUMPDEST PUSH1 0xA DUP2 DUP2 SLOAD DUP2 LT PUSH2 0x2038 JUMPI PUSH1 0x0 DUP1 REVERT JUMPDEST PUSH1 0x0 PUSH1 0x4 SLOAD PUSH3 0x186A0 PUSH2 0x2903 PUSH2 0x19DC JUMP JUMPDEST PUSH2 0x290D SWAP1 DUP6 PUSH2 0x4AB8 JUMP JUMPDEST PUSH2 0x2917 SWAP2 SWAP1 PUSH2 0x4A96 JUMP JUMPDEST PUSH2 0x1E49 SWAP2 SWAP1 PUSH2 0x4A96 JUMP JUMPDEST PUSH2 0x2929 PUSH2 0x3CD0 JUMP JUMPDEST PUSH1 0x8 SSTORE JUMP JUMPDEST PUSH2 0x2936 PUSH2 0x3CD0 JUMP JUMPDEST DUP1 PUSH1 0xA DUP4 DUP2 SLOAD DUP2 LT PUSH2 0x1DBB JUMPI PUSH2 0x1DBB PUSH2 0x4967 JUMP JUMPDEST PUSH2 0x2952 PUSH2 0x3CD0 JUMP JUMPDEST PUSH1 0x1 DUP1 SLOAD PUSH1 0xFF PUSH1 0xA0 SHL NOT DUP2 AND PUSH1 0x1 PUSH1 0xA0 SHL SWAP2 DUP3 SWAP1 DIV PUSH1 0xFF AND ISZERO SWAP1 SWAP2 MUL OR SWAP1 SSTORE JUMP JUMPDEST PUSH2 0x297B PUSH2 0x3CD0 JUMP JUMPDEST PUSH1 0x5 SLOAD CALLER PUSH1 0x0 SWAP1 DUP2 MSTORE PUSH1 0x1B PUSH1 0x20 MSTORE PUSH1 0x40 SWAP1 KECCAK256 SLOAD LT PUSH2 0x29AB JUMPI PUSH1 0x40 MLOAD PUSH3 0x461BCD PUSH1 0xE5 SHL DUP2 MSTORE PUSH1 0x4 ADD PUSH2 0xFC1 SWAP1 PUSH2 0x4924 JUMP JUMPDEST PUSH1 0x0 JUMPDEST DUP2 MLOAD DUP2 LT ISZERO PUSH2 0x1573 JUMPI PUSH1 0x1 SLOAD PUSH1 0x1 PUSH1 0xA8 SHL SWAP1 DIV PUSH1 0xFF AND ISZERO PUSH2 0x2A82 JUMPI PUSH1 0x3 SLOAD DUP3 MLOAD PUSH1 0x1 PUSH1 0x1 PUSH1 0xA0 SHL SUB SWAP1 SWAP2 AND SWAP1 PUSH4 0xA483F561 SWAP1 DUP5 SWAP1 DUP5 SWAP1 DUP2 LT PUSH2 0x29F2 JUMPI PUSH2 0x29F2 PUSH2 0x4967 JUMP JUMPDEST PUSH1 0x20 MUL PUSH1 0x20 ADD ADD MLOAD PUSH1 0x40 MLOAD DUP3 PUSH4 0xFFFFFFFF AND PUSH1 0xE0 SHL DUP2 MSTORE PUSH1 0x4 ADD PUSH2 0x2A25 SWAP2 SWAP1 PUSH1 0x1 PUSH1 0x1 PUSH1 0xA0 SHL SUB SWAP2 SWAP1 SWAP2 AND DUP2 MSTORE PUSH1 0x20 ADD SWAP1 JUMP JUMPDEST PUSH1 0x20 PUSH1 0x40 MLOAD DUP1 DUP4 SUB DUP2 DUP7 GAS STATICCALL ISZERO DUP1 ISZERO PUSH2 0x2A42 JUMPI RETURNDATASIZE PUSH1 0x0 DUP1 RETURNDATACOPY RETURNDATASIZE PUSH1 0x0 REVERT JUMPDEST POP POP POP POP PUSH1 0x40 MLOAD RETURNDATASIZE PUSH1 0x1F NOT PUSH1 0x1F DUP3 ADD AND DUP3 ADD DUP1 PUSH1 0x40 MSTORE POP DUP2 ADD SWAP1 PUSH2 0x2A66 SWAP2 SWAP1 PUSH2 0x497D JUMP JUMPDEST PUSH2 0x2A82 JUMPI PUSH1 0x40 MLOAD PUSH3 0x461BCD PUSH1 0xE5 SHL DUP2 MSTORE PUSH1 0x4 ADD PUSH2 0xFC1 SWAP1 PUSH2 0x499F JUMP JUMPDEST PUSH2 0x2AA4 DUP3 DUP3 DUP2 MLOAD DUP2 LT PUSH2 0x2A97 JUMPI PUSH2 0x2A97 PUSH2 0x4967 JUMP JUMPDEST PUSH1 0x20 MUL PUSH1 0x20 ADD ADD MLOAD PUSH2 0x3F63 JUMP JUMPDEST PUSH2 0x2B0F JUMPI PUSH1 0x40 MLOAD PUSH3 0x461BCD PUSH1 0xE5 SHL DUP2 MSTORE PUSH1 0x20 PUSH1 0x4 DUP3 ADD MSTORE PUSH1 0x36 PUSH1 0x24 DUP3 ADD MSTORE PUSH32 0x54686973206164647265737320697320616C726561647920616E2061646D696E PUSH1 0x44 DUP3 ADD MSTORE PUSH22 0x6973747261746F7220666F72206C6576656C2074776F PUSH1 0x50 SHL PUSH1 0x64 DUP3 ADD MSTORE PUSH1 0x84 ADD PUSH2 0xFC1 JUMP JUMPDEST PUSH1 0x18 PUSH1 0x0 DUP4 DUP4 DUP2 MLOAD DUP2 LT PUSH2 0x2B25 JUMPI PUSH2 0x2B25 PUSH2 0x4967 JUMP JUMPDEST PUSH1 0x20 SWAP1 DUP2 MUL SWAP2 SWAP1 SWAP2 ADD DUP2 ADD MLOAD PUSH1 0x1 PUSH1 0x1 PUSH1 0xA0 SHL SUB AND DUP3 MSTORE DUP2 ADD SWAP2 SWAP1 SWAP2 MSTORE PUSH1 0x40 ADD PUSH1 0x0 KECCAK256 SLOAD PUSH1 0xFF AND ISZERO PUSH2 0x2BA7 JUMPI PUSH1 0x40 MLOAD PUSH3 0x461BCD PUSH1 0xE5 SHL DUP2 MSTORE PUSH1 0x20 PUSH1 0x4 DUP3 ADD MSTORE PUSH1 0x25 PUSH1 0x24 DUP3 ADD MSTORE PUSH32 0x5468697320616464726573732068617320616C7265616479206265656E20696E PUSH1 0x44 DUP3 ADD MSTORE PUSH5 0x1D9A5D1959 PUSH1 0xDA SHL PUSH1 0x64 DUP3 ADD MSTORE PUSH1 0x84 ADD PUSH2 0xFC1 JUMP JUMPDEST PUSH1 0x0 PUSH1 0x1 PUSH1 0x1 PUSH1 0xA0 SHL SUB AND PUSH1 0x19 PUSH1 0x0 DUP5 DUP5 DUP2 MLOAD DUP2 LT PUSH2 0x2BC8 JUMPI PUSH2 0x2BC8 PUSH2 0x4967 JUMP JUMPDEST PUSH1 0x20 SWAP1 DUP2 MUL SWAP2 SWAP1 SWAP2 ADD DUP2 ADD MLOAD PUSH1 0x1 PUSH1 0x1 PUSH1 0xA0 SHL SUB SWAP1 DUP2 AND DUP4 MSTORE SWAP1 DUP3 ADD SWAP3 SWAP1 SWAP3 MSTORE PUSH1 0x40 ADD PUSH1 0x0 KECCAK256 SLOAD AND EQ DUP1 ISZERO PUSH2 0x2C37 JUMPI POP DUP2 DUP2 DUP2 MLOAD DUP2 LT PUSH2 0x2C0A JUMPI PUSH2 0x2C0A PUSH2 0x4967 JUMP JUMPDEST PUSH1 0x20 SWAP1 DUP2 MUL SWAP2 SWAP1 SWAP2 ADD DUP2 ADD MLOAD CALLER PUSH1 0x0 SWAP1 DUP2 MSTORE PUSH1 0x19 SWAP1 SWAP3 MSTORE PUSH1 0x40 SWAP1 SWAP2 KECCAK256 SLOAD PUSH1 0x1 PUSH1 0x1 PUSH1 0xA0 SHL SUB SWAP1 DUP2 AND SWAP2 AND EQ ISZERO JUMPDEST DUP1 ISZERO PUSH2 0x2C7D JUMPI POP PUSH1 0x18 PUSH1 0x0 DUP4 DUP4 DUP2 MLOAD DUP2 LT PUSH2 0x2C54 JUMPI PUSH2 0x2C54 PUSH2 0x4967 JUMP JUMPDEST PUSH1 0x20 SWAP1 DUP2 MUL SWAP2 SWAP1 SWAP2 ADD DUP2 ADD MLOAD PUSH1 0x1 PUSH1 0x1 PUSH1 0xA0 SHL SUB AND DUP3 MSTORE DUP2 ADD SWAP2 SWAP1 SWAP2 MSTORE PUSH1 0x40 ADD PUSH1 0x0 KECCAK256 SLOAD PUSH1 0xFF AND ISZERO JUMPDEST ISZERO PUSH2 0x2DB0 JUMPI CALLER PUSH1 0x19 PUSH1 0x0 DUP5 DUP5 DUP2 MLOAD DUP2 LT PUSH2 0x2C99 JUMPI PUSH2 0x2C99 PUSH2 0x4967 JUMP JUMPDEST PUSH1 0x20 MUL PUSH1 0x20 ADD ADD MLOAD PUSH1 0x1 PUSH1 0x1 PUSH1 0xA0 SHL SUB AND PUSH1 0x1 PUSH1 0x1 PUSH1 0xA0 SHL SUB AND DUP2 MSTORE PUSH1 0x20 ADD SWAP1 DUP2 MSTORE PUSH1 0x20 ADD PUSH1 0x0 KECCAK256 PUSH1 0x0 PUSH2 0x100 EXP DUP2 SLOAD DUP2 PUSH1 0x1 PUSH1 0x1 PUSH1 0xA0 SHL SUB MUL NOT AND SWAP1 DUP4 PUSH1 0x1 PUSH1 0x1 PUSH1 0xA0 SHL SUB AND MUL OR SWAP1 SSTORE POP PUSH1 0x1A PUSH1 0x0 CALLER PUSH1 0x1 PUSH1 0x1 PUSH1 0xA0 SHL SUB AND PUSH1 0x1 PUSH1 0x1 PUSH1 0xA0 SHL SUB AND DUP2 MSTORE PUSH1 0x20 ADD SWAP1 DUP2 MSTORE PUSH1 0x20 ADD PUSH1 0x0 KECCAK256 DUP3 DUP3 DUP2 MLOAD DUP2 LT PUSH2 0x2D1C JUMPI PUSH2 0x2D1C PUSH2 0x4967 JUMP JUMPDEST PUSH1 0x20 SWAP1 DUP2 MUL SWAP2 SWAP1 SWAP2 ADD DUP2 ADD MLOAD DUP3 SLOAD PUSH1 0x1 DUP1 DUP3 ADD DUP6 SSTORE PUSH1 0x0 SWAP5 DUP6 MSTORE SWAP3 DUP5 KECCAK256 ADD DUP1 SLOAD PUSH1 0x1 PUSH1 0x1 PUSH1 0xA0 SHL SUB NOT AND PUSH1 0x1 PUSH1 0x1 PUSH1 0xA0 SHL SUB SWAP1 SWAP3 AND SWAP2 SWAP1 SWAP2 OR SWAP1 SSTORE DUP4 MLOAD SWAP1 SWAP2 PUSH1 0x18 SWAP2 DUP6 SWAP1 DUP6 SWAP1 DUP2 LT PUSH2 0x2D70 JUMPI PUSH2 0x2D70 PUSH2 0x4967 JUMP JUMPDEST PUSH1 0x20 MUL PUSH1 0x20 ADD ADD MLOAD PUSH1 0x1 PUSH1 0x1 PUSH1 0xA0 SHL SUB AND PUSH1 0x1 PUSH1 0x1 PUSH1 0xA0 SHL SUB AND DUP2 MSTORE PUSH1 0x20 ADD SWAP1 DUP2 MSTORE PUSH1 0x20 ADD PUSH1 0x0 KECCAK256 PUSH1 0x0 PUSH2 0x100 EXP DUP2 SLOAD DUP2 PUSH1 0xFF MUL NOT AND SWAP1 DUP4 ISZERO ISZERO MUL OR SWAP1 SSTORE POP JUMPDEST PUSH1 0x1 PUSH1 0x14 PUSH1 0x0 DUP5 DUP5 DUP2 MLOAD DUP2 LT PUSH2 0x2DC8 JUMPI PUSH2 0x2DC8 PUSH2 0x4967 JUMP JUMPDEST PUSH1 0x20 MUL PUSH1 0x20 ADD ADD MLOAD PUSH1 0x1 PUSH1 0x1 PUSH1 0xA0 SHL SUB AND PUSH1 0x1 PUSH1 0x1 PUSH1 0xA0 SHL SUB AND DUP2 MSTORE PUSH1 0x20 ADD SWAP1 DUP2 MSTORE PUSH1 0x20 ADD PUSH1 0x0 KECCAK256 PUSH1 0x0 PUSH2 0x100 EXP DUP2 SLOAD DUP2 PUSH1 0xFF MUL NOT AND SWAP1 DUP4 ISZERO ISZERO MUL OR SWAP1 SSTORE POP PUSH1 0xF DUP3 DUP3 DUP2 MLOAD DUP2 LT PUSH2 0x2E1B JUMPI PUSH2 0x2E1B PUSH2 0x4967 JUMP JUMPDEST PUSH1 0x20 SWAP1 DUP2 MUL SWAP2 SWAP1 SWAP2 ADD DUP2 ADD MLOAD DUP3 SLOAD PUSH1 0x1 DUP2 ADD DUP5 SSTORE PUSH1 0x0 SWAP4 DUP5 MSTORE DUP3 DUP5 KECCAK256 ADD DUP1 SLOAD PUSH1 0x1 PUSH1 0x1 PUSH1 0xA0 SHL SUB NOT AND PUSH1 0x1 PUSH1 0x1 PUSH1 0xA0 SHL SUB SWAP1 SWAP3 AND SWAP2 SWAP1 SWAP2 OR SWAP1 SSTORE CALLER DUP3 MSTORE PUSH1 0x1B SWAP1 MSTORE PUSH1 0x40 SWAP1 KECCAK256 DUP3 MLOAD DUP4 SWAP1 DUP4 SWAP1 DUP2 LT PUSH2 0x2E74 JUMPI PUSH2 0x2E74 PUSH2 0x4967 JUMP JUMPDEST PUSH1 0x20 SWAP1 DUP2 MUL SWAP2 SWAP1 SWAP2 ADD DUP2 ADD MLOAD DUP3 SLOAD PUSH1 0x1 DUP2 ADD DUP5 SSTORE PUSH1 0x0 SWAP4 DUP5 MSTORE SWAP2 SWAP1 SWAP3 KECCAK256 ADD DUP1 SLOAD PUSH1 0x1 PUSH1 0x1 PUSH1 0xA0 SHL SUB NOT AND PUSH1 0x1 PUSH1 0x1 PUSH1 0xA0 SHL SUB SWAP1 SWAP3 AND SWAP2 SWAP1 SWAP2 OR SWAP1 SSTORE DUP2 MLOAD PUSH32 0x9BD08799798ADB11C5ABD5773AF5F9FFEE372070D77D5A9C9B76BCE04819FB18 SWAP1 PUSH2 0x2EE9 SWAP1 DUP5 SWAP1 DUP5 SWAP1 DUP2 LT PUSH2 0x1501 JUMPI PUSH2 0x1501 PUSH2 0x4967 JUMP JUMPDEST PUSH2 0x2EFE DUP5 DUP5 DUP2 MLOAD DUP2 LT PUSH2 0x1523 JUMPI PUSH2 0x1523 PUSH2 0x4967 JUMP JUMPDEST DUP5 DUP5 DUP2 MLOAD DUP2 LT PUSH2 0x2F10 JUMPI PUSH2 0x2F10 PUSH2 0x4967 JUMP JUMPDEST PUSH1 0x20 MUL PUSH1 0x20 ADD ADD MLOAD PUSH1 0x40 MLOAD PUSH2 0x2F27 SWAP4 SWAP3 SWAP2 SWAP1 PUSH2 0x4844 JUMP JUMPDEST PUSH1 0x40 MLOAD DUP1 SWAP2 SUB SWAP1 LOG1 DUP1 PUSH2 0x2F39 DUP2 PUSH2 0x4A24 JUMP JUMPDEST SWAP2 POP POP PUSH2 0x29AE JUMP JUMPDEST PUSH2 0x2F49 PUSH2 0x3CD0 JUMP JUMPDEST PUSH1 0x9 SSTORE JUMP JUMPDEST PUSH2 0x2F56 PUSH2 0x3CD0 JUMP JUMPDEST PUSH1 0x2 DUP1 SLOAD PUSH1 0x1 PUSH1 0x1 PUSH1 0xA0 SHL SUB NOT AND PUSH1 0x1 PUSH1 0x1 PUSH1 0xA0 SHL SUB SWAP3 SWAP1 SWAP3 AND SWAP2 SWAP1 SWAP2 OR SWAP1 SSTORE JUMP JUMPDEST PUSH2 0x2F80 PUSH2 0x3CD0 JUMP JUMPDEST PUSH1 0x0 JUMPDEST DUP2 MLOAD DUP2 LT ISZERO PUSH2 0x1573 JUMPI PUSH1 0xE DUP3 DUP3 DUP2 MLOAD DUP2 LT PUSH2 0x2FA0 JUMPI PUSH2 0x2FA0 PUSH2 0x4967 JUMP JUMPDEST PUSH1 0x20 SWAP1 DUP2 MUL SWAP2 SWAP1 SWAP2 ADD DUP2 ADD MLOAD DUP3 SLOAD PUSH1 0x1 DUP2 ADD DUP5 SSTORE PUSH1 0x0 SWAP4 DUP5 MSTORE SWAP2 SWAP1 SWAP3 KECCAK256 ADD DUP1 SLOAD PUSH1 0x1 PUSH1 0x1 PUSH1 0xA0 SHL SUB NOT AND PUSH1 0x1 PUSH1 0x1 PUSH1 0xA0 SHL SUB SWAP1 SWAP3 AND SWAP2 SWAP1 SWAP2 OR SWAP1 SSTORE DUP1 PUSH2 0x2FE5 DUP2 PUSH2 0x4A24 JUMP JUMPDEST SWAP2 POP POP PUSH2 0x2F83 JUMP JUMPDEST PUSH2 0x2FF5 PUSH2 0x3CD0 JUMP JUMPDEST PUSH1 0xD DUP1 SLOAD PUSH1 0x1 DUP2 ADD DUP3 SSTORE PUSH1 0x0 SWAP2 SWAP1 SWAP2 MSTORE PUSH32 0xD7B6990105719101DABEB77144F2A3385C8033ACD3AF97E9423A695E81AD1EB5 ADD SSTORE JUMP JUMPDEST PUSH2 0x3032 PUSH2 0x3CD0 JUMP JUMPDEST PUSH1 0x11 DUP1 SLOAD PUSH2 0x3042 SWAP1 PUSH1 0x1 SWAP1 PUSH2 0x4ACF JUMP JUMPDEST DUP2 SLOAD DUP2 LT PUSH2 0x3052 JUMPI PUSH2 0x3052 PUSH2 0x4967 JUMP JUMPDEST SWAP1 PUSH1 0x0 MSTORE PUSH1 0x20 PUSH1 0x0 KECCAK256 ADD SLOAD PUSH1 0x11 DUP3 DUP2 SLOAD DUP2 LT PUSH2 0x3070 JUMPI PUSH2 0x3070 PUSH2 0x4967 JUMP JUMPDEST PUSH1 0x0 SWAP2 DUP3 MSTORE PUSH1 0x20 SWAP1 SWAP2 KECCAK256 ADD SSTORE PUSH1 0x11 DUP1 SLOAD DUP1 PUSH2 0x308D JUMPI PUSH2 0x308D PUSH2 0x4A80 JUMP JUMPDEST PUSH1 0x1 SWAP1 SUB DUP2 DUP2 SWAP1 PUSH1 0x0 MSTORE PUSH1 0x20 PUSH1 0x0 KECCAK256 ADD PUSH1 0x0 SWAP1 SSTORE SWAP1 SSTORE POP JUMP JUMPDEST PUSH1 0x11 DUP2 DUP2 SLOAD DUP2 LT PUSH2 0x2038 JUMPI PUSH1 0x0 DUP1 REVERT JUMPDEST PUSH2 0x30BE PUSH2 0x3CD0 JUMP JUMPDEST PUSH1 0x1 PUSH1 0x1 PUSH1 0xA0 SHL SUB DUP2 AND PUSH1 0x0 SWAP1 DUP2 MSTORE PUSH1 0x14 PUSH1 0x20 MSTORE PUSH1 0x40 SWAP1 KECCAK256 SLOAD PUSH1 0xFF AND PUSH2 0x30F6 JUMPI PUSH1 0x40 MLOAD PUSH3 0x461BCD PUSH1 0xE5 SHL DUP2 MSTORE PUSH1 0x4 ADD PUSH2 0xFC1 SWAP1 PUSH2 0x48DA JUMP JUMPDEST PUSH1 0x0 DUP1 JUMPDEST PUSH1 0xF SLOAD DUP2 LT ISZERO PUSH2 0x3155 JUMPI DUP3 PUSH1 0x1 PUSH1 0x1 PUSH1 0xA0 SHL SUB AND PUSH1 0xF DUP3 DUP2 SLOAD DUP2 LT PUSH2 0x3121 JUMPI PUSH2 0x3121 PUSH2 0x4967 JUMP JUMPDEST PUSH1 0x0 SWAP2 DUP3 MSTORE PUSH1 0x20 SWAP1 SWAP2 KECCAK256 ADD SLOAD PUSH1 0x1 PUSH1 0x1 PUSH1 0xA0 SHL SUB AND SUB PUSH2 0x3143 JUMPI DUP1 SWAP2 POP PUSH2 0x3155 JUMP JUMPDEST DUP1 PUSH2 0x314D DUP2 PUSH2 0x4A24 JUMP JUMPDEST SWAP2 POP POP PUSH2 0x30FA JUMP JUMPDEST POP PUSH1 0xF DUP1 SLOAD PUSH2 0x3166 SWAP1 PUSH1 0x1 SWAP1 PUSH2 0x4ACF JUMP JUMPDEST DUP2 SLOAD DUP2 LT PUSH2 0x3176 JUMPI PUSH2 0x3176 PUSH2 0x4967 JUMP JUMPDEST PUSH1 0x0 SWAP2 DUP3 MSTORE PUSH1 0x20 SWAP1 SWAP2 KECCAK256 ADD SLOAD PUSH1 0xF DUP1 SLOAD PUSH1 0x1 PUSH1 0x1 PUSH1 0xA0 SHL SUB SWAP1 SWAP3 AND SWAP2 DUP4 SWAP1 DUP2 LT PUSH2 0x31A2 JUMPI PUSH2 0x31A2 PUSH2 0x4967 JUMP JUMPDEST SWAP1 PUSH1 0x0 MSTORE PUSH1 0x20 PUSH1 0x0 KECCAK256 ADD PUSH1 0x0 PUSH2 0x100 EXP DUP2 SLOAD DUP2 PUSH1 0x1 PUSH1 0x1 PUSH1 0xA0 SHL SUB MUL NOT AND SWAP1 DUP4 PUSH1 0x1 PUSH1 0x1 PUSH1 0xA0 SHL SUB AND MUL OR SWAP1 SSTORE POP PUSH1 0xF DUP1 SLOAD DUP1 PUSH2 0x31E1 JUMPI PUSH2 0x31E1 PUSH2 0x4A80 JUMP JUMPDEST PUSH1 0x0 DUP3 DUP2 MSTORE PUSH1 0x20 DUP1 DUP3 KECCAK256 DUP4 ADD PUSH1 0x0 NOT SWAP1 DUP2 ADD DUP1 SLOAD PUSH1 0x1 PUSH1 0x1 PUSH1 0xA0 SHL SUB NOT AND SWAP1 SSTORE SWAP1 SWAP3 ADD SWAP1 SWAP3 SSTORE PUSH1 0x1 PUSH1 0x1 PUSH1 0xA0 SHL SUB DUP5 AND DUP3 MSTORE PUSH1 0x14 SWAP1 MSTORE PUSH1 0x40 SWAP1 KECCAK256 DUP1 SLOAD PUSH1 0xFF NOT AND SWAP1 SSTORE PUSH32 0x980416557521C68AC667E8FB0FDC2F42FC3FF4DF03421A939F8BD930716D29F3 PUSH2 0x18D4 DUP4 PUSH2 0x1C60 JUMP JUMPDEST PUSH2 0x3255 PUSH2 0x3CD0 JUMP JUMPDEST PUSH1 0xE SLOAD DUP3 LT PUSH2 0x32A2 JUMPI PUSH1 0x40 MLOAD PUSH3 0x461BCD PUSH1 0xE5 SHL DUP2 MSTORE PUSH1 0x20 PUSH1 0x4 DUP3 ADD MSTORE PUSH1 0x19 PUSH1 0x24 DUP3 ADD MSTORE PUSH25 0x151A19481859191C995CDCC8191BD95CDB89DD08195E1A5CDD PUSH1 0x3A SHL PUSH1 0x44 DUP3 ADD MSTORE PUSH1 0x64 ADD PUSH2 0xFC1 JUMP JUMPDEST DUP1 PUSH1 0xE DUP4 DUP2 SLOAD DUP2 LT PUSH2 0x32B6 JUMPI PUSH2 0x32B6 PUSH2 0x4967 JUMP JUMPDEST SWAP1 PUSH1 0x0 MSTORE PUSH1 0x20 PUSH1 0x0 KECCAK256 ADD PUSH1 0x0 PUSH2 0x100 EXP DUP2 SLOAD DUP2 PUSH1 0x1 PUSH1 0x1 PUSH1 0xA0 SHL SUB MUL NOT AND SWAP1 DUP4 PUSH1 0x1 PUSH1 0x1 PUSH1 0xA0 SHL SUB AND MUL OR SWAP1 SSTORE POP POP POP JUMP JUMPDEST PUSH2 0x32F0 PUSH2 0x3FBE JUMP JUMPDEST CALLER PUSH1 0x0 SWAP1 DUP2 MSTORE PUSH1 0x16 PUSH1 0x20 MSTORE PUSH1 0x40 SWAP1 KECCAK256 SLOAD PUSH1 0xFF AND PUSH2 0x3346 JUMPI PUSH1 0x40 MLOAD PUSH3 0x461BCD PUSH1 0xE5 SHL DUP2 MSTORE PUSH1 0x20 PUSH1 0x4 DUP3 ADD MSTORE PUSH1 0x14 PUSH1 0x24 DUP3 ADD MSTORE PUSH20 0x2737BA1030903BB434BA32B634B9BA103AB9B2B9 PUSH1 0x61 SHL PUSH1 0x44 DUP3 ADD MSTORE PUSH1 0x64 ADD PUSH2 0xFC1 JUMP JUMPDEST PUSH2 0x334E PUSH2 0x2806 JUMP JUMPDEST PUSH1 0x64 EQ PUSH2 0x338A JUMPI PUSH1 0x40 MLOAD PUSH3 0x461BCD PUSH1 0xE5 SHL DUP2 MSTORE PUSH1 0x20 PUSH1 0x4 DUP3 ADD MSTORE PUSH1 0xA PUSH1 0x24 DUP3 ADD MSTORE PUSH10 0x3930BA329032B93937B9 PUSH1 0xB1 SHL PUSH1 0x44 DUP3 ADD MSTORE PUSH1 0x64 ADD PUSH2 0xFC1 JUMP JUMPDEST PUSH1 0x1 SLOAD PUSH1 0x1 PUSH1 0xB0 SHL SWAP1 DIV PUSH1 0xFF AND ISZERO PUSH2 0x3424 JUMPI PUSH1 0x3 SLOAD PUSH1 0x40 MLOAD PUSH4 0xA483F561 PUSH1 0xE0 SHL DUP2 MSTORE CALLER PUSH1 0x4 DUP3 ADD MSTORE PUSH1 0x1 PUSH1 0x1 PUSH1 0xA0 SHL SUB SWAP1 SWAP2 AND SWAP1 PUSH4 0xA483F561 SWAP1 PUSH1 0x24 ADD PUSH1 0x20 PUSH1 0x40 MLOAD DUP1 DUP4 SUB DUP2 DUP7 GAS STATICCALL ISZERO DUP1 ISZERO PUSH2 0x33E4 JUMPI RETURNDATASIZE PUSH1 0x0 DUP1 RETURNDATACOPY RETURNDATASIZE PUSH1 0x0 REVERT JUMPDEST POP POP POP POP PUSH1 0x40 MLOAD RETURNDATASIZE PUSH1 0x1F NOT PUSH1 0x1F DUP3 ADD AND DUP3 ADD DUP1 PUSH1 0x40 MSTORE POP DUP2 ADD SWAP1 PUSH2 0x3408 SWAP2 SWAP1 PUSH2 0x497D JUMP JUMPDEST PUSH2 0x3424 JUMPI PUSH1 0x40 MLOAD PUSH3 0x461BCD PUSH1 0xE5 SHL DUP2 MSTORE PUSH1 0x4 ADD PUSH2 0xFC1 SWAP1 PUSH2 0x499F JUMP JUMPDEST PUSH1 0x0 PUSH1 0x4 SLOAD PUSH3 0x186A0 PUSH2 0x3437 SWAP2 SWAP1 PUSH2 0x4AB8 JUMP JUMPDEST PUSH2 0x343F PUSH2 0x19DC JUMP JUMPDEST PUSH2 0x3449 SWAP1 DUP5 PUSH2 0x4AB8 JUMP JUMPDEST PUSH2 0x3453 SWAP2 SWAP1 PUSH2 0x4A96 JUMP JUMPDEST SWAP1 POP PUSH1 0x0 PUSH4 0x5F5E100 PUSH2 0x3464 PUSH2 0x19DC JUMP JUMPDEST PUSH2 0x346E SWAP1 DUP6 PUSH2 0x4AB8 JUMP JUMPDEST PUSH2 0x3478 SWAP2 SWAP1 PUSH2 0x4A96 JUMP JUMPDEST CALLER PUSH1 0x0 SWAP1 DUP2 MSTORE PUSH1 0x19 PUSH1 0x20 MSTORE PUSH1 0x40 DUP1 DUP3 KECCAK256 SLOAD PUSH1 0x1 PUSH1 0x1 PUSH1 0xA0 SHL SUB SWAP1 DUP2 AND DUP1 DUP5 MSTORE SWAP2 SWAP1 SWAP3 KECCAK256 SLOAD SWAP3 SWAP4 POP SWAP2 AND PUSH2 0x34A9 PUSH2 0x1BF3 JUMP JUMPDEST DUP5 GT ISZERO PUSH2 0x3507 JUMPI PUSH1 0x40 MLOAD PUSH3 0x461BCD PUSH1 0xE5 SHL DUP2 MSTORE PUSH1 0x20 PUSH1 0x4 DUP3 ADD MSTORE PUSH1 0x26 PUSH1 0x24 DUP3 ADD MSTORE PUSH32 0x74686520636F6E7472616374204644542062616C616E6365206973206E6F7420 PUSH1 0x44 DUP3 ADD MSTORE PUSH6 0xCADCDEEACED PUSH1 0xD3 SHL PUSH1 0x64 DUP3 ADD MSTORE PUSH1 0x84 ADD PUSH2 0xFC1 JUMP JUMPDEST PUSH1 0x9 SLOAD CALLER PUSH1 0x0 SWAP1 DUP2 MSTORE PUSH1 0x17 PUSH1 0x20 MSTORE PUSH1 0x40 SWAP1 KECCAK256 SLOAD PUSH2 0x3525 SWAP1 DUP8 SWAP1 PUSH2 0x4DD6 JUMP JUMPDEST GT ISZERO PUSH2 0x3560 JUMPI PUSH1 0x40 MLOAD PUSH3 0x461BCD PUSH1 0xE5 SHL DUP2 MSTORE PUSH1 0x20 PUSH1 0x4 DUP3 ADD MSTORE PUSH1 0xA PUSH1 0x24 DUP3 ADD MSTORE PUSH10 0x1BDD995C881B1A5B5A5D PUSH1 0xB2 SHL PUSH1 0x44 DUP3 ADD MSTORE PUSH1 0x64 ADD PUSH2 0xFC1 JUMP JUMPDEST PUSH2 0x3569 DUP6 PUSH2 0x400B JUMP JUMPDEST PUSH2 0x35A5 JUMPI PUSH1 0x40 MLOAD PUSH3 0x461BCD PUSH1 0xE5 SHL DUP2 MSTORE PUSH1 0x20 PUSH1 0x4 DUP3 ADD MSTORE PUSH1 0xD PUSH1 0x24 DUP3 ADD MSTORE PUSH13 0x1A5B9D985B1A59081A5B9C1D5D PUSH1 0x9A SHL PUSH1 0x44 DUP3 ADD MSTORE PUSH1 0x64 ADD PUSH2 0xFC1 JUMP JUMPDEST PUSH1 0x1 SLOAD PUSH1 0x1 PUSH1 0xA0 SHL SWAP1 DIV PUSH1 0xFF AND ISZERO PUSH2 0x3B43 JUMPI CALLVALUE PUSH1 0x0 SUB PUSH2 0x36D1 JUMPI PUSH1 0x0 JUMPDEST PUSH1 0xE SLOAD DUP2 LT ISZERO PUSH2 0x365D JUMPI PUSH1 0x2 SLOAD PUSH1 0xE DUP1 SLOAD PUSH2 0x364B SWAP3 PUSH1 0x1 PUSH1 0x1 PUSH1 0xA0 SHL SUB AND SWAP2 CALLER SWAP2 DUP6 SWAP1 DUP2 LT PUSH2 0x35F3 JUMPI PUSH2 0x35F3 PUSH2 0x4967 JUMP JUMPDEST SWAP1 PUSH1 0x0 MSTORE PUSH1 0x20 PUSH1 0x0 KECCAK256 ADD PUSH1 0x0 SWAP1 SLOAD SWAP1 PUSH2 0x100 EXP SWAP1 DIV PUSH1 0x1 PUSH1 0x1 PUSH1 0xA0 SHL SUB AND PUSH1 0x64 PUSH1 0x11 DUP7 DUP2 SLOAD DUP2 LT PUSH2 0x3626 JUMPI PUSH2 0x3626 PUSH2 0x4967 JUMP JUMPDEST SWAP1 PUSH1 0x0 MSTORE PUSH1 0x20 PUSH1 0x0 KECCAK256 ADD SLOAD DUP12 PUSH2 0x363C SWAP2 SWAP1 PUSH2 0x4AB8 JUMP JUMPDEST PUSH2 0x3646 SWAP2 SWAP1 PUSH2 0x4A96 JUMP JUMPDEST PUSH2 0x4061 JUMP JUMPDEST DUP1 PUSH2 0x3655 DUP2 PUSH2 0x4A24 JUMP JUMPDEST SWAP2 POP POP PUSH2 0x35C2 JUMP JUMPDEST POP PUSH1 0x2 SLOAD PUSH1 0xA DUP1 SLOAD PUSH2 0x369F SWAP3 PUSH1 0x1 PUSH1 0x1 PUSH1 0xA0 SHL SUB AND SWAP2 CALLER SWAP2 DUP7 SWAP2 PUSH1 0x64 SWAP2 PUSH1 0x0 SWAP1 PUSH2 0x3689 JUMPI PUSH2 0x3689 PUSH2 0x4967 JUMP JUMPDEST SWAP1 PUSH1 0x0 MSTORE PUSH1 0x20 PUSH1 0x0 KECCAK256 ADD SLOAD DUP11 PUSH2 0x363C SWAP2 SWAP1 PUSH2 0x4AB8 JUMP JUMPDEST PUSH1 0x2 SLOAD PUSH1 0xA DUP1 SLOAD PUSH2 0x36CC SWAP3 PUSH1 0x1 PUSH1 0x1 PUSH1 0xA0 SHL SUB AND SWAP2 CALLER SWAP2 DUP6 SWAP2 PUSH1 0x64 SWAP2 PUSH1 0x1 SWAP1 DUP2 LT PUSH2 0x3689 JUMPI PUSH2 0x3689 PUSH2 0x4967 JUMP JUMPDEST PUSH2 0x3A1F JUMP JUMPDEST DUP5 CALLVALUE EQ PUSH2 0x372A JUMPI PUSH1 0x40 MLOAD PUSH3 0x461BCD PUSH1 0xE5 SHL DUP2 MSTORE PUSH1 0x20 PUSH1 0x4 DUP3 ADD MSTORE PUSH1 0x21 PUSH1 0x24 DUP3 ADD MSTORE PUSH32 0x70726F766964652074686520636F727265637420616D6F756E74206F66204554 PUSH1 0x44 DUP3 ADD MSTORE PUSH1 0x9 PUSH1 0xFB SHL PUSH1 0x64 DUP3 ADD MSTORE PUSH1 0x84 ADD PUSH2 0xFC1 JUMP JUMPDEST PUSH1 0x2 PUSH1 0x0 SWAP1 SLOAD SWAP1 PUSH2 0x100 EXP SWAP1 DIV PUSH1 0x1 PUSH1 0x1 PUSH1 0xA0 SHL SUB AND PUSH1 0x1 PUSH1 0x1 PUSH1 0xA0 SHL SUB AND PUSH4 0xD0E30DB0 DUP7 PUSH1 0x40 MLOAD DUP3 PUSH4 0xFFFFFFFF AND PUSH1 0xE0 SHL DUP2 MSTORE PUSH1 0x4 ADD PUSH1 0x0 PUSH1 0x40 MLOAD DUP1 DUP4 SUB DUP2 DUP6 DUP9 DUP1 EXTCODESIZE ISZERO DUP1 ISZERO PUSH2 0x377A JUMPI PUSH1 0x0 DUP1 REVERT JUMPDEST POP GAS CALL ISZERO DUP1 ISZERO PUSH2 0x378E JUMPI RETURNDATASIZE PUSH1 0x0 DUP1 RETURNDATACOPY RETURNDATASIZE PUSH1 0x0 REVERT JUMPDEST POP POP POP POP POP PUSH1 0x0 JUMPDEST PUSH1 0xE SLOAD DUP2 LT ISZERO PUSH2 0x389F JUMPI PUSH1 0x2 SLOAD PUSH1 0xE DUP1 SLOAD PUSH1 0x1 PUSH1 0x1 PUSH1 0xA0 SHL SUB SWAP1 SWAP3 AND SWAP2 PUSH4 0xA9059CBB SWAP2 SWAP1 DUP5 SWAP1 DUP2 LT PUSH2 0x37CA JUMPI PUSH2 0x37CA PUSH2 0x4967 JUMP JUMPDEST SWAP1 PUSH1 0x0 MSTORE PUSH1 0x20 PUSH1 0x0 KECCAK256 ADD PUSH1 0x0 SWAP1 SLOAD SWAP1 PUSH2 0x100 EXP SWAP1 DIV PUSH1 0x1 PUSH1 0x1 PUSH1 0xA0 SHL SUB AND PUSH1 0x64 PUSH1 0x11 DUP6 DUP2 SLOAD DUP2 LT PUSH2 0x37FD JUMPI PUSH2 0x37FD PUSH2 0x4967 JUMP JUMPDEST SWAP1 PUSH1 0x0 MSTORE PUSH1 0x20 PUSH1 0x0 KECCAK256 ADD SLOAD DUP11 PUSH2 0x3813 SWAP2 SWAP1 PUSH2 0x4AB8 JUMP JUMPDEST PUSH2 0x381D SWAP2 SWAP1 PUSH2 0x4A96 JUMP JUMPDEST PUSH1 0x40 MLOAD PUSH1 0x1 PUSH1 0x1 PUSH1 0xE0 SHL SUB NOT PUSH1 0xE0 DUP6 SWAP1 SHL AND DUP2 MSTORE PUSH1 0x1 PUSH1 0x1 PUSH1 0xA0 SHL SUB SWAP1 SWAP3 AND PUSH1 0x4 DUP4 ADD MSTORE PUSH1 0x24 DUP3 ADD MSTORE PUSH1 0x44 ADD PUSH1 0x20 PUSH1 0x40 MLOAD DUP1 DUP4 SUB DUP2 PUSH1 0x0 DUP8 GAS CALL ISZERO DUP1 ISZERO PUSH2 0x3868 JUMPI RETURNDATASIZE PUSH1 0x0 DUP1 RETURNDATACOPY RETURNDATASIZE PUSH1 0x0 REVERT JUMPDEST POP POP POP POP PUSH1 0x40 MLOAD RETURNDATASIZE PUSH1 0x1F NOT PUSH1 0x1F DUP3 ADD AND DUP3 ADD DUP1 PUSH1 0x40 MSTORE POP DUP2 ADD SWAP1 PUSH2 0x388C SWAP2 SWAP1 PUSH2 0x497D JUMP JUMPDEST POP DUP1 PUSH2 0x3897 DUP2 PUSH2 0x4A24 JUMP JUMPDEST SWAP2 POP POP PUSH2 0x3796 JUMP JUMPDEST POP PUSH1 0x2 SLOAD PUSH1 0xA DUP1 SLOAD PUSH1 0x1 PUSH1 0x1 PUSH1 0xA0 SHL SUB SWAP1 SWAP3 AND SWAP2 PUSH4 0xA9059CBB SWAP2 DUP6 SWAP2 PUSH1 0x64 SWAP2 SWAP1 PUSH1 0x0 SWAP1 PUSH2 0x38CE JUMPI PUSH2 0x38CE PUSH2 0x4967 JUMP JUMPDEST SWAP1 PUSH1 0x0 MSTORE PUSH1 0x20 PUSH1 0x0 KECCAK256 ADD SLOAD DUP10 PUSH2 0x38E4 SWAP2 SWAP1 PUSH2 0x4AB8 JUMP JUMPDEST PUSH2 0x38EE SWAP2 SWAP1 PUSH2 0x4A96 JUMP JUMPDEST PUSH1 0x40 MLOAD PUSH1 0x1 PUSH1 0x1 PUSH1 0xE0 SHL SUB NOT PUSH1 0xE0 DUP6 SWAP1 SHL AND DUP2 MSTORE PUSH1 0x1 PUSH1 0x1 PUSH1 0xA0 SHL SUB SWAP1 SWAP3 AND PUSH1 0x4 DUP4 ADD MSTORE PUSH1 0x24 DUP3 ADD MSTORE PUSH1 0x44 ADD PUSH1 0x20 PUSH1 0x40 MLOAD DUP1 DUP4 SUB DUP2 PUSH1 0x0 DUP8 GAS CALL ISZERO DUP1 ISZERO PUSH2 0x3939 JUMPI RETURNDATASIZE PUSH1 0x0 DUP1 RETURNDATACOPY RETURNDATASIZE PUSH1 0x0 REVERT JUMPDEST POP POP POP POP PUSH1 0x40 MLOAD RETURNDATASIZE PUSH1 0x1F NOT PUSH1 0x1F DUP3 ADD AND DUP3 ADD DUP1 PUSH1 0x40 MSTORE POP DUP2 ADD SWAP1 PUSH2 0x395D SWAP2 SWAP1 PUSH2 0x497D JUMP JUMPDEST POP PUSH1 0x2 SLOAD PUSH1 0xA DUP1 SLOAD PUSH1 0x1 PUSH1 0x1 PUSH1 0xA0 SHL SUB SWAP1 SWAP3 AND SWAP2 PUSH4 0xA9059CBB SWAP2 DUP5 SWAP2 PUSH1 0x64 SWAP2 SWAP1 PUSH1 0x1 SWAP1 DUP2 LT PUSH2 0x398E JUMPI PUSH2 0x398E PUSH2 0x4967 JUMP JUMPDEST SWAP1 PUSH1 0x0 MSTORE PUSH1 0x20 PUSH1 0x0 KECCAK256 ADD SLOAD DUP10 PUSH2 0x39A4 SWAP2 SWAP1 PUSH2 0x4AB8 JUMP JUMPDEST PUSH2 0x39AE SWAP2 SWAP1 PUSH2 0x4A96 JUMP JUMPDEST PUSH1 0x40 MLOAD PUSH1 0x1 PUSH1 0x1 PUSH1 0xE0 SHL SUB NOT PUSH1 0xE0 DUP6 SWAP1 SHL AND DUP2 MSTORE PUSH1 0x1 PUSH1 0x1 PUSH1 0xA0 SHL SUB SWAP1 SWAP3 AND PUSH1 0x4 DUP4 ADD MSTORE PUSH1 0x24 DUP3 ADD MSTORE PUSH1 0x44 ADD PUSH1 0x20 PUSH1 0x40 MLOAD DUP1 DUP4 SUB DUP2 PUSH1 0x0 DUP8 GAS CALL ISZERO DUP1 ISZERO PUSH2 0x39F9 JUMPI RETURNDATASIZE PUSH1 0x0 DUP1 RETURNDATACOPY RETURNDATASIZE PUSH1 0x0 REVERT JUMPDEST POP POP POP POP PUSH1 0x40 MLOAD RETURNDATASIZE PUSH1 0x1F NOT PUSH1 0x1F DUP3 ADD AND DUP3 ADD DUP1 PUSH1 0x40 MSTORE POP DUP2 ADD SWAP1 PUSH2 0x3A1D SWAP2 SWAP1 PUSH2 0x497D JUMP JUMPDEST POP JUMPDEST PUSH1 0x1 SLOAD PUSH1 0x40 MLOAD PUSH4 0xA9059CBB PUSH1 0xE0 SHL DUP2 MSTORE CALLER PUSH1 0x4 DUP3 ADD MSTORE PUSH1 0x24 DUP2 ADD DUP7 SWAP1 MSTORE PUSH1 0x1 PUSH1 0x1 PUSH1 0xA0 SHL SUB SWAP1 SWAP2 AND SWAP1 PUSH4 0xA9059CBB SWAP1 PUSH1 0x44 ADD PUSH1 0x20 PUSH1 0x40 MLOAD DUP1 DUP4 SUB DUP2 PUSH1 0x0 DUP8 GAS CALL ISZERO DUP1 ISZERO PUSH2 0x3A70 JUMPI RETURNDATASIZE PUSH1 0x0 DUP1 RETURNDATACOPY RETURNDATASIZE PUSH1 0x0 REVERT JUMPDEST POP POP POP POP PUSH1 0x40 MLOAD RETURNDATASIZE PUSH1 0x1F NOT PUSH1 0x1F DUP3 ADD AND DUP3 ADD DUP1 PUSH1 0x40 MSTORE POP DUP2 ADD SWAP1 PUSH2 0x3A94 SWAP2 SWAP1 PUSH2 0x497D JUMP JUMPDEST POP CALLER PUSH1 0x0 SWAP1 DUP2 MSTORE PUSH1 0x17 PUSH1 0x20 MSTORE PUSH1 0x40 DUP2 KECCAK256 DUP1 SLOAD DUP8 SWAP3 SWAP1 PUSH2 0x3AB4 SWAP1 DUP5 SWAP1 PUSH2 0x4DD6 JUMP JUMPDEST SWAP3 POP POP DUP2 SWAP1 SSTORE POP DUP5 PUSH1 0xC PUSH1 0x0 DUP3 DUP3 SLOAD PUSH2 0x3ACD SWAP2 SWAP1 PUSH2 0x4DD6 JUMP JUMPDEST SWAP1 SWAP2 SSTORE POP POP PUSH1 0xB SLOAD PUSH32 0x9FDEF2379F5E06016C879941BE5E57AA52F70221555830DB21E6FDE5546A2C72 SWAP1 PUSH2 0x3B00 CALLER PUSH2 0x1C60 JUMP JUMPDEST PUSH2 0x3B09 CALLER PUSH2 0x26E1 JUMP JUMPDEST PUSH1 0x4 SLOAD PUSH1 0x40 MLOAD PUSH2 0x3B25 SWAP5 SWAP4 SWAP3 SWAP2 CALLER SWAP2 DUP13 SWAP2 DUP12 SWAP2 DUP14 SWAP1 TIMESTAMP SWAP1 PUSH2 0x4DE9 JUMP JUMPDEST PUSH1 0x40 MLOAD DUP1 SWAP2 SUB SWAP1 LOG1 PUSH1 0xB DUP1 SLOAD SWAP1 PUSH1 0x0 PUSH2 0x3B3D DUP4 PUSH2 0x4A24 JUMP JUMPDEST SWAP2 SWAP1 POP SSTORE POP JUMPDEST POP POP POP POP POP JUMP JUMPDEST PUSH2 0x3B52 PUSH2 0x3CD0 JUMP JUMPDEST PUSH1 0xD SLOAD DUP3 LT PUSH2 0x3B91 JUMPI PUSH1 0x40 MLOAD PUSH3 0x461BCD PUSH1 0xE5 SHL DUP2 MSTORE PUSH1 0x20 PUSH1 0x4 DUP3 ADD MSTORE PUSH1 0xB PUSH1 0x24 DUP3 ADD MSTORE PUSH11 0x34B7383ABA1032B93937B9 PUSH1 0xA9 SHL PUSH1 0x44 DUP3 ADD MSTORE PUSH1 0x64 ADD PUSH2 0xFC1 JUMP JUMPDEST DUP1 PUSH1 0xD DUP4 DUP2 SLOAD DUP2 LT PUSH2 0x1DBB JUMPI PUSH2 0x1DBB PUSH2 0x4967 JUMP JUMPDEST PUSH2 0x3BAD PUSH2 0x3CD0 JUMP JUMPDEST PUSH1 0x1 PUSH1 0x1 PUSH1 0xA0 SHL SUB DUP2 AND PUSH2 0x3C12 JUMPI PUSH1 0x40 MLOAD PUSH3 0x461BCD PUSH1 0xE5 SHL DUP2 MSTORE PUSH1 0x20 PUSH1 0x4 DUP3 ADD MSTORE PUSH1 0x26 PUSH1 0x24 DUP3 ADD MSTORE PUSH32 0x4F776E61626C653A206E6577206F776E657220697320746865207A65726F2061 PUSH1 0x44 DUP3 ADD MSTORE PUSH6 0x646472657373 PUSH1 0xD0 SHL PUSH1 0x64 DUP3 ADD MSTORE PUSH1 0x84 ADD PUSH2 0xFC1 JUMP JUMPDEST PUSH2 0x2025 DUP2 PUSH2 0x3ED0 JUMP JUMPDEST CALLER PUSH1 0x0 SWAP1 DUP2 MSTORE PUSH1 0x14 PUSH1 0x20 MSTORE PUSH1 0x40 SWAP1 KECCAK256 SLOAD PUSH1 0xFF AND DUP1 PUSH2 0x3C48 JUMPI POP CALLER PUSH1 0x0 SWAP1 DUP2 MSTORE PUSH1 0x15 PUSH1 0x20 MSTORE PUSH1 0x40 SWAP1 KECCAK256 SLOAD PUSH1 0xFF AND JUMPDEST PUSH2 0x3C90 JUMPI PUSH1 0x40 MLOAD PUSH3 0x461BCD PUSH1 0xE5 SHL DUP2 MSTORE PUSH1 0x20 PUSH1 0x4 DUP3 ADD MSTORE PUSH1 0x19 PUSH1 0x24 DUP3 ADD MSTORE PUSH25 0x3CB7BA903237B713BA103430BB32903832B936B4B9B9B4B7B7 PUSH1 0x39 SHL PUSH1 0x44 DUP3 ADD MSTORE PUSH1 0x64 ADD PUSH2 0xFC1 JUMP JUMPDEST PUSH1 0x0 JUMPDEST DUP2 MLOAD DUP2 LT ISZERO PUSH2 0x1573 JUMPI PUSH2 0x3CBE DUP3 DUP3 DUP2 MLOAD DUP2 LT PUSH2 0x3CB1 JUMPI PUSH2 0x3CB1 PUSH2 0x4967 JUMP JUMPDEST PUSH1 0x20 MUL PUSH1 0x20 ADD ADD MLOAD PUSH2 0x4191 JUMP JUMPDEST DUP1 PUSH2 0x3CC8 DUP2 PUSH2 0x4A24 JUMP JUMPDEST SWAP2 POP POP PUSH2 0x3C93 JUMP JUMPDEST PUSH1 0x0 SLOAD PUSH1 0x1 PUSH1 0x1 PUSH1 0xA0 SHL SUB AND CALLER EQ PUSH2 0x1BF1 JUMPI PUSH1 0x40 MLOAD PUSH3 0x461BCD PUSH1 0xE5 SHL DUP2 MSTORE PUSH1 0x20 PUSH1 0x4 DUP3 ADD DUP2 SWAP1 MSTORE PUSH1 0x24 DUP3 ADD MSTORE PUSH32 0x4F776E61626C653A2063616C6C6572206973206E6F7420746865206F776E6572 PUSH1 0x44 DUP3 ADD MSTORE PUSH1 0x64 ADD PUSH2 0xFC1 JUMP JUMPDEST PUSH1 0x0 DUP1 JUMPDEST PUSH1 0x10 SLOAD DUP2 LT ISZERO PUSH2 0x3D85 JUMPI PUSH1 0x10 DUP2 DUP2 SLOAD DUP2 LT PUSH2 0x3D4B JUMPI PUSH2 0x3D4B PUSH2 0x4967 JUMP JUMPDEST PUSH1 0x0 SWAP2 DUP3 MSTORE PUSH1 0x20 SWAP1 SWAP2 KECCAK256 ADD SLOAD PUSH1 0x1 PUSH1 0x1 PUSH1 0xA0 SHL SUB SWAP1 DUP2 AND SWAP1 DUP5 AND SUB PUSH2 0x3D73 JUMPI POP PUSH1 0x0 SWAP3 SWAP2 POP POP JUMP JUMPDEST DUP1 PUSH2 0x3D7D DUP2 PUSH2 0x4A24 JUMP JUMPDEST SWAP2 POP POP PUSH2 0x3D2E JUMP JUMPDEST POP PUSH1 0x1 SWAP3 SWAP2 POP POP JUMP JUMPDEST PUSH2 0x3D96 PUSH2 0x43DA JUMP JUMPDEST PUSH1 0x0 DUP1 SLOAD PUSH1 0xFF PUSH1 0xA0 SHL NOT AND SWAP1 SSTORE PUSH32 0x5DB9EE0A495BF2E6FF9C91A7834C1BA4FDD244A5E8AA4E537BD38AEAE4B073AA CALLER JUMPDEST PUSH1 0x40 MLOAD PUSH1 0x1 PUSH1 0x1 PUSH1 0xA0 SHL SUB SWAP1 SWAP2 AND DUP2 MSTORE PUSH1 0x20 ADD PUSH1 0x40 MLOAD DUP1 SWAP2 SUB SWAP1 LOG1 JUMP JUMPDEST PUSH1 0x1 PUSH1 0x1 PUSH1 0xA0 SHL SUB DUP2 AND PUSH1 0x0 SWAP1 DUP2 MSTORE PUSH1 0x14 PUSH1 0x20 MSTORE PUSH1 0x40 DUP2 KECCAK256 SLOAD PUSH1 0xFF AND ISZERO PUSH2 0x3E0C JUMPI POP POP PUSH1 0x7 SLOAD SWAP1 JUMP JUMPDEST PUSH1 0x1 PUSH1 0x1 PUSH1 0xA0 SHL SUB DUP3 AND PUSH1 0x0 SWAP1 DUP2 MSTORE PUSH1 0x15 PUSH1 0x20 MSTORE PUSH1 0x40 SWAP1 KECCAK256 SLOAD PUSH1 0xFF AND ISZERO PUSH2 0x1D4D JUMPI POP POP PUSH1 0x8 SLOAD SWAP1 JUMP JUMPDEST PUSH1 0x0 DUP1 JUMPDEST PUSH1 0x1 PUSH1 0x1 PUSH1 0xA0 SHL SUB DUP4 AND PUSH1 0x0 SWAP1 DUP2 MSTORE PUSH1 0x13 PUSH1 0x20 MSTORE PUSH1 0x40 SWAP1 KECCAK256 SLOAD DUP2 LT ISZERO PUSH2 0x3EC6 JUMPI PUSH1 0x1 PUSH1 0x1 PUSH1 0xA0 SHL SUB DUP4 AND PUSH1 0x0 SWAP1 DUP2 MSTORE PUSH1 0x13 PUSH1 0x20 MSTORE PUSH1 0x40 SWAP1 KECCAK256 DUP1 SLOAD DUP3 SWAP1 DUP2 LT PUSH2 0x3E83 JUMPI PUSH2 0x3E83 PUSH2 0x4967 JUMP JUMPDEST PUSH1 0x0 SWAP2 DUP3 MSTORE PUSH1 0x20 SWAP1 SWAP2 KECCAK256 PUSH1 0x2 PUSH1 0x3 SWAP1 SWAP3 MUL ADD ADD SLOAD PUSH1 0x1 PUSH1 0x1 PUSH1 0xA0 SHL SUB SWAP1 DUP2 AND SWAP1 DUP6 AND SUB PUSH2 0x3EB4 JUMPI PUSH1 0x0 SWAP2 POP POP PUSH2 0x1E49 JUMP JUMPDEST DUP1 PUSH2 0x3EBE DUP2 PUSH2 0x4A24 JUMP JUMPDEST SWAP2 POP POP PUSH2 0x3E39 JUMP JUMPDEST POP PUSH1 0x1 SWAP4 SWAP3 POP POP POP JUMP JUMPDEST PUSH1 0x0 DUP1 SLOAD PUSH1 0x1 PUSH1 0x1 PUSH1 0xA0 SHL SUB DUP4 DUP2 AND PUSH1 0x1 PUSH1 0x1 PUSH1 0xA0 SHL SUB NOT DUP4 AND DUP2 OR DUP5 SSTORE PUSH1 0x40 MLOAD SWAP2 SWAP1 SWAP3 AND SWAP3 DUP4 SWAP2 PUSH32 0x8BE0079C531659141344CD1FD0A4F28419497F9722A3DAAFE3B4186F6B6457E0 SWAP2 SWAP1 LOG3 POP POP JUMP JUMPDEST PUSH2 0x3F28 PUSH2 0x3FBE JUMP JUMPDEST PUSH1 0x0 DUP1 SLOAD PUSH1 0xFF PUSH1 0xA0 SHL NOT AND PUSH1 0x1 PUSH1 0xA0 SHL OR SWAP1 SSTORE PUSH32 0x62E78CEA01BEE320CD4E420270B5EA74000D11B0C9F74754EBDBFC544B05A258 PUSH2 0x3DC6 CALLER SWAP1 JUMP JUMPDEST PUSH1 0x0 DUP1 JUMPDEST PUSH1 0xF SLOAD DUP2 LT ISZERO PUSH2 0x3D85 JUMPI PUSH1 0xF DUP2 DUP2 SLOAD DUP2 LT PUSH2 0x3F84 JUMPI PUSH2 0x3F84 PUSH2 0x4967 JUMP JUMPDEST PUSH1 0x0 SWAP2 DUP3 MSTORE PUSH1 0x20 SWAP1 SWAP2 KECCAK256 ADD SLOAD PUSH1 0x1 PUSH1 0x1 PUSH1 0xA0 SHL SUB SWAP1 DUP2 AND SWAP1 DUP5 AND SUB PUSH2 0x3FAC JUMPI POP PUSH1 0x0 SWAP3 SWAP2 POP POP JUMP JUMPDEST DUP1 PUSH2 0x3FB6 DUP2 PUSH2 0x4A24 JUMP JUMPDEST SWAP2 POP POP PUSH2 0x3F67 JUMP JUMPDEST PUSH1 0x0 SLOAD PUSH1 0x1 PUSH1 0xA0 SHL SWAP1 DIV PUSH1 0xFF AND ISZERO PUSH2 0x1BF1 JUMPI PUSH1 0x40 MLOAD PUSH3 0x461BCD PUSH1 0xE5 SHL DUP2 MSTORE PUSH1 0x20 PUSH1 0x4 DUP3 ADD MSTORE PUSH1 0x10 PUSH1 0x24 DUP3 ADD MSTORE PUSH16 0x14185D5CD8589B194E881C185D5CD959 PUSH1 0x82 SHL PUSH1 0x44 DUP3 ADD MSTORE PUSH1 0x64 ADD PUSH2 0xFC1 JUMP JUMPDEST PUSH1 0x0 DUP1 JUMPDEST PUSH1 0xD SLOAD DUP2 LT ISZERO PUSH2 0x4058 JUMPI DUP3 PUSH1 0xD DUP3 DUP2 SLOAD DUP2 LT PUSH2 0x402D JUMPI PUSH2 0x402D PUSH2 0x4967 JUMP JUMPDEST SWAP1 PUSH1 0x0 MSTORE PUSH1 0x20 PUSH1 0x0 KECCAK256 ADD SLOAD SUB PUSH2 0x4046 JUMPI POP PUSH1 0x1 SWAP3 SWAP2 POP POP JUMP JUMPDEST DUP1 PUSH2 0x4050 DUP2 PUSH2 0x4A24 JUMP JUMPDEST SWAP2 POP POP PUSH2 0x400F JUMP JUMPDEST POP PUSH1 0x0 SWAP3 SWAP2 POP POP JUMP JUMPDEST PUSH1 0x40 DUP1 MLOAD PUSH1 0x1 PUSH1 0x1 PUSH1 0xA0 SHL SUB DUP6 DUP2 AND PUSH1 0x24 DUP4 ADD MSTORE DUP5 DUP2 AND PUSH1 0x44 DUP4 ADD MSTORE PUSH1 0x64 DUP1 DUP4 ADD DUP6 SWAP1 MSTORE DUP4 MLOAD DUP1 DUP5 SUB SWAP1 SWAP2 ADD DUP2 MSTORE PUSH1 0x84 SWAP1 SWAP3 ADD DUP4 MSTORE PUSH1 0x20 DUP3 ADD DUP1 MLOAD PUSH1 0x1 PUSH1 0x1 PUSH1 0xE0 SHL SUB AND PUSH4 0x23B872DD PUSH1 0xE0 SHL OR SWAP1 MSTORE SWAP2 MLOAD PUSH1 0x0 SWAP3 DUP4 SWAP3 SWAP1 DUP9 AND SWAP2 PUSH2 0x40C5 SWAP2 SWAP1 PUSH2 0x4E47 JUMP JUMPDEST PUSH1 0x0 PUSH1 0x40 MLOAD DUP1 DUP4 SUB DUP2 PUSH1 0x0 DUP7 GAS CALL SWAP2 POP POP RETURNDATASIZE DUP1 PUSH1 0x0 DUP2 EQ PUSH2 0x4102 JUMPI PUSH1 0x40 MLOAD SWAP2 POP PUSH1 0x1F NOT PUSH1 0x3F RETURNDATASIZE ADD AND DUP3 ADD PUSH1 0x40 MSTORE RETURNDATASIZE DUP3 MSTORE RETURNDATASIZE PUSH1 0x0 PUSH1 0x20 DUP5 ADD RETURNDATACOPY PUSH2 0x4107 JUMP JUMPDEST PUSH1 0x60 SWAP2 POP JUMPDEST POP SWAP2 POP SWAP2 POP DUP2 DUP1 ISZERO PUSH2 0x4131 JUMPI POP DUP1 MLOAD ISZERO DUP1 PUSH2 0x4131 JUMPI POP DUP1 DUP1 PUSH1 0x20 ADD SWAP1 MLOAD DUP2 ADD SWAP1 PUSH2 0x4131 SWAP2 SWAP1 PUSH2 0x497D JUMP JUMPDEST PUSH2 0x4189 JUMPI PUSH1 0x40 MLOAD PUSH3 0x461BCD PUSH1 0xE5 SHL DUP2 MSTORE PUSH1 0x20 PUSH1 0x4 DUP3 ADD MSTORE PUSH1 0x24 DUP1 DUP3 ADD MSTORE PUSH32 0x5472616E7366657248656C7065723A205452414E534645525F46524F4D5F4641 PUSH1 0x44 DUP3 ADD MSTORE PUSH4 0x12531151 PUSH1 0xE2 SHL PUSH1 0x64 DUP3 ADD MSTORE PUSH1 0x84 ADD PUSH2 0xFC1 JUMP JUMPDEST POP POP POP POP POP POP JUMP JUMPDEST PUSH1 0x0 JUMPDEST CALLER PUSH1 0x0 SWAP1 DUP2 MSTORE PUSH1 0x13 PUSH1 0x20 MSTORE PUSH1 0x40 SWAP1 KECCAK256 SLOAD DUP2 LT ISZERO PUSH2 0x4395 JUMPI CALLER PUSH1 0x0 SWAP1 DUP2 MSTORE PUSH1 0x13 PUSH1 0x20 MSTORE PUSH1 0x40 SWAP1 KECCAK256 DUP1 SLOAD PUSH1 0x1 PUSH1 0x1 PUSH1 0xA0 SHL SUB DUP5 AND SWAP2 SWAP1 DUP4 SWAP1 DUP2 LT PUSH2 0x41D8 JUMPI PUSH2 0x41D8 PUSH2 0x4967 JUMP JUMPDEST PUSH1 0x0 SWAP2 DUP3 MSTORE PUSH1 0x20 SWAP1 SWAP2 KECCAK256 PUSH1 0x2 PUSH1 0x3 SWAP1 SWAP3 MUL ADD ADD SLOAD PUSH1 0x1 PUSH1 0x1 PUSH1 0xA0 SHL SUB AND SUB PUSH2 0x4383 JUMPI CALLER PUSH1 0x0 SWAP1 DUP2 MSTORE PUSH1 0x13 PUSH1 0x20 MSTORE PUSH1 0x40 SWAP1 KECCAK256 DUP1 SLOAD PUSH2 0x4217 SWAP1 PUSH1 0x1 SWAP1 PUSH2 0x4ACF JUMP JUMPDEST DUP2 SLOAD DUP2 LT PUSH2 0x4227 JUMPI PUSH2 0x4227 PUSH2 0x4967 JUMP JUMPDEST SWAP1 PUSH1 0x0 MSTORE PUSH1 0x20 PUSH1 0x0 KECCAK256 SWAP1 PUSH1 0x3 MUL ADD PUSH1 0x13 PUSH1 0x0 CALLER PUSH1 0x1 PUSH1 0x1 PUSH1 0xA0 SHL SUB AND PUSH1 0x1 PUSH1 0x1 PUSH1 0xA0 SHL SUB AND DUP2 MSTORE PUSH1 0x20 ADD SWAP1 DUP2 MSTORE PUSH1 0x20 ADD PUSH1 0x0 KECCAK256 DUP3 DUP2 SLOAD DUP2 LT PUSH2 0x426B JUMPI PUSH2 0x426B PUSH2 0x4967 JUMP JUMPDEST PUSH1 0x0 SWAP2 DUP3 MSTORE PUSH1 0x20 SWAP1 SWAP2 KECCAK256 DUP3 SLOAD PUSH1 0x3 SWAP1 SWAP3 MUL ADD SWAP1 DUP2 SSTORE PUSH1 0x1 DUP1 DUP3 ADD SWAP1 PUSH2 0x4292 SWAP1 DUP5 ADD DUP3 PUSH2 0x4E63 JUMP JUMPDEST POP PUSH1 0x2 SWAP2 DUP3 ADD SLOAD SWAP2 ADD DUP1 SLOAD PUSH1 0x1 PUSH1 0x1 PUSH1 0xA0 SHL SUB NOT AND PUSH1 0x1 PUSH1 0x1 PUSH1 0xA0 SHL SUB SWAP1 SWAP3 AND SWAP2 SWAP1 SWAP2 OR SWAP1 SSTORE CALLER PUSH1 0x0 SWAP1 DUP2 MSTORE PUSH1 0x13 PUSH1 0x20 MSTORE PUSH1 0x40 SWAP1 KECCAK256 DUP1 SLOAD DUP1 PUSH2 0x42D6 JUMPI PUSH2 0x42D6 PUSH2 0x4A80 JUMP JUMPDEST PUSH1 0x0 DUP3 DUP2 MSTORE PUSH1 0x20 DUP2 KECCAK256 PUSH1 0x3 PUSH1 0x0 NOT SWAP1 SWAP4 ADD SWAP3 DUP4 MUL ADD DUP2 DUP2 SSTORE SWAP1 PUSH2 0x42FC PUSH1 0x1 DUP4 ADD DUP3 PUSH2 0x456F JUMP JUMPDEST POP PUSH1 0x2 ADD DUP1 SLOAD PUSH1 0x1 PUSH1 0x1 PUSH1 0xA0 SHL SUB NOT AND SWAP1 SSTORE SWAP1 SSTORE PUSH1 0x1 PUSH1 0x1 PUSH1 0xA0 SHL SUB DUP3 AND PUSH1 0x0 SWAP1 DUP2 MSTORE PUSH1 0x16 PUSH1 0x20 MSTORE PUSH1 0x40 SWAP1 KECCAK256 DUP1 SLOAD PUSH1 0xFF NOT AND SWAP1 SSTORE PUSH2 0x4339 DUP3 PUSH2 0x442A JUMP JUMPDEST PUSH1 0x1 PUSH1 0x1 PUSH1 0xA0 SHL SUB DUP3 AND PUSH1 0x0 SWAP1 DUP2 MSTORE PUSH1 0x18 PUSH1 0x20 MSTORE PUSH1 0x40 SWAP1 KECCAK256 DUP1 SLOAD PUSH1 0xFF NOT AND SWAP1 SSTORE PUSH32 0x64A3EC859CB013014C2D0DEE54610916FE4EFAE49BA9B617DEFAECD77E5333E8 PUSH2 0x18D4 DUP4 PUSH2 0x1C60 JUMP JUMPDEST DUP1 PUSH2 0x438D DUP2 PUSH2 0x4A24 JUMP JUMPDEST SWAP2 POP POP PUSH2 0x4194 JUMP JUMPDEST POP PUSH1 0x40 MLOAD PUSH3 0x461BCD PUSH1 0xE5 SHL DUP2 MSTORE PUSH1 0x20 PUSH1 0x4 DUP3 ADD MSTORE PUSH1 0x19 PUSH1 0x24 DUP3 ADD MSTORE PUSH25 0x151A19481859191C995CDCC8191BD95CDB89DD08195E1A5CDD PUSH1 0x3A SHL PUSH1 0x44 DUP3 ADD MSTORE PUSH1 0x64 ADD PUSH2 0xFC1 JUMP JUMPDEST PUSH1 0x0 SLOAD PUSH1 0x1 PUSH1 0xA0 SHL SWAP1 DIV PUSH1 0xFF AND PUSH2 0x1BF1 JUMPI PUSH1 0x40 MLOAD PUSH3 0x461BCD PUSH1 0xE5 SHL DUP2 MSTORE PUSH1 0x20 PUSH1 0x4 DUP3 ADD MSTORE PUSH1 0x14 PUSH1 0x24 DUP3 ADD MSTORE PUSH20 0x14185D5CD8589B194E881B9BDD081C185D5CD959 PUSH1 0x62 SHL PUSH1 0x44 DUP3 ADD MSTORE PUSH1 0x64 ADD PUSH2 0xFC1 JUMP JUMPDEST PUSH1 0x0 DUP1 JUMPDEST PUSH1 0x12 SLOAD DUP2 LT ISZERO PUSH2 0x4491 JUMPI DUP3 PUSH1 0x1 PUSH1 0x1 PUSH1 0xA0 SHL SUB AND PUSH1 0x12 DUP3 DUP2 SLOAD DUP2 LT PUSH2 0x4455 JUMPI PUSH2 0x4455 PUSH2 0x4967 JUMP JUMPDEST PUSH1 0x0 SWAP2 DUP3 MSTORE PUSH1 0x20 SWAP1 SWAP2 KECCAK256 PUSH1 0x2 PUSH1 0x3 SWAP1 SWAP3 MUL ADD ADD SLOAD PUSH1 0x1 PUSH1 0x1 PUSH1 0xA0 SHL SUB AND SUB PUSH2 0x447F JUMPI DUP1 SWAP2 POP PUSH2 0x4491 JUMP JUMPDEST DUP1 PUSH2 0x4489 DUP2 PUSH2 0x4A24 JUMP JUMPDEST SWAP2 POP POP PUSH2 0x442E JUMP JUMPDEST POP PUSH1 0x12 DUP1 SLOAD PUSH2 0x44A2 SWAP1 PUSH1 0x1 SWAP1 PUSH2 0x4ACF JUMP JUMPDEST DUP2 SLOAD DUP2 LT PUSH2 0x44B2 JUMPI PUSH2 0x44B2 PUSH2 0x4967 JUMP JUMPDEST SWAP1 PUSH1 0x0 MSTORE PUSH1 0x20 PUSH1 0x0 KECCAK256 SWAP1 PUSH1 0x3 MUL ADD PUSH1 0x12 DUP3 DUP2 SLOAD DUP2 LT PUSH2 0x44D3 JUMPI PUSH2 0x44D3 PUSH2 0x4967 JUMP JUMPDEST PUSH1 0x0 SWAP2 DUP3 MSTORE PUSH1 0x20 SWAP1 SWAP2 KECCAK256 DUP3 SLOAD PUSH1 0x3 SWAP1 SWAP3 MUL ADD SWAP1 DUP2 SSTORE PUSH1 0x1 DUP1 DUP3 ADD SWAP1 PUSH2 0x44FA SWAP1 DUP5 ADD DUP3 PUSH2 0x4E63 JUMP JUMPDEST POP PUSH1 0x2 SWAP2 DUP3 ADD SLOAD SWAP2 ADD DUP1 SLOAD PUSH1 0x1 PUSH1 0x1 PUSH1 0xA0 SHL SUB NOT AND PUSH1 0x1 PUSH1 0x1 PUSH1 0xA0 SHL SUB SWAP1 SWAP3 AND SWAP2 SWAP1 SWAP2 OR SWAP1 SSTORE PUSH1 0x12 DUP1 SLOAD DUP1 PUSH2 0x4531 JUMPI PUSH2 0x4531 PUSH2 0x4A80 JUMP JUMPDEST PUSH1 0x0 DUP3 DUP2 MSTORE PUSH1 0x20 DUP2 KECCAK256 PUSH1 0x3 PUSH1 0x0 NOT SWAP1 SWAP4 ADD SWAP3 DUP4 MUL ADD DUP2 DUP2 SSTORE SWAP1 PUSH2 0x4557 PUSH1 0x1 DUP4 ADD DUP3 PUSH2 0x456F JUMP JUMPDEST POP PUSH1 0x2 ADD DUP1 SLOAD PUSH1 0x1 PUSH1 0x1 PUSH1 0xA0 SHL SUB NOT AND SWAP1 SSTORE SWAP1 SSTORE POP POP JUMP JUMPDEST POP DUP1 SLOAD PUSH2 0x457B SWAP1 PUSH2 0x4AE2 JUMP JUMPDEST PUSH1 0x0 DUP3 SSTORE DUP1 PUSH1 0x1F LT PUSH2 0x458B JUMPI POP POP JUMP JUMPDEST PUSH1 0x1F ADD PUSH1 0x20 SWAP1 DIV SWAP1 PUSH1 0x0 MSTORE PUSH1 0x20 PUSH1 0x0 KECCAK256 SWAP1 DUP2 ADD SWAP1 PUSH2 0x2025 SWAP2 SWAP1 JUMPDEST DUP1 DUP3 GT ISZERO PUSH2 0x45B9 JUMPI PUSH1 0x0 DUP2 SSTORE PUSH1 0x1 ADD PUSH2 0x45A5 JUMP JUMPDEST POP SWAP1 JUMP JUMPDEST PUSH1 0x1 PUSH1 0x1 PUSH1 0xA0 SHL SUB DUP2 AND DUP2 EQ PUSH2 0x2025 JUMPI PUSH1 0x0 DUP1 REVERT JUMPDEST PUSH1 0x0 PUSH1 0x20 DUP3 DUP5 SUB SLT ISZERO PUSH2 0x45E4 JUMPI PUSH1 0x0 DUP1 REVERT JUMPDEST DUP2 CALLDATALOAD PUSH2 0x45EF DUP2 PUSH2 0x45BD JUMP JUMPDEST SWAP4 SWAP3 POP POP POP JUMP JUMPDEST PUSH1 0x0 PUSH1 0x20 DUP3 DUP5 SUB SLT ISZERO PUSH2 0x4608 JUMPI PUSH1 0x0 DUP1 REVERT JUMPDEST POP CALLDATALOAD SWAP2 SWAP1 POP JUMP JUMPDEST PUSH1 0x0 DUP1 PUSH1 0x40 DUP4 DUP6 SUB SLT ISZERO PUSH2 0x4622 JUMPI PUSH1 0x0 DUP1 REVERT JUMPDEST DUP3 CALLDATALOAD PUSH2 0x462D DUP2 PUSH2 0x45BD JUMP JUMPDEST SWAP5 PUSH1 0x20 SWAP4 SWAP1 SWAP4 ADD CALLDATALOAD SWAP4 POP POP POP JUMP JUMPDEST PUSH4 0x4E487B71 PUSH1 0xE0 SHL PUSH1 0x0 MSTORE PUSH1 0x41 PUSH1 0x4 MSTORE PUSH1 0x24 PUSH1 0x0 REVERT JUMPDEST PUSH1 0x40 MLOAD PUSH1 0xA0 DUP2 ADD PUSH8 0xFFFFFFFFFFFFFFFF DUP2 GT DUP3 DUP3 LT OR ISZERO PUSH2 0x4674 JUMPI PUSH2 0x4674 PUSH2 0x463B JUMP JUMPDEST PUSH1 0x40 MSTORE SWAP1 JUMP JUMPDEST PUSH1 0x40 MLOAD PUSH1 0x1F DUP3 ADD PUSH1 0x1F NOT AND DUP2 ADD PUSH8 0xFFFFFFFFFFFFFFFF DUP2 GT DUP3 DUP3 LT OR ISZERO PUSH2 0x46A3 JUMPI PUSH2 0x46A3 PUSH2 0x463B JUMP JUMPDEST PUSH1 0x40 MSTORE SWAP2 SWAP1 POP JUMP JUMPDEST PUSH1 0x0 PUSH8 0xFFFFFFFFFFFFFFFF DUP3 GT ISZERO PUSH2 0x46C5 JUMPI PUSH2 0x46C5 PUSH2 0x463B JUMP JUMPDEST POP PUSH1 0x5 SHL PUSH1 0x20 ADD SWAP1 JUMP JUMPDEST PUSH1 0x0 PUSH1 0x20 DUP1 DUP4 DUP6 SUB SLT ISZERO PUSH2 0x46E2 JUMPI PUSH1 0x0 DUP1 REVERT JUMPDEST DUP3 CALLDATALOAD PUSH8 0xFFFFFFFFFFFFFFFF DUP2 GT ISZERO PUSH2 0x46F9 JUMPI PUSH1 0x0 DUP1 REVERT JUMPDEST DUP4 ADD PUSH1 0x1F DUP2 ADD DUP6 SGT PUSH2 0x470A JUMPI PUSH1 0x0 DUP1 REVERT JUMPDEST DUP1 CALLDATALOAD PUSH2 0x471D PUSH2 0x4718 DUP3 PUSH2 0x46AB JUMP JUMPDEST PUSH2 0x467A JUMP JUMPDEST DUP2 DUP2 MSTORE PUSH1 0x5 SWAP2 SWAP1 SWAP2 SHL DUP3 ADD DUP4 ADD SWAP1 DUP4 DUP2 ADD SWAP1 DUP8 DUP4 GT ISZERO PUSH2 0x473C JUMPI PUSH1 0x0 DUP1 REVERT JUMPDEST SWAP3 DUP5 ADD SWAP3 JUMPDEST DUP3 DUP5 LT ISZERO PUSH2 0x4763 JUMPI DUP4 CALLDATALOAD PUSH2 0x4754 DUP2 PUSH2 0x45BD JUMP JUMPDEST DUP3 MSTORE SWAP3 DUP5 ADD SWAP3 SWAP1 DUP5 ADD SWAP1 PUSH2 0x4741 JUMP JUMPDEST SWAP8 SWAP7 POP POP POP POP POP POP POP JUMP JUMPDEST PUSH1 0x0 PUSH1 0x20 DUP1 DUP4 DUP6 SUB SLT ISZERO PUSH2 0x4781 JUMPI PUSH1 0x0 DUP1 REVERT JUMPDEST DUP3 CALLDATALOAD PUSH8 0xFFFFFFFFFFFFFFFF DUP2 GT ISZERO PUSH2 0x4798 JUMPI PUSH1 0x0 DUP1 REVERT JUMPDEST DUP4 ADD PUSH1 0x1F DUP2 ADD DUP6 SGT PUSH2 0x47A9 JUMPI PUSH1 0x0 DUP1 REVERT JUMPDEST DUP1 CALLDATALOAD PUSH2 0x47B7 PUSH2 0x4718 DUP3 PUSH2 0x46AB JUMP JUMPDEST DUP2 DUP2 MSTORE PUSH1 0x5 SWAP2 SWAP1 SWAP2 SHL DUP3 ADD DUP4 ADD SWAP1 DUP4 DUP2 ADD SWAP1 DUP8 DUP4 GT ISZERO PUSH2 0x47D6 JUMPI PUSH1 0x0 DUP1 REVERT JUMPDEST SWAP3 DUP5 ADD SWAP3 JUMPDEST DUP3 DUP5 LT ISZERO PUSH2 0x4763 JUMPI DUP4 CALLDATALOAD DUP3 MSTORE SWAP3 DUP5 ADD SWAP3 SWAP1 DUP5 ADD SWAP1 PUSH2 0x47DB JUMP JUMPDEST PUSH1 0x0 JUMPDEST DUP4 DUP2 LT ISZERO PUSH2 0x480F JUMPI DUP2 DUP2 ADD MLOAD DUP4 DUP3 ADD MSTORE PUSH1 0x20 ADD PUSH2 0x47F7 JUMP JUMPDEST POP POP PUSH1 0x0 SWAP2 ADD MSTORE JUMP JUMPDEST PUSH1 0x0 DUP2 MLOAD DUP1 DUP5 MSTORE PUSH2 0x4830 DUP2 PUSH1 0x20 DUP7 ADD PUSH1 0x20 DUP7 ADD PUSH2 0x47F4 JUMP JUMPDEST PUSH1 0x1F ADD PUSH1 0x1F NOT AND SWAP3 SWAP1 SWAP3 ADD PUSH1 0x20 ADD SWAP3 SWAP2 POP POP JUMP JUMPDEST DUP4 DUP2 MSTORE PUSH1 0x60 PUSH1 0x20 DUP3 ADD MSTORE PUSH1 0x0 PUSH2 0x485D PUSH1 0x60 DUP4 ADD DUP6 PUSH2 0x4818 JUMP JUMPDEST SWAP1 POP PUSH1 0x1 DUP1 PUSH1 0xA0 SHL SUB DUP4 AND PUSH1 0x40 DUP4 ADD MSTORE SWAP5 SWAP4 POP POP POP POP JUMP JUMPDEST PUSH1 0x0 DUP1 PUSH1 0x40 DUP4 DUP6 SUB SLT ISZERO PUSH2 0x4888 JUMPI PUSH1 0x0 DUP1 REVERT JUMPDEST POP POP DUP1 CALLDATALOAD SWAP3 PUSH1 0x20 SWAP1 SWAP2 ADD CALLDATALOAD SWAP2 POP JUMP JUMPDEST PUSH1 0x20 DUP2 MSTORE PUSH1 0x0 PUSH2 0x1E46 PUSH1 0x20 DUP4 ADD DUP5 PUSH2 0x4818 JUMP JUMPDEST PUSH1 0x0 DUP1 PUSH1 0x40 DUP4 DUP6 SUB SLT ISZERO PUSH2 0x48BD JUMPI PUSH1 0x0 DUP1 REVERT JUMPDEST DUP3 CALLDATALOAD SWAP2 POP PUSH1 0x20 DUP4 ADD CALLDATALOAD PUSH2 0x48CF DUP2 PUSH2 0x45BD JUMP JUMPDEST DUP1 SWAP2 POP POP SWAP3 POP SWAP3 SWAP1 POP JUMP JUMPDEST PUSH1 0x20 DUP1 DUP3 MSTORE PUSH1 0x2A SWAP1 DUP3 ADD MSTORE PUSH32 0x41646472657373206973206E6F7420616E20206C6576656C2074776F2061646D PUSH1 0x40 DUP3 ADD MSTORE PUSH10 0x34B734B9BA3930BA37B9 PUSH1 0xB1 SHL PUSH1 0x60 DUP3 ADD MSTORE PUSH1 0x80 ADD SWAP1 JUMP JUMPDEST PUSH1 0x20 DUP1 DUP3 MSTORE PUSH1 0x23 SWAP1 DUP3 ADD MSTORE PUSH32 0x596F752063616E6E6F742065786365656420746865206D6178696D756D206C69 PUSH1 0x40 DUP3 ADD MSTORE PUSH3 0x1B5A5D PUSH1 0xEA SHL PUSH1 0x60 DUP3 ADD MSTORE PUSH1 0x80 ADD SWAP1 JUMP JUMPDEST PUSH4 0x4E487B71 PUSH1 0xE0 SHL PUSH1 0x0 MSTORE PUSH1 0x32 PUSH1 0x4 MSTORE PUSH1 0x24 PUSH1 0x0 REVERT JUMPDEST PUSH1 0x0 PUSH1 0x20 DUP3 DUP5 SUB SLT ISZERO PUSH2 0x498F JUMPI PUSH1 0x0 DUP1 REVERT JUMPDEST DUP2 MLOAD DUP1 ISZERO ISZERO DUP2 EQ PUSH2 0x45EF JUMPI PUSH1 0x0 DUP1 REVERT JUMPDEST PUSH1 0x20 DUP1 DUP3 MSTORE PUSH1 0x12 SWAP1 DUP3 ADD MSTORE PUSH18 0x1859191C995CDCC81A185CC81B9BC81C1A59 PUSH1 0x72 SHL PUSH1 0x40 DUP3 ADD MSTORE PUSH1 0x60 ADD SWAP1 JUMP JUMPDEST PUSH1 0x20 DUP1 DUP3 MSTORE PUSH1 0x23 SWAP1 DUP3 ADD MSTORE PUSH32 0x5468697320616464726573732068617320616C7265616479206265656E206164 PUSH1 0x40 DUP3 ADD MSTORE PUSH3 0x191959 PUSH1 0xEA SHL PUSH1 0x60 DUP3 ADD MSTORE PUSH1 0x80 ADD SWAP1 JUMP JUMPDEST PUSH4 0x4E487B71 PUSH1 0xE0 SHL PUSH1 0x0 MSTORE PUSH1 0x11 PUSH1 0x4 MSTORE PUSH1 0x24 PUSH1 0x0 REVERT JUMPDEST PUSH1 0x0 PUSH1 0x1 DUP3 ADD PUSH2 0x4A36 JUMPI PUSH2 0x4A36 PUSH2 0x4A0E JUMP JUMPDEST POP PUSH1 0x1 ADD SWAP1 JUMP JUMPDEST PUSH1 0x20 DUP1 DUP3 MSTORE PUSH1 0x23 SWAP1 DUP3 ADD MSTORE PUSH32 0x5468652072617465206D7573742062652077697468696E206F6E652068756E64 PUSH1 0x40 DUP3 ADD MSTORE PUSH3 0x1C9959 PUSH1 0xEA SHL PUSH1 0x60 DUP3 ADD MSTORE PUSH1 0x80 ADD SWAP1 JUMP JUMPDEST PUSH4 0x4E487B71 PUSH1 0xE0 SHL PUSH1 0x0 MSTORE PUSH1 0x31 PUSH1 0x4 MSTORE PUSH1 0x24 PUSH1 0x0 REVERT JUMPDEST PUSH1 0x0 DUP3 PUSH2 0x4AB3 JUMPI PUSH4 0x4E487B71 PUSH1 0xE0 SHL PUSH1 0x0 MSTORE PUSH1 0x12 PUSH1 0x4 MSTORE PUSH1 0x24 PUSH1 0x0 REVERT JUMPDEST POP DIV SWAP1 JUMP JUMPDEST DUP1 DUP3 MUL DUP2 ISZERO DUP3 DUP3 DIV DUP5 EQ OR PUSH2 0x1E49 JUMPI PUSH2 0x1E49 PUSH2 0x4A0E JUMP JUMPDEST DUP2 DUP2 SUB DUP2 DUP2 GT ISZERO PUSH2 0x1E49 JUMPI PUSH2 0x1E49 PUSH2 0x4A0E JUMP JUMPDEST PUSH1 0x1 DUP2 DUP2 SHR SWAP1 DUP3 AND DUP1 PUSH2 0x4AF6 JUMPI PUSH1 0x7F DUP3 AND SWAP2 POP JUMPDEST PUSH1 0x20 DUP3 LT DUP2 SUB PUSH2 0x4B16 JUMPI PUSH4 0x4E487B71 PUSH1 0xE0 SHL PUSH1 0x0 MSTORE PUSH1 0x22 PUSH1 0x4 MSTORE PUSH1 0x24 PUSH1 0x0 REVERT JUMPDEST POP SWAP2 SWAP1 POP JUMP JUMPDEST DUP1 MLOAD PUSH10 0xFFFFFFFFFFFFFFFFFFFF DUP2 AND DUP2 EQ PUSH2 0x4B36 JUMPI PUSH1 0x0 DUP1 REVERT JUMPDEST SWAP2 SWAP1 POP JUMP JUMPDEST PUSH1 0x0 DUP1 PUSH1 0x0 DUP1 PUSH1 0x0 PUSH1 0xA0 DUP7 DUP9 SUB SLT ISZERO PUSH2 0x4B53 JUMPI PUSH1 0x0 DUP1 REVERT JUMPDEST PUSH2 0x4B5C DUP7 PUSH2 0x4B1C JUMP JUMPDEST SWAP5 POP PUSH1 0x20 DUP7 ADD MLOAD SWAP4 POP PUSH1 0x40 DUP7 ADD MLOAD SWAP3 POP PUSH1 0x60 DUP7 ADD MLOAD SWAP2 POP PUSH2 0x4B7F PUSH1 0x80 DUP8 ADD PUSH2 0x4B1C JUMP JUMPDEST SWAP1 POP SWAP3 SWAP6 POP SWAP3 SWAP6 SWAP1 SWAP4 POP JUMP JUMPDEST PUSH1 0x0 PUSH1 0x20 DUP3 DUP5 SUB SLT ISZERO PUSH2 0x4B9D JUMPI PUSH1 0x0 DUP1 REVERT JUMPDEST POP MLOAD SWAP2 SWAP1 POP JUMP JUMPDEST PUSH1 0x0 DUP3 PUSH1 0x1F DUP4 ADD SLT PUSH2 0x4BB5 JUMPI PUSH1 0x0 DUP1 REVERT JUMPDEST DUP2 MLOAD PUSH8 0xFFFFFFFFFFFFFFFF DUP2 GT ISZERO PUSH2 0x4BCF JUMPI PUSH2 0x4BCF PUSH2 0x463B JUMP JUMPDEST PUSH2 0x4BE2 PUSH1 0x1F DUP3 ADD PUSH1 0x1F NOT AND PUSH1 0x20 ADD PUSH2 0x467A JUMP JUMPDEST DUP2 DUP2 MSTORE DUP5 PUSH1 0x20 DUP4 DUP7 ADD ADD GT ISZERO PUSH2 0x4BF7 JUMPI PUSH1 0x0 DUP1 REVERT JUMPDEST PUSH2 0x4C08 DUP3 PUSH1 0x20 DUP4 ADD PUSH1 0x20 DUP8 ADD PUSH2 0x47F4 JUMP JUMPDEST SWAP5 SWAP4 POP POP POP POP JUMP JUMPDEST PUSH1 0x0 PUSH1 0x20 DUP3 DUP5 SUB SLT ISZERO PUSH2 0x4C22 JUMPI PUSH1 0x0 DUP1 REVERT JUMPDEST DUP2 MLOAD PUSH8 0xFFFFFFFFFFFFFFFF DUP1 DUP3 GT ISZERO PUSH2 0x4C3A JUMPI PUSH1 0x0 DUP1 REVERT JUMPDEST SWAP1 DUP4 ADD SWAP1 PUSH1 0xA0 DUP3 DUP7 SUB SLT ISZERO PUSH2 0x4C4E JUMPI PUSH1 0x0 DUP1 REVERT JUMPDEST PUSH2 0x4C56 PUSH2 0x4651 JUMP JUMPDEST DUP3 MLOAD DUP2 MSTORE PUSH1 0x20 DUP4 ADD MLOAD PUSH2 0x4C68 DUP2 PUSH2 0x45BD JUMP JUMPDEST PUSH1 0x20 DUP3 ADD MSTORE PUSH1 0x40 DUP4 ADD MLOAD DUP3 DUP2 GT ISZERO PUSH2 0x4C7F JUMPI PUSH1 0x0 DUP1 REVERT JUMPDEST PUSH2 0x4C8B DUP8 DUP3 DUP7 ADD PUSH2 0x4BA4 JUMP JUMPDEST PUSH1 0x40 DUP4 ADD MSTORE POP PUSH1 0x60 DUP4 ADD MLOAD DUP3 DUP2 GT ISZERO PUSH2 0x4CA3 JUMPI PUSH1 0x0 DUP1 REVERT JUMPDEST PUSH2 0x4CAF DUP8 DUP3 DUP7 ADD PUSH2 0x4BA4 JUMP JUMPDEST PUSH1 0x60 DUP4 ADD MSTORE POP PUSH1 0x80 DUP4 ADD MLOAD PUSH1 0x80 DUP3 ADD MSTORE DUP1 SWAP4 POP POP POP POP SWAP3 SWAP2 POP POP JUMP JUMPDEST PUSH1 0x1F DUP3 GT ISZERO PUSH2 0x4D11 JUMPI PUSH1 0x0 DUP2 DUP2 MSTORE PUSH1 0x20 DUP2 KECCAK256 PUSH1 0x1F DUP6 ADD PUSH1 0x5 SHR DUP2 ADD PUSH1 0x20 DUP7 LT ISZERO PUSH2 0x4CF2 JUMPI POP DUP1 JUMPDEST PUSH1 0x1F DUP6 ADD PUSH1 0x5 SHR DUP3 ADD SWAP2 POP JUMPDEST DUP2 DUP2 LT ISZERO PUSH2 0x4189 JUMPI DUP3 DUP2 SSTORE PUSH1 0x1 ADD PUSH2 0x4CFE JUMP JUMPDEST POP POP POP JUMP JUMPDEST DUP2 MLOAD PUSH8 0xFFFFFFFFFFFFFFFF DUP2 GT ISZERO PUSH2 0x4D30 JUMPI PUSH2 0x4D30 PUSH2 0x463B JUMP JUMPDEST PUSH2 0x4D44 DUP2 PUSH2 0x4D3E DUP5 SLOAD PUSH2 0x4AE2 JUMP JUMPDEST DUP5 PUSH2 0x4CCB JUMP JUMPDEST PUSH1 0x20 DUP1 PUSH1 0x1F DUP4 GT PUSH1 0x1 DUP2 EQ PUSH2 0x4D79 JUMPI PUSH1 0x0 DUP5 ISZERO PUSH2 0x4D61 JUMPI POP DUP6 DUP4 ADD MLOAD JUMPDEST PUSH1 0x0 NOT PUSH1 0x3 DUP7 SWAP1 SHL SHR NOT AND PUSH1 0x1 DUP6 SWAP1 SHL OR DUP6 SSTORE PUSH2 0x4189 JUMP JUMPDEST PUSH1 0x0 DUP6 DUP2 MSTORE PUSH1 0x20 DUP2 KECCAK256 PUSH1 0x1F NOT DUP7 AND SWAP2 JUMPDEST DUP3 DUP2 LT ISZERO PUSH2 0x4DA8 JUMPI DUP9 DUP7 ADD MLOAD DUP3 SSTORE SWAP5 DUP5 ADD SWAP5 PUSH1 0x1 SWAP1 SWAP2 ADD SWAP1 DUP5 ADD PUSH2 0x4D89 JUMP JUMPDEST POP DUP6 DUP3 LT ISZERO PUSH2 0x4DC6 JUMPI DUP8 DUP6 ADD MLOAD PUSH1 0x0 NOT PUSH1 0x3 DUP9 SWAP1 SHL PUSH1 0xF8 AND SHR NOT AND DUP2 SSTORE JUMPDEST POP POP POP POP POP PUSH1 0x1 SWAP1 DUP2 SHL ADD SWAP1 SSTORE POP JUMP JUMPDEST DUP1 DUP3 ADD DUP1 DUP3 GT ISZERO PUSH2 0x1E49 JUMPI PUSH2 0x1E49 PUSH2 0x4A0E JUMP JUMPDEST PUSH1 0x0 PUSH2 0x120 DUP12 DUP4 MSTORE DUP11 PUSH1 0x20 DUP5 ADD MSTORE DUP1 PUSH1 0x40 DUP5 ADD MSTORE PUSH2 0x4E09 DUP2 DUP5 ADD DUP12 PUSH2 0x4818 JUMP JUMPDEST PUSH1 0x1 PUSH1 0x1 PUSH1 0xA0 SHL SUB SWAP10 SWAP1 SWAP10 AND PUSH1 0x60 DUP5 ADD MSTORE POP POP PUSH1 0x80 DUP2 ADD SWAP6 SWAP1 SWAP6 MSTORE PUSH1 0xA0 DUP6 ADD SWAP4 SWAP1 SWAP4 MSTORE PUSH1 0xC0 DUP5 ADD SWAP2 SWAP1 SWAP2 MSTORE PUSH1 0xE0 DUP4 ADD MSTORE PUSH2 0x100 SWAP1 SWAP2 ADD MSTORE SWAP4 SWAP3 POP POP POP JUMP JUMPDEST PUSH1 0x0 DUP3 MLOAD PUSH2 0x4E59 DUP2 DUP5 PUSH1 0x20 DUP8 ADD PUSH2 0x47F4 JUMP JUMPDEST SWAP2 SWAP1 SWAP2 ADD SWAP3 SWAP2 POP POP JUMP JUMPDEST DUP2 DUP2 SUB PUSH2 0x4E6E JUMPI POP POP JUMP JUMPDEST PUSH2 0x4E78 DUP3 SLOAD PUSH2 0x4AE2 JUMP JUMPDEST PUSH8 0xFFFFFFFFFFFFFFFF DUP2 GT ISZERO PUSH2 0x4E90 JUMPI PUSH2 0x4E90 PUSH2 0x463B JUMP JUMPDEST PUSH2 0x4E9E DUP2 PUSH2 0x4D3E DUP5 SLOAD PUSH2 0x4AE2 JUMP JUMPDEST PUSH1 0x0 PUSH1 0x1F DUP3 GT PUSH1 0x1 DUP2 EQ PUSH2 0x4ED2 JUMPI PUSH1 0x0 DUP4 ISZERO PUSH2 0x4EBA JUMPI POP DUP5 DUP3 ADD SLOAD JUMPDEST PUSH1 0x0 NOT PUSH1 0x3 DUP6 SWAP1 SHL SHR NOT AND PUSH1 0x1 DUP5 SWAP1 SHL OR DUP5 SSTORE PUSH2 0x3B43 JUMP JUMPDEST PUSH1 0x0 DUP6 DUP2 MSTORE PUSH1 0x20 SWAP1 KECCAK256 PUSH1 0x1F NOT DUP5 AND SWAP1 PUSH1 0x0 DUP7 DUP2 MSTORE PUSH1 0x20 SWAP1 KECCAK256 DUP5 JUMPDEST DUP4 DUP2 LT ISZERO PUSH2 0x4F0C JUMPI DUP3 DUP7 ADD SLOAD DUP3 SSTORE PUSH1 0x1 SWAP6 DUP7 ADD SWAP6 SWAP1 SWAP2 ADD SWAP1 PUSH1 0x20 ADD PUSH2 0x4EEC JUMP JUMPDEST POP DUP6 DUP4 LT ISZERO PUSH2 0x4DC6 JUMPI SWAP4 ADD SLOAD PUSH1 0x0 NOT PUSH1 0xF8 PUSH1 0x3 DUP8 SWAP1 SHL AND SHR NOT AND SWAP1 SWAP3 SSTORE POP POP PUSH1 0x1 SWAP1 DUP2 SHL ADD SWAP1 SSTORE POP JUMP INVALID LOG2 PUSH5 0x6970667358 0x22 SLT KECCAK256 RETURNDATASIZE 0x26 0xD9 0x49 DUP8 0xAD SHL 0x2B PUSH27 0x9B439A06906513FA104822FB8E1402D2BF28213136204F64736F6C PUSH4 0x43000811 STOP CALLER "
		},
		"gasEstimates": {
			"creation": {
				"codeDepositCost": "4066400",
				"executionCost": "infinite",
				"totalCost": "infinite"
			},
			"external": {
				"Claim(address,uint256)": "infinite",
				"IsAdminLevelThree(address)": "2626",
				"IsAdminLevelTwo(address)": "2626",
				"ShowWhiteList(uint256)": "infinite",
				"WhiteListUser(address)": "2603",
				"addAssignAddress(address[])": "infinite",
				"addInviteRate(uint256[])": "infinite",
				"addRate(uint256[])": "infinite",
				"addValidNumbers(uint256)": "48857",
				"addWhiteList(address[])": "infinite",
				"adminInviter(address,uint256)": "infinite",
				"adminLevelThreeMax()": "2405",
				"adminLevelTwoMax()": "2453",
				"adminsLevelThree(uint256)": "4704",
				"adminsLevelTwo(uint256)": "4750",
				"assignAddress(uint256)": "4749",
				"buyId()": "2363",
				"donate(uint256)": "infinite",
				"fdt()": "2471",
				"feeOn()": "2449",
				"firePassport_()": "2406",
				"getAdminWhiteListLength()": "2495",
				"getAdminsLevelThreeLength()": "2424",
				"getAdminsLevelTwoLength()": "2404",
				"getAssignAddresslength()": "2449",
				"getBalanceOfFDT()": "infinite",
				"getInviteLength()": "2473",
				"getInviteRate()": "2360",
				"getLatesPrice()": "infinite",
				"getName(address)": "infinite",
				"getPid(address)": "infinite",
				"getRate()": "infinite",
				"getRateLength()": "2360",
				"getUserSetAdminsLevelThree()": "2494",
				"getValidNumbers()": "2447",
				"getValue()": "infinite",
				"getWhiteListLength()": "2359",
				"getfdtAmount(uint256)": "infinite",
				"inviteRate(uint256)": "4643",
				"isRecommender(address)": "2604",
				"maxThree()": "2428",
				"maxTwo()": "2450",
				"owner()": "2443",
				"pause()": "infinite",
				"paused()": "2379",
				"pidStatusForAdmin()": "2472",
				"pidStatusForUser()": "2430",
				"rate(uint256)": "4642",
				"recommender(address)": "2641",
				"recommenderInfo(address,uint256)": "4847",
				"removeAdminLevelThree(address)": "infinite",
				"removeAdminLevelTwo(address)": "infinite",
				"removeAssiginAddress(address)": "infinite",
				"removeRate(uint256)": "62615",
				"removeValidNumbers()": "31766",
				"removeWhiteListBatch(address[])": "infinite",
				"renounceOwnership()": "infinite",
				"salePrice()": "2383",
				"setAdminLevelThree(address[])": "infinite",
				"setAdminLevelThreeMax(uint256)": "24622",
				"setAdminLevelTwo(address[])": "infinite",
				"setAdminLevelTwoMax(uint256)": "24580",
				"setAdminsForTwo(address,uint256)": "4934",
				"setAssignAddress(uint256,address)": "31200",
				"setFDTAddress(address)": "26799",
				"setFeeStatus()": "26692",
				"setInviteRate(uint256,uint256)": "26771",
				"setPidStatusForAdmin()": "26737",
				"setPidStatusForUser()": "26692",
				"setRate(uint256,uint256)": "28983",
				"setSalePrice(uint256)": "24605",
				"setUserBuyMax(uint256)": "24578",
				"setValidNumbers(uint256,uint256)": "28982",
				"setWeth(address)": "26863",
				"setWhiteMaxForThree(uint256)": "24644",
				"setWhiteMaxForTwo(uint256)": "24623",
				"totalDonate()": "2471",
				"transferOwnership(address)": "infinite",
				"unpause()": "infinite",
				"userBuyMax()": "2363",
				"userSetAdminsForThree(address,uint256)": "4869",
				"userTotalBuy(address)": "2648",
				"validNumbers(uint256)": "4752",
				"weth()": "2427",
				"withdraw(uint256)": "infinite"
			},
			"internal": {
				"checkAddr(address,address)": "infinite",
				"checkAddrForAdminLevelThree(address)": "infinite",
				"checkAddrForAdminLevelTwo(address)": "infinite",
				"getMax(address)": "6550",
				"isValidNumber(uint256)": "infinite",
				"removeWhiteList(address)": "infinite",
				"removeWhiteListTotal(address)": "infinite"
			}
		},
		"methodIdentifiers": {
			"Claim(address,uint256)": "47cee97c",
			"IsAdminLevelThree(address)": "220cd383",
			"IsAdminLevelTwo(address)": "703a382c",
			"ShowWhiteList(uint256)": "283f261d",
			"WhiteListUser(address)": "bc15b070",
			"addAssignAddress(address[])": "bfc8faee",
			"addInviteRate(uint256[])": "328a7561",
			"addRate(uint256[])": "1bd8a455",
			"addValidNumbers(uint256)": "c47d0f58",
			"addWhiteList(address[])": "5e1045ec",
			"adminInviter(address,uint256)": "4d8b27a4",
			"adminLevelThreeMax()": "f6659d77",
			"adminLevelTwoMax()": "0af8a121",
			"adminsLevelThree(uint256)": "6c385505",
			"adminsLevelTwo(uint256)": "0a16a638",
			"assignAddress(uint256)": "6655e0ca",
			"buyId()": "2039eeff",
			"donate(uint256)": "f14faf6f",
			"fdt()": "22d392cb",
			"feeOn()": "4f335d0a",
			"firePassport_()": "1639d2f7",
			"getAdminWhiteListLength()": "1c50402f",
			"getAdminsLevelThreeLength()": "f7ea1d66",
			"getAdminsLevelTwoLength()": "b5b8f60c",
			"getAssignAddresslength()": "14d0be5d",
			"getBalanceOfFDT()": "42ffae0f",
			"getInviteLength()": "13c160df",
			"getInviteRate()": "6c03cd49",
			"getLatesPrice()": "2da67ace",
			"getName(address)": "5fd4b08a",
			"getPid(address)": "43b55f35",
			"getRate()": "679aefce",
			"getRateLength()": "304ab625",
			"getUserSetAdminsLevelThree()": "911fdb9a",
			"getValidNumbers()": "a8c25ea2",
			"getValue()": "20965255",
			"getWhiteListLength()": "bb72ce42",
			"getfdtAmount(uint256)": "8b4147e3",
			"inviteRate(uint256)": "869ac956",
			"isRecommender(address)": "317152f3",
			"maxThree()": "a3fbd273",
			"maxTwo()": "d0b5618e",
			"owner()": "8da5cb5b",
			"pause()": "8456cb59",
			"paused()": "5c975abb",
			"pidStatusForAdmin()": "b8e808e7",
			"pidStatusForUser()": "0542caec",
			"rate(uint256)": "e7ee6ad6",
			"recommender(address)": "976138c1",
			"recommenderInfo(address,uint256)": "0e01d8e2",
			"removeAdminLevelThree(address)": "2399c453",
			"removeAdminLevelTwo(address)": "e8d98a9a",
			"removeAssiginAddress(address)": "56120122",
			"removeRate(uint256)": "e0507ada",
			"removeValidNumbers()": "1ee585b2",
			"removeWhiteListBatch(address[])": "f96b4cfe",
			"renounceOwnership()": "715018a6",
			"salePrice()": "f51f96dd",
			"setAdminLevelThree(address[])": "12d00e1c",
			"setAdminLevelThreeMax(uint256)": "376eb069",
			"setAdminLevelTwo(address[])": "abb09a46",
			"setAdminLevelTwoMax(uint256)": "04aea439",
			"setAdminsForTwo(address,uint256)": "3c7d6ad1",
			"setAssignAddress(uint256,address)": "ed68e3ca",
			"setFDTAddress(address)": "03987f41",
			"setFeeStatus()": "98bad7e6",
			"setInviteRate(uint256,uint256)": "96430ad5",
			"setPidStatusForAdmin()": "23574695",
			"setPidStatusForUser()": "4dce6847",
			"setRate(uint256,uint256)": "46df2ccb",
			"setSalePrice(uint256)": "1919fed7",
			"setUserBuyMax(uint256)": "b4c060da",
			"setValidNumbers(uint256,uint256)": "f182f2fc",
			"setWeth(address)": "b8d1452f",
			"setWhiteMaxForThree(uint256)": "92851547",
			"setWhiteMaxForTwo(uint256)": "2dfae796",
			"totalDonate()": "fae25e0e",
			"transferOwnership(address)": "f2fde38b",
			"unpause()": "3f4ba83a",
			"userBuyMax()": "af302c67",
			"userSetAdminsForThree(address,uint256)": "2d32f0b9",
			"userTotalBuy(address)": "13dfadd3",
			"validNumbers(uint256)": "5b4cc869",
			"weth()": "3fc8cef3",
			"withdraw(uint256)": "2e1a7d4d"
		}
	},
	"abi": [
		{
			"inputs": [
				{
					"internalType": "contract ERC20",
					"name": "_fdt",
					"type": "address"
				},
				{
					"internalType": "address",
					"name": "_weth",
					"type": "address"
				},
				{
					"internalType": "address",
					"name": "_firePassport",
					"type": "address"
				}
			],
			"stateMutability": "nonpayable",
			"type": "constructor"
		},
		{
			"anonymous": false,
			"inputs": [
				{
					"indexed": false,
					"internalType": "uint256",
					"name": "no",
					"type": "uint256"
				},
				{
					"indexed": false,
					"internalType": "uint256",
					"name": "pid",
					"type": "uint256"
				},
				{
					"indexed": false,
					"internalType": "string",
					"name": "name",
					"type": "string"
				},
				{
					"indexed": false,
					"internalType": "address",
					"name": "addr",
					"type": "address"
				},
				{
					"indexed": false,
					"internalType": "uint256",
					"name": "ethAmount",
					"type": "uint256"
				},
				{
					"indexed": false,
					"internalType": "uint256",
					"name": "usdtAmount",
					"type": "uint256"
				},
				{
					"indexed": false,
					"internalType": "uint256",
					"name": "rate",
					"type": "uint256"
				},
				{
					"indexed": false,
					"internalType": "uint256",
					"name": "fdtAmount",
					"type": "uint256"
				},
				{
					"indexed": false,
					"internalType": "uint256",
					"name": "time",
					"type": "uint256"
				}
			],
			"name": "AllRecord",
			"type": "event"
		},
		{
			"anonymous": false,
			"inputs": [
				{
					"indexed": false,
					"internalType": "uint256",
					"name": "pid",
					"type": "uint256"
				},
				{
					"indexed": false,
					"internalType": "string",
					"name": "name",
					"type": "string"
				},
				{
					"indexed": false,
					"internalType": "address",
					"name": "user",
					"type": "address"
				}
			],
			"name": "AllRemoveWList",
			"type": "event"
		},
		{
			"anonymous": false,
			"inputs": [
				{
					"indexed": false,
					"internalType": "uint256",
					"name": "pid",
					"type": "uint256"
				},
				{
					"indexed": false,
					"internalType": "string",
					"name": "name",
					"type": "string"
				},
				{
					"indexed": false,
					"internalType": "address",
					"name": "user",
					"type": "address"
				}
			],
			"name": "AllWhiteList",
			"type": "event"
		},
		{
			"anonymous": false,
			"inputs": [
				{
					"indexed": true,
					"internalType": "address",
					"name": "previousOwner",
					"type": "address"
				},
				{
					"indexed": true,
					"internalType": "address",
					"name": "newOwner",
					"type": "address"
				}
			],
			"name": "OwnershipTransferred",
			"type": "event"
		},
		{
			"anonymous": false,
			"inputs": [
				{
					"indexed": false,
					"internalType": "address",
					"name": "account",
					"type": "address"
				}
			],
			"name": "Paused",
			"type": "event"
		},
		{
			"anonymous": false,
			"inputs": [
				{
					"indexed": false,
					"internalType": "address",
					"name": "account",
					"type": "address"
				}
			],
			"name": "Unpaused",
			"type": "event"
		},
		{
			"anonymous": false,
			"inputs": [
				{
					"indexed": false,
					"internalType": "uint256",
					"name": "pid",
					"type": "uint256"
				},
				{
					"indexed": false,
					"internalType": "string",
					"name": "name",
					"type": "string"
				},
				{
					"indexed": false,
					"internalType": "address",
					"name": "user",
					"type": "address"
				}
			],
			"name": "adminLevelThree",
			"type": "event"
		},
		{
			"anonymous": false,
			"inputs": [
				{
					"indexed": false,
					"internalType": "uint256",
					"name": "pid",
					"type": "uint256"
				},
				{
					"indexed": false,
					"internalType": "string",
					"name": "name",
					"type": "string"
				},
				{
					"indexed": false,
					"internalType": "address",
					"name": "user",
					"type": "address"
				}
			],
			"name": "adminLevelTwo",
			"type": "event"
		},
		{
			"anonymous": false,
			"inputs": [
				{
					"indexed": false,
					"internalType": "uint256",
					"name": "pid",
					"type": "uint256"
				},
				{
					"indexed": false,
					"internalType": "string",
					"name": "name",
					"type": "string"
				},
				{
					"indexed": false,
					"internalType": "address",
					"name": "user",
					"type": "address"
				}
			],
			"name": "reAdminLevelThree",
			"type": "event"
		},
		{
			"anonymous": false,
			"inputs": [
				{
					"indexed": false,
					"internalType": "uint256",
					"name": "pid",
					"type": "uint256"
				},
				{
					"indexed": false,
					"internalType": "string",
					"name": "name",
					"type": "string"
				},
				{
					"indexed": false,
					"internalType": "address",
					"name": "user",
					"type": "address"
				}
			],
			"name": "reAdminLevelTwo",
			"type": "event"
		},
		{
			"inputs": [
				{
					"internalType": "address",
					"name": "tokenAddress",
					"type": "address"
				},
				{
					"internalType": "uint256",
					"name": "tokens",
					"type": "uint256"
				}
			],
			"name": "Claim",
			"outputs": [
				{
					"internalType": "bool",
					"name": "success",
					"type": "bool"
				}
			],
			"stateMutability": "nonpayable",
			"type": "function"
		},
		{
			"inputs": [
				{
					"internalType": "address",
					"name": "",
					"type": "address"
				}
			],
			"name": "IsAdminLevelThree",
			"outputs": [
				{
					"internalType": "bool",
					"name": "",
					"type": "bool"
				}
			],
			"stateMutability": "view",
			"type": "function"
		},
		{
			"inputs": [
				{
					"internalType": "address",
					"name": "",
					"type": "address"
				}
			],
			"name": "IsAdminLevelTwo",
			"outputs": [
				{
					"internalType": "bool",
					"name": "",
					"type": "bool"
				}
			],
			"stateMutability": "view",
			"type": "function"
		},
		{
			"inputs": [
				{
					"internalType": "uint256",
					"name": "",
					"type": "uint256"
				}
			],
			"name": "ShowWhiteList",
			"outputs": [
				{
					"internalType": "uint256",
					"name": "Pid",
					"type": "uint256"
				},
				{
					"internalType": "string",
					"name": "name",
					"type": "string"
				},
				{
					"internalType": "address",
					"name": "user",
					"type": "address"
				}
			],
			"stateMutability": "view",
			"type": "function"
		},
		{
			"inputs": [
				{
					"internalType": "address",
					"name": "",
					"type": "address"
				}
			],
			"name": "WhiteListUser",
			"outputs": [
				{
					"internalType": "bool",
					"name": "",
					"type": "bool"
				}
			],
			"stateMutability": "view",
			"type": "function"
		},
		{
			"inputs": [
				{
					"internalType": "address[]",
					"name": "_addr",
					"type": "address[]"
				}
			],
			"name": "addAssignAddress",
			"outputs": [],
			"stateMutability": "nonpayable",
			"type": "function"
		},
		{
			"inputs": [
				{
					"internalType": "uint256[]",
					"name": "_rate",
					"type": "uint256[]"
				}
			],
			"name": "addInviteRate",
			"outputs": [],
			"stateMutability": "nonpayable",
			"type": "function"
		},
		{
			"inputs": [
				{
					"internalType": "uint256[]",
					"name": "_rate",
					"type": "uint256[]"
				}
			],
			"name": "addRate",
			"outputs": [],
			"stateMutability": "nonpayable",
			"type": "function"
		},
		{
			"inputs": [
				{
					"internalType": "uint256",
					"name": "_num",
					"type": "uint256"
				}
			],
			"name": "addValidNumbers",
			"outputs": [],
			"stateMutability": "nonpayable",
			"type": "function"
		},
		{
			"inputs": [
				{
					"internalType": "address[]",
					"name": "_addr",
					"type": "address[]"
				}
			],
			"name": "addWhiteList",
			"outputs": [],
			"stateMutability": "nonpayable",
			"type": "function"
		},
		{
			"inputs": [
				{
					"internalType": "address",
					"name": "",
					"type": "address"
				},
				{
					"internalType": "uint256",
					"name": "",
					"type": "uint256"
				}
			],
			"name": "adminInviter",
			"outputs": [
				{
					"internalType": "uint256",
					"name": "Pid",
					"type": "uint256"
				},
				{
					"internalType": "string",
					"name": "name",
					"type": "string"
				},
				{
					"internalType": "address",
					"name": "user",
					"type": "address"
				}
			],
			"stateMutability": "view",
			"type": "function"
		},
		{
			"inputs": [],
			"name": "adminLevelThreeMax",
			"outputs": [
				{
					"internalType": "uint256",
					"name": "",
					"type": "uint256"
				}
			],
			"stateMutability": "view",
			"type": "function"
		},
		{
			"inputs": [],
			"name": "adminLevelTwoMax",
			"outputs": [
				{
					"internalType": "uint256",
					"name": "",
					"type": "uint256"
				}
			],
			"stateMutability": "view",
			"type": "function"
		},
		{
			"inputs": [
				{
					"internalType": "uint256",
					"name": "",
					"type": "uint256"
				}
			],
			"name": "adminsLevelThree",
			"outputs": [
				{
					"internalType": "address",
					"name": "",
					"type": "address"
				}
			],
			"stateMutability": "view",
			"type": "function"
		},
		{
			"inputs": [
				{
					"internalType": "uint256",
					"name": "",
					"type": "uint256"
				}
			],
			"name": "adminsLevelTwo",
			"outputs": [
				{
					"internalType": "address",
					"name": "",
					"type": "address"
				}
			],
			"stateMutability": "view",
			"type": "function"
		},
		{
			"inputs": [
				{
					"internalType": "uint256",
					"name": "",
					"type": "uint256"
				}
			],
			"name": "assignAddress",
			"outputs": [
				{
					"internalType": "address",
					"name": "",
					"type": "address"
				}
			],
			"stateMutability": "view",
			"type": "function"
		},
		{
			"inputs": [],
			"name": "buyId",
			"outputs": [
				{
					"internalType": "uint256",
					"name": "",
					"type": "uint256"
				}
			],
			"stateMutability": "view",
			"type": "function"
		},
		{
			"inputs": [
				{
					"internalType": "uint256",
					"name": "fee",
					"type": "uint256"
				}
			],
			"name": "donate",
			"outputs": [],
			"stateMutability": "payable",
			"type": "function"
		},
		{
			"inputs": [],
			"name": "fdt",
			"outputs": [
				{
					"internalType": "contract ERC20",
					"name": "",
					"type": "address"
				}
			],
			"stateMutability": "view",
			"type": "function"
		},
		{
			"inputs": [],
			"name": "feeOn",
			"outputs": [
				{
					"internalType": "bool",
					"name": "",
					"type": "bool"
				}
			],
			"stateMutability": "view",
			"type": "function"
		},
		{
			"inputs": [],
			"name": "firePassport_",
			"outputs": [
				{
					"internalType": "address",
					"name": "",
					"type": "address"
				}
			],
			"stateMutability": "view",
			"type": "function"
		},
		{
			"inputs": [],
			"name": "getAdminWhiteListLength",
			"outputs": [
				{
					"internalType": "uint256",
					"name": "",
					"type": "uint256"
				}
			],
			"stateMutability": "view",
			"type": "function"
		},
		{
			"inputs": [],
			"name": "getAdminsLevelThreeLength",
			"outputs": [
				{
					"internalType": "uint256",
					"name": "",
					"type": "uint256"
				}
			],
			"stateMutability": "view",
			"type": "function"
		},
		{
			"inputs": [],
			"name": "getAdminsLevelTwoLength",
			"outputs": [
				{
					"internalType": "uint256",
					"name": "",
					"type": "uint256"
				}
			],
			"stateMutability": "view",
			"type": "function"
		},
		{
			"inputs": [],
			"name": "getAssignAddresslength",
			"outputs": [
				{
					"internalType": "uint256",
					"name": "",
					"type": "uint256"
				}
			],
			"stateMutability": "view",
			"type": "function"
		},
		{
			"inputs": [],
			"name": "getBalanceOfFDT",
			"outputs": [
				{
					"internalType": "uint256",
					"name": "",
					"type": "uint256"
				}
			],
			"stateMutability": "view",
			"type": "function"
		},
		{
			"inputs": [],
			"name": "getInviteLength",
			"outputs": [
				{
					"internalType": "uint256",
					"name": "",
					"type": "uint256"
				}
			],
			"stateMutability": "view",
			"type": "function"
		},
		{
			"inputs": [],
			"name": "getInviteRate",
			"outputs": [
				{
					"internalType": "uint256",
					"name": "",
					"type": "uint256"
				}
			],
			"stateMutability": "view",
			"type": "function"
		},
		{
			"inputs": [],
			"name": "getLatesPrice",
			"outputs": [
				{
					"internalType": "uint256",
					"name": "",
					"type": "uint256"
				}
			],
			"stateMutability": "view",
			"type": "function"
		},
		{
			"inputs": [
				{
					"internalType": "address",
					"name": "_user",
					"type": "address"
				}
			],
			"name": "getName",
			"outputs": [
				{
					"internalType": "string",
					"name": "",
					"type": "string"
				}
			],
			"stateMutability": "view",
			"type": "function"
		},
		{
			"inputs": [
				{
					"internalType": "address",
					"name": "_user",
					"type": "address"
				}
			],
			"name": "getPid",
			"outputs": [
				{
					"internalType": "uint256",
					"name": "",
					"type": "uint256"
				}
			],
			"stateMutability": "view",
			"type": "function"
		},
		{
			"inputs": [],
			"name": "getRate",
			"outputs": [
				{
					"internalType": "uint256",
					"name": "",
					"type": "uint256"
				}
			],
			"stateMutability": "view",
			"type": "function"
		},
		{
			"inputs": [],
			"name": "getRateLength",
			"outputs": [
				{
					"internalType": "uint256",
					"name": "",
					"type": "uint256"
				}
			],
			"stateMutability": "view",
			"type": "function"
		},
		{
			"inputs": [],
			"name": "getUserSetAdminsLevelThree",
			"outputs": [
				{
					"internalType": "uint256",
					"name": "",
					"type": "uint256"
				}
			],
			"stateMutability": "view",
			"type": "function"
		},
		{
			"inputs": [],
			"name": "getValidNumbers",
			"outputs": [
				{
					"internalType": "uint256",
					"name": "",
					"type": "uint256"
				}
			],
			"stateMutability": "view",
			"type": "function"
		},
		{
			"inputs": [],
			"name": "getValue",
			"outputs": [
				{
					"internalType": "uint256",
					"name": "",
					"type": "uint256"
				}
			],
			"stateMutability": "view",
			"type": "function"
		},
		{
			"inputs": [],
			"name": "getWhiteListLength",
			"outputs": [
				{
					"internalType": "uint256",
					"name": "",
					"type": "uint256"
				}
			],
			"stateMutability": "view",
			"type": "function"
		},
		{
			"inputs": [
				{
					"internalType": "uint256",
					"name": "fee",
					"type": "uint256"
				}
			],
			"name": "getfdtAmount",
			"outputs": [
				{
					"internalType": "uint256",
					"name": "",
					"type": "uint256"
				}
			],
			"stateMutability": "view",
			"type": "function"
		},
		{
			"inputs": [
				{
					"internalType": "uint256",
					"name": "",
					"type": "uint256"
				}
			],
			"name": "inviteRate",
			"outputs": [
				{
					"internalType": "uint256",
					"name": "",
					"type": "uint256"
				}
			],
			"stateMutability": "view",
			"type": "function"
		},
		{
			"inputs": [
				{
					"internalType": "address",
					"name": "",
					"type": "address"
				}
			],
			"name": "isRecommender",
			"outputs": [
				{
					"internalType": "bool",
					"name": "",
					"type": "bool"
				}
			],
			"stateMutability": "view",
			"type": "function"
		},
		{
			"inputs": [],
			"name": "maxThree",
			"outputs": [
				{
					"internalType": "uint256",
					"name": "",
					"type": "uint256"
				}
			],
			"stateMutability": "view",
			"type": "function"
		},
		{
			"inputs": [],
			"name": "maxTwo",
			"outputs": [
				{
					"internalType": "uint256",
					"name": "",
					"type": "uint256"
				}
			],
			"stateMutability": "view",
			"type": "function"
		},
		{
			"inputs": [],
			"name": "owner",
			"outputs": [
				{
					"internalType": "address",
					"name": "",
					"type": "address"
				}
			],
			"stateMutability": "view",
			"type": "function"
		},
		{
			"inputs": [],
			"name": "pause",
			"outputs": [],
			"stateMutability": "nonpayable",
			"type": "function"
		},
		{
			"inputs": [],
			"name": "paused",
			"outputs": [
				{
					"internalType": "bool",
					"name": "",
					"type": "bool"
				}
			],
			"stateMutability": "view",
			"type": "function"
		},
		{
			"inputs": [],
			"name": "pidStatusForAdmin",
			"outputs": [
				{
					"internalType": "bool",
					"name": "",
					"type": "bool"
				}
			],
			"stateMutability": "view",
			"type": "function"
		},
		{
			"inputs": [],
			"name": "pidStatusForUser",
			"outputs": [
				{
					"internalType": "bool",
					"name": "",
					"type": "bool"
				}
			],
			"stateMutability": "view",
			"type": "function"
		},
		{
			"inputs": [
				{
					"internalType": "uint256",
					"name": "",
					"type": "uint256"
				}
			],
			"name": "rate",
			"outputs": [
				{
					"internalType": "uint256",
					"name": "",
					"type": "uint256"
				}
			],
			"stateMutability": "view",
			"type": "function"
		},
		{
			"inputs": [
				{
					"internalType": "address",
					"name": "",
					"type": "address"
				}
			],
			"name": "recommender",
			"outputs": [
				{
					"internalType": "address",
					"name": "",
					"type": "address"
				}
			],
			"stateMutability": "view",
			"type": "function"
		},
		{
			"inputs": [
				{
					"internalType": "address",
					"name": "",
					"type": "address"
				},
				{
					"internalType": "uint256",
					"name": "",
					"type": "uint256"
				}
			],
			"name": "recommenderInfo",
			"outputs": [
				{
					"internalType": "address",
					"name": "",
					"type": "address"
				}
			],
			"stateMutability": "view",
			"type": "function"
		},
		{
			"inputs": [
				{
					"internalType": "address",
					"name": "_addr",
					"type": "address"
				}
			],
			"name": "removeAdminLevelThree",
			"outputs": [],
			"stateMutability": "nonpayable",
			"type": "function"
		},
		{
			"inputs": [
				{
					"internalType": "address",
					"name": "_addr",
					"type": "address"
				}
			],
			"name": "removeAdminLevelTwo",
			"outputs": [],
			"stateMutability": "nonpayable",
			"type": "function"
		},
		{
			"inputs": [
				{
					"internalType": "address",
					"name": "_addr",
					"type": "address"
				}
			],
			"name": "removeAssiginAddress",
			"outputs": [],
			"stateMutability": "nonpayable",
			"type": "function"
		},
		{
			"inputs": [
				{
					"internalType": "uint256",
					"name": "_id",
					"type": "uint256"
				}
			],
			"name": "removeRate",
			"outputs": [],
			"stateMutability": "nonpayable",
			"type": "function"
		},
		{
			"inputs": [],
			"name": "removeValidNumbers",
			"outputs": [],
			"stateMutability": "nonpayable",
			"type": "function"
		},
		{
			"inputs": [
				{
					"internalType": "address[]",
					"name": "_addr",
					"type": "address[]"
				}
			],
			"name": "removeWhiteListBatch",
			"outputs": [],
			"stateMutability": "nonpayable",
			"type": "function"
		},
		{
			"inputs": [],
			"name": "renounceOwnership",
			"outputs": [],
			"stateMutability": "nonpayable",
			"type": "function"
		},
		{
			"inputs": [],
			"name": "salePrice",
			"outputs": [
				{
					"internalType": "uint256",
					"name": "",
					"type": "uint256"
				}
			],
			"stateMutability": "view",
			"type": "function"
		},
		{
			"inputs": [
				{
					"internalType": "address[]",
					"name": "_addr",
					"type": "address[]"
				}
			],
			"name": "setAdminLevelThree",
			"outputs": [],
			"stateMutability": "nonpayable",
			"type": "function"
		},
		{
			"inputs": [
				{
					"internalType": "uint256",
					"name": "_amount",
					"type": "uint256"
				}
			],
			"name": "setAdminLevelThreeMax",
			"outputs": [],
			"stateMutability": "nonpayable",
			"type": "function"
		},
		{
			"inputs": [
				{
					"internalType": "address[]",
					"name": "_addr",
					"type": "address[]"
				}
			],
			"name": "setAdminLevelTwo",
			"outputs": [],
			"stateMutability": "nonpayable",
			"type": "function"
		},
		{
			"inputs": [
				{
					"internalType": "uint256",
					"name": "_amount",
					"type": "uint256"
				}
			],
			"name": "setAdminLevelTwoMax",
			"outputs": [],
			"stateMutability": "nonpayable",
			"type": "function"
		},
		{
			"inputs": [
				{
					"internalType": "address",
					"name": "",
					"type": "address"
				},
				{
					"internalType": "uint256",
					"name": "",
					"type": "uint256"
				}
			],
			"name": "setAdminsForTwo",
			"outputs": [
				{
					"internalType": "address",
					"name": "",
					"type": "address"
				}
			],
			"stateMutability": "view",
			"type": "function"
		},
		{
			"inputs": [
				{
					"internalType": "uint256",
					"name": "_id",
					"type": "uint256"
				},
				{
					"internalType": "address",
					"name": "_addr",
					"type": "address"
				}
			],
			"name": "setAssignAddress",
			"outputs": [],
			"stateMutability": "nonpayable",
			"type": "function"
		},
		{
			"inputs": [
				{
					"internalType": "contract ERC20",
					"name": "_fdt",
					"type": "address"
				}
			],
			"name": "setFDTAddress",
			"outputs": [],
			"stateMutability": "nonpayable",
			"type": "function"
		},
		{
			"inputs": [],
			"name": "setFeeStatus",
			"outputs": [],
			"stateMutability": "nonpayable",
			"type": "function"
		},
		{
			"inputs": [
				{
					"internalType": "uint256",
					"name": "_id",
					"type": "uint256"
				},
				{
					"internalType": "uint256",
					"name": "_rate",
					"type": "uint256"
				}
			],
			"name": "setInviteRate",
			"outputs": [],
			"stateMutability": "nonpayable",
			"type": "function"
		},
		{
			"inputs": [],
			"name": "setPidStatusForAdmin",
			"outputs": [],
			"stateMutability": "nonpayable",
			"type": "function"
		},
		{
			"inputs": [],
			"name": "setPidStatusForUser",
			"outputs": [],
			"stateMutability": "nonpayable",
			"type": "function"
		},
		{
			"inputs": [
				{
					"internalType": "uint256",
					"name": "_id",
					"type": "uint256"
				},
				{
					"internalType": "uint256",
					"name": "_rate",
					"type": "uint256"
				}
			],
			"name": "setRate",
			"outputs": [],
			"stateMutability": "nonpayable",
			"type": "function"
		},
		{
			"inputs": [
				{
					"internalType": "uint256",
					"name": "_salePrice",
					"type": "uint256"
				}
			],
			"name": "setSalePrice",
			"outputs": [],
			"stateMutability": "nonpayable",
			"type": "function"
		},
		{
			"inputs": [
				{
					"internalType": "uint256",
					"name": "_amount",
					"type": "uint256"
				}
			],
			"name": "setUserBuyMax",
			"outputs": [],
			"stateMutability": "nonpayable",
			"type": "function"
		},
		{
			"inputs": [
				{
					"internalType": "uint256",
					"name": "_id",
					"type": "uint256"
				},
				{
					"internalType": "uint256",
					"name": "_num",
					"type": "uint256"
				}
			],
			"name": "setValidNumbers",
			"outputs": [],
			"stateMutability": "nonpayable",
			"type": "function"
		},
		{
			"inputs": [
				{
					"internalType": "address",
					"name": "_weth",
					"type": "address"
				}
			],
			"name": "setWeth",
			"outputs": [],
			"stateMutability": "nonpayable",
			"type": "function"
		},
		{
			"inputs": [
				{
					"internalType": "uint256",
					"name": "_max",
					"type": "uint256"
				}
			],
			"name": "setWhiteMaxForThree",
			"outputs": [],
			"stateMutability": "nonpayable",
			"type": "function"
		},
		{
			"inputs": [
				{
					"internalType": "uint256",
					"name": "_max",
					"type": "uint256"
				}
			],
			"name": "setWhiteMaxForTwo",
			"outputs": [],
			"stateMutability": "nonpayable",
			"type": "function"
		},
		{
			"inputs": [],
			"name": "totalDonate",
			"outputs": [
				{
					"internalType": "uint256",
					"name": "",
					"type": "uint256"
				}
			],
			"stateMutability": "view",
			"type": "function"
		},
		{
			"inputs": [
				{
					"internalType": "address",
					"name": "newOwner",
					"type": "address"
				}
			],
			"name": "transferOwnership",
			"outputs": [],
			"stateMutability": "nonpayable",
			"type": "function"
		},
		{
			"inputs": [],
			"name": "unpause",
			"outputs": [],
			"stateMutability": "nonpayable",
			"type": "function"
		},
		{
			"inputs": [],
			"name": "userBuyMax",
			"outputs": [
				{
					"internalType": "uint256",
					"name": "",
					"type": "uint256"
				}
			],
			"stateMutability": "view",
			"type": "function"
		},
		{
			"inputs": [
				{
					"internalType": "address",
					"name": "",
					"type": "address"
				},
				{
					"internalType": "uint256",
					"name": "",
					"type": "uint256"
				}
			],
			"name": "userSetAdminsForThree",
			"outputs": [
				{
					"internalType": "address",
					"name": "",
					"type": "address"
				}
			],
			"stateMutability": "view",
			"type": "function"
		},
		{
			"inputs": [
				{
					"internalType": "address",
					"name": "",
					"type": "address"
				}
			],
			"name": "userTotalBuy",
			"outputs": [
				{
					"internalType": "uint256",
					"name": "",
					"type": "uint256"
				}
			],
			"stateMutability": "view",
			"type": "function"
		},
		{
			"inputs": [
				{
					"internalType": "uint256",
					"name": "",
					"type": "uint256"
				}
			],
			"name": "validNumbers",
			"outputs": [
				{
					"internalType": "uint256",
					"name": "",
					"type": "uint256"
				}
			],
			"stateMutability": "view",
			"type": "function"
		},
		{
			"inputs": [],
			"name": "weth",
			"outputs": [
				{
					"internalType": "address",
					"name": "",
					"type": "address"
				}
			],
			"stateMutability": "view",
			"type": "function"
		},
		{
			"inputs": [
				{
					"internalType": "uint256",
					"name": "_amount",
					"type": "uint256"
				}
			],
			"name": "withdraw",
			"outputs": [],
			"stateMutability": "nonpayable",
			"type": "function"
		},
		{
			"stateMutability": "payable",
			"type": "receive"
		}
	]
}