{
	"data": {
		"bytecode": {
			"linkReferences": {},
			"object": "608060405234801561001057600080fd5b5061001a33610040565b6050600455610e10600155600060085561a8c060055566b1a2bc2ec50000600a55610090565b600080546001600160a01b038381166001600160a01b0319831681178455604051919092169283917f8be0079c531659141344cd1fd0a4f28419497f9722a3daafe3b4186f6b6457e09190a35050565b6119a28061009f6000396000f3fe608060405234801561001057600080fd5b506004361061025d5760003560e01c806382b2e25711610146578063bcd06093116100c3578063e132db4111610087578063e132db41146104ee578063eba36dbd146104f6578063f1fc9d6a14610509578063f2fde38b1461051c578063f7d0e04b1461052f578063fd3c91441461054257600080fd5b8063bcd0609314610494578063c03366291461049d578063c19e4948146104a5578063c992124a146104b8578063df3a8535146104db57600080fd5b8063b009c0001161010a578063b009c00014610428578063b01f151d1461043b578063b22bbb9f1461045b578063b8d1452f1461046e578063ba8279ca1461048157600080fd5b806382b2e257146102625780638456cb59146103c75780638da5cb5b146103e45780639362c35c146103f55780639904ed8d1461041557600080fd5b806339c65050116101df5780634bab2ed2116101a35780634bab2ed214610373578063715018a61461037b578063741b26131461038357806376fe0c7f146103a35780637edf5a37146103ac57806381779a44146103b457600080fd5b806339c650501461032e5780633ccfd60b146103465780633fc8cef31461034e57806341a494c51461036157806341d76a9c1461036a57600080fd5b806323bebede1161022657806323bebede146102e357806323d84413146102f657806328e04f02146103095780632c4e722e1461031257806334fcf4371461031b57600080fd5b8062cbb73b146102625780630d63e87d1461027d5780631216dea9146102925780631d269160146102a55780631de1e2ac146102b8575b600080fd5b61026a61054b565b6040519081526020015b60405180910390f35b61029061028b36600461152d565b6105bd565b005b61026a6102a0366004611546565b6105ca565b6102906102b336600461158e565b610608565b6102cb6102c636600461152d565b610638565b6040516001600160a01b039091168152602001610274565b61026a6102f13660046115b0565b610662565b6102906103043660046115d2565b610683565b61026a60085481565b61026a60045481565b61029061032936600461152d565b610763565b6006546102cb9061010090046001600160a01b031681565b610290610770565b6009546102cb906001600160a01b031681565b61026a600a5481565b61026a60025481565b60035461026a565b610290610860565b6103966103913660046115b0565b610874565b60405161027491906115fc565b61026a60055481565b6102906108df565b6102906103c236600461158e565b610e6b565b6006546103d49060ff1681565b6040519015158152602001610274565b6000546001600160a01b03166102cb565b61026a61040336600461158e565b600c6020526000908152604090205481565b6007546102cb906001600160a01b031681565b610290610436366004611716565b610f9b565b61026a61044936600461158e565b600d6020526000908152604090205481565b61029061046936600461152d565b611107565b61029061047c36600461158e565b611114565b61029061048f3660046117d6565b61113e565b61026a600b5481565b6102906111e0565b6102906104b336600461152d565b611277565b6103d46104c636600461158e565b600f6020526000908152604090205460ff1681565b6102906104e9366004611819565b611284565b61026a6112b7565b610290610504366004611850565b611327565b61029061051736600461152d565b6113d6565b61029061052a36600461158e565b6113e3565b61029061053d36600461158e565b611459565b61026a60015481565b6009546040516370a0823160e01b81523060048201526000916001600160a01b0316906370a0823190602401602060405180830381865afa158015610594573d6000803e3d6000fd5b505050506040513d601f19601f820116820180604052508101906105b8919061187c565b905090565b6105c5611483565b600155565b600e60205282600052604060002060205281600052604060002081815481106105f257600080fd5b9060005260206000200160009250925050505481565b610610611483565b600680546001600160a01b0390921661010002610100600160a81b0319909216919091179055565b6003818154811061064857600080fd5b6000918252602090912001546001600160a01b0316905081565b6000828152600e602090815260408083208484529091529020545b92915050565b61068b611483565b6001600160a01b0382166106f65760405162461bcd60e51b815260206004820152602760248201527f4669726544616f3a2061646472657373206973206e6f74206265207a65726f206044820152666164647265737360c81b60648201526084015b60405180910390fd5b60648111156107475760405162461bcd60e51b815260206004820181905260248201527f4669726544616f3a2072617465206d75737420626520736d616c6c203130302060448201526064016106ed565b6001600160a01b039091166000908152600c6020526040902055565b61076b611483565b600455565b610778611483565b6009546040516370a0823160e01b81523060048201526001600160a01b039091169063a9059cbb90339083906370a0823190602401602060405180830381865afa1580156107ca573d6000803e3d6000fd5b505050506040513d601f19601f820116820180604052508101906107ee919061187c565b6040516001600160e01b031960e085901b1681526001600160a01b03909216600483015260248201526044016020604051808303816000875af1158015610839573d6000803e3d6000fd5b505050506040513d601f19601f8201168201806040525081019061085d9190611895565b50565b610868611483565b61087260006114dd565b565b6000828152600e602090815260408083208484528252918290208054835181840281018401909452808452606093928301828280156108d257602002820191906000526020600020905b8154815260200190600101908083116108be575b5050505050905092915050565b60065460ff16156109325760405162461bcd60e51b815260206004820152601a60248201527f4669726544616f3a20636f6e747261637420697320706175736500000000000060448201526064016106ed565b61093a6112b7565b6064146109765760405162461bcd60e51b815260206004820152600a6024820152693930ba329032b93937b960b11b60448201526064016106ed565b60085461098490600a6118c8565b61098f9060126118c8565b60075460405163014ab31360e01b81523360048201526001600160a01b039091169063014ab31390602401602060405180830381865afa1580156109d7573d6000803e3d6000fd5b505050506040513d601f19601f820116820180604052508101906109fb919061187c565b1180610a1157506000546001600160a01b031633145b610a5d5760405162461bcd60e51b815260206004820152601f60248201527f52657075746174696f6e20506f696e7473206973206e6f7420656e6f7567680060448201526064016106ed565b600154600254610a6d91906118df565b4211610ad35760405162461bcd60e51b815260206004820152602f60248201527f4669726544616f3a20416c6c6f636174696f6e46756e64206e65656420696e7460448201526e657276616c203330206d696e75746560881b60648201526084016106ed565b600554336000908152600d6020526040902054610af091906118df565b4211610b555760405162461bcd60e51b815260206004820152602e60248201527f4669726544616f3a2077616c6c6574206e65656420313220686f75727320746f60448201526d0818d85b1b189858dac81d1a185d60921b60648201526084016106ed565b6000610b5f61054b565b11610bba5760405162461bcd60e51b815260206004820152602560248201527f4669726544616f3a207468652062616c616e6365206f6620574554482069732060448201526432b93937b960d91b60648201526084016106ed565b6000610bc461054b565b905060005b600354811015610dd157600954600380546001600160a01b039092169163a9059cbb919084908110610bfd57610bfd6118f2565b9060005260206000200160009054906101000a90046001600160a01b0316612710600c600060038781548110610c3557610c356118f2565b60009182526020808320909101546001600160a01b03168352820192909252604001902054600454610c6790886118c8565b610c7191906118c8565b610c7b9190611908565b6040516001600160e01b031960e085901b1681526001600160a01b03909216600483015260248201526044016020604051808303816000875af1158015610cc6573d6000803e3d6000fd5b505050506040513d601f19601f82011682018060405250810190610cea9190611895565b507f932d0b04f26be3a7d6ad0fb36933e5d8b2243d2178c4bee1f2e2f4244ae7ea3060038281548110610d1f57610d1f6118f2565b9060005260206000200160009054906101000a90046001600160a01b0316612710600c600060038681548110610d5757610d576118f2565b60009182526020808320909101546001600160a01b03168352820192909252604001902054600454610d8990876118c8565b610d9391906118c8565b610d9d9190611908565b604080516001600160a01b03909316835260208301919091520160405180910390a180610dc98161192a565b915050610bc9565b50426002819055336000818152600d60205260409081902092909255600954600a54925163a9059cbb60e01b8152600481019290925260248201929092526001600160a01b039091169063a9059cbb906044016020604051808303816000875af1158015610e43573d6000803e3d6000fd5b505050506040513d601f19601f82011682018060405250810190610e679190611895565b5050565b610e73611483565b6000805b600354811015610ece57826001600160a01b031660038281548110610e9e57610e9e6118f2565b6000918252602090912001546001600160a01b031603610ebc578091505b80610ec68161192a565b915050610e77565b5060038054610edf90600190611943565b81548110610eef57610eef6118f2565b600091825260209091200154600380546001600160a01b039092169183908110610f1b57610f1b6118f2565b9060005260206000200160006101000a8154816001600160a01b0302191690836001600160a01b031602179055506003805480610f5a57610f5a611956565b60008281526020808220830160001990810180546001600160a01b03191690559092019092556001600160a01b03939093168152600c909252506040812055565b610fa3611483565b60005b82518110156111025760006001600160a01b0316838281518110610fcc57610fcc6118f2565b60200260200101516001600160a01b0316036110425760405162461bcd60e51b815260206004820152602f60248201527f4669726544616f3a20616c6c6f636174696f6e2041646472657373206973206e60448201526e6f74207a65726f206164647265737360881b60648201526084016106ed565b6003838281518110611056576110566118f2565b60209081029190910181015182546001810184556000938452919092200180546001600160a01b0319166001600160a01b0390921691909117905581518290829081106110a5576110a56118f2565b6020026020010151600c60008584815181106110c3576110c36118f2565b60200260200101516001600160a01b03166001600160a01b031681526020019081526020016000208190555080806110fa9061192a565b915050610fa6565b505050565b61110f611483565b600555565b61111c611483565b600980546001600160a01b0319166001600160a01b0392909216919091179055565b336000908152600f602052604090205460ff166111925760405162461bcd60e51b81526020600482015260126024820152714669726544616f3a206e6f2061636365737360701b60448201526064016106ed565b604080518481526001600160a01b03841660208201529081018290527ffe9e73a8d43166130c7c4abd9d6ae6b4db1abb33e23b2b376ccbe3219957b2169060600160405180910390a1505050565b60065461010090046001600160a01b031633148061120857506000546001600160a01b031633145b6112635760405162461bcd60e51b815260206004820152602660248201527f4669726544616f3a207468652063616c6c6261636b20616464726573732069736044820152651032b93937b960d11b60648201526084016106ed565b6006805460ff19811660ff90911615179055565b61127f611483565b600855565b61128c611483565b6001600160a01b03919091166000908152600f60205260409020805460ff1916911515919091179055565b60008060005b60035481101561132157600c6000600383815481106112de576112de6118f2565b60009182526020808320909101546001600160a01b0316835282019290925260400190205461130d90836118df565b9150806113198161192a565b9150506112bd565b50919050565b61132f611483565b6001600160a01b0381166113905760405162461bcd60e51b815260206004820152602260248201527f7468652061646472657373206973206e6f74206265207a65726f206164647265604482015261737360f01b60648201526084016106ed565b80600383815481106113a4576113a46118f2565b9060005260206000200160006101000a8154816001600160a01b0302191690836001600160a01b031602179055505050565b6113de611483565b600a55565b6113eb611483565b6001600160a01b0381166114505760405162461bcd60e51b815260206004820152602660248201527f4f776e61626c653a206e6577206f776e657220697320746865207a65726f206160448201526564647265737360d01b60648201526084016106ed565b61085d816114dd565b611461611483565b600780546001600160a01b0319166001600160a01b0392909216919091179055565b6000546001600160a01b031633146108725760405162461bcd60e51b815260206004820181905260248201527f4f776e61626c653a2063616c6c6572206973206e6f7420746865206f776e657260448201526064016106ed565b600080546001600160a01b038381166001600160a01b0319831681178455604051919092169283917f8be0079c531659141344cd1fd0a4f28419497f9722a3daafe3b4186f6b6457e09190a35050565b60006020828403121561153f57600080fd5b5035919050565b60008060006060848603121561155b57600080fd5b505081359360208301359350604090920135919050565b80356001600160a01b038116811461158957600080fd5b919050565b6000602082840312156115a057600080fd5b6115a982611572565b9392505050565b600080604083850312156115c357600080fd5b50508035926020909101359150565b600080604083850312156115e557600080fd5b6115ee83611572565b946020939093013593505050565b6020808252825182820181905260009190848201906040850190845b8181101561163457835183529284019291840191600101611618565b50909695505050505050565b634e487b7160e01b600052604160045260246000fd5b604051601f8201601f1916810167ffffffffffffffff8111828210171561167f5761167f611640565b604052919050565b600067ffffffffffffffff8211156116a1576116a1611640565b5060051b60200190565b600082601f8301126116bc57600080fd5b813560206116d16116cc83611687565b611656565b82815260059290921b840181019181810190868411156116f057600080fd5b8286015b8481101561170b57803583529183019183016116f4565b509695505050505050565b6000806040838503121561172957600080fd5b823567ffffffffffffffff8082111561174157600080fd5b818501915085601f83011261175557600080fd5b813560206117656116cc83611687565b82815260059290921b8401810191818101908984111561178457600080fd5b948201945b838610156117a95761179a86611572565b82529482019490820190611789565b965050860135925050808211156117bf57600080fd5b506117cc858286016116ab565b9150509250929050565b6000806000606084860312156117eb57600080fd5b833592506117fb60208501611572565b9150604084013590509250925092565b801515811461085d57600080fd5b6000806040838503121561182c57600080fd5b61183583611572565b915060208301356118458161180b565b809150509250929050565b6000806040838503121561186357600080fd5b8235915061187360208401611572565b90509250929050565b60006020828403121561188e57600080fd5b5051919050565b6000602082840312156118a757600080fd5b81516115a98161180b565b634e487b7160e01b600052601160045260246000fd5b808202811582820484141761067d5761067d6118b2565b8082018082111561067d5761067d6118b2565b634e487b7160e01b600052603260045260246000fd5b60008261192557634e487b7160e01b600052601260045260246000fd5b500490565b60006001820161193c5761193c6118b2565b5060010190565b8181038181111561067d5761067d6118b2565b634e487b7160e01b600052603160045260246000fdfea2646970667358221220243404ff59744471421346827cbdd834779676866168055192be8caa997edcef64736f6c63430008120033",
			"opcodes": "PUSH1 0x80 PUSH1 0x40 MSTORE CALLVALUE DUP1 ISZERO PUSH2 0x10 JUMPI PUSH1 0x0 DUP1 REVERT JUMPDEST POP PUSH2 0x1A CALLER PUSH2 0x40 JUMP JUMPDEST PUSH1 0x50 PUSH1 0x4 SSTORE PUSH2 0xE10 PUSH1 0x1 SSTORE PUSH1 0x0 PUSH1 0x8 SSTORE PUSH2 0xA8C0 PUSH1 0x5 SSTORE PUSH7 0xB1A2BC2EC50000 PUSH1 0xA SSTORE PUSH2 0x90 JUMP JUMPDEST PUSH1 0x0 DUP1 SLOAD PUSH1 0x1 PUSH1 0x1 PUSH1 0xA0 SHL SUB DUP4 DUP2 AND PUSH1 0x1 PUSH1 0x1 PUSH1 0xA0 SHL SUB NOT DUP4 AND DUP2 OR DUP5 SSTORE PUSH1 0x40 MLOAD SWAP2 SWAP1 SWAP3 AND SWAP3 DUP4 SWAP2 PUSH32 0x8BE0079C531659141344CD1FD0A4F28419497F9722A3DAAFE3B4186F6B6457E0 SWAP2 SWAP1 LOG3 POP POP JUMP JUMPDEST PUSH2 0x19A2 DUP1 PUSH2 0x9F PUSH1 0x0 CODECOPY PUSH1 0x0 RETURN INVALID PUSH1 0x80 PUSH1 0x40 MSTORE CALLVALUE DUP1 ISZERO PUSH2 0x10 JUMPI PUSH1 0x0 DUP1 REVERT JUMPDEST POP PUSH1 0x4 CALLDATASIZE LT PUSH2 0x25D JUMPI PUSH1 0x0 CALLDATALOAD PUSH1 0xE0 SHR DUP1 PUSH4 0x82B2E257 GT PUSH2 0x146 JUMPI DUP1 PUSH4 0xBCD06093 GT PUSH2 0xC3 JUMPI DUP1 PUSH4 0xE132DB41 GT PUSH2 0x87 JUMPI DUP1 PUSH4 0xE132DB41 EQ PUSH2 0x4EE JUMPI DUP1 PUSH4 0xEBA36DBD EQ PUSH2 0x4F6 JUMPI DUP1 PUSH4 0xF1FC9D6A EQ PUSH2 0x509 JUMPI DUP1 PUSH4 0xF2FDE38B EQ PUSH2 0x51C JUMPI DUP1 PUSH4 0xF7D0E04B EQ PUSH2 0x52F JUMPI DUP1 PUSH4 0xFD3C9144 EQ PUSH2 0x542 JUMPI PUSH1 0x0 DUP1 REVERT JUMPDEST DUP1 PUSH4 0xBCD06093 EQ PUSH2 0x494 JUMPI DUP1 PUSH4 0xC0336629 EQ PUSH2 0x49D JUMPI DUP1 PUSH4 0xC19E4948 EQ PUSH2 0x4A5 JUMPI DUP1 PUSH4 0xC992124A EQ PUSH2 0x4B8 JUMPI DUP1 PUSH4 0xDF3A8535 EQ PUSH2 0x4DB JUMPI PUSH1 0x0 DUP1 REVERT JUMPDEST DUP1 PUSH4 0xB009C000 GT PUSH2 0x10A JUMPI DUP1 PUSH4 0xB009C000 EQ PUSH2 0x428 JUMPI DUP1 PUSH4 0xB01F151D EQ PUSH2 0x43B JUMPI DUP1 PUSH4 0xB22BBB9F EQ PUSH2 0x45B JUMPI DUP1 PUSH4 0xB8D1452F EQ PUSH2 0x46E JUMPI DUP1 PUSH4 0xBA8279CA EQ PUSH2 0x481 JUMPI PUSH1 0x0 DUP1 REVERT JUMPDEST DUP1 PUSH4 0x82B2E257 EQ PUSH2 0x262 JUMPI DUP1 PUSH4 0x8456CB59 EQ PUSH2 0x3C7 JUMPI DUP1 PUSH4 0x8DA5CB5B EQ PUSH2 0x3E4 JUMPI DUP1 PUSH4 0x9362C35C EQ PUSH2 0x3F5 JUMPI DUP1 PUSH4 0x9904ED8D EQ PUSH2 0x415 JUMPI PUSH1 0x0 DUP1 REVERT JUMPDEST DUP1 PUSH4 0x39C65050 GT PUSH2 0x1DF JUMPI DUP1 PUSH4 0x4BAB2ED2 GT PUSH2 0x1A3 JUMPI DUP1 PUSH4 0x4BAB2ED2 EQ PUSH2 0x373 JUMPI DUP1 PUSH4 0x715018A6 EQ PUSH2 0x37B JUMPI DUP1 PUSH4 0x741B2613 EQ PUSH2 0x383 JUMPI DUP1 PUSH4 0x76FE0C7F EQ PUSH2 0x3A3 JUMPI DUP1 PUSH4 0x7EDF5A37 EQ PUSH2 0x3AC JUMPI DUP1 PUSH4 0x81779A44 EQ PUSH2 0x3B4 JUMPI PUSH1 0x0 DUP1 REVERT JUMPDEST DUP1 PUSH4 0x39C65050 EQ PUSH2 0x32E JUMPI DUP1 PUSH4 0x3CCFD60B EQ PUSH2 0x346 JUMPI DUP1 PUSH4 0x3FC8CEF3 EQ PUSH2 0x34E JUMPI DUP1 PUSH4 0x41A494C5 EQ PUSH2 0x361 JUMPI DUP1 PUSH4 0x41D76A9C EQ PUSH2 0x36A JUMPI PUSH1 0x0 DUP1 REVERT JUMPDEST DUP1 PUSH4 0x23BEBEDE GT PUSH2 0x226 JUMPI DUP1 PUSH4 0x23BEBEDE EQ PUSH2 0x2E3 JUMPI DUP1 PUSH4 0x23D84413 EQ PUSH2 0x2F6 JUMPI DUP1 PUSH4 0x28E04F02 EQ PUSH2 0x309 JUMPI DUP1 PUSH4 0x2C4E722E EQ PUSH2 0x312 JUMPI DUP1 PUSH4 0x34FCF437 EQ PUSH2 0x31B JUMPI PUSH1 0x0 DUP1 REVERT JUMPDEST DUP1 PUSH3 0xCBB73B EQ PUSH2 0x262 JUMPI DUP1 PUSH4 0xD63E87D EQ PUSH2 0x27D JUMPI DUP1 PUSH4 0x1216DEA9 EQ PUSH2 0x292 JUMPI DUP1 PUSH4 0x1D269160 EQ PUSH2 0x2A5 JUMPI DUP1 PUSH4 0x1DE1E2AC EQ PUSH2 0x2B8 JUMPI JUMPDEST PUSH1 0x0 DUP1 REVERT JUMPDEST PUSH2 0x26A PUSH2 0x54B JUMP JUMPDEST PUSH1 0x40 MLOAD SWAP1 DUP2 MSTORE PUSH1 0x20 ADD JUMPDEST PUSH1 0x40 MLOAD DUP1 SWAP2 SUB SWAP1 RETURN JUMPDEST PUSH2 0x290 PUSH2 0x28B CALLDATASIZE PUSH1 0x4 PUSH2 0x152D JUMP JUMPDEST PUSH2 0x5BD JUMP JUMPDEST STOP JUMPDEST PUSH2 0x26A PUSH2 0x2A0 CALLDATASIZE PUSH1 0x4 PUSH2 0x1546 JUMP JUMPDEST PUSH2 0x5CA JUMP JUMPDEST PUSH2 0x290 PUSH2 0x2B3 CALLDATASIZE PUSH1 0x4 PUSH2 0x158E JUMP JUMPDEST PUSH2 0x608 JUMP JUMPDEST PUSH2 0x2CB PUSH2 0x2C6 CALLDATASIZE PUSH1 0x4 PUSH2 0x152D JUMP JUMPDEST PUSH2 0x638 JUMP JUMPDEST PUSH1 0x40 MLOAD PUSH1 0x1 PUSH1 0x1 PUSH1 0xA0 SHL SUB SWAP1 SWAP2 AND DUP2 MSTORE PUSH1 0x20 ADD PUSH2 0x274 JUMP JUMPDEST PUSH2 0x26A PUSH2 0x2F1 CALLDATASIZE PUSH1 0x4 PUSH2 0x15B0 JUMP JUMPDEST PUSH2 0x662 JUMP JUMPDEST PUSH2 0x290 PUSH2 0x304 CALLDATASIZE PUSH1 0x4 PUSH2 0x15D2 JUMP JUMPDEST PUSH2 0x683 JUMP JUMPDEST PUSH2 0x26A PUSH1 0x8 SLOAD DUP2 JUMP JUMPDEST PUSH2 0x26A PUSH1 0x4 SLOAD DUP2 JUMP JUMPDEST PUSH2 0x290 PUSH2 0x329 CALLDATASIZE PUSH1 0x4 PUSH2 0x152D JUMP JUMPDEST PUSH2 0x763 JUMP JUMPDEST PUSH1 0x6 SLOAD PUSH2 0x2CB SWAP1 PUSH2 0x100 SWAP1 DIV PUSH1 0x1 PUSH1 0x1 PUSH1 0xA0 SHL SUB AND DUP2 JUMP JUMPDEST PUSH2 0x290 PUSH2 0x770 JUMP JUMPDEST PUSH1 0x9 SLOAD PUSH2 0x2CB SWAP1 PUSH1 0x1 PUSH1 0x1 PUSH1 0xA0 SHL SUB AND DUP2 JUMP JUMPDEST PUSH2 0x26A PUSH1 0xA SLOAD DUP2 JUMP JUMPDEST PUSH2 0x26A PUSH1 0x2 SLOAD DUP2 JUMP JUMPDEST PUSH1 0x3 SLOAD PUSH2 0x26A JUMP JUMPDEST PUSH2 0x290 PUSH2 0x860 JUMP JUMPDEST PUSH2 0x396 PUSH2 0x391 CALLDATASIZE PUSH1 0x4 PUSH2 0x15B0 JUMP JUMPDEST PUSH2 0x874 JUMP JUMPDEST PUSH1 0x40 MLOAD PUSH2 0x274 SWAP2 SWAP1 PUSH2 0x15FC JUMP JUMPDEST PUSH2 0x26A PUSH1 0x5 SLOAD DUP2 JUMP JUMPDEST PUSH2 0x290 PUSH2 0x8DF JUMP JUMPDEST PUSH2 0x290 PUSH2 0x3C2 CALLDATASIZE PUSH1 0x4 PUSH2 0x158E JUMP JUMPDEST PUSH2 0xE6B JUMP JUMPDEST PUSH1 0x6 SLOAD PUSH2 0x3D4 SWAP1 PUSH1 0xFF AND DUP2 JUMP JUMPDEST PUSH1 0x40 MLOAD SWAP1 ISZERO ISZERO DUP2 MSTORE PUSH1 0x20 ADD PUSH2 0x274 JUMP JUMPDEST PUSH1 0x0 SLOAD PUSH1 0x1 PUSH1 0x1 PUSH1 0xA0 SHL SUB AND PUSH2 0x2CB JUMP JUMPDEST PUSH2 0x26A PUSH2 0x403 CALLDATASIZE PUSH1 0x4 PUSH2 0x158E JUMP JUMPDEST PUSH1 0xC PUSH1 0x20 MSTORE PUSH1 0x0 SWAP1 DUP2 MSTORE PUSH1 0x40 SWAP1 KECCAK256 SLOAD DUP2 JUMP JUMPDEST PUSH1 0x7 SLOAD PUSH2 0x2CB SWAP1 PUSH1 0x1 PUSH1 0x1 PUSH1 0xA0 SHL SUB AND DUP2 JUMP JUMPDEST PUSH2 0x290 PUSH2 0x436 CALLDATASIZE PUSH1 0x4 PUSH2 0x1716 JUMP JUMPDEST PUSH2 0xF9B JUMP JUMPDEST PUSH2 0x26A PUSH2 0x449 CALLDATASIZE PUSH1 0x4 PUSH2 0x158E JUMP JUMPDEST PUSH1 0xD PUSH1 0x20 MSTORE PUSH1 0x0 SWAP1 DUP2 MSTORE PUSH1 0x40 SWAP1 KECCAK256 SLOAD DUP2 JUMP JUMPDEST PUSH2 0x290 PUSH2 0x469 CALLDATASIZE PUSH1 0x4 PUSH2 0x152D JUMP JUMPDEST PUSH2 0x1107 JUMP JUMPDEST PUSH2 0x290 PUSH2 0x47C CALLDATASIZE PUSH1 0x4 PUSH2 0x158E JUMP JUMPDEST PUSH2 0x1114 JUMP JUMPDEST PUSH2 0x290 PUSH2 0x48F CALLDATASIZE PUSH1 0x4 PUSH2 0x17D6 JUMP JUMPDEST PUSH2 0x113E JUMP JUMPDEST PUSH2 0x26A PUSH1 0xB SLOAD DUP2 JUMP JUMPDEST PUSH2 0x290 PUSH2 0x11E0 JUMP JUMPDEST PUSH2 0x290 PUSH2 0x4B3 CALLDATASIZE PUSH1 0x4 PUSH2 0x152D JUMP JUMPDEST PUSH2 0x1277 JUMP JUMPDEST PUSH2 0x3D4 PUSH2 0x4C6 CALLDATASIZE PUSH1 0x4 PUSH2 0x158E JUMP JUMPDEST PUSH1 0xF PUSH1 0x20 MSTORE PUSH1 0x0 SWAP1 DUP2 MSTORE PUSH1 0x40 SWAP1 KECCAK256 SLOAD PUSH1 0xFF AND DUP2 JUMP JUMPDEST PUSH2 0x290 PUSH2 0x4E9 CALLDATASIZE PUSH1 0x4 PUSH2 0x1819 JUMP JUMPDEST PUSH2 0x1284 JUMP JUMPDEST PUSH2 0x26A PUSH2 0x12B7 JUMP JUMPDEST PUSH2 0x290 PUSH2 0x504 CALLDATASIZE PUSH1 0x4 PUSH2 0x1850 JUMP JUMPDEST PUSH2 0x1327 JUMP JUMPDEST PUSH2 0x290 PUSH2 0x517 CALLDATASIZE PUSH1 0x4 PUSH2 0x152D JUMP JUMPDEST PUSH2 0x13D6 JUMP JUMPDEST PUSH2 0x290 PUSH2 0x52A CALLDATASIZE PUSH1 0x4 PUSH2 0x158E JUMP JUMPDEST PUSH2 0x13E3 JUMP JUMPDEST PUSH2 0x290 PUSH2 0x53D CALLDATASIZE PUSH1 0x4 PUSH2 0x158E JUMP JUMPDEST PUSH2 0x1459 JUMP JUMPDEST PUSH2 0x26A PUSH1 0x1 SLOAD DUP2 JUMP JUMPDEST PUSH1 0x9 SLOAD PUSH1 0x40 MLOAD PUSH4 0x70A08231 PUSH1 0xE0 SHL DUP2 MSTORE ADDRESS PUSH1 0x4 DUP3 ADD MSTORE PUSH1 0x0 SWAP2 PUSH1 0x1 PUSH1 0x1 PUSH1 0xA0 SHL SUB AND SWAP1 PUSH4 0x70A08231 SWAP1 PUSH1 0x24 ADD PUSH1 0x20 PUSH1 0x40 MLOAD DUP1 DUP4 SUB DUP2 DUP7 GAS STATICCALL ISZERO DUP1 ISZERO PUSH2 0x594 JUMPI RETURNDATASIZE PUSH1 0x0 DUP1 RETURNDATACOPY RETURNDATASIZE PUSH1 0x0 REVERT JUMPDEST POP POP POP POP PUSH1 0x40 MLOAD RETURNDATASIZE PUSH1 0x1F NOT PUSH1 0x1F DUP3 ADD AND DUP3 ADD DUP1 PUSH1 0x40 MSTORE POP DUP2 ADD SWAP1 PUSH2 0x5B8 SWAP2 SWAP1 PUSH2 0x187C JUMP JUMPDEST SWAP1 POP SWAP1 JUMP JUMPDEST PUSH2 0x5C5 PUSH2 0x1483 JUMP JUMPDEST PUSH1 0x1 SSTORE JUMP JUMPDEST PUSH1 0xE PUSH1 0x20 MSTORE DUP3 PUSH1 0x0 MSTORE PUSH1 0x40 PUSH1 0x0 KECCAK256 PUSH1 0x20 MSTORE DUP2 PUSH1 0x0 MSTORE PUSH1 0x40 PUSH1 0x0 KECCAK256 DUP2 DUP2 SLOAD DUP2 LT PUSH2 0x5F2 JUMPI PUSH1 0x0 DUP1 REVERT JUMPDEST SWAP1 PUSH1 0x0 MSTORE PUSH1 0x20 PUSH1 0x0 KECCAK256 ADD PUSH1 0x0 SWAP3 POP SWAP3 POP POP POP SLOAD DUP2 JUMP JUMPDEST PUSH2 0x610 PUSH2 0x1483 JUMP JUMPDEST PUSH1 0x6 DUP1 SLOAD PUSH1 0x1 PUSH1 0x1 PUSH1 0xA0 SHL SUB SWAP1 SWAP3 AND PUSH2 0x100 MUL PUSH2 0x100 PUSH1 0x1 PUSH1 0xA8 SHL SUB NOT SWAP1 SWAP3 AND SWAP2 SWAP1 SWAP2 OR SWAP1 SSTORE JUMP JUMPDEST PUSH1 0x3 DUP2 DUP2 SLOAD DUP2 LT PUSH2 0x648 JUMPI PUSH1 0x0 DUP1 REVERT JUMPDEST PUSH1 0x0 SWAP2 DUP3 MSTORE PUSH1 0x20 SWAP1 SWAP2 KECCAK256 ADD SLOAD PUSH1 0x1 PUSH1 0x1 PUSH1 0xA0 SHL SUB AND SWAP1 POP DUP2 JUMP JUMPDEST PUSH1 0x0 DUP3 DUP2 MSTORE PUSH1 0xE PUSH1 0x20 SWAP1 DUP2 MSTORE PUSH1 0x40 DUP1 DUP4 KECCAK256 DUP5 DUP5 MSTORE SWAP1 SWAP2 MSTORE SWAP1 KECCAK256 SLOAD JUMPDEST SWAP3 SWAP2 POP POP JUMP JUMPDEST PUSH2 0x68B PUSH2 0x1483 JUMP JUMPDEST PUSH1 0x1 PUSH1 0x1 PUSH1 0xA0 SHL SUB DUP3 AND PUSH2 0x6F6 JUMPI PUSH1 0x40 MLOAD PUSH3 0x461BCD PUSH1 0xE5 SHL DUP2 MSTORE PUSH1 0x20 PUSH1 0x4 DUP3 ADD MSTORE PUSH1 0x27 PUSH1 0x24 DUP3 ADD MSTORE PUSH32 0x4669726544616F3A2061646472657373206973206E6F74206265207A65726F20 PUSH1 0x44 DUP3 ADD MSTORE PUSH7 0x61646472657373 PUSH1 0xC8 SHL PUSH1 0x64 DUP3 ADD MSTORE PUSH1 0x84 ADD JUMPDEST PUSH1 0x40 MLOAD DUP1 SWAP2 SUB SWAP1 REVERT JUMPDEST PUSH1 0x64 DUP2 GT ISZERO PUSH2 0x747 JUMPI PUSH1 0x40 MLOAD PUSH3 0x461BCD PUSH1 0xE5 SHL DUP2 MSTORE PUSH1 0x20 PUSH1 0x4 DUP3 ADD DUP2 SWAP1 MSTORE PUSH1 0x24 DUP3 ADD MSTORE PUSH32 0x4669726544616F3A2072617465206D75737420626520736D616C6C2031303020 PUSH1 0x44 DUP3 ADD MSTORE PUSH1 0x64 ADD PUSH2 0x6ED JUMP JUMPDEST PUSH1 0x1 PUSH1 0x1 PUSH1 0xA0 SHL SUB SWAP1 SWAP2 AND PUSH1 0x0 SWAP1 DUP2 MSTORE PUSH1 0xC PUSH1 0x20 MSTORE PUSH1 0x40 SWAP1 KECCAK256 SSTORE JUMP JUMPDEST PUSH2 0x76B PUSH2 0x1483 JUMP JUMPDEST PUSH1 0x4 SSTORE JUMP JUMPDEST PUSH2 0x778 PUSH2 0x1483 JUMP JUMPDEST PUSH1 0x9 SLOAD PUSH1 0x40 MLOAD PUSH4 0x70A08231 PUSH1 0xE0 SHL DUP2 MSTORE ADDRESS PUSH1 0x4 DUP3 ADD MSTORE PUSH1 0x1 PUSH1 0x1 PUSH1 0xA0 SHL SUB SWAP1 SWAP2 AND SWAP1 PUSH4 0xA9059CBB SWAP1 CALLER SWAP1 DUP4 SWAP1 PUSH4 0x70A08231 SWAP1 PUSH1 0x24 ADD PUSH1 0x20 PUSH1 0x40 MLOAD DUP1 DUP4 SUB DUP2 DUP7 GAS STATICCALL ISZERO DUP1 ISZERO PUSH2 0x7CA JUMPI RETURNDATASIZE PUSH1 0x0 DUP1 RETURNDATACOPY RETURNDATASIZE PUSH1 0x0 REVERT JUMPDEST POP POP POP POP PUSH1 0x40 MLOAD RETURNDATASIZE PUSH1 0x1F NOT PUSH1 0x1F DUP3 ADD AND DUP3 ADD DUP1 PUSH1 0x40 MSTORE POP DUP2 ADD SWAP1 PUSH2 0x7EE SWAP2 SWAP1 PUSH2 0x187C JUMP JUMPDEST PUSH1 0x40 MLOAD PUSH1 0x1 PUSH1 0x1 PUSH1 0xE0 SHL SUB NOT PUSH1 0xE0 DUP6 SWAP1 SHL AND DUP2 MSTORE PUSH1 0x1 PUSH1 0x1 PUSH1 0xA0 SHL SUB SWAP1 SWAP3 AND PUSH1 0x4 DUP4 ADD MSTORE PUSH1 0x24 DUP3 ADD MSTORE PUSH1 0x44 ADD PUSH1 0x20 PUSH1 0x40 MLOAD DUP1 DUP4 SUB DUP2 PUSH1 0x0 DUP8 GAS CALL ISZERO DUP1 ISZERO PUSH2 0x839 JUMPI RETURNDATASIZE PUSH1 0x0 DUP1 RETURNDATACOPY RETURNDATASIZE PUSH1 0x0 REVERT JUMPDEST POP POP POP POP PUSH1 0x40 MLOAD RETURNDATASIZE PUSH1 0x1F NOT PUSH1 0x1F DUP3 ADD AND DUP3 ADD DUP1 PUSH1 0x40 MSTORE POP DUP2 ADD SWAP1 PUSH2 0x85D SWAP2 SWAP1 PUSH2 0x1895 JUMP JUMPDEST POP JUMP JUMPDEST PUSH2 0x868 PUSH2 0x1483 JUMP JUMPDEST PUSH2 0x872 PUSH1 0x0 PUSH2 0x14DD JUMP JUMPDEST JUMP JUMPDEST PUSH1 0x0 DUP3 DUP2 MSTORE PUSH1 0xE PUSH1 0x20 SWAP1 DUP2 MSTORE PUSH1 0x40 DUP1 DUP4 KECCAK256 DUP5 DUP5 MSTORE DUP3 MSTORE SWAP2 DUP3 SWAP1 KECCAK256 DUP1 SLOAD DUP4 MLOAD DUP2 DUP5 MUL DUP2 ADD DUP5 ADD SWAP1 SWAP5 MSTORE DUP1 DUP5 MSTORE PUSH1 0x60 SWAP4 SWAP3 DUP4 ADD DUP3 DUP3 DUP1 ISZERO PUSH2 0x8D2 JUMPI PUSH1 0x20 MUL DUP3 ADD SWAP2 SWAP1 PUSH1 0x0 MSTORE PUSH1 0x20 PUSH1 0x0 KECCAK256 SWAP1 JUMPDEST DUP2 SLOAD DUP2 MSTORE PUSH1 0x20 ADD SWAP1 PUSH1 0x1 ADD SWAP1 DUP1 DUP4 GT PUSH2 0x8BE JUMPI JUMPDEST POP POP POP POP POP SWAP1 POP SWAP3 SWAP2 POP POP JUMP JUMPDEST PUSH1 0x6 SLOAD PUSH1 0xFF AND ISZERO PUSH2 0x932 JUMPI PUSH1 0x40 MLOAD PUSH3 0x461BCD PUSH1 0xE5 SHL DUP2 MSTORE PUSH1 0x20 PUSH1 0x4 DUP3 ADD MSTORE PUSH1 0x1A PUSH1 0x24 DUP3 ADD MSTORE PUSH32 0x4669726544616F3A20636F6E7472616374206973207061757365000000000000 PUSH1 0x44 DUP3 ADD MSTORE PUSH1 0x64 ADD PUSH2 0x6ED JUMP JUMPDEST PUSH2 0x93A PUSH2 0x12B7 JUMP JUMPDEST PUSH1 0x64 EQ PUSH2 0x976 JUMPI PUSH1 0x40 MLOAD PUSH3 0x461BCD PUSH1 0xE5 SHL DUP2 MSTORE PUSH1 0x20 PUSH1 0x4 DUP3 ADD MSTORE PUSH1 0xA PUSH1 0x24 DUP3 ADD MSTORE PUSH10 0x3930BA329032B93937B9 PUSH1 0xB1 SHL PUSH1 0x44 DUP3 ADD MSTORE PUSH1 0x64 ADD PUSH2 0x6ED JUMP JUMPDEST PUSH1 0x8 SLOAD PUSH2 0x984 SWAP1 PUSH1 0xA PUSH2 0x18C8 JUMP JUMPDEST PUSH2 0x98F SWAP1 PUSH1 0x12 PUSH2 0x18C8 JUMP JUMPDEST PUSH1 0x7 SLOAD PUSH1 0x40 MLOAD PUSH4 0x14AB313 PUSH1 0xE0 SHL DUP2 MSTORE CALLER PUSH1 0x4 DUP3 ADD MSTORE PUSH1 0x1 PUSH1 0x1 PUSH1 0xA0 SHL SUB SWAP1 SWAP2 AND SWAP1 PUSH4 0x14AB313 SWAP1 PUSH1 0x24 ADD PUSH1 0x20 PUSH1 0x40 MLOAD DUP1 DUP4 SUB DUP2 DUP7 GAS STATICCALL ISZERO DUP1 ISZERO PUSH2 0x9D7 JUMPI RETURNDATASIZE PUSH1 0x0 DUP1 RETURNDATACOPY RETURNDATASIZE PUSH1 0x0 REVERT JUMPDEST POP POP POP POP PUSH1 0x40 MLOAD RETURNDATASIZE PUSH1 0x1F NOT PUSH1 0x1F DUP3 ADD AND DUP3 ADD DUP1 PUSH1 0x40 MSTORE POP DUP2 ADD SWAP1 PUSH2 0x9FB SWAP2 SWAP1 PUSH2 0x187C JUMP JUMPDEST GT DUP1 PUSH2 0xA11 JUMPI POP PUSH1 0x0 SLOAD PUSH1 0x1 PUSH1 0x1 PUSH1 0xA0 SHL SUB AND CALLER EQ JUMPDEST PUSH2 0xA5D JUMPI PUSH1 0x40 MLOAD PUSH3 0x461BCD PUSH1 0xE5 SHL DUP2 MSTORE PUSH1 0x20 PUSH1 0x4 DUP3 ADD MSTORE PUSH1 0x1F PUSH1 0x24 DUP3 ADD MSTORE PUSH32 0x52657075746174696F6E20506F696E7473206973206E6F7420656E6F75676800 PUSH1 0x44 DUP3 ADD MSTORE PUSH1 0x64 ADD PUSH2 0x6ED JUMP JUMPDEST PUSH1 0x1 SLOAD PUSH1 0x2 SLOAD PUSH2 0xA6D SWAP2 SWAP1 PUSH2 0x18DF JUMP JUMPDEST TIMESTAMP GT PUSH2 0xAD3 JUMPI PUSH1 0x40 MLOAD PUSH3 0x461BCD PUSH1 0xE5 SHL DUP2 MSTORE PUSH1 0x20 PUSH1 0x4 DUP3 ADD MSTORE PUSH1 0x2F PUSH1 0x24 DUP3 ADD MSTORE PUSH32 0x4669726544616F3A20416C6C6F636174696F6E46756E64206E65656420696E74 PUSH1 0x44 DUP3 ADD MSTORE PUSH15 0x657276616C203330206D696E757465 PUSH1 0x88 SHL PUSH1 0x64 DUP3 ADD MSTORE PUSH1 0x84 ADD PUSH2 0x6ED JUMP JUMPDEST PUSH1 0x5 SLOAD CALLER PUSH1 0x0 SWAP1 DUP2 MSTORE PUSH1 0xD PUSH1 0x20 MSTORE PUSH1 0x40 SWAP1 KECCAK256 SLOAD PUSH2 0xAF0 SWAP2 SWAP1 PUSH2 0x18DF JUMP JUMPDEST TIMESTAMP GT PUSH2 0xB55 JUMPI PUSH1 0x40 MLOAD PUSH3 0x461BCD PUSH1 0xE5 SHL DUP2 MSTORE PUSH1 0x20 PUSH1 0x4 DUP3 ADD MSTORE PUSH1 0x2E PUSH1 0x24 DUP3 ADD MSTORE PUSH32 0x4669726544616F3A2077616C6C6574206E65656420313220686F75727320746F PUSH1 0x44 DUP3 ADD MSTORE PUSH14 0x818D85B1B189858DAC81D1A185D PUSH1 0x92 SHL PUSH1 0x64 DUP3 ADD MSTORE PUSH1 0x84 ADD PUSH2 0x6ED JUMP JUMPDEST PUSH1 0x0 PUSH2 0xB5F PUSH2 0x54B JUMP JUMPDEST GT PUSH2 0xBBA JUMPI PUSH1 0x40 MLOAD PUSH3 0x461BCD PUSH1 0xE5 SHL DUP2 MSTORE PUSH1 0x20 PUSH1 0x4 DUP3 ADD MSTORE PUSH1 0x25 PUSH1 0x24 DUP3 ADD MSTORE PUSH32 0x4669726544616F3A207468652062616C616E6365206F66205745544820697320 PUSH1 0x44 DUP3 ADD MSTORE PUSH5 0x32B93937B9 PUSH1 0xD9 SHL PUSH1 0x64 DUP3 ADD MSTORE PUSH1 0x84 ADD PUSH2 0x6ED JUMP JUMPDEST PUSH1 0x0 PUSH2 0xBC4 PUSH2 0x54B JUMP JUMPDEST SWAP1 POP PUSH1 0x0 JUMPDEST PUSH1 0x3 SLOAD DUP2 LT ISZERO PUSH2 0xDD1 JUMPI PUSH1 0x9 SLOAD PUSH1 0x3 DUP1 SLOAD PUSH1 0x1 PUSH1 0x1 PUSH1 0xA0 SHL SUB SWAP1 SWAP3 AND SWAP2 PUSH4 0xA9059CBB SWAP2 SWAP1 DUP5 SWAP1 DUP2 LT PUSH2 0xBFD JUMPI PUSH2 0xBFD PUSH2 0x18F2 JUMP JUMPDEST SWAP1 PUSH1 0x0 MSTORE PUSH1 0x20 PUSH1 0x0 KECCAK256 ADD PUSH1 0x0 SWAP1 SLOAD SWAP1 PUSH2 0x100 EXP SWAP1 DIV PUSH1 0x1 PUSH1 0x1 PUSH1 0xA0 SHL SUB AND PUSH2 0x2710 PUSH1 0xC PUSH1 0x0 PUSH1 0x3 DUP8 DUP2 SLOAD DUP2 LT PUSH2 0xC35 JUMPI PUSH2 0xC35 PUSH2 0x18F2 JUMP JUMPDEST PUSH1 0x0 SWAP2 DUP3 MSTORE PUSH1 0x20 DUP1 DUP4 KECCAK256 SWAP1 SWAP2 ADD SLOAD PUSH1 0x1 PUSH1 0x1 PUSH1 0xA0 SHL SUB AND DUP4 MSTORE DUP3 ADD SWAP3 SWAP1 SWAP3 MSTORE PUSH1 0x40 ADD SWAP1 KECCAK256 SLOAD PUSH1 0x4 SLOAD PUSH2 0xC67 SWAP1 DUP9 PUSH2 0x18C8 JUMP JUMPDEST PUSH2 0xC71 SWAP2 SWAP1 PUSH2 0x18C8 JUMP JUMPDEST PUSH2 0xC7B SWAP2 SWAP1 PUSH2 0x1908 JUMP JUMPDEST PUSH1 0x40 MLOAD PUSH1 0x1 PUSH1 0x1 PUSH1 0xE0 SHL SUB NOT PUSH1 0xE0 DUP6 SWAP1 SHL AND DUP2 MSTORE PUSH1 0x1 PUSH1 0x1 PUSH1 0xA0 SHL SUB SWAP1 SWAP3 AND PUSH1 0x4 DUP4 ADD MSTORE PUSH1 0x24 DUP3 ADD MSTORE PUSH1 0x44 ADD PUSH1 0x20 PUSH1 0x40 MLOAD DUP1 DUP4 SUB DUP2 PUSH1 0x0 DUP8 GAS CALL ISZERO DUP1 ISZERO PUSH2 0xCC6 JUMPI RETURNDATASIZE PUSH1 0x0 DUP1 RETURNDATACOPY RETURNDATASIZE PUSH1 0x0 REVERT JUMPDEST POP POP POP POP PUSH1 0x40 MLOAD RETURNDATASIZE PUSH1 0x1F NOT PUSH1 0x1F DUP3 ADD AND DUP3 ADD DUP1 PUSH1 0x40 MSTORE POP DUP2 ADD SWAP1 PUSH2 0xCEA SWAP2 SWAP1 PUSH2 0x1895 JUMP JUMPDEST POP PUSH32 0x932D0B04F26BE3A7D6AD0FB36933E5D8B2243D2178C4BEE1F2E2F4244AE7EA30 PUSH1 0x3 DUP3 DUP2 SLOAD DUP2 LT PUSH2 0xD1F JUMPI PUSH2 0xD1F PUSH2 0x18F2 JUMP JUMPDEST SWAP1 PUSH1 0x0 MSTORE PUSH1 0x20 PUSH1 0x0 KECCAK256 ADD PUSH1 0x0 SWAP1 SLOAD SWAP1 PUSH2 0x100 EXP SWAP1 DIV PUSH1 0x1 PUSH1 0x1 PUSH1 0xA0 SHL SUB AND PUSH2 0x2710 PUSH1 0xC PUSH1 0x0 PUSH1 0x3 DUP7 DUP2 SLOAD DUP2 LT PUSH2 0xD57 JUMPI PUSH2 0xD57 PUSH2 0x18F2 JUMP JUMPDEST PUSH1 0x0 SWAP2 DUP3 MSTORE PUSH1 0x20 DUP1 DUP4 KECCAK256 SWAP1 SWAP2 ADD SLOAD PUSH1 0x1 PUSH1 0x1 PUSH1 0xA0 SHL SUB AND DUP4 MSTORE DUP3 ADD SWAP3 SWAP1 SWAP3 MSTORE PUSH1 0x40 ADD SWAP1 KECCAK256 SLOAD PUSH1 0x4 SLOAD PUSH2 0xD89 SWAP1 DUP8 PUSH2 0x18C8 JUMP JUMPDEST PUSH2 0xD93 SWAP2 SWAP1 PUSH2 0x18C8 JUMP JUMPDEST PUSH2 0xD9D SWAP2 SWAP1 PUSH2 0x1908 JUMP JUMPDEST PUSH1 0x40 DUP1 MLOAD PUSH1 0x1 PUSH1 0x1 PUSH1 0xA0 SHL SUB SWAP1 SWAP4 AND DUP4 MSTORE PUSH1 0x20 DUP4 ADD SWAP2 SWAP1 SWAP2 MSTORE ADD PUSH1 0x40 MLOAD DUP1 SWAP2 SUB SWAP1 LOG1 DUP1 PUSH2 0xDC9 DUP2 PUSH2 0x192A JUMP JUMPDEST SWAP2 POP POP PUSH2 0xBC9 JUMP JUMPDEST POP TIMESTAMP PUSH1 0x2 DUP2 SWAP1 SSTORE CALLER PUSH1 0x0 DUP2 DUP2 MSTORE PUSH1 0xD PUSH1 0x20 MSTORE PUSH1 0x40 SWAP1 DUP2 SWAP1 KECCAK256 SWAP3 SWAP1 SWAP3 SSTORE PUSH1 0x9 SLOAD PUSH1 0xA SLOAD SWAP3 MLOAD PUSH4 0xA9059CBB PUSH1 0xE0 SHL DUP2 MSTORE PUSH1 0x4 DUP2 ADD SWAP3 SWAP1 SWAP3 MSTORE PUSH1 0x24 DUP3 ADD SWAP3 SWAP1 SWAP3 MSTORE PUSH1 0x1 PUSH1 0x1 PUSH1 0xA0 SHL SUB SWAP1 SWAP2 AND SWAP1 PUSH4 0xA9059CBB SWAP1 PUSH1 0x44 ADD PUSH1 0x20 PUSH1 0x40 MLOAD DUP1 DUP4 SUB DUP2 PUSH1 0x0 DUP8 GAS CALL ISZERO DUP1 ISZERO PUSH2 0xE43 JUMPI RETURNDATASIZE PUSH1 0x0 DUP1 RETURNDATACOPY RETURNDATASIZE PUSH1 0x0 REVERT JUMPDEST POP POP POP POP PUSH1 0x40 MLOAD RETURNDATASIZE PUSH1 0x1F NOT PUSH1 0x1F DUP3 ADD AND DUP3 ADD DUP1 PUSH1 0x40 MSTORE POP DUP2 ADD SWAP1 PUSH2 0xE67 SWAP2 SWAP1 PUSH2 0x1895 JUMP JUMPDEST POP POP JUMP JUMPDEST PUSH2 0xE73 PUSH2 0x1483 JUMP JUMPDEST PUSH1 0x0 DUP1 JUMPDEST PUSH1 0x3 SLOAD DUP2 LT ISZERO PUSH2 0xECE JUMPI DUP3 PUSH1 0x1 PUSH1 0x1 PUSH1 0xA0 SHL SUB AND PUSH1 0x3 DUP3 DUP2 SLOAD DUP2 LT PUSH2 0xE9E JUMPI PUSH2 0xE9E PUSH2 0x18F2 JUMP JUMPDEST PUSH1 0x0 SWAP2 DUP3 MSTORE PUSH1 0x20 SWAP1 SWAP2 KECCAK256 ADD SLOAD PUSH1 0x1 PUSH1 0x1 PUSH1 0xA0 SHL SUB AND SUB PUSH2 0xEBC JUMPI DUP1 SWAP2 POP JUMPDEST DUP1 PUSH2 0xEC6 DUP2 PUSH2 0x192A JUMP JUMPDEST SWAP2 POP POP PUSH2 0xE77 JUMP JUMPDEST POP PUSH1 0x3 DUP1 SLOAD PUSH2 0xEDF SWAP1 PUSH1 0x1 SWAP1 PUSH2 0x1943 JUMP JUMPDEST DUP2 SLOAD DUP2 LT PUSH2 0xEEF JUMPI PUSH2 0xEEF PUSH2 0x18F2 JUMP JUMPDEST PUSH1 0x0 SWAP2 DUP3 MSTORE PUSH1 0x20 SWAP1 SWAP2 KECCAK256 ADD SLOAD PUSH1 0x3 DUP1 SLOAD PUSH1 0x1 PUSH1 0x1 PUSH1 0xA0 SHL SUB SWAP1 SWAP3 AND SWAP2 DUP4 SWAP1 DUP2 LT PUSH2 0xF1B JUMPI PUSH2 0xF1B PUSH2 0x18F2 JUMP JUMPDEST SWAP1 PUSH1 0x0 MSTORE PUSH1 0x20 PUSH1 0x0 KECCAK256 ADD PUSH1 0x0 PUSH2 0x100 EXP DUP2 SLOAD DUP2 PUSH1 0x1 PUSH1 0x1 PUSH1 0xA0 SHL SUB MUL NOT AND SWAP1 DUP4 PUSH1 0x1 PUSH1 0x1 PUSH1 0xA0 SHL SUB AND MUL OR SWAP1 SSTORE POP PUSH1 0x3 DUP1 SLOAD DUP1 PUSH2 0xF5A JUMPI PUSH2 0xF5A PUSH2 0x1956 JUMP JUMPDEST PUSH1 0x0 DUP3 DUP2 MSTORE PUSH1 0x20 DUP1 DUP3 KECCAK256 DUP4 ADD PUSH1 0x0 NOT SWAP1 DUP2 ADD DUP1 SLOAD PUSH1 0x1 PUSH1 0x1 PUSH1 0xA0 SHL SUB NOT AND SWAP1 SSTORE SWAP1 SWAP3 ADD SWAP1 SWAP3 SSTORE PUSH1 0x1 PUSH1 0x1 PUSH1 0xA0 SHL SUB SWAP4 SWAP1 SWAP4 AND DUP2 MSTORE PUSH1 0xC SWAP1 SWAP3 MSTORE POP PUSH1 0x40 DUP2 KECCAK256 SSTORE JUMP JUMPDEST PUSH2 0xFA3 PUSH2 0x1483 JUMP JUMPDEST PUSH1 0x0 JUMPDEST DUP3 MLOAD DUP2 LT ISZERO PUSH2 0x1102 JUMPI PUSH1 0x0 PUSH1 0x1 PUSH1 0x1 PUSH1 0xA0 SHL SUB AND DUP4 DUP3 DUP2 MLOAD DUP2 LT PUSH2 0xFCC JUMPI PUSH2 0xFCC PUSH2 0x18F2 JUMP JUMPDEST PUSH1 0x20 MUL PUSH1 0x20 ADD ADD MLOAD PUSH1 0x1 PUSH1 0x1 PUSH1 0xA0 SHL SUB AND SUB PUSH2 0x1042 JUMPI PUSH1 0x40 MLOAD PUSH3 0x461BCD PUSH1 0xE5 SHL DUP2 MSTORE PUSH1 0x20 PUSH1 0x4 DUP3 ADD MSTORE PUSH1 0x2F PUSH1 0x24 DUP3 ADD MSTORE PUSH32 0x4669726544616F3A20616C6C6F636174696F6E2041646472657373206973206E PUSH1 0x44 DUP3 ADD MSTORE PUSH15 0x6F74207A65726F2061646472657373 PUSH1 0x88 SHL PUSH1 0x64 DUP3 ADD MSTORE PUSH1 0x84 ADD PUSH2 0x6ED JUMP JUMPDEST PUSH1 0x3 DUP4 DUP3 DUP2 MLOAD DUP2 LT PUSH2 0x1056 JUMPI PUSH2 0x1056 PUSH2 0x18F2 JUMP JUMPDEST PUSH1 0x20 SWAP1 DUP2 MUL SWAP2 SWAP1 SWAP2 ADD DUP2 ADD MLOAD DUP3 SLOAD PUSH1 0x1 DUP2 ADD DUP5 SSTORE PUSH1 0x0 SWAP4 DUP5 MSTORE SWAP2 SWAP1 SWAP3 KECCAK256 ADD DUP1 SLOAD PUSH1 0x1 PUSH1 0x1 PUSH1 0xA0 SHL SUB NOT AND PUSH1 0x1 PUSH1 0x1 PUSH1 0xA0 SHL SUB SWAP1 SWAP3 AND SWAP2 SWAP1 SWAP2 OR SWAP1 SSTORE DUP2 MLOAD DUP3 SWAP1 DUP3 SWAP1 DUP2 LT PUSH2 0x10A5 JUMPI PUSH2 0x10A5 PUSH2 0x18F2 JUMP JUMPDEST PUSH1 0x20 MUL PUSH1 0x20 ADD ADD MLOAD PUSH1 0xC PUSH1 0x0 DUP6 DUP5 DUP2 MLOAD DUP2 LT PUSH2 0x10C3 JUMPI PUSH2 0x10C3 PUSH2 0x18F2 JUMP JUMPDEST PUSH1 0x20 MUL PUSH1 0x20 ADD ADD MLOAD PUSH1 0x1 PUSH1 0x1 PUSH1 0xA0 SHL SUB AND PUSH1 0x1 PUSH1 0x1 PUSH1 0xA0 SHL SUB AND DUP2 MSTORE PUSH1 0x20 ADD SWAP1 DUP2 MSTORE PUSH1 0x20 ADD PUSH1 0x0 KECCAK256 DUP2 SWAP1 SSTORE POP DUP1 DUP1 PUSH2 0x10FA SWAP1 PUSH2 0x192A JUMP JUMPDEST SWAP2 POP POP PUSH2 0xFA6 JUMP JUMPDEST POP POP POP JUMP JUMPDEST PUSH2 0x110F PUSH2 0x1483 JUMP JUMPDEST PUSH1 0x5 SSTORE JUMP JUMPDEST PUSH2 0x111C PUSH2 0x1483 JUMP JUMPDEST PUSH1 0x9 DUP1 SLOAD PUSH1 0x1 PUSH1 0x1 PUSH1 0xA0 SHL SUB NOT AND PUSH1 0x1 PUSH1 0x1 PUSH1 0xA0 SHL SUB SWAP3 SWAP1 SWAP3 AND SWAP2 SWAP1 SWAP2 OR SWAP1 SSTORE JUMP JUMPDEST CALLER PUSH1 0x0 SWAP1 DUP2 MSTORE PUSH1 0xF PUSH1 0x20 MSTORE PUSH1 0x40 SWAP1 KECCAK256 SLOAD PUSH1 0xFF AND PUSH2 0x1192 JUMPI PUSH1 0x40 MLOAD PUSH3 0x461BCD PUSH1 0xE5 SHL DUP2 MSTORE PUSH1 0x20 PUSH1 0x4 DUP3 ADD MSTORE PUSH1 0x12 PUSH1 0x24 DUP3 ADD MSTORE PUSH18 0x4669726544616F3A206E6F20616363657373 PUSH1 0x70 SHL PUSH1 0x44 DUP3 ADD MSTORE PUSH1 0x64 ADD PUSH2 0x6ED JUMP JUMPDEST PUSH1 0x40 DUP1 MLOAD DUP5 DUP2 MSTORE PUSH1 0x1 PUSH1 0x1 PUSH1 0xA0 SHL SUB DUP5 AND PUSH1 0x20 DUP3 ADD MSTORE SWAP1 DUP2 ADD DUP3 SWAP1 MSTORE PUSH32 0xFE9E73A8D43166130C7C4ABD9D6AE6B4DB1ABB33E23B2B376CCBE3219957B216 SWAP1 PUSH1 0x60 ADD PUSH1 0x40 MLOAD DUP1 SWAP2 SUB SWAP1 LOG1 POP POP POP JUMP JUMPDEST PUSH1 0x6 SLOAD PUSH2 0x100 SWAP1 DIV PUSH1 0x1 PUSH1 0x1 PUSH1 0xA0 SHL SUB AND CALLER EQ DUP1 PUSH2 0x1208 JUMPI POP PUSH1 0x0 SLOAD PUSH1 0x1 PUSH1 0x1 PUSH1 0xA0 SHL SUB AND CALLER EQ JUMPDEST PUSH2 0x1263 JUMPI PUSH1 0x40 MLOAD PUSH3 0x461BCD PUSH1 0xE5 SHL DUP2 MSTORE PUSH1 0x20 PUSH1 0x4 DUP3 ADD MSTORE PUSH1 0x26 PUSH1 0x24 DUP3 ADD MSTORE PUSH32 0x4669726544616F3A207468652063616C6C6261636B2061646472657373206973 PUSH1 0x44 DUP3 ADD MSTORE PUSH6 0x1032B93937B9 PUSH1 0xD1 SHL PUSH1 0x64 DUP3 ADD MSTORE PUSH1 0x84 ADD PUSH2 0x6ED JUMP JUMPDEST PUSH1 0x6 DUP1 SLOAD PUSH1 0xFF NOT DUP2 AND PUSH1 0xFF SWAP1 SWAP2 AND ISZERO OR SWAP1 SSTORE JUMP JUMPDEST PUSH2 0x127F PUSH2 0x1483 JUMP JUMPDEST PUSH1 0x8 SSTORE JUMP JUMPDEST PUSH2 0x128C PUSH2 0x1483 JUMP JUMPDEST PUSH1 0x1 PUSH1 0x1 PUSH1 0xA0 SHL SUB SWAP2 SWAP1 SWAP2 AND PUSH1 0x0 SWAP1 DUP2 MSTORE PUSH1 0xF PUSH1 0x20 MSTORE PUSH1 0x40 SWAP1 KECCAK256 DUP1 SLOAD PUSH1 0xFF NOT AND SWAP2 ISZERO ISZERO SWAP2 SWAP1 SWAP2 OR SWAP1 SSTORE JUMP JUMPDEST PUSH1 0x0 DUP1 PUSH1 0x0 JUMPDEST PUSH1 0x3 SLOAD DUP2 LT ISZERO PUSH2 0x1321 JUMPI PUSH1 0xC PUSH1 0x0 PUSH1 0x3 DUP4 DUP2 SLOAD DUP2 LT PUSH2 0x12DE JUMPI PUSH2 0x12DE PUSH2 0x18F2 JUMP JUMPDEST PUSH1 0x0 SWAP2 DUP3 MSTORE PUSH1 0x20 DUP1 DUP4 KECCAK256 SWAP1 SWAP2 ADD SLOAD PUSH1 0x1 PUSH1 0x1 PUSH1 0xA0 SHL SUB AND DUP4 MSTORE DUP3 ADD SWAP3 SWAP1 SWAP3 MSTORE PUSH1 0x40 ADD SWAP1 KECCAK256 SLOAD PUSH2 0x130D SWAP1 DUP4 PUSH2 0x18DF JUMP JUMPDEST SWAP2 POP DUP1 PUSH2 0x1319 DUP2 PUSH2 0x192A JUMP JUMPDEST SWAP2 POP POP PUSH2 0x12BD JUMP JUMPDEST POP SWAP2 SWAP1 POP JUMP JUMPDEST PUSH2 0x132F PUSH2 0x1483 JUMP JUMPDEST PUSH1 0x1 PUSH1 0x1 PUSH1 0xA0 SHL SUB DUP2 AND PUSH2 0x1390 JUMPI PUSH1 0x40 MLOAD PUSH3 0x461BCD PUSH1 0xE5 SHL DUP2 MSTORE PUSH1 0x20 PUSH1 0x4 DUP3 ADD MSTORE PUSH1 0x22 PUSH1 0x24 DUP3 ADD MSTORE PUSH32 0x7468652061646472657373206973206E6F74206265207A65726F206164647265 PUSH1 0x44 DUP3 ADD MSTORE PUSH2 0x7373 PUSH1 0xF0 SHL PUSH1 0x64 DUP3 ADD MSTORE PUSH1 0x84 ADD PUSH2 0x6ED JUMP JUMPDEST DUP1 PUSH1 0x3 DUP4 DUP2 SLOAD DUP2 LT PUSH2 0x13A4 JUMPI PUSH2 0x13A4 PUSH2 0x18F2 JUMP JUMPDEST SWAP1 PUSH1 0x0 MSTORE PUSH1 0x20 PUSH1 0x0 KECCAK256 ADD PUSH1 0x0 PUSH2 0x100 EXP DUP2 SLOAD DUP2 PUSH1 0x1 PUSH1 0x1 PUSH1 0xA0 SHL SUB MUL NOT AND SWAP1 DUP4 PUSH1 0x1 PUSH1 0x1 PUSH1 0xA0 SHL SUB AND MUL OR SWAP1 SSTORE POP POP POP JUMP JUMPDEST PUSH2 0x13DE PUSH2 0x1483 JUMP JUMPDEST PUSH1 0xA SSTORE JUMP JUMPDEST PUSH2 0x13EB PUSH2 0x1483 JUMP JUMPDEST PUSH1 0x1 PUSH1 0x1 PUSH1 0xA0 SHL SUB DUP2 AND PUSH2 0x1450 JUMPI PUSH1 0x40 MLOAD PUSH3 0x461BCD PUSH1 0xE5 SHL DUP2 MSTORE PUSH1 0x20 PUSH1 0x4 DUP3 ADD MSTORE PUSH1 0x26 PUSH1 0x24 DUP3 ADD MSTORE PUSH32 0x4F776E61626C653A206E6577206F776E657220697320746865207A65726F2061 PUSH1 0x44 DUP3 ADD MSTORE PUSH6 0x646472657373 PUSH1 0xD0 SHL PUSH1 0x64 DUP3 ADD MSTORE PUSH1 0x84 ADD PUSH2 0x6ED JUMP JUMPDEST PUSH2 0x85D DUP2 PUSH2 0x14DD JUMP JUMPDEST PUSH2 0x1461 PUSH2 0x1483 JUMP JUMPDEST PUSH1 0x7 DUP1 SLOAD PUSH1 0x1 PUSH1 0x1 PUSH1 0xA0 SHL SUB NOT AND PUSH1 0x1 PUSH1 0x1 PUSH1 0xA0 SHL SUB SWAP3 SWAP1 SWAP3 AND SWAP2 SWAP1 SWAP2 OR SWAP1 SSTORE JUMP JUMPDEST PUSH1 0x0 SLOAD PUSH1 0x1 PUSH1 0x1 PUSH1 0xA0 SHL SUB AND CALLER EQ PUSH2 0x872 JUMPI PUSH1 0x40 MLOAD PUSH3 0x461BCD PUSH1 0xE5 SHL DUP2 MSTORE PUSH1 0x20 PUSH1 0x4 DUP3 ADD DUP2 SWAP1 MSTORE PUSH1 0x24 DUP3 ADD MSTORE PUSH32 0x4F776E61626C653A2063616C6C6572206973206E6F7420746865206F776E6572 PUSH1 0x44 DUP3 ADD MSTORE PUSH1 0x64 ADD PUSH2 0x6ED JUMP JUMPDEST PUSH1 0x0 DUP1 SLOAD PUSH1 0x1 PUSH1 0x1 PUSH1 0xA0 SHL SUB DUP4 DUP2 AND PUSH1 0x1 PUSH1 0x1 PUSH1 0xA0 SHL SUB NOT DUP4 AND DUP2 OR DUP5 SSTORE PUSH1 0x40 MLOAD SWAP2 SWAP1 SWAP3 AND SWAP3 DUP4 SWAP2 PUSH32 0x8BE0079C531659141344CD1FD0A4F28419497F9722A3DAAFE3B4186F6B6457E0 SWAP2 SWAP1 LOG3 POP POP JUMP JUMPDEST PUSH1 0x0 PUSH1 0x20 DUP3 DUP5 SUB SLT ISZERO PUSH2 0x153F JUMPI PUSH1 0x0 DUP1 REVERT JUMPDEST POP CALLDATALOAD SWAP2 SWAP1 POP JUMP JUMPDEST PUSH1 0x0 DUP1 PUSH1 0x0 PUSH1 0x60 DUP5 DUP7 SUB SLT ISZERO PUSH2 0x155B JUMPI PUSH1 0x0 DUP1 REVERT JUMPDEST POP POP DUP2 CALLDATALOAD SWAP4 PUSH1 0x20 DUP4 ADD CALLDATALOAD SWAP4 POP PUSH1 0x40 SWAP1 SWAP3 ADD CALLDATALOAD SWAP2 SWAP1 POP JUMP JUMPDEST DUP1 CALLDATALOAD PUSH1 0x1 PUSH1 0x1 PUSH1 0xA0 SHL SUB DUP2 AND DUP2 EQ PUSH2 0x1589 JUMPI PUSH1 0x0 DUP1 REVERT JUMPDEST SWAP2 SWAP1 POP JUMP JUMPDEST PUSH1 0x0 PUSH1 0x20 DUP3 DUP5 SUB SLT ISZERO PUSH2 0x15A0 JUMPI PUSH1 0x0 DUP1 REVERT JUMPDEST PUSH2 0x15A9 DUP3 PUSH2 0x1572 JUMP JUMPDEST SWAP4 SWAP3 POP POP POP JUMP JUMPDEST PUSH1 0x0 DUP1 PUSH1 0x40 DUP4 DUP6 SUB SLT ISZERO PUSH2 0x15C3 JUMPI PUSH1 0x0 DUP1 REVERT JUMPDEST POP POP DUP1 CALLDATALOAD SWAP3 PUSH1 0x20 SWAP1 SWAP2 ADD CALLDATALOAD SWAP2 POP JUMP JUMPDEST PUSH1 0x0 DUP1 PUSH1 0x40 DUP4 DUP6 SUB SLT ISZERO PUSH2 0x15E5 JUMPI PUSH1 0x0 DUP1 REVERT JUMPDEST PUSH2 0x15EE DUP4 PUSH2 0x1572 JUMP JUMPDEST SWAP5 PUSH1 0x20 SWAP4 SWAP1 SWAP4 ADD CALLDATALOAD SWAP4 POP POP POP JUMP JUMPDEST PUSH1 0x20 DUP1 DUP3 MSTORE DUP3 MLOAD DUP3 DUP3 ADD DUP2 SWAP1 MSTORE PUSH1 0x0 SWAP2 SWAP1 DUP5 DUP3 ADD SWAP1 PUSH1 0x40 DUP6 ADD SWAP1 DUP5 JUMPDEST DUP2 DUP2 LT ISZERO PUSH2 0x1634 JUMPI DUP4 MLOAD DUP4 MSTORE SWAP3 DUP5 ADD SWAP3 SWAP2 DUP5 ADD SWAP2 PUSH1 0x1 ADD PUSH2 0x1618 JUMP JUMPDEST POP SWAP1 SWAP7 SWAP6 POP POP POP POP POP POP JUMP JUMPDEST PUSH4 0x4E487B71 PUSH1 0xE0 SHL PUSH1 0x0 MSTORE PUSH1 0x41 PUSH1 0x4 MSTORE PUSH1 0x24 PUSH1 0x0 REVERT JUMPDEST PUSH1 0x40 MLOAD PUSH1 0x1F DUP3 ADD PUSH1 0x1F NOT AND DUP2 ADD PUSH8 0xFFFFFFFFFFFFFFFF DUP2 GT DUP3 DUP3 LT OR ISZERO PUSH2 0x167F JUMPI PUSH2 0x167F PUSH2 0x1640 JUMP JUMPDEST PUSH1 0x40 MSTORE SWAP2 SWAP1 POP JUMP JUMPDEST PUSH1 0x0 PUSH8 0xFFFFFFFFFFFFFFFF DUP3 GT ISZERO PUSH2 0x16A1 JUMPI PUSH2 0x16A1 PUSH2 0x1640 JUMP JUMPDEST POP PUSH1 0x5 SHL PUSH1 0x20 ADD SWAP1 JUMP JUMPDEST PUSH1 0x0 DUP3 PUSH1 0x1F DUP4 ADD SLT PUSH2 0x16BC JUMPI PUSH1 0x0 DUP1 REVERT JUMPDEST DUP2 CALLDATALOAD PUSH1 0x20 PUSH2 0x16D1 PUSH2 0x16CC DUP4 PUSH2 0x1687 JUMP JUMPDEST PUSH2 0x1656 JUMP JUMPDEST DUP3 DUP2 MSTORE PUSH1 0x5 SWAP3 SWAP1 SWAP3 SHL DUP5 ADD DUP2 ADD SWAP2 DUP2 DUP2 ADD SWAP1 DUP7 DUP5 GT ISZERO PUSH2 0x16F0 JUMPI PUSH1 0x0 DUP1 REVERT JUMPDEST DUP3 DUP7 ADD JUMPDEST DUP5 DUP2 LT ISZERO PUSH2 0x170B JUMPI DUP1 CALLDATALOAD DUP4 MSTORE SWAP2 DUP4 ADD SWAP2 DUP4 ADD PUSH2 0x16F4 JUMP JUMPDEST POP SWAP7 SWAP6 POP POP POP POP POP POP JUMP JUMPDEST PUSH1 0x0 DUP1 PUSH1 0x40 DUP4 DUP6 SUB SLT ISZERO PUSH2 0x1729 JUMPI PUSH1 0x0 DUP1 REVERT JUMPDEST DUP3 CALLDATALOAD PUSH8 0xFFFFFFFFFFFFFFFF DUP1 DUP3 GT ISZERO PUSH2 0x1741 JUMPI PUSH1 0x0 DUP1 REVERT JUMPDEST DUP2 DUP6 ADD SWAP2 POP DUP6 PUSH1 0x1F DUP4 ADD SLT PUSH2 0x1755 JUMPI PUSH1 0x0 DUP1 REVERT JUMPDEST DUP2 CALLDATALOAD PUSH1 0x20 PUSH2 0x1765 PUSH2 0x16CC DUP4 PUSH2 0x1687 JUMP JUMPDEST DUP3 DUP2 MSTORE PUSH1 0x5 SWAP3 SWAP1 SWAP3 SHL DUP5 ADD DUP2 ADD SWAP2 DUP2 DUP2 ADD SWAP1 DUP10 DUP5 GT ISZERO PUSH2 0x1784 JUMPI PUSH1 0x0 DUP1 REVERT JUMPDEST SWAP5 DUP3 ADD SWAP5 JUMPDEST DUP4 DUP7 LT ISZERO PUSH2 0x17A9 JUMPI PUSH2 0x179A DUP7 PUSH2 0x1572 JUMP JUMPDEST DUP3 MSTORE SWAP5 DUP3 ADD SWAP5 SWAP1 DUP3 ADD SWAP1 PUSH2 0x1789 JUMP JUMPDEST SWAP7 POP POP DUP7 ADD CALLDATALOAD SWAP3 POP POP DUP1 DUP3 GT ISZERO PUSH2 0x17BF JUMPI PUSH1 0x0 DUP1 REVERT JUMPDEST POP PUSH2 0x17CC DUP6 DUP3 DUP7 ADD PUSH2 0x16AB JUMP JUMPDEST SWAP2 POP POP SWAP3 POP SWAP3 SWAP1 POP JUMP JUMPDEST PUSH1 0x0 DUP1 PUSH1 0x0 PUSH1 0x60 DUP5 DUP7 SUB SLT ISZERO PUSH2 0x17EB JUMPI PUSH1 0x0 DUP1 REVERT JUMPDEST DUP4 CALLDATALOAD SWAP3 POP PUSH2 0x17FB PUSH1 0x20 DUP6 ADD PUSH2 0x1572 JUMP JUMPDEST SWAP2 POP PUSH1 0x40 DUP5 ADD CALLDATALOAD SWAP1 POP SWAP3 POP SWAP3 POP SWAP3 JUMP JUMPDEST DUP1 ISZERO ISZERO DUP2 EQ PUSH2 0x85D JUMPI PUSH1 0x0 DUP1 REVERT JUMPDEST PUSH1 0x0 DUP1 PUSH1 0x40 DUP4 DUP6 SUB SLT ISZERO PUSH2 0x182C JUMPI PUSH1 0x0 DUP1 REVERT JUMPDEST PUSH2 0x1835 DUP4 PUSH2 0x1572 JUMP JUMPDEST SWAP2 POP PUSH1 0x20 DUP4 ADD CALLDATALOAD PUSH2 0x1845 DUP2 PUSH2 0x180B JUMP JUMPDEST DUP1 SWAP2 POP POP SWAP3 POP SWAP3 SWAP1 POP JUMP JUMPDEST PUSH1 0x0 DUP1 PUSH1 0x40 DUP4 DUP6 SUB SLT ISZERO PUSH2 0x1863 JUMPI PUSH1 0x0 DUP1 REVERT JUMPDEST DUP3 CALLDATALOAD SWAP2 POP PUSH2 0x1873 PUSH1 0x20 DUP5 ADD PUSH2 0x1572 JUMP JUMPDEST SWAP1 POP SWAP3 POP SWAP3 SWAP1 POP JUMP JUMPDEST PUSH1 0x0 PUSH1 0x20 DUP3 DUP5 SUB SLT ISZERO PUSH2 0x188E JUMPI PUSH1 0x0 DUP1 REVERT JUMPDEST POP MLOAD SWAP2 SWAP1 POP JUMP JUMPDEST PUSH1 0x0 PUSH1 0x20 DUP3 DUP5 SUB SLT ISZERO PUSH2 0x18A7 JUMPI PUSH1 0x0 DUP1 REVERT JUMPDEST DUP2 MLOAD PUSH2 0x15A9 DUP2 PUSH2 0x180B JUMP JUMPDEST PUSH4 0x4E487B71 PUSH1 0xE0 SHL PUSH1 0x0 MSTORE PUSH1 0x11 PUSH1 0x4 MSTORE PUSH1 0x24 PUSH1 0x0 REVERT JUMPDEST DUP1 DUP3 MUL DUP2 ISZERO DUP3 DUP3 DIV DUP5 EQ OR PUSH2 0x67D JUMPI PUSH2 0x67D PUSH2 0x18B2 JUMP JUMPDEST DUP1 DUP3 ADD DUP1 DUP3 GT ISZERO PUSH2 0x67D JUMPI PUSH2 0x67D PUSH2 0x18B2 JUMP JUMPDEST PUSH4 0x4E487B71 PUSH1 0xE0 SHL PUSH1 0x0 MSTORE PUSH1 0x32 PUSH1 0x4 MSTORE PUSH1 0x24 PUSH1 0x0 REVERT JUMPDEST PUSH1 0x0 DUP3 PUSH2 0x1925 JUMPI PUSH4 0x4E487B71 PUSH1 0xE0 SHL PUSH1 0x0 MSTORE PUSH1 0x12 PUSH1 0x4 MSTORE PUSH1 0x24 PUSH1 0x0 REVERT JUMPDEST POP DIV SWAP1 JUMP JUMPDEST PUSH1 0x0 PUSH1 0x1 DUP3 ADD PUSH2 0x193C JUMPI PUSH2 0x193C PUSH2 0x18B2 JUMP JUMPDEST POP PUSH1 0x1 ADD SWAP1 JUMP JUMPDEST DUP2 DUP2 SUB DUP2 DUP2 GT ISZERO PUSH2 0x67D JUMPI PUSH2 0x67D PUSH2 0x18B2 JUMP JUMPDEST PUSH4 0x4E487B71 PUSH1 0xE0 SHL PUSH1 0x0 MSTORE PUSH1 0x31 PUSH1 0x4 MSTORE PUSH1 0x24 PUSH1 0x0 REVERT INVALID LOG2 PUSH5 0x6970667358 0x22 SLT KECCAK256 0x24 CALLVALUE DIV SELFDESTRUCT MSIZE PUSH21 0x4471421346827CBDD834779676866168055192BE8C 0xAA SWAP10 PUSH31 0xDCEF64736F6C63430008120033000000000000000000000000000000000000 "
		},
		"gasEstimates": {
			"creation": {
				"codeDepositCost": "1312400",
				"executionCost": "120640",
				"totalCost": "1433040"
			},
			"external": {
				"AllocationFund()": "infinite",
				"AllocationFundAddress(uint256)": "4749",
				"AllocationFundUserTime(address)": "2575",
				"Reputation()": "2471",
				"ReputationAmount()": "2374",
				"addAllocationFundAddress(address[],uint256[])": "infinite",
				"allTokenNum()": "2329",
				"allowAddr(address)": "2642",
				"award()": "2396",
				"checkRate()": "infinite",
				"controlAddress()": "2394",
				"distributionRatio(address)": "2620",
				"firstTime()": "2418",
				"getAllocationFundAddressLength()": "2326",
				"getSourceOfIncome(uint256,uint256)": "infinite",
				"getSourceOfIncomeLength(uint256,uint256)": "2588",
				"getTokenBalance()": "infinite",
				"getWETHBalance()": "infinite",
				"intervalTime()": "2438",
				"owner()": "2421",
				"pause()": "2378",
				"rate()": "2396",
				"removeAddr(address)": "infinite",
				"renounceOwnership()": "infinite",
				"setAddr(uint256,address)": "29068",
				"setAllowAddr(address,bool)": "27020",
				"setAward(uint256)": "24576",
				"setControlAddress(address)": "26859",
				"setIntervalTime(uint256)": "24557",
				"setRate(uint256)": "24622",
				"setReputation(address)": "26867",
				"setReputationAmount(uint256)": "24577",
				"setSourceOfIncome(uint256,address,uint256)": "4307",
				"setStatus()": "28746",
				"setTotalDistributionRatio(address,uint256)": "24809",
				"setUerIntverTime(uint256)": "24577",
				"setWeth(address)": "26846",
				"sourceOfIncome(uint256,uint256,uint256)": "4833",
				"transferOwnership(address)": "28443",
				"userTime()": "2395",
				"weth()": "2427",
				"withdraw()": "infinite"
			}
		},
		"methodIdentifiers": {
			"AllocationFund()": "7edf5a37",
			"AllocationFundAddress(uint256)": "1de1e2ac",
			"AllocationFundUserTime(address)": "b01f151d",
			"Reputation()": "9904ed8d",
			"ReputationAmount()": "28e04f02",
			"addAllocationFundAddress(address[],uint256[])": "b009c000",
			"allTokenNum()": "bcd06093",
			"allowAddr(address)": "c992124a",
			"award()": "41a494c5",
			"checkRate()": "e132db41",
			"controlAddress()": "39c65050",
			"distributionRatio(address)": "9362c35c",
			"firstTime()": "41d76a9c",
			"getAllocationFundAddressLength()": "4bab2ed2",
			"getSourceOfIncome(uint256,uint256)": "741b2613",
			"getSourceOfIncomeLength(uint256,uint256)": "23bebede",
			"getTokenBalance()": "82b2e257",
			"getWETHBalance()": "00cbb73b",
			"intervalTime()": "fd3c9144",
			"owner()": "8da5cb5b",
			"pause()": "8456cb59",
			"rate()": "2c4e722e",
			"removeAddr(address)": "81779a44",
			"renounceOwnership()": "715018a6",
			"setAddr(uint256,address)": "eba36dbd",
			"setAllowAddr(address,bool)": "df3a8535",
			"setAward(uint256)": "f1fc9d6a",
			"setControlAddress(address)": "1d269160",
			"setIntervalTime(uint256)": "0d63e87d",
			"setRate(uint256)": "34fcf437",
			"setReputation(address)": "f7d0e04b",
			"setReputationAmount(uint256)": "c19e4948",
			"setSourceOfIncome(uint256,address,uint256)": "ba8279ca",
			"setStatus()": "c0336629",
			"setTotalDistributionRatio(address,uint256)": "23d84413",
			"setUerIntverTime(uint256)": "b22bbb9f",
			"setWeth(address)": "b8d1452f",
			"sourceOfIncome(uint256,uint256,uint256)": "1216dea9",
			"transferOwnership(address)": "f2fde38b",
			"userTime()": "76fe0c7f",
			"weth()": "3fc8cef3",
			"withdraw()": "3ccfd60b"
		}
	},
	"abi": [
		{
			"inputs": [],
			"stateMutability": "nonpayable",
			"type": "constructor"
		},
		{
			"anonymous": false,
			"inputs": [
				{
					"indexed": true,
					"internalType": "address",
					"name": "previousOwner",
					"type": "address"
				},
				{
					"indexed": true,
					"internalType": "address",
					"name": "newOwner",
					"type": "address"
				}
			],
			"name": "OwnershipTransferred",
			"type": "event"
		},
		{
			"anonymous": false,
			"inputs": [
				{
					"indexed": false,
					"internalType": "address",
					"name": "distributionAddr",
					"type": "address"
				},
				{
					"indexed": false,
					"internalType": "uint256",
					"name": "amount",
					"type": "uint256"
				}
			],
			"name": "distributionRecord",
			"type": "event"
		},
		{
			"anonymous": false,
			"inputs": [
				{
					"indexed": false,
					"internalType": "uint256",
					"name": "num",
					"type": "uint256"
				},
				{
					"indexed": false,
					"internalType": "address",
					"name": "user",
					"type": "address"
				},
				{
					"indexed": false,
					"internalType": "uint256",
					"name": "amount",
					"type": "uint256"
				}
			],
			"name": "incomeRecord",
			"type": "event"
		},
		{
			"inputs": [],
			"name": "AllocationFund",
			"outputs": [],
			"stateMutability": "nonpayable",
			"type": "function"
		},
		{
			"inputs": [
				{
					"internalType": "uint256",
					"name": "",
					"type": "uint256"
				}
			],
			"name": "AllocationFundAddress",
			"outputs": [
				{
					"internalType": "address",
					"name": "",
					"type": "address"
				}
			],
			"stateMutability": "view",
			"type": "function"
		},
		{
			"inputs": [
				{
					"internalType": "address",
					"name": "",
					"type": "address"
				}
			],
			"name": "AllocationFundUserTime",
			"outputs": [
				{
					"internalType": "uint256",
					"name": "",
					"type": "uint256"
				}
			],
			"stateMutability": "view",
			"type": "function"
		},
		{
			"inputs": [],
			"name": "Reputation",
			"outputs": [
				{
					"internalType": "address",
					"name": "",
					"type": "address"
				}
			],
			"stateMutability": "view",
			"type": "function"
		},
		{
			"inputs": [],
			"name": "ReputationAmount",
			"outputs": [
				{
					"internalType": "uint256",
					"name": "",
					"type": "uint256"
				}
			],
			"stateMutability": "view",
			"type": "function"
		},
		{
			"inputs": [
				{
					"internalType": "address[]",
					"name": "assigned",
					"type": "address[]"
				},
				{
					"internalType": "uint256[]",
					"name": "_rate",
					"type": "uint256[]"
				}
			],
			"name": "addAllocationFundAddress",
			"outputs": [],
			"stateMutability": "nonpayable",
			"type": "function"
		},
		{
			"inputs": [],
			"name": "allTokenNum",
			"outputs": [
				{
					"internalType": "uint256",
					"name": "",
					"type": "uint256"
				}
			],
			"stateMutability": "view",
			"type": "function"
		},
		{
			"inputs": [
				{
					"internalType": "address",
					"name": "",
					"type": "address"
				}
			],
			"name": "allowAddr",
			"outputs": [
				{
					"internalType": "bool",
					"name": "",
					"type": "bool"
				}
			],
			"stateMutability": "view",
			"type": "function"
		},
		{
			"inputs": [],
			"name": "award",
			"outputs": [
				{
					"internalType": "uint256",
					"name": "",
					"type": "uint256"
				}
			],
			"stateMutability": "view",
			"type": "function"
		},
		{
			"inputs": [],
			"name": "checkRate",
			"outputs": [
				{
					"internalType": "uint256",
					"name": "",
					"type": "uint256"
				}
			],
			"stateMutability": "view",
			"type": "function"
		},
		{
			"inputs": [],
			"name": "controlAddress",
			"outputs": [
				{
					"internalType": "address",
					"name": "",
					"type": "address"
				}
			],
			"stateMutability": "view",
			"type": "function"
		},
		{
			"inputs": [
				{
					"internalType": "address",
					"name": "",
					"type": "address"
				}
			],
			"name": "distributionRatio",
			"outputs": [
				{
					"internalType": "uint256",
					"name": "",
					"type": "uint256"
				}
			],
			"stateMutability": "view",
			"type": "function"
		},
		{
			"inputs": [],
			"name": "firstTime",
			"outputs": [
				{
					"internalType": "uint256",
					"name": "",
					"type": "uint256"
				}
			],
			"stateMutability": "view",
			"type": "function"
		},
		{
			"inputs": [],
			"name": "getAllocationFundAddressLength",
			"outputs": [
				{
					"internalType": "uint256",
					"name": "",
					"type": "uint256"
				}
			],
			"stateMutability": "view",
			"type": "function"
		},
		{
			"inputs": [
				{
					"internalType": "uint256",
					"name": "num",
					"type": "uint256"
				},
				{
					"internalType": "uint256",
					"name": "tokenNum",
					"type": "uint256"
				}
			],
			"name": "getSourceOfIncome",
			"outputs": [
				{
					"internalType": "uint256[]",
					"name": "",
					"type": "uint256[]"
				}
			],
			"stateMutability": "view",
			"type": "function"
		},
		{
			"inputs": [
				{
					"internalType": "uint256",
					"name": "num",
					"type": "uint256"
				},
				{
					"internalType": "uint256",
					"name": "tokenNum",
					"type": "uint256"
				}
			],
			"name": "getSourceOfIncomeLength",
			"outputs": [
				{
					"internalType": "uint256",
					"name": "",
					"type": "uint256"
				}
			],
			"stateMutability": "view",
			"type": "function"
		},
		{
			"inputs": [],
			"name": "getTokenBalance",
			"outputs": [
				{
					"internalType": "uint256",
					"name": "",
					"type": "uint256"
				}
			],
			"stateMutability": "view",
			"type": "function"
		},
		{
			"inputs": [],
			"name": "getWETHBalance",
			"outputs": [
				{
					"internalType": "uint256",
					"name": "",
					"type": "uint256"
				}
			],
			"stateMutability": "view",
			"type": "function"
		},
		{
			"inputs": [],
			"name": "intervalTime",
			"outputs": [
				{
					"internalType": "uint256",
					"name": "",
					"type": "uint256"
				}
			],
			"stateMutability": "view",
			"type": "function"
		},
		{
			"inputs": [],
			"name": "owner",
			"outputs": [
				{
					"internalType": "address",
					"name": "",
					"type": "address"
				}
			],
			"stateMutability": "view",
			"type": "function"
		},
		{
			"inputs": [],
			"name": "pause",
			"outputs": [
				{
					"internalType": "bool",
					"name": "",
					"type": "bool"
				}
			],
			"stateMutability": "view",
			"type": "function"
		},
		{
			"inputs": [],
			"name": "rate",
			"outputs": [
				{
					"internalType": "uint256",
					"name": "",
					"type": "uint256"
				}
			],
			"stateMutability": "view",
			"type": "function"
		},
		{
			"inputs": [
				{
					"internalType": "address",
					"name": "_addr",
					"type": "address"
				}
			],
			"name": "removeAddr",
			"outputs": [],
			"stateMutability": "nonpayable",
			"type": "function"
		},
		{
			"inputs": [],
			"name": "renounceOwnership",
			"outputs": [],
			"stateMutability": "nonpayable",
			"type": "function"
		},
		{
			"inputs": [
				{
					"internalType": "uint256",
					"name": "_id",
					"type": "uint256"
				},
				{
					"internalType": "address",
					"name": "_addr",
					"type": "address"
				}
			],
			"name": "setAddr",
			"outputs": [],
			"stateMutability": "nonpayable",
			"type": "function"
		},
		{
			"inputs": [
				{
					"internalType": "address",
					"name": "_addr",
					"type": "address"
				},
				{
					"internalType": "bool",
					"name": "_status",
					"type": "bool"
				}
			],
			"name": "setAllowAddr",
			"outputs": [],
			"stateMutability": "nonpayable",
			"type": "function"
		},
		{
			"inputs": [
				{
					"internalType": "uint256",
					"name": "_award",
					"type": "uint256"
				}
			],
			"name": "setAward",
			"outputs": [],
			"stateMutability": "nonpayable",
			"type": "function"
		},
		{
			"inputs": [
				{
					"internalType": "address",
					"name": "_controlAddress",
					"type": "address"
				}
			],
			"name": "setControlAddress",
			"outputs": [],
			"stateMutability": "nonpayable",
			"type": "function"
		},
		{
			"inputs": [
				{
					"internalType": "uint256",
					"name": "_time",
					"type": "uint256"
				}
			],
			"name": "setIntervalTime",
			"outputs": [],
			"stateMutability": "nonpayable",
			"type": "function"
		},
		{
			"inputs": [
				{
					"internalType": "uint256",
					"name": "_rate",
					"type": "uint256"
				}
			],
			"name": "setRate",
			"outputs": [],
			"stateMutability": "nonpayable",
			"type": "function"
		},
		{
			"inputs": [
				{
					"internalType": "address",
					"name": "_Reputation",
					"type": "address"
				}
			],
			"name": "setReputation",
			"outputs": [],
			"stateMutability": "nonpayable",
			"type": "function"
		},
		{
			"inputs": [
				{
					"internalType": "uint256",
					"name": "_amount",
					"type": "uint256"
				}
			],
			"name": "setReputationAmount",
			"outputs": [],
			"stateMutability": "nonpayable",
			"type": "function"
		},
		{
			"inputs": [
				{
					"internalType": "uint256",
					"name": "num",
					"type": "uint256"
				},
				{
					"internalType": "address",
					"name": "user",
					"type": "address"
				},
				{
					"internalType": "uint256",
					"name": "amount",
					"type": "uint256"
				}
			],
			"name": "setSourceOfIncome",
			"outputs": [],
			"stateMutability": "nonpayable",
			"type": "function"
		},
		{
			"inputs": [],
			"name": "setStatus",
			"outputs": [],
			"stateMutability": "nonpayable",
			"type": "function"
		},
		{
			"inputs": [
				{
					"internalType": "address",
					"name": "_addr",
					"type": "address"
				},
				{
					"internalType": "uint256",
					"name": "_rate",
					"type": "uint256"
				}
			],
			"name": "setTotalDistributionRatio",
			"outputs": [],
			"stateMutability": "nonpayable",
			"type": "function"
		},
		{
			"inputs": [
				{
					"internalType": "uint256",
					"name": "_time",
					"type": "uint256"
				}
			],
			"name": "setUerIntverTime",
			"outputs": [],
			"stateMutability": "nonpayable",
			"type": "function"
		},
		{
			"inputs": [
				{
					"internalType": "address",
					"name": "_weth",
					"type": "address"
				}
			],
			"name": "setWeth",
			"outputs": [],
			"stateMutability": "nonpayable",
			"type": "function"
		},
		{
			"inputs": [
				{
					"internalType": "uint256",
					"name": "",
					"type": "uint256"
				},
				{
					"internalType": "uint256",
					"name": "",
					"type": "uint256"
				},
				{
					"internalType": "uint256",
					"name": "",
					"type": "uint256"
				}
			],
			"name": "sourceOfIncome",
			"outputs": [
				{
					"internalType": "uint256",
					"name": "",
					"type": "uint256"
				}
			],
			"stateMutability": "view",
			"type": "function"
		},
		{
			"inputs": [
				{
					"internalType": "address",
					"name": "newOwner",
					"type": "address"
				}
			],
			"name": "transferOwnership",
			"outputs": [],
			"stateMutability": "nonpayable",
			"type": "function"
		},
		{
			"inputs": [],
			"name": "userTime",
			"outputs": [
				{
					"internalType": "uint256",
					"name": "",
					"type": "uint256"
				}
			],
			"stateMutability": "view",
			"type": "function"
		},
		{
			"inputs": [],
			"name": "weth",
			"outputs": [
				{
					"internalType": "address",
					"name": "",
					"type": "address"
				}
			],
			"stateMutability": "view",
			"type": "function"
		},
		{
			"inputs": [],
			"name": "withdraw",
			"outputs": [],
			"stateMutability": "nonpayable",
			"type": "function"
		}
	]
}