{
	"data": {
		"bytecode": {
			"linkReferences": {},
			"object": "60806040526005805460ff60a01b191690553480156200001e57600080fd5b50604051620013a3380380620013a3833981016040819052620000419162000128565b6040805180820182526007808252665342542d30303360c81b6020808401829052845180860190955291845290830152906003620000808382620001ff565b5060046200008f8282620001ff565b505050620000ac620000a6620000d260201b60201c565b620000d6565b600680546001600160a01b0319166001600160a01b0392909216919091179055620002cb565b3390565b600580546001600160a01b038381166001600160a01b0319831681179093556040519116919082907f8be0079c531659141344cd1fd0a4f28419497f9722a3daafe3b4186f6b6457e090600090a35050565b6000602082840312156200013b57600080fd5b81516001600160a01b03811681146200015357600080fd5b9392505050565b634e487b7160e01b600052604160045260246000fd5b600181811c908216806200018557607f821691505b602082108103620001a657634e487b7160e01b600052602260045260246000fd5b50919050565b601f821115620001fa57600081815260208120601f850160051c81016020861015620001d55750805b601f850160051c820191505b81811015620001f657828155600101620001e1565b5050505b505050565b81516001600160401b038111156200021b576200021b6200015a565b62000233816200022c845462000170565b84620001ac565b602080601f8311600181146200026b5760008415620002525750858301515b600019600386901b1c1916600185901b178555620001f6565b600085815260208120601f198616915b828110156200029c578886015182559484019460019091019084016200027b565b5085821015620002bb5787850151600019600388901b60f8161c191681555b5050505050600190811b01905550565b6110c880620002db6000396000f3fe608060405234801561001057600080fd5b50600436106101585760003560e01c8063782d6fe1116100c3578063a9059cbb1161007c578063a9059cbb1461031d578063b4b5ea571461032b578063c03366291461033e578063dd62ed3e1461035f578063f1127ed814610372578063f2fde38b146103da57600080fd5b8063782d6fe1146102a05780638da5cb5b146102cb5780639090c0f2146102dc57806395d89b41146102ef5780639dc29fac146102f7578063a457c2d71461030a57600080fd5b8063313ce56711610115578063313ce567146101fd578063395093511461020c57806340c10f191461021f5780636fcfff451461023457806370a082311461026f578063715018a61461029857600080fd5b806306fdde031461015d578063095ea7b31461017b57806318160ddd1461019e5780631a5ef71c146101b0578063200d2ed2146101db57806323b872dd146101ef575b600080fd5b6101656103ed565b6040516101729190610e53565b60405180910390f35b61018e610189366004610ebd565b61047f565b6040519015158152602001610172565b6002545b604051908152602001610172565b6006546101c3906001600160a01b031681565b6040516001600160a01b039091168152602001610172565b60055461018e90600160a01b900460ff1681565b61018e610158366004610ee7565b60405160128152602001610172565b61018e61021a366004610ebd565b6104b2565b61023261022d366004610ebd565b6104cf565b005b61025a610242366004610f23565b60086020526000908152604090205463ffffffff1681565b60405163ffffffff9091168152602001610172565b6101a261027d366004610f23565b6001600160a01b031660009081526020819052604090205490565b61023261055a565b6102b36102ae366004610ebd565b61056e565b6040516001600160601b039091168152602001610172565b6005546001600160a01b03166101c3565b6102326102ea366004610f23565b61080e565b610165610838565b610232610305366004610ebd565b610847565b61018e610318366004610ebd565b6108ce565b61018e610158366004610ebd565b6102b3610339366004610f23565b610949565b6005805460ff60a01b198116600160a01b9182900460ff1615909102179055005b6101a261036d366004610f3e565b6109f5565b6103b6610380366004610f71565b600760209081526000928352604080842090915290825290205463ffffffff81169064010000000090046001600160601b031682565b6040805163ffffffff90931683526001600160601b03909116602083015201610172565b6102326103e8366004610f23565b610a20565b6060600380546103fc90610fb1565b80601f016020809104026020016040519081016040528092919081815260200182805461042890610fb1565b80156104755780601f1061044a57610100808354040283529160200191610475565b820191906000526020600020905b81548152906001019060200180831161045857829003601f168201915b5050505050905090565b60003361048d818585610a99565b60019150505b92915050565b60405180910390fd5b610a99565b506001949350505050565b60003361048d8185856104c583836109f5565b6104a29190611001565b600554600160a01b900460ff16156104f95760405162461bcd60e51b815260040161049990611014565b6006546001600160a01b0316331461054c5760405162461bcd60e51b815260206004820152601660248201527518d85b1b195c881a5cc81b9bdd08199a5c9954dbdd5b60521b6044820152606401610499565b6105568282610bbe565b5050565b610562610c7d565b61056c6000610cd7565b565b600554600090600160a01b900460ff161561059b5760405162461bcd60e51b815260040161049990611014565b438211156105eb5760405162461bcd60e51b815260206004820152601960248201527f45524332303a206e6f74207965742064657465726d696e6564000000000000006044820152606401610499565b6001600160a01b03831660009081526008602052604090205463ffffffff1680158061063f57506001600160a01b038416600090815260076020908152604080832083805290915290205463ffffffff1683105b1561064e576000915050610493565b6001600160a01b0384166000908152600760205260408120849161067360018561103d565b63ffffffff908116825260208201929092526040016000205416116106e7576001600160a01b0384166000908152600760205260408120906106b660018461103d565b63ffffffff16815260208101919091526040016000205464010000000090046001600160601b031691506104939050565b6000806106f560018461103d565b90505b8163ffffffff168163ffffffff1611156107c8576000600261071a848461103d565b6107249190611061565b61072e908361103d565b6001600160a01b038816600090815260076020908152604080832063ffffffff8581168552908352928190208151808301909252549283168082526401000000009093046001600160601b03169181019190915291925087900361079c576020015194506104939350505050565b805163ffffffff168711156107b3578193506107c1565b6107be60018361103d565b92505b50506106f8565b506001600160a01b038516600090815260076020908152604080832063ffffffff909416835292905220546001600160601b036401000000009091041691505092915050565b610816610c7d565b600680546001600160a01b0319166001600160a01b0392909216919091179055565b6060600480546103fc90610fb1565b600554600160a01b900460ff16156108715760405162461bcd60e51b815260040161049990611014565b6006546001600160a01b031633146108c45760405162461bcd60e51b815260206004820152601660248201527518d85b1b195c881a5cc81b9bdd08199a5c9954dbdd5b60521b6044820152606401610499565b6105568282610d29565b600033816108dc82866109f5565b90508381101561093c5760405162461bcd60e51b815260206004820152602560248201527f45524332303a2064656372656173656420616c6c6f77616e63652062656c6f77604482015264207a65726f60d81b6064820152608401610499565b6104a78286868403610a99565b600554600090600160a01b900460ff16156109765760405162461bcd60e51b815260040161049990611014565b6001600160a01b03821660009081526008602052604090205463ffffffff16806109a15760006109ee565b6001600160a01b0383166000908152600760205260408120906109c560018461103d565b63ffffffff16815260208101919091526040016000205464010000000090046001600160601b03165b9392505050565b6001600160a01b03918216600090815260016020908152604080832093909416825291909152205490565b610a28610c7d565b6001600160a01b038116610a8d5760405162461bcd60e51b815260206004820152602660248201527f4f776e61626c653a206e6577206f776e657220697320746865207a65726f206160448201526564647265737360d01b6064820152608401610499565b610a9681610cd7565b50565b6001600160a01b038316610afb5760405162461bcd60e51b8152602060048201526024808201527f45524332303a20617070726f76652066726f6d20746865207a65726f206164646044820152637265737360e01b6064820152608401610499565b6001600160a01b038216610b5c5760405162461bcd60e51b815260206004820152602260248201527f45524332303a20617070726f766520746f20746865207a65726f206164647265604482015261737360f01b6064820152608401610499565b6001600160a01b0383811660008181526001602090815260408083209487168084529482529182902085905590518481527f8c5be1e5ebec7d5bd14f71427d1e84f3dd0314c0f7b2291e5b200ac8c7c3b92591015b60405180910390a3505050565b6001600160a01b038216610c145760405162461bcd60e51b815260206004820152601f60248201527f45524332303a206d696e7420746f20746865207a65726f2061646472657373006044820152606401610499565b8060026000828254610c269190611001565b90915550506001600160a01b038216600081815260208181526040808320805486019055518481527fddf252ad1be2c89b69c2b068fc378daa952ba7f163c4a11628f55a4df523b3ef910160405180910390a35050565b6005546001600160a01b0316331461056c5760405162461bcd60e51b815260206004820181905260248201527f4f776e61626c653a2063616c6c6572206973206e6f7420746865206f776e65726044820152606401610499565b600580546001600160a01b038381166001600160a01b0319831681179093556040519116919082907f8be0079c531659141344cd1fd0a4f28419497f9722a3daafe3b4186f6b6457e090600090a35050565b6001600160a01b038216610d895760405162461bcd60e51b815260206004820152602160248201527f45524332303a206275726e2066726f6d20746865207a65726f206164647265736044820152607360f81b6064820152608401610499565b6001600160a01b03821660009081526020819052604090205481811015610dfd5760405162461bcd60e51b815260206004820152602260248201527f45524332303a206275726e20616d6f756e7420657863656564732062616c616e604482015261636560f01b6064820152608401610499565b6001600160a01b0383166000818152602081815260408083208686039055600280548790039055518581529192917fddf252ad1be2c89b69c2b068fc378daa952ba7f163c4a11628f55a4df523b3ef9101610bb1565b600060208083528351808285015260005b81811015610e8057858101830151858201604001528201610e64565b506000604082860101526040601f19601f8301168501019250505092915050565b80356001600160a01b0381168114610eb857600080fd5b919050565b60008060408385031215610ed057600080fd5b610ed983610ea1565b946020939093013593505050565b600080600060608486031215610efc57600080fd5b610f0584610ea1565b9250610f1360208501610ea1565b9150604084013590509250925092565b600060208284031215610f3557600080fd5b6109ee82610ea1565b60008060408385031215610f5157600080fd5b610f5a83610ea1565b9150610f6860208401610ea1565b90509250929050565b60008060408385031215610f8457600080fd5b610f8d83610ea1565b9150602083013563ffffffff81168114610fa657600080fd5b809150509250929050565b600181811c90821680610fc557607f821691505b602082108103610fe557634e487b7160e01b600052602260045260246000fd5b50919050565b634e487b7160e01b600052601160045260246000fd5b8082018082111561049357610493610feb565b6020808252600f908201526e7374617475732069732066616c736560881b604082015260600190565b63ffffffff82811682821603908082111561105a5761105a610feb565b5092915050565b600063ffffffff8084168061108657634e487b7160e01b600052601260045260246000fd5b9216919091049291505056fea26469706673582212205a6f15ce153b89cfbaf49aa03d9442e8988986df2fcce42514d307f3cca00bf564736f6c63430008120033",
			"opcodes": "PUSH1 0x80 PUSH1 0x40 MSTORE PUSH1 0x5 DUP1 SLOAD PUSH1 0xFF PUSH1 0xA0 SHL NOT AND SWAP1 SSTORE CALLVALUE DUP1 ISZERO PUSH3 0x1E JUMPI PUSH1 0x0 DUP1 REVERT JUMPDEST POP PUSH1 0x40 MLOAD PUSH3 0x13A3 CODESIZE SUB DUP1 PUSH3 0x13A3 DUP4 CODECOPY DUP2 ADD PUSH1 0x40 DUP2 SWAP1 MSTORE PUSH3 0x41 SWAP2 PUSH3 0x128 JUMP JUMPDEST PUSH1 0x40 DUP1 MLOAD DUP1 DUP3 ADD DUP3 MSTORE PUSH1 0x7 DUP1 DUP3 MSTORE PUSH7 0x5342542D303033 PUSH1 0xC8 SHL PUSH1 0x20 DUP1 DUP5 ADD DUP3 SWAP1 MSTORE DUP5 MLOAD DUP1 DUP7 ADD SWAP1 SWAP6 MSTORE SWAP2 DUP5 MSTORE SWAP1 DUP4 ADD MSTORE SWAP1 PUSH1 0x3 PUSH3 0x80 DUP4 DUP3 PUSH3 0x1FF JUMP JUMPDEST POP PUSH1 0x4 PUSH3 0x8F DUP3 DUP3 PUSH3 0x1FF JUMP JUMPDEST POP POP POP PUSH3 0xAC PUSH3 0xA6 PUSH3 0xD2 PUSH1 0x20 SHL PUSH1 0x20 SHR JUMP JUMPDEST PUSH3 0xD6 JUMP JUMPDEST PUSH1 0x6 DUP1 SLOAD PUSH1 0x1 PUSH1 0x1 PUSH1 0xA0 SHL SUB NOT AND PUSH1 0x1 PUSH1 0x1 PUSH1 0xA0 SHL SUB SWAP3 SWAP1 SWAP3 AND SWAP2 SWAP1 SWAP2 OR SWAP1 SSTORE PUSH3 0x2CB JUMP JUMPDEST CALLER SWAP1 JUMP JUMPDEST PUSH1 0x5 DUP1 SLOAD PUSH1 0x1 PUSH1 0x1 PUSH1 0xA0 SHL SUB DUP4 DUP2 AND PUSH1 0x1 PUSH1 0x1 PUSH1 0xA0 SHL SUB NOT DUP4 AND DUP2 OR SWAP1 SWAP4 SSTORE PUSH1 0x40 MLOAD SWAP2 AND SWAP2 SWAP1 DUP3 SWAP1 PUSH32 0x8BE0079C531659141344CD1FD0A4F28419497F9722A3DAAFE3B4186F6B6457E0 SWAP1 PUSH1 0x0 SWAP1 LOG3 POP POP JUMP JUMPDEST PUSH1 0x0 PUSH1 0x20 DUP3 DUP5 SUB SLT ISZERO PUSH3 0x13B JUMPI PUSH1 0x0 DUP1 REVERT JUMPDEST DUP2 MLOAD PUSH1 0x1 PUSH1 0x1 PUSH1 0xA0 SHL SUB DUP2 AND DUP2 EQ PUSH3 0x153 JUMPI PUSH1 0x0 DUP1 REVERT JUMPDEST SWAP4 SWAP3 POP POP POP JUMP JUMPDEST PUSH4 0x4E487B71 PUSH1 0xE0 SHL PUSH1 0x0 MSTORE PUSH1 0x41 PUSH1 0x4 MSTORE PUSH1 0x24 PUSH1 0x0 REVERT JUMPDEST PUSH1 0x1 DUP2 DUP2 SHR SWAP1 DUP3 AND DUP1 PUSH3 0x185 JUMPI PUSH1 0x7F DUP3 AND SWAP2 POP JUMPDEST PUSH1 0x20 DUP3 LT DUP2 SUB PUSH3 0x1A6 JUMPI PUSH4 0x4E487B71 PUSH1 0xE0 SHL PUSH1 0x0 MSTORE PUSH1 0x22 PUSH1 0x4 MSTORE PUSH1 0x24 PUSH1 0x0 REVERT JUMPDEST POP SWAP2 SWAP1 POP JUMP JUMPDEST PUSH1 0x1F DUP3 GT ISZERO PUSH3 0x1FA JUMPI PUSH1 0x0 DUP2 DUP2 MSTORE PUSH1 0x20 DUP2 KECCAK256 PUSH1 0x1F DUP6 ADD PUSH1 0x5 SHR DUP2 ADD PUSH1 0x20 DUP7 LT ISZERO PUSH3 0x1D5 JUMPI POP DUP1 JUMPDEST PUSH1 0x1F DUP6 ADD PUSH1 0x5 SHR DUP3 ADD SWAP2 POP JUMPDEST DUP2 DUP2 LT ISZERO PUSH3 0x1F6 JUMPI DUP3 DUP2 SSTORE PUSH1 0x1 ADD PUSH3 0x1E1 JUMP JUMPDEST POP POP POP JUMPDEST POP POP POP JUMP JUMPDEST DUP2 MLOAD PUSH1 0x1 PUSH1 0x1 PUSH1 0x40 SHL SUB DUP2 GT ISZERO PUSH3 0x21B JUMPI PUSH3 0x21B PUSH3 0x15A JUMP JUMPDEST PUSH3 0x233 DUP2 PUSH3 0x22C DUP5 SLOAD PUSH3 0x170 JUMP JUMPDEST DUP5 PUSH3 0x1AC JUMP JUMPDEST PUSH1 0x20 DUP1 PUSH1 0x1F DUP4 GT PUSH1 0x1 DUP2 EQ PUSH3 0x26B JUMPI PUSH1 0x0 DUP5 ISZERO PUSH3 0x252 JUMPI POP DUP6 DUP4 ADD MLOAD JUMPDEST PUSH1 0x0 NOT PUSH1 0x3 DUP7 SWAP1 SHL SHR NOT AND PUSH1 0x1 DUP6 SWAP1 SHL OR DUP6 SSTORE PUSH3 0x1F6 JUMP JUMPDEST PUSH1 0x0 DUP6 DUP2 MSTORE PUSH1 0x20 DUP2 KECCAK256 PUSH1 0x1F NOT DUP7 AND SWAP2 JUMPDEST DUP3 DUP2 LT ISZERO PUSH3 0x29C JUMPI DUP9 DUP7 ADD MLOAD DUP3 SSTORE SWAP5 DUP5 ADD SWAP5 PUSH1 0x1 SWAP1 SWAP2 ADD SWAP1 DUP5 ADD PUSH3 0x27B JUMP JUMPDEST POP DUP6 DUP3 LT ISZERO PUSH3 0x2BB JUMPI DUP8 DUP6 ADD MLOAD PUSH1 0x0 NOT PUSH1 0x3 DUP9 SWAP1 SHL PUSH1 0xF8 AND SHR NOT AND DUP2 SSTORE JUMPDEST POP POP POP POP POP PUSH1 0x1 SWAP1 DUP2 SHL ADD SWAP1 SSTORE POP JUMP JUMPDEST PUSH2 0x10C8 DUP1 PUSH3 0x2DB PUSH1 0x0 CODECOPY PUSH1 0x0 RETURN INVALID PUSH1 0x80 PUSH1 0x40 MSTORE CALLVALUE DUP1 ISZERO PUSH2 0x10 JUMPI PUSH1 0x0 DUP1 REVERT JUMPDEST POP PUSH1 0x4 CALLDATASIZE LT PUSH2 0x158 JUMPI PUSH1 0x0 CALLDATALOAD PUSH1 0xE0 SHR DUP1 PUSH4 0x782D6FE1 GT PUSH2 0xC3 JUMPI DUP1 PUSH4 0xA9059CBB GT PUSH2 0x7C JUMPI DUP1 PUSH4 0xA9059CBB EQ PUSH2 0x31D JUMPI DUP1 PUSH4 0xB4B5EA57 EQ PUSH2 0x32B JUMPI DUP1 PUSH4 0xC0336629 EQ PUSH2 0x33E JUMPI DUP1 PUSH4 0xDD62ED3E EQ PUSH2 0x35F JUMPI DUP1 PUSH4 0xF1127ED8 EQ PUSH2 0x372 JUMPI DUP1 PUSH4 0xF2FDE38B EQ PUSH2 0x3DA JUMPI PUSH1 0x0 DUP1 REVERT JUMPDEST DUP1 PUSH4 0x782D6FE1 EQ PUSH2 0x2A0 JUMPI DUP1 PUSH4 0x8DA5CB5B EQ PUSH2 0x2CB JUMPI DUP1 PUSH4 0x9090C0F2 EQ PUSH2 0x2DC JUMPI DUP1 PUSH4 0x95D89B41 EQ PUSH2 0x2EF JUMPI DUP1 PUSH4 0x9DC29FAC EQ PUSH2 0x2F7 JUMPI DUP1 PUSH4 0xA457C2D7 EQ PUSH2 0x30A JUMPI PUSH1 0x0 DUP1 REVERT JUMPDEST DUP1 PUSH4 0x313CE567 GT PUSH2 0x115 JUMPI DUP1 PUSH4 0x313CE567 EQ PUSH2 0x1FD JUMPI DUP1 PUSH4 0x39509351 EQ PUSH2 0x20C JUMPI DUP1 PUSH4 0x40C10F19 EQ PUSH2 0x21F JUMPI DUP1 PUSH4 0x6FCFFF45 EQ PUSH2 0x234 JUMPI DUP1 PUSH4 0x70A08231 EQ PUSH2 0x26F JUMPI DUP1 PUSH4 0x715018A6 EQ PUSH2 0x298 JUMPI PUSH1 0x0 DUP1 REVERT JUMPDEST DUP1 PUSH4 0x6FDDE03 EQ PUSH2 0x15D JUMPI DUP1 PUSH4 0x95EA7B3 EQ PUSH2 0x17B JUMPI DUP1 PUSH4 0x18160DDD EQ PUSH2 0x19E JUMPI DUP1 PUSH4 0x1A5EF71C EQ PUSH2 0x1B0 JUMPI DUP1 PUSH4 0x200D2ED2 EQ PUSH2 0x1DB JUMPI DUP1 PUSH4 0x23B872DD EQ PUSH2 0x1EF JUMPI JUMPDEST PUSH1 0x0 DUP1 REVERT JUMPDEST PUSH2 0x165 PUSH2 0x3ED JUMP JUMPDEST PUSH1 0x40 MLOAD PUSH2 0x172 SWAP2 SWAP1 PUSH2 0xE53 JUMP JUMPDEST PUSH1 0x40 MLOAD DUP1 SWAP2 SUB SWAP1 RETURN JUMPDEST PUSH2 0x18E PUSH2 0x189 CALLDATASIZE PUSH1 0x4 PUSH2 0xEBD JUMP JUMPDEST PUSH2 0x47F JUMP JUMPDEST PUSH1 0x40 MLOAD SWAP1 ISZERO ISZERO DUP2 MSTORE PUSH1 0x20 ADD PUSH2 0x172 JUMP JUMPDEST PUSH1 0x2 SLOAD JUMPDEST PUSH1 0x40 MLOAD SWAP1 DUP2 MSTORE PUSH1 0x20 ADD PUSH2 0x172 JUMP JUMPDEST PUSH1 0x6 SLOAD PUSH2 0x1C3 SWAP1 PUSH1 0x1 PUSH1 0x1 PUSH1 0xA0 SHL SUB AND DUP2 JUMP JUMPDEST PUSH1 0x40 MLOAD PUSH1 0x1 PUSH1 0x1 PUSH1 0xA0 SHL SUB SWAP1 SWAP2 AND DUP2 MSTORE PUSH1 0x20 ADD PUSH2 0x172 JUMP JUMPDEST PUSH1 0x5 SLOAD PUSH2 0x18E SWAP1 PUSH1 0x1 PUSH1 0xA0 SHL SWAP1 DIV PUSH1 0xFF AND DUP2 JUMP JUMPDEST PUSH2 0x18E PUSH2 0x158 CALLDATASIZE PUSH1 0x4 PUSH2 0xEE7 JUMP JUMPDEST PUSH1 0x40 MLOAD PUSH1 0x12 DUP2 MSTORE PUSH1 0x20 ADD PUSH2 0x172 JUMP JUMPDEST PUSH2 0x18E PUSH2 0x21A CALLDATASIZE PUSH1 0x4 PUSH2 0xEBD JUMP JUMPDEST PUSH2 0x4B2 JUMP JUMPDEST PUSH2 0x232 PUSH2 0x22D CALLDATASIZE PUSH1 0x4 PUSH2 0xEBD JUMP JUMPDEST PUSH2 0x4CF JUMP JUMPDEST STOP JUMPDEST PUSH2 0x25A PUSH2 0x242 CALLDATASIZE PUSH1 0x4 PUSH2 0xF23 JUMP JUMPDEST PUSH1 0x8 PUSH1 0x20 MSTORE PUSH1 0x0 SWAP1 DUP2 MSTORE PUSH1 0x40 SWAP1 KECCAK256 SLOAD PUSH4 0xFFFFFFFF AND DUP2 JUMP JUMPDEST PUSH1 0x40 MLOAD PUSH4 0xFFFFFFFF SWAP1 SWAP2 AND DUP2 MSTORE PUSH1 0x20 ADD PUSH2 0x172 JUMP JUMPDEST PUSH2 0x1A2 PUSH2 0x27D CALLDATASIZE PUSH1 0x4 PUSH2 0xF23 JUMP JUMPDEST PUSH1 0x1 PUSH1 0x1 PUSH1 0xA0 SHL SUB AND PUSH1 0x0 SWAP1 DUP2 MSTORE PUSH1 0x20 DUP2 SWAP1 MSTORE PUSH1 0x40 SWAP1 KECCAK256 SLOAD SWAP1 JUMP JUMPDEST PUSH2 0x232 PUSH2 0x55A JUMP JUMPDEST PUSH2 0x2B3 PUSH2 0x2AE CALLDATASIZE PUSH1 0x4 PUSH2 0xEBD JUMP JUMPDEST PUSH2 0x56E JUMP JUMPDEST PUSH1 0x40 MLOAD PUSH1 0x1 PUSH1 0x1 PUSH1 0x60 SHL SUB SWAP1 SWAP2 AND DUP2 MSTORE PUSH1 0x20 ADD PUSH2 0x172 JUMP JUMPDEST PUSH1 0x5 SLOAD PUSH1 0x1 PUSH1 0x1 PUSH1 0xA0 SHL SUB AND PUSH2 0x1C3 JUMP JUMPDEST PUSH2 0x232 PUSH2 0x2EA CALLDATASIZE PUSH1 0x4 PUSH2 0xF23 JUMP JUMPDEST PUSH2 0x80E JUMP JUMPDEST PUSH2 0x165 PUSH2 0x838 JUMP JUMPDEST PUSH2 0x232 PUSH2 0x305 CALLDATASIZE PUSH1 0x4 PUSH2 0xEBD JUMP JUMPDEST PUSH2 0x847 JUMP JUMPDEST PUSH2 0x18E PUSH2 0x318 CALLDATASIZE PUSH1 0x4 PUSH2 0xEBD JUMP JUMPDEST PUSH2 0x8CE JUMP JUMPDEST PUSH2 0x18E PUSH2 0x158 CALLDATASIZE PUSH1 0x4 PUSH2 0xEBD JUMP JUMPDEST PUSH2 0x2B3 PUSH2 0x339 CALLDATASIZE PUSH1 0x4 PUSH2 0xF23 JUMP JUMPDEST PUSH2 0x949 JUMP JUMPDEST PUSH1 0x5 DUP1 SLOAD PUSH1 0xFF PUSH1 0xA0 SHL NOT DUP2 AND PUSH1 0x1 PUSH1 0xA0 SHL SWAP2 DUP3 SWAP1 DIV PUSH1 0xFF AND ISZERO SWAP1 SWAP2 MUL OR SWAP1 SSTORE STOP JUMPDEST PUSH2 0x1A2 PUSH2 0x36D CALLDATASIZE PUSH1 0x4 PUSH2 0xF3E JUMP JUMPDEST PUSH2 0x9F5 JUMP JUMPDEST PUSH2 0x3B6 PUSH2 0x380 CALLDATASIZE PUSH1 0x4 PUSH2 0xF71 JUMP JUMPDEST PUSH1 0x7 PUSH1 0x20 SWAP1 DUP2 MSTORE PUSH1 0x0 SWAP3 DUP4 MSTORE PUSH1 0x40 DUP1 DUP5 KECCAK256 SWAP1 SWAP2 MSTORE SWAP1 DUP3 MSTORE SWAP1 KECCAK256 SLOAD PUSH4 0xFFFFFFFF DUP2 AND SWAP1 PUSH5 0x100000000 SWAP1 DIV PUSH1 0x1 PUSH1 0x1 PUSH1 0x60 SHL SUB AND DUP3 JUMP JUMPDEST PUSH1 0x40 DUP1 MLOAD PUSH4 0xFFFFFFFF SWAP1 SWAP4 AND DUP4 MSTORE PUSH1 0x1 PUSH1 0x1 PUSH1 0x60 SHL SUB SWAP1 SWAP2 AND PUSH1 0x20 DUP4 ADD MSTORE ADD PUSH2 0x172 JUMP JUMPDEST PUSH2 0x232 PUSH2 0x3E8 CALLDATASIZE PUSH1 0x4 PUSH2 0xF23 JUMP JUMPDEST PUSH2 0xA20 JUMP JUMPDEST PUSH1 0x60 PUSH1 0x3 DUP1 SLOAD PUSH2 0x3FC SWAP1 PUSH2 0xFB1 JUMP JUMPDEST DUP1 PUSH1 0x1F ADD PUSH1 0x20 DUP1 SWAP2 DIV MUL PUSH1 0x20 ADD PUSH1 0x40 MLOAD SWAP1 DUP2 ADD PUSH1 0x40 MSTORE DUP1 SWAP3 SWAP2 SWAP1 DUP2 DUP2 MSTORE PUSH1 0x20 ADD DUP3 DUP1 SLOAD PUSH2 0x428 SWAP1 PUSH2 0xFB1 JUMP JUMPDEST DUP1 ISZERO PUSH2 0x475 JUMPI DUP1 PUSH1 0x1F LT PUSH2 0x44A JUMPI PUSH2 0x100 DUP1 DUP4 SLOAD DIV MUL DUP4 MSTORE SWAP2 PUSH1 0x20 ADD SWAP2 PUSH2 0x475 JUMP JUMPDEST DUP3 ADD SWAP2 SWAP1 PUSH1 0x0 MSTORE PUSH1 0x20 PUSH1 0x0 KECCAK256 SWAP1 JUMPDEST DUP2 SLOAD DUP2 MSTORE SWAP1 PUSH1 0x1 ADD SWAP1 PUSH1 0x20 ADD DUP1 DUP4 GT PUSH2 0x458 JUMPI DUP3 SWAP1 SUB PUSH1 0x1F AND DUP3 ADD SWAP2 JUMPDEST POP POP POP POP POP SWAP1 POP SWAP1 JUMP JUMPDEST PUSH1 0x0 CALLER PUSH2 0x48D DUP2 DUP6 DUP6 PUSH2 0xA99 JUMP JUMPDEST PUSH1 0x1 SWAP2 POP POP JUMPDEST SWAP3 SWAP2 POP POP JUMP JUMPDEST PUSH1 0x40 MLOAD DUP1 SWAP2 SUB SWAP1 REVERT JUMPDEST PUSH2 0xA99 JUMP JUMPDEST POP PUSH1 0x1 SWAP5 SWAP4 POP POP POP POP JUMP JUMPDEST PUSH1 0x0 CALLER PUSH2 0x48D DUP2 DUP6 DUP6 PUSH2 0x4C5 DUP4 DUP4 PUSH2 0x9F5 JUMP JUMPDEST PUSH2 0x4A2 SWAP2 SWAP1 PUSH2 0x1001 JUMP JUMPDEST PUSH1 0x5 SLOAD PUSH1 0x1 PUSH1 0xA0 SHL SWAP1 DIV PUSH1 0xFF AND ISZERO PUSH2 0x4F9 JUMPI PUSH1 0x40 MLOAD PUSH3 0x461BCD PUSH1 0xE5 SHL DUP2 MSTORE PUSH1 0x4 ADD PUSH2 0x499 SWAP1 PUSH2 0x1014 JUMP JUMPDEST PUSH1 0x6 SLOAD PUSH1 0x1 PUSH1 0x1 PUSH1 0xA0 SHL SUB AND CALLER EQ PUSH2 0x54C JUMPI PUSH1 0x40 MLOAD PUSH3 0x461BCD PUSH1 0xE5 SHL DUP2 MSTORE PUSH1 0x20 PUSH1 0x4 DUP3 ADD MSTORE PUSH1 0x16 PUSH1 0x24 DUP3 ADD MSTORE PUSH22 0x18D85B1B195C881A5CC81B9BDD08199A5C9954DBDD5B PUSH1 0x52 SHL PUSH1 0x44 DUP3 ADD MSTORE PUSH1 0x64 ADD PUSH2 0x499 JUMP JUMPDEST PUSH2 0x556 DUP3 DUP3 PUSH2 0xBBE JUMP JUMPDEST POP POP JUMP JUMPDEST PUSH2 0x562 PUSH2 0xC7D JUMP JUMPDEST PUSH2 0x56C PUSH1 0x0 PUSH2 0xCD7 JUMP JUMPDEST JUMP JUMPDEST PUSH1 0x5 SLOAD PUSH1 0x0 SWAP1 PUSH1 0x1 PUSH1 0xA0 SHL SWAP1 DIV PUSH1 0xFF AND ISZERO PUSH2 0x59B JUMPI PUSH1 0x40 MLOAD PUSH3 0x461BCD PUSH1 0xE5 SHL DUP2 MSTORE PUSH1 0x4 ADD PUSH2 0x499 SWAP1 PUSH2 0x1014 JUMP JUMPDEST NUMBER DUP3 GT ISZERO PUSH2 0x5EB JUMPI PUSH1 0x40 MLOAD PUSH3 0x461BCD PUSH1 0xE5 SHL DUP2 MSTORE PUSH1 0x20 PUSH1 0x4 DUP3 ADD MSTORE PUSH1 0x19 PUSH1 0x24 DUP3 ADD MSTORE PUSH32 0x45524332303A206E6F74207965742064657465726D696E656400000000000000 PUSH1 0x44 DUP3 ADD MSTORE PUSH1 0x64 ADD PUSH2 0x499 JUMP JUMPDEST PUSH1 0x1 PUSH1 0x1 PUSH1 0xA0 SHL SUB DUP4 AND PUSH1 0x0 SWAP1 DUP2 MSTORE PUSH1 0x8 PUSH1 0x20 MSTORE PUSH1 0x40 SWAP1 KECCAK256 SLOAD PUSH4 0xFFFFFFFF AND DUP1 ISZERO DUP1 PUSH2 0x63F JUMPI POP PUSH1 0x1 PUSH1 0x1 PUSH1 0xA0 SHL SUB DUP5 AND PUSH1 0x0 SWAP1 DUP2 MSTORE PUSH1 0x7 PUSH1 0x20 SWAP1 DUP2 MSTORE PUSH1 0x40 DUP1 DUP4 KECCAK256 DUP4 DUP1 MSTORE SWAP1 SWAP2 MSTORE SWAP1 KECCAK256 SLOAD PUSH4 0xFFFFFFFF AND DUP4 LT JUMPDEST ISZERO PUSH2 0x64E JUMPI PUSH1 0x0 SWAP2 POP POP PUSH2 0x493 JUMP JUMPDEST PUSH1 0x1 PUSH1 0x1 PUSH1 0xA0 SHL SUB DUP5 AND PUSH1 0x0 SWAP1 DUP2 MSTORE PUSH1 0x7 PUSH1 0x20 MSTORE PUSH1 0x40 DUP2 KECCAK256 DUP5 SWAP2 PUSH2 0x673 PUSH1 0x1 DUP6 PUSH2 0x103D JUMP JUMPDEST PUSH4 0xFFFFFFFF SWAP1 DUP2 AND DUP3 MSTORE PUSH1 0x20 DUP3 ADD SWAP3 SWAP1 SWAP3 MSTORE PUSH1 0x40 ADD PUSH1 0x0 KECCAK256 SLOAD AND GT PUSH2 0x6E7 JUMPI PUSH1 0x1 PUSH1 0x1 PUSH1 0xA0 SHL SUB DUP5 AND PUSH1 0x0 SWAP1 DUP2 MSTORE PUSH1 0x7 PUSH1 0x20 MSTORE PUSH1 0x40 DUP2 KECCAK256 SWAP1 PUSH2 0x6B6 PUSH1 0x1 DUP5 PUSH2 0x103D JUMP JUMPDEST PUSH4 0xFFFFFFFF AND DUP2 MSTORE PUSH1 0x20 DUP2 ADD SWAP2 SWAP1 SWAP2 MSTORE PUSH1 0x40 ADD PUSH1 0x0 KECCAK256 SLOAD PUSH5 0x100000000 SWAP1 DIV PUSH1 0x1 PUSH1 0x1 PUSH1 0x60 SHL SUB AND SWAP2 POP PUSH2 0x493 SWAP1 POP JUMP JUMPDEST PUSH1 0x0 DUP1 PUSH2 0x6F5 PUSH1 0x1 DUP5 PUSH2 0x103D JUMP JUMPDEST SWAP1 POP JUMPDEST DUP2 PUSH4 0xFFFFFFFF AND DUP2 PUSH4 0xFFFFFFFF AND GT ISZERO PUSH2 0x7C8 JUMPI PUSH1 0x0 PUSH1 0x2 PUSH2 0x71A DUP5 DUP5 PUSH2 0x103D JUMP JUMPDEST PUSH2 0x724 SWAP2 SWAP1 PUSH2 0x1061 JUMP JUMPDEST PUSH2 0x72E SWAP1 DUP4 PUSH2 0x103D JUMP JUMPDEST PUSH1 0x1 PUSH1 0x1 PUSH1 0xA0 SHL SUB DUP9 AND PUSH1 0x0 SWAP1 DUP2 MSTORE PUSH1 0x7 PUSH1 0x20 SWAP1 DUP2 MSTORE PUSH1 0x40 DUP1 DUP4 KECCAK256 PUSH4 0xFFFFFFFF DUP6 DUP2 AND DUP6 MSTORE SWAP1 DUP4 MSTORE SWAP3 DUP2 SWAP1 KECCAK256 DUP2 MLOAD DUP1 DUP4 ADD SWAP1 SWAP3 MSTORE SLOAD SWAP3 DUP4 AND DUP1 DUP3 MSTORE PUSH5 0x100000000 SWAP1 SWAP4 DIV PUSH1 0x1 PUSH1 0x1 PUSH1 0x60 SHL SUB AND SWAP2 DUP2 ADD SWAP2 SWAP1 SWAP2 MSTORE SWAP2 SWAP3 POP DUP8 SWAP1 SUB PUSH2 0x79C JUMPI PUSH1 0x20 ADD MLOAD SWAP5 POP PUSH2 0x493 SWAP4 POP POP POP POP JUMP JUMPDEST DUP1 MLOAD PUSH4 0xFFFFFFFF AND DUP8 GT ISZERO PUSH2 0x7B3 JUMPI DUP2 SWAP4 POP PUSH2 0x7C1 JUMP JUMPDEST PUSH2 0x7BE PUSH1 0x1 DUP4 PUSH2 0x103D JUMP JUMPDEST SWAP3 POP JUMPDEST POP POP PUSH2 0x6F8 JUMP JUMPDEST POP PUSH1 0x1 PUSH1 0x1 PUSH1 0xA0 SHL SUB DUP6 AND PUSH1 0x0 SWAP1 DUP2 MSTORE PUSH1 0x7 PUSH1 0x20 SWAP1 DUP2 MSTORE PUSH1 0x40 DUP1 DUP4 KECCAK256 PUSH4 0xFFFFFFFF SWAP1 SWAP5 AND DUP4 MSTORE SWAP3 SWAP1 MSTORE KECCAK256 SLOAD PUSH1 0x1 PUSH1 0x1 PUSH1 0x60 SHL SUB PUSH5 0x100000000 SWAP1 SWAP2 DIV AND SWAP2 POP POP SWAP3 SWAP2 POP POP JUMP JUMPDEST PUSH2 0x816 PUSH2 0xC7D JUMP JUMPDEST PUSH1 0x6 DUP1 SLOAD PUSH1 0x1 PUSH1 0x1 PUSH1 0xA0 SHL SUB NOT AND PUSH1 0x1 PUSH1 0x1 PUSH1 0xA0 SHL SUB SWAP3 SWAP1 SWAP3 AND SWAP2 SWAP1 SWAP2 OR SWAP1 SSTORE JUMP JUMPDEST PUSH1 0x60 PUSH1 0x4 DUP1 SLOAD PUSH2 0x3FC SWAP1 PUSH2 0xFB1 JUMP JUMPDEST PUSH1 0x5 SLOAD PUSH1 0x1 PUSH1 0xA0 SHL SWAP1 DIV PUSH1 0xFF AND ISZERO PUSH2 0x871 JUMPI PUSH1 0x40 MLOAD PUSH3 0x461BCD PUSH1 0xE5 SHL DUP2 MSTORE PUSH1 0x4 ADD PUSH2 0x499 SWAP1 PUSH2 0x1014 JUMP JUMPDEST PUSH1 0x6 SLOAD PUSH1 0x1 PUSH1 0x1 PUSH1 0xA0 SHL SUB AND CALLER EQ PUSH2 0x8C4 JUMPI PUSH1 0x40 MLOAD PUSH3 0x461BCD PUSH1 0xE5 SHL DUP2 MSTORE PUSH1 0x20 PUSH1 0x4 DUP3 ADD MSTORE PUSH1 0x16 PUSH1 0x24 DUP3 ADD MSTORE PUSH22 0x18D85B1B195C881A5CC81B9BDD08199A5C9954DBDD5B PUSH1 0x52 SHL PUSH1 0x44 DUP3 ADD MSTORE PUSH1 0x64 ADD PUSH2 0x499 JUMP JUMPDEST PUSH2 0x556 DUP3 DUP3 PUSH2 0xD29 JUMP JUMPDEST PUSH1 0x0 CALLER DUP2 PUSH2 0x8DC DUP3 DUP7 PUSH2 0x9F5 JUMP JUMPDEST SWAP1 POP DUP4 DUP2 LT ISZERO PUSH2 0x93C JUMPI PUSH1 0x40 MLOAD PUSH3 0x461BCD PUSH1 0xE5 SHL DUP2 MSTORE PUSH1 0x20 PUSH1 0x4 DUP3 ADD MSTORE PUSH1 0x25 PUSH1 0x24 DUP3 ADD MSTORE PUSH32 0x45524332303A2064656372656173656420616C6C6F77616E63652062656C6F77 PUSH1 0x44 DUP3 ADD MSTORE PUSH5 0x207A65726F PUSH1 0xD8 SHL PUSH1 0x64 DUP3 ADD MSTORE PUSH1 0x84 ADD PUSH2 0x499 JUMP JUMPDEST PUSH2 0x4A7 DUP3 DUP7 DUP7 DUP5 SUB PUSH2 0xA99 JUMP JUMPDEST PUSH1 0x5 SLOAD PUSH1 0x0 SWAP1 PUSH1 0x1 PUSH1 0xA0 SHL SWAP1 DIV PUSH1 0xFF AND ISZERO PUSH2 0x976 JUMPI PUSH1 0x40 MLOAD PUSH3 0x461BCD PUSH1 0xE5 SHL DUP2 MSTORE PUSH1 0x4 ADD PUSH2 0x499 SWAP1 PUSH2 0x1014 JUMP JUMPDEST PUSH1 0x1 PUSH1 0x1 PUSH1 0xA0 SHL SUB DUP3 AND PUSH1 0x0 SWAP1 DUP2 MSTORE PUSH1 0x8 PUSH1 0x20 MSTORE PUSH1 0x40 SWAP1 KECCAK256 SLOAD PUSH4 0xFFFFFFFF AND DUP1 PUSH2 0x9A1 JUMPI PUSH1 0x0 PUSH2 0x9EE JUMP JUMPDEST PUSH1 0x1 PUSH1 0x1 PUSH1 0xA0 SHL SUB DUP4 AND PUSH1 0x0 SWAP1 DUP2 MSTORE PUSH1 0x7 PUSH1 0x20 MSTORE PUSH1 0x40 DUP2 KECCAK256 SWAP1 PUSH2 0x9C5 PUSH1 0x1 DUP5 PUSH2 0x103D JUMP JUMPDEST PUSH4 0xFFFFFFFF AND DUP2 MSTORE PUSH1 0x20 DUP2 ADD SWAP2 SWAP1 SWAP2 MSTORE PUSH1 0x40 ADD PUSH1 0x0 KECCAK256 SLOAD PUSH5 0x100000000 SWAP1 DIV PUSH1 0x1 PUSH1 0x1 PUSH1 0x60 SHL SUB AND JUMPDEST SWAP4 SWAP3 POP POP POP JUMP JUMPDEST PUSH1 0x1 PUSH1 0x1 PUSH1 0xA0 SHL SUB SWAP2 DUP3 AND PUSH1 0x0 SWAP1 DUP2 MSTORE PUSH1 0x1 PUSH1 0x20 SWAP1 DUP2 MSTORE PUSH1 0x40 DUP1 DUP4 KECCAK256 SWAP4 SWAP1 SWAP5 AND DUP3 MSTORE SWAP2 SWAP1 SWAP2 MSTORE KECCAK256 SLOAD SWAP1 JUMP JUMPDEST PUSH2 0xA28 PUSH2 0xC7D JUMP JUMPDEST PUSH1 0x1 PUSH1 0x1 PUSH1 0xA0 SHL SUB DUP2 AND PUSH2 0xA8D JUMPI PUSH1 0x40 MLOAD PUSH3 0x461BCD PUSH1 0xE5 SHL DUP2 MSTORE PUSH1 0x20 PUSH1 0x4 DUP3 ADD MSTORE PUSH1 0x26 PUSH1 0x24 DUP3 ADD MSTORE PUSH32 0x4F776E61626C653A206E6577206F776E657220697320746865207A65726F2061 PUSH1 0x44 DUP3 ADD MSTORE PUSH6 0x646472657373 PUSH1 0xD0 SHL PUSH1 0x64 DUP3 ADD MSTORE PUSH1 0x84 ADD PUSH2 0x499 JUMP JUMPDEST PUSH2 0xA96 DUP2 PUSH2 0xCD7 JUMP JUMPDEST POP JUMP JUMPDEST PUSH1 0x1 PUSH1 0x1 PUSH1 0xA0 SHL SUB DUP4 AND PUSH2 0xAFB JUMPI PUSH1 0x40 MLOAD PUSH3 0x461BCD PUSH1 0xE5 SHL DUP2 MSTORE PUSH1 0x20 PUSH1 0x4 DUP3 ADD MSTORE PUSH1 0x24 DUP1 DUP3 ADD MSTORE PUSH32 0x45524332303A20617070726F76652066726F6D20746865207A65726F20616464 PUSH1 0x44 DUP3 ADD MSTORE PUSH4 0x72657373 PUSH1 0xE0 SHL PUSH1 0x64 DUP3 ADD MSTORE PUSH1 0x84 ADD PUSH2 0x499 JUMP JUMPDEST PUSH1 0x1 PUSH1 0x1 PUSH1 0xA0 SHL SUB DUP3 AND PUSH2 0xB5C JUMPI PUSH1 0x40 MLOAD PUSH3 0x461BCD PUSH1 0xE5 SHL DUP2 MSTORE PUSH1 0x20 PUSH1 0x4 DUP3 ADD MSTORE PUSH1 0x22 PUSH1 0x24 DUP3 ADD MSTORE PUSH32 0x45524332303A20617070726F766520746F20746865207A65726F206164647265 PUSH1 0x44 DUP3 ADD MSTORE PUSH2 0x7373 PUSH1 0xF0 SHL PUSH1 0x64 DUP3 ADD MSTORE PUSH1 0x84 ADD PUSH2 0x499 JUMP JUMPDEST PUSH1 0x1 PUSH1 0x1 PUSH1 0xA0 SHL SUB DUP4 DUP2 AND PUSH1 0x0 DUP2 DUP2 MSTORE PUSH1 0x1 PUSH1 0x20 SWAP1 DUP2 MSTORE PUSH1 0x40 DUP1 DUP4 KECCAK256 SWAP5 DUP8 AND DUP1 DUP5 MSTORE SWAP5 DUP3 MSTORE SWAP2 DUP3 SWAP1 KECCAK256 DUP6 SWAP1 SSTORE SWAP1 MLOAD DUP5 DUP2 MSTORE PUSH32 0x8C5BE1E5EBEC7D5BD14F71427D1E84F3DD0314C0F7B2291E5B200AC8C7C3B925 SWAP2 ADD JUMPDEST PUSH1 0x40 MLOAD DUP1 SWAP2 SUB SWAP1 LOG3 POP POP POP JUMP JUMPDEST PUSH1 0x1 PUSH1 0x1 PUSH1 0xA0 SHL SUB DUP3 AND PUSH2 0xC14 JUMPI PUSH1 0x40 MLOAD PUSH3 0x461BCD PUSH1 0xE5 SHL DUP2 MSTORE PUSH1 0x20 PUSH1 0x4 DUP3 ADD MSTORE PUSH1 0x1F PUSH1 0x24 DUP3 ADD MSTORE PUSH32 0x45524332303A206D696E7420746F20746865207A65726F206164647265737300 PUSH1 0x44 DUP3 ADD MSTORE PUSH1 0x64 ADD PUSH2 0x499 JUMP JUMPDEST DUP1 PUSH1 0x2 PUSH1 0x0 DUP3 DUP3 SLOAD PUSH2 0xC26 SWAP2 SWAP1 PUSH2 0x1001 JUMP JUMPDEST SWAP1 SWAP2 SSTORE POP POP PUSH1 0x1 PUSH1 0x1 PUSH1 0xA0 SHL SUB DUP3 AND PUSH1 0x0 DUP2 DUP2 MSTORE PUSH1 0x20 DUP2 DUP2 MSTORE PUSH1 0x40 DUP1 DUP4 KECCAK256 DUP1 SLOAD DUP7 ADD SWAP1 SSTORE MLOAD DUP5 DUP2 MSTORE PUSH32 0xDDF252AD1BE2C89B69C2B068FC378DAA952BA7F163C4A11628F55A4DF523B3EF SWAP2 ADD PUSH1 0x40 MLOAD DUP1 SWAP2 SUB SWAP1 LOG3 POP POP JUMP JUMPDEST PUSH1 0x5 SLOAD PUSH1 0x1 PUSH1 0x1 PUSH1 0xA0 SHL SUB AND CALLER EQ PUSH2 0x56C JUMPI PUSH1 0x40 MLOAD PUSH3 0x461BCD PUSH1 0xE5 SHL DUP2 MSTORE PUSH1 0x20 PUSH1 0x4 DUP3 ADD DUP2 SWAP1 MSTORE PUSH1 0x24 DUP3 ADD MSTORE PUSH32 0x4F776E61626C653A2063616C6C6572206973206E6F7420746865206F776E6572 PUSH1 0x44 DUP3 ADD MSTORE PUSH1 0x64 ADD PUSH2 0x499 JUMP JUMPDEST PUSH1 0x5 DUP1 SLOAD PUSH1 0x1 PUSH1 0x1 PUSH1 0xA0 SHL SUB DUP4 DUP2 AND PUSH1 0x1 PUSH1 0x1 PUSH1 0xA0 SHL SUB NOT DUP4 AND DUP2 OR SWAP1 SWAP4 SSTORE PUSH1 0x40 MLOAD SWAP2 AND SWAP2 SWAP1 DUP3 SWAP1 PUSH32 0x8BE0079C531659141344CD1FD0A4F28419497F9722A3DAAFE3B4186F6B6457E0 SWAP1 PUSH1 0x0 SWAP1 LOG3 POP POP JUMP JUMPDEST PUSH1 0x1 PUSH1 0x1 PUSH1 0xA0 SHL SUB DUP3 AND PUSH2 0xD89 JUMPI PUSH1 0x40 MLOAD PUSH3 0x461BCD PUSH1 0xE5 SHL DUP2 MSTORE PUSH1 0x20 PUSH1 0x4 DUP3 ADD MSTORE PUSH1 0x21 PUSH1 0x24 DUP3 ADD MSTORE PUSH32 0x45524332303A206275726E2066726F6D20746865207A65726F20616464726573 PUSH1 0x44 DUP3 ADD MSTORE PUSH1 0x73 PUSH1 0xF8 SHL PUSH1 0x64 DUP3 ADD MSTORE PUSH1 0x84 ADD PUSH2 0x499 JUMP JUMPDEST PUSH1 0x1 PUSH1 0x1 PUSH1 0xA0 SHL SUB DUP3 AND PUSH1 0x0 SWAP1 DUP2 MSTORE PUSH1 0x20 DUP2 SWAP1 MSTORE PUSH1 0x40 SWAP1 KECCAK256 SLOAD DUP2 DUP2 LT ISZERO PUSH2 0xDFD JUMPI PUSH1 0x40 MLOAD PUSH3 0x461BCD PUSH1 0xE5 SHL DUP2 MSTORE PUSH1 0x20 PUSH1 0x4 DUP3 ADD MSTORE PUSH1 0x22 PUSH1 0x24 DUP3 ADD MSTORE PUSH32 0x45524332303A206275726E20616D6F756E7420657863656564732062616C616E PUSH1 0x44 DUP3 ADD MSTORE PUSH2 0x6365 PUSH1 0xF0 SHL PUSH1 0x64 DUP3 ADD MSTORE PUSH1 0x84 ADD PUSH2 0x499 JUMP JUMPDEST PUSH1 0x1 PUSH1 0x1 PUSH1 0xA0 SHL SUB DUP4 AND PUSH1 0x0 DUP2 DUP2 MSTORE PUSH1 0x20 DUP2 DUP2 MSTORE PUSH1 0x40 DUP1 DUP4 KECCAK256 DUP7 DUP7 SUB SWAP1 SSTORE PUSH1 0x2 DUP1 SLOAD DUP8 SWAP1 SUB SWAP1 SSTORE MLOAD DUP6 DUP2 MSTORE SWAP2 SWAP3 SWAP2 PUSH32 0xDDF252AD1BE2C89B69C2B068FC378DAA952BA7F163C4A11628F55A4DF523B3EF SWAP2 ADD PUSH2 0xBB1 JUMP JUMPDEST PUSH1 0x0 PUSH1 0x20 DUP1 DUP4 MSTORE DUP4 MLOAD DUP1 DUP3 DUP6 ADD MSTORE PUSH1 0x0 JUMPDEST DUP2 DUP2 LT ISZERO PUSH2 0xE80 JUMPI DUP6 DUP2 ADD DUP4 ADD MLOAD DUP6 DUP3 ADD PUSH1 0x40 ADD MSTORE DUP3 ADD PUSH2 0xE64 JUMP JUMPDEST POP PUSH1 0x0 PUSH1 0x40 DUP3 DUP7 ADD ADD MSTORE PUSH1 0x40 PUSH1 0x1F NOT PUSH1 0x1F DUP4 ADD AND DUP6 ADD ADD SWAP3 POP POP POP SWAP3 SWAP2 POP POP JUMP JUMPDEST DUP1 CALLDATALOAD PUSH1 0x1 PUSH1 0x1 PUSH1 0xA0 SHL SUB DUP2 AND DUP2 EQ PUSH2 0xEB8 JUMPI PUSH1 0x0 DUP1 REVERT JUMPDEST SWAP2 SWAP1 POP JUMP JUMPDEST PUSH1 0x0 DUP1 PUSH1 0x40 DUP4 DUP6 SUB SLT ISZERO PUSH2 0xED0 JUMPI PUSH1 0x0 DUP1 REVERT JUMPDEST PUSH2 0xED9 DUP4 PUSH2 0xEA1 JUMP JUMPDEST SWAP5 PUSH1 0x20 SWAP4 SWAP1 SWAP4 ADD CALLDATALOAD SWAP4 POP POP POP JUMP JUMPDEST PUSH1 0x0 DUP1 PUSH1 0x0 PUSH1 0x60 DUP5 DUP7 SUB SLT ISZERO PUSH2 0xEFC JUMPI PUSH1 0x0 DUP1 REVERT JUMPDEST PUSH2 0xF05 DUP5 PUSH2 0xEA1 JUMP JUMPDEST SWAP3 POP PUSH2 0xF13 PUSH1 0x20 DUP6 ADD PUSH2 0xEA1 JUMP JUMPDEST SWAP2 POP PUSH1 0x40 DUP5 ADD CALLDATALOAD SWAP1 POP SWAP3 POP SWAP3 POP SWAP3 JUMP JUMPDEST PUSH1 0x0 PUSH1 0x20 DUP3 DUP5 SUB SLT ISZERO PUSH2 0xF35 JUMPI PUSH1 0x0 DUP1 REVERT JUMPDEST PUSH2 0x9EE DUP3 PUSH2 0xEA1 JUMP JUMPDEST PUSH1 0x0 DUP1 PUSH1 0x40 DUP4 DUP6 SUB SLT ISZERO PUSH2 0xF51 JUMPI PUSH1 0x0 DUP1 REVERT JUMPDEST PUSH2 0xF5A DUP4 PUSH2 0xEA1 JUMP JUMPDEST SWAP2 POP PUSH2 0xF68 PUSH1 0x20 DUP5 ADD PUSH2 0xEA1 JUMP JUMPDEST SWAP1 POP SWAP3 POP SWAP3 SWAP1 POP JUMP JUMPDEST PUSH1 0x0 DUP1 PUSH1 0x40 DUP4 DUP6 SUB SLT ISZERO PUSH2 0xF84 JUMPI PUSH1 0x0 DUP1 REVERT JUMPDEST PUSH2 0xF8D DUP4 PUSH2 0xEA1 JUMP JUMPDEST SWAP2 POP PUSH1 0x20 DUP4 ADD CALLDATALOAD PUSH4 0xFFFFFFFF DUP2 AND DUP2 EQ PUSH2 0xFA6 JUMPI PUSH1 0x0 DUP1 REVERT JUMPDEST DUP1 SWAP2 POP POP SWAP3 POP SWAP3 SWAP1 POP JUMP JUMPDEST PUSH1 0x1 DUP2 DUP2 SHR SWAP1 DUP3 AND DUP1 PUSH2 0xFC5 JUMPI PUSH1 0x7F DUP3 AND SWAP2 POP JUMPDEST PUSH1 0x20 DUP3 LT DUP2 SUB PUSH2 0xFE5 JUMPI PUSH4 0x4E487B71 PUSH1 0xE0 SHL PUSH1 0x0 MSTORE PUSH1 0x22 PUSH1 0x4 MSTORE PUSH1 0x24 PUSH1 0x0 REVERT JUMPDEST POP SWAP2 SWAP1 POP JUMP JUMPDEST PUSH4 0x4E487B71 PUSH1 0xE0 SHL PUSH1 0x0 MSTORE PUSH1 0x11 PUSH1 0x4 MSTORE PUSH1 0x24 PUSH1 0x0 REVERT JUMPDEST DUP1 DUP3 ADD DUP1 DUP3 GT ISZERO PUSH2 0x493 JUMPI PUSH2 0x493 PUSH2 0xFEB JUMP JUMPDEST PUSH1 0x20 DUP1 DUP3 MSTORE PUSH1 0xF SWAP1 DUP3 ADD MSTORE PUSH15 0x7374617475732069732066616C7365 PUSH1 0x88 SHL PUSH1 0x40 DUP3 ADD MSTORE PUSH1 0x60 ADD SWAP1 JUMP JUMPDEST PUSH4 0xFFFFFFFF DUP3 DUP2 AND DUP3 DUP3 AND SUB SWAP1 DUP1 DUP3 GT ISZERO PUSH2 0x105A JUMPI PUSH2 0x105A PUSH2 0xFEB JUMP JUMPDEST POP SWAP3 SWAP2 POP POP JUMP JUMPDEST PUSH1 0x0 PUSH4 0xFFFFFFFF DUP1 DUP5 AND DUP1 PUSH2 0x1086 JUMPI PUSH4 0x4E487B71 PUSH1 0xE0 SHL PUSH1 0x0 MSTORE PUSH1 0x12 PUSH1 0x4 MSTORE PUSH1 0x24 PUSH1 0x0 REVERT JUMPDEST SWAP3 AND SWAP2 SWAP1 SWAP2 DIV SWAP3 SWAP2 POP POP JUMP INVALID LOG2 PUSH5 0x6970667358 0x22 SLT KECCAK256 GAS PUSH16 0x15CE153B89CFBAF49AA03D9442E89889 DUP7 0xDF 0x2F 0xCC 0xE4 0x25 EQ 0xD3 SMOD RETURN 0xCC LOG0 SIGNEXTEND CREATE2 PUSH5 0x736F6C6343 STOP ADDMOD SLT STOP CALLER "
		},
		"gasEstimates": {
			"creation": {
				"codeDepositCost": "859200",
				"executionCost": "infinite",
				"totalCost": "infinite"
			},
			"external": {
				"allowance(address,address)": "infinite",
				"approve(address,uint256)": "24652",
				"balanceOf(address)": "2651",
				"burn(address,uint256)": "55259",
				"checkpoints(address,uint32)": "2850",
				"decimals()": "200",
				"decreaseAllowance(address,uint256)": "27084",
				"fireSoul()": "2427",
				"getCurrentVotes(address)": "infinite",
				"getPriorVotes(address,uint256)": "infinite",
				"increaseAllowance(address,uint256)": "infinite",
				"mint(address,uint256)": "55155",
				"name()": "infinite",
				"numCheckpoints(address)": "2623",
				"owner()": "2376",
				"renounceOwnership()": "infinite",
				"setFireSoulAddress(address)": "26802",
				"setStatus()": "24459",
				"status()": "2439",
				"symbol()": "infinite",
				"totalSupply()": "2349",
				"transfer(address,uint256)": "330",
				"transferFrom(address,address,uint256)": "infinite",
				"transferOwnership(address)": "28468"
			},
			"internal": {
				"_addDelegates(address,uint96)": "infinite",
				"_devDelegates(address,uint96)": "infinite",
				"_transferErc20(address,address,uint256)": "infinite",
				"_writeCheckpoint(address,uint32,uint96,uint96)": "infinite",
				"add96(uint96,uint96,string memory)": "infinite",
				"safe32(uint256,string memory)": "infinite",
				"safe96(uint256,string memory)": "infinite",
				"sub96(uint96,uint96,string memory)": "infinite"
			}
		},
		"methodIdentifiers": {
			"allowance(address,address)": "dd62ed3e",
			"approve(address,uint256)": "095ea7b3",
			"balanceOf(address)": "70a08231",
			"burn(address,uint256)": "9dc29fac",
			"checkpoints(address,uint32)": "f1127ed8",
			"decimals()": "313ce567",
			"decreaseAllowance(address,uint256)": "a457c2d7",
			"fireSoul()": "1a5ef71c",
			"getCurrentVotes(address)": "b4b5ea57",
			"getPriorVotes(address,uint256)": "782d6fe1",
			"increaseAllowance(address,uint256)": "39509351",
			"mint(address,uint256)": "40c10f19",
			"name()": "06fdde03",
			"numCheckpoints(address)": "6fcfff45",
			"owner()": "8da5cb5b",
			"renounceOwnership()": "715018a6",
			"setFireSoulAddress(address)": "9090c0f2",
			"setStatus()": "c0336629",
			"status()": "200d2ed2",
			"symbol()": "95d89b41",
			"totalSupply()": "18160ddd",
			"transfer(address,uint256)": "a9059cbb",
			"transferFrom(address,address,uint256)": "23b872dd",
			"transferOwnership(address)": "f2fde38b"
		}
	},
	"abi": [
		{
			"inputs": [
				{
					"internalType": "address",
					"name": "_fireSoul",
					"type": "address"
				}
			],
			"stateMutability": "nonpayable",
			"type": "constructor"
		},
		{
			"anonymous": false,
			"inputs": [
				{
					"indexed": true,
					"internalType": "address",
					"name": "owner",
					"type": "address"
				},
				{
					"indexed": true,
					"internalType": "address",
					"name": "spender",
					"type": "address"
				},
				{
					"indexed": false,
					"internalType": "uint256",
					"name": "value",
					"type": "uint256"
				}
			],
			"name": "Approval",
			"type": "event"
		},
		{
			"anonymous": false,
			"inputs": [
				{
					"indexed": true,
					"internalType": "address",
					"name": "delegate",
					"type": "address"
				},
				{
					"indexed": false,
					"internalType": "uint256",
					"name": "previousBalance",
					"type": "uint256"
				},
				{
					"indexed": false,
					"internalType": "uint256",
					"name": "newBalance",
					"type": "uint256"
				}
			],
			"name": "DelegateVotesChanged",
			"type": "event"
		},
		{
			"anonymous": false,
			"inputs": [
				{
					"indexed": true,
					"internalType": "address",
					"name": "previousOwner",
					"type": "address"
				},
				{
					"indexed": true,
					"internalType": "address",
					"name": "newOwner",
					"type": "address"
				}
			],
			"name": "OwnershipTransferred",
			"type": "event"
		},
		{
			"anonymous": false,
			"inputs": [
				{
					"indexed": true,
					"internalType": "address",
					"name": "from",
					"type": "address"
				},
				{
					"indexed": true,
					"internalType": "address",
					"name": "to",
					"type": "address"
				},
				{
					"indexed": false,
					"internalType": "uint256",
					"name": "value",
					"type": "uint256"
				}
			],
			"name": "Transfer",
			"type": "event"
		},
		{
			"inputs": [
				{
					"internalType": "address",
					"name": "owner",
					"type": "address"
				},
				{
					"internalType": "address",
					"name": "spender",
					"type": "address"
				}
			],
			"name": "allowance",
			"outputs": [
				{
					"internalType": "uint256",
					"name": "",
					"type": "uint256"
				}
			],
			"stateMutability": "view",
			"type": "function"
		},
		{
			"inputs": [
				{
					"internalType": "address",
					"name": "spender",
					"type": "address"
				},
				{
					"internalType": "uint256",
					"name": "amount",
					"type": "uint256"
				}
			],
			"name": "approve",
			"outputs": [
				{
					"internalType": "bool",
					"name": "",
					"type": "bool"
				}
			],
			"stateMutability": "nonpayable",
			"type": "function"
		},
		{
			"inputs": [
				{
					"internalType": "address",
					"name": "account",
					"type": "address"
				}
			],
			"name": "balanceOf",
			"outputs": [
				{
					"internalType": "uint256",
					"name": "",
					"type": "uint256"
				}
			],
			"stateMutability": "view",
			"type": "function"
		},
		{
			"inputs": [
				{
					"internalType": "address",
					"name": "account",
					"type": "address"
				},
				{
					"internalType": "uint256",
					"name": "amount",
					"type": "uint256"
				}
			],
			"name": "burn",
			"outputs": [],
			"stateMutability": "nonpayable",
			"type": "function"
		},
		{
			"inputs": [
				{
					"internalType": "address",
					"name": "",
					"type": "address"
				},
				{
					"internalType": "uint32",
					"name": "",
					"type": "uint32"
				}
			],
			"name": "checkpoints",
			"outputs": [
				{
					"internalType": "uint32",
					"name": "fromBlock",
					"type": "uint32"
				},
				{
					"internalType": "uint96",
					"name": "votes",
					"type": "uint96"
				}
			],
			"stateMutability": "view",
			"type": "function"
		},
		{
			"inputs": [],
			"name": "decimals",
			"outputs": [
				{
					"internalType": "uint8",
					"name": "",
					"type": "uint8"
				}
			],
			"stateMutability": "view",
			"type": "function"
		},
		{
			"inputs": [
				{
					"internalType": "address",
					"name": "spender",
					"type": "address"
				},
				{
					"internalType": "uint256",
					"name": "subtractedValue",
					"type": "uint256"
				}
			],
			"name": "decreaseAllowance",
			"outputs": [
				{
					"internalType": "bool",
					"name": "",
					"type": "bool"
				}
			],
			"stateMutability": "nonpayable",
			"type": "function"
		},
		{
			"inputs": [],
			"name": "fireSoul",
			"outputs": [
				{
					"internalType": "address",
					"name": "",
					"type": "address"
				}
			],
			"stateMutability": "view",
			"type": "function"
		},
		{
			"inputs": [
				{
					"internalType": "address",
					"name": "account",
					"type": "address"
				}
			],
			"name": "getCurrentVotes",
			"outputs": [
				{
					"internalType": "uint96",
					"name": "",
					"type": "uint96"
				}
			],
			"stateMutability": "view",
			"type": "function"
		},
		{
			"inputs": [
				{
					"internalType": "address",
					"name": "account",
					"type": "address"
				},
				{
					"internalType": "uint256",
					"name": "blockNumber",
					"type": "uint256"
				}
			],
			"name": "getPriorVotes",
			"outputs": [
				{
					"internalType": "uint96",
					"name": "",
					"type": "uint96"
				}
			],
			"stateMutability": "view",
			"type": "function"
		},
		{
			"inputs": [
				{
					"internalType": "address",
					"name": "spender",
					"type": "address"
				},
				{
					"internalType": "uint256",
					"name": "addedValue",
					"type": "uint256"
				}
			],
			"name": "increaseAllowance",
			"outputs": [
				{
					"internalType": "bool",
					"name": "",
					"type": "bool"
				}
			],
			"stateMutability": "nonpayable",
			"type": "function"
		},
		{
			"inputs": [
				{
					"internalType": "address",
					"name": "account",
					"type": "address"
				},
				{
					"internalType": "uint256",
					"name": "amount",
					"type": "uint256"
				}
			],
			"name": "mint",
			"outputs": [],
			"stateMutability": "nonpayable",
			"type": "function"
		},
		{
			"inputs": [],
			"name": "name",
			"outputs": [
				{
					"internalType": "string",
					"name": "",
					"type": "string"
				}
			],
			"stateMutability": "view",
			"type": "function"
		},
		{
			"inputs": [
				{
					"internalType": "address",
					"name": "",
					"type": "address"
				}
			],
			"name": "numCheckpoints",
			"outputs": [
				{
					"internalType": "uint32",
					"name": "",
					"type": "uint32"
				}
			],
			"stateMutability": "view",
			"type": "function"
		},
		{
			"inputs": [],
			"name": "owner",
			"outputs": [
				{
					"internalType": "address",
					"name": "",
					"type": "address"
				}
			],
			"stateMutability": "view",
			"type": "function"
		},
		{
			"inputs": [],
			"name": "renounceOwnership",
			"outputs": [],
			"stateMutability": "nonpayable",
			"type": "function"
		},
		{
			"inputs": [
				{
					"internalType": "address",
					"name": "_fireSoul",
					"type": "address"
				}
			],
			"name": "setFireSoulAddress",
			"outputs": [],
			"stateMutability": "nonpayable",
			"type": "function"
		},
		{
			"inputs": [],
			"name": "setStatus",
			"outputs": [],
			"stateMutability": "nonpayable",
			"type": "function"
		},
		{
			"inputs": [],
			"name": "status",
			"outputs": [
				{
					"internalType": "bool",
					"name": "",
					"type": "bool"
				}
			],
			"stateMutability": "view",
			"type": "function"
		},
		{
			"inputs": [],
			"name": "symbol",
			"outputs": [
				{
					"internalType": "string",
					"name": "",
					"type": "string"
				}
			],
			"stateMutability": "view",
			"type": "function"
		},
		{
			"inputs": [],
			"name": "totalSupply",
			"outputs": [
				{
					"internalType": "uint256",
					"name": "",
					"type": "uint256"
				}
			],
			"stateMutability": "view",
			"type": "function"
		},
		{
			"inputs": [
				{
					"internalType": "address",
					"name": "recipient",
					"type": "address"
				},
				{
					"internalType": "uint256",
					"name": "amount",
					"type": "uint256"
				}
			],
			"name": "transfer",
			"outputs": [
				{
					"internalType": "bool",
					"name": "",
					"type": "bool"
				}
			],
			"stateMutability": "nonpayable",
			"type": "function"
		},
		{
			"inputs": [
				{
					"internalType": "address",
					"name": "sender",
					"type": "address"
				},
				{
					"internalType": "address",
					"name": "recipient",
					"type": "address"
				},
				{
					"internalType": "uint256",
					"name": "amount",
					"type": "uint256"
				}
			],
			"name": "transferFrom",
			"outputs": [
				{
					"internalType": "bool",
					"name": "",
					"type": "bool"
				}
			],
			"stateMutability": "nonpayable",
			"type": "function"
		},
		{
			"inputs": [
				{
					"internalType": "address",
					"name": "newOwner",
					"type": "address"
				}
			],
			"name": "transferOwnership",
			"outputs": [],
			"stateMutability": "nonpayable",
			"type": "function"
		}
	]
}